{
  "_format": "hh-sol-artifact-1",
  "contractName": "PausableContract",
  "sourceName": "contracts/PausableContract.sol",
  "abi": [
    {
      "inputs": [],
      "stateMutability": "nonpayable",
      "type": "constructor"
    },
    {
      "anonymous": false,
      "inputs": [
        {
          "indexed": false,
          "internalType": "address",
          "name": "pauser",
          "type": "address"
        }
      ],
      "name": "Paused",
      "type": "event"
    },
    {
      "anonymous": false,
      "inputs": [
        {
          "indexed": false,
          "internalType": "address",
          "name": "pauser",
          "type": "address"
        }
      ],
      "name": "Unpaused",
      "type": "event"
    },
    {
      "inputs": [],
      "name": "pause",
      "outputs": [],
      "stateMutability": "nonpayable",
      "type": "function"
    },
    {
      "inputs": [],
      "name": "paused",
      "outputs": [
        {
          "internalType": "bool",
          "name": "",
          "type": "bool"
        }
      ],
      "stateMutability": "view",
      "type": "function"
    },
    {
      "inputs": [],
      "name": "pauser",
      "outputs": [
        {
          "internalType": "address",
          "name": "",
          "type": "address"
        }
      ],
      "stateMutability": "view",
      "type": "function"
    },
    {
      "inputs": [],
      "name": "unpause",
      "outputs": [],
      "stateMutability": "nonpayable",
      "type": "function"
    }
  ],
  "bytecode": "0x6080806040523461003557600080546001600160a81b0319163360081b610100600160a81b0316179055610240908161003b8239f35b600080fdfe60806040818152600436101561001457600080fd5b600091823560e01c9081633f4ba83a14610134575080635c975abb146101135780638456cb591461007c57639fd0506d1461004e57600080fd5b346100785781600319360112610078579054905160089190911c6001600160a01b03168152602090f35b5080fd5b5034610078578160031936011261007857815460ff81166100e6577f62e78cea01bee320cd4e420270b5ea74000d11b0c9f74754ebdbfc544b05a258916020916001906100d733600883901c6001600160a01b0316146101d1565b60ff191617845551338152a180f35b815162461bcd60e51b815260206004820152600660248201526514185d5cd95960d21b6044820152606490fd5b503461007857816003193601126100785760ff602092541690519015158152f35b9050346101cd57826003193601126101cd5782549060ff82161561019e57507f5db9ee0a495bf2e6ff9c91a7834c1ba4fdd244a5e8aa4e537bd38aeae4b073aa9160209161019033600883901c6001600160a01b0316146101d1565b60ff1916845551338152a180f35b62461bcd60e51b815260206004820152600a602482015269139bdd081c185d5cd95960b21b6044820152606490fd5b8280fd5b156101d857565b60405162461bcd60e51b815260206004820152600a6024820152692737ba103830bab9b2b960b11b6044820152606490fdfea264697066735822122016f57f587087e50909c717521436ed4c88f79e767c673b8eea258fa9019fd4fd64736f6c63430008180033",
  "linkReferences": {},
  "deployedLinkReferences": {}
}