{
  "_format": "hh-sol-artifact-1",
  "contractName": "CultivationData",
  "sourceName": "contracts/CultivationData.sol",
  "abi": [
    {
      "anonymous": false,
      "inputs": [
        {
          "indexed": true,
          "internalType": "bytes32",
          "name": "batchId",
          "type": "bytes32"
        },
        {
          "indexed": false,
          "internalType": "string",
          "name": "location",
          "type": "string"
        }
      ],
      "name": "CultivationRecorded",
      "type": "event"
    },
    {
      "inputs": [
        {
          "internalType": "bytes32",
          "name": "",
          "type": "bytes32"
        }
      ],
      "name": "cultivations",
      "outputs": [
        {
          "internalType": "bytes32",
          "name": "batchId",
          "type": "bytes32"
        },
        {
          "internalType": "string",
          "name": "farmLocation",
          "type": "string"
        },
        {
          "internalType": "string",
          "name": "soilType",
          "type": "string"
        },
        {
          "internalType": "string",
          "name": "irrigationMethod",
          "type": "string"
        },
        {
          "internalType": "uint256",
          "name": "plantingDate",
          "type": "uint256"
        }
      ],
      "stateMutability": "view",
      "type": "function"
    },
    {
      "inputs": [
        {
          "internalType": "bytes32",
          "name": "batchId",
          "type": "bytes32"
        }
      ],
      "name": "getCultivation",
      "outputs": [
        {
          "components": [
            {
              "internalType": "bytes32",
              "name": "batchId",
              "type": "bytes32"
            },
            {
              "internalType": "string",
              "name": "farmLocation",
              "type": "string"
            },
            {
              "internalType": "string",
              "name": "soilType",
              "type": "string"
            },
            {
              "internalType": "string",
              "name": "irrigationMethod",
              "type": "string"
            },
            {
              "internalType": "uint256",
              "name": "plantingDate",
              "type": "uint256"
            }
          ],
          "internalType": "struct CultivationData.Cultivation",
          "name": "",
          "type": "tuple"
        }
      ],
      "stateMutability": "view",
      "type": "function"
    },
    {
      "inputs": [
        {
          "internalType": "bytes32",
          "name": "batchId",
          "type": "bytes32"
        },
        {
          "internalType": "string",
          "name": "location",
          "type": "string"
        },
        {
          "internalType": "string",
          "name": "soilType",
          "type": "string"
        },
        {
          "internalType": "string",
          "name": "irrigation",
          "type": "string"
        }
      ],
      "name": "recordCultivation",
      "outputs": [],
      "stateMutability": "nonpayable",
      "type": "function"
    }
  ],
  "bytecode": "0x60808060405234610016576108c0908161001c8239f35b600080fdfe6080604052600436101561001257600080fd5b60003560e01c8063baff1a9d14610621578063c0bcad20146105275763d6330cc01461003d57600080fd5b346105225760803660031901126105225760243567ffffffffffffffff81116105225761006e903690600401610815565b60443567ffffffffffffffff81116105225761008e903690600401610815565b60649391933567ffffffffffffffff8111610522576100b46100ef913690600401610815565b6100e3604051976100c4896106f2565b60043589526100d4368989610843565b9560208a019687523691610843565b60408801523691610843565b60608501524260808501526004356000526000602052604060002090845182555180519067ffffffffffffffff821161037157819061013160018501546106b8565b601f81116104cf575b50602090601f831160011461045d57600092610452575b50508160011b916000199060031b1c19161760018201555b604084015180519067ffffffffffffffff821161037157819061018f60028501546106b8565b601f81116103ff575b50602090601f831160011461039257600092610387575b50508160011b916000199060031b1c19161760028201555b606084015180519067ffffffffffffffff8211610371576101eb60038401546106b8565b601f8111610326575b50602090601f83116001146102915795826004936080937fd33eefc2c55f716b2ebd94c0e2ef6ec4b25aa9f168497146ca29a61aa3ef03dc9899600092610286575b50508160011b916000199060031b1c19161760038501555b0151910155826040519160208352816020840152604083013760006040848301015260408160043594601f80199101168101030190a2005b015190503880610236565b90601f198316916003850160005260206000209260005b81811061030e5750936080937fd33eefc2c55f716b2ebd94c0e2ef6ec4b25aa9f168497146ca29a61aa3ef03dc98999360019383600498106102f5575b505050811b01600385015561024e565b015160001960f88460031b161c191690553880806102e5565b929360206001819287860151815501950193016102a8565b600384016000526020600020601f840160051c81019160208510610367575b601f0160051c01905b81811061035b57506101f4565b6000815560010161034e565b9091508190610345565b634e487b7160e01b600052604160045260246000fd5b0151905038806101af565b600285016000908152602081209350601f198516905b8181106103e757509084600195949392106103ce575b505050811b0160028201556101c7565b015160001960f88460031b161c191690553880806103be565b929360206001819287860151815501950193016103a8565b909150600284016000526020600020601f840160051c81016020851061044b575b90849392915b601f830160051c8201811061043c575050610198565b60008155859450600101610426565b5080610420565b015190503880610151565b9250600184016000526020600020906000935b601f19841685106104b4576001945083601f1981161061049b575b505050811b016001820155610169565b015160001960f88460031b161c1916905538808061048b565b81810151835560209485019460019093019290910190610470565b909150600184016000526020600020601f840160051c81016020851061051b575b90849392915b601f830160051c8201811061050c57505061013a565b600081558594506001016104f6565b50806104f0565b600080fd5b346105225760208060031936011261052257604051610545816106f2565b60008152600060806060928385820152836040820152838082015201526004356000526000825260406000209061061660405192610582846106f2565b8054845261059260018201610730565b928585019384526106056105a860028401610730565b604087019081526105f160046105c060038701610730565b95858a0196875201549660808901978852604051998a99818b5251908a01525160a060408a015260c08901906107d5565b9051601f19938489840301908901526107d5565b9151908583030160808601526107d5565b905160a08301520390f35b346105225760203660031901126105225760043560005260006020526040600020805461065060018301610730565b916106ae61066060028301610730565b916106a0600461067260038401610730565b92015493610692604051978897885260a0602089015260a08801906107d5565b9086820360408801526107d5565b9084820360608601526107d5565b9060808301520390f35b90600182811c921680156106e8575b60208310146106d257565b634e487b7160e01b600052602260045260246000fd5b91607f16916106c7565b60a0810190811067ffffffffffffffff82111761037157604052565b90601f8019910116810190811067ffffffffffffffff82111761037157604052565b90604051918260008254610743816106b8565b908184526020946001916001811690816000146107b35750600114610774575b5050506107729250038361070e565b565b600090815285812095935091905b81831061079b5750506107729350820101388080610763565b85548884018501529485019487945091830191610782565b9250505061077294925060ff191682840152151560051b820101388080610763565b919082519283825260005b848110610801575050826000602080949584010152601f8019910116010190565b6020818301810151848301820152016107e0565b9181601f840112156105225782359167ffffffffffffffff8311610522576020838186019501011161052257565b92919267ffffffffffffffff8211610371576040519161086d601f8201601f19166020018461070e565b82948184528183011161052257828160209384600096013701015256fea2646970667358221220b2129b8e29bcd03ab87861ae3c2be3dce309c179a3fb899bc5d43105d982d93964736f6c63430008180033",
  "linkReferences": {},
  "deployedLinkReferences": {}
}