{
  "_format": "hh-sol-artifact-1",
  "contractName": "SeedRegistry",
  "sourceName": "contracts/SeedRegistry.sol",
  "abi": [
    {
      "anonymous": false,
      "inputs": [
        {
          "indexed": true,
          "internalType": "bytes32",
          "name": "seedId",
          "type": "bytes32"
        },
        {
          "indexed": false,
          "internalType": "string",
          "name": "name",
          "type": "string"
        }
      ],
      "name": "SeedRegistered",
      "type": "event"
    },
    {
      "inputs": [
        {
          "internalType": "bytes32",
          "name": "seedId",
          "type": "bytes32"
        }
      ],
      "name": "getSeed",
      "outputs": [
        {
          "components": [
            {
              "internalType": "bytes32",
              "name": "seedId",
              "type": "bytes32"
            },
            {
              "internalType": "string",
              "name": "name",
              "type": "string"
            },
            {
              "internalType": "string",
              "name": "supplier",
              "type": "string"
            },
            {
              "internalType": "string",
              "name": "origin",
              "type": "string"
            },
            {
              "internalType": "uint256",
              "name": "certificationDate",
              "type": "uint256"
            }
          ],
          "internalType": "struct SeedRegistry.Seed",
          "name": "",
          "type": "tuple"
        }
      ],
      "stateMutability": "view",
      "type": "function"
    },
    {
      "inputs": [
        {
          "internalType": "bytes32",
          "name": "seedId",
          "type": "bytes32"
        },
        {
          "internalType": "string",
          "name": "name",
          "type": "string"
        },
        {
          "internalType": "string",
          "name": "supplier",
          "type": "string"
        },
        {
          "internalType": "string",
          "name": "origin",
          "type": "string"
        }
      ],
      "name": "registerSeed",
      "outputs": [],
      "stateMutability": "nonpayable",
      "type": "function"
    },
    {
      "inputs": [
        {
          "internalType": "bytes32",
          "name": "",
          "type": "bytes32"
        }
      ],
      "name": "seeds",
      "outputs": [
        {
          "internalType": "bytes32",
          "name": "seedId",
          "type": "bytes32"
        },
        {
          "internalType": "string",
          "name": "name",
          "type": "string"
        },
        {
          "internalType": "string",
          "name": "supplier",
          "type": "string"
        },
        {
          "internalType": "string",
          "name": "origin",
          "type": "string"
        },
        {
          "internalType": "uint256",
          "name": "certificationDate",
          "type": "uint256"
        }
      ],
      "stateMutability": "view",
      "type": "function"
    }
  ],
  "bytecode": "0x60808060405234610016576108c0908161001c8239f35b600080fdfe6080604052600436101561001257600080fd5b60003560e01c806336150852146106215780637928429d1461013c5763b0b3f1471461003d57600080fd5b34610137576020806003193601126101375760405161005b816106f2565b60008152600060806060928385820152836040820152838082015201526004356000526000825260406000209061012c60405192610098846106f2565b805484526100a860018201610730565b9285850193845261011b6100be60028401610730565b6040870190815261010760046100d660038701610730565b95858a0196875201549660808901978852604051998a99818b5251908a01525160a060408a015260c08901906107d5565b9051601f19938489840301908901526107d5565b9151908583030160808601526107d5565b905160a08301520390f35b600080fd5b346101375760803660031901126101375760243567ffffffffffffffff81116101375761016d903690600401610815565b60443567ffffffffffffffff81116101375761018d903690600401610815565b60649391933567ffffffffffffffff8111610137576101b36101ee913690600401610815565b6101e2604051976101c3896106f2565b60043589526101d3368989610843565b9560208a019687523691610843565b60408801523691610843565b60608501524260808501526004356000526000602052604060002090845182555180519067ffffffffffffffff821161047057819061023060018501546106b8565b601f81116105ce575b50602090601f831160011461055c57600092610551575b50508160011b916000199060031b1c19161760018201555b604084015180519067ffffffffffffffff821161047057819061028e60028501546106b8565b601f81116104fe575b50602090601f831160011461049157600092610486575b50508160011b916000199060031b1c19161760028201555b606084015180519067ffffffffffffffff8211610470576102ea60038401546106b8565b601f8111610425575b50602090601f83116001146103905795826004936080937fcba2b3fe340d2b79cb40e8010d261f4caa1564b35cda0b5990cbf04a864d1f859899600092610385575b50508160011b916000199060031b1c19161760038501555b0151910155826040519160208352816020840152604083013760006040848301015260408160043594601f80199101168101030190a2005b015190508980610335565b90601f198316916003850160005260206000209260005b81811061040d5750936080937fcba2b3fe340d2b79cb40e8010d261f4caa1564b35cda0b5990cbf04a864d1f8598999360019383600498106103f4575b505050811b01600385015561034d565b015160001960f88460031b161c191690558980806103e4565b929360206001819287860151815501950193016103a7565b600384016000526020600020601f840160051c81019160208510610466575b601f0160051c01905b81811061045a57506102f3565b6000815560010161044d565b9091508190610444565b634e487b7160e01b600052604160045260246000fd5b0151905086806102ae565b600285016000908152602081209350601f198516905b8181106104e657509084600195949392106104cd575b505050811b0160028201556102c6565b015160001960f88460031b161c191690558680806104bd565b929360206001819287860151815501950193016104a7565b909150600284016000526020600020601f840160051c81016020851061054a575b90849392915b601f830160051c8201811061053b575050610297565b60008155859450600101610525565b508061051f565b015190508680610250565b9250600184016000526020600020906000935b601f19841685106105b3576001945083601f1981161061059a575b505050811b016001820155610268565b015160001960f88460031b161c1916905586808061058a565b8181015183556020948501946001909301929091019061056f565b909150600184016000526020600020601f840160051c81016020851061061a575b90849392915b601f830160051c8201811061060b575050610239565b600081558594506001016105f5565b50806105ef565b346101375760203660031901126101375760043560005260006020526040600020805461065060018301610730565b916106ae61066060028301610730565b916106a0600461067260038401610730565b92015493610692604051978897885260a0602089015260a08801906107d5565b9086820360408801526107d5565b9084820360608601526107d5565b9060808301520390f35b90600182811c921680156106e8575b60208310146106d257565b634e487b7160e01b600052602260045260246000fd5b91607f16916106c7565b60a0810190811067ffffffffffffffff82111761047057604052565b90601f8019910116810190811067ffffffffffffffff82111761047057604052565b90604051918260008254610743816106b8565b908184526020946001916001811690816000146107b35750600114610774575b5050506107729250038361070e565b565b600090815285812095935091905b81831061079b5750506107729350820101388080610763565b85548884018501529485019487945091830191610782565b9250505061077294925060ff191682840152151560051b820101388080610763565b919082519283825260005b848110610801575050826000602080949584010152601f8019910116010190565b6020818301810151848301820152016107e0565b9181601f840112156101375782359167ffffffffffffffff8311610137576020838186019501011161013757565b92919267ffffffffffffffff8211610470576040519161086d601f8201601f19166020018461070e565b82948184528183011161013757828160209384600096013701015256fea2646970667358221220bac8ad66dfde674a3a1522dd93a904c99b76e919b891499784797562e26a910764736f6c63430008180033",
  "linkReferences": {},
  "deployedLinkReferences": {}
}