{
  "_format": "hh-sol-artifact-1",
  "contractName": "BatchHistory",
  "sourceName": "contracts/BatchHistory.sol",
  "abi": [
    {
      "anonymous": false,
      "inputs": [
        {
          "indexed": true,
          "internalType": "bytes32",
          "name": "batchId",
          "type": "bytes32"
        },
        {
          "indexed": false,
          "internalType": "string",
          "name": "action",
          "type": "string"
        },
        {
          "indexed": true,
          "internalType": "address",
          "name": "actor",
          "type": "address"
        }
      ],
      "name": "HistoryAdded",
      "type": "event"
    },
    {
      "inputs": [
        {
          "internalType": "bytes32",
          "name": "batchId",
          "type": "bytes32"
        },
        {
          "internalType": "string",
          "name": "action",
          "type": "string"
        },
        {
          "internalType": "string",
          "name": "details",
          "type": "string"
        }
      ],
      "name": "addHistoryEntry",
      "outputs": [],
      "stateMutability": "nonpayable",
      "type": "function"
    },
    {
      "inputs": [
        {
          "internalType": "bytes32",
          "name": "batchId",
          "type": "bytes32"
        }
      ],
      "name": "getHistory",
      "outputs": [
        {
          "components": [
            {
              "internalType": "bytes32",
              "name": "batchId",
              "type": "bytes32"
            },
            {
              "internalType": "string",
              "name": "action",
              "type": "string"
            },
            {
              "internalType": "address",
              "name": "actor",
              "type": "address"
            },
            {
              "internalType": "uint256",
              "name": "timestamp",
              "type": "uint256"
            },
            {
              "internalType": "string",
              "name": "details",
              "type": "string"
            }
          ],
          "internalType": "struct BatchHistory.HistoryEntry[]",
          "name": "",
          "type": "tuple[]"
        }
      ],
      "stateMutability": "view",
      "type": "function"
    },
    {
      "inputs": [
        {
          "internalType": "bytes32",
          "name": "",
          "type": "bytes32"
        },
        {
          "internalType": "uint256",
          "name": "",
          "type": "uint256"
        }
      ],
      "name": "history",
      "outputs": [
        {
          "internalType": "bytes32",
          "name": "batchId",
          "type": "bytes32"
        },
        {
          "internalType": "string",
          "name": "action",
          "type": "string"
        },
        {
          "internalType": "address",
          "name": "actor",
          "type": "address"
        },
        {
          "internalType": "uint256",
          "name": "timestamp",
          "type": "uint256"
        },
        {
          "internalType": "string",
          "name": "details",
          "type": "string"
        }
      ],
      "stateMutability": "view",
      "type": "function"
    }
  ],
  "bytecode": "0x6080806040523461001657610847908161001c8239f35b600080fdfe608080604052600436101561001357600080fd5b60003560e01c908163115d620d146104a85750806362490d55146100e757637fac70931461004057600080fd5b346100e25760403660031901126100e257602435600435600052600060205260406000209081548110156100e2576100779161067b565b5080546100de61008960018401610725565b9260018060a01b03600282015416906100a9600460038301549201610725565b906100c6604051968796875260a0602088015260a087019061060d565b9260408601526060850152838203608085015261060d565b0390f35b600080fd5b346100e25760603660031901126100e25760243567ffffffffffffffff81116100e25761011890369060040161064d565b9060443567ffffffffffffffff81116100e25761013990369060040161064d565b600493919335600052600060205260406000206101876040519561015c876106e7565b600435875261016c3686886107ca565b936020880194855233604089015242606089015236916107ca565b60808601528054680100000000000000008110156103b5576101ae9160018201815561067b565b91909161049257845182555180519067ffffffffffffffff82116103b5576101d960018401546106ad565b601f811161044b575b50602090601f83116001146103d6579180608094926004946000926103cb575b50508160011b916000199060031b1c19161760018201555b6002810160018060a01b036040880151166bffffffffffffffffffffffff60a01b825416179055606086015160038201550193015192835167ffffffffffffffff81116103b55761026b82546106ad565b601f811161036d575b50602094601f8211600114610307579481929394956000926102fc575b50508160011b916000199060031b1c19161790555b80604051926020845281602085015260408401376000604082840101527f99daf639e4676bc687c868a4039c6f796d3eb2cf82282cf9200a61543721da92339260408160043594601f80199101168101030190a3005b015190508580610291565b601f198216958360005260206000209160005b8881106103555750836001959697981061033c575b505050811b0190556102a6565b015160001960f88460031b161c1916905585808061032f565b9192602060018192868501518155019401920161031a565b826000526020600020601f830160051c810191602084106103ab575b601f0160051c01905b81811061039f5750610274565b60008155600101610392565b9091508190610389565b634e487b7160e01b600052604160045260246000fd5b015190508880610202565b906001840160005260206000209160005b601f19851681106104335750926080949260019260049583601f1981161061041a575b505050811b01600182015561021a565b015160001960f88460031b161c1916905588808061040a565b919260206001819286850151815501940192016103e7565b600184016000526020600020601f840160051c81016020851061048b575b601f830160051c8201811061047f5750506101e2565b60008155600101610469565b5080610469565b634e487b7160e01b600052600060045260246000fd5b346100e257602090816003193601126100e257600435600052600082526040600020805467ffffffffffffffff81116103b55760059392936104ef848360051b0186610703565b8185528385018093600052846000206000915b8483106105a957604080518881528951818a01819052600092600582901b83018101918a918c9085015b8287106105395785850386f35b909192938280610599600193603f198a8203018652885161056b60a0825184528583015190808786015284019061060d565b91868060a01b036040830151166040820152606080830151908201526080809201519181840391015261060d565b960192019601959291909261052c565b838760019260409a999a516105bd816106e7565b855481526105cc858701610725565b83820152848060a01b036002870154166040820152600386015460608201526105f760048701610725565b6080820152815201920192019190969596610502565b919082519283825260005b848110610639575050826000602080949584010152601f8019910116010190565b602081830181015184830182015201610618565b9181601f840112156100e25782359167ffffffffffffffff83116100e257602083818601950101116100e257565b8054821015610697576000526005602060002091020190600090565b634e487b7160e01b600052603260045260246000fd5b90600182811c921680156106dd575b60208310146106c757565b634e487b7160e01b600052602260045260246000fd5b91607f16916106bc565b60a0810190811067ffffffffffffffff8211176103b557604052565b90601f8019910116810190811067ffffffffffffffff8211176103b557604052565b90604051918260008254610738816106ad565b908184526020946001916001811690816000146107a85750600114610769575b50505061076792500383610703565b565b600090815285812095935091905b8183106107905750506107679350820101388080610758565b85548884018501529485019487945091830191610777565b9250505061076794925060ff191682840152151560051b820101388080610758565b92919267ffffffffffffffff82116103b557604051916107f4601f8201601f191660200184610703565b8294818452818301116100e257828160209384600096013701015256fea2646970667358221220b382933157958133981bc8f8a0504f2212e4f70870f1e155fd85ea8af9994c0b64736f6c63430008180033",
  "linkReferences": {},
  "deployedLinkReferences": {}
}