{
  "_format": "hh-sol-artifact-1",
  "contractName": "FarmerRegistryContract",
  "sourceName": "contracts/FarmerRegistryContract.sol",
  "abi": [
    {
      "anonymous": false,
      "inputs": [
        {
          "indexed": true,
          "internalType": "address",
          "name": "farmer",
          "type": "address"
        },
        {
          "indexed": false,
          "internalType": "string",
          "name": "name",
          "type": "string"
        },
        {
          "indexed": false,
          "internalType": "uint256",
          "name": "timestamp",
          "type": "uint256"
        }
      ],
      "name": "FarmerRegistered",
      "type": "event"
    },
    {
      "anonymous": false,
      "inputs": [
        {
          "indexed": true,
          "internalType": "address",
          "name": "farmer",
          "type": "address"
        },
        {
          "indexed": false,
          "internalType": "bool",
          "name": "verified",
          "type": "bool"
        }
      ],
      "name": "FarmerVerified",
      "type": "event"
    },
    {
      "inputs": [
        {
          "internalType": "uint256",
          "name": "",
          "type": "uint256"
        }
      ],
      "name": "farmerAddresses",
      "outputs": [
        {
          "internalType": "address",
          "name": "",
          "type": "address"
        }
      ],
      "stateMutability": "view",
      "type": "function"
    },
    {
      "inputs": [
        {
          "internalType": "address",
          "name": "",
          "type": "address"
        }
      ],
      "name": "farmers",
      "outputs": [
        {
          "internalType": "address",
          "name": "walletAddress",
          "type": "address"
        },
        {
          "internalType": "string",
          "name": "name",
          "type": "string"
        },
        {
          "internalType": "string",
          "name": "location",
          "type": "string"
        },
        {
          "internalType": "uint256",
          "name": "registrationDate",
          "type": "uint256"
        },
        {
          "internalType": "bool",
          "name": "verified",
          "type": "bool"
        },
        {
          "internalType": "uint256",
          "name": "totalBatches",
          "type": "uint256"
        }
      ],
      "stateMutability": "view",
      "type": "function"
    },
    {
      "inputs": [
        {
          "internalType": "address",
          "name": "farmer",
          "type": "address"
        }
      ],
      "name": "getFarmer",
      "outputs": [
        {
          "components": [
            {
              "internalType": "address",
              "name": "walletAddress",
              "type": "address"
            },
            {
              "internalType": "string",
              "name": "name",
              "type": "string"
            },
            {
              "internalType": "string",
              "name": "location",
              "type": "string"
            },
            {
              "internalType": "uint256",
              "name": "registrationDate",
              "type": "uint256"
            },
            {
              "internalType": "bool",
              "name": "verified",
              "type": "bool"
            },
            {
              "internalType": "uint256",
              "name": "totalBatches",
              "type": "uint256"
            }
          ],
          "internalType": "struct FarmerRegistryContract.Farmer",
          "name": "",
          "type": "tuple"
        }
      ],
      "stateMutability": "view",
      "type": "function"
    },
    {
      "inputs": [],
      "name": "getFarmerCount",
      "outputs": [
        {
          "internalType": "uint256",
          "name": "",
          "type": "uint256"
        }
      ],
      "stateMutability": "view",
      "type": "function"
    },
    {
      "inputs": [
        {
          "internalType": "address",
          "name": "farmer",
          "type": "address"
        }
      ],
      "name": "incrementBatchCount",
      "outputs": [],
      "stateMutability": "nonpayable",
      "type": "function"
    },
    {
      "inputs": [
        {
          "internalType": "string",
          "name": "name",
          "type": "string"
        },
        {
          "internalType": "string",
          "name": "location",
          "type": "string"
        }
      ],
      "name": "registerFarmer",
      "outputs": [],
      "stateMutability": "nonpayable",
      "type": "function"
    },
    {
      "inputs": [
        {
          "internalType": "address",
          "name": "farmer",
          "type": "address"
        },
        {
          "internalType": "bool",
          "name": "verified",
          "type": "bool"
        }
      ],
      "name": "verifyFarmer",
      "outputs": [],
      "stateMutability": "nonpayable",
      "type": "function"
    }
  ],
  "bytecode": "0x6080806040523461001657610a84908161001c8239f35b600080fdfe6080604090808252600436101561001557600080fd5b60003560e01c908163314596b21461039857508063401b2168146102f357806346f7a00c14610259578063b9cc161414610218578063c4a8b5d5146101f9578063c90df9bc146101845763e7609c161461006e57600080fd5b3461017f5760208060031936011261017f5761008861080a565b91600060a082516100988161085a565b828152606085820152606084820152826060820152826080820152015260018060a01b038093166000526000825280600020918151926100d78461085a565b8481541684526101666100ec60018301610898565b9383860194855261015361010260028501610898565b9180880192835260c060038601549760608a01988952600560ff6004890154169760808c01981515895201549760a08b0198895283519b8c9b828d525116908b0152519189015260e088019061093d565b9051868203601f1901606088015261093d565b9251608085015251151560a08401525160c08301520390f35b600080fd5b503461017f57602036600319011261017f576005906001600160a01b036101a961080a565b168060005260006020526101c560038360002001541515610a11565b600052600060205260002001805460001981146101e3576001019055005b634e487b7160e01b600052601160045260246000fd5b503461017f57600036600319011261017f576020906001549051908152f35b503461017f57602036600319011261017f576004359060015482101561017f5761024360209261097d565b905491519160018060a01b039160031b1c168152f35b503461017f578060031936011261017f5761027261080a565b906024359182151580840361017f577ffb63d576fe2851d4ea1f3f754e8505ead17fcba460d20678cdd2947bf073e5f1926102ec60209360018060a01b03169586600052600085526102cc60038460002001541515610a11565b8660005260008552600483600020019060ff801983541691151516179055565b51908152a2005b503461017f57602036600319011261017f576001600160a01b03908161031761080a565b16600052600060205280600020918254169061033560018401610898565b9261034260028201610898565b90610382600382015493600560ff600485015416930154936103758251988998895260c060208a015260c089019061093d565b918783039088015261093d565b9260608501521515608084015260a08301520390f35b90503461017f578160031936011261017f5760043567ffffffffffffffff811161017f576103ca9036906004016107dc565b92909160243567ffffffffffffffff811161017f576103ed9036906004016107dc565b9133600052600060205260038460002001546107a557506104308351916104138361085a565b3383526104213688886109ca565b936020840194855236916109ca565b8382015242606082015260006080820152600060a0820152336000526000602052826000209160018060a01b038251166bffffffffffffffffffffffff60a01b8454161783555180519067ffffffffffffffff82116105f85781906104986001860154610820565b601f8111610752575b50602090601f83116001146106e0576000926106d5575b50508160011b916000199060031b1c19161760018301555b8281015180519067ffffffffffffffff82116105f8576104f36002850154610820565b601f811161068e575b50602090601f83116001146106195791806005949260a09460009261060e575b50508160011b916000199060031b1c19161760028501555b6060810151600385015561055d60808201511515600486019060ff801983541691151516179055565b0151910155600154680100000000000000008110156105f8577f9e6c0ba7b243f2832f486b0f05ab87adc71f805a3ed13de7d41274c0fd9e2201926105a982600187940160015561097d565b81546001600160a01b0360039290921b91821b19163390911b179055825183815292830182905260608301376000606084830101524260208201526060813394601f80199101168101030190a2005b634e487b7160e01b600052604160045260246000fd5b01519050388061051c565b906002850160005260206000209160005b601f19851681106106765750926005949260019260a09583601f1981161061065d575b505050811b016002850155610534565b015160001960f88460031b161c1916905538808061064d565b9192602060018192868501518155019401920161062a565b600285016000526020600020601f840160051c8101602085106106ce575b601f830160051c820181106106c25750506104fc565b600081556001016106ac565b50806106ac565b0151905038806104b8565b9250600185016000526020600020906000935b601f1984168510610737576001945083601f1981161061071e575b505050811b0160018301556104d0565b015160001960f88460031b161c1916905538808061070e565b818101518355602094850194600190930192909101906106f3565b909150600185016000526020600020601f840160051c81016020851061079e575b90849392915b601f830160051c8201811061078f5750506104a1565b60008155859450600101610779565b5080610773565b62461bcd60e51b8152602060048201526012602482015271105b1c9958591e481c9959da5cdd195c995960721b6044820152606490fd5b9181601f8401121561017f5782359167ffffffffffffffff831161017f576020838186019501011161017f57565b600435906001600160a01b038216820361017f57565b90600182811c92168015610850575b602083101461083a57565b634e487b7160e01b600052602260045260246000fd5b91607f169161082f565b60c0810190811067ffffffffffffffff8211176105f857604052565b90601f8019910116810190811067ffffffffffffffff8211176105f857604052565b906040519182600082546108ab81610820565b9081845260209460019160018116908160001461091b57506001146108dc575b5050506108da92500383610876565b565b600090815285812095935091905b8183106109035750506108da93508201013880806108cb565b855488840185015294850194879450918301916108ea565b925050506108da94925060ff191682840152151560051b8201013880806108cb565b919082519283825260005b848110610969575050826000602080949584010152601f8019910116010190565b602081830181015184830182015201610948565b6001548110156109b45760016000527fb10e2d527612073b26eecdfd717e6a320cf44b4afac2b0732d9fcbe2b7fa0cf60190600090565b634e487b7160e01b600052603260045260246000fd5b92919267ffffffffffffffff82116105f857604051916109f4601f8201601f191660200184610876565b82948184528183011161017f578281602093846000960137010152565b15610a1857565b60405162461bcd60e51b815260206004820152600e60248201526d139bdd081c9959da5cdd195c995960921b6044820152606490fdfea2646970667358221220315aa0af94cfe6761fae1283390206b105e20e2f94c802f4f19cc53b6f045d8c64736f6c63430008180033",
  "linkReferences": {},
  "deployedLinkReferences": {}
}