{
  "_format": "hh-sol-artifact-1",
  "contractName": "PriceHistory",
  "sourceName": "contracts/PriceHistory.sol",
  "abi": [
    {
      "anonymous": false,
      "inputs": [
        {
          "indexed": true,
          "internalType": "bytes32",
          "name": "batchId",
          "type": "bytes32"
        },
        {
          "indexed": false,
          "internalType": "uint256",
          "name": "price",
          "type": "uint256"
        }
      ],
      "name": "PriceRecorded",
      "type": "event"
    },
    {
      "inputs": [
        {
          "internalType": "bytes32",
          "name": "batchId",
          "type": "bytes32"
        }
      ],
      "name": "getLatestPrice",
      "outputs": [
        {
          "internalType": "uint256",
          "name": "",
          "type": "uint256"
        }
      ],
      "stateMutability": "view",
      "type": "function"
    },
    {
      "inputs": [
        {
          "internalType": "bytes32",
          "name": "batchId",
          "type": "bytes32"
        }
      ],
      "name": "getPriceHistory",
      "outputs": [
        {
          "components": [
            {
              "internalType": "uint256",
              "name": "price",
              "type": "uint256"
            },
            {
              "internalType": "uint256",
              "name": "timestamp",
              "type": "uint256"
            }
          ],
          "internalType": "struct PriceHistory.PricePoint[]",
          "name": "",
          "type": "tuple[]"
        }
      ],
      "stateMutability": "view",
      "type": "function"
    },
    {
      "inputs": [
        {
          "internalType": "bytes32",
          "name": "",
          "type": "bytes32"
        },
        {
          "internalType": "uint256",
          "name": "",
          "type": "uint256"
        }
      ],
      "name": "priceHistory",
      "outputs": [
        {
          "internalType": "uint256",
          "name": "price",
          "type": "uint256"
        },
        {
          "internalType": "uint256",
          "name": "timestamp",
          "type": "uint256"
        }
      ],
      "stateMutability": "view",
      "type": "function"
    },
    {
      "inputs": [
        {
          "internalType": "bytes32",
          "name": "batchId",
          "type": "bytes32"
        },
        {
          "internalType": "uint256",
          "name": "price",
          "type": "uint256"
        }
      ],
      "name": "recordPrice",
      "outputs": [],
      "stateMutability": "nonpayable",
      "type": "function"
    }
  ],
  "bytecode": "0x6080806040523461001657610429908161001c8239f35b600080fdfe60406080815260048036101561001457600080fd5b600091823560e01c80630bb30e24146101795780632c0dc14f14610130578063b2ee2f01146101065763c3643fda1461004c57600080fd5b346101025761005a36610269565b9190928385528460205281852061006f6102b6565b8481526020810191428352805490680100000000000000008210156100ef579061009e91600182018155610284565b9390936100dd575051825551600190910155519081527fd35d3793a967eb243cb736256c5dc39032c5d5c4c3ad1a6f35fd621bdc62ab5b90602090a280f35b634e487b7160e01b8852879052602487fd5b634e487b7160e01b895260418552602489fd5b8280fd5b50823461012d57602036600319011261012d575061012660209235610312565b9051908152f35b80fd5b8382346101755761014036610269565b908352826020528183208054821015610171579061015d91610284565b506001815491015482519182526020820152f35b8380fd5b5080fd5b509190346101755760208060031936011261010257813583528281528383209283549267ffffffffffffffff84116102565750909392916101be858260051b016102ec565b908082528582018094845286842084915b8383106102225750505050835194859481860192828752518093528086019493905b8382106101fe5786860387f35b845180518752830151868401528796509485019493820193600191909101906101f1565b6002896001926102369b9897999a9b6102b6565b8554815284860154838201528152019201920191909796959394976101cf565b634e487b7160e01b825260419052602490fd5b604090600319011261027f576004359060243590565b600080fd5b80548210156102a05760005260206000209060011b0190600090565b634e487b7160e01b600052603260045260246000fd5b604051906040820182811067ffffffffffffffff8211176102d657604052565b634e487b7160e01b600052604160045260246000fd5b6040519190601f01601f1916820167ffffffffffffffff8111838210176102d657604052565b60009081526020908082526040812090815467ffffffffffffffff81116103df57610341848260051b016102ec565b8181529282528382208290858086015b8484106103b557505050505081519081156103ae57600019820191821161039a578251821015610386575060051b0101515190565b634e487b7160e01b81526032600452602490fd5b634e487b7160e01b81526011600452602490fd5b9250505090565b6001916002916103c36102b6565b8554815284860154838201528152019201920191908690610351565b634e487b7160e01b82526041600452602482fdfea26469706673582212203a6e43af7a110d7c959e39518108a3b63bd45b5667e4f5cec2043205dfba55c564736f6c63430008180033",
  "linkReferences": {},
  "deployedLinkReferences": {}
}