{
  "_format": "hh-sol-artifact-1",
  "contractName": "ComplianceVerifier",
  "sourceName": "contracts/ComplianceVerifier.sol",
  "abi": [
    {
      "anonymous": false,
      "inputs": [
        {
          "indexed": true,
          "internalType": "bytes32",
          "name": "batchId",
          "type": "bytes32"
        },
        {
          "indexed": false,
          "internalType": "string",
          "name": "regulation",
          "type": "string"
        },
        {
          "indexed": false,
          "internalType": "bool",
          "name": "compliant",
          "type": "bool"
        }
      ],
      "name": "ComplianceChecked",
      "type": "event"
    },
    {
      "inputs": [
        {
          "internalType": "bytes32",
          "name": "",
          "type": "bytes32"
        },
        {
          "internalType": "uint256",
          "name": "",
          "type": "uint256"
        }
      ],
      "name": "complianceChecks",
      "outputs": [
        {
          "internalType": "bytes32",
          "name": "batchId",
          "type": "bytes32"
        },
        {
          "internalType": "string",
          "name": "regulation",
          "type": "string"
        },
        {
          "internalType": "bool",
          "name": "compliant",
          "type": "bool"
        },
        {
          "internalType": "string",
          "name": "details",
          "type": "string"
        },
        {
          "internalType": "uint256",
          "name": "timestamp",
          "type": "uint256"
        }
      ],
      "stateMutability": "view",
      "type": "function"
    },
    {
      "inputs": [
        {
          "internalType": "bytes32",
          "name": "batchId",
          "type": "bytes32"
        }
      ],
      "name": "getComplianceChecks",
      "outputs": [
        {
          "components": [
            {
              "internalType": "bytes32",
              "name": "batchId",
              "type": "bytes32"
            },
            {
              "internalType": "string",
              "name": "regulation",
              "type": "string"
            },
            {
              "internalType": "bool",
              "name": "compliant",
              "type": "bool"
            },
            {
              "internalType": "string",
              "name": "details",
              "type": "string"
            },
            {
              "internalType": "uint256",
              "name": "timestamp",
              "type": "uint256"
            }
          ],
          "internalType": "struct ComplianceVerifier.ComplianceCheck[]",
          "name": "",
          "type": "tuple[]"
        }
      ],
      "stateMutability": "view",
      "type": "function"
    },
    {
      "inputs": [
        {
          "internalType": "bytes32",
          "name": "batchId",
          "type": "bytes32"
        },
        {
          "internalType": "string",
          "name": "regulation",
          "type": "string"
        },
        {
          "internalType": "bool",
          "name": "compliant",
          "type": "bool"
        },
        {
          "internalType": "string",
          "name": "details",
          "type": "string"
        }
      ],
      "name": "performCheck",
      "outputs": [],
      "stateMutability": "nonpayable",
      "type": "function"
    }
  ],
  "bytecode": "0x608080604052346100165761086f908161001c8239f35b600080fdfe608080604052600436101561001357600080fd5b60003560e01c9081633f0c1ac01461025d575080637b460b38146100e45763c254f2e11461004057600080fd5b346100df5760403660031901126100df57602435600435600052600060205260406000209081548110156100df57610077916106a3565b5080546100866001830161074d565b916100d560ff60028301541660046100a06003850161074d565b930154926100c0604051968796875260a0602088015260a0870190610663565b91151560408601528482036060860152610663565b9060808301520390f35b600080fd5b346100df576020806003193601126100df5760043560005260008152604060002080549067ffffffffffffffff82116102475782906005926040519361012f848360051b018661072b565b8185528385018093600052846000206000915b8483106101e557604080518881528951818a01819052600092600582901b83018101918a918c9085015b8287106101795785850386f35b909192938280600192603f198982030185528751906101cb6101ac60a08451845285850151908087860152840190610663565b6040840151151560408401526060808501519084830390850152610663565b91608080910151910152960192019601959291909261016c565b838760019260409a999a516101f98161070f565b8554815261020885870161074d565b8382015260ff600287015416151560408201526102276003870161074d565b606082015260048601546080820152815201920192019190969596610142565b634e487b7160e01b600052604160045260246000fd5b346100df5760803660031901126100df5760243567ffffffffffffffff81116100df5761028e903690600401610635565b9060443580151581036100df5760643567ffffffffffffffff81116100df576102bb903690600401610635565b9060043560005260006020526103006040600020916102d98861070f565b60043588526102e93688886107f2565b936020890194855285151560408a015236916107f2565b60608701524260808701528054680100000000000000008110156102475761032d916001820181556106a3565b91909161061f57855182555180519067ffffffffffffffff821161024757819061035a60018501546106d5565b601f81116105cc575b50602090601f831160011461055f57600092610554575b50508160011b916000199060031b1c19161760018201555b600281016040860151151560ff80198354169116179055606085015194855167ffffffffffffffff8111610247576103cd60038401546106d5565b601f811161050d575b506020601f82116001146104795791816080926004947f7163a23c850bcaab1ded8c3055b6a413ee9a2911bc581370fa8a1b5054daad84999a60009261046e575b50508160011b916000199060031b1c19161760038501555b015191015583604051926040845281604085015260608401376000606085840101521515602082015260608160043594601f80199101168101030190a2005b015190508a80610417565b601f198216976003850160005260206000209860005b8181106104f55750927f7163a23c850bcaab1ded8c3055b6a413ee9a2911bc581370fa8a1b5054daad8498996004959360019383608097106104dc575b505050811b01600385015561042f565b015160001960f88460031b161c191690558a80806104cc565b838301518b556001909a01996020938401930161048f565b600384016000526020600020601f830160051c81016020841061054d575b601f830160051c820181106105415750506103d6565b6000815560010161052b565b508061052b565b01519050878061037a565b600185016000908152602081209350601f198516905b8181106105b4575090846001959493921061059b575b505050811b016001820155610392565b015160001960f88460031b161c1916905587808061058b565b92936020600181928786015181550195019301610575565b909150600184016000526020600020601f840160051c810160208510610618575b90849392915b601f830160051c82018110610609575050610363565b600081558594506001016105f3565b50806105ed565b634e487b7160e01b600052600060045260246000fd5b9181601f840112156100df5782359167ffffffffffffffff83116100df57602083818601950101116100df57565b919082519283825260005b84811061068f575050826000602080949584010152601f8019910116010190565b60208183018101518483018201520161066e565b80548210156106bf576000526005602060002091020190600090565b634e487b7160e01b600052603260045260246000fd5b90600182811c92168015610705575b60208310146106ef57565b634e487b7160e01b600052602260045260246000fd5b91607f16916106e4565b60a0810190811067ffffffffffffffff82111761024757604052565b90601f8019910116810190811067ffffffffffffffff82111761024757604052565b90604051918260008254610760816106d5565b908184526020946001916001811690816000146107d05750600114610791575b50505061078f9250038361072b565b565b600090815285812095935091905b8183106107b857505061078f9350820101388080610780565b8554888401850152948501948794509183019161079f565b9250505061078f94925060ff191682840152151560051b820101388080610780565b92919267ffffffffffffffff8211610247576040519161081c601f8201601f19166020018461072b565b8294818452818301116100df57828160209384600096013701015256fea2646970667358221220de1f2e95e25adb3bd681c32fac94702e200b79c0c5d55322fd517d948777e30464736f6c63430008180033",
  "linkReferences": {},
  "deployedLinkReferences": {}
}