{
  "_format": "hh-sol-artifact-1",
  "contractName": "RatingSystem",
  "sourceName": "contracts/RatingSystem.sol",
  "abi": [
    {
      "anonymous": false,
      "inputs": [
        {
          "indexed": true,
          "internalType": "bytes32",
          "name": "batchId",
          "type": "bytes32"
        },
        {
          "indexed": true,
          "internalType": "address",
          "name": "rater",
          "type": "address"
        },
        {
          "indexed": false,
          "internalType": "uint256",
          "name": "rating",
          "type": "uint256"
        }
      ],
      "name": "RatingSubmitted",
      "type": "event"
    },
    {
      "inputs": [
        {
          "internalType": "bytes32",
          "name": "",
          "type": "bytes32"
        }
      ],
      "name": "averageRatings",
      "outputs": [
        {
          "internalType": "uint256",
          "name": "",
          "type": "uint256"
        }
      ],
      "stateMutability": "view",
      "type": "function"
    },
    {
      "inputs": [
        {
          "internalType": "bytes32",
          "name": "batchId",
          "type": "bytes32"
        }
      ],
      "name": "getRatings",
      "outputs": [
        {
          "components": [
            {
              "internalType": "address",
              "name": "rater",
              "type": "address"
            },
            {
              "internalType": "uint256",
              "name": "rating",
              "type": "uint256"
            },
            {
              "internalType": "string",
              "name": "comment",
              "type": "string"
            },
            {
              "internalType": "uint256",
              "name": "timestamp",
              "type": "uint256"
            }
          ],
          "internalType": "struct RatingSystem.Rating[]",
          "name": "",
          "type": "tuple[]"
        }
      ],
      "stateMutability": "view",
      "type": "function"
    },
    {
      "inputs": [
        {
          "internalType": "bytes32",
          "name": "",
          "type": "bytes32"
        },
        {
          "internalType": "uint256",
          "name": "",
          "type": "uint256"
        }
      ],
      "name": "ratings",
      "outputs": [
        {
          "internalType": "address",
          "name": "rater",
          "type": "address"
        },
        {
          "internalType": "uint256",
          "name": "rating",
          "type": "uint256"
        },
        {
          "internalType": "string",
          "name": "comment",
          "type": "string"
        },
        {
          "internalType": "uint256",
          "name": "timestamp",
          "type": "uint256"
        }
      ],
      "stateMutability": "view",
      "type": "function"
    },
    {
      "inputs": [
        {
          "internalType": "bytes32",
          "name": "batchId",
          "type": "bytes32"
        },
        {
          "internalType": "uint256",
          "name": "rating",
          "type": "uint256"
        },
        {
          "internalType": "string",
          "name": "comment",
          "type": "string"
        }
      ],
      "name": "submitRating",
      "outputs": [],
      "stateMutability": "nonpayable",
      "type": "function"
    }
  ],
  "bytecode": "0x6080806040523461001657610836908161001c8239f35b600080fdfe608080604052600436101561001357600080fd5b60003560e01c9081632eb1b16914610519575080636b378d0e146104ed57806384673789146104685763977194291461004b57600080fd5b3461046357606036600319011261046357604435602467ffffffffffffffff821161046357366023830112156104635781600401359167ffffffffffffffff831161046357368284830101116104635760018235101580610457575b1561041e576004356000526000602052604060002090604051916100ca8361071d565b3383526000602080850196863588528087604051966100f285601f19601f8601160189610739565b8288520183870137840101526040830191825242606084015280549068010000000000000000821015610409579061012f916001820181556106b1565b9490946103f457825185546001600160a01b0319166001600160a01b039190911617855551600185015551805190939067ffffffffffffffff811161031e5761017b60028301546106e3565b601f81116103ad575b506020601f821160011461033e578192939495600092610333575b50508160011b916000199060031b1c19161760028201555b600360608193015191015560043560005260006020526040600020805467ffffffffffffffff811161031e5760059291604051926101fb60208460051b0185610739565b82845260208401916000526020600020906000925b8484106102d0578787600088815b815183101561025c5760208084861b84010151015181018091116102475760019092019161021e565b84634e487b7160e01b60005260116004526000fd5b905184918115806102c6576102b157045b60043560005260016020526040600020556040519035815233907fea6a5e6b5b889b6ab1dad83908423c7375952845d0faedc98d31ad40dfa51641602060043592a3005b82634e487b7160e01b60005260126004526000fd5b505050600061026d565b600460206001926040516102e38161071d565b848060a01b03875416815284870154838201526103026002880161075b565b6040820152858701546060820152815201930193019291610210565b83634e487b7160e01b60005260416004526000fd5b01519050388061019f565b6002830160005260206000209060005b601f1984168110610395575060019394959683601f1981161061037c575b505050811b0160028201556101b7565b015160001960f88460031b161c1916905538808061036c565b9091602060018192858b01518155019301910161034e565b600283016000526020600020601f830160051c8101602084106103ed575b601f830160051c820181106103e1575050610184565b600081556001016103cb565b50806103cb565b83634e487b7160e01b60005260006004526000fd5b84634e487b7160e01b60005260416004526000fd5b60405162461bcd60e51b81526020600482015260128184015271526174696e67206d75737420626520312d3560701b6044820152606490fd5b506005823511156100a7565b600080fd5b3461046357604036600319011261046357602435600435600052600060205260406000209081548110156104635761049f916106b1565b5060018060a01b038154166001820154916104e360036104c16002840161075b565b9201549160405194859485526020850152608060408501526080840190610671565b9060608301520390f35b346104635760203660031901126104635760043560005260016020526020604060002054604051908152f35b34610463576020908160031936011261046357600435600052600082526040600020805467ffffffffffffffff811161065b5761055e848260059695961b0185610739565b8084528284018092600052836000206000915b8383106106075750505050604051918083019381845251809452604083019360408160051b85010192916000955b8287106105ac5785850386f35b909192938280600192603f198982030185528751906105ed6080868060a01b0384511683528484015185840152604084015190806040850152830190610671565b91606080910151910152960192019601959291909261059f565b60048660019260409998995161061c8161071d565b848060a01b038654168152848601548382015261063b6002870161075b565b604082015260038601546060820152815201920192019190959495610571565b634e487b7160e01b600052604160045260246000fd5b919082519283825260005b84811061069d575050826000602080949584010152601f8019910116010190565b60208183018101518483018201520161067c565b80548210156106cd5760005260206000209060021b0190600090565b634e487b7160e01b600052603260045260246000fd5b90600182811c92168015610713575b60208310146106fd57565b634e487b7160e01b600052602260045260246000fd5b91607f16916106f2565b6080810190811067ffffffffffffffff82111761065b57604052565b90601f8019910116810190811067ffffffffffffffff82111761065b57604052565b9060405191826000825461076e816106e3565b908184526020946001916001811690816000146107de575060011461079f575b50505061079d92500383610739565b565b600090815285812095935091905b8183106107c657505061079d935082010138808061078e565b855488840185015294850194879450918301916107ad565b9250505061079d94925060ff191682840152151560051b82010138808061078e56fea264697066735822122029976b28ef7c12d59e104ece5dc44da78030c1577b4648cde7bf0e4dfa82106f64736f6c63430008180033",
  "linkReferences": {},
  "deployedLinkReferences": {}
}