{
  "_format": "hh-sol-artifact-1",
  "contractName": "DisputeResolver",
  "sourceName": "contracts/DisputeResolver.sol",
  "abi": [
    {
      "anonymous": false,
      "inputs": [
        {
          "indexed": true,
          "internalType": "bytes32",
          "name": "disputeId",
          "type": "bytes32"
        },
        {
          "indexed": true,
          "internalType": "address",
          "name": "complainant",
          "type": "address"
        }
      ],
      "name": "DisputeOpened",
      "type": "event"
    },
    {
      "anonymous": false,
      "inputs": [
        {
          "indexed": true,
          "internalType": "bytes32",
          "name": "disputeId",
          "type": "bytes32"
        },
        {
          "indexed": false,
          "internalType": "string",
          "name": "resolution",
          "type": "string"
        }
      ],
      "name": "DisputeResolved",
      "type": "event"
    },
    {
      "inputs": [
        {
          "internalType": "bytes32",
          "name": "",
          "type": "bytes32"
        }
      ],
      "name": "disputes",
      "outputs": [
        {
          "internalType": "bytes32",
          "name": "disputeId",
          "type": "bytes32"
        },
        {
          "internalType": "bytes32",
          "name": "batchId",
          "type": "bytes32"
        },
        {
          "internalType": "address",
          "name": "complainant",
          "type": "address"
        },
        {
          "internalType": "address",
          "name": "respondent",
          "type": "address"
        },
        {
          "internalType": "string",
          "name": "description",
          "type": "string"
        },
        {
          "internalType": "string",
          "name": "status",
          "type": "string"
        },
        {
          "internalType": "uint256",
          "name": "createdAt",
          "type": "uint256"
        },
        {
          "internalType": "uint256",
          "name": "resolvedAt",
          "type": "uint256"
        }
      ],
      "stateMutability": "view",
      "type": "function"
    },
    {
      "inputs": [
        {
          "internalType": "bytes32",
          "name": "disputeId",
          "type": "bytes32"
        }
      ],
      "name": "getDispute",
      "outputs": [
        {
          "components": [
            {
              "internalType": "bytes32",
              "name": "disputeId",
              "type": "bytes32"
            },
            {
              "internalType": "bytes32",
              "name": "batchId",
              "type": "bytes32"
            },
            {
              "internalType": "address",
              "name": "complainant",
              "type": "address"
            },
            {
              "internalType": "address",
              "name": "respondent",
              "type": "address"
            },
            {
              "internalType": "string",
              "name": "description",
              "type": "string"
            },
            {
              "internalType": "string",
              "name": "status",
              "type": "string"
            },
            {
              "internalType": "uint256",
              "name": "createdAt",
              "type": "uint256"
            },
            {
              "internalType": "uint256",
              "name": "resolvedAt",
              "type": "uint256"
            }
          ],
          "internalType": "struct DisputeResolver.Dispute",
          "name": "",
          "type": "tuple"
        }
      ],
      "stateMutability": "view",
      "type": "function"
    },
    {
      "inputs": [
        {
          "internalType": "bytes32",
          "name": "disputeId",
          "type": "bytes32"
        },
        {
          "internalType": "bytes32",
          "name": "batchId",
          "type": "bytes32"
        },
        {
          "internalType": "address",
          "name": "respondent",
          "type": "address"
        },
        {
          "internalType": "string",
          "name": "description",
          "type": "string"
        }
      ],
      "name": "openDispute",
      "outputs": [],
      "stateMutability": "nonpayable",
      "type": "function"
    },
    {
      "inputs": [
        {
          "internalType": "bytes32",
          "name": "disputeId",
          "type": "bytes32"
        },
        {
          "internalType": "string",
          "name": "resolution",
          "type": "string"
        }
      ],
      "name": "resolveDispute",
      "outputs": [],
      "stateMutability": "nonpayable",
      "type": "function"
    }
  ],
  "bytecode": "0x6080806040523461001657610928908161001c8239f35b600080fdfe6080604052600436101561001257600080fd5b60003560e01c806311be199714610659578063136ba6aa146105145780634f51a300146103d75763507cc9871461004857600080fd5b3461039c57608036600319011261039c576044356001600160a01b0381169081900361039c5760643567ffffffffffffffff811161039c5761008e903690600401610868565b60043560005260006020526006604060002001546103a157604051926100b384610744565b60043584526024356020850152336040850152606084015267ffffffffffffffff811161031757604051916100f2601f8301601f191660200184610761565b818352368282011161039c57816000926020928386013783010152608082019081526040516040810181811067ffffffffffffffff82111761031757604052600481526327b832b760e11b602082015260a0830190815260c0830142815260e0840191600083526004356000526000602052604060002093855185556001956020810151878701556002860160018060a01b03604083015116906bffffffffffffffffffffffff60a01b91828254161790556003870191606060018060a01b03910151169082541617905560048501905180519067ffffffffffffffff82116103175781906101eb826101e5865461070a565b866108ad565b602090601f83116001146103385760009261032d575b5050600019600383901b1c191690871b1790555b51805194600585019167ffffffffffffffff8711610317576102418761023b855461070a565b856108ad565b602090601f88116001146102b2579680928192600798996000946102a7575b50501b916000199060031b1c19161790555b51600684015551910155336004357fe7b614d99462ab012c8191c9348164cd62a4aec6d211f42371fd1f0759e5c220600080a3005b015192503880610260565b9690601f198216908460005260206000209160005b818110610301575098836007999a106102e8575b505050811b019055610272565b015160001960f88460031b161c191690553880806102db565b8a830151845592850192602092830192016102c7565b634e487b7160e01b600052604160045260246000fd5b015190503880610201565b90899350601f198316918560005260206000209260005b8181106103845750841161036b575b505050811b019055610215565b015160001960f88460031b161c1916905538808061035e565b8284015185558c96909401936020938401930161034f565b600080fd5b60405162461bcd60e51b815260206004820152600e60248201526d446973707574652065786973747360901b6044820152606490fd5b3461039c57604036600319011261039c5760043560243567ffffffffffffffff811161039c5761040b903690600401610868565b8260009392935260209260008452600660406000200154156104db57829382806040937f0ff5c6ecc4a1e5a2009c60c86c5286a3692b6132402a64fd34d9268df7ebb637966000526000845260058560002001610468815461070a565b601f81116104ba575b5060106714995cdbdb1d995960c21b01905587600052600084524260078660002001558451958487958652850152848401376000828201840152601f01601f19168101030190a2005b6104d59082600052601f87600020910160051c810190610896565b89610471565b60405162461bcd60e51b8152600481018590526011602482015270111a5cdc1d5d19481b9bdd08199bdd5b99607a1b6044820152606490fd5b3461039c5760208060031936011261039c57600060e060405161053681610744565b828152828482015282604082015282606082015260606080820152606060a08201528260c082015201526004356000526000815260406000206040519061057c82610744565b80548252600181015483830190815260028201546001600160a01b0390811660408501908152600384015482166060860190815290929161064991906105c460048701610783565b9160808801928352816105d960058901610783565b9660a08a01978852600760068a01549960c08c019a8b5201549660e08b019788526040519b8c9b818d5251908c01525160408b015251166060890152511660808701525192610636610100948560a0890152610120880190610828565b9051868203601f190160c0880152610828565b925160e085015251908301520390f35b3461039c57602036600319011261039c576004356000526000602052604060002080549060018101549060018060a01b03926106fb8460028401541694600384015416916106ed6106ac60048601610783565b6106b860058701610783565b926007600688015497015495604051998a99610100938b5260208b015260408a01526060890152806080890152870190610828565b9085820360a0870152610828565b9160c084015260e08301520390f35b90600182811c9216801561073a575b602083101461072457565b634e487b7160e01b600052602260045260246000fd5b91607f1691610719565b610100810190811067ffffffffffffffff82111761031757604052565b90601f8019910116810190811067ffffffffffffffff82111761031757604052565b906040519182600082546107968161070a565b9081845260209460019160018116908160001461080657506001146107c7575b5050506107c592500383610761565b565b600090815285812095935091905b8183106107ee5750506107c593508201013880806107b6565b855488840185015294850194879450918301916107d5565b925050506107c594925060ff191682840152151560051b8201013880806107b6565b919082519283825260005b848110610854575050826000602080949584010152601f8019910116010190565b602081830181015184830182015201610833565b9181601f8401121561039c5782359167ffffffffffffffff831161039c576020838186019501011161039c57565b8181106108a1575050565b60008155600101610896565b9190601f81116108bc57505050565b6107c5926000526020600020906020601f840160051c830193106108e8575b601f0160051c0190610896565b90915081906108db56fea2646970667358221220e3dec185f42639d0133cfad927f5498adbe011bb7f4bc2232f1dad4aa8b77e9c64736f6c63430008180033",
  "linkReferences": {},
  "deployedLinkReferences": {}
}