{
  "_format": "hh-sol-artifact-1",
  "contractName": "TemperatureMonitor",
  "sourceName": "contracts/TemperatureMonitor.sol",
  "abi": [
    {
      "anonymous": false,
      "inputs": [
        {
          "indexed": true,
          "internalType": "bytes32",
          "name": "batchId",
          "type": "bytes32"
        },
        {
          "indexed": false,
          "internalType": "uint256",
          "name": "temperature",
          "type": "uint256"
        },
        {
          "indexed": false,
          "internalType": "string",
          "name": "alert",
          "type": "string"
        }
      ],
      "name": "TemperatureAlert",
      "type": "event"
    },
    {
      "anonymous": false,
      "inputs": [
        {
          "indexed": true,
          "internalType": "bytes32",
          "name": "batchId",
          "type": "bytes32"
        },
        {
          "indexed": false,
          "internalType": "uint256",
          "name": "temperature",
          "type": "uint256"
        },
        {
          "indexed": false,
          "internalType": "uint256",
          "name": "humidity",
          "type": "uint256"
        }
      ],
      "name": "TemperatureRecorded",
      "type": "event"
    },
    {
      "inputs": [
        {
          "internalType": "bytes32",
          "name": "batchId",
          "type": "bytes32"
        }
      ],
      "name": "getLatestTemperature",
      "outputs": [
        {
          "internalType": "uint256",
          "name": "",
          "type": "uint256"
        }
      ],
      "stateMutability": "view",
      "type": "function"
    },
    {
      "inputs": [
        {
          "internalType": "bytes32",
          "name": "batchId",
          "type": "bytes32"
        }
      ],
      "name": "getTemperatureHistory",
      "outputs": [
        {
          "components": [
            {
              "internalType": "bytes32",
              "name": "batchId",
              "type": "bytes32"
            },
            {
              "internalType": "uint256",
              "name": "temperature",
              "type": "uint256"
            },
            {
              "internalType": "uint256",
              "name": "humidity",
              "type": "uint256"
            },
            {
              "internalType": "uint256",
              "name": "timestamp",
              "type": "uint256"
            },
            {
              "internalType": "string",
              "name": "location",
              "type": "string"
            }
          ],
          "internalType": "struct TemperatureMonitor.TempRecord[]",
          "name": "",
          "type": "tuple[]"
        }
      ],
      "stateMutability": "view",
      "type": "function"
    },
    {
      "inputs": [],
      "name": "maxTemperature",
      "outputs": [
        {
          "internalType": "int256",
          "name": "",
          "type": "int256"
        }
      ],
      "stateMutability": "view",
      "type": "function"
    },
    {
      "inputs": [],
      "name": "minTemperature",
      "outputs": [
        {
          "internalType": "int256",
          "name": "",
          "type": "int256"
        }
      ],
      "stateMutability": "view",
      "type": "function"
    },
    {
      "inputs": [
        {
          "internalType": "bytes32",
          "name": "batchId",
          "type": "bytes32"
        },
        {
          "internalType": "uint256",
          "name": "temperature",
          "type": "uint256"
        },
        {
          "internalType": "uint256",
          "name": "humidity",
          "type": "uint256"
        },
        {
          "internalType": "string",
          "name": "location",
          "type": "string"
        }
      ],
      "name": "recordTemperature",
      "outputs": [],
      "stateMutability": "nonpayable",
      "type": "function"
    },
    {
      "inputs": [
        {
          "internalType": "bytes32",
          "name": "",
          "type": "bytes32"
        },
        {
          "internalType": "uint256",
          "name": "",
          "type": "uint256"
        }
      ],
      "name": "temperatureRecords",
      "outputs": [
        {
          "internalType": "bytes32",
          "name": "batchId",
          "type": "bytes32"
        },
        {
          "internalType": "uint256",
          "name": "temperature",
          "type": "uint256"
        },
        {
          "internalType": "uint256",
          "name": "humidity",
          "type": "uint256"
        },
        {
          "internalType": "uint256",
          "name": "timestamp",
          "type": "uint256"
        },
        {
          "internalType": "string",
          "name": "location",
          "type": "string"
        }
      ],
      "stateMutability": "view",
      "type": "function"
    }
  ],
  "bytecode": "0x6080806040523461002157603119600155603c60025561087f90816100278239f35b600080fdfe608080604052600436101561001357600080fd5b60003560e01c90816358ef6bf01461058e575080637907091f14610570578063837c4878146102715780638d2b5b89146101ea578063c994f584146101c45763cc14139c1461006157600080fd5b346101bf576020806003193601126101bf5760043560005260008152604060002080549067ffffffffffffffff82116101a9578290600592604051936100ac848360051b0186610631565b8185528385018093600052846000206000915b84831061015357604080518881528951818a01819052600092600582901b83018101918a918c9085015b8287106100f65785850386f35b909192938280610143600193603f198a820301865288519060a0908251815284830151858201526040830151604082015260608084015190820152816080809401519382015201906106f8565b96019201960195929190926100e9565b838760019260409a999a5161016781610615565b855481528486015483820152600286015460408201526003860154606082015261019360048701610653565b60808201528152019201920191909695966100bf565b634e487b7160e01b600052604160045260246000fd5b600080fd5b346101bf5760203660031901126101bf5760206101e2600435610738565b604051908152f35b346101bf5760403660031901126101bf57602435600435600052600060205260406000209081548110156101bf57610221916105a9565b50805461026d600183015492600281015490610244600460038301549201610653565b91604051958695865260208601526040850152606084015260a0608084015260a08301906106f8565b0390f35b346101bf5760803660031901126101bf5760043560243567ffffffffffffffff606435116101bf573660236064350112156101bf5767ffffffffffffffff60643560040135116101bf57366024606435600401356064350101116101bf5781600052600060205260406000206040516102e981610615565b83815282602082015260443560408201524260608201526040519061031e6020601f19601f6064356004013501160183610631565b6064356004810135808452906024016020840137600060206064356004013584010152608081019182528254680100000000000000008110156101a95761036c9060019485820181556105a9565b61055a57606082600493518355602081015186840155604081015160028401550151600382015501905180519067ffffffffffffffff82116101a95781906103b484546105db565b601f8111610505575b50602090601f83116001146104a157600092610496575b5050600019600383901b1c191690831b1790555b827f9b273e2ab5c7742f3b18e8e32d686c626cfb7bf8d202f9618d1a95e87c4d73aa604080518581526044356020820152a2548112801561048b575b61042a57005b60807fc9714798d8de95891815cb2cb4f5bbfffdbf4dd309755ce025939a652ad5183d9160405190815260406020820152601860408201527f54656d7065726174757265206f7574206f662072616e676500000000000000006060820152a2005b506002548113610424565b0151905086806103d4565b90859350601f198316918560005260206000209260005b8181106104ed575084116104d4575b505050811b0190556103e8565b015160001960f88460031b161c191690558680806104c7565b828401518555889690940193602093840193016104b8565b909150836000526020600020601f840160051c81019160208510610550575b84939291601f88920160051c01915b8281106105415750506103bd565b60008155859450879101610533565b9091508190610524565b634e487b7160e01b600052600060045260246000fd5b346101bf5760003660031901126101bf576020600254604051908152f35b346101bf5760003660031901126101bf576020906001548152f35b80548210156105c5576000526005602060002091020190600090565b634e487b7160e01b600052603260045260246000fd5b90600182811c9216801561060b575b60208310146105f557565b634e487b7160e01b600052602260045260246000fd5b91607f16916105ea565b60a0810190811067ffffffffffffffff8211176101a957604052565b90601f8019910116810190811067ffffffffffffffff8211176101a957604052565b90604051918260008254610666816105db565b908184526020946001916001811690816000146106d65750600114610697575b50505061069592500383610631565b565b600090815285812095935091905b8183106106be5750506106959350820101388080610686565b855488840185015294850194879450918301916106a5565b9250505061069594925060ff191682840152151560051b820101388080610686565b919082519283825260005b848110610724575050826000602080949584010152601f8019910116010190565b602081830181015184830182015201610703565b906000918252602082815260408084209081549067ffffffffffffffff8211610835576040519260059161077084841b870186610631565b8385529087528487208791868087015b8685106107e55750505050505050805180156107e05760001981019081116107cc5781518110156107b85760051b0181015101519150565b634e487b7160e01b85526032600452602485fd5b634e487b7160e01b85526011600452602485fd5b505050565b600191869184516107f581610615565b8654815284870154838201526002870154868201526003870154606082015261082060048801610653565b60808201528152019301930192918790610780565b634e487b7160e01b86526041600452602486fdfea2646970667358221220dc8108ab58f409d21f5cf5b1b831f5323db5c8a8321b36391ae495ab25d7ff7a64736f6c63430008180033",
  "linkReferences": {},
  "deployedLinkReferences": {}
}