{
  "_format": "hh-sol-artifact-1",
  "contractName": "ProcessingNFT",
  "sourceName": "contracts/ProcessingNFT.sol",
  "abi": [
    {
      "anonymous": false,
      "inputs": [
        {
          "indexed": true,
          "internalType": "bytes32",
          "name": "batchId",
          "type": "bytes32"
        }
      ],
      "name": "ProcessingCompleted",
      "type": "event"
    },
    {
      "anonymous": false,
      "inputs": [
        {
          "indexed": true,
          "internalType": "bytes32",
          "name": "batchId",
          "type": "bytes32"
        },
        {
          "indexed": true,
          "internalType": "address",
          "name": "processor",
          "type": "address"
        }
      ],
      "name": "ProcessingStarted",
      "type": "event"
    },
    {
      "anonymous": false,
      "inputs": [
        {
          "indexed": true,
          "internalType": "bytes32",
          "name": "batchId",
          "type": "bytes32"
        },
        {
          "indexed": false,
          "internalType": "uint256",
          "name": "stepId",
          "type": "uint256"
        },
        {
          "indexed": false,
          "internalType": "string",
          "name": "stepType",
          "type": "string"
        }
      ],
      "name": "ProcessingStepAdded",
      "type": "event"
    },
    {
      "inputs": [
        {
          "internalType": "bytes32",
          "name": "batchId",
          "type": "bytes32"
        },
        {
          "internalType": "string",
          "name": "stepType",
          "type": "string"
        },
        {
          "internalType": "uint256",
          "name": "temperature",
          "type": "uint256"
        },
        {
          "internalType": "uint256",
          "name": "duration",
          "type": "uint256"
        }
      ],
      "name": "addProcessingStep",
      "outputs": [],
      "stateMutability": "nonpayable",
      "type": "function"
    },
    {
      "inputs": [
        {
          "internalType": "bytes32",
          "name": "",
          "type": "bytes32"
        }
      ],
      "name": "batchProcessed",
      "outputs": [
        {
          "internalType": "bool",
          "name": "",
          "type": "bool"
        }
      ],
      "stateMutability": "view",
      "type": "function"
    },
    {
      "inputs": [
        {
          "internalType": "bytes32",
          "name": "batchId",
          "type": "bytes32"
        }
      ],
      "name": "completeProcessing",
      "outputs": [],
      "stateMutability": "nonpayable",
      "type": "function"
    },
    {
      "inputs": [
        {
          "internalType": "bytes32",
          "name": "batchId",
          "type": "bytes32"
        }
      ],
      "name": "getProcessingSteps",
      "outputs": [
        {
          "components": [
            {
              "internalType": "uint256",
              "name": "stepId",
              "type": "uint256"
            },
            {
              "internalType": "string",
              "name": "stepType",
              "type": "string"
            },
            {
              "internalType": "uint256",
              "name": "temperature",
              "type": "uint256"
            },
            {
              "internalType": "uint256",
              "name": "duration",
              "type": "uint256"
            },
            {
              "internalType": "address",
              "name": "operator",
              "type": "address"
            },
            {
              "internalType": "uint256",
              "name": "timestamp",
              "type": "uint256"
            }
          ],
          "internalType": "struct ProcessingNFT.ProcessingStep[]",
          "name": "",
          "type": "tuple[]"
        }
      ],
      "stateMutability": "view",
      "type": "function"
    },
    {
      "inputs": [
        {
          "internalType": "bytes32",
          "name": "",
          "type": "bytes32"
        },
        {
          "internalType": "uint256",
          "name": "",
          "type": "uint256"
        }
      ],
      "name": "processingSteps",
      "outputs": [
        {
          "internalType": "uint256",
          "name": "stepId",
          "type": "uint256"
        },
        {
          "internalType": "string",
          "name": "stepType",
          "type": "string"
        },
        {
          "internalType": "uint256",
          "name": "temperature",
          "type": "uint256"
        },
        {
          "internalType": "uint256",
          "name": "duration",
          "type": "uint256"
        },
        {
          "internalType": "address",
          "name": "operator",
          "type": "address"
        },
        {
          "internalType": "uint256",
          "name": "timestamp",
          "type": "uint256"
        }
      ],
      "stateMutability": "view",
      "type": "function"
    },
    {
      "inputs": [
        {
          "internalType": "bytes32",
          "name": "batchId",
          "type": "bytes32"
        }
      ],
      "name": "startProcessing",
      "outputs": [],
      "stateMutability": "nonpayable",
      "type": "function"
    }
  ],
  "bytecode": "0x608080604052346100165761089c908161001c8239f35b600080fdfe6080604052600436101561001257600080fd5b60003560e01c8063227612fc1461063c5780633f65525b146104d2578063466896f8146101c1578063bbec896014610120578063e8a971bc146100945763f1b553a01461005e57600080fd5b3461008f57602036600319011261008f576004356000526001602052602060ff604060002054166040519015158152f35b600080fd5b3461008f57602036600319011261008f5760043580600052600160205260ff604060002054166100e75733907f188ec596d6306520a1e9851d5bcdc0cae16263be6973b40d9f8b0737f0473e90600080a3005b60405162461bcd60e51b8152602060048201526011602482015270105b1c9958591e481c1c9bd8d95cdcd959607a1b6044820152606490fd5b3461008f57602036600319011261008f5760043580600052600060205260406000205415610188578060005260016020526040600020600160ff198254161790557f814006c39bb8affaa323bb0ad097638fee7cdc5195373454eac9c1f7968f5c13600080a2005b60405162461bcd60e51b8152602060048201526011602482015270139bc81cdd195c1cc81c9958dbdc991959607a1b6044820152606490fd5b3461008f57608036600319011261008f5760243567ffffffffffffffff80821161008f573660238301121561008f578082600401351161008f5736602483600401358401011161008f5760043560005260006020526040600020908154906040519061022c82610743565b8282526040519261024b6004870135601f01601f19166020018561075f565b60048601358085526024870160208601376000602087600401358601015260208301938452604435604084015260643560608401523360808401524260a0840152680100000000000000008110156104a6578060016102ad92018655856106d7565b9390936104bc57825184555180519182116104a6576102cf6001850154610709565b601f811161045f575b50602090601f83116001146103ea5791806005949260a0946000926103df575b50508160011b916000199060031b1c19161760018501555b604081015160028501556060810151600385015560048401600180841b036080830151166bffffffffffffffffffffffff841b82541617905501519101555460001981019081116103c9577fd1514e97831ab7485930e78557d469273dfb13394cf6746afa54526fe444e37490604051908152604060208201528260040135604082015282600401356024840160608301376000606084600401358301015260608160043594601f8019916004013501168101030190a2005b634e487b7160e01b600052601160045260246000fd5b0151905088806102f8565b906001850160005260206000209160005b601f19851681106104475750926005949260019260a09583601f1981161061042e575b505050811b016001850155610310565b015160001960f88460031b161c1916905588808061041e565b919260206001819286850151815501940192016103fb565b600185016000526020600020601f840160051c81016020851061049f575b601f830160051c820181106104935750506102d8565b6000815560010161047d565b508061047d565b634e487b7160e01b600052604160045260246000fd5b634e487b7160e01b600052600060045260246000fd5b3461008f5760208060031936011261008f5760043560005260008152604060002080549067ffffffffffffffff82116104a65782906005926040519361051d848360051b018661075f565b81855260009283528383208486019391845b8484106105d557604080518881528951818a01819052600092600582901b83018101918a918c9085015b8287106105665785850386f35b909192938280600192603f1989820301855287519061059660c08351835284840151908086850152830190610826565b9160408101516040830152606080820151908301526080868060a01b0381830151169083015260a0809101519101529601920196019592919092610559565b60068760019260409a999a516105ea81610743565b865481526105f9858801610781565b838201526002870154604082015260038701546060820152848060a01b0360048801541660808201528587015460a082015281520193019301929196959661052f565b3461008f57604036600319011261008f576024356004356000526000602052604060002090815481101561008f57610673916106d7565b50805461068260018301610781565b91600281015490600381015490600560018060a01b03600483015416910154916106be604051968796875260c0602088015260c0870190610826565b9360408601526060850152608084015260a08301520390f35b80548210156106f3576000526006602060002091020190600090565b634e487b7160e01b600052603260045260246000fd5b90600182811c92168015610739575b602083101461072357565b634e487b7160e01b600052602260045260246000fd5b91607f1691610718565b60c0810190811067ffffffffffffffff8211176104a657604052565b90601f8019910116810190811067ffffffffffffffff8211176104a657604052565b9060405191826000825461079481610709565b9081845260209460019160018116908160001461080457506001146107c5575b5050506107c39250038361075f565b565b600090815285812095935091905b8183106107ec5750506107c393508201013880806107b4565b855488840185015294850194879450918301916107d3565b925050506107c394925060ff191682840152151560051b8201013880806107b4565b919082519283825260005b848110610852575050826000602080949584010152601f8019910116010190565b60208183018101518483018201520161083156fea2646970667358221220a1ec81563861695c89d4ac41ccf23323089765825bee6bcf98004f615edfcfbb64736f6c63430008180033",
  "linkReferences": {},
  "deployedLinkReferences": {}
}