{
  "_format": "hh-sol-artifact-1",
  "contractName": "RouteOptimizer",
  "sourceName": "contracts/RouteOptimizer.sol",
  "abi": [
    {
      "inputs": [
        {
          "internalType": "uint256[]",
          "name": "_waypoints",
          "type": "uint256[]"
        },
        {
          "internalType": "uint256",
          "name": "_distance",
          "type": "uint256"
        }
      ],
      "name": "createRoute",
      "outputs": [
        {
          "internalType": "bytes32",
          "name": "",
          "type": "bytes32"
        }
      ],
      "stateMutability": "nonpayable",
      "type": "function"
    },
    {
      "inputs": [
        {
          "internalType": "bytes32",
          "name": "",
          "type": "bytes32"
        }
      ],
      "name": "routes",
      "outputs": [
        {
          "internalType": "uint256",
          "name": "distance",
          "type": "uint256"
        },
        {
          "internalType": "uint256",
          "name": "estimatedTime",
          "type": "uint256"
        }
      ],
      "stateMutability": "view",
      "type": "function"
    }
  ],
  "bytecode": "0x60808060405234610016576102da908161001c8239f35b600080fdfe608060408181526004908136101561001657600080fd5b600092833560e01c908163066e94811461021c575063d8449f831461003a57600080fd5b3461021857806003193601126102185781359267ffffffffffffffff8085116102145736602386011215610214578484013591602491808411610203578360051b9160209786519561008e8a860188610282565b8652888601858195830101913683116101ff5790868b9201905b8382106101f057505050508335928551156101de5751865189810191825242888201528781526100d781610250565b519020966078840294848604607814851517156101cd5787519660608801888110868211176101bb5789528752898701948552878701958652888352828a5287832096519182519485116101aa576801000000000000000085116101aa57505088908654848855808510610182575b500190858152888120905b8381106101705750505050906002915160018401555191015551908152f35b82518282015591890191600101610151565b8784528483852091820191015b81811061019c5750610146565b8481558b935060010161018f565b634e487b7160e01b84526041905282fd5b634e487b7160e01b8552604184528285fd5b634e487b7160e01b83526011825282fd5b634e487b7160e01b8252603288528482fd5b813581529082019082016100a8565b8380fd5b50634e487b7160e01b815260418552fd5b5080fd5b8280fd5b9050838334610214576020366003190112610214579083913581528060205220600260018201549101549082526020820152f35b6060810190811067ffffffffffffffff82111761026c57604052565b634e487b7160e01b600052604160045260246000fd5b90601f8019910116810190811067ffffffffffffffff82111761026c5760405256fea264697066735822122017775c5ec637c6f3774479f9fb28b312fc89a1b7ad3cc3d67a1b9cb9bc763fff64736f6c63430008180033",
  "linkReferences": {},
  "deployedLinkReferences": {}
}