{
  "_format": "hh-sol-artifact-1",
  "contractName": "ChainlinkOracleStub",
  "sourceName": "contracts/HerbCollection.sol",
  "abi": [
    {
      "anonymous": false,
      "inputs": [
        {
          "indexed": false,
          "internalType": "uint256",
          "name": "requestId",
          "type": "uint256"
        },
        {
          "indexed": false,
          "internalType": "int256",
          "name": "temperature",
          "type": "int256"
        },
        {
          "indexed": false,
          "internalType": "uint256",
          "name": "humidity",
          "type": "uint256"
        },
        {
          "indexed": false,
          "internalType": "uint256",
          "name": "timestamp",
          "type": "uint256"
        }
      ],
      "name": "DataFulfilled",
      "type": "event"
    },
    {
      "anonymous": false,
      "inputs": [
        {
          "indexed": false,
          "internalType": "uint256",
          "name": "requestId",
          "type": "uint256"
        },
        {
          "indexed": false,
          "internalType": "string",
          "name": "dataType",
          "type": "string"
        },
        {
          "indexed": false,
          "internalType": "address",
          "name": "callbackAddr",
          "type": "address"
        }
      ],
      "name": "DataRequested",
      "type": "event"
    },
    {
      "inputs": [
        {
          "internalType": "uint256",
          "name": "_requestId",
          "type": "uint256"
        },
        {
          "internalType": "int256",
          "name": "_temperature",
          "type": "int256"
        },
        {
          "internalType": "uint256",
          "name": "_humidity",
          "type": "uint256"
        },
        {
          "internalType": "uint256",
          "name": "_airQualityIndex",
          "type": "uint256"
        }
      ],
      "name": "fulfillRequest",
      "outputs": [],
      "stateMutability": "nonpayable",
      "type": "function"
    },
    {
      "inputs": [
        {
          "internalType": "uint256",
          "name": "",
          "type": "uint256"
        }
      ],
      "name": "fulfilledRequests",
      "outputs": [
        {
          "internalType": "bool",
          "name": "",
          "type": "bool"
        }
      ],
      "stateMutability": "view",
      "type": "function"
    },
    {
      "inputs": [],
      "name": "getLatestData",
      "outputs": [
        {
          "internalType": "int256",
          "name": "temperature",
          "type": "int256"
        },
        {
          "internalType": "uint256",
          "name": "humidity",
          "type": "uint256"
        },
        {
          "internalType": "uint256",
          "name": "airQualityIndex",
          "type": "uint256"
        },
        {
          "internalType": "uint256",
          "name": "timestamp",
          "type": "uint256"
        }
      ],
      "stateMutability": "view",
      "type": "function"
    },
    {
      "inputs": [],
      "name": "lastAirQualityIndex",
      "outputs": [
        {
          "internalType": "uint256",
          "name": "",
          "type": "uint256"
        }
      ],
      "stateMutability": "view",
      "type": "function"
    },
    {
      "inputs": [],
      "name": "lastHumidity",
      "outputs": [
        {
          "internalType": "uint256",
          "name": "",
          "type": "uint256"
        }
      ],
      "stateMutability": "view",
      "type": "function"
    },
    {
      "inputs": [],
      "name": "lastTemperature",
      "outputs": [
        {
          "internalType": "int256",
          "name": "",
          "type": "int256"
        }
      ],
      "stateMutability": "view",
      "type": "function"
    },
    {
      "inputs": [],
      "name": "lastUpdateTimestamp",
      "outputs": [
        {
          "internalType": "uint256",
          "name": "",
          "type": "uint256"
        }
      ],
      "stateMutability": "view",
      "type": "function"
    },
    {
      "inputs": [
        {
          "internalType": "string",
          "name": "_dataType",
          "type": "string"
        }
      ],
      "name": "requestEnvironmentalData",
      "outputs": [
        {
          "internalType": "uint256",
          "name": "",
          "type": "uint256"
        }
      ],
      "stateMutability": "nonpayable",
      "type": "function"
    },
    {
      "inputs": [
        {
          "internalType": "int256",
          "name": "_temperature",
          "type": "int256"
        },
        {
          "internalType": "uint256",
          "name": "_humidity",
          "type": "uint256"
        },
        {
          "internalType": "uint256",
          "name": "_airQualityIndex",
          "type": "uint256"
        }
      ],
      "name": "updateDataStub",
      "outputs": [],
      "stateMutability": "nonpayable",
      "type": "function"
    }
  ],
  "bytecode": "0x608060405234801561001057600080fd5b506104cd806100206000396000f3fe608060405234801561001057600080fd5b50600436106100935760003560e01c80636d413910116100665780636d413910146100e857806377c52302146100fb5780639fb517711461010e578063ab757d6114610117578063fee3e1a61461014357600080fd5b8063019059451461009857806314bcec9f146100ba57806315fbfd06146100d6578063233a3faf146100df575b600080fd5b6100b86100a63660046102c4565b60009290925560015560025542600355565b005b6100c360035481565b6040519081526020015b60405180910390f35b6100c360015481565b6100c360025481565b6100c36100f6366004610306565b610176565b6100b86101093660046103b7565b6101e8565b6100c360005481565b6000546001546002546003546040805194855260208501939093529183015260608201526080016100cd565b6101666101513660046103e9565b60046020526000908152604090205460ff1681565b60405190151581526020016100cd565b600080428360405160200161018c929190610426565b6040516020818303038152906040528051906020012060001c90507f7e2bd46fd2aa8daf32047e8e5b90d00a132999f708155aabecc1231f725396908184336040516101da9392919061044c565b60405180910390a192915050565b60008481526004602052604090205460ff161561024b5760405162461bcd60e51b815260206004820152601960248201527f5265717565737420616c72656164792066756c66696c6c656400000000000000604482015260640160405180910390fd5b60008381556001838155600283905542600381905586835260046020908152604093849020805460ff19169093179092558251878152918201869052818301859052606082015290517fb750bcfc031ab8812a70d220dae3bf12bfd3137d43ab76d54e05a913381e92319181900360800190a150505050565b6000806000606084860312156102d957600080fd5b505081359360208301359350604090920135919050565b634e487b7160e01b600052604160045260246000fd5b60006020828403121561031857600080fd5b813567ffffffffffffffff8082111561033057600080fd5b818401915084601f83011261034457600080fd5b813581811115610356576103566102f0565b604051601f8201601f19908116603f0116810190838211818310171561037e5761037e6102f0565b8160405282815287602084870101111561039757600080fd5b826020860160208301376000928101602001929092525095945050505050565b600080600080608085870312156103cd57600080fd5b5050823594602084013594506040840135936060013592509050565b6000602082840312156103fb57600080fd5b5035919050565b60005b8381101561041d578181015183820152602001610405565b50506000910152565b8281526000825161043e816020850160208701610402565b919091016020019392505050565b8381526060602082015260008351806060840152610471816080850160208801610402565b6001600160a01b0393909316604083015250601f91909101601f1916016080019291505056fea2646970667358221220bf98e564b686d224942300af4a181937391e7de94b258c51fa6aa10b49c107c664736f6c63430008180033",
  "linkReferences": {},
  "deployedLinkReferences": {}
}