{
  "_format": "hh-sol-artifact-1",
  "contractName": "HerbNFT",
  "sourceName": "contracts/HerbCollection.sol",
  "abi": [
    {
      "inputs": [],
      "stateMutability": "nonpayable",
      "type": "constructor"
    },
    {
      "inputs": [
        {
          "internalType": "address",
          "name": "sender",
          "type": "address"
        },
        {
          "internalType": "uint256",
          "name": "tokenId",
          "type": "uint256"
        },
        {
          "internalType": "address",
          "name": "owner",
          "type": "address"
        }
      ],
      "name": "ERC721IncorrectOwner",
      "type": "error"
    },
    {
      "inputs": [
        {
          "internalType": "address",
          "name": "operator",
          "type": "address"
        },
        {
          "internalType": "uint256",
          "name": "tokenId",
          "type": "uint256"
        }
      ],
      "name": "ERC721InsufficientApproval",
      "type": "error"
    },
    {
      "inputs": [
        {
          "internalType": "address",
          "name": "approver",
          "type": "address"
        }
      ],
      "name": "ERC721InvalidApprover",
      "type": "error"
    },
    {
      "inputs": [
        {
          "internalType": "address",
          "name": "operator",
          "type": "address"
        }
      ],
      "name": "ERC721InvalidOperator",
      "type": "error"
    },
    {
      "inputs": [
        {
          "internalType": "address",
          "name": "owner",
          "type": "address"
        }
      ],
      "name": "ERC721InvalidOwner",
      "type": "error"
    },
    {
      "inputs": [
        {
          "internalType": "address",
          "name": "receiver",
          "type": "address"
        }
      ],
      "name": "ERC721InvalidReceiver",
      "type": "error"
    },
    {
      "inputs": [
        {
          "internalType": "address",
          "name": "sender",
          "type": "address"
        }
      ],
      "name": "ERC721InvalidSender",
      "type": "error"
    },
    {
      "inputs": [
        {
          "internalType": "uint256",
          "name": "tokenId",
          "type": "uint256"
        }
      ],
      "name": "ERC721NonexistentToken",
      "type": "error"
    },
    {
      "inputs": [
        {
          "internalType": "address",
          "name": "owner",
          "type": "address"
        }
      ],
      "name": "OwnableInvalidOwner",
      "type": "error"
    },
    {
      "inputs": [
        {
          "internalType": "address",
          "name": "account",
          "type": "address"
        }
      ],
      "name": "OwnableUnauthorizedAccount",
      "type": "error"
    },
    {
      "anonymous": false,
      "inputs": [
        {
          "indexed": true,
          "internalType": "address",
          "name": "owner",
          "type": "address"
        },
        {
          "indexed": true,
          "internalType": "address",
          "name": "approved",
          "type": "address"
        },
        {
          "indexed": true,
          "internalType": "uint256",
          "name": "tokenId",
          "type": "uint256"
        }
      ],
      "name": "Approval",
      "type": "event"
    },
    {
      "anonymous": false,
      "inputs": [
        {
          "indexed": true,
          "internalType": "address",
          "name": "owner",
          "type": "address"
        },
        {
          "indexed": true,
          "internalType": "address",
          "name": "operator",
          "type": "address"
        },
        {
          "indexed": false,
          "internalType": "bool",
          "name": "approved",
          "type": "bool"
        }
      ],
      "name": "ApprovalForAll",
      "type": "event"
    },
    {
      "anonymous": false,
      "inputs": [
        {
          "indexed": false,
          "internalType": "uint256",
          "name": "_fromTokenId",
          "type": "uint256"
        },
        {
          "indexed": false,
          "internalType": "uint256",
          "name": "_toTokenId",
          "type": "uint256"
        }
      ],
      "name": "BatchMetadataUpdate",
      "type": "event"
    },
    {
      "anonymous": false,
      "inputs": [
        {
          "indexed": true,
          "internalType": "uint256",
          "name": "tokenId",
          "type": "uint256"
        },
        {
          "indexed": false,
          "internalType": "int256",
          "name": "temperature",
          "type": "int256"
        },
        {
          "indexed": false,
          "internalType": "uint256",
          "name": "humidity",
          "type": "uint256"
        },
        {
          "indexed": false,
          "internalType": "uint256",
          "name": "timestamp",
          "type": "uint256"
        }
      ],
      "name": "EnvironmentalDataUpdated",
      "type": "event"
    },
    {
      "anonymous": false,
      "inputs": [
        {
          "indexed": true,
          "internalType": "uint256",
          "name": "tokenId",
          "type": "uint256"
        },
        {
          "indexed": true,
          "internalType": "address",
          "name": "collector",
          "type": "address"
        },
        {
          "indexed": false,
          "internalType": "string",
          "name": "herbName",
          "type": "string"
        },
        {
          "indexed": false,
          "internalType": "string",
          "name": "batchCode",
          "type": "string"
        },
        {
          "indexed": false,
          "internalType": "uint256",
          "name": "timestamp",
          "type": "uint256"
        }
      ],
      "name": "HerbBatchMinted",
      "type": "event"
    },
    {
      "anonymous": false,
      "inputs": [
        {
          "indexed": true,
          "internalType": "uint256",
          "name": "tokenId",
          "type": "uint256"
        },
        {
          "indexed": true,
          "internalType": "address",
          "name": "verifier",
          "type": "address"
        },
        {
          "indexed": false,
          "internalType": "string",
          "name": "qualityGrade",
          "type": "string"
        }
      ],
      "name": "HerbBatchVerified",
      "type": "event"
    },
    {
      "anonymous": false,
      "inputs": [
        {
          "indexed": false,
          "internalType": "uint256",
          "name": "_tokenId",
          "type": "uint256"
        }
      ],
      "name": "MetadataUpdate",
      "type": "event"
    },
    {
      "anonymous": false,
      "inputs": [
        {
          "indexed": true,
          "internalType": "address",
          "name": "previousOwner",
          "type": "address"
        },
        {
          "indexed": true,
          "internalType": "address",
          "name": "newOwner",
          "type": "address"
        }
      ],
      "name": "OwnershipTransferred",
      "type": "event"
    },
    {
      "anonymous": false,
      "inputs": [
        {
          "indexed": true,
          "internalType": "address",
          "name": "from",
          "type": "address"
        },
        {
          "indexed": true,
          "internalType": "address",
          "name": "to",
          "type": "address"
        },
        {
          "indexed": true,
          "internalType": "uint256",
          "name": "tokenId",
          "type": "uint256"
        }
      ],
      "name": "Transfer",
      "type": "event"
    },
    {
      "inputs": [
        {
          "internalType": "address",
          "name": "to",
          "type": "address"
        },
        {
          "internalType": "uint256",
          "name": "tokenId",
          "type": "uint256"
        }
      ],
      "name": "approve",
      "outputs": [],
      "stateMutability": "nonpayable",
      "type": "function"
    },
    {
      "inputs": [
        {
          "internalType": "address",
          "name": "owner",
          "type": "address"
        }
      ],
      "name": "balanceOf",
      "outputs": [
        {
          "internalType": "uint256",
          "name": "",
          "type": "uint256"
        }
      ],
      "stateMutability": "view",
      "type": "function"
    },
    {
      "inputs": [
        {
          "internalType": "string",
          "name": "",
          "type": "string"
        }
      ],
      "name": "batchCodeToTokenId",
      "outputs": [
        {
          "internalType": "uint256",
          "name": "",
          "type": "uint256"
        }
      ],
      "stateMutability": "view",
      "type": "function"
    },
    {
      "inputs": [
        {
          "internalType": "uint256",
          "name": "tokenId",
          "type": "uint256"
        }
      ],
      "name": "getApproved",
      "outputs": [
        {
          "internalType": "address",
          "name": "",
          "type": "address"
        }
      ],
      "stateMutability": "view",
      "type": "function"
    },
    {
      "inputs": [
        {
          "internalType": "string",
          "name": "_batchCode",
          "type": "string"
        }
      ],
      "name": "getBatchByCode",
      "outputs": [
        {
          "components": [
            {
              "internalType": "uint256",
              "name": "tokenId",
              "type": "uint256"
            },
            {
              "internalType": "string",
              "name": "herbName",
              "type": "string"
            },
            {
              "internalType": "string",
              "name": "batchCode",
              "type": "string"
            },
            {
              "internalType": "address",
              "name": "collector",
              "type": "address"
            },
            {
              "internalType": "string",
              "name": "originLocation",
              "type": "string"
            },
            {
              "internalType": "string",
              "name": "harvestDate",
              "type": "string"
            },
            {
              "internalType": "string",
              "name": "qualityGrade",
              "type": "string"
            },
            {
              "internalType": "uint256",
              "name": "collectionTimestamp",
              "type": "uint256"
            },
            {
              "internalType": "bool",
              "name": "isVerified",
              "type": "bool"
            },
            {
              "internalType": "bool",
              "name": "isProcessed",
              "type": "bool"
            },
            {
              "components": [
                {
                  "internalType": "int256",
                  "name": "temperature",
                  "type": "int256"
                },
                {
                  "internalType": "uint256",
                  "name": "humidity",
                  "type": "uint256"
                },
                {
                  "internalType": "uint256",
                  "name": "airQualityIndex",
                  "type": "uint256"
                },
                {
                  "internalType": "uint256",
                  "name": "lastUpdated",
                  "type": "uint256"
                }
              ],
              "internalType": "struct HerbNFT.EnvironmentalData",
              "name": "environmentalData",
              "type": "tuple"
            }
          ],
          "internalType": "struct HerbNFT.HerbBatch",
          "name": "",
          "type": "tuple"
        }
      ],
      "stateMutability": "view",
      "type": "function"
    },
    {
      "inputs": [
        {
          "internalType": "uint256",
          "name": "_tokenId",
          "type": "uint256"
        }
      ],
      "name": "getHerbBatch",
      "outputs": [
        {
          "components": [
            {
              "internalType": "uint256",
              "name": "tokenId",
              "type": "uint256"
            },
            {
              "internalType": "string",
              "name": "herbName",
              "type": "string"
            },
            {
              "internalType": "string",
              "name": "batchCode",
              "type": "string"
            },
            {
              "internalType": "address",
              "name": "collector",
              "type": "address"
            },
            {
              "internalType": "string",
              "name": "originLocation",
              "type": "string"
            },
            {
              "internalType": "string",
              "name": "harvestDate",
              "type": "string"
            },
            {
              "internalType": "string",
              "name": "qualityGrade",
              "type": "string"
            },
            {
              "internalType": "uint256",
              "name": "collectionTimestamp",
              "type": "uint256"
            },
            {
              "internalType": "bool",
              "name": "isVerified",
              "type": "bool"
            },
            {
              "internalType": "bool",
              "name": "isProcessed",
              "type": "bool"
            },
            {
              "components": [
                {
                  "internalType": "int256",
                  "name": "temperature",
                  "type": "int256"
                },
                {
                  "internalType": "uint256",
                  "name": "humidity",
                  "type": "uint256"
                },
                {
                  "internalType": "uint256",
                  "name": "airQualityIndex",
                  "type": "uint256"
                },
                {
                  "internalType": "uint256",
                  "name": "lastUpdated",
                  "type": "uint256"
                }
              ],
              "internalType": "struct HerbNFT.EnvironmentalData",
              "name": "environmentalData",
              "type": "tuple"
            }
          ],
          "internalType": "struct HerbNFT.HerbBatch",
          "name": "",
          "type": "tuple"
        }
      ],
      "stateMutability": "view",
      "type": "function"
    },
    {
      "inputs": [],
      "name": "getTotalBatches",
      "outputs": [
        {
          "internalType": "uint256",
          "name": "",
          "type": "uint256"
        }
      ],
      "stateMutability": "view",
      "type": "function"
    },
    {
      "inputs": [
        {
          "internalType": "uint256",
          "name": "",
          "type": "uint256"
        }
      ],
      "name": "herbBatches",
      "outputs": [
        {
          "internalType": "uint256",
          "name": "tokenId",
          "type": "uint256"
        },
        {
          "internalType": "string",
          "name": "herbName",
          "type": "string"
        },
        {
          "internalType": "string",
          "name": "batchCode",
          "type": "string"
        },
        {
          "internalType": "address",
          "name": "collector",
          "type": "address"
        },
        {
          "internalType": "string",
          "name": "originLocation",
          "type": "string"
        },
        {
          "internalType": "string",
          "name": "harvestDate",
          "type": "string"
        },
        {
          "internalType": "string",
          "name": "qualityGrade",
          "type": "string"
        },
        {
          "internalType": "uint256",
          "name": "collectionTimestamp",
          "type": "uint256"
        },
        {
          "internalType": "bool",
          "name": "isVerified",
          "type": "bool"
        },
        {
          "internalType": "bool",
          "name": "isProcessed",
          "type": "bool"
        },
        {
          "components": [
            {
              "internalType": "int256",
              "name": "temperature",
              "type": "int256"
            },
            {
              "internalType": "uint256",
              "name": "humidity",
              "type": "uint256"
            },
            {
              "internalType": "uint256",
              "name": "airQualityIndex",
              "type": "uint256"
            },
            {
              "internalType": "uint256",
              "name": "lastUpdated",
              "type": "uint256"
            }
          ],
          "internalType": "struct HerbNFT.EnvironmentalData",
          "name": "environmentalData",
          "type": "tuple"
        }
      ],
      "stateMutability": "view",
      "type": "function"
    },
    {
      "inputs": [
        {
          "internalType": "address",
          "name": "owner",
          "type": "address"
        },
        {
          "internalType": "address",
          "name": "operator",
          "type": "address"
        }
      ],
      "name": "isApprovedForAll",
      "outputs": [
        {
          "internalType": "bool",
          "name": "",
          "type": "bool"
        }
      ],
      "stateMutability": "view",
      "type": "function"
    },
    {
      "inputs": [
        {
          "internalType": "uint256",
          "name": "_tokenId",
          "type": "uint256"
        }
      ],
      "name": "markAsProcessed",
      "outputs": [],
      "stateMutability": "nonpayable",
      "type": "function"
    },
    {
      "inputs": [
        {
          "internalType": "string",
          "name": "_herbName",
          "type": "string"
        },
        {
          "internalType": "string",
          "name": "_batchCode",
          "type": "string"
        },
        {
          "internalType": "string",
          "name": "_originLocation",
          "type": "string"
        },
        {
          "internalType": "string",
          "name": "_harvestDate",
          "type": "string"
        },
        {
          "internalType": "string",
          "name": "_tokenURI",
          "type": "string"
        }
      ],
      "name": "mintHerbBatch",
      "outputs": [
        {
          "internalType": "uint256",
          "name": "",
          "type": "uint256"
        }
      ],
      "stateMutability": "nonpayable",
      "type": "function"
    },
    {
      "inputs": [],
      "name": "name",
      "outputs": [
        {
          "internalType": "string",
          "name": "",
          "type": "string"
        }
      ],
      "stateMutability": "view",
      "type": "function"
    },
    {
      "inputs": [],
      "name": "owner",
      "outputs": [
        {
          "internalType": "address",
          "name": "",
          "type": "address"
        }
      ],
      "stateMutability": "view",
      "type": "function"
    },
    {
      "inputs": [
        {
          "internalType": "uint256",
          "name": "tokenId",
          "type": "uint256"
        }
      ],
      "name": "ownerOf",
      "outputs": [
        {
          "internalType": "address",
          "name": "",
          "type": "address"
        }
      ],
      "stateMutability": "view",
      "type": "function"
    },
    {
      "inputs": [],
      "name": "renounceOwnership",
      "outputs": [],
      "stateMutability": "nonpayable",
      "type": "function"
    },
    {
      "inputs": [
        {
          "internalType": "address",
          "name": "from",
          "type": "address"
        },
        {
          "internalType": "address",
          "name": "to",
          "type": "address"
        },
        {
          "internalType": "uint256",
          "name": "tokenId",
          "type": "uint256"
        }
      ],
      "name": "safeTransferFrom",
      "outputs": [],
      "stateMutability": "nonpayable",
      "type": "function"
    },
    {
      "inputs": [
        {
          "internalType": "address",
          "name": "from",
          "type": "address"
        },
        {
          "internalType": "address",
          "name": "to",
          "type": "address"
        },
        {
          "internalType": "uint256",
          "name": "tokenId",
          "type": "uint256"
        },
        {
          "internalType": "bytes",
          "name": "data",
          "type": "bytes"
        }
      ],
      "name": "safeTransferFrom",
      "outputs": [],
      "stateMutability": "nonpayable",
      "type": "function"
    },
    {
      "inputs": [
        {
          "internalType": "address",
          "name": "operator",
          "type": "address"
        },
        {
          "internalType": "bool",
          "name": "approved",
          "type": "bool"
        }
      ],
      "name": "setApprovalForAll",
      "outputs": [],
      "stateMutability": "nonpayable",
      "type": "function"
    },
    {
      "inputs": [
        {
          "internalType": "bytes4",
          "name": "interfaceId",
          "type": "bytes4"
        }
      ],
      "name": "supportsInterface",
      "outputs": [
        {
          "internalType": "bool",
          "name": "",
          "type": "bool"
        }
      ],
      "stateMutability": "view",
      "type": "function"
    },
    {
      "inputs": [],
      "name": "symbol",
      "outputs": [
        {
          "internalType": "string",
          "name": "",
          "type": "string"
        }
      ],
      "stateMutability": "view",
      "type": "function"
    },
    {
      "inputs": [
        {
          "internalType": "uint256",
          "name": "tokenId",
          "type": "uint256"
        }
      ],
      "name": "tokenURI",
      "outputs": [
        {
          "internalType": "string",
          "name": "",
          "type": "string"
        }
      ],
      "stateMutability": "view",
      "type": "function"
    },
    {
      "inputs": [
        {
          "internalType": "address",
          "name": "from",
          "type": "address"
        },
        {
          "internalType": "address",
          "name": "to",
          "type": "address"
        },
        {
          "internalType": "uint256",
          "name": "tokenId",
          "type": "uint256"
        }
      ],
      "name": "transferFrom",
      "outputs": [],
      "stateMutability": "nonpayable",
      "type": "function"
    },
    {
      "inputs": [
        {
          "internalType": "address",
          "name": "newOwner",
          "type": "address"
        }
      ],
      "name": "transferOwnership",
      "outputs": [],
      "stateMutability": "nonpayable",
      "type": "function"
    },
    {
      "inputs": [
        {
          "internalType": "uint256",
          "name": "_tokenId",
          "type": "uint256"
        },
        {
          "internalType": "int256",
          "name": "_temperature",
          "type": "int256"
        },
        {
          "internalType": "uint256",
          "name": "_humidity",
          "type": "uint256"
        },
        {
          "internalType": "uint256",
          "name": "_airQualityIndex",
          "type": "uint256"
        }
      ],
      "name": "updateEnvironmentalData",
      "outputs": [],
      "stateMutability": "nonpayable",
      "type": "function"
    },
    {
      "inputs": [
        {
          "internalType": "uint256",
          "name": "_tokenId",
          "type": "uint256"
        },
        {
          "internalType": "string",
          "name": "_qualityGrade",
          "type": "string"
        }
      ],
      "name": "verifyHerbBatch",
      "outputs": [],
      "stateMutability": "nonpayable",
      "type": "function"
    }
  ],
  "bytecode": "0x6080346200037f576001600160401b03906040908082018381118282101762000369578252600c81526020916b105e5d5c92195c988813919560a21b8383015280519381850185811082821117620003695782526005855264105213919560da1b84860152825181811162000369576000948554916001958684811c941680156200035e575b838510146200034a578190601f94858111620002f7575b5083908583116001146200029357899262000287575b5050600019600383901b1c191690861b1786555b8651928311620002735784548581811c9116801562000268575b8282101462000254578281116200020c575b5080918311600114620001a357508495829394959262000197575b5050600019600383901b1c191690831b1782555b3315620001805760078054336001600160a01b03198216811790925591519390916001600160a01b0316907f8be0079c531659141344cd1fd0a4f28419497f9722a3daafe3b4186f6b6457e09080a36008556125909081620003858239f35b51631e4fbdf760e01b815260048101839052602490fd5b0151905038806200010d565b90601f198316968587528287209287905b898210620001f45750508386979896959610620001da575b505050811b01825562000121565b015160001960f88460031b161c19169055388080620001cc565b808885968294968601518155019501930190620001b4565b8587528187208380860160051c8201928487106200024a575b0160051c019086905b8281106200023e575050620000f2565b8881550186906200022e565b9250819262000225565b634e487b7160e01b87526022600452602487fd5b90607f1690620000e0565b634e487b7160e01b86526041600452602486fd5b015190503880620000b2565b898052848a208994509190601f1984168b5b87828210620002e05750508411620002c6575b505050811b018655620000c6565b015160001960f88460031b161c19169055388080620002b8565b8385015186558c97909501949384019301620002a5565b9091508880528389208580850160051c82019286861062000340575b918a91869594930160051c01915b828110620003315750506200009c565b8b81558594508a910162000321565b9250819262000313565b634e487b7160e01b88526022600452602488fd5b93607f169362000085565b634e487b7160e01b600052604160045260246000fd5b600080fdfe608080604052600436101561001357600080fd5b60003560e01c90816301ffc9a714611d365750806306fdde0314611c8b578063081812fc14611c4d578063095ea7b314611b6657806323b872dd14611b4f578063247ab51f14611abf57806342842e0e14611a915780634286bb2e146119965780635071f001146118bb5780636352211e1461188b57806370a0823114611832578063715018a6146117d557806388fa2aa8146116985780638da5cb5b1461166f57806395d89b411461158c578063a22cb465146114de578063a752c69c14611482578063b88d4fde14611415578063c87b56dd146113bc578063d381ba44146112c0578063e055315b1461057f578063e561dddc1461053e578063e70047c514610216578063e985e9c5146101c05763f2fde38b1461013257600080fd5b346101bb5760203660031901126101bb5761014b611e03565b6101536123e0565b6001600160a01b039081169081156101a257600754826001600160601b0360a01b821617600755167f8be0079c531659141344cd1fd0a4f28419497f9722a3daafe3b4186f6b6457e0600080a3005b604051631e4fbdf760e01b815260006004820152602490fd5b600080fd5b346101bb5760403660031901126101bb576101d9611e03565b6101e1611e19565b9060018060a01b03809116600052600560205260406000209116600052602052602060ff604060002054166040519015158152f35b346101bb5760403660031901126101bb576001600160401b036004356024358281116101bb5761024a903690600401611f44565b6102526123e0565b61025f60085483106122ee565b816000526020926009845260ff600860406000200154166105065760405190848201604160f81b815260019283815261029781611eb6565b51902060405186810190602160f91b82528481526102b481611eb6565b5190209060405187810190604360f81b82528581526102d281611eb6565b51902090604051888101906103008a82816102f38c87815193849201611dbb565b8101038084520182611ed1565b5190209081149283156104fc575b5082156104f2575b5050156104b557836000526009855260066040600020600881018460ff198254161790550191835191821161049f5761034f8354612057565b601f8111610456575b5085601f83116001146103cc579180806103bc95937f38fd55d5eb9ed975c430ee6a0d82e6074d8e89db86b31bf01177f9803234214097956000936103c1575b501b916000199060031b1c19161790555b6040519182918683523396830190611dde565b0390a3005b86015192508a610398565b601f9291921982169084600052876000209160005b898282106104425750509183916103bc96947f38fd55d5eb9ed975c430ee6a0d82e6074d8e89db86b31bf01177f9803234214098969410610429575b5050811b0190556103a9565b85015160001960f88460031b161c19169055888061041d565b8884015185559386019392830192016103e1565b8360005286600020601f840160051c810191888510610495575b601f0160051c019082905b828110610489575050610358565b6000815501829061047b565b9091508190610470565b634e487b7160e01b600052604160045260246000fd5b60405162461bcd60e51b8152600481018690526015602482015274496e76616c6964207175616c69747920677261646560581b6044820152606490fd5b1490508680610316565b811492508861030e565b60405162461bcd60e51b815260048101859052601060248201526f105b1c9958591e481d995c9a599a595960821b6044820152606490fd5b346101bb5760003660031901126101bb57600854600019810190811161056957602090604051908152f35b634e487b7160e01b600052601160045260246000fd5b346101bb5760a03660031901126101bb576004356001600160401b0381116101bb576105af903690600401611f44565b6024356001600160401b0381116101bb576105ce903690600401611f44565b906044356001600160401b0381116101bb576105ee903690600401611f44565b906064356001600160401b0381116101bb5761060e903690600401611f44565b916084356001600160401b0381116101bb5761062e903690600401611f44565b9282511561127b57845115611236578151156111f15760405160208187516106598183858c01611dbb565b8101600a815203019020546111ac57600854936000198514610569576001850160085560405161068881611e9b565b600081523315611193576000868152600260205260409020546001600160a01b03168061115c575b3360005260036020526040600020600181540190558660005260026020526040600020336001600160601b0360a01b8254161790558633827fddf252ad1be2c89b69c2b068fc378daa952ba7f163c4a11628f55a4df523b3ef600080a461114357333b611024575b508460005260066020526040600020908051906001600160401b03821161049f5781906107458454612057565b601f8111610fd4575b50602090601f8311600114610f6857600092610f5d575b50508160011b916000199060031b1c19161790555b7ff8e1a15aba9398e019f0b49df1a4fde98ee17ae345cb5f6b5e2c27f5033e8ce76020604051868152a1604051906107b182611e64565b60008252600060208301526000604083015260006060830152604051926107d784611e7f565b858452846020850152866040850152336060850152608084015260a083015260405161080281611eb6565b60018152602160f91b602082015260c08301524260e0830152600061010083015260006101208301526101408201528260005260096020526040600020908051825560208101518051906001600160401b03821161049f5781906108696001860154612057565b601f8111610f0a575b50602090601f8311600114610e9857600092610e8d575b50508160011b916000199060031b1c19161760018301555b60408101518051906001600160401b03821161049f5781906108c66002860154612057565b601f8111610e3a575b50602090601f8311600114610dc857600092610dbd575b50508160011b916000199060031b1c19161760028301555b6003820160018060a01b036060830151166001600160601b0360a01b82541617905560808101518051906001600160401b03821161049f5781906109456004860154612057565b601f8111610d6a575b50602090601f8311600114610cf857600092610ced575b50508160011b916000199060031b1c19161760048301555b60a08101518051906001600160401b03821161049f5781906109a26005860154612057565b601f8111610c9a575b50602090601f8311600114610c2857600092610c1d575b50508160011b916000199060031b1c19161760058301555b60c08101518051906001600160401b03821161049f576109fd6006850154612057565b601f8111610bd6575b5091859391602097938890601f8311600114610b37576101407f8fc3c5f6a5d8fa33efd13543f345e7bf783b2a5e6f32421f47f2458d67c93e1b969484610b179795600c95606095600092610b2c575b50508160011b916000199060031b1c19161760068601555b60e0810151600786015560088501610a996101008301511515829060ff801983541691151516179055565b610120820151151561ff0082549160081b169061ff0019161790550151805160098501558a810151600a8501556040810151600b85015501519101558360405188818451610aea8183858901611dbb565b8101600a81520301902055610b0a60405195606087526060870190611dde565b9085820388870152611dde565b924260408201528033940390a3604051908152f35b015190508e80610a56565b9060068501600052896000209160005b601f1985168110610bbc57507f8fc3c5f6a5d8fa33efd13543f345e7bf783b2a5e6f32421f47f2458d67c93e1b9694600185600c9560609561014095610b179b99601f19811610610ba3575b505050811b016006860155610a6e565b015160001960f88460031b161c191690558e8080610b93565b8183015184558a9850600190930192918b01918b01610b47565b600685016000526020600020601f840160051c810160208510610c16575b601f830160051c82018110610c0a575050610a06565b60008155600101610bf4565b5080610bf4565b0151905087806109c2565b9250600585016000526020600020906000935b601f1984168510610c7f576001945083601f19811610610c66575b505050811b0160058301556109da565b015160001960f88460031b161c19169055878080610c56565b81810151835560209485019460019093019290910190610c3b565b909150600585016000526020600020601f840160051c810160208510610ce6575b90849392915b601f830160051c82018110610cd75750506109ab565b60008155859450600101610cc1565b5080610cbb565b015190508780610965565b9250600485016000526020600020906000935b601f1984168510610d4f576001945083601f19811610610d36575b505050811b01600483015561097d565b015160001960f88460031b161c19169055878080610d26565b81810151835560209485019460019093019290910190610d0b565b909150600485016000526020600020601f840160051c810160208510610db6575b90849392915b601f830160051c82018110610da757505061094e565b60008155859450600101610d91565b5080610d8b565b0151905087806108e6565b9250600285016000526020600020906000935b601f1984168510610e1f576001945083601f19811610610e06575b505050811b0160028301556108fe565b015160001960f88460031b161c19169055878080610df6565b81810151835560209485019460019093019290910190610ddb565b909150600285016000526020600020601f840160051c810160208510610e86575b90849392915b601f830160051c82018110610e775750506108cf565b60008155859450600101610e61565b5080610e5b565b015190508780610889565b9250600185016000526020600020906000935b601f1984168510610eef576001945083601f19811610610ed6575b505050811b0160018301556108a1565b015160001960f88460031b161c19169055878080610ec6565b81810151835560209485019460019093019290910190610eab565b909150600185016000526020600020601f840160051c810160208510610f56575b90849392915b601f830160051c82018110610f47575050610872565b60008155859450600101610f31565b5080610f2b565b015190508880610765565b9250836000526020600020906000935b601f1984168510610fb9576001945083601f19811610610fa0575b505050811b01905561077a565b015160001960f88460031b161c19169055888080610f93565b81810151835560209485019460019093019290910190610f78565b909150836000526020600020601f840160051c81016020851061101d575b90849392915b601f830160051c8201811061100e57505061074e565b60008155859450600101610ff8565b5080610ff2565b602061105f9160405180938192630a85bd0160e11b8352336004840152600060248401528a6044840152608060648401526084830190611dde565b03816000335af1600091816110fe575b506110c9573d156110c2573d61108481611ef2565b906110926040519283611ed1565b81523d6000602083013e5b805190816110bd57604051633250574960e11b8152336004820152602490fd5b602001fd5b606061109d565b6001600160e01b03191663757a42ff60e11b016110e65786610718565b604051633250574960e11b8152336004820152602490fd5b9091506020813d60201161113b575b8161111a60209383611ed1565b810103126101bb57516001600160e01b0319811681036101bb57908861106f565b3d915061110d565b6040516339e3563760e11b815260006004820152602490fd5b600087815260046020526040902080546001600160a01b0319169055806000526003602052604060002060001981540190556106b0565b604051633250574960e11b815260006004820152602490fd5b60405162461bcd60e51b815260206004820152601960248201527f426174636820636f646520616c726561647920657869737473000000000000006044820152606490fd5b60405162461bcd60e51b815260206004820152601f60248201527f4f726967696e206c6f636174696f6e2063616e6e6f7420626520656d707479006044820152606490fd5b60405162461bcd60e51b815260206004820152601a60248201527f426174636820636f64652063616e6e6f7420626520656d7074790000000000006044820152606490fd5b60405162461bcd60e51b815260206004820152601960248201527f48657262206e616d652063616e6e6f7420626520656d707479000000000000006044820152606490fd5b346101bb5760203660031901126101bb576004356112dc612331565b506112ea60085482106122ee565b60005260096020526113b860406000206113a660096040519261130c84611e7f565b8054845261131c60018201612091565b602085015261132d60028201612091565b604085015260038101546001600160a01b0316606085015261135160048201612091565b608085015261136260058201612091565b60a085015261137360068201612091565b60c0850152600781015460e085015260ff6008820154818116151561010087015260081c16151561012085015201612136565b61014082015260405191829182611f62565b0390f35b346101bb5760203660031901126101bb576004356113d9816123a5565b5060005260066020526113b86113f26040600020612091565b600060405161140081611e9b565b52604051918291602083526020830190611dde565b346101bb5760803660031901126101bb5761142e611e03565b611436611e19565b90604435606435926001600160401b0384116101bb57366023850112156101bb5761146e611480943690602481600401359101611f0d565b9261147a838383612168565b3361240c565b005b346101bb5760203660031901126101bb576004356001600160401b0381116101bb576114cb60206114b881933690600401611f44565b8160405193828580945193849201611dbb565b8101600a81520301902054604051908152f35b346101bb5760403660031901126101bb576114f7611e03565b60243590811515908183036101bb576001600160a01b0316918215611573576115459033600052600560205260406000208460005260205260406000209060ff801983541691151516179055565b6040519081527f17307eab39ab6107e8899845ad3d59bd9653f200f220920489ca2b5937696c3160203392a3005b604051630b61174360e31b815260048101849052602490fd5b346101bb5760003660031901126101bb576040516000600182600154926115b284612057565b928383526020948560018216918260001461164f5750506001146115f2575b506115de92500383611ed1565b6113b8604051928284938452830190611dde565b84915060016000527fb10e2d527612073b26eecdfd717e6a320cf44b4afac2b0732d9fcbe2b7fa0cf6906000915b8583106116375750506115de9350820101856115d1565b80548389018501528794508693909201918101611620565b60ff1916858201526115de95151560051b85010192508791506115d19050565b346101bb5760003660031901126101bb576007546040516001600160a01b039091168152602090f35b346101bb5760203660031901126101bb57600435600052600960205260406000208054600182016116c890612091565b916116d560028201612091565b60038201546001600160a01b0316916116f060048201612091565b6116fc60058301612091565b61170860068401612091565b9160078401549560088501549460090161172190612136565b95604051998a996101c0908b528060208c01528a0161173f91611dde565b89810360408b015261175091611dde565b906060890152878103608089015261176791611dde565b86810360a088015261177891611dde565b85810360c087015261178991611dde565b9260e085015260ff8116151561010085015260081c60ff16151561012084015261014083016113b891606080918051845260208101516020850152604081015160408501520151910152565b346101bb5760003660031901126101bb576117ee6123e0565b600780546001600160a01b031981169091556000906001600160a01b03167f8be0079c531659141344cd1fd0a4f28419497f9722a3daafe3b4186f6b6457e08280a3005b346101bb5760203660031901126101bb576001600160a01b03611853611e03565b1680156118725760005260036020526020604060002054604051908152f35b6040516322718ad960e21b815260006004820152602490fd5b346101bb5760203660031901126101bb5760206118a96004356123a5565b6040516001600160a01b039091168152f35b346101bb576020806003193601126101bb576004356001600160401b0381116101bb57816118f061190c923690600401611f44565b6118f8612331565b508160405193828580945193849201611dbb565b8101600a81520301902054908115611960576113b891600052600981526113a6600960406000206040519361194085611e7f565b8154855261195060018301612091565b9085015261132d60028201612091565b6064906040519062461bcd60e51b82526004820152600f60248201526e10985d18da081b9bdd08199bdd5b99608a1b6044820152fd5b346101bb5760803660031901126101bb576004356024356044356119b86123e0565b6119c560085484106122ee565b60648111611a53577f95524c7d8850e7594d5662482abb0db94193e11a206711bded04ad1d345e750a916060916040516119fe81611e64565b828152600c602082018381526040830160643581528684019142835289600052600960205260406000209451600986015551600a85015551600b840155519101556040519182526020820152426040820152a2005b60405162461bcd60e51b8152602060048201526016602482015275048756d6964697479206d75737420626520302d3130360541b6044820152606490fd5b346101bb57611480611aa236611e2f565b9060405192611ab084611e9b565b6000845261147a838383612168565b346101bb5760203660031901126101bb57600435611ae060085482106122ee565b611ae9816123a5565b336001600160a01b0390911603611b1a576000908152600960205260409020600801805461ff001916610100179055005b60405162461bcd60e51b815260206004820152600d60248201526c2737ba103a34329037bbb732b960991b6044820152606490fd5b346101bb57611480611b6036611e2f565b91612168565b346101bb5760403660031901126101bb57611b7f611e03565b602435611b8b816123a5565b33151580611c3a575b80611c0d575b611bf5576001600160a01b039283169282918491167f8c5be1e5ebec7d5bd14f71427d1e84f3dd0314c0f7b2291e5b200ac8c7c3b925600080a4600090815260046020526040902080546001600160a01b0319169091179055005b60405163a9fbf51f60e01b8152336004820152602490fd5b5060018060a01b038116600052600560205260406000203360005260205260ff6040600020541615611b9a565b506001600160a01b038116331415611b94565b346101bb5760203660031901126101bb57600435611c6a816123a5565b506000526004602052602060018060a01b0360406000205416604051908152f35b346101bb5760003660031901126101bb57604051600080549082611cae83612057565b918282526020936001908560018216918260001461164f575050600114611cdc57506115de92500383611ed1565b6000808052859250907f290decd9548b62a8d60345a988386fc84ba6bc95484008f6362f93160ef3e5635b858310611d1e5750506115de9350820101856115d1565b80548389018501528794508693909201918101611d07565b346101bb5760203660031901126101bb576004359063ffffffff60e01b82168092036101bb57602091632483248360e11b8114908115611d78575b5015158152f35b6380ac58cd60e01b811491508115611daa575b8115611d99575b5083611d71565b6301ffc9a760e01b14905083611d92565b635b5e139f60e01b81149150611d8b565b60005b838110611dce5750506000910152565b8181015183820152602001611dbe565b90602091611df781518092818552858086019101611dbb565b601f01601f1916010190565b600435906001600160a01b03821682036101bb57565b602435906001600160a01b03821682036101bb57565b60609060031901126101bb576001600160a01b039060043582811681036101bb579160243590811681036101bb579060443590565b608081019081106001600160401b0382111761049f57604052565b61016081019081106001600160401b0382111761049f57604052565b602081019081106001600160401b0382111761049f57604052565b604081019081106001600160401b0382111761049f57604052565b90601f801991011681019081106001600160401b0382111761049f57604052565b6001600160401b03811161049f57601f01601f191660200190565b929192611f1982611ef2565b91611f276040519384611ed1565b8294818452818301116101bb578281602093846000960137010152565b9080601f830112156101bb57816020611f5f93359101611f0d565b90565b611f5f906020815282516020820152610160612006611f9260208601516101c060408601526101e0850190611dde565b611ff1611fdd611fb4604089015193601f1994858983030160608a0152611dde565b60608901516001600160a01b0316608088810191909152890151878203850160a0890152611dde565b60a0880151838783030160c0880152611dde565b9060c0870151908583030160e0860152611dde565b9360e081015161010090818501528101516101209015158185015281015190610140911515828501520151910190606080918051845260208101516020850152604081015160408501520151910152565b90600182811c92168015612087575b602083101461207157565b634e487b7160e01b600052602260045260246000fd5b91607f1691612066565b906040519182600082546120a481612057565b9081845260209460019160018116908160001461211457506001146120d5575b5050506120d392500383611ed1565b565b600090815285812095935091905b8183106120fc5750506120d393508201013880806120c4565b855488840185015294850194879450918301916120e3565b925050506120d394925060ff191682840152151560051b8201013880806120c4565b9060405161214381611e64565b6060600382948054845260018101546020850152600281015460408501520154910152565b6001600160a01b03918216929091831561119357600092828452826020956002875260409684888820541696879133151580612258575b509060027fddf252ad1be2c89b69c2b068fc378daa952ba7f163c4a11628f55a4df523b3ef9284612225575b858352600381528b8320805460010190558683525289812080546001600160a01b0319168517905580a416928383036122045750505050565b6064945051926364283d7b60e01b8452600484015260248301526044820152fd5b600087815260046020526040902080546001600160a01b0319169055848352600381528b832080546000190190556121cb565b919394509150806122ad575b156122745785929187913861219f565b878688612291576024915190637e27328960e01b82526004820152fd5b604491519063177e802f60e01b82523360048301526024820152fd5b5033871480156122d2575b806122645750858252600481523385898420541614612264565b5086825260058152878220338352815260ff88832054166122b8565b156122f557565b60405162461bcd60e51b8152602060048201526014602482015273151bdad95b88191bd95cc81b9bdd08195e1a5cdd60621b6044820152606490fd5b6040519061233e82611e7f565b8161014060009182815260609283602083015283604083015280848301528360808301528360a08301528360c08301528060e083015280610100830152806101208301526040519361238f85611e64565b8185528160208601528160408601528401520152565b6000818152600260205260409020546001600160a01b03169081156123c8575090565b60249060405190637e27328960e01b82526004820152fd5b6007546001600160a01b031633036123f457565b60405163118cdaa760e01b8152336004820152602490fd5b90939192833b61241e575b5050505050565b604051630a85bd0160e11b8082526001600160a01b03938416600483015295831660248201526044810191909152608060648201529492169260209291859061246b906084830190611dde565b039483816000978189895af1869181612516575b506124e0575050503d6000146124d7573d61249981611ef2565b906124a76040519283611ed1565b81528093823d92013e5b825192836124d257604051633250574960e11b815260048101849052602490fd5b019050fd5b606092506124b1565b919450915063ffffffff60e01b16036124fe57503880808080612417565b60249060405190633250574960e11b82526004820152fd5b9091508481813d8311612553575b61252e8183611ed1565b8101031261254f57516001600160e01b03198116810361254f57903861247f565b8680fd5b503d61252456fea2646970667358221220e8415ecf838d46cfad3e7391484dc960f259b32d45f9cc1d2118bdb95cb78ff964736f6c63430008180033",
  "linkReferences": {},
  "deployedLinkReferences": {}
}