{
  "_format": "hh-sol-artifact-1",
  "contractName": "HerbNFT",
  "sourceName": "contracts/HerbCollection.sol",
  "abi": [
    {
      "inputs": [],
      "stateMutability": "nonpayable",
      "type": "constructor"
    },
    {
      "inputs": [
        {
          "internalType": "address",
          "name": "sender",
          "type": "address"
        },
        {
          "internalType": "uint256",
          "name": "tokenId",
          "type": "uint256"
        },
        {
          "internalType": "address",
          "name": "owner",
          "type": "address"
        }
      ],
      "name": "ERC721IncorrectOwner",
      "type": "error"
    },
    {
      "inputs": [
        {
          "internalType": "address",
          "name": "operator",
          "type": "address"
        },
        {
          "internalType": "uint256",
          "name": "tokenId",
          "type": "uint256"
        }
      ],
      "name": "ERC721InsufficientApproval",
      "type": "error"
    },
    {
      "inputs": [
        {
          "internalType": "address",
          "name": "approver",
          "type": "address"
        }
      ],
      "name": "ERC721InvalidApprover",
      "type": "error"
    },
    {
      "inputs": [
        {
          "internalType": "address",
          "name": "operator",
          "type": "address"
        }
      ],
      "name": "ERC721InvalidOperator",
      "type": "error"
    },
    {
      "inputs": [
        {
          "internalType": "address",
          "name": "owner",
          "type": "address"
        }
      ],
      "name": "ERC721InvalidOwner",
      "type": "error"
    },
    {
      "inputs": [
        {
          "internalType": "address",
          "name": "receiver",
          "type": "address"
        }
      ],
      "name": "ERC721InvalidReceiver",
      "type": "error"
    },
    {
      "inputs": [
        {
          "internalType": "address",
          "name": "sender",
          "type": "address"
        }
      ],
      "name": "ERC721InvalidSender",
      "type": "error"
    },
    {
      "inputs": [
        {
          "internalType": "uint256",
          "name": "tokenId",
          "type": "uint256"
        }
      ],
      "name": "ERC721NonexistentToken",
      "type": "error"
    },
    {
      "inputs": [],
      "name": "EnforcedPause",
      "type": "error"
    },
    {
      "inputs": [],
      "name": "ExpectedPause",
      "type": "error"
    },
    {
      "inputs": [
        {
          "internalType": "address",
          "name": "owner",
          "type": "address"
        }
      ],
      "name": "OwnableInvalidOwner",
      "type": "error"
    },
    {
      "inputs": [
        {
          "internalType": "address",
          "name": "account",
          "type": "address"
        }
      ],
      "name": "OwnableUnauthorizedAccount",
      "type": "error"
    },
    {
      "inputs": [],
      "name": "ReentrancyGuardReentrantCall",
      "type": "error"
    },
    {
      "anonymous": false,
      "inputs": [
        {
          "indexed": true,
          "internalType": "address",
          "name": "owner",
          "type": "address"
        },
        {
          "indexed": true,
          "internalType": "address",
          "name": "approved",
          "type": "address"
        },
        {
          "indexed": true,
          "internalType": "uint256",
          "name": "tokenId",
          "type": "uint256"
        }
      ],
      "name": "Approval",
      "type": "event"
    },
    {
      "anonymous": false,
      "inputs": [
        {
          "indexed": true,
          "internalType": "address",
          "name": "owner",
          "type": "address"
        },
        {
          "indexed": true,
          "internalType": "address",
          "name": "operator",
          "type": "address"
        },
        {
          "indexed": false,
          "internalType": "bool",
          "name": "approved",
          "type": "bool"
        }
      ],
      "name": "ApprovalForAll",
      "type": "event"
    },
    {
      "anonymous": false,
      "inputs": [
        {
          "indexed": false,
          "internalType": "uint256",
          "name": "_fromTokenId",
          "type": "uint256"
        },
        {
          "indexed": false,
          "internalType": "uint256",
          "name": "_toTokenId",
          "type": "uint256"
        }
      ],
      "name": "BatchMetadataUpdate",
      "type": "event"
    },
    {
      "anonymous": false,
      "inputs": [
        {
          "indexed": true,
          "internalType": "uint256",
          "name": "tokenId",
          "type": "uint256"
        },
        {
          "indexed": false,
          "internalType": "int256",
          "name": "temperature",
          "type": "int256"
        },
        {
          "indexed": false,
          "internalType": "uint256",
          "name": "humidity",
          "type": "uint256"
        },
        {
          "indexed": false,
          "internalType": "uint256",
          "name": "timestamp",
          "type": "uint256"
        }
      ],
      "name": "EnvironmentalDataUpdated",
      "type": "event"
    },
    {
      "anonymous": false,
      "inputs": [
        {
          "indexed": true,
          "internalType": "uint256",
          "name": "tokenId",
          "type": "uint256"
        },
        {
          "indexed": true,
          "internalType": "address",
          "name": "collector",
          "type": "address"
        },
        {
          "indexed": false,
          "internalType": "string",
          "name": "herbName",
          "type": "string"
        },
        {
          "indexed": false,
          "internalType": "string",
          "name": "batchCode",
          "type": "string"
        },
        {
          "indexed": false,
          "internalType": "uint256",
          "name": "timestamp",
          "type": "uint256"
        }
      ],
      "name": "HerbBatchMinted",
      "type": "event"
    },
    {
      "anonymous": false,
      "inputs": [
        {
          "indexed": true,
          "internalType": "uint256",
          "name": "tokenId",
          "type": "uint256"
        },
        {
          "indexed": true,
          "internalType": "address",
          "name": "verifier",
          "type": "address"
        },
        {
          "indexed": false,
          "internalType": "string",
          "name": "qualityGrade",
          "type": "string"
        }
      ],
      "name": "HerbBatchVerified",
      "type": "event"
    },
    {
      "anonymous": false,
      "inputs": [
        {
          "indexed": false,
          "internalType": "uint256",
          "name": "_tokenId",
          "type": "uint256"
        }
      ],
      "name": "MetadataUpdate",
      "type": "event"
    },
    {
      "anonymous": false,
      "inputs": [
        {
          "indexed": true,
          "internalType": "address",
          "name": "previousOwner",
          "type": "address"
        },
        {
          "indexed": true,
          "internalType": "address",
          "name": "newOwner",
          "type": "address"
        }
      ],
      "name": "OwnershipTransferred",
      "type": "event"
    },
    {
      "anonymous": false,
      "inputs": [
        {
          "indexed": false,
          "internalType": "address",
          "name": "account",
          "type": "address"
        }
      ],
      "name": "Paused",
      "type": "event"
    },
    {
      "anonymous": false,
      "inputs": [
        {
          "indexed": true,
          "internalType": "address",
          "name": "from",
          "type": "address"
        },
        {
          "indexed": true,
          "internalType": "address",
          "name": "to",
          "type": "address"
        },
        {
          "indexed": true,
          "internalType": "uint256",
          "name": "tokenId",
          "type": "uint256"
        }
      ],
      "name": "Transfer",
      "type": "event"
    },
    {
      "anonymous": false,
      "inputs": [
        {
          "indexed": false,
          "internalType": "address",
          "name": "account",
          "type": "address"
        }
      ],
      "name": "Unpaused",
      "type": "event"
    },
    {
      "inputs": [
        {
          "internalType": "address",
          "name": "to",
          "type": "address"
        },
        {
          "internalType": "uint256",
          "name": "tokenId",
          "type": "uint256"
        }
      ],
      "name": "approve",
      "outputs": [],
      "stateMutability": "nonpayable",
      "type": "function"
    },
    {
      "inputs": [
        {
          "internalType": "address",
          "name": "owner",
          "type": "address"
        }
      ],
      "name": "balanceOf",
      "outputs": [
        {
          "internalType": "uint256",
          "name": "",
          "type": "uint256"
        }
      ],
      "stateMutability": "view",
      "type": "function"
    },
    {
      "inputs": [
        {
          "internalType": "string",
          "name": "",
          "type": "string"
        }
      ],
      "name": "batchCodeToTokenId",
      "outputs": [
        {
          "internalType": "uint256",
          "name": "",
          "type": "uint256"
        }
      ],
      "stateMutability": "view",
      "type": "function"
    },
    {
      "inputs": [
        {
          "internalType": "uint256",
          "name": "tokenId",
          "type": "uint256"
        }
      ],
      "name": "getApproved",
      "outputs": [
        {
          "internalType": "address",
          "name": "",
          "type": "address"
        }
      ],
      "stateMutability": "view",
      "type": "function"
    },
    {
      "inputs": [
        {
          "internalType": "string",
          "name": "_batchCode",
          "type": "string"
        }
      ],
      "name": "getBatchByCode",
      "outputs": [
        {
          "components": [
            {
              "internalType": "uint256",
              "name": "tokenId",
              "type": "uint256"
            },
            {
              "internalType": "string",
              "name": "herbName",
              "type": "string"
            },
            {
              "internalType": "string",
              "name": "batchCode",
              "type": "string"
            },
            {
              "internalType": "address",
              "name": "collector",
              "type": "address"
            },
            {
              "internalType": "string",
              "name": "originLocation",
              "type": "string"
            },
            {
              "internalType": "string",
              "name": "harvestDate",
              "type": "string"
            },
            {
              "internalType": "string",
              "name": "qualityGrade",
              "type": "string"
            },
            {
              "internalType": "uint256",
              "name": "collectionTimestamp",
              "type": "uint256"
            },
            {
              "internalType": "bool",
              "name": "isVerified",
              "type": "bool"
            },
            {
              "internalType": "bool",
              "name": "isProcessed",
              "type": "bool"
            },
            {
              "components": [
                {
                  "internalType": "int256",
                  "name": "temperature",
                  "type": "int256"
                },
                {
                  "internalType": "uint256",
                  "name": "humidity",
                  "type": "uint256"
                },
                {
                  "internalType": "uint256",
                  "name": "airQualityIndex",
                  "type": "uint256"
                },
                {
                  "internalType": "uint256",
                  "name": "lastUpdated",
                  "type": "uint256"
                }
              ],
              "internalType": "struct HerbNFT.EnvironmentalData",
              "name": "environmentalData",
              "type": "tuple"
            }
          ],
          "internalType": "struct HerbNFT.HerbBatch",
          "name": "",
          "type": "tuple"
        }
      ],
      "stateMutability": "view",
      "type": "function"
    },
    {
      "inputs": [
        {
          "internalType": "uint256",
          "name": "_tokenId",
          "type": "uint256"
        }
      ],
      "name": "getHerbBatch",
      "outputs": [
        {
          "components": [
            {
              "internalType": "uint256",
              "name": "tokenId",
              "type": "uint256"
            },
            {
              "internalType": "string",
              "name": "herbName",
              "type": "string"
            },
            {
              "internalType": "string",
              "name": "batchCode",
              "type": "string"
            },
            {
              "internalType": "address",
              "name": "collector",
              "type": "address"
            },
            {
              "internalType": "string",
              "name": "originLocation",
              "type": "string"
            },
            {
              "internalType": "string",
              "name": "harvestDate",
              "type": "string"
            },
            {
              "internalType": "string",
              "name": "qualityGrade",
              "type": "string"
            },
            {
              "internalType": "uint256",
              "name": "collectionTimestamp",
              "type": "uint256"
            },
            {
              "internalType": "bool",
              "name": "isVerified",
              "type": "bool"
            },
            {
              "internalType": "bool",
              "name": "isProcessed",
              "type": "bool"
            },
            {
              "components": [
                {
                  "internalType": "int256",
                  "name": "temperature",
                  "type": "int256"
                },
                {
                  "internalType": "uint256",
                  "name": "humidity",
                  "type": "uint256"
                },
                {
                  "internalType": "uint256",
                  "name": "airQualityIndex",
                  "type": "uint256"
                },
                {
                  "internalType": "uint256",
                  "name": "lastUpdated",
                  "type": "uint256"
                }
              ],
              "internalType": "struct HerbNFT.EnvironmentalData",
              "name": "environmentalData",
              "type": "tuple"
            }
          ],
          "internalType": "struct HerbNFT.HerbBatch",
          "name": "",
          "type": "tuple"
        }
      ],
      "stateMutability": "view",
      "type": "function"
    },
    {
      "inputs": [],
      "name": "getTotalBatches",
      "outputs": [
        {
          "internalType": "uint256",
          "name": "",
          "type": "uint256"
        }
      ],
      "stateMutability": "view",
      "type": "function"
    },
    {
      "inputs": [
        {
          "internalType": "uint256",
          "name": "",
          "type": "uint256"
        }
      ],
      "name": "herbBatches",
      "outputs": [
        {
          "internalType": "uint256",
          "name": "tokenId",
          "type": "uint256"
        },
        {
          "internalType": "string",
          "name": "herbName",
          "type": "string"
        },
        {
          "internalType": "string",
          "name": "batchCode",
          "type": "string"
        },
        {
          "internalType": "address",
          "name": "collector",
          "type": "address"
        },
        {
          "internalType": "string",
          "name": "originLocation",
          "type": "string"
        },
        {
          "internalType": "string",
          "name": "harvestDate",
          "type": "string"
        },
        {
          "internalType": "string",
          "name": "qualityGrade",
          "type": "string"
        },
        {
          "internalType": "uint256",
          "name": "collectionTimestamp",
          "type": "uint256"
        },
        {
          "internalType": "bool",
          "name": "isVerified",
          "type": "bool"
        },
        {
          "internalType": "bool",
          "name": "isProcessed",
          "type": "bool"
        },
        {
          "components": [
            {
              "internalType": "int256",
              "name": "temperature",
              "type": "int256"
            },
            {
              "internalType": "uint256",
              "name": "humidity",
              "type": "uint256"
            },
            {
              "internalType": "uint256",
              "name": "airQualityIndex",
              "type": "uint256"
            },
            {
              "internalType": "uint256",
              "name": "lastUpdated",
              "type": "uint256"
            }
          ],
          "internalType": "struct HerbNFT.EnvironmentalData",
          "name": "environmentalData",
          "type": "tuple"
        }
      ],
      "stateMutability": "view",
      "type": "function"
    },
    {
      "inputs": [
        {
          "internalType": "address",
          "name": "owner",
          "type": "address"
        },
        {
          "internalType": "address",
          "name": "operator",
          "type": "address"
        }
      ],
      "name": "isApprovedForAll",
      "outputs": [
        {
          "internalType": "bool",
          "name": "",
          "type": "bool"
        }
      ],
      "stateMutability": "view",
      "type": "function"
    },
    {
      "inputs": [
        {
          "internalType": "uint256",
          "name": "_tokenId",
          "type": "uint256"
        }
      ],
      "name": "markAsProcessed",
      "outputs": [],
      "stateMutability": "nonpayable",
      "type": "function"
    },
    {
      "inputs": [
        {
          "internalType": "string",
          "name": "_herbName",
          "type": "string"
        },
        {
          "internalType": "string",
          "name": "_batchCode",
          "type": "string"
        },
        {
          "internalType": "string",
          "name": "_originLocation",
          "type": "string"
        },
        {
          "internalType": "string",
          "name": "_harvestDate",
          "type": "string"
        },
        {
          "internalType": "string",
          "name": "_tokenURI",
          "type": "string"
        }
      ],
      "name": "mintHerbBatch",
      "outputs": [
        {
          "internalType": "uint256",
          "name": "",
          "type": "uint256"
        }
      ],
      "stateMutability": "nonpayable",
      "type": "function"
    },
    {
      "inputs": [],
      "name": "name",
      "outputs": [
        {
          "internalType": "string",
          "name": "",
          "type": "string"
        }
      ],
      "stateMutability": "view",
      "type": "function"
    },
    {
      "inputs": [],
      "name": "owner",
      "outputs": [
        {
          "internalType": "address",
          "name": "",
          "type": "address"
        }
      ],
      "stateMutability": "view",
      "type": "function"
    },
    {
      "inputs": [
        {
          "internalType": "uint256",
          "name": "tokenId",
          "type": "uint256"
        }
      ],
      "name": "ownerOf",
      "outputs": [
        {
          "internalType": "address",
          "name": "",
          "type": "address"
        }
      ],
      "stateMutability": "view",
      "type": "function"
    },
    {
      "inputs": [],
      "name": "pause",
      "outputs": [],
      "stateMutability": "nonpayable",
      "type": "function"
    },
    {
      "inputs": [],
      "name": "paused",
      "outputs": [
        {
          "internalType": "bool",
          "name": "",
          "type": "bool"
        }
      ],
      "stateMutability": "view",
      "type": "function"
    },
    {
      "inputs": [],
      "name": "renounceOwnership",
      "outputs": [],
      "stateMutability": "nonpayable",
      "type": "function"
    },
    {
      "inputs": [
        {
          "internalType": "address",
          "name": "from",
          "type": "address"
        },
        {
          "internalType": "address",
          "name": "to",
          "type": "address"
        },
        {
          "internalType": "uint256",
          "name": "tokenId",
          "type": "uint256"
        }
      ],
      "name": "safeTransferFrom",
      "outputs": [],
      "stateMutability": "nonpayable",
      "type": "function"
    },
    {
      "inputs": [
        {
          "internalType": "address",
          "name": "from",
          "type": "address"
        },
        {
          "internalType": "address",
          "name": "to",
          "type": "address"
        },
        {
          "internalType": "uint256",
          "name": "tokenId",
          "type": "uint256"
        },
        {
          "internalType": "bytes",
          "name": "data",
          "type": "bytes"
        }
      ],
      "name": "safeTransferFrom",
      "outputs": [],
      "stateMutability": "nonpayable",
      "type": "function"
    },
    {
      "inputs": [
        {
          "internalType": "address",
          "name": "operator",
          "type": "address"
        },
        {
          "internalType": "bool",
          "name": "approved",
          "type": "bool"
        }
      ],
      "name": "setApprovalForAll",
      "outputs": [],
      "stateMutability": "nonpayable",
      "type": "function"
    },
    {
      "inputs": [
        {
          "internalType": "bytes4",
          "name": "interfaceId",
          "type": "bytes4"
        }
      ],
      "name": "supportsInterface",
      "outputs": [
        {
          "internalType": "bool",
          "name": "",
          "type": "bool"
        }
      ],
      "stateMutability": "view",
      "type": "function"
    },
    {
      "inputs": [],
      "name": "symbol",
      "outputs": [
        {
          "internalType": "string",
          "name": "",
          "type": "string"
        }
      ],
      "stateMutability": "view",
      "type": "function"
    },
    {
      "inputs": [
        {
          "internalType": "uint256",
          "name": "tokenId",
          "type": "uint256"
        }
      ],
      "name": "tokenURI",
      "outputs": [
        {
          "internalType": "string",
          "name": "",
          "type": "string"
        }
      ],
      "stateMutability": "view",
      "type": "function"
    },
    {
      "inputs": [
        {
          "internalType": "address",
          "name": "from",
          "type": "address"
        },
        {
          "internalType": "address",
          "name": "to",
          "type": "address"
        },
        {
          "internalType": "uint256",
          "name": "tokenId",
          "type": "uint256"
        }
      ],
      "name": "transferFrom",
      "outputs": [],
      "stateMutability": "nonpayable",
      "type": "function"
    },
    {
      "inputs": [
        {
          "internalType": "address",
          "name": "newOwner",
          "type": "address"
        }
      ],
      "name": "transferOwnership",
      "outputs": [],
      "stateMutability": "nonpayable",
      "type": "function"
    },
    {
      "inputs": [],
      "name": "unpause",
      "outputs": [],
      "stateMutability": "nonpayable",
      "type": "function"
    },
    {
      "inputs": [
        {
          "internalType": "uint256",
          "name": "_tokenId",
          "type": "uint256"
        },
        {
          "internalType": "int256",
          "name": "_temperature",
          "type": "int256"
        },
        {
          "internalType": "uint256",
          "name": "_humidity",
          "type": "uint256"
        },
        {
          "internalType": "uint256",
          "name": "_airQualityIndex",
          "type": "uint256"
        }
      ],
      "name": "updateEnvironmentalData",
      "outputs": [],
      "stateMutability": "nonpayable",
      "type": "function"
    },
    {
      "inputs": [
        {
          "internalType": "uint256",
          "name": "_tokenId",
          "type": "uint256"
        },
        {
          "internalType": "string",
          "name": "_qualityGrade",
          "type": "string"
        }
      ],
      "name": "verifyHerbBatch",
      "outputs": [],
      "stateMutability": "nonpayable",
      "type": "function"
    }
  ],
  "bytecode": "0x60803462000383576001600160401b0390604090808201838111828210176200036d578252600c81526020916b105e5d5c92195c988813919560a21b83830152805193818501858110828211176200036d5782526005855264105213919560da1b8486015282518181116200036d576000948554916001958684811c9416801562000362575b838510146200034e578190601f94858111620002fb575b508390858311600114620002975789926200028b575b5050600019600383901b1c191690861b1786555b8651928311620002775784548581811c911680156200026c575b82821014620002585782811162000210575b5080918311600114620001a75750849582939495926200019b575b5050600019600383901b1c191690831b1782555b3315620001845760078054336001600160a01b03198216811790925591519390916001600160a01b0316907f8be0079c531659141344cd1fd0a4f28419497f9722a3daafe3b4186f6b6457e09080a380600855600a556125809081620003898239f35b51631e4fbdf760e01b815260048101839052602490fd5b0151905038806200010d565b90601f198316968587528287209287905b898210620001f85750508386979896959610620001de575b505050811b01825562000121565b015160001960f88460031b161c19169055388080620001d0565b808885968294968601518155019501930190620001b8565b8587528187208380860160051c8201928487106200024e575b0160051c019086905b82811062000242575050620000f2565b88815501869062000232565b9250819262000229565b634e487b7160e01b87526022600452602487fd5b90607f1690620000e0565b634e487b7160e01b86526041600452602486fd5b015190503880620000b2565b898052848a208994509190601f1984168b5b87828210620002e45750508411620002ca575b505050811b018655620000c6565b015160001960f88460031b161c19169055388080620002bc565b8385015186558c97909501949384019301620002a9565b9091508880528389208580850160051c82019286861062000344575b918a91869594930160051c01915b828110620003355750506200009c565b8b81558594508a910162000325565b9250819262000317565b634e487b7160e01b88526022600452602488fd5b93607f169362000085565b634e487b7160e01b600052604160045260246000fd5b600080fdfe608080604052600436101561001357600080fd5b60003560e01c90816301ffc9a714611c7f5750806306fdde0314611bd4578063081812fc14611b96578063095ea7b314611aaf57806323b872dd14611a98578063247ab51f14611a005780633f4ba83a1461199657806342842e0e146119685780634286bb2e146118655780635071f001146117b55780635c975abb146117925780636352211e1461176257806370a0823114611709578063715018a6146116ac5780638456cb591461165257806388fa2aa8146115155780638da5cb5b146114ec57806395d89b4114611409578063a22cb4651461135b578063a752c69c146112ee578063b88d4fde14611281578063c87b56dd14611228578063d381ba441461112c578063e055315b14610558578063e561dddc14610517578063e70047c514610237578063e985e9c5146101e15763f2fde38b1461015357600080fd5b346101dc5760203660031901126101dc5761016c611d4c565b6101746123d0565b6001600160a01b039081169081156101c357600754826001600160601b0360a01b821617600755167f8be0079c531659141344cd1fd0a4f28419497f9722a3daafe3b4186f6b6457e0600080a3005b604051631e4fbdf760e01b815260006004820152602490fd5b600080fd5b346101dc5760403660031901126101dc576101fa611d4c565b610202611d62565b9060018060a01b03809116600052600560205260406000209116600052602052602060ff604060002054166040519015158152f35b346101dc5760403660031901126101dc576004356001600160401b036024358181116101dc5761026b903690600401611dad565b92906102756123d0565b61027d6123b2565b61028a600a548310612249565b81600052602093600b855260ff600860406000200154166104df5760405193858501604160f81b81526001958681526102c281611f5e565b51902060405187810190602160f91b82528781526102df81611f5e565b5190209060405188810190604360f81b82528881526102fd81611f5e565b5190209060405189810190868883376103258b82898101600083820152038084520182611f79565b5190209081149283156104d5575b5082156104cb575b50501561048e5783600052600b865260066040600020600881018760ff19825416179055019082116104785761037b826103758354611ed2565b83612300565b600094601f83116001146103f757506103ce82807f38fd55d5eb9ed975c430ee6a0d82e6074d8e89db86b31bf01177f9803234214096976000916103ec575b508160011b916000199060031b1c19161790565b90555b6103e76040519283928784523397840191612356565b0390a3005b9050850135896103ba565b601f1983169582600052876000209060005b89898210610464575050847f38fd55d5eb9ed975c430ee6a0d82e6074d8e89db86b31bf01177f9803234214097981061044a575b505082811b0190556103d1565b850135600019600386901b60f8161c19169055878061043d565b878301358455928401929182019101610409565b634e487b7160e01b600052604160045260246000fd5b60405162461bcd60e51b8152600481018790526015602482015274496e76616c6964207175616c69747920677261646560581b6044820152606490fd5b149050878061033b565b8114925089610333565b60405162461bcd60e51b815260048101869052601060248201526f105b1c9958591e481d995c9a599a595960821b6044820152606490fd5b346101dc5760003660031901126101dc57600a54600019810190811161054257602090604051908152f35b634e487b7160e01b600052601160045260246000fd5b346101dc5760a03660031901126101dc576004356001600160401b0381116101dc57610588903690600401611dad565b6024356001600160401b0381116101dc576105a7903690600401611dad565b9190926044356001600160401b0381116101dc576105c9903690600401611dad565b9490936064356001600160401b0381116101dc576105eb903690600401611dad565b95906084356001600160401b0381116101dc5761060c903690600401611dad565b6106179891986123b2565b60026008541461111a57600260085587156110d557841561109057891561104b5760405185878237600c86820152602081878101030190205461100657600a54986000198a146105425760018a01600a5560405161067481611f43565b600081523315610fed5760008b8152600260205260409020546001600160a01b031680610fb6575b3360005260036020526040600020600181540190558b60005260026020526040600020336001600160601b0360a01b8254161790558b33827fddf252ad1be2c89b69c2b068fc378daa952ba7f163c4a11628f55a4df523b3ef600080a4610f9d57333b610e7b575b5061071091369161208c565b8860005260066020526040600020908051906001600160401b038211610478576107448261073e8554611ed2565b85612300565b602090601f8311600114610e0f57610775929160009183610e04575b50508160011b916000199060031b1c19161790565b90555b60405188815260207ff8e1a15aba9398e019f0b49df1a4fde98ee17ae345cb5f6b5e2c27f5033e8ce791a1604051926107b084611f0c565b60008452602084016000905260408401600090526060840160009052604051996107d98b611f27565b898b526107e7368a8a61208c565b60208c01526107f736878961208c565b60408c01523360608c0152369061080d9261208c565b60808a0152369061081d9261208c565b60a088015260405161082e81611f5e565b6001815260208101602160f91b905260c08801524260e088015261010087016000905261012087016000905261014087015284600052600b6020526040600020928651845560208701518051906001600160401b038211610478576108a38261089a6001890154611ed2565b60018901612300565b602090601f8311600114610d92576108d3929160009183610c315750508160011b916000199060031b1c19161790565b60018501555b60408701518051906001600160401b03821161047857610909826109006002890154611ed2565b60028901612300565b602090601f8311600114610d2057610939929160009183610c315750508160011b916000199060031b1c19161790565b60028501555b6003840160018060a01b036060890151166001600160601b0360a01b82541617905560808701518051906001600160401b03821161047857610991826109886004890154611ed2565b60048901612300565b602090601f8311600114610cae576109c1929160009183610c315750508160011b916000199060031b1c19161790565b60048501555b60a08701518051906001600160401b038211610478576109f7826109ee6005890154611ed2565b60058901612300565b602090601f8311600114610c3c57610a27929160009183610c315750508160011b916000199060031b1c19161790565b60058501555b60c0870151938451976001600160401b03891161047857888896610a6360209b610a5a6006870154611ed2565b60068701612300565b8a90601f8311600114610b8d576060610140610b5b95610ac6867f8fc3c5f6a5d8fa33efd13543f345e7bf783b2a5e6f32421f47f2458d67c93e1b9c9a97610b689c9a97600c97600092610b825750508160011b916000199060031b1c19161790565b60068601555b60e0810151600786015560088501610af76101008301511515829060ff801983541691151516179055565b610120820151151561ff0082549160081b169061ff0019161790550151805160098501558d810151600a8501556040810151600b850155015191015586604051848682378b81868101600c8152030190205560405197606089526060890191612356565b9186830389880152612356565b924260408201528033940390a36001600855604051908152f35b015190503880610760565b90600685016000528b6000209160005b601f1985168110610c175750610140610b5b95600186610b689b9996600c966060967f8fc3c5f6a5d8fa33efd13543f345e7bf783b2a5e6f32421f47f2458d67c93e1b9f9d9a601f19811610610bfe575b505050811b016006860155610acc565b015160001960f88460031b161c19169055388080610bee565b8183015184558c9a50600190930192918d01918d01610b9d565b015190508a80610760565b9190600587016000526020600020906000935b601f1984168510610c93576001945083601f19811610610c7a575b505050811b016005850155610a2d565b015160001960f88460031b161c19169055898080610c6a565b81810151835560209485019460019093019290910190610c4f565b9190600487016000526020600020906000935b601f1984168510610d05576001945083601f19811610610cec575b505050811b0160048501556109c7565b015160001960f88460031b161c19169055898080610cdc565b81810151835560209485019460019093019290910190610cc1565b9190600287016000526020600020906000935b601f1984168510610d77576001945083601f19811610610d5e575b505050811b01600285015561093f565b015160001960f88460031b161c19169055898080610d4e565b81810151835560209485019460019093019290910190610d33565b9190600187016000526020600020906000935b601f1984168510610de9576001945083601f19811610610dd0575b505050811b0160018501556108d9565b015160001960f88460031b161c19169055898080610dc0565b81810151835560209485019460019093019290910190610da5565b015190508d80610760565b9190836000526020600020906000935b601f1984168510610e60576001945083601f19811610610e47575b505050811b019055610778565b015160001960f88460031b161c191690558c8080610e3a565b81810151835560209485019460019093019290910190610e1f565b6020610eb7918c6040519384928392630a85bd0160e11b8452336004850152600060248501526044840152608060648401526084830190611d27565b03816000335af160009181610f58575b50610f21573d15610f1a573d610edc81612071565b90610eea6040519283611f79565b81523d6000602083013e5b80519081610f1557604051633250574960e11b8152336004820152602490fd5b602001fd5b6060610ef5565b6001600160e01b03191663757a42ff60e11b01610f4057610710610704565b604051633250574960e11b8152336004820152602490fd5b9091506020813d602011610f95575b81610f7460209383611f79565b810103126101dc57516001600160e01b0319811681036101dc57908d610ec7565b3d9150610f67565b6040516339e3563760e11b815260006004820152602490fd5b60008c815260046020526040902080546001600160a01b03191690558060005260036020526040600020600019815401905561069c565b604051633250574960e11b815260006004820152602490fd5b60405162461bcd60e51b815260206004820152601960248201527f426174636820636f646520616c726561647920657869737473000000000000006044820152606490fd5b60405162461bcd60e51b815260206004820152601f60248201527f4f726967696e206c6f636174696f6e2063616e6e6f7420626520656d707479006044820152606490fd5b60405162461bcd60e51b815260206004820152601a60248201527f426174636820636f64652063616e6e6f7420626520656d7074790000000000006044820152606490fd5b60405162461bcd60e51b815260206004820152601960248201527f48657262206e616d652063616e6e6f7420626520656d707479000000000000006044820152606490fd5b604051633ee5aeb560e01b8152600490fd5b346101dc5760203660031901126101dc5760043561114861228c565b50611156600a548210612249565b600052600b602052611224604060002061121260096040519261117884611f27565b8054845261118860018201611f9a565b602085015261119960028201611f9a565b604085015260038101546001600160a01b031660608501526111bd60048201611f9a565b60808501526111ce60058201611f9a565b60a08501526111df60068201611f9a565b60c0850152600781015460e085015260ff6008820154818116151561010087015260081c1615156101208501520161203f565b61014082015260405191829182611dda565b0390f35b346101dc5760203660031901126101dc5760043561124581612377565b50600052600660205261122461125e6040600020611f9a565b600060405161126c81611f43565b52604051918291602083526020830190611d27565b346101dc5760803660031901126101dc5761129a611d4c565b6112a2611d62565b90604435606435926001600160401b0384116101dc57366023850112156101dc576112da6112ec94369060248160040135910161208c565b926112e68383836120c3565b336123fc565b005b346101dc5760203660031901126101dc576004356001600160401b0381116101dc57366023820112156101dc5761134860206113358193369060248160040135910161208c565b8160405193828580945193849201611d04565b8101600c81520301902054604051908152f35b346101dc5760403660031901126101dc57611374611d4c565b60243590811515908183036101dc576001600160a01b03169182156113f0576113c29033600052600560205260406000208460005260205260406000209060ff801983541691151516179055565b6040519081527f17307eab39ab6107e8899845ad3d59bd9653f200f220920489ca2b5937696c3160203392a3005b604051630b61174360e31b815260048101849052602490fd5b346101dc5760003660031901126101dc5760405160006001826001549261142f84611ed2565b92838352602094856001821691826000146114cc57505060011461146f575b5061145b92500383611f79565b611224604051928284938452830190611d27565b84915060016000527fb10e2d527612073b26eecdfd717e6a320cf44b4afac2b0732d9fcbe2b7fa0cf6906000915b8583106114b457505061145b93508201018561144e565b8054838901850152879450869390920191810161149d565b60ff19168582015261145b95151560051b850101925087915061144e9050565b346101dc5760003660031901126101dc576007546040516001600160a01b039091168152602090f35b346101dc5760203660031901126101dc57600435600052600b602052604060002080546001820161154590611f9a565b9161155260028201611f9a565b60038201546001600160a01b03169161156d60048201611f9a565b61157960058301611f9a565b61158560068401611f9a565b9160078401549560088501549460090161159e9061203f565b95604051998a996101c0908b528060208c01528a016115bc91611d27565b89810360408b01526115cd91611d27565b90606089015287810360808901526115e491611d27565b86810360a08801526115f591611d27565b85810360c087015261160691611d27565b9260e085015260ff8116151561010085015260081c60ff161515610120840152610140830161122491606080918051845260208101516020850152604081015160408501520151910152565b346101dc5760003660031901126101dc5761166b6123d0565b6116736123b2565b600160ff1960095416176009557f62e78cea01bee320cd4e420270b5ea74000d11b0c9f74754ebdbfc544b05a2586020604051338152a1005b346101dc5760003660031901126101dc576116c56123d0565b600780546001600160a01b031981169091556000906001600160a01b03167f8be0079c531659141344cd1fd0a4f28419497f9722a3daafe3b4186f6b6457e08280a3005b346101dc5760203660031901126101dc576001600160a01b0361172a611d4c565b1680156117495760005260036020526020604060002054604051908152f35b6040516322718ad960e21b815260006004820152602490fd5b346101dc5760203660031901126101dc576020611780600435612377565b6040516001600160a01b039091168152f35b346101dc5760003660031901126101dc57602060ff600954166040519015158152f35b346101dc5760203660031901126101dc576004356001600160401b0381116101dc576117e76020913690600401611dad565b91906117f161228c565b508260405193849283378101600c81520301902054801561182e57600052600b602052611224604060002061121260096040519261117884611f27565b60405162461bcd60e51b815260206004820152600f60248201526e10985d18da081b9bdd08199bdd5b99608a1b6044820152606490fd5b346101dc5760803660031901126101dc576004356024356044356118876123d0565b61188f6123b2565b61189c600a548410612249565b6064811161192a577f95524c7d8850e7594d5662482abb0db94193e11a206711bded04ad1d345e750a916060916040516118d581611f0c565b828152600c602082018381526040830160643581528684019142835289600052600b60205260406000209451600986015551600a85015551600b840155519101556040519182526020820152426040820152a2005b60405162461bcd60e51b8152602060048201526016602482015275048756d6964697479206d75737420626520302d3130360541b6044820152606490fd5b346101dc576112ec61197936611d78565b906040519261198784611f43565b600084526112e68383836120c3565b346101dc5760003660031901126101dc576119af6123d0565b60095460ff8116156119ee5760ff19166009557f5db9ee0a495bf2e6ff9c91a7834c1ba4fdd244a5e8aa4e537bd38aeae4b073aa6020604051338152a1005b604051638dfc202b60e01b8152600490fd5b346101dc5760203660031901126101dc57600435611a1c6123b2565b611a29600a548210612249565b611a3281612377565b336001600160a01b0390911603611a63576000908152600b60205260409020600801805461ff001916610100179055005b60405162461bcd60e51b815260206004820152600d60248201526c2737ba103a34329037bbb732b960991b6044820152606490fd5b346101dc576112ec611aa936611d78565b916120c3565b346101dc5760403660031901126101dc57611ac8611d4c565b602435611ad481612377565b33151580611b83575b80611b56575b611b3e576001600160a01b039283169282918491167f8c5be1e5ebec7d5bd14f71427d1e84f3dd0314c0f7b2291e5b200ac8c7c3b925600080a4600090815260046020526040902080546001600160a01b0319169091179055005b60405163a9fbf51f60e01b8152336004820152602490fd5b5060018060a01b038116600052600560205260406000203360005260205260ff6040600020541615611ae3565b506001600160a01b038116331415611add565b346101dc5760203660031901126101dc57600435611bb381612377565b506000526004602052602060018060a01b0360406000205416604051908152f35b346101dc5760003660031901126101dc57604051600080549082611bf783611ed2565b91828252602093600190856001821691826000146114cc575050600114611c25575061145b92500383611f79565b6000808052859250907f290decd9548b62a8d60345a988386fc84ba6bc95484008f6362f93160ef3e5635b858310611c6757505061145b93508201018561144e565b80548389018501528794508693909201918101611c50565b346101dc5760203660031901126101dc576004359063ffffffff60e01b82168092036101dc57602091632483248360e11b8114908115611cc1575b5015158152f35b6380ac58cd60e01b811491508115611cf3575b8115611ce2575b5083611cba565b6301ffc9a760e01b14905083611cdb565b635b5e139f60e01b81149150611cd4565b60005b838110611d175750506000910152565b8181015183820152602001611d07565b90602091611d4081518092818552858086019101611d04565b601f01601f1916010190565b600435906001600160a01b03821682036101dc57565b602435906001600160a01b03821682036101dc57565b60609060031901126101dc576001600160a01b039060043582811681036101dc579160243590811681036101dc579060443590565b9181601f840112156101dc578235916001600160401b0383116101dc57602083818601950101116101dc57565b611ecf906020815282516020820152610160611e7e611e0a60208601516101c060408601526101e0850190611d27565b611e69611e55611e2c604089015193601f1994858983030160608a0152611d27565b60608901516001600160a01b0316608088810191909152890151878203850160a0890152611d27565b60a0880151838783030160c0880152611d27565b9060c0870151908583030160e0860152611d27565b9360e081015161010090818501528101516101209015158185015281015190610140911515828501520151910190606080918051845260208101516020850152604081015160408501520151910152565b90565b90600182811c92168015611f02575b6020831014611eec57565b634e487b7160e01b600052602260045260246000fd5b91607f1691611ee1565b608081019081106001600160401b0382111761047857604052565b61016081019081106001600160401b0382111761047857604052565b602081019081106001600160401b0382111761047857604052565b604081019081106001600160401b0382111761047857604052565b90601f801991011681019081106001600160401b0382111761047857604052565b90604051918260008254611fad81611ed2565b9081845260209460019160018116908160001461201d5750600114611fde575b505050611fdc92500383611f79565b565b600090815285812095935091905b818310612005575050611fdc9350820101388080611fcd565b85548884018501529485019487945091830191611fec565b92505050611fdc94925060ff191682840152151560051b820101388080611fcd565b9060405161204c81611f0c565b6060600382948054845260018101546020850152600281015460408501520154910152565b6001600160401b03811161047857601f01601f191660200190565b92919261209882612071565b916120a66040519384611f79565b8294818452818301116101dc578281602093846000960137010152565b6001600160a01b039182169290918315610fed576000928284528260209560028752604096848888205416968791331515806121b3575b509060027fddf252ad1be2c89b69c2b068fc378daa952ba7f163c4a11628f55a4df523b3ef9284612180575b858352600381528b8320805460010190558683525289812080546001600160a01b0319168517905580a4169283830361215f5750505050565b6064945051926364283d7b60e01b8452600484015260248301526044820152fd5b600087815260046020526040902080546001600160a01b0319169055848352600381528b83208054600019019055612126565b91939450915080612208575b156121cf578592918791386120fa565b8786886121ec576024915190637e27328960e01b82526004820152fd5b604491519063177e802f60e01b82523360048301526024820152fd5b50338714801561222d575b806121bf57508582526004815233858984205416146121bf565b5086825260058152878220338352815260ff8883205416612213565b1561225057565b60405162461bcd60e51b8152602060048201526014602482015273151bdad95b88191bd95cc81b9bdd08195e1a5cdd60621b6044820152606490fd5b6040519061229982611f27565b8161014060009182815260609283602083015283604083015280848301528360808301528360a08301528360c08301528060e08301528061010083015280610120830152604051936122ea85611f0c565b8185528160208601528160408601528401520152565b90601f811161230e57505050565b6000916000526020600020906020601f850160051c8301941061234c575b601f0160051c01915b82811061234157505050565b818155600101612335565b909250829061232c565b908060209392818452848401376000828201840152601f01601f1916010190565b6000818152600260205260409020546001600160a01b031690811561239a575090565b60249060405190637e27328960e01b82526004820152fd5b60ff600954166123be57565b60405163d93c066560e01b8152600490fd5b6007546001600160a01b031633036123e457565b60405163118cdaa760e01b8152336004820152602490fd5b90939192833b61240e575b5050505050565b604051630a85bd0160e11b8082526001600160a01b03938416600483015295831660248201526044810191909152608060648201529492169260209291859061245b906084830190611d27565b039483816000978189895af1869181612506575b506124d0575050503d6000146124c7573d61248981612071565b906124976040519283611f79565b81528093823d92013e5b825192836124c257604051633250574960e11b815260048101849052602490fd5b019050fd5b606092506124a1565b919450915063ffffffff60e01b16036124ee57503880808080612407565b60249060405190633250574960e11b82526004820152fd5b9091508481813d8311612543575b61251e8183611f79565b8101031261253f57516001600160e01b03198116810361253f57903861246f565b8680fd5b503d61251456fea2646970667358221220265fd30af4a098fe298400e6aba9d55ad7d105fa00395633b037a7b69909cc4c64736f6c63430008180033",
  "linkReferences": {},
  "deployedLinkReferences": {}
}