{
  "_format": "hh-sol-artifact-1",
  "contractName": "CustomsDeclaration",
  "sourceName": "contracts/CustomsDeclaration.sol",
  "abi": [
    {
      "anonymous": false,
      "inputs": [
        {
          "indexed": true,
          "internalType": "bytes32",
          "name": "batchId",
          "type": "bytes32"
        }
      ],
      "name": "DeclarationApproved",
      "type": "event"
    },
    {
      "anonymous": false,
      "inputs": [
        {
          "indexed": true,
          "internalType": "bytes32",
          "name": "batchId",
          "type": "bytes32"
        },
        {
          "indexed": false,
          "internalType": "uint256",
          "name": "value",
          "type": "uint256"
        }
      ],
      "name": "DeclarationFiled",
      "type": "event"
    },
    {
      "inputs": [
        {
          "internalType": "bytes32",
          "name": "batchId",
          "type": "bytes32"
        }
      ],
      "name": "approveDeclaration",
      "outputs": [],
      "stateMutability": "nonpayable",
      "type": "function"
    },
    {
      "inputs": [
        {
          "internalType": "bytes32",
          "name": "",
          "type": "bytes32"
        }
      ],
      "name": "declarations",
      "outputs": [
        {
          "internalType": "bytes32",
          "name": "batchId",
          "type": "bytes32"
        },
        {
          "internalType": "string",
          "name": "description",
          "type": "string"
        },
        {
          "internalType": "uint256",
          "name": "declaredValue",
          "type": "uint256"
        },
        {
          "internalType": "string",
          "name": "hsCode",
          "type": "string"
        },
        {
          "internalType": "string",
          "name": "status",
          "type": "string"
        }
      ],
      "stateMutability": "view",
      "type": "function"
    },
    {
      "inputs": [
        {
          "internalType": "bytes32",
          "name": "batchId",
          "type": "bytes32"
        },
        {
          "internalType": "string",
          "name": "description",
          "type": "string"
        },
        {
          "internalType": "uint256",
          "name": "value",
          "type": "uint256"
        },
        {
          "internalType": "string",
          "name": "hsCode",
          "type": "string"
        }
      ],
      "name": "fileDeclaration",
      "outputs": [],
      "stateMutability": "nonpayable",
      "type": "function"
    },
    {
      "inputs": [
        {
          "internalType": "bytes32",
          "name": "batchId",
          "type": "bytes32"
        }
      ],
      "name": "getDeclaration",
      "outputs": [
        {
          "components": [
            {
              "internalType": "bytes32",
              "name": "batchId",
              "type": "bytes32"
            },
            {
              "internalType": "string",
              "name": "description",
              "type": "string"
            },
            {
              "internalType": "uint256",
              "name": "declaredValue",
              "type": "uint256"
            },
            {
              "internalType": "string",
              "name": "hsCode",
              "type": "string"
            },
            {
              "internalType": "string",
              "name": "status",
              "type": "string"
            }
          ],
          "internalType": "struct CustomsDeclaration.Declaration",
          "name": "",
          "type": "tuple"
        }
      ],
      "stateMutability": "view",
      "type": "function"
    }
  ],
  "bytecode": "0x608080604052346100165761087a908161001c8239f35b600080fdfe60806040908082526004918236101561001757600080fd5b600091823560e01c90816313669ba614610512575080634cb0d3271461048357806351ed4ff9146103f05763a737dcba1461005157600080fd5b346103ec5760803660031901126103ec5782359067ffffffffffffffff906024358281116103e857610086903690870161076e565b6064939193358281116103e457906100a56100be939236908a0161076e565b9390958551926100b484610675565b88845236916107fd565b906100db60209687830193845286830195604435875236916107fd565b6060820190815285519486860186811086821117610351578752600786526650656e64696e6760c81b8887015260808301958652888a52898852868a209251835560019384840190518051908782116103d0578c82916101458361013f875461063b565b876107b8565b8c91601f841160011461036f5792610364575b5050600019600383901b1c191690861b1790555b51600283015551805160038301918582116103515790829161019a826101948f97965461063b565b856107b8565b8990601f83116001146102e1578c9190836102d6575b5050600019600383901b1c191690851b1790555b0192519788519283116102c357506101e082610194855461063b565b8497601f8311600114610243578291889983927f408525e02ca0fb50d327b92758adaa4deb720bdeb539c6c6c729505fa50cec3b999a94610238575b50501b916000199060031b1c19161790555b516044358152a280f35b01519250388061021c565b601f9291921982169884895286892091895b8b81106102ae5750837f408525e02ca0fb50d327b92758adaa4deb720bdeb539c6c6c729505fa50cec3b999a9b10610295575b505050811b01905561022e565b015160001960f88460031b161c19169055388080610288565b81830151845592850192918801918801610255565b634e487b7160e01b885260419052602487fd5b0151905038806101b0565b838d528a8d208793929091601f1984168f8e5b82821061032a5750508411610311575b505050811b0190556101c4565b015160001960f88460031b161c19169055388080610304565b929484849395989297999a9b5086015181550195019301918f97969593918995938e6102f4565b634e487b7160e01b8b5260418c5260248bfd5b015190503880610158565b8581528d81208a9550929190601f198516908f5b8282106103b957505084116103a0575b505050811b01905561016c565b015160001960f88460031b161c19169055388080610393565b8385015186558c979095019493840193018f610383565b50634e487b7160e01b8c5260418d5260248cfd5b8680fd5b8480fd5b5080fd5b509034610480576020366003190112610480578161047c918435815280602052209261046e845493610424600187016106c9565b9561044160028201549461043a600384016106c9565b92016106c9565b9361045d8351988998895260a060208a015260a08901906105fb565b9287015285820360608701526105fb565b9083820360808501526105fb565b0390f35b80fd5b50823461050e57602036600319011261050e57803591828452836020528320016104ad815461063b565b601f81116104ef575b50601067105c1c1c9bdd995960c21b0190557f9989b674c6560f77880e0206203a33be5e7d3e7305c95f0d2f08b59c55c24ffc8280a280f35b8184526020842061050891601f0160051c8101906107a1565b836104b6565b8280fd5b8285853461048057602093846003193601126103ec57916105ee84608095938561053e61047c97610675565b81815260609781898b81940152838582015282808201520152833581528088522083519561056b87610675565b815487526105d361057e600184016106c9565b9589890196875260a06105af600286015497838c019889526105a2600388016106c9565b96868d01978852016106c9565b9760808b0198895282519b8c9b818d5251908c015251918a015260c08901906105fb565b9351908701525191601f1992838783030160808801526105fb565b9151908483030160a08501525b919082519283825260005b848110610627575050826000602080949584010152601f8019910116010190565b602081830181015184830182015201610606565b90600182811c9216801561066b575b602083101461065557565b634e487b7160e01b600052602260045260246000fd5b91607f169161064a565b60a0810190811067ffffffffffffffff82111761069157604052565b634e487b7160e01b600052604160045260246000fd5b90601f8019910116810190811067ffffffffffffffff82111761069157604052565b906040519182600082546106dc8161063b565b9081845260209460019160018116908160001461074c575060011461070d575b50505061070b925003836106a7565b565b600090815285812095935091905b81831061073457505061070b93508201013880806106fc565b8554888401850152948501948794509183019161071b565b9250505061070b94925060ff191682840152151560051b8201013880806106fc565b9181601f8401121561079c5782359167ffffffffffffffff831161079c576020838186019501011161079c57565b600080fd5b8181106107ac575050565b600081556001016107a1565b9190601f81116107c757505050565b61070b926000526020600020906020601f840160051c830193106107f3575b601f0160051c01906107a1565b90915081906107e6565b92919267ffffffffffffffff82116106915760405191610827601f8201601f1916602001846106a7565b82948184528183011161079c57828160209384600096013701015256fea2646970667358221220caa64a272153561263b2c83a610d9879af2fef2923719338194ab050f2510ebe64736f6c63430008180033",
  "linkReferences": {},
  "deployedLinkReferences": {}
}