{
  "_format": "hh-sol-artifact-1",
  "contractName": "ShippingManager",
  "sourceName": "contracts/ShippingManager.sol",
  "abi": [
    {
      "anonymous": false,
      "inputs": [
        {
          "indexed": true,
          "internalType": "bytes32",
          "name": "batchId",
          "type": "bytes32"
        },
        {
          "indexed": true,
          "internalType": "address",
          "name": "shipper",
          "type": "address"
        },
        {
          "indexed": false,
          "internalType": "string",
          "name": "destination",
          "type": "string"
        }
      ],
      "name": "ShipmentCreated",
      "type": "event"
    },
    {
      "anonymous": false,
      "inputs": [
        {
          "indexed": true,
          "internalType": "bytes32",
          "name": "batchId",
          "type": "bytes32"
        },
        {
          "indexed": false,
          "internalType": "uint256",
          "name": "deliveryDate",
          "type": "uint256"
        }
      ],
      "name": "ShipmentDelivered",
      "type": "event"
    },
    {
      "anonymous": false,
      "inputs": [
        {
          "indexed": true,
          "internalType": "bytes32",
          "name": "batchId",
          "type": "bytes32"
        }
      ],
      "name": "ShipmentInTransit",
      "type": "event"
    },
    {
      "inputs": [
        {
          "internalType": "bytes32",
          "name": "batchId",
          "type": "bytes32"
        }
      ],
      "name": "completeDelivery",
      "outputs": [],
      "stateMutability": "nonpayable",
      "type": "function"
    },
    {
      "inputs": [
        {
          "internalType": "bytes32",
          "name": "batchId",
          "type": "bytes32"
        },
        {
          "internalType": "address",
          "name": "carrier",
          "type": "address"
        },
        {
          "internalType": "string",
          "name": "origin",
          "type": "string"
        },
        {
          "internalType": "string",
          "name": "destination",
          "type": "string"
        },
        {
          "internalType": "uint256",
          "name": "estimatedDelivery",
          "type": "uint256"
        }
      ],
      "name": "createShipment",
      "outputs": [],
      "stateMutability": "nonpayable",
      "type": "function"
    },
    {
      "inputs": [
        {
          "internalType": "bytes32",
          "name": "batchId",
          "type": "bytes32"
        }
      ],
      "name": "getShipment",
      "outputs": [
        {
          "components": [
            {
              "internalType": "bytes32",
              "name": "batchId",
              "type": "bytes32"
            },
            {
              "internalType": "address",
              "name": "shipper",
              "type": "address"
            },
            {
              "internalType": "address",
              "name": "carrier",
              "type": "address"
            },
            {
              "internalType": "string",
              "name": "origin",
              "type": "string"
            },
            {
              "internalType": "string",
              "name": "destination",
              "type": "string"
            },
            {
              "internalType": "uint256",
              "name": "shipmentDate",
              "type": "uint256"
            },
            {
              "internalType": "uint256",
              "name": "estimatedDelivery",
              "type": "uint256"
            },
            {
              "internalType": "uint256",
              "name": "actualDelivery",
              "type": "uint256"
            },
            {
              "internalType": "string",
              "name": "status",
              "type": "string"
            }
          ],
          "internalType": "struct ShippingManager.Shipment",
          "name": "",
          "type": "tuple"
        }
      ],
      "stateMutability": "view",
      "type": "function"
    },
    {
      "inputs": [
        {
          "internalType": "bytes32",
          "name": "",
          "type": "bytes32"
        }
      ],
      "name": "shipments",
      "outputs": [
        {
          "internalType": "bytes32",
          "name": "batchId",
          "type": "bytes32"
        },
        {
          "internalType": "address",
          "name": "shipper",
          "type": "address"
        },
        {
          "internalType": "address",
          "name": "carrier",
          "type": "address"
        },
        {
          "internalType": "string",
          "name": "origin",
          "type": "string"
        },
        {
          "internalType": "string",
          "name": "destination",
          "type": "string"
        },
        {
          "internalType": "uint256",
          "name": "shipmentDate",
          "type": "uint256"
        },
        {
          "internalType": "uint256",
          "name": "estimatedDelivery",
          "type": "uint256"
        },
        {
          "internalType": "uint256",
          "name": "actualDelivery",
          "type": "uint256"
        },
        {
          "internalType": "string",
          "name": "status",
          "type": "string"
        }
      ],
      "stateMutability": "view",
      "type": "function"
    },
    {
      "inputs": [
        {
          "internalType": "bytes32",
          "name": "batchId",
          "type": "bytes32"
        }
      ],
      "name": "startTransit",
      "outputs": [],
      "stateMutability": "nonpayable",
      "type": "function"
    }
  ],
  "bytecode": "0x6080806040523461001657610b17908161001c8239f35b600080fdfe6080604052600436101561001257600080fd5b60003560e01c8063074d0a44146107b657806358cb7c411461062b578063c1ac453d14610595578063d87b4041146104c55763f6787abf1461005357600080fd5b346104c05760a03660031901126104c0576024356001600160a01b038116908190036104c05760443567ffffffffffffffff81116104c0576100999036906004016109ae565b9060643567ffffffffffffffff81116104c0576100bd6100e49136906004016109ae565b929093604051956100cd876108ca565b600435875233602088015260408701523691610a9a565b60608401526100f4368284610a9a565b60808401524260a084015260843560c0840152600060e084015260405180604081011067ffffffffffffffff6040830111176103ac5760408101604052600781526610dc99585d195960ca1b602082015261010084015260043560005260006020526040600020835181556001810160018060a01b03602086015116906bffffffffffffffffffffffff60a01b9182825416179055600282019060018060a01b0360408701511690825416179055606084015180519067ffffffffffffffff82116103ac5781906101d5826101cc6003870154610890565b60038701610a55565b602090601f831160011461044e57600092610443575b50508160011b916000199060031b1c19161760038201555b608084015180519067ffffffffffffffff82116103ac576102348261022b6004860154610890565b60048601610a55565b602090601f83116001146103cd57918061010094926008946000926103c2575b50508160011b916000199060031b1c19161760048201555b60a0860151600582015560c0860151600682015560e086015160078201550193015192835167ffffffffffffffff81116103ac576102b4816102ae8454610890565b84610a55565b602094601f82116001146103465794819293949560009261033b575b50508160011b916000199060031b1c19161790555b80604051926020845281602085015260408401376000604082840101527f54973a5fb0c824bf4097206686adcf6900eb9a58b80856a37ea9372f25b0bb5c339260408160043594601f80199101168101030190a3005b0151905038806102d0565b601f198216958360005260206000209160005b8881106103945750836001959697981061037b575b505050811b0190556102e5565b015160001960f88460031b161c1916905538808061036e565b91926020600181928685015181550194019201610359565b634e487b7160e01b600052604160045260246000fd5b015190503880610254565b906004840160005260206000209160005b601f198516811061042b575092610100949260019260089583601f19811610610412575b505050811b01600482015561026c565b015160001960f88460031b161c19169055388080610402565b919260206001819286850151815501940192016103de565b0151905038806101eb565b9250600384016000526020600020906000935b601f19841685106104a5576001945083601f1981161061048c575b505050811b016003820155610203565b015160001960f88460031b161c1916905538808061047c565b81810151835560209485019460019093019290910190610461565b600080fd5b346104c05760203660031901126104c0576004356000526000602052604060002080549061059160018060a01b039182600182015416926002820154169361050f60038301610909565b9161051c60048201610909565b92610573600583015494610565600685015493610540600860078801549701610909565b966040519b8c9b610120928d5260208d015260408c01528060608c01528a0190610850565b9088820360808a0152610850565b9360a087015260c086015260e0850152838203610100850152610850565b0390f35b346104c05760203660031901126104c0576004358060005260006020526105cd60018060a01b036001604060002001541633146109dc565b80600052600060205260086040600020016105f16105eb8254610890565b82610a2d565b601469125b88151c985b9cda5d60b21b0190557f5b5ce9107564f8ffa2ccb971b7afada54422117fddb4084bf78a556a64b5ff4c600080a2005b346104c05760203660031901126104c057606061010060405161064d816108ca565b6000815260006020820152600060408201528280820152826080820152600060a0820152600060c0820152600060e08201520152600435600052600060205261059160406000206107106008604051926106a6846108ca565b8054845260018101546001600160a01b03908116602086015260028201541660408501526106d660038201610909565b60608501526106e760048201610909565b6080850152600581015460a0850152600681015460c0850152600781015460e085015201610909565b610100820152604051918291602083528051602084015260018060a01b03602082015116604084015260018060a01b036040820151166060840152606081015161076861012091826080870152610140860190610850565b90610100610788608085015193601f1994858983030160a08a0152610850565b9360a081015160c088015260c081015160e088015260e0810151828801520151918584030190850152610850565b346104c05760203660031901126104c0576004358060005260006020526107ee60018060a01b036001604060002001541633146109dc565b80600052600060205260086040600020426007820155016108126105eb8254610890565b60126811195b1a5d995c995960ba1b0190557f4e235839e2e4e30b4bf6337ee479381e55af09e5f2769ff55429d0a0bd9388576020604051428152a2005b919082519283825260005b84811061087c575050826000602080949584010152601f8019910116010190565b60208183018101518483018201520161085b565b90600182811c921680156108c0575b60208310146108aa57565b634e487b7160e01b600052602260045260246000fd5b91607f169161089f565b610120810190811067ffffffffffffffff8211176103ac57604052565b90601f8019910116810190811067ffffffffffffffff8211176103ac57604052565b9060405191826000825461091c81610890565b9081845260209460019160018116908160001461098c575060011461094d575b50505061094b925003836108e7565b565b600090815285812095935091905b81831061097457505061094b935082010138808061093c565b8554888401850152948501948794509183019161095b565b9250505061094b94925060ff191682840152151560051b82010138808061093c565b9181601f840112156104c05782359167ffffffffffffffff83116104c057602083818601950101116104c057565b156109e357565b60405162461bcd60e51b815260206004820152600b60248201526a2737ba1039b434b83832b960a91b6044820152606490fd5b818110610a21575050565b60008155600101610a16565b90601f8111610a3a575050565b61094b91600052601f6020600020910160051c810190610a16565b9190601f8111610a6457505050565b61094b926000526020600020906020601f840160051c83019310610a90575b601f0160051c0190610a16565b9091508190610a83565b92919267ffffffffffffffff82116103ac5760405191610ac4601f8201601f1916602001846108e7565b8294818452818301116104c057828160209384600096013701015256fea26469706673582212201b6336f82f4dd7652227f0a0785e18075bebd9e5032c93d4afe067db6dfce97864736f6c63430008180033",
  "linkReferences": {},
  "deployedLinkReferences": {}
}