{
  "_format": "hh-sol-artifact-1",
  "contractName": "FertilizerTracker",
  "sourceName": "contracts/FertilizerTracker.sol",
  "abi": [
    {
      "anonymous": false,
      "inputs": [
        {
          "indexed": true,
          "internalType": "bytes32",
          "name": "batchId",
          "type": "bytes32"
        },
        {
          "indexed": false,
          "internalType": "string",
          "name": "fertilizerType",
          "type": "string"
        }
      ],
      "name": "FertilizerApplied",
      "type": "event"
    },
    {
      "inputs": [
        {
          "internalType": "bytes32",
          "name": "batchId",
          "type": "bytes32"
        },
        {
          "internalType": "string",
          "name": "fertilizerType",
          "type": "string"
        },
        {
          "internalType": "string",
          "name": "brand",
          "type": "string"
        },
        {
          "internalType": "uint256",
          "name": "quantity",
          "type": "uint256"
        }
      ],
      "name": "applyFertilizer",
      "outputs": [],
      "stateMutability": "nonpayable",
      "type": "function"
    },
    {
      "inputs": [
        {
          "internalType": "bytes32",
          "name": "",
          "type": "bytes32"
        },
        {
          "internalType": "uint256",
          "name": "",
          "type": "uint256"
        }
      ],
      "name": "fertilizers",
      "outputs": [
        {
          "internalType": "bytes32",
          "name": "batchId",
          "type": "bytes32"
        },
        {
          "internalType": "string",
          "name": "fertilizerType",
          "type": "string"
        },
        {
          "internalType": "string",
          "name": "brand",
          "type": "string"
        },
        {
          "internalType": "uint256",
          "name": "applicationDate",
          "type": "uint256"
        },
        {
          "internalType": "uint256",
          "name": "quantity",
          "type": "uint256"
        }
      ],
      "stateMutability": "view",
      "type": "function"
    },
    {
      "inputs": [
        {
          "internalType": "bytes32",
          "name": "batchId",
          "type": "bytes32"
        }
      ],
      "name": "getFertilizers",
      "outputs": [
        {
          "components": [
            {
              "internalType": "bytes32",
              "name": "batchId",
              "type": "bytes32"
            },
            {
              "internalType": "string",
              "name": "fertilizerType",
              "type": "string"
            },
            {
              "internalType": "string",
              "name": "brand",
              "type": "string"
            },
            {
              "internalType": "uint256",
              "name": "applicationDate",
              "type": "uint256"
            },
            {
              "internalType": "uint256",
              "name": "quantity",
              "type": "uint256"
            }
          ],
          "internalType": "struct FertilizerTracker.Fertilizer[]",
          "name": "",
          "type": "tuple[]"
        }
      ],
      "stateMutability": "view",
      "type": "function"
    }
  ],
  "bytecode": "0x6080806040523461001657610849908161001c8239f35b600080fdfe608080604052600436101561001357600080fd5b60003560e01c90816309a676be146104b8575080638a8161391461041e576394148c8a1461004057600080fd5b346104195760803660031901126104195760243567ffffffffffffffff81116104195761007190369060040161079e565b60443567ffffffffffffffff81116104195761009190369060040161079e565b600493919335600052600060205260406000206100d3604051956100b4876106bb565b60043587526100c43687876107cc565b936020880194855236916107cc565b6040860152426060860152606435608086015280546801000000000000000081101561031d576101089160018201815561064f565b91909161040357845182555180519067ffffffffffffffff821161031d5781906101356001850154610681565b601f81116103b0575b50602090601f831160011461033e57600092610333575b50508160011b916000199060031b1c19161760018201555b604084015180519067ffffffffffffffff821161031d576101916002840154610681565b601f81116102d6575b50602090601f83116001146102415795826004936080937f9c038204f4af6d4ba2ce725a127f4c74d386e9acd4bb54dc47acbad7492927c69899600092610236575b50508160011b916000199060031b1c19161760028501555b606081015160038501550151910155826040519160208352816020840152604083013760006040848301015260408160043594601f80199101168101030190a2005b0151905038806101dc565b90601f198316916002850160005260206000209260005b8181106102be5750936080937f9c038204f4af6d4ba2ce725a127f4c74d386e9acd4bb54dc47acbad7492927c698999360019383600498106102a5575b505050811b0160028501556101f4565b015160001960f88460031b161c19169055388080610295565b92936020600181928786015181550195019301610258565b600284016000526020600020601f840160051c810160208510610316575b601f830160051c8201811061030a57505061019a565b600081556001016102f4565b50806102f4565b634e487b7160e01b600052604160045260246000fd5b015190503880610155565b9250600184016000526020600020906000935b601f1984168510610395576001945083601f1981161061037c575b505050811b01600182015561016d565b015160001960f88460031b161c1916905538808061036c565b81810151835560209485019460019093019290910190610351565b909150600184016000526020600020601f840160051c8101602085106103fc575b90849392915b601f830160051c820181106103ed57505061013e565b600081558594506001016103d7565b50806103d1565b634e487b7160e01b600052600060045260246000fd5b600080fd5b346104195760403660031901126104195760243560043560005260006020526040600020908154811015610419576104559161064f565b508054610464600183016106f9565b91610471600282016106f9565b6104a9600460038401549301549161049b604051968796875260a0602088015260a087019061060f565b90858203604087015261060f565b91606084015260808301520390f35b34610419576020908160031936011261041957600435600052600082526040600020805467ffffffffffffffff811161031d5760059392936104ff848360051b01866106d7565b8185528385018093600052846000206000915b8483106105b257604080518881528951818a01819052600092600582901b83018101918a918c9085015b8287106105495785850386f35b909192938280600192603f1989820301855287519061058e61057c60a0845184528585015190808786015284019061060f565b6040840151838203604085015261060f565b9160608082015190830152608080910151910152960192019601959291909261053c565b838760019260409a999a516105c6816106bb565b855481526105d58587016106f9565b838201526105e5600287016106f9565b60408201526003860154606082015260048601546080820152815201920192019190969596610512565b919082519283825260005b84811061063b575050826000602080949584010152601f8019910116010190565b60208183018101518483018201520161061a565b805482101561066b576000526005602060002091020190600090565b634e487b7160e01b600052603260045260246000fd5b90600182811c921680156106b1575b602083101461069b57565b634e487b7160e01b600052602260045260246000fd5b91607f1691610690565b60a0810190811067ffffffffffffffff82111761031d57604052565b90601f8019910116810190811067ffffffffffffffff82111761031d57604052565b9060405191826000825461070c81610681565b9081845260209460019160018116908160001461077c575060011461073d575b50505061073b925003836106d7565b565b600090815285812095935091905b81831061076457505061073b935082010138808061072c565b8554888401850152948501948794509183019161074b565b9250505061073b94925060ff191682840152151560051b82010138808061072c565b9181601f840112156104195782359167ffffffffffffffff8311610419576020838186019501011161041957565b92919267ffffffffffffffff821161031d57604051916107f6601f8201601f1916602001846106d7565b82948184528183011161041957828160209384600096013701015256fea264697066735822122043d2c4d8c1b9ecba644d051c554b66978a34b18a6cbd906471b39bfdae7e8fd664736f6c63430008180033",
  "linkReferences": {},
  "deployedLinkReferences": {}
}