{
  "_format": "hh-sol-artifact-1",
  "contractName": "PackagingStandard",
  "sourceName": "contracts/PackagingStandard.sol",
  "abi": [
    {
      "anonymous": false,
      "inputs": [
        {
          "indexed": true,
          "internalType": "bytes32",
          "name": "batchId",
          "type": "bytes32"
        },
        {
          "indexed": false,
          "internalType": "string",
          "name": "packagingType",
          "type": "string"
        }
      ],
      "name": "PackageRecorded",
      "type": "event"
    },
    {
      "inputs": [
        {
          "internalType": "bytes32",
          "name": "batchId",
          "type": "bytes32"
        }
      ],
      "name": "getPackage",
      "outputs": [
        {
          "components": [
            {
              "internalType": "bytes32",
              "name": "batchId",
              "type": "bytes32"
            },
            {
              "internalType": "string",
              "name": "packagingType",
              "type": "string"
            },
            {
              "internalType": "string",
              "name": "material",
              "type": "string"
            },
            {
              "internalType": "uint256",
              "name": "weight",
              "type": "uint256"
            },
            {
              "internalType": "string",
              "name": "dimensions",
              "type": "string"
            }
          ],
          "internalType": "struct PackagingStandard.Package",
          "name": "",
          "type": "tuple"
        }
      ],
      "stateMutability": "view",
      "type": "function"
    },
    {
      "inputs": [
        {
          "internalType": "bytes32",
          "name": "",
          "type": "bytes32"
        }
      ],
      "name": "packages",
      "outputs": [
        {
          "internalType": "bytes32",
          "name": "batchId",
          "type": "bytes32"
        },
        {
          "internalType": "string",
          "name": "packagingType",
          "type": "string"
        },
        {
          "internalType": "string",
          "name": "material",
          "type": "string"
        },
        {
          "internalType": "uint256",
          "name": "weight",
          "type": "uint256"
        },
        {
          "internalType": "string",
          "name": "dimensions",
          "type": "string"
        }
      ],
      "stateMutability": "view",
      "type": "function"
    },
    {
      "inputs": [
        {
          "internalType": "bytes32",
          "name": "batchId",
          "type": "bytes32"
        },
        {
          "internalType": "string",
          "name": "packagingType",
          "type": "string"
        },
        {
          "internalType": "string",
          "name": "material",
          "type": "string"
        },
        {
          "internalType": "uint256",
          "name": "weight",
          "type": "uint256"
        },
        {
          "internalType": "string",
          "name": "dimensions",
          "type": "string"
        }
      ],
      "name": "recordPackage",
      "outputs": [],
      "stateMutability": "nonpayable",
      "type": "function"
    }
  ],
  "bytecode": "0x60808060405234610016576108a7908161001c8239f35b600080fdfe608080604052600436101561001357600080fd5b60003560e01c90816359d96b5b146101ce57508063711028191461013d5763a0f38f061461004057600080fd5b346101385760208060031936011261013857608060405161006081610707565b600081526060918183858194015282604082015260008382015201526004356000526000825261013460406000206040519261009b84610707565b815484526100ab60018301610745565b85850190815261011d6100c060028501610745565b604087019081526101096100e16004600388015497878b0198895201610745565b9360808901948552604051998a99818b5251908a01525160a060408a015260c08901906107ea565b9051601f19948589840301908901526107ea565b9251608086015251908483030160a08501526107ea565b0390f35b600080fd5b346101385760203660031901126101385760043560005260006020526040600020805461013461016f60018401610745565b9261017c60028201610745565b6101bb610190600460038501549401610745565b916101ad604051978897885260a0602089015260a08801906107ea565b9086820360408801526107ea565b91606085015283820360808501526107ea565b346101385760a03660031901126101385760243567ffffffffffffffff8111610138576101ff90369060040161069f565b9060443567ffffffffffffffff81116101385761022090369060040161069f565b906084359067ffffffffffffffff82116101385761027361024861028793369060040161069f565b91909261025489610707565b600435895261026436898961082a565b9560208a01968752369161082a565b60408801526064356060880152369161082a565b60808501526004356000526000602052604060002090845182555180519067ffffffffffffffff82116104f25781906102c360018501546106cd565b601f811161064c575b50602090601f83116001146105da576000926105cf575b50508160011b916000199060031b1c19161760018201555b604084015180519067ffffffffffffffff82116104f25761031f60028401546106cd565b601f8111610588575b50602090601f831160011461051357918060809492600494600092610508575b50508160011b916000199060031b1c19161760028201555b606086015160038201550193015192835167ffffffffffffffff81116104f25761038a82546106cd565b601f81116104aa575b506020601f82116001146104215781907f7f838fb958d0a738352cfafc8ae9bc54cf38b302f1355e707e67e76f50228a619596600092610416575b50508160011b916000199060031b1c19161790555b826040519160208352816020840152604083013760006040848301015260408160043594601f80199101168101030190a2005b0151905086806103ce565b601f198216958360005260206000209660005b8181106104925750917f7f838fb958d0a738352cfafc8ae9bc54cf38b302f1355e707e67e76f50228a61969791846001959410610479575b505050811b0190556103e3565b015160001960f88460031b161c1916905586808061046c565b83830151895560019098019760209384019301610434565b826000526020600020601f830160051c810191602084106104e8575b601f0160051c01905b8181106104dc5750610393565b600081556001016104cf565b90915081906104c6565b634e487b7160e01b600052604160045260246000fd5b015190508880610348565b906002840160005260206000209160005b601f19851681106105705750926080949260019260049583601f19811610610557575b505050811b016002820155610360565b015160001960f88460031b161c19169055888080610547565b91926020600181928685015181550194019201610524565b600284016000526020600020601f840160051c8101602085106105c8575b601f830160051c820181106105bc575050610328565b600081556001016105a6565b50806105a6565b0151905086806102e3565b9250600184016000526020600020906000935b601f1984168510610631576001945083601f19811610610618575b505050811b0160018201556102fb565b015160001960f88460031b161c19169055868080610608565b818101518355602094850194600190930192909101906105ed565b909150600184016000526020600020601f840160051c810160208510610698575b90849392915b601f830160051c820181106106895750506102cc565b60008155859450600101610673565b508061066d565b9181601f840112156101385782359167ffffffffffffffff8311610138576020838186019501011161013857565b90600182811c921680156106fd575b60208310146106e757565b634e487b7160e01b600052602260045260246000fd5b91607f16916106dc565b60a0810190811067ffffffffffffffff8211176104f257604052565b90601f8019910116810190811067ffffffffffffffff8211176104f257604052565b90604051918260008254610758816106cd565b908184526020946001916001811690816000146107c85750600114610789575b50505061078792500383610723565b565b600090815285812095935091905b8183106107b05750506107879350820101388080610778565b85548884018501529485019487945091830191610797565b9250505061078794925060ff191682840152151560051b820101388080610778565b919082519283825260005b848110610816575050826000602080949584010152601f8019910116010190565b6020818301810151848301820152016107f5565b92919267ffffffffffffffff82116104f25760405191610854601f8201601f191660200184610723565b82948184528183011161013857828160209384600096013701015256fea2646970667358221220c94ab9762133f995a5eb29e41a63dbb21ba37bcbd2da05c855bce0d3290ef5d764736f6c63430008180033",
  "linkReferences": {},
  "deployedLinkReferences": {}
}