{
  "_format": "hh-sol-artifact-1",
  "contractName": "InsuranceContract",
  "sourceName": "contracts/Insurance.sol",
  "abi": [
    {
      "anonymous": false,
      "inputs": [
        {
          "indexed": true,
          "internalType": "uint256",
          "name": "id",
          "type": "uint256"
        },
        {
          "indexed": false,
          "internalType": "uint256",
          "name": "amount",
          "type": "uint256"
        }
      ],
      "name": "PolicyClaimed",
      "type": "event"
    },
    {
      "anonymous": false,
      "inputs": [
        {
          "indexed": true,
          "internalType": "uint256",
          "name": "id",
          "type": "uint256"
        },
        {
          "indexed": false,
          "internalType": "address",
          "name": "farmer",
          "type": "address"
        },
        {
          "indexed": false,
          "internalType": "uint256",
          "name": "coverage",
          "type": "uint256"
        }
      ],
      "name": "PolicyCreated",
      "type": "event"
    },
    {
      "inputs": [
        {
          "internalType": "uint256",
          "name": "_batchId",
          "type": "uint256"
        }
      ],
      "name": "claim",
      "outputs": [],
      "stateMutability": "nonpayable",
      "type": "function"
    },
    {
      "inputs": [
        {
          "internalType": "uint256",
          "name": "_batchId",
          "type": "uint256"
        },
        {
          "internalType": "uint256",
          "name": "_coverage",
          "type": "uint256"
        }
      ],
      "name": "createPolicy",
      "outputs": [],
      "stateMutability": "payable",
      "type": "function"
    },
    {
      "inputs": [
        {
          "internalType": "uint256",
          "name": "",
          "type": "uint256"
        }
      ],
      "name": "policies",
      "outputs": [
        {
          "internalType": "uint256",
          "name": "batchTokenId",
          "type": "uint256"
        },
        {
          "internalType": "address",
          "name": "farmer",
          "type": "address"
        },
        {
          "internalType": "uint256",
          "name": "coverageAmount",
          "type": "uint256"
        },
        {
          "internalType": "uint256",
          "name": "premium",
          "type": "uint256"
        },
        {
          "internalType": "bool",
          "name": "active",
          "type": "bool"
        },
        {
          "internalType": "uint256",
          "name": "expiry",
          "type": "uint256"
        }
      ],
      "stateMutability": "view",
      "type": "function"
    }
  ],
  "bytecode": "0x6080806040523461001657610354908161001c8239f35b600080fdfe608060408181526004908136101561001657600080fd5b600092833560e01c908163379607f51461021257508063c7e2f28e146100b05763d3e894831461004557600080fd5b346100ac5760203660031901126100ac578060c09383358152806020522080549260018060a01b0360018301541692600283015490600560ff60038601549486015416940154948151968752602087015285015260608401521515608083015260a0820152f35b8280fd5b5080839160031936011261020e5782359060243582845283602052600282852001546101db576301e1338042018042116101c85782519060c0820182811067ffffffffffffffff8211176101b557907f601882301d3e3fce7fe3a99d4bb17ef5b6699b417bdd29f2bfb82e19fcbcb66095969760059286528784526020840190338252868501868152606086019034825260808701936001855260a088019586528b8d528c602052898d2097518855600188019060018060a01b039051166bffffffffffffffffffffffff60a01b82541617905551600287015551600386015584019051151560ff80198354169116179055519101558151903382526020820152a280f35b634e487b7160e01b875260418852602487fd5b634e487b7160e01b855260118652602485fd5b815162461bcd60e51b8152602081870152600d60248201526c506f6c6963792065786973747360981b6044820152606490fd5b5080fd5b90503461031a57602036600319011261031a5782359283855284602052828520918183019182549160ff8316156102ed575060058401544210156102c0575060ff1916905583808080600260018060a01b036001870154169501948554908282156102b7575bf1156102ad577fc9d92d603dc7645c578a271dc9dec46855d3c0cdbdc48d00399a438907cfa1cb91602091549051908152a280f35b81513d85823e3d90fd5b506108fc610278565b606490602086519162461bcd60e51b83528201526007602482015266115e1c1a5c995960ca1b6044820152fd5b602060649262461bcd60e51b8352820152600a6024820152694e6f742061637469766560b01b6044820152fd5b8380fdfea26469706673582212200fe9f9d8b32869c1cbfe9c90f98edeede47e049bf8c085586263e553b6f5b71264736f6c63430008180033",
  "linkReferences": {},
  "deployedLinkReferences": {}
}