{
  "_format": "hh-sol-artifact-1",
  "contractName": "LabRegistry",
  "sourceName": "contracts/LabRegistry.sol",
  "abi": [
    {
      "inputs": [
        {
          "internalType": "address",
          "name": "_lab",
          "type": "address"
        }
      ],
      "name": "certifyLab",
      "outputs": [],
      "stateMutability": "nonpayable",
      "type": "function"
    },
    {
      "inputs": [
        {
          "internalType": "address",
          "name": "",
          "type": "address"
        }
      ],
      "name": "labs",
      "outputs": [
        {
          "internalType": "string",
          "name": "name",
          "type": "string"
        },
        {
          "internalType": "string",
          "name": "accreditation",
          "type": "string"
        },
        {
          "internalType": "address",
          "name": "labAddress",
          "type": "address"
        },
        {
          "internalType": "bool",
          "name": "certified",
          "type": "bool"
        }
      ],
      "stateMutability": "view",
      "type": "function"
    },
    {
      "inputs": [
        {
          "internalType": "string",
          "name": "_name",
          "type": "string"
        },
        {
          "internalType": "string",
          "name": "_accreditation",
          "type": "string"
        }
      ],
      "name": "registerLab",
      "outputs": [],
      "stateMutability": "nonpayable",
      "type": "function"
    }
  ],
  "bytecode": "0x608080604052346100165761060f908161001c8239f35b600080fdfe6040608081526004908136101561001557600080fd5b600091823560e01c8063277d58911461039a5780632ca662c71461008c57639275a1cf1461004257600080fd5b3461008857602036600319011261008857356001600160a01b03811691908290036100885790825260208290528120600201805460ff60a01b1916600160a01b17905580f35b8280fd5b5082903461039657826003193601126103965767ffffffffffffffff928135848111610392576100bf903690840161057d565b60243585811161038e576100d6903690850161057d565b825191608083018381108882111761037b578452825260208083019182528383019433865260608401948786523388528783528720935190815189811161036857806101228754610426565b93601f9485811161031c575b5085908583116001146102b9578b926102ae575b50508160011b916000199060031b1c19161785555b60019283860194519182519a8b1161029b5750896101758654610426565b848111610256575b505080928a116001146101f057509780928192899a600298999a946101e5575b50501b916000199060031b1c19161790555b92519201805491516001600160a81b03199092166001600160a01b03939093169290921790151560a01b60ff60a01b1617905580f35b015192508a8061019d565b909891601f19831699858a52828a20928a905b8c821061023f57505083600298999a9b10610226575b505050811b0190556101af565b015160001960f88460031b161c19169055888080610219565b808785968294968601518155019501930190610203565b868b5284838c20918482850160051c84019410610292575b0160051c019085905b82811061028757508b915061017d565b8b8155018590610277565b9250819261026e565b634e487b7160e01b8a5260419052602489fd5b015190508b80610142565b888c52868c209250601f1984168c5b888282106103065750509084600195949392106102ed575b505050811b018555610157565b015160001960f88460031b161c191690558b80806102e0565b60018596829396860151815501950193016102c8565b909150878b52858b208580850160051c82019288861061035f575b9085949392910160051c01905b818110610351575061012e565b8c8155849350600101610344565b92508192610337565b634e487b7160e01b895260418252602489fd5b634e487b7160e01b875260418652602487fd5b8480fd5b8380fd5b5080fd5b5034610088576020366003190112610088576001600160a01b0390358181169081900361039257828460ff92610402965280602052206103d981610498565b9361041060026103eb60018501610498565b93015492825197889760808952608089019061053d565b90878203602089015261053d565b9382169085015260a01c16151560608301520390f35b90600182811c92168015610456575b602083101461044057565b634e487b7160e01b600052602260045260246000fd5b91607f1691610435565b90601f8019910116810190811067ffffffffffffffff82111761048257604052565b634e487b7160e01b600052604160045260246000fd5b906040519182600082546104ab81610426565b9081845260209460019160018116908160001461051b57506001146104dc575b5050506104da92500383610460565b565b600090815285812095935091905b8183106105035750506104da93508201013880806104cb565b855488840185015294850194879450918301916104ea565b925050506104da94925060ff191682840152151560051b8201013880806104cb565b919082519283825260005b848110610569575050826000602080949584010152601f8019910116010190565b602081830181015184830182015201610548565b81601f820112156105d45780359067ffffffffffffffff821161048257604051926105b2601f8401601f191660200185610460565b828452602083830101116105d457816000926020809301838601378301015290565b600080fdfea264697066735822122049fbd9bce0e4e7ba1f8459c1d2d4a6b7d1548adb46740c7f534f4167c0d4146964736f6c63430008180033",
  "linkReferences": {},
  "deployedLinkReferences": {}
}