{
  "_format": "hh-sol-artifact-1",
  "contractName": "QualityVerifier",
  "sourceName": "contracts/QualityVerifier.sol",
  "abi": [
    {
      "anonymous": false,
      "inputs": [
        {
          "indexed": true,
          "internalType": "bytes32",
          "name": "batchId",
          "type": "bytes32"
        },
        {
          "indexed": false,
          "internalType": "bool",
          "name": "approved",
          "type": "bool"
        }
      ],
      "name": "QualityApproved",
      "type": "event"
    },
    {
      "anonymous": false,
      "inputs": [
        {
          "indexed": true,
          "internalType": "bytes32",
          "name": "batchId",
          "type": "bytes32"
        },
        {
          "indexed": false,
          "internalType": "uint256",
          "name": "qualityScore",
          "type": "uint256"
        },
        {
          "indexed": true,
          "internalType": "address",
          "name": "lab",
          "type": "address"
        }
      ],
      "name": "QualityTestRecorded",
      "type": "event"
    },
    {
      "inputs": [
        {
          "internalType": "bytes32",
          "name": "batchId",
          "type": "bytes32"
        },
        {
          "internalType": "uint256",
          "name": "recordIndex",
          "type": "uint256"
        },
        {
          "internalType": "bool",
          "name": "approved",
          "type": "bool"
        }
      ],
      "name": "approveQuality",
      "outputs": [],
      "stateMutability": "nonpayable",
      "type": "function"
    },
    {
      "inputs": [
        {
          "internalType": "bytes32",
          "name": "batchId",
          "type": "bytes32"
        }
      ],
      "name": "getLatestQualityScore",
      "outputs": [
        {
          "internalType": "int256",
          "name": "",
          "type": "int256"
        }
      ],
      "stateMutability": "view",
      "type": "function"
    },
    {
      "inputs": [
        {
          "internalType": "bytes32",
          "name": "batchId",
          "type": "bytes32"
        }
      ],
      "name": "getQualityRecords",
      "outputs": [
        {
          "components": [
            {
              "internalType": "bytes32",
              "name": "batchId",
              "type": "bytes32"
            },
            {
              "internalType": "uint256",
              "name": "qualityScore",
              "type": "uint256"
            },
            {
              "internalType": "string",
              "name": "testResults",
              "type": "string"
            },
            {
              "internalType": "address",
              "name": "labAddress",
              "type": "address"
            },
            {
              "internalType": "uint256",
              "name": "timestamp",
              "type": "uint256"
            },
            {
              "internalType": "bool",
              "name": "approved",
              "type": "bool"
            }
          ],
          "internalType": "struct QualityVerifier.QualityRecord[]",
          "name": "",
          "type": "tuple[]"
        }
      ],
      "stateMutability": "view",
      "type": "function"
    },
    {
      "inputs": [
        {
          "internalType": "bytes32",
          "name": "",
          "type": "bytes32"
        },
        {
          "internalType": "uint256",
          "name": "",
          "type": "uint256"
        }
      ],
      "name": "qualityRecords",
      "outputs": [
        {
          "internalType": "bytes32",
          "name": "batchId",
          "type": "bytes32"
        },
        {
          "internalType": "uint256",
          "name": "qualityScore",
          "type": "uint256"
        },
        {
          "internalType": "string",
          "name": "testResults",
          "type": "string"
        },
        {
          "internalType": "address",
          "name": "labAddress",
          "type": "address"
        },
        {
          "internalType": "uint256",
          "name": "timestamp",
          "type": "uint256"
        },
        {
          "internalType": "bool",
          "name": "approved",
          "type": "bool"
        }
      ],
      "stateMutability": "view",
      "type": "function"
    },
    {
      "inputs": [
        {
          "internalType": "bytes32",
          "name": "batchId",
          "type": "bytes32"
        },
        {
          "internalType": "uint256",
          "name": "qualityScore",
          "type": "uint256"
        },
        {
          "internalType": "string",
          "name": "testResults",
          "type": "string"
        },
        {
          "internalType": "address",
          "name": "labAddress",
          "type": "address"
        }
      ],
      "name": "recordQualityTest",
      "outputs": [],
      "stateMutability": "nonpayable",
      "type": "function"
    }
  ],
  "bytecode": "0x6080806040523461001657610950908161001c8239f35b600080fdfe6080604052600436101561001257600080fd5b60003560e01c80631ff09dff146106395780636d82b6ee1461059a578063ae779446146104cf578063b095af73146103485763c3dc81191461005357600080fd5b3461034357608036600319011261034357602467ffffffffffffffff604435818111610343573660238201121561034357806004013590828211610343573684838301011161034357606435926001600160a01b0384168403610343576004356000526000602052604060002091604051926100ce846106cb565b6004358452600060208086019689358852808a604051966100f885601f19601f86011601896106e7565b828852018387013784010152604084019182526001600160a01b0386166060850152426080850152600060a085015280546801000000000000000081101561032e576101499160018201815561065f565b9490946103195783518555516001850155518051918211610304576101716002850154610691565b601f81116102bd575b50602090601f831160011461024457928260059360a0936101fc9796600092610239575b50508160011b916000199060031b1c19161760028501555b60038401600180841b036060830151166bffffffffffffffffffffffff841b825416179055608081015160048501550151151591019060ff801983541691151516179055565b604051913582526001600160a01b031690600435907f5b1ae7a2a67644004151b6d0c4b194279ca4a44c4f2bd009847df5027855884190602090a3005b01519050388061019e565b906002850160005260206000209160005b601f19851681106102a557508360a0936101fc979693600193600597601f1981161061028c575b505050811b0160028501556101b6565b015160001960f88460031b161c1916905538808061027c565b91926020600181928685015181550194019201610255565b600285016000526020600020601f840160051c8101602085106102fd575b601f830160051c820181106102f157505061017a565b600081556001016102db565b50806102db565b85634e487b7160e01b60005260416004526000fd5b86634e487b7160e01b60005260006004526000fd5b87634e487b7160e01b60005260416004526000fd5b600080fd5b34610343576020806003193601126103435760043560005260008152604060002080549067ffffffffffffffff82116104b957829060059260405193610393848360051b01866106e7565b81855260009283528383208486019391845b84841061044d57604080518881528951818a01819052600092600582901b83018101918a918c9085015b8287106103dc5785850386f35b909192938280600192603f1989820301855287519061041660c08351835284840151858401526040840151908060408501528301906107ae565b916060868060a01b038183015116908301526080808201519083015260a080910151151591015296019201960195929190926103cf565b60068760019260409a999a51610462816106cb565b86548152848701548382015261047a60028801610709565b6040820152848060a01b0360038801541660608201526004870154608082015260ff8688015416151560a08201528152019301930192919695966103a5565b634e487b7160e01b600052604160045260246000fd5b3461034357606036600319011261034357600435602435604435801515808203610343578360005260006020528260406000205411156105645761055b60209260056105487f2b7a97012fbdbc987182dfb85a93b4b09d12baaec435740825eacdccddec8df9968860005260008752604060002061065f565b50019060ff801983541691151516179055565b604051908152a2005b60405162461bcd60e51b815260206004820152600e60248201526d125b9d985b1a59081c9958dbdc9960921b6044820152606490fd5b346103435760403660031901126103435760243560043560005260006020526040600020908154811015610343576105d19161065f565b5080546001820154916105e660028201610709565b60018060a01b036003830154169161062360ff6005600484015493015416926040519687968752602087015260c0604087015260c08601906107ae565b9260608501526080840152151560a08301520390f35b346103435760203660031901126103435760206106576004356107ee565b604051908152f35b805482101561067b576000526006602060002091020190600090565b634e487b7160e01b600052603260045260246000fd5b90600182811c921680156106c1575b60208310146106ab57565b634e487b7160e01b600052602260045260246000fd5b91607f16916106a0565b60c0810190811067ffffffffffffffff8211176104b957604052565b90601f8019910116810190811067ffffffffffffffff8211176104b957604052565b9060405191826000825461071c81610691565b9081845260209460019160018116908160001461078c575060011461074d575b50505061074b925003836106e7565b565b600090815285812095935091905b81831061077457505061074b935082010138808061073c565b8554888401850152948501948794509183019161075b565b9250505061074b94925060ff191682840152151560051b82010138808061073c565b919082519283825260005b8481106107da575050826000602080949584010152601f8019910116010190565b6020818301810151848301820152016107b9565b9060009182526020828152604080842080549067ffffffffffffffff821161090657600560405193610825868560051b01866106e7565b838552858501928852858820918689945b8686106108a057505050505050508051801561089657600019810190811161088257815181101561086e5760051b0181015101519150565b634e487b7160e01b85526032600452602485fd5b634e487b7160e01b85526011600452602485fd5b5060001993505050565b60019160069185516108b1816106cb565b8754815284880154838201526108c960028901610709565b87820152848060a01b0360038901541660608201526004880154608082015260ff8689015416151560a08201528152019401940193928790610836565b634e487b7160e01b86526041600452602486fdfea2646970667358221220a3d85a409c1e95ab05701ce82c07871c3b5b376c79800e8ee45a8bf8fa779ba564736f6c63430008180033",
  "linkReferences": {},
  "deployedLinkReferences": {}
}