{
  "_format": "hh-sol-artifact-1",
  "contractName": "TokenClaim",
  "sourceName": "contracts/TokenClaim.sol",
  "abi": [
    {
      "inputs": [],
      "stateMutability": "nonpayable",
      "type": "constructor"
    },
    {
      "anonymous": false,
      "inputs": [
        {
          "indexed": false,
          "internalType": "address",
          "name": "claimant",
          "type": "address"
        },
        {
          "indexed": false,
          "internalType": "uint256",
          "name": "amount",
          "type": "uint256"
        }
      ],
      "name": "Claimed",
      "type": "event"
    },
    {
      "inputs": [],
      "name": "claim",
      "outputs": [],
      "stateMutability": "nonpayable",
      "type": "function"
    },
    {
      "inputs": [
        {
          "internalType": "address",
          "name": "",
          "type": "address"
        }
      ],
      "name": "claimAmounts",
      "outputs": [
        {
          "internalType": "uint256",
          "name": "",
          "type": "uint256"
        }
      ],
      "stateMutability": "view",
      "type": "function"
    },
    {
      "inputs": [
        {
          "internalType": "address",
          "name": "",
          "type": "address"
        }
      ],
      "name": "claimed",
      "outputs": [
        {
          "internalType": "bool",
          "name": "",
          "type": "bool"
        }
      ],
      "stateMutability": "view",
      "type": "function"
    },
    {
      "inputs": [],
      "name": "distributor",
      "outputs": [
        {
          "internalType": "address",
          "name": "",
          "type": "address"
        }
      ],
      "stateMutability": "view",
      "type": "function"
    },
    {
      "inputs": [
        {
          "internalType": "address[]",
          "name": "_addresses",
          "type": "address[]"
        },
        {
          "internalType": "uint256[]",
          "name": "_amounts",
          "type": "uint256[]"
        }
      ],
      "name": "setClaimAmounts",
      "outputs": [],
      "stateMutability": "nonpayable",
      "type": "function"
    },
    {
      "inputs": [],
      "name": "totalClaimed",
      "outputs": [
        {
          "internalType": "uint256",
          "name": "",
          "type": "uint256"
        }
      ],
      "stateMutability": "view",
      "type": "function"
    },
    {
      "stateMutability": "payable",
      "type": "receive"
    }
  ],
  "bytecode": "0x6080806040523461002857600380546001600160a01b031916331790556104c8908161002e8239f35b600080fdfe6080604081815260049182361015610022575b505050361561002057600080fd5b005b600092833560e01c9182634e71d92d146102b2575081636d4d226e1461027a578163ab4baaf4146100f957508063bfe10928146100d1578063c884ef83146100955763d54ad2a1146100745780610012565b346100915781600319360112610091576020906002549051908152f35b5080fd5b50346100915760203660031901126100915760209160ff9082906001600160a01b036100bf6103f9565b16815280855220541690519015158152f35b503461009157816003193601126100915760035490516001600160a01b039091168152602090f35b83833461009157806003193601126100915782359067ffffffffffffffff92838311610277573660238401121561027757828501359260249561014361013e86610450565b610414565b9182958084528860208095019160051b8301019136831161024c578901905b828210610254575050508635958611610250573660238701121561025057858101359561019161013e88610450565b96888489838152019160051b8301019136831161024c5789859101915b83831061023c5750506003546001600160a01b0399925089163303905061020a575050815b845181101561020657806101e960019288610468565b51886101f58389610468565b5116855282845285852055016101d3565b8280f35b600f9060649386519362461bcd60e51b85528401528201526e2737ba103234b9ba3934b13aba37b960891b6044820152fd5b82358152918101918591016101ae565b8580fd5b8280fd5b81356001600160a01b0381168103610273578152908401908401610162565b8680fd5b80fd5b5050346100915760203660031901126100915760209181906001600160a01b036102a26103f9565b1681526001845220549051908152f35b9150346103f557836003193601126103f55733845260209184835260ff84862054166103c4575033845260018252828420541561039857338452838252828420600160ff19825416179055600182528284205490600254918201809211610385575060025533835260018152828080808581205481811561037c575b3390f11561037157907fd8138f8a3f377c5259ca548e70e4c2de94f129f5a11036a15b69513cba2b426a913384526001815281842054825191338352820152a180f35b5051903d90823e3d90fd5b506108fc61032e565b634e487b7160e01b855260119052602484fd5b915162461bcd60e51b81529182015260086024820152674e6f20636c61696d60c01b6044820152606490fd5b8260649262461bcd60e51b8352820152600f60248201526e105b1c9958591e4818db185a5b5959608a1b6044820152fd5b8380fd5b600435906001600160a01b038216820361040f57565b600080fd5b6040519190601f01601f1916820167ffffffffffffffff81118382101761043a57604052565b634e487b7160e01b600052604160045260246000fd5b67ffffffffffffffff811161043a5760051b60200190565b805182101561047c5760209160051b010190565b634e487b7160e01b600052603260045260246000fdfea26469706673582212201545040cfdfc9dff4a5ef777507acedb79d78dbbebf29c2d378f9d58468170c264736f6c63430008180033",
  "linkReferences": {},
  "deployedLinkReferences": {}
}