{
  "_format": "hh-sol-artifact-1",
  "contractName": "FarmerCredential",
  "sourceName": "contracts/FarmerCredential.sol",
  "abi": [
    {
      "anonymous": false,
      "inputs": [
        {
          "indexed": true,
          "internalType": "address",
          "name": "farmer",
          "type": "address"
        },
        {
          "indexed": false,
          "internalType": "string",
          "name": "credentialType",
          "type": "string"
        }
      ],
      "name": "CredentialIssued",
      "type": "event"
    },
    {
      "anonymous": false,
      "inputs": [
        {
          "indexed": true,
          "internalType": "address",
          "name": "farmer",
          "type": "address"
        },
        {
          "indexed": false,
          "internalType": "uint256",
          "name": "index",
          "type": "uint256"
        }
      ],
      "name": "CredentialRevoked",
      "type": "event"
    },
    {
      "inputs": [
        {
          "internalType": "address",
          "name": "",
          "type": "address"
        },
        {
          "internalType": "uint256",
          "name": "",
          "type": "uint256"
        }
      ],
      "name": "credentials",
      "outputs": [
        {
          "internalType": "address",
          "name": "farmer",
          "type": "address"
        },
        {
          "internalType": "string",
          "name": "credentialType",
          "type": "string"
        },
        {
          "internalType": "string",
          "name": "issuingBody",
          "type": "string"
        },
        {
          "internalType": "uint256",
          "name": "issueDate",
          "type": "uint256"
        },
        {
          "internalType": "uint256",
          "name": "expiryDate",
          "type": "uint256"
        },
        {
          "internalType": "bool",
          "name": "valid",
          "type": "bool"
        }
      ],
      "stateMutability": "view",
      "type": "function"
    },
    {
      "inputs": [
        {
          "internalType": "address",
          "name": "farmer",
          "type": "address"
        }
      ],
      "name": "getCredentials",
      "outputs": [
        {
          "components": [
            {
              "internalType": "address",
              "name": "farmer",
              "type": "address"
            },
            {
              "internalType": "string",
              "name": "credentialType",
              "type": "string"
            },
            {
              "internalType": "string",
              "name": "issuingBody",
              "type": "string"
            },
            {
              "internalType": "uint256",
              "name": "issueDate",
              "type": "uint256"
            },
            {
              "internalType": "uint256",
              "name": "expiryDate",
              "type": "uint256"
            },
            {
              "internalType": "bool",
              "name": "valid",
              "type": "bool"
            }
          ],
          "internalType": "struct FarmerCredential.Credential[]",
          "name": "",
          "type": "tuple[]"
        }
      ],
      "stateMutability": "view",
      "type": "function"
    },
    {
      "inputs": [
        {
          "internalType": "address",
          "name": "farmer",
          "type": "address"
        },
        {
          "internalType": "string",
          "name": "credentialType",
          "type": "string"
        },
        {
          "internalType": "string",
          "name": "issuingBody",
          "type": "string"
        },
        {
          "internalType": "uint256",
          "name": "validityPeriod",
          "type": "uint256"
        }
      ],
      "name": "issueCredential",
      "outputs": [],
      "stateMutability": "nonpayable",
      "type": "function"
    },
    {
      "inputs": [
        {
          "internalType": "address",
          "name": "farmer",
          "type": "address"
        },
        {
          "internalType": "uint256",
          "name": "index",
          "type": "uint256"
        }
      ],
      "name": "revokeCredential",
      "outputs": [],
      "stateMutability": "nonpayable",
      "type": "function"
    }
  ],
  "bytecode": "0x60808060405234610016576109ec908161001c8239f35b600080fdfe6080604052600436101561001257600080fd5b60003560e01c806303cb278a146106df5780632c34a817146102af5780637106b2fc146101ef5763842706081461004857600080fd5b346101ea576020806003193601126101ea576001600160a01b03908161006c61079c565b16600052600081526040600020805467ffffffffffffffff81116101d4576040519290600561009f82821b84018661083a565b81855260009384528284208386019491855b848410610166575050505050604051928184019082855251809152604084019160408260051b86010193926000965b8388106100ed5786860387f35b90919293948380600192603f198a820301865288519061013561012360c088855116845285850151908087860152840190610901565b60408401518382036040850152610901565b91606080820151908301526080808201519083015260a08091015115159101529701930197019690939291936100e0565b60068660019260409a989a5161017b8161081e565b8c875416815261018c85880161085c565b8382015261019c6002880161085c565b6040820152600387015460608201526004870154608082015260ff8688015416151560a08201528152019301930192919694966100b1565b634e487b7160e01b600052604160045260246000fd5b600080fd5b346101ea5760403660031901126101ea5761020861079c565b6001600160a01b03166000818152602081905260409020546024359081101561027a5760207ff2fcadf579f414e0330984b542cd6af76f79cc0213bfd8d53adf88364f1d262191836000526000825260056102678260406000206107b2565b5001805460ff19169055604051908152a2005b60405162461bcd60e51b815260206004820152600d60248201526c092dcecc2d8d2c840d2dcc8caf609b1b6044820152606490fd5b346101ea5760803660031901126101ea576102c861079c565b60243567ffffffffffffffff81116101ea576102e8903690600401610941565b9060443567ffffffffffffffff81116101ea57610309903690600401610941565b9360018060a01b03918282166000526000602052604060002060643542018042116106c95761035d6040519361033e8561081e565b868616855261034e368a8a61096f565b99602086019a8b52369161096f565b60408401524260608401526080830152600160a08301528054680100000000000000008110156101d457610396916001820181556107b2565b9690966106b357815187546001600160a01b0319169085161787555180519067ffffffffffffffff82116101d45781906103d360018a01546107e4565b601f8111610660575b50602090601f83116001146105ee576000926105e3575b50508160011b916000199060031b1c19161760018701555b604081015195865167ffffffffffffffff81116101d45761042f60028301546107e4565b97601f891161059c575b879850600097969750602090601f83116001146104fd577fd4c8606c8f5e033bdf2d421963e26a29fde60cd3907a89758f5d8500b5b566bf98959383604098969460a0946005946000926104f2575b50508160011b916000199060031b1c19161760028201555b606084015160038201556080840151600482015501910151151560ff801983541691161790558351948593602085528160208601528585013760008388018501521694601f01601f19168101030190a2005b015190508d80610488565b906002840160005260206000209160005b601f198516811061058157509360018460a0946005947fd4c8606c8f5e033bdf2d421963e26a29fde60cd3907a89758f5d8500b5b566bf9d9a9860409c9a98601f19811610610568575b505050811b0160028201556104a0565b015160001960f88460031b161c191690558d8080610558565b8183015184558b99506001909301926020928301920161050e565b600283016000526020600020601f830160051c8101602084106105dc575b601f8b0160051c820181106105d0575050610439565b600081556001016105ba565b50806105ba565b0151905088806103f3565b9250600189016000526020600020906000935b601f1984168510610645576001945083601f1981161061062c575b505050811b01600187015561040b565b015160001960f88460031b161c1916905588808061061c565b81810151835560209485019460019093019290910190610601565b909150600189016000526020600020601f840160051c8101602085106106ac575b90849392915b601f830160051c8201811061069d5750506103dc565b60008155859450600101610687565b5080610681565b634e487b7160e01b600052600060045260246000fd5b634e487b7160e01b600052601160045260246000fd5b346101ea5760403660031901126101ea576106f861079c565b6001600160a01b0390811660009081526020819052604090208054602435908110156101ea57610727916107b2565b50908154166107386001830161085c565b916107456002820161085c565b60038201549161078660ff600560048401549301541692610778604051978897885260c0602089015260c0880190610901565b908682036040880152610901565b9260608501526080840152151560a08301520390f35b600435906001600160a01b03821682036101ea57565b80548210156107ce576000526006602060002091020190600090565b634e487b7160e01b600052603260045260246000fd5b90600182811c92168015610814575b60208310146107fe57565b634e487b7160e01b600052602260045260246000fd5b91607f16916107f3565b60c0810190811067ffffffffffffffff8211176101d457604052565b90601f8019910116810190811067ffffffffffffffff8211176101d457604052565b9060405191826000825461086f816107e4565b908184526020946001916001811690816000146108df57506001146108a0575b50505061089e9250038361083a565b565b600090815285812095935091905b8183106108c757505061089e935082010138808061088f565b855488840185015294850194879450918301916108ae565b9250505061089e94925060ff191682840152151560051b82010138808061088f565b919082519283825260005b84811061092d575050826000602080949584010152601f8019910116010190565b60208183018101518483018201520161090c565b9181601f840112156101ea5782359167ffffffffffffffff83116101ea57602083818601950101116101ea57565b92919267ffffffffffffffff82116101d45760405191610999601f8201601f19166020018461083a565b8294818452818301116101ea57828160209384600096013701015256fea2646970667358221220076e28029a132029d97b499a1a6206d9daba4135c67e74feeb9b789974a74af464736f6c63430008180033",
  "linkReferences": {},
  "deployedLinkReferences": {}
}