{
  "_format": "hh-sol-artifact-1",
  "contractName": "AnalyticsContract",
  "sourceName": "contracts/Analytics.sol",
  "abi": [
    {
      "inputs": [],
      "name": "getStatsCount",
      "outputs": [
        {
          "internalType": "uint256",
          "name": "",
          "type": "uint256"
        }
      ],
      "stateMutability": "view",
      "type": "function"
    },
    {
      "inputs": [
        {
          "internalType": "string",
          "name": "_metric",
          "type": "string"
        },
        {
          "internalType": "uint256",
          "name": "_value",
          "type": "uint256"
        }
      ],
      "name": "recordStat",
      "outputs": [],
      "stateMutability": "nonpayable",
      "type": "function"
    },
    {
      "inputs": [
        {
          "internalType": "uint256",
          "name": "",
          "type": "uint256"
        }
      ],
      "name": "stats",
      "outputs": [
        {
          "internalType": "string",
          "name": "metric",
          "type": "string"
        },
        {
          "internalType": "uint256",
          "name": "value",
          "type": "uint256"
        },
        {
          "internalType": "uint256",
          "name": "timestamp",
          "type": "uint256"
        }
      ],
      "stateMutability": "view",
      "type": "function"
    }
  ],
  "bytecode": "0x60808060405234610016576104be908161001c8239f35b600080fdfe608060408181526004918236101561001657600080fd5b600092833560e01c9182637d4090601461019057508163ad217ae514610065575063fc3e4ff01461004657600080fd5b34610061578160031936011261006157602091549051908152f35b5080fd5b90503461018c5760209081600319360112610188573583548110156101885761008d90610400565b509180519284848254916100a08361044e565b928383526001908760018216918260001461016857505060011461012c575b506100d092509693929603856103c8565b6002600186015495015490805195869460608652865194856060880152805b868110610115575060808098508688010152850152830152601f80199101168101030190f35b8089018301518a82016080015289975082016100ef565b8691508489528189209089915b8583106101505750506100d09350820101386100bf565b8054838b018501528994508893909201918101610139565b60ff1916858201526100d095151560051b85010192503891506100bf9050565b8380fd5b8280fd5b908492503461018c578360031936011261018c5780359367ffffffffffffffff908186116103c457366023870112156103c457602491838701358181116103b257602090601f19986101e9838b601f85011601896103c8565b818852368683830101116103ae5781899287859301838b013788010152825195606087018781108482111761039c578452865280860192843584528601944286528754946801000000000000000086101561038b5761024e6001968781018b55610400565b98909861037a575191825194851161036957505061026c875461044e565b601f8111610323575b5081601f84116001146102be575087985090829160029798926102b3575b5050600019600383901b1c191690831b1785555b51908401555191015580f35b015190508880610293565b929889168789528389209389905b82821061030c575050918593918a6002999a9b94106102f3575b505050811b0185556102a7565b015160001960f88460031b161c191690558880806102e6565b8088869782949787015181550196019401906102cc565b878952828920601f850160051c81019184861061035f575b601f0160051c019086905b828110610354575050610275565b8a8155018690610346565b909150819061033b565b634e487b7160e01b8a526041905288fd5b50634e487b7160e01b895288825288fd5b634e487b7160e01b89526041825288fd5b634e487b7160e01b8952604187528589fd5b8880fd5b634e487b7160e01b8752604185528387fd5b8480fd5b90601f8019910116810190811067ffffffffffffffff8211176103ea57604052565b634e487b7160e01b600052604160045260246000fd5b90600091825481101561043a57600390838052027f290decd9548b62a8d60345a988386fc84ba6bc95484008f6362f93160ef3e563019190565b634e487b7160e01b83526032600452602483fd5b90600182811c9216801561047e575b602083101461046857565b634e487b7160e01b600052602260045260246000fd5b91607f169161045d56fea264697066735822122069460a75fdd2053d52f4d84d19631ea8f112f4ac3c6efbda49fa47ff9a637e7f64736f6c63430008180033",
  "linkReferences": {},
  "deployedLinkReferences": {}
}