{
  "_format": "hh-sol-artifact-1",
  "contractName": "ColdStorageMonitor",
  "sourceName": "contracts/ColdStorageMonitor.sol",
  "abi": [
    {
      "anonymous": false,
      "inputs": [
        {
          "indexed": true,
          "internalType": "bytes32",
          "name": "batchId",
          "type": "bytes32"
        },
        {
          "indexed": false,
          "internalType": "uint256",
          "name": "temperature",
          "type": "uint256"
        }
      ],
      "name": "ConditionRecorded",
      "type": "event"
    },
    {
      "inputs": [
        {
          "internalType": "bytes32",
          "name": "",
          "type": "bytes32"
        },
        {
          "internalType": "uint256",
          "name": "",
          "type": "uint256"
        }
      ],
      "name": "conditions",
      "outputs": [
        {
          "internalType": "bytes32",
          "name": "batchId",
          "type": "bytes32"
        },
        {
          "internalType": "uint256",
          "name": "temperature",
          "type": "uint256"
        },
        {
          "internalType": "uint256",
          "name": "humidity",
          "type": "uint256"
        },
        {
          "internalType": "uint256",
          "name": "co2Level",
          "type": "uint256"
        },
        {
          "internalType": "uint256",
          "name": "timestamp",
          "type": "uint256"
        }
      ],
      "stateMutability": "view",
      "type": "function"
    },
    {
      "inputs": [
        {
          "internalType": "bytes32",
          "name": "batchId",
          "type": "bytes32"
        }
      ],
      "name": "getConditions",
      "outputs": [
        {
          "components": [
            {
              "internalType": "bytes32",
              "name": "batchId",
              "type": "bytes32"
            },
            {
              "internalType": "uint256",
              "name": "temperature",
              "type": "uint256"
            },
            {
              "internalType": "uint256",
              "name": "humidity",
              "type": "uint256"
            },
            {
              "internalType": "uint256",
              "name": "co2Level",
              "type": "uint256"
            },
            {
              "internalType": "uint256",
              "name": "timestamp",
              "type": "uint256"
            }
          ],
          "internalType": "struct ColdStorageMonitor.StorageCondition[]",
          "name": "",
          "type": "tuple[]"
        }
      ],
      "stateMutability": "view",
      "type": "function"
    },
    {
      "inputs": [
        {
          "internalType": "bytes32",
          "name": "batchId",
          "type": "bytes32"
        },
        {
          "internalType": "uint256",
          "name": "temperature",
          "type": "uint256"
        },
        {
          "internalType": "uint256",
          "name": "humidity",
          "type": "uint256"
        },
        {
          "internalType": "uint256",
          "name": "co2Level",
          "type": "uint256"
        }
      ],
      "name": "recordConditions",
      "outputs": [],
      "stateMutability": "nonpayable",
      "type": "function"
    }
  ],
  "bytecode": "0x6080806040523461001657610380908161001c8239f35b600080fdfe60406080815260048036101561001457600080fd5b600090813560e01c806332cfe125146101fa5780635b687aeb1461018d57637b0fb93d1461004157600080fd5b346101895760209081600319360112610185578035835282825283832091825467ffffffffffffffff92838211610172578651936005919083831b603f01601f191686019081118682101761015f5788979594975282845286840190819686528786209086925b85841061011257505050505050845193808501918186525180925285850193925b8281106100d65785850386f35b83518051865280830151868401528781015188870152606080820151908701526080908101519086015260a090940193928101926001016100c9565b848a6001928d6101249d9a9b9d610314565b9087548252858801548483015260028801549082015260038701546060820152858701546080820152815201930193019291989695986100a8565b634e487b7160e01b885260418252602488fd5b634e487b7160e01b865260419052602485fd5b8280fd5b5080fd5b5082346101855780600319360112610185576024359282358152806020528181209081548510156101f7575060a0936101c5916102e2565b508054926001820154926002830154916003840154930154938151958652602086015284015260608301526080820152f35b80fd5b509134610189576080366003190112610189578235906024359082845283602052808420610226610314565b90848252602082018481528383016044358152606084019160643583526080850193428552805490680100000000000000008210156102cf579061026f916001820181556102e2565b9590956102bd575185555160018501555160028401555160038301555190860155519081527f46de715e5e8d561378352c10ff6f66972a39041693c16efe30900537f62bc8c890602090a280f35b634e487b7160e01b8a52898b5260248afd5b634e487b7160e01b8b5260418c5260248bfd5b80548210156102fe576000526005602060002091020190600090565b634e487b7160e01b600052603260045260246000fd5b6040519060a0820182811067ffffffffffffffff82111761033457604052565b634e487b7160e01b600052604160045260246000fdfea2646970667358221220da70e46a6cd3e94a460a8642249a07a435df3924e68faf0af45344ea750c86a764736f6c63430008180033",
  "linkReferences": {},
  "deployedLinkReferences": {}
}