{
  "_format": "hh-sol-artifact-1",
  "contractName": "TokenVesting",
  "sourceName": "contracts/Vesting.sol",
  "abi": [
    {
      "anonymous": false,
      "inputs": [
        {
          "indexed": true,
          "internalType": "bytes32",
          "name": "id",
          "type": "bytes32"
        },
        {
          "indexed": false,
          "internalType": "uint256",
          "name": "amount",
          "type": "uint256"
        }
      ],
      "name": "TokensReleased",
      "type": "event"
    },
    {
      "anonymous": false,
      "inputs": [
        {
          "indexed": true,
          "internalType": "bytes32",
          "name": "id",
          "type": "bytes32"
        },
        {
          "indexed": false,
          "internalType": "address",
          "name": "beneficiary",
          "type": "address"
        },
        {
          "indexed": false,
          "internalType": "uint256",
          "name": "amount",
          "type": "uint256"
        },
        {
          "indexed": false,
          "internalType": "uint256",
          "name": "duration",
          "type": "uint256"
        }
      ],
      "name": "VestingCreated",
      "type": "event"
    },
    {
      "inputs": [
        {
          "internalType": "address",
          "name": "",
          "type": "address"
        },
        {
          "internalType": "uint256",
          "name": "",
          "type": "uint256"
        }
      ],
      "name": "beneficiarySchedules",
      "outputs": [
        {
          "internalType": "bytes32",
          "name": "",
          "type": "bytes32"
        }
      ],
      "stateMutability": "view",
      "type": "function"
    },
    {
      "inputs": [
        {
          "internalType": "address",
          "name": "_beneficiary",
          "type": "address"
        },
        {
          "internalType": "uint256",
          "name": "_amount",
          "type": "uint256"
        },
        {
          "internalType": "uint256",
          "name": "_duration",
          "type": "uint256"
        }
      ],
      "name": "createVesting",
      "outputs": [],
      "stateMutability": "nonpayable",
      "type": "function"
    },
    {
      "inputs": [
        {
          "internalType": "bytes32",
          "name": "_id",
          "type": "bytes32"
        }
      ],
      "name": "release",
      "outputs": [],
      "stateMutability": "nonpayable",
      "type": "function"
    },
    {
      "inputs": [
        {
          "internalType": "bytes32",
          "name": "",
          "type": "bytes32"
        }
      ],
      "name": "schedules",
      "outputs": [
        {
          "internalType": "address",
          "name": "beneficiary",
          "type": "address"
        },
        {
          "internalType": "uint256",
          "name": "totalAmount",
          "type": "uint256"
        },
        {
          "internalType": "uint256",
          "name": "startTime",
          "type": "uint256"
        },
        {
          "internalType": "uint256",
          "name": "duration",
          "type": "uint256"
        },
        {
          "internalType": "uint256",
          "name": "released",
          "type": "uint256"
        }
      ],
      "stateMutability": "view",
      "type": "function"
    }
  ],
  "bytecode": "0x6080806040523461001657610472908161001c8239f35b600080fdfe60406080815260048036101561001457600080fd5b600091823560e01c806346ca42411461030057806367d42a8b14610232578063d1e16bfa146101db5763e97549081461004c57600080fd5b346101d75760603660031901126101d75761006561035d565b906024359060443591815194602086019560018060a01b0390818716966bffffffffffffffffffffffff199060601b16885242603482015260348152606081019167ffffffffffffffff988284108a8511176101c45783875282519020986101008301908111848210176101c45784928b8b938a938a528b87528960808401928a845260e060a086019542875260c081019788520196818852815280602052209651166bffffffffffffffffffffffff60a01b875416178655516001860155516002850155516003840155519101558487526001602052828720805491680100000000000000008310156101b157509161018b826060969460017fbc6fddd239930fc9c6508a5c8c99f3b138d55419faec3913ab45ece2e9057b87999795018155610378565b81549060031b9089821b91600019901b191617905581519384526020840152820152a280f35b634e487b7160e01b895260419052602488fd5b634e487b7160e01b8b526041855260248bfd5b8280fd5b50346101d75760203660031901126101d7578060a093833581528060205220600180851b03815416926001820154926002830154916003840154930154938151958652602086015284015260608301526080820152f35b5090346101d75760203660031901126101d7578035918284528360205280842061025b816103d6565b8382019061026b825480926103a6565b9485156102cd57508685819482946102848385966103c9565b9055546001600160a01b031682f1156102c4577f7e7eb8def93882018eb053721bca2801550a422e8176c587e1ad367fcc4fdc9d9160209151908152a280f35b513d84823e3d90fd5b606490602086519162461bcd60e51b8352820152600d60248201526c4e6f20746f6b656e732064756560981b6044820152fd5b83823461035957806003193601126103595761031a61035d565b6001600160a01b03168252600160205280822080546024359390841015610356575060209261034891610378565b91905490519160031b1c8152f35b80fd5b5080fd5b600435906001600160a01b038216820361037357565b600080fd5b80548210156103905760005260206000200190600090565b634e487b7160e01b600052603260045260246000fd5b919082039182116103b357565b634e487b7160e01b600052601160045260246000fd5b919082018092116103b357565b60028101546003820154916103eb83836103c9565b42101561043257600161040191015491426103a6565b908181029181830414901517156103b357811561041c570490565b634e487b7160e01b600052601260045260246000fd5b600101549291505056fea2646970667358221220cfda6d32391ed2dd29ad0f3c0d7b74ff2dfd9bef4239baa9c04526005dc0d46c64736f6c63430008180033",
  "linkReferences": {},
  "deployedLinkReferences": {}
}