{
  "_format": "hh-sol-artifact-1",
  "contractName": "BatchRegistry",
  "sourceName": "contracts/BatchRegistry.sol",
  "abi": [
    {
      "anonymous": false,
      "inputs": [
        {
          "indexed": true,
          "internalType": "bytes32",
          "name": "batchId",
          "type": "bytes32"
        },
        {
          "indexed": true,
          "internalType": "address",
          "name": "farmer",
          "type": "address"
        },
        {
          "indexed": false,
          "internalType": "uint256",
          "name": "timestamp",
          "type": "uint256"
        }
      ],
      "name": "BatchRegistered",
      "type": "event"
    },
    {
      "anonymous": false,
      "inputs": [
        {
          "indexed": true,
          "internalType": "bytes32",
          "name": "batchId",
          "type": "bytes32"
        },
        {
          "indexed": false,
          "internalType": "bool",
          "name": "verified",
          "type": "bool"
        }
      ],
      "name": "BatchVerified",
      "type": "event"
    },
    {
      "inputs": [
        {
          "internalType": "uint256",
          "name": "",
          "type": "uint256"
        }
      ],
      "name": "batchIds",
      "outputs": [
        {
          "internalType": "bytes32",
          "name": "",
          "type": "bytes32"
        }
      ],
      "stateMutability": "view",
      "type": "function"
    },
    {
      "inputs": [
        {
          "internalType": "bytes32",
          "name": "",
          "type": "bytes32"
        }
      ],
      "name": "batches",
      "outputs": [
        {
          "internalType": "bytes32",
          "name": "batchId",
          "type": "bytes32"
        },
        {
          "internalType": "address",
          "name": "farmer",
          "type": "address"
        },
        {
          "internalType": "uint256",
          "name": "timestamp",
          "type": "uint256"
        },
        {
          "internalType": "string",
          "name": "herbType",
          "type": "string"
        },
        {
          "internalType": "uint256",
          "name": "quantity",
          "type": "uint256"
        },
        {
          "internalType": "bool",
          "name": "verified",
          "type": "bool"
        }
      ],
      "stateMutability": "view",
      "type": "function"
    },
    {
      "inputs": [
        {
          "internalType": "bytes32",
          "name": "batchId",
          "type": "bytes32"
        }
      ],
      "name": "getBatch",
      "outputs": [
        {
          "components": [
            {
              "internalType": "bytes32",
              "name": "batchId",
              "type": "bytes32"
            },
            {
              "internalType": "address",
              "name": "farmer",
              "type": "address"
            },
            {
              "internalType": "uint256",
              "name": "timestamp",
              "type": "uint256"
            },
            {
              "internalType": "string",
              "name": "herbType",
              "type": "string"
            },
            {
              "internalType": "uint256",
              "name": "quantity",
              "type": "uint256"
            },
            {
              "internalType": "bool",
              "name": "verified",
              "type": "bool"
            }
          ],
          "internalType": "struct BatchRegistry.Batch",
          "name": "",
          "type": "tuple"
        }
      ],
      "stateMutability": "view",
      "type": "function"
    },
    {
      "inputs": [],
      "name": "getBatchCount",
      "outputs": [
        {
          "internalType": "uint256",
          "name": "",
          "type": "uint256"
        }
      ],
      "stateMutability": "view",
      "type": "function"
    },
    {
      "inputs": [
        {
          "internalType": "bytes32",
          "name": "batchId",
          "type": "bytes32"
        },
        {
          "internalType": "address",
          "name": "farmer",
          "type": "address"
        },
        {
          "internalType": "string",
          "name": "herbType",
          "type": "string"
        },
        {
          "internalType": "uint256",
          "name": "quantity",
          "type": "uint256"
        }
      ],
      "name": "registerBatch",
      "outputs": [],
      "stateMutability": "nonpayable",
      "type": "function"
    },
    {
      "inputs": [
        {
          "internalType": "bytes32",
          "name": "batchId",
          "type": "bytes32"
        },
        {
          "internalType": "bool",
          "name": "verified",
          "type": "bool"
        }
      ],
      "name": "verifyBatch",
      "outputs": [],
      "stateMutability": "nonpayable",
      "type": "function"
    }
  ],
  "bytecode": "0x60808060405234610016576107f5908161001c8239f35b600080fdfe608080604052600436101561001357600080fd5b60003560e01c908163a8fabfa5146105fa57508063b3d346b9146105c3578063c65436ac146102ac578063c81e25ab14610225578063ed42136f1461012d5763ed8b4b6e1461006157600080fd5b34610128576040366003190112610128576004356024358015159081810361012857826000526000602052600260406000200154156100ec577f75e163b853521ddb5ab47d51f52ccbc559d20bdf77c46f7d8aceb7ee5d53fb4d916100e3602092856000526000845260056040600020019060ff801983541691151516179055565b604051908152a2005b60405162461bcd60e51b815260206004820152601460248201527310985d18da08191bd95cc81b9bdd08195e1a5cdd60621b6044820152606490fd5b600080fd5b346101285760208060031936011261012857600060a060405161014f8161069c565b82815282848201528260408201526060808201528260808201520152600435600052600081526040600020604051906101878261069c565b8054825260018101546001600160a01b039081168484019081526002830154604085019081529091610212916101bf600386016106da565b916060870192835260ff600560048801549760808a019889520154169460a088019515158652604051988998818a525190890152511660408701525160608601525160c0608086015260e085019061077f565b915160a084015251151560c08301520390f35b346101285760203660031901126101285760043560005260006020526040600020805460018060a01b0360018301541691600281015461029b61026a600384016106da565b60ff60056004860154950154169260405196879687526020870152604086015260c0606086015260c085019061077f565b916080840152151560a08301520390f35b34610128576080366003190112610128576024356001600160a01b0380821682036101285767ffffffffffffffff604435818111610128573660238201121561012857806004013591808311610128573660248484010111610128576004356000526000602052600260406000200154610587576040519161032d8361069c565b6004358352602083019385871685526000602060408601924284528060246040519661036285601f19601f86011601896106b8565b828852018387013784010152606084019182526064356080850152600060a085015260043560005260006020526040600020948451865586600187019151166bffffffffffffffffffffffff60a01b8254161790555160028501555180519182116104a8576103d46003850154610662565b601f8111610540575b50602090601f83116001146104c957928260059360a09361043a97966000926104be575b50508160011b916000199060031b1c19161760038501555b608081015160048501550151151591019060ff801983541691151516179055565b600154680100000000000000008110156104a85780600161045e9201600155610615565b81549060031b90600435821b91600019901b19161790556040519142835216907f4dceea5348973fc958dcff4905cf384ab41375fa321a18f0af9f451b06a5318d602060043592a3005b634e487b7160e01b600052604160045260246000fd5b015190508980610401565b90601f198316916003860160005260206000209260005b81811061052857509360a09361043a979693600193836005981061050f575b505050811b016003850155610419565b015160001960f88460031b161c191690558980806104ff565b929360206001819287860151815501950193016104e0565b600385016000526020600020601f840160051c810160208510610580575b601f830160051c820181106105745750506103dd565b6000815560010161055e565b508061055e565b60405162461bcd60e51b8152602060048201526014602482015273426174636820616c72656164792065786973747360601b6044820152606490fd5b3461012857602036600319011261012857600435600154811015610128576105ec602091610615565b90546040519160031b1c8152f35b34610128576000366003190112610128576020906001548152f35b60015481101561064c5760016000527fb10e2d527612073b26eecdfd717e6a320cf44b4afac2b0732d9fcbe2b7fa0cf60190600090565b634e487b7160e01b600052603260045260246000fd5b90600182811c92168015610692575b602083101461067c57565b634e487b7160e01b600052602260045260246000fd5b91607f1691610671565b60c0810190811067ffffffffffffffff8211176104a857604052565b90601f8019910116810190811067ffffffffffffffff8211176104a857604052565b906040519182600082546106ed81610662565b9081845260209460019160018116908160001461075d575060011461071e575b50505061071c925003836106b8565b565b600090815285812095935091905b81831061074557505061071c935082010138808061070d565b8554888401850152948501948794509183019161072c565b9250505061071c94925060ff191682840152151560051b82010138808061070d565b919082519283825260005b8481106107ab575050826000602080949584010152601f8019910116010190565b60208183018101518483018201520161078a56fea2646970667358221220b0409f44d19c2169250129d03676df0446128a3f5a9523cea7f1f0e24d62dd1b64736f6c63430008180033",
  "linkReferences": {},
  "deployedLinkReferences": {}
}