{
  "_format": "hh-sol-artifact-1",
  "contractName": "HerbalDatabase2",
  "sourceName": "contracts/HerbalDatabase2.sol",
  "abi": [
    {
      "anonymous": false,
      "inputs": [
        {
          "indexed": true,
          "internalType": "bytes32",
          "name": "herbId",
          "type": "bytes32"
        },
        {
          "indexed": false,
          "internalType": "string",
          "name": "name",
          "type": "string"
        }
      ],
      "name": "HerbRegistered",
      "type": "event"
    },
    {
      "inputs": [
        {
          "internalType": "bytes32",
          "name": "herbId",
          "type": "bytes32"
        }
      ],
      "name": "getHerb",
      "outputs": [
        {
          "components": [
            {
              "internalType": "bytes32",
              "name": "herbId",
              "type": "bytes32"
            },
            {
              "internalType": "string",
              "name": "name",
              "type": "string"
            },
            {
              "internalType": "string",
              "name": "scientificName",
              "type": "string"
            },
            {
              "internalType": "string",
              "name": "family",
              "type": "string"
            },
            {
              "internalType": "string",
              "name": "description",
              "type": "string"
            },
            {
              "internalType": "uint256",
              "name": "minTemperature",
              "type": "uint256"
            },
            {
              "internalType": "uint256",
              "name": "maxTemperature",
              "type": "uint256"
            },
            {
              "internalType": "uint256",
              "name": "harvestDays",
              "type": "uint256"
            }
          ],
          "internalType": "struct HerbalDatabase2.Herb",
          "name": "",
          "type": "tuple"
        }
      ],
      "stateMutability": "view",
      "type": "function"
    },
    {
      "inputs": [
        {
          "internalType": "bytes32",
          "name": "",
          "type": "bytes32"
        }
      ],
      "name": "herbs",
      "outputs": [
        {
          "internalType": "bytes32",
          "name": "herbId",
          "type": "bytes32"
        },
        {
          "internalType": "string",
          "name": "name",
          "type": "string"
        },
        {
          "internalType": "string",
          "name": "scientificName",
          "type": "string"
        },
        {
          "internalType": "string",
          "name": "family",
          "type": "string"
        },
        {
          "internalType": "string",
          "name": "description",
          "type": "string"
        },
        {
          "internalType": "uint256",
          "name": "minTemperature",
          "type": "uint256"
        },
        {
          "internalType": "uint256",
          "name": "maxTemperature",
          "type": "uint256"
        },
        {
          "internalType": "uint256",
          "name": "harvestDays",
          "type": "uint256"
        }
      ],
      "stateMutability": "view",
      "type": "function"
    },
    {
      "inputs": [
        {
          "internalType": "bytes32",
          "name": "herbId",
          "type": "bytes32"
        },
        {
          "internalType": "string",
          "name": "name",
          "type": "string"
        },
        {
          "internalType": "string",
          "name": "scientificName",
          "type": "string"
        },
        {
          "internalType": "string",
          "name": "family",
          "type": "string"
        },
        {
          "internalType": "string",
          "name": "description",
          "type": "string"
        },
        {
          "internalType": "uint256",
          "name": "minTemp",
          "type": "uint256"
        },
        {
          "internalType": "uint256",
          "name": "maxTemp",
          "type": "uint256"
        },
        {
          "internalType": "uint256",
          "name": "harvestPeriod",
          "type": "uint256"
        }
      ],
      "name": "registerHerb",
      "outputs": [],
      "stateMutability": "nonpayable",
      "type": "function"
    }
  ],
  "bytecode": "0x6080806040523461001657610b3d908161001c8239f35b600080fdfe608080604052600436101561001357600080fd5b60003560e01c90816391fa44bb1461027757508063acc0e567146101105763b29b1c1e1461004057600080fd5b3461010b57602036600319011261010b5760043560005260006020526040600020805461006f60018301610a1b565b9161007c60028201610a1b565b61008860038301610a1b565b916100f761009860048301610a1b565b6100e96005840154956100db60076006870154960154966100cd6040519b8c809c6020610100928392815201528c0190610962565b908a820360408c0152610962565b9088820360608a0152610962565b908682036080880152610962565b9260a085015260c084015260e08301520390f35b600080fd5b3461010b5760208060031936011261010b5760405161012e816109dc565b600081526060908183820152816040820152818082015281608082015260a081016000905260c081016000905260e00160009052600435600052600082526040600020906040519161017f836109dc565b8054835261018f60018201610a1b565b8385019081526101a160028301610a1b565b60408501908152916101b560038201610a1b565b858501908152936101c860048301610a1b565b6080870190815260058301549560a0880196875260068401549360c08901948552600701549460e08901958652604051998a99818b5251908a01525195610100968760408b01526101208a0161021d91610962565b905190601f1994858b830301908b015261023691610962565b905190838982030160808a015261024c91610962565b9051918782030160a088015261026191610962565b935160c08601525160e085015251908301520390f35b3461010b5761010036600319011261010b5760243567ffffffffffffffff811161010b576102a9903690600401610934565b9060443567ffffffffffffffff811161010b576102ca903690600401610934565b909360643567ffffffffffffffff811161010b576102ec903690600401610934565b9060843567ffffffffffffffff811161010b5761030d903690600401610934565b9290936004356000526000602052600560406000200154610904575061037a93929161036e916103626040519a6103438c6109dc565b6004358c52610353368c8c610ac0565b9860208d01998a523691610ac0565b60408b01523691610ac0565b60608801523691610ac0565b608085015260a43560a085015260c43560c085015260e43560e08501526004356000526000602052604060002090845182555180519067ffffffffffffffff821161067e5781906103ce60018501546109a2565b601f81116108b1575b50602090601f831160011461083f57600092610834575b50508160011b916000199060031b1c19161760018201555b604084015180519067ffffffffffffffff821161067e57819061042c60028501546109a2565b601f81116107e1575b50602090601f831160011461076f57600092610764575b50508160011b916000199060031b1c19161760028201555b606084015180519067ffffffffffffffff821161067e57819061048a60038501546109a2565b601f8111610711575b50602090601f831160011461069f57600092610694575b50508160011b916000199060031b1c19161760038201555b608084015180519067ffffffffffffffff821161067e576104e660048401546109a2565b601f8111610637575b50602090601f83116001146105a057958260079360e0937fd6164a487955663a8343c4eecc1f204767986e7ee7906ef872de684f4f926f3c9899600092610595575b50508160011b916000199060031b1c19161760048501555b60a0810151600585015560c081015160068501550151910155826040519160208352816020840152604083013760006040848301015260408160043594601f80199101168101030190a2005b015190508980610531565b906004840160005260206000209160005b601f198516811061061f57508360e0937fd6164a487955663a8343c4eecc1f204767986e7ee7906ef872de684f4f926f3c989993600193600797601f19811610610606575b505050811b016004850155610549565b015160001960f88460031b161c191690558980806105f6565b919260206001819286850151815501940192016105b1565b600484016000526020600020601f840160051c810160208510610677575b601f830160051c8201811061066b5750506104ef565b60008155600101610655565b5080610655565b634e487b7160e01b600052604160045260246000fd5b0151905086806104aa565b9250600384016000526020600020906000935b601f19841685106106f6576001945083601f198116106106dd575b505050811b0160038201556104c2565b015160001960f88460031b161c191690558680806106cd565b818101518355602094850194600190930192909101906106b2565b909150600384016000526020600020601f840160051c81016020851061075d575b90849392915b601f830160051c8201811061074e575050610493565b60008155859450600101610738565b5080610732565b01519050868061044c565b9250600284016000526020600020906000935b601f19841685106107c6576001945083601f198116106107ad575b505050811b016002820155610464565b015160001960f88460031b161c1916905586808061079d565b81810151835560209485019460019093019290910190610782565b909150600284016000526020600020601f840160051c81016020851061082d575b90849392915b601f830160051c8201811061081e575050610435565b60008155859450600101610808565b5080610802565b0151905086806103ee565b9250600184016000526020600020906000935b601f1984168510610896576001945083601f1981161061087d575b505050811b016001820155610406565b015160001960f88460031b161c1916905586808061086d565b81810151835560209485019460019093019290910190610852565b909150600184016000526020600020601f840160051c8101602085106108fd575b90849392915b601f830160051c820181106108ee5750506103d7565b600081558594506001016108d8565b50806108d2565b62461bcd60e51b815260206004820152600b60248201526a486572622065786973747360a81b6044820152606490fd5b9181601f8401121561010b5782359167ffffffffffffffff831161010b576020838186019501011161010b57565b919082519283825260005b84811061098e575050826000602080949584010152601f8019910116010190565b60208183018101518483018201520161096d565b90600182811c921680156109d2575b60208310146109bc57565b634e487b7160e01b600052602260045260246000fd5b91607f16916109b1565b610100810190811067ffffffffffffffff82111761067e57604052565b90601f8019910116810190811067ffffffffffffffff82111761067e57604052565b90604051918260008254610a2e816109a2565b90818452602094600191600181169081600014610a9e5750600114610a5f575b505050610a5d925003836109f9565b565b600090815285812095935091905b818310610a86575050610a5d9350820101388080610a4e565b85548884018501529485019487945091830191610a6d565b92505050610a5d94925060ff191682840152151560051b820101388080610a4e565b92919267ffffffffffffffff821161067e5760405191610aea601f8201601f1916602001846109f9565b82948184528183011161010b57828160209384600096013701015256fea264697066735822122058e1ba18e306586c22b21e4293fe94f69c8951557994943f1529fa58c0813b1c64736f6c63430008180033",
  "linkReferences": {},
  "deployedLinkReferences": {}
}