{
  "_format": "hh-sol-artifact-1",
  "contractName": "InsuranceClaim",
  "sourceName": "contracts/InsuranceClaim.sol",
  "abi": [
    {
      "anonymous": false,
      "inputs": [
        {
          "indexed": true,
          "internalType": "bytes32",
          "name": "claimId",
          "type": "bytes32"
        },
        {
          "indexed": true,
          "internalType": "address",
          "name": "claimant",
          "type": "address"
        },
        {
          "indexed": false,
          "internalType": "uint256",
          "name": "amount",
          "type": "uint256"
        }
      ],
      "name": "ClaimFiled",
      "type": "event"
    },
    {
      "anonymous": false,
      "inputs": [
        {
          "indexed": true,
          "internalType": "bytes32",
          "name": "claimId",
          "type": "bytes32"
        },
        {
          "indexed": false,
          "internalType": "string",
          "name": "resolution",
          "type": "string"
        }
      ],
      "name": "ClaimResolved",
      "type": "event"
    },
    {
      "inputs": [
        {
          "internalType": "bytes32",
          "name": "",
          "type": "bytes32"
        }
      ],
      "name": "claims",
      "outputs": [
        {
          "internalType": "bytes32",
          "name": "claimId",
          "type": "bytes32"
        },
        {
          "internalType": "bytes32",
          "name": "batchId",
          "type": "bytes32"
        },
        {
          "internalType": "address",
          "name": "claimant",
          "type": "address"
        },
        {
          "internalType": "uint256",
          "name": "amount",
          "type": "uint256"
        },
        {
          "internalType": "string",
          "name": "reason",
          "type": "string"
        },
        {
          "internalType": "string",
          "name": "status",
          "type": "string"
        },
        {
          "internalType": "uint256",
          "name": "filedAt",
          "type": "uint256"
        }
      ],
      "stateMutability": "view",
      "type": "function"
    },
    {
      "inputs": [
        {
          "internalType": "bytes32",
          "name": "claimId",
          "type": "bytes32"
        },
        {
          "internalType": "bytes32",
          "name": "batchId",
          "type": "bytes32"
        },
        {
          "internalType": "uint256",
          "name": "amount",
          "type": "uint256"
        },
        {
          "internalType": "string",
          "name": "reason",
          "type": "string"
        }
      ],
      "name": "fileClaim",
      "outputs": [],
      "stateMutability": "nonpayable",
      "type": "function"
    },
    {
      "inputs": [
        {
          "internalType": "bytes32",
          "name": "claimId",
          "type": "bytes32"
        }
      ],
      "name": "getClaim",
      "outputs": [
        {
          "components": [
            {
              "internalType": "bytes32",
              "name": "claimId",
              "type": "bytes32"
            },
            {
              "internalType": "bytes32",
              "name": "batchId",
              "type": "bytes32"
            },
            {
              "internalType": "address",
              "name": "claimant",
              "type": "address"
            },
            {
              "internalType": "uint256",
              "name": "amount",
              "type": "uint256"
            },
            {
              "internalType": "string",
              "name": "reason",
              "type": "string"
            },
            {
              "internalType": "string",
              "name": "status",
              "type": "string"
            },
            {
              "internalType": "uint256",
              "name": "filedAt",
              "type": "uint256"
            }
          ],
          "internalType": "struct InsuranceClaim.Claim",
          "name": "",
          "type": "tuple"
        }
      ],
      "stateMutability": "view",
      "type": "function"
    },
    {
      "inputs": [
        {
          "internalType": "bytes32",
          "name": "claimId",
          "type": "bytes32"
        },
        {
          "internalType": "string",
          "name": "resolution",
          "type": "string"
        }
      ],
      "name": "resolveClaim",
      "outputs": [],
      "stateMutability": "nonpayable",
      "type": "function"
    }
  ],
  "bytecode": "0x6080806040523461001657610963908161001c8239f35b600080fdfe6040608081526004908136101561001557600080fd5b6000803560e01c806338310144146105a6578063bddb812214610205578063c9100bcb146100e95763eff0f5921461004c57600080fd5b346100e65760203660031901126100e6578190833581528060205220906100dc8254926100ce60018201549560018060a01b03600284015416906100966003850154918501610832565b9160066100a560058701610832565b950154968051998a998a5260208a0152880152606087015260e0608087015260e0860190610764565b9084820360a0860152610764565b9060c08301520390f35b80fd5b50913461020157602092836003193601126100e65782816101f69260c08351610111816107de565b8281528289820152828582015282606082015260606080820152606060a0820152015283358152808652206101e384519461014b866107de565b82548652600183015487870190815260028401546001600160a01b03908116838901908152600386015460608a019081529297610189908701610832565b9360808a01948552600661019f60058901610832565b9760a08c0198895201549860c08b01998a5281519b8c9b818d5251908c015251908a0152511660608801525160808701525160e060a0870152610100860190610764565b9051848203601f190160c0860152610764565b905160e08301520390f35b8280fd5b5090346105a25760803660031901126105a2578235604435916064359067ffffffffffffffff9182811161059e576102409036908801610731565b908487526020938785526006848920015461056c57835192610261846107de565b868452858401996024358b528585019a338c5260608601948a865284841161055957601f199388519161029b8b87601f8501160184610810565b818352368282011161055557818e928c928386013783010152608087019081528751958887019d8e8789821091111761054257898e9f9e8d9e9f8d9e9b9c9d60c08e6650656e64696e6760c81b838f8796895260078152015260a081019d8e52019c8d4290528252522099518a5560019351848b015560028a019060018060a01b039051166bffffffffffffffffffffffff60a01b8254161790555160038901558288019051805186811161052f578e61035f8261035986546107a4565b866108d7565b8c90601f83116001146104c7579061038c9383610420575b50508160011b916000199060031b1c19161790565b90555b6005870194519182519485116104b457508b906103b6856103b088546107a4565b886108d7565b8993601f861160011461042b57505092806006959361040f937fcb458d27822c3290cdcdeeab9b43bcea4e60db6845d1e3932c5871443523e1f19b9a999896926104205750508160011b916000199060031b1c19161790565b90555b51910155519384523393a380f35b015190503880610377565b9094809492501691858d52898d20928d5b81811061049f5750917fcb458d27822c3290cdcdeeab9b43bcea4e60db6845d1e3932c5871443523e1f19a99989795939185600698969410610486575b505050811b019055610412565b015160001960f88460031b161c19169055388080610479565b82840151855593860193928b01928b0161043c565b634e487b7160e01b8d526041905260248cfd5b9085938e8985169087855280852094905b82821061050e57505084116104f5575b505050811b01905561038f565b015160001960f88460031b161c191690553880806104e8565b91929395968291958786015181550195019301908f918896959493926104d8565b634e487b7160e01b8f526041855260248ffd5b634e487b7160e01b8e526041855260248efd5b8d80fd5b634e487b7160e01b8c526041835260248cfd5b835162461bcd60e51b8152808a01869052600c60248201526b436c61696d2065786973747360a01b6044820152606490fd5b8580fd5b5080fd5b5082346105a257826003193601126105a2578035906024359367ffffffffffffffff9485811161072d576105dd9036908401610731565b929084865260209186835260058488200197851161071a575061060a8461060489546107a4565b896108d7565b8596601f8511600114610694578491829161065f83808b9c7fabfac51878b88891e91c2724c2c33550a817bbf0f6c5c611a580bdaa3ff4459a9b9c91610689575b508160011b916000199060031b1c19161790565b90555b8451958487958652850152848401378181018301879052601f01601f19168101030190a280f35b90508401358d61064b565b808752828720601f198616885b8181106107035750918693917fabfac51878b88891e91c2724c2c33550a817bbf0f6c5c611a580bdaa3ff4459a98999a858095106106e9575b5050600183811b019055610662565b830135600019600386901b60f8161c191690558a806106da565b848b013583559985019960019092019185016106a1565b634e487b7160e01b875260419052602486fd5b8480fd5b9181601f8401121561075f5782359167ffffffffffffffff831161075f576020838186019501011161075f57565b600080fd5b919082519283825260005b848110610790575050826000602080949584010152601f8019910116010190565b60208183018101518483018201520161076f565b90600182811c921680156107d4575b60208310146107be57565b634e487b7160e01b600052602260045260246000fd5b91607f16916107b3565b60e0810190811067ffffffffffffffff8211176107fa57604052565b634e487b7160e01b600052604160045260246000fd5b90601f8019910116810190811067ffffffffffffffff8211176107fa57604052565b90604051918260008254610845816107a4565b908184526020946001916001811690816000146108b55750600114610876575b50505061087492500383610810565b565b600090815285812095935091905b81831061089d5750506108749350820101388080610865565b85548884018501529485019487945091830191610884565b9250505061087494925060ff191682840152151560051b820101388080610865565b90601f81116108e557505050565b6000916000526020600020906020601f850160051c83019410610923575b601f0160051c01915b82811061091857505050565b81815560010161090c565b909250829061090356fea2646970667358221220c356879a14237fb8f371979f1eef3ebdababadbb7a27e67d0c1d658da766db3164736f6c63430008180033",
  "linkReferences": {},
  "deployedLinkReferences": {}
}