{
  "_format": "hh-sol-artifact-1",
  "contractName": "RewardsContract",
  "sourceName": "contracts/RewardsContract.sol",
  "abi": [
    {
      "inputs": [],
      "stateMutability": "nonpayable",
      "type": "constructor"
    },
    {
      "inputs": [
        {
          "internalType": "address",
          "name": "owner",
          "type": "address"
        }
      ],
      "name": "OwnableInvalidOwner",
      "type": "error"
    },
    {
      "inputs": [
        {
          "internalType": "address",
          "name": "account",
          "type": "address"
        }
      ],
      "name": "OwnableUnauthorizedAccount",
      "type": "error"
    },
    {
      "anonymous": false,
      "inputs": [
        {
          "indexed": true,
          "internalType": "address",
          "name": "farmer",
          "type": "address"
        },
        {
          "indexed": false,
          "internalType": "enum RewardsContract.BadgeType",
          "name": "badgeType",
          "type": "uint8"
        },
        {
          "indexed": false,
          "internalType": "string",
          "name": "badgeName",
          "type": "string"
        },
        {
          "indexed": false,
          "internalType": "uint256",
          "name": "timestamp",
          "type": "uint256"
        }
      ],
      "name": "BadgeEarned",
      "type": "event"
    },
    {
      "anonymous": false,
      "inputs": [
        {
          "indexed": true,
          "internalType": "address",
          "name": "farmer",
          "type": "address"
        },
        {
          "indexed": false,
          "internalType": "string",
          "name": "name",
          "type": "string"
        },
        {
          "indexed": false,
          "internalType": "uint256",
          "name": "timestamp",
          "type": "uint256"
        }
      ],
      "name": "FarmerRegistered",
      "type": "event"
    },
    {
      "anonymous": false,
      "inputs": [
        {
          "indexed": true,
          "internalType": "address",
          "name": "previousOwner",
          "type": "address"
        },
        {
          "indexed": true,
          "internalType": "address",
          "name": "newOwner",
          "type": "address"
        }
      ],
      "name": "OwnershipTransferred",
      "type": "event"
    },
    {
      "anonymous": false,
      "inputs": [
        {
          "indexed": true,
          "internalType": "address",
          "name": "farmer",
          "type": "address"
        },
        {
          "indexed": false,
          "internalType": "uint256",
          "name": "points",
          "type": "uint256"
        },
        {
          "indexed": false,
          "internalType": "string",
          "name": "reason",
          "type": "string"
        },
        {
          "indexed": false,
          "internalType": "uint256",
          "name": "timestamp",
          "type": "uint256"
        }
      ],
      "name": "PointsEarned",
      "type": "event"
    },
    {
      "anonymous": false,
      "inputs": [
        {
          "indexed": true,
          "internalType": "address",
          "name": "farmer",
          "type": "address"
        },
        {
          "indexed": false,
          "internalType": "uint256",
          "name": "points",
          "type": "uint256"
        },
        {
          "indexed": false,
          "internalType": "uint256",
          "name": "value",
          "type": "uint256"
        },
        {
          "indexed": false,
          "internalType": "uint256",
          "name": "timestamp",
          "type": "uint256"
        }
      ],
      "name": "PointsRedeemed",
      "type": "event"
    },
    {
      "anonymous": false,
      "inputs": [
        {
          "indexed": true,
          "internalType": "address",
          "name": "farmer",
          "type": "address"
        },
        {
          "indexed": false,
          "internalType": "uint256",
          "name": "batchTokenId",
          "type": "uint256"
        },
        {
          "indexed": false,
          "internalType": "uint256",
          "name": "qualityScore",
          "type": "uint256"
        },
        {
          "indexed": false,
          "internalType": "uint256",
          "name": "pointsEarned",
          "type": "uint256"
        },
        {
          "indexed": false,
          "internalType": "uint256",
          "name": "timestamp",
          "type": "uint256"
        }
      ],
      "name": "QualityScoreRecorded",
      "type": "event"
    },
    {
      "anonymous": false,
      "inputs": [
        {
          "indexed": true,
          "internalType": "address",
          "name": "referrer",
          "type": "address"
        },
        {
          "indexed": true,
          "internalType": "address",
          "name": "referred",
          "type": "address"
        },
        {
          "indexed": false,
          "internalType": "uint256",
          "name": "timestamp",
          "type": "uint256"
        }
      ],
      "name": "ReferralMade",
      "type": "event"
    },
    {
      "anonymous": false,
      "inputs": [
        {
          "indexed": true,
          "internalType": "uint256",
          "name": "rewardId",
          "type": "uint256"
        },
        {
          "indexed": true,
          "internalType": "address",
          "name": "recipient",
          "type": "address"
        },
        {
          "indexed": false,
          "internalType": "enum RewardsContract.RewardType",
          "name": "rewardType",
          "type": "uint8"
        },
        {
          "indexed": false,
          "internalType": "uint256",
          "name": "amount",
          "type": "uint256"
        },
        {
          "indexed": false,
          "internalType": "uint256",
          "name": "timestamp",
          "type": "uint256"
        }
      ],
      "name": "RewardCreated",
      "type": "event"
    },
    {
      "anonymous": false,
      "inputs": [
        {
          "indexed": true,
          "internalType": "uint256",
          "name": "rewardId",
          "type": "uint256"
        },
        {
          "indexed": true,
          "internalType": "address",
          "name": "recipient",
          "type": "address"
        },
        {
          "indexed": false,
          "internalType": "uint256",
          "name": "amount",
          "type": "uint256"
        },
        {
          "indexed": false,
          "internalType": "uint256",
          "name": "timestamp",
          "type": "uint256"
        }
      ],
      "name": "RewardDistributed",
      "type": "event"
    },
    {
      "inputs": [
        {
          "internalType": "address",
          "name": "_referrer",
          "type": "address"
        },
        {
          "internalType": "address",
          "name": "_referred",
          "type": "address"
        }
      ],
      "name": "addReferral",
      "outputs": [],
      "stateMutability": "nonpayable",
      "type": "function"
    },
    {
      "inputs": [
        {
          "internalType": "enum RewardsContract.RewardType",
          "name": "_rewardType",
          "type": "uint8"
        },
        {
          "internalType": "uint256",
          "name": "_amount",
          "type": "uint256"
        }
      ],
      "name": "allocateRewardPool",
      "outputs": [],
      "stateMutability": "nonpayable",
      "type": "function"
    },
    {
      "inputs": [],
      "name": "bronzeBadgeThreshold",
      "outputs": [
        {
          "internalType": "uint256",
          "name": "",
          "type": "uint256"
        }
      ],
      "stateMutability": "view",
      "type": "function"
    },
    {
      "inputs": [
        {
          "internalType": "address",
          "name": "_recipient",
          "type": "address"
        },
        {
          "internalType": "enum RewardsContract.RewardType",
          "name": "_rewardType",
          "type": "uint8"
        },
        {
          "internalType": "uint256",
          "name": "_amount",
          "type": "uint256"
        },
        {
          "internalType": "string",
          "name": "_description",
          "type": "string"
        }
      ],
      "name": "createAndDistributeReward",
      "outputs": [
        {
          "internalType": "uint256",
          "name": "",
          "type": "uint256"
        }
      ],
      "stateMutability": "nonpayable",
      "type": "function"
    },
    {
      "inputs": [],
      "name": "diamondBadgeThreshold",
      "outputs": [
        {
          "internalType": "uint256",
          "name": "",
          "type": "uint256"
        }
      ],
      "stateMutability": "view",
      "type": "function"
    },
    {
      "inputs": [
        {
          "internalType": "address",
          "name": "",
          "type": "address"
        },
        {
          "internalType": "uint256",
          "name": "",
          "type": "uint256"
        }
      ],
      "name": "farmerContributions",
      "outputs": [
        {
          "internalType": "uint256",
          "name": "batchTokenId",
          "type": "uint256"
        },
        {
          "internalType": "uint256",
          "name": "qualityScore",
          "type": "uint256"
        },
        {
          "internalType": "uint256",
          "name": "pointsEarned",
          "type": "uint256"
        },
        {
          "internalType": "uint256",
          "name": "timestamp",
          "type": "uint256"
        }
      ],
      "stateMutability": "view",
      "type": "function"
    },
    {
      "inputs": [
        {
          "internalType": "address",
          "name": "",
          "type": "address"
        }
      ],
      "name": "farmerProfiles",
      "outputs": [
        {
          "internalType": "address",
          "name": "farmerAddress",
          "type": "address"
        },
        {
          "internalType": "string",
          "name": "name",
          "type": "string"
        },
        {
          "internalType": "string",
          "name": "location",
          "type": "string"
        },
        {
          "internalType": "uint256",
          "name": "totalBatchesSubmitted",
          "type": "uint256"
        },
        {
          "internalType": "uint256",
          "name": "totalQualityScore",
          "type": "uint256"
        },
        {
          "internalType": "uint256",
          "name": "loyaltyPoints",
          "type": "uint256"
        },
        {
          "internalType": "uint256",
          "name": "totalEarnings",
          "type": "uint256"
        },
        {
          "internalType": "uint256",
          "name": "joinedAt",
          "type": "uint256"
        },
        {
          "internalType": "uint256",
          "name": "lastActiveAt",
          "type": "uint256"
        },
        {
          "internalType": "bool",
          "name": "isVerified",
          "type": "bool"
        }
      ],
      "stateMutability": "view",
      "type": "function"
    },
    {
      "inputs": [
        {
          "internalType": "address",
          "name": "",
          "type": "address"
        },
        {
          "internalType": "uint256",
          "name": "",
          "type": "uint256"
        }
      ],
      "name": "farmerRewards",
      "outputs": [
        {
          "internalType": "uint256",
          "name": "",
          "type": "uint256"
        }
      ],
      "stateMutability": "view",
      "type": "function"
    },
    {
      "inputs": [
        {
          "internalType": "address",
          "name": "_farmer",
          "type": "address"
        }
      ],
      "name": "getAverageQualityScore",
      "outputs": [
        {
          "internalType": "uint256",
          "name": "",
          "type": "uint256"
        }
      ],
      "stateMutability": "view",
      "type": "function"
    },
    {
      "inputs": [
        {
          "internalType": "address",
          "name": "_farmer",
          "type": "address"
        }
      ],
      "name": "getFarmerContributions",
      "outputs": [
        {
          "components": [
            {
              "internalType": "uint256",
              "name": "batchTokenId",
              "type": "uint256"
            },
            {
              "internalType": "uint256",
              "name": "qualityScore",
              "type": "uint256"
            },
            {
              "internalType": "uint256",
              "name": "pointsEarned",
              "type": "uint256"
            },
            {
              "internalType": "uint256",
              "name": "timestamp",
              "type": "uint256"
            }
          ],
          "internalType": "struct RewardsContract.QualityContribution[]",
          "name": "",
          "type": "tuple[]"
        }
      ],
      "stateMutability": "view",
      "type": "function"
    },
    {
      "inputs": [
        {
          "internalType": "address",
          "name": "_farmer",
          "type": "address"
        }
      ],
      "name": "getFarmerProfile",
      "outputs": [
        {
          "components": [
            {
              "internalType": "address",
              "name": "farmerAddress",
              "type": "address"
            },
            {
              "internalType": "string",
              "name": "name",
              "type": "string"
            },
            {
              "internalType": "string",
              "name": "location",
              "type": "string"
            },
            {
              "internalType": "uint256",
              "name": "totalBatchesSubmitted",
              "type": "uint256"
            },
            {
              "internalType": "uint256",
              "name": "totalQualityScore",
              "type": "uint256"
            },
            {
              "internalType": "uint256",
              "name": "loyaltyPoints",
              "type": "uint256"
            },
            {
              "internalType": "uint256",
              "name": "totalEarnings",
              "type": "uint256"
            },
            {
              "internalType": "uint256",
              "name": "joinedAt",
              "type": "uint256"
            },
            {
              "internalType": "uint256",
              "name": "lastActiveAt",
              "type": "uint256"
            },
            {
              "components": [
                {
                  "internalType": "enum RewardsContract.BadgeType",
                  "name": "badgeType",
                  "type": "uint8"
                },
                {
                  "internalType": "string",
                  "name": "name",
                  "type": "string"
                },
                {
                  "internalType": "uint256",
                  "name": "earnedAt",
                  "type": "uint256"
                },
                {
                  "internalType": "string",
                  "name": "description",
                  "type": "string"
                }
              ],
              "internalType": "struct RewardsContract.Badge[]",
              "name": "badges",
              "type": "tuple[]"
            },
            {
              "internalType": "bool",
              "name": "isVerified",
              "type": "bool"
            }
          ],
          "internalType": "struct RewardsContract.FarmerProfile",
          "name": "",
          "type": "tuple"
        }
      ],
      "stateMutability": "view",
      "type": "function"
    },
    {
      "inputs": [
        {
          "internalType": "address",
          "name": "_farmer",
          "type": "address"
        }
      ],
      "name": "getFarmerRewards",
      "outputs": [
        {
          "components": [
            {
              "internalType": "uint256",
              "name": "id",
              "type": "uint256"
            },
            {
              "internalType": "address",
              "name": "recipient",
              "type": "address"
            },
            {
              "internalType": "enum RewardsContract.RewardType",
              "name": "rewardType",
              "type": "uint8"
            },
            {
              "internalType": "uint256",
              "name": "amount",
              "type": "uint256"
            },
            {
              "internalType": "enum RewardsContract.RewardStatus",
              "name": "status",
              "type": "uint8"
            },
            {
              "internalType": "string",
              "name": "description",
              "type": "string"
            },
            {
              "internalType": "uint256",
              "name": "createdAt",
              "type": "uint256"
            },
            {
              "internalType": "uint256",
              "name": "distributedAt",
              "type": "uint256"
            }
          ],
          "internalType": "struct RewardsContract.Reward[]",
          "name": "",
          "type": "tuple[]"
        }
      ],
      "stateMutability": "view",
      "type": "function"
    },
    {
      "inputs": [
        {
          "internalType": "address",
          "name": "_farmer",
          "type": "address"
        }
      ],
      "name": "getLeaderboardPosition",
      "outputs": [
        {
          "internalType": "uint256",
          "name": "position",
          "type": "uint256"
        }
      ],
      "stateMutability": "pure",
      "type": "function"
    },
    {
      "inputs": [
        {
          "internalType": "uint256",
          "name": "_rewardId",
          "type": "uint256"
        }
      ],
      "name": "getReward",
      "outputs": [
        {
          "components": [
            {
              "internalType": "uint256",
              "name": "id",
              "type": "uint256"
            },
            {
              "internalType": "address",
              "name": "recipient",
              "type": "address"
            },
            {
              "internalType": "enum RewardsContract.RewardType",
              "name": "rewardType",
              "type": "uint8"
            },
            {
              "internalType": "uint256",
              "name": "amount",
              "type": "uint256"
            },
            {
              "internalType": "enum RewardsContract.RewardStatus",
              "name": "status",
              "type": "uint8"
            },
            {
              "internalType": "string",
              "name": "description",
              "type": "string"
            },
            {
              "internalType": "uint256",
              "name": "createdAt",
              "type": "uint256"
            },
            {
              "internalType": "uint256",
              "name": "distributedAt",
              "type": "uint256"
            }
          ],
          "internalType": "struct RewardsContract.Reward",
          "name": "",
          "type": "tuple"
        }
      ],
      "stateMutability": "view",
      "type": "function"
    },
    {
      "inputs": [],
      "name": "goldBadgeThreshold",
      "outputs": [
        {
          "internalType": "uint256",
          "name": "",
          "type": "uint256"
        }
      ],
      "stateMutability": "view",
      "type": "function"
    },
    {
      "inputs": [],
      "name": "nextRewardId",
      "outputs": [
        {
          "internalType": "uint256",
          "name": "",
          "type": "uint256"
        }
      ],
      "stateMutability": "view",
      "type": "function"
    },
    {
      "inputs": [],
      "name": "owner",
      "outputs": [
        {
          "internalType": "address",
          "name": "",
          "type": "address"
        }
      ],
      "stateMutability": "view",
      "type": "function"
    },
    {
      "inputs": [],
      "name": "platinumBadgeThreshold",
      "outputs": [
        {
          "internalType": "uint256",
          "name": "",
          "type": "uint256"
        }
      ],
      "stateMutability": "view",
      "type": "function"
    },
    {
      "inputs": [],
      "name": "pointsPerQualityPoint",
      "outputs": [
        {
          "internalType": "uint256",
          "name": "",
          "type": "uint256"
        }
      ],
      "stateMutability": "view",
      "type": "function"
    },
    {
      "inputs": [
        {
          "internalType": "uint256",
          "name": "_batchTokenId",
          "type": "uint256"
        },
        {
          "internalType": "uint256",
          "name": "_qualityScore",
          "type": "uint256"
        },
        {
          "internalType": "address",
          "name": "_farmer",
          "type": "address"
        }
      ],
      "name": "recordQualityScore",
      "outputs": [],
      "stateMutability": "nonpayable",
      "type": "function"
    },
    {
      "inputs": [
        {
          "internalType": "uint256",
          "name": "_points",
          "type": "uint256"
        },
        {
          "internalType": "uint256",
          "name": "_rewardValue",
          "type": "uint256"
        }
      ],
      "name": "redeemPoints",
      "outputs": [],
      "stateMutability": "nonpayable",
      "type": "function"
    },
    {
      "inputs": [],
      "name": "referralBonusPoints",
      "outputs": [
        {
          "internalType": "uint256",
          "name": "",
          "type": "uint256"
        }
      ],
      "stateMutability": "view",
      "type": "function"
    },
    {
      "inputs": [
        {
          "internalType": "address",
          "name": "",
          "type": "address"
        },
        {
          "internalType": "address",
          "name": "",
          "type": "address"
        }
      ],
      "name": "referrals",
      "outputs": [
        {
          "internalType": "bool",
          "name": "",
          "type": "bool"
        }
      ],
      "stateMutability": "view",
      "type": "function"
    },
    {
      "inputs": [
        {
          "internalType": "string",
          "name": "_name",
          "type": "string"
        },
        {
          "internalType": "string",
          "name": "_location",
          "type": "string"
        }
      ],
      "name": "registerFarmer",
      "outputs": [],
      "stateMutability": "nonpayable",
      "type": "function"
    },
    {
      "inputs": [
        {
          "internalType": "address",
          "name": "",
          "type": "address"
        }
      ],
      "name": "registeredFarmers",
      "outputs": [
        {
          "internalType": "bool",
          "name": "",
          "type": "bool"
        }
      ],
      "stateMutability": "view",
      "type": "function"
    },
    {
      "inputs": [],
      "name": "renounceOwnership",
      "outputs": [],
      "stateMutability": "nonpayable",
      "type": "function"
    },
    {
      "inputs": [
        {
          "internalType": "enum RewardsContract.RewardType",
          "name": "",
          "type": "uint8"
        }
      ],
      "name": "rewardPools",
      "outputs": [
        {
          "internalType": "uint256",
          "name": "totalAllocated",
          "type": "uint256"
        },
        {
          "internalType": "uint256",
          "name": "totalDistributed",
          "type": "uint256"
        },
        {
          "internalType": "uint256",
          "name": "remaining",
          "type": "uint256"
        },
        {
          "internalType": "uint256",
          "name": "minQualifyingScore",
          "type": "uint256"
        }
      ],
      "stateMutability": "view",
      "type": "function"
    },
    {
      "inputs": [
        {
          "internalType": "uint256",
          "name": "",
          "type": "uint256"
        }
      ],
      "name": "rewards",
      "outputs": [
        {
          "internalType": "uint256",
          "name": "id",
          "type": "uint256"
        },
        {
          "internalType": "address",
          "name": "recipient",
          "type": "address"
        },
        {
          "internalType": "enum RewardsContract.RewardType",
          "name": "rewardType",
          "type": "uint8"
        },
        {
          "internalType": "uint256",
          "name": "amount",
          "type": "uint256"
        },
        {
          "internalType": "enum RewardsContract.RewardStatus",
          "name": "status",
          "type": "uint8"
        },
        {
          "internalType": "string",
          "name": "description",
          "type": "string"
        },
        {
          "internalType": "uint256",
          "name": "createdAt",
          "type": "uint256"
        },
        {
          "internalType": "uint256",
          "name": "distributedAt",
          "type": "uint256"
        }
      ],
      "stateMutability": "view",
      "type": "function"
    },
    {
      "inputs": [
        {
          "internalType": "uint256",
          "name": "_points",
          "type": "uint256"
        }
      ],
      "name": "setPointsPerQualityPoint",
      "outputs": [],
      "stateMutability": "nonpayable",
      "type": "function"
    },
    {
      "inputs": [],
      "name": "silverBadgeThreshold",
      "outputs": [
        {
          "internalType": "uint256",
          "name": "",
          "type": "uint256"
        }
      ],
      "stateMutability": "view",
      "type": "function"
    },
    {
      "inputs": [],
      "name": "totalFarmers",
      "outputs": [
        {
          "internalType": "uint256",
          "name": "",
          "type": "uint256"
        }
      ],
      "stateMutability": "view",
      "type": "function"
    },
    {
      "inputs": [
        {
          "internalType": "address",
          "name": "newOwner",
          "type": "address"
        }
      ],
      "name": "transferOwnership",
      "outputs": [],
      "stateMutability": "nonpayable",
      "type": "function"
    },
    {
      "inputs": [
        {
          "internalType": "address",
          "name": "_farmer",
          "type": "address"
        }
      ],
      "name": "verifyFarmer",
      "outputs": [],
      "stateMutability": "nonpayable",
      "type": "function"
    }
  ],
  "bytecode": "0x6080604090808252346101155733156100ff575060008054336001600160a01b0319821681178355835192916001600160a01b03167f8be0079c531659141344cd1fd0a4f28419497f9722a3daafe3b4186f6b6457e08380a360016008556009819055600a80556101f4600b556103e8600c55611388600d55613a98600e5561c350600f55620186a0601055608082016001600160401b038111838210176100eb579060039184528083526020830181815284840190828252856060860193808552808052600760205220945185555160018501555160028401555191015551612943908161011b8239f35b634e487b7160e01b82526041600452602482fd5b631e4fbdf760e01b815260006004820152602490fd5b600080fdfe6080604052600436101561001257600080fd5b60003560e01c80630708d619146120b65780630b5c3f8714611ea8578063119707b514611e8a5780631c08694714611e6c5780631c4b774b14611db157806321a8a21214611d93578063235db9f514611d2e578063314596b2146118555780633e27bb69146117fc5780634410b6b61461151357806346698bf2146114935780635557642c1461146e5780636017509b14611450578063635788a2146110b6578063715018a61461105d57806382c88e411461103c57806383c5b0aa14610ffd5780638da5cb5b14610fd45780639271422414610f02578063973b35c314610ee4578063a212458014610ec6578063b92835d814610e70578063bf956a3e14610e52578063c2e7043114610b25578063ca2a9ea714610afa578063d7e01a9d14610adc578063dcf7c4b914610536578063ee94ced2146104dd578063f064997c146104bf578063f2fde38b14610431578063f301af4214610381578063f761e0791461031e5763fd831f551461018757600080fd5b3461031957602080600319360112610319576001600160a01b03806101aa6121b2565b1660005260038083526040600020918254916101c583612504565b936101d3604051958661233e565b8385526101df84612504565b601f19018660005b8281106103035750505060005b84811061025957604080518881528751818a01819052600092600582901b83018101918a8c01918c9085015b82871061022d5785850386f35b909192938280610249600193603f198a82030186528851612240565b9601920196019592919092610220565b80610266600192846123b5565b905490851b1c600052600680895260406000209060405191610287836122d0565b80548352848101548881168c8501526102c660ff6102ae8160a094851c1660408801612567565b60028401546060870152898401541660808601612573565b6102d260048301612446565b90840152600581015460c0840152015460e08201526102f182896128cd565b526102fc81886128cd565b50016101f4565b61030b612528565b82828a0101520187906101e7565b600080fd5b3461031957602036600319011261031957600435600581101561031957610344906124eb565b805461037d6001830154926003600282015491015490604051948594859094939260609260808301968352602083015260408201520152565b0390f35b34610319576020366003190112610319576004356000526006602052610405604060002080549060018101549161042260028301549160ff600385015416906104146103cf60048701612446565b926006600588015497015495604051998a99610100958b5260018060a01b03811660208c015260ff60408c019160a01c166121de565b606089015260808801906121eb565b8060a087015285019061221b565b9160c084015260e08301520390f35b346103195760203660031901126103195761044a6121b2565b6104526128e1565b6001600160a01b039081169081156104a657600054826bffffffffffffffffffffffff60a01b821617600055167f8be0079c531659141344cd1fd0a4f28419497f9722a3daafe3b4186f6b6457e0600080a3005b604051631e4fbdf760e01b815260006004820152602490fd5b34610319576000366003190112610319576020600854604051908152f35b346103195760403660031901126103195760043560058110156103195761053260026105296024359361050e6128e1565b610517816124eb565b61052286825461251b565b90556124eb565b0191825461251b565b9055005b34610319576060366003190112610319576044356001600160a01b0381168103610319576105626128e1565b6001600160a01b0381166000908152600260205260409020546105879060ff1661257f565b6001600160a01b0381166000908152600160205260409020600a549190602435808402819004841490151715610ac65760018060a01b03821660005260046020526040600020604051906105da826122b5565b60043582526024356020830152846024350260408301524260608301528054600160401b8110156108f057610614916001820181556123f0565b9190916108da57606081600392518455602081015160018501556040810151600285015501519101556003810161064b815461284b565b90556004810161065e602435825461251b565b9055600581016106738460243502825461251b565b809155426008830155600080916009840154925b838110610a75575060009160405161069e81612308565b600081529160105481101580610a62575b1561091c57505050506005916040516106c781612323565b6007815266111a585b5bdb9960ca1b6020820152905b600984101561090657836107a7575b6040805160043581526024356020820181905288029181019190915242606082015286907ff6d2806a1f172dfdaba78c50c3a7363a717a3a1ce8053bfd6b99ab0288a0e6f29060a09088906001600160a01b038216907f7660c9323f7b1548041569735d659b99b33e9f48b7f1b6dd202122536043d24890608090a26040519360243502845260606020850152600d60608501526c5175616c6974792073636f726560981b6080850152426040850152600180831b031692a2005b60409492939451936107fe60398685516107c8816020840160208a016121f8565b81017f206261646765206561726e656420666f72206c6f79616c747900000000000000602082015203601981018852018661233e565b6040519461080b866122b5565b610815878761285a565b8360208701524260408701526060860152600160401b8110156108f05780600161084892016009840155600983016123f0565b6108da577ff6d2806a1f172dfdaba78c50c3a7363a717a3a1ce8053bfd6b99ab0288a0e6f2956108c97f0537140f1966b3b75c8239ab8af0483335f1dda98b52d64ee7e010c46023d8bc936108a260a0986108b895612623565b600180891b0390541694604051938480946123e3565b60606020840152606083019061221b565b4260408301520390a29184806106ec565b634e487b7160e01b600052600060045260246000fd5b634e487b7160e01b600052604160045260246000fd5b634e487b7160e01b600052602160045260246000fd5b600f5481101580610a4f575b1561095c575050505060049160405161094081612323565b6008815267506c6174696e756d60c01b6020820152905b6106dd565b600e5481101580610a3c575b15610997575050505060039160405161098081612323565b600481526311dbdb1960e21b6020820152906106dd565b600d5481101580610a29575b156109d457505050506002916040516109bb81612323565b600681526529b4b63b32b960d11b6020820152906106dd565b600c959293955411159081610a15575b5015610957579250506001916040516109fc81612323565b600681526542726f6e7a6560d01b6020820152906106dd565b9050600981101561090657600111876109e4565b50600982101561090657600282106109a3565b5060098210156109065760038210610968565b5060098210156109065760048210610928565b50600982101561090657600582106106af565b60ff610a8482600988016123f0565b5054166009841015610906576009811015610906578310610aa8575b600101610687565b9150600160ff610abb84600988016123f0565b505416929050610aa0565b634e487b7160e01b600052601160045260246000fd5b34610319576000366003190112610319576020601054604051908152f35b34610319576020366003190112610319576020610b1d610b186121b2565b61289b565b604051908152f35b34610319576040366003190112610319576004356024803590336000526001906020918083526005604060002001805490868210610e1857868203918211610e03575560085491610b758361284b565b60085560405191610b85836122d0565b8383528483019033825260408401928184526060850191888352608086016000815260405193610bb485612323565b60118552702837b4b73a39903932b232b6b83a34b7b760791b8a86015260a0880194855260c088019542875260e0890197600089528a60005260068c52604060002099518a55848a019160018060a01b03905116825491516005811015610dee576001600160a81b03199092161760a09190911b60ff60a01b161790555160028801555160038701906004811015610dd95760ff801983541691161790556004860192518051926001600160401b038411610dc55750610c74845461240c565b601f8111610d8a575b508891601f8411600114610d1b57508260069593610cd99998979593610cba93600092610d10575b50508160011b916000199060031b1c19161790565b90555b5160058401555191015533600052600383526040600020612866565b6040519283528201524260408201527f90138e15f43ce1520bd445151b279c8047b276f6dc4d41f9fae44cd7ecfe4e7e60603392a2005b015190508d80610ca5565b9291601f19831691856000528a6000209260005b8c828210610d765750509160069795939185610cd99c9b9a98969410610d5d575b505050811b019055610cbd565b015160001960f88460031b161c191690558c8080610d50565b838501518655948701949384019301610d2f565b610db590856000528a600020601f860160051c8101918c8710610dbb575b601f0160051c01906125c3565b8b610c7d565b9091508190610da8565b634e487b7160e01b60009081526041600452fd5b83634e487b7160e01b60005260216004526000fd5b87634e487b7160e01b60005260216004526000fd5b83634e487b7160e01b60005260116004526000fd5b60405162461bcd60e51b81526004810186905260138186015272496e73756666696369656e7420706f696e747360681b6044820152606490fd5b34610319576000366003190112610319576020600d54604051908152f35b3461031957604036600319011261031957610e896121b2565b610e916121c8565b9060018060a01b03809116600052600560205260406000209116600052602052602060ff604060002054166040519015158152f35b34610319576000366003190112610319576020600e54604051908152f35b34610319576000366003190112610319576020600c54604051908152f35b34610319576020366003190112610319576001600160a01b0380610f246121b2565b166000526001602052604060002090815416610f4260018301612446565b91610f4f60028201612446565b60038201549160048101546005820154600683015490600784015492610fa860ff600a60088801549701541696610f9a6040519b8c809c6020610140928392815201528c019061221b565b908a820360408c015261221b565b966060890152608088015260a087015260c086015260e085015261010084015215156101208301520390f35b34610319576000366003190112610319576000546040516001600160a01b039091168152602090f35b34610319576020366003190112610319576001600160a01b0361101e6121b2565b166000526002602052602060ff604060002054166040519015158152f35b34610319576020366003190112610319576110556128e1565b600435600a55005b34610319576000366003190112610319576110766128e1565b600080546001600160a01b0319811682556001600160a01b03167f8be0079c531659141344cd1fd0a4f28419497f9722a3daafe3b4186f6b6457e08280a3005b34610319576080366003190112610319576110cf6121b2565b60056024351015610319576064356001600160401b038111610319576110f990369060040161235f565b906111026128e1565b6008549061110f8261284b565b6008556040519261111f846122d0565b8284526001600160a01b038216602085015261114060243560408601612567565b60443560608501526002608085015260a08401524260c08401524260e08401528160005260066020526040600020835181556001810160018060a01b03602086015116815490604087015160058110156109065760ff60a01b9060a01b16916affffffffffffffffffffff60a81b16171790556060840151600282015560038101608085015160048110156109065760ff8019835416911617905560a08401519384516001600160401b0381116108f057602095611201600485015461240c565b601f811161141d575b508690601f83116001146113aa578260e093600695936112409360009261139f5750508160011b916000199060031b1c19161790565b60048501555b60c08101516005850155015191015560018060a01b03811660005260038352611273826040600020612866565b6024356113555760018060a01b03811660005260018352600560406000200161129f604435825461251b565b90555b60016112af6024356124eb565b016112bd604435825461251b565b90556040516112ce816024356121de565b604435818501524260408201526001600160a01b0382169083907f5f4fe0e94e465060f3caccac30af8e64fb316f7724d6060547b9df64ec39c77e90606090a360408051604435815242858201526001600160a01b039092169183917f602ab809fa82d3a742a4f9a33cdd154988d8b0f578ee4dc91de3dc412bf026b991a3604051908152f35b6001602435148015611393575b156112a25760018060a01b03811660005260018352600660406000200161138c604435825461251b565b90556112a2565b50600460243514611362565b015190508a80610ca5565b9060048501600052876000209160005b601f19851681106114065750926006949260019260e09583601f198116106113ed575b505050811b016004850155611246565b015160001960f88460031b161c191690558980806113dd565b9192896001819286850151815501940192016113ba565b61144a906004860160005288600020601f850160051c8101918a8610610dbb57601f0160051c01906125c3565b8761120a565b34610319576000366003190112610319576020600954604051908152f35b34610319576020366003190112610319576114876121b2565b50602060405160008152f35b34610319576040366003190112610319576114ac6121b2565b6001600160a01b03166000908152600460205260409020805460243590811015610319576114d9916123f0565b50805461037d6001830154926003600282015491015490604051948594859094939260609260808301968352602083015260408201520152565b346103195760203660031901126103195761152c6121b2565b600061014060405161153d816122ec565b82815260606020820152606060408201528260608201528260808201528260a08201528260c08201528260e0820152826101008201526060610120820152015260018060a01b0316600052600160205260406000206040519061159f826122ec565b80546001600160a01b031682526115b860018201612446565b60208301526115c960028201612446565b60408301526003810154606083015260048101546080830152600581015460a0830152600681015460c0830152600781015460e08301526008810154610100830152600981015461161981612504565b90611627604051928361233e565b808252602082016009840160005260206000206000915b8383106117a3578660ff600a8888610120850152015416151561014082015260405180916020825260018060a01b0381511660208301526116906020820151610160604085015261018084019061221b565b906116ad604082015192601f19938486830301606087015261221b565b9160608201516080850152608082015160a085015260a082015160c085015260c082015160e085015260e0820151610100850152610100820151610120850152610120820151928185820301610140860152835190818152602081016020808460051b8401019601936000925b8484106117355761014087015115156101608a015288880389f35b919395968193959850602061179082600194868495030188528b519061175c8183516123e3565b606061177585840151608087850152608084019061221b565b9260408101516040840152015190606081840391015261221b565b990194019401918897969593949161171a565b600460206001926040516117b6816122b5565b6117c460ff8754168261285a565b6117cf858701612446565b83820152600286015460408201526117e960038701612446565b606082015281520192019201919061163e565b34610319576040366003190112610319576118156121b2565b6001600160a01b031660009081526003602052604090208054602435919082101561031957602091611846916123b5565b90549060031b1c604051908152f35b34610319576040366003190112610319576004356001600160401b0381116103195761188590369060040161235f565b6024356001600160401b038111610319576118a490369060040161235f565b9033600052600260205260ff60406000205416611cf4576040516118c781612308565b60008152604051926118d8846122ec565b33845282602085015260408401526000606084015260006080840152606460a0840152600060c08401524260e084015242610100840152610120830152600061014083015233600052600160205260406000209060018060a01b038351166bffffffffffffffffffffffff60a01b83541617825560208301519283516001600160401b0381116108f05761196f600185015461240c565b601f8111611cbf575b506020601f8211600114611c505781906119ab93949596600092611ba15750508160011b916000199060031b1c19161790565b60018401555b60408101519283516001600160401b0381116108f0576119d4600283015461240c565b601f8111611c1b575b506020601f8211600114611bac578190611a1093949596600092611ba15750508160011b916000199060031b1c19161790565b60028201555b6003606083015160038301556080830151600483015560a0830151600583015560c0830151600683015560e08301516007830155610100830151600883015560098201610120840151805192600160401b84116108f057825490848455818510611b3a575b50506020019060005260206000206000915b838310611b1c578686610140600a880191015115159060ff199160ff8383541691161790553360005260026020526001604060002091825416179055611ad460095461284b565b6009557f9e6c0ba7b243f2832f486b0f05ab87adc71f805a3ed13de7d41274c0fd9e2201611b0d6040519260408452604084019061221b565b914260208201528033930390a2005b6004602082611b2e6001945186612623565b01920192019190611a8d565b6001600160fe1b038281168303610ac65785168503610ac6578360005260206000209160021b8201918560021b015b828110611b765750611a7b565b80600060049255611b89600182016125da565b60006002820155611b9b8382016125da565b01611b69565b015190508680610ca5565b6002830160005260206000209060005b601f1984168110611c03575060019394959683601f19811610611bea575b505050811b016002820155611a16565b015160001960f88460031b161c19169055858080611bda565b9091602060018192858b015181550193019101611bbc565b611c4a90600284016000526020600020601f840160051c81019160208510610dbb57601f0160051c01906125c3565b856119dd565b6001850160005260206000209060005b601f1984168110611ca7575060019394959683601f19811610611c8e575b505050811b0160018401556119b1565b015160001960f88460031b161c19169055858080611c7e565b9091602060018192858b015181550193019101611c60565b611cee90600186016000526020600020601f840160051c81019160208510610dbb57601f0160051c01906125c3565b85611978565b60405162461bcd60e51b8152602060048201526012602482015271105b1c9958591e481c9959da5cdd195c995960721b6044820152606490fd5b3461031957602036600319011261031957611d476121b2565b611d4f6128e1565b6001600160a01b0316600081815260026020526040902054611d739060ff1661257f565b6000526001602052600a604060002001600160ff19825416179055600080f35b34610319576000366003190112610319576020600b54604051908152f35b3461031957602036600319011261031957611dca612528565b50600435600052600660205261037d6040600020600660405191611ded836122d0565b8054835260018101546001600160a01b0381166020850152611e189060a01c60ff1660408501612567565b60028101546060840152611e3660ff60038301541660808501612573565b611e4260048201612446565b60a0840152600581015460c0840152015460e0820152604051918291602083526020830190612240565b34610319576000366003190112610319576020600f54604051908152f35b34610319576000366003190112610319576020600a54604051908152f35b3461031957604036600319011261031957611ec16121b2565b611ec96121c8565b611ed16128e1565b60018060a01b0380921691826000526020916002835260ff60406000205416156120715716806000526002825260ff604060002054161561202c578260005260058252604060002081600052825260ff60406000205416611ff4577ff6d2806a1f172dfdaba78c50c3a7363a717a3a1ce8053bfd6b99ab0288a0e6f29160a091846000526005825260406000208160005282526040600020600160ff19825416179055600b548560005260018352611f92600560406000200191825461251b565b9055847f481bd573d463f65f2952d83f95ade4ed65f27d7b2f7e7a8cf0ee277203e6fd7283604051428152a36060600b5491604051928352820152600e60608201526d526566657272616c20626f6e757360901b6080820152426040820152a2005b60405162461bcd60e51b815260048101839052601060248201526f105b1c9958591e481c9959995c9c995960821b6044820152606490fd5b60405162461bcd60e51b815260048101839052601760248201527f5265666572726564206e6f7420726567697374657265640000000000000000006044820152606490fd5b60405162461bcd60e51b815260048101849052601760248201527f5265666572726572206e6f7420726567697374657265640000000000000000006044820152606490fd5b3461031957602080600319360112610319576001600160a01b036120d86121b2565b166000526004815260406000209081546120f181612504565b906120ff604051928361233e565b8082528282018094600052836000206000915b8383106121725760408051878152865181890181905289928201908960005b82811061213e5784840385f35b8551805185528083015185840152604080820151908601526060908101519085015294810194608090930192600101612131565b600486600192604051612184816122b5565b8554815284860154838201526002860154604082015260038601546060820152815201920192019190612112565b600435906001600160a01b038216820361031957565b602435906001600160a01b038216820361031957565b9060058210156109065752565b9060048210156109065752565b60005b83811061220b5750506000910152565b81810151838201526020016121fb565b90602091612234815180928185528580860191016121f8565b601f01601f1916010190565b9060e0806122a26101008551855260018060a01b036020870151166020860152612272604087015160408701906121de565b6060860151606086015261228e608087015160808701906121eb565b60a0860151908060a087015285019061221b565b9360c081015160c0850152015191015290565b608081019081106001600160401b038211176108f057604052565b61010081019081106001600160401b038211176108f057604052565b61016081019081106001600160401b038211176108f057604052565b602081019081106001600160401b038211176108f057604052565b604081019081106001600160401b038211176108f057604052565b90601f801991011681019081106001600160401b038211176108f057604052565b81601f82011215610319578035906001600160401b0382116108f05760405192612393601f8401601f19166020018561233e565b8284526020838301011161031957816000926020809301838601378301015290565b80548210156123cd5760005260206000200190600090565b634e487b7160e01b600052603260045260246000fd5b9060098210156109065752565b80548210156123cd5760005260206000209060021b0190600090565b90600182811c9216801561243c575b602083101461242657565b634e487b7160e01b600052602260045260246000fd5b91607f169161241b565b906040519182600082546124598161240c565b908184526020946001916001811690816000146124c9575060011461248a575b5050506124889250038361233e565b565b600090815285812095935091905b8183106124b15750506124889350820101388080612479565b85548884018501529485019487945091830191612498565b9250505061248894925060ff191682840152151560051b820101388080612479565b6005811015610906576000526007602052604060002090565b6001600160401b0381116108f05760051b60200190565b91908201809211610ac657565b60405190612535826122d0565b8160e0600091828152826020820152826040820152826060820152826080820152606060a08201528260c08201520152565b60058210156109065752565b60048210156109065752565b1561258657565b60405162461bcd60e51b815260206004820152601560248201527411985c9b595c881b9bdd081c9959da5cdd195c9959605a1b6044820152606490fd5b8181106125ce575050565b600081556001016125c3565b6125e4815461240c565b90816125ee575050565b81601f60009311600114612600575055565b90808391825261261f601f60208420940160051c8401600185016125c3565b5555565b815160098110156109065760ff801983541691161781556001908181019060209283850151918251936001600160401b03948581116108f057612666825461240c565b94601f9586811161281d575b5087908683116001146127b0578260609593600395936126a8936000926127095750508160011b916000199060031b1c19161790565b90555b60408801516002820155019501519384519384116108f0576126cd865461240c565b838111612778575b50809284116001146127145750508190612705936000926127095750508160011b916000199060031b1c19161790565b9055565b015190503880610ca5565b91909383601f1981168760005284600020946000905b8883831061275e5750505010612745575b505050811b019055565b015160001960f88460031b161c1916905538808061273b565b85870151885590960195948501948793509081019061272a565b6127a19087600052826000208580880160051c8201928589106127a7575b0160051c01906125c3565b386126d5565b92508192612796565b859291601f19831691856000528a6000209260005b8c82821061280757505091606097959391856003989694106127ef575b505050811b0190556126ab565b015160001983881b60f8161c191690553880806127e2565b8385015186558a979095019493840193016127c5565b6128459084600052896000208880860160051c8201928c87106127a7570160051c01906125c3565b38612672565b6000198114610ac65760010190565b60098210156109065752565b8054600160401b8110156108f057612883916001820181556123b5565b819291549060031b91821b91600019901b1916179055565b6001600160a01b0316600090815260016020526040902060038101549081156128c657600401540490565b5050600090565b80518210156123cd5760209160051b010190565b6000546001600160a01b031633036128f557565b60405163118cdaa760e01b8152336004820152602490fdfea2646970667358221220b4b27ff43db219c9373e1cd729548a0a3a24d4798fb2a9a3fbc35f39f72ac07f64736f6c63430008180033",
  "linkReferences": {},
  "deployedLinkReferences": {}
}