{
  "_format": "hh-sol-artifact-1",
  "contractName": "NotificationContract",
  "sourceName": "contracts/Notification.sol",
  "abi": [
    {
      "anonymous": false,
      "inputs": [
        {
          "indexed": true,
          "internalType": "address",
          "name": "recipient",
          "type": "address"
        },
        {
          "indexed": false,
          "internalType": "string",
          "name": "message",
          "type": "string"
        }
      ],
      "name": "NotificationSent",
      "type": "event"
    },
    {
      "inputs": [
        {
          "internalType": "address",
          "name": "_user",
          "type": "address"
        }
      ],
      "name": "getNotifications",
      "outputs": [
        {
          "components": [
            {
              "internalType": "address",
              "name": "recipient",
              "type": "address"
            },
            {
              "internalType": "string",
              "name": "message",
              "type": "string"
            },
            {
              "internalType": "uint256",
              "name": "timestamp",
              "type": "uint256"
            },
            {
              "internalType": "bool",
              "name": "read",
              "type": "bool"
            }
          ],
          "internalType": "struct NotificationContract.Notification[]",
          "name": "",
          "type": "tuple[]"
        }
      ],
      "stateMutability": "view",
      "type": "function"
    },
    {
      "inputs": [
        {
          "internalType": "address",
          "name": "",
          "type": "address"
        },
        {
          "internalType": "uint256",
          "name": "",
          "type": "uint256"
        }
      ],
      "name": "notifications",
      "outputs": [
        {
          "internalType": "address",
          "name": "recipient",
          "type": "address"
        },
        {
          "internalType": "string",
          "name": "message",
          "type": "string"
        },
        {
          "internalType": "uint256",
          "name": "timestamp",
          "type": "uint256"
        },
        {
          "internalType": "bool",
          "name": "read",
          "type": "bool"
        }
      ],
      "stateMutability": "view",
      "type": "function"
    },
    {
      "inputs": [
        {
          "internalType": "address",
          "name": "_recipient",
          "type": "address"
        },
        {
          "internalType": "string",
          "name": "_message",
          "type": "string"
        }
      ],
      "name": "sendNotification",
      "outputs": [],
      "stateMutability": "nonpayable",
      "type": "function"
    }
  ],
  "bytecode": "0x608080604052346100165761071a908161001c8239f35b600080fdfe608060408181526004918236101561001657600080fd5b600090813560e01c90816349f66a2c1461023f5750806365d0bddd146101ab57638a8f63b01461004557600080fd5b346101a857602092836003193601126101a4576001600160a01b03938461006a610524565b16835282815283832092835467ffffffffffffffff8111610191578593929193519261009b838360051b0185610571565b8184528284018096865283862086915b84831061013c575050505050845194818601928287525180935280860190808460051b8801019594975b8489106100e25787870388f35b9091929394958480600192603f198b82030187528951906101166080878451168352848401519080868501528301906106a4565b9187810151888301526060809101511515910152980194019801979190949392946100d5565b83866001928d8d9b999a9b51906101528261053f565b86541681526101628587016105ff565b838201528d60028701549082015260ff60038701541615156060820152815201920192019190969594966100ab565b634e487b7160e01b825260418452602482fd5b5080fd5b80fd5b5090346101a457806003193601126101a4576101c5610524565b6001600160a01b039081168352602083905281832080549193602435928310156101a85750906101f491610593565b509182541690610206600184016105ff565b9260ff600360028301549201541690610230835195869586526080602087015260808601906106a4565b92840152151560608301520390f35b919390503461052057826003193601126105205761025b610524565b9260249182359467ffffffffffffffff9384871161051c573660238801121561051c57868301359480861161050a579088939291602096601f19996102a7898c601f850116018b610571565b818a523684838301011161050657818792858b9301838d01378a01015260018060a01b0380931698898652858852868620908751956102e58761053f565b8b8752898701948b86528988019642885260608901998a528454680100000000000000008110156104f357610321906001968782018155610593565b9990996104e15751166bffffffffffffffffffffffff60a01b89541617885583880195519182519586116104d05750508c8a61035d87546105c5565b91601f8311610488575b915050508c8a92601f86116001146103fc575093806103eb9997946003979482947f2a7838cbc4deb7bf40319be175f9abfbd110b62bcdfd6dea91b9d3fc6b5db2d39f9e9d9b98946103f1575b50501b9160001990871b1c19161790555b516002820155019051151560ff80198354169116179055519282849384528301906106a4565b0390a280f35b0151925038806103b4565b85949593929193168684528b8420935b8181106104735750927f2a7838cbc4deb7bf40319be175f9abfbd110b62bcdfd6dea91b9d3fc6b5db2d39c9b9a98959285926103eb9b9996600399961061045b575b505050811b0190556103c5565b015160001983891b60f8161c1916905538808061044e565b82840151855593860193928c01928c0161040c565b87815220601f860160051c8101918c87106104c6575b601f0160051c019084908f5b8382106104bb5790508c9150610367565b81550184908f6104aa565b909150819061049e565b634e487b7160e01b8f52604190528dfd5b5050634e487b7160e01b8e528d82528dfd5b5050634e487b7160e01b8e52604182528dfd5b8680fd5b50634e487b7160e01b88526041835287fd5b8780fd5b8380fd5b600435906001600160a01b038216820361053a57565b600080fd5b6080810190811067ffffffffffffffff82111761055b57604052565b634e487b7160e01b600052604160045260246000fd5b90601f8019910116810190811067ffffffffffffffff82111761055b57604052565b80548210156105af5760005260206000209060021b0190600090565b634e487b7160e01b600052603260045260246000fd5b90600182811c921680156105f5575b60208310146105df57565b634e487b7160e01b600052602260045260246000fd5b91607f16916105d4565b90604051918260008254610612816105c5565b908184526020946001916001811690816000146106825750600114610643575b50505061064192500383610571565b565b600090815285812095935091905b81831061066a5750506106419350820101388080610632565b85548884018501529485019487945091830191610651565b9250505061064194925060ff191682840152151560051b820101388080610632565b919082519283825260005b8481106106d0575050826000602080949584010152601f8019910116010190565b6020818301810151848301820152016106af56fea2646970667358221220381fe51cd24614cee8a3aff5659a63136821458b2b0330e86b84e8b4c24c7b0164736f6c63430008180033",
  "linkReferences": {},
  "deployedLinkReferences": {}
}