{
  "_format": "hh-sol-artifact-1",
  "contractName": "PriceOracle",
  "sourceName": "contracts/PriceOracle.sol",
  "abi": [
    {
      "anonymous": false,
      "inputs": [
        {
          "indexed": true,
          "internalType": "string",
          "name": "herb",
          "type": "string"
        },
        {
          "indexed": false,
          "internalType": "int256",
          "name": "price",
          "type": "int256"
        }
      ],
      "name": "PriceUpdated",
      "type": "event"
    },
    {
      "inputs": [
        {
          "internalType": "string",
          "name": "_herb",
          "type": "string"
        }
      ],
      "name": "getPrice",
      "outputs": [
        {
          "internalType": "int256",
          "name": "",
          "type": "int256"
        }
      ],
      "stateMutability": "view",
      "type": "function"
    },
    {
      "inputs": [
        {
          "internalType": "string",
          "name": "",
          "type": "string"
        }
      ],
      "name": "lastUpdated",
      "outputs": [
        {
          "internalType": "uint256",
          "name": "",
          "type": "uint256"
        }
      ],
      "stateMutability": "view",
      "type": "function"
    },
    {
      "inputs": [
        {
          "internalType": "string",
          "name": "",
          "type": "string"
        }
      ],
      "name": "prices",
      "outputs": [
        {
          "internalType": "int256",
          "name": "",
          "type": "int256"
        }
      ],
      "stateMutability": "view",
      "type": "function"
    },
    {
      "inputs": [
        {
          "internalType": "string",
          "name": "_herb",
          "type": "string"
        },
        {
          "internalType": "int256",
          "name": "_price",
          "type": "int256"
        }
      ],
      "name": "updatePrice",
      "outputs": [],
      "stateMutability": "nonpayable",
      "type": "function"
    }
  ],
  "bytecode": "0x60808060405234610016576102b5908161001c8239f35b600080fdfe6040608081526004908136101561001557600080fd5b600091823560e01c8063233af1b01461017f5780632a632795146100dd578063524f3889146100a65763c3825f4b1461004d57600080fd5b346100a25760203660031901126100a257803567ffffffffffffffff811161009e5760209361008361008f9386933691016101d6565b90845193848093610254565b90815203019020549051908152f35b8380fd5b8280fd5b50346100a25760203660031901126100a257803567ffffffffffffffff811161009e5760209361008361008f9386933691016101d6565b50346100a257816003193601126100a25780359067ffffffffffffffff821161009e576101306020917f96bcd8c61eef208b976d0b3a236114099b678dc3b78adcaf2e4703ad8b49233a933691016101d6565b6101736024359182865185816101468186610254565b8b81520301902055855161015a8183610254565b9060018252858142930301902055855191828092610254565b0390209351908152a280f35b5091346101d35760203660031901126101d35782359067ffffffffffffffff82116101d3575060206101b881946101c3933691016101d6565b835192838092610254565b6001815203019020549051908152f35b80fd5b81601f820112156102395780359067ffffffffffffffff9283831161023e5760405193601f8401601f19908116603f011685019081118582101761023e576040528284526020838301011161023957816000926020809301838601378301015290565b600080fd5b634e487b7160e01b600052604160045260246000fd5b9081519160005b83811061026c575050016000815290565b806020809284010151818501520161025b56fea26469706673582212202a8f863171b39bfe2cee5184e9f159cf50e84a811df4ee76cbb774ce218191f464736f6c63430008180033",
  "linkReferences": {},
  "deployedLinkReferences": {}
}