{
  "_format": "hh-sol-artifact-1",
  "contractName": "CertificateContract",
  "sourceName": "contracts/Certificate.sol",
  "abi": [
    {
      "anonymous": false,
      "inputs": [
        {
          "indexed": true,
          "internalType": "bytes32",
          "name": "certId",
          "type": "bytes32"
        },
        {
          "indexed": false,
          "internalType": "uint256",
          "name": "batchId",
          "type": "uint256"
        },
        {
          "indexed": false,
          "internalType": "string",
          "name": "certType",
          "type": "string"
        }
      ],
      "name": "CertificateIssued",
      "type": "event"
    },
    {
      "anonymous": false,
      "inputs": [
        {
          "indexed": true,
          "internalType": "bytes32",
          "name": "certId",
          "type": "bytes32"
        }
      ],
      "name": "CertificateRevoked",
      "type": "event"
    },
    {
      "inputs": [
        {
          "internalType": "bytes32",
          "name": "",
          "type": "bytes32"
        }
      ],
      "name": "certificates",
      "outputs": [
        {
          "internalType": "uint256",
          "name": "batchTokenId",
          "type": "uint256"
        },
        {
          "internalType": "string",
          "name": "certType",
          "type": "string"
        },
        {
          "internalType": "string",
          "name": "issuer",
          "type": "string"
        },
        {
          "internalType": "string",
          "name": "documentHash",
          "type": "string"
        },
        {
          "internalType": "uint256",
          "name": "issueDate",
          "type": "uint256"
        },
        {
          "internalType": "uint256",
          "name": "expiryDate",
          "type": "uint256"
        },
        {
          "internalType": "bool",
          "name": "valid",
          "type": "bool"
        }
      ],
      "stateMutability": "view",
      "type": "function"
    },
    {
      "inputs": [
        {
          "internalType": "bytes32",
          "name": "_certId",
          "type": "bytes32"
        }
      ],
      "name": "isValid",
      "outputs": [
        {
          "internalType": "bool",
          "name": "",
          "type": "bool"
        }
      ],
      "stateMutability": "view",
      "type": "function"
    },
    {
      "inputs": [
        {
          "internalType": "uint256",
          "name": "_batchId",
          "type": "uint256"
        },
        {
          "internalType": "string",
          "name": "_type",
          "type": "string"
        },
        {
          "internalType": "string",
          "name": "_issuer",
          "type": "string"
        },
        {
          "internalType": "uint256",
          "name": "_validityDays",
          "type": "uint256"
        }
      ],
      "name": "issueCertificate",
      "outputs": [
        {
          "internalType": "bytes32",
          "name": "",
          "type": "bytes32"
        }
      ],
      "stateMutability": "nonpayable",
      "type": "function"
    },
    {
      "inputs": [
        {
          "internalType": "bytes32",
          "name": "_certId",
          "type": "bytes32"
        }
      ],
      "name": "revokeCertificate",
      "outputs": [],
      "stateMutability": "nonpayable",
      "type": "function"
    }
  ],
  "bytecode": "0x6080806040523461001657610959908161001c8239f35b600080fdfe608080604052600436101561001357600080fd5b60003560e01c9081636a938567146106c357508063742f068814610612578063be749989146100a45763c6cbc52a1461004b57600080fd5b3461009f57602036600319011261009f57600435806000526000602052600660406000200160ff1981541690557f44d80a438cb4fa3b5aedbe551ce3d9382e37f446917b783e1dee70a03b4180e3600080a2005b600080fd5b3461009f57608036600319011261009f5760243567ffffffffffffffff811161009f576100d59036906004016108cc565b60443567ffffffffffffffff811161009f576100f59036906004016108cc565b6064359060405160208101906004358252610135606082875161011f816040840160208c01610884565b81014260408201520360408101845201826107bd565b5190209162015180908181029181830414901517156105fc574201908142116105fc5760405191610165836107a1565b6004358352602083019185835260408401526040516020810181811067ffffffffffffffff8211176104465760405260008152606084015242608084015260a0830152600160c0830152826000526000602052604060002090825182555180519067ffffffffffffffff82116104465781906101e46001850154610767565b601f81116105a9575b50602090601f83116001146105375760009261052c575b50508160011b916000199060031b1c19161760018201555b604082015180519067ffffffffffffffff82116104465781906102426002850154610767565b601f81116104d9575b50602090601f83116001146104675760009261045c575b50508160011b916000199060031b1c19161760028201555b606082015180519067ffffffffffffffff82116104465761029e6003840154610767565b601f81116103ff575b5091849391602096938790601f8311600114610363577f52ff540644d3ca4a69d1eb5a9736673fccd2d5f33f3a3258ebabcb0c35f7927295938361034d969460c094600694600092610358575b50508160011b916000199060031b1c19161760038201555b6080840151600482015560a0840151600582015501910151151560ff80198354169116179055604051918291600435835260408884015260408301906108a7565b0390a2604051908152f35b015190508c806102f4565b9060038401600052886000209160005b601f19851681106103e557509360018460c0946006947f52ff540644d3ca4a69d1eb5a9736673fccd2d5f33f3a3258ebabcb0c35f792729a9861034d9a98601f198116106103cc575b505050811b01600382015561030c565b015160001960f88460031b161c191690558c80806103bc565b818301518455899850600190930192918a01918a01610373565b600384016000526020600020601f840160051c81016020851061043f575b601f830160051c820181106104335750506102a7565b6000815560010161041d565b508061041d565b634e487b7160e01b600052604160045260246000fd5b015190508680610262565b9250600284016000526020600020906000935b601f19841685106104be576001945083601f198116106104a5575b505050811b01600282015561027a565b015160001960f88460031b161c19169055868080610495565b8181015183556020948501946001909301929091019061047a565b909150600284016000526020600020601f840160051c810160208510610525575b90849392915b601f830160051c8201811061051657505061024b565b60008155859450600101610500565b50806104fa565b015190508680610204565b9250600184016000526020600020906000935b601f198416851061058e576001945083601f19811610610575575b505050811b01600182015561021c565b015160001960f88460031b161c19169055868080610565565b8181015183556020948501946001909301929091019061054a565b909150600184016000526020600020601f840160051c8101602085106105f5575b90849392915b601f830160051c820181106105e65750506101ed565b600081558594506001016105d0565b50806105ca565b634e487b7160e01b600052601160045260246000fd5b3461009f57602036600319011261009f57600435600052600060205260406000208054610641600183016107df565b9161064e600282016107df565b61065a600383016107df565b916106ad60048201549361069f60ff600660058601549501541694610691604051998a998a5260e060208b015260e08a01906108a7565b9088820360408a01526108a7565b9086820360608801526108a7565b92608085015260a0840152151560c08301520390f35b3461009f57602036600319011261009f5760c0602091600435600052600083526040600020906106f2816107a1565b81548152610702600183016107df565b84820152610712600283016107df565b6040820152610723600383016107df565b60608201526004820154608082015260ff60066005840154938460a0850152015416151592839101528161075d575b506040519015158152f35b9050421082610752565b90600182811c92168015610797575b602083101461078157565b634e487b7160e01b600052602260045260246000fd5b91607f1691610776565b60e0810190811067ffffffffffffffff82111761044657604052565b90601f8019910116810190811067ffffffffffffffff82111761044657604052565b906040519182600082546107f281610767565b908184526020946001916001811690816000146108625750600114610823575b505050610821925003836107bd565b565b600090815285812095935091905b81831061084a5750506108219350820101388080610812565b85548884018501529485019487945091830191610831565b9250505061082194925060ff191682840152151560051b820101388080610812565b60005b8381106108975750506000910152565b8181015183820152602001610887565b906020916108c081518092818552858086019101610884565b601f01601f1916010190565b81601f8201121561009f5780359067ffffffffffffffff82116104465760405192610901601f8401601f1916602001856107bd565b8284526020838301011161009f5781600092602080930183860137830101529056fea2646970667358221220d77f66c815c88cc9422bed358f175d637e60944f9ddcf1d12b92c6f5727c957464736f6c63430008180033",
  "linkReferences": {},
  "deployedLinkReferences": {}
}