{"contracts/RewardsContract.sol":{"RewardsContract":{"abi":[{"inputs":[],"stateMutability":"nonpayable","type":"constructor"},{"inputs":[{"internalType":"address","name":"owner","type":"address"}],"name":"OwnableInvalidOwner","type":"error"},{"inputs":[{"internalType":"address","name":"account","type":"address"}],"name":"OwnableUnauthorizedAccount","type":"error"},{"anonymous":false,"inputs":[{"indexed":true,"internalType":"address","name":"farmer","type":"address"},{"indexed":false,"internalType":"enum RewardsContract.BadgeType","name":"badgeType","type":"uint8"},{"indexed":false,"internalType":"string","name":"badgeName","type":"string"},{"indexed":false,"internalType":"uint256","name":"timestamp","type":"uint256"}],"name":"BadgeEarned","type":"event"},{"anonymous":false,"inputs":[{"indexed":true,"internalType":"address","name":"farmer","type":"address"},{"indexed":false,"internalType":"string","name":"name","type":"string"},{"indexed":false,"internalType":"uint256","name":"timestamp","type":"uint256"}],"name":"FarmerRegistered","type":"event"},{"anonymous":false,"inputs":[{"indexed":true,"internalType":"address","name":"previousOwner","type":"address"},{"indexed":true,"internalType":"address","name":"newOwner","type":"address"}],"name":"OwnershipTransferred","type":"event"},{"anonymous":false,"inputs":[{"indexed":true,"internalType":"address","name":"farmer","type":"address"},{"indexed":false,"internalType":"uint256","name":"points","type":"uint256"},{"indexed":false,"internalType":"string","name":"reason","type":"string"},{"indexed":false,"internalType":"uint256","name":"timestamp","type":"uint256"}],"name":"PointsEarned","type":"event"},{"anonymous":false,"inputs":[{"indexed":true,"internalType":"address","name":"farmer","type":"address"},{"indexed":false,"internalType":"uint256","name":"points","type":"uint256"},{"indexed":false,"internalType":"uint256","name":"value","type":"uint256"},{"indexed":false,"internalType":"uint256","name":"timestamp","type":"uint256"}],"name":"PointsRedeemed","type":"event"},{"anonymous":false,"inputs":[{"indexed":true,"internalType":"address","name":"farmer","type":"address"},{"indexed":false,"internalType":"uint256","name":"batchTokenId","type":"uint256"},{"indexed":false,"internalType":"uint256","name":"qualityScore","type":"uint256"},{"indexed":false,"internalType":"uint256","name":"pointsEarned","type":"uint256"},{"indexed":false,"internalType":"uint256","name":"timestamp","type":"uint256"}],"name":"QualityScoreRecorded","type":"event"},{"anonymous":false,"inputs":[{"indexed":true,"internalType":"address","name":"referrer","type":"address"},{"indexed":true,"internalType":"address","name":"referred","type":"address"},{"indexed":false,"internalType":"uint256","name":"timestamp","type":"uint256"}],"name":"ReferralMade","type":"event"},{"anonymous":false,"inputs":[{"indexed":true,"internalType":"uint256","name":"rewardId","type":"uint256"},{"indexed":true,"internalType":"address","name":"recipient","type":"address"},{"indexed":false,"internalType":"enum RewardsContract.RewardType","name":"rewardType","type":"uint8"},{"indexed":false,"internalType":"uint256","name":"amount","type":"uint256"},{"indexed":false,"internalType":"uint256","name":"timestamp","type":"uint256"}],"name":"RewardCreated","type":"event"},{"anonymous":false,"inputs":[{"indexed":true,"internalType":"uint256","name":"rewardId","type":"uint256"},{"indexed":true,"internalType":"address","name":"recipient","type":"address"},{"indexed":false,"internalType":"uint256","name":"amount","type":"uint256"},{"indexed":false,"internalType":"uint256","name":"timestamp","type":"uint256"}],"name":"RewardDistributed","type":"event"},{"inputs":[{"internalType":"address","name":"_referrer","type":"address"},{"internalType":"address","name":"_referred","type":"address"}],"name":"addReferral","outputs":[],"stateMutability":"nonpayable","type":"function"},{"inputs":[{"internalType":"enum RewardsContract.RewardType","name":"_rewardType","type":"uint8"},{"internalType":"uint256","name":"_amount","type":"uint256"}],"name":"allocateRewardPool","outputs":[],"stateMutability":"nonpayable","type":"function"},{"inputs":[],"name":"bronzeBadgeThreshold","outputs":[{"internalType":"uint256","name":"","type":"uint256"}],"stateMutability":"view","type":"function"},{"inputs":[{"internalType":"address","name":"_recipient","type":"address"},{"internalType":"enum RewardsContract.RewardType","name":"_rewardType","type":"uint8"},{"internalType":"uint256","name":"_amount","type":"uint256"},{"internalType":"string","name":"_description","type":"string"}],"name":"createAndDistributeReward","outputs":[{"internalType":"uint256","name":"","type":"uint256"}],"stateMutability":"nonpayable","type":"function"},{"inputs":[],"name":"diamondBadgeThreshold","outputs":[{"internalType":"uint256","name":"","type":"uint256"}],"stateMutability":"view","type":"function"},{"inputs":[{"internalType":"address","name":"","type":"address"},{"internalType":"uint256","name":"","type":"uint256"}],"name":"farmerContributions","outputs":[{"internalType":"uint256","name":"batchTokenId","type":"uint256"},{"internalType":"uint256","name":"qualityScore","type":"uint256"},{"internalType":"uint256","name":"pointsEarned","type":"uint256"},{"internalType":"uint256","name":"timestamp","type":"uint256"}],"stateMutability":"view","type":"function"},{"inputs":[{"internalType":"address","name":"","type":"address"}],"name":"farmerProfiles","outputs":[{"internalType":"address","name":"farmerAddress","type":"address"},{"internalType":"string","name":"name","type":"string"},{"internalType":"string","name":"location","type":"string"},{"internalType":"uint256","name":"totalBatchesSubmitted","type":"uint256"},{"internalType":"uint256","name":"totalQualityScore","type":"uint256"},{"internalType":"uint256","name":"loyaltyPoints","type":"uint256"},{"internalType":"uint256","name":"totalEarnings","type":"uint256"},{"internalType":"uint256","name":"joinedAt","type":"uint256"},{"internalType":"uint256","name":"lastActiveAt","type":"uint256"},{"internalType":"bool","name":"isVerified","type":"bool"}],"stateMutability":"view","type":"function"},{"inputs":[{"internalType":"address","name":"","type":"address"},{"internalType":"uint256","name":"","type":"uint256"}],"name":"farmerRewards","outputs":[{"internalType":"uint256","name":"","type":"uint256"}],"stateMutability":"view","type":"function"},{"inputs":[{"internalType":"address","name":"_farmer","type":"address"}],"name":"getAverageQualityScore","outputs":[{"internalType":"uint256","name":"","type":"uint256"}],"stateMutability":"view","type":"function"},{"inputs":[{"internalType":"address","name":"_farmer","type":"address"}],"name":"getFarmerContributions","outputs":[{"components":[{"internalType":"uint256","name":"batchTokenId","type":"uint256"},{"internalType":"uint256","name":"qualityScore","type":"uint256"},{"internalType":"uint256","name":"pointsEarned","type":"uint256"},{"internalType":"uint256","name":"timestamp","type":"uint256"}],"internalType":"struct RewardsContract.QualityContribution[]","name":"","type":"tuple[]"}],"stateMutability":"view","type":"function"},{"inputs":[{"internalType":"address","name":"_farmer","type":"address"}],"name":"getFarmerProfile","outputs":[{"components":[{"internalType":"address","name":"farmerAddress","type":"address"},{"internalType":"string","name":"name","type":"string"},{"internalType":"string","name":"location","type":"string"},{"internalType":"uint256","name":"totalBatchesSubmitted","type":"uint256"},{"internalType":"uint256","name":"totalQualityScore","type":"uint256"},{"internalType":"uint256","name":"loyaltyPoints","type":"uint256"},{"internalType":"uint256","name":"totalEarnings","type":"uint256"},{"internalType":"uint256","name":"joinedAt","type":"uint256"},{"internalType":"uint256","name":"lastActiveAt","type":"uint256"},{"components":[{"internalType":"enum RewardsContract.BadgeType","name":"badgeType","type":"uint8"},{"internalType":"string","name":"name","type":"string"},{"internalType":"uint256","name":"earnedAt","type":"uint256"},{"internalType":"string","name":"description","type":"string"}],"internalType":"struct RewardsContract.Badge[]","name":"badges","type":"tuple[]"},{"internalType":"bool","name":"isVerified","type":"bool"}],"internalType":"struct RewardsContract.FarmerProfile","name":"","type":"tuple"}],"stateMutability":"view","type":"function"},{"inputs":[{"internalType":"address","name":"_farmer","type":"address"}],"name":"getFarmerRewards","outputs":[{"components":[{"internalType":"uint256","name":"id","type":"uint256"},{"internalType":"address","name":"recipient","type":"address"},{"internalType":"enum RewardsContract.RewardType","name":"rewardType","type":"uint8"},{"internalType":"uint256","name":"amount","type":"uint256"},{"internalType":"enum RewardsContract.RewardStatus","name":"status","type":"uint8"},{"internalType":"string","name":"description","type":"string"},{"internalType":"uint256","name":"createdAt","type":"uint256"},{"internalType":"uint256","name":"distributedAt","type":"uint256"}],"internalType":"struct RewardsContract.Reward[]","name":"","type":"tuple[]"}],"stateMutability":"view","type":"function"},{"inputs":[{"internalType":"address","name":"_farmer","type":"address"}],"name":"getLeaderboardPosition","outputs":[{"internalType":"uint256","name":"position","type":"uint256"}],"stateMutability":"view","type":"function"},{"inputs":[{"internalType":"uint256","name":"_rewardId","type":"uint256"}],"name":"getReward","outputs":[{"components":[{"internalType":"uint256","name":"id","type":"uint256"},{"internalType":"address","name":"recipient","type":"address"},{"internalType":"enum RewardsContract.RewardType","name":"rewardType","type":"uint8"},{"internalType":"uint256","name":"amount","type":"uint256"},{"internalType":"enum RewardsContract.RewardStatus","name":"status","type":"uint8"},{"internalType":"string","name":"description","type":"string"},{"internalType":"uint256","name":"createdAt","type":"uint256"},{"internalType":"uint256","name":"distributedAt","type":"uint256"}],"internalType":"struct RewardsContract.Reward","name":"","type":"tuple"}],"stateMutability":"view","type":"function"},{"inputs":[],"name":"goldBadgeThreshold","outputs":[{"internalType":"uint256","name":"","type":"uint256"}],"stateMutability":"view","type":"function"},{"inputs":[],"name":"nextRewardId","outputs":[{"internalType":"uint256","name":"","type":"uint256"}],"stateMutability":"view","type":"function"},{"inputs":[],"name":"owner","outputs":[{"internalType":"address","name":"","type":"address"}],"stateMutability":"view","type":"function"},{"inputs":[],"name":"platinumBadgeThreshold","outputs":[{"internalType":"uint256","name":"","type":"uint256"}],"stateMutability":"view","type":"function"},{"inputs":[],"name":"pointsPerQualityPoint","outputs":[{"internalType":"uint256","name":"","type":"uint256"}],"stateMutability":"view","type":"function"},{"inputs":[{"internalType":"uint256","name":"_batchTokenId","type":"uint256"},{"internalType":"uint256","name":"_qualityScore","type":"uint256"},{"internalType":"address","name":"_farmer","type":"address"}],"name":"recordQualityScore","outputs":[],"stateMutability":"nonpayable","type":"function"},{"inputs":[{"internalType":"uint256","name":"_points","type":"uint256"},{"internalType":"uint256","name":"_rewardValue","type":"uint256"}],"name":"redeemPoints","outputs":[],"stateMutability":"nonpayable","type":"function"},{"inputs":[],"name":"referralBonusPoints","outputs":[{"internalType":"uint256","name":"","type":"uint256"}],"stateMutability":"view","type":"function"},{"inputs":[{"internalType":"address","name":"","type":"address"},{"internalType":"address","name":"","type":"address"}],"name":"referrals","outputs":[{"internalType":"bool","name":"","type":"bool"}],"stateMutability":"view","type":"function"},{"inputs":[{"internalType":"string","name":"_name","type":"string"},{"internalType":"string","name":"_location","type":"string"}],"name":"registerFarmer","outputs":[],"stateMutability":"nonpayable","type":"function"},{"inputs":[{"internalType":"address","name":"","type":"address"}],"name":"registeredFarmers","outputs":[{"internalType":"bool","name":"","type":"bool"}],"stateMutability":"view","type":"function"},{"inputs":[],"name":"renounceOwnership","outputs":[],"stateMutability":"nonpayable","type":"function"},{"inputs":[{"internalType":"enum RewardsContract.RewardType","name":"","type":"uint8"}],"name":"rewardPools","outputs":[{"internalType":"uint256","name":"totalAllocated","type":"uint256"},{"internalType":"uint256","name":"totalDistributed","type":"uint256"},{"internalType":"uint256","name":"remaining","type":"uint256"},{"internalType":"uint256","name":"minQualifyingScore","type":"uint256"}],"stateMutability":"view","type":"function"},{"inputs":[{"internalType":"uint256","name":"","type":"uint256"}],"name":"rewards","outputs":[{"internalType":"uint256","name":"id","type":"uint256"},{"internalType":"address","name":"recipient","type":"address"},{"internalType":"enum RewardsContract.RewardType","name":"rewardType","type":"uint8"},{"internalType":"uint256","name":"amount","type":"uint256"},{"internalType":"enum RewardsContract.RewardStatus","name":"status","type":"uint8"},{"internalType":"string","name":"description","type":"string"},{"internalType":"uint256","name":"createdAt","type":"uint256"},{"internalType":"uint256","name":"distributedAt","type":"uint256"}],"stateMutability":"view","type":"function"},{"inputs":[{"internalType":"uint256","name":"_points","type":"uint256"}],"name":"setPointsPerQualityPoint","outputs":[],"stateMutability":"nonpayable","type":"function"},{"inputs":[],"name":"silverBadgeThreshold","outputs":[{"internalType":"uint256","name":"","type":"uint256"}],"stateMutability":"view","type":"function"},{"inputs":[],"name":"totalFarmers","outputs":[{"internalType":"uint256","name":"","type":"uint256"}],"stateMutability":"view","type":"function"},{"inputs":[{"internalType":"address","name":"newOwner","type":"address"}],"name":"transferOwnership","outputs":[],"stateMutability":"nonpayable","type":"function"},{"inputs":[{"internalType":"address","name":"_farmer","type":"address"}],"name":"verifyFarmer","outputs":[],"stateMutability":"nonpayable","type":"function"}],"evm":{"bytecode":{"linkReferences":{},"object":"6080604090808252346101155733156100ff575060008054336001600160a01b0319821681178355835192916001600160a01b03167f8be0079c531659141344cd1fd0a4f28419497f9722a3daafe3b4186f6b6457e08380a360016008556009819055600a80556101f4600b556103e8600c55611388600d55613a98600e5561c350600f55620186a0601055608082016001600160401b038111838210176100eb579060039184528083526020830181815284840190828252856060860193808552808052600760205220945185555160018501555160028401555191015551612953908161011b8239f35b634e487b7160e01b82526041600452602482fd5b631e4fbdf760e01b815260006004820152602490fd5b600080fdfe6080604052600436101561001257600080fd5b60003560e01c80630708d619146120c65780630b5c3f8714611eb8578063119707b514611e9a5780631c08694714611e7c5780631c4b774b14611dc157806321a8a21214611da3578063235db9f514611d3e578063314596b2146118655780633e27bb691461180c5780634410b6b61461152357806346698bf2146114a35780635557642c1461146e5780636017509b14611450578063635788a2146110b6578063715018a61461105d57806382c88e411461103c57806383c5b0aa14610ffd5780638da5cb5b14610fd45780639271422414610f02578063973b35c314610ee4578063a212458014610ec6578063b92835d814610e70578063bf956a3e14610e52578063c2e7043114610b25578063ca2a9ea714610afa578063d7e01a9d14610adc578063dcf7c4b914610536578063ee94ced2146104dd578063f064997c146104bf578063f2fde38b14610431578063f301af4214610381578063f761e0791461031e5763fd831f551461018757600080fd5b3461031957602080600319360112610319576001600160a01b03806101aa6121c2565b1660005260038083526040600020918254916101c583612514565b936101d3604051958661234e565b8385526101df84612514565b601f19018660005b8281106103035750505060005b84811061025957604080518881528751818a01819052600092600582901b83018101918a8c01918c9085015b82871061022d5785850386f35b909192938280610249600193603f198a82030186528851612250565b9601920196019592919092610220565b80610266600192846123c5565b905490851b1c600052600680895260406000209060405191610287836122e0565b80548352848101548881168c8501526102c660ff6102ae8160a094851c1660408801612577565b60028401546060870152898401541660808601612583565b6102d260048301612456565b90840152600581015460c0840152015460e08201526102f182896128dd565b526102fc81886128dd565b50016101f4565b61030b612538565b82828a0101520187906101e7565b600080fd5b3461031957602036600319011261031957600435600581101561031957610344906124fb565b805461037d6001830154926003600282015491015490604051948594859094939260609260808301968352602083015260408201520152565b0390f35b34610319576020366003190112610319576004356000526006602052610405604060002080549060018101549161042260028301549160ff600385015416906104146103cf60048701612456565b926006600588015497015495604051998a99610100958b5260018060a01b03811660208c015260ff60408c019160a01c166121ee565b606089015260808801906121fb565b8060a087015285019061222b565b9160c084015260e08301520390f35b346103195760203660031901126103195761044a6121c2565b6104526128f1565b6001600160a01b039081169081156104a657600054826bffffffffffffffffffffffff60a01b821617600055167f8be0079c531659141344cd1fd0a4f28419497f9722a3daafe3b4186f6b6457e0600080a3005b604051631e4fbdf760e01b815260006004820152602490fd5b34610319576000366003190112610319576020600854604051908152f35b346103195760403660031901126103195760043560058110156103195761053260026105296024359361050e6128f1565b610517816124fb565b61052286825461252b565b90556124fb565b0191825461252b565b9055005b34610319576060366003190112610319576044356001600160a01b0381168103610319576105626128f1565b6001600160a01b0381166000908152600260205260409020546105879060ff1661258f565b6001600160a01b0381166000908152600160205260409020600a549190602435808402819004841490151715610ac65760018060a01b03821660005260046020526040600020604051906105da826122c5565b60043582526024356020830152846024350260408301524260608301528054600160401b8110156108f05761061491600182018155612400565b9190916108da57606081600392518455602081015160018501556040810151600285015501519101556003810161064b815461285b565b90556004810161065e602435825461252b565b9055600581016106738460243502825461252b565b809155426008830155600080916009840154925b838110610a75575060009160405161069e81612318565b600081529160105481101580610a62575b1561091c57505050506005916040516106c781612333565b6007815266111a585b5bdb9960ca1b6020820152905b600984101561090657836107a7575b6040805160043581526024356020820181905288029181019190915242606082015286907ff6d2806a1f172dfdaba78c50c3a7363a717a3a1ce8053bfd6b99ab0288a0e6f29060a09088906001600160a01b038216907f7660c9323f7b1548041569735d659b99b33e9f48b7f1b6dd202122536043d24890608090a26040519360243502845260606020850152600d60608501526c5175616c6974792073636f726560981b6080850152426040850152600180831b031692a2005b60409492939451936107fe60398685516107c8816020840160208a01612208565b81017f206261646765206561726e656420666f72206c6f79616c747900000000000000602082015203601981018852018661234e565b6040519461080b866122c5565b610815878761286a565b8360208701524260408701526060860152600160401b8110156108f0578060016108489201600984015560098301612400565b6108da577ff6d2806a1f172dfdaba78c50c3a7363a717a3a1ce8053bfd6b99ab0288a0e6f2956108c97f0537140f1966b3b75c8239ab8af0483335f1dda98b52d64ee7e010c46023d8bc936108a260a0986108b895612633565b600180891b0390541694604051938480946123f3565b60606020840152606083019061222b565b4260408301520390a29184806106ec565b634e487b7160e01b600052600060045260246000fd5b634e487b7160e01b600052604160045260246000fd5b634e487b7160e01b600052602160045260246000fd5b600f5481101580610a4f575b1561095c575050505060049160405161094081612333565b6008815267506c6174696e756d60c01b6020820152905b6106dd565b600e5481101580610a3c575b15610997575050505060039160405161098081612333565b600481526311dbdb1960e21b6020820152906106dd565b600d5481101580610a29575b156109d457505050506002916040516109bb81612333565b600681526529b4b63b32b960d11b6020820152906106dd565b600c959293955411159081610a15575b5015610957579250506001916040516109fc81612333565b600681526542726f6e7a6560d01b6020820152906106dd565b9050600981101561090657600111876109e4565b50600982101561090657600282106109a3565b5060098210156109065760038210610968565b5060098210156109065760048210610928565b50600982101561090657600582106106af565b60ff610a848260098801612400565b5054166009841015610906576009811015610906578310610aa8575b600101610687565b9150600160ff610abb8460098801612400565b505416929050610aa0565b634e487b7160e01b600052601160045260246000fd5b34610319576000366003190112610319576020601054604051908152f35b34610319576020366003190112610319576020610b1d610b186121c2565b6128ab565b604051908152f35b34610319576040366003190112610319576004356024803590336000526001906020918083526005604060002001805490868210610e1857868203918211610e03575560085491610b758361285b565b60085560405191610b85836122e0565b8383528483019033825260408401928184526060850191888352608086016000815260405193610bb485612333565b60118552702837b4b73a39903932b232b6b83a34b7b760791b8a86015260a0880194855260c088019542875260e0890197600089528a60005260068c52604060002099518a55848a019160018060a01b03905116825491516005811015610dee576001600160a81b03199092161760a09190911b60ff60a01b161790555160028801555160038701906004811015610dd95760ff801983541691161790556004860192518051926001600160401b038411610dc55750610c74845461241c565b601f8111610d8a575b508891601f8411600114610d1b57508260069593610cd99998979593610cba93600092610d10575b50508160011b916000199060031b1c19161790565b90555b5160058401555191015533600052600383526040600020612876565b6040519283528201524260408201527f90138e15f43ce1520bd445151b279c8047b276f6dc4d41f9fae44cd7ecfe4e7e60603392a2005b015190508d80610ca5565b9291601f19831691856000528a6000209260005b8c828210610d765750509160069795939185610cd99c9b9a98969410610d5d575b505050811b019055610cbd565b015160001960f88460031b161c191690558c8080610d50565b838501518655948701949384019301610d2f565b610db590856000528a600020601f860160051c8101918c8710610dbb575b601f0160051c01906125d3565b8b610c7d565b9091508190610da8565b634e487b7160e01b60009081526041600452fd5b83634e487b7160e01b60005260216004526000fd5b87634e487b7160e01b60005260216004526000fd5b83634e487b7160e01b60005260116004526000fd5b60405162461bcd60e51b81526004810186905260138186015272496e73756666696369656e7420706f696e747360681b6044820152606490fd5b34610319576000366003190112610319576020600d54604051908152f35b3461031957604036600319011261031957610e896121c2565b610e916121d8565b9060018060a01b03809116600052600560205260406000209116600052602052602060ff604060002054166040519015158152f35b34610319576000366003190112610319576020600e54604051908152f35b34610319576000366003190112610319576020600c54604051908152f35b34610319576020366003190112610319576001600160a01b0380610f246121c2565b166000526001602052604060002090815416610f4260018301612456565b91610f4f60028201612456565b60038201549160048101546005820154600683015490600784015492610fa860ff600a60088801549701541696610f9a6040519b8c809c6020610140928392815201528c019061222b565b908a820360408c015261222b565b966060890152608088015260a087015260c086015260e085015261010084015215156101208301520390f35b34610319576000366003190112610319576000546040516001600160a01b039091168152602090f35b34610319576020366003190112610319576001600160a01b0361101e6121c2565b166000526002602052602060ff604060002054166040519015158152f35b34610319576020366003190112610319576110556128f1565b600435600a55005b34610319576000366003190112610319576110766128f1565b600080546001600160a01b0319811682556001600160a01b03167f8be0079c531659141344cd1fd0a4f28419497f9722a3daafe3b4186f6b6457e08280a3005b34610319576080366003190112610319576110cf6121c2565b60056024351015610319576064356001600160401b038111610319576110f990369060040161236f565b906111026128f1565b6008549061110f8261285b565b6008556040519261111f846122e0565b8284526001600160a01b038216602085015261114060243560408601612577565b60443560608501526002608085015260a08401524260c08401524260e08401528160005260066020526040600020835181556001810160018060a01b03602086015116815490604087015160058110156109065760ff60a01b9060a01b16916affffffffffffffffffffff60a81b16171790556060840151600282015560038101608085015160048110156109065760ff8019835416911617905560a08401519384516001600160401b0381116108f057602095611201600485015461241c565b601f811161141d575b508690601f83116001146113aa578260e093600695936112409360009261139f5750508160011b916000199060031b1c19161790565b60048501555b60c08101516005850155015191015560018060a01b03811660005260038352611273826040600020612876565b6024356113555760018060a01b03811660005260018352600560406000200161129f604435825461252b565b90555b60016112af6024356124fb565b016112bd604435825461252b565b90556040516112ce816024356121ee565b604435818501524260408201526001600160a01b0382169083907f5f4fe0e94e465060f3caccac30af8e64fb316f7724d6060547b9df64ec39c77e90606090a360408051604435815242858201526001600160a01b039092169183917f602ab809fa82d3a742a4f9a33cdd154988d8b0f578ee4dc91de3dc412bf026b991a3604051908152f35b6001602435148015611393575b156112a25760018060a01b03811660005260018352600660406000200161138c604435825461252b565b90556112a2565b50600460243514611362565b015190508a80610ca5565b9060048501600052876000209160005b601f19851681106114065750926006949260019260e09583601f198116106113ed575b505050811b016004850155611246565b015160001960f88460031b161c191690558980806113dd565b9192896001819286850151815501940192016113ba565b61144a906004860160005288600020601f850160051c8101918a8610610dbb57601f0160051c01906125d3565b8761120a565b34610319576000366003190112610319576020600954604051908152f35b34610319576020366003190112610319576001600160a01b0361148f6121c2565b166000526001602052602060405160008152f35b34610319576040366003190112610319576114bc6121c2565b6001600160a01b03166000908152600460205260409020805460243590811015610319576114e991612400565b50805461037d6001830154926003600282015491015490604051948594859094939260609260808301968352602083015260408201520152565b346103195760203660031901126103195761153c6121c2565b600061014060405161154d816122fc565b82815260606020820152606060408201528260608201528260808201528260a08201528260c08201528260e0820152826101008201526060610120820152015260018060a01b031660005260016020526040600020604051906115af826122fc565b80546001600160a01b031682526115c860018201612456565b60208301526115d960028201612456565b60408301526003810154606083015260048101546080830152600581015460a0830152600681015460c0830152600781015460e08301526008810154610100830152600981015461162981612514565b90611637604051928361234e565b808252602082016009840160005260206000206000915b8383106117b3578660ff600a8888610120850152015416151561014082015260405180916020825260018060a01b0381511660208301526116a06020820151610160604085015261018084019061222b565b906116bd604082015192601f19938486830301606087015261222b565b9160608201516080850152608082015160a085015260a082015160c085015260c082015160e085015260e0820151610100850152610100820151610120850152610120820151928185820301610140860152835190818152602081016020808460051b8401019601936000925b8484106117455761014087015115156101608a015288880389f35b91939596819395985060206117a082600194868495030188528b519061176c8183516123f3565b606061178585840151608087850152608084019061222b565b9260408101516040840152015190606081840391015261222b565b990194019401918897969593949161172a565b600460206001926040516117c6816122c5565b6117d460ff8754168261286a565b6117df858701612456565b83820152600286015460408201526117f960038701612456565b606082015281520192019201919061164e565b34610319576040366003190112610319576118256121c2565b6001600160a01b031660009081526003602052604090208054602435919082101561031957602091611856916123c5565b90549060031b1c604051908152f35b34610319576040366003190112610319576004356001600160401b0381116103195761189590369060040161236f565b6024356001600160401b038111610319576118b490369060040161236f565b9033600052600260205260ff60406000205416611d04576040516118d781612318565b60008152604051926118e8846122fc565b33845282602085015260408401526000606084015260006080840152606460a0840152600060c08401524260e084015242610100840152610120830152600061014083015233600052600160205260406000209060018060a01b038351166bffffffffffffffffffffffff60a01b83541617825560208301519283516001600160401b0381116108f05761197f600185015461241c565b601f8111611ccf575b506020601f8211600114611c605781906119bb93949596600092611bb15750508160011b916000199060031b1c19161790565b60018401555b60408101519283516001600160401b0381116108f0576119e4600283015461241c565b601f8111611c2b575b506020601f8211600114611bbc578190611a2093949596600092611bb15750508160011b916000199060031b1c19161790565b60028201555b6003606083015160038301556080830151600483015560a0830151600583015560c0830151600683015560e08301516007830155610100830151600883015560098201610120840151805192600160401b84116108f057825490848455818510611b4a575b50506020019060005260206000206000915b838310611b2c578686610140600a880191015115159060ff199160ff8383541691161790553360005260026020526001604060002091825416179055611ae460095461285b565b6009557f9e6c0ba7b243f2832f486b0f05ab87adc71f805a3ed13de7d41274c0fd9e2201611b1d6040519260408452604084019061222b565b914260208201528033930390a2005b6004602082611b3e6001945186612633565b01920192019190611a9d565b6001600160fe1b038281168303610ac65785168503610ac6578360005260206000209160021b8201918560021b015b828110611b865750611a8b565b80600060049255611b99600182016125ea565b60006002820155611bab8382016125ea565b01611b79565b015190508680610ca5565b6002830160005260206000209060005b601f1984168110611c13575060019394959683601f19811610611bfa575b505050811b016002820155611a26565b015160001960f88460031b161c19169055858080611bea565b9091602060018192858b015181550193019101611bcc565b611c5a90600284016000526020600020601f840160051c81019160208510610dbb57601f0160051c01906125d3565b856119ed565b6001850160005260206000209060005b601f1984168110611cb7575060019394959683601f19811610611c9e575b505050811b0160018401556119c1565b015160001960f88460031b161c19169055858080611c8e565b9091602060018192858b015181550193019101611c70565b611cfe90600186016000526020600020601f840160051c81019160208510610dbb57601f0160051c01906125d3565b85611988565b60405162461bcd60e51b8152602060048201526012602482015271105b1c9958591e481c9959da5cdd195c995960721b6044820152606490fd5b3461031957602036600319011261031957611d576121c2565b611d5f6128f1565b6001600160a01b0316600081815260026020526040902054611d839060ff1661258f565b6000526001602052600a604060002001600160ff19825416179055600080f35b34610319576000366003190112610319576020600b54604051908152f35b3461031957602036600319011261031957611dda612538565b50600435600052600660205261037d6040600020600660405191611dfd836122e0565b8054835260018101546001600160a01b0381166020850152611e289060a01c60ff1660408501612577565b60028101546060840152611e4660ff60038301541660808501612583565b611e5260048201612456565b60a0840152600581015460c0840152015460e0820152604051918291602083526020830190612250565b34610319576000366003190112610319576020600f54604051908152f35b34610319576000366003190112610319576020600a54604051908152f35b3461031957604036600319011261031957611ed16121c2565b611ed96121d8565b611ee16128f1565b60018060a01b0380921691826000526020916002835260ff60406000205416156120815716806000526002825260ff604060002054161561203c578260005260058252604060002081600052825260ff60406000205416612004577ff6d2806a1f172dfdaba78c50c3a7363a717a3a1ce8053bfd6b99ab0288a0e6f29160a091846000526005825260406000208160005282526040600020600160ff19825416179055600b548560005260018352611fa2600560406000200191825461252b565b9055847f481bd573d463f65f2952d83f95ade4ed65f27d7b2f7e7a8cf0ee277203e6fd7283604051428152a36060600b5491604051928352820152600e60608201526d526566657272616c20626f6e757360901b6080820152426040820152a2005b60405162461bcd60e51b815260048101839052601060248201526f105b1c9958591e481c9959995c9c995960821b6044820152606490fd5b60405162461bcd60e51b815260048101839052601760248201527f5265666572726564206e6f7420726567697374657265640000000000000000006044820152606490fd5b60405162461bcd60e51b815260048101849052601760248201527f5265666572726572206e6f7420726567697374657265640000000000000000006044820152606490fd5b3461031957602080600319360112610319576001600160a01b036120e86121c2565b1660005260048152604060002090815461210181612514565b9061210f604051928361234e565b8082528282018094600052836000206000915b8383106121825760408051878152865181890181905289928201908960005b82811061214e5784840385f35b8551805185528083015185840152604080820151908601526060908101519085015294810194608090930192600101612141565b600486600192604051612194816122c5565b8554815284860154838201526002860154604082015260038601546060820152815201920192019190612122565b600435906001600160a01b038216820361031957565b602435906001600160a01b038216820361031957565b9060058210156109065752565b9060048210156109065752565b60005b83811061221b5750506000910152565b818101518382015260200161220b565b9060209161224481518092818552858086019101612208565b601f01601f1916010190565b9060e0806122b26101008551855260018060a01b036020870151166020860152612282604087015160408701906121ee565b6060860151606086015261229e608087015160808701906121fb565b60a0860151908060a087015285019061222b565b9360c081015160c0850152015191015290565b608081019081106001600160401b038211176108f057604052565b61010081019081106001600160401b038211176108f057604052565b61016081019081106001600160401b038211176108f057604052565b602081019081106001600160401b038211176108f057604052565b604081019081106001600160401b038211176108f057604052565b90601f801991011681019081106001600160401b038211176108f057604052565b81601f82011215610319578035906001600160401b0382116108f057604051926123a3601f8401601f19166020018561234e565b8284526020838301011161031957816000926020809301838601378301015290565b80548210156123dd5760005260206000200190600090565b634e487b7160e01b600052603260045260246000fd5b9060098210156109065752565b80548210156123dd5760005260206000209060021b0190600090565b90600182811c9216801561244c575b602083101461243657565b634e487b7160e01b600052602260045260246000fd5b91607f169161242b565b906040519182600082546124698161241c565b908184526020946001916001811690816000146124d9575060011461249a575b5050506124989250038361234e565b565b600090815285812095935091905b8183106124c15750506124989350820101388080612489565b855488840185015294850194879450918301916124a8565b9250505061249894925060ff191682840152151560051b820101388080612489565b6005811015610906576000526007602052604060002090565b6001600160401b0381116108f05760051b60200190565b91908201809211610ac657565b60405190612545826122e0565b8160e0600091828152826020820152826040820152826060820152826080820152606060a08201528260c08201520152565b60058210156109065752565b60048210156109065752565b1561259657565b60405162461bcd60e51b815260206004820152601560248201527411985c9b595c881b9bdd081c9959da5cdd195c9959605a1b6044820152606490fd5b8181106125de575050565b600081556001016125d3565b6125f4815461241c565b90816125fe575050565b81601f60009311600114612610575055565b90808391825261262f601f60208420940160051c8401600185016125d3565b5555565b815160098110156109065760ff801983541691161781556001908181019060209283850151918251936001600160401b03948581116108f057612676825461241c565b94601f9586811161282d575b5087908683116001146127c0578260609593600395936126b8936000926127195750508160011b916000199060031b1c19161790565b90555b60408801516002820155019501519384519384116108f0576126dd865461241c565b838111612788575b50809284116001146127245750508190612715936000926127195750508160011b916000199060031b1c19161790565b9055565b015190503880610ca5565b91909383601f1981168760005284600020946000905b8883831061276e5750505010612755575b505050811b019055565b015160001960f88460031b161c1916905538808061274b565b85870151885590960195948501948793509081019061273a565b6127b19087600052826000208580880160051c8201928589106127b7575b0160051c01906125d3565b386126e5565b925081926127a6565b859291601f19831691856000528a6000209260005b8c82821061281757505091606097959391856003989694106127ff575b505050811b0190556126bb565b015160001983881b60f8161c191690553880806127f2565b8385015186558a979095019493840193016127d5565b6128559084600052896000208880860160051c8201928c87106127b7570160051c01906125d3565b38612682565b6000198114610ac65760010190565b60098210156109065752565b8054600160401b8110156108f057612893916001820181556123c5565b819291549060031b91821b91600019901b1916179055565b6001600160a01b0316600090815260016020526040902060038101549081156128d657600401540490565b5050600090565b80518210156123dd5760209160051b010190565b6000546001600160a01b0316330361290557565b60405163118cdaa760e01b8152336004820152602490fdfea2646970667358221220b21c339e0c81f8458f2789e019ec55259ed6aaf46bf2c4736a5920e96b7c65db64736f6c63430008180033","opcodes":"PUSH1 0x80 PUSH1 0x40 SWAP1 DUP1 DUP3 MSTORE CALLVALUE PUSH2 0x115 JUMPI CALLER ISZERO PUSH2 0xFF JUMPI POP PUSH1 0x0 DUP1 SLOAD CALLER PUSH1 0x1 PUSH1 0x1 PUSH1 0xA0 SHL SUB NOT DUP3 AND DUP2 OR DUP4 SSTORE DUP4 MLOAD SWAP3 SWAP2 PUSH1 0x1 PUSH1 0x1 PUSH1 0xA0 SHL SUB AND PUSH32 0x8BE0079C531659141344CD1FD0A4F28419497F9722A3DAAFE3B4186F6B6457E0 DUP4 DUP1 LOG3 PUSH1 0x1 PUSH1 0x8 SSTORE PUSH1 0x9 DUP2 SWAP1 SSTORE PUSH1 0xA DUP1 SSTORE PUSH2 0x1F4 PUSH1 0xB SSTORE PUSH2 0x3E8 PUSH1 0xC SSTORE PUSH2 0x1388 PUSH1 0xD SSTORE PUSH2 0x3A98 PUSH1 0xE SSTORE PUSH2 0xC350 PUSH1 0xF SSTORE PUSH3 0x186A0 PUSH1 0x10 SSTORE PUSH1 0x80 DUP3 ADD PUSH1 0x1 PUSH1 0x1 PUSH1 0x40 SHL SUB DUP2 GT DUP4 DUP3 LT OR PUSH2 0xEB JUMPI SWAP1 PUSH1 0x3 SWAP2 DUP5 MSTORE DUP1 DUP4 MSTORE PUSH1 0x20 DUP4 ADD DUP2 DUP2 MSTORE DUP5 DUP5 ADD SWAP1 DUP3 DUP3 MSTORE DUP6 PUSH1 0x60 DUP7 ADD SWAP4 DUP1 DUP6 MSTORE DUP1 DUP1 MSTORE PUSH1 0x7 PUSH1 0x20 MSTORE KECCAK256 SWAP5 MLOAD DUP6 SSTORE MLOAD PUSH1 0x1 DUP6 ADD SSTORE MLOAD PUSH1 0x2 DUP5 ADD SSTORE MLOAD SWAP2 ADD SSTORE MLOAD PUSH2 0x2953 SWAP1 DUP2 PUSH2 0x11B DUP3 CODECOPY RETURN JUMPDEST PUSH4 0x4E487B71 PUSH1 0xE0 SHL DUP3 MSTORE PUSH1 0x41 PUSH1 0x4 MSTORE PUSH1 0x24 DUP3 REVERT JUMPDEST PUSH4 0x1E4FBDF7 PUSH1 0xE0 SHL DUP2 MSTORE PUSH1 0x0 PUSH1 0x4 DUP3 ADD MSTORE PUSH1 0x24 SWAP1 REVERT JUMPDEST PUSH1 0x0 DUP1 REVERT INVALID PUSH1 0x80 PUSH1 0x40 MSTORE PUSH1 0x4 CALLDATASIZE LT ISZERO PUSH2 0x12 JUMPI PUSH1 0x0 DUP1 REVERT JUMPDEST PUSH1 0x0 CALLDATALOAD PUSH1 0xE0 SHR DUP1 PUSH4 0x708D619 EQ PUSH2 0x20C6 JUMPI DUP1 PUSH4 0xB5C3F87 EQ PUSH2 0x1EB8 JUMPI DUP1 PUSH4 0x119707B5 EQ PUSH2 0x1E9A JUMPI DUP1 PUSH4 0x1C086947 EQ PUSH2 0x1E7C JUMPI DUP1 PUSH4 0x1C4B774B EQ PUSH2 0x1DC1 JUMPI DUP1 PUSH4 0x21A8A212 EQ PUSH2 0x1DA3 JUMPI DUP1 PUSH4 0x235DB9F5 EQ PUSH2 0x1D3E JUMPI DUP1 PUSH4 0x314596B2 EQ PUSH2 0x1865 JUMPI DUP1 PUSH4 0x3E27BB69 EQ PUSH2 0x180C JUMPI DUP1 PUSH4 0x4410B6B6 EQ PUSH2 0x1523 JUMPI DUP1 PUSH4 0x46698BF2 EQ PUSH2 0x14A3 JUMPI DUP1 PUSH4 0x5557642C EQ PUSH2 0x146E JUMPI DUP1 PUSH4 0x6017509B EQ PUSH2 0x1450 JUMPI DUP1 PUSH4 0x635788A2 EQ PUSH2 0x10B6 JUMPI DUP1 PUSH4 0x715018A6 EQ PUSH2 0x105D JUMPI DUP1 PUSH4 0x82C88E41 EQ PUSH2 0x103C JUMPI DUP1 PUSH4 0x83C5B0AA EQ PUSH2 0xFFD JUMPI DUP1 PUSH4 0x8DA5CB5B EQ PUSH2 0xFD4 JUMPI DUP1 PUSH4 0x92714224 EQ PUSH2 0xF02 JUMPI DUP1 PUSH4 0x973B35C3 EQ PUSH2 0xEE4 JUMPI DUP1 PUSH4 0xA2124580 EQ PUSH2 0xEC6 JUMPI DUP1 PUSH4 0xB92835D8 EQ PUSH2 0xE70 JUMPI DUP1 PUSH4 0xBF956A3E EQ PUSH2 0xE52 JUMPI DUP1 PUSH4 0xC2E70431 EQ PUSH2 0xB25 JUMPI DUP1 PUSH4 0xCA2A9EA7 EQ PUSH2 0xAFA JUMPI DUP1 PUSH4 0xD7E01A9D EQ PUSH2 0xADC JUMPI DUP1 PUSH4 0xDCF7C4B9 EQ PUSH2 0x536 JUMPI DUP1 PUSH4 0xEE94CED2 EQ PUSH2 0x4DD JUMPI DUP1 PUSH4 0xF064997C EQ PUSH2 0x4BF JUMPI DUP1 PUSH4 0xF2FDE38B EQ PUSH2 0x431 JUMPI DUP1 PUSH4 0xF301AF42 EQ PUSH2 0x381 JUMPI DUP1 PUSH4 0xF761E079 EQ PUSH2 0x31E JUMPI PUSH4 0xFD831F55 EQ PUSH2 0x187 JUMPI PUSH1 0x0 DUP1 REVERT JUMPDEST CALLVALUE PUSH2 0x319 JUMPI PUSH1 0x20 DUP1 PUSH1 0x3 NOT CALLDATASIZE ADD SLT PUSH2 0x319 JUMPI PUSH1 0x1 PUSH1 0x1 PUSH1 0xA0 SHL SUB DUP1 PUSH2 0x1AA PUSH2 0x21C2 JUMP JUMPDEST AND PUSH1 0x0 MSTORE PUSH1 0x3 DUP1 DUP4 MSTORE PUSH1 0x40 PUSH1 0x0 KECCAK256 SWAP2 DUP3 SLOAD SWAP2 PUSH2 0x1C5 DUP4 PUSH2 0x2514 JUMP JUMPDEST SWAP4 PUSH2 0x1D3 PUSH1 0x40 MLOAD SWAP6 DUP7 PUSH2 0x234E JUMP JUMPDEST DUP4 DUP6 MSTORE PUSH2 0x1DF DUP5 PUSH2 0x2514 JUMP JUMPDEST PUSH1 0x1F NOT ADD DUP7 PUSH1 0x0 JUMPDEST DUP3 DUP2 LT PUSH2 0x303 JUMPI POP POP POP PUSH1 0x0 JUMPDEST DUP5 DUP2 LT PUSH2 0x259 JUMPI PUSH1 0x40 DUP1 MLOAD DUP9 DUP2 MSTORE DUP8 MLOAD DUP2 DUP11 ADD DUP2 SWAP1 MSTORE PUSH1 0x0 SWAP3 PUSH1 0x5 DUP3 SWAP1 SHL DUP4 ADD DUP2 ADD SWAP2 DUP11 DUP13 ADD SWAP2 DUP13 SWAP1 DUP6 ADD JUMPDEST DUP3 DUP8 LT PUSH2 0x22D JUMPI DUP6 DUP6 SUB DUP7 RETURN JUMPDEST SWAP1 SWAP2 SWAP3 SWAP4 DUP3 DUP1 PUSH2 0x249 PUSH1 0x1 SWAP4 PUSH1 0x3F NOT DUP11 DUP3 SUB ADD DUP7 MSTORE DUP9 MLOAD PUSH2 0x2250 JUMP JUMPDEST SWAP7 ADD SWAP3 ADD SWAP7 ADD SWAP6 SWAP3 SWAP2 SWAP1 SWAP3 PUSH2 0x220 JUMP JUMPDEST DUP1 PUSH2 0x266 PUSH1 0x1 SWAP3 DUP5 PUSH2 0x23C5 JUMP JUMPDEST SWAP1 SLOAD SWAP1 DUP6 SHL SHR PUSH1 0x0 MSTORE PUSH1 0x6 DUP1 DUP10 MSTORE PUSH1 0x40 PUSH1 0x0 KECCAK256 SWAP1 PUSH1 0x40 MLOAD SWAP2 PUSH2 0x287 DUP4 PUSH2 0x22E0 JUMP JUMPDEST DUP1 SLOAD DUP4 MSTORE DUP5 DUP2 ADD SLOAD DUP9 DUP2 AND DUP13 DUP6 ADD MSTORE PUSH2 0x2C6 PUSH1 0xFF PUSH2 0x2AE DUP2 PUSH1 0xA0 SWAP5 DUP6 SHR AND PUSH1 0x40 DUP9 ADD PUSH2 0x2577 JUMP JUMPDEST PUSH1 0x2 DUP5 ADD SLOAD PUSH1 0x60 DUP8 ADD MSTORE DUP10 DUP5 ADD SLOAD AND PUSH1 0x80 DUP7 ADD PUSH2 0x2583 JUMP JUMPDEST PUSH2 0x2D2 PUSH1 0x4 DUP4 ADD PUSH2 0x2456 JUMP JUMPDEST SWAP1 DUP5 ADD MSTORE PUSH1 0x5 DUP2 ADD SLOAD PUSH1 0xC0 DUP5 ADD MSTORE ADD SLOAD PUSH1 0xE0 DUP3 ADD MSTORE PUSH2 0x2F1 DUP3 DUP10 PUSH2 0x28DD JUMP JUMPDEST MSTORE PUSH2 0x2FC DUP2 DUP9 PUSH2 0x28DD JUMP JUMPDEST POP ADD PUSH2 0x1F4 JUMP JUMPDEST PUSH2 0x30B PUSH2 0x2538 JUMP JUMPDEST DUP3 DUP3 DUP11 ADD ADD MSTORE ADD DUP8 SWAP1 PUSH2 0x1E7 JUMP JUMPDEST PUSH1 0x0 DUP1 REVERT JUMPDEST CALLVALUE PUSH2 0x319 JUMPI PUSH1 0x20 CALLDATASIZE PUSH1 0x3 NOT ADD SLT PUSH2 0x319 JUMPI PUSH1 0x4 CALLDATALOAD PUSH1 0x5 DUP2 LT ISZERO PUSH2 0x319 JUMPI PUSH2 0x344 SWAP1 PUSH2 0x24FB JUMP JUMPDEST DUP1 SLOAD PUSH2 0x37D PUSH1 0x1 DUP4 ADD SLOAD SWAP3 PUSH1 0x3 PUSH1 0x2 DUP3 ADD SLOAD SWAP2 ADD SLOAD SWAP1 PUSH1 0x40 MLOAD SWAP5 DUP6 SWAP5 DUP6 SWAP1 SWAP5 SWAP4 SWAP3 PUSH1 0x60 SWAP3 PUSH1 0x80 DUP4 ADD SWAP7 DUP4 MSTORE PUSH1 0x20 DUP4 ADD MSTORE PUSH1 0x40 DUP3 ADD MSTORE ADD MSTORE JUMP JUMPDEST SUB SWAP1 RETURN JUMPDEST CALLVALUE PUSH2 0x319 JUMPI PUSH1 0x20 CALLDATASIZE PUSH1 0x3 NOT ADD SLT PUSH2 0x319 JUMPI PUSH1 0x4 CALLDATALOAD PUSH1 0x0 MSTORE PUSH1 0x6 PUSH1 0x20 MSTORE PUSH2 0x405 PUSH1 0x40 PUSH1 0x0 KECCAK256 DUP1 SLOAD SWAP1 PUSH1 0x1 DUP2 ADD SLOAD SWAP2 PUSH2 0x422 PUSH1 0x2 DUP4 ADD SLOAD SWAP2 PUSH1 0xFF PUSH1 0x3 DUP6 ADD SLOAD AND SWAP1 PUSH2 0x414 PUSH2 0x3CF PUSH1 0x4 DUP8 ADD PUSH2 0x2456 JUMP JUMPDEST SWAP3 PUSH1 0x6 PUSH1 0x5 DUP9 ADD SLOAD SWAP8 ADD SLOAD SWAP6 PUSH1 0x40 MLOAD SWAP10 DUP11 SWAP10 PUSH2 0x100 SWAP6 DUP12 MSTORE PUSH1 0x1 DUP1 PUSH1 0xA0 SHL SUB DUP2 AND PUSH1 0x20 DUP13 ADD MSTORE PUSH1 0xFF PUSH1 0x40 DUP13 ADD SWAP2 PUSH1 0xA0 SHR AND PUSH2 0x21EE JUMP JUMPDEST PUSH1 0x60 DUP10 ADD MSTORE PUSH1 0x80 DUP9 ADD SWAP1 PUSH2 0x21FB JUMP JUMPDEST DUP1 PUSH1 0xA0 DUP8 ADD MSTORE DUP6 ADD SWAP1 PUSH2 0x222B JUMP JUMPDEST SWAP2 PUSH1 0xC0 DUP5 ADD MSTORE PUSH1 0xE0 DUP4 ADD MSTORE SUB SWAP1 RETURN JUMPDEST CALLVALUE PUSH2 0x319 JUMPI PUSH1 0x20 CALLDATASIZE PUSH1 0x3 NOT ADD SLT PUSH2 0x319 JUMPI PUSH2 0x44A PUSH2 0x21C2 JUMP JUMPDEST PUSH2 0x452 PUSH2 0x28F1 JUMP JUMPDEST PUSH1 0x1 PUSH1 0x1 PUSH1 0xA0 SHL SUB SWAP1 DUP2 AND SWAP1 DUP2 ISZERO PUSH2 0x4A6 JUMPI PUSH1 0x0 SLOAD DUP3 PUSH12 0xFFFFFFFFFFFFFFFFFFFFFFFF PUSH1 0xA0 SHL DUP3 AND OR PUSH1 0x0 SSTORE AND PUSH32 0x8BE0079C531659141344CD1FD0A4F28419497F9722A3DAAFE3B4186F6B6457E0 PUSH1 0x0 DUP1 LOG3 STOP JUMPDEST PUSH1 0x40 MLOAD PUSH4 0x1E4FBDF7 PUSH1 0xE0 SHL DUP2 MSTORE PUSH1 0x0 PUSH1 0x4 DUP3 ADD MSTORE PUSH1 0x24 SWAP1 REVERT JUMPDEST CALLVALUE PUSH2 0x319 JUMPI PUSH1 0x0 CALLDATASIZE PUSH1 0x3 NOT ADD SLT PUSH2 0x319 JUMPI PUSH1 0x20 PUSH1 0x8 SLOAD PUSH1 0x40 MLOAD SWAP1 DUP2 MSTORE RETURN JUMPDEST CALLVALUE PUSH2 0x319 JUMPI PUSH1 0x40 CALLDATASIZE PUSH1 0x3 NOT ADD SLT PUSH2 0x319 JUMPI PUSH1 0x4 CALLDATALOAD PUSH1 0x5 DUP2 LT ISZERO PUSH2 0x319 JUMPI PUSH2 0x532 PUSH1 0x2 PUSH2 0x529 PUSH1 0x24 CALLDATALOAD SWAP4 PUSH2 0x50E PUSH2 0x28F1 JUMP JUMPDEST PUSH2 0x517 DUP2 PUSH2 0x24FB JUMP JUMPDEST PUSH2 0x522 DUP7 DUP3 SLOAD PUSH2 0x252B JUMP JUMPDEST SWAP1 SSTORE PUSH2 0x24FB JUMP JUMPDEST ADD SWAP2 DUP3 SLOAD PUSH2 0x252B JUMP JUMPDEST SWAP1 SSTORE STOP JUMPDEST CALLVALUE PUSH2 0x319 JUMPI PUSH1 0x60 CALLDATASIZE PUSH1 0x3 NOT ADD SLT PUSH2 0x319 JUMPI PUSH1 0x44 CALLDATALOAD PUSH1 0x1 PUSH1 0x1 PUSH1 0xA0 SHL SUB DUP2 AND DUP2 SUB PUSH2 0x319 JUMPI PUSH2 0x562 PUSH2 0x28F1 JUMP JUMPDEST PUSH1 0x1 PUSH1 0x1 PUSH1 0xA0 SHL SUB DUP2 AND PUSH1 0x0 SWAP1 DUP2 MSTORE PUSH1 0x2 PUSH1 0x20 MSTORE PUSH1 0x40 SWAP1 KECCAK256 SLOAD PUSH2 0x587 SWAP1 PUSH1 0xFF AND PUSH2 0x258F JUMP JUMPDEST PUSH1 0x1 PUSH1 0x1 PUSH1 0xA0 SHL SUB DUP2 AND PUSH1 0x0 SWAP1 DUP2 MSTORE PUSH1 0x1 PUSH1 0x20 MSTORE PUSH1 0x40 SWAP1 KECCAK256 PUSH1 0xA SLOAD SWAP2 SWAP1 PUSH1 0x24 CALLDATALOAD DUP1 DUP5 MUL DUP2 SWAP1 DIV DUP5 EQ SWAP1 ISZERO OR ISZERO PUSH2 0xAC6 JUMPI PUSH1 0x1 DUP1 PUSH1 0xA0 SHL SUB DUP3 AND PUSH1 0x0 MSTORE PUSH1 0x4 PUSH1 0x20 MSTORE PUSH1 0x40 PUSH1 0x0 KECCAK256 PUSH1 0x40 MLOAD SWAP1 PUSH2 0x5DA DUP3 PUSH2 0x22C5 JUMP JUMPDEST PUSH1 0x4 CALLDATALOAD DUP3 MSTORE PUSH1 0x24 CALLDATALOAD PUSH1 0x20 DUP4 ADD MSTORE DUP5 PUSH1 0x24 CALLDATALOAD MUL PUSH1 0x40 DUP4 ADD MSTORE TIMESTAMP PUSH1 0x60 DUP4 ADD MSTORE DUP1 SLOAD PUSH1 0x1 PUSH1 0x40 SHL DUP2 LT ISZERO PUSH2 0x8F0 JUMPI PUSH2 0x614 SWAP2 PUSH1 0x1 DUP3 ADD DUP2 SSTORE PUSH2 0x2400 JUMP JUMPDEST SWAP2 SWAP1 SWAP2 PUSH2 0x8DA JUMPI PUSH1 0x60 DUP2 PUSH1 0x3 SWAP3 MLOAD DUP5 SSTORE PUSH1 0x20 DUP2 ADD MLOAD PUSH1 0x1 DUP6 ADD SSTORE PUSH1 0x40 DUP2 ADD MLOAD PUSH1 0x2 DUP6 ADD SSTORE ADD MLOAD SWAP2 ADD SSTORE PUSH1 0x3 DUP2 ADD PUSH2 0x64B DUP2 SLOAD PUSH2 0x285B JUMP JUMPDEST SWAP1 SSTORE PUSH1 0x4 DUP2 ADD PUSH2 0x65E PUSH1 0x24 CALLDATALOAD DUP3 SLOAD PUSH2 0x252B JUMP JUMPDEST SWAP1 SSTORE PUSH1 0x5 DUP2 ADD PUSH2 0x673 DUP5 PUSH1 0x24 CALLDATALOAD MUL DUP3 SLOAD PUSH2 0x252B JUMP JUMPDEST DUP1 SWAP2 SSTORE TIMESTAMP PUSH1 0x8 DUP4 ADD SSTORE PUSH1 0x0 DUP1 SWAP2 PUSH1 0x9 DUP5 ADD SLOAD SWAP3 JUMPDEST DUP4 DUP2 LT PUSH2 0xA75 JUMPI POP PUSH1 0x0 SWAP2 PUSH1 0x40 MLOAD PUSH2 0x69E DUP2 PUSH2 0x2318 JUMP JUMPDEST PUSH1 0x0 DUP2 MSTORE SWAP2 PUSH1 0x10 SLOAD DUP2 LT ISZERO DUP1 PUSH2 0xA62 JUMPI JUMPDEST ISZERO PUSH2 0x91C JUMPI POP POP POP POP PUSH1 0x5 SWAP2 PUSH1 0x40 MLOAD PUSH2 0x6C7 DUP2 PUSH2 0x2333 JUMP JUMPDEST PUSH1 0x7 DUP2 MSTORE PUSH7 0x111A585B5BDB99 PUSH1 0xCA SHL PUSH1 0x20 DUP3 ADD MSTORE SWAP1 JUMPDEST PUSH1 0x9 DUP5 LT ISZERO PUSH2 0x906 JUMPI DUP4 PUSH2 0x7A7 JUMPI JUMPDEST PUSH1 0x40 DUP1 MLOAD PUSH1 0x4 CALLDATALOAD DUP2 MSTORE PUSH1 0x24 CALLDATALOAD PUSH1 0x20 DUP3 ADD DUP2 SWAP1 MSTORE DUP9 MUL SWAP2 DUP2 ADD SWAP2 SWAP1 SWAP2 MSTORE TIMESTAMP PUSH1 0x60 DUP3 ADD MSTORE DUP7 SWAP1 PUSH32 0xF6D2806A1F172DFDABA78C50C3A7363A717A3A1CE8053BFD6B99AB0288A0E6F2 SWAP1 PUSH1 0xA0 SWAP1 DUP9 SWAP1 PUSH1 0x1 PUSH1 0x1 PUSH1 0xA0 SHL SUB DUP3 AND SWAP1 PUSH32 0x7660C9323F7B1548041569735D659B99B33E9F48B7F1B6DD202122536043D248 SWAP1 PUSH1 0x80 SWAP1 LOG2 PUSH1 0x40 MLOAD SWAP4 PUSH1 0x24 CALLDATALOAD MUL DUP5 MSTORE PUSH1 0x60 PUSH1 0x20 DUP6 ADD MSTORE PUSH1 0xD PUSH1 0x60 DUP6 ADD MSTORE PUSH13 0x5175616C6974792073636F7265 PUSH1 0x98 SHL PUSH1 0x80 DUP6 ADD MSTORE TIMESTAMP PUSH1 0x40 DUP6 ADD MSTORE PUSH1 0x1 DUP1 DUP4 SHL SUB AND SWAP3 LOG2 STOP JUMPDEST PUSH1 0x40 SWAP5 SWAP3 SWAP4 SWAP5 MLOAD SWAP4 PUSH2 0x7FE PUSH1 0x39 DUP7 DUP6 MLOAD PUSH2 0x7C8 DUP2 PUSH1 0x20 DUP5 ADD PUSH1 0x20 DUP11 ADD PUSH2 0x2208 JUMP JUMPDEST DUP2 ADD PUSH32 0x206261646765206561726E656420666F72206C6F79616C747900000000000000 PUSH1 0x20 DUP3 ADD MSTORE SUB PUSH1 0x19 DUP2 ADD DUP9 MSTORE ADD DUP7 PUSH2 0x234E JUMP JUMPDEST PUSH1 0x40 MLOAD SWAP5 PUSH2 0x80B DUP7 PUSH2 0x22C5 JUMP JUMPDEST PUSH2 0x815 DUP8 DUP8 PUSH2 0x286A JUMP JUMPDEST DUP4 PUSH1 0x20 DUP8 ADD MSTORE TIMESTAMP PUSH1 0x40 DUP8 ADD MSTORE PUSH1 0x60 DUP7 ADD MSTORE PUSH1 0x1 PUSH1 0x40 SHL DUP2 LT ISZERO PUSH2 0x8F0 JUMPI DUP1 PUSH1 0x1 PUSH2 0x848 SWAP3 ADD PUSH1 0x9 DUP5 ADD SSTORE PUSH1 0x9 DUP4 ADD PUSH2 0x2400 JUMP JUMPDEST PUSH2 0x8DA JUMPI PUSH32 0xF6D2806A1F172DFDABA78C50C3A7363A717A3A1CE8053BFD6B99AB0288A0E6F2 SWAP6 PUSH2 0x8C9 PUSH32 0x537140F1966B3B75C8239AB8AF0483335F1DDA98B52D64EE7E010C46023D8BC SWAP4 PUSH2 0x8A2 PUSH1 0xA0 SWAP9 PUSH2 0x8B8 SWAP6 PUSH2 0x2633 JUMP JUMPDEST PUSH1 0x1 DUP1 DUP10 SHL SUB SWAP1 SLOAD AND SWAP5 PUSH1 0x40 MLOAD SWAP4 DUP5 DUP1 SWAP5 PUSH2 0x23F3 JUMP JUMPDEST PUSH1 0x60 PUSH1 0x20 DUP5 ADD MSTORE PUSH1 0x60 DUP4 ADD SWAP1 PUSH2 0x222B JUMP JUMPDEST TIMESTAMP PUSH1 0x40 DUP4 ADD MSTORE SUB SWAP1 LOG2 SWAP2 DUP5 DUP1 PUSH2 0x6EC JUMP JUMPDEST PUSH4 0x4E487B71 PUSH1 0xE0 SHL PUSH1 0x0 MSTORE PUSH1 0x0 PUSH1 0x4 MSTORE PUSH1 0x24 PUSH1 0x0 REVERT JUMPDEST PUSH4 0x4E487B71 PUSH1 0xE0 SHL PUSH1 0x0 MSTORE PUSH1 0x41 PUSH1 0x4 MSTORE PUSH1 0x24 PUSH1 0x0 REVERT JUMPDEST PUSH4 0x4E487B71 PUSH1 0xE0 SHL PUSH1 0x0 MSTORE PUSH1 0x21 PUSH1 0x4 MSTORE PUSH1 0x24 PUSH1 0x0 REVERT JUMPDEST PUSH1 0xF SLOAD DUP2 LT ISZERO DUP1 PUSH2 0xA4F JUMPI JUMPDEST ISZERO PUSH2 0x95C JUMPI POP POP POP POP PUSH1 0x4 SWAP2 PUSH1 0x40 MLOAD PUSH2 0x940 DUP2 PUSH2 0x2333 JUMP JUMPDEST PUSH1 0x8 DUP2 MSTORE PUSH8 0x506C6174696E756D PUSH1 0xC0 SHL PUSH1 0x20 DUP3 ADD MSTORE SWAP1 JUMPDEST PUSH2 0x6DD JUMP JUMPDEST PUSH1 0xE SLOAD DUP2 LT ISZERO DUP1 PUSH2 0xA3C JUMPI JUMPDEST ISZERO PUSH2 0x997 JUMPI POP POP POP POP PUSH1 0x3 SWAP2 PUSH1 0x40 MLOAD PUSH2 0x980 DUP2 PUSH2 0x2333 JUMP JUMPDEST PUSH1 0x4 DUP2 MSTORE PUSH4 0x11DBDB19 PUSH1 0xE2 SHL PUSH1 0x20 DUP3 ADD MSTORE SWAP1 PUSH2 0x6DD JUMP JUMPDEST PUSH1 0xD SLOAD DUP2 LT ISZERO DUP1 PUSH2 0xA29 JUMPI JUMPDEST ISZERO PUSH2 0x9D4 JUMPI POP POP POP POP PUSH1 0x2 SWAP2 PUSH1 0x40 MLOAD PUSH2 0x9BB DUP2 PUSH2 0x2333 JUMP JUMPDEST PUSH1 0x6 DUP2 MSTORE PUSH6 0x29B4B63B32B9 PUSH1 0xD1 SHL PUSH1 0x20 DUP3 ADD MSTORE SWAP1 PUSH2 0x6DD JUMP JUMPDEST PUSH1 0xC SWAP6 SWAP3 SWAP4 SWAP6 SLOAD GT ISZERO SWAP1 DUP2 PUSH2 0xA15 JUMPI JUMPDEST POP ISZERO PUSH2 0x957 JUMPI SWAP3 POP POP PUSH1 0x1 SWAP2 PUSH1 0x40 MLOAD PUSH2 0x9FC DUP2 PUSH2 0x2333 JUMP JUMPDEST PUSH1 0x6 DUP2 MSTORE PUSH6 0x42726F6E7A65 PUSH1 0xD0 SHL PUSH1 0x20 DUP3 ADD MSTORE SWAP1 PUSH2 0x6DD JUMP JUMPDEST SWAP1 POP PUSH1 0x9 DUP2 LT ISZERO PUSH2 0x906 JUMPI PUSH1 0x1 GT DUP8 PUSH2 0x9E4 JUMP JUMPDEST POP PUSH1 0x9 DUP3 LT ISZERO PUSH2 0x906 JUMPI PUSH1 0x2 DUP3 LT PUSH2 0x9A3 JUMP JUMPDEST POP PUSH1 0x9 DUP3 LT ISZERO PUSH2 0x906 JUMPI PUSH1 0x3 DUP3 LT PUSH2 0x968 JUMP JUMPDEST POP PUSH1 0x9 DUP3 LT ISZERO PUSH2 0x906 JUMPI PUSH1 0x4 DUP3 LT PUSH2 0x928 JUMP JUMPDEST POP PUSH1 0x9 DUP3 LT ISZERO PUSH2 0x906 JUMPI PUSH1 0x5 DUP3 LT PUSH2 0x6AF JUMP JUMPDEST PUSH1 0xFF PUSH2 0xA84 DUP3 PUSH1 0x9 DUP9 ADD PUSH2 0x2400 JUMP JUMPDEST POP SLOAD AND PUSH1 0x9 DUP5 LT ISZERO PUSH2 0x906 JUMPI PUSH1 0x9 DUP2 LT ISZERO PUSH2 0x906 JUMPI DUP4 LT PUSH2 0xAA8 JUMPI JUMPDEST PUSH1 0x1 ADD PUSH2 0x687 JUMP JUMPDEST SWAP2 POP PUSH1 0x1 PUSH1 0xFF PUSH2 0xABB DUP5 PUSH1 0x9 DUP9 ADD PUSH2 0x2400 JUMP JUMPDEST POP SLOAD AND SWAP3 SWAP1 POP PUSH2 0xAA0 JUMP JUMPDEST PUSH4 0x4E487B71 PUSH1 0xE0 SHL PUSH1 0x0 MSTORE PUSH1 0x11 PUSH1 0x4 MSTORE PUSH1 0x24 PUSH1 0x0 REVERT JUMPDEST CALLVALUE PUSH2 0x319 JUMPI PUSH1 0x0 CALLDATASIZE PUSH1 0x3 NOT ADD SLT PUSH2 0x319 JUMPI PUSH1 0x20 PUSH1 0x10 SLOAD PUSH1 0x40 MLOAD SWAP1 DUP2 MSTORE RETURN JUMPDEST CALLVALUE PUSH2 0x319 JUMPI PUSH1 0x20 CALLDATASIZE PUSH1 0x3 NOT ADD SLT PUSH2 0x319 JUMPI PUSH1 0x20 PUSH2 0xB1D PUSH2 0xB18 PUSH2 0x21C2 JUMP JUMPDEST PUSH2 0x28AB JUMP JUMPDEST PUSH1 0x40 MLOAD SWAP1 DUP2 MSTORE RETURN JUMPDEST CALLVALUE PUSH2 0x319 JUMPI PUSH1 0x40 CALLDATASIZE PUSH1 0x3 NOT ADD SLT PUSH2 0x319 JUMPI PUSH1 0x4 CALLDATALOAD PUSH1 0x24 DUP1 CALLDATALOAD SWAP1 CALLER PUSH1 0x0 MSTORE PUSH1 0x1 SWAP1 PUSH1 0x20 SWAP2 DUP1 DUP4 MSTORE PUSH1 0x5 PUSH1 0x40 PUSH1 0x0 KECCAK256 ADD DUP1 SLOAD SWAP1 DUP7 DUP3 LT PUSH2 0xE18 JUMPI DUP7 DUP3 SUB SWAP2 DUP3 GT PUSH2 0xE03 JUMPI SSTORE PUSH1 0x8 SLOAD SWAP2 PUSH2 0xB75 DUP4 PUSH2 0x285B JUMP JUMPDEST PUSH1 0x8 SSTORE PUSH1 0x40 MLOAD SWAP2 PUSH2 0xB85 DUP4 PUSH2 0x22E0 JUMP JUMPDEST DUP4 DUP4 MSTORE DUP5 DUP4 ADD SWAP1 CALLER DUP3 MSTORE PUSH1 0x40 DUP5 ADD SWAP3 DUP2 DUP5 MSTORE PUSH1 0x60 DUP6 ADD SWAP2 DUP9 DUP4 MSTORE PUSH1 0x80 DUP7 ADD PUSH1 0x0 DUP2 MSTORE PUSH1 0x40 MLOAD SWAP4 PUSH2 0xBB4 DUP6 PUSH2 0x2333 JUMP JUMPDEST PUSH1 0x11 DUP6 MSTORE PUSH17 0x2837B4B73A39903932B232B6B83A34B7B7 PUSH1 0x79 SHL DUP11 DUP7 ADD MSTORE PUSH1 0xA0 DUP9 ADD SWAP5 DUP6 MSTORE PUSH1 0xC0 DUP9 ADD SWAP6 TIMESTAMP DUP8 MSTORE PUSH1 0xE0 DUP10 ADD SWAP8 PUSH1 0x0 DUP10 MSTORE DUP11 PUSH1 0x0 MSTORE PUSH1 0x6 DUP13 MSTORE PUSH1 0x40 PUSH1 0x0 KECCAK256 SWAP10 MLOAD DUP11 SSTORE DUP5 DUP11 ADD SWAP2 PUSH1 0x1 DUP1 PUSH1 0xA0 SHL SUB SWAP1 MLOAD AND DUP3 SLOAD SWAP2 MLOAD PUSH1 0x5 DUP2 LT ISZERO PUSH2 0xDEE JUMPI PUSH1 0x1 PUSH1 0x1 PUSH1 0xA8 SHL SUB NOT SWAP1 SWAP3 AND OR PUSH1 0xA0 SWAP2 SWAP1 SWAP2 SHL PUSH1 0xFF PUSH1 0xA0 SHL AND OR SWAP1 SSTORE MLOAD PUSH1 0x2 DUP9 ADD SSTORE MLOAD PUSH1 0x3 DUP8 ADD SWAP1 PUSH1 0x4 DUP2 LT ISZERO PUSH2 0xDD9 JUMPI PUSH1 0xFF DUP1 NOT DUP4 SLOAD AND SWAP2 AND OR SWAP1 SSTORE PUSH1 0x4 DUP7 ADD SWAP3 MLOAD DUP1 MLOAD SWAP3 PUSH1 0x1 PUSH1 0x1 PUSH1 0x40 SHL SUB DUP5 GT PUSH2 0xDC5 JUMPI POP PUSH2 0xC74 DUP5 SLOAD PUSH2 0x241C JUMP JUMPDEST PUSH1 0x1F DUP2 GT PUSH2 0xD8A JUMPI JUMPDEST POP DUP9 SWAP2 PUSH1 0x1F DUP5 GT PUSH1 0x1 EQ PUSH2 0xD1B JUMPI POP DUP3 PUSH1 0x6 SWAP6 SWAP4 PUSH2 0xCD9 SWAP10 SWAP9 SWAP8 SWAP6 SWAP4 PUSH2 0xCBA SWAP4 PUSH1 0x0 SWAP3 PUSH2 0xD10 JUMPI JUMPDEST POP POP DUP2 PUSH1 0x1 SHL SWAP2 PUSH1 0x0 NOT SWAP1 PUSH1 0x3 SHL SHR NOT AND OR SWAP1 JUMP JUMPDEST SWAP1 SSTORE JUMPDEST MLOAD PUSH1 0x5 DUP5 ADD SSTORE MLOAD SWAP2 ADD SSTORE CALLER PUSH1 0x0 MSTORE PUSH1 0x3 DUP4 MSTORE PUSH1 0x40 PUSH1 0x0 KECCAK256 PUSH2 0x2876 JUMP JUMPDEST PUSH1 0x40 MLOAD SWAP3 DUP4 MSTORE DUP3 ADD MSTORE TIMESTAMP PUSH1 0x40 DUP3 ADD MSTORE PUSH32 0x90138E15F43CE1520BD445151B279C8047B276F6DC4D41F9FAE44CD7ECFE4E7E PUSH1 0x60 CALLER SWAP3 LOG2 STOP JUMPDEST ADD MLOAD SWAP1 POP DUP14 DUP1 PUSH2 0xCA5 JUMP JUMPDEST SWAP3 SWAP2 PUSH1 0x1F NOT DUP4 AND SWAP2 DUP6 PUSH1 0x0 MSTORE DUP11 PUSH1 0x0 KECCAK256 SWAP3 PUSH1 0x0 JUMPDEST DUP13 DUP3 DUP3 LT PUSH2 0xD76 JUMPI POP POP SWAP2 PUSH1 0x6 SWAP8 SWAP6 SWAP4 SWAP2 DUP6 PUSH2 0xCD9 SWAP13 SWAP12 SWAP11 SWAP9 SWAP7 SWAP5 LT PUSH2 0xD5D JUMPI JUMPDEST POP POP POP DUP2 SHL ADD SWAP1 SSTORE PUSH2 0xCBD JUMP JUMPDEST ADD MLOAD PUSH1 0x0 NOT PUSH1 0xF8 DUP5 PUSH1 0x3 SHL AND SHR NOT AND SWAP1 SSTORE DUP13 DUP1 DUP1 PUSH2 0xD50 JUMP JUMPDEST DUP4 DUP6 ADD MLOAD DUP7 SSTORE SWAP5 DUP8 ADD SWAP5 SWAP4 DUP5 ADD SWAP4 ADD PUSH2 0xD2F JUMP JUMPDEST PUSH2 0xDB5 SWAP1 DUP6 PUSH1 0x0 MSTORE DUP11 PUSH1 0x0 KECCAK256 PUSH1 0x1F DUP7 ADD PUSH1 0x5 SHR DUP2 ADD SWAP2 DUP13 DUP8 LT PUSH2 0xDBB JUMPI JUMPDEST PUSH1 0x1F ADD PUSH1 0x5 SHR ADD SWAP1 PUSH2 0x25D3 JUMP JUMPDEST DUP12 PUSH2 0xC7D JUMP JUMPDEST SWAP1 SWAP2 POP DUP2 SWAP1 PUSH2 0xDA8 JUMP JUMPDEST PUSH4 0x4E487B71 PUSH1 0xE0 SHL PUSH1 0x0 SWAP1 DUP2 MSTORE PUSH1 0x41 PUSH1 0x4 MSTORE REVERT JUMPDEST DUP4 PUSH4 0x4E487B71 PUSH1 0xE0 SHL PUSH1 0x0 MSTORE PUSH1 0x21 PUSH1 0x4 MSTORE PUSH1 0x0 REVERT JUMPDEST DUP8 PUSH4 0x4E487B71 PUSH1 0xE0 SHL PUSH1 0x0 MSTORE PUSH1 0x21 PUSH1 0x4 MSTORE PUSH1 0x0 REVERT JUMPDEST DUP4 PUSH4 0x4E487B71 PUSH1 0xE0 SHL PUSH1 0x0 MSTORE PUSH1 0x11 PUSH1 0x4 MSTORE PUSH1 0x0 REVERT JUMPDEST PUSH1 0x40 MLOAD PUSH3 0x461BCD PUSH1 0xE5 SHL DUP2 MSTORE PUSH1 0x4 DUP2 ADD DUP7 SWAP1 MSTORE PUSH1 0x13 DUP2 DUP7 ADD MSTORE PUSH19 0x496E73756666696369656E7420706F696E7473 PUSH1 0x68 SHL PUSH1 0x44 DUP3 ADD MSTORE PUSH1 0x64 SWAP1 REVERT JUMPDEST CALLVALUE PUSH2 0x319 JUMPI PUSH1 0x0 CALLDATASIZE PUSH1 0x3 NOT ADD SLT PUSH2 0x319 JUMPI PUSH1 0x20 PUSH1 0xD SLOAD PUSH1 0x40 MLOAD SWAP1 DUP2 MSTORE RETURN JUMPDEST CALLVALUE PUSH2 0x319 JUMPI PUSH1 0x40 CALLDATASIZE PUSH1 0x3 NOT ADD SLT PUSH2 0x319 JUMPI PUSH2 0xE89 PUSH2 0x21C2 JUMP JUMPDEST PUSH2 0xE91 PUSH2 0x21D8 JUMP JUMPDEST SWAP1 PUSH1 0x1 DUP1 PUSH1 0xA0 SHL SUB DUP1 SWAP2 AND PUSH1 0x0 MSTORE PUSH1 0x5 PUSH1 0x20 MSTORE PUSH1 0x40 PUSH1 0x0 KECCAK256 SWAP2 AND PUSH1 0x0 MSTORE PUSH1 0x20 MSTORE PUSH1 0x20 PUSH1 0xFF PUSH1 0x40 PUSH1 0x0 KECCAK256 SLOAD AND PUSH1 0x40 MLOAD SWAP1 ISZERO ISZERO DUP2 MSTORE RETURN JUMPDEST CALLVALUE PUSH2 0x319 JUMPI PUSH1 0x0 CALLDATASIZE PUSH1 0x3 NOT ADD SLT PUSH2 0x319 JUMPI PUSH1 0x20 PUSH1 0xE SLOAD PUSH1 0x40 MLOAD SWAP1 DUP2 MSTORE RETURN JUMPDEST CALLVALUE PUSH2 0x319 JUMPI PUSH1 0x0 CALLDATASIZE PUSH1 0x3 NOT ADD SLT PUSH2 0x319 JUMPI PUSH1 0x20 PUSH1 0xC SLOAD PUSH1 0x40 MLOAD SWAP1 DUP2 MSTORE RETURN JUMPDEST CALLVALUE PUSH2 0x319 JUMPI PUSH1 0x20 CALLDATASIZE PUSH1 0x3 NOT ADD SLT PUSH2 0x319 JUMPI PUSH1 0x1 PUSH1 0x1 PUSH1 0xA0 SHL SUB DUP1 PUSH2 0xF24 PUSH2 0x21C2 JUMP JUMPDEST AND PUSH1 0x0 MSTORE PUSH1 0x1 PUSH1 0x20 MSTORE PUSH1 0x40 PUSH1 0x0 KECCAK256 SWAP1 DUP2 SLOAD AND PUSH2 0xF42 PUSH1 0x1 DUP4 ADD PUSH2 0x2456 JUMP JUMPDEST SWAP2 PUSH2 0xF4F PUSH1 0x2 DUP3 ADD PUSH2 0x2456 JUMP JUMPDEST PUSH1 0x3 DUP3 ADD SLOAD SWAP2 PUSH1 0x4 DUP2 ADD SLOAD PUSH1 0x5 DUP3 ADD SLOAD PUSH1 0x6 DUP4 ADD SLOAD SWAP1 PUSH1 0x7 DUP5 ADD SLOAD SWAP3 PUSH2 0xFA8 PUSH1 0xFF PUSH1 0xA PUSH1 0x8 DUP9 ADD SLOAD SWAP8 ADD SLOAD AND SWAP7 PUSH2 0xF9A PUSH1 0x40 MLOAD SWAP12 DUP13 DUP1 SWAP13 PUSH1 0x20 PUSH2 0x140 SWAP3 DUP4 SWAP3 DUP2 MSTORE ADD MSTORE DUP13 ADD SWAP1 PUSH2 0x222B JUMP JUMPDEST SWAP1 DUP11 DUP3 SUB PUSH1 0x40 DUP13 ADD MSTORE PUSH2 0x222B JUMP JUMPDEST SWAP7 PUSH1 0x60 DUP10 ADD MSTORE PUSH1 0x80 DUP9 ADD MSTORE PUSH1 0xA0 DUP8 ADD MSTORE PUSH1 0xC0 DUP7 ADD MSTORE PUSH1 0xE0 DUP6 ADD MSTORE PUSH2 0x100 DUP5 ADD MSTORE ISZERO ISZERO PUSH2 0x120 DUP4 ADD MSTORE SUB SWAP1 RETURN JUMPDEST CALLVALUE PUSH2 0x319 JUMPI PUSH1 0x0 CALLDATASIZE PUSH1 0x3 NOT ADD SLT PUSH2 0x319 JUMPI PUSH1 0x0 SLOAD PUSH1 0x40 MLOAD PUSH1 0x1 PUSH1 0x1 PUSH1 0xA0 SHL SUB SWAP1 SWAP2 AND DUP2 MSTORE PUSH1 0x20 SWAP1 RETURN JUMPDEST CALLVALUE PUSH2 0x319 JUMPI PUSH1 0x20 CALLDATASIZE PUSH1 0x3 NOT ADD SLT PUSH2 0x319 JUMPI PUSH1 0x1 PUSH1 0x1 PUSH1 0xA0 SHL SUB PUSH2 0x101E PUSH2 0x21C2 JUMP JUMPDEST AND PUSH1 0x0 MSTORE PUSH1 0x2 PUSH1 0x20 MSTORE PUSH1 0x20 PUSH1 0xFF PUSH1 0x40 PUSH1 0x0 KECCAK256 SLOAD AND PUSH1 0x40 MLOAD SWAP1 ISZERO ISZERO DUP2 MSTORE RETURN JUMPDEST CALLVALUE PUSH2 0x319 JUMPI PUSH1 0x20 CALLDATASIZE PUSH1 0x3 NOT ADD SLT PUSH2 0x319 JUMPI PUSH2 0x1055 PUSH2 0x28F1 JUMP JUMPDEST PUSH1 0x4 CALLDATALOAD PUSH1 0xA SSTORE STOP JUMPDEST CALLVALUE PUSH2 0x319 JUMPI PUSH1 0x0 CALLDATASIZE PUSH1 0x3 NOT ADD SLT PUSH2 0x319 JUMPI PUSH2 0x1076 PUSH2 0x28F1 JUMP JUMPDEST PUSH1 0x0 DUP1 SLOAD PUSH1 0x1 PUSH1 0x1 PUSH1 0xA0 SHL SUB NOT DUP2 AND DUP3 SSTORE PUSH1 0x1 PUSH1 0x1 PUSH1 0xA0 SHL SUB AND PUSH32 0x8BE0079C531659141344CD1FD0A4F28419497F9722A3DAAFE3B4186F6B6457E0 DUP3 DUP1 LOG3 STOP JUMPDEST CALLVALUE PUSH2 0x319 JUMPI PUSH1 0x80 CALLDATASIZE PUSH1 0x3 NOT ADD SLT PUSH2 0x319 JUMPI PUSH2 0x10CF PUSH2 0x21C2 JUMP JUMPDEST PUSH1 0x5 PUSH1 0x24 CALLDATALOAD LT ISZERO PUSH2 0x319 JUMPI PUSH1 0x64 CALLDATALOAD PUSH1 0x1 PUSH1 0x1 PUSH1 0x40 SHL SUB DUP2 GT PUSH2 0x319 JUMPI PUSH2 0x10F9 SWAP1 CALLDATASIZE SWAP1 PUSH1 0x4 ADD PUSH2 0x236F JUMP JUMPDEST SWAP1 PUSH2 0x1102 PUSH2 0x28F1 JUMP JUMPDEST PUSH1 0x8 SLOAD SWAP1 PUSH2 0x110F DUP3 PUSH2 0x285B JUMP JUMPDEST PUSH1 0x8 SSTORE PUSH1 0x40 MLOAD SWAP3 PUSH2 0x111F DUP5 PUSH2 0x22E0 JUMP JUMPDEST DUP3 DUP5 MSTORE PUSH1 0x1 PUSH1 0x1 PUSH1 0xA0 SHL SUB DUP3 AND PUSH1 0x20 DUP6 ADD MSTORE PUSH2 0x1140 PUSH1 0x24 CALLDATALOAD PUSH1 0x40 DUP7 ADD PUSH2 0x2577 JUMP JUMPDEST PUSH1 0x44 CALLDATALOAD PUSH1 0x60 DUP6 ADD MSTORE PUSH1 0x2 PUSH1 0x80 DUP6 ADD MSTORE PUSH1 0xA0 DUP5 ADD MSTORE TIMESTAMP PUSH1 0xC0 DUP5 ADD MSTORE TIMESTAMP PUSH1 0xE0 DUP5 ADD MSTORE DUP2 PUSH1 0x0 MSTORE PUSH1 0x6 PUSH1 0x20 MSTORE PUSH1 0x40 PUSH1 0x0 KECCAK256 DUP4 MLOAD DUP2 SSTORE PUSH1 0x1 DUP2 ADD PUSH1 0x1 DUP1 PUSH1 0xA0 SHL SUB PUSH1 0x20 DUP7 ADD MLOAD AND DUP2 SLOAD SWAP1 PUSH1 0x40 DUP8 ADD MLOAD PUSH1 0x5 DUP2 LT ISZERO PUSH2 0x906 JUMPI PUSH1 0xFF PUSH1 0xA0 SHL SWAP1 PUSH1 0xA0 SHL AND SWAP2 PUSH11 0xFFFFFFFFFFFFFFFFFFFFFF PUSH1 0xA8 SHL AND OR OR SWAP1 SSTORE PUSH1 0x60 DUP5 ADD MLOAD PUSH1 0x2 DUP3 ADD SSTORE PUSH1 0x3 DUP2 ADD PUSH1 0x80 DUP6 ADD MLOAD PUSH1 0x4 DUP2 LT ISZERO PUSH2 0x906 JUMPI PUSH1 0xFF DUP1 NOT DUP4 SLOAD AND SWAP2 AND OR SWAP1 SSTORE PUSH1 0xA0 DUP5 ADD MLOAD SWAP4 DUP5 MLOAD PUSH1 0x1 PUSH1 0x1 PUSH1 0x40 SHL SUB DUP2 GT PUSH2 0x8F0 JUMPI PUSH1 0x20 SWAP6 PUSH2 0x1201 PUSH1 0x4 DUP6 ADD SLOAD PUSH2 0x241C JUMP JUMPDEST PUSH1 0x1F DUP2 GT PUSH2 0x141D JUMPI JUMPDEST POP DUP7 SWAP1 PUSH1 0x1F DUP4 GT PUSH1 0x1 EQ PUSH2 0x13AA JUMPI DUP3 PUSH1 0xE0 SWAP4 PUSH1 0x6 SWAP6 SWAP4 PUSH2 0x1240 SWAP4 PUSH1 0x0 SWAP3 PUSH2 0x139F JUMPI POP POP DUP2 PUSH1 0x1 SHL SWAP2 PUSH1 0x0 NOT SWAP1 PUSH1 0x3 SHL SHR NOT AND OR SWAP1 JUMP JUMPDEST PUSH1 0x4 DUP6 ADD SSTORE JUMPDEST PUSH1 0xC0 DUP2 ADD MLOAD PUSH1 0x5 DUP6 ADD SSTORE ADD MLOAD SWAP2 ADD SSTORE PUSH1 0x1 DUP1 PUSH1 0xA0 SHL SUB DUP2 AND PUSH1 0x0 MSTORE PUSH1 0x3 DUP4 MSTORE PUSH2 0x1273 DUP3 PUSH1 0x40 PUSH1 0x0 KECCAK256 PUSH2 0x2876 JUMP JUMPDEST PUSH1 0x24 CALLDATALOAD PUSH2 0x1355 JUMPI PUSH1 0x1 DUP1 PUSH1 0xA0 SHL SUB DUP2 AND PUSH1 0x0 MSTORE PUSH1 0x1 DUP4 MSTORE PUSH1 0x5 PUSH1 0x40 PUSH1 0x0 KECCAK256 ADD PUSH2 0x129F PUSH1 0x44 CALLDATALOAD DUP3 SLOAD PUSH2 0x252B JUMP JUMPDEST SWAP1 SSTORE JUMPDEST PUSH1 0x1 PUSH2 0x12AF PUSH1 0x24 CALLDATALOAD PUSH2 0x24FB JUMP JUMPDEST ADD PUSH2 0x12BD PUSH1 0x44 CALLDATALOAD DUP3 SLOAD PUSH2 0x252B JUMP JUMPDEST SWAP1 SSTORE PUSH1 0x40 MLOAD PUSH2 0x12CE DUP2 PUSH1 0x24 CALLDATALOAD PUSH2 0x21EE JUMP JUMPDEST PUSH1 0x44 CALLDATALOAD DUP2 DUP6 ADD MSTORE TIMESTAMP PUSH1 0x40 DUP3 ADD MSTORE PUSH1 0x1 PUSH1 0x1 PUSH1 0xA0 SHL SUB DUP3 AND SWAP1 DUP4 SWAP1 PUSH32 0x5F4FE0E94E465060F3CACCAC30AF8E64FB316F7724D6060547B9DF64EC39C77E SWAP1 PUSH1 0x60 SWAP1 LOG3 PUSH1 0x40 DUP1 MLOAD PUSH1 0x44 CALLDATALOAD DUP2 MSTORE TIMESTAMP DUP6 DUP3 ADD MSTORE PUSH1 0x1 PUSH1 0x1 PUSH1 0xA0 SHL SUB SWAP1 SWAP3 AND SWAP2 DUP4 SWAP2 PUSH32 0x602AB809FA82D3A742A4F9A33CDD154988D8B0F578EE4DC91DE3DC412BF026B9 SWAP2 LOG3 PUSH1 0x40 MLOAD SWAP1 DUP2 MSTORE RETURN JUMPDEST PUSH1 0x1 PUSH1 0x24 CALLDATALOAD EQ DUP1 ISZERO PUSH2 0x1393 JUMPI JUMPDEST ISZERO PUSH2 0x12A2 JUMPI PUSH1 0x1 DUP1 PUSH1 0xA0 SHL SUB DUP2 AND PUSH1 0x0 MSTORE PUSH1 0x1 DUP4 MSTORE PUSH1 0x6 PUSH1 0x40 PUSH1 0x0 KECCAK256 ADD PUSH2 0x138C PUSH1 0x44 CALLDATALOAD DUP3 SLOAD PUSH2 0x252B JUMP JUMPDEST SWAP1 SSTORE PUSH2 0x12A2 JUMP JUMPDEST POP PUSH1 0x4 PUSH1 0x24 CALLDATALOAD EQ PUSH2 0x1362 JUMP JUMPDEST ADD MLOAD SWAP1 POP DUP11 DUP1 PUSH2 0xCA5 JUMP JUMPDEST SWAP1 PUSH1 0x4 DUP6 ADD PUSH1 0x0 MSTORE DUP8 PUSH1 0x0 KECCAK256 SWAP2 PUSH1 0x0 JUMPDEST PUSH1 0x1F NOT DUP6 AND DUP2 LT PUSH2 0x1406 JUMPI POP SWAP3 PUSH1 0x6 SWAP5 SWAP3 PUSH1 0x1 SWAP3 PUSH1 0xE0 SWAP6 DUP4 PUSH1 0x1F NOT DUP2 AND LT PUSH2 0x13ED JUMPI JUMPDEST POP POP POP DUP2 SHL ADD PUSH1 0x4 DUP6 ADD SSTORE PUSH2 0x1246 JUMP JUMPDEST ADD MLOAD PUSH1 0x0 NOT PUSH1 0xF8 DUP5 PUSH1 0x3 SHL AND SHR NOT AND SWAP1 SSTORE DUP10 DUP1 DUP1 PUSH2 0x13DD JUMP JUMPDEST SWAP2 SWAP3 DUP10 PUSH1 0x1 DUP2 SWAP3 DUP7 DUP6 ADD MLOAD DUP2 SSTORE ADD SWAP5 ADD SWAP3 ADD PUSH2 0x13BA JUMP JUMPDEST PUSH2 0x144A SWAP1 PUSH1 0x4 DUP7 ADD PUSH1 0x0 MSTORE DUP9 PUSH1 0x0 KECCAK256 PUSH1 0x1F DUP6 ADD PUSH1 0x5 SHR DUP2 ADD SWAP2 DUP11 DUP7 LT PUSH2 0xDBB JUMPI PUSH1 0x1F ADD PUSH1 0x5 SHR ADD SWAP1 PUSH2 0x25D3 JUMP JUMPDEST DUP8 PUSH2 0x120A JUMP JUMPDEST CALLVALUE PUSH2 0x319 JUMPI PUSH1 0x0 CALLDATASIZE PUSH1 0x3 NOT ADD SLT PUSH2 0x319 JUMPI PUSH1 0x20 PUSH1 0x9 SLOAD PUSH1 0x40 MLOAD SWAP1 DUP2 MSTORE RETURN JUMPDEST CALLVALUE PUSH2 0x319 JUMPI PUSH1 0x20 CALLDATASIZE PUSH1 0x3 NOT ADD SLT PUSH2 0x319 JUMPI PUSH1 0x1 PUSH1 0x1 PUSH1 0xA0 SHL SUB PUSH2 0x148F PUSH2 0x21C2 JUMP JUMPDEST AND PUSH1 0x0 MSTORE PUSH1 0x1 PUSH1 0x20 MSTORE PUSH1 0x20 PUSH1 0x40 MLOAD PUSH1 0x0 DUP2 MSTORE RETURN JUMPDEST CALLVALUE PUSH2 0x319 JUMPI PUSH1 0x40 CALLDATASIZE PUSH1 0x3 NOT ADD SLT PUSH2 0x319 JUMPI PUSH2 0x14BC PUSH2 0x21C2 JUMP JUMPDEST PUSH1 0x1 PUSH1 0x1 PUSH1 0xA0 SHL SUB AND PUSH1 0x0 SWAP1 DUP2 MSTORE PUSH1 0x4 PUSH1 0x20 MSTORE PUSH1 0x40 SWAP1 KECCAK256 DUP1 SLOAD PUSH1 0x24 CALLDATALOAD SWAP1 DUP2 LT ISZERO PUSH2 0x319 JUMPI PUSH2 0x14E9 SWAP2 PUSH2 0x2400 JUMP JUMPDEST POP DUP1 SLOAD PUSH2 0x37D PUSH1 0x1 DUP4 ADD SLOAD SWAP3 PUSH1 0x3 PUSH1 0x2 DUP3 ADD SLOAD SWAP2 ADD SLOAD SWAP1 PUSH1 0x40 MLOAD SWAP5 DUP6 SWAP5 DUP6 SWAP1 SWAP5 SWAP4 SWAP3 PUSH1 0x60 SWAP3 PUSH1 0x80 DUP4 ADD SWAP7 DUP4 MSTORE PUSH1 0x20 DUP4 ADD MSTORE PUSH1 0x40 DUP3 ADD MSTORE ADD MSTORE JUMP JUMPDEST CALLVALUE PUSH2 0x319 JUMPI PUSH1 0x20 CALLDATASIZE PUSH1 0x3 NOT ADD SLT PUSH2 0x319 JUMPI PUSH2 0x153C PUSH2 0x21C2 JUMP JUMPDEST PUSH1 0x0 PUSH2 0x140 PUSH1 0x40 MLOAD PUSH2 0x154D DUP2 PUSH2 0x22FC JUMP JUMPDEST DUP3 DUP2 MSTORE PUSH1 0x60 PUSH1 0x20 DUP3 ADD MSTORE PUSH1 0x60 PUSH1 0x40 DUP3 ADD MSTORE DUP3 PUSH1 0x60 DUP3 ADD MSTORE DUP3 PUSH1 0x80 DUP3 ADD MSTORE DUP3 PUSH1 0xA0 DUP3 ADD MSTORE DUP3 PUSH1 0xC0 DUP3 ADD MSTORE DUP3 PUSH1 0xE0 DUP3 ADD MSTORE DUP3 PUSH2 0x100 DUP3 ADD MSTORE PUSH1 0x60 PUSH2 0x120 DUP3 ADD MSTORE ADD MSTORE PUSH1 0x1 DUP1 PUSH1 0xA0 SHL SUB AND PUSH1 0x0 MSTORE PUSH1 0x1 PUSH1 0x20 MSTORE PUSH1 0x40 PUSH1 0x0 KECCAK256 PUSH1 0x40 MLOAD SWAP1 PUSH2 0x15AF DUP3 PUSH2 0x22FC JUMP JUMPDEST DUP1 SLOAD PUSH1 0x1 PUSH1 0x1 PUSH1 0xA0 SHL SUB AND DUP3 MSTORE PUSH2 0x15C8 PUSH1 0x1 DUP3 ADD PUSH2 0x2456 JUMP JUMPDEST PUSH1 0x20 DUP4 ADD MSTORE PUSH2 0x15D9 PUSH1 0x2 DUP3 ADD PUSH2 0x2456 JUMP JUMPDEST PUSH1 0x40 DUP4 ADD MSTORE PUSH1 0x3 DUP2 ADD SLOAD PUSH1 0x60 DUP4 ADD MSTORE PUSH1 0x4 DUP2 ADD SLOAD PUSH1 0x80 DUP4 ADD MSTORE PUSH1 0x5 DUP2 ADD SLOAD PUSH1 0xA0 DUP4 ADD MSTORE PUSH1 0x6 DUP2 ADD SLOAD PUSH1 0xC0 DUP4 ADD MSTORE PUSH1 0x7 DUP2 ADD SLOAD PUSH1 0xE0 DUP4 ADD MSTORE PUSH1 0x8 DUP2 ADD SLOAD PUSH2 0x100 DUP4 ADD MSTORE PUSH1 0x9 DUP2 ADD SLOAD PUSH2 0x1629 DUP2 PUSH2 0x2514 JUMP JUMPDEST SWAP1 PUSH2 0x1637 PUSH1 0x40 MLOAD SWAP3 DUP4 PUSH2 0x234E JUMP JUMPDEST DUP1 DUP3 MSTORE PUSH1 0x20 DUP3 ADD PUSH1 0x9 DUP5 ADD PUSH1 0x0 MSTORE PUSH1 0x20 PUSH1 0x0 KECCAK256 PUSH1 0x0 SWAP2 JUMPDEST DUP4 DUP4 LT PUSH2 0x17B3 JUMPI DUP7 PUSH1 0xFF PUSH1 0xA DUP9 DUP9 PUSH2 0x120 DUP6 ADD MSTORE ADD SLOAD AND ISZERO ISZERO PUSH2 0x140 DUP3 ADD MSTORE PUSH1 0x40 MLOAD DUP1 SWAP2 PUSH1 0x20 DUP3 MSTORE PUSH1 0x1 DUP1 PUSH1 0xA0 SHL SUB DUP2 MLOAD AND PUSH1 0x20 DUP4 ADD MSTORE PUSH2 0x16A0 PUSH1 0x20 DUP3 ADD MLOAD PUSH2 0x160 PUSH1 0x40 DUP6 ADD MSTORE PUSH2 0x180 DUP5 ADD SWAP1 PUSH2 0x222B JUMP JUMPDEST SWAP1 PUSH2 0x16BD PUSH1 0x40 DUP3 ADD MLOAD SWAP3 PUSH1 0x1F NOT SWAP4 DUP5 DUP7 DUP4 SUB ADD PUSH1 0x60 DUP8 ADD MSTORE PUSH2 0x222B JUMP JUMPDEST SWAP2 PUSH1 0x60 DUP3 ADD MLOAD PUSH1 0x80 DUP6 ADD MSTORE PUSH1 0x80 DUP3 ADD MLOAD PUSH1 0xA0 DUP6 ADD MSTORE PUSH1 0xA0 DUP3 ADD MLOAD PUSH1 0xC0 DUP6 ADD MSTORE PUSH1 0xC0 DUP3 ADD MLOAD PUSH1 0xE0 DUP6 ADD MSTORE PUSH1 0xE0 DUP3 ADD MLOAD PUSH2 0x100 DUP6 ADD MSTORE PUSH2 0x100 DUP3 ADD MLOAD PUSH2 0x120 DUP6 ADD MSTORE PUSH2 0x120 DUP3 ADD MLOAD SWAP3 DUP2 DUP6 DUP3 SUB ADD PUSH2 0x140 DUP7 ADD MSTORE DUP4 MLOAD SWAP1 DUP2 DUP2 MSTORE PUSH1 0x20 DUP2 ADD PUSH1 0x20 DUP1 DUP5 PUSH1 0x5 SHL DUP5 ADD ADD SWAP7 ADD SWAP4 PUSH1 0x0 SWAP3 JUMPDEST DUP5 DUP5 LT PUSH2 0x1745 JUMPI PUSH2 0x140 DUP8 ADD MLOAD ISZERO ISZERO PUSH2 0x160 DUP11 ADD MSTORE DUP9 DUP9 SUB DUP10 RETURN JUMPDEST SWAP2 SWAP4 SWAP6 SWAP7 DUP2 SWAP4 SWAP6 SWAP9 POP PUSH1 0x20 PUSH2 0x17A0 DUP3 PUSH1 0x1 SWAP5 DUP7 DUP5 SWAP6 SUB ADD DUP9 MSTORE DUP12 MLOAD SWAP1 PUSH2 0x176C DUP2 DUP4 MLOAD PUSH2 0x23F3 JUMP JUMPDEST PUSH1 0x60 PUSH2 0x1785 DUP6 DUP5 ADD MLOAD PUSH1 0x80 DUP8 DUP6 ADD MSTORE PUSH1 0x80 DUP5 ADD SWAP1 PUSH2 0x222B JUMP JUMPDEST SWAP3 PUSH1 0x40 DUP2 ADD MLOAD PUSH1 0x40 DUP5 ADD MSTORE ADD MLOAD SWAP1 PUSH1 0x60 DUP2 DUP5 SUB SWAP2 ADD MSTORE PUSH2 0x222B JUMP JUMPDEST SWAP10 ADD SWAP5 ADD SWAP5 ADD SWAP2 DUP9 SWAP8 SWAP7 SWAP6 SWAP4 SWAP5 SWAP2 PUSH2 0x172A JUMP JUMPDEST PUSH1 0x4 PUSH1 0x20 PUSH1 0x1 SWAP3 PUSH1 0x40 MLOAD PUSH2 0x17C6 DUP2 PUSH2 0x22C5 JUMP JUMPDEST PUSH2 0x17D4 PUSH1 0xFF DUP8 SLOAD AND DUP3 PUSH2 0x286A JUMP JUMPDEST PUSH2 0x17DF DUP6 DUP8 ADD PUSH2 0x2456 JUMP JUMPDEST DUP4 DUP3 ADD MSTORE PUSH1 0x2 DUP7 ADD SLOAD PUSH1 0x40 DUP3 ADD MSTORE PUSH2 0x17F9 PUSH1 0x3 DUP8 ADD PUSH2 0x2456 JUMP JUMPDEST PUSH1 0x60 DUP3 ADD MSTORE DUP2 MSTORE ADD SWAP3 ADD SWAP3 ADD SWAP2 SWAP1 PUSH2 0x164E JUMP JUMPDEST CALLVALUE PUSH2 0x319 JUMPI PUSH1 0x40 CALLDATASIZE PUSH1 0x3 NOT ADD SLT PUSH2 0x319 JUMPI PUSH2 0x1825 PUSH2 0x21C2 JUMP JUMPDEST PUSH1 0x1 PUSH1 0x1 PUSH1 0xA0 SHL SUB AND PUSH1 0x0 SWAP1 DUP2 MSTORE PUSH1 0x3 PUSH1 0x20 MSTORE PUSH1 0x40 SWAP1 KECCAK256 DUP1 SLOAD PUSH1 0x24 CALLDATALOAD SWAP2 SWAP1 DUP3 LT ISZERO PUSH2 0x319 JUMPI PUSH1 0x20 SWAP2 PUSH2 0x1856 SWAP2 PUSH2 0x23C5 JUMP JUMPDEST SWAP1 SLOAD SWAP1 PUSH1 0x3 SHL SHR PUSH1 0x40 MLOAD SWAP1 DUP2 MSTORE RETURN JUMPDEST CALLVALUE PUSH2 0x319 JUMPI PUSH1 0x40 CALLDATASIZE PUSH1 0x3 NOT ADD SLT PUSH2 0x319 JUMPI PUSH1 0x4 CALLDATALOAD PUSH1 0x1 PUSH1 0x1 PUSH1 0x40 SHL SUB DUP2 GT PUSH2 0x319 JUMPI PUSH2 0x1895 SWAP1 CALLDATASIZE SWAP1 PUSH1 0x4 ADD PUSH2 0x236F JUMP JUMPDEST PUSH1 0x24 CALLDATALOAD PUSH1 0x1 PUSH1 0x1 PUSH1 0x40 SHL SUB DUP2 GT PUSH2 0x319 JUMPI PUSH2 0x18B4 SWAP1 CALLDATASIZE SWAP1 PUSH1 0x4 ADD PUSH2 0x236F JUMP JUMPDEST SWAP1 CALLER PUSH1 0x0 MSTORE PUSH1 0x2 PUSH1 0x20 MSTORE PUSH1 0xFF PUSH1 0x40 PUSH1 0x0 KECCAK256 SLOAD AND PUSH2 0x1D04 JUMPI PUSH1 0x40 MLOAD PUSH2 0x18D7 DUP2 PUSH2 0x2318 JUMP JUMPDEST PUSH1 0x0 DUP2 MSTORE PUSH1 0x40 MLOAD SWAP3 PUSH2 0x18E8 DUP5 PUSH2 0x22FC JUMP JUMPDEST CALLER DUP5 MSTORE DUP3 PUSH1 0x20 DUP6 ADD MSTORE PUSH1 0x40 DUP5 ADD MSTORE PUSH1 0x0 PUSH1 0x60 DUP5 ADD MSTORE PUSH1 0x0 PUSH1 0x80 DUP5 ADD MSTORE PUSH1 0x64 PUSH1 0xA0 DUP5 ADD MSTORE PUSH1 0x0 PUSH1 0xC0 DUP5 ADD MSTORE TIMESTAMP PUSH1 0xE0 DUP5 ADD MSTORE TIMESTAMP PUSH2 0x100 DUP5 ADD MSTORE PUSH2 0x120 DUP4 ADD MSTORE PUSH1 0x0 PUSH2 0x140 DUP4 ADD MSTORE CALLER PUSH1 0x0 MSTORE PUSH1 0x1 PUSH1 0x20 MSTORE PUSH1 0x40 PUSH1 0x0 KECCAK256 SWAP1 PUSH1 0x1 DUP1 PUSH1 0xA0 SHL SUB DUP4 MLOAD AND PUSH12 0xFFFFFFFFFFFFFFFFFFFFFFFF PUSH1 0xA0 SHL DUP4 SLOAD AND OR DUP3 SSTORE PUSH1 0x20 DUP4 ADD MLOAD SWAP3 DUP4 MLOAD PUSH1 0x1 PUSH1 0x1 PUSH1 0x40 SHL SUB DUP2 GT PUSH2 0x8F0 JUMPI PUSH2 0x197F PUSH1 0x1 DUP6 ADD SLOAD PUSH2 0x241C JUMP JUMPDEST PUSH1 0x1F DUP2 GT PUSH2 0x1CCF JUMPI JUMPDEST POP PUSH1 0x20 PUSH1 0x1F DUP3 GT PUSH1 0x1 EQ PUSH2 0x1C60 JUMPI DUP2 SWAP1 PUSH2 0x19BB SWAP4 SWAP5 SWAP6 SWAP7 PUSH1 0x0 SWAP3 PUSH2 0x1BB1 JUMPI POP POP DUP2 PUSH1 0x1 SHL SWAP2 PUSH1 0x0 NOT SWAP1 PUSH1 0x3 SHL SHR NOT AND OR SWAP1 JUMP JUMPDEST PUSH1 0x1 DUP5 ADD SSTORE JUMPDEST PUSH1 0x40 DUP2 ADD MLOAD SWAP3 DUP4 MLOAD PUSH1 0x1 PUSH1 0x1 PUSH1 0x40 SHL SUB DUP2 GT PUSH2 0x8F0 JUMPI PUSH2 0x19E4 PUSH1 0x2 DUP4 ADD SLOAD PUSH2 0x241C JUMP JUMPDEST PUSH1 0x1F DUP2 GT PUSH2 0x1C2B JUMPI JUMPDEST POP PUSH1 0x20 PUSH1 0x1F DUP3 GT PUSH1 0x1 EQ PUSH2 0x1BBC JUMPI DUP2 SWAP1 PUSH2 0x1A20 SWAP4 SWAP5 SWAP6 SWAP7 PUSH1 0x0 SWAP3 PUSH2 0x1BB1 JUMPI POP POP DUP2 PUSH1 0x1 SHL SWAP2 PUSH1 0x0 NOT SWAP1 PUSH1 0x3 SHL SHR NOT AND OR SWAP1 JUMP JUMPDEST PUSH1 0x2 DUP3 ADD SSTORE JUMPDEST PUSH1 0x3 PUSH1 0x60 DUP4 ADD MLOAD PUSH1 0x3 DUP4 ADD SSTORE PUSH1 0x80 DUP4 ADD MLOAD PUSH1 0x4 DUP4 ADD SSTORE PUSH1 0xA0 DUP4 ADD MLOAD PUSH1 0x5 DUP4 ADD SSTORE PUSH1 0xC0 DUP4 ADD MLOAD PUSH1 0x6 DUP4 ADD SSTORE PUSH1 0xE0 DUP4 ADD MLOAD PUSH1 0x7 DUP4 ADD SSTORE PUSH2 0x100 DUP4 ADD MLOAD PUSH1 0x8 DUP4 ADD SSTORE PUSH1 0x9 DUP3 ADD PUSH2 0x120 DUP5 ADD MLOAD DUP1 MLOAD SWAP3 PUSH1 0x1 PUSH1 0x40 SHL DUP5 GT PUSH2 0x8F0 JUMPI DUP3 SLOAD SWAP1 DUP5 DUP5 SSTORE DUP2 DUP6 LT PUSH2 0x1B4A JUMPI JUMPDEST POP POP PUSH1 0x20 ADD SWAP1 PUSH1 0x0 MSTORE PUSH1 0x20 PUSH1 0x0 KECCAK256 PUSH1 0x0 SWAP2 JUMPDEST DUP4 DUP4 LT PUSH2 0x1B2C JUMPI DUP7 DUP7 PUSH2 0x140 PUSH1 0xA DUP9 ADD SWAP2 ADD MLOAD ISZERO ISZERO SWAP1 PUSH1 0xFF NOT SWAP2 PUSH1 0xFF DUP4 DUP4 SLOAD AND SWAP2 AND OR SWAP1 SSTORE CALLER PUSH1 0x0 MSTORE PUSH1 0x2 PUSH1 0x20 MSTORE PUSH1 0x1 PUSH1 0x40 PUSH1 0x0 KECCAK256 SWAP2 DUP3 SLOAD AND OR SWAP1 SSTORE PUSH2 0x1AE4 PUSH1 0x9 SLOAD PUSH2 0x285B JUMP JUMPDEST PUSH1 0x9 SSTORE PUSH32 0x9E6C0BA7B243F2832F486B0F05AB87ADC71F805A3ED13DE7D41274C0FD9E2201 PUSH2 0x1B1D PUSH1 0x40 MLOAD SWAP3 PUSH1 0x40 DUP5 MSTORE PUSH1 0x40 DUP5 ADD SWAP1 PUSH2 0x222B JUMP JUMPDEST SWAP2 TIMESTAMP PUSH1 0x20 DUP3 ADD MSTORE DUP1 CALLER SWAP4 SUB SWAP1 LOG2 STOP JUMPDEST PUSH1 0x4 PUSH1 0x20 DUP3 PUSH2 0x1B3E PUSH1 0x1 SWAP5 MLOAD DUP7 PUSH2 0x2633 JUMP JUMPDEST ADD SWAP3 ADD SWAP3 ADD SWAP2 SWAP1 PUSH2 0x1A9D JUMP JUMPDEST PUSH1 0x1 PUSH1 0x1 PUSH1 0xFE SHL SUB DUP3 DUP2 AND DUP4 SUB PUSH2 0xAC6 JUMPI DUP6 AND DUP6 SUB PUSH2 0xAC6 JUMPI DUP4 PUSH1 0x0 MSTORE PUSH1 0x20 PUSH1 0x0 KECCAK256 SWAP2 PUSH1 0x2 SHL DUP3 ADD SWAP2 DUP6 PUSH1 0x2 SHL ADD JUMPDEST DUP3 DUP2 LT PUSH2 0x1B86 JUMPI POP PUSH2 0x1A8B JUMP JUMPDEST DUP1 PUSH1 0x0 PUSH1 0x4 SWAP3 SSTORE PUSH2 0x1B99 PUSH1 0x1 DUP3 ADD PUSH2 0x25EA JUMP JUMPDEST PUSH1 0x0 PUSH1 0x2 DUP3 ADD SSTORE PUSH2 0x1BAB DUP4 DUP3 ADD PUSH2 0x25EA JUMP JUMPDEST ADD PUSH2 0x1B79 JUMP JUMPDEST ADD MLOAD SWAP1 POP DUP7 DUP1 PUSH2 0xCA5 JUMP JUMPDEST PUSH1 0x2 DUP4 ADD PUSH1 0x0 MSTORE PUSH1 0x20 PUSH1 0x0 KECCAK256 SWAP1 PUSH1 0x0 JUMPDEST PUSH1 0x1F NOT DUP5 AND DUP2 LT PUSH2 0x1C13 JUMPI POP PUSH1 0x1 SWAP4 SWAP5 SWAP6 SWAP7 DUP4 PUSH1 0x1F NOT DUP2 AND LT PUSH2 0x1BFA JUMPI JUMPDEST POP POP POP DUP2 SHL ADD PUSH1 0x2 DUP3 ADD SSTORE PUSH2 0x1A26 JUMP JUMPDEST ADD MLOAD PUSH1 0x0 NOT PUSH1 0xF8 DUP5 PUSH1 0x3 SHL AND SHR NOT AND SWAP1 SSTORE DUP6 DUP1 DUP1 PUSH2 0x1BEA JUMP JUMPDEST SWAP1 SWAP2 PUSH1 0x20 PUSH1 0x1 DUP2 SWAP3 DUP6 DUP12 ADD MLOAD DUP2 SSTORE ADD SWAP4 ADD SWAP2 ADD PUSH2 0x1BCC JUMP JUMPDEST PUSH2 0x1C5A SWAP1 PUSH1 0x2 DUP5 ADD PUSH1 0x0 MSTORE PUSH1 0x20 PUSH1 0x0 KECCAK256 PUSH1 0x1F DUP5 ADD PUSH1 0x5 SHR DUP2 ADD SWAP2 PUSH1 0x20 DUP6 LT PUSH2 0xDBB JUMPI PUSH1 0x1F ADD PUSH1 0x5 SHR ADD SWAP1 PUSH2 0x25D3 JUMP JUMPDEST DUP6 PUSH2 0x19ED JUMP JUMPDEST PUSH1 0x1 DUP6 ADD PUSH1 0x0 MSTORE PUSH1 0x20 PUSH1 0x0 KECCAK256 SWAP1 PUSH1 0x0 JUMPDEST PUSH1 0x1F NOT DUP5 AND DUP2 LT PUSH2 0x1CB7 JUMPI POP PUSH1 0x1 SWAP4 SWAP5 SWAP6 SWAP7 DUP4 PUSH1 0x1F NOT DUP2 AND LT PUSH2 0x1C9E JUMPI JUMPDEST POP POP POP DUP2 SHL ADD PUSH1 0x1 DUP5 ADD SSTORE PUSH2 0x19C1 JUMP JUMPDEST ADD MLOAD PUSH1 0x0 NOT PUSH1 0xF8 DUP5 PUSH1 0x3 SHL AND SHR NOT AND SWAP1 SSTORE DUP6 DUP1 DUP1 PUSH2 0x1C8E JUMP JUMPDEST SWAP1 SWAP2 PUSH1 0x20 PUSH1 0x1 DUP2 SWAP3 DUP6 DUP12 ADD MLOAD DUP2 SSTORE ADD SWAP4 ADD SWAP2 ADD PUSH2 0x1C70 JUMP JUMPDEST PUSH2 0x1CFE SWAP1 PUSH1 0x1 DUP7 ADD PUSH1 0x0 MSTORE PUSH1 0x20 PUSH1 0x0 KECCAK256 PUSH1 0x1F DUP5 ADD PUSH1 0x5 SHR DUP2 ADD SWAP2 PUSH1 0x20 DUP6 LT PUSH2 0xDBB JUMPI PUSH1 0x1F ADD PUSH1 0x5 SHR ADD SWAP1 PUSH2 0x25D3 JUMP JUMPDEST DUP6 PUSH2 0x1988 JUMP JUMPDEST PUSH1 0x40 MLOAD PUSH3 0x461BCD PUSH1 0xE5 SHL DUP2 MSTORE PUSH1 0x20 PUSH1 0x4 DUP3 ADD MSTORE PUSH1 0x12 PUSH1 0x24 DUP3 ADD MSTORE PUSH18 0x105B1C9958591E481C9959DA5CDD195C9959 PUSH1 0x72 SHL PUSH1 0x44 DUP3 ADD MSTORE PUSH1 0x64 SWAP1 REVERT JUMPDEST CALLVALUE PUSH2 0x319 JUMPI PUSH1 0x20 CALLDATASIZE PUSH1 0x3 NOT ADD SLT PUSH2 0x319 JUMPI PUSH2 0x1D57 PUSH2 0x21C2 JUMP JUMPDEST PUSH2 0x1D5F PUSH2 0x28F1 JUMP JUMPDEST PUSH1 0x1 PUSH1 0x1 PUSH1 0xA0 SHL SUB AND PUSH1 0x0 DUP2 DUP2 MSTORE PUSH1 0x2 PUSH1 0x20 MSTORE PUSH1 0x40 SWAP1 KECCAK256 SLOAD PUSH2 0x1D83 SWAP1 PUSH1 0xFF AND PUSH2 0x258F JUMP JUMPDEST PUSH1 0x0 MSTORE PUSH1 0x1 PUSH1 0x20 MSTORE PUSH1 0xA PUSH1 0x40 PUSH1 0x0 KECCAK256 ADD PUSH1 0x1 PUSH1 0xFF NOT DUP3 SLOAD AND OR SWAP1 SSTORE PUSH1 0x0 DUP1 RETURN JUMPDEST CALLVALUE PUSH2 0x319 JUMPI PUSH1 0x0 CALLDATASIZE PUSH1 0x3 NOT ADD SLT PUSH2 0x319 JUMPI PUSH1 0x20 PUSH1 0xB SLOAD PUSH1 0x40 MLOAD SWAP1 DUP2 MSTORE RETURN JUMPDEST CALLVALUE PUSH2 0x319 JUMPI PUSH1 0x20 CALLDATASIZE PUSH1 0x3 NOT ADD SLT PUSH2 0x319 JUMPI PUSH2 0x1DDA PUSH2 0x2538 JUMP JUMPDEST POP PUSH1 0x4 CALLDATALOAD PUSH1 0x0 MSTORE PUSH1 0x6 PUSH1 0x20 MSTORE PUSH2 0x37D PUSH1 0x40 PUSH1 0x0 KECCAK256 PUSH1 0x6 PUSH1 0x40 MLOAD SWAP2 PUSH2 0x1DFD DUP4 PUSH2 0x22E0 JUMP JUMPDEST DUP1 SLOAD DUP4 MSTORE PUSH1 0x1 DUP2 ADD SLOAD PUSH1 0x1 PUSH1 0x1 PUSH1 0xA0 SHL SUB DUP2 AND PUSH1 0x20 DUP6 ADD MSTORE PUSH2 0x1E28 SWAP1 PUSH1 0xA0 SHR PUSH1 0xFF AND PUSH1 0x40 DUP6 ADD PUSH2 0x2577 JUMP JUMPDEST PUSH1 0x2 DUP2 ADD SLOAD PUSH1 0x60 DUP5 ADD MSTORE PUSH2 0x1E46 PUSH1 0xFF PUSH1 0x3 DUP4 ADD SLOAD AND PUSH1 0x80 DUP6 ADD PUSH2 0x2583 JUMP JUMPDEST PUSH2 0x1E52 PUSH1 0x4 DUP3 ADD PUSH2 0x2456 JUMP JUMPDEST PUSH1 0xA0 DUP5 ADD MSTORE PUSH1 0x5 DUP2 ADD SLOAD PUSH1 0xC0 DUP5 ADD MSTORE ADD SLOAD PUSH1 0xE0 DUP3 ADD MSTORE PUSH1 0x40 MLOAD SWAP2 DUP3 SWAP2 PUSH1 0x20 DUP4 MSTORE PUSH1 0x20 DUP4 ADD SWAP1 PUSH2 0x2250 JUMP JUMPDEST CALLVALUE PUSH2 0x319 JUMPI PUSH1 0x0 CALLDATASIZE PUSH1 0x3 NOT ADD SLT PUSH2 0x319 JUMPI PUSH1 0x20 PUSH1 0xF SLOAD PUSH1 0x40 MLOAD SWAP1 DUP2 MSTORE RETURN JUMPDEST CALLVALUE PUSH2 0x319 JUMPI PUSH1 0x0 CALLDATASIZE PUSH1 0x3 NOT ADD SLT PUSH2 0x319 JUMPI PUSH1 0x20 PUSH1 0xA SLOAD PUSH1 0x40 MLOAD SWAP1 DUP2 MSTORE RETURN JUMPDEST CALLVALUE PUSH2 0x319 JUMPI PUSH1 0x40 CALLDATASIZE PUSH1 0x3 NOT ADD SLT PUSH2 0x319 JUMPI PUSH2 0x1ED1 PUSH2 0x21C2 JUMP JUMPDEST PUSH2 0x1ED9 PUSH2 0x21D8 JUMP JUMPDEST PUSH2 0x1EE1 PUSH2 0x28F1 JUMP JUMPDEST PUSH1 0x1 DUP1 PUSH1 0xA0 SHL SUB DUP1 SWAP3 AND SWAP2 DUP3 PUSH1 0x0 MSTORE PUSH1 0x20 SWAP2 PUSH1 0x2 DUP4 MSTORE PUSH1 0xFF PUSH1 0x40 PUSH1 0x0 KECCAK256 SLOAD AND ISZERO PUSH2 0x2081 JUMPI AND DUP1 PUSH1 0x0 MSTORE PUSH1 0x2 DUP3 MSTORE PUSH1 0xFF PUSH1 0x40 PUSH1 0x0 KECCAK256 SLOAD AND ISZERO PUSH2 0x203C JUMPI DUP3 PUSH1 0x0 MSTORE PUSH1 0x5 DUP3 MSTORE PUSH1 0x40 PUSH1 0x0 KECCAK256 DUP2 PUSH1 0x0 MSTORE DUP3 MSTORE PUSH1 0xFF PUSH1 0x40 PUSH1 0x0 KECCAK256 SLOAD AND PUSH2 0x2004 JUMPI PUSH32 0xF6D2806A1F172DFDABA78C50C3A7363A717A3A1CE8053BFD6B99AB0288A0E6F2 SWAP2 PUSH1 0xA0 SWAP2 DUP5 PUSH1 0x0 MSTORE PUSH1 0x5 DUP3 MSTORE PUSH1 0x40 PUSH1 0x0 KECCAK256 DUP2 PUSH1 0x0 MSTORE DUP3 MSTORE PUSH1 0x40 PUSH1 0x0 KECCAK256 PUSH1 0x1 PUSH1 0xFF NOT DUP3 SLOAD AND OR SWAP1 SSTORE PUSH1 0xB SLOAD DUP6 PUSH1 0x0 MSTORE PUSH1 0x1 DUP4 MSTORE PUSH2 0x1FA2 PUSH1 0x5 PUSH1 0x40 PUSH1 0x0 KECCAK256 ADD SWAP2 DUP3 SLOAD PUSH2 0x252B JUMP JUMPDEST SWAP1 SSTORE DUP5 PUSH32 0x481BD573D463F65F2952D83F95ADE4ED65F27D7B2F7E7A8CF0EE277203E6FD72 DUP4 PUSH1 0x40 MLOAD TIMESTAMP DUP2 MSTORE LOG3 PUSH1 0x60 PUSH1 0xB SLOAD SWAP2 PUSH1 0x40 MLOAD SWAP3 DUP4 MSTORE DUP3 ADD MSTORE PUSH1 0xE PUSH1 0x60 DUP3 ADD MSTORE PUSH14 0x526566657272616C20626F6E7573 PUSH1 0x90 SHL PUSH1 0x80 DUP3 ADD MSTORE TIMESTAMP PUSH1 0x40 DUP3 ADD MSTORE LOG2 STOP JUMPDEST PUSH1 0x40 MLOAD PUSH3 0x461BCD PUSH1 0xE5 SHL DUP2 MSTORE PUSH1 0x4 DUP2 ADD DUP4 SWAP1 MSTORE PUSH1 0x10 PUSH1 0x24 DUP3 ADD MSTORE PUSH16 0x105B1C9958591E481C9959995C9C9959 PUSH1 0x82 SHL PUSH1 0x44 DUP3 ADD MSTORE PUSH1 0x64 SWAP1 REVERT JUMPDEST PUSH1 0x40 MLOAD PUSH3 0x461BCD PUSH1 0xE5 SHL DUP2 MSTORE PUSH1 0x4 DUP2 ADD DUP4 SWAP1 MSTORE PUSH1 0x17 PUSH1 0x24 DUP3 ADD MSTORE PUSH32 0x5265666572726564206E6F742072656769737465726564000000000000000000 PUSH1 0x44 DUP3 ADD MSTORE PUSH1 0x64 SWAP1 REVERT JUMPDEST PUSH1 0x40 MLOAD PUSH3 0x461BCD PUSH1 0xE5 SHL DUP2 MSTORE PUSH1 0x4 DUP2 ADD DUP5 SWAP1 MSTORE PUSH1 0x17 PUSH1 0x24 DUP3 ADD MSTORE PUSH32 0x5265666572726572206E6F742072656769737465726564000000000000000000 PUSH1 0x44 DUP3 ADD MSTORE PUSH1 0x64 SWAP1 REVERT JUMPDEST CALLVALUE PUSH2 0x319 JUMPI PUSH1 0x20 DUP1 PUSH1 0x3 NOT CALLDATASIZE ADD SLT PUSH2 0x319 JUMPI PUSH1 0x1 PUSH1 0x1 PUSH1 0xA0 SHL SUB PUSH2 0x20E8 PUSH2 0x21C2 JUMP JUMPDEST AND PUSH1 0x0 MSTORE PUSH1 0x4 DUP2 MSTORE PUSH1 0x40 PUSH1 0x0 KECCAK256 SWAP1 DUP2 SLOAD PUSH2 0x2101 DUP2 PUSH2 0x2514 JUMP JUMPDEST SWAP1 PUSH2 0x210F PUSH1 0x40 MLOAD SWAP3 DUP4 PUSH2 0x234E JUMP JUMPDEST DUP1 DUP3 MSTORE DUP3 DUP3 ADD DUP1 SWAP5 PUSH1 0x0 MSTORE DUP4 PUSH1 0x0 KECCAK256 PUSH1 0x0 SWAP2 JUMPDEST DUP4 DUP4 LT PUSH2 0x2182 JUMPI PUSH1 0x40 DUP1 MLOAD DUP8 DUP2 MSTORE DUP7 MLOAD DUP2 DUP10 ADD DUP2 SWAP1 MSTORE DUP10 SWAP3 DUP3 ADD SWAP1 DUP10 PUSH1 0x0 JUMPDEST DUP3 DUP2 LT PUSH2 0x214E JUMPI DUP5 DUP5 SUB DUP6 RETURN JUMPDEST DUP6 MLOAD DUP1 MLOAD DUP6 MSTORE DUP1 DUP4 ADD MLOAD DUP6 DUP5 ADD MSTORE PUSH1 0x40 DUP1 DUP3 ADD MLOAD SWAP1 DUP7 ADD MSTORE PUSH1 0x60 SWAP1 DUP2 ADD MLOAD SWAP1 DUP6 ADD MSTORE SWAP5 DUP2 ADD SWAP5 PUSH1 0x80 SWAP1 SWAP4 ADD SWAP3 PUSH1 0x1 ADD PUSH2 0x2141 JUMP JUMPDEST PUSH1 0x4 DUP7 PUSH1 0x1 SWAP3 PUSH1 0x40 MLOAD PUSH2 0x2194 DUP2 PUSH2 0x22C5 JUMP JUMPDEST DUP6 SLOAD DUP2 MSTORE DUP5 DUP7 ADD SLOAD DUP4 DUP3 ADD MSTORE PUSH1 0x2 DUP7 ADD SLOAD PUSH1 0x40 DUP3 ADD MSTORE PUSH1 0x3 DUP7 ADD SLOAD PUSH1 0x60 DUP3 ADD MSTORE DUP2 MSTORE ADD SWAP3 ADD SWAP3 ADD SWAP2 SWAP1 PUSH2 0x2122 JUMP JUMPDEST PUSH1 0x4 CALLDATALOAD SWAP1 PUSH1 0x1 PUSH1 0x1 PUSH1 0xA0 SHL SUB DUP3 AND DUP3 SUB PUSH2 0x319 JUMPI JUMP JUMPDEST PUSH1 0x24 CALLDATALOAD SWAP1 PUSH1 0x1 PUSH1 0x1 PUSH1 0xA0 SHL SUB DUP3 AND DUP3 SUB PUSH2 0x319 JUMPI JUMP JUMPDEST SWAP1 PUSH1 0x5 DUP3 LT ISZERO PUSH2 0x906 JUMPI MSTORE JUMP JUMPDEST SWAP1 PUSH1 0x4 DUP3 LT ISZERO PUSH2 0x906 JUMPI MSTORE JUMP JUMPDEST PUSH1 0x0 JUMPDEST DUP4 DUP2 LT PUSH2 0x221B JUMPI POP POP PUSH1 0x0 SWAP2 ADD MSTORE JUMP JUMPDEST DUP2 DUP2 ADD MLOAD DUP4 DUP3 ADD MSTORE PUSH1 0x20 ADD PUSH2 0x220B JUMP JUMPDEST SWAP1 PUSH1 0x20 SWAP2 PUSH2 0x2244 DUP2 MLOAD DUP1 SWAP3 DUP2 DUP6 MSTORE DUP6 DUP1 DUP7 ADD SWAP2 ADD PUSH2 0x2208 JUMP JUMPDEST PUSH1 0x1F ADD PUSH1 0x1F NOT AND ADD ADD SWAP1 JUMP JUMPDEST SWAP1 PUSH1 0xE0 DUP1 PUSH2 0x22B2 PUSH2 0x100 DUP6 MLOAD DUP6 MSTORE PUSH1 0x1 DUP1 PUSH1 0xA0 SHL SUB PUSH1 0x20 DUP8 ADD MLOAD AND PUSH1 0x20 DUP7 ADD MSTORE PUSH2 0x2282 PUSH1 0x40 DUP8 ADD MLOAD PUSH1 0x40 DUP8 ADD SWAP1 PUSH2 0x21EE JUMP JUMPDEST PUSH1 0x60 DUP7 ADD MLOAD PUSH1 0x60 DUP7 ADD MSTORE PUSH2 0x229E PUSH1 0x80 DUP8 ADD MLOAD PUSH1 0x80 DUP8 ADD SWAP1 PUSH2 0x21FB JUMP JUMPDEST PUSH1 0xA0 DUP7 ADD MLOAD SWAP1 DUP1 PUSH1 0xA0 DUP8 ADD MSTORE DUP6 ADD SWAP1 PUSH2 0x222B JUMP JUMPDEST SWAP4 PUSH1 0xC0 DUP2 ADD MLOAD PUSH1 0xC0 DUP6 ADD MSTORE ADD MLOAD SWAP2 ADD MSTORE SWAP1 JUMP JUMPDEST PUSH1 0x80 DUP2 ADD SWAP1 DUP2 LT PUSH1 0x1 PUSH1 0x1 PUSH1 0x40 SHL SUB DUP3 GT OR PUSH2 0x8F0 JUMPI PUSH1 0x40 MSTORE JUMP JUMPDEST PUSH2 0x100 DUP2 ADD SWAP1 DUP2 LT PUSH1 0x1 PUSH1 0x1 PUSH1 0x40 SHL SUB DUP3 GT OR PUSH2 0x8F0 JUMPI PUSH1 0x40 MSTORE JUMP JUMPDEST PUSH2 0x160 DUP2 ADD SWAP1 DUP2 LT PUSH1 0x1 PUSH1 0x1 PUSH1 0x40 SHL SUB DUP3 GT OR PUSH2 0x8F0 JUMPI PUSH1 0x40 MSTORE JUMP JUMPDEST PUSH1 0x20 DUP2 ADD SWAP1 DUP2 LT PUSH1 0x1 PUSH1 0x1 PUSH1 0x40 SHL SUB DUP3 GT OR PUSH2 0x8F0 JUMPI PUSH1 0x40 MSTORE JUMP JUMPDEST PUSH1 0x40 DUP2 ADD SWAP1 DUP2 LT PUSH1 0x1 PUSH1 0x1 PUSH1 0x40 SHL SUB DUP3 GT OR PUSH2 0x8F0 JUMPI PUSH1 0x40 MSTORE JUMP JUMPDEST SWAP1 PUSH1 0x1F DUP1 NOT SWAP2 ADD AND DUP2 ADD SWAP1 DUP2 LT PUSH1 0x1 PUSH1 0x1 PUSH1 0x40 SHL SUB DUP3 GT OR PUSH2 0x8F0 JUMPI PUSH1 0x40 MSTORE JUMP JUMPDEST DUP2 PUSH1 0x1F DUP3 ADD SLT ISZERO PUSH2 0x319 JUMPI DUP1 CALLDATALOAD SWAP1 PUSH1 0x1 PUSH1 0x1 PUSH1 0x40 SHL SUB DUP3 GT PUSH2 0x8F0 JUMPI PUSH1 0x40 MLOAD SWAP3 PUSH2 0x23A3 PUSH1 0x1F DUP5 ADD PUSH1 0x1F NOT AND PUSH1 0x20 ADD DUP6 PUSH2 0x234E JUMP JUMPDEST DUP3 DUP5 MSTORE PUSH1 0x20 DUP4 DUP4 ADD ADD GT PUSH2 0x319 JUMPI DUP2 PUSH1 0x0 SWAP3 PUSH1 0x20 DUP1 SWAP4 ADD DUP4 DUP7 ADD CALLDATACOPY DUP4 ADD ADD MSTORE SWAP1 JUMP JUMPDEST DUP1 SLOAD DUP3 LT ISZERO PUSH2 0x23DD JUMPI PUSH1 0x0 MSTORE PUSH1 0x20 PUSH1 0x0 KECCAK256 ADD SWAP1 PUSH1 0x0 SWAP1 JUMP JUMPDEST PUSH4 0x4E487B71 PUSH1 0xE0 SHL PUSH1 0x0 MSTORE PUSH1 0x32 PUSH1 0x4 MSTORE PUSH1 0x24 PUSH1 0x0 REVERT JUMPDEST SWAP1 PUSH1 0x9 DUP3 LT ISZERO PUSH2 0x906 JUMPI MSTORE JUMP JUMPDEST DUP1 SLOAD DUP3 LT ISZERO PUSH2 0x23DD JUMPI PUSH1 0x0 MSTORE PUSH1 0x20 PUSH1 0x0 KECCAK256 SWAP1 PUSH1 0x2 SHL ADD SWAP1 PUSH1 0x0 SWAP1 JUMP JUMPDEST SWAP1 PUSH1 0x1 DUP3 DUP2 SHR SWAP3 AND DUP1 ISZERO PUSH2 0x244C JUMPI JUMPDEST PUSH1 0x20 DUP4 LT EQ PUSH2 0x2436 JUMPI JUMP JUMPDEST PUSH4 0x4E487B71 PUSH1 0xE0 SHL PUSH1 0x0 MSTORE PUSH1 0x22 PUSH1 0x4 MSTORE PUSH1 0x24 PUSH1 0x0 REVERT JUMPDEST SWAP2 PUSH1 0x7F AND SWAP2 PUSH2 0x242B JUMP JUMPDEST SWAP1 PUSH1 0x40 MLOAD SWAP2 DUP3 PUSH1 0x0 DUP3 SLOAD PUSH2 0x2469 DUP2 PUSH2 0x241C JUMP JUMPDEST SWAP1 DUP2 DUP5 MSTORE PUSH1 0x20 SWAP5 PUSH1 0x1 SWAP2 PUSH1 0x1 DUP2 AND SWAP1 DUP2 PUSH1 0x0 EQ PUSH2 0x24D9 JUMPI POP PUSH1 0x1 EQ PUSH2 0x249A JUMPI JUMPDEST POP POP POP PUSH2 0x2498 SWAP3 POP SUB DUP4 PUSH2 0x234E JUMP JUMPDEST JUMP JUMPDEST PUSH1 0x0 SWAP1 DUP2 MSTORE DUP6 DUP2 KECCAK256 SWAP6 SWAP4 POP SWAP2 SWAP1 JUMPDEST DUP2 DUP4 LT PUSH2 0x24C1 JUMPI POP POP PUSH2 0x2498 SWAP4 POP DUP3 ADD ADD CODESIZE DUP1 DUP1 PUSH2 0x2489 JUMP JUMPDEST DUP6 SLOAD DUP9 DUP5 ADD DUP6 ADD MSTORE SWAP5 DUP6 ADD SWAP5 DUP8 SWAP5 POP SWAP2 DUP4 ADD SWAP2 PUSH2 0x24A8 JUMP JUMPDEST SWAP3 POP POP POP PUSH2 0x2498 SWAP5 SWAP3 POP PUSH1 0xFF NOT AND DUP3 DUP5 ADD MSTORE ISZERO ISZERO PUSH1 0x5 SHL DUP3 ADD ADD CODESIZE DUP1 DUP1 PUSH2 0x2489 JUMP JUMPDEST PUSH1 0x5 DUP2 LT ISZERO PUSH2 0x906 JUMPI PUSH1 0x0 MSTORE PUSH1 0x7 PUSH1 0x20 MSTORE PUSH1 0x40 PUSH1 0x0 KECCAK256 SWAP1 JUMP JUMPDEST PUSH1 0x1 PUSH1 0x1 PUSH1 0x40 SHL SUB DUP2 GT PUSH2 0x8F0 JUMPI PUSH1 0x5 SHL PUSH1 0x20 ADD SWAP1 JUMP JUMPDEST SWAP2 SWAP1 DUP3 ADD DUP1 SWAP3 GT PUSH2 0xAC6 JUMPI JUMP JUMPDEST PUSH1 0x40 MLOAD SWAP1 PUSH2 0x2545 DUP3 PUSH2 0x22E0 JUMP JUMPDEST DUP2 PUSH1 0xE0 PUSH1 0x0 SWAP2 DUP3 DUP2 MSTORE DUP3 PUSH1 0x20 DUP3 ADD MSTORE DUP3 PUSH1 0x40 DUP3 ADD MSTORE DUP3 PUSH1 0x60 DUP3 ADD MSTORE DUP3 PUSH1 0x80 DUP3 ADD MSTORE PUSH1 0x60 PUSH1 0xA0 DUP3 ADD MSTORE DUP3 PUSH1 0xC0 DUP3 ADD MSTORE ADD MSTORE JUMP JUMPDEST PUSH1 0x5 DUP3 LT ISZERO PUSH2 0x906 JUMPI MSTORE JUMP JUMPDEST PUSH1 0x4 DUP3 LT ISZERO PUSH2 0x906 JUMPI MSTORE JUMP JUMPDEST ISZERO PUSH2 0x2596 JUMPI JUMP JUMPDEST PUSH1 0x40 MLOAD PUSH3 0x461BCD PUSH1 0xE5 SHL DUP2 MSTORE PUSH1 0x20 PUSH1 0x4 DUP3 ADD MSTORE PUSH1 0x15 PUSH1 0x24 DUP3 ADD MSTORE PUSH21 0x11985C9B595C881B9BDD081C9959DA5CDD195C9959 PUSH1 0x5A SHL PUSH1 0x44 DUP3 ADD MSTORE PUSH1 0x64 SWAP1 REVERT JUMPDEST DUP2 DUP2 LT PUSH2 0x25DE JUMPI POP POP JUMP JUMPDEST PUSH1 0x0 DUP2 SSTORE PUSH1 0x1 ADD PUSH2 0x25D3 JUMP JUMPDEST PUSH2 0x25F4 DUP2 SLOAD PUSH2 0x241C JUMP JUMPDEST SWAP1 DUP2 PUSH2 0x25FE JUMPI POP POP JUMP JUMPDEST DUP2 PUSH1 0x1F PUSH1 0x0 SWAP4 GT PUSH1 0x1 EQ PUSH2 0x2610 JUMPI POP SSTORE JUMP JUMPDEST SWAP1 DUP1 DUP4 SWAP2 DUP3 MSTORE PUSH2 0x262F PUSH1 0x1F PUSH1 0x20 DUP5 KECCAK256 SWAP5 ADD PUSH1 0x5 SHR DUP5 ADD PUSH1 0x1 DUP6 ADD PUSH2 0x25D3 JUMP JUMPDEST SSTORE SSTORE JUMP JUMPDEST DUP2 MLOAD PUSH1 0x9 DUP2 LT ISZERO PUSH2 0x906 JUMPI PUSH1 0xFF DUP1 NOT DUP4 SLOAD AND SWAP2 AND OR DUP2 SSTORE PUSH1 0x1 SWAP1 DUP2 DUP2 ADD SWAP1 PUSH1 0x20 SWAP3 DUP4 DUP6 ADD MLOAD SWAP2 DUP3 MLOAD SWAP4 PUSH1 0x1 PUSH1 0x1 PUSH1 0x40 SHL SUB SWAP5 DUP6 DUP2 GT PUSH2 0x8F0 JUMPI PUSH2 0x2676 DUP3 SLOAD PUSH2 0x241C JUMP JUMPDEST SWAP5 PUSH1 0x1F SWAP6 DUP7 DUP2 GT PUSH2 0x282D JUMPI JUMPDEST POP DUP8 SWAP1 DUP7 DUP4 GT PUSH1 0x1 EQ PUSH2 0x27C0 JUMPI DUP3 PUSH1 0x60 SWAP6 SWAP4 PUSH1 0x3 SWAP6 SWAP4 PUSH2 0x26B8 SWAP4 PUSH1 0x0 SWAP3 PUSH2 0x2719 JUMPI POP POP DUP2 PUSH1 0x1 SHL SWAP2 PUSH1 0x0 NOT SWAP1 PUSH1 0x3 SHL SHR NOT AND OR SWAP1 JUMP JUMPDEST SWAP1 SSTORE JUMPDEST PUSH1 0x40 DUP9 ADD MLOAD PUSH1 0x2 DUP3 ADD SSTORE ADD SWAP6 ADD MLOAD SWAP4 DUP5 MLOAD SWAP4 DUP5 GT PUSH2 0x8F0 JUMPI PUSH2 0x26DD DUP7 SLOAD PUSH2 0x241C JUMP JUMPDEST DUP4 DUP2 GT PUSH2 0x2788 JUMPI JUMPDEST POP DUP1 SWAP3 DUP5 GT PUSH1 0x1 EQ PUSH2 0x2724 JUMPI POP POP DUP2 SWAP1 PUSH2 0x2715 SWAP4 PUSH1 0x0 SWAP3 PUSH2 0x2719 JUMPI POP POP DUP2 PUSH1 0x1 SHL SWAP2 PUSH1 0x0 NOT SWAP1 PUSH1 0x3 SHL SHR NOT AND OR SWAP1 JUMP JUMPDEST SWAP1 SSTORE JUMP JUMPDEST ADD MLOAD SWAP1 POP CODESIZE DUP1 PUSH2 0xCA5 JUMP JUMPDEST SWAP2 SWAP1 SWAP4 DUP4 PUSH1 0x1F NOT DUP2 AND DUP8 PUSH1 0x0 MSTORE DUP5 PUSH1 0x0 KECCAK256 SWAP5 PUSH1 0x0 SWAP1 JUMPDEST DUP9 DUP4 DUP4 LT PUSH2 0x276E JUMPI POP POP POP LT PUSH2 0x2755 JUMPI JUMPDEST POP POP POP DUP2 SHL ADD SWAP1 SSTORE JUMP JUMPDEST ADD MLOAD PUSH1 0x0 NOT PUSH1 0xF8 DUP5 PUSH1 0x3 SHL AND SHR NOT AND SWAP1 SSTORE CODESIZE DUP1 DUP1 PUSH2 0x274B JUMP JUMPDEST DUP6 DUP8 ADD MLOAD DUP9 SSTORE SWAP1 SWAP7 ADD SWAP6 SWAP5 DUP6 ADD SWAP5 DUP8 SWAP4 POP SWAP1 DUP2 ADD SWAP1 PUSH2 0x273A JUMP JUMPDEST PUSH2 0x27B1 SWAP1 DUP8 PUSH1 0x0 MSTORE DUP3 PUSH1 0x0 KECCAK256 DUP6 DUP1 DUP9 ADD PUSH1 0x5 SHR DUP3 ADD SWAP3 DUP6 DUP10 LT PUSH2 0x27B7 JUMPI JUMPDEST ADD PUSH1 0x5 SHR ADD SWAP1 PUSH2 0x25D3 JUMP JUMPDEST CODESIZE PUSH2 0x26E5 JUMP JUMPDEST SWAP3 POP DUP2 SWAP3 PUSH2 0x27A6 JUMP JUMPDEST DUP6 SWAP3 SWAP2 PUSH1 0x1F NOT DUP4 AND SWAP2 DUP6 PUSH1 0x0 MSTORE DUP11 PUSH1 0x0 KECCAK256 SWAP3 PUSH1 0x0 JUMPDEST DUP13 DUP3 DUP3 LT PUSH2 0x2817 JUMPI POP POP SWAP2 PUSH1 0x60 SWAP8 SWAP6 SWAP4 SWAP2 DUP6 PUSH1 0x3 SWAP9 SWAP7 SWAP5 LT PUSH2 0x27FF JUMPI JUMPDEST POP POP POP DUP2 SHL ADD SWAP1 SSTORE PUSH2 0x26BB JUMP JUMPDEST ADD MLOAD PUSH1 0x0 NOT DUP4 DUP9 SHL PUSH1 0xF8 AND SHR NOT AND SWAP1 SSTORE CODESIZE DUP1 DUP1 PUSH2 0x27F2 JUMP JUMPDEST DUP4 DUP6 ADD MLOAD DUP7 SSTORE DUP11 SWAP8 SWAP1 SWAP6 ADD SWAP5 SWAP4 DUP5 ADD SWAP4 ADD PUSH2 0x27D5 JUMP JUMPDEST PUSH2 0x2855 SWAP1 DUP5 PUSH1 0x0 MSTORE DUP10 PUSH1 0x0 KECCAK256 DUP9 DUP1 DUP7 ADD PUSH1 0x5 SHR DUP3 ADD SWAP3 DUP13 DUP8 LT PUSH2 0x27B7 JUMPI ADD PUSH1 0x5 SHR ADD SWAP1 PUSH2 0x25D3 JUMP JUMPDEST CODESIZE PUSH2 0x2682 JUMP JUMPDEST PUSH1 0x0 NOT DUP2 EQ PUSH2 0xAC6 JUMPI PUSH1 0x1 ADD SWAP1 JUMP JUMPDEST PUSH1 0x9 DUP3 LT ISZERO PUSH2 0x906 JUMPI MSTORE JUMP JUMPDEST DUP1 SLOAD PUSH1 0x1 PUSH1 0x40 SHL DUP2 LT ISZERO PUSH2 0x8F0 JUMPI PUSH2 0x2893 SWAP2 PUSH1 0x1 DUP3 ADD DUP2 SSTORE PUSH2 0x23C5 JUMP JUMPDEST DUP2 SWAP3 SWAP2 SLOAD SWAP1 PUSH1 0x3 SHL SWAP2 DUP3 SHL SWAP2 PUSH1 0x0 NOT SWAP1 SHL NOT AND OR SWAP1 SSTORE JUMP JUMPDEST PUSH1 0x1 PUSH1 0x1 PUSH1 0xA0 SHL SUB AND PUSH1 0x0 SWAP1 DUP2 MSTORE PUSH1 0x1 PUSH1 0x20 MSTORE PUSH1 0x40 SWAP1 KECCAK256 PUSH1 0x3 DUP2 ADD SLOAD SWAP1 DUP2 ISZERO PUSH2 0x28D6 JUMPI PUSH1 0x4 ADD SLOAD DIV SWAP1 JUMP JUMPDEST POP POP PUSH1 0x0 SWAP1 JUMP JUMPDEST DUP1 MLOAD DUP3 LT ISZERO PUSH2 0x23DD JUMPI PUSH1 0x20 SWAP2 PUSH1 0x5 SHL ADD ADD SWAP1 JUMP JUMPDEST PUSH1 0x0 SLOAD PUSH1 0x1 PUSH1 0x1 PUSH1 0xA0 SHL SUB AND CALLER SUB PUSH2 0x2905 JUMPI JUMP JUMPDEST PUSH1 0x40 MLOAD PUSH4 0x118CDAA7 PUSH1 0xE0 SHL DUP2 MSTORE CALLER PUSH1 0x4 DUP3 ADD MSTORE PUSH1 0x24 SWAP1 REVERT INVALID LOG2 PUSH5 0x6970667358 0x22 SLT KECCAK256 0xB2 SHR CALLER SWAP15 0xC DUP2 0xF8 GASLIMIT DUP16 0x27 DUP10 0xE0 NOT 0xEC SSTORE 0x25 SWAP15 0xD6 0xAA DELEGATECALL PUSH12 0xF2C4736A5920E96B7C65DB64 PUSH20 0x6F6C634300081800330000000000000000000000 "},"methodIdentifiers":{"addReferral(address,address)":"0b5c3f87","allocateRewardPool(uint8,uint256)":"ee94ced2","bronzeBadgeThreshold()":"973b35c3","createAndDistributeReward(address,uint8,uint256,string)":"635788a2","diamondBadgeThreshold()":"d7e01a9d","farmerContributions(address,uint256)":"46698bf2","farmerProfiles(address)":"92714224","farmerRewards(address,uint256)":"3e27bb69","getAverageQualityScore(address)":"ca2a9ea7","getFarmerContributions(address)":"0708d619","getFarmerProfile(address)":"4410b6b6","getFarmerRewards(address)":"fd831f55","getLeaderboardPosition(address)":"5557642c","getReward(uint256)":"1c4b774b","goldBadgeThreshold()":"a2124580","nextRewardId()":"f064997c","owner()":"8da5cb5b","platinumBadgeThreshold()":"1c086947","pointsPerQualityPoint()":"119707b5","recordQualityScore(uint256,uint256,address)":"dcf7c4b9","redeemPoints(uint256,uint256)":"c2e70431","referralBonusPoints()":"21a8a212","referrals(address,address)":"b92835d8","registerFarmer(string,string)":"314596b2","registeredFarmers(address)":"83c5b0aa","renounceOwnership()":"715018a6","rewardPools(uint8)":"f761e079","rewards(uint256)":"f301af42","setPointsPerQualityPoint(uint256)":"82c88e41","silverBadgeThreshold()":"bf956a3e","totalFarmers()":"6017509b","transferOwnership(address)":"f2fde38b","verifyFarmer(address)":"235db9f5"}}}}}