{"contracts/HerbCollection.sol":{"ChainlinkOracleStub":{"abi":[{"anonymous":false,"inputs":[{"indexed":false,"internalType":"uint256","name":"requestId","type":"uint256"},{"indexed":false,"internalType":"int256","name":"temperature","type":"int256"},{"indexed":false,"internalType":"uint256","name":"humidity","type":"uint256"},{"indexed":false,"internalType":"uint256","name":"timestamp","type":"uint256"}],"name":"DataFulfilled","type":"event"},{"anonymous":false,"inputs":[{"indexed":false,"internalType":"uint256","name":"requestId","type":"uint256"},{"indexed":false,"internalType":"string","name":"dataType","type":"string"},{"indexed":false,"internalType":"address","name":"callbackAddr","type":"address"}],"name":"DataRequested","type":"event"},{"inputs":[{"internalType":"uint256","name":"_requestId","type":"uint256"},{"internalType":"int256","name":"_temperature","type":"int256"},{"internalType":"uint256","name":"_humidity","type":"uint256"},{"internalType":"uint256","name":"_airQualityIndex","type":"uint256"}],"name":"fulfillRequest","outputs":[],"stateMutability":"nonpayable","type":"function"},{"inputs":[{"internalType":"uint256","name":"","type":"uint256"}],"name":"fulfilledRequests","outputs":[{"internalType":"bool","name":"","type":"bool"}],"stateMutability":"view","type":"function"},{"inputs":[],"name":"getLatestData","outputs":[{"internalType":"int256","name":"temperature","type":"int256"},{"internalType":"uint256","name":"humidity","type":"uint256"},{"internalType":"uint256","name":"airQualityIndex","type":"uint256"},{"internalType":"uint256","name":"timestamp","type":"uint256"}],"stateMutability":"view","type":"function"},{"inputs":[],"name":"lastAirQualityIndex","outputs":[{"internalType":"uint256","name":"","type":"uint256"}],"stateMutability":"view","type":"function"},{"inputs":[],"name":"lastHumidity","outputs":[{"internalType":"uint256","name":"","type":"uint256"}],"stateMutability":"view","type":"function"},{"inputs":[],"name":"lastTemperature","outputs":[{"internalType":"int256","name":"","type":"int256"}],"stateMutability":"view","type":"function"},{"inputs":[],"name":"lastUpdateTimestamp","outputs":[{"internalType":"uint256","name":"","type":"uint256"}],"stateMutability":"view","type":"function"},{"inputs":[{"internalType":"string","name":"_dataType","type":"string"}],"name":"requestEnvironmentalData","outputs":[{"internalType":"uint256","name":"","type":"uint256"}],"stateMutability":"nonpayable","type":"function"},{"inputs":[{"internalType":"int256","name":"_temperature","type":"int256"},{"internalType":"uint256","name":"_humidity","type":"uint256"},{"internalType":"uint256","name":"_airQualityIndex","type":"uint256"}],"name":"updateDataStub","outputs":[],"stateMutability":"nonpayable","type":"function"}],"evm":{"bytecode":{"linkReferences":{},"object":"6080806040523461001657610411908161001c8239f35b600080fdfe6080604081815260048036101561001557600080fd5b600092833560e01c908163019059451461035757816314bcec9f1461033b5750806315fbfd061461031c578063233a3faf146102fd5780636d413910146101e157806377c523021461010c5780639fb51771146100ef578063ab757d61146100b45763fee3e1a61461008657600080fd5b346100b05760203660031901126100b057816020938260ff93358252855220541690519015158152f35b8280fd5b5050346100eb57816003193601126100eb576080915490600154906002549060035492815194855260208501528301526060820152f35b5080fd5b5050346100eb57816003193601126100eb57602091549051908152f35b50346100b05760803660031901126100b057803591602435604435928486528060205260ff838720541661019e5791817fb750bcfc031ab8812a70d220dae3bf12bfd3137d43ab76d54e05a913381e923195936080959388558360015560643560025542600355848852602052818720600160ff1982541617905581519384526020840152820152426060820152a180f35b606490602084519162461bcd60e51b8352820152601960248201527f5265717565737420616c72656164792066756c66696c6c6564000000000000006044820152fd5b509190346100eb57602092836003193601126100b05780359267ffffffffffffffff918285116100eb57366023860112156100eb57848101359283116102ea5750601f199083519261023a8784601f8401160185610380565b8084528684019536602483830101116100b0579260809288837f7e2bd46fd2aa8daf32047e8e5b90d00a132999f708155aabecc1231f72539690979460246102d798018b3784010152601f8651898101904282526102b389828c6102a489518092858501906103b8565b8101038d810184520182610380565b5190209787519586948a865260608c870152518092816060880152878701906103b8565b338885015201168101030190a151908152f35b634e487b7160e01b825260419052602490fd5b5050346100eb57816003193601126100eb576020906002549051908152f35b5050346100eb57816003193601126100eb576020906001549051908152f35b8490346100eb57816003193601126100eb576020906003548152f35b8483346100eb5760603660031901126100eb573581556024356001556044356002554260035580f35b90601f8019910116810190811067ffffffffffffffff8211176103a257604052565b634e487b7160e01b600052604160045260246000fd5b60005b8381106103cb5750506000910152565b81810151838201526020016103bb56fea264697066735822122009f0cd150dad8baa7a1acb7b3550a92a3a7e1125df98cd4ed515e0e7bfeebbc764736f6c63430008180033","opcodes":"PUSH1 0x80 DUP1 PUSH1 0x40 MSTORE CALLVALUE PUSH2 0x16 JUMPI PUSH2 0x411 SWAP1 DUP2 PUSH2 0x1C DUP3 CODECOPY RETURN JUMPDEST PUSH1 0x0 DUP1 REVERT INVALID PUSH1 0x80 PUSH1 0x40 DUP2 DUP2 MSTORE PUSH1 0x4 DUP1 CALLDATASIZE LT ISZERO PUSH2 0x15 JUMPI PUSH1 0x0 DUP1 REVERT JUMPDEST PUSH1 0x0 SWAP3 DUP4 CALLDATALOAD PUSH1 0xE0 SHR SWAP1 DUP2 PUSH4 0x1905945 EQ PUSH2 0x357 JUMPI DUP2 PUSH4 0x14BCEC9F EQ PUSH2 0x33B JUMPI POP DUP1 PUSH4 0x15FBFD06 EQ PUSH2 0x31C JUMPI DUP1 PUSH4 0x233A3FAF EQ PUSH2 0x2FD JUMPI DUP1 PUSH4 0x6D413910 EQ PUSH2 0x1E1 JUMPI DUP1 PUSH4 0x77C52302 EQ PUSH2 0x10C JUMPI DUP1 PUSH4 0x9FB51771 EQ PUSH2 0xEF JUMPI DUP1 PUSH4 0xAB757D61 EQ PUSH2 0xB4 JUMPI PUSH4 0xFEE3E1A6 EQ PUSH2 0x86 JUMPI PUSH1 0x0 DUP1 REVERT JUMPDEST CALLVALUE PUSH2 0xB0 JUMPI PUSH1 0x20 CALLDATASIZE PUSH1 0x3 NOT ADD SLT PUSH2 0xB0 JUMPI DUP2 PUSH1 0x20 SWAP4 DUP3 PUSH1 0xFF SWAP4 CALLDATALOAD DUP3 MSTORE DUP6 MSTORE KECCAK256 SLOAD AND SWAP1 MLOAD SWAP1 ISZERO ISZERO DUP2 MSTORE RETURN JUMPDEST DUP3 DUP1 REVERT JUMPDEST POP POP CALLVALUE PUSH2 0xEB JUMPI DUP2 PUSH1 0x3 NOT CALLDATASIZE ADD SLT PUSH2 0xEB JUMPI PUSH1 0x80 SWAP2 SLOAD SWAP1 PUSH1 0x1 SLOAD SWAP1 PUSH1 0x2 SLOAD SWAP1 PUSH1 0x3 SLOAD SWAP3 DUP2 MLOAD SWAP5 DUP6 MSTORE PUSH1 0x20 DUP6 ADD MSTORE DUP4 ADD MSTORE PUSH1 0x60 DUP3 ADD MSTORE RETURN JUMPDEST POP DUP1 REVERT JUMPDEST POP POP CALLVALUE PUSH2 0xEB JUMPI DUP2 PUSH1 0x3 NOT CALLDATASIZE ADD SLT PUSH2 0xEB JUMPI PUSH1 0x20 SWAP2 SLOAD SWAP1 MLOAD SWAP1 DUP2 MSTORE RETURN JUMPDEST POP CALLVALUE PUSH2 0xB0 JUMPI PUSH1 0x80 CALLDATASIZE PUSH1 0x3 NOT ADD SLT PUSH2 0xB0 JUMPI DUP1 CALLDATALOAD SWAP2 PUSH1 0x24 CALLDATALOAD PUSH1 0x44 CALLDATALOAD SWAP3 DUP5 DUP7 MSTORE DUP1 PUSH1 0x20 MSTORE PUSH1 0xFF DUP4 DUP8 KECCAK256 SLOAD AND PUSH2 0x19E JUMPI SWAP2 DUP2 PUSH32 0xB750BCFC031AB8812A70D220DAE3BF12BFD3137D43AB76D54E05A913381E9231 SWAP6 SWAP4 PUSH1 0x80 SWAP6 SWAP4 DUP9 SSTORE DUP4 PUSH1 0x1 SSTORE PUSH1 0x64 CALLDATALOAD PUSH1 0x2 SSTORE TIMESTAMP PUSH1 0x3 SSTORE DUP5 DUP9 MSTORE PUSH1 0x20 MSTORE DUP2 DUP8 KECCAK256 PUSH1 0x1 PUSH1 0xFF NOT DUP3 SLOAD AND OR SWAP1 SSTORE DUP2 MLOAD SWAP4 DUP5 MSTORE PUSH1 0x20 DUP5 ADD MSTORE DUP3 ADD MSTORE TIMESTAMP PUSH1 0x60 DUP3 ADD MSTORE LOG1 DUP1 RETURN JUMPDEST PUSH1 0x64 SWAP1 PUSH1 0x20 DUP5 MLOAD SWAP2 PUSH3 0x461BCD PUSH1 0xE5 SHL DUP4 MSTORE DUP3 ADD MSTORE PUSH1 0x19 PUSH1 0x24 DUP3 ADD MSTORE PUSH32 0x5265717565737420616C72656164792066756C66696C6C656400000000000000 PUSH1 0x44 DUP3 ADD MSTORE REVERT JUMPDEST POP SWAP2 SWAP1 CALLVALUE PUSH2 0xEB JUMPI PUSH1 0x20 SWAP3 DUP4 PUSH1 0x3 NOT CALLDATASIZE ADD SLT PUSH2 0xB0 JUMPI DUP1 CALLDATALOAD SWAP3 PUSH8 0xFFFFFFFFFFFFFFFF SWAP2 DUP3 DUP6 GT PUSH2 0xEB JUMPI CALLDATASIZE PUSH1 0x23 DUP7 ADD SLT ISZERO PUSH2 0xEB JUMPI DUP5 DUP2 ADD CALLDATALOAD SWAP3 DUP4 GT PUSH2 0x2EA JUMPI POP PUSH1 0x1F NOT SWAP1 DUP4 MLOAD SWAP3 PUSH2 0x23A DUP8 DUP5 PUSH1 0x1F DUP5 ADD AND ADD DUP6 PUSH2 0x380 JUMP JUMPDEST DUP1 DUP5 MSTORE DUP7 DUP5 ADD SWAP6 CALLDATASIZE PUSH1 0x24 DUP4 DUP4 ADD ADD GT PUSH2 0xB0 JUMPI SWAP3 PUSH1 0x80 SWAP3 DUP9 DUP4 PUSH32 0x7E2BD46FD2AA8DAF32047E8E5B90D00A132999F708155AABECC1231F72539690 SWAP8 SWAP5 PUSH1 0x24 PUSH2 0x2D7 SWAP9 ADD DUP12 CALLDATACOPY DUP5 ADD ADD MSTORE PUSH1 0x1F DUP7 MLOAD DUP10 DUP2 ADD SWAP1 TIMESTAMP DUP3 MSTORE PUSH2 0x2B3 DUP10 DUP3 DUP13 PUSH2 0x2A4 DUP10 MLOAD DUP1 SWAP3 DUP6 DUP6 ADD SWAP1 PUSH2 0x3B8 JUMP JUMPDEST DUP2 ADD SUB DUP14 DUP2 ADD DUP5 MSTORE ADD DUP3 PUSH2 0x380 JUMP JUMPDEST MLOAD SWAP1 KECCAK256 SWAP8 DUP8 MLOAD SWAP6 DUP7 SWAP5 DUP11 DUP7 MSTORE PUSH1 0x60 DUP13 DUP8 ADD MSTORE MLOAD DUP1 SWAP3 DUP2 PUSH1 0x60 DUP9 ADD MSTORE DUP8 DUP8 ADD SWAP1 PUSH2 0x3B8 JUMP JUMPDEST CALLER DUP9 DUP6 ADD MSTORE ADD AND DUP2 ADD SUB ADD SWAP1 LOG1 MLOAD SWAP1 DUP2 MSTORE RETURN JUMPDEST PUSH4 0x4E487B71 PUSH1 0xE0 SHL DUP3 MSTORE PUSH1 0x41 SWAP1 MSTORE PUSH1 0x24 SWAP1 REVERT JUMPDEST POP POP CALLVALUE PUSH2 0xEB JUMPI DUP2 PUSH1 0x3 NOT CALLDATASIZE ADD SLT PUSH2 0xEB JUMPI PUSH1 0x20 SWAP1 PUSH1 0x2 SLOAD SWAP1 MLOAD SWAP1 DUP2 MSTORE RETURN JUMPDEST POP POP CALLVALUE PUSH2 0xEB JUMPI DUP2 PUSH1 0x3 NOT CALLDATASIZE ADD SLT PUSH2 0xEB JUMPI PUSH1 0x20 SWAP1 PUSH1 0x1 SLOAD SWAP1 MLOAD SWAP1 DUP2 MSTORE RETURN JUMPDEST DUP5 SWAP1 CALLVALUE PUSH2 0xEB JUMPI DUP2 PUSH1 0x3 NOT CALLDATASIZE ADD SLT PUSH2 0xEB JUMPI PUSH1 0x20 SWAP1 PUSH1 0x3 SLOAD DUP2 MSTORE RETURN JUMPDEST DUP5 DUP4 CALLVALUE PUSH2 0xEB JUMPI PUSH1 0x60 CALLDATASIZE PUSH1 0x3 NOT ADD SLT PUSH2 0xEB JUMPI CALLDATALOAD DUP2 SSTORE PUSH1 0x24 CALLDATALOAD PUSH1 0x1 SSTORE PUSH1 0x44 CALLDATALOAD PUSH1 0x2 SSTORE TIMESTAMP PUSH1 0x3 SSTORE DUP1 RETURN JUMPDEST SWAP1 PUSH1 0x1F DUP1 NOT SWAP2 ADD AND DUP2 ADD SWAP1 DUP2 LT PUSH8 0xFFFFFFFFFFFFFFFF DUP3 GT OR PUSH2 0x3A2 JUMPI PUSH1 0x40 MSTORE JUMP JUMPDEST PUSH4 0x4E487B71 PUSH1 0xE0 SHL PUSH1 0x0 MSTORE PUSH1 0x41 PUSH1 0x4 MSTORE PUSH1 0x24 PUSH1 0x0 REVERT JUMPDEST PUSH1 0x0 JUMPDEST DUP4 DUP2 LT PUSH2 0x3CB JUMPI POP POP PUSH1 0x0 SWAP2 ADD MSTORE JUMP JUMPDEST DUP2 DUP2 ADD MLOAD DUP4 DUP3 ADD MSTORE PUSH1 0x20 ADD PUSH2 0x3BB JUMP INVALID LOG2 PUSH5 0x6970667358 0x22 SLT KECCAK256 MULMOD CREATE 0xCD ISZERO 0xD 0xAD DUP12 0xAA PUSH27 0x1ACB7B3550A92A3A7E1125DF98CD4ED515E0E7BFEEBBC764736F6C PUSH4 0x43000818 STOP CALLER "},"methodIdentifiers":{"fulfillRequest(uint256,int256,uint256,uint256)":"77c52302","fulfilledRequests(uint256)":"fee3e1a6","getLatestData()":"ab757d61","lastAirQualityIndex()":"233a3faf","lastHumidity()":"15fbfd06","lastTemperature()":"9fb51771","lastUpdateTimestamp()":"14bcec9f","requestEnvironmentalData(string)":"6d413910","updateDataStub(int256,uint256,uint256)":"01905945"}}}}}