{"contracts/QualityTestContract.sol":{"QualityTestContract":{"abi":[{"inputs":[],"stateMutability":"nonpayable","type":"constructor"},{"inputs":[{"internalType":"address","name":"owner","type":"address"}],"name":"OwnableInvalidOwner","type":"error"},{"inputs":[{"internalType":"address","name":"account","type":"address"}],"name":"OwnableUnauthorizedAccount","type":"error"},{"anonymous":false,"inputs":[{"indexed":true,"internalType":"uint256","name":"certId","type":"uint256"},{"indexed":true,"internalType":"uint256","name":"batchTokenId","type":"uint256"},{"indexed":false,"internalType":"enum QualityTestContract.CertificationLevel","name":"level","type":"uint8"},{"indexed":false,"internalType":"uint256","name":"expiryDate","type":"uint256"},{"indexed":false,"internalType":"uint256","name":"timestamp","type":"uint256"}],"name":"CertificationIssued","type":"event"},{"anonymous":false,"inputs":[{"indexed":true,"internalType":"uint256","name":"certId","type":"uint256"},{"indexed":false,"internalType":"address","name":"revoker","type":"address"},{"indexed":false,"internalType":"uint256","name":"timestamp","type":"uint256"}],"name":"CertificationRevoked","type":"event"},{"anonymous":false,"inputs":[{"indexed":true,"internalType":"address","name":"previousOwner","type":"address"},{"indexed":true,"internalType":"address","name":"newOwner","type":"address"}],"name":"OwnershipTransferred","type":"event"},{"anonymous":false,"inputs":[{"indexed":true,"internalType":"uint256","name":"batchTokenId","type":"uint256"},{"indexed":false,"internalType":"enum QualityTestContract.CertificationLevel","name":"level","type":"uint8"},{"indexed":false,"internalType":"uint256","name":"overallScore","type":"uint256"},{"indexed":false,"internalType":"uint256","name":"timestamp","type":"uint256"}],"name":"QualityProfileUpdated","type":"event"},{"anonymous":false,"inputs":[{"indexed":true,"internalType":"uint256","name":"testId","type":"uint256"},{"indexed":true,"internalType":"uint256","name":"batchTokenId","type":"uint256"},{"indexed":false,"internalType":"bool","name":"passed","type":"bool"},{"indexed":false,"internalType":"uint256","name":"resultValue","type":"uint256"},{"indexed":false,"internalType":"uint256","name":"timestamp","type":"uint256"}],"name":"TestCompleted","type":"event"},{"anonymous":false,"inputs":[{"indexed":true,"internalType":"uint256","name":"testId","type":"uint256"},{"indexed":true,"internalType":"uint256","name":"batchTokenId","type":"uint256"},{"indexed":false,"internalType":"enum QualityTestContract.TestType","name":"testType","type":"uint8"},{"indexed":false,"internalType":"address","name":"labAddress","type":"address"},{"indexed":false,"internalType":"uint256","name":"timestamp","type":"uint256"}],"name":"TestRequested","type":"event"},{"inputs":[{"internalType":"uint256","name":"","type":"uint256"},{"internalType":"uint256","name":"","type":"uint256"}],"name":"batchCertifications","outputs":[{"internalType":"uint256","name":"","type":"uint256"}],"stateMutability":"view","type":"function"},{"inputs":[{"internalType":"uint256","name":"","type":"uint256"},{"internalType":"uint256","name":"","type":"uint256"}],"name":"batchTests","outputs":[{"internalType":"uint256","name":"","type":"uint256"}],"stateMutability":"view","type":"function"},{"inputs":[{"internalType":"uint256","name":"","type":"uint256"}],"name":"certifications","outputs":[{"internalType":"uint256","name":"id","type":"uint256"},{"internalType":"uint256","name":"batchTokenId","type":"uint256"},{"internalType":"enum QualityTestContract.CertificationLevel","name":"level","type":"uint8"},{"internalType":"address","name":"certifier","type":"address"},{"internalType":"uint256","name":"issueDate","type":"uint256"},{"internalType":"uint256","name":"expiryDate","type":"uint256"},{"internalType":"string","name":"certStandard","type":"string"},{"internalType":"bool","name":"isRevoked","type":"bool"},{"internalType":"string","name":"certURI","type":"string"}],"stateMutability":"view","type":"function"},{"inputs":[{"internalType":"uint256","name":"_batchTokenId","type":"uint256"}],"name":"getBatchCertifications","outputs":[{"components":[{"internalType":"uint256","name":"id","type":"uint256"},{"internalType":"uint256","name":"batchTokenId","type":"uint256"},{"internalType":"enum QualityTestContract.CertificationLevel","name":"level","type":"uint8"},{"internalType":"address","name":"certifier","type":"address"},{"internalType":"uint256","name":"issueDate","type":"uint256"},{"internalType":"uint256","name":"expiryDate","type":"uint256"},{"internalType":"string","name":"certStandard","type":"string"},{"internalType":"bool","name":"isRevoked","type":"bool"},{"internalType":"string","name":"certURI","type":"string"}],"internalType":"struct QualityTestContract.Certification[]","name":"","type":"tuple[]"}],"stateMutability":"view","type":"function"},{"inputs":[{"internalType":"uint256","name":"_batchTokenId","type":"uint256"}],"name":"getBatchTests","outputs":[{"components":[{"internalType":"uint256","name":"id","type":"uint256"},{"internalType":"uint256","name":"batchTokenId","type":"uint256"},{"internalType":"enum QualityTestContract.TestType","name":"testType","type":"uint8"},{"internalType":"enum QualityTestContract.TestStatus","name":"status","type":"uint8"},{"internalType":"address","name":"labAddress","type":"address"},{"internalType":"string","name":"testMethod","type":"string"},{"internalType":"uint256","name":"resultValue","type":"uint256"},{"internalType":"uint256","name":"minAcceptable","type":"uint256"},{"internalType":"uint256","name":"maxAcceptable","type":"uint256"},{"internalType":"bool","name":"passed","type":"bool"},{"internalType":"string","name":"unit","type":"string"},{"internalType":"string","name":"notes","type":"string"},{"internalType":"uint256","name":"testDate","type":"uint256"},{"internalType":"uint256","name":"certificationDate","type":"uint256"},{"internalType":"string","name":"labReportURI","type":"string"}],"internalType":"struct QualityTestContract.TestResult[]","name":"","type":"tuple[]"}],"stateMutability":"view","type":"function"},{"inputs":[{"internalType":"uint256","name":"_certId","type":"uint256"}],"name":"getCertification","outputs":[{"components":[{"internalType":"uint256","name":"id","type":"uint256"},{"internalType":"uint256","name":"batchTokenId","type":"uint256"},{"internalType":"enum QualityTestContract.CertificationLevel","name":"level","type":"uint8"},{"internalType":"address","name":"certifier","type":"address"},{"internalType":"uint256","name":"issueDate","type":"uint256"},{"internalType":"uint256","name":"expiryDate","type":"uint256"},{"internalType":"string","name":"certStandard","type":"string"},{"internalType":"bool","name":"isRevoked","type":"bool"},{"internalType":"string","name":"certURI","type":"string"}],"internalType":"struct QualityTestContract.Certification","name":"","type":"tuple"}],"stateMutability":"view","type":"function"},{"inputs":[{"internalType":"address","name":"_lab","type":"address"}],"name":"getLabTests","outputs":[{"internalType":"uint256[]","name":"","type":"uint256[]"}],"stateMutability":"view","type":"function"},{"inputs":[{"internalType":"uint256","name":"_batchTokenId","type":"uint256"}],"name":"getQualityProfile","outputs":[{"components":[{"internalType":"uint256","name":"batchTokenId","type":"uint256"},{"internalType":"uint256[]","name":"testIds","type":"uint256[]"},{"internalType":"enum QualityTestContract.CertificationLevel","name":"currentCertLevel","type":"uint8"},{"internalType":"bool","name":"hasOrganicCert","type":"bool"},{"internalType":"bool","name":"hasGMPCert","type":"bool"},{"internalType":"uint256","name":"overallScore","type":"uint256"},{"internalType":"uint256","name":"lastTestDate","type":"uint256"}],"internalType":"struct QualityTestContract.BatchQualityProfile","name":"","type":"tuple"}],"stateMutability":"view","type":"function"},{"inputs":[{"internalType":"uint256","name":"_testId","type":"uint256"}],"name":"getTestResult","outputs":[{"components":[{"internalType":"uint256","name":"id","type":"uint256"},{"internalType":"uint256","name":"batchTokenId","type":"uint256"},{"internalType":"enum QualityTestContract.TestType","name":"testType","type":"uint8"},{"internalType":"enum QualityTestContract.TestStatus","name":"status","type":"uint8"},{"internalType":"address","name":"labAddress","type":"address"},{"internalType":"string","name":"testMethod","type":"string"},{"internalType":"uint256","name":"resultValue","type":"uint256"},{"internalType":"uint256","name":"minAcceptable","type":"uint256"},{"internalType":"uint256","name":"maxAcceptable","type":"uint256"},{"internalType":"bool","name":"passed","type":"bool"},{"internalType":"string","name":"unit","type":"string"},{"internalType":"string","name":"notes","type":"string"},{"internalType":"uint256","name":"testDate","type":"uint256"},{"internalType":"uint256","name":"certificationDate","type":"uint256"},{"internalType":"string","name":"labReportURI","type":"string"}],"internalType":"struct QualityTestContract.TestResult","name":"","type":"tuple"}],"stateMutability":"view","type":"function"},{"inputs":[],"name":"getTotalCertifications","outputs":[{"internalType":"uint256","name":"","type":"uint256"}],"stateMutability":"view","type":"function"},{"inputs":[],"name":"getTotalTests","outputs":[{"internalType":"uint256","name":"","type":"uint256"}],"stateMutability":"view","type":"function"},{"inputs":[{"internalType":"uint256","name":"_batchTokenId","type":"uint256"}],"name":"isBatchCertified","outputs":[{"internalType":"bool","name":"","type":"bool"}],"stateMutability":"view","type":"function"},{"inputs":[{"internalType":"uint256","name":"_batchTokenId","type":"uint256"},{"internalType":"enum QualityTestContract.CertificationLevel","name":"_level","type":"uint8"},{"internalType":"uint256","name":"_validityDays","type":"uint256"},{"internalType":"string","name":"_certStandard","type":"string"},{"internalType":"string","name":"_certURI","type":"string"}],"name":"issueCertification","outputs":[{"internalType":"uint256","name":"","type":"uint256"}],"stateMutability":"nonpayable","type":"function"},{"inputs":[{"internalType":"address","name":"","type":"address"},{"internalType":"uint256","name":"","type":"uint256"}],"name":"labTests","outputs":[{"internalType":"uint256","name":"","type":"uint256"}],"stateMutability":"view","type":"function"},{"inputs":[],"name":"nextCertId","outputs":[{"internalType":"uint256","name":"","type":"uint256"}],"stateMutability":"view","type":"function"},{"inputs":[],"name":"nextTestId","outputs":[{"internalType":"uint256","name":"","type":"uint256"}],"stateMutability":"view","type":"function"},{"inputs":[],"name":"owner","outputs":[{"internalType":"address","name":"","type":"address"}],"stateMutability":"view","type":"function"},{"inputs":[{"internalType":"uint256","name":"","type":"uint256"}],"name":"qualityProfiles","outputs":[{"internalType":"uint256","name":"batchTokenId","type":"uint256"},{"internalType":"enum QualityTestContract.CertificationLevel","name":"currentCertLevel","type":"uint8"},{"internalType":"bool","name":"hasOrganicCert","type":"bool"},{"internalType":"bool","name":"hasGMPCert","type":"bool"},{"internalType":"uint256","name":"overallScore","type":"uint256"},{"internalType":"uint256","name":"lastTestDate","type":"uint256"}],"stateMutability":"view","type":"function"},{"inputs":[{"internalType":"uint256","name":"_testId","type":"uint256"},{"internalType":"uint256","name":"_resultValue","type":"uint256"},{"internalType":"string","name":"_notes","type":"string"},{"internalType":"string","name":"_labReportURI","type":"string"}],"name":"recordTestResult","outputs":[],"stateMutability":"nonpayable","type":"function"},{"inputs":[],"name":"renounceOwnership","outputs":[],"stateMutability":"nonpayable","type":"function"},{"inputs":[{"internalType":"uint256","name":"_batchTokenId","type":"uint256"},{"internalType":"enum QualityTestContract.TestType","name":"_testType","type":"uint8"},{"internalType":"string","name":"_testMethod","type":"string"},{"internalType":"uint256","name":"_minAcceptable","type":"uint256"},{"internalType":"uint256","name":"_maxAcceptable","type":"uint256"},{"internalType":"string","name":"_unit","type":"string"}],"name":"requestTest","outputs":[{"internalType":"uint256","name":"","type":"uint256"}],"stateMutability":"nonpayable","type":"function"},{"inputs":[{"internalType":"uint256","name":"_certId","type":"uint256"}],"name":"revokeCertification","outputs":[],"stateMutability":"nonpayable","type":"function"},{"inputs":[{"internalType":"uint256","name":"","type":"uint256"}],"name":"testResults","outputs":[{"internalType":"uint256","name":"id","type":"uint256"},{"internalType":"uint256","name":"batchTokenId","type":"uint256"},{"internalType":"enum QualityTestContract.TestType","name":"testType","type":"uint8"},{"internalType":"enum QualityTestContract.TestStatus","name":"status","type":"uint8"},{"internalType":"address","name":"labAddress","type":"address"},{"internalType":"string","name":"testMethod","type":"string"},{"internalType":"uint256","name":"resultValue","type":"uint256"},{"internalType":"uint256","name":"minAcceptable","type":"uint256"},{"internalType":"uint256","name":"maxAcceptable","type":"uint256"},{"internalType":"bool","name":"passed","type":"bool"},{"internalType":"string","name":"unit","type":"string"},{"internalType":"string","name":"notes","type":"string"},{"internalType":"uint256","name":"testDate","type":"uint256"},{"internalType":"uint256","name":"certificationDate","type":"uint256"},{"internalType":"string","name":"labReportURI","type":"string"}],"stateMutability":"view","type":"function"},{"inputs":[{"internalType":"address","name":"newOwner","type":"address"}],"name":"transferOwnership","outputs":[],"stateMutability":"nonpayable","type":"function"}],"evm":{"bytecode":{"linkReferences":{},"object":"6080806040523461008457331561006e5760008054336001600160a01b03198216811783556040519290916001600160a01b0316907f8be0079c531659141344cd1fd0a4f28419497f9722a3daafe3b4186f6b6457e09080a360016007556001600855612615908161008a8239f35b631e4fbdf760e01b815260006004820152602490fd5b600080fdfe6080604052600436101561001257600080fd5b60003560e01c80630bf10a6514611cb057806315c9a63514611c7f5780631ebc237114611c0a57806325dc673e14611bdf5780632664003914611bb45780632a8e6a8e14611b965780632f5fce6c14611aed57806332a86e9514611acf57806339ab71f9146119355780633c0359a41461186f5780633cf91ccd1461172c578063715018a6146116d3578063788e54351461121f5780638398ab6614610e7b5780638da5cb5b14610e5257806390780b0f146105f3578063b77cb54614610599578063bdb914641461054f578063c36d252b14610433578063e0b3271f14610311578063ea57b785146102c3578063ec0ed1d914610284578063ec981eac146101b75763f2fde38b1461012457600080fd5b346101b25760203660031901126101b25761013d612240565b6101456124b9565b6001600160a01b0390811690811561019957600054826bffffffffffffffffffffffff60a01b821617600055167f8be0079c531659141344cd1fd0a4f28419497f9722a3daafe3b4186f6b6457e0600080a3005b604051631e4fbdf760e01b815260006004820152602490fd5b600080fd5b346101b25760203660031901126101b2576101d061232f565b50600435600052600260205261028060406000206102666007604051926101f6846120d2565b8054845260018101546020850152600281015460ff811661021681611e7b565b604086015260081c6001600160a01b0316606085015260038101546080850152600481015460a085015261024c60058201612145565b60c085015260ff600682015416151560e085015201612145565b610100820152604051918291602083526020830190611ff6565b0390f35b346101b25761029236611fb2565b906000526005602052604060002080548210156101b2576020916102b591611fc8565b90546040519160031b1c8152f35b346101b25760203660031901126101b2576001600160a01b036102e4612240565b1660005260046020526102806102fd6040600020612468565b604051918291602083526020830190612256565b346101b25760203660031901126101b25761032a6122a1565b5060043560005260016020526102806040600020610419600c60405192610350846120b6565b8054845260018101546020850152600281015461037360ff821660408701612323565b60ff8160081c1661038381611e7b565b606086015260101c6001600160a01b031660808501526103a560038201612145565b60a0850152600481015460c0850152600581015460e0850152600681015461010085015260ff60078201541615156101208501526103e560088201612145565b6101408501526103f760098201612145565b610160850152600a810154610180850152600b8101546101a085015201612145565b6101c0820152604051918291602083526020830190611ec5565b346101b2576020806003193601126101b257600060c0604051610455816120ee565b8281526060848201528260408201528260608201528260808201528260a0820152015260043560005260038152604060002060405190610494826120ee565b805482526104a460018201612468565b828401908152600282015460408401929060ff81166104c281611e7b565b84526060850160ff8260081c161515815260ff608087019260101c161515825261051f600460038501549460a0890195865201549460c08801958652604051988998818a5251908901525160e06040890152610100880190612256565b945161052a81611e7b565b6060870152511515608086015251151560a08501525160c08401525160e08301520390f35b346101b25760403660031901126101b257610568612240565b6001600160a01b03166000908152600460205260409020805460243591908210156101b2576020916102b591611fc8565b346101b25760203660031901126101b257600435600052600360205260206040600020600160ff6002830154166105cf81611e7b565b101590816105e3575b506040519015158152f35b60509150600301541015826105d8565b346101b25760c03660031901126101b257600a60243510156101b2576044356001600160401b0381116101b25761062e9036906004016121ea565b60a4356001600160401b0381116101b25761064d9036906004016121ea565b9061065b6004351515612373565b60075491610668836123b8565b60075560405191610678836120b6565b838352600435602084015261069260243560408501612323565b6000606084015233608084015260a0830152600060c083015260643560e083015260843561010083015260006101208301526101408201526040516106d681612109565b60008152610160820152600061018082015260006101a08201526040516106fc81612109565b600081526101c082015281600052600160205260406000209080518255602081015160018301556040810151600a811015610e3c5760ff8019600285015416911617600283015561075d606082015161075481611e7b565b60028401612449565b608081015160028301805462010000600160b01b03191660109290921b62010000600160b01b031691909117905560a081015180519093906001600160401b038111610b59576107b0600385015461207c565b601f8111610e07575b506020601f8211600114610d98578192939495600092610d8d575b50508160011b916000199060031b1c19161760038401555b60c0820151600484015560e08201516005840155610100820151600684015561082b6101208301511515600785019060ff801983541691151516179055565b6101408201519283516001600160401b038111610b595761084f600883015461207c565b601f8111610d58575b506020601f8211600114610ce9578192939495600092610cde575b50508160011b916000199060031b1c19161760088201555b6101608301519283516001600160401b038111610b59576108af600984015461207c565b601f8111610ca9575b506020601f8211600114610c355781906101c0949596600092610c2a575b50508160011b916000199060031b1c19161760098401555b610180810151600a8401556101a0810151600b84015501518051906001600160401b038211610b5957610924600c84015461207c565b601f8111610bea575b50602090601f8311600114610b7a57600c929160009183610b6f575b50508160011b916000199060031b1c1916179101555b3360005260046020526109768160406000206123f6565b600435600052600560205261098f8160406000206123f6565b600435600052600360205260046040600020015415610a12575b602090600435600052600382526109c78160016040600020016123f6565b6040516109d681602435611e6e565b3383820152426040820152817f4b757cbe560806021f41591fe09b6ec6dd734915d7c49b5cb0153c221e71d053606060043593a3604051908152f35b60405190610a1f82612109565b6000825260405191610a30836120ee565b600435835260208301908152600060408401526000606084015260006080840152600060a08401524260c0840152600435600052600360205260406000209083518255518051906001600160401b038211610b5957600160401b8211610b59576020906001840154836001860155808410610b39575b500160018301600052602060002060005b838110610b255750505050600460c060209460028401610ae46040830151610ade81611e7b565b826123c7565b60608201511515815461ff0062ff00006080860151151560101b169260081b169062ffff0019161717905560a08101516003850155015191015590506109a9565b600190602084519401938184015501610ab7565b610b539060018601600052848460002091820191016123df565b86610aa6565b634e487b7160e01b600052604160045260246000fd5b015190508580610949565b90600c840160005260206000209160005b601f1985168110610bd25750918391600193600c95601f19811610610bb9575b505050811b0191015561095f565b015160001960f88460031b161c19169055858080610bab565b91926020600181928685015181550194019201610b8b565b610c1a90600c85016000526020600020601f850160051c81019160208610610c20575b601f0160051c01906123df565b8461092d565b9091508190610c0d565b0151905086806108d6565b6009840160005260206000209560005b601f1984168110610c9157509582916101c0959697600194601f19811610610c78575b505050811b0160098401556108ee565b015160001960f88460031b161c19169055868080610c68565b82820151885560019097019660209283019201610c45565b610cd890600985016000526020600020601f840160051c81019160208510610c2057601f0160051c01906123df565b856108b8565b015190508580610873565b6008830160005260206000209060005b601f1984168110610d40575060019394959683601f19811610610d27575b505050811b01600882015561088b565b015160001960f88460031b161c19169055858080610d17565b9091602060018192858b015181550193019101610cf9565b610d8790600884016000526020600020601f840160051c81019160208510610c2057601f0160051c01906123df565b85610858565b0151905085806107d4565b6003850160005260206000209060005b601f1984168110610def575060019394959683601f19811610610dd6575b505050811b0160038401556107ec565b015160001960f88460031b161c19169055858080610dc6565b9091602060018192858b015181550193019101610da8565b610e3690600386016000526020600020601f840160051c81019160208510610c2057601f0160051c01906123df565b856107b9565b634e487b7160e01b600052602160045260246000fd5b346101b25760003660031901126101b2576000546040516001600160a01b039091168152602090f35b346101b25760803660031901126101b2576024356004356001600160401b036044358181116101b257610eb29036906004016121ea565b926064358281116101b257610ecb9036906004016121ea565b9183600052600190602093828552604060002091600283019788543360018060a01b038260101c16036111e35760081c60ff16610f0781611e7b565b6111ab57856004850155600984018151838111610b595780610f29835461207c565b93601f948b86821161117c575b50508a908583116001146111195760009261110e575b5050600019600383901b1c191690871b1790555b600c8401928051928311610b5957610f78845461207c565b8281116110d6575b50879183116001146110665791806110429a9896949260ff9a98969460009261105b575b5050600019600383901b1c191690841b1790555b42600a8201556005810154831015958661104c575b91816110237fb819a470b5c4b3919cf8b3e8432c172902f5dafba632de8f6ca8fef5e06fb4a39694611012600760609896019a8b9060ff801983541691151516179055565b89548b161561104457600290612449565b01549687965416916040519215158352820152426040820152a36124e5565b005b600390612449565b60068201548411159650610fcd565b015190508b80610fa4565b90601f1983169184600052886000209260005b8181106110c157509287959392859260ff9c9a98966110429e9c9a95106110a8575b505050811b019055610fb8565b015160001960f88460031b161c191690558b808061109b565b82840151855593880193928a01928a01611079565b6110ff9085600052896000208480870160051c8201928c8810611105575b0160051c01906123df565b8a610f80565b925081926110f4565b015190508c80610f4c565b60008581528c81208b9550929190601f198516908e5b828210611165575050841161114c575b505050811b019055610f60565b015160001960f88460031b161c191690558c808061113f565b8385015186558d979095019493840193018e61112f565b6111a4918660005287826000209181870160051c8301938710611105570160051c01906123df565b8d8b610f36565b60405162461bcd60e51b815260048101889052601060248201526f54657374206e6f742070656e64696e6760801b6044820152606490fd5b60405162461bcd60e51b81526004810189905260146024820152732737ba103a34329030b9b9b4b3b732b2103630b160611b6044820152606490fd5b346101b25760a03660031901126101b257600560243510156101b2576044356064356001600160401b0381116101b25761125d9036906004016121ea565b6084356001600160401b0381116101b25761127c9036906004016121ea565b906112856124b9565b6112926004351515612373565b6008549061129f826123b8565b60085562015180938481029481860414901517156116bd5783420142116116bd57604051936112cd856120d2565b828552600435602086015260408501936112e8602435611e7b565b60243585526060860194338652608087019142835260a08801934201845260c08801948552600060e0890152610100880152846000526002602052604060002095875187556020880151600188015561134f60028801925161134981611e7b565b836123c7565b518154610100600160a81b03191660089190911b610100600160a81b03161790555160038501555160048401555180519093906001600160401b038111610b595761139d600585015461207c565b601f8111611688575b506020601f8211600114611614578190610100949596600092611609575b50508160011b916000199060031b1c19161760058501555b6113fb60e08201511515600686019060ff801983541691151516179055565b01519182516001600160401b038111610b595760209361141e600784015461207c565b601f81116115d6575b508490601f831160011461156857600792916000918361155d575b50508160011b916000199060031b1c1916179101555b600435600052600682526114708160406000206123f6565b60043560005260038252600260406000200160ff81541661149081611e7b565b61149b602435611e7b565b6024351161154c575b6114af602435611e7b565b60036024351461153a575b6114c5602435611e7b565b600460243514611525575b508060005260028252600460406000200154817fca77dae66f73f5407f50b395115f6d8308e04037678a57aec3ba34098fd842e06040518061151a6004359542906024358461242b565b0390a3604051908152f35b805462ff0000191662010000179055826114d0565b805461ff0019166101001781556114ba565b611558602435826123c7565b6114a4565b015190508680611442565b9060078401600052856000209160005b601f19851681106115bf5750918391600193600795601f198116106115a6575b505050811b01910155611458565b015160001960f88460031b161c19169055868080611598565b919287600181928685015181550194019201611578565b611603906007850160005286600020601f850160051c810191888610610c2057601f0160051c01906123df565b85611427565b0151905086806113c4565b6005850160005260206000209560005b601f19841681106116705750958291610100959697600194601f19811610611657575b505050811b0160058501556113dc565b015160001960f88460031b161c19169055868080611647565b82820151885560019097019660209283019201611624565b6116b790600586016000526020600020601f840160051c81019160208510610c2057601f0160051c01906123df565b856113a6565b634e487b7160e01b600052601160045260246000fd5b346101b25760003660031901126101b2576116ec6124b9565b600080546001600160a01b0319811682556001600160a01b03167f8be0079c531659141344cd1fd0a4f28419497f9722a3daafe3b4186f6b6457e08280a3005b346101b25760203660031901126101b2576004356000526001602052604060002080546001820154906002830154908160081c60ff16936003810161177090612145565b60048201546005830154906006840154600785015460ff16906008860161179690612145565b936117a360098801612145565b95600a88015498600b89015498600c016117bc90612145565b9a6040519d8e809e6101e0948252602082015260400160ff8316906117e091611e6e565b8d6117ea82611e7b565b6060015260101c6001600160a01b031660808d015260a08c0181905261181391908c0190611e85565b9360c08b015260e08a0152610100890152151561012088015286810361014088015261183e91611e85565b85810361016087015261185091611e85565b916101808501526101a08401528281036101c084015261028091611e85565b346101b25760203660031901126101b25760043560005260026020526040600020805490610280600182015491600281015461191f60ff82169560038401549060048501546118c060058701612145565b926118d5600760ff60068a0154169801612145565b956040519a8b9a610120958c5260208c01526118f081611e7b565b60408b015260081c6001600160a01b031660608a0152608089015260a088015260c08701819052860190611e85565b91151560e0850152838203610100850152611e85565b346101b2576020806003193601126101b25760043560005260068082526040600020908154906119648261228a565b926119726040519485612124565b82845261197e8361228a565b601f19018560005b828110611ab95750505060005b8381106119f857604080518781528651818901819052600092600582901b8301810191898b01918b9085015b8287106119cc5785850386f35b9091929382806119e8600193603f198a82030186528851611ff6565b96019201960195929190926119bf565b80611a0560019284611fc8565b9054600391821b1c600052611a976007600292838b5260406000209060405194611a2e866120d2565b82548652878301548d8701528201549060ff91828116611a4d81611e7b565b6040880152888060a01b039060081c1660608701528201546080860152600482015460a0860152611a8060058301612145565b60c08601528882015416151560e085015201612145565b610100820152611aa7828861230f565b52611ab2818761230f565b5001611993565b611ac161232f565b828289010152018690611986565b346101b25760003660031901126101b2576020600754604051908152f35b346101b25760203660031901126101b257600435611b096124b9565b8060005260026020526006604060002001805460ff8116611b5f5760019060ff19161790557f014ca789a7e6a2b8bda52f2bc401bfc8c6dc1d7701d68785fc2a17f8ef05f4b660408051338152426020820152a2005b60405162461bcd60e51b815260206004820152600f60248201526e105b1c9958591e481c995d9bdad959608a1b6044820152606490fd5b346101b25760003660031901126101b2576020600854604051908152f35b346101b25760003660031901126101b25760075460001981019081116116bd57602090604051908152f35b346101b25760003660031901126101b25760085460001981019081116116bd57602090604051908152f35b346101b25760203660031901126101b257600435600052600360205260c0604060002080549060028101549060ff808316926004600384015493015493604051958652611c5681611e7b565b6020860152818160081c161515604086015260101c1615156060840152608083015260a0820152f35b346101b257611c8d36611fb2565b906000526006602052604060002080548210156101b2576020916102b591611fc8565b346101b2576020806003193601126101b2576004356000526005808252604060002090815490611cdf8261228a565b92611ced6040519485612124565b828452611cf98361228a565b601f19018560005b828110611e585750505060005b838110611d7357604080518781528651818901819052600092600582901b8301810191898b01918b9085015b828710611d475785850386f35b909192938280611d63600193603f198a82030186528851611ec5565b9601920196019592919092611d3a565b80611d8060019284611fc8565b9054600391821b1c600052611e36600c8492838b526103e560406000209160405195611dab876120b6565b835487528301548d870152600283015490611dfe60ff91611dd183851660408b01612323565b6008938381861c16611de281611e7b565b60608b01528b8060a01b039060101c1660808a01528501612145565b60a0880152600484015460c08801528a84015460e0880152600684015461010088015260078401541615156101208701528201612145565b6101c0820152611e46828861230f565b52611e51818761230f565b5001611d0e565b611e606122a1565b828289010152018690611d01565b90600a821015610e3c5752565b60051115610e3c57565b919082519283825260005b848110611eb1575050826000602080949584010152601f8019910116010190565b602081830181015184830182015201611e90565b90611faf91611f85611f71611f316101e08451865260208501516020870152611ef660408601516040880190611e6e565b6060850151611f0481611e7b565b60608701526080858101516001600160a01b03169087015260a08581015190870182905290860190611e85565b60c084015160c086015260e084015160e0860152610100808501519086015261012080850151151590860152610140808501519086830390870152611e85565b610160808401519085830390860152611e85565b9161018080830151908201526101a080830151908201526101c08092015191818403910152611e85565b90565b60409060031901126101b2576004359060243590565b8054821015611fe05760005260206000200190600090565b634e487b7160e01b600052603260045260246000fd5b90611faf9161205c6101208251845260208301516020850152604083015161201d81611e7b565b604085015260018060a01b0360608401511660608501526080830151608085015260a083015160a085015260c0830151908060c0860152840190611e85565b9160e0820151151560e08201526101008092015191818403910152611e85565b90600182811c921680156120ac575b602083101461209657565b634e487b7160e01b600052602260045260246000fd5b91607f169161208b565b6101e081019081106001600160401b03821117610b5957604052565b61012081019081106001600160401b03821117610b5957604052565b60e081019081106001600160401b03821117610b5957604052565b602081019081106001600160401b03821117610b5957604052565b90601f801991011681019081106001600160401b03821117610b5957604052565b906040519182600082546121588161207c565b908184526020946001916001811690816000146121c85750600114612189575b50505061218792500383612124565b565b600090815285812095935091905b8183106121b05750506121879350820101388080612178565b85548884018501529485019487945091830191612197565b9250505061218794925060ff191682840152151560051b820101388080612178565b81601f820112156101b2578035906001600160401b038211610b59576040519261221e601f8401601f191660200185612124565b828452602083830101116101b257816000926020809301838601378301015290565b600435906001600160a01b03821682036101b257565b90815180825260208080930193019160005b828110612276575050505090565b835185529381019392810192600101612268565b6001600160401b038111610b595760051b60200190565b604051906122ae826120b6565b60606101c083600080825280602083015280604083015280848301528060808301528360a08301528060c08301528060e083015280610100830152806101208301528361014083015283610160830152806101808301526101a08201520152565b8051821015611fe05760209160051b010190565b600a821015610e3c5752565b6040519061233c826120d2565b606061010083600080825280602083015280604083015280848301528060808301528060a08301528360c083015260e08201520152565b1561237a57565b60405162461bcd60e51b8152602060048201526016602482015275125b9d985b1a590818985d18da081d1bdad95b88125160521b6044820152606490fd5b60001981146116bd5760010190565b906123d181611e7b565b60ff80198354169116179055565b8181106123ea575050565b600081556001016123df565b8054600160401b811015610b595761241391600182018155611fc8565b819291549060031b91821b91600019901b1916179055565b6060810194939260409261243e81611e7b565b825260208201520152565b9061245381611e7b565b61ff0082549160081b169061ff001916179055565b90604051918281549182825260209260208301916000526020600020936000905b82821061249f5750505061218792500383612124565b855484526001958601958895509381019390910190612489565b6000546001600160a01b031633036124cd57565b60405163118cdaa760e01b8152336004820152602490fd5b6000818152600360209060036020526040926040812093600190600186019081549586156125d4578495855b88811061259657505050505050606482029180830460641490151715612582575060027f673b8c349db6fa76eef738b154b05c9e88917738c1c0e10b729b2d059cb5154a939260ff9204928360038201554260048201550154169061257d60405192839242918461242b565b0390a2565b634e487b7160e01b81526011600452602490fd5b6125a08186611fc8565b905490831b1c875285835260ff60078589200154166125c1575b8501612511565b966125cc86916123b8565b9790506125ba565b50505050505050505056fea2646970667358221220f0f50331b9a279d54a4c3a97372dfdd2cfc469b7d037ff47a7ad5c9c7936a49e64736f6c63430008180033","opcodes":"PUSH1 0x80 DUP1 PUSH1 0x40 MSTORE CALLVALUE PUSH2 0x84 JUMPI CALLER ISZERO PUSH2 0x6E JUMPI PUSH1 0x0 DUP1 SLOAD CALLER PUSH1 0x1 PUSH1 0x1 PUSH1 0xA0 SHL SUB NOT DUP3 AND DUP2 OR DUP4 SSTORE PUSH1 0x40 MLOAD SWAP3 SWAP1 SWAP2 PUSH1 0x1 PUSH1 0x1 PUSH1 0xA0 SHL SUB AND SWAP1 PUSH32 0x8BE0079C531659141344CD1FD0A4F28419497F9722A3DAAFE3B4186F6B6457E0 SWAP1 DUP1 LOG3 PUSH1 0x1 PUSH1 0x7 SSTORE PUSH1 0x1 PUSH1 0x8 SSTORE PUSH2 0x2615 SWAP1 DUP2 PUSH2 0x8A DUP3 CODECOPY RETURN JUMPDEST PUSH4 0x1E4FBDF7 PUSH1 0xE0 SHL DUP2 MSTORE PUSH1 0x0 PUSH1 0x4 DUP3 ADD MSTORE PUSH1 0x24 SWAP1 REVERT JUMPDEST PUSH1 0x0 DUP1 REVERT INVALID PUSH1 0x80 PUSH1 0x40 MSTORE PUSH1 0x4 CALLDATASIZE LT ISZERO PUSH2 0x12 JUMPI PUSH1 0x0 DUP1 REVERT JUMPDEST PUSH1 0x0 CALLDATALOAD PUSH1 0xE0 SHR DUP1 PUSH4 0xBF10A65 EQ PUSH2 0x1CB0 JUMPI DUP1 PUSH4 0x15C9A635 EQ PUSH2 0x1C7F JUMPI DUP1 PUSH4 0x1EBC2371 EQ PUSH2 0x1C0A JUMPI DUP1 PUSH4 0x25DC673E EQ PUSH2 0x1BDF JUMPI DUP1 PUSH4 0x26640039 EQ PUSH2 0x1BB4 JUMPI DUP1 PUSH4 0x2A8E6A8E EQ PUSH2 0x1B96 JUMPI DUP1 PUSH4 0x2F5FCE6C EQ PUSH2 0x1AED JUMPI DUP1 PUSH4 0x32A86E95 EQ PUSH2 0x1ACF JUMPI DUP1 PUSH4 0x39AB71F9 EQ PUSH2 0x1935 JUMPI DUP1 PUSH4 0x3C0359A4 EQ PUSH2 0x186F JUMPI DUP1 PUSH4 0x3CF91CCD EQ PUSH2 0x172C JUMPI DUP1 PUSH4 0x715018A6 EQ PUSH2 0x16D3 JUMPI DUP1 PUSH4 0x788E5435 EQ PUSH2 0x121F JUMPI DUP1 PUSH4 0x8398AB66 EQ PUSH2 0xE7B JUMPI DUP1 PUSH4 0x8DA5CB5B EQ PUSH2 0xE52 JUMPI DUP1 PUSH4 0x90780B0F EQ PUSH2 0x5F3 JUMPI DUP1 PUSH4 0xB77CB546 EQ PUSH2 0x599 JUMPI DUP1 PUSH4 0xBDB91464 EQ PUSH2 0x54F JUMPI DUP1 PUSH4 0xC36D252B EQ PUSH2 0x433 JUMPI DUP1 PUSH4 0xE0B3271F EQ PUSH2 0x311 JUMPI DUP1 PUSH4 0xEA57B785 EQ PUSH2 0x2C3 JUMPI DUP1 PUSH4 0xEC0ED1D9 EQ PUSH2 0x284 JUMPI DUP1 PUSH4 0xEC981EAC EQ PUSH2 0x1B7 JUMPI PUSH4 0xF2FDE38B EQ PUSH2 0x124 JUMPI PUSH1 0x0 DUP1 REVERT JUMPDEST CALLVALUE PUSH2 0x1B2 JUMPI PUSH1 0x20 CALLDATASIZE PUSH1 0x3 NOT ADD SLT PUSH2 0x1B2 JUMPI PUSH2 0x13D PUSH2 0x2240 JUMP JUMPDEST PUSH2 0x145 PUSH2 0x24B9 JUMP JUMPDEST PUSH1 0x1 PUSH1 0x1 PUSH1 0xA0 SHL SUB SWAP1 DUP2 AND SWAP1 DUP2 ISZERO PUSH2 0x199 JUMPI PUSH1 0x0 SLOAD DUP3 PUSH12 0xFFFFFFFFFFFFFFFFFFFFFFFF PUSH1 0xA0 SHL DUP3 AND OR PUSH1 0x0 SSTORE AND PUSH32 0x8BE0079C531659141344CD1FD0A4F28419497F9722A3DAAFE3B4186F6B6457E0 PUSH1 0x0 DUP1 LOG3 STOP JUMPDEST PUSH1 0x40 MLOAD PUSH4 0x1E4FBDF7 PUSH1 0xE0 SHL DUP2 MSTORE PUSH1 0x0 PUSH1 0x4 DUP3 ADD MSTORE PUSH1 0x24 SWAP1 REVERT JUMPDEST PUSH1 0x0 DUP1 REVERT JUMPDEST CALLVALUE PUSH2 0x1B2 JUMPI PUSH1 0x20 CALLDATASIZE PUSH1 0x3 NOT ADD SLT PUSH2 0x1B2 JUMPI PUSH2 0x1D0 PUSH2 0x232F JUMP JUMPDEST POP PUSH1 0x4 CALLDATALOAD PUSH1 0x0 MSTORE PUSH1 0x2 PUSH1 0x20 MSTORE PUSH2 0x280 PUSH1 0x40 PUSH1 0x0 KECCAK256 PUSH2 0x266 PUSH1 0x7 PUSH1 0x40 MLOAD SWAP3 PUSH2 0x1F6 DUP5 PUSH2 0x20D2 JUMP JUMPDEST DUP1 SLOAD DUP5 MSTORE PUSH1 0x1 DUP2 ADD SLOAD PUSH1 0x20 DUP6 ADD MSTORE PUSH1 0x2 DUP2 ADD SLOAD PUSH1 0xFF DUP2 AND PUSH2 0x216 DUP2 PUSH2 0x1E7B JUMP JUMPDEST PUSH1 0x40 DUP7 ADD MSTORE PUSH1 0x8 SHR PUSH1 0x1 PUSH1 0x1 PUSH1 0xA0 SHL SUB AND PUSH1 0x60 DUP6 ADD MSTORE PUSH1 0x3 DUP2 ADD SLOAD PUSH1 0x80 DUP6 ADD MSTORE PUSH1 0x4 DUP2 ADD SLOAD PUSH1 0xA0 DUP6 ADD MSTORE PUSH2 0x24C PUSH1 0x5 DUP3 ADD PUSH2 0x2145 JUMP JUMPDEST PUSH1 0xC0 DUP6 ADD MSTORE PUSH1 0xFF PUSH1 0x6 DUP3 ADD SLOAD AND ISZERO ISZERO PUSH1 0xE0 DUP6 ADD MSTORE ADD PUSH2 0x2145 JUMP JUMPDEST PUSH2 0x100 DUP3 ADD MSTORE PUSH1 0x40 MLOAD SWAP2 DUP3 SWAP2 PUSH1 0x20 DUP4 MSTORE PUSH1 0x20 DUP4 ADD SWAP1 PUSH2 0x1FF6 JUMP JUMPDEST SUB SWAP1 RETURN JUMPDEST CALLVALUE PUSH2 0x1B2 JUMPI PUSH2 0x292 CALLDATASIZE PUSH2 0x1FB2 JUMP JUMPDEST SWAP1 PUSH1 0x0 MSTORE PUSH1 0x5 PUSH1 0x20 MSTORE PUSH1 0x40 PUSH1 0x0 KECCAK256 DUP1 SLOAD DUP3 LT ISZERO PUSH2 0x1B2 JUMPI PUSH1 0x20 SWAP2 PUSH2 0x2B5 SWAP2 PUSH2 0x1FC8 JUMP JUMPDEST SWAP1 SLOAD PUSH1 0x40 MLOAD SWAP2 PUSH1 0x3 SHL SHR DUP2 MSTORE RETURN JUMPDEST CALLVALUE PUSH2 0x1B2 JUMPI PUSH1 0x20 CALLDATASIZE PUSH1 0x3 NOT ADD SLT PUSH2 0x1B2 JUMPI PUSH1 0x1 PUSH1 0x1 PUSH1 0xA0 SHL SUB PUSH2 0x2E4 PUSH2 0x2240 JUMP JUMPDEST AND PUSH1 0x0 MSTORE PUSH1 0x4 PUSH1 0x20 MSTORE PUSH2 0x280 PUSH2 0x2FD PUSH1 0x40 PUSH1 0x0 KECCAK256 PUSH2 0x2468 JUMP JUMPDEST PUSH1 0x40 MLOAD SWAP2 DUP3 SWAP2 PUSH1 0x20 DUP4 MSTORE PUSH1 0x20 DUP4 ADD SWAP1 PUSH2 0x2256 JUMP JUMPDEST CALLVALUE PUSH2 0x1B2 JUMPI PUSH1 0x20 CALLDATASIZE PUSH1 0x3 NOT ADD SLT PUSH2 0x1B2 JUMPI PUSH2 0x32A PUSH2 0x22A1 JUMP JUMPDEST POP PUSH1 0x4 CALLDATALOAD PUSH1 0x0 MSTORE PUSH1 0x1 PUSH1 0x20 MSTORE PUSH2 0x280 PUSH1 0x40 PUSH1 0x0 KECCAK256 PUSH2 0x419 PUSH1 0xC PUSH1 0x40 MLOAD SWAP3 PUSH2 0x350 DUP5 PUSH2 0x20B6 JUMP JUMPDEST DUP1 SLOAD DUP5 MSTORE PUSH1 0x1 DUP2 ADD SLOAD PUSH1 0x20 DUP6 ADD MSTORE PUSH1 0x2 DUP2 ADD SLOAD PUSH2 0x373 PUSH1 0xFF DUP3 AND PUSH1 0x40 DUP8 ADD PUSH2 0x2323 JUMP JUMPDEST PUSH1 0xFF DUP2 PUSH1 0x8 SHR AND PUSH2 0x383 DUP2 PUSH2 0x1E7B JUMP JUMPDEST PUSH1 0x60 DUP7 ADD MSTORE PUSH1 0x10 SHR PUSH1 0x1 PUSH1 0x1 PUSH1 0xA0 SHL SUB AND PUSH1 0x80 DUP6 ADD MSTORE PUSH2 0x3A5 PUSH1 0x3 DUP3 ADD PUSH2 0x2145 JUMP JUMPDEST PUSH1 0xA0 DUP6 ADD MSTORE PUSH1 0x4 DUP2 ADD SLOAD PUSH1 0xC0 DUP6 ADD MSTORE PUSH1 0x5 DUP2 ADD SLOAD PUSH1 0xE0 DUP6 ADD MSTORE PUSH1 0x6 DUP2 ADD SLOAD PUSH2 0x100 DUP6 ADD MSTORE PUSH1 0xFF PUSH1 0x7 DUP3 ADD SLOAD AND ISZERO ISZERO PUSH2 0x120 DUP6 ADD MSTORE PUSH2 0x3E5 PUSH1 0x8 DUP3 ADD PUSH2 0x2145 JUMP JUMPDEST PUSH2 0x140 DUP6 ADD MSTORE PUSH2 0x3F7 PUSH1 0x9 DUP3 ADD PUSH2 0x2145 JUMP JUMPDEST PUSH2 0x160 DUP6 ADD MSTORE PUSH1 0xA DUP2 ADD SLOAD PUSH2 0x180 DUP6 ADD MSTORE PUSH1 0xB DUP2 ADD SLOAD PUSH2 0x1A0 DUP6 ADD MSTORE ADD PUSH2 0x2145 JUMP JUMPDEST PUSH2 0x1C0 DUP3 ADD MSTORE PUSH1 0x40 MLOAD SWAP2 DUP3 SWAP2 PUSH1 0x20 DUP4 MSTORE PUSH1 0x20 DUP4 ADD SWAP1 PUSH2 0x1EC5 JUMP JUMPDEST CALLVALUE PUSH2 0x1B2 JUMPI PUSH1 0x20 DUP1 PUSH1 0x3 NOT CALLDATASIZE ADD SLT PUSH2 0x1B2 JUMPI PUSH1 0x0 PUSH1 0xC0 PUSH1 0x40 MLOAD PUSH2 0x455 DUP2 PUSH2 0x20EE JUMP JUMPDEST DUP3 DUP2 MSTORE PUSH1 0x60 DUP5 DUP3 ADD MSTORE DUP3 PUSH1 0x40 DUP3 ADD MSTORE DUP3 PUSH1 0x60 DUP3 ADD MSTORE DUP3 PUSH1 0x80 DUP3 ADD MSTORE DUP3 PUSH1 0xA0 DUP3 ADD MSTORE ADD MSTORE PUSH1 0x4 CALLDATALOAD PUSH1 0x0 MSTORE PUSH1 0x3 DUP2 MSTORE PUSH1 0x40 PUSH1 0x0 KECCAK256 PUSH1 0x40 MLOAD SWAP1 PUSH2 0x494 DUP3 PUSH2 0x20EE JUMP JUMPDEST DUP1 SLOAD DUP3 MSTORE PUSH2 0x4A4 PUSH1 0x1 DUP3 ADD PUSH2 0x2468 JUMP JUMPDEST DUP3 DUP5 ADD SWAP1 DUP2 MSTORE PUSH1 0x2 DUP3 ADD SLOAD PUSH1 0x40 DUP5 ADD SWAP3 SWAP1 PUSH1 0xFF DUP2 AND PUSH2 0x4C2 DUP2 PUSH2 0x1E7B JUMP JUMPDEST DUP5 MSTORE PUSH1 0x60 DUP6 ADD PUSH1 0xFF DUP3 PUSH1 0x8 SHR AND ISZERO ISZERO DUP2 MSTORE PUSH1 0xFF PUSH1 0x80 DUP8 ADD SWAP3 PUSH1 0x10 SHR AND ISZERO ISZERO DUP3 MSTORE PUSH2 0x51F PUSH1 0x4 PUSH1 0x3 DUP6 ADD SLOAD SWAP5 PUSH1 0xA0 DUP10 ADD SWAP6 DUP7 MSTORE ADD SLOAD SWAP5 PUSH1 0xC0 DUP9 ADD SWAP6 DUP7 MSTORE PUSH1 0x40 MLOAD SWAP9 DUP10 SWAP9 DUP2 DUP11 MSTORE MLOAD SWAP1 DUP10 ADD MSTORE MLOAD PUSH1 0xE0 PUSH1 0x40 DUP10 ADD MSTORE PUSH2 0x100 DUP9 ADD SWAP1 PUSH2 0x2256 JUMP JUMPDEST SWAP5 MLOAD PUSH2 0x52A DUP2 PUSH2 0x1E7B JUMP JUMPDEST PUSH1 0x60 DUP8 ADD MSTORE MLOAD ISZERO ISZERO PUSH1 0x80 DUP7 ADD MSTORE MLOAD ISZERO ISZERO PUSH1 0xA0 DUP6 ADD MSTORE MLOAD PUSH1 0xC0 DUP5 ADD MSTORE MLOAD PUSH1 0xE0 DUP4 ADD MSTORE SUB SWAP1 RETURN JUMPDEST CALLVALUE PUSH2 0x1B2 JUMPI PUSH1 0x40 CALLDATASIZE PUSH1 0x3 NOT ADD SLT PUSH2 0x1B2 JUMPI PUSH2 0x568 PUSH2 0x2240 JUMP JUMPDEST PUSH1 0x1 PUSH1 0x1 PUSH1 0xA0 SHL SUB AND PUSH1 0x0 SWAP1 DUP2 MSTORE PUSH1 0x4 PUSH1 0x20 MSTORE PUSH1 0x40 SWAP1 KECCAK256 DUP1 SLOAD PUSH1 0x24 CALLDATALOAD SWAP2 SWAP1 DUP3 LT ISZERO PUSH2 0x1B2 JUMPI PUSH1 0x20 SWAP2 PUSH2 0x2B5 SWAP2 PUSH2 0x1FC8 JUMP JUMPDEST CALLVALUE PUSH2 0x1B2 JUMPI PUSH1 0x20 CALLDATASIZE PUSH1 0x3 NOT ADD SLT PUSH2 0x1B2 JUMPI PUSH1 0x4 CALLDATALOAD PUSH1 0x0 MSTORE PUSH1 0x3 PUSH1 0x20 MSTORE PUSH1 0x20 PUSH1 0x40 PUSH1 0x0 KECCAK256 PUSH1 0x1 PUSH1 0xFF PUSH1 0x2 DUP4 ADD SLOAD AND PUSH2 0x5CF DUP2 PUSH2 0x1E7B JUMP JUMPDEST LT ISZERO SWAP1 DUP2 PUSH2 0x5E3 JUMPI JUMPDEST POP PUSH1 0x40 MLOAD SWAP1 ISZERO ISZERO DUP2 MSTORE RETURN JUMPDEST PUSH1 0x50 SWAP2 POP PUSH1 0x3 ADD SLOAD LT ISZERO DUP3 PUSH2 0x5D8 JUMP JUMPDEST CALLVALUE PUSH2 0x1B2 JUMPI PUSH1 0xC0 CALLDATASIZE PUSH1 0x3 NOT ADD SLT PUSH2 0x1B2 JUMPI PUSH1 0xA PUSH1 0x24 CALLDATALOAD LT ISZERO PUSH2 0x1B2 JUMPI PUSH1 0x44 CALLDATALOAD PUSH1 0x1 PUSH1 0x1 PUSH1 0x40 SHL SUB DUP2 GT PUSH2 0x1B2 JUMPI PUSH2 0x62E SWAP1 CALLDATASIZE SWAP1 PUSH1 0x4 ADD PUSH2 0x21EA JUMP JUMPDEST PUSH1 0xA4 CALLDATALOAD PUSH1 0x1 PUSH1 0x1 PUSH1 0x40 SHL SUB DUP2 GT PUSH2 0x1B2 JUMPI PUSH2 0x64D SWAP1 CALLDATASIZE SWAP1 PUSH1 0x4 ADD PUSH2 0x21EA JUMP JUMPDEST SWAP1 PUSH2 0x65B PUSH1 0x4 CALLDATALOAD ISZERO ISZERO PUSH2 0x2373 JUMP JUMPDEST PUSH1 0x7 SLOAD SWAP2 PUSH2 0x668 DUP4 PUSH2 0x23B8 JUMP JUMPDEST PUSH1 0x7 SSTORE PUSH1 0x40 MLOAD SWAP2 PUSH2 0x678 DUP4 PUSH2 0x20B6 JUMP JUMPDEST DUP4 DUP4 MSTORE PUSH1 0x4 CALLDATALOAD PUSH1 0x20 DUP5 ADD MSTORE PUSH2 0x692 PUSH1 0x24 CALLDATALOAD PUSH1 0x40 DUP6 ADD PUSH2 0x2323 JUMP JUMPDEST PUSH1 0x0 PUSH1 0x60 DUP5 ADD MSTORE CALLER PUSH1 0x80 DUP5 ADD MSTORE PUSH1 0xA0 DUP4 ADD MSTORE PUSH1 0x0 PUSH1 0xC0 DUP4 ADD MSTORE PUSH1 0x64 CALLDATALOAD PUSH1 0xE0 DUP4 ADD MSTORE PUSH1 0x84 CALLDATALOAD PUSH2 0x100 DUP4 ADD MSTORE PUSH1 0x0 PUSH2 0x120 DUP4 ADD MSTORE PUSH2 0x140 DUP3 ADD MSTORE PUSH1 0x40 MLOAD PUSH2 0x6D6 DUP2 PUSH2 0x2109 JUMP JUMPDEST PUSH1 0x0 DUP2 MSTORE PUSH2 0x160 DUP3 ADD MSTORE PUSH1 0x0 PUSH2 0x180 DUP3 ADD MSTORE PUSH1 0x0 PUSH2 0x1A0 DUP3 ADD MSTORE PUSH1 0x40 MLOAD PUSH2 0x6FC DUP2 PUSH2 0x2109 JUMP JUMPDEST PUSH1 0x0 DUP2 MSTORE PUSH2 0x1C0 DUP3 ADD MSTORE DUP2 PUSH1 0x0 MSTORE PUSH1 0x1 PUSH1 0x20 MSTORE PUSH1 0x40 PUSH1 0x0 KECCAK256 SWAP1 DUP1 MLOAD DUP3 SSTORE PUSH1 0x20 DUP2 ADD MLOAD PUSH1 0x1 DUP4 ADD SSTORE PUSH1 0x40 DUP2 ADD MLOAD PUSH1 0xA DUP2 LT ISZERO PUSH2 0xE3C JUMPI PUSH1 0xFF DUP1 NOT PUSH1 0x2 DUP6 ADD SLOAD AND SWAP2 AND OR PUSH1 0x2 DUP4 ADD SSTORE PUSH2 0x75D PUSH1 0x60 DUP3 ADD MLOAD PUSH2 0x754 DUP2 PUSH2 0x1E7B JUMP JUMPDEST PUSH1 0x2 DUP5 ADD PUSH2 0x2449 JUMP JUMPDEST PUSH1 0x80 DUP2 ADD MLOAD PUSH1 0x2 DUP4 ADD DUP1 SLOAD PUSH3 0x10000 PUSH1 0x1 PUSH1 0xB0 SHL SUB NOT AND PUSH1 0x10 SWAP3 SWAP1 SWAP3 SHL PUSH3 0x10000 PUSH1 0x1 PUSH1 0xB0 SHL SUB AND SWAP2 SWAP1 SWAP2 OR SWAP1 SSTORE PUSH1 0xA0 DUP2 ADD MLOAD DUP1 MLOAD SWAP1 SWAP4 SWAP1 PUSH1 0x1 PUSH1 0x1 PUSH1 0x40 SHL SUB DUP2 GT PUSH2 0xB59 JUMPI PUSH2 0x7B0 PUSH1 0x3 DUP6 ADD SLOAD PUSH2 0x207C JUMP JUMPDEST PUSH1 0x1F DUP2 GT PUSH2 0xE07 JUMPI JUMPDEST POP PUSH1 0x20 PUSH1 0x1F DUP3 GT PUSH1 0x1 EQ PUSH2 0xD98 JUMPI DUP2 SWAP3 SWAP4 SWAP5 SWAP6 PUSH1 0x0 SWAP3 PUSH2 0xD8D JUMPI JUMPDEST POP POP DUP2 PUSH1 0x1 SHL SWAP2 PUSH1 0x0 NOT SWAP1 PUSH1 0x3 SHL SHR NOT AND OR PUSH1 0x3 DUP5 ADD SSTORE JUMPDEST PUSH1 0xC0 DUP3 ADD MLOAD PUSH1 0x4 DUP5 ADD SSTORE PUSH1 0xE0 DUP3 ADD MLOAD PUSH1 0x5 DUP5 ADD SSTORE PUSH2 0x100 DUP3 ADD MLOAD PUSH1 0x6 DUP5 ADD SSTORE PUSH2 0x82B PUSH2 0x120 DUP4 ADD MLOAD ISZERO ISZERO PUSH1 0x7 DUP6 ADD SWAP1 PUSH1 0xFF DUP1 NOT DUP4 SLOAD AND SWAP2 ISZERO ISZERO AND OR SWAP1 SSTORE JUMP JUMPDEST PUSH2 0x140 DUP3 ADD MLOAD SWAP3 DUP4 MLOAD PUSH1 0x1 PUSH1 0x1 PUSH1 0x40 SHL SUB DUP2 GT PUSH2 0xB59 JUMPI PUSH2 0x84F PUSH1 0x8 DUP4 ADD SLOAD PUSH2 0x207C JUMP JUMPDEST PUSH1 0x1F DUP2 GT PUSH2 0xD58 JUMPI JUMPDEST POP PUSH1 0x20 PUSH1 0x1F DUP3 GT PUSH1 0x1 EQ PUSH2 0xCE9 JUMPI DUP2 SWAP3 SWAP4 SWAP5 SWAP6 PUSH1 0x0 SWAP3 PUSH2 0xCDE JUMPI JUMPDEST POP POP DUP2 PUSH1 0x1 SHL SWAP2 PUSH1 0x0 NOT SWAP1 PUSH1 0x3 SHL SHR NOT AND OR PUSH1 0x8 DUP3 ADD SSTORE JUMPDEST PUSH2 0x160 DUP4 ADD MLOAD SWAP3 DUP4 MLOAD PUSH1 0x1 PUSH1 0x1 PUSH1 0x40 SHL SUB DUP2 GT PUSH2 0xB59 JUMPI PUSH2 0x8AF PUSH1 0x9 DUP5 ADD SLOAD PUSH2 0x207C JUMP JUMPDEST PUSH1 0x1F DUP2 GT PUSH2 0xCA9 JUMPI JUMPDEST POP PUSH1 0x20 PUSH1 0x1F DUP3 GT PUSH1 0x1 EQ PUSH2 0xC35 JUMPI DUP2 SWAP1 PUSH2 0x1C0 SWAP5 SWAP6 SWAP7 PUSH1 0x0 SWAP3 PUSH2 0xC2A JUMPI JUMPDEST POP POP DUP2 PUSH1 0x1 SHL SWAP2 PUSH1 0x0 NOT SWAP1 PUSH1 0x3 SHL SHR NOT AND OR PUSH1 0x9 DUP5 ADD SSTORE JUMPDEST PUSH2 0x180 DUP2 ADD MLOAD PUSH1 0xA DUP5 ADD SSTORE PUSH2 0x1A0 DUP2 ADD MLOAD PUSH1 0xB DUP5 ADD SSTORE ADD MLOAD DUP1 MLOAD SWAP1 PUSH1 0x1 PUSH1 0x1 PUSH1 0x40 SHL SUB DUP3 GT PUSH2 0xB59 JUMPI PUSH2 0x924 PUSH1 0xC DUP5 ADD SLOAD PUSH2 0x207C JUMP JUMPDEST PUSH1 0x1F DUP2 GT PUSH2 0xBEA JUMPI JUMPDEST POP PUSH1 0x20 SWAP1 PUSH1 0x1F DUP4 GT PUSH1 0x1 EQ PUSH2 0xB7A JUMPI PUSH1 0xC SWAP3 SWAP2 PUSH1 0x0 SWAP2 DUP4 PUSH2 0xB6F JUMPI JUMPDEST POP POP DUP2 PUSH1 0x1 SHL SWAP2 PUSH1 0x0 NOT SWAP1 PUSH1 0x3 SHL SHR NOT AND OR SWAP2 ADD SSTORE JUMPDEST CALLER PUSH1 0x0 MSTORE PUSH1 0x4 PUSH1 0x20 MSTORE PUSH2 0x976 DUP2 PUSH1 0x40 PUSH1 0x0 KECCAK256 PUSH2 0x23F6 JUMP JUMPDEST PUSH1 0x4 CALLDATALOAD PUSH1 0x0 MSTORE PUSH1 0x5 PUSH1 0x20 MSTORE PUSH2 0x98F DUP2 PUSH1 0x40 PUSH1 0x0 KECCAK256 PUSH2 0x23F6 JUMP JUMPDEST PUSH1 0x4 CALLDATALOAD PUSH1 0x0 MSTORE PUSH1 0x3 PUSH1 0x20 MSTORE PUSH1 0x4 PUSH1 0x40 PUSH1 0x0 KECCAK256 ADD SLOAD ISZERO PUSH2 0xA12 JUMPI JUMPDEST PUSH1 0x20 SWAP1 PUSH1 0x4 CALLDATALOAD PUSH1 0x0 MSTORE PUSH1 0x3 DUP3 MSTORE PUSH2 0x9C7 DUP2 PUSH1 0x1 PUSH1 0x40 PUSH1 0x0 KECCAK256 ADD PUSH2 0x23F6 JUMP JUMPDEST PUSH1 0x40 MLOAD PUSH2 0x9D6 DUP2 PUSH1 0x24 CALLDATALOAD PUSH2 0x1E6E JUMP JUMPDEST CALLER DUP4 DUP3 ADD MSTORE TIMESTAMP PUSH1 0x40 DUP3 ADD MSTORE DUP2 PUSH32 0x4B757CBE560806021F41591FE09B6EC6DD734915D7C49B5CB0153C221E71D053 PUSH1 0x60 PUSH1 0x4 CALLDATALOAD SWAP4 LOG3 PUSH1 0x40 MLOAD SWAP1 DUP2 MSTORE RETURN JUMPDEST PUSH1 0x40 MLOAD SWAP1 PUSH2 0xA1F DUP3 PUSH2 0x2109 JUMP JUMPDEST PUSH1 0x0 DUP3 MSTORE PUSH1 0x40 MLOAD SWAP2 PUSH2 0xA30 DUP4 PUSH2 0x20EE JUMP JUMPDEST PUSH1 0x4 CALLDATALOAD DUP4 MSTORE PUSH1 0x20 DUP4 ADD SWAP1 DUP2 MSTORE PUSH1 0x0 PUSH1 0x40 DUP5 ADD MSTORE PUSH1 0x0 PUSH1 0x60 DUP5 ADD MSTORE PUSH1 0x0 PUSH1 0x80 DUP5 ADD MSTORE PUSH1 0x0 PUSH1 0xA0 DUP5 ADD MSTORE TIMESTAMP PUSH1 0xC0 DUP5 ADD MSTORE PUSH1 0x4 CALLDATALOAD PUSH1 0x0 MSTORE PUSH1 0x3 PUSH1 0x20 MSTORE PUSH1 0x40 PUSH1 0x0 KECCAK256 SWAP1 DUP4 MLOAD DUP3 SSTORE MLOAD DUP1 MLOAD SWAP1 PUSH1 0x1 PUSH1 0x1 PUSH1 0x40 SHL SUB DUP3 GT PUSH2 0xB59 JUMPI PUSH1 0x1 PUSH1 0x40 SHL DUP3 GT PUSH2 0xB59 JUMPI PUSH1 0x20 SWAP1 PUSH1 0x1 DUP5 ADD SLOAD DUP4 PUSH1 0x1 DUP7 ADD SSTORE DUP1 DUP5 LT PUSH2 0xB39 JUMPI JUMPDEST POP ADD PUSH1 0x1 DUP4 ADD PUSH1 0x0 MSTORE PUSH1 0x20 PUSH1 0x0 KECCAK256 PUSH1 0x0 JUMPDEST DUP4 DUP2 LT PUSH2 0xB25 JUMPI POP POP POP POP PUSH1 0x4 PUSH1 0xC0 PUSH1 0x20 SWAP5 PUSH1 0x2 DUP5 ADD PUSH2 0xAE4 PUSH1 0x40 DUP4 ADD MLOAD PUSH2 0xADE DUP2 PUSH2 0x1E7B JUMP JUMPDEST DUP3 PUSH2 0x23C7 JUMP JUMPDEST PUSH1 0x60 DUP3 ADD MLOAD ISZERO ISZERO DUP2 SLOAD PUSH2 0xFF00 PUSH3 0xFF0000 PUSH1 0x80 DUP7 ADD MLOAD ISZERO ISZERO PUSH1 0x10 SHL AND SWAP3 PUSH1 0x8 SHL AND SWAP1 PUSH3 0xFFFF00 NOT AND OR OR SWAP1 SSTORE PUSH1 0xA0 DUP2 ADD MLOAD PUSH1 0x3 DUP6 ADD SSTORE ADD MLOAD SWAP2 ADD SSTORE SWAP1 POP PUSH2 0x9A9 JUMP JUMPDEST PUSH1 0x1 SWAP1 PUSH1 0x20 DUP5 MLOAD SWAP5 ADD SWAP4 DUP2 DUP5 ADD SSTORE ADD PUSH2 0xAB7 JUMP JUMPDEST PUSH2 0xB53 SWAP1 PUSH1 0x1 DUP7 ADD PUSH1 0x0 MSTORE DUP5 DUP5 PUSH1 0x0 KECCAK256 SWAP2 DUP3 ADD SWAP2 ADD PUSH2 0x23DF JUMP JUMPDEST DUP7 PUSH2 0xAA6 JUMP JUMPDEST PUSH4 0x4E487B71 PUSH1 0xE0 SHL PUSH1 0x0 MSTORE PUSH1 0x41 PUSH1 0x4 MSTORE PUSH1 0x24 PUSH1 0x0 REVERT JUMPDEST ADD MLOAD SWAP1 POP DUP6 DUP1 PUSH2 0x949 JUMP JUMPDEST SWAP1 PUSH1 0xC DUP5 ADD PUSH1 0x0 MSTORE PUSH1 0x20 PUSH1 0x0 KECCAK256 SWAP2 PUSH1 0x0 JUMPDEST PUSH1 0x1F NOT DUP6 AND DUP2 LT PUSH2 0xBD2 JUMPI POP SWAP2 DUP4 SWAP2 PUSH1 0x1 SWAP4 PUSH1 0xC SWAP6 PUSH1 0x1F NOT DUP2 AND LT PUSH2 0xBB9 JUMPI JUMPDEST POP POP POP DUP2 SHL ADD SWAP2 ADD SSTORE PUSH2 0x95F JUMP JUMPDEST ADD MLOAD PUSH1 0x0 NOT PUSH1 0xF8 DUP5 PUSH1 0x3 SHL AND SHR NOT AND SWAP1 SSTORE DUP6 DUP1 DUP1 PUSH2 0xBAB JUMP JUMPDEST SWAP2 SWAP3 PUSH1 0x20 PUSH1 0x1 DUP2 SWAP3 DUP7 DUP6 ADD MLOAD DUP2 SSTORE ADD SWAP5 ADD SWAP3 ADD PUSH2 0xB8B JUMP JUMPDEST PUSH2 0xC1A SWAP1 PUSH1 0xC DUP6 ADD PUSH1 0x0 MSTORE PUSH1 0x20 PUSH1 0x0 KECCAK256 PUSH1 0x1F DUP6 ADD PUSH1 0x5 SHR DUP2 ADD SWAP2 PUSH1 0x20 DUP7 LT PUSH2 0xC20 JUMPI JUMPDEST PUSH1 0x1F ADD PUSH1 0x5 SHR ADD SWAP1 PUSH2 0x23DF JUMP JUMPDEST DUP5 PUSH2 0x92D JUMP JUMPDEST SWAP1 SWAP2 POP DUP2 SWAP1 PUSH2 0xC0D JUMP JUMPDEST ADD MLOAD SWAP1 POP DUP7 DUP1 PUSH2 0x8D6 JUMP JUMPDEST PUSH1 0x9 DUP5 ADD PUSH1 0x0 MSTORE PUSH1 0x20 PUSH1 0x0 KECCAK256 SWAP6 PUSH1 0x0 JUMPDEST PUSH1 0x1F NOT DUP5 AND DUP2 LT PUSH2 0xC91 JUMPI POP SWAP6 DUP3 SWAP2 PUSH2 0x1C0 SWAP6 SWAP7 SWAP8 PUSH1 0x1 SWAP5 PUSH1 0x1F NOT DUP2 AND LT PUSH2 0xC78 JUMPI JUMPDEST POP POP POP DUP2 SHL ADD PUSH1 0x9 DUP5 ADD SSTORE PUSH2 0x8EE JUMP JUMPDEST ADD MLOAD PUSH1 0x0 NOT PUSH1 0xF8 DUP5 PUSH1 0x3 SHL AND SHR NOT AND SWAP1 SSTORE DUP7 DUP1 DUP1 PUSH2 0xC68 JUMP JUMPDEST DUP3 DUP3 ADD MLOAD DUP9 SSTORE PUSH1 0x1 SWAP1 SWAP8 ADD SWAP7 PUSH1 0x20 SWAP3 DUP4 ADD SWAP3 ADD PUSH2 0xC45 JUMP JUMPDEST PUSH2 0xCD8 SWAP1 PUSH1 0x9 DUP6 ADD PUSH1 0x0 MSTORE PUSH1 0x20 PUSH1 0x0 KECCAK256 PUSH1 0x1F DUP5 ADD PUSH1 0x5 SHR DUP2 ADD SWAP2 PUSH1 0x20 DUP6 LT PUSH2 0xC20 JUMPI PUSH1 0x1F ADD PUSH1 0x5 SHR ADD SWAP1 PUSH2 0x23DF JUMP JUMPDEST DUP6 PUSH2 0x8B8 JUMP JUMPDEST ADD MLOAD SWAP1 POP DUP6 DUP1 PUSH2 0x873 JUMP JUMPDEST PUSH1 0x8 DUP4 ADD PUSH1 0x0 MSTORE PUSH1 0x20 PUSH1 0x0 KECCAK256 SWAP1 PUSH1 0x0 JUMPDEST PUSH1 0x1F NOT DUP5 AND DUP2 LT PUSH2 0xD40 JUMPI POP PUSH1 0x1 SWAP4 SWAP5 SWAP6 SWAP7 DUP4 PUSH1 0x1F NOT DUP2 AND LT PUSH2 0xD27 JUMPI JUMPDEST POP POP POP DUP2 SHL ADD PUSH1 0x8 DUP3 ADD SSTORE PUSH2 0x88B JUMP JUMPDEST ADD MLOAD PUSH1 0x0 NOT PUSH1 0xF8 DUP5 PUSH1 0x3 SHL AND SHR NOT AND SWAP1 SSTORE DUP6 DUP1 DUP1 PUSH2 0xD17 JUMP JUMPDEST SWAP1 SWAP2 PUSH1 0x20 PUSH1 0x1 DUP2 SWAP3 DUP6 DUP12 ADD MLOAD DUP2 SSTORE ADD SWAP4 ADD SWAP2 ADD PUSH2 0xCF9 JUMP JUMPDEST PUSH2 0xD87 SWAP1 PUSH1 0x8 DUP5 ADD PUSH1 0x0 MSTORE PUSH1 0x20 PUSH1 0x0 KECCAK256 PUSH1 0x1F DUP5 ADD PUSH1 0x5 SHR DUP2 ADD SWAP2 PUSH1 0x20 DUP6 LT PUSH2 0xC20 JUMPI PUSH1 0x1F ADD PUSH1 0x5 SHR ADD SWAP1 PUSH2 0x23DF JUMP JUMPDEST DUP6 PUSH2 0x858 JUMP JUMPDEST ADD MLOAD SWAP1 POP DUP6 DUP1 PUSH2 0x7D4 JUMP JUMPDEST PUSH1 0x3 DUP6 ADD PUSH1 0x0 MSTORE PUSH1 0x20 PUSH1 0x0 KECCAK256 SWAP1 PUSH1 0x0 JUMPDEST PUSH1 0x1F NOT DUP5 AND DUP2 LT PUSH2 0xDEF JUMPI POP PUSH1 0x1 SWAP4 SWAP5 SWAP6 SWAP7 DUP4 PUSH1 0x1F NOT DUP2 AND LT PUSH2 0xDD6 JUMPI JUMPDEST POP POP POP DUP2 SHL ADD PUSH1 0x3 DUP5 ADD SSTORE PUSH2 0x7EC JUMP JUMPDEST ADD MLOAD PUSH1 0x0 NOT PUSH1 0xF8 DUP5 PUSH1 0x3 SHL AND SHR NOT AND SWAP1 SSTORE DUP6 DUP1 DUP1 PUSH2 0xDC6 JUMP JUMPDEST SWAP1 SWAP2 PUSH1 0x20 PUSH1 0x1 DUP2 SWAP3 DUP6 DUP12 ADD MLOAD DUP2 SSTORE ADD SWAP4 ADD SWAP2 ADD PUSH2 0xDA8 JUMP JUMPDEST PUSH2 0xE36 SWAP1 PUSH1 0x3 DUP7 ADD PUSH1 0x0 MSTORE PUSH1 0x20 PUSH1 0x0 KECCAK256 PUSH1 0x1F DUP5 ADD PUSH1 0x5 SHR DUP2 ADD SWAP2 PUSH1 0x20 DUP6 LT PUSH2 0xC20 JUMPI PUSH1 0x1F ADD PUSH1 0x5 SHR ADD SWAP1 PUSH2 0x23DF JUMP JUMPDEST DUP6 PUSH2 0x7B9 JUMP JUMPDEST PUSH4 0x4E487B71 PUSH1 0xE0 SHL PUSH1 0x0 MSTORE PUSH1 0x21 PUSH1 0x4 MSTORE PUSH1 0x24 PUSH1 0x0 REVERT JUMPDEST CALLVALUE PUSH2 0x1B2 JUMPI PUSH1 0x0 CALLDATASIZE PUSH1 0x3 NOT ADD SLT PUSH2 0x1B2 JUMPI PUSH1 0x0 SLOAD PUSH1 0x40 MLOAD PUSH1 0x1 PUSH1 0x1 PUSH1 0xA0 SHL SUB SWAP1 SWAP2 AND DUP2 MSTORE PUSH1 0x20 SWAP1 RETURN JUMPDEST CALLVALUE PUSH2 0x1B2 JUMPI PUSH1 0x80 CALLDATASIZE PUSH1 0x3 NOT ADD SLT PUSH2 0x1B2 JUMPI PUSH1 0x24 CALLDATALOAD PUSH1 0x4 CALLDATALOAD PUSH1 0x1 PUSH1 0x1 PUSH1 0x40 SHL SUB PUSH1 0x44 CALLDATALOAD DUP2 DUP2 GT PUSH2 0x1B2 JUMPI PUSH2 0xEB2 SWAP1 CALLDATASIZE SWAP1 PUSH1 0x4 ADD PUSH2 0x21EA JUMP JUMPDEST SWAP3 PUSH1 0x64 CALLDATALOAD DUP3 DUP2 GT PUSH2 0x1B2 JUMPI PUSH2 0xECB SWAP1 CALLDATASIZE SWAP1 PUSH1 0x4 ADD PUSH2 0x21EA JUMP JUMPDEST SWAP2 DUP4 PUSH1 0x0 MSTORE PUSH1 0x1 SWAP1 PUSH1 0x20 SWAP4 DUP3 DUP6 MSTORE PUSH1 0x40 PUSH1 0x0 KECCAK256 SWAP2 PUSH1 0x2 DUP4 ADD SWAP8 DUP9 SLOAD CALLER PUSH1 0x1 DUP1 PUSH1 0xA0 SHL SUB DUP3 PUSH1 0x10 SHR AND SUB PUSH2 0x11E3 JUMPI PUSH1 0x8 SHR PUSH1 0xFF AND PUSH2 0xF07 DUP2 PUSH2 0x1E7B JUMP JUMPDEST PUSH2 0x11AB JUMPI DUP6 PUSH1 0x4 DUP6 ADD SSTORE PUSH1 0x9 DUP5 ADD DUP2 MLOAD DUP4 DUP2 GT PUSH2 0xB59 JUMPI DUP1 PUSH2 0xF29 DUP4 SLOAD PUSH2 0x207C JUMP JUMPDEST SWAP4 PUSH1 0x1F SWAP5 DUP12 DUP7 DUP3 GT PUSH2 0x117C JUMPI JUMPDEST POP POP DUP11 SWAP1 DUP6 DUP4 GT PUSH1 0x1 EQ PUSH2 0x1119 JUMPI PUSH1 0x0 SWAP3 PUSH2 0x110E JUMPI JUMPDEST POP POP PUSH1 0x0 NOT PUSH1 0x3 DUP4 SWAP1 SHL SHR NOT AND SWAP1 DUP8 SHL OR SWAP1 SSTORE JUMPDEST PUSH1 0xC DUP5 ADD SWAP3 DUP1 MLOAD SWAP3 DUP4 GT PUSH2 0xB59 JUMPI PUSH2 0xF78 DUP5 SLOAD PUSH2 0x207C JUMP JUMPDEST DUP3 DUP2 GT PUSH2 0x10D6 JUMPI JUMPDEST POP DUP8 SWAP2 DUP4 GT PUSH1 0x1 EQ PUSH2 0x1066 JUMPI SWAP2 DUP1 PUSH2 0x1042 SWAP11 SWAP9 SWAP7 SWAP5 SWAP3 PUSH1 0xFF SWAP11 SWAP9 SWAP7 SWAP5 PUSH1 0x0 SWAP3 PUSH2 0x105B JUMPI JUMPDEST POP POP PUSH1 0x0 NOT PUSH1 0x3 DUP4 SWAP1 SHL SHR NOT AND SWAP1 DUP5 SHL OR SWAP1 SSTORE JUMPDEST TIMESTAMP PUSH1 0xA DUP3 ADD SSTORE PUSH1 0x5 DUP2 ADD SLOAD DUP4 LT ISZERO SWAP6 DUP7 PUSH2 0x104C JUMPI JUMPDEST SWAP2 DUP2 PUSH2 0x1023 PUSH32 0xB819A470B5C4B3919CF8B3E8432C172902F5DAFBA632DE8F6CA8FEF5E06FB4A3 SWAP7 SWAP5 PUSH2 0x1012 PUSH1 0x7 PUSH1 0x60 SWAP9 SWAP7 ADD SWAP11 DUP12 SWAP1 PUSH1 0xFF DUP1 NOT DUP4 SLOAD AND SWAP2 ISZERO ISZERO AND OR SWAP1 SSTORE JUMP JUMPDEST DUP10 SLOAD DUP12 AND ISZERO PUSH2 0x1044 JUMPI PUSH1 0x2 SWAP1 PUSH2 0x2449 JUMP JUMPDEST ADD SLOAD SWAP7 DUP8 SWAP7 SLOAD AND SWAP2 PUSH1 0x40 MLOAD SWAP3 ISZERO ISZERO DUP4 MSTORE DUP3 ADD MSTORE TIMESTAMP PUSH1 0x40 DUP3 ADD MSTORE LOG3 PUSH2 0x24E5 JUMP JUMPDEST STOP JUMPDEST PUSH1 0x3 SWAP1 PUSH2 0x2449 JUMP JUMPDEST PUSH1 0x6 DUP3 ADD SLOAD DUP5 GT ISZERO SWAP7 POP PUSH2 0xFCD JUMP JUMPDEST ADD MLOAD SWAP1 POP DUP12 DUP1 PUSH2 0xFA4 JUMP JUMPDEST SWAP1 PUSH1 0x1F NOT DUP4 AND SWAP2 DUP5 PUSH1 0x0 MSTORE DUP9 PUSH1 0x0 KECCAK256 SWAP3 PUSH1 0x0 JUMPDEST DUP2 DUP2 LT PUSH2 0x10C1 JUMPI POP SWAP3 DUP8 SWAP6 SWAP4 SWAP3 DUP6 SWAP3 PUSH1 0xFF SWAP13 SWAP11 SWAP9 SWAP7 PUSH2 0x1042 SWAP15 SWAP13 SWAP11 SWAP6 LT PUSH2 0x10A8 JUMPI JUMPDEST POP POP POP DUP2 SHL ADD SWAP1 SSTORE PUSH2 0xFB8 JUMP JUMPDEST ADD MLOAD PUSH1 0x0 NOT PUSH1 0xF8 DUP5 PUSH1 0x3 SHL AND SHR NOT AND SWAP1 SSTORE DUP12 DUP1 DUP1 PUSH2 0x109B JUMP JUMPDEST DUP3 DUP5 ADD MLOAD DUP6 SSTORE SWAP4 DUP9 ADD SWAP4 SWAP3 DUP11 ADD SWAP3 DUP11 ADD PUSH2 0x1079 JUMP JUMPDEST PUSH2 0x10FF SWAP1 DUP6 PUSH1 0x0 MSTORE DUP10 PUSH1 0x0 KECCAK256 DUP5 DUP1 DUP8 ADD PUSH1 0x5 SHR DUP3 ADD SWAP3 DUP13 DUP9 LT PUSH2 0x1105 JUMPI JUMPDEST ADD PUSH1 0x5 SHR ADD SWAP1 PUSH2 0x23DF JUMP JUMPDEST DUP11 PUSH2 0xF80 JUMP JUMPDEST SWAP3 POP DUP2 SWAP3 PUSH2 0x10F4 JUMP JUMPDEST ADD MLOAD SWAP1 POP DUP13 DUP1 PUSH2 0xF4C JUMP JUMPDEST PUSH1 0x0 DUP6 DUP2 MSTORE DUP13 DUP2 KECCAK256 DUP12 SWAP6 POP SWAP3 SWAP2 SWAP1 PUSH1 0x1F NOT DUP6 AND SWAP1 DUP15 JUMPDEST DUP3 DUP3 LT PUSH2 0x1165 JUMPI POP POP DUP5 GT PUSH2 0x114C JUMPI JUMPDEST POP POP POP DUP2 SHL ADD SWAP1 SSTORE PUSH2 0xF60 JUMP JUMPDEST ADD MLOAD PUSH1 0x0 NOT PUSH1 0xF8 DUP5 PUSH1 0x3 SHL AND SHR NOT AND SWAP1 SSTORE DUP13 DUP1 DUP1 PUSH2 0x113F JUMP JUMPDEST DUP4 DUP6 ADD MLOAD DUP7 SSTORE DUP14 SWAP8 SWAP1 SWAP6 ADD SWAP5 SWAP4 DUP5 ADD SWAP4 ADD DUP15 PUSH2 0x112F JUMP JUMPDEST PUSH2 0x11A4 SWAP2 DUP7 PUSH1 0x0 MSTORE DUP8 DUP3 PUSH1 0x0 KECCAK256 SWAP2 DUP2 DUP8 ADD PUSH1 0x5 SHR DUP4 ADD SWAP4 DUP8 LT PUSH2 0x1105 JUMPI ADD PUSH1 0x5 SHR ADD SWAP1 PUSH2 0x23DF JUMP JUMPDEST DUP14 DUP12 PUSH2 0xF36 JUMP JUMPDEST PUSH1 0x40 MLOAD PUSH3 0x461BCD PUSH1 0xE5 SHL DUP2 MSTORE PUSH1 0x4 DUP2 ADD DUP9 SWAP1 MSTORE PUSH1 0x10 PUSH1 0x24 DUP3 ADD MSTORE PUSH16 0x54657374206E6F742070656E64696E67 PUSH1 0x80 SHL PUSH1 0x44 DUP3 ADD MSTORE PUSH1 0x64 SWAP1 REVERT JUMPDEST PUSH1 0x40 MLOAD PUSH3 0x461BCD PUSH1 0xE5 SHL DUP2 MSTORE PUSH1 0x4 DUP2 ADD DUP10 SWAP1 MSTORE PUSH1 0x14 PUSH1 0x24 DUP3 ADD MSTORE PUSH20 0x2737BA103A34329030B9B9B4B3B732B2103630B1 PUSH1 0x61 SHL PUSH1 0x44 DUP3 ADD MSTORE PUSH1 0x64 SWAP1 REVERT JUMPDEST CALLVALUE PUSH2 0x1B2 JUMPI PUSH1 0xA0 CALLDATASIZE PUSH1 0x3 NOT ADD SLT PUSH2 0x1B2 JUMPI PUSH1 0x5 PUSH1 0x24 CALLDATALOAD LT ISZERO PUSH2 0x1B2 JUMPI PUSH1 0x44 CALLDATALOAD PUSH1 0x64 CALLDATALOAD PUSH1 0x1 PUSH1 0x1 PUSH1 0x40 SHL SUB DUP2 GT PUSH2 0x1B2 JUMPI PUSH2 0x125D SWAP1 CALLDATASIZE SWAP1 PUSH1 0x4 ADD PUSH2 0x21EA JUMP JUMPDEST PUSH1 0x84 CALLDATALOAD PUSH1 0x1 PUSH1 0x1 PUSH1 0x40 SHL SUB DUP2 GT PUSH2 0x1B2 JUMPI PUSH2 0x127C SWAP1 CALLDATASIZE SWAP1 PUSH1 0x4 ADD PUSH2 0x21EA JUMP JUMPDEST SWAP1 PUSH2 0x1285 PUSH2 0x24B9 JUMP JUMPDEST PUSH2 0x1292 PUSH1 0x4 CALLDATALOAD ISZERO ISZERO PUSH2 0x2373 JUMP JUMPDEST PUSH1 0x8 SLOAD SWAP1 PUSH2 0x129F DUP3 PUSH2 0x23B8 JUMP JUMPDEST PUSH1 0x8 SSTORE PUSH3 0x15180 SWAP4 DUP5 DUP2 MUL SWAP5 DUP2 DUP7 DIV EQ SWAP1 ISZERO OR ISZERO PUSH2 0x16BD JUMPI DUP4 TIMESTAMP ADD TIMESTAMP GT PUSH2 0x16BD JUMPI PUSH1 0x40 MLOAD SWAP4 PUSH2 0x12CD DUP6 PUSH2 0x20D2 JUMP JUMPDEST DUP3 DUP6 MSTORE PUSH1 0x4 CALLDATALOAD PUSH1 0x20 DUP7 ADD MSTORE PUSH1 0x40 DUP6 ADD SWAP4 PUSH2 0x12E8 PUSH1 0x24 CALLDATALOAD PUSH2 0x1E7B JUMP JUMPDEST PUSH1 0x24 CALLDATALOAD DUP6 MSTORE PUSH1 0x60 DUP7 ADD SWAP5 CALLER DUP7 MSTORE PUSH1 0x80 DUP8 ADD SWAP2 TIMESTAMP DUP4 MSTORE PUSH1 0xA0 DUP9 ADD SWAP4 TIMESTAMP ADD DUP5 MSTORE PUSH1 0xC0 DUP9 ADD SWAP5 DUP6 MSTORE PUSH1 0x0 PUSH1 0xE0 DUP10 ADD MSTORE PUSH2 0x100 DUP9 ADD MSTORE DUP5 PUSH1 0x0 MSTORE PUSH1 0x2 PUSH1 0x20 MSTORE PUSH1 0x40 PUSH1 0x0 KECCAK256 SWAP6 DUP8 MLOAD DUP8 SSTORE PUSH1 0x20 DUP9 ADD MLOAD PUSH1 0x1 DUP9 ADD SSTORE PUSH2 0x134F PUSH1 0x2 DUP9 ADD SWAP3 MLOAD PUSH2 0x1349 DUP2 PUSH2 0x1E7B JUMP JUMPDEST DUP4 PUSH2 0x23C7 JUMP JUMPDEST MLOAD DUP2 SLOAD PUSH2 0x100 PUSH1 0x1 PUSH1 0xA8 SHL SUB NOT AND PUSH1 0x8 SWAP2 SWAP1 SWAP2 SHL PUSH2 0x100 PUSH1 0x1 PUSH1 0xA8 SHL SUB AND OR SWAP1 SSTORE MLOAD PUSH1 0x3 DUP6 ADD SSTORE MLOAD PUSH1 0x4 DUP5 ADD SSTORE MLOAD DUP1 MLOAD SWAP1 SWAP4 SWAP1 PUSH1 0x1 PUSH1 0x1 PUSH1 0x40 SHL SUB DUP2 GT PUSH2 0xB59 JUMPI PUSH2 0x139D PUSH1 0x5 DUP6 ADD SLOAD PUSH2 0x207C JUMP JUMPDEST PUSH1 0x1F DUP2 GT PUSH2 0x1688 JUMPI JUMPDEST POP PUSH1 0x20 PUSH1 0x1F DUP3 GT PUSH1 0x1 EQ PUSH2 0x1614 JUMPI DUP2 SWAP1 PUSH2 0x100 SWAP5 SWAP6 SWAP7 PUSH1 0x0 SWAP3 PUSH2 0x1609 JUMPI JUMPDEST POP POP DUP2 PUSH1 0x1 SHL SWAP2 PUSH1 0x0 NOT SWAP1 PUSH1 0x3 SHL SHR NOT AND OR PUSH1 0x5 DUP6 ADD SSTORE JUMPDEST PUSH2 0x13FB PUSH1 0xE0 DUP3 ADD MLOAD ISZERO ISZERO PUSH1 0x6 DUP7 ADD SWAP1 PUSH1 0xFF DUP1 NOT DUP4 SLOAD AND SWAP2 ISZERO ISZERO AND OR SWAP1 SSTORE JUMP JUMPDEST ADD MLOAD SWAP2 DUP3 MLOAD PUSH1 0x1 PUSH1 0x1 PUSH1 0x40 SHL SUB DUP2 GT PUSH2 0xB59 JUMPI PUSH1 0x20 SWAP4 PUSH2 0x141E PUSH1 0x7 DUP5 ADD SLOAD PUSH2 0x207C JUMP JUMPDEST PUSH1 0x1F DUP2 GT PUSH2 0x15D6 JUMPI JUMPDEST POP DUP5 SWAP1 PUSH1 0x1F DUP4 GT PUSH1 0x1 EQ PUSH2 0x1568 JUMPI PUSH1 0x7 SWAP3 SWAP2 PUSH1 0x0 SWAP2 DUP4 PUSH2 0x155D JUMPI JUMPDEST POP POP DUP2 PUSH1 0x1 SHL SWAP2 PUSH1 0x0 NOT SWAP1 PUSH1 0x3 SHL SHR NOT AND OR SWAP2 ADD SSTORE JUMPDEST PUSH1 0x4 CALLDATALOAD PUSH1 0x0 MSTORE PUSH1 0x6 DUP3 MSTORE PUSH2 0x1470 DUP2 PUSH1 0x40 PUSH1 0x0 KECCAK256 PUSH2 0x23F6 JUMP JUMPDEST PUSH1 0x4 CALLDATALOAD PUSH1 0x0 MSTORE PUSH1 0x3 DUP3 MSTORE PUSH1 0x2 PUSH1 0x40 PUSH1 0x0 KECCAK256 ADD PUSH1 0xFF DUP2 SLOAD AND PUSH2 0x1490 DUP2 PUSH2 0x1E7B JUMP JUMPDEST PUSH2 0x149B PUSH1 0x24 CALLDATALOAD PUSH2 0x1E7B JUMP JUMPDEST PUSH1 0x24 CALLDATALOAD GT PUSH2 0x154C JUMPI JUMPDEST PUSH2 0x14AF PUSH1 0x24 CALLDATALOAD PUSH2 0x1E7B JUMP JUMPDEST PUSH1 0x3 PUSH1 0x24 CALLDATALOAD EQ PUSH2 0x153A JUMPI JUMPDEST PUSH2 0x14C5 PUSH1 0x24 CALLDATALOAD PUSH2 0x1E7B JUMP JUMPDEST PUSH1 0x4 PUSH1 0x24 CALLDATALOAD EQ PUSH2 0x1525 JUMPI JUMPDEST POP DUP1 PUSH1 0x0 MSTORE PUSH1 0x2 DUP3 MSTORE PUSH1 0x4 PUSH1 0x40 PUSH1 0x0 KECCAK256 ADD SLOAD DUP2 PUSH32 0xCA77DAE66F73F5407F50B395115F6D8308E04037678A57AEC3BA34098FD842E0 PUSH1 0x40 MLOAD DUP1 PUSH2 0x151A PUSH1 0x4 CALLDATALOAD SWAP6 TIMESTAMP SWAP1 PUSH1 0x24 CALLDATALOAD DUP5 PUSH2 0x242B JUMP JUMPDEST SUB SWAP1 LOG3 PUSH1 0x40 MLOAD SWAP1 DUP2 MSTORE RETURN JUMPDEST DUP1 SLOAD PUSH3 0xFF0000 NOT AND PUSH3 0x10000 OR SWAP1 SSTORE DUP3 PUSH2 0x14D0 JUMP JUMPDEST DUP1 SLOAD PUSH2 0xFF00 NOT AND PUSH2 0x100 OR DUP2 SSTORE PUSH2 0x14BA JUMP JUMPDEST PUSH2 0x1558 PUSH1 0x24 CALLDATALOAD DUP3 PUSH2 0x23C7 JUMP JUMPDEST PUSH2 0x14A4 JUMP JUMPDEST ADD MLOAD SWAP1 POP DUP7 DUP1 PUSH2 0x1442 JUMP JUMPDEST SWAP1 PUSH1 0x7 DUP5 ADD PUSH1 0x0 MSTORE DUP6 PUSH1 0x0 KECCAK256 SWAP2 PUSH1 0x0 JUMPDEST PUSH1 0x1F NOT DUP6 AND DUP2 LT PUSH2 0x15BF JUMPI POP SWAP2 DUP4 SWAP2 PUSH1 0x1 SWAP4 PUSH1 0x7 SWAP6 PUSH1 0x1F NOT DUP2 AND LT PUSH2 0x15A6 JUMPI JUMPDEST POP POP POP DUP2 SHL ADD SWAP2 ADD SSTORE PUSH2 0x1458 JUMP JUMPDEST ADD MLOAD PUSH1 0x0 NOT PUSH1 0xF8 DUP5 PUSH1 0x3 SHL AND SHR NOT AND SWAP1 SSTORE DUP7 DUP1 DUP1 PUSH2 0x1598 JUMP JUMPDEST SWAP2 SWAP3 DUP8 PUSH1 0x1 DUP2 SWAP3 DUP7 DUP6 ADD MLOAD DUP2 SSTORE ADD SWAP5 ADD SWAP3 ADD PUSH2 0x1578 JUMP JUMPDEST PUSH2 0x1603 SWAP1 PUSH1 0x7 DUP6 ADD PUSH1 0x0 MSTORE DUP7 PUSH1 0x0 KECCAK256 PUSH1 0x1F DUP6 ADD PUSH1 0x5 SHR DUP2 ADD SWAP2 DUP9 DUP7 LT PUSH2 0xC20 JUMPI PUSH1 0x1F ADD PUSH1 0x5 SHR ADD SWAP1 PUSH2 0x23DF JUMP JUMPDEST DUP6 PUSH2 0x1427 JUMP JUMPDEST ADD MLOAD SWAP1 POP DUP7 DUP1 PUSH2 0x13C4 JUMP JUMPDEST PUSH1 0x5 DUP6 ADD PUSH1 0x0 MSTORE PUSH1 0x20 PUSH1 0x0 KECCAK256 SWAP6 PUSH1 0x0 JUMPDEST PUSH1 0x1F NOT DUP5 AND DUP2 LT PUSH2 0x1670 JUMPI POP SWAP6 DUP3 SWAP2 PUSH2 0x100 SWAP6 SWAP7 SWAP8 PUSH1 0x1 SWAP5 PUSH1 0x1F NOT DUP2 AND LT PUSH2 0x1657 JUMPI JUMPDEST POP POP POP DUP2 SHL ADD PUSH1 0x5 DUP6 ADD SSTORE PUSH2 0x13DC JUMP JUMPDEST ADD MLOAD PUSH1 0x0 NOT PUSH1 0xF8 DUP5 PUSH1 0x3 SHL AND SHR NOT AND SWAP1 SSTORE DUP7 DUP1 DUP1 PUSH2 0x1647 JUMP JUMPDEST DUP3 DUP3 ADD MLOAD DUP9 SSTORE PUSH1 0x1 SWAP1 SWAP8 ADD SWAP7 PUSH1 0x20 SWAP3 DUP4 ADD SWAP3 ADD PUSH2 0x1624 JUMP JUMPDEST PUSH2 0x16B7 SWAP1 PUSH1 0x5 DUP7 ADD PUSH1 0x0 MSTORE PUSH1 0x20 PUSH1 0x0 KECCAK256 PUSH1 0x1F DUP5 ADD PUSH1 0x5 SHR DUP2 ADD SWAP2 PUSH1 0x20 DUP6 LT PUSH2 0xC20 JUMPI PUSH1 0x1F ADD PUSH1 0x5 SHR ADD SWAP1 PUSH2 0x23DF JUMP JUMPDEST DUP6 PUSH2 0x13A6 JUMP JUMPDEST PUSH4 0x4E487B71 PUSH1 0xE0 SHL PUSH1 0x0 MSTORE PUSH1 0x11 PUSH1 0x4 MSTORE PUSH1 0x24 PUSH1 0x0 REVERT JUMPDEST CALLVALUE PUSH2 0x1B2 JUMPI PUSH1 0x0 CALLDATASIZE PUSH1 0x3 NOT ADD SLT PUSH2 0x1B2 JUMPI PUSH2 0x16EC PUSH2 0x24B9 JUMP JUMPDEST PUSH1 0x0 DUP1 SLOAD PUSH1 0x1 PUSH1 0x1 PUSH1 0xA0 SHL SUB NOT DUP2 AND DUP3 SSTORE PUSH1 0x1 PUSH1 0x1 PUSH1 0xA0 SHL SUB AND PUSH32 0x8BE0079C531659141344CD1FD0A4F28419497F9722A3DAAFE3B4186F6B6457E0 DUP3 DUP1 LOG3 STOP JUMPDEST CALLVALUE PUSH2 0x1B2 JUMPI PUSH1 0x20 CALLDATASIZE PUSH1 0x3 NOT ADD SLT PUSH2 0x1B2 JUMPI PUSH1 0x4 CALLDATALOAD PUSH1 0x0 MSTORE PUSH1 0x1 PUSH1 0x20 MSTORE PUSH1 0x40 PUSH1 0x0 KECCAK256 DUP1 SLOAD PUSH1 0x1 DUP3 ADD SLOAD SWAP1 PUSH1 0x2 DUP4 ADD SLOAD SWAP1 DUP2 PUSH1 0x8 SHR PUSH1 0xFF AND SWAP4 PUSH1 0x3 DUP2 ADD PUSH2 0x1770 SWAP1 PUSH2 0x2145 JUMP JUMPDEST PUSH1 0x4 DUP3 ADD SLOAD PUSH1 0x5 DUP4 ADD SLOAD SWAP1 PUSH1 0x6 DUP5 ADD SLOAD PUSH1 0x7 DUP6 ADD SLOAD PUSH1 0xFF AND SWAP1 PUSH1 0x8 DUP7 ADD PUSH2 0x1796 SWAP1 PUSH2 0x2145 JUMP JUMPDEST SWAP4 PUSH2 0x17A3 PUSH1 0x9 DUP9 ADD PUSH2 0x2145 JUMP JUMPDEST SWAP6 PUSH1 0xA DUP9 ADD SLOAD SWAP9 PUSH1 0xB DUP10 ADD SLOAD SWAP9 PUSH1 0xC ADD PUSH2 0x17BC SWAP1 PUSH2 0x2145 JUMP JUMPDEST SWAP11 PUSH1 0x40 MLOAD SWAP14 DUP15 DUP1 SWAP15 PUSH2 0x1E0 SWAP5 DUP3 MSTORE PUSH1 0x20 DUP3 ADD MSTORE PUSH1 0x40 ADD PUSH1 0xFF DUP4 AND SWAP1 PUSH2 0x17E0 SWAP2 PUSH2 0x1E6E JUMP JUMPDEST DUP14 PUSH2 0x17EA DUP3 PUSH2 0x1E7B JUMP JUMPDEST PUSH1 0x60 ADD MSTORE PUSH1 0x10 SHR PUSH1 0x1 PUSH1 0x1 PUSH1 0xA0 SHL SUB AND PUSH1 0x80 DUP14 ADD MSTORE PUSH1 0xA0 DUP13 ADD DUP2 SWAP1 MSTORE PUSH2 0x1813 SWAP2 SWAP1 DUP13 ADD SWAP1 PUSH2 0x1E85 JUMP JUMPDEST SWAP4 PUSH1 0xC0 DUP12 ADD MSTORE PUSH1 0xE0 DUP11 ADD MSTORE PUSH2 0x100 DUP10 ADD MSTORE ISZERO ISZERO PUSH2 0x120 DUP9 ADD MSTORE DUP7 DUP2 SUB PUSH2 0x140 DUP9 ADD MSTORE PUSH2 0x183E SWAP2 PUSH2 0x1E85 JUMP JUMPDEST DUP6 DUP2 SUB PUSH2 0x160 DUP8 ADD MSTORE PUSH2 0x1850 SWAP2 PUSH2 0x1E85 JUMP JUMPDEST SWAP2 PUSH2 0x180 DUP6 ADD MSTORE PUSH2 0x1A0 DUP5 ADD MSTORE DUP3 DUP2 SUB PUSH2 0x1C0 DUP5 ADD MSTORE PUSH2 0x280 SWAP2 PUSH2 0x1E85 JUMP JUMPDEST CALLVALUE PUSH2 0x1B2 JUMPI PUSH1 0x20 CALLDATASIZE PUSH1 0x3 NOT ADD SLT PUSH2 0x1B2 JUMPI PUSH1 0x4 CALLDATALOAD PUSH1 0x0 MSTORE PUSH1 0x2 PUSH1 0x20 MSTORE PUSH1 0x40 PUSH1 0x0 KECCAK256 DUP1 SLOAD SWAP1 PUSH2 0x280 PUSH1 0x1 DUP3 ADD SLOAD SWAP2 PUSH1 0x2 DUP2 ADD SLOAD PUSH2 0x191F PUSH1 0xFF DUP3 AND SWAP6 PUSH1 0x3 DUP5 ADD SLOAD SWAP1 PUSH1 0x4 DUP6 ADD SLOAD PUSH2 0x18C0 PUSH1 0x5 DUP8 ADD PUSH2 0x2145 JUMP JUMPDEST SWAP3 PUSH2 0x18D5 PUSH1 0x7 PUSH1 0xFF PUSH1 0x6 DUP11 ADD SLOAD AND SWAP9 ADD PUSH2 0x2145 JUMP JUMPDEST SWAP6 PUSH1 0x40 MLOAD SWAP11 DUP12 SWAP11 PUSH2 0x120 SWAP6 DUP13 MSTORE PUSH1 0x20 DUP13 ADD MSTORE PUSH2 0x18F0 DUP2 PUSH2 0x1E7B JUMP JUMPDEST PUSH1 0x40 DUP12 ADD MSTORE PUSH1 0x8 SHR PUSH1 0x1 PUSH1 0x1 PUSH1 0xA0 SHL SUB AND PUSH1 0x60 DUP11 ADD MSTORE PUSH1 0x80 DUP10 ADD MSTORE PUSH1 0xA0 DUP9 ADD MSTORE PUSH1 0xC0 DUP8 ADD DUP2 SWAP1 MSTORE DUP7 ADD SWAP1 PUSH2 0x1E85 JUMP JUMPDEST SWAP2 ISZERO ISZERO PUSH1 0xE0 DUP6 ADD MSTORE DUP4 DUP3 SUB PUSH2 0x100 DUP6 ADD MSTORE PUSH2 0x1E85 JUMP JUMPDEST CALLVALUE PUSH2 0x1B2 JUMPI PUSH1 0x20 DUP1 PUSH1 0x3 NOT CALLDATASIZE ADD SLT PUSH2 0x1B2 JUMPI PUSH1 0x4 CALLDATALOAD PUSH1 0x0 MSTORE PUSH1 0x6 DUP1 DUP3 MSTORE PUSH1 0x40 PUSH1 0x0 KECCAK256 SWAP1 DUP2 SLOAD SWAP1 PUSH2 0x1964 DUP3 PUSH2 0x228A JUMP JUMPDEST SWAP3 PUSH2 0x1972 PUSH1 0x40 MLOAD SWAP5 DUP6 PUSH2 0x2124 JUMP JUMPDEST DUP3 DUP5 MSTORE PUSH2 0x197E DUP4 PUSH2 0x228A JUMP JUMPDEST PUSH1 0x1F NOT ADD DUP6 PUSH1 0x0 JUMPDEST DUP3 DUP2 LT PUSH2 0x1AB9 JUMPI POP POP POP PUSH1 0x0 JUMPDEST DUP4 DUP2 LT PUSH2 0x19F8 JUMPI PUSH1 0x40 DUP1 MLOAD DUP8 DUP2 MSTORE DUP7 MLOAD DUP2 DUP10 ADD DUP2 SWAP1 MSTORE PUSH1 0x0 SWAP3 PUSH1 0x5 DUP3 SWAP1 SHL DUP4 ADD DUP2 ADD SWAP2 DUP10 DUP12 ADD SWAP2 DUP12 SWAP1 DUP6 ADD JUMPDEST DUP3 DUP8 LT PUSH2 0x19CC JUMPI DUP6 DUP6 SUB DUP7 RETURN JUMPDEST SWAP1 SWAP2 SWAP3 SWAP4 DUP3 DUP1 PUSH2 0x19E8 PUSH1 0x1 SWAP4 PUSH1 0x3F NOT DUP11 DUP3 SUB ADD DUP7 MSTORE DUP9 MLOAD PUSH2 0x1FF6 JUMP JUMPDEST SWAP7 ADD SWAP3 ADD SWAP7 ADD SWAP6 SWAP3 SWAP2 SWAP1 SWAP3 PUSH2 0x19BF JUMP JUMPDEST DUP1 PUSH2 0x1A05 PUSH1 0x1 SWAP3 DUP5 PUSH2 0x1FC8 JUMP JUMPDEST SWAP1 SLOAD PUSH1 0x3 SWAP2 DUP3 SHL SHR PUSH1 0x0 MSTORE PUSH2 0x1A97 PUSH1 0x7 PUSH1 0x2 SWAP3 DUP4 DUP12 MSTORE PUSH1 0x40 PUSH1 0x0 KECCAK256 SWAP1 PUSH1 0x40 MLOAD SWAP5 PUSH2 0x1A2E DUP7 PUSH2 0x20D2 JUMP JUMPDEST DUP3 SLOAD DUP7 MSTORE DUP8 DUP4 ADD SLOAD DUP14 DUP8 ADD MSTORE DUP3 ADD SLOAD SWAP1 PUSH1 0xFF SWAP2 DUP3 DUP2 AND PUSH2 0x1A4D DUP2 PUSH2 0x1E7B JUMP JUMPDEST PUSH1 0x40 DUP9 ADD MSTORE DUP9 DUP1 PUSH1 0xA0 SHL SUB SWAP1 PUSH1 0x8 SHR AND PUSH1 0x60 DUP8 ADD MSTORE DUP3 ADD SLOAD PUSH1 0x80 DUP7 ADD MSTORE PUSH1 0x4 DUP3 ADD SLOAD PUSH1 0xA0 DUP7 ADD MSTORE PUSH2 0x1A80 PUSH1 0x5 DUP4 ADD PUSH2 0x2145 JUMP JUMPDEST PUSH1 0xC0 DUP7 ADD MSTORE DUP9 DUP3 ADD SLOAD AND ISZERO ISZERO PUSH1 0xE0 DUP6 ADD MSTORE ADD PUSH2 0x2145 JUMP JUMPDEST PUSH2 0x100 DUP3 ADD MSTORE PUSH2 0x1AA7 DUP3 DUP9 PUSH2 0x230F JUMP JUMPDEST MSTORE PUSH2 0x1AB2 DUP2 DUP8 PUSH2 0x230F JUMP JUMPDEST POP ADD PUSH2 0x1993 JUMP JUMPDEST PUSH2 0x1AC1 PUSH2 0x232F JUMP JUMPDEST DUP3 DUP3 DUP10 ADD ADD MSTORE ADD DUP7 SWAP1 PUSH2 0x1986 JUMP JUMPDEST CALLVALUE PUSH2 0x1B2 JUMPI PUSH1 0x0 CALLDATASIZE PUSH1 0x3 NOT ADD SLT PUSH2 0x1B2 JUMPI PUSH1 0x20 PUSH1 0x7 SLOAD PUSH1 0x40 MLOAD SWAP1 DUP2 MSTORE RETURN JUMPDEST CALLVALUE PUSH2 0x1B2 JUMPI PUSH1 0x20 CALLDATASIZE PUSH1 0x3 NOT ADD SLT PUSH2 0x1B2 JUMPI PUSH1 0x4 CALLDATALOAD PUSH2 0x1B09 PUSH2 0x24B9 JUMP JUMPDEST DUP1 PUSH1 0x0 MSTORE PUSH1 0x2 PUSH1 0x20 MSTORE PUSH1 0x6 PUSH1 0x40 PUSH1 0x0 KECCAK256 ADD DUP1 SLOAD PUSH1 0xFF DUP2 AND PUSH2 0x1B5F JUMPI PUSH1 0x1 SWAP1 PUSH1 0xFF NOT AND OR SWAP1 SSTORE PUSH32 0x14CA789A7E6A2B8BDA52F2BC401BFC8C6DC1D7701D68785FC2A17F8EF05F4B6 PUSH1 0x40 DUP1 MLOAD CALLER DUP2 MSTORE TIMESTAMP PUSH1 0x20 DUP3 ADD MSTORE LOG2 STOP JUMPDEST PUSH1 0x40 MLOAD PUSH3 0x461BCD PUSH1 0xE5 SHL DUP2 MSTORE PUSH1 0x20 PUSH1 0x4 DUP3 ADD MSTORE PUSH1 0xF PUSH1 0x24 DUP3 ADD MSTORE PUSH15 0x105B1C9958591E481C995D9BDAD959 PUSH1 0x8A SHL PUSH1 0x44 DUP3 ADD MSTORE PUSH1 0x64 SWAP1 REVERT JUMPDEST CALLVALUE PUSH2 0x1B2 JUMPI PUSH1 0x0 CALLDATASIZE PUSH1 0x3 NOT ADD SLT PUSH2 0x1B2 JUMPI PUSH1 0x20 PUSH1 0x8 SLOAD PUSH1 0x40 MLOAD SWAP1 DUP2 MSTORE RETURN JUMPDEST CALLVALUE PUSH2 0x1B2 JUMPI PUSH1 0x0 CALLDATASIZE PUSH1 0x3 NOT ADD SLT PUSH2 0x1B2 JUMPI PUSH1 0x7 SLOAD PUSH1 0x0 NOT DUP2 ADD SWAP1 DUP2 GT PUSH2 0x16BD JUMPI PUSH1 0x20 SWAP1 PUSH1 0x40 MLOAD SWAP1 DUP2 MSTORE RETURN JUMPDEST CALLVALUE PUSH2 0x1B2 JUMPI PUSH1 0x0 CALLDATASIZE PUSH1 0x3 NOT ADD SLT PUSH2 0x1B2 JUMPI PUSH1 0x8 SLOAD PUSH1 0x0 NOT DUP2 ADD SWAP1 DUP2 GT PUSH2 0x16BD JUMPI PUSH1 0x20 SWAP1 PUSH1 0x40 MLOAD SWAP1 DUP2 MSTORE RETURN JUMPDEST CALLVALUE PUSH2 0x1B2 JUMPI PUSH1 0x20 CALLDATASIZE PUSH1 0x3 NOT ADD SLT PUSH2 0x1B2 JUMPI PUSH1 0x4 CALLDATALOAD PUSH1 0x0 MSTORE PUSH1 0x3 PUSH1 0x20 MSTORE PUSH1 0xC0 PUSH1 0x40 PUSH1 0x0 KECCAK256 DUP1 SLOAD SWAP1 PUSH1 0x2 DUP2 ADD SLOAD SWAP1 PUSH1 0xFF DUP1 DUP4 AND SWAP3 PUSH1 0x4 PUSH1 0x3 DUP5 ADD SLOAD SWAP4 ADD SLOAD SWAP4 PUSH1 0x40 MLOAD SWAP6 DUP7 MSTORE PUSH2 0x1C56 DUP2 PUSH2 0x1E7B JUMP JUMPDEST PUSH1 0x20 DUP7 ADD MSTORE DUP2 DUP2 PUSH1 0x8 SHR AND ISZERO ISZERO PUSH1 0x40 DUP7 ADD MSTORE PUSH1 0x10 SHR AND ISZERO ISZERO PUSH1 0x60 DUP5 ADD MSTORE PUSH1 0x80 DUP4 ADD MSTORE PUSH1 0xA0 DUP3 ADD MSTORE RETURN JUMPDEST CALLVALUE PUSH2 0x1B2 JUMPI PUSH2 0x1C8D CALLDATASIZE PUSH2 0x1FB2 JUMP JUMPDEST SWAP1 PUSH1 0x0 MSTORE PUSH1 0x6 PUSH1 0x20 MSTORE PUSH1 0x40 PUSH1 0x0 KECCAK256 DUP1 SLOAD DUP3 LT ISZERO PUSH2 0x1B2 JUMPI PUSH1 0x20 SWAP2 PUSH2 0x2B5 SWAP2 PUSH2 0x1FC8 JUMP JUMPDEST CALLVALUE PUSH2 0x1B2 JUMPI PUSH1 0x20 DUP1 PUSH1 0x3 NOT CALLDATASIZE ADD SLT PUSH2 0x1B2 JUMPI PUSH1 0x4 CALLDATALOAD PUSH1 0x0 MSTORE PUSH1 0x5 DUP1 DUP3 MSTORE PUSH1 0x40 PUSH1 0x0 KECCAK256 SWAP1 DUP2 SLOAD SWAP1 PUSH2 0x1CDF DUP3 PUSH2 0x228A JUMP JUMPDEST SWAP3 PUSH2 0x1CED PUSH1 0x40 MLOAD SWAP5 DUP6 PUSH2 0x2124 JUMP JUMPDEST DUP3 DUP5 MSTORE PUSH2 0x1CF9 DUP4 PUSH2 0x228A JUMP JUMPDEST PUSH1 0x1F NOT ADD DUP6 PUSH1 0x0 JUMPDEST DUP3 DUP2 LT PUSH2 0x1E58 JUMPI POP POP POP PUSH1 0x0 JUMPDEST DUP4 DUP2 LT PUSH2 0x1D73 JUMPI PUSH1 0x40 DUP1 MLOAD DUP8 DUP2 MSTORE DUP7 MLOAD DUP2 DUP10 ADD DUP2 SWAP1 MSTORE PUSH1 0x0 SWAP3 PUSH1 0x5 DUP3 SWAP1 SHL DUP4 ADD DUP2 ADD SWAP2 DUP10 DUP12 ADD SWAP2 DUP12 SWAP1 DUP6 ADD JUMPDEST DUP3 DUP8 LT PUSH2 0x1D47 JUMPI DUP6 DUP6 SUB DUP7 RETURN JUMPDEST SWAP1 SWAP2 SWAP3 SWAP4 DUP3 DUP1 PUSH2 0x1D63 PUSH1 0x1 SWAP4 PUSH1 0x3F NOT DUP11 DUP3 SUB ADD DUP7 MSTORE DUP9 MLOAD PUSH2 0x1EC5 JUMP JUMPDEST SWAP7 ADD SWAP3 ADD SWAP7 ADD SWAP6 SWAP3 SWAP2 SWAP1 SWAP3 PUSH2 0x1D3A JUMP JUMPDEST DUP1 PUSH2 0x1D80 PUSH1 0x1 SWAP3 DUP5 PUSH2 0x1FC8 JUMP JUMPDEST SWAP1 SLOAD PUSH1 0x3 SWAP2 DUP3 SHL SHR PUSH1 0x0 MSTORE PUSH2 0x1E36 PUSH1 0xC DUP5 SWAP3 DUP4 DUP12 MSTORE PUSH2 0x3E5 PUSH1 0x40 PUSH1 0x0 KECCAK256 SWAP2 PUSH1 0x40 MLOAD SWAP6 PUSH2 0x1DAB DUP8 PUSH2 0x20B6 JUMP JUMPDEST DUP4 SLOAD DUP8 MSTORE DUP4 ADD SLOAD DUP14 DUP8 ADD MSTORE PUSH1 0x2 DUP4 ADD SLOAD SWAP1 PUSH2 0x1DFE PUSH1 0xFF SWAP2 PUSH2 0x1DD1 DUP4 DUP6 AND PUSH1 0x40 DUP12 ADD PUSH2 0x2323 JUMP JUMPDEST PUSH1 0x8 SWAP4 DUP4 DUP2 DUP7 SHR AND PUSH2 0x1DE2 DUP2 PUSH2 0x1E7B JUMP JUMPDEST PUSH1 0x60 DUP12 ADD MSTORE DUP12 DUP1 PUSH1 0xA0 SHL SUB SWAP1 PUSH1 0x10 SHR AND PUSH1 0x80 DUP11 ADD MSTORE DUP6 ADD PUSH2 0x2145 JUMP JUMPDEST PUSH1 0xA0 DUP9 ADD MSTORE PUSH1 0x4 DUP5 ADD SLOAD PUSH1 0xC0 DUP9 ADD MSTORE DUP11 DUP5 ADD SLOAD PUSH1 0xE0 DUP9 ADD MSTORE PUSH1 0x6 DUP5 ADD SLOAD PUSH2 0x100 DUP9 ADD MSTORE PUSH1 0x7 DUP5 ADD SLOAD AND ISZERO ISZERO PUSH2 0x120 DUP8 ADD MSTORE DUP3 ADD PUSH2 0x2145 JUMP JUMPDEST PUSH2 0x1C0 DUP3 ADD MSTORE PUSH2 0x1E46 DUP3 DUP9 PUSH2 0x230F JUMP JUMPDEST MSTORE PUSH2 0x1E51 DUP2 DUP8 PUSH2 0x230F JUMP JUMPDEST POP ADD PUSH2 0x1D0E JUMP JUMPDEST PUSH2 0x1E60 PUSH2 0x22A1 JUMP JUMPDEST DUP3 DUP3 DUP10 ADD ADD MSTORE ADD DUP7 SWAP1 PUSH2 0x1D01 JUMP JUMPDEST SWAP1 PUSH1 0xA DUP3 LT ISZERO PUSH2 0xE3C JUMPI MSTORE JUMP JUMPDEST PUSH1 0x5 GT ISZERO PUSH2 0xE3C JUMPI JUMP JUMPDEST SWAP2 SWAP1 DUP3 MLOAD SWAP3 DUP4 DUP3 MSTORE PUSH1 0x0 JUMPDEST DUP5 DUP2 LT PUSH2 0x1EB1 JUMPI POP POP DUP3 PUSH1 0x0 PUSH1 0x20 DUP1 SWAP5 SWAP6 DUP5 ADD ADD MSTORE PUSH1 0x1F DUP1 NOT SWAP2 ADD AND ADD ADD SWAP1 JUMP JUMPDEST PUSH1 0x20 DUP2 DUP4 ADD DUP2 ADD MLOAD DUP5 DUP4 ADD DUP3 ADD MSTORE ADD PUSH2 0x1E90 JUMP JUMPDEST SWAP1 PUSH2 0x1FAF SWAP2 PUSH2 0x1F85 PUSH2 0x1F71 PUSH2 0x1F31 PUSH2 0x1E0 DUP5 MLOAD DUP7 MSTORE PUSH1 0x20 DUP6 ADD MLOAD PUSH1 0x20 DUP8 ADD MSTORE PUSH2 0x1EF6 PUSH1 0x40 DUP7 ADD MLOAD PUSH1 0x40 DUP9 ADD SWAP1 PUSH2 0x1E6E JUMP JUMPDEST PUSH1 0x60 DUP6 ADD MLOAD PUSH2 0x1F04 DUP2 PUSH2 0x1E7B JUMP JUMPDEST PUSH1 0x60 DUP8 ADD MSTORE PUSH1 0x80 DUP6 DUP2 ADD MLOAD PUSH1 0x1 PUSH1 0x1 PUSH1 0xA0 SHL SUB AND SWAP1 DUP8 ADD MSTORE PUSH1 0xA0 DUP6 DUP2 ADD MLOAD SWAP1 DUP8 ADD DUP3 SWAP1 MSTORE SWAP1 DUP7 ADD SWAP1 PUSH2 0x1E85 JUMP JUMPDEST PUSH1 0xC0 DUP5 ADD MLOAD PUSH1 0xC0 DUP7 ADD MSTORE PUSH1 0xE0 DUP5 ADD MLOAD PUSH1 0xE0 DUP7 ADD MSTORE PUSH2 0x100 DUP1 DUP6 ADD MLOAD SWAP1 DUP7 ADD MSTORE PUSH2 0x120 DUP1 DUP6 ADD MLOAD ISZERO ISZERO SWAP1 DUP7 ADD MSTORE PUSH2 0x140 DUP1 DUP6 ADD MLOAD SWAP1 DUP7 DUP4 SUB SWAP1 DUP8 ADD MSTORE PUSH2 0x1E85 JUMP JUMPDEST PUSH2 0x160 DUP1 DUP5 ADD MLOAD SWAP1 DUP6 DUP4 SUB SWAP1 DUP7 ADD MSTORE PUSH2 0x1E85 JUMP JUMPDEST SWAP2 PUSH2 0x180 DUP1 DUP4 ADD MLOAD SWAP1 DUP3 ADD MSTORE PUSH2 0x1A0 DUP1 DUP4 ADD MLOAD SWAP1 DUP3 ADD MSTORE PUSH2 0x1C0 DUP1 SWAP3 ADD MLOAD SWAP2 DUP2 DUP5 SUB SWAP2 ADD MSTORE PUSH2 0x1E85 JUMP JUMPDEST SWAP1 JUMP JUMPDEST PUSH1 0x40 SWAP1 PUSH1 0x3 NOT ADD SLT PUSH2 0x1B2 JUMPI PUSH1 0x4 CALLDATALOAD SWAP1 PUSH1 0x24 CALLDATALOAD SWAP1 JUMP JUMPDEST DUP1 SLOAD DUP3 LT ISZERO PUSH2 0x1FE0 JUMPI PUSH1 0x0 MSTORE PUSH1 0x20 PUSH1 0x0 KECCAK256 ADD SWAP1 PUSH1 0x0 SWAP1 JUMP JUMPDEST PUSH4 0x4E487B71 PUSH1 0xE0 SHL PUSH1 0x0 MSTORE PUSH1 0x32 PUSH1 0x4 MSTORE PUSH1 0x24 PUSH1 0x0 REVERT JUMPDEST SWAP1 PUSH2 0x1FAF SWAP2 PUSH2 0x205C PUSH2 0x120 DUP3 MLOAD DUP5 MSTORE PUSH1 0x20 DUP4 ADD MLOAD PUSH1 0x20 DUP6 ADD MSTORE PUSH1 0x40 DUP4 ADD MLOAD PUSH2 0x201D DUP2 PUSH2 0x1E7B JUMP JUMPDEST PUSH1 0x40 DUP6 ADD MSTORE PUSH1 0x1 DUP1 PUSH1 0xA0 SHL SUB PUSH1 0x60 DUP5 ADD MLOAD AND PUSH1 0x60 DUP6 ADD MSTORE PUSH1 0x80 DUP4 ADD MLOAD PUSH1 0x80 DUP6 ADD MSTORE PUSH1 0xA0 DUP4 ADD MLOAD PUSH1 0xA0 DUP6 ADD MSTORE PUSH1 0xC0 DUP4 ADD MLOAD SWAP1 DUP1 PUSH1 0xC0 DUP7 ADD MSTORE DUP5 ADD SWAP1 PUSH2 0x1E85 JUMP JUMPDEST SWAP2 PUSH1 0xE0 DUP3 ADD MLOAD ISZERO ISZERO PUSH1 0xE0 DUP3 ADD MSTORE PUSH2 0x100 DUP1 SWAP3 ADD MLOAD SWAP2 DUP2 DUP5 SUB SWAP2 ADD MSTORE PUSH2 0x1E85 JUMP JUMPDEST SWAP1 PUSH1 0x1 DUP3 DUP2 SHR SWAP3 AND DUP1 ISZERO PUSH2 0x20AC JUMPI JUMPDEST PUSH1 0x20 DUP4 LT EQ PUSH2 0x2096 JUMPI JUMP JUMPDEST PUSH4 0x4E487B71 PUSH1 0xE0 SHL PUSH1 0x0 MSTORE PUSH1 0x22 PUSH1 0x4 MSTORE PUSH1 0x24 PUSH1 0x0 REVERT JUMPDEST SWAP2 PUSH1 0x7F AND SWAP2 PUSH2 0x208B JUMP JUMPDEST PUSH2 0x1E0 DUP2 ADD SWAP1 DUP2 LT PUSH1 0x1 PUSH1 0x1 PUSH1 0x40 SHL SUB DUP3 GT OR PUSH2 0xB59 JUMPI PUSH1 0x40 MSTORE JUMP JUMPDEST PUSH2 0x120 DUP2 ADD SWAP1 DUP2 LT PUSH1 0x1 PUSH1 0x1 PUSH1 0x40 SHL SUB DUP3 GT OR PUSH2 0xB59 JUMPI PUSH1 0x40 MSTORE JUMP JUMPDEST PUSH1 0xE0 DUP2 ADD SWAP1 DUP2 LT PUSH1 0x1 PUSH1 0x1 PUSH1 0x40 SHL SUB DUP3 GT OR PUSH2 0xB59 JUMPI PUSH1 0x40 MSTORE JUMP JUMPDEST PUSH1 0x20 DUP2 ADD SWAP1 DUP2 LT PUSH1 0x1 PUSH1 0x1 PUSH1 0x40 SHL SUB DUP3 GT OR PUSH2 0xB59 JUMPI PUSH1 0x40 MSTORE JUMP JUMPDEST SWAP1 PUSH1 0x1F DUP1 NOT SWAP2 ADD AND DUP2 ADD SWAP1 DUP2 LT PUSH1 0x1 PUSH1 0x1 PUSH1 0x40 SHL SUB DUP3 GT OR PUSH2 0xB59 JUMPI PUSH1 0x40 MSTORE JUMP JUMPDEST SWAP1 PUSH1 0x40 MLOAD SWAP2 DUP3 PUSH1 0x0 DUP3 SLOAD PUSH2 0x2158 DUP2 PUSH2 0x207C JUMP JUMPDEST SWAP1 DUP2 DUP5 MSTORE PUSH1 0x20 SWAP5 PUSH1 0x1 SWAP2 PUSH1 0x1 DUP2 AND SWAP1 DUP2 PUSH1 0x0 EQ PUSH2 0x21C8 JUMPI POP PUSH1 0x1 EQ PUSH2 0x2189 JUMPI JUMPDEST POP POP POP PUSH2 0x2187 SWAP3 POP SUB DUP4 PUSH2 0x2124 JUMP JUMPDEST JUMP JUMPDEST PUSH1 0x0 SWAP1 DUP2 MSTORE DUP6 DUP2 KECCAK256 SWAP6 SWAP4 POP SWAP2 SWAP1 JUMPDEST DUP2 DUP4 LT PUSH2 0x21B0 JUMPI POP POP PUSH2 0x2187 SWAP4 POP DUP3 ADD ADD CODESIZE DUP1 DUP1 PUSH2 0x2178 JUMP JUMPDEST DUP6 SLOAD DUP9 DUP5 ADD DUP6 ADD MSTORE SWAP5 DUP6 ADD SWAP5 DUP8 SWAP5 POP SWAP2 DUP4 ADD SWAP2 PUSH2 0x2197 JUMP JUMPDEST SWAP3 POP POP POP PUSH2 0x2187 SWAP5 SWAP3 POP PUSH1 0xFF NOT AND DUP3 DUP5 ADD MSTORE ISZERO ISZERO PUSH1 0x5 SHL DUP3 ADD ADD CODESIZE DUP1 DUP1 PUSH2 0x2178 JUMP JUMPDEST DUP2 PUSH1 0x1F DUP3 ADD SLT ISZERO PUSH2 0x1B2 JUMPI DUP1 CALLDATALOAD SWAP1 PUSH1 0x1 PUSH1 0x1 PUSH1 0x40 SHL SUB DUP3 GT PUSH2 0xB59 JUMPI PUSH1 0x40 MLOAD SWAP3 PUSH2 0x221E PUSH1 0x1F DUP5 ADD PUSH1 0x1F NOT AND PUSH1 0x20 ADD DUP6 PUSH2 0x2124 JUMP JUMPDEST DUP3 DUP5 MSTORE PUSH1 0x20 DUP4 DUP4 ADD ADD GT PUSH2 0x1B2 JUMPI DUP2 PUSH1 0x0 SWAP3 PUSH1 0x20 DUP1 SWAP4 ADD DUP4 DUP7 ADD CALLDATACOPY DUP4 ADD ADD MSTORE SWAP1 JUMP JUMPDEST PUSH1 0x4 CALLDATALOAD SWAP1 PUSH1 0x1 PUSH1 0x1 PUSH1 0xA0 SHL SUB DUP3 AND DUP3 SUB PUSH2 0x1B2 JUMPI JUMP JUMPDEST SWAP1 DUP2 MLOAD DUP1 DUP3 MSTORE PUSH1 0x20 DUP1 DUP1 SWAP4 ADD SWAP4 ADD SWAP2 PUSH1 0x0 JUMPDEST DUP3 DUP2 LT PUSH2 0x2276 JUMPI POP POP POP POP SWAP1 JUMP JUMPDEST DUP4 MLOAD DUP6 MSTORE SWAP4 DUP2 ADD SWAP4 SWAP3 DUP2 ADD SWAP3 PUSH1 0x1 ADD PUSH2 0x2268 JUMP JUMPDEST PUSH1 0x1 PUSH1 0x1 PUSH1 0x40 SHL SUB DUP2 GT PUSH2 0xB59 JUMPI PUSH1 0x5 SHL PUSH1 0x20 ADD SWAP1 JUMP JUMPDEST PUSH1 0x40 MLOAD SWAP1 PUSH2 0x22AE DUP3 PUSH2 0x20B6 JUMP JUMPDEST PUSH1 0x60 PUSH2 0x1C0 DUP4 PUSH1 0x0 DUP1 DUP3 MSTORE DUP1 PUSH1 0x20 DUP4 ADD MSTORE DUP1 PUSH1 0x40 DUP4 ADD MSTORE DUP1 DUP5 DUP4 ADD MSTORE DUP1 PUSH1 0x80 DUP4 ADD MSTORE DUP4 PUSH1 0xA0 DUP4 ADD MSTORE DUP1 PUSH1 0xC0 DUP4 ADD MSTORE DUP1 PUSH1 0xE0 DUP4 ADD MSTORE DUP1 PUSH2 0x100 DUP4 ADD MSTORE DUP1 PUSH2 0x120 DUP4 ADD MSTORE DUP4 PUSH2 0x140 DUP4 ADD MSTORE DUP4 PUSH2 0x160 DUP4 ADD MSTORE DUP1 PUSH2 0x180 DUP4 ADD MSTORE PUSH2 0x1A0 DUP3 ADD MSTORE ADD MSTORE JUMP JUMPDEST DUP1 MLOAD DUP3 LT ISZERO PUSH2 0x1FE0 JUMPI PUSH1 0x20 SWAP2 PUSH1 0x5 SHL ADD ADD SWAP1 JUMP JUMPDEST PUSH1 0xA DUP3 LT ISZERO PUSH2 0xE3C JUMPI MSTORE JUMP JUMPDEST PUSH1 0x40 MLOAD SWAP1 PUSH2 0x233C DUP3 PUSH2 0x20D2 JUMP JUMPDEST PUSH1 0x60 PUSH2 0x100 DUP4 PUSH1 0x0 DUP1 DUP3 MSTORE DUP1 PUSH1 0x20 DUP4 ADD MSTORE DUP1 PUSH1 0x40 DUP4 ADD MSTORE DUP1 DUP5 DUP4 ADD MSTORE DUP1 PUSH1 0x80 DUP4 ADD MSTORE DUP1 PUSH1 0xA0 DUP4 ADD MSTORE DUP4 PUSH1 0xC0 DUP4 ADD MSTORE PUSH1 0xE0 DUP3 ADD MSTORE ADD MSTORE JUMP JUMPDEST ISZERO PUSH2 0x237A JUMPI JUMP JUMPDEST PUSH1 0x40 MLOAD PUSH3 0x461BCD PUSH1 0xE5 SHL DUP2 MSTORE PUSH1 0x20 PUSH1 0x4 DUP3 ADD MSTORE PUSH1 0x16 PUSH1 0x24 DUP3 ADD MSTORE PUSH22 0x125B9D985B1A590818985D18DA081D1BDAD95B881251 PUSH1 0x52 SHL PUSH1 0x44 DUP3 ADD MSTORE PUSH1 0x64 SWAP1 REVERT JUMPDEST PUSH1 0x0 NOT DUP2 EQ PUSH2 0x16BD JUMPI PUSH1 0x1 ADD SWAP1 JUMP JUMPDEST SWAP1 PUSH2 0x23D1 DUP2 PUSH2 0x1E7B JUMP JUMPDEST PUSH1 0xFF DUP1 NOT DUP4 SLOAD AND SWAP2 AND OR SWAP1 SSTORE JUMP JUMPDEST DUP2 DUP2 LT PUSH2 0x23EA JUMPI POP POP JUMP JUMPDEST PUSH1 0x0 DUP2 SSTORE PUSH1 0x1 ADD PUSH2 0x23DF JUMP JUMPDEST DUP1 SLOAD PUSH1 0x1 PUSH1 0x40 SHL DUP2 LT ISZERO PUSH2 0xB59 JUMPI PUSH2 0x2413 SWAP2 PUSH1 0x1 DUP3 ADD DUP2 SSTORE PUSH2 0x1FC8 JUMP JUMPDEST DUP2 SWAP3 SWAP2 SLOAD SWAP1 PUSH1 0x3 SHL SWAP2 DUP3 SHL SWAP2 PUSH1 0x0 NOT SWAP1 SHL NOT AND OR SWAP1 SSTORE JUMP JUMPDEST PUSH1 0x60 DUP2 ADD SWAP5 SWAP4 SWAP3 PUSH1 0x40 SWAP3 PUSH2 0x243E DUP2 PUSH2 0x1E7B JUMP JUMPDEST DUP3 MSTORE PUSH1 0x20 DUP3 ADD MSTORE ADD MSTORE JUMP JUMPDEST SWAP1 PUSH2 0x2453 DUP2 PUSH2 0x1E7B JUMP JUMPDEST PUSH2 0xFF00 DUP3 SLOAD SWAP2 PUSH1 0x8 SHL AND SWAP1 PUSH2 0xFF00 NOT AND OR SWAP1 SSTORE JUMP JUMPDEST SWAP1 PUSH1 0x40 MLOAD SWAP2 DUP3 DUP2 SLOAD SWAP2 DUP3 DUP3 MSTORE PUSH1 0x20 SWAP3 PUSH1 0x20 DUP4 ADD SWAP2 PUSH1 0x0 MSTORE PUSH1 0x20 PUSH1 0x0 KECCAK256 SWAP4 PUSH1 0x0 SWAP1 JUMPDEST DUP3 DUP3 LT PUSH2 0x249F JUMPI POP POP POP PUSH2 0x2187 SWAP3 POP SUB DUP4 PUSH2 0x2124 JUMP JUMPDEST DUP6 SLOAD DUP5 MSTORE PUSH1 0x1 SWAP6 DUP7 ADD SWAP6 DUP9 SWAP6 POP SWAP4 DUP2 ADD SWAP4 SWAP1 SWAP2 ADD SWAP1 PUSH2 0x2489 JUMP JUMPDEST PUSH1 0x0 SLOAD PUSH1 0x1 PUSH1 0x1 PUSH1 0xA0 SHL SUB AND CALLER SUB PUSH2 0x24CD JUMPI JUMP JUMPDEST PUSH1 0x40 MLOAD PUSH4 0x118CDAA7 PUSH1 0xE0 SHL DUP2 MSTORE CALLER PUSH1 0x4 DUP3 ADD MSTORE PUSH1 0x24 SWAP1 REVERT JUMPDEST PUSH1 0x0 DUP2 DUP2 MSTORE PUSH1 0x3 PUSH1 0x20 SWAP1 PUSH1 0x3 PUSH1 0x20 MSTORE PUSH1 0x40 SWAP3 PUSH1 0x40 DUP2 KECCAK256 SWAP4 PUSH1 0x1 SWAP1 PUSH1 0x1 DUP7 ADD SWAP1 DUP2 SLOAD SWAP6 DUP7 ISZERO PUSH2 0x25D4 JUMPI DUP5 SWAP6 DUP6 JUMPDEST DUP9 DUP2 LT PUSH2 0x2596 JUMPI POP POP POP POP POP POP PUSH1 0x64 DUP3 MUL SWAP2 DUP1 DUP4 DIV PUSH1 0x64 EQ SWAP1 ISZERO OR ISZERO PUSH2 0x2582 JUMPI POP PUSH1 0x2 PUSH32 0x673B8C349DB6FA76EEF738B154B05C9E88917738C1C0E10B729B2D059CB5154A SWAP4 SWAP3 PUSH1 0xFF SWAP3 DIV SWAP3 DUP4 PUSH1 0x3 DUP3 ADD SSTORE TIMESTAMP PUSH1 0x4 DUP3 ADD SSTORE ADD SLOAD AND SWAP1 PUSH2 0x257D PUSH1 0x40 MLOAD SWAP3 DUP4 SWAP3 TIMESTAMP SWAP2 DUP5 PUSH2 0x242B JUMP JUMPDEST SUB SWAP1 LOG2 JUMP JUMPDEST PUSH4 0x4E487B71 PUSH1 0xE0 SHL DUP2 MSTORE PUSH1 0x11 PUSH1 0x4 MSTORE PUSH1 0x24 SWAP1 REVERT JUMPDEST PUSH2 0x25A0 DUP2 DUP7 PUSH2 0x1FC8 JUMP JUMPDEST SWAP1 SLOAD SWAP1 DUP4 SHL SHR DUP8 MSTORE DUP6 DUP4 MSTORE PUSH1 0xFF PUSH1 0x7 DUP6 DUP10 KECCAK256 ADD SLOAD AND PUSH2 0x25C1 JUMPI JUMPDEST DUP6 ADD PUSH2 0x2511 JUMP JUMPDEST SWAP7 PUSH2 0x25CC DUP7 SWAP2 PUSH2 0x23B8 JUMP JUMPDEST SWAP8 SWAP1 POP PUSH2 0x25BA JUMP JUMPDEST POP POP POP POP POP POP POP POP POP JUMP INVALID LOG2 PUSH5 0x6970667358 0x22 SLT KECCAK256 CREATE CREATE2 SUB BALANCE 0xB9 LOG2 PUSH26 0xD54A4C3A97372DFDD2CFC469B7D037FF47A7AD5C9C7936A49E64 PUSH20 0x6F6C634300081800330000000000000000000000 "},"methodIdentifiers":{"batchCertifications(uint256,uint256)":"15c9a635","batchTests(uint256,uint256)":"ec0ed1d9","certifications(uint256)":"3c0359a4","getBatchCertifications(uint256)":"39ab71f9","getBatchTests(uint256)":"0bf10a65","getCertification(uint256)":"ec981eac","getLabTests(address)":"ea57b785","getQualityProfile(uint256)":"c36d252b","getTestResult(uint256)":"e0b3271f","getTotalCertifications()":"25dc673e","getTotalTests()":"26640039","isBatchCertified(uint256)":"b77cb546","issueCertification(uint256,uint8,uint256,string,string)":"788e5435","labTests(address,uint256)":"bdb91464","nextCertId()":"2a8e6a8e","nextTestId()":"32a86e95","owner()":"8da5cb5b","qualityProfiles(uint256)":"1ebc2371","recordTestResult(uint256,uint256,string,string)":"8398ab66","renounceOwnership()":"715018a6","requestTest(uint256,uint8,string,uint256,uint256,string)":"90780b0f","revokeCertification(uint256)":"2f5fce6c","testResults(uint256)":"3cf91ccd","transferOwnership(address)":"f2fde38b"}}}}}