{"contracts/ProcessingContract.sol":{"ProcessingContract":{"abi":[{"inputs":[],"stateMutability":"nonpayable","type":"constructor"},{"inputs":[{"internalType":"address","name":"owner","type":"address"}],"name":"OwnableInvalidOwner","type":"error"},{"inputs":[{"internalType":"address","name":"account","type":"address"}],"name":"OwnableUnauthorizedAccount","type":"error"},{"anonymous":false,"inputs":[{"indexed":true,"internalType":"uint256","name":"batchId","type":"uint256"},{"indexed":true,"internalType":"uint256","name":"batchTokenId","type":"uint256"},{"indexed":false,"internalType":"uint256","name":"stepCount","type":"uint256"},{"indexed":false,"internalType":"uint256","name":"timestamp","type":"uint256"}],"name":"BatchProcessingCompleted","type":"event"},{"anonymous":false,"inputs":[{"indexed":true,"internalType":"address","name":"previousOwner","type":"address"},{"indexed":true,"internalType":"address","name":"newOwner","type":"address"}],"name":"OwnershipTransferred","type":"event"},{"anonymous":false,"inputs":[{"indexed":true,"internalType":"uint256","name":"stepId","type":"uint256"},{"indexed":false,"internalType":"address","name":"processor","type":"address"},{"indexed":false,"internalType":"uint256","name":"timestamp","type":"uint256"}],"name":"ProcessingStepCompleted","type":"event"},{"anonymous":false,"inputs":[{"indexed":true,"internalType":"uint256","name":"stepId","type":"uint256"},{"indexed":true,"internalType":"uint256","name":"batchTokenId","type":"uint256"},{"indexed":false,"internalType":"enum ProcessingContract.ProcessingType","name":"stepType","type":"uint8"},{"indexed":false,"internalType":"address","name":"processor","type":"address"},{"indexed":false,"internalType":"uint256","name":"timestamp","type":"uint256"}],"name":"ProcessingStepCreated","type":"event"},{"anonymous":false,"inputs":[{"indexed":true,"internalType":"uint256","name":"stepId","type":"uint256"},{"indexed":false,"internalType":"address","name":"verifier","type":"address"},{"indexed":false,"internalType":"bool","name":"qualityPassed","type":"bool"}],"name":"ProcessingStepVerified","type":"event"},{"inputs":[{"internalType":"uint256","name":"","type":"uint256"}],"name":"batchProcessing","outputs":[{"internalType":"uint256","name":"batchTokenId","type":"uint256"},{"internalType":"enum ProcessingContract.ProcessingStatus","name":"overallStatus","type":"uint8"},{"internalType":"uint256","name":"startTime","type":"uint256"},{"internalType":"uint256","name":"completionTime","type":"uint256"}],"stateMutability":"view","type":"function"},{"inputs":[{"internalType":"uint256","name":"_batchTokenId","type":"uint256"}],"name":"completeBatchProcessing","outputs":[],"stateMutability":"nonpayable","type":"function"},{"inputs":[{"internalType":"uint256","name":"_stepId","type":"uint256"}],"name":"completeProcessing","outputs":[],"stateMutability":"nonpayable","type":"function"},{"inputs":[{"internalType":"uint256","name":"_batchTokenId","type":"uint256"},{"internalType":"enum ProcessingContract.ProcessingType","name":"_stepType","type":"uint8"},{"internalType":"string","name":"_description","type":"string"},{"internalType":"int256","name":"_temperature","type":"int256"},{"internalType":"uint256","name":"_duration","type":"uint256"},{"internalType":"string","name":"_notes","type":"string"}],"name":"createProcessingStep","outputs":[{"internalType":"uint256","name":"","type":"uint256"}],"stateMutability":"nonpayable","type":"function"},{"inputs":[{"internalType":"uint256","name":"_batchTokenId","type":"uint256"}],"name":"getBatchProcessing","outputs":[{"components":[{"internalType":"uint256","name":"batchTokenId","type":"uint256"},{"internalType":"uint256[]","name":"stepIds","type":"uint256[]"},{"internalType":"enum ProcessingContract.ProcessingStatus","name":"overallStatus","type":"uint8"},{"internalType":"uint256","name":"startTime","type":"uint256"},{"internalType":"uint256","name":"completionTime","type":"uint256"}],"internalType":"struct ProcessingContract.BatchProcessing","name":"","type":"tuple"}],"stateMutability":"view","type":"function"},{"inputs":[{"internalType":"uint256","name":"_batchTokenId","type":"uint256"}],"name":"getBatchSteps","outputs":[{"components":[{"internalType":"uint256","name":"id","type":"uint256"},{"internalType":"uint256","name":"batchTokenId","type":"uint256"},{"internalType":"enum ProcessingContract.ProcessingType","name":"stepType","type":"uint8"},{"internalType":"enum ProcessingContract.ProcessingStatus","name":"status","type":"uint8"},{"internalType":"address","name":"processor","type":"address"},{"internalType":"string","name":"description","type":"string"},{"internalType":"int256","name":"temperature","type":"int256"},{"internalType":"uint256","name":"duration","type":"uint256"},{"internalType":"uint256","name":"startTime","type":"uint256"},{"internalType":"uint256","name":"endTime","type":"uint256"},{"internalType":"string","name":"notes","type":"string"},{"internalType":"bool","name":"qualityVerified","type":"bool"}],"internalType":"struct ProcessingContract.ProcessingStep[]","name":"","type":"tuple[]"}],"stateMutability":"view","type":"function"},{"inputs":[{"internalType":"uint256","name":"_stepId","type":"uint256"}],"name":"getProcessingStep","outputs":[{"components":[{"internalType":"uint256","name":"id","type":"uint256"},{"internalType":"uint256","name":"batchTokenId","type":"uint256"},{"internalType":"enum ProcessingContract.ProcessingType","name":"stepType","type":"uint8"},{"internalType":"enum ProcessingContract.ProcessingStatus","name":"status","type":"uint8"},{"internalType":"address","name":"processor","type":"address"},{"internalType":"string","name":"description","type":"string"},{"internalType":"int256","name":"temperature","type":"int256"},{"internalType":"uint256","name":"duration","type":"uint256"},{"internalType":"uint256","name":"startTime","type":"uint256"},{"internalType":"uint256","name":"endTime","type":"uint256"},{"internalType":"string","name":"notes","type":"string"},{"internalType":"bool","name":"qualityVerified","type":"bool"}],"internalType":"struct ProcessingContract.ProcessingStep","name":"","type":"tuple"}],"stateMutability":"view","type":"function"},{"inputs":[{"internalType":"address","name":"_processor","type":"address"}],"name":"getProcessorSteps","outputs":[{"internalType":"uint256[]","name":"","type":"uint256[]"}],"stateMutability":"view","type":"function"},{"inputs":[],"name":"getTotalSteps","outputs":[{"internalType":"uint256","name":"","type":"uint256"}],"stateMutability":"view","type":"function"},{"inputs":[],"name":"nextBatchId","outputs":[{"internalType":"uint256","name":"","type":"uint256"}],"stateMutability":"view","type":"function"},{"inputs":[],"name":"nextStepId","outputs":[{"internalType":"uint256","name":"","type":"uint256"}],"stateMutability":"view","type":"function"},{"inputs":[],"name":"owner","outputs":[{"internalType":"address","name":"","type":"address"}],"stateMutability":"view","type":"function"},{"inputs":[{"internalType":"uint256","name":"","type":"uint256"}],"name":"processingSteps","outputs":[{"internalType":"uint256","name":"id","type":"uint256"},{"internalType":"uint256","name":"batchTokenId","type":"uint256"},{"internalType":"enum ProcessingContract.ProcessingType","name":"stepType","type":"uint8"},{"internalType":"enum ProcessingContract.ProcessingStatus","name":"status","type":"uint8"},{"internalType":"address","name":"processor","type":"address"},{"internalType":"string","name":"description","type":"string"},{"internalType":"int256","name":"temperature","type":"int256"},{"internalType":"uint256","name":"duration","type":"uint256"},{"internalType":"uint256","name":"startTime","type":"uint256"},{"internalType":"uint256","name":"endTime","type":"uint256"},{"internalType":"string","name":"notes","type":"string"},{"internalType":"bool","name":"qualityVerified","type":"bool"}],"stateMutability":"view","type":"function"},{"inputs":[{"internalType":"address","name":"","type":"address"},{"internalType":"uint256","name":"","type":"uint256"}],"name":"processorSteps","outputs":[{"internalType":"uint256","name":"","type":"uint256"}],"stateMutability":"view","type":"function"},{"inputs":[],"name":"renounceOwnership","outputs":[],"stateMutability":"nonpayable","type":"function"},{"inputs":[{"internalType":"uint256","name":"_stepId","type":"uint256"}],"name":"startProcessing","outputs":[],"stateMutability":"nonpayable","type":"function"},{"inputs":[{"internalType":"address","name":"newOwner","type":"address"}],"name":"transferOwnership","outputs":[],"stateMutability":"nonpayable","type":"function"},{"inputs":[{"internalType":"uint256","name":"_stepId","type":"uint256"},{"internalType":"string","name":"_notes","type":"string"}],"name":"updateStepNotes","outputs":[],"stateMutability":"nonpayable","type":"function"},{"inputs":[{"internalType":"uint256","name":"_stepId","type":"uint256"},{"internalType":"bool","name":"_qualityPassed","type":"bool"}],"name":"verifyProcessingStep","outputs":[],"stateMutability":"nonpayable","type":"function"}],"evm":{"bytecode":{"linkReferences":{},"object":"6080806040523461008457331561006e5760008054336001600160a01b03198216811783556040519290916001600160a01b0316907f8be0079c531659141344cd1fd0a4f28419497f9722a3daafe3b4186f6b6457e09080a360016004556001600555611886908161008a8239f35b631e4fbdf760e01b815260006004820152602490fd5b600080fdfe6080604052600436101561001257600080fd5b60e060003560e01c9081620ef4371461120157816317a8791d1461116057816325ff98181461106c5781632aa704691461102b5781633fed564c14610a6857816346fb00cc14610a0f578163644f1ec5146109f1578163715018a6146109985781638462a7f81461097a5781638574d2ee146108a457816387e9188d146107b55781638da5cb5b1461078c578163c7d068cb146106af578163dc1ea1dd146105a5578163df38a9761461054c578163e0d6a3d4146104fa578163e9a34d951461032957508063f0abb84e146101835763f2fde38b146100f057600080fd5b3461017e57602036600319011261017e57610109611629565b610111611824565b6001600160a01b0390811690811561016557600054826bffffffffffffffffffffffff60a01b821617600055167f8be0079c531659141344cd1fd0a4f28419497f9722a3daafe3b4186f6b6457e0600080a3005b604051631e4fbdf760e01b815260006004820152602490fd5b600080fd5b3461017e57604036600319011261017e5767ffffffffffffffff60243581811161017e576101b59036906004016114ec565b90600435600052600190602060018152604060002060018060a01b03600282015460101c1633036102f0576008019284519283116102da576101f78454611358565b601f811161029f575b5081601f841160011461023d575050819293600092610232575b5050600019600383901b1c191660019190911b179055005b01519050838061021a565b60008581528181209392601f19861692905b838310610288575050509483600195961061026f575b505050811b019055005b015160001960f88460031b161c19169055838080610265565b88850151865594850194938101939181019161024f565b6102ca908560005283600020601f860160051c8101918587106102d0575b601f0160051c01906116ff565b85610200565b90915081906102bd565b634e487b7160e01b600052604160045260246000fd5b60405162461bcd60e51b81526004810183905260116024820152702737ba103a343290383937b1b2b9b9b7b960791b6044820152606490fd5b3461017e5760208060031936011261017e57600435600052600280825260019060016040600020019384549161035e83611716565b9561036c60405197886113cb565b83875261037884611716565b601f190160005b8181106104de57505060005b8481106103f45787878760405191808301818452845180915260408401918060408360051b8701019601926000905b8382106103c75786880387f35b909192939483806103e3839a603f198b82030186528951611543565b9997019594939190910191016103ba565b94856104028299978461163f565b9054600391821b1c60005282895260406000209060096040519261042584611392565b80548452858101548c8501526104ae8882015461047960ff9561044d87841660408a016116e7565b6008926104618882861c1660608b016116f3565b60101c6001600160a01b0316608089015284016113ed565b60a0870152600483015460c087015260058301548b8701526006830154610100870152600783015461012087015282016113ed565b61014085015201541615156101608201526104c98289611810565b526104d48188611810565b500196949661038b565b87906104eb999799611763565b82828a0101520197959761037f565b3461017e57602036600319011261017e576001600160a01b0361051b611629565b16600052600360205261054861053460406000206117bf565b6040519182916020835260208301906115f5565b0390f35b3461017e57604036600319011261017e57610565611629565b6001600160a01b031660009081526003602052604090208054602435919082101561017e576020916105969161163f565b90549060031b1c604051908152f35b3461017e57604036600319011261017e576004356024358015159081810361017e576105cf611824565b826000526001602052604060002091600283019260ff845460081c1660058110156106995760020361065f577f8674ba660ec7215a08dc6493f787cf7b8fbc8bea93f66146722eb56a354d95ed938361063c604095600961064995019060ff801983541691151516179055565b15610657576004906116c8565b8151903382526020820152a2005b6003906116c8565b60405162461bcd60e51b815260206004820152601260248201527114dd195c081b9bdd0818dbdb5c1b195d195960721b6044820152606490fd5b634e487b7160e01b600052602160045260246000fd5b3461017e5760208060031936011261017e57600060806040516106d1816113af565b828152606084820152826040820152826060820152015260043560005260028152604060002060405190610704826113af565b80548252610714600182016117bf565b83830190815260ff600283015416916107316040850193846116f3565b61077c6107706004600384015493606088019485520154936080870194855260405197889781895251908801525160a0604088015260c08701906115f5565b9351606086019061149f565b5160808401525160a08301520390f35b3461017e57600036600319011261017e576000546040516001600160a01b039091168152602090f35b3461017e57602036600319011261017e576107ce611763565b506004356000526001602052610548604060002060ff6009604051926107f384611392565b80548452600181015460208501526002810154610815848216604087016116e7565b610827848260081c16606087016116f3565b60101c6001600160a01b03166080850152610844600382016113ed565b60a0850152600481015460c0850152600581015460e08501526006810154610100850152600781015461012085015261087f600882016113ed565b6101408501520154161515610160820152604051918291602083526020830190611543565b3461017e57602036600319011261017e5760043560008181526001602052604090206002810180546108e4601082901c6001600160a01b0316331461167c565b60ff8160081c1660058110156106995760010361093e576102009061ff0019161790556007429101557fdc968a9cb917134db084d0558aa2b59b6bb86af1b0f4208d26863725e048d4ab60408051338152426020820152a2005b60405162461bcd60e51b815260206004820152601460248201527353746570206e6f7420696e2070726f677265737360601b6044820152606490fd5b3461017e57600036600319011261017e576020600554604051908152f35b3461017e57600036600319011261017e576109b1611824565b600080546001600160a01b0319811682556001600160a01b03167f8be0079c531659141344cd1fd0a4f28419497f9722a3daafe3b4186f6b6457e08280a3005b3461017e57600036600319011261017e576020600454604051908152f35b3461017e57602036600319011261017e5760043560005260026020526080604060002080549060ff60028201541690610a5c6004600383015492015492604051948552602085019061149f565b60408301526060820152f35b3461017e5760c036600319011261017e57600a602435101561017e5760443567ffffffffffffffff811161017e57610aa49036906004016114ec565b60a43567ffffffffffffffff811161017e57610ac49036906004016114ec565b60043515610fed57600454610ad88161166d565b60045560405191610ae883611392565b8183526004356020840152610b02602435604085016116e7565b6000606084015233608084015260a0830193845260643560c084015260843560e08401526000610100840152600061012084015261014083015260006101608301528060005260016020526040600020928251845560208301516001850155600284016040840151600a8110156106995760ff801983541691161781556060840151600581101561069957610b9790826116c8565b6080840151815462010000600160b01b03191660109190911b62010000600160b01b031617905551805190939067ffffffffffffffff81116102da57610be06003830154611358565b601f8111610fb8575b506020601f8211600114610f49578192939495600092610f3e575b50508160011b916000199060031b1c19161760038201555b60c0830151600482015560e083015160058201556101008301516006820155610120830151600782015561014083015192835167ffffffffffffffff81116102da57610c6b6008840154611358565b601f8111610f09575b506020601f8211600114610e9057918161016092600994610cc79798600092610e85575b50508160011b916000199060031b1c19161760088501555b0151151591019060ff801983541691151516179055565b600435600052600260205260036040600020015415610d60575b60209060043560005260028252610cff81600160406000200161172e565b3360005260038252610d1581604060002061172e565b604051610d2481602435611492565b3383820152426040820152817f9e934ab2ff4ecfb21b349dd48694ad17dacd697f94f0c756e37606949057da19606060043593a3604051908152f35b604051906020820182811067ffffffffffffffff8211176102da576040526000825260405191610d8f836113af565b60043583526020830190815260006040840152426060840152600060808401526004356000526002602052604060002090835182555180519067ffffffffffffffff82116102da57600160401b82116102da576020906001840154836001860155808410610e65575b500160018301600052602060002060005b838110610e51575050505060028101604084015160058110156106995760209460049260809260ff801983541691161790556060810151600385015501519101559050610ce1565b600190602084519401938184015501610e09565b610e7f9060018601600052848460002091820191016116ff565b86610df8565b015190508880610c98565b6008840160005260206000209560005b601f1984168110610ef1575082610cc796976009959360019361016096601f19811610610ed8575b505050811b016008850155610cb0565b015160001960f88460031b161c19169055888080610ec8565b82820151885560019097019660209283019201610ea0565b610f3890600885016000526020600020601f840160051c810191602085106102d057601f0160051c01906116ff565b85610c74565b015190508580610c04565b6003830160005260206000209060005b601f1984168110610fa0575060019394959683601f19811610610f87575b505050811b016003820155610c1c565b015160001960f88460031b161c19169055858080610f77565b9091602060018192858b015181550193019101610f59565b610fe790600384016000526020600020601f840160051c810191602085106102d057601f0160051c01906116ff565b85610be9565b60405162461bcd60e51b8152602060048201526016602482015275125b9d985b1a590818985d18da081d1bdad95b88125160521b6044820152606490fd5b3461017e57600036600319011261017e57600454600019810190811161105657602090604051908152f35b634e487b7160e01b600052601160045260246000fd5b3461017e57602036600319011261017e576004356000526001602052604060002080546001820154906111536002840154936110aa600382016113ed565b90600481015491600582015460068301549061112e60078501549360ff60096110d5600889016113ed565b97015416986040519b8c9b610180928d5260208d01526110fb60408d0160ff8316611492565b61110e60608d0160ff8360081c1661149f565b60101c6001600160a01b031660808c015260a08b018190528a01906114ac565b9460c089015260e08801526101008701526101208601528482036101408601526114ac565b9015156101608301520390f35b3461017e57602036600319011261017e5760043560009081526001602052604090206002810180546111a0601082901c6001600160a01b0316331461167c565b60ff8160081c166005811015610699576111c95761ff0019166101001790554260069190910155005b60405162461bcd60e51b815260206004820152601060248201526f53746570206e6f742070656e64696e6760801b6044820152606490fd5b3461017e5760208060031936011261017e576004359061121f611824565b81600052600290600281526040600020600180820193845490811561131d5760005b8281106112a35787877f967788395c5b28fd64cc50a91a7fc292da87eb184a7d9e14416ea9803d9ad6d66040898960028101600460ff19825416179055600442910155600554936112918561166d565b600555549082519182524290820152a3005b6112ad818861163f565b90549060031b1c60005283865260ff826040600020015460081c166005811015610699576004036112df578301611241565b60405162461bcd60e51b8152600481018790526016602482015275139bdd08185b1b081cdd195c1cc81d995c9a599a595960521b6044820152606490fd5b60405162461bcd60e51b81526004810186905260136024820152724e6f2070726f63657373696e6720737465707360681b6044820152606490fd5b90600182811c92168015611388575b602083101461137257565b634e487b7160e01b600052602260045260246000fd5b91607f1691611367565b610180810190811067ffffffffffffffff8211176102da57604052565b60a0810190811067ffffffffffffffff8211176102da57604052565b90601f8019910116810190811067ffffffffffffffff8211176102da57604052565b9060405191826000825461140081611358565b908184526020946001916001811690816000146114705750600114611431575b50505061142f925003836113cb565b565b600090815285812095935091905b81831061145857505061142f9350820101388080611420565b8554888401850152948501948794509183019161143f565b9250505061142f94925060ff191682840152151560051b820101388080611420565b90600a8210156106995752565b9060058210156106995752565b919082519283825260005b8481106114d8575050826000602080949584010152601f8019910116010190565b6020818301810151848301820152016114b7565b81601f8201121561017e5780359067ffffffffffffffff82116102da5760405192611521601f8401601f1916602001856113cb565b8284526020838301011161017e57816000926020809301838601378301015290565b906115e56115a7610180845184526020850151602085015261156d60408601516040860190611492565b61157f6060860151606086019061149f565b6080858101516001600160a01b03169085015260a085810151908501829052908401906114ac565b60c084015160c084015260e084015160e0840152610100808501519084015261012080850151908401526101408085015190848303908501526114ac565b9161016080910151151591015290565b90815180825260208080930193019160005b828110611615575050505090565b835185529381019392810192600101611607565b600435906001600160a01b038216820361017e57565b80548210156116575760005260206000200190600090565b634e487b7160e01b600052603260045260246000fd5b60001981146110565760010190565b1561168357565b60405162461bcd60e51b815260206004820152601a60248201527f4e6f74207468652061737369676e65642070726f636573736f720000000000006044820152606490fd5b9060058110156106995761ff0082549160081b169061ff001916179055565b600a8210156106995752565b60058210156106995752565b81811061170a575050565b600081556001016116ff565b67ffffffffffffffff81116102da5760051b60200190565b8054600160401b8110156102da5761174b9160018201815561163f565b819291549060031b91821b91600019901b1916179055565b6040519061177082611392565b81610160600091828152826020820152826040820152826060820152826080820152606060a08201528260c08201528260e0820152826101008201528261012082015260606101408201520152565b90604051918281549182825260209260208301916000526020600020936000905b8282106117f65750505061142f925003836113cb565b8554845260019586019588955093810193909101906117e0565b80518210156116575760209160051b010190565b6000546001600160a01b0316330361183857565b60405163118cdaa760e01b8152336004820152602490fdfea26469706673582212200d7a478357e2970de81e5794e52e7ad0e9e7d1b186360ca57b48701cfa77e4b664736f6c63430008180033","opcodes":"PUSH1 0x80 DUP1 PUSH1 0x40 MSTORE CALLVALUE PUSH2 0x84 JUMPI CALLER ISZERO PUSH2 0x6E JUMPI PUSH1 0x0 DUP1 SLOAD CALLER PUSH1 0x1 PUSH1 0x1 PUSH1 0xA0 SHL SUB NOT DUP3 AND DUP2 OR DUP4 SSTORE PUSH1 0x40 MLOAD SWAP3 SWAP1 SWAP2 PUSH1 0x1 PUSH1 0x1 PUSH1 0xA0 SHL SUB AND SWAP1 PUSH32 0x8BE0079C531659141344CD1FD0A4F28419497F9722A3DAAFE3B4186F6B6457E0 SWAP1 DUP1 LOG3 PUSH1 0x1 PUSH1 0x4 SSTORE PUSH1 0x1 PUSH1 0x5 SSTORE PUSH2 0x1886 SWAP1 DUP2 PUSH2 0x8A DUP3 CODECOPY RETURN JUMPDEST PUSH4 0x1E4FBDF7 PUSH1 0xE0 SHL DUP2 MSTORE PUSH1 0x0 PUSH1 0x4 DUP3 ADD MSTORE PUSH1 0x24 SWAP1 REVERT JUMPDEST PUSH1 0x0 DUP1 REVERT INVALID PUSH1 0x80 PUSH1 0x40 MSTORE PUSH1 0x4 CALLDATASIZE LT ISZERO PUSH2 0x12 JUMPI PUSH1 0x0 DUP1 REVERT JUMPDEST PUSH1 0xE0 PUSH1 0x0 CALLDATALOAD PUSH1 0xE0 SHR SWAP1 DUP2 PUSH3 0xEF437 EQ PUSH2 0x1201 JUMPI DUP2 PUSH4 0x17A8791D EQ PUSH2 0x1160 JUMPI DUP2 PUSH4 0x25FF9818 EQ PUSH2 0x106C JUMPI DUP2 PUSH4 0x2AA70469 EQ PUSH2 0x102B JUMPI DUP2 PUSH4 0x3FED564C EQ PUSH2 0xA68 JUMPI DUP2 PUSH4 0x46FB00CC EQ PUSH2 0xA0F JUMPI DUP2 PUSH4 0x644F1EC5 EQ PUSH2 0x9F1 JUMPI DUP2 PUSH4 0x715018A6 EQ PUSH2 0x998 JUMPI DUP2 PUSH4 0x8462A7F8 EQ PUSH2 0x97A JUMPI DUP2 PUSH4 0x8574D2EE EQ PUSH2 0x8A4 JUMPI DUP2 PUSH4 0x87E9188D EQ PUSH2 0x7B5 JUMPI DUP2 PUSH4 0x8DA5CB5B EQ PUSH2 0x78C JUMPI DUP2 PUSH4 0xC7D068CB EQ PUSH2 0x6AF JUMPI DUP2 PUSH4 0xDC1EA1DD EQ PUSH2 0x5A5 JUMPI DUP2 PUSH4 0xDF38A976 EQ PUSH2 0x54C JUMPI DUP2 PUSH4 0xE0D6A3D4 EQ PUSH2 0x4FA JUMPI DUP2 PUSH4 0xE9A34D95 EQ PUSH2 0x329 JUMPI POP DUP1 PUSH4 0xF0ABB84E EQ PUSH2 0x183 JUMPI PUSH4 0xF2FDE38B EQ PUSH2 0xF0 JUMPI PUSH1 0x0 DUP1 REVERT JUMPDEST CALLVALUE PUSH2 0x17E JUMPI PUSH1 0x20 CALLDATASIZE PUSH1 0x3 NOT ADD SLT PUSH2 0x17E JUMPI PUSH2 0x109 PUSH2 0x1629 JUMP JUMPDEST PUSH2 0x111 PUSH2 0x1824 JUMP JUMPDEST PUSH1 0x1 PUSH1 0x1 PUSH1 0xA0 SHL SUB SWAP1 DUP2 AND SWAP1 DUP2 ISZERO PUSH2 0x165 JUMPI PUSH1 0x0 SLOAD DUP3 PUSH12 0xFFFFFFFFFFFFFFFFFFFFFFFF PUSH1 0xA0 SHL DUP3 AND OR PUSH1 0x0 SSTORE AND PUSH32 0x8BE0079C531659141344CD1FD0A4F28419497F9722A3DAAFE3B4186F6B6457E0 PUSH1 0x0 DUP1 LOG3 STOP JUMPDEST PUSH1 0x40 MLOAD PUSH4 0x1E4FBDF7 PUSH1 0xE0 SHL DUP2 MSTORE PUSH1 0x0 PUSH1 0x4 DUP3 ADD MSTORE PUSH1 0x24 SWAP1 REVERT JUMPDEST PUSH1 0x0 DUP1 REVERT JUMPDEST CALLVALUE PUSH2 0x17E JUMPI PUSH1 0x40 CALLDATASIZE PUSH1 0x3 NOT ADD SLT PUSH2 0x17E JUMPI PUSH8 0xFFFFFFFFFFFFFFFF PUSH1 0x24 CALLDATALOAD DUP2 DUP2 GT PUSH2 0x17E JUMPI PUSH2 0x1B5 SWAP1 CALLDATASIZE SWAP1 PUSH1 0x4 ADD PUSH2 0x14EC JUMP JUMPDEST SWAP1 PUSH1 0x4 CALLDATALOAD PUSH1 0x0 MSTORE PUSH1 0x1 SWAP1 PUSH1 0x20 PUSH1 0x1 DUP2 MSTORE PUSH1 0x40 PUSH1 0x0 KECCAK256 PUSH1 0x1 DUP1 PUSH1 0xA0 SHL SUB PUSH1 0x2 DUP3 ADD SLOAD PUSH1 0x10 SHR AND CALLER SUB PUSH2 0x2F0 JUMPI PUSH1 0x8 ADD SWAP3 DUP5 MLOAD SWAP3 DUP4 GT PUSH2 0x2DA JUMPI PUSH2 0x1F7 DUP5 SLOAD PUSH2 0x1358 JUMP JUMPDEST PUSH1 0x1F DUP2 GT PUSH2 0x29F JUMPI JUMPDEST POP DUP2 PUSH1 0x1F DUP5 GT PUSH1 0x1 EQ PUSH2 0x23D JUMPI POP POP DUP2 SWAP3 SWAP4 PUSH1 0x0 SWAP3 PUSH2 0x232 JUMPI JUMPDEST POP POP PUSH1 0x0 NOT PUSH1 0x3 DUP4 SWAP1 SHL SHR NOT AND PUSH1 0x1 SWAP2 SWAP1 SWAP2 SHL OR SWAP1 SSTORE STOP JUMPDEST ADD MLOAD SWAP1 POP DUP4 DUP1 PUSH2 0x21A JUMP JUMPDEST PUSH1 0x0 DUP6 DUP2 MSTORE DUP2 DUP2 KECCAK256 SWAP4 SWAP3 PUSH1 0x1F NOT DUP7 AND SWAP3 SWAP1 JUMPDEST DUP4 DUP4 LT PUSH2 0x288 JUMPI POP POP POP SWAP5 DUP4 PUSH1 0x1 SWAP6 SWAP7 LT PUSH2 0x26F JUMPI JUMPDEST POP POP POP DUP2 SHL ADD SWAP1 SSTORE STOP JUMPDEST ADD MLOAD PUSH1 0x0 NOT PUSH1 0xF8 DUP5 PUSH1 0x3 SHL AND SHR NOT AND SWAP1 SSTORE DUP4 DUP1 DUP1 PUSH2 0x265 JUMP JUMPDEST DUP9 DUP6 ADD MLOAD DUP7 SSTORE SWAP5 DUP6 ADD SWAP5 SWAP4 DUP2 ADD SWAP4 SWAP2 DUP2 ADD SWAP2 PUSH2 0x24F JUMP JUMPDEST PUSH2 0x2CA SWAP1 DUP6 PUSH1 0x0 MSTORE DUP4 PUSH1 0x0 KECCAK256 PUSH1 0x1F DUP7 ADD PUSH1 0x5 SHR DUP2 ADD SWAP2 DUP6 DUP8 LT PUSH2 0x2D0 JUMPI JUMPDEST PUSH1 0x1F ADD PUSH1 0x5 SHR ADD SWAP1 PUSH2 0x16FF JUMP JUMPDEST DUP6 PUSH2 0x200 JUMP JUMPDEST SWAP1 SWAP2 POP DUP2 SWAP1 PUSH2 0x2BD JUMP JUMPDEST PUSH4 0x4E487B71 PUSH1 0xE0 SHL PUSH1 0x0 MSTORE PUSH1 0x41 PUSH1 0x4 MSTORE PUSH1 0x24 PUSH1 0x0 REVERT JUMPDEST PUSH1 0x40 MLOAD PUSH3 0x461BCD PUSH1 0xE5 SHL DUP2 MSTORE PUSH1 0x4 DUP2 ADD DUP4 SWAP1 MSTORE PUSH1 0x11 PUSH1 0x24 DUP3 ADD MSTORE PUSH17 0x2737BA103A343290383937B1B2B9B9B7B9 PUSH1 0x79 SHL PUSH1 0x44 DUP3 ADD MSTORE PUSH1 0x64 SWAP1 REVERT JUMPDEST CALLVALUE PUSH2 0x17E JUMPI PUSH1 0x20 DUP1 PUSH1 0x3 NOT CALLDATASIZE ADD SLT PUSH2 0x17E JUMPI PUSH1 0x4 CALLDATALOAD PUSH1 0x0 MSTORE PUSH1 0x2 DUP1 DUP3 MSTORE PUSH1 0x1 SWAP1 PUSH1 0x1 PUSH1 0x40 PUSH1 0x0 KECCAK256 ADD SWAP4 DUP5 SLOAD SWAP2 PUSH2 0x35E DUP4 PUSH2 0x1716 JUMP JUMPDEST SWAP6 PUSH2 0x36C PUSH1 0x40 MLOAD SWAP8 DUP9 PUSH2 0x13CB JUMP JUMPDEST DUP4 DUP8 MSTORE PUSH2 0x378 DUP5 PUSH2 0x1716 JUMP JUMPDEST PUSH1 0x1F NOT ADD PUSH1 0x0 JUMPDEST DUP2 DUP2 LT PUSH2 0x4DE JUMPI POP POP PUSH1 0x0 JUMPDEST DUP5 DUP2 LT PUSH2 0x3F4 JUMPI DUP8 DUP8 DUP8 PUSH1 0x40 MLOAD SWAP2 DUP1 DUP4 ADD DUP2 DUP5 MSTORE DUP5 MLOAD DUP1 SWAP2 MSTORE PUSH1 0x40 DUP5 ADD SWAP2 DUP1 PUSH1 0x40 DUP4 PUSH1 0x5 SHL DUP8 ADD ADD SWAP7 ADD SWAP3 PUSH1 0x0 SWAP1 JUMPDEST DUP4 DUP3 LT PUSH2 0x3C7 JUMPI DUP7 DUP9 SUB DUP8 RETURN JUMPDEST SWAP1 SWAP2 SWAP3 SWAP4 SWAP5 DUP4 DUP1 PUSH2 0x3E3 DUP4 SWAP11 PUSH1 0x3F NOT DUP12 DUP3 SUB ADD DUP7 MSTORE DUP10 MLOAD PUSH2 0x1543 JUMP JUMPDEST SWAP10 SWAP8 ADD SWAP6 SWAP5 SWAP4 SWAP2 SWAP1 SWAP2 ADD SWAP2 ADD PUSH2 0x3BA JUMP JUMPDEST SWAP5 DUP6 PUSH2 0x402 DUP3 SWAP10 SWAP8 DUP5 PUSH2 0x163F JUMP JUMPDEST SWAP1 SLOAD PUSH1 0x3 SWAP2 DUP3 SHL SHR PUSH1 0x0 MSTORE DUP3 DUP10 MSTORE PUSH1 0x40 PUSH1 0x0 KECCAK256 SWAP1 PUSH1 0x9 PUSH1 0x40 MLOAD SWAP3 PUSH2 0x425 DUP5 PUSH2 0x1392 JUMP JUMPDEST DUP1 SLOAD DUP5 MSTORE DUP6 DUP2 ADD SLOAD DUP13 DUP6 ADD MSTORE PUSH2 0x4AE DUP9 DUP3 ADD SLOAD PUSH2 0x479 PUSH1 0xFF SWAP6 PUSH2 0x44D DUP8 DUP5 AND PUSH1 0x40 DUP11 ADD PUSH2 0x16E7 JUMP JUMPDEST PUSH1 0x8 SWAP3 PUSH2 0x461 DUP9 DUP3 DUP7 SHR AND PUSH1 0x60 DUP12 ADD PUSH2 0x16F3 JUMP JUMPDEST PUSH1 0x10 SHR PUSH1 0x1 PUSH1 0x1 PUSH1 0xA0 SHL SUB AND PUSH1 0x80 DUP10 ADD MSTORE DUP5 ADD PUSH2 0x13ED JUMP JUMPDEST PUSH1 0xA0 DUP8 ADD MSTORE PUSH1 0x4 DUP4 ADD SLOAD PUSH1 0xC0 DUP8 ADD MSTORE PUSH1 0x5 DUP4 ADD SLOAD DUP12 DUP8 ADD MSTORE PUSH1 0x6 DUP4 ADD SLOAD PUSH2 0x100 DUP8 ADD MSTORE PUSH1 0x7 DUP4 ADD SLOAD PUSH2 0x120 DUP8 ADD MSTORE DUP3 ADD PUSH2 0x13ED JUMP JUMPDEST PUSH2 0x140 DUP6 ADD MSTORE ADD SLOAD AND ISZERO ISZERO PUSH2 0x160 DUP3 ADD MSTORE PUSH2 0x4C9 DUP3 DUP10 PUSH2 0x1810 JUMP JUMPDEST MSTORE PUSH2 0x4D4 DUP2 DUP9 PUSH2 0x1810 JUMP JUMPDEST POP ADD SWAP7 SWAP5 SWAP7 PUSH2 0x38B JUMP JUMPDEST DUP8 SWAP1 PUSH2 0x4EB SWAP10 SWAP8 SWAP10 PUSH2 0x1763 JUMP JUMPDEST DUP3 DUP3 DUP11 ADD ADD MSTORE ADD SWAP8 SWAP6 SWAP8 PUSH2 0x37F JUMP JUMPDEST CALLVALUE PUSH2 0x17E JUMPI PUSH1 0x20 CALLDATASIZE PUSH1 0x3 NOT ADD SLT PUSH2 0x17E JUMPI PUSH1 0x1 PUSH1 0x1 PUSH1 0xA0 SHL SUB PUSH2 0x51B PUSH2 0x1629 JUMP JUMPDEST AND PUSH1 0x0 MSTORE PUSH1 0x3 PUSH1 0x20 MSTORE PUSH2 0x548 PUSH2 0x534 PUSH1 0x40 PUSH1 0x0 KECCAK256 PUSH2 0x17BF JUMP JUMPDEST PUSH1 0x40 MLOAD SWAP2 DUP3 SWAP2 PUSH1 0x20 DUP4 MSTORE PUSH1 0x20 DUP4 ADD SWAP1 PUSH2 0x15F5 JUMP JUMPDEST SUB SWAP1 RETURN JUMPDEST CALLVALUE PUSH2 0x17E JUMPI PUSH1 0x40 CALLDATASIZE PUSH1 0x3 NOT ADD SLT PUSH2 0x17E JUMPI PUSH2 0x565 PUSH2 0x1629 JUMP JUMPDEST PUSH1 0x1 PUSH1 0x1 PUSH1 0xA0 SHL SUB AND PUSH1 0x0 SWAP1 DUP2 MSTORE PUSH1 0x3 PUSH1 0x20 MSTORE PUSH1 0x40 SWAP1 KECCAK256 DUP1 SLOAD PUSH1 0x24 CALLDATALOAD SWAP2 SWAP1 DUP3 LT ISZERO PUSH2 0x17E JUMPI PUSH1 0x20 SWAP2 PUSH2 0x596 SWAP2 PUSH2 0x163F JUMP JUMPDEST SWAP1 SLOAD SWAP1 PUSH1 0x3 SHL SHR PUSH1 0x40 MLOAD SWAP1 DUP2 MSTORE RETURN JUMPDEST CALLVALUE PUSH2 0x17E JUMPI PUSH1 0x40 CALLDATASIZE PUSH1 0x3 NOT ADD SLT PUSH2 0x17E JUMPI PUSH1 0x4 CALLDATALOAD PUSH1 0x24 CALLDATALOAD DUP1 ISZERO ISZERO SWAP1 DUP2 DUP2 SUB PUSH2 0x17E JUMPI PUSH2 0x5CF PUSH2 0x1824 JUMP JUMPDEST DUP3 PUSH1 0x0 MSTORE PUSH1 0x1 PUSH1 0x20 MSTORE PUSH1 0x40 PUSH1 0x0 KECCAK256 SWAP2 PUSH1 0x2 DUP4 ADD SWAP3 PUSH1 0xFF DUP5 SLOAD PUSH1 0x8 SHR AND PUSH1 0x5 DUP2 LT ISZERO PUSH2 0x699 JUMPI PUSH1 0x2 SUB PUSH2 0x65F JUMPI PUSH32 0x8674BA660EC7215A08DC6493F787CF7B8FBC8BEA93F66146722EB56A354D95ED SWAP4 DUP4 PUSH2 0x63C PUSH1 0x40 SWAP6 PUSH1 0x9 PUSH2 0x649 SWAP6 ADD SWAP1 PUSH1 0xFF DUP1 NOT DUP4 SLOAD AND SWAP2 ISZERO ISZERO AND OR SWAP1 SSTORE JUMP JUMPDEST ISZERO PUSH2 0x657 JUMPI PUSH1 0x4 SWAP1 PUSH2 0x16C8 JUMP JUMPDEST DUP2 MLOAD SWAP1 CALLER DUP3 MSTORE PUSH1 0x20 DUP3 ADD MSTORE LOG2 STOP JUMPDEST PUSH1 0x3 SWAP1 PUSH2 0x16C8 JUMP JUMPDEST PUSH1 0x40 MLOAD PUSH3 0x461BCD PUSH1 0xE5 SHL DUP2 MSTORE PUSH1 0x20 PUSH1 0x4 DUP3 ADD MSTORE PUSH1 0x12 PUSH1 0x24 DUP3 ADD MSTORE PUSH18 0x14DD195C081B9BDD0818DBDB5C1B195D1959 PUSH1 0x72 SHL PUSH1 0x44 DUP3 ADD MSTORE PUSH1 0x64 SWAP1 REVERT JUMPDEST PUSH4 0x4E487B71 PUSH1 0xE0 SHL PUSH1 0x0 MSTORE PUSH1 0x21 PUSH1 0x4 MSTORE PUSH1 0x24 PUSH1 0x0 REVERT JUMPDEST CALLVALUE PUSH2 0x17E JUMPI PUSH1 0x20 DUP1 PUSH1 0x3 NOT CALLDATASIZE ADD SLT PUSH2 0x17E JUMPI PUSH1 0x0 PUSH1 0x80 PUSH1 0x40 MLOAD PUSH2 0x6D1 DUP2 PUSH2 0x13AF JUMP JUMPDEST DUP3 DUP2 MSTORE PUSH1 0x60 DUP5 DUP3 ADD MSTORE DUP3 PUSH1 0x40 DUP3 ADD MSTORE DUP3 PUSH1 0x60 DUP3 ADD MSTORE ADD MSTORE PUSH1 0x4 CALLDATALOAD PUSH1 0x0 MSTORE PUSH1 0x2 DUP2 MSTORE PUSH1 0x40 PUSH1 0x0 KECCAK256 PUSH1 0x40 MLOAD SWAP1 PUSH2 0x704 DUP3 PUSH2 0x13AF JUMP JUMPDEST DUP1 SLOAD DUP3 MSTORE PUSH2 0x714 PUSH1 0x1 DUP3 ADD PUSH2 0x17BF JUMP JUMPDEST DUP4 DUP4 ADD SWAP1 DUP2 MSTORE PUSH1 0xFF PUSH1 0x2 DUP4 ADD SLOAD AND SWAP2 PUSH2 0x731 PUSH1 0x40 DUP6 ADD SWAP4 DUP5 PUSH2 0x16F3 JUMP JUMPDEST PUSH2 0x77C PUSH2 0x770 PUSH1 0x4 PUSH1 0x3 DUP5 ADD SLOAD SWAP4 PUSH1 0x60 DUP9 ADD SWAP5 DUP6 MSTORE ADD SLOAD SWAP4 PUSH1 0x80 DUP8 ADD SWAP5 DUP6 MSTORE PUSH1 0x40 MLOAD SWAP8 DUP9 SWAP8 DUP2 DUP10 MSTORE MLOAD SWAP1 DUP9 ADD MSTORE MLOAD PUSH1 0xA0 PUSH1 0x40 DUP9 ADD MSTORE PUSH1 0xC0 DUP8 ADD SWAP1 PUSH2 0x15F5 JUMP JUMPDEST SWAP4 MLOAD PUSH1 0x60 DUP7 ADD SWAP1 PUSH2 0x149F JUMP JUMPDEST MLOAD PUSH1 0x80 DUP5 ADD MSTORE MLOAD PUSH1 0xA0 DUP4 ADD MSTORE SUB SWAP1 RETURN JUMPDEST CALLVALUE PUSH2 0x17E JUMPI PUSH1 0x0 CALLDATASIZE PUSH1 0x3 NOT ADD SLT PUSH2 0x17E JUMPI PUSH1 0x0 SLOAD PUSH1 0x40 MLOAD PUSH1 0x1 PUSH1 0x1 PUSH1 0xA0 SHL SUB SWAP1 SWAP2 AND DUP2 MSTORE PUSH1 0x20 SWAP1 RETURN JUMPDEST CALLVALUE PUSH2 0x17E JUMPI PUSH1 0x20 CALLDATASIZE PUSH1 0x3 NOT ADD SLT PUSH2 0x17E JUMPI PUSH2 0x7CE PUSH2 0x1763 JUMP JUMPDEST POP PUSH1 0x4 CALLDATALOAD PUSH1 0x0 MSTORE PUSH1 0x1 PUSH1 0x20 MSTORE PUSH2 0x548 PUSH1 0x40 PUSH1 0x0 KECCAK256 PUSH1 0xFF PUSH1 0x9 PUSH1 0x40 MLOAD SWAP3 PUSH2 0x7F3 DUP5 PUSH2 0x1392 JUMP JUMPDEST DUP1 SLOAD DUP5 MSTORE PUSH1 0x1 DUP2 ADD SLOAD PUSH1 0x20 DUP6 ADD MSTORE PUSH1 0x2 DUP2 ADD SLOAD PUSH2 0x815 DUP5 DUP3 AND PUSH1 0x40 DUP8 ADD PUSH2 0x16E7 JUMP JUMPDEST PUSH2 0x827 DUP5 DUP3 PUSH1 0x8 SHR AND PUSH1 0x60 DUP8 ADD PUSH2 0x16F3 JUMP JUMPDEST PUSH1 0x10 SHR PUSH1 0x1 PUSH1 0x1 PUSH1 0xA0 SHL SUB AND PUSH1 0x80 DUP6 ADD MSTORE PUSH2 0x844 PUSH1 0x3 DUP3 ADD PUSH2 0x13ED JUMP JUMPDEST PUSH1 0xA0 DUP6 ADD MSTORE PUSH1 0x4 DUP2 ADD SLOAD PUSH1 0xC0 DUP6 ADD MSTORE PUSH1 0x5 DUP2 ADD SLOAD PUSH1 0xE0 DUP6 ADD MSTORE PUSH1 0x6 DUP2 ADD SLOAD PUSH2 0x100 DUP6 ADD MSTORE PUSH1 0x7 DUP2 ADD SLOAD PUSH2 0x120 DUP6 ADD MSTORE PUSH2 0x87F PUSH1 0x8 DUP3 ADD PUSH2 0x13ED JUMP JUMPDEST PUSH2 0x140 DUP6 ADD MSTORE ADD SLOAD AND ISZERO ISZERO PUSH2 0x160 DUP3 ADD MSTORE PUSH1 0x40 MLOAD SWAP2 DUP3 SWAP2 PUSH1 0x20 DUP4 MSTORE PUSH1 0x20 DUP4 ADD SWAP1 PUSH2 0x1543 JUMP JUMPDEST CALLVALUE PUSH2 0x17E JUMPI PUSH1 0x20 CALLDATASIZE PUSH1 0x3 NOT ADD SLT PUSH2 0x17E JUMPI PUSH1 0x4 CALLDATALOAD PUSH1 0x0 DUP2 DUP2 MSTORE PUSH1 0x1 PUSH1 0x20 MSTORE PUSH1 0x40 SWAP1 KECCAK256 PUSH1 0x2 DUP2 ADD DUP1 SLOAD PUSH2 0x8E4 PUSH1 0x10 DUP3 SWAP1 SHR PUSH1 0x1 PUSH1 0x1 PUSH1 0xA0 SHL SUB AND CALLER EQ PUSH2 0x167C JUMP JUMPDEST PUSH1 0xFF DUP2 PUSH1 0x8 SHR AND PUSH1 0x5 DUP2 LT ISZERO PUSH2 0x699 JUMPI PUSH1 0x1 SUB PUSH2 0x93E JUMPI PUSH2 0x200 SWAP1 PUSH2 0xFF00 NOT AND OR SWAP1 SSTORE PUSH1 0x7 TIMESTAMP SWAP2 ADD SSTORE PUSH32 0xDC968A9CB917134DB084D0558AA2B59B6BB86AF1B0F4208D26863725E048D4AB PUSH1 0x40 DUP1 MLOAD CALLER DUP2 MSTORE TIMESTAMP PUSH1 0x20 DUP3 ADD MSTORE LOG2 STOP JUMPDEST PUSH1 0x40 MLOAD PUSH3 0x461BCD PUSH1 0xE5 SHL DUP2 MSTORE PUSH1 0x20 PUSH1 0x4 DUP3 ADD MSTORE PUSH1 0x14 PUSH1 0x24 DUP3 ADD MSTORE PUSH20 0x53746570206E6F7420696E2070726F6772657373 PUSH1 0x60 SHL PUSH1 0x44 DUP3 ADD MSTORE PUSH1 0x64 SWAP1 REVERT JUMPDEST CALLVALUE PUSH2 0x17E JUMPI PUSH1 0x0 CALLDATASIZE PUSH1 0x3 NOT ADD SLT PUSH2 0x17E JUMPI PUSH1 0x20 PUSH1 0x5 SLOAD PUSH1 0x40 MLOAD SWAP1 DUP2 MSTORE RETURN JUMPDEST CALLVALUE PUSH2 0x17E JUMPI PUSH1 0x0 CALLDATASIZE PUSH1 0x3 NOT ADD SLT PUSH2 0x17E JUMPI PUSH2 0x9B1 PUSH2 0x1824 JUMP JUMPDEST PUSH1 0x0 DUP1 SLOAD PUSH1 0x1 PUSH1 0x1 PUSH1 0xA0 SHL SUB NOT DUP2 AND DUP3 SSTORE PUSH1 0x1 PUSH1 0x1 PUSH1 0xA0 SHL SUB AND PUSH32 0x8BE0079C531659141344CD1FD0A4F28419497F9722A3DAAFE3B4186F6B6457E0 DUP3 DUP1 LOG3 STOP JUMPDEST CALLVALUE PUSH2 0x17E JUMPI PUSH1 0x0 CALLDATASIZE PUSH1 0x3 NOT ADD SLT PUSH2 0x17E JUMPI PUSH1 0x20 PUSH1 0x4 SLOAD PUSH1 0x40 MLOAD SWAP1 DUP2 MSTORE RETURN JUMPDEST CALLVALUE PUSH2 0x17E JUMPI PUSH1 0x20 CALLDATASIZE PUSH1 0x3 NOT ADD SLT PUSH2 0x17E JUMPI PUSH1 0x4 CALLDATALOAD PUSH1 0x0 MSTORE PUSH1 0x2 PUSH1 0x20 MSTORE PUSH1 0x80 PUSH1 0x40 PUSH1 0x0 KECCAK256 DUP1 SLOAD SWAP1 PUSH1 0xFF PUSH1 0x2 DUP3 ADD SLOAD AND SWAP1 PUSH2 0xA5C PUSH1 0x4 PUSH1 0x3 DUP4 ADD SLOAD SWAP3 ADD SLOAD SWAP3 PUSH1 0x40 MLOAD SWAP5 DUP6 MSTORE PUSH1 0x20 DUP6 ADD SWAP1 PUSH2 0x149F JUMP JUMPDEST PUSH1 0x40 DUP4 ADD MSTORE PUSH1 0x60 DUP3 ADD MSTORE RETURN JUMPDEST CALLVALUE PUSH2 0x17E JUMPI PUSH1 0xC0 CALLDATASIZE PUSH1 0x3 NOT ADD SLT PUSH2 0x17E JUMPI PUSH1 0xA PUSH1 0x24 CALLDATALOAD LT ISZERO PUSH2 0x17E JUMPI PUSH1 0x44 CALLDATALOAD PUSH8 0xFFFFFFFFFFFFFFFF DUP2 GT PUSH2 0x17E JUMPI PUSH2 0xAA4 SWAP1 CALLDATASIZE SWAP1 PUSH1 0x4 ADD PUSH2 0x14EC JUMP JUMPDEST PUSH1 0xA4 CALLDATALOAD PUSH8 0xFFFFFFFFFFFFFFFF DUP2 GT PUSH2 0x17E JUMPI PUSH2 0xAC4 SWAP1 CALLDATASIZE SWAP1 PUSH1 0x4 ADD PUSH2 0x14EC JUMP JUMPDEST PUSH1 0x4 CALLDATALOAD ISZERO PUSH2 0xFED JUMPI PUSH1 0x4 SLOAD PUSH2 0xAD8 DUP2 PUSH2 0x166D JUMP JUMPDEST PUSH1 0x4 SSTORE PUSH1 0x40 MLOAD SWAP2 PUSH2 0xAE8 DUP4 PUSH2 0x1392 JUMP JUMPDEST DUP2 DUP4 MSTORE PUSH1 0x4 CALLDATALOAD PUSH1 0x20 DUP5 ADD MSTORE PUSH2 0xB02 PUSH1 0x24 CALLDATALOAD PUSH1 0x40 DUP6 ADD PUSH2 0x16E7 JUMP JUMPDEST PUSH1 0x0 PUSH1 0x60 DUP5 ADD MSTORE CALLER PUSH1 0x80 DUP5 ADD MSTORE PUSH1 0xA0 DUP4 ADD SWAP4 DUP5 MSTORE PUSH1 0x64 CALLDATALOAD PUSH1 0xC0 DUP5 ADD MSTORE PUSH1 0x84 CALLDATALOAD PUSH1 0xE0 DUP5 ADD MSTORE PUSH1 0x0 PUSH2 0x100 DUP5 ADD MSTORE PUSH1 0x0 PUSH2 0x120 DUP5 ADD MSTORE PUSH2 0x140 DUP4 ADD MSTORE PUSH1 0x0 PUSH2 0x160 DUP4 ADD MSTORE DUP1 PUSH1 0x0 MSTORE PUSH1 0x1 PUSH1 0x20 MSTORE PUSH1 0x40 PUSH1 0x0 KECCAK256 SWAP3 DUP3 MLOAD DUP5 SSTORE PUSH1 0x20 DUP4 ADD MLOAD PUSH1 0x1 DUP6 ADD SSTORE PUSH1 0x2 DUP5 ADD PUSH1 0x40 DUP5 ADD MLOAD PUSH1 0xA DUP2 LT ISZERO PUSH2 0x699 JUMPI PUSH1 0xFF DUP1 NOT DUP4 SLOAD AND SWAP2 AND OR DUP2 SSTORE PUSH1 0x60 DUP5 ADD MLOAD PUSH1 0x5 DUP2 LT ISZERO PUSH2 0x699 JUMPI PUSH2 0xB97 SWAP1 DUP3 PUSH2 0x16C8 JUMP JUMPDEST PUSH1 0x80 DUP5 ADD MLOAD DUP2 SLOAD PUSH3 0x10000 PUSH1 0x1 PUSH1 0xB0 SHL SUB NOT AND PUSH1 0x10 SWAP2 SWAP1 SWAP2 SHL PUSH3 0x10000 PUSH1 0x1 PUSH1 0xB0 SHL SUB AND OR SWAP1 SSTORE MLOAD DUP1 MLOAD SWAP1 SWAP4 SWAP1 PUSH8 0xFFFFFFFFFFFFFFFF DUP2 GT PUSH2 0x2DA JUMPI PUSH2 0xBE0 PUSH1 0x3 DUP4 ADD SLOAD PUSH2 0x1358 JUMP JUMPDEST PUSH1 0x1F DUP2 GT PUSH2 0xFB8 JUMPI JUMPDEST POP PUSH1 0x20 PUSH1 0x1F DUP3 GT PUSH1 0x1 EQ PUSH2 0xF49 JUMPI DUP2 SWAP3 SWAP4 SWAP5 SWAP6 PUSH1 0x0 SWAP3 PUSH2 0xF3E JUMPI JUMPDEST POP POP DUP2 PUSH1 0x1 SHL SWAP2 PUSH1 0x0 NOT SWAP1 PUSH1 0x3 SHL SHR NOT AND OR PUSH1 0x3 DUP3 ADD SSTORE JUMPDEST PUSH1 0xC0 DUP4 ADD MLOAD PUSH1 0x4 DUP3 ADD SSTORE PUSH1 0xE0 DUP4 ADD MLOAD PUSH1 0x5 DUP3 ADD SSTORE PUSH2 0x100 DUP4 ADD MLOAD PUSH1 0x6 DUP3 ADD SSTORE PUSH2 0x120 DUP4 ADD MLOAD PUSH1 0x7 DUP3 ADD SSTORE PUSH2 0x140 DUP4 ADD MLOAD SWAP3 DUP4 MLOAD PUSH8 0xFFFFFFFFFFFFFFFF DUP2 GT PUSH2 0x2DA JUMPI PUSH2 0xC6B PUSH1 0x8 DUP5 ADD SLOAD PUSH2 0x1358 JUMP JUMPDEST PUSH1 0x1F DUP2 GT PUSH2 0xF09 JUMPI JUMPDEST POP PUSH1 0x20 PUSH1 0x1F DUP3 GT PUSH1 0x1 EQ PUSH2 0xE90 JUMPI SWAP2 DUP2 PUSH2 0x160 SWAP3 PUSH1 0x9 SWAP5 PUSH2 0xCC7 SWAP8 SWAP9 PUSH1 0x0 SWAP3 PUSH2 0xE85 JUMPI JUMPDEST POP POP DUP2 PUSH1 0x1 SHL SWAP2 PUSH1 0x0 NOT SWAP1 PUSH1 0x3 SHL SHR NOT AND OR PUSH1 0x8 DUP6 ADD SSTORE JUMPDEST ADD MLOAD ISZERO ISZERO SWAP2 ADD SWAP1 PUSH1 0xFF DUP1 NOT DUP4 SLOAD AND SWAP2 ISZERO ISZERO AND OR SWAP1 SSTORE JUMP JUMPDEST PUSH1 0x4 CALLDATALOAD PUSH1 0x0 MSTORE PUSH1 0x2 PUSH1 0x20 MSTORE PUSH1 0x3 PUSH1 0x40 PUSH1 0x0 KECCAK256 ADD SLOAD ISZERO PUSH2 0xD60 JUMPI JUMPDEST PUSH1 0x20 SWAP1 PUSH1 0x4 CALLDATALOAD PUSH1 0x0 MSTORE PUSH1 0x2 DUP3 MSTORE PUSH2 0xCFF DUP2 PUSH1 0x1 PUSH1 0x40 PUSH1 0x0 KECCAK256 ADD PUSH2 0x172E JUMP JUMPDEST CALLER PUSH1 0x0 MSTORE PUSH1 0x3 DUP3 MSTORE PUSH2 0xD15 DUP2 PUSH1 0x40 PUSH1 0x0 KECCAK256 PUSH2 0x172E JUMP JUMPDEST PUSH1 0x40 MLOAD PUSH2 0xD24 DUP2 PUSH1 0x24 CALLDATALOAD PUSH2 0x1492 JUMP JUMPDEST CALLER DUP4 DUP3 ADD MSTORE TIMESTAMP PUSH1 0x40 DUP3 ADD MSTORE DUP2 PUSH32 0x9E934AB2FF4ECFB21B349DD48694AD17DACD697F94F0C756E37606949057DA19 PUSH1 0x60 PUSH1 0x4 CALLDATALOAD SWAP4 LOG3 PUSH1 0x40 MLOAD SWAP1 DUP2 MSTORE RETURN JUMPDEST PUSH1 0x40 MLOAD SWAP1 PUSH1 0x20 DUP3 ADD DUP3 DUP2 LT PUSH8 0xFFFFFFFFFFFFFFFF DUP3 GT OR PUSH2 0x2DA JUMPI PUSH1 0x40 MSTORE PUSH1 0x0 DUP3 MSTORE PUSH1 0x40 MLOAD SWAP2 PUSH2 0xD8F DUP4 PUSH2 0x13AF JUMP JUMPDEST PUSH1 0x4 CALLDATALOAD DUP4 MSTORE PUSH1 0x20 DUP4 ADD SWAP1 DUP2 MSTORE PUSH1 0x0 PUSH1 0x40 DUP5 ADD MSTORE TIMESTAMP PUSH1 0x60 DUP5 ADD MSTORE PUSH1 0x0 PUSH1 0x80 DUP5 ADD MSTORE PUSH1 0x4 CALLDATALOAD PUSH1 0x0 MSTORE PUSH1 0x2 PUSH1 0x20 MSTORE PUSH1 0x40 PUSH1 0x0 KECCAK256 SWAP1 DUP4 MLOAD DUP3 SSTORE MLOAD DUP1 MLOAD SWAP1 PUSH8 0xFFFFFFFFFFFFFFFF DUP3 GT PUSH2 0x2DA JUMPI PUSH1 0x1 PUSH1 0x40 SHL DUP3 GT PUSH2 0x2DA JUMPI PUSH1 0x20 SWAP1 PUSH1 0x1 DUP5 ADD SLOAD DUP4 PUSH1 0x1 DUP7 ADD SSTORE DUP1 DUP5 LT PUSH2 0xE65 JUMPI JUMPDEST POP ADD PUSH1 0x1 DUP4 ADD PUSH1 0x0 MSTORE PUSH1 0x20 PUSH1 0x0 KECCAK256 PUSH1 0x0 JUMPDEST DUP4 DUP2 LT PUSH2 0xE51 JUMPI POP POP POP POP PUSH1 0x2 DUP2 ADD PUSH1 0x40 DUP5 ADD MLOAD PUSH1 0x5 DUP2 LT ISZERO PUSH2 0x699 JUMPI PUSH1 0x20 SWAP5 PUSH1 0x4 SWAP3 PUSH1 0x80 SWAP3 PUSH1 0xFF DUP1 NOT DUP4 SLOAD AND SWAP2 AND OR SWAP1 SSTORE PUSH1 0x60 DUP2 ADD MLOAD PUSH1 0x3 DUP6 ADD SSTORE ADD MLOAD SWAP2 ADD SSTORE SWAP1 POP PUSH2 0xCE1 JUMP JUMPDEST PUSH1 0x1 SWAP1 PUSH1 0x20 DUP5 MLOAD SWAP5 ADD SWAP4 DUP2 DUP5 ADD SSTORE ADD PUSH2 0xE09 JUMP JUMPDEST PUSH2 0xE7F SWAP1 PUSH1 0x1 DUP7 ADD PUSH1 0x0 MSTORE DUP5 DUP5 PUSH1 0x0 KECCAK256 SWAP2 DUP3 ADD SWAP2 ADD PUSH2 0x16FF JUMP JUMPDEST DUP7 PUSH2 0xDF8 JUMP JUMPDEST ADD MLOAD SWAP1 POP DUP9 DUP1 PUSH2 0xC98 JUMP JUMPDEST PUSH1 0x8 DUP5 ADD PUSH1 0x0 MSTORE PUSH1 0x20 PUSH1 0x0 KECCAK256 SWAP6 PUSH1 0x0 JUMPDEST PUSH1 0x1F NOT DUP5 AND DUP2 LT PUSH2 0xEF1 JUMPI POP DUP3 PUSH2 0xCC7 SWAP7 SWAP8 PUSH1 0x9 SWAP6 SWAP4 PUSH1 0x1 SWAP4 PUSH2 0x160 SWAP7 PUSH1 0x1F NOT DUP2 AND LT PUSH2 0xED8 JUMPI JUMPDEST POP POP POP DUP2 SHL ADD PUSH1 0x8 DUP6 ADD SSTORE PUSH2 0xCB0 JUMP JUMPDEST ADD MLOAD PUSH1 0x0 NOT PUSH1 0xF8 DUP5 PUSH1 0x3 SHL AND SHR NOT AND SWAP1 SSTORE DUP9 DUP1 DUP1 PUSH2 0xEC8 JUMP JUMPDEST DUP3 DUP3 ADD MLOAD DUP9 SSTORE PUSH1 0x1 SWAP1 SWAP8 ADD SWAP7 PUSH1 0x20 SWAP3 DUP4 ADD SWAP3 ADD PUSH2 0xEA0 JUMP JUMPDEST PUSH2 0xF38 SWAP1 PUSH1 0x8 DUP6 ADD PUSH1 0x0 MSTORE PUSH1 0x20 PUSH1 0x0 KECCAK256 PUSH1 0x1F DUP5 ADD PUSH1 0x5 SHR DUP2 ADD SWAP2 PUSH1 0x20 DUP6 LT PUSH2 0x2D0 JUMPI PUSH1 0x1F ADD PUSH1 0x5 SHR ADD SWAP1 PUSH2 0x16FF JUMP JUMPDEST DUP6 PUSH2 0xC74 JUMP JUMPDEST ADD MLOAD SWAP1 POP DUP6 DUP1 PUSH2 0xC04 JUMP JUMPDEST PUSH1 0x3 DUP4 ADD PUSH1 0x0 MSTORE PUSH1 0x20 PUSH1 0x0 KECCAK256 SWAP1 PUSH1 0x0 JUMPDEST PUSH1 0x1F NOT DUP5 AND DUP2 LT PUSH2 0xFA0 JUMPI POP PUSH1 0x1 SWAP4 SWAP5 SWAP6 SWAP7 DUP4 PUSH1 0x1F NOT DUP2 AND LT PUSH2 0xF87 JUMPI JUMPDEST POP POP POP DUP2 SHL ADD PUSH1 0x3 DUP3 ADD SSTORE PUSH2 0xC1C JUMP JUMPDEST ADD MLOAD PUSH1 0x0 NOT PUSH1 0xF8 DUP5 PUSH1 0x3 SHL AND SHR NOT AND SWAP1 SSTORE DUP6 DUP1 DUP1 PUSH2 0xF77 JUMP JUMPDEST SWAP1 SWAP2 PUSH1 0x20 PUSH1 0x1 DUP2 SWAP3 DUP6 DUP12 ADD MLOAD DUP2 SSTORE ADD SWAP4 ADD SWAP2 ADD PUSH2 0xF59 JUMP JUMPDEST PUSH2 0xFE7 SWAP1 PUSH1 0x3 DUP5 ADD PUSH1 0x0 MSTORE PUSH1 0x20 PUSH1 0x0 KECCAK256 PUSH1 0x1F DUP5 ADD PUSH1 0x5 SHR DUP2 ADD SWAP2 PUSH1 0x20 DUP6 LT PUSH2 0x2D0 JUMPI PUSH1 0x1F ADD PUSH1 0x5 SHR ADD SWAP1 PUSH2 0x16FF JUMP JUMPDEST DUP6 PUSH2 0xBE9 JUMP JUMPDEST PUSH1 0x40 MLOAD PUSH3 0x461BCD PUSH1 0xE5 SHL DUP2 MSTORE PUSH1 0x20 PUSH1 0x4 DUP3 ADD MSTORE PUSH1 0x16 PUSH1 0x24 DUP3 ADD MSTORE PUSH22 0x125B9D985B1A590818985D18DA081D1BDAD95B881251 PUSH1 0x52 SHL PUSH1 0x44 DUP3 ADD MSTORE PUSH1 0x64 SWAP1 REVERT JUMPDEST CALLVALUE PUSH2 0x17E JUMPI PUSH1 0x0 CALLDATASIZE PUSH1 0x3 NOT ADD SLT PUSH2 0x17E JUMPI PUSH1 0x4 SLOAD PUSH1 0x0 NOT DUP2 ADD SWAP1 DUP2 GT PUSH2 0x1056 JUMPI PUSH1 0x20 SWAP1 PUSH1 0x40 MLOAD SWAP1 DUP2 MSTORE RETURN JUMPDEST PUSH4 0x4E487B71 PUSH1 0xE0 SHL PUSH1 0x0 MSTORE PUSH1 0x11 PUSH1 0x4 MSTORE PUSH1 0x24 PUSH1 0x0 REVERT JUMPDEST CALLVALUE PUSH2 0x17E JUMPI PUSH1 0x20 CALLDATASIZE PUSH1 0x3 NOT ADD SLT PUSH2 0x17E JUMPI PUSH1 0x4 CALLDATALOAD PUSH1 0x0 MSTORE PUSH1 0x1 PUSH1 0x20 MSTORE PUSH1 0x40 PUSH1 0x0 KECCAK256 DUP1 SLOAD PUSH1 0x1 DUP3 ADD SLOAD SWAP1 PUSH2 0x1153 PUSH1 0x2 DUP5 ADD SLOAD SWAP4 PUSH2 0x10AA PUSH1 0x3 DUP3 ADD PUSH2 0x13ED JUMP JUMPDEST SWAP1 PUSH1 0x4 DUP2 ADD SLOAD SWAP2 PUSH1 0x5 DUP3 ADD SLOAD PUSH1 0x6 DUP4 ADD SLOAD SWAP1 PUSH2 0x112E PUSH1 0x7 DUP6 ADD SLOAD SWAP4 PUSH1 0xFF PUSH1 0x9 PUSH2 0x10D5 PUSH1 0x8 DUP10 ADD PUSH2 0x13ED JUMP JUMPDEST SWAP8 ADD SLOAD AND SWAP9 PUSH1 0x40 MLOAD SWAP12 DUP13 SWAP12 PUSH2 0x180 SWAP3 DUP14 MSTORE PUSH1 0x20 DUP14 ADD MSTORE PUSH2 0x10FB PUSH1 0x40 DUP14 ADD PUSH1 0xFF DUP4 AND PUSH2 0x1492 JUMP JUMPDEST PUSH2 0x110E PUSH1 0x60 DUP14 ADD PUSH1 0xFF DUP4 PUSH1 0x8 SHR AND PUSH2 0x149F JUMP JUMPDEST PUSH1 0x10 SHR PUSH1 0x1 PUSH1 0x1 PUSH1 0xA0 SHL SUB AND PUSH1 0x80 DUP13 ADD MSTORE PUSH1 0xA0 DUP12 ADD DUP2 SWAP1 MSTORE DUP11 ADD SWAP1 PUSH2 0x14AC JUMP JUMPDEST SWAP5 PUSH1 0xC0 DUP10 ADD MSTORE PUSH1 0xE0 DUP9 ADD MSTORE PUSH2 0x100 DUP8 ADD MSTORE PUSH2 0x120 DUP7 ADD MSTORE DUP5 DUP3 SUB PUSH2 0x140 DUP7 ADD MSTORE PUSH2 0x14AC JUMP JUMPDEST SWAP1 ISZERO ISZERO PUSH2 0x160 DUP4 ADD MSTORE SUB SWAP1 RETURN JUMPDEST CALLVALUE PUSH2 0x17E JUMPI PUSH1 0x20 CALLDATASIZE PUSH1 0x3 NOT ADD SLT PUSH2 0x17E JUMPI PUSH1 0x4 CALLDATALOAD PUSH1 0x0 SWAP1 DUP2 MSTORE PUSH1 0x1 PUSH1 0x20 MSTORE PUSH1 0x40 SWAP1 KECCAK256 PUSH1 0x2 DUP2 ADD DUP1 SLOAD PUSH2 0x11A0 PUSH1 0x10 DUP3 SWAP1 SHR PUSH1 0x1 PUSH1 0x1 PUSH1 0xA0 SHL SUB AND CALLER EQ PUSH2 0x167C JUMP JUMPDEST PUSH1 0xFF DUP2 PUSH1 0x8 SHR AND PUSH1 0x5 DUP2 LT ISZERO PUSH2 0x699 JUMPI PUSH2 0x11C9 JUMPI PUSH2 0xFF00 NOT AND PUSH2 0x100 OR SWAP1 SSTORE TIMESTAMP PUSH1 0x6 SWAP2 SWAP1 SWAP2 ADD SSTORE STOP JUMPDEST PUSH1 0x40 MLOAD PUSH3 0x461BCD PUSH1 0xE5 SHL DUP2 MSTORE PUSH1 0x20 PUSH1 0x4 DUP3 ADD MSTORE PUSH1 0x10 PUSH1 0x24 DUP3 ADD MSTORE PUSH16 0x53746570206E6F742070656E64696E67 PUSH1 0x80 SHL PUSH1 0x44 DUP3 ADD MSTORE PUSH1 0x64 SWAP1 REVERT JUMPDEST CALLVALUE PUSH2 0x17E JUMPI PUSH1 0x20 DUP1 PUSH1 0x3 NOT CALLDATASIZE ADD SLT PUSH2 0x17E JUMPI PUSH1 0x4 CALLDATALOAD SWAP1 PUSH2 0x121F PUSH2 0x1824 JUMP JUMPDEST DUP2 PUSH1 0x0 MSTORE PUSH1 0x2 SWAP1 PUSH1 0x2 DUP2 MSTORE PUSH1 0x40 PUSH1 0x0 KECCAK256 PUSH1 0x1 DUP1 DUP3 ADD SWAP4 DUP5 SLOAD SWAP1 DUP2 ISZERO PUSH2 0x131D JUMPI PUSH1 0x0 JUMPDEST DUP3 DUP2 LT PUSH2 0x12A3 JUMPI DUP8 DUP8 PUSH32 0x967788395C5B28FD64CC50A91A7FC292DA87EB184A7D9E14416EA9803D9AD6D6 PUSH1 0x40 DUP10 DUP10 PUSH1 0x2 DUP2 ADD PUSH1 0x4 PUSH1 0xFF NOT DUP3 SLOAD AND OR SWAP1 SSTORE PUSH1 0x4 TIMESTAMP SWAP2 ADD SSTORE PUSH1 0x5 SLOAD SWAP4 PUSH2 0x1291 DUP6 PUSH2 0x166D JUMP JUMPDEST PUSH1 0x5 SSTORE SLOAD SWAP1 DUP3 MLOAD SWAP2 DUP3 MSTORE TIMESTAMP SWAP1 DUP3 ADD MSTORE LOG3 STOP JUMPDEST PUSH2 0x12AD DUP2 DUP9 PUSH2 0x163F JUMP JUMPDEST SWAP1 SLOAD SWAP1 PUSH1 0x3 SHL SHR PUSH1 0x0 MSTORE DUP4 DUP7 MSTORE PUSH1 0xFF DUP3 PUSH1 0x40 PUSH1 0x0 KECCAK256 ADD SLOAD PUSH1 0x8 SHR AND PUSH1 0x5 DUP2 LT ISZERO PUSH2 0x699 JUMPI PUSH1 0x4 SUB PUSH2 0x12DF JUMPI DUP4 ADD PUSH2 0x1241 JUMP JUMPDEST PUSH1 0x40 MLOAD PUSH3 0x461BCD PUSH1 0xE5 SHL DUP2 MSTORE PUSH1 0x4 DUP2 ADD DUP8 SWAP1 MSTORE PUSH1 0x16 PUSH1 0x24 DUP3 ADD MSTORE PUSH22 0x139BDD08185B1B081CDD195C1CC81D995C9A599A5959 PUSH1 0x52 SHL PUSH1 0x44 DUP3 ADD MSTORE PUSH1 0x64 SWAP1 REVERT JUMPDEST PUSH1 0x40 MLOAD PUSH3 0x461BCD PUSH1 0xE5 SHL DUP2 MSTORE PUSH1 0x4 DUP2 ADD DUP7 SWAP1 MSTORE PUSH1 0x13 PUSH1 0x24 DUP3 ADD MSTORE PUSH19 0x4E6F2070726F63657373696E67207374657073 PUSH1 0x68 SHL PUSH1 0x44 DUP3 ADD MSTORE PUSH1 0x64 SWAP1 REVERT JUMPDEST SWAP1 PUSH1 0x1 DUP3 DUP2 SHR SWAP3 AND DUP1 ISZERO PUSH2 0x1388 JUMPI JUMPDEST PUSH1 0x20 DUP4 LT EQ PUSH2 0x1372 JUMPI JUMP JUMPDEST PUSH4 0x4E487B71 PUSH1 0xE0 SHL PUSH1 0x0 MSTORE PUSH1 0x22 PUSH1 0x4 MSTORE PUSH1 0x24 PUSH1 0x0 REVERT JUMPDEST SWAP2 PUSH1 0x7F AND SWAP2 PUSH2 0x1367 JUMP JUMPDEST PUSH2 0x180 DUP2 ADD SWAP1 DUP2 LT PUSH8 0xFFFFFFFFFFFFFFFF DUP3 GT OR PUSH2 0x2DA JUMPI PUSH1 0x40 MSTORE JUMP JUMPDEST PUSH1 0xA0 DUP2 ADD SWAP1 DUP2 LT PUSH8 0xFFFFFFFFFFFFFFFF DUP3 GT OR PUSH2 0x2DA JUMPI PUSH1 0x40 MSTORE JUMP JUMPDEST SWAP1 PUSH1 0x1F DUP1 NOT SWAP2 ADD AND DUP2 ADD SWAP1 DUP2 LT PUSH8 0xFFFFFFFFFFFFFFFF DUP3 GT OR PUSH2 0x2DA JUMPI PUSH1 0x40 MSTORE JUMP JUMPDEST SWAP1 PUSH1 0x40 MLOAD SWAP2 DUP3 PUSH1 0x0 DUP3 SLOAD PUSH2 0x1400 DUP2 PUSH2 0x1358 JUMP JUMPDEST SWAP1 DUP2 DUP5 MSTORE PUSH1 0x20 SWAP5 PUSH1 0x1 SWAP2 PUSH1 0x1 DUP2 AND SWAP1 DUP2 PUSH1 0x0 EQ PUSH2 0x1470 JUMPI POP PUSH1 0x1 EQ PUSH2 0x1431 JUMPI JUMPDEST POP POP POP PUSH2 0x142F SWAP3 POP SUB DUP4 PUSH2 0x13CB JUMP JUMPDEST JUMP JUMPDEST PUSH1 0x0 SWAP1 DUP2 MSTORE DUP6 DUP2 KECCAK256 SWAP6 SWAP4 POP SWAP2 SWAP1 JUMPDEST DUP2 DUP4 LT PUSH2 0x1458 JUMPI POP POP PUSH2 0x142F SWAP4 POP DUP3 ADD ADD CODESIZE DUP1 DUP1 PUSH2 0x1420 JUMP JUMPDEST DUP6 SLOAD DUP9 DUP5 ADD DUP6 ADD MSTORE SWAP5 DUP6 ADD SWAP5 DUP8 SWAP5 POP SWAP2 DUP4 ADD SWAP2 PUSH2 0x143F JUMP JUMPDEST SWAP3 POP POP POP PUSH2 0x142F SWAP5 SWAP3 POP PUSH1 0xFF NOT AND DUP3 DUP5 ADD MSTORE ISZERO ISZERO PUSH1 0x5 SHL DUP3 ADD ADD CODESIZE DUP1 DUP1 PUSH2 0x1420 JUMP JUMPDEST SWAP1 PUSH1 0xA DUP3 LT ISZERO PUSH2 0x699 JUMPI MSTORE JUMP JUMPDEST SWAP1 PUSH1 0x5 DUP3 LT ISZERO PUSH2 0x699 JUMPI MSTORE JUMP JUMPDEST SWAP2 SWAP1 DUP3 MLOAD SWAP3 DUP4 DUP3 MSTORE PUSH1 0x0 JUMPDEST DUP5 DUP2 LT PUSH2 0x14D8 JUMPI POP POP DUP3 PUSH1 0x0 PUSH1 0x20 DUP1 SWAP5 SWAP6 DUP5 ADD ADD MSTORE PUSH1 0x1F DUP1 NOT SWAP2 ADD AND ADD ADD SWAP1 JUMP JUMPDEST PUSH1 0x20 DUP2 DUP4 ADD DUP2 ADD MLOAD DUP5 DUP4 ADD DUP3 ADD MSTORE ADD PUSH2 0x14B7 JUMP JUMPDEST DUP2 PUSH1 0x1F DUP3 ADD SLT ISZERO PUSH2 0x17E JUMPI DUP1 CALLDATALOAD SWAP1 PUSH8 0xFFFFFFFFFFFFFFFF DUP3 GT PUSH2 0x2DA JUMPI PUSH1 0x40 MLOAD SWAP3 PUSH2 0x1521 PUSH1 0x1F DUP5 ADD PUSH1 0x1F NOT AND PUSH1 0x20 ADD DUP6 PUSH2 0x13CB JUMP JUMPDEST DUP3 DUP5 MSTORE PUSH1 0x20 DUP4 DUP4 ADD ADD GT PUSH2 0x17E JUMPI DUP2 PUSH1 0x0 SWAP3 PUSH1 0x20 DUP1 SWAP4 ADD DUP4 DUP7 ADD CALLDATACOPY DUP4 ADD ADD MSTORE SWAP1 JUMP JUMPDEST SWAP1 PUSH2 0x15E5 PUSH2 0x15A7 PUSH2 0x180 DUP5 MLOAD DUP5 MSTORE PUSH1 0x20 DUP6 ADD MLOAD PUSH1 0x20 DUP6 ADD MSTORE PUSH2 0x156D PUSH1 0x40 DUP7 ADD MLOAD PUSH1 0x40 DUP7 ADD SWAP1 PUSH2 0x1492 JUMP JUMPDEST PUSH2 0x157F PUSH1 0x60 DUP7 ADD MLOAD PUSH1 0x60 DUP7 ADD SWAP1 PUSH2 0x149F JUMP JUMPDEST PUSH1 0x80 DUP6 DUP2 ADD MLOAD PUSH1 0x1 PUSH1 0x1 PUSH1 0xA0 SHL SUB AND SWAP1 DUP6 ADD MSTORE PUSH1 0xA0 DUP6 DUP2 ADD MLOAD SWAP1 DUP6 ADD DUP3 SWAP1 MSTORE SWAP1 DUP5 ADD SWAP1 PUSH2 0x14AC JUMP JUMPDEST PUSH1 0xC0 DUP5 ADD MLOAD PUSH1 0xC0 DUP5 ADD MSTORE PUSH1 0xE0 DUP5 ADD MLOAD PUSH1 0xE0 DUP5 ADD MSTORE PUSH2 0x100 DUP1 DUP6 ADD MLOAD SWAP1 DUP5 ADD MSTORE PUSH2 0x120 DUP1 DUP6 ADD MLOAD SWAP1 DUP5 ADD MSTORE PUSH2 0x140 DUP1 DUP6 ADD MLOAD SWAP1 DUP5 DUP4 SUB SWAP1 DUP6 ADD MSTORE PUSH2 0x14AC JUMP JUMPDEST SWAP2 PUSH2 0x160 DUP1 SWAP2 ADD MLOAD ISZERO ISZERO SWAP2 ADD MSTORE SWAP1 JUMP JUMPDEST SWAP1 DUP2 MLOAD DUP1 DUP3 MSTORE PUSH1 0x20 DUP1 DUP1 SWAP4 ADD SWAP4 ADD SWAP2 PUSH1 0x0 JUMPDEST DUP3 DUP2 LT PUSH2 0x1615 JUMPI POP POP POP POP SWAP1 JUMP JUMPDEST DUP4 MLOAD DUP6 MSTORE SWAP4 DUP2 ADD SWAP4 SWAP3 DUP2 ADD SWAP3 PUSH1 0x1 ADD PUSH2 0x1607 JUMP JUMPDEST PUSH1 0x4 CALLDATALOAD SWAP1 PUSH1 0x1 PUSH1 0x1 PUSH1 0xA0 SHL SUB DUP3 AND DUP3 SUB PUSH2 0x17E JUMPI JUMP JUMPDEST DUP1 SLOAD DUP3 LT ISZERO PUSH2 0x1657 JUMPI PUSH1 0x0 MSTORE PUSH1 0x20 PUSH1 0x0 KECCAK256 ADD SWAP1 PUSH1 0x0 SWAP1 JUMP JUMPDEST PUSH4 0x4E487B71 PUSH1 0xE0 SHL PUSH1 0x0 MSTORE PUSH1 0x32 PUSH1 0x4 MSTORE PUSH1 0x24 PUSH1 0x0 REVERT JUMPDEST PUSH1 0x0 NOT DUP2 EQ PUSH2 0x1056 JUMPI PUSH1 0x1 ADD SWAP1 JUMP JUMPDEST ISZERO PUSH2 0x1683 JUMPI JUMP JUMPDEST PUSH1 0x40 MLOAD PUSH3 0x461BCD PUSH1 0xE5 SHL DUP2 MSTORE PUSH1 0x20 PUSH1 0x4 DUP3 ADD MSTORE PUSH1 0x1A PUSH1 0x24 DUP3 ADD MSTORE PUSH32 0x4E6F74207468652061737369676E65642070726F636573736F72000000000000 PUSH1 0x44 DUP3 ADD MSTORE PUSH1 0x64 SWAP1 REVERT JUMPDEST SWAP1 PUSH1 0x5 DUP2 LT ISZERO PUSH2 0x699 JUMPI PUSH2 0xFF00 DUP3 SLOAD SWAP2 PUSH1 0x8 SHL AND SWAP1 PUSH2 0xFF00 NOT AND OR SWAP1 SSTORE JUMP JUMPDEST PUSH1 0xA DUP3 LT ISZERO PUSH2 0x699 JUMPI MSTORE JUMP JUMPDEST PUSH1 0x5 DUP3 LT ISZERO PUSH2 0x699 JUMPI MSTORE JUMP JUMPDEST DUP2 DUP2 LT PUSH2 0x170A JUMPI POP POP JUMP JUMPDEST PUSH1 0x0 DUP2 SSTORE PUSH1 0x1 ADD PUSH2 0x16FF JUMP JUMPDEST PUSH8 0xFFFFFFFFFFFFFFFF DUP2 GT PUSH2 0x2DA JUMPI PUSH1 0x5 SHL PUSH1 0x20 ADD SWAP1 JUMP JUMPDEST DUP1 SLOAD PUSH1 0x1 PUSH1 0x40 SHL DUP2 LT ISZERO PUSH2 0x2DA JUMPI PUSH2 0x174B SWAP2 PUSH1 0x1 DUP3 ADD DUP2 SSTORE PUSH2 0x163F JUMP JUMPDEST DUP2 SWAP3 SWAP2 SLOAD SWAP1 PUSH1 0x3 SHL SWAP2 DUP3 SHL SWAP2 PUSH1 0x0 NOT SWAP1 SHL NOT AND OR SWAP1 SSTORE JUMP JUMPDEST PUSH1 0x40 MLOAD SWAP1 PUSH2 0x1770 DUP3 PUSH2 0x1392 JUMP JUMPDEST DUP2 PUSH2 0x160 PUSH1 0x0 SWAP2 DUP3 DUP2 MSTORE DUP3 PUSH1 0x20 DUP3 ADD MSTORE DUP3 PUSH1 0x40 DUP3 ADD MSTORE DUP3 PUSH1 0x60 DUP3 ADD MSTORE DUP3 PUSH1 0x80 DUP3 ADD MSTORE PUSH1 0x60 PUSH1 0xA0 DUP3 ADD MSTORE DUP3 PUSH1 0xC0 DUP3 ADD MSTORE DUP3 PUSH1 0xE0 DUP3 ADD MSTORE DUP3 PUSH2 0x100 DUP3 ADD MSTORE DUP3 PUSH2 0x120 DUP3 ADD MSTORE PUSH1 0x60 PUSH2 0x140 DUP3 ADD MSTORE ADD MSTORE JUMP JUMPDEST SWAP1 PUSH1 0x40 MLOAD SWAP2 DUP3 DUP2 SLOAD SWAP2 DUP3 DUP3 MSTORE PUSH1 0x20 SWAP3 PUSH1 0x20 DUP4 ADD SWAP2 PUSH1 0x0 MSTORE PUSH1 0x20 PUSH1 0x0 KECCAK256 SWAP4 PUSH1 0x0 SWAP1 JUMPDEST DUP3 DUP3 LT PUSH2 0x17F6 JUMPI POP POP POP PUSH2 0x142F SWAP3 POP SUB DUP4 PUSH2 0x13CB JUMP JUMPDEST DUP6 SLOAD DUP5 MSTORE PUSH1 0x1 SWAP6 DUP7 ADD SWAP6 DUP9 SWAP6 POP SWAP4 DUP2 ADD SWAP4 SWAP1 SWAP2 ADD SWAP1 PUSH2 0x17E0 JUMP JUMPDEST DUP1 MLOAD DUP3 LT ISZERO PUSH2 0x1657 JUMPI PUSH1 0x20 SWAP2 PUSH1 0x5 SHL ADD ADD SWAP1 JUMP JUMPDEST PUSH1 0x0 SLOAD PUSH1 0x1 PUSH1 0x1 PUSH1 0xA0 SHL SUB AND CALLER SUB PUSH2 0x1838 JUMPI JUMP JUMPDEST PUSH1 0x40 MLOAD PUSH4 0x118CDAA7 PUSH1 0xE0 SHL DUP2 MSTORE CALLER PUSH1 0x4 DUP3 ADD MSTORE PUSH1 0x24 SWAP1 REVERT INVALID LOG2 PUSH5 0x6970667358 0x22 SLT KECCAK256 0xD PUSH27 0x478357E2970DE81E5794E52E7AD0E9E7D1B186360CA57B48701CFA PUSH24 0xE4B664736F6C634300081800330000000000000000000000 "},"methodIdentifiers":{"batchProcessing(uint256)":"46fb00cc","completeBatchProcessing(uint256)":"000ef437","completeProcessing(uint256)":"8574d2ee","createProcessingStep(uint256,uint8,string,int256,uint256,string)":"3fed564c","getBatchProcessing(uint256)":"c7d068cb","getBatchSteps(uint256)":"e9a34d95","getProcessingStep(uint256)":"87e9188d","getProcessorSteps(address)":"e0d6a3d4","getTotalSteps()":"2aa70469","nextBatchId()":"8462a7f8","nextStepId()":"644f1ec5","owner()":"8da5cb5b","processingSteps(uint256)":"25ff9818","processorSteps(address,uint256)":"df38a976","renounceOwnership()":"715018a6","startProcessing(uint256)":"17a8791d","transferOwnership(address)":"f2fde38b","updateStepNotes(uint256,string)":"f0abb84e","verifyProcessingStep(uint256,bool)":"dc1ea1dd"}}}}}