{"contracts/MarketplaceContract.sol":{"MarketplaceContract":{"abi":[{"inputs":[],"stateMutability":"nonpayable","type":"constructor"},{"inputs":[{"internalType":"address","name":"owner","type":"address"}],"name":"OwnableInvalidOwner","type":"error"},{"inputs":[{"internalType":"address","name":"account","type":"address"}],"name":"OwnableUnauthorizedAccount","type":"error"},{"anonymous":false,"inputs":[{"indexed":true,"internalType":"uint256","name":"auctionId","type":"uint256"},{"indexed":true,"internalType":"uint256","name":"batchTokenId","type":"uint256"},{"indexed":false,"internalType":"address","name":"seller","type":"address"},{"indexed":false,"internalType":"uint256","name":"startingPrice","type":"uint256"},{"indexed":false,"internalType":"uint256","name":"endTime","type":"uint256"},{"indexed":false,"internalType":"uint256","name":"timestamp","type":"uint256"}],"name":"AuctionCreated","type":"event"},{"anonymous":false,"inputs":[{"indexed":true,"internalType":"uint256","name":"auctionId","type":"uint256"},{"indexed":false,"internalType":"address","name":"winner","type":"address"},{"indexed":false,"internalType":"uint256","name":"winningBid","type":"uint256"},{"indexed":false,"internalType":"uint256","name":"timestamp","type":"uint256"}],"name":"AuctionEnded","type":"event"},{"anonymous":false,"inputs":[{"indexed":true,"internalType":"uint256","name":"auctionId","type":"uint256"},{"indexed":false,"internalType":"address","name":"bidder","type":"address"},{"indexed":false,"internalType":"uint256","name":"bidAmount","type":"uint256"},{"indexed":false,"internalType":"uint256","name":"timestamp","type":"uint256"}],"name":"BidPlaced","type":"event"},{"anonymous":false,"inputs":[{"indexed":true,"internalType":"uint256","name":"listingId","type":"uint256"},{"indexed":false,"internalType":"address","name":"canceller","type":"address"},{"indexed":false,"internalType":"uint256","name":"timestamp","type":"uint256"}],"name":"Cancelled","type":"event"},{"anonymous":false,"inputs":[{"indexed":true,"internalType":"uint256","name":"listingId","type":"uint256"},{"indexed":true,"internalType":"uint256","name":"batchTokenId","type":"uint256"},{"indexed":false,"internalType":"address","name":"seller","type":"address"},{"indexed":false,"internalType":"uint256","name":"price","type":"uint256"},{"indexed":false,"internalType":"uint256","name":"expiresAt","type":"uint256"},{"indexed":false,"internalType":"uint256","name":"timestamp","type":"uint256"}],"name":"Listed","type":"event"},{"anonymous":false,"inputs":[{"indexed":true,"internalType":"uint256","name":"offerId","type":"uint256"},{"indexed":true,"internalType":"uint256","name":"listingId","type":"uint256"},{"indexed":false,"internalType":"uint256","name":"timestamp","type":"uint256"}],"name":"OfferAccepted","type":"event"},{"anonymous":false,"inputs":[{"indexed":true,"internalType":"uint256","name":"offerId","type":"uint256"},{"indexed":true,"internalType":"uint256","name":"listingId","type":"uint256"},{"indexed":false,"internalType":"address","name":"offerer","type":"address"},{"indexed":false,"internalType":"uint256","name":"price","type":"uint256"},{"indexed":false,"internalType":"uint256","name":"timestamp","type":"uint256"}],"name":"OfferMade","type":"event"},{"anonymous":false,"inputs":[{"indexed":true,"internalType":"address","name":"previousOwner","type":"address"},{"indexed":true,"internalType":"address","name":"newOwner","type":"address"}],"name":"OwnershipTransferred","type":"event"},{"anonymous":false,"inputs":[{"indexed":true,"internalType":"uint256","name":"listingId","type":"uint256"},{"indexed":true,"internalType":"uint256","name":"batchTokenId","type":"uint256"},{"indexed":false,"internalType":"address","name":"seller","type":"address"},{"indexed":false,"internalType":"address","name":"buyer","type":"address"},{"indexed":false,"internalType":"uint256","name":"price","type":"uint256"},{"indexed":false,"internalType":"uint256","name":"timestamp","type":"uint256"}],"name":"Sold","type":"event"},{"inputs":[],"name":"FEE_DENOMINATOR","outputs":[{"internalType":"uint256","name":"","type":"uint256"}],"stateMutability":"view","type":"function"},{"inputs":[{"internalType":"uint256","name":"_listingId","type":"uint256"},{"internalType":"uint256","name":"_offerIndex","type":"uint256"}],"name":"acceptOffer","outputs":[],"stateMutability":"payable","type":"function"},{"inputs":[{"internalType":"uint256","name":"","type":"uint256"}],"name":"auctions","outputs":[{"internalType":"uint256","name":"id","type":"uint256"},{"internalType":"uint256","name":"batchTokenId","type":"uint256"},{"internalType":"address","name":"seller","type":"address"},{"internalType":"address","name":"highestBidder","type":"address"},{"internalType":"uint256","name":"highestBid","type":"uint256"},{"internalType":"uint256","name":"startingPrice","type":"uint256"},{"internalType":"uint256","name":"startTime","type":"uint256"},{"internalType":"uint256","name":"endTime","type":"uint256"},{"internalType":"bool","name":"ended","type":"bool"},{"internalType":"address","name":"winner","type":"address"}],"stateMutability":"view","type":"function"},{"inputs":[{"internalType":"uint256","name":"_listingId","type":"uint256"}],"name":"cancelListing","outputs":[],"stateMutability":"nonpayable","type":"function"},{"inputs":[{"internalType":"uint256","name":"_batchTokenId","type":"uint256"},{"internalType":"uint256","name":"_startingPrice","type":"uint256"},{"internalType":"uint256","name":"_durationDays","type":"uint256"}],"name":"createAuction","outputs":[{"internalType":"uint256","name":"","type":"uint256"}],"stateMutability":"nonpayable","type":"function"},{"inputs":[{"internalType":"uint256","name":"_auctionId","type":"uint256"}],"name":"endAuction","outputs":[],"stateMutability":"nonpayable","type":"function"},{"inputs":[],"name":"getActiveListingsCount","outputs":[{"internalType":"uint256","name":"count","type":"uint256"}],"stateMutability":"view","type":"function"},{"inputs":[{"internalType":"uint256","name":"_auctionId","type":"uint256"}],"name":"getAuction","outputs":[{"components":[{"internalType":"uint256","name":"id","type":"uint256"},{"internalType":"uint256","name":"batchTokenId","type":"uint256"},{"internalType":"address","name":"seller","type":"address"},{"internalType":"address","name":"highestBidder","type":"address"},{"internalType":"uint256","name":"highestBid","type":"uint256"},{"internalType":"uint256","name":"startingPrice","type":"uint256"},{"internalType":"uint256","name":"startTime","type":"uint256"},{"internalType":"uint256","name":"endTime","type":"uint256"},{"internalType":"bool","name":"ended","type":"bool"},{"internalType":"address","name":"winner","type":"address"}],"internalType":"struct MarketplaceContract.Auction","name":"","type":"tuple"}],"stateMutability":"view","type":"function"},{"inputs":[{"internalType":"uint256","name":"_listingId","type":"uint256"}],"name":"getListing","outputs":[{"components":[{"internalType":"uint256","name":"id","type":"uint256"},{"internalType":"uint256","name":"batchTokenId","type":"uint256"},{"internalType":"address","name":"seller","type":"address"},{"internalType":"address","name":"buyer","type":"address"},{"internalType":"uint256","name":"price","type":"uint256"},{"internalType":"enum MarketplaceContract.ListingStatus","name":"status","type":"uint8"},{"internalType":"uint256","name":"listedAt","type":"uint256"},{"internalType":"uint256","name":"expiresAt","type":"uint256"},{"internalType":"string","name":"currency","type":"string"}],"internalType":"struct MarketplaceContract.Listing","name":"","type":"tuple"}],"stateMutability":"view","type":"function"},{"inputs":[{"internalType":"uint256","name":"_listingId","type":"uint256"}],"name":"getListingOffers","outputs":[{"components":[{"internalType":"uint256","name":"id","type":"uint256"},{"internalType":"uint256","name":"listingId","type":"uint256"},{"internalType":"address","name":"offerer","type":"address"},{"internalType":"uint256","name":"price","type":"uint256"},{"internalType":"uint256","name":"expiresAt","type":"uint256"},{"internalType":"bool","name":"accepted","type":"bool"},{"internalType":"bool","name":"rejected","type":"bool"}],"internalType":"struct MarketplaceContract.Offer[]","name":"","type":"tuple[]"}],"stateMutability":"view","type":"function"},{"inputs":[{"internalType":"address","name":"_user","type":"address"}],"name":"getUserAuctions","outputs":[{"internalType":"uint256[]","name":"","type":"uint256[]"}],"stateMutability":"view","type":"function"},{"inputs":[{"internalType":"address","name":"_user","type":"address"}],"name":"getUserListings","outputs":[{"internalType":"uint256[]","name":"","type":"uint256[]"}],"stateMutability":"view","type":"function"},{"inputs":[{"internalType":"address","name":"_user","type":"address"}],"name":"getUserPurchases","outputs":[{"internalType":"uint256[]","name":"","type":"uint256[]"}],"stateMutability":"view","type":"function"},{"inputs":[{"internalType":"uint256","name":"_batchTokenId","type":"uint256"},{"internalType":"uint256","name":"_price","type":"uint256"},{"internalType":"uint256","name":"_durationDays","type":"uint256"},{"internalType":"string","name":"_currency","type":"string"}],"name":"listBatch","outputs":[{"internalType":"uint256","name":"","type":"uint256"}],"stateMutability":"nonpayable","type":"function"},{"inputs":[{"internalType":"uint256","name":"","type":"uint256"},{"internalType":"uint256","name":"","type":"uint256"}],"name":"listingOffers","outputs":[{"internalType":"uint256","name":"id","type":"uint256"},{"internalType":"uint256","name":"listingId","type":"uint256"},{"internalType":"address","name":"offerer","type":"address"},{"internalType":"uint256","name":"price","type":"uint256"},{"internalType":"uint256","name":"expiresAt","type":"uint256"},{"internalType":"bool","name":"accepted","type":"bool"},{"internalType":"bool","name":"rejected","type":"bool"}],"stateMutability":"view","type":"function"},{"inputs":[{"internalType":"uint256","name":"","type":"uint256"}],"name":"listings","outputs":[{"internalType":"uint256","name":"id","type":"uint256"},{"internalType":"uint256","name":"batchTokenId","type":"uint256"},{"internalType":"address","name":"seller","type":"address"},{"internalType":"address","name":"buyer","type":"address"},{"internalType":"uint256","name":"price","type":"uint256"},{"internalType":"enum MarketplaceContract.ListingStatus","name":"status","type":"uint8"},{"internalType":"uint256","name":"listedAt","type":"uint256"},{"internalType":"uint256","name":"expiresAt","type":"uint256"},{"internalType":"string","name":"currency","type":"string"}],"stateMutability":"view","type":"function"},{"inputs":[{"internalType":"uint256","name":"_listingId","type":"uint256"},{"internalType":"uint256","name":"_price","type":"uint256"},{"internalType":"uint256","name":"_durationDays","type":"uint256"}],"name":"makeOffer","outputs":[],"stateMutability":"nonpayable","type":"function"},{"inputs":[],"name":"nextAuctionId","outputs":[{"internalType":"uint256","name":"","type":"uint256"}],"stateMutability":"view","type":"function"},{"inputs":[],"name":"nextListingId","outputs":[{"internalType":"uint256","name":"","type":"uint256"}],"stateMutability":"view","type":"function"},{"inputs":[],"name":"owner","outputs":[{"internalType":"address","name":"","type":"address"}],"stateMutability":"view","type":"function"},{"inputs":[{"internalType":"uint256","name":"_auctionId","type":"uint256"}],"name":"placeBid","outputs":[],"stateMutability":"payable","type":"function"},{"inputs":[],"name":"platformFeePercent","outputs":[{"internalType":"uint256","name":"","type":"uint256"}],"stateMutability":"view","type":"function"},{"inputs":[{"internalType":"uint256","name":"_listingId","type":"uint256"}],"name":"purchaseBatch","outputs":[],"stateMutability":"payable","type":"function"},{"inputs":[],"name":"renounceOwnership","outputs":[],"stateMutability":"nonpayable","type":"function"},{"inputs":[{"internalType":"uint256","name":"_feePercent","type":"uint256"}],"name":"setPlatformFee","outputs":[],"stateMutability":"nonpayable","type":"function"},{"inputs":[{"internalType":"address","name":"newOwner","type":"address"}],"name":"transferOwnership","outputs":[],"stateMutability":"nonpayable","type":"function"},{"inputs":[{"internalType":"address","name":"","type":"address"},{"internalType":"uint256","name":"","type":"uint256"}],"name":"userAuctions","outputs":[{"internalType":"uint256","name":"","type":"uint256"}],"stateMutability":"view","type":"function"},{"inputs":[{"internalType":"address","name":"","type":"address"},{"internalType":"uint256","name":"","type":"uint256"}],"name":"userListings","outputs":[{"internalType":"uint256","name":"","type":"uint256"}],"stateMutability":"view","type":"function"},{"inputs":[{"internalType":"address","name":"","type":"address"},{"internalType":"uint256","name":"","type":"uint256"}],"name":"userPurchases","outputs":[{"internalType":"uint256","name":"","type":"uint256"}],"stateMutability":"view","type":"function"}],"evm":{"bytecode":{"linkReferences":{},"object":"608080604052346100895733156100735760008054336001600160a01b03198216811783556040519290916001600160a01b0316907f8be0079c531659141344cd1fd0a4f28419497f9722a3daafe3b4186f6b6457e09080a360fa60015560016008556001600955611fc3908161008f8239f35b631e4fbdf760e01b815260006004820152602490fd5b600080fdfe608080604052600436101561001357600080fd5b60003560e01c908163107a274a14611a6b5750806312e8e2c314611a0d57806320e33db814611981578063305a67a8146118f1578063571a26a014611852578063715018a6146117f957806378bd79351461168457806379676e0c146114985780637b55927c1461142c57806381257bd51461122757806386cfa7d3146111dd5780638c639a85146111bf5780638da5cb5b146111965780639979ef4514610fc0578063aaccf1ec14610fa2578063af990aa614610c23578063b4fbe80a14610bd9578063b9a2de3a14610a4e578063c6e5d8f6146109d3578063cda4beef146107c9578063cf2c033414610771578063d73792a914610754578063de74e57b146106a5578063e210a72d1461047c578063eb18a9d814610401578063f2fde38b14610378578063fbb1e4971461020c578063fc528482146101ee5763ff3ad0b41461015e57600080fd5b346101e9576020806003193601126101e9576001600160a01b03610180611c54565b1660005260066020526040600020906040519081602084549182815201936000526020600020916000905b8282106101d2576101ce856101c281890382611cd8565b60405191829182611cfa565b0390f35b8354865294850194600193840193909101906101ab565b600080fd5b346101e95760003660031901126101e9576020600954604051908152f35b346101e9576020806003193601126101e95760043560005260039060038152604060002091825467ffffffffffffffff81116103625760405191600561025683821b860185611cd8565b82845284840191829660005285600020916000935b8585106102f657604080518981528851818b018190528b928201908b60005b8281106102975784840385f35b85518051855280830151858401526040808201516001600160a01b031690860152606080820151908601526080808201519086015260a08082015115159086015260c0908101511515908501529481019460e09093019260010161028a565b60068860019260405161030881611cbc565b875481528488015483820152848060a01b036002890154166040820152868801546060820152600488015460808201528588015460ff90818116151560a084015260081c16151560c082015281520194019401939261026b565b634e487b7160e01b600052604160045260246000fd5b346101e95760203660031901126101e957610391611c54565b610399611f61565b6001600160a01b039081169081156103e857600054826001600160601b0360a01b821617600055167f8be0079c531659141344cd1fd0a4f28419497f9722a3daafe3b4186f6b6457e0600080a3005b604051631e4fbdf760e01b815260006004820152602490fd5b346101e9576020806003193601126101e9576001600160a01b03610423611c54565b1660005260056020526040600020906040519081602084549182815201936000526020600020916000905b828210610465576101ce856101c281890382611cd8565b83548652948501946001938401939091019061044e565b346101e95761048a36611d36565b82600052600260205260406000209060ff60058301541691600483101561068f576104b760029315611e6c565b909101546001600160a01b039190339083161461064a5783600052600360205260406000209081549260018401918285116106345762015180908181029181830414901517156106345761050b9042611f54565b906040519161051983611cbc565b83835260208301938885526040840133815260608501918983526080860193845260a086019860008a5260c087019860008a52600160401b82101561036257610563928155611c22565b94909461061e576105b596600596518655516001860155600285019151166001600160601b0360a01b8254161790555160038301555160048201550192511515839060ff801983541691151516179055565b51815461ff00191690151560081b61ff00161790556000828152600360209081526040918290205482513381529182019390935242918101919091527f23b0047c5c1f392c454f858542ddfb8143e48945b1a00e247308d5eb97164bc49080606081015b0390a3005b634e487b7160e01b600052600060045260246000fd5b634e487b7160e01b600052601160045260246000fd5b60405162461bcd60e51b815260206004820152601b60248201527f43616e6e6f74206f66666572206f6e206f776e206c697374696e6700000000006044820152606490fd5b634e487b7160e01b600052602160045260246000fd5b346101e95760203660031901126101e957600435600052600260205260406000208054906101ce60018201549160018060a01b0393846002830154169460038301541691600481015461073b60ff600584015416600684015492610710600860078701549601611d8a565b966040519a8b9a610120988c5260208c015260408b015260608a0152608089015260a0880190611bbf565b60c086015260e085015280610100850152830190611bcc565b346101e95760003660031901126101e95760206040516127108152f35b346101e95760403660031901126101e95761078a611c54565b6001600160a01b03166000908152600760205260409020805460243591908210156101e9576020916107bb91611c6a565b90546040519160031b1c8152f35b346101e9576107d736611d36565b91811561098057600954916107eb83611f45565b6009556201518093848102948186041490151715610634577f56102b55f8c4ba831c7d439c06939c7e1fe545abbd4f8a71737c2a9b0f7e8584839161092f61083560209742611f54565b6040519061084282611c9f565b8582528561090d60088b8501948a865260408101943386526060820160008152608083018a815260a08401908b825260c085019242845260e0860194855261010086019a60008c5261012087019960008b526000526020600490526040600020965187555160018701556002860160018060a01b03809b5116906001600160601b0360a01b91828254161790558a60038801925116908254161790555160048501555160058401555160068301555160078201550193511515849060ff801983541691151516179055565b518254610100600160a81b031916911660081b610100600160a81b0316179055565b3360005260068652610945836040600020611f10565b60008381526004875260409081902060070154815133815260208101939093529082015242606082015280608081015b0390a3604051908152f35b60405162461bcd60e51b815260206004820152602560248201527f5374617274696e67207072696365206d75737420626520677265617465722074604482015264068616e20360dc1b6064820152608490fd5b346101e9576020806003193601126101e9576001600160a01b036109f5611c54565b1660005260076020526040600020906040519081602084549182815201936000526020600020916000905b828210610a37576101ce856101c281890382611cd8565b835486529485019460019384019390910190610a20565b346101e95760203660031901126101e95760043580600052600460205260406000206008810160ff815416610ba4576007820154421115610b6b576004820190610aa98254612710610aa260015483611ef0565b0490611f03565b90600080808060018060a01b03958660028a015416828215610b62575bf115610b56578054600160ff198216811783556003959095018054610100600160a81b0390851660081b166001600160a81b03199092169190911790941790557fe9ba83469fc8ee4260dd274fd43b5a54f2df813ad21c4637d53084d1f3866b3792549154604080516001600160a01b03939094169290921683526020830152429082015280606081015b0390a2005b6040513d6000823e3d90fd5b506108fc610ac6565b60405162461bcd60e51b8152602060048201526011602482015270105d58dd1a5bdb881b9bdd08195b991959607a1b6044820152606490fd5b60405162461bcd60e51b815260206004820152600d60248201526c105b1c9958591e48195b991959609a1b6044820152606490fd5b346101e95760403660031901126101e957610bf2611c54565b6001600160a01b03166000908152600660205260409020805460243591908210156101e9576020916107bb91611c6a565b346101e95760803660031901126101e95760243560443560043560643567ffffffffffffffff81116101e957366023820112156101e957806004013567ffffffffffffffff81116103625760405191610c86601f8301601f191660200184611cd8565b81835236602483830101116101e9578160009260246020930183860137830101528315610f5d5760085492610cba84611f45565b600855620151809081810291818304149015171561063457610cdc9042611f54565b9060405191610cea83611c82565b84835283602084015233604084015260006060840152856080840152600060a08401524260c084015260e0830152610100820152826000526002602052604060002093815185556001946020830151868201556002810160018060a01b039081604086015116906001600160601b0360a01b918282541617905560038301916060860151169082541617905560808301516004820155600581019060a084015190600482101561068f576101009260089260ff8019835416911617905560c0850151600682015560e085015160078201550192015191825167ffffffffffffffff811161036257610ddb8254611d50565b601f8111610f16575b50908592916020978895601f8311600114610e8f5782917f3d156dabe6356e9356bf267dcd8d81e2a8ef6bbef1a0ef8a4b73ce8c8776767696978392600094610e84575b50501b916000199060031b1c19161790555b3360005260058652610e50836040600020611f10565b6000838152600287526040908190206007015481513381526020810193909352908201524260608201528060808101610975565b015192508b80610e28565b95601f92919219821690846000528a6000209160005b818110610efe575097837f3d156dabe6356e9356bf267dcd8d81e2a8ef6bbef1a0ef8a4b73ce8c87767676989910610ee5575b505050811b019055610e3a565b015160001960f88460031b161c19169055898080610ed8565b8983015184558b985092850192918c01918c01610ea5565b826000526020600020601f830160051c81019160208410610f53575b601f0160051c01905b818110610f485750610de4565b600081558801610f3b565b9091508190610f32565b60405162461bcd60e51b815260206004820152601c60248201527f5072696365206d7573742062652067726561746572207468616e2030000000006044820152606490fd5b346101e95760003660031901126101e9576020600854604051908152f35b6020806003193601126101e95760043590816000526004815260406000209060ff60088301541661115a5760078201544211611124576004820191825490813411156110f15760028101546001600160a01b039390841633146110ad57506003019182541680611088575b505080546001600160a01b03191633908117909155349182905560408051918252602082019290925242918101919091527f51db8e23b3f4479b162fd48823b8402895442b8f6cfd94f66239391881ec7b6f908060608101610b51565b600080809381938282156110a4575bf115610b5657838061102b565b506108fc611097565b6064906040519062461bcd60e51b82526004820152601960248201527f43616e6e6f7420626964206f6e206f776e2061756374696f6e000000000000006044820152fd5b60405162461bcd60e51b815260048101849052600b60248201526a42696420746f6f206c6f7760a81b6044820152606490fd5b6064906040519062461bcd60e51b82526004820152600f60248201526e105d58dd1a5bdb88195e1c1a5c9959608a1b6044820152fd5b6064906040519062461bcd60e51b825260048201526015602482015274105d58dd1a5bdb88185b1c9958591e48195b991959605a1b6044820152fd5b346101e95760003660031901126101e9576000546040516001600160a01b039091168152602090f35b346101e95760003660031901126101e9576020600154604051908152f35b346101e95760403660031901126101e9576111f6611c54565b6001600160a01b03166000908152600560205260409020805460243591908210156101e9576020916107bb91611c6a565b61123036611c0c565b90806000526002602052604060002091600283019260018060a01b03808554169161125c338414611e2f565b846000526003602052611273846040600020611c22565b509160058301805460ff811615908161141d575b50156113d857600484015442116113a35760008080806003880154986112af8a341015611ead565b6112c86127106112c16001548d611ef0565b048b611f03565b9082821561139a575bf115610b5657600183887f583a942dc460a346032bdb614951de78d8cf4f796ad930fff18aee2e2311365498859484600260056106199a019a60ff199b838d8254161790550199878b541660038701906001600160601b0360a01b8254161790558254161790557fc08309e59ce8041cb2c0534dd94462f0bcc0cf9441d6f8e51b93781143fb746d6020604051428152a3015497549354604080516001600160a01b03939096168316865292161660208401528201929092524260608201529081906080820190565b506108fc6112d1565b60405162461bcd60e51b815260206004820152600d60248201526c13d999995c88195e1c1a5c9959609a1b6044820152606490fd5b60405162461bcd60e51b815260206004820152601760248201527f4f6666657220616c72656164792070726f6365737365640000000000000000006044820152606490fd5b60ff915060081c161589611287565b346101e95760003660031901126101e95760006001906001600854905b81811061145b57602083604051908152f35b80600052600260205260ff6005604060002001541690600482101561068f57849115611488575b01611449565b9261149290611f45565b92611482565b60203660031901126101e957600435806000526002602052604060002090600582019160ff835416600481101561068f576114d39015611e6c565b6007810154421161164d5760028101805490936001600160a01b03918216919033831461160f57600080808060048801549661151188341015611ead565b61152a6127106115236001548b611ef0565b0489611f03565b90828215611606575bf115610b5657600160ff1982541617905560038301336001600160601b0360a01b82541617905533600052600760205261157860016040600020940193845490611f10565b8134116115d3575b9154935460408051919093166001600160a01b03168152336020820152918201524260608201527f583a942dc460a346032bdb614951de78d8cf4f796ad930fff18aee2e23113654908060808101610619565b60008080806115e28634611f03565b8181156115fd575b3390f1611580576040513d6000823e3d90fd5b506108fc6115ea565b506108fc611533565b60405162461bcd60e51b815260206004820152601660248201527543616e6e6f7420627579206f776e206c697374696e6760501b6044820152606490fd5b60405162461bcd60e51b815260206004820152600f60248201526e131a5cdd1a5b99c8195e1c1a5c9959608a1b6044820152606490fd5b346101e95760203660031901126101e95760006101206040516116a681611c9f565b8281528260208201528260408201528260608201528260808201528260a08201528260c08201528260e0820152826101008201520152600435600052600460205261014060406000206040516116fb81611c9f565b60088254928383526001810154602084015260018060a01b03600282015416604084015260018060a01b03600382015416606084015260048101546080840152600581015460a0840152600681015460c0840152600781015460e0840152015460ff8116151561010083015260018060a01b039060081c166101208201526040519182526020810151602083015260018060a01b03604082015116604083015260018060a01b0360608201511660608301526080810151608083015260a081015160a083015260c081015160c083015260e081015160e0830152610100810151151561010083015261012060018060a01b0391015116610120820152f35b346101e95760003660031901126101e957611812611f61565b600080546001600160a01b0319811682556001600160a01b03167f8be0079c531659141344cd1fd0a4f28419497f9722a3daafe3b4186f6b6457e08280a3005b346101e95760203660031901126101e95760043560005260046020526101406040600020805490600181015460018060a01b0391826002820154168360038301541660048301546005840154916006850154936008600787015496015496604051998a5260208a015260408901526060880152608087015260a086015260c085015260e084015260ff8116151561010084015260081c16610120820152f35b346101e95760203660031901126101e9576004358060005260026020526005604060002061192c60018060a01b036002830154163314611e2f565b01805460ff811690600482101561068f5761194960029215611e6c565b60ff19161790557faa17fdf5ffb610a4cc0887f35c13c501975a370005080f68441055871952eb8160408051338152426020820152a2005b346101e95761198f36611c0c565b906000526003602052604060002080548210156101e95760e0916119b291611c22565b5060ff81549160018101549060018060a01b0360028201541660038201549060056004840154930154936040519687526020870152604086015260608501526080840152818116151560a084015260081c16151560c0820152f35b346101e95760203660031901126101e957600435611a29611f61565b6103e88111611a3757600155005b60405162461bcd60e51b815260206004820152600c60248201526b08ccaca40e8dede40d0d2ced60a31b6044820152606490fd5b346101e9576020806003193601126101e957611a8682611c82565b60008252600081830152600060408301526000606083015260006080830152600060a0830152600060c0830152600060e083015260606101008093015260043560005260028152604060002060405192611adf84611c82565b8154845260018201549183850192835260018060a01b038060028301541690604087019182528060038401541690606088019182526004840154906080890191825260ff6005860154169260a08a0193600481101561068f5784528160068701549560c08c0196875260078801549760e08d01988952600801611b6190611d8a565b99898d019a8b528b6040519d8e9d8e5251908d01525160408c0152511660608a0152511660808801525160a08701525160c08601611b9e91611bbf565b5160e08501525190830152516101208083015261014082016101ce91611bcc565b90600482101561068f5752565b919082519283825260005b848110611bf8575050826000602080949584010152601f8019910116010190565b602081830181015184830182015201611bd7565b60409060031901126101e9576004359060243590565b8054821015611c3e576000526006602060002091020190600090565b634e487b7160e01b600052603260045260246000fd5b600435906001600160a01b03821682036101e957565b8054821015611c3e5760005260206000200190600090565b610120810190811067ffffffffffffffff82111761036257604052565b610140810190811067ffffffffffffffff82111761036257604052565b60e0810190811067ffffffffffffffff82111761036257604052565b90601f8019910116810190811067ffffffffffffffff82111761036257604052565b602090602060408183019282815285518094520193019160005b828110611d22575050505090565b835185529381019392810192600101611d14565b60609060031901126101e957600435906024359060443590565b90600182811c92168015611d80575b6020831014611d6a57565b634e487b7160e01b600052602260045260246000fd5b91607f1691611d5f565b90604051918260008254611d9d81611d50565b90818452602094600191600181169081600014611e0d5750600114611dce575b505050611dcc92500383611cd8565b565b600090815285812095935091905b818310611df5575050611dcc9350820101388080611dbd565b85548884018501529485019487945091830191611ddc565b92505050611dcc94925060ff191682840152151560051b820101388080611dbd565b15611e3657565b60405162461bcd60e51b815260206004820152600e60248201526d2737ba103a34329039b2b63632b960911b6044820152606490fd5b15611e7357565b60405162461bcd60e51b81526020600482015260126024820152714c697374696e67206e6f742061637469766560701b6044820152606490fd5b15611eb457565b60405162461bcd60e51b8152602060048201526014602482015273125b9cdd59999a58da595b9d081c185e5b595b9d60621b6044820152606490fd5b8181029291811591840414171561063457565b9190820391821161063457565b8054600160401b81101561036257611f2d91600182018155611c6a565b819291549060031b91821b91600019901b1916179055565b60001981146106345760010190565b9190820180921161063457565b6000546001600160a01b03163303611f7557565b60405163118cdaa760e01b8152336004820152602490fdfea26469706673582212203bc5a332696360cb5a7d2f6b3e4af9c01303b071a2510fdd2fce3fa9a99c0b1564736f6c63430008180033","opcodes":"PUSH1 0x80 DUP1 PUSH1 0x40 MSTORE CALLVALUE PUSH2 0x89 JUMPI CALLER ISZERO PUSH2 0x73 JUMPI PUSH1 0x0 DUP1 SLOAD CALLER PUSH1 0x1 PUSH1 0x1 PUSH1 0xA0 SHL SUB NOT DUP3 AND DUP2 OR DUP4 SSTORE PUSH1 0x40 MLOAD SWAP3 SWAP1 SWAP2 PUSH1 0x1 PUSH1 0x1 PUSH1 0xA0 SHL SUB AND SWAP1 PUSH32 0x8BE0079C531659141344CD1FD0A4F28419497F9722A3DAAFE3B4186F6B6457E0 SWAP1 DUP1 LOG3 PUSH1 0xFA PUSH1 0x1 SSTORE PUSH1 0x1 PUSH1 0x8 SSTORE PUSH1 0x1 PUSH1 0x9 SSTORE PUSH2 0x1FC3 SWAP1 DUP2 PUSH2 0x8F DUP3 CODECOPY RETURN JUMPDEST PUSH4 0x1E4FBDF7 PUSH1 0xE0 SHL DUP2 MSTORE PUSH1 0x0 PUSH1 0x4 DUP3 ADD MSTORE PUSH1 0x24 SWAP1 REVERT JUMPDEST PUSH1 0x0 DUP1 REVERT INVALID PUSH1 0x80 DUP1 PUSH1 0x40 MSTORE PUSH1 0x4 CALLDATASIZE LT ISZERO PUSH2 0x13 JUMPI PUSH1 0x0 DUP1 REVERT JUMPDEST PUSH1 0x0 CALLDATALOAD PUSH1 0xE0 SHR SWAP1 DUP2 PUSH4 0x107A274A EQ PUSH2 0x1A6B JUMPI POP DUP1 PUSH4 0x12E8E2C3 EQ PUSH2 0x1A0D JUMPI DUP1 PUSH4 0x20E33DB8 EQ PUSH2 0x1981 JUMPI DUP1 PUSH4 0x305A67A8 EQ PUSH2 0x18F1 JUMPI DUP1 PUSH4 0x571A26A0 EQ PUSH2 0x1852 JUMPI DUP1 PUSH4 0x715018A6 EQ PUSH2 0x17F9 JUMPI DUP1 PUSH4 0x78BD7935 EQ PUSH2 0x1684 JUMPI DUP1 PUSH4 0x79676E0C EQ PUSH2 0x1498 JUMPI DUP1 PUSH4 0x7B55927C EQ PUSH2 0x142C JUMPI DUP1 PUSH4 0x81257BD5 EQ PUSH2 0x1227 JUMPI DUP1 PUSH4 0x86CFA7D3 EQ PUSH2 0x11DD JUMPI DUP1 PUSH4 0x8C639A85 EQ PUSH2 0x11BF JUMPI DUP1 PUSH4 0x8DA5CB5B EQ PUSH2 0x1196 JUMPI DUP1 PUSH4 0x9979EF45 EQ PUSH2 0xFC0 JUMPI DUP1 PUSH4 0xAACCF1EC EQ PUSH2 0xFA2 JUMPI DUP1 PUSH4 0xAF990AA6 EQ PUSH2 0xC23 JUMPI DUP1 PUSH4 0xB4FBE80A EQ PUSH2 0xBD9 JUMPI DUP1 PUSH4 0xB9A2DE3A EQ PUSH2 0xA4E JUMPI DUP1 PUSH4 0xC6E5D8F6 EQ PUSH2 0x9D3 JUMPI DUP1 PUSH4 0xCDA4BEEF EQ PUSH2 0x7C9 JUMPI DUP1 PUSH4 0xCF2C0334 EQ PUSH2 0x771 JUMPI DUP1 PUSH4 0xD73792A9 EQ PUSH2 0x754 JUMPI DUP1 PUSH4 0xDE74E57B EQ PUSH2 0x6A5 JUMPI DUP1 PUSH4 0xE210A72D EQ PUSH2 0x47C JUMPI DUP1 PUSH4 0xEB18A9D8 EQ PUSH2 0x401 JUMPI DUP1 PUSH4 0xF2FDE38B EQ PUSH2 0x378 JUMPI DUP1 PUSH4 0xFBB1E497 EQ PUSH2 0x20C JUMPI DUP1 PUSH4 0xFC528482 EQ PUSH2 0x1EE JUMPI PUSH4 0xFF3AD0B4 EQ PUSH2 0x15E JUMPI PUSH1 0x0 DUP1 REVERT JUMPDEST CALLVALUE PUSH2 0x1E9 JUMPI PUSH1 0x20 DUP1 PUSH1 0x3 NOT CALLDATASIZE ADD SLT PUSH2 0x1E9 JUMPI PUSH1 0x1 PUSH1 0x1 PUSH1 0xA0 SHL SUB PUSH2 0x180 PUSH2 0x1C54 JUMP JUMPDEST AND PUSH1 0x0 MSTORE PUSH1 0x6 PUSH1 0x20 MSTORE PUSH1 0x40 PUSH1 0x0 KECCAK256 SWAP1 PUSH1 0x40 MLOAD SWAP1 DUP2 PUSH1 0x20 DUP5 SLOAD SWAP2 DUP3 DUP2 MSTORE ADD SWAP4 PUSH1 0x0 MSTORE PUSH1 0x20 PUSH1 0x0 KECCAK256 SWAP2 PUSH1 0x0 SWAP1 JUMPDEST DUP3 DUP3 LT PUSH2 0x1D2 JUMPI PUSH2 0x1CE DUP6 PUSH2 0x1C2 DUP2 DUP10 SUB DUP3 PUSH2 0x1CD8 JUMP JUMPDEST PUSH1 0x40 MLOAD SWAP2 DUP3 SWAP2 DUP3 PUSH2 0x1CFA JUMP JUMPDEST SUB SWAP1 RETURN JUMPDEST DUP4 SLOAD DUP7 MSTORE SWAP5 DUP6 ADD SWAP5 PUSH1 0x1 SWAP4 DUP5 ADD SWAP4 SWAP1 SWAP2 ADD SWAP1 PUSH2 0x1AB JUMP JUMPDEST PUSH1 0x0 DUP1 REVERT JUMPDEST CALLVALUE PUSH2 0x1E9 JUMPI PUSH1 0x0 CALLDATASIZE PUSH1 0x3 NOT ADD SLT PUSH2 0x1E9 JUMPI PUSH1 0x20 PUSH1 0x9 SLOAD PUSH1 0x40 MLOAD SWAP1 DUP2 MSTORE RETURN JUMPDEST CALLVALUE PUSH2 0x1E9 JUMPI PUSH1 0x20 DUP1 PUSH1 0x3 NOT CALLDATASIZE ADD SLT PUSH2 0x1E9 JUMPI PUSH1 0x4 CALLDATALOAD PUSH1 0x0 MSTORE PUSH1 0x3 SWAP1 PUSH1 0x3 DUP2 MSTORE PUSH1 0x40 PUSH1 0x0 KECCAK256 SWAP2 DUP3 SLOAD PUSH8 0xFFFFFFFFFFFFFFFF DUP2 GT PUSH2 0x362 JUMPI PUSH1 0x40 MLOAD SWAP2 PUSH1 0x5 PUSH2 0x256 DUP4 DUP3 SHL DUP7 ADD DUP6 PUSH2 0x1CD8 JUMP JUMPDEST DUP3 DUP5 MSTORE DUP5 DUP5 ADD SWAP2 DUP3 SWAP7 PUSH1 0x0 MSTORE DUP6 PUSH1 0x0 KECCAK256 SWAP2 PUSH1 0x0 SWAP4 JUMPDEST DUP6 DUP6 LT PUSH2 0x2F6 JUMPI PUSH1 0x40 DUP1 MLOAD DUP10 DUP2 MSTORE DUP9 MLOAD DUP2 DUP12 ADD DUP2 SWAP1 MSTORE DUP12 SWAP3 DUP3 ADD SWAP1 DUP12 PUSH1 0x0 JUMPDEST DUP3 DUP2 LT PUSH2 0x297 JUMPI DUP5 DUP5 SUB DUP6 RETURN JUMPDEST DUP6 MLOAD DUP1 MLOAD DUP6 MSTORE DUP1 DUP4 ADD MLOAD DUP6 DUP5 ADD MSTORE PUSH1 0x40 DUP1 DUP3 ADD MLOAD PUSH1 0x1 PUSH1 0x1 PUSH1 0xA0 SHL SUB AND SWAP1 DUP7 ADD MSTORE PUSH1 0x60 DUP1 DUP3 ADD MLOAD SWAP1 DUP7 ADD MSTORE PUSH1 0x80 DUP1 DUP3 ADD MLOAD SWAP1 DUP7 ADD MSTORE PUSH1 0xA0 DUP1 DUP3 ADD MLOAD ISZERO ISZERO SWAP1 DUP7 ADD MSTORE PUSH1 0xC0 SWAP1 DUP2 ADD MLOAD ISZERO ISZERO SWAP1 DUP6 ADD MSTORE SWAP5 DUP2 ADD SWAP5 PUSH1 0xE0 SWAP1 SWAP4 ADD SWAP3 PUSH1 0x1 ADD PUSH2 0x28A JUMP JUMPDEST PUSH1 0x6 DUP9 PUSH1 0x1 SWAP3 PUSH1 0x40 MLOAD PUSH2 0x308 DUP2 PUSH2 0x1CBC JUMP JUMPDEST DUP8 SLOAD DUP2 MSTORE DUP5 DUP9 ADD SLOAD DUP4 DUP3 ADD MSTORE DUP5 DUP1 PUSH1 0xA0 SHL SUB PUSH1 0x2 DUP10 ADD SLOAD AND PUSH1 0x40 DUP3 ADD MSTORE DUP7 DUP9 ADD SLOAD PUSH1 0x60 DUP3 ADD MSTORE PUSH1 0x4 DUP9 ADD SLOAD PUSH1 0x80 DUP3 ADD MSTORE DUP6 DUP9 ADD SLOAD PUSH1 0xFF SWAP1 DUP2 DUP2 AND ISZERO ISZERO PUSH1 0xA0 DUP5 ADD MSTORE PUSH1 0x8 SHR AND ISZERO ISZERO PUSH1 0xC0 DUP3 ADD MSTORE DUP2 MSTORE ADD SWAP5 ADD SWAP5 ADD SWAP4 SWAP3 PUSH2 0x26B JUMP JUMPDEST PUSH4 0x4E487B71 PUSH1 0xE0 SHL PUSH1 0x0 MSTORE PUSH1 0x41 PUSH1 0x4 MSTORE PUSH1 0x24 PUSH1 0x0 REVERT JUMPDEST CALLVALUE PUSH2 0x1E9 JUMPI PUSH1 0x20 CALLDATASIZE PUSH1 0x3 NOT ADD SLT PUSH2 0x1E9 JUMPI PUSH2 0x391 PUSH2 0x1C54 JUMP JUMPDEST PUSH2 0x399 PUSH2 0x1F61 JUMP JUMPDEST PUSH1 0x1 PUSH1 0x1 PUSH1 0xA0 SHL SUB SWAP1 DUP2 AND SWAP1 DUP2 ISZERO PUSH2 0x3E8 JUMPI PUSH1 0x0 SLOAD DUP3 PUSH1 0x1 PUSH1 0x1 PUSH1 0x60 SHL SUB PUSH1 0xA0 SHL DUP3 AND OR PUSH1 0x0 SSTORE AND PUSH32 0x8BE0079C531659141344CD1FD0A4F28419497F9722A3DAAFE3B4186F6B6457E0 PUSH1 0x0 DUP1 LOG3 STOP JUMPDEST PUSH1 0x40 MLOAD PUSH4 0x1E4FBDF7 PUSH1 0xE0 SHL DUP2 MSTORE PUSH1 0x0 PUSH1 0x4 DUP3 ADD MSTORE PUSH1 0x24 SWAP1 REVERT JUMPDEST CALLVALUE PUSH2 0x1E9 JUMPI PUSH1 0x20 DUP1 PUSH1 0x3 NOT CALLDATASIZE ADD SLT PUSH2 0x1E9 JUMPI PUSH1 0x1 PUSH1 0x1 PUSH1 0xA0 SHL SUB PUSH2 0x423 PUSH2 0x1C54 JUMP JUMPDEST AND PUSH1 0x0 MSTORE PUSH1 0x5 PUSH1 0x20 MSTORE PUSH1 0x40 PUSH1 0x0 KECCAK256 SWAP1 PUSH1 0x40 MLOAD SWAP1 DUP2 PUSH1 0x20 DUP5 SLOAD SWAP2 DUP3 DUP2 MSTORE ADD SWAP4 PUSH1 0x0 MSTORE PUSH1 0x20 PUSH1 0x0 KECCAK256 SWAP2 PUSH1 0x0 SWAP1 JUMPDEST DUP3 DUP3 LT PUSH2 0x465 JUMPI PUSH2 0x1CE DUP6 PUSH2 0x1C2 DUP2 DUP10 SUB DUP3 PUSH2 0x1CD8 JUMP JUMPDEST DUP4 SLOAD DUP7 MSTORE SWAP5 DUP6 ADD SWAP5 PUSH1 0x1 SWAP4 DUP5 ADD SWAP4 SWAP1 SWAP2 ADD SWAP1 PUSH2 0x44E JUMP JUMPDEST CALLVALUE PUSH2 0x1E9 JUMPI PUSH2 0x48A CALLDATASIZE PUSH2 0x1D36 JUMP JUMPDEST DUP3 PUSH1 0x0 MSTORE PUSH1 0x2 PUSH1 0x20 MSTORE PUSH1 0x40 PUSH1 0x0 KECCAK256 SWAP1 PUSH1 0xFF PUSH1 0x5 DUP4 ADD SLOAD AND SWAP2 PUSH1 0x4 DUP4 LT ISZERO PUSH2 0x68F JUMPI PUSH2 0x4B7 PUSH1 0x2 SWAP4 ISZERO PUSH2 0x1E6C JUMP JUMPDEST SWAP1 SWAP2 ADD SLOAD PUSH1 0x1 PUSH1 0x1 PUSH1 0xA0 SHL SUB SWAP2 SWAP1 CALLER SWAP1 DUP4 AND EQ PUSH2 0x64A JUMPI DUP4 PUSH1 0x0 MSTORE PUSH1 0x3 PUSH1 0x20 MSTORE PUSH1 0x40 PUSH1 0x0 KECCAK256 SWAP1 DUP2 SLOAD SWAP3 PUSH1 0x1 DUP5 ADD SWAP2 DUP3 DUP6 GT PUSH2 0x634 JUMPI PUSH3 0x15180 SWAP1 DUP2 DUP2 MUL SWAP2 DUP2 DUP4 DIV EQ SWAP1 ISZERO OR ISZERO PUSH2 0x634 JUMPI PUSH2 0x50B SWAP1 TIMESTAMP PUSH2 0x1F54 JUMP JUMPDEST SWAP1 PUSH1 0x40 MLOAD SWAP2 PUSH2 0x519 DUP4 PUSH2 0x1CBC JUMP JUMPDEST DUP4 DUP4 MSTORE PUSH1 0x20 DUP4 ADD SWAP4 DUP9 DUP6 MSTORE PUSH1 0x40 DUP5 ADD CALLER DUP2 MSTORE PUSH1 0x60 DUP6 ADD SWAP2 DUP10 DUP4 MSTORE PUSH1 0x80 DUP7 ADD SWAP4 DUP5 MSTORE PUSH1 0xA0 DUP7 ADD SWAP9 PUSH1 0x0 DUP11 MSTORE PUSH1 0xC0 DUP8 ADD SWAP9 PUSH1 0x0 DUP11 MSTORE PUSH1 0x1 PUSH1 0x40 SHL DUP3 LT ISZERO PUSH2 0x362 JUMPI PUSH2 0x563 SWAP3 DUP2 SSTORE PUSH2 0x1C22 JUMP JUMPDEST SWAP5 SWAP1 SWAP5 PUSH2 0x61E JUMPI PUSH2 0x5B5 SWAP7 PUSH1 0x5 SWAP7 MLOAD DUP7 SSTORE MLOAD PUSH1 0x1 DUP7 ADD SSTORE PUSH1 0x2 DUP6 ADD SWAP2 MLOAD AND PUSH1 0x1 PUSH1 0x1 PUSH1 0x60 SHL SUB PUSH1 0xA0 SHL DUP3 SLOAD AND OR SWAP1 SSTORE MLOAD PUSH1 0x3 DUP4 ADD SSTORE MLOAD PUSH1 0x4 DUP3 ADD SSTORE ADD SWAP3 MLOAD ISZERO ISZERO DUP4 SWAP1 PUSH1 0xFF DUP1 NOT DUP4 SLOAD AND SWAP2 ISZERO ISZERO AND OR SWAP1 SSTORE JUMP JUMPDEST MLOAD DUP2 SLOAD PUSH2 0xFF00 NOT AND SWAP1 ISZERO ISZERO PUSH1 0x8 SHL PUSH2 0xFF00 AND OR SWAP1 SSTORE PUSH1 0x0 DUP3 DUP2 MSTORE PUSH1 0x3 PUSH1 0x20 SWAP1 DUP2 MSTORE PUSH1 0x40 SWAP2 DUP3 SWAP1 KECCAK256 SLOAD DUP3 MLOAD CALLER DUP2 MSTORE SWAP2 DUP3 ADD SWAP4 SWAP1 SWAP4 MSTORE TIMESTAMP SWAP2 DUP2 ADD SWAP2 SWAP1 SWAP2 MSTORE PUSH32 0x23B0047C5C1F392C454F858542DDFB8143E48945B1A00E247308D5EB97164BC4 SWAP1 DUP1 PUSH1 0x60 DUP2 ADD JUMPDEST SUB SWAP1 LOG3 STOP JUMPDEST PUSH4 0x4E487B71 PUSH1 0xE0 SHL PUSH1 0x0 MSTORE PUSH1 0x0 PUSH1 0x4 MSTORE PUSH1 0x24 PUSH1 0x0 REVERT JUMPDEST PUSH4 0x4E487B71 PUSH1 0xE0 SHL PUSH1 0x0 MSTORE PUSH1 0x11 PUSH1 0x4 MSTORE PUSH1 0x24 PUSH1 0x0 REVERT JUMPDEST PUSH1 0x40 MLOAD PUSH3 0x461BCD PUSH1 0xE5 SHL DUP2 MSTORE PUSH1 0x20 PUSH1 0x4 DUP3 ADD MSTORE PUSH1 0x1B PUSH1 0x24 DUP3 ADD MSTORE PUSH32 0x43616E6E6F74206F66666572206F6E206F776E206C697374696E670000000000 PUSH1 0x44 DUP3 ADD MSTORE PUSH1 0x64 SWAP1 REVERT JUMPDEST PUSH4 0x4E487B71 PUSH1 0xE0 SHL PUSH1 0x0 MSTORE PUSH1 0x21 PUSH1 0x4 MSTORE PUSH1 0x24 PUSH1 0x0 REVERT JUMPDEST CALLVALUE PUSH2 0x1E9 JUMPI PUSH1 0x20 CALLDATASIZE PUSH1 0x3 NOT ADD SLT PUSH2 0x1E9 JUMPI PUSH1 0x4 CALLDATALOAD PUSH1 0x0 MSTORE PUSH1 0x2 PUSH1 0x20 MSTORE PUSH1 0x40 PUSH1 0x0 KECCAK256 DUP1 SLOAD SWAP1 PUSH2 0x1CE PUSH1 0x1 DUP3 ADD SLOAD SWAP2 PUSH1 0x1 DUP1 PUSH1 0xA0 SHL SUB SWAP4 DUP5 PUSH1 0x2 DUP4 ADD SLOAD AND SWAP5 PUSH1 0x3 DUP4 ADD SLOAD AND SWAP2 PUSH1 0x4 DUP2 ADD SLOAD PUSH2 0x73B PUSH1 0xFF PUSH1 0x5 DUP5 ADD SLOAD AND PUSH1 0x6 DUP5 ADD SLOAD SWAP3 PUSH2 0x710 PUSH1 0x8 PUSH1 0x7 DUP8 ADD SLOAD SWAP7 ADD PUSH2 0x1D8A JUMP JUMPDEST SWAP7 PUSH1 0x40 MLOAD SWAP11 DUP12 SWAP11 PUSH2 0x120 SWAP9 DUP13 MSTORE PUSH1 0x20 DUP13 ADD MSTORE PUSH1 0x40 DUP12 ADD MSTORE PUSH1 0x60 DUP11 ADD MSTORE PUSH1 0x80 DUP10 ADD MSTORE PUSH1 0xA0 DUP9 ADD SWAP1 PUSH2 0x1BBF JUMP JUMPDEST PUSH1 0xC0 DUP7 ADD MSTORE PUSH1 0xE0 DUP6 ADD MSTORE DUP1 PUSH2 0x100 DUP6 ADD MSTORE DUP4 ADD SWAP1 PUSH2 0x1BCC JUMP JUMPDEST CALLVALUE PUSH2 0x1E9 JUMPI PUSH1 0x0 CALLDATASIZE PUSH1 0x3 NOT ADD SLT PUSH2 0x1E9 JUMPI PUSH1 0x20 PUSH1 0x40 MLOAD PUSH2 0x2710 DUP2 MSTORE RETURN JUMPDEST CALLVALUE PUSH2 0x1E9 JUMPI PUSH1 0x40 CALLDATASIZE PUSH1 0x3 NOT ADD SLT PUSH2 0x1E9 JUMPI PUSH2 0x78A PUSH2 0x1C54 JUMP JUMPDEST PUSH1 0x1 PUSH1 0x1 PUSH1 0xA0 SHL SUB AND PUSH1 0x0 SWAP1 DUP2 MSTORE PUSH1 0x7 PUSH1 0x20 MSTORE PUSH1 0x40 SWAP1 KECCAK256 DUP1 SLOAD PUSH1 0x24 CALLDATALOAD SWAP2 SWAP1 DUP3 LT ISZERO PUSH2 0x1E9 JUMPI PUSH1 0x20 SWAP2 PUSH2 0x7BB SWAP2 PUSH2 0x1C6A JUMP JUMPDEST SWAP1 SLOAD PUSH1 0x40 MLOAD SWAP2 PUSH1 0x3 SHL SHR DUP2 MSTORE RETURN JUMPDEST CALLVALUE PUSH2 0x1E9 JUMPI PUSH2 0x7D7 CALLDATASIZE PUSH2 0x1D36 JUMP JUMPDEST SWAP2 DUP2 ISZERO PUSH2 0x980 JUMPI PUSH1 0x9 SLOAD SWAP2 PUSH2 0x7EB DUP4 PUSH2 0x1F45 JUMP JUMPDEST PUSH1 0x9 SSTORE PUSH3 0x15180 SWAP4 DUP5 DUP2 MUL SWAP5 DUP2 DUP7 DIV EQ SWAP1 ISZERO OR ISZERO PUSH2 0x634 JUMPI PUSH32 0x56102B55F8C4BA831C7D439C06939C7E1FE545ABBD4F8A71737C2A9B0F7E8584 DUP4 SWAP2 PUSH2 0x92F PUSH2 0x835 PUSH1 0x20 SWAP8 TIMESTAMP PUSH2 0x1F54 JUMP JUMPDEST PUSH1 0x40 MLOAD SWAP1 PUSH2 0x842 DUP3 PUSH2 0x1C9F JUMP JUMPDEST DUP6 DUP3 MSTORE DUP6 PUSH2 0x90D PUSH1 0x8 DUP12 DUP6 ADD SWAP5 DUP11 DUP7 MSTORE PUSH1 0x40 DUP2 ADD SWAP5 CALLER DUP7 MSTORE PUSH1 0x60 DUP3 ADD PUSH1 0x0 DUP2 MSTORE PUSH1 0x80 DUP4 ADD DUP11 DUP2 MSTORE PUSH1 0xA0 DUP5 ADD SWAP1 DUP12 DUP3 MSTORE PUSH1 0xC0 DUP6 ADD SWAP3 TIMESTAMP DUP5 MSTORE PUSH1 0xE0 DUP7 ADD SWAP5 DUP6 MSTORE PUSH2 0x100 DUP7 ADD SWAP11 PUSH1 0x0 DUP13 MSTORE PUSH2 0x120 DUP8 ADD SWAP10 PUSH1 0x0 DUP12 MSTORE PUSH1 0x0 MSTORE PUSH1 0x20 PUSH1 0x4 SWAP1 MSTORE PUSH1 0x40 PUSH1 0x0 KECCAK256 SWAP7 MLOAD DUP8 SSTORE MLOAD PUSH1 0x1 DUP8 ADD SSTORE PUSH1 0x2 DUP7 ADD PUSH1 0x1 DUP1 PUSH1 0xA0 SHL SUB DUP1 SWAP12 MLOAD AND SWAP1 PUSH1 0x1 PUSH1 0x1 PUSH1 0x60 SHL SUB PUSH1 0xA0 SHL SWAP2 DUP3 DUP3 SLOAD AND OR SWAP1 SSTORE DUP11 PUSH1 0x3 DUP9 ADD SWAP3 MLOAD AND SWAP1 DUP3 SLOAD AND OR SWAP1 SSTORE MLOAD PUSH1 0x4 DUP6 ADD SSTORE MLOAD PUSH1 0x5 DUP5 ADD SSTORE MLOAD PUSH1 0x6 DUP4 ADD SSTORE MLOAD PUSH1 0x7 DUP3 ADD SSTORE ADD SWAP4 MLOAD ISZERO ISZERO DUP5 SWAP1 PUSH1 0xFF DUP1 NOT DUP4 SLOAD AND SWAP2 ISZERO ISZERO AND OR SWAP1 SSTORE JUMP JUMPDEST MLOAD DUP3 SLOAD PUSH2 0x100 PUSH1 0x1 PUSH1 0xA8 SHL SUB NOT AND SWAP2 AND PUSH1 0x8 SHL PUSH2 0x100 PUSH1 0x1 PUSH1 0xA8 SHL SUB AND OR SWAP1 SSTORE JUMP JUMPDEST CALLER PUSH1 0x0 MSTORE PUSH1 0x6 DUP7 MSTORE PUSH2 0x945 DUP4 PUSH1 0x40 PUSH1 0x0 KECCAK256 PUSH2 0x1F10 JUMP JUMPDEST PUSH1 0x0 DUP4 DUP2 MSTORE PUSH1 0x4 DUP8 MSTORE PUSH1 0x40 SWAP1 DUP2 SWAP1 KECCAK256 PUSH1 0x7 ADD SLOAD DUP2 MLOAD CALLER DUP2 MSTORE PUSH1 0x20 DUP2 ADD SWAP4 SWAP1 SWAP4 MSTORE SWAP1 DUP3 ADD MSTORE TIMESTAMP PUSH1 0x60 DUP3 ADD MSTORE DUP1 PUSH1 0x80 DUP2 ADD JUMPDEST SUB SWAP1 LOG3 PUSH1 0x40 MLOAD SWAP1 DUP2 MSTORE RETURN JUMPDEST PUSH1 0x40 MLOAD PUSH3 0x461BCD PUSH1 0xE5 SHL DUP2 MSTORE PUSH1 0x20 PUSH1 0x4 DUP3 ADD MSTORE PUSH1 0x25 PUSH1 0x24 DUP3 ADD MSTORE PUSH32 0x5374617274696E67207072696365206D75737420626520677265617465722074 PUSH1 0x44 DUP3 ADD MSTORE PUSH5 0x68616E203 PUSH1 0xDC SHL PUSH1 0x64 DUP3 ADD MSTORE PUSH1 0x84 SWAP1 REVERT JUMPDEST CALLVALUE PUSH2 0x1E9 JUMPI PUSH1 0x20 DUP1 PUSH1 0x3 NOT CALLDATASIZE ADD SLT PUSH2 0x1E9 JUMPI PUSH1 0x1 PUSH1 0x1 PUSH1 0xA0 SHL SUB PUSH2 0x9F5 PUSH2 0x1C54 JUMP JUMPDEST AND PUSH1 0x0 MSTORE PUSH1 0x7 PUSH1 0x20 MSTORE PUSH1 0x40 PUSH1 0x0 KECCAK256 SWAP1 PUSH1 0x40 MLOAD SWAP1 DUP2 PUSH1 0x20 DUP5 SLOAD SWAP2 DUP3 DUP2 MSTORE ADD SWAP4 PUSH1 0x0 MSTORE PUSH1 0x20 PUSH1 0x0 KECCAK256 SWAP2 PUSH1 0x0 SWAP1 JUMPDEST DUP3 DUP3 LT PUSH2 0xA37 JUMPI PUSH2 0x1CE DUP6 PUSH2 0x1C2 DUP2 DUP10 SUB DUP3 PUSH2 0x1CD8 JUMP JUMPDEST DUP4 SLOAD DUP7 MSTORE SWAP5 DUP6 ADD SWAP5 PUSH1 0x1 SWAP4 DUP5 ADD SWAP4 SWAP1 SWAP2 ADD SWAP1 PUSH2 0xA20 JUMP JUMPDEST CALLVALUE PUSH2 0x1E9 JUMPI PUSH1 0x20 CALLDATASIZE PUSH1 0x3 NOT ADD SLT PUSH2 0x1E9 JUMPI PUSH1 0x4 CALLDATALOAD DUP1 PUSH1 0x0 MSTORE PUSH1 0x4 PUSH1 0x20 MSTORE PUSH1 0x40 PUSH1 0x0 KECCAK256 PUSH1 0x8 DUP2 ADD PUSH1 0xFF DUP2 SLOAD AND PUSH2 0xBA4 JUMPI PUSH1 0x7 DUP3 ADD SLOAD TIMESTAMP GT ISZERO PUSH2 0xB6B JUMPI PUSH1 0x4 DUP3 ADD SWAP1 PUSH2 0xAA9 DUP3 SLOAD PUSH2 0x2710 PUSH2 0xAA2 PUSH1 0x1 SLOAD DUP4 PUSH2 0x1EF0 JUMP JUMPDEST DIV SWAP1 PUSH2 0x1F03 JUMP JUMPDEST SWAP1 PUSH1 0x0 DUP1 DUP1 DUP1 PUSH1 0x1 DUP1 PUSH1 0xA0 SHL SUB SWAP6 DUP7 PUSH1 0x2 DUP11 ADD SLOAD AND DUP3 DUP3 ISZERO PUSH2 0xB62 JUMPI JUMPDEST CALL ISZERO PUSH2 0xB56 JUMPI DUP1 SLOAD PUSH1 0x1 PUSH1 0xFF NOT DUP3 AND DUP2 OR DUP4 SSTORE PUSH1 0x3 SWAP6 SWAP1 SWAP6 ADD DUP1 SLOAD PUSH2 0x100 PUSH1 0x1 PUSH1 0xA8 SHL SUB SWAP1 DUP6 AND PUSH1 0x8 SHL AND PUSH1 0x1 PUSH1 0x1 PUSH1 0xA8 SHL SUB NOT SWAP1 SWAP3 AND SWAP2 SWAP1 SWAP2 OR SWAP1 SWAP5 OR SWAP1 SSTORE PUSH32 0xE9BA83469FC8EE4260DD274FD43B5A54F2DF813AD21C4637D53084D1F3866B37 SWAP3 SLOAD SWAP2 SLOAD PUSH1 0x40 DUP1 MLOAD PUSH1 0x1 PUSH1 0x1 PUSH1 0xA0 SHL SUB SWAP4 SWAP1 SWAP5 AND SWAP3 SWAP1 SWAP3 AND DUP4 MSTORE PUSH1 0x20 DUP4 ADD MSTORE TIMESTAMP SWAP1 DUP3 ADD MSTORE DUP1 PUSH1 0x60 DUP2 ADD JUMPDEST SUB SWAP1 LOG2 STOP JUMPDEST PUSH1 0x40 MLOAD RETURNDATASIZE PUSH1 0x0 DUP3 RETURNDATACOPY RETURNDATASIZE SWAP1 REVERT JUMPDEST POP PUSH2 0x8FC PUSH2 0xAC6 JUMP JUMPDEST PUSH1 0x40 MLOAD PUSH3 0x461BCD PUSH1 0xE5 SHL DUP2 MSTORE PUSH1 0x20 PUSH1 0x4 DUP3 ADD MSTORE PUSH1 0x11 PUSH1 0x24 DUP3 ADD MSTORE PUSH17 0x105D58DD1A5BDB881B9BDD08195B991959 PUSH1 0x7A SHL PUSH1 0x44 DUP3 ADD MSTORE PUSH1 0x64 SWAP1 REVERT JUMPDEST PUSH1 0x40 MLOAD PUSH3 0x461BCD PUSH1 0xE5 SHL DUP2 MSTORE PUSH1 0x20 PUSH1 0x4 DUP3 ADD MSTORE PUSH1 0xD PUSH1 0x24 DUP3 ADD MSTORE PUSH13 0x105B1C9958591E48195B991959 PUSH1 0x9A SHL PUSH1 0x44 DUP3 ADD MSTORE PUSH1 0x64 SWAP1 REVERT JUMPDEST CALLVALUE PUSH2 0x1E9 JUMPI PUSH1 0x40 CALLDATASIZE PUSH1 0x3 NOT ADD SLT PUSH2 0x1E9 JUMPI PUSH2 0xBF2 PUSH2 0x1C54 JUMP JUMPDEST PUSH1 0x1 PUSH1 0x1 PUSH1 0xA0 SHL SUB AND PUSH1 0x0 SWAP1 DUP2 MSTORE PUSH1 0x6 PUSH1 0x20 MSTORE PUSH1 0x40 SWAP1 KECCAK256 DUP1 SLOAD PUSH1 0x24 CALLDATALOAD SWAP2 SWAP1 DUP3 LT ISZERO PUSH2 0x1E9 JUMPI PUSH1 0x20 SWAP2 PUSH2 0x7BB SWAP2 PUSH2 0x1C6A JUMP JUMPDEST CALLVALUE PUSH2 0x1E9 JUMPI PUSH1 0x80 CALLDATASIZE PUSH1 0x3 NOT ADD SLT PUSH2 0x1E9 JUMPI PUSH1 0x24 CALLDATALOAD PUSH1 0x44 CALLDATALOAD PUSH1 0x4 CALLDATALOAD PUSH1 0x64 CALLDATALOAD PUSH8 0xFFFFFFFFFFFFFFFF DUP2 GT PUSH2 0x1E9 JUMPI CALLDATASIZE PUSH1 0x23 DUP3 ADD SLT ISZERO PUSH2 0x1E9 JUMPI DUP1 PUSH1 0x4 ADD CALLDATALOAD PUSH8 0xFFFFFFFFFFFFFFFF DUP2 GT PUSH2 0x362 JUMPI PUSH1 0x40 MLOAD SWAP2 PUSH2 0xC86 PUSH1 0x1F DUP4 ADD PUSH1 0x1F NOT AND PUSH1 0x20 ADD DUP5 PUSH2 0x1CD8 JUMP JUMPDEST DUP2 DUP4 MSTORE CALLDATASIZE PUSH1 0x24 DUP4 DUP4 ADD ADD GT PUSH2 0x1E9 JUMPI DUP2 PUSH1 0x0 SWAP3 PUSH1 0x24 PUSH1 0x20 SWAP4 ADD DUP4 DUP7 ADD CALLDATACOPY DUP4 ADD ADD MSTORE DUP4 ISZERO PUSH2 0xF5D JUMPI PUSH1 0x8 SLOAD SWAP3 PUSH2 0xCBA DUP5 PUSH2 0x1F45 JUMP JUMPDEST PUSH1 0x8 SSTORE PUSH3 0x15180 SWAP1 DUP2 DUP2 MUL SWAP2 DUP2 DUP4 DIV EQ SWAP1 ISZERO OR ISZERO PUSH2 0x634 JUMPI PUSH2 0xCDC SWAP1 TIMESTAMP PUSH2 0x1F54 JUMP JUMPDEST SWAP1 PUSH1 0x40 MLOAD SWAP2 PUSH2 0xCEA DUP4 PUSH2 0x1C82 JUMP JUMPDEST DUP5 DUP4 MSTORE DUP4 PUSH1 0x20 DUP5 ADD MSTORE CALLER PUSH1 0x40 DUP5 ADD MSTORE PUSH1 0x0 PUSH1 0x60 DUP5 ADD MSTORE DUP6 PUSH1 0x80 DUP5 ADD MSTORE PUSH1 0x0 PUSH1 0xA0 DUP5 ADD MSTORE TIMESTAMP PUSH1 0xC0 DUP5 ADD MSTORE PUSH1 0xE0 DUP4 ADD MSTORE PUSH2 0x100 DUP3 ADD MSTORE DUP3 PUSH1 0x0 MSTORE PUSH1 0x2 PUSH1 0x20 MSTORE PUSH1 0x40 PUSH1 0x0 KECCAK256 SWAP4 DUP2 MLOAD DUP6 SSTORE PUSH1 0x1 SWAP5 PUSH1 0x20 DUP4 ADD MLOAD DUP7 DUP3 ADD SSTORE PUSH1 0x2 DUP2 ADD PUSH1 0x1 DUP1 PUSH1 0xA0 SHL SUB SWAP1 DUP2 PUSH1 0x40 DUP7 ADD MLOAD AND SWAP1 PUSH1 0x1 PUSH1 0x1 PUSH1 0x60 SHL SUB PUSH1 0xA0 SHL SWAP2 DUP3 DUP3 SLOAD AND OR SWAP1 SSTORE PUSH1 0x3 DUP4 ADD SWAP2 PUSH1 0x60 DUP7 ADD MLOAD AND SWAP1 DUP3 SLOAD AND OR SWAP1 SSTORE PUSH1 0x80 DUP4 ADD MLOAD PUSH1 0x4 DUP3 ADD SSTORE PUSH1 0x5 DUP2 ADD SWAP1 PUSH1 0xA0 DUP5 ADD MLOAD SWAP1 PUSH1 0x4 DUP3 LT ISZERO PUSH2 0x68F JUMPI PUSH2 0x100 SWAP3 PUSH1 0x8 SWAP3 PUSH1 0xFF DUP1 NOT DUP4 SLOAD AND SWAP2 AND OR SWAP1 SSTORE PUSH1 0xC0 DUP6 ADD MLOAD PUSH1 0x6 DUP3 ADD SSTORE PUSH1 0xE0 DUP6 ADD MLOAD PUSH1 0x7 DUP3 ADD SSTORE ADD SWAP3 ADD MLOAD SWAP2 DUP3 MLOAD PUSH8 0xFFFFFFFFFFFFFFFF DUP2 GT PUSH2 0x362 JUMPI PUSH2 0xDDB DUP3 SLOAD PUSH2 0x1D50 JUMP JUMPDEST PUSH1 0x1F DUP2 GT PUSH2 0xF16 JUMPI JUMPDEST POP SWAP1 DUP6 SWAP3 SWAP2 PUSH1 0x20 SWAP8 DUP9 SWAP6 PUSH1 0x1F DUP4 GT PUSH1 0x1 EQ PUSH2 0xE8F JUMPI DUP3 SWAP2 PUSH32 0x3D156DABE6356E9356BF267DCD8D81E2A8EF6BBEF1A0EF8A4B73CE8C87767676 SWAP7 SWAP8 DUP4 SWAP3 PUSH1 0x0 SWAP5 PUSH2 0xE84 JUMPI JUMPDEST POP POP SHL SWAP2 PUSH1 0x0 NOT SWAP1 PUSH1 0x3 SHL SHR NOT AND OR SWAP1 SSTORE JUMPDEST CALLER PUSH1 0x0 MSTORE PUSH1 0x5 DUP7 MSTORE PUSH2 0xE50 DUP4 PUSH1 0x40 PUSH1 0x0 KECCAK256 PUSH2 0x1F10 JUMP JUMPDEST PUSH1 0x0 DUP4 DUP2 MSTORE PUSH1 0x2 DUP8 MSTORE PUSH1 0x40 SWAP1 DUP2 SWAP1 KECCAK256 PUSH1 0x7 ADD SLOAD DUP2 MLOAD CALLER DUP2 MSTORE PUSH1 0x20 DUP2 ADD SWAP4 SWAP1 SWAP4 MSTORE SWAP1 DUP3 ADD MSTORE TIMESTAMP PUSH1 0x60 DUP3 ADD MSTORE DUP1 PUSH1 0x80 DUP2 ADD PUSH2 0x975 JUMP JUMPDEST ADD MLOAD SWAP3 POP DUP12 DUP1 PUSH2 0xE28 JUMP JUMPDEST SWAP6 PUSH1 0x1F SWAP3 SWAP2 SWAP3 NOT DUP3 AND SWAP1 DUP5 PUSH1 0x0 MSTORE DUP11 PUSH1 0x0 KECCAK256 SWAP2 PUSH1 0x0 JUMPDEST DUP2 DUP2 LT PUSH2 0xEFE JUMPI POP SWAP8 DUP4 PUSH32 0x3D156DABE6356E9356BF267DCD8D81E2A8EF6BBEF1A0EF8A4B73CE8C87767676 SWAP9 SWAP10 LT PUSH2 0xEE5 JUMPI JUMPDEST POP POP POP DUP2 SHL ADD SWAP1 SSTORE PUSH2 0xE3A JUMP JUMPDEST ADD MLOAD PUSH1 0x0 NOT PUSH1 0xF8 DUP5 PUSH1 0x3 SHL AND SHR NOT AND SWAP1 SSTORE DUP10 DUP1 DUP1 PUSH2 0xED8 JUMP JUMPDEST DUP10 DUP4 ADD MLOAD DUP5 SSTORE DUP12 SWAP9 POP SWAP3 DUP6 ADD SWAP3 SWAP2 DUP13 ADD SWAP2 DUP13 ADD PUSH2 0xEA5 JUMP JUMPDEST DUP3 PUSH1 0x0 MSTORE PUSH1 0x20 PUSH1 0x0 KECCAK256 PUSH1 0x1F DUP4 ADD PUSH1 0x5 SHR DUP2 ADD SWAP2 PUSH1 0x20 DUP5 LT PUSH2 0xF53 JUMPI JUMPDEST PUSH1 0x1F ADD PUSH1 0x5 SHR ADD SWAP1 JUMPDEST DUP2 DUP2 LT PUSH2 0xF48 JUMPI POP PUSH2 0xDE4 JUMP JUMPDEST PUSH1 0x0 DUP2 SSTORE DUP9 ADD PUSH2 0xF3B JUMP JUMPDEST SWAP1 SWAP2 POP DUP2 SWAP1 PUSH2 0xF32 JUMP JUMPDEST PUSH1 0x40 MLOAD PUSH3 0x461BCD PUSH1 0xE5 SHL DUP2 MSTORE PUSH1 0x20 PUSH1 0x4 DUP3 ADD MSTORE PUSH1 0x1C PUSH1 0x24 DUP3 ADD MSTORE PUSH32 0x5072696365206D7573742062652067726561746572207468616E203000000000 PUSH1 0x44 DUP3 ADD MSTORE PUSH1 0x64 SWAP1 REVERT JUMPDEST CALLVALUE PUSH2 0x1E9 JUMPI PUSH1 0x0 CALLDATASIZE PUSH1 0x3 NOT ADD SLT PUSH2 0x1E9 JUMPI PUSH1 0x20 PUSH1 0x8 SLOAD PUSH1 0x40 MLOAD SWAP1 DUP2 MSTORE RETURN JUMPDEST PUSH1 0x20 DUP1 PUSH1 0x3 NOT CALLDATASIZE ADD SLT PUSH2 0x1E9 JUMPI PUSH1 0x4 CALLDATALOAD SWAP1 DUP2 PUSH1 0x0 MSTORE PUSH1 0x4 DUP2 MSTORE PUSH1 0x40 PUSH1 0x0 KECCAK256 SWAP1 PUSH1 0xFF PUSH1 0x8 DUP4 ADD SLOAD AND PUSH2 0x115A JUMPI PUSH1 0x7 DUP3 ADD SLOAD TIMESTAMP GT PUSH2 0x1124 JUMPI PUSH1 0x4 DUP3 ADD SWAP2 DUP3 SLOAD SWAP1 DUP2 CALLVALUE GT ISZERO PUSH2 0x10F1 JUMPI PUSH1 0x2 DUP2 ADD SLOAD PUSH1 0x1 PUSH1 0x1 PUSH1 0xA0 SHL SUB SWAP4 SWAP1 DUP5 AND CALLER EQ PUSH2 0x10AD JUMPI POP PUSH1 0x3 ADD SWAP2 DUP3 SLOAD AND DUP1 PUSH2 0x1088 JUMPI JUMPDEST POP POP DUP1 SLOAD PUSH1 0x1 PUSH1 0x1 PUSH1 0xA0 SHL SUB NOT AND CALLER SWAP1 DUP2 OR SWAP1 SWAP2 SSTORE CALLVALUE SWAP2 DUP3 SWAP1 SSTORE PUSH1 0x40 DUP1 MLOAD SWAP2 DUP3 MSTORE PUSH1 0x20 DUP3 ADD SWAP3 SWAP1 SWAP3 MSTORE TIMESTAMP SWAP2 DUP2 ADD SWAP2 SWAP1 SWAP2 MSTORE PUSH32 0x51DB8E23B3F4479B162FD48823B8402895442B8F6CFD94F66239391881EC7B6F SWAP1 DUP1 PUSH1 0x60 DUP2 ADD PUSH2 0xB51 JUMP JUMPDEST PUSH1 0x0 DUP1 DUP1 SWAP4 DUP2 SWAP4 DUP3 DUP3 ISZERO PUSH2 0x10A4 JUMPI JUMPDEST CALL ISZERO PUSH2 0xB56 JUMPI DUP4 DUP1 PUSH2 0x102B JUMP JUMPDEST POP PUSH2 0x8FC PUSH2 0x1097 JUMP JUMPDEST PUSH1 0x64 SWAP1 PUSH1 0x40 MLOAD SWAP1 PUSH3 0x461BCD PUSH1 0xE5 SHL DUP3 MSTORE PUSH1 0x4 DUP3 ADD MSTORE PUSH1 0x19 PUSH1 0x24 DUP3 ADD MSTORE PUSH32 0x43616E6E6F7420626964206F6E206F776E2061756374696F6E00000000000000 PUSH1 0x44 DUP3 ADD MSTORE REVERT JUMPDEST PUSH1 0x40 MLOAD PUSH3 0x461BCD PUSH1 0xE5 SHL DUP2 MSTORE PUSH1 0x4 DUP2 ADD DUP5 SWAP1 MSTORE PUSH1 0xB PUSH1 0x24 DUP3 ADD MSTORE PUSH11 0x42696420746F6F206C6F77 PUSH1 0xA8 SHL PUSH1 0x44 DUP3 ADD MSTORE PUSH1 0x64 SWAP1 REVERT JUMPDEST PUSH1 0x64 SWAP1 PUSH1 0x40 MLOAD SWAP1 PUSH3 0x461BCD PUSH1 0xE5 SHL DUP3 MSTORE PUSH1 0x4 DUP3 ADD MSTORE PUSH1 0xF PUSH1 0x24 DUP3 ADD MSTORE PUSH15 0x105D58DD1A5BDB88195E1C1A5C9959 PUSH1 0x8A SHL PUSH1 0x44 DUP3 ADD MSTORE REVERT JUMPDEST PUSH1 0x64 SWAP1 PUSH1 0x40 MLOAD SWAP1 PUSH3 0x461BCD PUSH1 0xE5 SHL DUP3 MSTORE PUSH1 0x4 DUP3 ADD MSTORE PUSH1 0x15 PUSH1 0x24 DUP3 ADD MSTORE PUSH21 0x105D58DD1A5BDB88185B1C9958591E48195B991959 PUSH1 0x5A SHL PUSH1 0x44 DUP3 ADD MSTORE REVERT JUMPDEST CALLVALUE PUSH2 0x1E9 JUMPI PUSH1 0x0 CALLDATASIZE PUSH1 0x3 NOT ADD SLT PUSH2 0x1E9 JUMPI PUSH1 0x0 SLOAD PUSH1 0x40 MLOAD PUSH1 0x1 PUSH1 0x1 PUSH1 0xA0 SHL SUB SWAP1 SWAP2 AND DUP2 MSTORE PUSH1 0x20 SWAP1 RETURN JUMPDEST CALLVALUE PUSH2 0x1E9 JUMPI PUSH1 0x0 CALLDATASIZE PUSH1 0x3 NOT ADD SLT PUSH2 0x1E9 JUMPI PUSH1 0x20 PUSH1 0x1 SLOAD PUSH1 0x40 MLOAD SWAP1 DUP2 MSTORE RETURN JUMPDEST CALLVALUE PUSH2 0x1E9 JUMPI PUSH1 0x40 CALLDATASIZE PUSH1 0x3 NOT ADD SLT PUSH2 0x1E9 JUMPI PUSH2 0x11F6 PUSH2 0x1C54 JUMP JUMPDEST PUSH1 0x1 PUSH1 0x1 PUSH1 0xA0 SHL SUB AND PUSH1 0x0 SWAP1 DUP2 MSTORE PUSH1 0x5 PUSH1 0x20 MSTORE PUSH1 0x40 SWAP1 KECCAK256 DUP1 SLOAD PUSH1 0x24 CALLDATALOAD SWAP2 SWAP1 DUP3 LT ISZERO PUSH2 0x1E9 JUMPI PUSH1 0x20 SWAP2 PUSH2 0x7BB SWAP2 PUSH2 0x1C6A JUMP JUMPDEST PUSH2 0x1230 CALLDATASIZE PUSH2 0x1C0C JUMP JUMPDEST SWAP1 DUP1 PUSH1 0x0 MSTORE PUSH1 0x2 PUSH1 0x20 MSTORE PUSH1 0x40 PUSH1 0x0 KECCAK256 SWAP2 PUSH1 0x2 DUP4 ADD SWAP3 PUSH1 0x1 DUP1 PUSH1 0xA0 SHL SUB DUP1 DUP6 SLOAD AND SWAP2 PUSH2 0x125C CALLER DUP5 EQ PUSH2 0x1E2F JUMP JUMPDEST DUP5 PUSH1 0x0 MSTORE PUSH1 0x3 PUSH1 0x20 MSTORE PUSH2 0x1273 DUP5 PUSH1 0x40 PUSH1 0x0 KECCAK256 PUSH2 0x1C22 JUMP JUMPDEST POP SWAP2 PUSH1 0x5 DUP4 ADD DUP1 SLOAD PUSH1 0xFF DUP2 AND ISZERO SWAP1 DUP2 PUSH2 0x141D JUMPI JUMPDEST POP ISZERO PUSH2 0x13D8 JUMPI PUSH1 0x4 DUP5 ADD SLOAD TIMESTAMP GT PUSH2 0x13A3 JUMPI PUSH1 0x0 DUP1 DUP1 DUP1 PUSH1 0x3 DUP9 ADD SLOAD SWAP9 PUSH2 0x12AF DUP11 CALLVALUE LT ISZERO PUSH2 0x1EAD JUMP JUMPDEST PUSH2 0x12C8 PUSH2 0x2710 PUSH2 0x12C1 PUSH1 0x1 SLOAD DUP14 PUSH2 0x1EF0 JUMP JUMPDEST DIV DUP12 PUSH2 0x1F03 JUMP JUMPDEST SWAP1 DUP3 DUP3 ISZERO PUSH2 0x139A JUMPI JUMPDEST CALL ISZERO PUSH2 0xB56 JUMPI PUSH1 0x1 DUP4 DUP9 PUSH32 0x583A942DC460A346032BDB614951DE78D8CF4F796AD930FFF18AEE2E23113654 SWAP9 DUP6 SWAP5 DUP5 PUSH1 0x2 PUSH1 0x5 PUSH2 0x619 SWAP11 ADD SWAP11 PUSH1 0xFF NOT SWAP12 DUP4 DUP14 DUP3 SLOAD AND OR SWAP1 SSTORE ADD SWAP10 DUP8 DUP12 SLOAD AND PUSH1 0x3 DUP8 ADD SWAP1 PUSH1 0x1 PUSH1 0x1 PUSH1 0x60 SHL SUB PUSH1 0xA0 SHL DUP3 SLOAD AND OR SWAP1 SSTORE DUP3 SLOAD AND OR SWAP1 SSTORE PUSH32 0xC08309E59CE8041CB2C0534DD94462F0BCC0CF9441D6F8E51B93781143FB746D PUSH1 0x20 PUSH1 0x40 MLOAD TIMESTAMP DUP2 MSTORE LOG3 ADD SLOAD SWAP8 SLOAD SWAP4 SLOAD PUSH1 0x40 DUP1 MLOAD PUSH1 0x1 PUSH1 0x1 PUSH1 0xA0 SHL SUB SWAP4 SWAP1 SWAP7 AND DUP4 AND DUP7 MSTORE SWAP3 AND AND PUSH1 0x20 DUP5 ADD MSTORE DUP3 ADD SWAP3 SWAP1 SWAP3 MSTORE TIMESTAMP PUSH1 0x60 DUP3 ADD MSTORE SWAP1 DUP2 SWAP1 PUSH1 0x80 DUP3 ADD SWAP1 JUMP JUMPDEST POP PUSH2 0x8FC PUSH2 0x12D1 JUMP JUMPDEST PUSH1 0x40 MLOAD PUSH3 0x461BCD PUSH1 0xE5 SHL DUP2 MSTORE PUSH1 0x20 PUSH1 0x4 DUP3 ADD MSTORE PUSH1 0xD PUSH1 0x24 DUP3 ADD MSTORE PUSH13 0x13D999995C88195E1C1A5C9959 PUSH1 0x9A SHL PUSH1 0x44 DUP3 ADD MSTORE PUSH1 0x64 SWAP1 REVERT JUMPDEST PUSH1 0x40 MLOAD PUSH3 0x461BCD PUSH1 0xE5 SHL DUP2 MSTORE PUSH1 0x20 PUSH1 0x4 DUP3 ADD MSTORE PUSH1 0x17 PUSH1 0x24 DUP3 ADD MSTORE PUSH32 0x4F6666657220616C72656164792070726F636573736564000000000000000000 PUSH1 0x44 DUP3 ADD MSTORE PUSH1 0x64 SWAP1 REVERT JUMPDEST PUSH1 0xFF SWAP2 POP PUSH1 0x8 SHR AND ISZERO DUP10 PUSH2 0x1287 JUMP JUMPDEST CALLVALUE PUSH2 0x1E9 JUMPI PUSH1 0x0 CALLDATASIZE PUSH1 0x3 NOT ADD SLT PUSH2 0x1E9 JUMPI PUSH1 0x0 PUSH1 0x1 SWAP1 PUSH1 0x1 PUSH1 0x8 SLOAD SWAP1 JUMPDEST DUP2 DUP2 LT PUSH2 0x145B JUMPI PUSH1 0x20 DUP4 PUSH1 0x40 MLOAD SWAP1 DUP2 MSTORE RETURN JUMPDEST DUP1 PUSH1 0x0 MSTORE PUSH1 0x2 PUSH1 0x20 MSTORE PUSH1 0xFF PUSH1 0x5 PUSH1 0x40 PUSH1 0x0 KECCAK256 ADD SLOAD AND SWAP1 PUSH1 0x4 DUP3 LT ISZERO PUSH2 0x68F JUMPI DUP5 SWAP2 ISZERO PUSH2 0x1488 JUMPI JUMPDEST ADD PUSH2 0x1449 JUMP JUMPDEST SWAP3 PUSH2 0x1492 SWAP1 PUSH2 0x1F45 JUMP JUMPDEST SWAP3 PUSH2 0x1482 JUMP JUMPDEST PUSH1 0x20 CALLDATASIZE PUSH1 0x3 NOT ADD SLT PUSH2 0x1E9 JUMPI PUSH1 0x4 CALLDATALOAD DUP1 PUSH1 0x0 MSTORE PUSH1 0x2 PUSH1 0x20 MSTORE PUSH1 0x40 PUSH1 0x0 KECCAK256 SWAP1 PUSH1 0x5 DUP3 ADD SWAP2 PUSH1 0xFF DUP4 SLOAD AND PUSH1 0x4 DUP2 LT ISZERO PUSH2 0x68F JUMPI PUSH2 0x14D3 SWAP1 ISZERO PUSH2 0x1E6C JUMP JUMPDEST PUSH1 0x7 DUP2 ADD SLOAD TIMESTAMP GT PUSH2 0x164D JUMPI PUSH1 0x2 DUP2 ADD DUP1 SLOAD SWAP1 SWAP4 PUSH1 0x1 PUSH1 0x1 PUSH1 0xA0 SHL SUB SWAP2 DUP3 AND SWAP2 SWAP1 CALLER DUP4 EQ PUSH2 0x160F JUMPI PUSH1 0x0 DUP1 DUP1 DUP1 PUSH1 0x4 DUP9 ADD SLOAD SWAP7 PUSH2 0x1511 DUP9 CALLVALUE LT ISZERO PUSH2 0x1EAD JUMP JUMPDEST PUSH2 0x152A PUSH2 0x2710 PUSH2 0x1523 PUSH1 0x1 SLOAD DUP12 PUSH2 0x1EF0 JUMP JUMPDEST DIV DUP10 PUSH2 0x1F03 JUMP JUMPDEST SWAP1 DUP3 DUP3 ISZERO PUSH2 0x1606 JUMPI JUMPDEST CALL ISZERO PUSH2 0xB56 JUMPI PUSH1 0x1 PUSH1 0xFF NOT DUP3 SLOAD AND OR SWAP1 SSTORE PUSH1 0x3 DUP4 ADD CALLER PUSH1 0x1 PUSH1 0x1 PUSH1 0x60 SHL SUB PUSH1 0xA0 SHL DUP3 SLOAD AND OR SWAP1 SSTORE CALLER PUSH1 0x0 MSTORE PUSH1 0x7 PUSH1 0x20 MSTORE PUSH2 0x1578 PUSH1 0x1 PUSH1 0x40 PUSH1 0x0 KECCAK256 SWAP5 ADD SWAP4 DUP5 SLOAD SWAP1 PUSH2 0x1F10 JUMP JUMPDEST DUP2 CALLVALUE GT PUSH2 0x15D3 JUMPI JUMPDEST SWAP2 SLOAD SWAP4 SLOAD PUSH1 0x40 DUP1 MLOAD SWAP2 SWAP1 SWAP4 AND PUSH1 0x1 PUSH1 0x1 PUSH1 0xA0 SHL SUB AND DUP2 MSTORE CALLER PUSH1 0x20 DUP3 ADD MSTORE SWAP2 DUP3 ADD MSTORE TIMESTAMP PUSH1 0x60 DUP3 ADD MSTORE PUSH32 0x583A942DC460A346032BDB614951DE78D8CF4F796AD930FFF18AEE2E23113654 SWAP1 DUP1 PUSH1 0x80 DUP2 ADD PUSH2 0x619 JUMP JUMPDEST PUSH1 0x0 DUP1 DUP1 DUP1 PUSH2 0x15E2 DUP7 CALLVALUE PUSH2 0x1F03 JUMP JUMPDEST DUP2 DUP2 ISZERO PUSH2 0x15FD JUMPI JUMPDEST CALLER SWAP1 CALL PUSH2 0x1580 JUMPI PUSH1 0x40 MLOAD RETURNDATASIZE PUSH1 0x0 DUP3 RETURNDATACOPY RETURNDATASIZE SWAP1 REVERT JUMPDEST POP PUSH2 0x8FC PUSH2 0x15EA JUMP JUMPDEST POP PUSH2 0x8FC PUSH2 0x1533 JUMP JUMPDEST PUSH1 0x40 MLOAD PUSH3 0x461BCD PUSH1 0xE5 SHL DUP2 MSTORE PUSH1 0x20 PUSH1 0x4 DUP3 ADD MSTORE PUSH1 0x16 PUSH1 0x24 DUP3 ADD MSTORE PUSH22 0x43616E6E6F7420627579206F776E206C697374696E67 PUSH1 0x50 SHL PUSH1 0x44 DUP3 ADD MSTORE PUSH1 0x64 SWAP1 REVERT JUMPDEST PUSH1 0x40 MLOAD PUSH3 0x461BCD PUSH1 0xE5 SHL DUP2 MSTORE PUSH1 0x20 PUSH1 0x4 DUP3 ADD MSTORE PUSH1 0xF PUSH1 0x24 DUP3 ADD MSTORE PUSH15 0x131A5CDD1A5B99C8195E1C1A5C9959 PUSH1 0x8A SHL PUSH1 0x44 DUP3 ADD MSTORE PUSH1 0x64 SWAP1 REVERT JUMPDEST CALLVALUE PUSH2 0x1E9 JUMPI PUSH1 0x20 CALLDATASIZE PUSH1 0x3 NOT ADD SLT PUSH2 0x1E9 JUMPI PUSH1 0x0 PUSH2 0x120 PUSH1 0x40 MLOAD PUSH2 0x16A6 DUP2 PUSH2 0x1C9F JUMP JUMPDEST DUP3 DUP2 MSTORE DUP3 PUSH1 0x20 DUP3 ADD MSTORE DUP3 PUSH1 0x40 DUP3 ADD MSTORE DUP3 PUSH1 0x60 DUP3 ADD MSTORE DUP3 PUSH1 0x80 DUP3 ADD MSTORE DUP3 PUSH1 0xA0 DUP3 ADD MSTORE DUP3 PUSH1 0xC0 DUP3 ADD MSTORE DUP3 PUSH1 0xE0 DUP3 ADD MSTORE DUP3 PUSH2 0x100 DUP3 ADD MSTORE ADD MSTORE PUSH1 0x4 CALLDATALOAD PUSH1 0x0 MSTORE PUSH1 0x4 PUSH1 0x20 MSTORE PUSH2 0x140 PUSH1 0x40 PUSH1 0x0 KECCAK256 PUSH1 0x40 MLOAD PUSH2 0x16FB DUP2 PUSH2 0x1C9F JUMP JUMPDEST PUSH1 0x8 DUP3 SLOAD SWAP3 DUP4 DUP4 MSTORE PUSH1 0x1 DUP2 ADD SLOAD PUSH1 0x20 DUP5 ADD MSTORE PUSH1 0x1 DUP1 PUSH1 0xA0 SHL SUB PUSH1 0x2 DUP3 ADD SLOAD AND PUSH1 0x40 DUP5 ADD MSTORE PUSH1 0x1 DUP1 PUSH1 0xA0 SHL SUB PUSH1 0x3 DUP3 ADD SLOAD AND PUSH1 0x60 DUP5 ADD MSTORE PUSH1 0x4 DUP2 ADD SLOAD PUSH1 0x80 DUP5 ADD MSTORE PUSH1 0x5 DUP2 ADD SLOAD PUSH1 0xA0 DUP5 ADD MSTORE PUSH1 0x6 DUP2 ADD SLOAD PUSH1 0xC0 DUP5 ADD MSTORE PUSH1 0x7 DUP2 ADD SLOAD PUSH1 0xE0 DUP5 ADD MSTORE ADD SLOAD PUSH1 0xFF DUP2 AND ISZERO ISZERO PUSH2 0x100 DUP4 ADD MSTORE PUSH1 0x1 DUP1 PUSH1 0xA0 SHL SUB SWAP1 PUSH1 0x8 SHR AND PUSH2 0x120 DUP3 ADD MSTORE PUSH1 0x40 MLOAD SWAP2 DUP3 MSTORE PUSH1 0x20 DUP2 ADD MLOAD PUSH1 0x20 DUP4 ADD MSTORE PUSH1 0x1 DUP1 PUSH1 0xA0 SHL SUB PUSH1 0x40 DUP3 ADD MLOAD AND PUSH1 0x40 DUP4 ADD MSTORE PUSH1 0x1 DUP1 PUSH1 0xA0 SHL SUB PUSH1 0x60 DUP3 ADD MLOAD AND PUSH1 0x60 DUP4 ADD MSTORE PUSH1 0x80 DUP2 ADD MLOAD PUSH1 0x80 DUP4 ADD MSTORE PUSH1 0xA0 DUP2 ADD MLOAD PUSH1 0xA0 DUP4 ADD MSTORE PUSH1 0xC0 DUP2 ADD MLOAD PUSH1 0xC0 DUP4 ADD MSTORE PUSH1 0xE0 DUP2 ADD MLOAD PUSH1 0xE0 DUP4 ADD MSTORE PUSH2 0x100 DUP2 ADD MLOAD ISZERO ISZERO PUSH2 0x100 DUP4 ADD MSTORE PUSH2 0x120 PUSH1 0x1 DUP1 PUSH1 0xA0 SHL SUB SWAP2 ADD MLOAD AND PUSH2 0x120 DUP3 ADD MSTORE RETURN JUMPDEST CALLVALUE PUSH2 0x1E9 JUMPI PUSH1 0x0 CALLDATASIZE PUSH1 0x3 NOT ADD SLT PUSH2 0x1E9 JUMPI PUSH2 0x1812 PUSH2 0x1F61 JUMP JUMPDEST PUSH1 0x0 DUP1 SLOAD PUSH1 0x1 PUSH1 0x1 PUSH1 0xA0 SHL SUB NOT DUP2 AND DUP3 SSTORE PUSH1 0x1 PUSH1 0x1 PUSH1 0xA0 SHL SUB AND PUSH32 0x8BE0079C531659141344CD1FD0A4F28419497F9722A3DAAFE3B4186F6B6457E0 DUP3 DUP1 LOG3 STOP JUMPDEST CALLVALUE PUSH2 0x1E9 JUMPI PUSH1 0x20 CALLDATASIZE PUSH1 0x3 NOT ADD SLT PUSH2 0x1E9 JUMPI PUSH1 0x4 CALLDATALOAD PUSH1 0x0 MSTORE PUSH1 0x4 PUSH1 0x20 MSTORE PUSH2 0x140 PUSH1 0x40 PUSH1 0x0 KECCAK256 DUP1 SLOAD SWAP1 PUSH1 0x1 DUP2 ADD SLOAD PUSH1 0x1 DUP1 PUSH1 0xA0 SHL SUB SWAP2 DUP3 PUSH1 0x2 DUP3 ADD SLOAD AND DUP4 PUSH1 0x3 DUP4 ADD SLOAD AND PUSH1 0x4 DUP4 ADD SLOAD PUSH1 0x5 DUP5 ADD SLOAD SWAP2 PUSH1 0x6 DUP6 ADD SLOAD SWAP4 PUSH1 0x8 PUSH1 0x7 DUP8 ADD SLOAD SWAP7 ADD SLOAD SWAP7 PUSH1 0x40 MLOAD SWAP10 DUP11 MSTORE PUSH1 0x20 DUP11 ADD MSTORE PUSH1 0x40 DUP10 ADD MSTORE PUSH1 0x60 DUP9 ADD MSTORE PUSH1 0x80 DUP8 ADD MSTORE PUSH1 0xA0 DUP7 ADD MSTORE PUSH1 0xC0 DUP6 ADD MSTORE PUSH1 0xE0 DUP5 ADD MSTORE PUSH1 0xFF DUP2 AND ISZERO ISZERO PUSH2 0x100 DUP5 ADD MSTORE PUSH1 0x8 SHR AND PUSH2 0x120 DUP3 ADD MSTORE RETURN JUMPDEST CALLVALUE PUSH2 0x1E9 JUMPI PUSH1 0x20 CALLDATASIZE PUSH1 0x3 NOT ADD SLT PUSH2 0x1E9 JUMPI PUSH1 0x4 CALLDATALOAD DUP1 PUSH1 0x0 MSTORE PUSH1 0x2 PUSH1 0x20 MSTORE PUSH1 0x5 PUSH1 0x40 PUSH1 0x0 KECCAK256 PUSH2 0x192C PUSH1 0x1 DUP1 PUSH1 0xA0 SHL SUB PUSH1 0x2 DUP4 ADD SLOAD AND CALLER EQ PUSH2 0x1E2F JUMP JUMPDEST ADD DUP1 SLOAD PUSH1 0xFF DUP2 AND SWAP1 PUSH1 0x4 DUP3 LT ISZERO PUSH2 0x68F JUMPI PUSH2 0x1949 PUSH1 0x2 SWAP3 ISZERO PUSH2 0x1E6C JUMP JUMPDEST PUSH1 0xFF NOT AND OR SWAP1 SSTORE PUSH32 0xAA17FDF5FFB610A4CC0887F35C13C501975A370005080F68441055871952EB81 PUSH1 0x40 DUP1 MLOAD CALLER DUP2 MSTORE TIMESTAMP PUSH1 0x20 DUP3 ADD MSTORE LOG2 STOP JUMPDEST CALLVALUE PUSH2 0x1E9 JUMPI PUSH2 0x198F CALLDATASIZE PUSH2 0x1C0C JUMP JUMPDEST SWAP1 PUSH1 0x0 MSTORE PUSH1 0x3 PUSH1 0x20 MSTORE PUSH1 0x40 PUSH1 0x0 KECCAK256 DUP1 SLOAD DUP3 LT ISZERO PUSH2 0x1E9 JUMPI PUSH1 0xE0 SWAP2 PUSH2 0x19B2 SWAP2 PUSH2 0x1C22 JUMP JUMPDEST POP PUSH1 0xFF DUP2 SLOAD SWAP2 PUSH1 0x1 DUP2 ADD SLOAD SWAP1 PUSH1 0x1 DUP1 PUSH1 0xA0 SHL SUB PUSH1 0x2 DUP3 ADD SLOAD AND PUSH1 0x3 DUP3 ADD SLOAD SWAP1 PUSH1 0x5 PUSH1 0x4 DUP5 ADD SLOAD SWAP4 ADD SLOAD SWAP4 PUSH1 0x40 MLOAD SWAP7 DUP8 MSTORE PUSH1 0x20 DUP8 ADD MSTORE PUSH1 0x40 DUP7 ADD MSTORE PUSH1 0x60 DUP6 ADD MSTORE PUSH1 0x80 DUP5 ADD MSTORE DUP2 DUP2 AND ISZERO ISZERO PUSH1 0xA0 DUP5 ADD MSTORE PUSH1 0x8 SHR AND ISZERO ISZERO PUSH1 0xC0 DUP3 ADD MSTORE RETURN JUMPDEST CALLVALUE PUSH2 0x1E9 JUMPI PUSH1 0x20 CALLDATASIZE PUSH1 0x3 NOT ADD SLT PUSH2 0x1E9 JUMPI PUSH1 0x4 CALLDATALOAD PUSH2 0x1A29 PUSH2 0x1F61 JUMP JUMPDEST PUSH2 0x3E8 DUP2 GT PUSH2 0x1A37 JUMPI PUSH1 0x1 SSTORE STOP JUMPDEST PUSH1 0x40 MLOAD PUSH3 0x461BCD PUSH1 0xE5 SHL DUP2 MSTORE PUSH1 0x20 PUSH1 0x4 DUP3 ADD MSTORE PUSH1 0xC PUSH1 0x24 DUP3 ADD MSTORE PUSH12 0x8CCACA40E8DEDE40D0D2CED PUSH1 0xA3 SHL PUSH1 0x44 DUP3 ADD MSTORE PUSH1 0x64 SWAP1 REVERT JUMPDEST CALLVALUE PUSH2 0x1E9 JUMPI PUSH1 0x20 DUP1 PUSH1 0x3 NOT CALLDATASIZE ADD SLT PUSH2 0x1E9 JUMPI PUSH2 0x1A86 DUP3 PUSH2 0x1C82 JUMP JUMPDEST PUSH1 0x0 DUP3 MSTORE PUSH1 0x0 DUP2 DUP4 ADD MSTORE PUSH1 0x0 PUSH1 0x40 DUP4 ADD MSTORE PUSH1 0x0 PUSH1 0x60 DUP4 ADD MSTORE PUSH1 0x0 PUSH1 0x80 DUP4 ADD MSTORE PUSH1 0x0 PUSH1 0xA0 DUP4 ADD MSTORE PUSH1 0x0 PUSH1 0xC0 DUP4 ADD MSTORE PUSH1 0x0 PUSH1 0xE0 DUP4 ADD MSTORE PUSH1 0x60 PUSH2 0x100 DUP1 SWAP4 ADD MSTORE PUSH1 0x4 CALLDATALOAD PUSH1 0x0 MSTORE PUSH1 0x2 DUP2 MSTORE PUSH1 0x40 PUSH1 0x0 KECCAK256 PUSH1 0x40 MLOAD SWAP3 PUSH2 0x1ADF DUP5 PUSH2 0x1C82 JUMP JUMPDEST DUP2 SLOAD DUP5 MSTORE PUSH1 0x1 DUP3 ADD SLOAD SWAP2 DUP4 DUP6 ADD SWAP3 DUP4 MSTORE PUSH1 0x1 DUP1 PUSH1 0xA0 SHL SUB DUP1 PUSH1 0x2 DUP4 ADD SLOAD AND SWAP1 PUSH1 0x40 DUP8 ADD SWAP2 DUP3 MSTORE DUP1 PUSH1 0x3 DUP5 ADD SLOAD AND SWAP1 PUSH1 0x60 DUP9 ADD SWAP2 DUP3 MSTORE PUSH1 0x4 DUP5 ADD SLOAD SWAP1 PUSH1 0x80 DUP10 ADD SWAP2 DUP3 MSTORE PUSH1 0xFF PUSH1 0x5 DUP7 ADD SLOAD AND SWAP3 PUSH1 0xA0 DUP11 ADD SWAP4 PUSH1 0x4 DUP2 LT ISZERO PUSH2 0x68F JUMPI DUP5 MSTORE DUP2 PUSH1 0x6 DUP8 ADD SLOAD SWAP6 PUSH1 0xC0 DUP13 ADD SWAP7 DUP8 MSTORE PUSH1 0x7 DUP9 ADD SLOAD SWAP8 PUSH1 0xE0 DUP14 ADD SWAP9 DUP10 MSTORE PUSH1 0x8 ADD PUSH2 0x1B61 SWAP1 PUSH2 0x1D8A JUMP JUMPDEST SWAP10 DUP10 DUP14 ADD SWAP11 DUP12 MSTORE DUP12 PUSH1 0x40 MLOAD SWAP14 DUP15 SWAP14 DUP15 MSTORE MLOAD SWAP1 DUP14 ADD MSTORE MLOAD PUSH1 0x40 DUP13 ADD MSTORE MLOAD AND PUSH1 0x60 DUP11 ADD MSTORE MLOAD AND PUSH1 0x80 DUP9 ADD MSTORE MLOAD PUSH1 0xA0 DUP8 ADD MSTORE MLOAD PUSH1 0xC0 DUP7 ADD PUSH2 0x1B9E SWAP2 PUSH2 0x1BBF JUMP JUMPDEST MLOAD PUSH1 0xE0 DUP6 ADD MSTORE MLOAD SWAP1 DUP4 ADD MSTORE MLOAD PUSH2 0x120 DUP1 DUP4 ADD MSTORE PUSH2 0x140 DUP3 ADD PUSH2 0x1CE SWAP2 PUSH2 0x1BCC JUMP JUMPDEST SWAP1 PUSH1 0x4 DUP3 LT ISZERO PUSH2 0x68F JUMPI MSTORE JUMP JUMPDEST SWAP2 SWAP1 DUP3 MLOAD SWAP3 DUP4 DUP3 MSTORE PUSH1 0x0 JUMPDEST DUP5 DUP2 LT PUSH2 0x1BF8 JUMPI POP POP DUP3 PUSH1 0x0 PUSH1 0x20 DUP1 SWAP5 SWAP6 DUP5 ADD ADD MSTORE PUSH1 0x1F DUP1 NOT SWAP2 ADD AND ADD ADD SWAP1 JUMP JUMPDEST PUSH1 0x20 DUP2 DUP4 ADD DUP2 ADD MLOAD DUP5 DUP4 ADD DUP3 ADD MSTORE ADD PUSH2 0x1BD7 JUMP JUMPDEST PUSH1 0x40 SWAP1 PUSH1 0x3 NOT ADD SLT PUSH2 0x1E9 JUMPI PUSH1 0x4 CALLDATALOAD SWAP1 PUSH1 0x24 CALLDATALOAD SWAP1 JUMP JUMPDEST DUP1 SLOAD DUP3 LT ISZERO PUSH2 0x1C3E JUMPI PUSH1 0x0 MSTORE PUSH1 0x6 PUSH1 0x20 PUSH1 0x0 KECCAK256 SWAP2 MUL ADD SWAP1 PUSH1 0x0 SWAP1 JUMP JUMPDEST PUSH4 0x4E487B71 PUSH1 0xE0 SHL PUSH1 0x0 MSTORE PUSH1 0x32 PUSH1 0x4 MSTORE PUSH1 0x24 PUSH1 0x0 REVERT JUMPDEST PUSH1 0x4 CALLDATALOAD SWAP1 PUSH1 0x1 PUSH1 0x1 PUSH1 0xA0 SHL SUB DUP3 AND DUP3 SUB PUSH2 0x1E9 JUMPI JUMP JUMPDEST DUP1 SLOAD DUP3 LT ISZERO PUSH2 0x1C3E JUMPI PUSH1 0x0 MSTORE PUSH1 0x20 PUSH1 0x0 KECCAK256 ADD SWAP1 PUSH1 0x0 SWAP1 JUMP JUMPDEST PUSH2 0x120 DUP2 ADD SWAP1 DUP2 LT PUSH8 0xFFFFFFFFFFFFFFFF DUP3 GT OR PUSH2 0x362 JUMPI PUSH1 0x40 MSTORE JUMP JUMPDEST PUSH2 0x140 DUP2 ADD SWAP1 DUP2 LT PUSH8 0xFFFFFFFFFFFFFFFF DUP3 GT OR PUSH2 0x362 JUMPI PUSH1 0x40 MSTORE JUMP JUMPDEST PUSH1 0xE0 DUP2 ADD SWAP1 DUP2 LT PUSH8 0xFFFFFFFFFFFFFFFF DUP3 GT OR PUSH2 0x362 JUMPI PUSH1 0x40 MSTORE JUMP JUMPDEST SWAP1 PUSH1 0x1F DUP1 NOT SWAP2 ADD AND DUP2 ADD SWAP1 DUP2 LT PUSH8 0xFFFFFFFFFFFFFFFF DUP3 GT OR PUSH2 0x362 JUMPI PUSH1 0x40 MSTORE JUMP JUMPDEST PUSH1 0x20 SWAP1 PUSH1 0x20 PUSH1 0x40 DUP2 DUP4 ADD SWAP3 DUP3 DUP2 MSTORE DUP6 MLOAD DUP1 SWAP5 MSTORE ADD SWAP4 ADD SWAP2 PUSH1 0x0 JUMPDEST DUP3 DUP2 LT PUSH2 0x1D22 JUMPI POP POP POP POP SWAP1 JUMP JUMPDEST DUP4 MLOAD DUP6 MSTORE SWAP4 DUP2 ADD SWAP4 SWAP3 DUP2 ADD SWAP3 PUSH1 0x1 ADD PUSH2 0x1D14 JUMP JUMPDEST PUSH1 0x60 SWAP1 PUSH1 0x3 NOT ADD SLT PUSH2 0x1E9 JUMPI PUSH1 0x4 CALLDATALOAD SWAP1 PUSH1 0x24 CALLDATALOAD SWAP1 PUSH1 0x44 CALLDATALOAD SWAP1 JUMP JUMPDEST SWAP1 PUSH1 0x1 DUP3 DUP2 SHR SWAP3 AND DUP1 ISZERO PUSH2 0x1D80 JUMPI JUMPDEST PUSH1 0x20 DUP4 LT EQ PUSH2 0x1D6A JUMPI JUMP JUMPDEST PUSH4 0x4E487B71 PUSH1 0xE0 SHL PUSH1 0x0 MSTORE PUSH1 0x22 PUSH1 0x4 MSTORE PUSH1 0x24 PUSH1 0x0 REVERT JUMPDEST SWAP2 PUSH1 0x7F AND SWAP2 PUSH2 0x1D5F JUMP JUMPDEST SWAP1 PUSH1 0x40 MLOAD SWAP2 DUP3 PUSH1 0x0 DUP3 SLOAD PUSH2 0x1D9D DUP2 PUSH2 0x1D50 JUMP JUMPDEST SWAP1 DUP2 DUP5 MSTORE PUSH1 0x20 SWAP5 PUSH1 0x1 SWAP2 PUSH1 0x1 DUP2 AND SWAP1 DUP2 PUSH1 0x0 EQ PUSH2 0x1E0D JUMPI POP PUSH1 0x1 EQ PUSH2 0x1DCE JUMPI JUMPDEST POP POP POP PUSH2 0x1DCC SWAP3 POP SUB DUP4 PUSH2 0x1CD8 JUMP JUMPDEST JUMP JUMPDEST PUSH1 0x0 SWAP1 DUP2 MSTORE DUP6 DUP2 KECCAK256 SWAP6 SWAP4 POP SWAP2 SWAP1 JUMPDEST DUP2 DUP4 LT PUSH2 0x1DF5 JUMPI POP POP PUSH2 0x1DCC SWAP4 POP DUP3 ADD ADD CODESIZE DUP1 DUP1 PUSH2 0x1DBD JUMP JUMPDEST DUP6 SLOAD DUP9 DUP5 ADD DUP6 ADD MSTORE SWAP5 DUP6 ADD SWAP5 DUP8 SWAP5 POP SWAP2 DUP4 ADD SWAP2 PUSH2 0x1DDC JUMP JUMPDEST SWAP3 POP POP POP PUSH2 0x1DCC SWAP5 SWAP3 POP PUSH1 0xFF NOT AND DUP3 DUP5 ADD MSTORE ISZERO ISZERO PUSH1 0x5 SHL DUP3 ADD ADD CODESIZE DUP1 DUP1 PUSH2 0x1DBD JUMP JUMPDEST ISZERO PUSH2 0x1E36 JUMPI JUMP JUMPDEST PUSH1 0x40 MLOAD PUSH3 0x461BCD PUSH1 0xE5 SHL DUP2 MSTORE PUSH1 0x20 PUSH1 0x4 DUP3 ADD MSTORE PUSH1 0xE PUSH1 0x24 DUP3 ADD MSTORE PUSH14 0x2737BA103A34329039B2B63632B9 PUSH1 0x91 SHL PUSH1 0x44 DUP3 ADD MSTORE PUSH1 0x64 SWAP1 REVERT JUMPDEST ISZERO PUSH2 0x1E73 JUMPI JUMP JUMPDEST PUSH1 0x40 MLOAD PUSH3 0x461BCD PUSH1 0xE5 SHL DUP2 MSTORE PUSH1 0x20 PUSH1 0x4 DUP3 ADD MSTORE PUSH1 0x12 PUSH1 0x24 DUP3 ADD MSTORE PUSH18 0x4C697374696E67206E6F7420616374697665 PUSH1 0x70 SHL PUSH1 0x44 DUP3 ADD MSTORE PUSH1 0x64 SWAP1 REVERT JUMPDEST ISZERO PUSH2 0x1EB4 JUMPI JUMP JUMPDEST PUSH1 0x40 MLOAD PUSH3 0x461BCD PUSH1 0xE5 SHL DUP2 MSTORE PUSH1 0x20 PUSH1 0x4 DUP3 ADD MSTORE PUSH1 0x14 PUSH1 0x24 DUP3 ADD MSTORE PUSH20 0x125B9CDD59999A58DA595B9D081C185E5B595B9D PUSH1 0x62 SHL PUSH1 0x44 DUP3 ADD MSTORE PUSH1 0x64 SWAP1 REVERT JUMPDEST DUP2 DUP2 MUL SWAP3 SWAP2 DUP2 ISZERO SWAP2 DUP5 DIV EQ OR ISZERO PUSH2 0x634 JUMPI JUMP JUMPDEST SWAP2 SWAP1 DUP3 SUB SWAP2 DUP3 GT PUSH2 0x634 JUMPI JUMP JUMPDEST DUP1 SLOAD PUSH1 0x1 PUSH1 0x40 SHL DUP2 LT ISZERO PUSH2 0x362 JUMPI PUSH2 0x1F2D SWAP2 PUSH1 0x1 DUP3 ADD DUP2 SSTORE PUSH2 0x1C6A JUMP JUMPDEST DUP2 SWAP3 SWAP2 SLOAD SWAP1 PUSH1 0x3 SHL SWAP2 DUP3 SHL SWAP2 PUSH1 0x0 NOT SWAP1 SHL NOT AND OR SWAP1 SSTORE JUMP JUMPDEST PUSH1 0x0 NOT DUP2 EQ PUSH2 0x634 JUMPI PUSH1 0x1 ADD SWAP1 JUMP JUMPDEST SWAP2 SWAP1 DUP3 ADD DUP1 SWAP3 GT PUSH2 0x634 JUMPI JUMP JUMPDEST PUSH1 0x0 SLOAD PUSH1 0x1 PUSH1 0x1 PUSH1 0xA0 SHL SUB AND CALLER SUB PUSH2 0x1F75 JUMPI JUMP JUMPDEST PUSH1 0x40 MLOAD PUSH4 0x118CDAA7 PUSH1 0xE0 SHL DUP2 MSTORE CALLER PUSH1 0x4 DUP3 ADD MSTORE PUSH1 0x24 SWAP1 REVERT INVALID LOG2 PUSH5 0x6970667358 0x22 SLT KECCAK256 EXTCODESIZE 0xC5 LOG3 ORIGIN PUSH10 0x6360CB5A7D2F6B3E4AF9 0xC0 SGT SUB 0xB0 PUSH18 0xA2510FDD2FCE3FA9A99C0B1564736F6C6343 STOP ADDMOD XOR STOP CALLER "},"methodIdentifiers":{"FEE_DENOMINATOR()":"d73792a9","acceptOffer(uint256,uint256)":"81257bd5","auctions(uint256)":"571a26a0","cancelListing(uint256)":"305a67a8","createAuction(uint256,uint256,uint256)":"cda4beef","endAuction(uint256)":"b9a2de3a","getActiveListingsCount()":"7b55927c","getAuction(uint256)":"78bd7935","getListing(uint256)":"107a274a","getListingOffers(uint256)":"fbb1e497","getUserAuctions(address)":"ff3ad0b4","getUserListings(address)":"eb18a9d8","getUserPurchases(address)":"c6e5d8f6","listBatch(uint256,uint256,uint256,string)":"af990aa6","listingOffers(uint256,uint256)":"20e33db8","listings(uint256)":"de74e57b","makeOffer(uint256,uint256,uint256)":"e210a72d","nextAuctionId()":"fc528482","nextListingId()":"aaccf1ec","owner()":"8da5cb5b","placeBid(uint256)":"9979ef45","platformFeePercent()":"8c639a85","purchaseBatch(uint256)":"79676e0c","renounceOwnership()":"715018a6","setPlatformFee(uint256)":"12e8e2c3","transferOwnership(address)":"f2fde38b","userAuctions(address,uint256)":"b4fbe80a","userListings(address,uint256)":"86cfa7d3","userPurchases(address,uint256)":"cf2c0334"}}}}}