{"contracts/SupplyChainTracker.sol":{"SupplyChainTracker":{"abi":[{"inputs":[],"stateMutability":"nonpayable","type":"constructor"},{"inputs":[{"internalType":"address","name":"owner","type":"address"}],"name":"OwnableInvalidOwner","type":"error"},{"inputs":[{"internalType":"address","name":"account","type":"address"}],"name":"OwnableUnauthorizedAccount","type":"error"},{"anonymous":false,"inputs":[{"indexed":true,"internalType":"uint256","name":"checkpointId","type":"uint256"},{"indexed":true,"internalType":"uint256","name":"batchTokenId","type":"uint256"},{"indexed":false,"internalType":"enum SupplyChainTracker.Stage","name":"stage","type":"uint8"},{"indexed":false,"internalType":"address","name":"custodian","type":"address"},{"indexed":false,"internalType":"uint256","name":"timestamp","type":"uint256"}],"name":"CheckpointAdded","type":"event"},{"anonymous":false,"inputs":[{"indexed":true,"internalType":"uint256","name":"batchTokenId","type":"uint256"},{"indexed":false,"internalType":"uint256","name":"totalCheckpoints","type":"uint256"},{"indexed":false,"internalType":"uint256","name":"totalDuration","type":"uint256"},{"indexed":false,"internalType":"uint256","name":"timestamp","type":"uint256"}],"name":"JourneyCompleted","type":"event"},{"anonymous":false,"inputs":[{"indexed":true,"internalType":"uint256","name":"batchTokenId","type":"uint256"},{"indexed":true,"internalType":"address","name":"collector","type":"address"},{"indexed":false,"internalType":"string","name":"location","type":"string"},{"indexed":false,"internalType":"uint256","name":"timestamp","type":"uint256"}],"name":"JourneyStarted","type":"event"},{"anonymous":false,"inputs":[{"indexed":true,"internalType":"address","name":"previousOwner","type":"address"},{"indexed":true,"internalType":"address","name":"newOwner","type":"address"}],"name":"OwnershipTransferred","type":"event"},{"anonymous":false,"inputs":[{"indexed":true,"internalType":"uint256","name":"batchTokenId","type":"uint256"},{"indexed":false,"internalType":"enum SupplyChainTracker.Stage","name":"fromStage","type":"uint8"},{"indexed":false,"internalType":"enum SupplyChainTracker.Stage","name":"toStage","type":"uint8"},{"indexed":false,"internalType":"address","name":"custodian","type":"address"},{"indexed":false,"internalType":"uint256","name":"timestamp","type":"uint256"}],"name":"StageTransition","type":"event"},{"inputs":[{"internalType":"uint256","name":"_batchTokenId","type":"uint256"},{"internalType":"enum SupplyChainTracker.Stage","name":"_stage","type":"uint8"},{"internalType":"string","name":"_location","type":"string"},{"internalType":"string","name":"_coordinates","type":"string"},{"internalType":"string","name":"_description","type":"string"},{"internalType":"string","name":"_documentURI","type":"string"},{"internalType":"bytes32","name":"_dataHash","type":"bytes32"}],"name":"addCheckpoint","outputs":[{"internalType":"uint256","name":"","type":"uint256"}],"stateMutability":"nonpayable","type":"function"},{"inputs":[{"internalType":"uint256","name":"_batchTokenId","type":"uint256"}],"name":"completeJourney","outputs":[],"stateMutability":"nonpayable","type":"function"},{"inputs":[{"internalType":"address","name":"","type":"address"},{"internalType":"uint256","name":"","type":"uint256"}],"name":"custodianBatches","outputs":[{"internalType":"uint256","name":"","type":"uint256"}],"stateMutability":"view","type":"function"},{"inputs":[{"internalType":"uint256","name":"_batchTokenId","type":"uint256"}],"name":"getAllCheckpoints","outputs":[{"components":[{"internalType":"uint256","name":"id","type":"uint256"},{"internalType":"uint256","name":"batchTokenId","type":"uint256"},{"internalType":"enum SupplyChainTracker.Stage","name":"stage","type":"uint8"},{"internalType":"address","name":"custodian","type":"address"},{"internalType":"string","name":"location","type":"string"},{"internalType":"string","name":"locationCoordinates","type":"string"},{"internalType":"uint256","name":"timestamp","type":"uint256"},{"internalType":"string","name":"description","type":"string"},{"internalType":"string","name":"documentURI","type":"string"},{"internalType":"bytes32","name":"dataHash","type":"bytes32"}],"internalType":"struct SupplyChainTracker.Checkpoint[]","name":"","type":"tuple[]"}],"stateMutability":"view","type":"function"},{"inputs":[{"internalType":"uint256","name":"_batchTokenId","type":"uint256"},{"internalType":"uint256","name":"_index","type":"uint256"}],"name":"getCheckpoint","outputs":[{"components":[{"internalType":"uint256","name":"id","type":"uint256"},{"internalType":"uint256","name":"batchTokenId","type":"uint256"},{"internalType":"enum SupplyChainTracker.Stage","name":"stage","type":"uint8"},{"internalType":"address","name":"custodian","type":"address"},{"internalType":"string","name":"location","type":"string"},{"internalType":"string","name":"locationCoordinates","type":"string"},{"internalType":"uint256","name":"timestamp","type":"uint256"},{"internalType":"string","name":"description","type":"string"},{"internalType":"string","name":"documentURI","type":"string"},{"internalType":"bytes32","name":"dataHash","type":"bytes32"}],"internalType":"struct SupplyChainTracker.Checkpoint","name":"","type":"tuple"}],"stateMutability":"view","type":"function"},{"inputs":[],"name":"getCheckpointCount","outputs":[{"internalType":"uint256","name":"","type":"uint256"}],"stateMutability":"view","type":"function"},{"inputs":[{"internalType":"address","name":"_custodian","type":"address"}],"name":"getCustodianBatches","outputs":[{"internalType":"uint256[]","name":"","type":"uint256[]"}],"stateMutability":"view","type":"function"},{"inputs":[{"internalType":"uint256","name":"_batchTokenId","type":"uint256"}],"name":"getJourney","outputs":[{"components":[{"internalType":"uint256","name":"batchTokenId","type":"uint256"},{"components":[{"internalType":"uint256","name":"id","type":"uint256"},{"internalType":"uint256","name":"batchTokenId","type":"uint256"},{"internalType":"enum SupplyChainTracker.Stage","name":"stage","type":"uint8"},{"internalType":"address","name":"custodian","type":"address"},{"internalType":"string","name":"location","type":"string"},{"internalType":"string","name":"locationCoordinates","type":"string"},{"internalType":"uint256","name":"timestamp","type":"uint256"},{"internalType":"string","name":"description","type":"string"},{"internalType":"string","name":"documentURI","type":"string"},{"internalType":"bytes32","name":"dataHash","type":"bytes32"}],"internalType":"struct SupplyChainTracker.Checkpoint[]","name":"checkpoints","type":"tuple[]"},{"internalType":"enum SupplyChainTracker.Stage","name":"currentStage","type":"uint8"},{"internalType":"address","name":"originalCollector","type":"address"},{"internalType":"uint256","name":"startTime","type":"uint256"},{"internalType":"uint256","name":"lastUpdateTime","type":"uint256"},{"internalType":"bool","name":"isComplete","type":"bool"}],"internalType":"struct SupplyChainTracker.Journey","name":"","type":"tuple"}],"stateMutability":"view","type":"function"},{"inputs":[{"internalType":"uint256","name":"_batchTokenId","type":"uint256"}],"name":"getJourneyTime","outputs":[{"internalType":"uint256","name":"startTime","type":"uint256"},{"internalType":"uint256","name":"lastUpdate","type":"uint256"},{"internalType":"uint256","name":"duration","type":"uint256"}],"stateMutability":"view","type":"function"},{"inputs":[{"internalType":"uint256","name":"_batchTokenId","type":"uint256"},{"internalType":"enum SupplyChainTracker.Stage","name":"_stage","type":"uint8"}],"name":"getStageDuration","outputs":[{"internalType":"uint256","name":"","type":"uint256"}],"stateMutability":"view","type":"function"},{"inputs":[{"internalType":"uint256","name":"","type":"uint256"}],"name":"journeys","outputs":[{"internalType":"uint256","name":"batchTokenId","type":"uint256"},{"internalType":"enum SupplyChainTracker.Stage","name":"currentStage","type":"uint8"},{"internalType":"address","name":"originalCollector","type":"address"},{"internalType":"uint256","name":"startTime","type":"uint256"},{"internalType":"uint256","name":"lastUpdateTime","type":"uint256"},{"internalType":"bool","name":"isComplete","type":"bool"}],"stateMutability":"view","type":"function"},{"inputs":[],"name":"nextCheckpointId","outputs":[{"internalType":"uint256","name":"","type":"uint256"}],"stateMutability":"view","type":"function"},{"inputs":[],"name":"owner","outputs":[{"internalType":"address","name":"","type":"address"}],"stateMutability":"view","type":"function"},{"inputs":[],"name":"renounceOwnership","outputs":[],"stateMutability":"nonpayable","type":"function"},{"inputs":[{"internalType":"uint256","name":"","type":"uint256"},{"internalType":"enum SupplyChainTracker.Stage","name":"","type":"uint8"}],"name":"stageDurations","outputs":[{"internalType":"uint256","name":"","type":"uint256"}],"stateMutability":"view","type":"function"},{"inputs":[{"internalType":"uint256","name":"_batchTokenId","type":"uint256"},{"internalType":"string","name":"_location","type":"string"},{"internalType":"string","name":"_coordinates","type":"string"},{"internalType":"string","name":"_description","type":"string"}],"name":"startJourney","outputs":[{"internalType":"uint256","name":"","type":"uint256"}],"stateMutability":"nonpayable","type":"function"},{"inputs":[{"internalType":"address","name":"newOwner","type":"address"}],"name":"transferOwnership","outputs":[],"stateMutability":"nonpayable","type":"function"},{"inputs":[{"internalType":"uint256","name":"_batchTokenId","type":"uint256"}],"name":"verifyJourney","outputs":[{"internalType":"bool","name":"isValid","type":"bool"},{"internalType":"uint256","name":"checkpointCount","type":"uint256"},{"internalType":"enum SupplyChainTracker.Stage","name":"currentStage","type":"uint8"},{"internalType":"uint256","name":"totalDuration","type":"uint256"}],"stateMutability":"view","type":"function"}],"evm":{"bytecode":{"linkReferences":{},"object":"6080806040523461007f5733156100695760008054336001600160a01b03198216811783556040519290916001600160a01b0316907f8be0079c531659141344cd1fd0a4f28419497f9722a3daafe3b4186f6b6457e09080a36001600455611e5190816100858239f35b631e4fbdf760e01b815260006004820152602490fd5b600080fdfe6080604052600436101561001257600080fd5b60003560e01c80630130cf161461189c5780630c369f17146118135780630df1c22d146117bd578063229ec4521461179f57806324b4123f146117745780632a2590331461100f57806335ff096914610fcc578063625f850914610f9e578063644438eb14610f9e57806369abfa5d14610e31578063715018a614610dd85780638da5cb5b14610daf5780638df5a9fa14610d36578063b544303814610c17578063b545a56614610b63578063c097227d14610a7c578063f0995ace146101755763f2fde38b146100e257600080fd5b34610170576020366003190112610170576100fb6118f5565b610103611def565b6001600160a01b0390811690811561015757600054826bffffffffffffffffffffffff60a01b821617600055167f8be0079c531659141344cd1fd0a4f28419497f9722a3daafe3b4186f6b6457e0600080a3005b604051631e4fbdf760e01b815260006004820152602490fd5b600080fd5b346101705760e03660031901126101705760076024351015610170576044356001600160401b038111610170576101b090369060040161199e565b6064356001600160401b038111610170576101cf90369060040161199e565b6084356001600160401b038111610170576101ee90369060040161199e565b9160a4356001600160401b0381116101705761020e90369060040161199e565b91600435600052600160205260406000209261022f60038501541515611d84565b60ff600585015416610a375760ff60028501541660078110156105ec57806024350361097a575b50600454946000198614610602576001860160045560043560005260016020526001604060002001926040519461028c86611961565b87865260043560208701526102a660243560408801611b95565b336060870152608086015260a08501524260c085015260e084015261010083015260006101208301528054600160401b811015610618576102ec91600182018155611dc6565b91909161096457805182556020810151600183015560408101516002830160078210156105ec576103206103479282611b7d565b60608301518154610100600160a81b03191660089190911b610100600160a81b0316179055565b60808101518051906001600160401b03821161061857819061036c6003860154611ba1565b601f8111610911575b50602090601f831160011461089f57600092610894575b50508160011b916000199060031b1c19161760038301555b60a08101518051906001600160401b0382116106185781906103c96004860154611ba1565b601f8111610841575b50602090601f83116001146107cf576000926107c4575b50508160011b916000199060031b1c19161760048301555b60c0810151600583015560e08101518051906001600160401b0382116106185781906104306006860154611ba1565b601f8111610771575b50602090601f83116001146106ff576000926106f4575b50508160011b916000199060031b1c19161760068301555b6101008101518051906001600160401b0382116106185761048c6007850154611ba1565b601f81116106ad575b50602090601f8311600114610639579180600894926101209460009261062e575b50508160011b916000199060031b1c19161760078501555b01519101553360005260036020526040600020908154600160401b81101561061857610504816001948561051e9401815561190b565b6004359082549060031b91821b91600019901b1916179055565b60405161052d81602435611939565b336020820152426040820152837fb116500a92538fa2712f61befbb9f1841d4d51b22f4a1340e3fbc0048f419eb2606060043593a3426004820155018054906002821015610581575b602083604051908152f35b6000198201918211610602576105a09161059a91611dc6565b50611c80565b906105af60c083015142611b70565b600435600052600260205260408060002093015160078110156105ec576105db6105e391602095611b58565b918254611de2565b90559082610576565b634e487b7160e01b600052602160045260246000fd5b634e487b7160e01b600052601160045260246000fd5b634e487b7160e01b600052604160045260246000fd5b0151905088806104b6565b90601f198316916007860160005260206000209260005b818110610695575092600192859261012096600898961061067c575b505050811b0160078501556104ce565b015160001960f88460031b161c1916905588808061066c565b92936020600181928786015181550195019301610650565b600785016000526020600020601f840160051c8101602085106106ed575b601f830160051c820181106106e1575050610495565b600081556001016106cb565b50806106cb565b015190508680610450565b9250600685016000526020600020906000935b601f1984168510610756576001945083601f1981161061073d575b505050811b016006830155610468565b015160001960f88460031b161c1916905586808061072d565b81810151835560209485019460019093019290910190610712565b909150600685016000526020600020601f840160051c8101602085106107bd575b90849392915b601f830160051c820181106107ae575050610439565b60008155859450600101610798565b5080610792565b0151905086806103e9565b9250600485016000526020600020906000935b601f1984168510610826576001945083601f1981161061080d575b505050811b016004830155610401565b015160001960f88460031b161c191690558680806107fd565b818101518355602094850194600190930192909101906107e2565b909150600485016000526020600020601f840160051c81016020851061088d575b90849392915b601f830160051c8201811061087e5750506103d2565b60008155859450600101610868565b5080610862565b01519050868061038c565b9250600385016000526020600020906000935b601f19841685106108f6576001945083601f198116106108dd575b505050811b0160038301556103a4565b015160001960f88460031b161c191690558680806108cd565b818101518355602094850194600190930192909101906108b2565b909150600385016000526020600020601f840160051c81016020851061095d575b90849392915b601f830160051c8201811061094e575050610375565b60008155859450600101610938565b5080610932565b634e487b7160e01b600052600060045260246000fd5b6001810180821161060257602435036109f25761099a6040518092611939565b6109a960208201602435611939565b3360408201524260608201527f3536adf96f3f4ff81a6ca5de44dee7b333bc274a83f6aff7e777bfec326d72a4608060043592a26109ec60243560028601611b7d565b85610256565b60405162461bcd60e51b815260206004820152601960248201527f496e76616c69642073746167652070726f6772657373696f6e000000000000006044820152606490fd5b60405162461bcd60e51b815260206004820152601860248201527f4a6f75726e657920616c726561647920636f6d706c65746500000000000000006044820152606490fd5b3461017057604036600319011261017057604051602435600435610a9f83611961565b600083526000610120602094828682015282604082015282606082015260606080820152606060a08201528260c0820152606060e0820152606061010082015201528060005260018352600160406000200154821015610b2e57610b159161059a91600052600184526001604060002001611dc6565b90610b2a604051928284938452830190611a34565b0390f35b60405162461bcd60e51b815260048101849052600d60248201526c092dcecc2d8d2c840d2dcc8caf609b1b6044820152606490fd5b3461017057602080600319360112610170576001600160a01b03610b856118f5565b1660005260038152604060002060405190818382549182815201908192600052846000209060005b86828210610c03578686610bc38288038361197d565b604051928392818401908285525180915260408401929160005b828110610bec57505050500390f35b835185528695509381019392810192600101610bdd565b835485529093019260019283019201610bad565b346101705760208060031936011261017057600060c0604051610c3981611946565b8281526060848201528260408201528260608201528260808201528260a0820152015260043560005260018152604060002060405190610c7882611946565b80548252610c8860018201611d1d565b8383019081526002820154916040840192610ca660ff821685611b95565b60018060a01b0380606087019260081c16825260038301549160808701928352610d17610d0b60ff600560048801549760a08c019889520154169660c08a0197151588526040519a8b9a818c5251908b01525160e060408b01526101008a0190611adc565b96516060890190611939565b511660808601525160a08501525160c084015251151560e08301520390f35b3461017057602036600319011261017057600435600052600160205260c06040600020805490600281015490600381015460ff600560048401549301541692604051948552610d8b6020860160ff8316611939565b60081c6001600160a01b0316604085015260608401526080830152151560a0820152f35b34610170576000366003190112610170576000546040516001600160a01b039091168152602090f35b3461017057600036600319011261017057610df1611def565b600080546001600160a01b0319811682556001600160a01b03167f8be0079c531659141344cd1fd0a4f28419497f9722a3daafe3b4186f6b6457e08280a3005b346101705760203660031901126101705760043580600052600160205260406000206003810154610e63811515611d84565b6005820180549160ff8316610f6657600192610e96928460ff198093161790556006600286019182541617905542611b70565b910190815480610eed575b507fd24d817327bac0c425a6b5e8a9100af6c3b8716cda675c9d87bf264a202547e4915490610ee86040519283924291846040919493926060820195825260208201520152565b0390a2005b60001981019081116106025761059a610f069184611dc6565b91610f1560c084015142611b70565b84600052600260205260408060002094015160078110156105ec576105db610f5e917fd24d817327bac0c425a6b5e8a9100af6c3b8716cda675c9d87bf264a202547e496611b58565b905591610ea1565b60405162461bcd60e51b815260206004820152601060248201526f416c726561647920636f6d706c65746560801b6044820152606490fd5b34610170576020610fc3610fb136611b39565b90600052600283526040600020611b58565b54604051908152f35b34610170576020366003190112610170576004356000526001602052610b2a610ffb6001604060002001611d1d565b604051918291602083526020830190611adc565b34610170576080366003190112610170576024356001600160401b0381116101705761103f90369060040161199e565b6044356001600160401b0381116101705761105e90369060040161199e565b6064356001600160401b0381116101705761107d90369060040161199e565b9060043560005260016020526003604060002001546117365760043560008181526001602052604090209081556002810180546001600160a81b0319163360081b610100600160a81b031617905542600382015560044291015560405191602083018381106001600160401b038211176106185760405260008352600454926000198414610602576001840160045560043560005260016020526001604060002001916040519361112d85611961565b85855260043560208601526000604086015233606086015286608086015260a08501524260c085015260e084015261010083015260006101208301528054600160401b8110156106185761118691600182018155611dc6565b91909161096457805182556020810151600183015560408101516002830160078210156105ec576103206111ba9282611b7d565b60808101518051906001600160401b0382116106185781906111df6003860154611ba1565b601f81116116e3575b50602090601f831160011461167157600092611666575b50508160011b916000199060031b1c19161760038301555b60a08101518051906001600160401b03821161061857819061123c6004860154611ba1565b601f8111611613575b50602090601f83116001146115a157600092611596575b50508160011b916000199060031b1c19161760048301555b60c0810151600583015560e08101518051906001600160401b0382116106185781906112a36006860154611ba1565b601f8111611543575b50602090601f83116001146114d1576000926114c6575b50508160011b916000199060031b1c19161760068301555b6101008101518051906001600160401b038211610618576112ff6007850154611ba1565b601f811161147f575b50602090601f831160011461140b5791806008949261012094600092611400575b50508160011b916000199060031b1c19161760078501555b01519101553360005260036020526040600020918254600160401b811015610618576105048160209560016113789401815561190b565b604051600081523384820152426040820152827fb116500a92538fa2712f61befbb9f1841d4d51b22f4a1340e3fbc0048f419eb2606060043593a36113c8604051916040835260408301906119f4565b42848301527fb142cf0fddec887a2983e922a2098b028dfd64c47d8533a84e71de5711873083339280600435930390a3604051908152f35b015190508880611329565b90601f198316916007860160005260206000209260005b818110611467575092600192859261012096600898961061144e575b505050811b016007850155611341565b015160001960f88460031b161c1916905588808061143e565b92936020600181928786015181550195019301611422565b600785016000526020600020601f840160051c8101602085106114bf575b601f830160051c820181106114b3575050611308565b6000815560010161149d565b508061149d565b0151905086806112c3565b9250600685016000526020600020906000935b601f1984168510611528576001945083601f1981161061150f575b505050811b0160068301556112db565b015160001960f88460031b161c191690558680806114ff565b818101518355602094850194600190930192909101906114e4565b909150600685016000526020600020601f840160051c81016020851061158f575b90849392915b601f830160051c820181106115805750506112ac565b6000815585945060010161156a565b5080611564565b01519050868061125c565b9250600485016000526020600020906000935b601f19841685106115f8576001945083601f198116106115df575b505050811b016004830155611274565b015160001960f88460031b161c191690558680806115cf565b818101518355602094850194600190930192909101906115b4565b909150600485016000526020600020601f840160051c81016020851061165f575b90849392915b601f830160051c82018110611650575050611245565b6000815585945060010161163a565b5080611634565b0151905086806111ff565b9250600385016000526020600020906000935b601f19841685106116c8576001945083601f198116106116af575b505050811b016003830155611217565b015160001960f88460031b161c1916905586808061169f565b81810151835560209485019460019093019290910190611684565b909150600385016000526020600020601f840160051c81016020851061172f575b90849392915b601f830160051c820181106117205750506111e8565b6000815585945060010161170a565b5080611704565b60405162461bcd60e51b81526020600482015260166024820152754a6f75726e657920616c72656164792065786973747360501b6044820152606490fd5b3461017057600036600319011261017057600454600019810190811161060257602090604051908152f35b34610170576000366003190112610170576020600454604051908152f35b3461017057602036600319011261017057600435600052600160205260406000206004600382015491015490610b2a6117f68284611b70565b604051938493846040919493926060820195825260208201520152565b346101705760203660031901126101705760043560005260016020526080604060002060038101549061188460018201549160ff600282015416908460ff60058301541660001461188b57600461186b920154611b70565b925b604051941515855260208501526040840190611939565b6060820152f35b611896915042611b70565b9261186d565b34610170576040366003190112610170576118b56118f5565b6001600160a01b0316600090815260036020526040902080546024359190821015610170576020916118e69161190b565b90549060031b1c604051908152f35b600435906001600160a01b038216820361017057565b80548210156119235760005260206000200190600090565b634e487b7160e01b600052603260045260246000fd5b9060078210156105ec5752565b60e081019081106001600160401b0382111761061857604052565b61014081019081106001600160401b0382111761061857604052565b90601f801991011681019081106001600160401b0382111761061857604052565b81601f82011215610170578035906001600160401b03821161061857604051926119d2601f8401601f19166020018561197d565b8284526020838301011161017057816000926020809301838601378301015290565b919082519283825260005b848110611a20575050826000602080949584010152601f8019910116010190565b6020818301810151848301820152016119ff565b90611ace611aba611a9e611a8c6101408651865260208701516020870152611a6460408801516040880190611939565b6060878101516001600160a01b031690870152608080880151908701829052908601906119f4565b60a086015185820360a08701526119f4565b60c085015160c085015260e085015184820360e08601526119f4565b6101008085015190848303908501526119f4565b916101208091015191015290565b90808251908181526020809101926020808460051b8301019501936000915b848310611b0b5750505050505090565b9091929394958480611b29600193601f198682030187528a51611a34565b9801930193019194939290611afb565b6040906003190112610170576004359060243560078110156101705790565b9060078110156105ec57600052602052604060002090565b9190820391821161060257565b9060078110156105ec5760ff80198354169116179055565b60078210156105ec5752565b90600182811c92168015611bd1575b6020831014611bbb57565b634e487b7160e01b600052602260045260246000fd5b91607f1691611bb0565b90604051918260008254611bee81611ba1565b90818452602094600191600181169081600014611c5e5750600114611c1f575b505050611c1d9250038361197d565b565b600090815285812095935091905b818310611c46575050611c1d9350820101388080611c0e565b85548884018501529485019487945091830191611c2d565b92505050611c1d94925060ff191682840152151560051b820101388080611c0e565b90604051611c8d81611961565b6101206008829480548452600181015460208501526002810154611cb760ff821660408701611b95565b821c6001600160a01b03166060850152611cd360038201611bdb565b6080850152611ce460048201611bdb565b60a0850152600581015460c0850152611cff60068201611bdb565b60e0850152611d1060078201611bdb565b6101008501520154910152565b9081546001600160401b0381116106185760209260405193611d4560208460051b018661197d565b828552602085019160005260206000206000925b848410611d67575050505050565b600983600192611d7685611c80565b815201920193019290611d59565b15611d8b57565b60405162461bcd60e51b8152602060048201526013602482015272129bdd5c9b995e481b9bdd081cdd185c9d1959606a1b6044820152606490fd5b8054821015611923576000526009602060002091020190600090565b9190820180921161060257565b6000546001600160a01b03163303611e0357565b60405163118cdaa760e01b8152336004820152602490fdfea2646970667358221220c72642b7d46304e948a4fa83fc22f859052f78f0d7e40c2c9273f900b507265964736f6c63430008180033","opcodes":"PUSH1 0x80 DUP1 PUSH1 0x40 MSTORE CALLVALUE PUSH2 0x7F JUMPI CALLER ISZERO PUSH2 0x69 JUMPI PUSH1 0x0 DUP1 SLOAD CALLER PUSH1 0x1 PUSH1 0x1 PUSH1 0xA0 SHL SUB NOT DUP3 AND DUP2 OR DUP4 SSTORE PUSH1 0x40 MLOAD SWAP3 SWAP1 SWAP2 PUSH1 0x1 PUSH1 0x1 PUSH1 0xA0 SHL SUB AND SWAP1 PUSH32 0x8BE0079C531659141344CD1FD0A4F28419497F9722A3DAAFE3B4186F6B6457E0 SWAP1 DUP1 LOG3 PUSH1 0x1 PUSH1 0x4 SSTORE PUSH2 0x1E51 SWAP1 DUP2 PUSH2 0x85 DUP3 CODECOPY RETURN JUMPDEST PUSH4 0x1E4FBDF7 PUSH1 0xE0 SHL DUP2 MSTORE PUSH1 0x0 PUSH1 0x4 DUP3 ADD MSTORE PUSH1 0x24 SWAP1 REVERT JUMPDEST PUSH1 0x0 DUP1 REVERT INVALID PUSH1 0x80 PUSH1 0x40 MSTORE PUSH1 0x4 CALLDATASIZE LT ISZERO PUSH2 0x12 JUMPI PUSH1 0x0 DUP1 REVERT JUMPDEST PUSH1 0x0 CALLDATALOAD PUSH1 0xE0 SHR DUP1 PUSH4 0x130CF16 EQ PUSH2 0x189C JUMPI DUP1 PUSH4 0xC369F17 EQ PUSH2 0x1813 JUMPI DUP1 PUSH4 0xDF1C22D EQ PUSH2 0x17BD JUMPI DUP1 PUSH4 0x229EC452 EQ PUSH2 0x179F JUMPI DUP1 PUSH4 0x24B4123F EQ PUSH2 0x1774 JUMPI DUP1 PUSH4 0x2A259033 EQ PUSH2 0x100F JUMPI DUP1 PUSH4 0x35FF0969 EQ PUSH2 0xFCC JUMPI DUP1 PUSH4 0x625F8509 EQ PUSH2 0xF9E JUMPI DUP1 PUSH4 0x644438EB EQ PUSH2 0xF9E JUMPI DUP1 PUSH4 0x69ABFA5D EQ PUSH2 0xE31 JUMPI DUP1 PUSH4 0x715018A6 EQ PUSH2 0xDD8 JUMPI DUP1 PUSH4 0x8DA5CB5B EQ PUSH2 0xDAF JUMPI DUP1 PUSH4 0x8DF5A9FA EQ PUSH2 0xD36 JUMPI DUP1 PUSH4 0xB5443038 EQ PUSH2 0xC17 JUMPI DUP1 PUSH4 0xB545A566 EQ PUSH2 0xB63 JUMPI DUP1 PUSH4 0xC097227D EQ PUSH2 0xA7C JUMPI DUP1 PUSH4 0xF0995ACE EQ PUSH2 0x175 JUMPI PUSH4 0xF2FDE38B EQ PUSH2 0xE2 JUMPI PUSH1 0x0 DUP1 REVERT JUMPDEST CALLVALUE PUSH2 0x170 JUMPI PUSH1 0x20 CALLDATASIZE PUSH1 0x3 NOT ADD SLT PUSH2 0x170 JUMPI PUSH2 0xFB PUSH2 0x18F5 JUMP JUMPDEST PUSH2 0x103 PUSH2 0x1DEF JUMP JUMPDEST PUSH1 0x1 PUSH1 0x1 PUSH1 0xA0 SHL SUB SWAP1 DUP2 AND SWAP1 DUP2 ISZERO PUSH2 0x157 JUMPI PUSH1 0x0 SLOAD DUP3 PUSH12 0xFFFFFFFFFFFFFFFFFFFFFFFF PUSH1 0xA0 SHL DUP3 AND OR PUSH1 0x0 SSTORE AND PUSH32 0x8BE0079C531659141344CD1FD0A4F28419497F9722A3DAAFE3B4186F6B6457E0 PUSH1 0x0 DUP1 LOG3 STOP JUMPDEST PUSH1 0x40 MLOAD PUSH4 0x1E4FBDF7 PUSH1 0xE0 SHL DUP2 MSTORE PUSH1 0x0 PUSH1 0x4 DUP3 ADD MSTORE PUSH1 0x24 SWAP1 REVERT JUMPDEST PUSH1 0x0 DUP1 REVERT JUMPDEST CALLVALUE PUSH2 0x170 JUMPI PUSH1 0xE0 CALLDATASIZE PUSH1 0x3 NOT ADD SLT PUSH2 0x170 JUMPI PUSH1 0x7 PUSH1 0x24 CALLDATALOAD LT ISZERO PUSH2 0x170 JUMPI PUSH1 0x44 CALLDATALOAD PUSH1 0x1 PUSH1 0x1 PUSH1 0x40 SHL SUB DUP2 GT PUSH2 0x170 JUMPI PUSH2 0x1B0 SWAP1 CALLDATASIZE SWAP1 PUSH1 0x4 ADD PUSH2 0x199E JUMP JUMPDEST PUSH1 0x64 CALLDATALOAD PUSH1 0x1 PUSH1 0x1 PUSH1 0x40 SHL SUB DUP2 GT PUSH2 0x170 JUMPI PUSH2 0x1CF SWAP1 CALLDATASIZE SWAP1 PUSH1 0x4 ADD PUSH2 0x199E JUMP JUMPDEST PUSH1 0x84 CALLDATALOAD PUSH1 0x1 PUSH1 0x1 PUSH1 0x40 SHL SUB DUP2 GT PUSH2 0x170 JUMPI PUSH2 0x1EE SWAP1 CALLDATASIZE SWAP1 PUSH1 0x4 ADD PUSH2 0x199E JUMP JUMPDEST SWAP2 PUSH1 0xA4 CALLDATALOAD PUSH1 0x1 PUSH1 0x1 PUSH1 0x40 SHL SUB DUP2 GT PUSH2 0x170 JUMPI PUSH2 0x20E SWAP1 CALLDATASIZE SWAP1 PUSH1 0x4 ADD PUSH2 0x199E JUMP JUMPDEST SWAP2 PUSH1 0x4 CALLDATALOAD PUSH1 0x0 MSTORE PUSH1 0x1 PUSH1 0x20 MSTORE PUSH1 0x40 PUSH1 0x0 KECCAK256 SWAP3 PUSH2 0x22F PUSH1 0x3 DUP6 ADD SLOAD ISZERO ISZERO PUSH2 0x1D84 JUMP JUMPDEST PUSH1 0xFF PUSH1 0x5 DUP6 ADD SLOAD AND PUSH2 0xA37 JUMPI PUSH1 0xFF PUSH1 0x2 DUP6 ADD SLOAD AND PUSH1 0x7 DUP2 LT ISZERO PUSH2 0x5EC JUMPI DUP1 PUSH1 0x24 CALLDATALOAD SUB PUSH2 0x97A JUMPI JUMPDEST POP PUSH1 0x4 SLOAD SWAP5 PUSH1 0x0 NOT DUP7 EQ PUSH2 0x602 JUMPI PUSH1 0x1 DUP7 ADD PUSH1 0x4 SSTORE PUSH1 0x4 CALLDATALOAD PUSH1 0x0 MSTORE PUSH1 0x1 PUSH1 0x20 MSTORE PUSH1 0x1 PUSH1 0x40 PUSH1 0x0 KECCAK256 ADD SWAP3 PUSH1 0x40 MLOAD SWAP5 PUSH2 0x28C DUP7 PUSH2 0x1961 JUMP JUMPDEST DUP8 DUP7 MSTORE PUSH1 0x4 CALLDATALOAD PUSH1 0x20 DUP8 ADD MSTORE PUSH2 0x2A6 PUSH1 0x24 CALLDATALOAD PUSH1 0x40 DUP9 ADD PUSH2 0x1B95 JUMP JUMPDEST CALLER PUSH1 0x60 DUP8 ADD MSTORE PUSH1 0x80 DUP7 ADD MSTORE PUSH1 0xA0 DUP6 ADD MSTORE TIMESTAMP PUSH1 0xC0 DUP6 ADD MSTORE PUSH1 0xE0 DUP5 ADD MSTORE PUSH2 0x100 DUP4 ADD MSTORE PUSH1 0x0 PUSH2 0x120 DUP4 ADD MSTORE DUP1 SLOAD PUSH1 0x1 PUSH1 0x40 SHL DUP2 LT ISZERO PUSH2 0x618 JUMPI PUSH2 0x2EC SWAP2 PUSH1 0x1 DUP3 ADD DUP2 SSTORE PUSH2 0x1DC6 JUMP JUMPDEST SWAP2 SWAP1 SWAP2 PUSH2 0x964 JUMPI DUP1 MLOAD DUP3 SSTORE PUSH1 0x20 DUP2 ADD MLOAD PUSH1 0x1 DUP4 ADD SSTORE PUSH1 0x40 DUP2 ADD MLOAD PUSH1 0x2 DUP4 ADD PUSH1 0x7 DUP3 LT ISZERO PUSH2 0x5EC JUMPI PUSH2 0x320 PUSH2 0x347 SWAP3 DUP3 PUSH2 0x1B7D JUMP JUMPDEST PUSH1 0x60 DUP4 ADD MLOAD DUP2 SLOAD PUSH2 0x100 PUSH1 0x1 PUSH1 0xA8 SHL SUB NOT AND PUSH1 0x8 SWAP2 SWAP1 SWAP2 SHL PUSH2 0x100 PUSH1 0x1 PUSH1 0xA8 SHL SUB AND OR SWAP1 SSTORE JUMP JUMPDEST PUSH1 0x80 DUP2 ADD MLOAD DUP1 MLOAD SWAP1 PUSH1 0x1 PUSH1 0x1 PUSH1 0x40 SHL SUB DUP3 GT PUSH2 0x618 JUMPI DUP2 SWAP1 PUSH2 0x36C PUSH1 0x3 DUP7 ADD SLOAD PUSH2 0x1BA1 JUMP JUMPDEST PUSH1 0x1F DUP2 GT PUSH2 0x911 JUMPI JUMPDEST POP PUSH1 0x20 SWAP1 PUSH1 0x1F DUP4 GT PUSH1 0x1 EQ PUSH2 0x89F JUMPI PUSH1 0x0 SWAP3 PUSH2 0x894 JUMPI JUMPDEST POP POP DUP2 PUSH1 0x1 SHL SWAP2 PUSH1 0x0 NOT SWAP1 PUSH1 0x3 SHL SHR NOT AND OR PUSH1 0x3 DUP4 ADD SSTORE JUMPDEST PUSH1 0xA0 DUP2 ADD MLOAD DUP1 MLOAD SWAP1 PUSH1 0x1 PUSH1 0x1 PUSH1 0x40 SHL SUB DUP3 GT PUSH2 0x618 JUMPI DUP2 SWAP1 PUSH2 0x3C9 PUSH1 0x4 DUP7 ADD SLOAD PUSH2 0x1BA1 JUMP JUMPDEST PUSH1 0x1F DUP2 GT PUSH2 0x841 JUMPI JUMPDEST POP PUSH1 0x20 SWAP1 PUSH1 0x1F DUP4 GT PUSH1 0x1 EQ PUSH2 0x7CF JUMPI PUSH1 0x0 SWAP3 PUSH2 0x7C4 JUMPI JUMPDEST POP POP DUP2 PUSH1 0x1 SHL SWAP2 PUSH1 0x0 NOT SWAP1 PUSH1 0x3 SHL SHR NOT AND OR PUSH1 0x4 DUP4 ADD SSTORE JUMPDEST PUSH1 0xC0 DUP2 ADD MLOAD PUSH1 0x5 DUP4 ADD SSTORE PUSH1 0xE0 DUP2 ADD MLOAD DUP1 MLOAD SWAP1 PUSH1 0x1 PUSH1 0x1 PUSH1 0x40 SHL SUB DUP3 GT PUSH2 0x618 JUMPI DUP2 SWAP1 PUSH2 0x430 PUSH1 0x6 DUP7 ADD SLOAD PUSH2 0x1BA1 JUMP JUMPDEST PUSH1 0x1F DUP2 GT PUSH2 0x771 JUMPI JUMPDEST POP PUSH1 0x20 SWAP1 PUSH1 0x1F DUP4 GT PUSH1 0x1 EQ PUSH2 0x6FF JUMPI PUSH1 0x0 SWAP3 PUSH2 0x6F4 JUMPI JUMPDEST POP POP DUP2 PUSH1 0x1 SHL SWAP2 PUSH1 0x0 NOT SWAP1 PUSH1 0x3 SHL SHR NOT AND OR PUSH1 0x6 DUP4 ADD SSTORE JUMPDEST PUSH2 0x100 DUP2 ADD MLOAD DUP1 MLOAD SWAP1 PUSH1 0x1 PUSH1 0x1 PUSH1 0x40 SHL SUB DUP3 GT PUSH2 0x618 JUMPI PUSH2 0x48C PUSH1 0x7 DUP6 ADD SLOAD PUSH2 0x1BA1 JUMP JUMPDEST PUSH1 0x1F DUP2 GT PUSH2 0x6AD JUMPI JUMPDEST POP PUSH1 0x20 SWAP1 PUSH1 0x1F DUP4 GT PUSH1 0x1 EQ PUSH2 0x639 JUMPI SWAP2 DUP1 PUSH1 0x8 SWAP5 SWAP3 PUSH2 0x120 SWAP5 PUSH1 0x0 SWAP3 PUSH2 0x62E JUMPI JUMPDEST POP POP DUP2 PUSH1 0x1 SHL SWAP2 PUSH1 0x0 NOT SWAP1 PUSH1 0x3 SHL SHR NOT AND OR PUSH1 0x7 DUP6 ADD SSTORE JUMPDEST ADD MLOAD SWAP2 ADD SSTORE CALLER PUSH1 0x0 MSTORE PUSH1 0x3 PUSH1 0x20 MSTORE PUSH1 0x40 PUSH1 0x0 KECCAK256 SWAP1 DUP2 SLOAD PUSH1 0x1 PUSH1 0x40 SHL DUP2 LT ISZERO PUSH2 0x618 JUMPI PUSH2 0x504 DUP2 PUSH1 0x1 SWAP5 DUP6 PUSH2 0x51E SWAP5 ADD DUP2 SSTORE PUSH2 0x190B JUMP JUMPDEST PUSH1 0x4 CALLDATALOAD SWAP1 DUP3 SLOAD SWAP1 PUSH1 0x3 SHL SWAP2 DUP3 SHL SWAP2 PUSH1 0x0 NOT SWAP1 SHL NOT AND OR SWAP1 SSTORE JUMP JUMPDEST PUSH1 0x40 MLOAD PUSH2 0x52D DUP2 PUSH1 0x24 CALLDATALOAD PUSH2 0x1939 JUMP JUMPDEST CALLER PUSH1 0x20 DUP3 ADD MSTORE TIMESTAMP PUSH1 0x40 DUP3 ADD MSTORE DUP4 PUSH32 0xB116500A92538FA2712F61BEFBB9F1841D4D51B22F4A1340E3FBC0048F419EB2 PUSH1 0x60 PUSH1 0x4 CALLDATALOAD SWAP4 LOG3 TIMESTAMP PUSH1 0x4 DUP3 ADD SSTORE ADD DUP1 SLOAD SWAP1 PUSH1 0x2 DUP3 LT ISZERO PUSH2 0x581 JUMPI JUMPDEST PUSH1 0x20 DUP4 PUSH1 0x40 MLOAD SWAP1 DUP2 MSTORE RETURN JUMPDEST PUSH1 0x0 NOT DUP3 ADD SWAP2 DUP3 GT PUSH2 0x602 JUMPI PUSH2 0x5A0 SWAP2 PUSH2 0x59A SWAP2 PUSH2 0x1DC6 JUMP JUMPDEST POP PUSH2 0x1C80 JUMP JUMPDEST SWAP1 PUSH2 0x5AF PUSH1 0xC0 DUP4 ADD MLOAD TIMESTAMP PUSH2 0x1B70 JUMP JUMPDEST PUSH1 0x4 CALLDATALOAD PUSH1 0x0 MSTORE PUSH1 0x2 PUSH1 0x20 MSTORE PUSH1 0x40 DUP1 PUSH1 0x0 KECCAK256 SWAP4 ADD MLOAD PUSH1 0x7 DUP2 LT ISZERO PUSH2 0x5EC JUMPI PUSH2 0x5DB PUSH2 0x5E3 SWAP2 PUSH1 0x20 SWAP6 PUSH2 0x1B58 JUMP JUMPDEST SWAP2 DUP3 SLOAD PUSH2 0x1DE2 JUMP JUMPDEST SWAP1 SSTORE SWAP1 DUP3 PUSH2 0x576 JUMP JUMPDEST PUSH4 0x4E487B71 PUSH1 0xE0 SHL PUSH1 0x0 MSTORE PUSH1 0x21 PUSH1 0x4 MSTORE PUSH1 0x24 PUSH1 0x0 REVERT JUMPDEST PUSH4 0x4E487B71 PUSH1 0xE0 SHL PUSH1 0x0 MSTORE PUSH1 0x11 PUSH1 0x4 MSTORE PUSH1 0x24 PUSH1 0x0 REVERT JUMPDEST PUSH4 0x4E487B71 PUSH1 0xE0 SHL PUSH1 0x0 MSTORE PUSH1 0x41 PUSH1 0x4 MSTORE PUSH1 0x24 PUSH1 0x0 REVERT JUMPDEST ADD MLOAD SWAP1 POP DUP9 DUP1 PUSH2 0x4B6 JUMP JUMPDEST SWAP1 PUSH1 0x1F NOT DUP4 AND SWAP2 PUSH1 0x7 DUP7 ADD PUSH1 0x0 MSTORE PUSH1 0x20 PUSH1 0x0 KECCAK256 SWAP3 PUSH1 0x0 JUMPDEST DUP2 DUP2 LT PUSH2 0x695 JUMPI POP SWAP3 PUSH1 0x1 SWAP3 DUP6 SWAP3 PUSH2 0x120 SWAP7 PUSH1 0x8 SWAP9 SWAP7 LT PUSH2 0x67C JUMPI JUMPDEST POP POP POP DUP2 SHL ADD PUSH1 0x7 DUP6 ADD SSTORE PUSH2 0x4CE JUMP JUMPDEST ADD MLOAD PUSH1 0x0 NOT PUSH1 0xF8 DUP5 PUSH1 0x3 SHL AND SHR NOT AND SWAP1 SSTORE DUP9 DUP1 DUP1 PUSH2 0x66C JUMP JUMPDEST SWAP3 SWAP4 PUSH1 0x20 PUSH1 0x1 DUP2 SWAP3 DUP8 DUP7 ADD MLOAD DUP2 SSTORE ADD SWAP6 ADD SWAP4 ADD PUSH2 0x650 JUMP JUMPDEST PUSH1 0x7 DUP6 ADD PUSH1 0x0 MSTORE PUSH1 0x20 PUSH1 0x0 KECCAK256 PUSH1 0x1F DUP5 ADD PUSH1 0x5 SHR DUP2 ADD PUSH1 0x20 DUP6 LT PUSH2 0x6ED JUMPI JUMPDEST PUSH1 0x1F DUP4 ADD PUSH1 0x5 SHR DUP3 ADD DUP2 LT PUSH2 0x6E1 JUMPI POP POP PUSH2 0x495 JUMP JUMPDEST PUSH1 0x0 DUP2 SSTORE PUSH1 0x1 ADD PUSH2 0x6CB JUMP JUMPDEST POP DUP1 PUSH2 0x6CB JUMP JUMPDEST ADD MLOAD SWAP1 POP DUP7 DUP1 PUSH2 0x450 JUMP JUMPDEST SWAP3 POP PUSH1 0x6 DUP6 ADD PUSH1 0x0 MSTORE PUSH1 0x20 PUSH1 0x0 KECCAK256 SWAP1 PUSH1 0x0 SWAP4 JUMPDEST PUSH1 0x1F NOT DUP5 AND DUP6 LT PUSH2 0x756 JUMPI PUSH1 0x1 SWAP5 POP DUP4 PUSH1 0x1F NOT DUP2 AND LT PUSH2 0x73D JUMPI JUMPDEST POP POP POP DUP2 SHL ADD PUSH1 0x6 DUP4 ADD SSTORE PUSH2 0x468 JUMP JUMPDEST ADD MLOAD PUSH1 0x0 NOT PUSH1 0xF8 DUP5 PUSH1 0x3 SHL AND SHR NOT AND SWAP1 SSTORE DUP7 DUP1 DUP1 PUSH2 0x72D JUMP JUMPDEST DUP2 DUP2 ADD MLOAD DUP4 SSTORE PUSH1 0x20 SWAP5 DUP6 ADD SWAP5 PUSH1 0x1 SWAP1 SWAP4 ADD SWAP3 SWAP1 SWAP2 ADD SWAP1 PUSH2 0x712 JUMP JUMPDEST SWAP1 SWAP2 POP PUSH1 0x6 DUP6 ADD PUSH1 0x0 MSTORE PUSH1 0x20 PUSH1 0x0 KECCAK256 PUSH1 0x1F DUP5 ADD PUSH1 0x5 SHR DUP2 ADD PUSH1 0x20 DUP6 LT PUSH2 0x7BD JUMPI JUMPDEST SWAP1 DUP5 SWAP4 SWAP3 SWAP2 JUMPDEST PUSH1 0x1F DUP4 ADD PUSH1 0x5 SHR DUP3 ADD DUP2 LT PUSH2 0x7AE JUMPI POP POP PUSH2 0x439 JUMP JUMPDEST PUSH1 0x0 DUP2 SSTORE DUP6 SWAP5 POP PUSH1 0x1 ADD PUSH2 0x798 JUMP JUMPDEST POP DUP1 PUSH2 0x792 JUMP JUMPDEST ADD MLOAD SWAP1 POP DUP7 DUP1 PUSH2 0x3E9 JUMP JUMPDEST SWAP3 POP PUSH1 0x4 DUP6 ADD PUSH1 0x0 MSTORE PUSH1 0x20 PUSH1 0x0 KECCAK256 SWAP1 PUSH1 0x0 SWAP4 JUMPDEST PUSH1 0x1F NOT DUP5 AND DUP6 LT PUSH2 0x826 JUMPI PUSH1 0x1 SWAP5 POP DUP4 PUSH1 0x1F NOT DUP2 AND LT PUSH2 0x80D JUMPI JUMPDEST POP POP POP DUP2 SHL ADD PUSH1 0x4 DUP4 ADD SSTORE PUSH2 0x401 JUMP JUMPDEST ADD MLOAD PUSH1 0x0 NOT PUSH1 0xF8 DUP5 PUSH1 0x3 SHL AND SHR NOT AND SWAP1 SSTORE DUP7 DUP1 DUP1 PUSH2 0x7FD JUMP JUMPDEST DUP2 DUP2 ADD MLOAD DUP4 SSTORE PUSH1 0x20 SWAP5 DUP6 ADD SWAP5 PUSH1 0x1 SWAP1 SWAP4 ADD SWAP3 SWAP1 SWAP2 ADD SWAP1 PUSH2 0x7E2 JUMP JUMPDEST SWAP1 SWAP2 POP PUSH1 0x4 DUP6 ADD PUSH1 0x0 MSTORE PUSH1 0x20 PUSH1 0x0 KECCAK256 PUSH1 0x1F DUP5 ADD PUSH1 0x5 SHR DUP2 ADD PUSH1 0x20 DUP6 LT PUSH2 0x88D JUMPI JUMPDEST SWAP1 DUP5 SWAP4 SWAP3 SWAP2 JUMPDEST PUSH1 0x1F DUP4 ADD PUSH1 0x5 SHR DUP3 ADD DUP2 LT PUSH2 0x87E JUMPI POP POP PUSH2 0x3D2 JUMP JUMPDEST PUSH1 0x0 DUP2 SSTORE DUP6 SWAP5 POP PUSH1 0x1 ADD PUSH2 0x868 JUMP JUMPDEST POP DUP1 PUSH2 0x862 JUMP JUMPDEST ADD MLOAD SWAP1 POP DUP7 DUP1 PUSH2 0x38C JUMP JUMPDEST SWAP3 POP PUSH1 0x3 DUP6 ADD PUSH1 0x0 MSTORE PUSH1 0x20 PUSH1 0x0 KECCAK256 SWAP1 PUSH1 0x0 SWAP4 JUMPDEST PUSH1 0x1F NOT DUP5 AND DUP6 LT PUSH2 0x8F6 JUMPI PUSH1 0x1 SWAP5 POP DUP4 PUSH1 0x1F NOT DUP2 AND LT PUSH2 0x8DD JUMPI JUMPDEST POP POP POP DUP2 SHL ADD PUSH1 0x3 DUP4 ADD SSTORE PUSH2 0x3A4 JUMP JUMPDEST ADD MLOAD PUSH1 0x0 NOT PUSH1 0xF8 DUP5 PUSH1 0x3 SHL AND SHR NOT AND SWAP1 SSTORE DUP7 DUP1 DUP1 PUSH2 0x8CD JUMP JUMPDEST DUP2 DUP2 ADD MLOAD DUP4 SSTORE PUSH1 0x20 SWAP5 DUP6 ADD SWAP5 PUSH1 0x1 SWAP1 SWAP4 ADD SWAP3 SWAP1 SWAP2 ADD SWAP1 PUSH2 0x8B2 JUMP JUMPDEST SWAP1 SWAP2 POP PUSH1 0x3 DUP6 ADD PUSH1 0x0 MSTORE PUSH1 0x20 PUSH1 0x0 KECCAK256 PUSH1 0x1F DUP5 ADD PUSH1 0x5 SHR DUP2 ADD PUSH1 0x20 DUP6 LT PUSH2 0x95D JUMPI JUMPDEST SWAP1 DUP5 SWAP4 SWAP3 SWAP2 JUMPDEST PUSH1 0x1F DUP4 ADD PUSH1 0x5 SHR DUP3 ADD DUP2 LT PUSH2 0x94E JUMPI POP POP PUSH2 0x375 JUMP JUMPDEST PUSH1 0x0 DUP2 SSTORE DUP6 SWAP5 POP PUSH1 0x1 ADD PUSH2 0x938 JUMP JUMPDEST POP DUP1 PUSH2 0x932 JUMP JUMPDEST PUSH4 0x4E487B71 PUSH1 0xE0 SHL PUSH1 0x0 MSTORE PUSH1 0x0 PUSH1 0x4 MSTORE PUSH1 0x24 PUSH1 0x0 REVERT JUMPDEST PUSH1 0x1 DUP2 ADD DUP1 DUP3 GT PUSH2 0x602 JUMPI PUSH1 0x24 CALLDATALOAD SUB PUSH2 0x9F2 JUMPI PUSH2 0x99A PUSH1 0x40 MLOAD DUP1 SWAP3 PUSH2 0x1939 JUMP JUMPDEST PUSH2 0x9A9 PUSH1 0x20 DUP3 ADD PUSH1 0x24 CALLDATALOAD PUSH2 0x1939 JUMP JUMPDEST CALLER PUSH1 0x40 DUP3 ADD MSTORE TIMESTAMP PUSH1 0x60 DUP3 ADD MSTORE PUSH32 0x3536ADF96F3F4FF81A6CA5DE44DEE7B333BC274A83F6AFF7E777BFEC326D72A4 PUSH1 0x80 PUSH1 0x4 CALLDATALOAD SWAP3 LOG2 PUSH2 0x9EC PUSH1 0x24 CALLDATALOAD PUSH1 0x2 DUP7 ADD PUSH2 0x1B7D JUMP JUMPDEST DUP6 PUSH2 0x256 JUMP JUMPDEST PUSH1 0x40 MLOAD PUSH3 0x461BCD PUSH1 0xE5 SHL DUP2 MSTORE PUSH1 0x20 PUSH1 0x4 DUP3 ADD MSTORE PUSH1 0x19 PUSH1 0x24 DUP3 ADD MSTORE PUSH32 0x496E76616C69642073746167652070726F6772657373696F6E00000000000000 PUSH1 0x44 DUP3 ADD MSTORE PUSH1 0x64 SWAP1 REVERT JUMPDEST PUSH1 0x40 MLOAD PUSH3 0x461BCD PUSH1 0xE5 SHL DUP2 MSTORE PUSH1 0x20 PUSH1 0x4 DUP3 ADD MSTORE PUSH1 0x18 PUSH1 0x24 DUP3 ADD MSTORE PUSH32 0x4A6F75726E657920616C726561647920636F6D706C6574650000000000000000 PUSH1 0x44 DUP3 ADD MSTORE PUSH1 0x64 SWAP1 REVERT JUMPDEST CALLVALUE PUSH2 0x170 JUMPI PUSH1 0x40 CALLDATASIZE PUSH1 0x3 NOT ADD SLT PUSH2 0x170 JUMPI PUSH1 0x40 MLOAD PUSH1 0x24 CALLDATALOAD PUSH1 0x4 CALLDATALOAD PUSH2 0xA9F DUP4 PUSH2 0x1961 JUMP JUMPDEST PUSH1 0x0 DUP4 MSTORE PUSH1 0x0 PUSH2 0x120 PUSH1 0x20 SWAP5 DUP3 DUP7 DUP3 ADD MSTORE DUP3 PUSH1 0x40 DUP3 ADD MSTORE DUP3 PUSH1 0x60 DUP3 ADD MSTORE PUSH1 0x60 PUSH1 0x80 DUP3 ADD MSTORE PUSH1 0x60 PUSH1 0xA0 DUP3 ADD MSTORE DUP3 PUSH1 0xC0 DUP3 ADD MSTORE PUSH1 0x60 PUSH1 0xE0 DUP3 ADD MSTORE PUSH1 0x60 PUSH2 0x100 DUP3 ADD MSTORE ADD MSTORE DUP1 PUSH1 0x0 MSTORE PUSH1 0x1 DUP4 MSTORE PUSH1 0x1 PUSH1 0x40 PUSH1 0x0 KECCAK256 ADD SLOAD DUP3 LT ISZERO PUSH2 0xB2E JUMPI PUSH2 0xB15 SWAP2 PUSH2 0x59A SWAP2 PUSH1 0x0 MSTORE PUSH1 0x1 DUP5 MSTORE PUSH1 0x1 PUSH1 0x40 PUSH1 0x0 KECCAK256 ADD PUSH2 0x1DC6 JUMP JUMPDEST SWAP1 PUSH2 0xB2A PUSH1 0x40 MLOAD SWAP3 DUP3 DUP5 SWAP4 DUP5 MSTORE DUP4 ADD SWAP1 PUSH2 0x1A34 JUMP JUMPDEST SUB SWAP1 RETURN JUMPDEST PUSH1 0x40 MLOAD PUSH3 0x461BCD PUSH1 0xE5 SHL DUP2 MSTORE PUSH1 0x4 DUP2 ADD DUP5 SWAP1 MSTORE PUSH1 0xD PUSH1 0x24 DUP3 ADD MSTORE PUSH13 0x92DCECC2D8D2C840D2DCC8CAF PUSH1 0x9B SHL PUSH1 0x44 DUP3 ADD MSTORE PUSH1 0x64 SWAP1 REVERT JUMPDEST CALLVALUE PUSH2 0x170 JUMPI PUSH1 0x20 DUP1 PUSH1 0x3 NOT CALLDATASIZE ADD SLT PUSH2 0x170 JUMPI PUSH1 0x1 PUSH1 0x1 PUSH1 0xA0 SHL SUB PUSH2 0xB85 PUSH2 0x18F5 JUMP JUMPDEST AND PUSH1 0x0 MSTORE PUSH1 0x3 DUP2 MSTORE PUSH1 0x40 PUSH1 0x0 KECCAK256 PUSH1 0x40 MLOAD SWAP1 DUP2 DUP4 DUP3 SLOAD SWAP2 DUP3 DUP2 MSTORE ADD SWAP1 DUP2 SWAP3 PUSH1 0x0 MSTORE DUP5 PUSH1 0x0 KECCAK256 SWAP1 PUSH1 0x0 JUMPDEST DUP7 DUP3 DUP3 LT PUSH2 0xC03 JUMPI DUP7 DUP7 PUSH2 0xBC3 DUP3 DUP9 SUB DUP4 PUSH2 0x197D JUMP JUMPDEST PUSH1 0x40 MLOAD SWAP3 DUP4 SWAP3 DUP2 DUP5 ADD SWAP1 DUP3 DUP6 MSTORE MLOAD DUP1 SWAP2 MSTORE PUSH1 0x40 DUP5 ADD SWAP3 SWAP2 PUSH1 0x0 JUMPDEST DUP3 DUP2 LT PUSH2 0xBEC JUMPI POP POP POP POP SUB SWAP1 RETURN JUMPDEST DUP4 MLOAD DUP6 MSTORE DUP7 SWAP6 POP SWAP4 DUP2 ADD SWAP4 SWAP3 DUP2 ADD SWAP3 PUSH1 0x1 ADD PUSH2 0xBDD JUMP JUMPDEST DUP4 SLOAD DUP6 MSTORE SWAP1 SWAP4 ADD SWAP3 PUSH1 0x1 SWAP3 DUP4 ADD SWAP3 ADD PUSH2 0xBAD JUMP JUMPDEST CALLVALUE PUSH2 0x170 JUMPI PUSH1 0x20 DUP1 PUSH1 0x3 NOT CALLDATASIZE ADD SLT PUSH2 0x170 JUMPI PUSH1 0x0 PUSH1 0xC0 PUSH1 0x40 MLOAD PUSH2 0xC39 DUP2 PUSH2 0x1946 JUMP JUMPDEST DUP3 DUP2 MSTORE PUSH1 0x60 DUP5 DUP3 ADD MSTORE DUP3 PUSH1 0x40 DUP3 ADD MSTORE DUP3 PUSH1 0x60 DUP3 ADD MSTORE DUP3 PUSH1 0x80 DUP3 ADD MSTORE DUP3 PUSH1 0xA0 DUP3 ADD MSTORE ADD MSTORE PUSH1 0x4 CALLDATALOAD PUSH1 0x0 MSTORE PUSH1 0x1 DUP2 MSTORE PUSH1 0x40 PUSH1 0x0 KECCAK256 PUSH1 0x40 MLOAD SWAP1 PUSH2 0xC78 DUP3 PUSH2 0x1946 JUMP JUMPDEST DUP1 SLOAD DUP3 MSTORE PUSH2 0xC88 PUSH1 0x1 DUP3 ADD PUSH2 0x1D1D JUMP JUMPDEST DUP4 DUP4 ADD SWAP1 DUP2 MSTORE PUSH1 0x2 DUP3 ADD SLOAD SWAP2 PUSH1 0x40 DUP5 ADD SWAP3 PUSH2 0xCA6 PUSH1 0xFF DUP3 AND DUP6 PUSH2 0x1B95 JUMP JUMPDEST PUSH1 0x1 DUP1 PUSH1 0xA0 SHL SUB DUP1 PUSH1 0x60 DUP8 ADD SWAP3 PUSH1 0x8 SHR AND DUP3 MSTORE PUSH1 0x3 DUP4 ADD SLOAD SWAP2 PUSH1 0x80 DUP8 ADD SWAP3 DUP4 MSTORE PUSH2 0xD17 PUSH2 0xD0B PUSH1 0xFF PUSH1 0x5 PUSH1 0x4 DUP9 ADD SLOAD SWAP8 PUSH1 0xA0 DUP13 ADD SWAP9 DUP10 MSTORE ADD SLOAD AND SWAP7 PUSH1 0xC0 DUP11 ADD SWAP8 ISZERO ISZERO DUP9 MSTORE PUSH1 0x40 MLOAD SWAP11 DUP12 SWAP11 DUP2 DUP13 MSTORE MLOAD SWAP1 DUP12 ADD MSTORE MLOAD PUSH1 0xE0 PUSH1 0x40 DUP12 ADD MSTORE PUSH2 0x100 DUP11 ADD SWAP1 PUSH2 0x1ADC JUMP JUMPDEST SWAP7 MLOAD PUSH1 0x60 DUP10 ADD SWAP1 PUSH2 0x1939 JUMP JUMPDEST MLOAD AND PUSH1 0x80 DUP7 ADD MSTORE MLOAD PUSH1 0xA0 DUP6 ADD MSTORE MLOAD PUSH1 0xC0 DUP5 ADD MSTORE MLOAD ISZERO ISZERO PUSH1 0xE0 DUP4 ADD MSTORE SUB SWAP1 RETURN JUMPDEST CALLVALUE PUSH2 0x170 JUMPI PUSH1 0x20 CALLDATASIZE PUSH1 0x3 NOT ADD SLT PUSH2 0x170 JUMPI PUSH1 0x4 CALLDATALOAD PUSH1 0x0 MSTORE PUSH1 0x1 PUSH1 0x20 MSTORE PUSH1 0xC0 PUSH1 0x40 PUSH1 0x0 KECCAK256 DUP1 SLOAD SWAP1 PUSH1 0x2 DUP2 ADD SLOAD SWAP1 PUSH1 0x3 DUP2 ADD SLOAD PUSH1 0xFF PUSH1 0x5 PUSH1 0x4 DUP5 ADD SLOAD SWAP4 ADD SLOAD AND SWAP3 PUSH1 0x40 MLOAD SWAP5 DUP6 MSTORE PUSH2 0xD8B PUSH1 0x20 DUP7 ADD PUSH1 0xFF DUP4 AND PUSH2 0x1939 JUMP JUMPDEST PUSH1 0x8 SHR PUSH1 0x1 PUSH1 0x1 PUSH1 0xA0 SHL SUB AND PUSH1 0x40 DUP6 ADD MSTORE PUSH1 0x60 DUP5 ADD MSTORE PUSH1 0x80 DUP4 ADD MSTORE ISZERO ISZERO PUSH1 0xA0 DUP3 ADD MSTORE RETURN JUMPDEST CALLVALUE PUSH2 0x170 JUMPI PUSH1 0x0 CALLDATASIZE PUSH1 0x3 NOT ADD SLT PUSH2 0x170 JUMPI PUSH1 0x0 SLOAD PUSH1 0x40 MLOAD PUSH1 0x1 PUSH1 0x1 PUSH1 0xA0 SHL SUB SWAP1 SWAP2 AND DUP2 MSTORE PUSH1 0x20 SWAP1 RETURN JUMPDEST CALLVALUE PUSH2 0x170 JUMPI PUSH1 0x0 CALLDATASIZE PUSH1 0x3 NOT ADD SLT PUSH2 0x170 JUMPI PUSH2 0xDF1 PUSH2 0x1DEF JUMP JUMPDEST PUSH1 0x0 DUP1 SLOAD PUSH1 0x1 PUSH1 0x1 PUSH1 0xA0 SHL SUB NOT DUP2 AND DUP3 SSTORE PUSH1 0x1 PUSH1 0x1 PUSH1 0xA0 SHL SUB AND PUSH32 0x8BE0079C531659141344CD1FD0A4F28419497F9722A3DAAFE3B4186F6B6457E0 DUP3 DUP1 LOG3 STOP JUMPDEST CALLVALUE PUSH2 0x170 JUMPI PUSH1 0x20 CALLDATASIZE PUSH1 0x3 NOT ADD SLT PUSH2 0x170 JUMPI PUSH1 0x4 CALLDATALOAD DUP1 PUSH1 0x0 MSTORE PUSH1 0x1 PUSH1 0x20 MSTORE PUSH1 0x40 PUSH1 0x0 KECCAK256 PUSH1 0x3 DUP2 ADD SLOAD PUSH2 0xE63 DUP2 ISZERO ISZERO PUSH2 0x1D84 JUMP JUMPDEST PUSH1 0x5 DUP3 ADD DUP1 SLOAD SWAP2 PUSH1 0xFF DUP4 AND PUSH2 0xF66 JUMPI PUSH1 0x1 SWAP3 PUSH2 0xE96 SWAP3 DUP5 PUSH1 0xFF NOT DUP1 SWAP4 AND OR SWAP1 SSTORE PUSH1 0x6 PUSH1 0x2 DUP7 ADD SWAP2 DUP3 SLOAD AND OR SWAP1 SSTORE TIMESTAMP PUSH2 0x1B70 JUMP JUMPDEST SWAP2 ADD SWAP1 DUP2 SLOAD DUP1 PUSH2 0xEED JUMPI JUMPDEST POP PUSH32 0xD24D817327BAC0C425A6B5E8A9100AF6C3B8716CDA675C9D87BF264A202547E4 SWAP2 SLOAD SWAP1 PUSH2 0xEE8 PUSH1 0x40 MLOAD SWAP3 DUP4 SWAP3 TIMESTAMP SWAP2 DUP5 PUSH1 0x40 SWAP2 SWAP5 SWAP4 SWAP3 PUSH1 0x60 DUP3 ADD SWAP6 DUP3 MSTORE PUSH1 0x20 DUP3 ADD MSTORE ADD MSTORE JUMP JUMPDEST SUB SWAP1 LOG2 STOP JUMPDEST PUSH1 0x0 NOT DUP2 ADD SWAP1 DUP2 GT PUSH2 0x602 JUMPI PUSH2 0x59A PUSH2 0xF06 SWAP2 DUP5 PUSH2 0x1DC6 JUMP JUMPDEST SWAP2 PUSH2 0xF15 PUSH1 0xC0 DUP5 ADD MLOAD TIMESTAMP PUSH2 0x1B70 JUMP JUMPDEST DUP5 PUSH1 0x0 MSTORE PUSH1 0x2 PUSH1 0x20 MSTORE PUSH1 0x40 DUP1 PUSH1 0x0 KECCAK256 SWAP5 ADD MLOAD PUSH1 0x7 DUP2 LT ISZERO PUSH2 0x5EC JUMPI PUSH2 0x5DB PUSH2 0xF5E SWAP2 PUSH32 0xD24D817327BAC0C425A6B5E8A9100AF6C3B8716CDA675C9D87BF264A202547E4 SWAP7 PUSH2 0x1B58 JUMP JUMPDEST SWAP1 SSTORE SWAP2 PUSH2 0xEA1 JUMP JUMPDEST PUSH1 0x40 MLOAD PUSH3 0x461BCD PUSH1 0xE5 SHL DUP2 MSTORE PUSH1 0x20 PUSH1 0x4 DUP3 ADD MSTORE PUSH1 0x10 PUSH1 0x24 DUP3 ADD MSTORE PUSH16 0x416C726561647920636F6D706C657465 PUSH1 0x80 SHL PUSH1 0x44 DUP3 ADD MSTORE PUSH1 0x64 SWAP1 REVERT JUMPDEST CALLVALUE PUSH2 0x170 JUMPI PUSH1 0x20 PUSH2 0xFC3 PUSH2 0xFB1 CALLDATASIZE PUSH2 0x1B39 JUMP JUMPDEST SWAP1 PUSH1 0x0 MSTORE PUSH1 0x2 DUP4 MSTORE PUSH1 0x40 PUSH1 0x0 KECCAK256 PUSH2 0x1B58 JUMP JUMPDEST SLOAD PUSH1 0x40 MLOAD SWAP1 DUP2 MSTORE RETURN JUMPDEST CALLVALUE PUSH2 0x170 JUMPI PUSH1 0x20 CALLDATASIZE PUSH1 0x3 NOT ADD SLT PUSH2 0x170 JUMPI PUSH1 0x4 CALLDATALOAD PUSH1 0x0 MSTORE PUSH1 0x1 PUSH1 0x20 MSTORE PUSH2 0xB2A PUSH2 0xFFB PUSH1 0x1 PUSH1 0x40 PUSH1 0x0 KECCAK256 ADD PUSH2 0x1D1D JUMP JUMPDEST PUSH1 0x40 MLOAD SWAP2 DUP3 SWAP2 PUSH1 0x20 DUP4 MSTORE PUSH1 0x20 DUP4 ADD SWAP1 PUSH2 0x1ADC JUMP JUMPDEST CALLVALUE PUSH2 0x170 JUMPI PUSH1 0x80 CALLDATASIZE PUSH1 0x3 NOT ADD SLT PUSH2 0x170 JUMPI PUSH1 0x24 CALLDATALOAD PUSH1 0x1 PUSH1 0x1 PUSH1 0x40 SHL SUB DUP2 GT PUSH2 0x170 JUMPI PUSH2 0x103F SWAP1 CALLDATASIZE SWAP1 PUSH1 0x4 ADD PUSH2 0x199E JUMP JUMPDEST PUSH1 0x44 CALLDATALOAD PUSH1 0x1 PUSH1 0x1 PUSH1 0x40 SHL SUB DUP2 GT PUSH2 0x170 JUMPI PUSH2 0x105E SWAP1 CALLDATASIZE SWAP1 PUSH1 0x4 ADD PUSH2 0x199E JUMP JUMPDEST PUSH1 0x64 CALLDATALOAD PUSH1 0x1 PUSH1 0x1 PUSH1 0x40 SHL SUB DUP2 GT PUSH2 0x170 JUMPI PUSH2 0x107D SWAP1 CALLDATASIZE SWAP1 PUSH1 0x4 ADD PUSH2 0x199E JUMP JUMPDEST SWAP1 PUSH1 0x4 CALLDATALOAD PUSH1 0x0 MSTORE PUSH1 0x1 PUSH1 0x20 MSTORE PUSH1 0x3 PUSH1 0x40 PUSH1 0x0 KECCAK256 ADD SLOAD PUSH2 0x1736 JUMPI PUSH1 0x4 CALLDATALOAD PUSH1 0x0 DUP2 DUP2 MSTORE PUSH1 0x1 PUSH1 0x20 MSTORE PUSH1 0x40 SWAP1 KECCAK256 SWAP1 DUP2 SSTORE PUSH1 0x2 DUP2 ADD DUP1 SLOAD PUSH1 0x1 PUSH1 0x1 PUSH1 0xA8 SHL SUB NOT AND CALLER PUSH1 0x8 SHL PUSH2 0x100 PUSH1 0x1 PUSH1 0xA8 SHL SUB AND OR SWAP1 SSTORE TIMESTAMP PUSH1 0x3 DUP3 ADD SSTORE PUSH1 0x4 TIMESTAMP SWAP2 ADD SSTORE PUSH1 0x40 MLOAD SWAP2 PUSH1 0x20 DUP4 ADD DUP4 DUP2 LT PUSH1 0x1 PUSH1 0x1 PUSH1 0x40 SHL SUB DUP3 GT OR PUSH2 0x618 JUMPI PUSH1 0x40 MSTORE PUSH1 0x0 DUP4 MSTORE PUSH1 0x4 SLOAD SWAP3 PUSH1 0x0 NOT DUP5 EQ PUSH2 0x602 JUMPI PUSH1 0x1 DUP5 ADD PUSH1 0x4 SSTORE PUSH1 0x4 CALLDATALOAD PUSH1 0x0 MSTORE PUSH1 0x1 PUSH1 0x20 MSTORE PUSH1 0x1 PUSH1 0x40 PUSH1 0x0 KECCAK256 ADD SWAP2 PUSH1 0x40 MLOAD SWAP4 PUSH2 0x112D DUP6 PUSH2 0x1961 JUMP JUMPDEST DUP6 DUP6 MSTORE PUSH1 0x4 CALLDATALOAD PUSH1 0x20 DUP7 ADD MSTORE PUSH1 0x0 PUSH1 0x40 DUP7 ADD MSTORE CALLER PUSH1 0x60 DUP7 ADD MSTORE DUP7 PUSH1 0x80 DUP7 ADD MSTORE PUSH1 0xA0 DUP6 ADD MSTORE TIMESTAMP PUSH1 0xC0 DUP6 ADD MSTORE PUSH1 0xE0 DUP5 ADD MSTORE PUSH2 0x100 DUP4 ADD MSTORE PUSH1 0x0 PUSH2 0x120 DUP4 ADD MSTORE DUP1 SLOAD PUSH1 0x1 PUSH1 0x40 SHL DUP2 LT ISZERO PUSH2 0x618 JUMPI PUSH2 0x1186 SWAP2 PUSH1 0x1 DUP3 ADD DUP2 SSTORE PUSH2 0x1DC6 JUMP JUMPDEST SWAP2 SWAP1 SWAP2 PUSH2 0x964 JUMPI DUP1 MLOAD DUP3 SSTORE PUSH1 0x20 DUP2 ADD MLOAD PUSH1 0x1 DUP4 ADD SSTORE PUSH1 0x40 DUP2 ADD MLOAD PUSH1 0x2 DUP4 ADD PUSH1 0x7 DUP3 LT ISZERO PUSH2 0x5EC JUMPI PUSH2 0x320 PUSH2 0x11BA SWAP3 DUP3 PUSH2 0x1B7D JUMP JUMPDEST PUSH1 0x80 DUP2 ADD MLOAD DUP1 MLOAD SWAP1 PUSH1 0x1 PUSH1 0x1 PUSH1 0x40 SHL SUB DUP3 GT PUSH2 0x618 JUMPI DUP2 SWAP1 PUSH2 0x11DF PUSH1 0x3 DUP7 ADD SLOAD PUSH2 0x1BA1 JUMP JUMPDEST PUSH1 0x1F DUP2 GT PUSH2 0x16E3 JUMPI JUMPDEST POP PUSH1 0x20 SWAP1 PUSH1 0x1F DUP4 GT PUSH1 0x1 EQ PUSH2 0x1671 JUMPI PUSH1 0x0 SWAP3 PUSH2 0x1666 JUMPI JUMPDEST POP POP DUP2 PUSH1 0x1 SHL SWAP2 PUSH1 0x0 NOT SWAP1 PUSH1 0x3 SHL SHR NOT AND OR PUSH1 0x3 DUP4 ADD SSTORE JUMPDEST PUSH1 0xA0 DUP2 ADD MLOAD DUP1 MLOAD SWAP1 PUSH1 0x1 PUSH1 0x1 PUSH1 0x40 SHL SUB DUP3 GT PUSH2 0x618 JUMPI DUP2 SWAP1 PUSH2 0x123C PUSH1 0x4 DUP7 ADD SLOAD PUSH2 0x1BA1 JUMP JUMPDEST PUSH1 0x1F DUP2 GT PUSH2 0x1613 JUMPI JUMPDEST POP PUSH1 0x20 SWAP1 PUSH1 0x1F DUP4 GT PUSH1 0x1 EQ PUSH2 0x15A1 JUMPI PUSH1 0x0 SWAP3 PUSH2 0x1596 JUMPI JUMPDEST POP POP DUP2 PUSH1 0x1 SHL SWAP2 PUSH1 0x0 NOT SWAP1 PUSH1 0x3 SHL SHR NOT AND OR PUSH1 0x4 DUP4 ADD SSTORE JUMPDEST PUSH1 0xC0 DUP2 ADD MLOAD PUSH1 0x5 DUP4 ADD SSTORE PUSH1 0xE0 DUP2 ADD MLOAD DUP1 MLOAD SWAP1 PUSH1 0x1 PUSH1 0x1 PUSH1 0x40 SHL SUB DUP3 GT PUSH2 0x618 JUMPI DUP2 SWAP1 PUSH2 0x12A3 PUSH1 0x6 DUP7 ADD SLOAD PUSH2 0x1BA1 JUMP JUMPDEST PUSH1 0x1F DUP2 GT PUSH2 0x1543 JUMPI JUMPDEST POP PUSH1 0x20 SWAP1 PUSH1 0x1F DUP4 GT PUSH1 0x1 EQ PUSH2 0x14D1 JUMPI PUSH1 0x0 SWAP3 PUSH2 0x14C6 JUMPI JUMPDEST POP POP DUP2 PUSH1 0x1 SHL SWAP2 PUSH1 0x0 NOT SWAP1 PUSH1 0x3 SHL SHR NOT AND OR PUSH1 0x6 DUP4 ADD SSTORE JUMPDEST PUSH2 0x100 DUP2 ADD MLOAD DUP1 MLOAD SWAP1 PUSH1 0x1 PUSH1 0x1 PUSH1 0x40 SHL SUB DUP3 GT PUSH2 0x618 JUMPI PUSH2 0x12FF PUSH1 0x7 DUP6 ADD SLOAD PUSH2 0x1BA1 JUMP JUMPDEST PUSH1 0x1F DUP2 GT PUSH2 0x147F JUMPI JUMPDEST POP PUSH1 0x20 SWAP1 PUSH1 0x1F DUP4 GT PUSH1 0x1 EQ PUSH2 0x140B JUMPI SWAP2 DUP1 PUSH1 0x8 SWAP5 SWAP3 PUSH2 0x120 SWAP5 PUSH1 0x0 SWAP3 PUSH2 0x1400 JUMPI JUMPDEST POP POP DUP2 PUSH1 0x1 SHL SWAP2 PUSH1 0x0 NOT SWAP1 PUSH1 0x3 SHL SHR NOT AND OR PUSH1 0x7 DUP6 ADD SSTORE JUMPDEST ADD MLOAD SWAP2 ADD SSTORE CALLER PUSH1 0x0 MSTORE PUSH1 0x3 PUSH1 0x20 MSTORE PUSH1 0x40 PUSH1 0x0 KECCAK256 SWAP2 DUP3 SLOAD PUSH1 0x1 PUSH1 0x40 SHL DUP2 LT ISZERO PUSH2 0x618 JUMPI PUSH2 0x504 DUP2 PUSH1 0x20 SWAP6 PUSH1 0x1 PUSH2 0x1378 SWAP5 ADD DUP2 SSTORE PUSH2 0x190B JUMP JUMPDEST PUSH1 0x40 MLOAD PUSH1 0x0 DUP2 MSTORE CALLER DUP5 DUP3 ADD MSTORE TIMESTAMP PUSH1 0x40 DUP3 ADD MSTORE DUP3 PUSH32 0xB116500A92538FA2712F61BEFBB9F1841D4D51B22F4A1340E3FBC0048F419EB2 PUSH1 0x60 PUSH1 0x4 CALLDATALOAD SWAP4 LOG3 PUSH2 0x13C8 PUSH1 0x40 MLOAD SWAP2 PUSH1 0x40 DUP4 MSTORE PUSH1 0x40 DUP4 ADD SWAP1 PUSH2 0x19F4 JUMP JUMPDEST TIMESTAMP DUP5 DUP4 ADD MSTORE PUSH32 0xB142CF0FDDEC887A2983E922A2098B028DFD64C47D8533A84E71DE5711873083 CALLER SWAP3 DUP1 PUSH1 0x4 CALLDATALOAD SWAP4 SUB SWAP1 LOG3 PUSH1 0x40 MLOAD SWAP1 DUP2 MSTORE RETURN JUMPDEST ADD MLOAD SWAP1 POP DUP9 DUP1 PUSH2 0x1329 JUMP JUMPDEST SWAP1 PUSH1 0x1F NOT DUP4 AND SWAP2 PUSH1 0x7 DUP7 ADD PUSH1 0x0 MSTORE PUSH1 0x20 PUSH1 0x0 KECCAK256 SWAP3 PUSH1 0x0 JUMPDEST DUP2 DUP2 LT PUSH2 0x1467 JUMPI POP SWAP3 PUSH1 0x1 SWAP3 DUP6 SWAP3 PUSH2 0x120 SWAP7 PUSH1 0x8 SWAP9 SWAP7 LT PUSH2 0x144E JUMPI JUMPDEST POP POP POP DUP2 SHL ADD PUSH1 0x7 DUP6 ADD SSTORE PUSH2 0x1341 JUMP JUMPDEST ADD MLOAD PUSH1 0x0 NOT PUSH1 0xF8 DUP5 PUSH1 0x3 SHL AND SHR NOT AND SWAP1 SSTORE DUP9 DUP1 DUP1 PUSH2 0x143E JUMP JUMPDEST SWAP3 SWAP4 PUSH1 0x20 PUSH1 0x1 DUP2 SWAP3 DUP8 DUP7 ADD MLOAD DUP2 SSTORE ADD SWAP6 ADD SWAP4 ADD PUSH2 0x1422 JUMP JUMPDEST PUSH1 0x7 DUP6 ADD PUSH1 0x0 MSTORE PUSH1 0x20 PUSH1 0x0 KECCAK256 PUSH1 0x1F DUP5 ADD PUSH1 0x5 SHR DUP2 ADD PUSH1 0x20 DUP6 LT PUSH2 0x14BF JUMPI JUMPDEST PUSH1 0x1F DUP4 ADD PUSH1 0x5 SHR DUP3 ADD DUP2 LT PUSH2 0x14B3 JUMPI POP POP PUSH2 0x1308 JUMP JUMPDEST PUSH1 0x0 DUP2 SSTORE PUSH1 0x1 ADD PUSH2 0x149D JUMP JUMPDEST POP DUP1 PUSH2 0x149D JUMP JUMPDEST ADD MLOAD SWAP1 POP DUP7 DUP1 PUSH2 0x12C3 JUMP JUMPDEST SWAP3 POP PUSH1 0x6 DUP6 ADD PUSH1 0x0 MSTORE PUSH1 0x20 PUSH1 0x0 KECCAK256 SWAP1 PUSH1 0x0 SWAP4 JUMPDEST PUSH1 0x1F NOT DUP5 AND DUP6 LT PUSH2 0x1528 JUMPI PUSH1 0x1 SWAP5 POP DUP4 PUSH1 0x1F NOT DUP2 AND LT PUSH2 0x150F JUMPI JUMPDEST POP POP POP DUP2 SHL ADD PUSH1 0x6 DUP4 ADD SSTORE PUSH2 0x12DB JUMP JUMPDEST ADD MLOAD PUSH1 0x0 NOT PUSH1 0xF8 DUP5 PUSH1 0x3 SHL AND SHR NOT AND SWAP1 SSTORE DUP7 DUP1 DUP1 PUSH2 0x14FF JUMP JUMPDEST DUP2 DUP2 ADD MLOAD DUP4 SSTORE PUSH1 0x20 SWAP5 DUP6 ADD SWAP5 PUSH1 0x1 SWAP1 SWAP4 ADD SWAP3 SWAP1 SWAP2 ADD SWAP1 PUSH2 0x14E4 JUMP JUMPDEST SWAP1 SWAP2 POP PUSH1 0x6 DUP6 ADD PUSH1 0x0 MSTORE PUSH1 0x20 PUSH1 0x0 KECCAK256 PUSH1 0x1F DUP5 ADD PUSH1 0x5 SHR DUP2 ADD PUSH1 0x20 DUP6 LT PUSH2 0x158F JUMPI JUMPDEST SWAP1 DUP5 SWAP4 SWAP3 SWAP2 JUMPDEST PUSH1 0x1F DUP4 ADD PUSH1 0x5 SHR DUP3 ADD DUP2 LT PUSH2 0x1580 JUMPI POP POP PUSH2 0x12AC JUMP JUMPDEST PUSH1 0x0 DUP2 SSTORE DUP6 SWAP5 POP PUSH1 0x1 ADD PUSH2 0x156A JUMP JUMPDEST POP DUP1 PUSH2 0x1564 JUMP JUMPDEST ADD MLOAD SWAP1 POP DUP7 DUP1 PUSH2 0x125C JUMP JUMPDEST SWAP3 POP PUSH1 0x4 DUP6 ADD PUSH1 0x0 MSTORE PUSH1 0x20 PUSH1 0x0 KECCAK256 SWAP1 PUSH1 0x0 SWAP4 JUMPDEST PUSH1 0x1F NOT DUP5 AND DUP6 LT PUSH2 0x15F8 JUMPI PUSH1 0x1 SWAP5 POP DUP4 PUSH1 0x1F NOT DUP2 AND LT PUSH2 0x15DF JUMPI JUMPDEST POP POP POP DUP2 SHL ADD PUSH1 0x4 DUP4 ADD SSTORE PUSH2 0x1274 JUMP JUMPDEST ADD MLOAD PUSH1 0x0 NOT PUSH1 0xF8 DUP5 PUSH1 0x3 SHL AND SHR NOT AND SWAP1 SSTORE DUP7 DUP1 DUP1 PUSH2 0x15CF JUMP JUMPDEST DUP2 DUP2 ADD MLOAD DUP4 SSTORE PUSH1 0x20 SWAP5 DUP6 ADD SWAP5 PUSH1 0x1 SWAP1 SWAP4 ADD SWAP3 SWAP1 SWAP2 ADD SWAP1 PUSH2 0x15B4 JUMP JUMPDEST SWAP1 SWAP2 POP PUSH1 0x4 DUP6 ADD PUSH1 0x0 MSTORE PUSH1 0x20 PUSH1 0x0 KECCAK256 PUSH1 0x1F DUP5 ADD PUSH1 0x5 SHR DUP2 ADD PUSH1 0x20 DUP6 LT PUSH2 0x165F JUMPI JUMPDEST SWAP1 DUP5 SWAP4 SWAP3 SWAP2 JUMPDEST PUSH1 0x1F DUP4 ADD PUSH1 0x5 SHR DUP3 ADD DUP2 LT PUSH2 0x1650 JUMPI POP POP PUSH2 0x1245 JUMP JUMPDEST PUSH1 0x0 DUP2 SSTORE DUP6 SWAP5 POP PUSH1 0x1 ADD PUSH2 0x163A JUMP JUMPDEST POP DUP1 PUSH2 0x1634 JUMP JUMPDEST ADD MLOAD SWAP1 POP DUP7 DUP1 PUSH2 0x11FF JUMP JUMPDEST SWAP3 POP PUSH1 0x3 DUP6 ADD PUSH1 0x0 MSTORE PUSH1 0x20 PUSH1 0x0 KECCAK256 SWAP1 PUSH1 0x0 SWAP4 JUMPDEST PUSH1 0x1F NOT DUP5 AND DUP6 LT PUSH2 0x16C8 JUMPI PUSH1 0x1 SWAP5 POP DUP4 PUSH1 0x1F NOT DUP2 AND LT PUSH2 0x16AF JUMPI JUMPDEST POP POP POP DUP2 SHL ADD PUSH1 0x3 DUP4 ADD SSTORE PUSH2 0x1217 JUMP JUMPDEST ADD MLOAD PUSH1 0x0 NOT PUSH1 0xF8 DUP5 PUSH1 0x3 SHL AND SHR NOT AND SWAP1 SSTORE DUP7 DUP1 DUP1 PUSH2 0x169F JUMP JUMPDEST DUP2 DUP2 ADD MLOAD DUP4 SSTORE PUSH1 0x20 SWAP5 DUP6 ADD SWAP5 PUSH1 0x1 SWAP1 SWAP4 ADD SWAP3 SWAP1 SWAP2 ADD SWAP1 PUSH2 0x1684 JUMP JUMPDEST SWAP1 SWAP2 POP PUSH1 0x3 DUP6 ADD PUSH1 0x0 MSTORE PUSH1 0x20 PUSH1 0x0 KECCAK256 PUSH1 0x1F DUP5 ADD PUSH1 0x5 SHR DUP2 ADD PUSH1 0x20 DUP6 LT PUSH2 0x172F JUMPI JUMPDEST SWAP1 DUP5 SWAP4 SWAP3 SWAP2 JUMPDEST PUSH1 0x1F DUP4 ADD PUSH1 0x5 SHR DUP3 ADD DUP2 LT PUSH2 0x1720 JUMPI POP POP PUSH2 0x11E8 JUMP JUMPDEST PUSH1 0x0 DUP2 SSTORE DUP6 SWAP5 POP PUSH1 0x1 ADD PUSH2 0x170A JUMP JUMPDEST POP DUP1 PUSH2 0x1704 JUMP JUMPDEST PUSH1 0x40 MLOAD PUSH3 0x461BCD PUSH1 0xE5 SHL DUP2 MSTORE PUSH1 0x20 PUSH1 0x4 DUP3 ADD MSTORE PUSH1 0x16 PUSH1 0x24 DUP3 ADD MSTORE PUSH22 0x4A6F75726E657920616C726561647920657869737473 PUSH1 0x50 SHL PUSH1 0x44 DUP3 ADD MSTORE PUSH1 0x64 SWAP1 REVERT JUMPDEST CALLVALUE PUSH2 0x170 JUMPI PUSH1 0x0 CALLDATASIZE PUSH1 0x3 NOT ADD SLT PUSH2 0x170 JUMPI PUSH1 0x4 SLOAD PUSH1 0x0 NOT DUP2 ADD SWAP1 DUP2 GT PUSH2 0x602 JUMPI PUSH1 0x20 SWAP1 PUSH1 0x40 MLOAD SWAP1 DUP2 MSTORE RETURN JUMPDEST CALLVALUE PUSH2 0x170 JUMPI PUSH1 0x0 CALLDATASIZE PUSH1 0x3 NOT ADD SLT PUSH2 0x170 JUMPI PUSH1 0x20 PUSH1 0x4 SLOAD PUSH1 0x40 MLOAD SWAP1 DUP2 MSTORE RETURN JUMPDEST CALLVALUE PUSH2 0x170 JUMPI PUSH1 0x20 CALLDATASIZE PUSH1 0x3 NOT ADD SLT PUSH2 0x170 JUMPI PUSH1 0x4 CALLDATALOAD PUSH1 0x0 MSTORE PUSH1 0x1 PUSH1 0x20 MSTORE PUSH1 0x40 PUSH1 0x0 KECCAK256 PUSH1 0x4 PUSH1 0x3 DUP3 ADD SLOAD SWAP2 ADD SLOAD SWAP1 PUSH2 0xB2A PUSH2 0x17F6 DUP3 DUP5 PUSH2 0x1B70 JUMP JUMPDEST PUSH1 0x40 MLOAD SWAP4 DUP5 SWAP4 DUP5 PUSH1 0x40 SWAP2 SWAP5 SWAP4 SWAP3 PUSH1 0x60 DUP3 ADD SWAP6 DUP3 MSTORE PUSH1 0x20 DUP3 ADD MSTORE ADD MSTORE JUMP JUMPDEST CALLVALUE PUSH2 0x170 JUMPI PUSH1 0x20 CALLDATASIZE PUSH1 0x3 NOT ADD SLT PUSH2 0x170 JUMPI PUSH1 0x4 CALLDATALOAD PUSH1 0x0 MSTORE PUSH1 0x1 PUSH1 0x20 MSTORE PUSH1 0x80 PUSH1 0x40 PUSH1 0x0 KECCAK256 PUSH1 0x3 DUP2 ADD SLOAD SWAP1 PUSH2 0x1884 PUSH1 0x1 DUP3 ADD SLOAD SWAP2 PUSH1 0xFF PUSH1 0x2 DUP3 ADD SLOAD AND SWAP1 DUP5 PUSH1 0xFF PUSH1 0x5 DUP4 ADD SLOAD AND PUSH1 0x0 EQ PUSH2 0x188B JUMPI PUSH1 0x4 PUSH2 0x186B SWAP3 ADD SLOAD PUSH2 0x1B70 JUMP JUMPDEST SWAP3 JUMPDEST PUSH1 0x40 MLOAD SWAP5 ISZERO ISZERO DUP6 MSTORE PUSH1 0x20 DUP6 ADD MSTORE PUSH1 0x40 DUP5 ADD SWAP1 PUSH2 0x1939 JUMP JUMPDEST PUSH1 0x60 DUP3 ADD MSTORE RETURN JUMPDEST PUSH2 0x1896 SWAP2 POP TIMESTAMP PUSH2 0x1B70 JUMP JUMPDEST SWAP3 PUSH2 0x186D JUMP JUMPDEST CALLVALUE PUSH2 0x170 JUMPI PUSH1 0x40 CALLDATASIZE PUSH1 0x3 NOT ADD SLT PUSH2 0x170 JUMPI PUSH2 0x18B5 PUSH2 0x18F5 JUMP JUMPDEST PUSH1 0x1 PUSH1 0x1 PUSH1 0xA0 SHL SUB AND PUSH1 0x0 SWAP1 DUP2 MSTORE PUSH1 0x3 PUSH1 0x20 MSTORE PUSH1 0x40 SWAP1 KECCAK256 DUP1 SLOAD PUSH1 0x24 CALLDATALOAD SWAP2 SWAP1 DUP3 LT ISZERO PUSH2 0x170 JUMPI PUSH1 0x20 SWAP2 PUSH2 0x18E6 SWAP2 PUSH2 0x190B JUMP JUMPDEST SWAP1 SLOAD SWAP1 PUSH1 0x3 SHL SHR PUSH1 0x40 MLOAD SWAP1 DUP2 MSTORE RETURN JUMPDEST PUSH1 0x4 CALLDATALOAD SWAP1 PUSH1 0x1 PUSH1 0x1 PUSH1 0xA0 SHL SUB DUP3 AND DUP3 SUB PUSH2 0x170 JUMPI JUMP JUMPDEST DUP1 SLOAD DUP3 LT ISZERO PUSH2 0x1923 JUMPI PUSH1 0x0 MSTORE PUSH1 0x20 PUSH1 0x0 KECCAK256 ADD SWAP1 PUSH1 0x0 SWAP1 JUMP JUMPDEST PUSH4 0x4E487B71 PUSH1 0xE0 SHL PUSH1 0x0 MSTORE PUSH1 0x32 PUSH1 0x4 MSTORE PUSH1 0x24 PUSH1 0x0 REVERT JUMPDEST SWAP1 PUSH1 0x7 DUP3 LT ISZERO PUSH2 0x5EC JUMPI MSTORE JUMP JUMPDEST PUSH1 0xE0 DUP2 ADD SWAP1 DUP2 LT PUSH1 0x1 PUSH1 0x1 PUSH1 0x40 SHL SUB DUP3 GT OR PUSH2 0x618 JUMPI PUSH1 0x40 MSTORE JUMP JUMPDEST PUSH2 0x140 DUP2 ADD SWAP1 DUP2 LT PUSH1 0x1 PUSH1 0x1 PUSH1 0x40 SHL SUB DUP3 GT OR PUSH2 0x618 JUMPI PUSH1 0x40 MSTORE JUMP JUMPDEST SWAP1 PUSH1 0x1F DUP1 NOT SWAP2 ADD AND DUP2 ADD SWAP1 DUP2 LT PUSH1 0x1 PUSH1 0x1 PUSH1 0x40 SHL SUB DUP3 GT OR PUSH2 0x618 JUMPI PUSH1 0x40 MSTORE JUMP JUMPDEST DUP2 PUSH1 0x1F DUP3 ADD SLT ISZERO PUSH2 0x170 JUMPI DUP1 CALLDATALOAD SWAP1 PUSH1 0x1 PUSH1 0x1 PUSH1 0x40 SHL SUB DUP3 GT PUSH2 0x618 JUMPI PUSH1 0x40 MLOAD SWAP3 PUSH2 0x19D2 PUSH1 0x1F DUP5 ADD PUSH1 0x1F NOT AND PUSH1 0x20 ADD DUP6 PUSH2 0x197D JUMP JUMPDEST DUP3 DUP5 MSTORE PUSH1 0x20 DUP4 DUP4 ADD ADD GT PUSH2 0x170 JUMPI DUP2 PUSH1 0x0 SWAP3 PUSH1 0x20 DUP1 SWAP4 ADD DUP4 DUP7 ADD CALLDATACOPY DUP4 ADD ADD MSTORE SWAP1 JUMP JUMPDEST SWAP2 SWAP1 DUP3 MLOAD SWAP3 DUP4 DUP3 MSTORE PUSH1 0x0 JUMPDEST DUP5 DUP2 LT PUSH2 0x1A20 JUMPI POP POP DUP3 PUSH1 0x0 PUSH1 0x20 DUP1 SWAP5 SWAP6 DUP5 ADD ADD MSTORE PUSH1 0x1F DUP1 NOT SWAP2 ADD AND ADD ADD SWAP1 JUMP JUMPDEST PUSH1 0x20 DUP2 DUP4 ADD DUP2 ADD MLOAD DUP5 DUP4 ADD DUP3 ADD MSTORE ADD PUSH2 0x19FF JUMP JUMPDEST SWAP1 PUSH2 0x1ACE PUSH2 0x1ABA PUSH2 0x1A9E PUSH2 0x1A8C PUSH2 0x140 DUP7 MLOAD DUP7 MSTORE PUSH1 0x20 DUP8 ADD MLOAD PUSH1 0x20 DUP8 ADD MSTORE PUSH2 0x1A64 PUSH1 0x40 DUP9 ADD MLOAD PUSH1 0x40 DUP9 ADD SWAP1 PUSH2 0x1939 JUMP JUMPDEST PUSH1 0x60 DUP8 DUP2 ADD MLOAD PUSH1 0x1 PUSH1 0x1 PUSH1 0xA0 SHL SUB AND SWAP1 DUP8 ADD MSTORE PUSH1 0x80 DUP1 DUP9 ADD MLOAD SWAP1 DUP8 ADD DUP3 SWAP1 MSTORE SWAP1 DUP7 ADD SWAP1 PUSH2 0x19F4 JUMP JUMPDEST PUSH1 0xA0 DUP7 ADD MLOAD DUP6 DUP3 SUB PUSH1 0xA0 DUP8 ADD MSTORE PUSH2 0x19F4 JUMP JUMPDEST PUSH1 0xC0 DUP6 ADD MLOAD PUSH1 0xC0 DUP6 ADD MSTORE PUSH1 0xE0 DUP6 ADD MLOAD DUP5 DUP3 SUB PUSH1 0xE0 DUP7 ADD MSTORE PUSH2 0x19F4 JUMP JUMPDEST PUSH2 0x100 DUP1 DUP6 ADD MLOAD SWAP1 DUP5 DUP4 SUB SWAP1 DUP6 ADD MSTORE PUSH2 0x19F4 JUMP JUMPDEST SWAP2 PUSH2 0x120 DUP1 SWAP2 ADD MLOAD SWAP2 ADD MSTORE SWAP1 JUMP JUMPDEST SWAP1 DUP1 DUP3 MLOAD SWAP1 DUP2 DUP2 MSTORE PUSH1 0x20 DUP1 SWAP2 ADD SWAP3 PUSH1 0x20 DUP1 DUP5 PUSH1 0x5 SHL DUP4 ADD ADD SWAP6 ADD SWAP4 PUSH1 0x0 SWAP2 JUMPDEST DUP5 DUP4 LT PUSH2 0x1B0B JUMPI POP POP POP POP POP POP SWAP1 JUMP JUMPDEST SWAP1 SWAP2 SWAP3 SWAP4 SWAP5 SWAP6 DUP5 DUP1 PUSH2 0x1B29 PUSH1 0x1 SWAP4 PUSH1 0x1F NOT DUP7 DUP3 SUB ADD DUP8 MSTORE DUP11 MLOAD PUSH2 0x1A34 JUMP JUMPDEST SWAP9 ADD SWAP4 ADD SWAP4 ADD SWAP2 SWAP5 SWAP4 SWAP3 SWAP1 PUSH2 0x1AFB JUMP JUMPDEST PUSH1 0x40 SWAP1 PUSH1 0x3 NOT ADD SLT PUSH2 0x170 JUMPI PUSH1 0x4 CALLDATALOAD SWAP1 PUSH1 0x24 CALLDATALOAD PUSH1 0x7 DUP2 LT ISZERO PUSH2 0x170 JUMPI SWAP1 JUMP JUMPDEST SWAP1 PUSH1 0x7 DUP2 LT ISZERO PUSH2 0x5EC JUMPI PUSH1 0x0 MSTORE PUSH1 0x20 MSTORE PUSH1 0x40 PUSH1 0x0 KECCAK256 SWAP1 JUMP JUMPDEST SWAP2 SWAP1 DUP3 SUB SWAP2 DUP3 GT PUSH2 0x602 JUMPI JUMP JUMPDEST SWAP1 PUSH1 0x7 DUP2 LT ISZERO PUSH2 0x5EC JUMPI PUSH1 0xFF DUP1 NOT DUP4 SLOAD AND SWAP2 AND OR SWAP1 SSTORE JUMP JUMPDEST PUSH1 0x7 DUP3 LT ISZERO PUSH2 0x5EC JUMPI MSTORE JUMP JUMPDEST SWAP1 PUSH1 0x1 DUP3 DUP2 SHR SWAP3 AND DUP1 ISZERO PUSH2 0x1BD1 JUMPI JUMPDEST PUSH1 0x20 DUP4 LT EQ PUSH2 0x1BBB JUMPI JUMP JUMPDEST PUSH4 0x4E487B71 PUSH1 0xE0 SHL PUSH1 0x0 MSTORE PUSH1 0x22 PUSH1 0x4 MSTORE PUSH1 0x24 PUSH1 0x0 REVERT JUMPDEST SWAP2 PUSH1 0x7F AND SWAP2 PUSH2 0x1BB0 JUMP JUMPDEST SWAP1 PUSH1 0x40 MLOAD SWAP2 DUP3 PUSH1 0x0 DUP3 SLOAD PUSH2 0x1BEE DUP2 PUSH2 0x1BA1 JUMP JUMPDEST SWAP1 DUP2 DUP5 MSTORE PUSH1 0x20 SWAP5 PUSH1 0x1 SWAP2 PUSH1 0x1 DUP2 AND SWAP1 DUP2 PUSH1 0x0 EQ PUSH2 0x1C5E JUMPI POP PUSH1 0x1 EQ PUSH2 0x1C1F JUMPI JUMPDEST POP POP POP PUSH2 0x1C1D SWAP3 POP SUB DUP4 PUSH2 0x197D JUMP JUMPDEST JUMP JUMPDEST PUSH1 0x0 SWAP1 DUP2 MSTORE DUP6 DUP2 KECCAK256 SWAP6 SWAP4 POP SWAP2 SWAP1 JUMPDEST DUP2 DUP4 LT PUSH2 0x1C46 JUMPI POP POP PUSH2 0x1C1D SWAP4 POP DUP3 ADD ADD CODESIZE DUP1 DUP1 PUSH2 0x1C0E JUMP JUMPDEST DUP6 SLOAD DUP9 DUP5 ADD DUP6 ADD MSTORE SWAP5 DUP6 ADD SWAP5 DUP8 SWAP5 POP SWAP2 DUP4 ADD SWAP2 PUSH2 0x1C2D JUMP JUMPDEST SWAP3 POP POP POP PUSH2 0x1C1D SWAP5 SWAP3 POP PUSH1 0xFF NOT AND DUP3 DUP5 ADD MSTORE ISZERO ISZERO PUSH1 0x5 SHL DUP3 ADD ADD CODESIZE DUP1 DUP1 PUSH2 0x1C0E JUMP JUMPDEST SWAP1 PUSH1 0x40 MLOAD PUSH2 0x1C8D DUP2 PUSH2 0x1961 JUMP JUMPDEST PUSH2 0x120 PUSH1 0x8 DUP3 SWAP5 DUP1 SLOAD DUP5 MSTORE PUSH1 0x1 DUP2 ADD SLOAD PUSH1 0x20 DUP6 ADD MSTORE PUSH1 0x2 DUP2 ADD SLOAD PUSH2 0x1CB7 PUSH1 0xFF DUP3 AND PUSH1 0x40 DUP8 ADD PUSH2 0x1B95 JUMP JUMPDEST DUP3 SHR PUSH1 0x1 PUSH1 0x1 PUSH1 0xA0 SHL SUB AND PUSH1 0x60 DUP6 ADD MSTORE PUSH2 0x1CD3 PUSH1 0x3 DUP3 ADD PUSH2 0x1BDB JUMP JUMPDEST PUSH1 0x80 DUP6 ADD MSTORE PUSH2 0x1CE4 PUSH1 0x4 DUP3 ADD PUSH2 0x1BDB JUMP JUMPDEST PUSH1 0xA0 DUP6 ADD MSTORE PUSH1 0x5 DUP2 ADD SLOAD PUSH1 0xC0 DUP6 ADD MSTORE PUSH2 0x1CFF PUSH1 0x6 DUP3 ADD PUSH2 0x1BDB JUMP JUMPDEST PUSH1 0xE0 DUP6 ADD MSTORE PUSH2 0x1D10 PUSH1 0x7 DUP3 ADD PUSH2 0x1BDB JUMP JUMPDEST PUSH2 0x100 DUP6 ADD MSTORE ADD SLOAD SWAP2 ADD MSTORE JUMP JUMPDEST SWAP1 DUP2 SLOAD PUSH1 0x1 PUSH1 0x1 PUSH1 0x40 SHL SUB DUP2 GT PUSH2 0x618 JUMPI PUSH1 0x20 SWAP3 PUSH1 0x40 MLOAD SWAP4 PUSH2 0x1D45 PUSH1 0x20 DUP5 PUSH1 0x5 SHL ADD DUP7 PUSH2 0x197D JUMP JUMPDEST DUP3 DUP6 MSTORE PUSH1 0x20 DUP6 ADD SWAP2 PUSH1 0x0 MSTORE PUSH1 0x20 PUSH1 0x0 KECCAK256 PUSH1 0x0 SWAP3 JUMPDEST DUP5 DUP5 LT PUSH2 0x1D67 JUMPI POP POP POP POP POP JUMP JUMPDEST PUSH1 0x9 DUP4 PUSH1 0x1 SWAP3 PUSH2 0x1D76 DUP6 PUSH2 0x1C80 JUMP JUMPDEST DUP2 MSTORE ADD SWAP3 ADD SWAP4 ADD SWAP3 SWAP1 PUSH2 0x1D59 JUMP JUMPDEST ISZERO PUSH2 0x1D8B JUMPI JUMP JUMPDEST PUSH1 0x40 MLOAD PUSH3 0x461BCD PUSH1 0xE5 SHL DUP2 MSTORE PUSH1 0x20 PUSH1 0x4 DUP3 ADD MSTORE PUSH1 0x13 PUSH1 0x24 DUP3 ADD MSTORE PUSH19 0x129BDD5C9B995E481B9BDD081CDD185C9D1959 PUSH1 0x6A SHL PUSH1 0x44 DUP3 ADD MSTORE PUSH1 0x64 SWAP1 REVERT JUMPDEST DUP1 SLOAD DUP3 LT ISZERO PUSH2 0x1923 JUMPI PUSH1 0x0 MSTORE PUSH1 0x9 PUSH1 0x20 PUSH1 0x0 KECCAK256 SWAP2 MUL ADD SWAP1 PUSH1 0x0 SWAP1 JUMP JUMPDEST SWAP2 SWAP1 DUP3 ADD DUP1 SWAP3 GT PUSH2 0x602 JUMPI JUMP JUMPDEST PUSH1 0x0 SLOAD PUSH1 0x1 PUSH1 0x1 PUSH1 0xA0 SHL SUB AND CALLER SUB PUSH2 0x1E03 JUMPI JUMP JUMPDEST PUSH1 0x40 MLOAD PUSH4 0x118CDAA7 PUSH1 0xE0 SHL DUP2 MSTORE CALLER PUSH1 0x4 DUP3 ADD MSTORE PUSH1 0x24 SWAP1 REVERT INVALID LOG2 PUSH5 0x6970667358 0x22 SLT KECCAK256 0xC7 0x26 TIMESTAMP 0xB7 0xD4 PUSH4 0x4E948A4 STATICCALL DUP4 0xFC 0x22 0xF8 MSIZE SDIV 0x2F PUSH25 0xF0D7E40C2C9273F900B507265964736F6C6343000818003300 "},"methodIdentifiers":{"addCheckpoint(uint256,uint8,string,string,string,string,bytes32)":"f0995ace","completeJourney(uint256)":"69abfa5d","custodianBatches(address,uint256)":"0130cf16","getAllCheckpoints(uint256)":"35ff0969","getCheckpoint(uint256,uint256)":"c097227d","getCheckpointCount()":"24b4123f","getCustodianBatches(address)":"b545a566","getJourney(uint256)":"b5443038","getJourneyTime(uint256)":"0df1c22d","getStageDuration(uint256,uint8)":"644438eb","journeys(uint256)":"8df5a9fa","nextCheckpointId()":"229ec452","owner()":"8da5cb5b","renounceOwnership()":"715018a6","stageDurations(uint256,uint8)":"625f8509","startJourney(uint256,string,string,string)":"2a259033","transferOwnership(address)":"f2fde38b","verifyJourney(uint256)":"0c369f17"}}}}}