{"contracts/HerbCollection.sol":{"HerbCollection":{"abi":[{"inputs":[],"stateMutability":"nonpayable","type":"constructor"},{"anonymous":false,"inputs":[{"indexed":true,"internalType":"uint256","name":"collectionId","type":"uint256"},{"indexed":true,"internalType":"address","name":"collector","type":"address"},{"indexed":false,"internalType":"string","name":"herbName","type":"string"},{"indexed":false,"internalType":"string","name":"batchId","type":"string"},{"indexed":false,"internalType":"uint256","name":"timestamp","type":"uint256"}],"name":"CollectionSubmitted","type":"event"},{"anonymous":false,"inputs":[{"indexed":true,"internalType":"uint256","name":"collectionId","type":"uint256"},{"indexed":true,"internalType":"address","name":"verifier","type":"address"}],"name":"CollectionVerified","type":"event"},{"inputs":[{"internalType":"uint256","name":"","type":"uint256"}],"name":"collections","outputs":[{"internalType":"uint256","name":"id","type":"uint256"},{"internalType":"string","name":"herbName","type":"string"},{"internalType":"string","name":"quantity","type":"string"},{"internalType":"string","name":"batchId","type":"string"},{"internalType":"address","name":"collector","type":"address"},{"internalType":"string","name":"location","type":"string"},{"internalType":"string","name":"notes","type":"string"},{"internalType":"uint256","name":"timestamp","type":"uint256"},{"internalType":"bool","name":"isVerified","type":"bool"}],"stateMutability":"view","type":"function"},{"inputs":[{"internalType":"address","name":"","type":"address"},{"internalType":"uint256","name":"","type":"uint256"}],"name":"collectorCollections","outputs":[{"internalType":"uint256","name":"","type":"uint256"}],"stateMutability":"view","type":"function"},{"inputs":[],"name":"getAllCollections","outputs":[{"components":[{"internalType":"uint256","name":"id","type":"uint256"},{"internalType":"string","name":"herbName","type":"string"},{"internalType":"string","name":"quantity","type":"string"},{"internalType":"string","name":"batchId","type":"string"},{"internalType":"address","name":"collector","type":"address"},{"internalType":"string","name":"location","type":"string"},{"internalType":"string","name":"notes","type":"string"},{"internalType":"uint256","name":"timestamp","type":"uint256"},{"internalType":"bool","name":"isVerified","type":"bool"}],"internalType":"struct HerbCollection.Collection[]","name":"","type":"tuple[]"}],"stateMutability":"view","type":"function"},{"inputs":[{"internalType":"uint256","name":"_collectionId","type":"uint256"}],"name":"getCollection","outputs":[{"components":[{"internalType":"uint256","name":"id","type":"uint256"},{"internalType":"string","name":"herbName","type":"string"},{"internalType":"string","name":"quantity","type":"string"},{"internalType":"string","name":"batchId","type":"string"},{"internalType":"address","name":"collector","type":"address"},{"internalType":"string","name":"location","type":"string"},{"internalType":"string","name":"notes","type":"string"},{"internalType":"uint256","name":"timestamp","type":"uint256"},{"internalType":"bool","name":"isVerified","type":"bool"}],"internalType":"struct HerbCollection.Collection","name":"","type":"tuple"}],"stateMutability":"view","type":"function"},{"inputs":[{"internalType":"address","name":"_collector","type":"address"}],"name":"getCollectorCollections","outputs":[{"internalType":"uint256[]","name":"","type":"uint256[]"}],"stateMutability":"view","type":"function"},{"inputs":[],"name":"getTotalCollections","outputs":[{"internalType":"uint256","name":"","type":"uint256"}],"stateMutability":"view","type":"function"},{"inputs":[],"name":"nextCollectionId","outputs":[{"internalType":"uint256","name":"","type":"uint256"}],"stateMutability":"view","type":"function"},{"inputs":[],"name":"owner","outputs":[{"internalType":"address","name":"","type":"address"}],"stateMutability":"view","type":"function"},{"inputs":[{"internalType":"string","name":"_herbName","type":"string"},{"internalType":"string","name":"_quantity","type":"string"},{"internalType":"string","name":"_batchId","type":"string"},{"internalType":"string","name":"_location","type":"string"},{"internalType":"string","name":"_notes","type":"string"}],"name":"submitCollection","outputs":[{"internalType":"uint256","name":"","type":"uint256"}],"stateMutability":"nonpayable","type":"function"},{"inputs":[{"internalType":"address","name":"_newOwner","type":"address"}],"name":"updateOwner","outputs":[],"stateMutability":"nonpayable","type":"function"},{"inputs":[{"internalType":"uint256","name":"_collectionId","type":"uint256"}],"name":"verifyCollection","outputs":[],"stateMutability":"nonpayable","type":"function"}],"evm":{"bytecode":{"linkReferences":{},"object":"6080806040523461002d57600380546001600160a01b03191633179055600160025561139c90816100338239f35b600080fdfe6080604052600436101561001257600080fd5b60003560e01c806318d3762014610e515780633a3a91e6146105315780634260694d146104d95780635a1f3c281461047f5780636804a95814610356578063880cdc31146102c75780638da5cb5b1461029e578063939bf6dd1461025d578063e77d6f7c1461023f578063fd4c98d2146101905763fdbda0ec1461009557600080fd5b3461018b57602036600319011261018b576004356000526000602052604060002080546100c46001830161111a565b916100d16002820161111a565b6101796100e06003840161111a565b600484015461016b906001600160a01b03166100fe6005870161111a565b61015861010d6006890161111a565b9461014a60ff600860078c01549b0154169861013c6040519d8e9d8e6101209181528160208201520190611001565b8c810360408e015290611001565b908a820360608c0152611001565b91608089015287820360a0890152611001565b9085820360c0870152611001565b9160e084015215156101008301520390f35b600080fd5b3461018b5760208060031936011261018b576001600160a01b036101b2610fbd565b166000526001906001815260406000209160405191828185549182815201908195600052826000209060005b81811061022c57505050836101f4910384610f46565b60405192818401908285525180915260408401949160005b8281106102195785870386f35b835187529581019592810192840161020c565b82548452928401929185019185016101de565b3461018b57600036600319011261018b576020600254604051908152f35b3461018b57600036600319011261018b57600254600019810190811161028857602090604051908152f35b634e487b7160e01b600052601160045260246000fd5b3461018b57600036600319011261018b576003546040516001600160a01b039091168152602090f35b3461018b57602036600319011261018b576102e0610fbd565b600354906001600160a01b03906102fa33838516146111bf565b16908115610312576001600160a01b03191617600355005b606460405162461bcd60e51b815260206004820152602060248201527f4e6577206f776e65722063616e6e6f74206265207a65726f20616464726573736044820152fd5b3461018b57600036600319011261018b5760025460001990818101818111610288579161039b6103858461133b565b936103936040519586610f46565b80855261133b565b60209290601f190160005b81811061046357505060019160015b82811061041e5750505060405191808301818452845180915260408401918060408360051b8701019601926000905b8382106103f15786880387f35b9091929394838061040d839a603f198b82030186528951611041565b9997019594939190910191016103e4565b806000969496526000855260406000209082810191818311610288578792610448610459926112a5565b6104528289611352565b5286611352565b50019492946103b5565b8490610470969496611261565b828287010152019492946103a6565b3461018b57602036600319011261018b5760043561049b611261565b506104a96002548210611215565b60005260006020526104d56104c160406000206112a5565b604051918291602083526020830190611041565b0390f35b3461018b57604036600319011261018b576104f2610fbd565b6001600160a01b031660009081526001602052604090208054602435919082101561018b5760209161052391610fd3565b90546040519160031b1c8152f35b3461018b5760a036600319011261018b576004356001600160401b03811161018b57610561903690600401610f67565b6024356001600160401b03811161018b57610580903690600401610f67565b6044356001600160401b03811161018b5761059f903690600401610f67565b916064356001600160401b03811161018b576105bf903690600401610f67565b6084356001600160401b03811161018b576105de903690600401610f67565b92825115610e0c57805115610dc757845115610d8257815115610d3d57600254936040519261060c84610f2a565b8584526020840192858452604085015286606085015233608085015260a084015260c08301524260e0830152600061010083015283600052600060205260406000209082518255518051906001600160401b03821161092157819061067460018501546110e0565b601f8111610cea575b50602090601f8311600114610c7857600092610c6d575b50508160011b916000199060031b1c19161760018201555b60408201518051906001600160401b0382116109215781906106d160028501546110e0565b601f8111610c1a575b50602090601f8311600114610ba857600092610b9d575b50508160011b916000199060031b1c19161760028201555b60608201518051906001600160401b03821161092157819061072e60038501546110e0565b601f8111610b4a575b50602090601f8311600114610ad857600092610acd575b50508160011b916000199060031b1c19161760038201555b6004810160018060a01b036080840151166bffffffffffffffffffffffff60a01b82541617905560a08201518051906001600160401b0382116109215781906107b260058501546110e0565b601f8111610a7a575b50602090601f8311600114610a08576000926109fd575b50508160011b916000199060031b1c19161760058201555b60c08201518051906001600160401b0382116109215761080d60068401546110e0565b601f81116109b6575b50602090601f83116001146109425791806101009492600894600092610937575b50508160011b916000199060031b1c19161760068201555b60e0840151600782015501910151151560ff8019835416911617905533600052600160205260406000208054680100000000000000008110156109215761089b91600182018155610fd3565b9080549160031b600019928386831b921b1916179055600254908114610288577f672cdfb2f58eccbac4e1cdd48e74d1e852261c2de4e81d09969d4cac2922878c61090c60209560018694016002556108ff60405195606087526060870190611001565b9085820388870152611001565b924260408201528033940390a3604051908152f35b634e487b7160e01b600052604160045260246000fd5b015190508980610837565b90601f198316916006850160005260206000209260005b81811061099e5750926001928592600896610100989610610985575b505050811b01600682015561084f565b015160001960f88460031b161c19169055898080610975565b92936020600181928786015181550195019301610959565b600684016000526020600020601f840160051c8101602085106109f6575b601f830160051c820181106109ea575050610816565b600081556001016109d4565b50806109d4565b0151905087806107d2565b9250600584016000526020600020906000935b601f1984168510610a5f576001945083601f19811610610a46575b505050811b0160058201556107ea565b015160001960f88460031b161c19169055878080610a36565b81810151835560209485019460019093019290910190610a1b565b909150600584016000526020600020601f840160051c810160208510610ac6575b90849392915b601f830160051c82018110610ab75750506107bb565b60008155859450600101610aa1565b5080610a9b565b01519050878061074e565b9250600384016000526020600020906000935b601f1984168510610b2f576001945083601f19811610610b16575b505050811b016003820155610766565b015160001960f88460031b161c19169055878080610b06565b81810151835560209485019460019093019290910190610aeb565b909150600384016000526020600020601f840160051c810160208510610b96575b90849392915b601f830160051c82018110610b87575050610737565b60008155859450600101610b71565b5080610b6b565b0151905087806106f1565b9250600284016000526020600020906000935b601f1984168510610bff576001945083601f19811610610be6575b505050811b016002820155610709565b015160001960f88460031b161c19169055878080610bd6565b81810151835560209485019460019093019290910190610bbb565b909150600284016000526020600020601f840160051c810160208510610c66575b90849392915b601f830160051c82018110610c575750506106da565b60008155859450600101610c41565b5080610c3b565b015190508780610694565b9250600184016000526020600020906000935b601f1984168510610ccf576001945083601f19811610610cb6575b505050811b0160018201556106ac565b015160001960f88460031b161c19169055878080610ca6565b81810151835560209485019460019093019290910190610c8b565b909150600184016000526020600020601f840160051c810160208510610d36575b90849392915b601f830160051c82018110610d2757505061067d565b60008155859450600101610d11565b5080610d0b565b60405162461bcd60e51b815260206004820152601860248201527f4c6f636174696f6e2063616e6e6f7420626520656d70747900000000000000006044820152606490fd5b60405162461bcd60e51b815260206004820152601860248201527f42617463682049442063616e6e6f7420626520656d70747900000000000000006044820152606490fd5b60405162461bcd60e51b815260206004820152601860248201527f5175616e746974792063616e6e6f7420626520656d70747900000000000000006044820152606490fd5b60405162461bcd60e51b815260206004820152601960248201527f48657262206e616d652063616e6e6f7420626520656d707479000000000000006044820152606490fd5b3461018b57602036600319011261018b57600435610e7a60018060a01b036003541633146111bf565b610e876002548210611215565b80600052600060205260ff60086040600020015416610ee5578060005260006020526008604060002001600160ff1982541617905533907f120776d41c0cebb294ba5407be2f5a773caa704e0f02559020f5a8de4e3499c3600080a3005b60405162461bcd60e51b815260206004820152601b60248201527f436f6c6c656374696f6e20616c726561647920766572696669656400000000006044820152606490fd5b61012081019081106001600160401b0382111761092157604052565b90601f801991011681019081106001600160401b0382111761092157604052565b81601f8201121561018b578035906001600160401b0382116109215760405192610f9b601f8401601f191660200185610f46565b8284526020838301011161018b57816000926020809301838601378301015290565b600435906001600160a01b038216820361018b57565b8054821015610feb5760005260206000200190600090565b634e487b7160e01b600052603260045260246000fd5b919082519283825260005b84811061102d575050826000602080949584010152601f8019910116010190565b60208183018101518483018201520161100c565b906110c66110b461109061107e61106c61012087518752602088015190806020890152870190611001565b60408701518682036040880152611001565b60608601518582036060870152611001565b60018060a01b03608086015116608085015260a085015184820360a0860152611001565b60c084015183820360c0850152611001565b9160e081015160e083015261010080910151151591015290565b90600182811c92168015611110575b60208310146110fa57565b634e487b7160e01b600052602260045260246000fd5b91607f16916110ef565b9060405191826000825461112d816110e0565b9081845260209460019160018116908160001461119d575060011461115e575b50505061115c92500383610f46565b565b600090815285812095935091905b81831061118557505061115c935082010138808061114d565b8554888401850152948501948794509183019161116c565b9250505061115c94925060ff191682840152151560051b82010138808061114d565b156111c657565b60405162461bcd60e51b815260206004820152602160248201527f4f6e6c79206f776e65722063616e2063616c6c20746869732066756e6374696f6044820152603760f91b6064820152608490fd5b1561121c57565b60405162461bcd60e51b815260206004820152601960248201527f436f6c6c656374696f6e20646f6573206e6f74206578697374000000000000006044820152606490fd5b6040519061126e82610f2a565b600061010083828152606080602083015280604083015280808301528360808301528060a083015260c08201528260e08201520152565b906040516112b281610f2a565b61010060ff60088395805485526112cb6001820161111a565b60208601526112dc6002820161111a565b60408601526112ed6003820161111a565b606086015260048101546001600160a01b031660808601526113116005820161111a565b60a08601526113226006820161111a565b60c0860152600781015460e08601520154161515910152565b6001600160401b0381116109215760051b60200190565b8051821015610feb5760209160051b01019056fea2646970667358221220b85417c84d88141097e76879cc10ecd795299dba121e5c1f9ebca523c577dea464736f6c63430008180033","opcodes":"PUSH1 0x80 DUP1 PUSH1 0x40 MSTORE CALLVALUE PUSH2 0x2D JUMPI PUSH1 0x3 DUP1 SLOAD PUSH1 0x1 PUSH1 0x1 PUSH1 0xA0 SHL SUB NOT AND CALLER OR SWAP1 SSTORE PUSH1 0x1 PUSH1 0x2 SSTORE PUSH2 0x139C SWAP1 DUP2 PUSH2 0x33 DUP3 CODECOPY RETURN JUMPDEST PUSH1 0x0 DUP1 REVERT INVALID PUSH1 0x80 PUSH1 0x40 MSTORE PUSH1 0x4 CALLDATASIZE LT ISZERO PUSH2 0x12 JUMPI PUSH1 0x0 DUP1 REVERT JUMPDEST PUSH1 0x0 CALLDATALOAD PUSH1 0xE0 SHR DUP1 PUSH4 0x18D37620 EQ PUSH2 0xE51 JUMPI DUP1 PUSH4 0x3A3A91E6 EQ PUSH2 0x531 JUMPI DUP1 PUSH4 0x4260694D EQ PUSH2 0x4D9 JUMPI DUP1 PUSH4 0x5A1F3C28 EQ PUSH2 0x47F JUMPI DUP1 PUSH4 0x6804A958 EQ PUSH2 0x356 JUMPI DUP1 PUSH4 0x880CDC31 EQ PUSH2 0x2C7 JUMPI DUP1 PUSH4 0x8DA5CB5B EQ PUSH2 0x29E JUMPI DUP1 PUSH4 0x939BF6DD EQ PUSH2 0x25D JUMPI DUP1 PUSH4 0xE77D6F7C EQ PUSH2 0x23F JUMPI DUP1 PUSH4 0xFD4C98D2 EQ PUSH2 0x190 JUMPI PUSH4 0xFDBDA0EC EQ PUSH2 0x95 JUMPI PUSH1 0x0 DUP1 REVERT JUMPDEST CALLVALUE PUSH2 0x18B JUMPI PUSH1 0x20 CALLDATASIZE PUSH1 0x3 NOT ADD SLT PUSH2 0x18B JUMPI PUSH1 0x4 CALLDATALOAD PUSH1 0x0 MSTORE PUSH1 0x0 PUSH1 0x20 MSTORE PUSH1 0x40 PUSH1 0x0 KECCAK256 DUP1 SLOAD PUSH2 0xC4 PUSH1 0x1 DUP4 ADD PUSH2 0x111A JUMP JUMPDEST SWAP2 PUSH2 0xD1 PUSH1 0x2 DUP3 ADD PUSH2 0x111A JUMP JUMPDEST PUSH2 0x179 PUSH2 0xE0 PUSH1 0x3 DUP5 ADD PUSH2 0x111A JUMP JUMPDEST PUSH1 0x4 DUP5 ADD SLOAD PUSH2 0x16B SWAP1 PUSH1 0x1 PUSH1 0x1 PUSH1 0xA0 SHL SUB AND PUSH2 0xFE PUSH1 0x5 DUP8 ADD PUSH2 0x111A JUMP JUMPDEST PUSH2 0x158 PUSH2 0x10D PUSH1 0x6 DUP10 ADD PUSH2 0x111A JUMP JUMPDEST SWAP5 PUSH2 0x14A PUSH1 0xFF PUSH1 0x8 PUSH1 0x7 DUP13 ADD SLOAD SWAP12 ADD SLOAD AND SWAP9 PUSH2 0x13C PUSH1 0x40 MLOAD SWAP14 DUP15 SWAP14 DUP15 PUSH2 0x120 SWAP2 DUP2 MSTORE DUP2 PUSH1 0x20 DUP3 ADD MSTORE ADD SWAP1 PUSH2 0x1001 JUMP JUMPDEST DUP13 DUP2 SUB PUSH1 0x40 DUP15 ADD MSTORE SWAP1 PUSH2 0x1001 JUMP JUMPDEST SWAP1 DUP11 DUP3 SUB PUSH1 0x60 DUP13 ADD MSTORE PUSH2 0x1001 JUMP JUMPDEST SWAP2 PUSH1 0x80 DUP10 ADD MSTORE DUP8 DUP3 SUB PUSH1 0xA0 DUP10 ADD MSTORE PUSH2 0x1001 JUMP JUMPDEST SWAP1 DUP6 DUP3 SUB PUSH1 0xC0 DUP8 ADD MSTORE PUSH2 0x1001 JUMP JUMPDEST SWAP2 PUSH1 0xE0 DUP5 ADD MSTORE ISZERO ISZERO PUSH2 0x100 DUP4 ADD MSTORE SUB SWAP1 RETURN JUMPDEST PUSH1 0x0 DUP1 REVERT JUMPDEST CALLVALUE PUSH2 0x18B JUMPI PUSH1 0x20 DUP1 PUSH1 0x3 NOT CALLDATASIZE ADD SLT PUSH2 0x18B JUMPI PUSH1 0x1 PUSH1 0x1 PUSH1 0xA0 SHL SUB PUSH2 0x1B2 PUSH2 0xFBD JUMP JUMPDEST AND PUSH1 0x0 MSTORE PUSH1 0x1 SWAP1 PUSH1 0x1 DUP2 MSTORE PUSH1 0x40 PUSH1 0x0 KECCAK256 SWAP2 PUSH1 0x40 MLOAD SWAP2 DUP3 DUP2 DUP6 SLOAD SWAP2 DUP3 DUP2 MSTORE ADD SWAP1 DUP2 SWAP6 PUSH1 0x0 MSTORE DUP3 PUSH1 0x0 KECCAK256 SWAP1 PUSH1 0x0 JUMPDEST DUP2 DUP2 LT PUSH2 0x22C JUMPI POP POP POP DUP4 PUSH2 0x1F4 SWAP2 SUB DUP5 PUSH2 0xF46 JUMP JUMPDEST PUSH1 0x40 MLOAD SWAP3 DUP2 DUP5 ADD SWAP1 DUP3 DUP6 MSTORE MLOAD DUP1 SWAP2 MSTORE PUSH1 0x40 DUP5 ADD SWAP5 SWAP2 PUSH1 0x0 JUMPDEST DUP3 DUP2 LT PUSH2 0x219 JUMPI DUP6 DUP8 SUB DUP7 RETURN JUMPDEST DUP4 MLOAD DUP8 MSTORE SWAP6 DUP2 ADD SWAP6 SWAP3 DUP2 ADD SWAP3 DUP5 ADD PUSH2 0x20C JUMP JUMPDEST DUP3 SLOAD DUP5 MSTORE SWAP3 DUP5 ADD SWAP3 SWAP2 DUP6 ADD SWAP2 DUP6 ADD PUSH2 0x1DE JUMP JUMPDEST CALLVALUE PUSH2 0x18B JUMPI PUSH1 0x0 CALLDATASIZE PUSH1 0x3 NOT ADD SLT PUSH2 0x18B JUMPI PUSH1 0x20 PUSH1 0x2 SLOAD PUSH1 0x40 MLOAD SWAP1 DUP2 MSTORE RETURN JUMPDEST CALLVALUE PUSH2 0x18B JUMPI PUSH1 0x0 CALLDATASIZE PUSH1 0x3 NOT ADD SLT PUSH2 0x18B JUMPI PUSH1 0x2 SLOAD PUSH1 0x0 NOT DUP2 ADD SWAP1 DUP2 GT PUSH2 0x288 JUMPI PUSH1 0x20 SWAP1 PUSH1 0x40 MLOAD SWAP1 DUP2 MSTORE RETURN JUMPDEST PUSH4 0x4E487B71 PUSH1 0xE0 SHL PUSH1 0x0 MSTORE PUSH1 0x11 PUSH1 0x4 MSTORE PUSH1 0x24 PUSH1 0x0 REVERT JUMPDEST CALLVALUE PUSH2 0x18B JUMPI PUSH1 0x0 CALLDATASIZE PUSH1 0x3 NOT ADD SLT PUSH2 0x18B JUMPI PUSH1 0x3 SLOAD PUSH1 0x40 MLOAD PUSH1 0x1 PUSH1 0x1 PUSH1 0xA0 SHL SUB SWAP1 SWAP2 AND DUP2 MSTORE PUSH1 0x20 SWAP1 RETURN JUMPDEST CALLVALUE PUSH2 0x18B JUMPI PUSH1 0x20 CALLDATASIZE PUSH1 0x3 NOT ADD SLT PUSH2 0x18B JUMPI PUSH2 0x2E0 PUSH2 0xFBD JUMP JUMPDEST PUSH1 0x3 SLOAD SWAP1 PUSH1 0x1 PUSH1 0x1 PUSH1 0xA0 SHL SUB SWAP1 PUSH2 0x2FA CALLER DUP4 DUP6 AND EQ PUSH2 0x11BF JUMP JUMPDEST AND SWAP1 DUP2 ISZERO PUSH2 0x312 JUMPI PUSH1 0x1 PUSH1 0x1 PUSH1 0xA0 SHL SUB NOT AND OR PUSH1 0x3 SSTORE STOP JUMPDEST PUSH1 0x64 PUSH1 0x40 MLOAD PUSH3 0x461BCD PUSH1 0xE5 SHL DUP2 MSTORE PUSH1 0x20 PUSH1 0x4 DUP3 ADD MSTORE PUSH1 0x20 PUSH1 0x24 DUP3 ADD MSTORE PUSH32 0x4E6577206F776E65722063616E6E6F74206265207A65726F2061646472657373 PUSH1 0x44 DUP3 ADD MSTORE REVERT JUMPDEST CALLVALUE PUSH2 0x18B JUMPI PUSH1 0x0 CALLDATASIZE PUSH1 0x3 NOT ADD SLT PUSH2 0x18B JUMPI PUSH1 0x2 SLOAD PUSH1 0x0 NOT SWAP1 DUP2 DUP2 ADD DUP2 DUP2 GT PUSH2 0x288 JUMPI SWAP2 PUSH2 0x39B PUSH2 0x385 DUP5 PUSH2 0x133B JUMP JUMPDEST SWAP4 PUSH2 0x393 PUSH1 0x40 MLOAD SWAP6 DUP7 PUSH2 0xF46 JUMP JUMPDEST DUP1 DUP6 MSTORE PUSH2 0x133B JUMP JUMPDEST PUSH1 0x20 SWAP3 SWAP1 PUSH1 0x1F NOT ADD PUSH1 0x0 JUMPDEST DUP2 DUP2 LT PUSH2 0x463 JUMPI POP POP PUSH1 0x1 SWAP2 PUSH1 0x1 JUMPDEST DUP3 DUP2 LT PUSH2 0x41E JUMPI POP POP POP PUSH1 0x40 MLOAD SWAP2 DUP1 DUP4 ADD DUP2 DUP5 MSTORE DUP5 MLOAD DUP1 SWAP2 MSTORE PUSH1 0x40 DUP5 ADD SWAP2 DUP1 PUSH1 0x40 DUP4 PUSH1 0x5 SHL DUP8 ADD ADD SWAP7 ADD SWAP3 PUSH1 0x0 SWAP1 JUMPDEST DUP4 DUP3 LT PUSH2 0x3F1 JUMPI DUP7 DUP9 SUB DUP8 RETURN JUMPDEST SWAP1 SWAP2 SWAP3 SWAP4 SWAP5 DUP4 DUP1 PUSH2 0x40D DUP4 SWAP11 PUSH1 0x3F NOT DUP12 DUP3 SUB ADD DUP7 MSTORE DUP10 MLOAD PUSH2 0x1041 JUMP JUMPDEST SWAP10 SWAP8 ADD SWAP6 SWAP5 SWAP4 SWAP2 SWAP1 SWAP2 ADD SWAP2 ADD PUSH2 0x3E4 JUMP JUMPDEST DUP1 PUSH1 0x0 SWAP7 SWAP5 SWAP7 MSTORE PUSH1 0x0 DUP6 MSTORE PUSH1 0x40 PUSH1 0x0 KECCAK256 SWAP1 DUP3 DUP2 ADD SWAP2 DUP2 DUP4 GT PUSH2 0x288 JUMPI DUP8 SWAP3 PUSH2 0x448 PUSH2 0x459 SWAP3 PUSH2 0x12A5 JUMP JUMPDEST PUSH2 0x452 DUP3 DUP10 PUSH2 0x1352 JUMP JUMPDEST MSTORE DUP7 PUSH2 0x1352 JUMP JUMPDEST POP ADD SWAP5 SWAP3 SWAP5 PUSH2 0x3B5 JUMP JUMPDEST DUP5 SWAP1 PUSH2 0x470 SWAP7 SWAP5 SWAP7 PUSH2 0x1261 JUMP JUMPDEST DUP3 DUP3 DUP8 ADD ADD MSTORE ADD SWAP5 SWAP3 SWAP5 PUSH2 0x3A6 JUMP JUMPDEST CALLVALUE PUSH2 0x18B JUMPI PUSH1 0x20 CALLDATASIZE PUSH1 0x3 NOT ADD SLT PUSH2 0x18B JUMPI PUSH1 0x4 CALLDATALOAD PUSH2 0x49B PUSH2 0x1261 JUMP JUMPDEST POP PUSH2 0x4A9 PUSH1 0x2 SLOAD DUP3 LT PUSH2 0x1215 JUMP JUMPDEST PUSH1 0x0 MSTORE PUSH1 0x0 PUSH1 0x20 MSTORE PUSH2 0x4D5 PUSH2 0x4C1 PUSH1 0x40 PUSH1 0x0 KECCAK256 PUSH2 0x12A5 JUMP JUMPDEST PUSH1 0x40 MLOAD SWAP2 DUP3 SWAP2 PUSH1 0x20 DUP4 MSTORE PUSH1 0x20 DUP4 ADD SWAP1 PUSH2 0x1041 JUMP JUMPDEST SUB SWAP1 RETURN JUMPDEST CALLVALUE PUSH2 0x18B JUMPI PUSH1 0x40 CALLDATASIZE PUSH1 0x3 NOT ADD SLT PUSH2 0x18B JUMPI PUSH2 0x4F2 PUSH2 0xFBD JUMP JUMPDEST PUSH1 0x1 PUSH1 0x1 PUSH1 0xA0 SHL SUB AND PUSH1 0x0 SWAP1 DUP2 MSTORE PUSH1 0x1 PUSH1 0x20 MSTORE PUSH1 0x40 SWAP1 KECCAK256 DUP1 SLOAD PUSH1 0x24 CALLDATALOAD SWAP2 SWAP1 DUP3 LT ISZERO PUSH2 0x18B JUMPI PUSH1 0x20 SWAP2 PUSH2 0x523 SWAP2 PUSH2 0xFD3 JUMP JUMPDEST SWAP1 SLOAD PUSH1 0x40 MLOAD SWAP2 PUSH1 0x3 SHL SHR DUP2 MSTORE RETURN JUMPDEST CALLVALUE PUSH2 0x18B JUMPI PUSH1 0xA0 CALLDATASIZE PUSH1 0x3 NOT ADD SLT PUSH2 0x18B JUMPI PUSH1 0x4 CALLDATALOAD PUSH1 0x1 PUSH1 0x1 PUSH1 0x40 SHL SUB DUP2 GT PUSH2 0x18B JUMPI PUSH2 0x561 SWAP1 CALLDATASIZE SWAP1 PUSH1 0x4 ADD PUSH2 0xF67 JUMP JUMPDEST PUSH1 0x24 CALLDATALOAD PUSH1 0x1 PUSH1 0x1 PUSH1 0x40 SHL SUB DUP2 GT PUSH2 0x18B JUMPI PUSH2 0x580 SWAP1 CALLDATASIZE SWAP1 PUSH1 0x4 ADD PUSH2 0xF67 JUMP JUMPDEST PUSH1 0x44 CALLDATALOAD PUSH1 0x1 PUSH1 0x1 PUSH1 0x40 SHL SUB DUP2 GT PUSH2 0x18B JUMPI PUSH2 0x59F SWAP1 CALLDATASIZE SWAP1 PUSH1 0x4 ADD PUSH2 0xF67 JUMP JUMPDEST SWAP2 PUSH1 0x64 CALLDATALOAD PUSH1 0x1 PUSH1 0x1 PUSH1 0x40 SHL SUB DUP2 GT PUSH2 0x18B JUMPI PUSH2 0x5BF SWAP1 CALLDATASIZE SWAP1 PUSH1 0x4 ADD PUSH2 0xF67 JUMP JUMPDEST PUSH1 0x84 CALLDATALOAD PUSH1 0x1 PUSH1 0x1 PUSH1 0x40 SHL SUB DUP2 GT PUSH2 0x18B JUMPI PUSH2 0x5DE SWAP1 CALLDATASIZE SWAP1 PUSH1 0x4 ADD PUSH2 0xF67 JUMP JUMPDEST SWAP3 DUP3 MLOAD ISZERO PUSH2 0xE0C JUMPI DUP1 MLOAD ISZERO PUSH2 0xDC7 JUMPI DUP5 MLOAD ISZERO PUSH2 0xD82 JUMPI DUP2 MLOAD ISZERO PUSH2 0xD3D JUMPI PUSH1 0x2 SLOAD SWAP4 PUSH1 0x40 MLOAD SWAP3 PUSH2 0x60C DUP5 PUSH2 0xF2A JUMP JUMPDEST DUP6 DUP5 MSTORE PUSH1 0x20 DUP5 ADD SWAP3 DUP6 DUP5 MSTORE PUSH1 0x40 DUP6 ADD MSTORE DUP7 PUSH1 0x60 DUP6 ADD MSTORE CALLER PUSH1 0x80 DUP6 ADD MSTORE PUSH1 0xA0 DUP5 ADD MSTORE PUSH1 0xC0 DUP4 ADD MSTORE TIMESTAMP PUSH1 0xE0 DUP4 ADD MSTORE PUSH1 0x0 PUSH2 0x100 DUP4 ADD MSTORE DUP4 PUSH1 0x0 MSTORE PUSH1 0x0 PUSH1 0x20 MSTORE PUSH1 0x40 PUSH1 0x0 KECCAK256 SWAP1 DUP3 MLOAD DUP3 SSTORE MLOAD DUP1 MLOAD SWAP1 PUSH1 0x1 PUSH1 0x1 PUSH1 0x40 SHL SUB DUP3 GT PUSH2 0x921 JUMPI DUP2 SWAP1 PUSH2 0x674 PUSH1 0x1 DUP6 ADD SLOAD PUSH2 0x10E0 JUMP JUMPDEST PUSH1 0x1F DUP2 GT PUSH2 0xCEA JUMPI JUMPDEST POP PUSH1 0x20 SWAP1 PUSH1 0x1F DUP4 GT PUSH1 0x1 EQ PUSH2 0xC78 JUMPI PUSH1 0x0 SWAP3 PUSH2 0xC6D JUMPI JUMPDEST POP POP DUP2 PUSH1 0x1 SHL SWAP2 PUSH1 0x0 NOT SWAP1 PUSH1 0x3 SHL SHR NOT AND OR PUSH1 0x1 DUP3 ADD SSTORE JUMPDEST PUSH1 0x40 DUP3 ADD MLOAD DUP1 MLOAD SWAP1 PUSH1 0x1 PUSH1 0x1 PUSH1 0x40 SHL SUB DUP3 GT PUSH2 0x921 JUMPI DUP2 SWAP1 PUSH2 0x6D1 PUSH1 0x2 DUP6 ADD SLOAD PUSH2 0x10E0 JUMP JUMPDEST PUSH1 0x1F DUP2 GT PUSH2 0xC1A JUMPI JUMPDEST POP PUSH1 0x20 SWAP1 PUSH1 0x1F DUP4 GT PUSH1 0x1 EQ PUSH2 0xBA8 JUMPI PUSH1 0x0 SWAP3 PUSH2 0xB9D JUMPI JUMPDEST POP POP DUP2 PUSH1 0x1 SHL SWAP2 PUSH1 0x0 NOT SWAP1 PUSH1 0x3 SHL SHR NOT AND OR PUSH1 0x2 DUP3 ADD SSTORE JUMPDEST PUSH1 0x60 DUP3 ADD MLOAD DUP1 MLOAD SWAP1 PUSH1 0x1 PUSH1 0x1 PUSH1 0x40 SHL SUB DUP3 GT PUSH2 0x921 JUMPI DUP2 SWAP1 PUSH2 0x72E PUSH1 0x3 DUP6 ADD SLOAD PUSH2 0x10E0 JUMP JUMPDEST PUSH1 0x1F DUP2 GT PUSH2 0xB4A JUMPI JUMPDEST POP PUSH1 0x20 SWAP1 PUSH1 0x1F DUP4 GT PUSH1 0x1 EQ PUSH2 0xAD8 JUMPI PUSH1 0x0 SWAP3 PUSH2 0xACD JUMPI JUMPDEST POP POP DUP2 PUSH1 0x1 SHL SWAP2 PUSH1 0x0 NOT SWAP1 PUSH1 0x3 SHL SHR NOT AND OR PUSH1 0x3 DUP3 ADD SSTORE JUMPDEST PUSH1 0x4 DUP2 ADD PUSH1 0x1 DUP1 PUSH1 0xA0 SHL SUB PUSH1 0x80 DUP5 ADD MLOAD AND PUSH12 0xFFFFFFFFFFFFFFFFFFFFFFFF PUSH1 0xA0 SHL DUP3 SLOAD AND OR SWAP1 SSTORE PUSH1 0xA0 DUP3 ADD MLOAD DUP1 MLOAD SWAP1 PUSH1 0x1 PUSH1 0x1 PUSH1 0x40 SHL SUB DUP3 GT PUSH2 0x921 JUMPI DUP2 SWAP1 PUSH2 0x7B2 PUSH1 0x5 DUP6 ADD SLOAD PUSH2 0x10E0 JUMP JUMPDEST PUSH1 0x1F DUP2 GT PUSH2 0xA7A JUMPI JUMPDEST POP PUSH1 0x20 SWAP1 PUSH1 0x1F DUP4 GT PUSH1 0x1 EQ PUSH2 0xA08 JUMPI PUSH1 0x0 SWAP3 PUSH2 0x9FD JUMPI JUMPDEST POP POP DUP2 PUSH1 0x1 SHL SWAP2 PUSH1 0x0 NOT SWAP1 PUSH1 0x3 SHL SHR NOT AND OR PUSH1 0x5 DUP3 ADD SSTORE JUMPDEST PUSH1 0xC0 DUP3 ADD MLOAD DUP1 MLOAD SWAP1 PUSH1 0x1 PUSH1 0x1 PUSH1 0x40 SHL SUB DUP3 GT PUSH2 0x921 JUMPI PUSH2 0x80D PUSH1 0x6 DUP5 ADD SLOAD PUSH2 0x10E0 JUMP JUMPDEST PUSH1 0x1F DUP2 GT PUSH2 0x9B6 JUMPI JUMPDEST POP PUSH1 0x20 SWAP1 PUSH1 0x1F DUP4 GT PUSH1 0x1 EQ PUSH2 0x942 JUMPI SWAP2 DUP1 PUSH2 0x100 SWAP5 SWAP3 PUSH1 0x8 SWAP5 PUSH1 0x0 SWAP3 PUSH2 0x937 JUMPI JUMPDEST POP POP DUP2 PUSH1 0x1 SHL SWAP2 PUSH1 0x0 NOT SWAP1 PUSH1 0x3 SHL SHR NOT AND OR PUSH1 0x6 DUP3 ADD SSTORE JUMPDEST PUSH1 0xE0 DUP5 ADD MLOAD PUSH1 0x7 DUP3 ADD SSTORE ADD SWAP2 ADD MLOAD ISZERO ISZERO PUSH1 0xFF DUP1 NOT DUP4 SLOAD AND SWAP2 AND OR SWAP1 SSTORE CALLER PUSH1 0x0 MSTORE PUSH1 0x1 PUSH1 0x20 MSTORE PUSH1 0x40 PUSH1 0x0 KECCAK256 DUP1 SLOAD PUSH9 0x10000000000000000 DUP2 LT ISZERO PUSH2 0x921 JUMPI PUSH2 0x89B SWAP2 PUSH1 0x1 DUP3 ADD DUP2 SSTORE PUSH2 0xFD3 JUMP JUMPDEST SWAP1 DUP1 SLOAD SWAP2 PUSH1 0x3 SHL PUSH1 0x0 NOT SWAP3 DUP4 DUP7 DUP4 SHL SWAP3 SHL NOT AND OR SWAP1 SSTORE PUSH1 0x2 SLOAD SWAP1 DUP2 EQ PUSH2 0x288 JUMPI PUSH32 0x672CDFB2F58ECCBAC4E1CDD48E74D1E852261C2DE4E81D09969D4CAC2922878C PUSH2 0x90C PUSH1 0x20 SWAP6 PUSH1 0x1 DUP7 SWAP5 ADD PUSH1 0x2 SSTORE PUSH2 0x8FF PUSH1 0x40 MLOAD SWAP6 PUSH1 0x60 DUP8 MSTORE PUSH1 0x60 DUP8 ADD SWAP1 PUSH2 0x1001 JUMP JUMPDEST SWAP1 DUP6 DUP3 SUB DUP9 DUP8 ADD MSTORE PUSH2 0x1001 JUMP JUMPDEST SWAP3 TIMESTAMP PUSH1 0x40 DUP3 ADD MSTORE DUP1 CALLER SWAP5 SUB SWAP1 LOG3 PUSH1 0x40 MLOAD SWAP1 DUP2 MSTORE RETURN JUMPDEST PUSH4 0x4E487B71 PUSH1 0xE0 SHL PUSH1 0x0 MSTORE PUSH1 0x41 PUSH1 0x4 MSTORE PUSH1 0x24 PUSH1 0x0 REVERT JUMPDEST ADD MLOAD SWAP1 POP DUP10 DUP1 PUSH2 0x837 JUMP JUMPDEST SWAP1 PUSH1 0x1F NOT DUP4 AND SWAP2 PUSH1 0x6 DUP6 ADD PUSH1 0x0 MSTORE PUSH1 0x20 PUSH1 0x0 KECCAK256 SWAP3 PUSH1 0x0 JUMPDEST DUP2 DUP2 LT PUSH2 0x99E JUMPI POP SWAP3 PUSH1 0x1 SWAP3 DUP6 SWAP3 PUSH1 0x8 SWAP7 PUSH2 0x100 SWAP9 SWAP7 LT PUSH2 0x985 JUMPI JUMPDEST POP POP POP DUP2 SHL ADD PUSH1 0x6 DUP3 ADD SSTORE PUSH2 0x84F JUMP JUMPDEST ADD MLOAD PUSH1 0x0 NOT PUSH1 0xF8 DUP5 PUSH1 0x3 SHL AND SHR NOT AND SWAP1 SSTORE DUP10 DUP1 DUP1 PUSH2 0x975 JUMP JUMPDEST SWAP3 SWAP4 PUSH1 0x20 PUSH1 0x1 DUP2 SWAP3 DUP8 DUP7 ADD MLOAD DUP2 SSTORE ADD SWAP6 ADD SWAP4 ADD PUSH2 0x959 JUMP JUMPDEST PUSH1 0x6 DUP5 ADD PUSH1 0x0 MSTORE PUSH1 0x20 PUSH1 0x0 KECCAK256 PUSH1 0x1F DUP5 ADD PUSH1 0x5 SHR DUP2 ADD PUSH1 0x20 DUP6 LT PUSH2 0x9F6 JUMPI JUMPDEST PUSH1 0x1F DUP4 ADD PUSH1 0x5 SHR DUP3 ADD DUP2 LT PUSH2 0x9EA JUMPI POP POP PUSH2 0x816 JUMP JUMPDEST PUSH1 0x0 DUP2 SSTORE PUSH1 0x1 ADD PUSH2 0x9D4 JUMP JUMPDEST POP DUP1 PUSH2 0x9D4 JUMP JUMPDEST ADD MLOAD SWAP1 POP DUP8 DUP1 PUSH2 0x7D2 JUMP JUMPDEST SWAP3 POP PUSH1 0x5 DUP5 ADD PUSH1 0x0 MSTORE PUSH1 0x20 PUSH1 0x0 KECCAK256 SWAP1 PUSH1 0x0 SWAP4 JUMPDEST PUSH1 0x1F NOT DUP5 AND DUP6 LT PUSH2 0xA5F JUMPI PUSH1 0x1 SWAP5 POP DUP4 PUSH1 0x1F NOT DUP2 AND LT PUSH2 0xA46 JUMPI JUMPDEST POP POP POP DUP2 SHL ADD PUSH1 0x5 DUP3 ADD SSTORE PUSH2 0x7EA JUMP JUMPDEST ADD MLOAD PUSH1 0x0 NOT PUSH1 0xF8 DUP5 PUSH1 0x3 SHL AND SHR NOT AND SWAP1 SSTORE DUP8 DUP1 DUP1 PUSH2 0xA36 JUMP JUMPDEST DUP2 DUP2 ADD MLOAD DUP4 SSTORE PUSH1 0x20 SWAP5 DUP6 ADD SWAP5 PUSH1 0x1 SWAP1 SWAP4 ADD SWAP3 SWAP1 SWAP2 ADD SWAP1 PUSH2 0xA1B JUMP JUMPDEST SWAP1 SWAP2 POP PUSH1 0x5 DUP5 ADD PUSH1 0x0 MSTORE PUSH1 0x20 PUSH1 0x0 KECCAK256 PUSH1 0x1F DUP5 ADD PUSH1 0x5 SHR DUP2 ADD PUSH1 0x20 DUP6 LT PUSH2 0xAC6 JUMPI JUMPDEST SWAP1 DUP5 SWAP4 SWAP3 SWAP2 JUMPDEST PUSH1 0x1F DUP4 ADD PUSH1 0x5 SHR DUP3 ADD DUP2 LT PUSH2 0xAB7 JUMPI POP POP PUSH2 0x7BB JUMP JUMPDEST PUSH1 0x0 DUP2 SSTORE DUP6 SWAP5 POP PUSH1 0x1 ADD PUSH2 0xAA1 JUMP JUMPDEST POP DUP1 PUSH2 0xA9B JUMP JUMPDEST ADD MLOAD SWAP1 POP DUP8 DUP1 PUSH2 0x74E JUMP JUMPDEST SWAP3 POP PUSH1 0x3 DUP5 ADD PUSH1 0x0 MSTORE PUSH1 0x20 PUSH1 0x0 KECCAK256 SWAP1 PUSH1 0x0 SWAP4 JUMPDEST PUSH1 0x1F NOT DUP5 AND DUP6 LT PUSH2 0xB2F JUMPI PUSH1 0x1 SWAP5 POP DUP4 PUSH1 0x1F NOT DUP2 AND LT PUSH2 0xB16 JUMPI JUMPDEST POP POP POP DUP2 SHL ADD PUSH1 0x3 DUP3 ADD SSTORE PUSH2 0x766 JUMP JUMPDEST ADD MLOAD PUSH1 0x0 NOT PUSH1 0xF8 DUP5 PUSH1 0x3 SHL AND SHR NOT AND SWAP1 SSTORE DUP8 DUP1 DUP1 PUSH2 0xB06 JUMP JUMPDEST DUP2 DUP2 ADD MLOAD DUP4 SSTORE PUSH1 0x20 SWAP5 DUP6 ADD SWAP5 PUSH1 0x1 SWAP1 SWAP4 ADD SWAP3 SWAP1 SWAP2 ADD SWAP1 PUSH2 0xAEB JUMP JUMPDEST SWAP1 SWAP2 POP PUSH1 0x3 DUP5 ADD PUSH1 0x0 MSTORE PUSH1 0x20 PUSH1 0x0 KECCAK256 PUSH1 0x1F DUP5 ADD PUSH1 0x5 SHR DUP2 ADD PUSH1 0x20 DUP6 LT PUSH2 0xB96 JUMPI JUMPDEST SWAP1 DUP5 SWAP4 SWAP3 SWAP2 JUMPDEST PUSH1 0x1F DUP4 ADD PUSH1 0x5 SHR DUP3 ADD DUP2 LT PUSH2 0xB87 JUMPI POP POP PUSH2 0x737 JUMP JUMPDEST PUSH1 0x0 DUP2 SSTORE DUP6 SWAP5 POP PUSH1 0x1 ADD PUSH2 0xB71 JUMP JUMPDEST POP DUP1 PUSH2 0xB6B JUMP JUMPDEST ADD MLOAD SWAP1 POP DUP8 DUP1 PUSH2 0x6F1 JUMP JUMPDEST SWAP3 POP PUSH1 0x2 DUP5 ADD PUSH1 0x0 MSTORE PUSH1 0x20 PUSH1 0x0 KECCAK256 SWAP1 PUSH1 0x0 SWAP4 JUMPDEST PUSH1 0x1F NOT DUP5 AND DUP6 LT PUSH2 0xBFF JUMPI PUSH1 0x1 SWAP5 POP DUP4 PUSH1 0x1F NOT DUP2 AND LT PUSH2 0xBE6 JUMPI JUMPDEST POP POP POP DUP2 SHL ADD PUSH1 0x2 DUP3 ADD SSTORE PUSH2 0x709 JUMP JUMPDEST ADD MLOAD PUSH1 0x0 NOT PUSH1 0xF8 DUP5 PUSH1 0x3 SHL AND SHR NOT AND SWAP1 SSTORE DUP8 DUP1 DUP1 PUSH2 0xBD6 JUMP JUMPDEST DUP2 DUP2 ADD MLOAD DUP4 SSTORE PUSH1 0x20 SWAP5 DUP6 ADD SWAP5 PUSH1 0x1 SWAP1 SWAP4 ADD SWAP3 SWAP1 SWAP2 ADD SWAP1 PUSH2 0xBBB JUMP JUMPDEST SWAP1 SWAP2 POP PUSH1 0x2 DUP5 ADD PUSH1 0x0 MSTORE PUSH1 0x20 PUSH1 0x0 KECCAK256 PUSH1 0x1F DUP5 ADD PUSH1 0x5 SHR DUP2 ADD PUSH1 0x20 DUP6 LT PUSH2 0xC66 JUMPI JUMPDEST SWAP1 DUP5 SWAP4 SWAP3 SWAP2 JUMPDEST PUSH1 0x1F DUP4 ADD PUSH1 0x5 SHR DUP3 ADD DUP2 LT PUSH2 0xC57 JUMPI POP POP PUSH2 0x6DA JUMP JUMPDEST PUSH1 0x0 DUP2 SSTORE DUP6 SWAP5 POP PUSH1 0x1 ADD PUSH2 0xC41 JUMP JUMPDEST POP DUP1 PUSH2 0xC3B JUMP JUMPDEST ADD MLOAD SWAP1 POP DUP8 DUP1 PUSH2 0x694 JUMP JUMPDEST SWAP3 POP PUSH1 0x1 DUP5 ADD PUSH1 0x0 MSTORE PUSH1 0x20 PUSH1 0x0 KECCAK256 SWAP1 PUSH1 0x0 SWAP4 JUMPDEST PUSH1 0x1F NOT DUP5 AND DUP6 LT PUSH2 0xCCF JUMPI PUSH1 0x1 SWAP5 POP DUP4 PUSH1 0x1F NOT DUP2 AND LT PUSH2 0xCB6 JUMPI JUMPDEST POP POP POP DUP2 SHL ADD PUSH1 0x1 DUP3 ADD SSTORE PUSH2 0x6AC JUMP JUMPDEST ADD MLOAD PUSH1 0x0 NOT PUSH1 0xF8 DUP5 PUSH1 0x3 SHL AND SHR NOT AND SWAP1 SSTORE DUP8 DUP1 DUP1 PUSH2 0xCA6 JUMP JUMPDEST DUP2 DUP2 ADD MLOAD DUP4 SSTORE PUSH1 0x20 SWAP5 DUP6 ADD SWAP5 PUSH1 0x1 SWAP1 SWAP4 ADD SWAP3 SWAP1 SWAP2 ADD SWAP1 PUSH2 0xC8B JUMP JUMPDEST SWAP1 SWAP2 POP PUSH1 0x1 DUP5 ADD PUSH1 0x0 MSTORE PUSH1 0x20 PUSH1 0x0 KECCAK256 PUSH1 0x1F DUP5 ADD PUSH1 0x5 SHR DUP2 ADD PUSH1 0x20 DUP6 LT PUSH2 0xD36 JUMPI JUMPDEST SWAP1 DUP5 SWAP4 SWAP3 SWAP2 JUMPDEST PUSH1 0x1F DUP4 ADD PUSH1 0x5 SHR DUP3 ADD DUP2 LT PUSH2 0xD27 JUMPI POP POP PUSH2 0x67D JUMP JUMPDEST PUSH1 0x0 DUP2 SSTORE DUP6 SWAP5 POP PUSH1 0x1 ADD PUSH2 0xD11 JUMP JUMPDEST POP DUP1 PUSH2 0xD0B JUMP JUMPDEST PUSH1 0x40 MLOAD PUSH3 0x461BCD PUSH1 0xE5 SHL DUP2 MSTORE PUSH1 0x20 PUSH1 0x4 DUP3 ADD MSTORE PUSH1 0x18 PUSH1 0x24 DUP3 ADD MSTORE PUSH32 0x4C6F636174696F6E2063616E6E6F7420626520656D7074790000000000000000 PUSH1 0x44 DUP3 ADD MSTORE PUSH1 0x64 SWAP1 REVERT JUMPDEST PUSH1 0x40 MLOAD PUSH3 0x461BCD PUSH1 0xE5 SHL DUP2 MSTORE PUSH1 0x20 PUSH1 0x4 DUP3 ADD MSTORE PUSH1 0x18 PUSH1 0x24 DUP3 ADD MSTORE PUSH32 0x42617463682049442063616E6E6F7420626520656D7074790000000000000000 PUSH1 0x44 DUP3 ADD MSTORE PUSH1 0x64 SWAP1 REVERT JUMPDEST PUSH1 0x40 MLOAD PUSH3 0x461BCD PUSH1 0xE5 SHL DUP2 MSTORE PUSH1 0x20 PUSH1 0x4 DUP3 ADD MSTORE PUSH1 0x18 PUSH1 0x24 DUP3 ADD MSTORE PUSH32 0x5175616E746974792063616E6E6F7420626520656D7074790000000000000000 PUSH1 0x44 DUP3 ADD MSTORE PUSH1 0x64 SWAP1 REVERT JUMPDEST PUSH1 0x40 MLOAD PUSH3 0x461BCD PUSH1 0xE5 SHL DUP2 MSTORE PUSH1 0x20 PUSH1 0x4 DUP3 ADD MSTORE PUSH1 0x19 PUSH1 0x24 DUP3 ADD MSTORE PUSH32 0x48657262206E616D652063616E6E6F7420626520656D70747900000000000000 PUSH1 0x44 DUP3 ADD MSTORE PUSH1 0x64 SWAP1 REVERT JUMPDEST CALLVALUE PUSH2 0x18B JUMPI PUSH1 0x20 CALLDATASIZE PUSH1 0x3 NOT ADD SLT PUSH2 0x18B JUMPI PUSH1 0x4 CALLDATALOAD PUSH2 0xE7A PUSH1 0x1 DUP1 PUSH1 0xA0 SHL SUB PUSH1 0x3 SLOAD AND CALLER EQ PUSH2 0x11BF JUMP JUMPDEST PUSH2 0xE87 PUSH1 0x2 SLOAD DUP3 LT PUSH2 0x1215 JUMP JUMPDEST DUP1 PUSH1 0x0 MSTORE PUSH1 0x0 PUSH1 0x20 MSTORE PUSH1 0xFF PUSH1 0x8 PUSH1 0x40 PUSH1 0x0 KECCAK256 ADD SLOAD AND PUSH2 0xEE5 JUMPI DUP1 PUSH1 0x0 MSTORE PUSH1 0x0 PUSH1 0x20 MSTORE PUSH1 0x8 PUSH1 0x40 PUSH1 0x0 KECCAK256 ADD PUSH1 0x1 PUSH1 0xFF NOT DUP3 SLOAD AND OR SWAP1 SSTORE CALLER SWAP1 PUSH32 0x120776D41C0CEBB294BA5407BE2F5A773CAA704E0F02559020F5A8DE4E3499C3 PUSH1 0x0 DUP1 LOG3 STOP JUMPDEST PUSH1 0x40 MLOAD PUSH3 0x461BCD PUSH1 0xE5 SHL DUP2 MSTORE PUSH1 0x20 PUSH1 0x4 DUP3 ADD MSTORE PUSH1 0x1B PUSH1 0x24 DUP3 ADD MSTORE PUSH32 0x436F6C6C656374696F6E20616C72656164792076657269666965640000000000 PUSH1 0x44 DUP3 ADD MSTORE PUSH1 0x64 SWAP1 REVERT JUMPDEST PUSH2 0x120 DUP2 ADD SWAP1 DUP2 LT PUSH1 0x1 PUSH1 0x1 PUSH1 0x40 SHL SUB DUP3 GT OR PUSH2 0x921 JUMPI PUSH1 0x40 MSTORE JUMP JUMPDEST SWAP1 PUSH1 0x1F DUP1 NOT SWAP2 ADD AND DUP2 ADD SWAP1 DUP2 LT PUSH1 0x1 PUSH1 0x1 PUSH1 0x40 SHL SUB DUP3 GT OR PUSH2 0x921 JUMPI PUSH1 0x40 MSTORE JUMP JUMPDEST DUP2 PUSH1 0x1F DUP3 ADD SLT ISZERO PUSH2 0x18B JUMPI DUP1 CALLDATALOAD SWAP1 PUSH1 0x1 PUSH1 0x1 PUSH1 0x40 SHL SUB DUP3 GT PUSH2 0x921 JUMPI PUSH1 0x40 MLOAD SWAP3 PUSH2 0xF9B PUSH1 0x1F DUP5 ADD PUSH1 0x1F NOT AND PUSH1 0x20 ADD DUP6 PUSH2 0xF46 JUMP JUMPDEST DUP3 DUP5 MSTORE PUSH1 0x20 DUP4 DUP4 ADD ADD GT PUSH2 0x18B JUMPI DUP2 PUSH1 0x0 SWAP3 PUSH1 0x20 DUP1 SWAP4 ADD DUP4 DUP7 ADD CALLDATACOPY DUP4 ADD ADD MSTORE SWAP1 JUMP JUMPDEST PUSH1 0x4 CALLDATALOAD SWAP1 PUSH1 0x1 PUSH1 0x1 PUSH1 0xA0 SHL SUB DUP3 AND DUP3 SUB PUSH2 0x18B JUMPI JUMP JUMPDEST DUP1 SLOAD DUP3 LT ISZERO PUSH2 0xFEB JUMPI PUSH1 0x0 MSTORE PUSH1 0x20 PUSH1 0x0 KECCAK256 ADD SWAP1 PUSH1 0x0 SWAP1 JUMP JUMPDEST PUSH4 0x4E487B71 PUSH1 0xE0 SHL PUSH1 0x0 MSTORE PUSH1 0x32 PUSH1 0x4 MSTORE PUSH1 0x24 PUSH1 0x0 REVERT JUMPDEST SWAP2 SWAP1 DUP3 MLOAD SWAP3 DUP4 DUP3 MSTORE PUSH1 0x0 JUMPDEST DUP5 DUP2 LT PUSH2 0x102D JUMPI POP POP DUP3 PUSH1 0x0 PUSH1 0x20 DUP1 SWAP5 SWAP6 DUP5 ADD ADD MSTORE PUSH1 0x1F DUP1 NOT SWAP2 ADD AND ADD ADD SWAP1 JUMP JUMPDEST PUSH1 0x20 DUP2 DUP4 ADD DUP2 ADD MLOAD DUP5 DUP4 ADD DUP3 ADD MSTORE ADD PUSH2 0x100C JUMP JUMPDEST SWAP1 PUSH2 0x10C6 PUSH2 0x10B4 PUSH2 0x1090 PUSH2 0x107E PUSH2 0x106C PUSH2 0x120 DUP8 MLOAD DUP8 MSTORE PUSH1 0x20 DUP9 ADD MLOAD SWAP1 DUP1 PUSH1 0x20 DUP10 ADD MSTORE DUP8 ADD SWAP1 PUSH2 0x1001 JUMP JUMPDEST PUSH1 0x40 DUP8 ADD MLOAD DUP7 DUP3 SUB PUSH1 0x40 DUP9 ADD MSTORE PUSH2 0x1001 JUMP JUMPDEST PUSH1 0x60 DUP7 ADD MLOAD DUP6 DUP3 SUB PUSH1 0x60 DUP8 ADD MSTORE PUSH2 0x1001 JUMP JUMPDEST PUSH1 0x1 DUP1 PUSH1 0xA0 SHL SUB PUSH1 0x80 DUP7 ADD MLOAD AND PUSH1 0x80 DUP6 ADD MSTORE PUSH1 0xA0 DUP6 ADD MLOAD DUP5 DUP3 SUB PUSH1 0xA0 DUP7 ADD MSTORE PUSH2 0x1001 JUMP JUMPDEST PUSH1 0xC0 DUP5 ADD MLOAD DUP4 DUP3 SUB PUSH1 0xC0 DUP6 ADD MSTORE PUSH2 0x1001 JUMP JUMPDEST SWAP2 PUSH1 0xE0 DUP2 ADD MLOAD PUSH1 0xE0 DUP4 ADD MSTORE PUSH2 0x100 DUP1 SWAP2 ADD MLOAD ISZERO ISZERO SWAP2 ADD MSTORE SWAP1 JUMP JUMPDEST SWAP1 PUSH1 0x1 DUP3 DUP2 SHR SWAP3 AND DUP1 ISZERO PUSH2 0x1110 JUMPI JUMPDEST PUSH1 0x20 DUP4 LT EQ PUSH2 0x10FA JUMPI JUMP JUMPDEST PUSH4 0x4E487B71 PUSH1 0xE0 SHL PUSH1 0x0 MSTORE PUSH1 0x22 PUSH1 0x4 MSTORE PUSH1 0x24 PUSH1 0x0 REVERT JUMPDEST SWAP2 PUSH1 0x7F AND SWAP2 PUSH2 0x10EF JUMP JUMPDEST SWAP1 PUSH1 0x40 MLOAD SWAP2 DUP3 PUSH1 0x0 DUP3 SLOAD PUSH2 0x112D DUP2 PUSH2 0x10E0 JUMP JUMPDEST SWAP1 DUP2 DUP5 MSTORE PUSH1 0x20 SWAP5 PUSH1 0x1 SWAP2 PUSH1 0x1 DUP2 AND SWAP1 DUP2 PUSH1 0x0 EQ PUSH2 0x119D JUMPI POP PUSH1 0x1 EQ PUSH2 0x115E JUMPI JUMPDEST POP POP POP PUSH2 0x115C SWAP3 POP SUB DUP4 PUSH2 0xF46 JUMP JUMPDEST JUMP JUMPDEST PUSH1 0x0 SWAP1 DUP2 MSTORE DUP6 DUP2 KECCAK256 SWAP6 SWAP4 POP SWAP2 SWAP1 JUMPDEST DUP2 DUP4 LT PUSH2 0x1185 JUMPI POP POP PUSH2 0x115C SWAP4 POP DUP3 ADD ADD CODESIZE DUP1 DUP1 PUSH2 0x114D JUMP JUMPDEST DUP6 SLOAD DUP9 DUP5 ADD DUP6 ADD MSTORE SWAP5 DUP6 ADD SWAP5 DUP8 SWAP5 POP SWAP2 DUP4 ADD SWAP2 PUSH2 0x116C JUMP JUMPDEST SWAP3 POP POP POP PUSH2 0x115C SWAP5 SWAP3 POP PUSH1 0xFF NOT AND DUP3 DUP5 ADD MSTORE ISZERO ISZERO PUSH1 0x5 SHL DUP3 ADD ADD CODESIZE DUP1 DUP1 PUSH2 0x114D JUMP JUMPDEST ISZERO PUSH2 0x11C6 JUMPI JUMP JUMPDEST PUSH1 0x40 MLOAD PUSH3 0x461BCD PUSH1 0xE5 SHL DUP2 MSTORE PUSH1 0x20 PUSH1 0x4 DUP3 ADD MSTORE PUSH1 0x21 PUSH1 0x24 DUP3 ADD MSTORE PUSH32 0x4F6E6C79206F776E65722063616E2063616C6C20746869732066756E6374696F PUSH1 0x44 DUP3 ADD MSTORE PUSH1 0x37 PUSH1 0xF9 SHL PUSH1 0x64 DUP3 ADD MSTORE PUSH1 0x84 SWAP1 REVERT JUMPDEST ISZERO PUSH2 0x121C JUMPI JUMP JUMPDEST PUSH1 0x40 MLOAD PUSH3 0x461BCD PUSH1 0xE5 SHL DUP2 MSTORE PUSH1 0x20 PUSH1 0x4 DUP3 ADD MSTORE PUSH1 0x19 PUSH1 0x24 DUP3 ADD MSTORE PUSH32 0x436F6C6C656374696F6E20646F6573206E6F7420657869737400000000000000 PUSH1 0x44 DUP3 ADD MSTORE PUSH1 0x64 SWAP1 REVERT JUMPDEST PUSH1 0x40 MLOAD SWAP1 PUSH2 0x126E DUP3 PUSH2 0xF2A JUMP JUMPDEST PUSH1 0x0 PUSH2 0x100 DUP4 DUP3 DUP2 MSTORE PUSH1 0x60 DUP1 PUSH1 0x20 DUP4 ADD MSTORE DUP1 PUSH1 0x40 DUP4 ADD MSTORE DUP1 DUP1 DUP4 ADD MSTORE DUP4 PUSH1 0x80 DUP4 ADD MSTORE DUP1 PUSH1 0xA0 DUP4 ADD MSTORE PUSH1 0xC0 DUP3 ADD MSTORE DUP3 PUSH1 0xE0 DUP3 ADD MSTORE ADD MSTORE JUMP JUMPDEST SWAP1 PUSH1 0x40 MLOAD PUSH2 0x12B2 DUP2 PUSH2 0xF2A JUMP JUMPDEST PUSH2 0x100 PUSH1 0xFF PUSH1 0x8 DUP4 SWAP6 DUP1 SLOAD DUP6 MSTORE PUSH2 0x12CB PUSH1 0x1 DUP3 ADD PUSH2 0x111A JUMP JUMPDEST PUSH1 0x20 DUP7 ADD MSTORE PUSH2 0x12DC PUSH1 0x2 DUP3 ADD PUSH2 0x111A JUMP JUMPDEST PUSH1 0x40 DUP7 ADD MSTORE PUSH2 0x12ED PUSH1 0x3 DUP3 ADD PUSH2 0x111A JUMP JUMPDEST PUSH1 0x60 DUP7 ADD MSTORE PUSH1 0x4 DUP2 ADD SLOAD PUSH1 0x1 PUSH1 0x1 PUSH1 0xA0 SHL SUB AND PUSH1 0x80 DUP7 ADD MSTORE PUSH2 0x1311 PUSH1 0x5 DUP3 ADD PUSH2 0x111A JUMP JUMPDEST PUSH1 0xA0 DUP7 ADD MSTORE PUSH2 0x1322 PUSH1 0x6 DUP3 ADD PUSH2 0x111A JUMP JUMPDEST PUSH1 0xC0 DUP7 ADD MSTORE PUSH1 0x7 DUP2 ADD SLOAD PUSH1 0xE0 DUP7 ADD MSTORE ADD SLOAD AND ISZERO ISZERO SWAP2 ADD MSTORE JUMP JUMPDEST PUSH1 0x1 PUSH1 0x1 PUSH1 0x40 SHL SUB DUP2 GT PUSH2 0x921 JUMPI PUSH1 0x5 SHL PUSH1 0x20 ADD SWAP1 JUMP JUMPDEST DUP1 MLOAD DUP3 LT ISZERO PUSH2 0xFEB JUMPI PUSH1 0x20 SWAP2 PUSH1 0x5 SHL ADD ADD SWAP1 JUMP INVALID LOG2 PUSH5 0x6970667358 0x22 SLT KECCAK256 0xB8 SLOAD OR 0xC8 0x4D DUP9 EQ LT SWAP8 0xE7 PUSH9 0x79CC10ECD795299DBA SLT 0x1E TLOAD 0x1F SWAP15 0xBC 0xA5 0x23 0xC5 PUSH24 0xDEA464736F6C634300081800330000000000000000000000 "},"methodIdentifiers":{"collections(uint256)":"fdbda0ec","collectorCollections(address,uint256)":"4260694d","getAllCollections()":"6804a958","getCollection(uint256)":"5a1f3c28","getCollectorCollections(address)":"fd4c98d2","getTotalCollections()":"939bf6dd","nextCollectionId()":"e77d6f7c","owner()":"8da5cb5b","submitCollection(string,string,string,string,string)":"3a3a91e6","updateOwner(address)":"880cdc31","verifyCollection(uint256)":"18d37620"}}}}}