{"contracts/HerbNFTv2.sol":{"HerbNFTv2":{"abi":[{"inputs":[],"stateMutability":"nonpayable","type":"constructor"},{"inputs":[],"name":"AccessControlBadConfirmation","type":"error"},{"inputs":[{"internalType":"address","name":"account","type":"address"},{"internalType":"bytes32","name":"neededRole","type":"bytes32"}],"name":"AccessControlUnauthorizedAccount","type":"error"},{"inputs":[{"internalType":"address","name":"sender","type":"address"},{"internalType":"uint256","name":"tokenId","type":"uint256"},{"internalType":"address","name":"owner","type":"address"}],"name":"ERC721IncorrectOwner","type":"error"},{"inputs":[{"internalType":"address","name":"operator","type":"address"},{"internalType":"uint256","name":"tokenId","type":"uint256"}],"name":"ERC721InsufficientApproval","type":"error"},{"inputs":[{"internalType":"address","name":"approver","type":"address"}],"name":"ERC721InvalidApprover","type":"error"},{"inputs":[{"internalType":"address","name":"operator","type":"address"}],"name":"ERC721InvalidOperator","type":"error"},{"inputs":[{"internalType":"address","name":"owner","type":"address"}],"name":"ERC721InvalidOwner","type":"error"},{"inputs":[{"internalType":"address","name":"receiver","type":"address"}],"name":"ERC721InvalidReceiver","type":"error"},{"inputs":[{"internalType":"address","name":"sender","type":"address"}],"name":"ERC721InvalidSender","type":"error"},{"inputs":[{"internalType":"uint256","name":"tokenId","type":"uint256"}],"name":"ERC721NonexistentToken","type":"error"},{"inputs":[],"name":"EnforcedPause","type":"error"},{"inputs":[],"name":"ExpectedPause","type":"error"},{"inputs":[],"name":"ReentrancyGuardReentrantCall","type":"error"},{"anonymous":false,"inputs":[{"indexed":true,"internalType":"address","name":"owner","type":"address"},{"indexed":true,"internalType":"address","name":"approved","type":"address"},{"indexed":true,"internalType":"uint256","name":"tokenId","type":"uint256"}],"name":"Approval","type":"event"},{"anonymous":false,"inputs":[{"indexed":true,"internalType":"address","name":"owner","type":"address"},{"indexed":true,"internalType":"address","name":"operator","type":"address"},{"indexed":false,"internalType":"bool","name":"approved","type":"bool"}],"name":"ApprovalForAll","type":"event"},{"anonymous":false,"inputs":[{"indexed":false,"internalType":"uint256","name":"_fromTokenId","type":"uint256"},{"indexed":false,"internalType":"uint256","name":"_toTokenId","type":"uint256"}],"name":"BatchMetadataUpdate","type":"event"},{"anonymous":false,"inputs":[{"indexed":true,"internalType":"uint256","name":"tokenId","type":"uint256"},{"indexed":false,"internalType":"int256","name":"temperature","type":"int256"},{"indexed":false,"internalType":"uint256","name":"humidity","type":"uint256"},{"indexed":false,"internalType":"uint256","name":"timestamp","type":"uint256"}],"name":"EnvironmentalDataUpdated","type":"event"},{"anonymous":false,"inputs":[{"indexed":true,"internalType":"uint256","name":"tokenId","type":"uint256"},{"indexed":true,"internalType":"address","name":"collector","type":"address"},{"indexed":false,"internalType":"string","name":"herbName","type":"string"},{"indexed":false,"internalType":"string","name":"batchCode","type":"string"},{"indexed":false,"internalType":"uint256","name":"timestamp","type":"uint256"}],"name":"HerbBatchMinted","type":"event"},{"anonymous":false,"inputs":[{"indexed":true,"internalType":"uint256","name":"tokenId","type":"uint256"},{"indexed":true,"internalType":"address","name":"verifier","type":"address"},{"indexed":false,"internalType":"string","name":"qualityGrade","type":"string"}],"name":"HerbBatchVerified","type":"event"},{"anonymous":false,"inputs":[{"indexed":false,"internalType":"uint256","name":"_tokenId","type":"uint256"}],"name":"MetadataUpdate","type":"event"},{"anonymous":false,"inputs":[{"indexed":false,"internalType":"address","name":"account","type":"address"}],"name":"Paused","type":"event"},{"anonymous":false,"inputs":[{"indexed":true,"internalType":"bytes32","name":"role","type":"bytes32"},{"indexed":true,"internalType":"bytes32","name":"previousAdminRole","type":"bytes32"},{"indexed":true,"internalType":"bytes32","name":"newAdminRole","type":"bytes32"}],"name":"RoleAdminChanged","type":"event"},{"anonymous":false,"inputs":[{"indexed":true,"internalType":"bytes32","name":"role","type":"bytes32"},{"indexed":true,"internalType":"address","name":"account","type":"address"},{"indexed":true,"internalType":"address","name":"sender","type":"address"}],"name":"RoleGranted","type":"event"},{"anonymous":false,"inputs":[{"indexed":true,"internalType":"bytes32","name":"role","type":"bytes32"},{"indexed":true,"internalType":"address","name":"account","type":"address"},{"indexed":true,"internalType":"address","name":"sender","type":"address"}],"name":"RoleRevoked","type":"event"},{"anonymous":false,"inputs":[{"indexed":true,"internalType":"address","name":"from","type":"address"},{"indexed":true,"internalType":"address","name":"to","type":"address"},{"indexed":true,"internalType":"uint256","name":"tokenId","type":"uint256"}],"name":"Transfer","type":"event"},{"anonymous":false,"inputs":[{"indexed":false,"internalType":"address","name":"account","type":"address"}],"name":"Unpaused","type":"event"},{"inputs":[],"name":"ADMIN_ROLE","outputs":[{"internalType":"bytes32","name":"","type":"bytes32"}],"stateMutability":"view","type":"function"},{"inputs":[],"name":"COLLECTOR_ROLE","outputs":[{"internalType":"bytes32","name":"","type":"bytes32"}],"stateMutability":"view","type":"function"},{"inputs":[],"name":"DEFAULT_ADMIN_ROLE","outputs":[{"internalType":"bytes32","name":"","type":"bytes32"}],"stateMutability":"view","type":"function"},{"inputs":[],"name":"LAB_ROLE","outputs":[{"internalType":"bytes32","name":"","type":"bytes32"}],"stateMutability":"view","type":"function"},{"inputs":[],"name":"MINTER_ROLE","outputs":[{"internalType":"bytes32","name":"","type":"bytes32"}],"stateMutability":"view","type":"function"},{"inputs":[],"name":"PROCESSOR_ROLE","outputs":[{"internalType":"bytes32","name":"","type":"bytes32"}],"stateMutability":"view","type":"function"},{"inputs":[],"name":"VERIFIER_ROLE","outputs":[{"internalType":"bytes32","name":"","type":"bytes32"}],"stateMutability":"view","type":"function"},{"inputs":[{"internalType":"address","name":"to","type":"address"},{"internalType":"uint256","name":"tokenId","type":"uint256"}],"name":"approve","outputs":[],"stateMutability":"nonpayable","type":"function"},{"inputs":[{"internalType":"address","name":"owner","type":"address"}],"name":"balanceOf","outputs":[{"internalType":"uint256","name":"","type":"uint256"}],"stateMutability":"view","type":"function"},{"inputs":[{"internalType":"string","name":"","type":"string"}],"name":"batchCodeToTokenId","outputs":[{"internalType":"uint256","name":"","type":"uint256"}],"stateMutability":"view","type":"function"},{"inputs":[{"internalType":"string[]","name":"_herbNames","type":"string[]"},{"internalType":"string[]","name":"_batchCodes","type":"string[]"},{"internalType":"string[]","name":"_originLocations","type":"string[]"},{"internalType":"string[]","name":"_harvestDates","type":"string[]"},{"internalType":"string[]","name":"_tokenURIs","type":"string[]"}],"name":"batchMint","outputs":[],"stateMutability":"nonpayable","type":"function"},{"inputs":[{"internalType":"uint256","name":"tokenId","type":"uint256"}],"name":"getApproved","outputs":[{"internalType":"address","name":"","type":"address"}],"stateMutability":"view","type":"function"},{"inputs":[{"internalType":"string","name":"_batchCode","type":"string"}],"name":"getBatchByCode","outputs":[{"components":[{"internalType":"uint256","name":"tokenId","type":"uint256"},{"internalType":"string","name":"herbName","type":"string"},{"internalType":"string","name":"batchCode","type":"string"},{"internalType":"address","name":"collector","type":"address"},{"internalType":"string","name":"originLocation","type":"string"},{"internalType":"string","name":"harvestDate","type":"string"},{"internalType":"string","name":"qualityGrade","type":"string"},{"internalType":"uint64","name":"collectionTimestamp","type":"uint64"},{"internalType":"bool","name":"isVerified","type":"bool"},{"internalType":"bool","name":"isProcessed","type":"bool"},{"components":[{"internalType":"int256","name":"temperature","type":"int256"},{"internalType":"uint256","name":"humidity","type":"uint256"},{"internalType":"uint256","name":"airQualityIndex","type":"uint256"},{"internalType":"uint256","name":"lastUpdated","type":"uint256"}],"internalType":"struct HerbNFTv2.EnvironmentalData","name":"environmentalData","type":"tuple"}],"internalType":"struct HerbNFTv2.HerbBatch","name":"","type":"tuple"}],"stateMutability":"view","type":"function"},{"inputs":[{"internalType":"uint256","name":"_tokenId","type":"uint256"}],"name":"getHerbBatch","outputs":[{"components":[{"internalType":"uint256","name":"tokenId","type":"uint256"},{"internalType":"string","name":"herbName","type":"string"},{"internalType":"string","name":"batchCode","type":"string"},{"internalType":"address","name":"collector","type":"address"},{"internalType":"string","name":"originLocation","type":"string"},{"internalType":"string","name":"harvestDate","type":"string"},{"internalType":"string","name":"qualityGrade","type":"string"},{"internalType":"uint64","name":"collectionTimestamp","type":"uint64"},{"internalType":"bool","name":"isVerified","type":"bool"},{"internalType":"bool","name":"isProcessed","type":"bool"},{"components":[{"internalType":"int256","name":"temperature","type":"int256"},{"internalType":"uint256","name":"humidity","type":"uint256"},{"internalType":"uint256","name":"airQualityIndex","type":"uint256"},{"internalType":"uint256","name":"lastUpdated","type":"uint256"}],"internalType":"struct HerbNFTv2.EnvironmentalData","name":"environmentalData","type":"tuple"}],"internalType":"struct HerbNFTv2.HerbBatch","name":"","type":"tuple"}],"stateMutability":"view","type":"function"},{"inputs":[{"internalType":"bytes32","name":"role","type":"bytes32"}],"name":"getRoleAdmin","outputs":[{"internalType":"bytes32","name":"","type":"bytes32"}],"stateMutability":"view","type":"function"},{"inputs":[],"name":"getTotalBatches","outputs":[{"internalType":"uint256","name":"","type":"uint256"}],"stateMutability":"view","type":"function"},{"inputs":[{"internalType":"address","name":"_account","type":"address"}],"name":"grantCollectorRole","outputs":[],"stateMutability":"nonpayable","type":"function"},{"inputs":[{"internalType":"address","name":"_account","type":"address"}],"name":"grantLabRole","outputs":[],"stateMutability":"nonpayable","type":"function"},{"inputs":[{"internalType":"address","name":"_account","type":"address"}],"name":"grantMinterRole","outputs":[],"stateMutability":"nonpayable","type":"function"},{"inputs":[{"internalType":"address","name":"_account","type":"address"}],"name":"grantProcessorRole","outputs":[],"stateMutability":"nonpayable","type":"function"},{"inputs":[{"internalType":"bytes32","name":"role","type":"bytes32"},{"internalType":"address","name":"account","type":"address"}],"name":"grantRole","outputs":[],"stateMutability":"nonpayable","type":"function"},{"inputs":[{"internalType":"address","name":"_account","type":"address"}],"name":"grantVerifierRole","outputs":[],"stateMutability":"nonpayable","type":"function"},{"inputs":[{"internalType":"bytes32","name":"role","type":"bytes32"},{"internalType":"address","name":"account","type":"address"}],"name":"hasRole","outputs":[{"internalType":"bool","name":"","type":"bool"}],"stateMutability":"view","type":"function"},{"inputs":[{"internalType":"bytes32","name":"_role","type":"bytes32"},{"internalType":"address","name":"_account","type":"address"}],"name":"hasRoleByAddress","outputs":[{"internalType":"bool","name":"","type":"bool"}],"stateMutability":"view","type":"function"},{"inputs":[{"internalType":"uint256","name":"","type":"uint256"}],"name":"herbBatches","outputs":[{"internalType":"uint256","name":"tokenId","type":"uint256"},{"internalType":"string","name":"herbName","type":"string"},{"internalType":"string","name":"batchCode","type":"string"},{"internalType":"address","name":"collector","type":"address"},{"internalType":"string","name":"originLocation","type":"string"},{"internalType":"string","name":"harvestDate","type":"string"},{"internalType":"string","name":"qualityGrade","type":"string"},{"internalType":"uint64","name":"collectionTimestamp","type":"uint64"},{"internalType":"bool","name":"isVerified","type":"bool"},{"internalType":"bool","name":"isProcessed","type":"bool"},{"components":[{"internalType":"int256","name":"temperature","type":"int256"},{"internalType":"uint256","name":"humidity","type":"uint256"},{"internalType":"uint256","name":"airQualityIndex","type":"uint256"},{"internalType":"uint256","name":"lastUpdated","type":"uint256"}],"internalType":"struct HerbNFTv2.EnvironmentalData","name":"environmentalData","type":"tuple"}],"stateMutability":"view","type":"function"},{"inputs":[{"internalType":"address","name":"owner","type":"address"},{"internalType":"address","name":"operator","type":"address"}],"name":"isApprovedForAll","outputs":[{"internalType":"bool","name":"","type":"bool"}],"stateMutability":"view","type":"function"},{"inputs":[{"internalType":"uint256","name":"_tokenId","type":"uint256"}],"name":"markAsProcessed","outputs":[],"stateMutability":"nonpayable","type":"function"},{"inputs":[{"internalType":"string","name":"_herbName","type":"string"},{"internalType":"string","name":"_batchCode","type":"string"},{"internalType":"string","name":"_originLocation","type":"string"},{"internalType":"string","name":"_harvestDate","type":"string"},{"internalType":"string","name":"_tokenURI","type":"string"}],"name":"mintHerbBatch","outputs":[{"internalType":"uint256","name":"","type":"uint256"}],"stateMutability":"nonpayable","type":"function"},{"inputs":[],"name":"name","outputs":[{"internalType":"string","name":"","type":"string"}],"stateMutability":"view","type":"function"},{"inputs":[{"internalType":"uint256","name":"tokenId","type":"uint256"}],"name":"ownerOf","outputs":[{"internalType":"address","name":"","type":"address"}],"stateMutability":"view","type":"function"},{"inputs":[],"name":"pause","outputs":[],"stateMutability":"nonpayable","type":"function"},{"inputs":[],"name":"paused","outputs":[{"internalType":"bool","name":"","type":"bool"}],"stateMutability":"view","type":"function"},{"inputs":[{"internalType":"bytes32","name":"role","type":"bytes32"},{"internalType":"address","name":"callerConfirmation","type":"address"}],"name":"renounceRole","outputs":[],"stateMutability":"nonpayable","type":"function"},{"inputs":[{"internalType":"address","name":"_account","type":"address"}],"name":"revokeMinterRole","outputs":[],"stateMutability":"nonpayable","type":"function"},{"inputs":[{"internalType":"bytes32","name":"role","type":"bytes32"},{"internalType":"address","name":"account","type":"address"}],"name":"revokeRole","outputs":[],"stateMutability":"nonpayable","type":"function"},{"inputs":[{"internalType":"address","name":"_account","type":"address"}],"name":"revokeVerifierRole","outputs":[],"stateMutability":"nonpayable","type":"function"},{"inputs":[{"internalType":"address","name":"from","type":"address"},{"internalType":"address","name":"to","type":"address"},{"internalType":"uint256","name":"tokenId","type":"uint256"}],"name":"safeTransferFrom","outputs":[],"stateMutability":"nonpayable","type":"function"},{"inputs":[{"internalType":"address","name":"from","type":"address"},{"internalType":"address","name":"to","type":"address"},{"internalType":"uint256","name":"tokenId","type":"uint256"},{"internalType":"bytes","name":"data","type":"bytes"}],"name":"safeTransferFrom","outputs":[],"stateMutability":"nonpayable","type":"function"},{"inputs":[{"internalType":"address","name":"operator","type":"address"},{"internalType":"bool","name":"approved","type":"bool"}],"name":"setApprovalForAll","outputs":[],"stateMutability":"nonpayable","type":"function"},{"inputs":[{"internalType":"bytes4","name":"interfaceId","type":"bytes4"}],"name":"supportsInterface","outputs":[{"internalType":"bool","name":"","type":"bool"}],"stateMutability":"view","type":"function"},{"inputs":[],"name":"symbol","outputs":[{"internalType":"string","name":"","type":"string"}],"stateMutability":"view","type":"function"},{"inputs":[{"internalType":"uint256","name":"tokenId","type":"uint256"}],"name":"tokenURI","outputs":[{"internalType":"string","name":"","type":"string"}],"stateMutability":"view","type":"function"},{"inputs":[{"internalType":"address","name":"from","type":"address"},{"internalType":"address","name":"to","type":"address"},{"internalType":"uint256","name":"tokenId","type":"uint256"}],"name":"transferFrom","outputs":[],"stateMutability":"nonpayable","type":"function"},{"inputs":[],"name":"unpause","outputs":[],"stateMutability":"nonpayable","type":"function"},{"inputs":[{"internalType":"uint256","name":"_tokenId","type":"uint256"},{"internalType":"int256","name":"_temperature","type":"int256"},{"internalType":"uint256","name":"_humidity","type":"uint256"},{"internalType":"uint256","name":"_airQualityIndex","type":"uint256"}],"name":"updateEnvironmentalData","outputs":[],"stateMutability":"nonpayable","type":"function"},{"inputs":[{"internalType":"uint256","name":"_tokenId","type":"uint256"},{"internalType":"string","name":"_qualityGrade","type":"string"}],"name":"verifyHerbBatch","outputs":[],"stateMutability":"nonpayable","type":"function"}],"evm":{"bytecode":{"linkReferences":{},"object":"60803462000341576001600160401b0390604090808201838111828210176200032b578252600f81526020926e20bcbab92432b9311027232a103b1960891b848301528251838101818110838211176200032b578452600781526620a427232a3b1960c91b858201528251908282116200032b5760008054926001958685811c9516801562000320575b898610146200030c578190601f95868111620002b9575b5089908683116001146200025557849262000249575b5050600019600383901b1c191690861b1781555b8151938411620002355784548581811c911680156200022a575b888210146200021657838111620001ce575b508692841160011462000168578394959650926200015c575b5050600019600383901b1c191690821b1781555b80600855600a55620001353362000346565b506200014133620003c7565b506200014d336200046a565b5051613ce19081620005098239f35b0151905038806200010f565b9190601f1984169685845280842093905b888210620001b657505083859697106200019c575b505050811b01815562000123565b015160001960f88460031b161c191690553880806200018e565b80878596829496860151815501950193019062000179565b8582528782208480870160051c8201928a88106200020c575b0160051c019086905b82811062000200575050620000f6565b838155018690620001f0565b92508192620001e7565b634e487b7160e01b82526022600452602482fd5b90607f1690620000e4565b634e487b7160e01b81526041600452602490fd5b015190503880620000b6565b8480528a85208994509190601f198416865b8d828210620002a2575050841162000288575b505050811b018155620000ca565b015160001960f88460031b161c191690553880806200027a565b8385015186558c9790950194938401930162000267565b9091508380528984208680850160051c8201928c861062000302575b918a91869594930160051c01915b828110620002f3575050620000a0565b8681558594508a9101620002e3565b92508192620002d5565b634e487b7160e01b83526022600452602483fd5b94607f169462000089565b634e487b7160e01b600052604160045260246000fd5b600080fd5b6001600160a01b031660008181527f6d5257204ebe7d88fd91ae87941cb2dd9d8062b64ae5a2bd2d28ec40b9fbf6df602052604081205490919060ff16620003c35781805260076020526040822081835260205260408220600160ff198254161790553391600080516020620041ea8339815191528180a4600190565b5090565b6001600160a01b031660008181527fa70365933f78520ef41d6645ba61e509916296603327302d41466c063e8e260860205260408120549091907fa49807205ce4d355092ef5a8a18f56e8913cf4a201fbe287825b095693c217759060ff16620004655780835260076020526040832082845260205260408320600160ff19825416179055600080516020620041ea833981519152339380a4600190565b505090565b6001600160a01b031660008181527fa4bfd7afe708e2e87e7f0e2ad9b4d545417e0f795f57b5c5ab5d799c565a04f460205260408120549091907f9f2df0fed2c77648de5860a4cc508cd0818c85b8b8a1ab4ceeef8d981c8956a69060ff16620004655780835260076020526040832082845260205260408320600160ff19825416179055600080516020620041ea833981519152339380a460019056fe608080604052600436101561001357600080fd5b60003560e01c90816301ffc9a7146128b0575080630337c06114612845578063033f0651146114c057806304e542dd146127c857806306fdde031461271d578063081812fc146126df578063095ea7b3146125f857806323b872dd146125e1578063247ab51f1461253f578063248a9ca3146125105780632f2ff15d146124d157806330aaefda1461245457806336568abe1461240d5780633dd1eb61146123a25780633f4ba83a1461233857806342842e0e1461230a5780634286bb2e146121985780635071f0011461204a5780635c975abb146120275780636352211e14611ff75780636692771e146117e557806369e2f0fb1461177a57806370a082311461172157806375b238fc146116e65780638222bdb2146116ab5780638456cb591461165157806388fa2aa81461150d57806391d14854146114c057806395d89b41146113dd5780639ca39ae9146113a2578063a217fddf14611386578063a22cb465146112e1578063a3669aef14611276578063a752c69c1461121a578063b88d4fde146111af578063bd3070c614611174578063c87b56dd1461111b578063d381ba4414611017578063d539139314610fee578063d547741f14610faf578063e055315b146106a5578063e561dddc14610664578063e70047c51461031c578063e7705db6146102f3578063e83c97de146102745763e985e9c51461021957600080fd5b3461026f57604036600319011261026f5761023261294f565b61023a612965565b9060018060a01b03809116600052600560205260406000209116600052602052602060ff604060002054166040519015158152f35b600080fd5b3461026f57602036600319011261026f576102f161029061294f565b610298613179565b7f373fdac787be5578b9a3d4a9ca3e3ae1e632ab5ee4750e92f65223238a15b2ef60005260076020527ffc5d98ca782d8179d21919cc8dc8a0b0515f909d18f8c0522e3f9567cc3c6ee0546102ec906131e1565b61349f565b005b3461026f57600036600319011261026f576020604051600080516020613c6c8339815191528152f35b3461026f57604036600319011261026f576004356001600160401b0360243581811161026f576103509036906004016129f8565b336000908152600080516020613c2c8339815191526020908152604090912054909492919060ff168015610636575b61038890612f96565b610390613242565b61039d600a548410612f53565b82600052600b855260ff60076040600020015460401c166105fe5760405193858501604160f81b81526001958681526103d581612b78565b51902060405187810190602160f91b82528781526103f281612b78565b5190209060405188810190604360f81b825288815261041081612b78565b5190209060405189810190868883376104388b82898101600083820152038084520182612b93565b5190209081149283156105f4575b5082156105ea575b5050156105ad5783600052600b865260066040600020600781016801000000000000000060ff60401b19825416179055019082116105975761049a826104948354612ca3565b83613102565b600094601f831160011461051657506104ed82807f38fd55d5eb9ed975c430ee6a0d82e6074d8e89db86b31bf01177f98032342140969760009161050b575b508160011b916000199060031b1c19161790565b90555b6105066040519283928784523397840191613158565b0390a3005b9050850135896104d9565b601f1983169582600052876000209060005b89898210610583575050847f38fd55d5eb9ed975c430ee6a0d82e6074d8e89db86b31bf01177f98032342140979810610569575b505082811b0190556104f0565b850135600019600386901b60f8161c19169055878061055c565b878301358455928401929182019101610528565b634e487b7160e01b600052604160045260246000fd5b60405162461bcd60e51b8152600481018790526015602482015274496e76616c6964207175616c69747920677261646560581b6044820152606490fd5b149050878061044e565b8114925089610446565b60405162461bcd60e51b815260048101869052601060248201526f105b1c9958591e481d995c9a599a595960821b6044820152606490fd5b50600080516020613c6c8339815191526000908152600786526040808220338352875290205460ff1661037f565b3461026f57600036600319011261026f57600a54600019810190811161068f57602090604051908152f35b634e487b7160e01b600052601160045260246000fd5b3461026f5760a036600319011261026f576004356001600160401b03811161026f576106d59036906004016129f8565b6024356001600160401b03811161026f576106f49036906004016129f8565b9190926044356001600160401b03811161026f576107169036906004016129f8565b9490936064356001600160401b03811161026f576107389036906004016129f8565b95906084356001600160401b03811161026f576107599036906004016129f8565b9790610763613242565b61076b61373d565b336000908152600080516020613c8c833981519152602052604090205460ff168015610f89575b61079b90613060565b8715610f44578415610eff578915610eba5760405185878237602081878101600c81520301902054610e7557600a54986107d48a6130ac565b600a556107e18a33613760565b36906107ec92612bcf565b6107f6908961398e565b6040519261080384612b26565b600084526020840160009052604084016000905260608401600090526040519961082c8b612b41565b898b5261083a368a8a612bcf565b60208c015261084a368789612bcf565b60408c01523360608c0152369061086092612bcf565b60808a0152369061087092612bcf565b60a088015261087d6130e5565b60c0880152426001600160401b031660e088015261010087016000905261012087016000905261014087015284600052600b6020526040600020928651845560208701518051906001600160401b038211610597576108ec826108e36001890154612ca3565b60018901613102565b602090601f8311600114610e035761091d929160009183610ca2575b50508160011b916000199060031b1c19161790565b60018501555b60408701518051906001600160401b038211610597576109538261094a6002890154612ca3565b60028901613102565b602090601f8311600114610d9157610983929160009183610ca25750508160011b916000199060031b1c19161790565b60028501555b6003840160018060a01b036060890151166bffffffffffffffffffffffff60a01b82541617905560808701518051906001600160401b038211610597576109e0826109d76004890154612ca3565b60048901613102565b602090601f8311600114610d1f57610a10929160009183610ca25750508160011b916000199060031b1c19161790565b60048501555b60a08701518051906001600160401b03821161059757610a4682610a3d6005890154612ca3565b60058901613102565b602090601f8311600114610cad57610a76929160009183610ca25750508160011b916000199060031b1c19161790565b60058501555b60c0870151938451976001600160401b03891161059757888896610ab260209b610aa96006870154612ca3565b60068701613102565b8a90601f8311600114610bfe576060610140610bcc95610b15867f8fc3c5f6a5d8fa33efd13543f345e7bf783b2a5e6f32421f47f2458d67c93e1b9c9a97610bd99c9a97600b97600092610bf35750508160011b916000199060031b1c19161790565b60068601555b60e081015160078601805461010084015160ff60401b90151560401b166001600160401b0390931668ffffffffffffffffff1990911617919091178155610b83905b610120830151815460ff60481b191690151560481b69ff00000000000000000016179055565b0151805160088501558d81015160098501556040810151600a850155015191015586604051848682378b81868101600c8152030190205560405197606089526060890191613158565b9186830389880152613158565b924260408201528033940390a36001600855604051908152f35b015190503880610908565b90600685016000528b6000209160005b601f1985168110610c885750610140610bcc95600186610bd99b9996600b966060967f8fc3c5f6a5d8fa33efd13543f345e7bf783b2a5e6f32421f47f2458d67c93e1b9f9d9a601f19811610610c6f575b505050811b016006860155610b1b565b015160001960f88460031b161c19169055388080610c5f565b8183015184558c9a50600190930192918d01918d01610c0e565b015190508a80610908565b9190600587016000526020600020906000935b601f1984168510610d04576001945083601f19811610610ceb575b505050811b016005850155610a7c565b015160001960f88460031b161c19169055898080610cdb565b81810151835560209485019460019093019290910190610cc0565b9190600487016000526020600020906000935b601f1984168510610d76576001945083601f19811610610d5d575b505050811b016004850155610a16565b015160001960f88460031b161c19169055898080610d4d565b81810151835560209485019460019093019290910190610d32565b9190600287016000526020600020906000935b601f1984168510610de8576001945083601f19811610610dcf575b505050811b016002850155610989565b015160001960f88460031b161c19169055898080610dbf565b81810151835560209485019460019093019290910190610da4565b9190600187016000526020600020906000935b601f1984168510610e5a576001945083601f19811610610e41575b505050811b016001850155610923565b015160001960f88460031b161c19169055898080610e31565b81810151835560209485019460019093019290910190610e16565b60405162461bcd60e51b815260206004820152601960248201527f426174636820636f646520616c726561647920657869737473000000000000006044820152606490fd5b60405162461bcd60e51b815260206004820152601f60248201527f4f726967696e206c6f636174696f6e2063616e6e6f7420626520656d707479006044820152606490fd5b60405162461bcd60e51b815260206004820152601a60248201527f426174636820636f64652063616e6e6f7420626520656d7074790000000000006044820152606490fd5b60405162461bcd60e51b815260206004820152601960248201527f48657262206e616d652063616e6e6f7420626520656d707479000000000000006044820152606490fd5b50336000908152600080516020613c2c833981519152602052604090205460ff16610792565b3461026f57604036600319011261026f576102f1600435610fce612965565b90806000526007602052610fe96001604060002001546131e1565b6136c6565b3461026f57600036600319011261026f576020604051600080516020613c4c8339815191528152f35b3461026f57602036600319011261026f57600435611033612fec565b50611041600a548210612f53565b600052600b602052611117604060002061110560086040519261106384612b41565b8054845261107360018201612cdd565b602085015261108460028201612cdd565b604085015260038101546001600160a01b031660608501526110a860048201612cdd565b60808501526110b960058201612cdd565b60a08501526110ca60068201612cdd565b60c085015260ff60078201546001600160401b03811660e0870152818160401c16151561010087015260481c16151561012085015201612d82565b61014082015260405191829182612a25565b0390f35b3461026f57602036600319011261026f5760043561113881613207565b5060005260066020526111176111516040600020612cdd565b600060405161115f81612b5d565b5260405191829160208352602083019061299e565b3461026f57600036600319011261026f5760206040517f373fdac787be5578b9a3d4a9ca3e3ae1e632ab5ee4750e92f65223238a15b2ef8152f35b3461026f57608036600319011261026f576111c861294f565b6111d0612965565b90604435606435926001600160401b03841161026f573660238501121561026f576112086102f1943690602481600401359101612bcf565b92611214838383612db4565b33613abd565b3461026f57602036600319011261026f576004356001600160401b03811161026f57611263602061125081933690600401612c06565b816040519382858094519384920161297b565b8101600c81520301902054604051908152f35b3461026f57602036600319011261026f576102f161129261294f565b61129a613179565b600080516020613c6c83398151915260005260076020527f68cfe6f8c4a0a51fa498a36243209c54367e0b93d1a273c9f15bac776a478d02546112dc906131e1565b61362c565b3461026f57604036600319011261026f576112fa61294f565b6024359081151580920361026f576001600160a01b031690811561136d57336000526005602052604060002082600052602052604060002060ff1981541660ff83161790556040519081527f17307eab39ab6107e8899845ad3d59bd9653f200f220920489ca2b5937696c3160203392a3005b604051630b61174360e31b815260048101839052602490fd5b3461026f57600036600319011261026f57602060405160008152f35b3461026f57600036600319011261026f5760206040517f14cf45180c3fcf249a5a305e9657ea05c14fd4f4e1800ee0216a8213091711d28152f35b3461026f57600036600319011261026f5760405160006001826001549261140384612ca3565b92838352602094856001821691826000146114a0575050600114611443575b5061142f92500383612b93565b61111760405192828493845283019061299e565b84915060016000527fb10e2d527612073b26eecdfd717e6a320cf44b4afac2b0732d9fcbe2b7fa0cf6906000915b85831061148857505061142f935082010185611422565b80548389018501528794508693909201918101611471565b60ff19168582015261142f95151560051b85010192508791506114229050565b3461026f57604036600319011261026f576114d9612965565b600435600052600760205260406000209060018060a01b0316600052602052602060ff604060002054166040519015158152f35b3461026f57602036600319011261026f57600435600052600b602052604060002080546001820161153d90612cdd565b9161154a60028201612cdd565b60038201546001600160a01b031661156460048401612cdd565b61157060058501612cdd565b9061157d60068601612cdd565b9260078601549560080161159090612d82565b946040519889986101c0908a528060208b015289016115ae9161299e565b88810360408a01526115bf9161299e565b90606088015286810360808801526115d69161299e565b85810360a08701526115e79161299e565b84810360c08601526115f89161299e565b916001600160401b03811660e08501528060401c60ff16151561010085015260481c60ff161515610120840152610140830161111791606080918051845260208101516020850152604081015160408501520151910152565b3461026f57600036600319011261026f5761166a613179565b611672613242565b600160ff1960095416176009557f62e78cea01bee320cd4e420270b5ea74000d11b0c9f74754ebdbfc544b05a2586020604051338152a1005b3461026f57600036600319011261026f5760206040517fe61decff6e4a5c6b5a3d3cbd28f882e595173563b49353ce5f31dba2de7f05ee8152f35b3461026f57600036600319011261026f5760206040517fa49807205ce4d355092ef5a8a18f56e8913cf4a201fbe287825b095693c217758152f35b3461026f57602036600319011261026f576001600160a01b0361174261294f565b1680156117615760005260036020526020604060002054604051908152f35b6040516322718ad960e21b815260006004820152602490fd5b3461026f57602036600319011261026f576102f161179661294f565b61179e613179565b600080516020613c4c83398151915260005260076020527fa4bfd7afe708e2e87e7f0e2ad9b4d545417e0f795f57b5c5ab5d799c565a04f5546117e0906131e1565b6135a4565b3461026f5760a036600319011261026f576004356001600160401b03811161026f57611815903690600401612c21565b6024356001600160401b03811161026f57611834903690600401612c21565b6044356001600160401b03811161026f57611853903690600401612c21565b906064356001600160401b03811161026f57611873903690600401612c21565b6084356001600160401b03811161026f57611892903690600401612c21565b9061189b613242565b6118a361373d565b336000908152600080516020613c8c833981519152602052604090205460ff168015611fd1575b6118d390613060565b845183518091149081611fc6575b5080611fbb575b80611fb0575b15611f735760005b8551811015611f6c57600a5461190b816130ac565b600a556119188133613760565b61192c61192583866130bb565b518261398e565b61193682886130bb565b5161194183876130bb565b5161194c84896130bb565b5161195785876130bb565b516040519161196583612b26565b600083526000602084015260006040840152600060608401526040519361198b85612b41565b868552602085019586526040850152336060850152608084015260a08301526119b26130e5565b60c08301526001600160401b03421660e08301526000610100830152600061012083015261014082015282600052600b60205260406000209181518355518051906001600160401b03821161059757611a1b82611a126001870154612ca3565b60018701613102565b602090601f8311600114611efa57611a4b929160009183611d995750508160011b916000199060031b1c19161790565b60018301555b60408101518051906001600160401b03821161059757611a8182611a786002870154612ca3565b60028701613102565b602090601f8311600114611e8857611ab1929160009183611d995750508160011b916000199060031b1c19161790565b60028301555b6003820160018060a01b036060830151166bffffffffffffffffffffffff60a01b82541617905560808101518051906001600160401b03821161059757611b0e82611b056004870154612ca3565b60048701613102565b602090601f8311600114611e1657611b3e929160009183611d995750508160011b916000199060031b1c19161790565b60048301555b60a08101518051906001600160401b03821161059757611b7482611b6b6005870154612ca3565b60058701613102565b602090601f8311600114611da457611ba4929160009183611d995750508160011b916000199060031b1c19161790565b60058301555b60c08101518051906001600160401b03821161059757611bd182610aa96006870154612ca3565b602090601f8311600114611d1d57600196959493611c0f84600b9560609561014095600092610bf35750508160011b916000199060031b1c19161790565b60068601555b60e081015160078601805461010084015160ff60401b90151560401b166001600160401b0390931668ffffffffffffffffff1990911617919091178155611c5b90610b5d565b015180516008850155602081015160098501556040810151600a850155015191015580611ca16020611c8d858a6130bb565b51816040519382858094519384920161297b565b8101600c81520301902055611cb682896130bb565b51907f8fc3c5f6a5d8fa33efd13543f345e7bf783b2a5e6f32421f47f2458d67c93e1b611d0a611ce6858a6130bb565b51611cfc6040519560608752606087019061299e565b90858203602087015261299e565b924260408201528033940390a3016118f6565b906006850160005260206000209160005b601f1985168110611d8157509360018460609461014094839b9a9998600b98601f19811610611d68575b505050811b016006860155611c15565b015160001960f88460031b161c191690558f8080611d58565b91926020600181928685015181550194019201611d2e565b015190508c80610908565b9190600585016000526020600020906000935b601f1984168510611dfb576001945083601f19811610611de2575b505050811b016005830155611baa565b015160001960f88460031b161c191690558b8080611dd2565b81810151835560209485019460019093019290910190611db7565b9190600485016000526020600020906000935b601f1984168510611e6d576001945083601f19811610611e54575b505050811b016004830155611b44565b015160001960f88460031b161c191690558b8080611e44565b81810151835560209485019460019093019290910190611e29565b9190600285016000526020600020906000935b601f1984168510611edf576001945083601f19811610611ec6575b505050811b016002830155611ab7565b015160001960f88460031b161c191690558b8080611eb6565b81810151835560209485019460019093019290910190611e9b565b9190600185016000526020600020906000935b601f1984168510611f51576001945083601f19811610611f38575b505050811b016001830155611a51565b015160001960f88460031b161c191690558b8080611f28565b81810151835560209485019460019093019290910190611f0d565b6001600855005b60405162461bcd60e51b8152602060048201526015602482015274082e4e4c2f240d8cadccee8d040dad2e6dac2e8c6d605b1b6044820152606490fd5b5080518251146118ee565b5083518151146118e8565b9050845114866118e1565b50336000908152600080516020613c2c833981519152602052604090205460ff166118ca565b3461026f57602036600319011261026f576020612015600435613207565b6040516001600160a01b039091168152f35b3461026f57600036600319011261026f57602060ff600954166040519015158152f35b3461026f57602036600319011261026f576001600160401b0360043581811161026f5761207d60209136906004016129f8565b9190612087612fec565b508260405193849283378101600c815203019020549081156121615761111791600052600b6020526111056008604060002060ff604051946120c886612b41565b825486526120d860018401612cdd565b60208701526120e960028401612cdd565b604087015260038301546001600160a01b0316606087015261210d60048401612cdd565b608087015261211e60058401612cdd565b60a087015261212f60068401612cdd565b60c0870152600783015490811660e0870152818160401c16151561010087015260481c16151561012085015201612d82565b60405162461bcd60e51b815260206004820152600f60248201526e10985d18da081b9bdd08199bdd5b99608a1b6044820152606490fd5b3461026f57608036600319011261026f576004356024356044357fa49807205ce4d355092ef5a8a18f56e8913cf4a201fbe287825b095693c21775600052602060078152604060002033600052815260ff6040600020541680156122dc575b61220090612f96565b612208613242565b612215600a548510612f53565b6064821161229f57916060917f95524c7d8850e7594d5662482abb0db94193e11a206711bded04ad1d345e750a9360405161224f81612b26565b838152600b828201848152604083016064358152878401914283528a60005283865260406000209451600886015551600985015551600a84015551910155604051928352820152426040820152a2005b6064906040519062461bcd60e51b825260048201526016602482015275048756d6964697479206d75737420626520302d3130360541b6044820152fd5b50600080516020613c6c8339815191526000908152600782526040808220338352835290205460ff166121f7565b3461026f576102f161231b366129c3565b906040519261232984612b5d565b60008452611214838383612db4565b3461026f57600036600319011261026f57612351613179565b60095460ff8116156123905760ff19166009557f5db9ee0a495bf2e6ff9c91a7834c1ba4fdd244a5e8aa4e537bd38aeae4b073aa6020604051338152a1005b604051638dfc202b60e01b8152600490fd5b3461026f57602036600319011261026f576102f16123be61294f565b6123c6613179565b600080516020613c4c83398151915260005260076020527fa4bfd7afe708e2e87e7f0e2ad9b4d545417e0f795f57b5c5ab5d799c565a04f554612408906131e1565b613427565b3461026f57604036600319011261026f57612426612965565b336001600160a01b03821603612442576102f1906004356136c6565b60405163334bd91960e11b8152600490fd5b3461026f57602036600319011261026f576102f161247061294f565b612478613179565b7f14cf45180c3fcf249a5a305e9657ea05c14fd4f4e1800ee0216a8213091711d260005260076020527f9a93d366c96821523b1013ee60686da29aec06e7c28b7ad65ea7ea0d51fd7fcf546124cc906131e1565b61338b565b3461026f57604036600319011261026f576102f16004356124f0612965565b9080600052600760205261250b6001604060002001546131e1565b61353b565b3461026f57602036600319011261026f5760043560005260076020526020600160406000200154604051908152f35b3461026f57602036600319011261026f5760043561255b613242565b612568600a548210612f53565b61257181613207565b336001600160a01b03909116036125ac576000908152600b60205260409020600701805460ff60481b19166901000000000000000000179055005b60405162461bcd60e51b815260206004820152600d60248201526c2737ba103a34329037bbb732b960991b6044820152606490fd5b3461026f576102f16125f2366129c3565b91612db4565b3461026f57604036600319011261026f5761261161294f565b60243561261d81613207565b331515806126cc575b8061269f575b612687576001600160a01b039283169282918491167f8c5be1e5ebec7d5bd14f71427d1e84f3dd0314c0f7b2291e5b200ac8c7c3b925600080a4600090815260046020526040902080546001600160a01b0319169091179055005b60405163a9fbf51f60e01b8152336004820152602490fd5b5060018060a01b038116600052600560205260406000203360005260205260ff604060002054161561262c565b506001600160a01b038116331415612626565b3461026f57602036600319011261026f576004356126fc81613207565b506000526004602052602060018060a01b0360406000205416604051908152f35b3461026f57600036600319011261026f5760405160008054908261274083612ca3565b91828252602093600190856001821691826000146114a057505060011461276e575061142f92500383612b93565b6000808052859250907f290decd9548b62a8d60345a988386fc84ba6bc95484008f6362f93160ef3e5635b8583106127b057505061142f935082010185611422565b80548389018501528794508693909201918101612799565b3461026f57602036600319011261026f576102f16127e461294f565b6127ec613179565b7fe61decff6e4a5c6b5a3d3cbd28f882e595173563b49353ce5f31dba2de7f05ee60005260076020527f50055816adb7d578513aa90fe122cd0cc1caa8167abbe37a1ae9b211f48b92d354612840906131e1565b6132ef565b3461026f57602036600319011261026f576102f161286161294f565b612869613179565b600080516020613c6c83398151915260005260076020527f68cfe6f8c4a0a51fa498a36243209c54367e0b93d1a273c9f15bac776a478d02546128ab906131e1565b613260565b3461026f57602036600319011261026f576004359063ffffffff60e01b821680920361026f57602091637965db0b60e01b81149081156128f2575b5015158152f35b632483248360e11b81149150811561290c575b50836128eb565b6380ac58cd60e01b81149150811561293e575b811561292d575b5083612905565b6301ffc9a760e01b14905083612926565b635b5e139f60e01b8114915061291f565b600435906001600160a01b038216820361026f57565b602435906001600160a01b038216820361026f57565b60005b83811061298e5750506000910152565b818101518382015260200161297e565b906020916129b78151809281855285808601910161297b565b601f01601f1916010190565b606090600319011261026f576001600160a01b0390600435828116810361026f5791602435908116810361026f579060443590565b9181601f8401121561026f578235916001600160401b03831161026f576020838186019501011161026f57565b612b23906020815282516020820152610160612ac9612a5560208601516101c060408601526101e085019061299e565b612ab4612aa0612a77604089015193601f1994858983030160608a015261299e565b60608901516001600160a01b0316608088810191909152890151878203850160a089015261299e565b60a0880151838783030160c088015261299e565b9060c0870151908583030160e086015261299e565b9360e08101516001600160401b036101009116818501528101516101209015158185015281015190610140911515828501520151910190606080918051845260208101516020850152604081015160408501520151910152565b90565b608081019081106001600160401b0382111761059757604052565b61016081019081106001600160401b0382111761059757604052565b602081019081106001600160401b0382111761059757604052565b604081019081106001600160401b0382111761059757604052565b90601f801991011681019081106001600160401b0382111761059757604052565b6001600160401b03811161059757601f01601f191660200190565b929192612bdb82612bb4565b91612be96040519384612b93565b82948184528183011161026f578281602093846000960137010152565b9080601f8301121561026f57816020612b2393359101612bcf565b81601f8201121561026f578035916020916001600160401b03808511610597578460051b9060405195612c5686840188612b93565b865284808701928401019380851161026f57858401925b858410612c7e575050505050505090565b833583811161026f578791612c98848480948a0101612c06565b815201930192612c6d565b90600182811c92168015612cd3575b6020831014612cbd57565b634e487b7160e01b600052602260045260246000fd5b91607f1691612cb2565b90604051918260008254612cf081612ca3565b90818452602094600191600181169081600014612d605750600114612d21575b505050612d1f92500383612b93565b565b600090815285812095935091905b818310612d48575050612d1f9350820101388080612d10565b85548884018501529485019487945091830191612d2f565b92505050612d1f94925060ff191682840152151560051b820101388080612d10565b90604051612d8f81612b26565b6060600382948054845260018101546020850152600281015460408501520154910152565b6001600160a01b039182169290918315612f3a57600092828452826020956002875260409684888820541696879133151580612ea4575b509060027fddf252ad1be2c89b69c2b068fc378daa952ba7f163c4a11628f55a4df523b3ef9284612e71575b858352600381528b8320805460010190558683525289812080546001600160a01b0319168517905580a41692838303612e505750505050565b6064945051926364283d7b60e01b8452600484015260248301526044820152fd5b600087815260046020526040902080546001600160a01b0319169055848352600381528b83208054600019019055612e17565b91939450915080612ef9575b15612ec057859291879138612deb565b878688612edd576024915190637e27328960e01b82526004820152fd5b604491519063177e802f60e01b82523360048301526024820152fd5b503387148015612f1e575b80612eb05750858252600481523385898420541614612eb0565b5086825260058152878220338352815260ff8883205416612f04565b604051633250574960e11b815260006004820152602490fd5b15612f5a57565b60405162461bcd60e51b8152602060048201526014602482015273151bdad95b88191bd95cc81b9bdd08195e1a5cdd60621b6044820152606490fd5b15612f9d57565b60405162461bcd60e51b815260206004820152602160248201527f4e6f7420617574686f72697a65643a2061646d696e206f7220766572696669656044820152603960f91b6064820152608490fd5b60405190612ff982612b41565b8161014060009182815260609283602083015283604083015280848301528360808301528360a08301528360c08301528060e083015280610100830152806101208301526040519361304a85612b26565b8185528160208601528160408601528401520152565b1561306757565b60405162461bcd60e51b815260206004820152601f60248201527f4e6f7420617574686f72697a65643a206d696e746572206f722061646d696e006044820152606490fd5b600019811461068f5760010190565b80518210156130cf5760209160051b010190565b634e487b7160e01b600052603260045260246000fd5b604051906130f282612b78565b60018252602160f91b6020830152565b90601f811161311057505050565b6000916000526020600020906020601f850160051c8301941061314e575b601f0160051c01915b82811061314357505050565b818155600101613137565b909250829061312e565b908060209392818452848401376000828201840152601f01601f1916010190565b336000908152600080516020613c2c83398151915260205260409020547fa49807205ce4d355092ef5a8a18f56e8913cf4a201fbe287825b095693c217759060ff16156131c35750565b6044906040519063e2517d3f60e01b82523360048301526024820152fd5b80600052600760205260406000203360005260205260ff60406000205416156131c35750565b6000818152600260205260409020546001600160a01b031690811561322a575090565b60249060405190637e27328960e01b82526004820152fd5b60ff6009541661324e57565b60405163d93c066560e01b8152600490fd5b6001600160a01b031660008181527f68cfe6f8c4a0a51fa498a36243209c54367e0b93d1a273c9f15bac776a478d016020526040812054909190600080516020613c6c8339815191529060ff166132ea5780835260076020526040832082845260205260408320600160ff19825416179055600080516020613c0c833981519152339380a4600190565b505090565b6001600160a01b031660008181527f50055816adb7d578513aa90fe122cd0cc1caa8167abbe37a1ae9b211f48b92d260205260408120549091907fe61decff6e4a5c6b5a3d3cbd28f882e595173563b49353ce5f31dba2de7f05ee9060ff166132ea5780835260076020526040832082845260205260408320600160ff19825416179055600080516020613c0c833981519152339380a4600190565b6001600160a01b031660008181527f9a93d366c96821523b1013ee60686da29aec06e7c28b7ad65ea7ea0d51fd7fce60205260408120549091907f14cf45180c3fcf249a5a305e9657ea05c14fd4f4e1800ee0216a8213091711d29060ff166132ea5780835260076020526040832082845260205260408320600160ff19825416179055600080516020613c0c833981519152339380a4600190565b6001600160a01b03166000818152600080516020613c8c8339815191526020526040812054909190600080516020613c4c8339815191529060ff166132ea5780835260076020526040832082845260205260408320600160ff19825416179055600080516020613c0c833981519152339380a4600190565b6001600160a01b031660008181527ffc5d98ca782d8179d21919cc8dc8a0b0515f909d18f8c0522e3f9567cc3c6edf60205260408120549091907f373fdac787be5578b9a3d4a9ca3e3ae1e632ab5ee4750e92f65223238a15b2ef9060ff166132ea5780835260076020526040832082845260205260408320600160ff19825416179055600080516020613c0c833981519152339380a4600190565b906000918083526007602052604083209160018060a01b03169182845260205260ff604084205416156000146132ea5780835260076020526040832082845260205260408320600160ff19825416179055600080516020613c0c833981519152339380a4600190565b6001600160a01b03166000818152600080516020613c8c8339815191526020526040812054909190600080516020613c4c8339815191529060ff16156132ea578083526007602052604083208284526020526040832060ff1981541690557ff6391f5c32d9c69d2a47ea670b442974b53935d1edc7fd64eb21e047a839171b339380a4600190565b6001600160a01b031660008181527f68cfe6f8c4a0a51fa498a36243209c54367e0b93d1a273c9f15bac776a478d016020526040812054909190600080516020613c6c8339815191529060ff16156132ea578083526007602052604083208284526020526040832060ff1981541690557ff6391f5c32d9c69d2a47ea670b442974b53935d1edc7fd64eb21e047a839171b339380a4600190565b906000918083526007602052604083209160018060a01b03169182845260205260ff6040842054166000146132ea578083526007602052604083208284526020526040832060ff1981541690557ff6391f5c32d9c69d2a47ea670b442974b53935d1edc7fd64eb21e047a839171b339380a4600190565b60026008541461374e576002600855565b604051633ee5aeb560e01b8152600490fd5b6040805161376d81612b5d565b6000808252936001600160a01b038481169490929085156139765782875260209360028552858820541683878215159283613943575b818b5260038852888b2080546001019055828b5260028852888b2080546001600160a01b031916831790557fddf252ad1be2c89b69c2b068fc378daa952ba7f163c4a11628f55a4df523b3ef8b80a461392b573b613804575b505050505050565b82613842918596979894955180938192630a85bd0160e11b968784523360048501528c6024850152604484015260806064840152608483019061299e565b03818a8a5af18791816138e7575b506138b0575050503d6000146138a7573d61386a81612bb4565b9061387784519283612b93565b81528094823d92013e5b835193846138a1578251633250574960e11b815260048101859052602490fd5b84925001fd5b60609350613881565b919550915063ffffffff60e01b16036138d05750503880808080806137fc565b602492505190633250574960e11b82526004820152fd5b9091508481813d8311613924575b6138ff8183612b93565b8101031261392057516001600160e01b031981168103613920579038613850565b8780fd5b503d6138f5565b84516339e3563760e11b815260048101889052602490fd5b600083815260046020526040902080546001600160a01b0319169055808b5260038852888b2080546000190190556137a3565b8451633250574960e11b815260048101889052602490fd5b9190916000908082526020916006835260408120908551956001600160401b038711613aa9576139c8876139c28554612ca3565b85613102565b8491601f8811600114613a255796613a199281927ff8e1a15aba9398e019f0b49df1a4fde98ee17ae345cb5f6b5e2c27f5033e8ce7989992610bf35750508160011b916000199060031b1c19161790565b90555b604051908152a1565b9190601f198816848452868420935b818110613a9257509160019391897ff8e1a15aba9398e019f0b49df1a4fde98ee17ae345cb5f6b5e2c27f5033e8ce7999a9410613a79575b505050811b019055613a1c565b015160001960f88460031b161c19169055388080613a6c565b929387600181928786015181550195019301613a34565b634e487b7160e01b82526041600452602482fd5b90939192833b613acf575b5050505050565b604051630a85bd0160e11b8082526001600160a01b039384166004830152958316602482015260448101919091526080606482015294921692602092918590613b1c90608483019061299e565b039483816000978189895af1869181613bc7575b50613b91575050503d600014613b88573d613b4a81612bb4565b90613b586040519283612b93565b81528093823d92013e5b82519283613b8357604051633250574960e11b815260048101849052602490fd5b019050fd5b60609250613b62565b919450915063ffffffff60e01b1603613baf57503880808080613ac8565b60249060405190633250574960e11b82526004820152fd5b9091508481813d8311613c04575b613bdf8183612b93565b81010312613c0057516001600160e01b031981168103613c00579038613b30565b8680fd5b503d613bd556fe2f8788117e7eff1d82e926ec794901d17c78024a50270940304540a733656f0da70365933f78520ef41d6645ba61e509916296603327302d41466c063e8e26089f2df0fed2c77648de5860a4cc508cd0818c85b8b8a1ab4ceeef8d981c8956a60ce23c3e399818cfee81a7ab0880f714e53d7672b08df0fa62f2843416e1ea09a4bfd7afe708e2e87e7f0e2ad9b4d545417e0f795f57b5c5ab5d799c565a04f4a26469706673582212204b5d766f31d4b564280b075a0b054d6cede3cd0499f50ff9550908976c172b8964736f6c634300081800332f8788117e7eff1d82e926ec794901d17c78024a50270940304540a733656f0d","opcodes":"PUSH1 0x80 CALLVALUE PUSH3 0x341 JUMPI PUSH1 0x1 PUSH1 0x1 PUSH1 0x40 SHL SUB SWAP1 PUSH1 0x40 SWAP1 DUP1 DUP3 ADD DUP4 DUP2 GT DUP3 DUP3 LT OR PUSH3 0x32B JUMPI DUP3 MSTORE PUSH1 0xF DUP2 MSTORE PUSH1 0x20 SWAP3 PUSH15 0x20BCBAB92432B9311027232A103B19 PUSH1 0x89 SHL DUP5 DUP4 ADD MSTORE DUP3 MLOAD DUP4 DUP2 ADD DUP2 DUP2 LT DUP4 DUP3 GT OR PUSH3 0x32B JUMPI DUP5 MSTORE PUSH1 0x7 DUP2 MSTORE PUSH7 0x20A427232A3B19 PUSH1 0xC9 SHL DUP6 DUP3 ADD MSTORE DUP3 MLOAD SWAP1 DUP3 DUP3 GT PUSH3 0x32B JUMPI PUSH1 0x0 DUP1 SLOAD SWAP3 PUSH1 0x1 SWAP6 DUP7 DUP6 DUP2 SHR SWAP6 AND DUP1 ISZERO PUSH3 0x320 JUMPI JUMPDEST DUP10 DUP7 LT EQ PUSH3 0x30C JUMPI DUP2 SWAP1 PUSH1 0x1F SWAP6 DUP7 DUP2 GT PUSH3 0x2B9 JUMPI JUMPDEST POP DUP10 SWAP1 DUP7 DUP4 GT PUSH1 0x1 EQ PUSH3 0x255 JUMPI DUP5 SWAP3 PUSH3 0x249 JUMPI JUMPDEST POP POP PUSH1 0x0 NOT PUSH1 0x3 DUP4 SWAP1 SHL SHR NOT AND SWAP1 DUP7 SHL OR DUP2 SSTORE JUMPDEST DUP2 MLOAD SWAP4 DUP5 GT PUSH3 0x235 JUMPI DUP5 SLOAD DUP6 DUP2 DUP2 SHR SWAP2 AND DUP1 ISZERO PUSH3 0x22A JUMPI JUMPDEST DUP9 DUP3 LT EQ PUSH3 0x216 JUMPI DUP4 DUP2 GT PUSH3 0x1CE JUMPI JUMPDEST POP DUP7 SWAP3 DUP5 GT PUSH1 0x1 EQ PUSH3 0x168 JUMPI DUP4 SWAP5 SWAP6 SWAP7 POP SWAP3 PUSH3 0x15C JUMPI JUMPDEST POP POP PUSH1 0x0 NOT PUSH1 0x3 DUP4 SWAP1 SHL SHR NOT AND SWAP1 DUP3 SHL OR DUP2 SSTORE JUMPDEST DUP1 PUSH1 0x8 SSTORE PUSH1 0xA SSTORE PUSH3 0x135 CALLER PUSH3 0x346 JUMP JUMPDEST POP PUSH3 0x141 CALLER PUSH3 0x3C7 JUMP JUMPDEST POP PUSH3 0x14D CALLER PUSH3 0x46A JUMP JUMPDEST POP MLOAD PUSH2 0x3CE1 SWAP1 DUP2 PUSH3 0x509 DUP3 CODECOPY RETURN JUMPDEST ADD MLOAD SWAP1 POP CODESIZE DUP1 PUSH3 0x10F JUMP JUMPDEST SWAP2 SWAP1 PUSH1 0x1F NOT DUP5 AND SWAP7 DUP6 DUP5 MSTORE DUP1 DUP5 KECCAK256 SWAP4 SWAP1 JUMPDEST DUP9 DUP3 LT PUSH3 0x1B6 JUMPI POP POP DUP4 DUP6 SWAP7 SWAP8 LT PUSH3 0x19C JUMPI JUMPDEST POP POP POP DUP2 SHL ADD DUP2 SSTORE PUSH3 0x123 JUMP JUMPDEST ADD MLOAD PUSH1 0x0 NOT PUSH1 0xF8 DUP5 PUSH1 0x3 SHL AND SHR NOT AND SWAP1 SSTORE CODESIZE DUP1 DUP1 PUSH3 0x18E JUMP JUMPDEST DUP1 DUP8 DUP6 SWAP7 DUP3 SWAP5 SWAP7 DUP7 ADD MLOAD DUP2 SSTORE ADD SWAP6 ADD SWAP4 ADD SWAP1 PUSH3 0x179 JUMP JUMPDEST DUP6 DUP3 MSTORE DUP8 DUP3 KECCAK256 DUP5 DUP1 DUP8 ADD PUSH1 0x5 SHR DUP3 ADD SWAP3 DUP11 DUP9 LT PUSH3 0x20C JUMPI JUMPDEST ADD PUSH1 0x5 SHR ADD SWAP1 DUP7 SWAP1 JUMPDEST DUP3 DUP2 LT PUSH3 0x200 JUMPI POP POP PUSH3 0xF6 JUMP JUMPDEST DUP4 DUP2 SSTORE ADD DUP7 SWAP1 PUSH3 0x1F0 JUMP JUMPDEST SWAP3 POP DUP2 SWAP3 PUSH3 0x1E7 JUMP JUMPDEST PUSH4 0x4E487B71 PUSH1 0xE0 SHL DUP3 MSTORE PUSH1 0x22 PUSH1 0x4 MSTORE PUSH1 0x24 DUP3 REVERT JUMPDEST SWAP1 PUSH1 0x7F AND SWAP1 PUSH3 0xE4 JUMP JUMPDEST PUSH4 0x4E487B71 PUSH1 0xE0 SHL DUP2 MSTORE PUSH1 0x41 PUSH1 0x4 MSTORE PUSH1 0x24 SWAP1 REVERT JUMPDEST ADD MLOAD SWAP1 POP CODESIZE DUP1 PUSH3 0xB6 JUMP JUMPDEST DUP5 DUP1 MSTORE DUP11 DUP6 KECCAK256 DUP10 SWAP5 POP SWAP2 SWAP1 PUSH1 0x1F NOT DUP5 AND DUP7 JUMPDEST DUP14 DUP3 DUP3 LT PUSH3 0x2A2 JUMPI POP POP DUP5 GT PUSH3 0x288 JUMPI JUMPDEST POP POP POP DUP2 SHL ADD DUP2 SSTORE PUSH3 0xCA JUMP JUMPDEST ADD MLOAD PUSH1 0x0 NOT PUSH1 0xF8 DUP5 PUSH1 0x3 SHL AND SHR NOT AND SWAP1 SSTORE CODESIZE DUP1 DUP1 PUSH3 0x27A JUMP JUMPDEST DUP4 DUP6 ADD MLOAD DUP7 SSTORE DUP13 SWAP8 SWAP1 SWAP6 ADD SWAP5 SWAP4 DUP5 ADD SWAP4 ADD PUSH3 0x267 JUMP JUMPDEST SWAP1 SWAP2 POP DUP4 DUP1 MSTORE DUP10 DUP5 KECCAK256 DUP7 DUP1 DUP6 ADD PUSH1 0x5 SHR DUP3 ADD SWAP3 DUP13 DUP7 LT PUSH3 0x302 JUMPI JUMPDEST SWAP2 DUP11 SWAP2 DUP7 SWAP6 SWAP5 SWAP4 ADD PUSH1 0x5 SHR ADD SWAP2 JUMPDEST DUP3 DUP2 LT PUSH3 0x2F3 JUMPI POP POP PUSH3 0xA0 JUMP JUMPDEST DUP7 DUP2 SSTORE DUP6 SWAP5 POP DUP11 SWAP2 ADD PUSH3 0x2E3 JUMP JUMPDEST SWAP3 POP DUP2 SWAP3 PUSH3 0x2D5 JUMP JUMPDEST PUSH4 0x4E487B71 PUSH1 0xE0 SHL DUP4 MSTORE PUSH1 0x22 PUSH1 0x4 MSTORE PUSH1 0x24 DUP4 REVERT JUMPDEST SWAP5 PUSH1 0x7F AND SWAP5 PUSH3 0x89 JUMP JUMPDEST PUSH4 0x4E487B71 PUSH1 0xE0 SHL PUSH1 0x0 MSTORE PUSH1 0x41 PUSH1 0x4 MSTORE PUSH1 0x24 PUSH1 0x0 REVERT JUMPDEST PUSH1 0x0 DUP1 REVERT JUMPDEST PUSH1 0x1 PUSH1 0x1 PUSH1 0xA0 SHL SUB AND PUSH1 0x0 DUP2 DUP2 MSTORE PUSH32 0x6D5257204EBE7D88FD91AE87941CB2DD9D8062B64AE5A2BD2D28EC40B9FBF6DF PUSH1 0x20 MSTORE PUSH1 0x40 DUP2 KECCAK256 SLOAD SWAP1 SWAP2 SWAP1 PUSH1 0xFF AND PUSH3 0x3C3 JUMPI DUP2 DUP1 MSTORE PUSH1 0x7 PUSH1 0x20 MSTORE PUSH1 0x40 DUP3 KECCAK256 DUP2 DUP4 MSTORE PUSH1 0x20 MSTORE PUSH1 0x40 DUP3 KECCAK256 PUSH1 0x1 PUSH1 0xFF NOT DUP3 SLOAD AND OR SWAP1 SSTORE CALLER SWAP2 PUSH1 0x0 DUP1 MLOAD PUSH1 0x20 PUSH3 0x41EA DUP4 CODECOPY DUP2 MLOAD SWAP2 MSTORE DUP2 DUP1 LOG4 PUSH1 0x1 SWAP1 JUMP JUMPDEST POP SWAP1 JUMP JUMPDEST PUSH1 0x1 PUSH1 0x1 PUSH1 0xA0 SHL SUB AND PUSH1 0x0 DUP2 DUP2 MSTORE PUSH32 0xA70365933F78520EF41D6645BA61E509916296603327302D41466C063E8E2608 PUSH1 0x20 MSTORE PUSH1 0x40 DUP2 KECCAK256 SLOAD SWAP1 SWAP2 SWAP1 PUSH32 0xA49807205CE4D355092EF5A8A18F56E8913CF4A201FBE287825B095693C21775 SWAP1 PUSH1 0xFF AND PUSH3 0x465 JUMPI DUP1 DUP4 MSTORE PUSH1 0x7 PUSH1 0x20 MSTORE PUSH1 0x40 DUP4 KECCAK256 DUP3 DUP5 MSTORE PUSH1 0x20 MSTORE PUSH1 0x40 DUP4 KECCAK256 PUSH1 0x1 PUSH1 0xFF NOT DUP3 SLOAD AND OR SWAP1 SSTORE PUSH1 0x0 DUP1 MLOAD PUSH1 0x20 PUSH3 0x41EA DUP4 CODECOPY DUP2 MLOAD SWAP2 MSTORE CALLER SWAP4 DUP1 LOG4 PUSH1 0x1 SWAP1 JUMP JUMPDEST POP POP SWAP1 JUMP JUMPDEST PUSH1 0x1 PUSH1 0x1 PUSH1 0xA0 SHL SUB AND PUSH1 0x0 DUP2 DUP2 MSTORE PUSH32 0xA4BFD7AFE708E2E87E7F0E2AD9B4D545417E0F795F57B5C5AB5D799C565A04F4 PUSH1 0x20 MSTORE PUSH1 0x40 DUP2 KECCAK256 SLOAD SWAP1 SWAP2 SWAP1 PUSH32 0x9F2DF0FED2C77648DE5860A4CC508CD0818C85B8B8A1AB4CEEEF8D981C8956A6 SWAP1 PUSH1 0xFF AND PUSH3 0x465 JUMPI DUP1 DUP4 MSTORE PUSH1 0x7 PUSH1 0x20 MSTORE PUSH1 0x40 DUP4 KECCAK256 DUP3 DUP5 MSTORE PUSH1 0x20 MSTORE PUSH1 0x40 DUP4 KECCAK256 PUSH1 0x1 PUSH1 0xFF NOT DUP3 SLOAD AND OR SWAP1 SSTORE PUSH1 0x0 DUP1 MLOAD PUSH1 0x20 PUSH3 0x41EA DUP4 CODECOPY DUP2 MLOAD SWAP2 MSTORE CALLER SWAP4 DUP1 LOG4 PUSH1 0x1 SWAP1 JUMP INVALID PUSH1 0x80 DUP1 PUSH1 0x40 MSTORE PUSH1 0x4 CALLDATASIZE LT ISZERO PUSH2 0x13 JUMPI PUSH1 0x0 DUP1 REVERT JUMPDEST PUSH1 0x0 CALLDATALOAD PUSH1 0xE0 SHR SWAP1 DUP2 PUSH4 0x1FFC9A7 EQ PUSH2 0x28B0 JUMPI POP DUP1 PUSH4 0x337C061 EQ PUSH2 0x2845 JUMPI DUP1 PUSH4 0x33F0651 EQ PUSH2 0x14C0 JUMPI DUP1 PUSH4 0x4E542DD EQ PUSH2 0x27C8 JUMPI DUP1 PUSH4 0x6FDDE03 EQ PUSH2 0x271D JUMPI DUP1 PUSH4 0x81812FC EQ PUSH2 0x26DF JUMPI DUP1 PUSH4 0x95EA7B3 EQ PUSH2 0x25F8 JUMPI DUP1 PUSH4 0x23B872DD EQ PUSH2 0x25E1 JUMPI DUP1 PUSH4 0x247AB51F EQ PUSH2 0x253F JUMPI DUP1 PUSH4 0x248A9CA3 EQ PUSH2 0x2510 JUMPI DUP1 PUSH4 0x2F2FF15D EQ PUSH2 0x24D1 JUMPI DUP1 PUSH4 0x30AAEFDA EQ PUSH2 0x2454 JUMPI DUP1 PUSH4 0x36568ABE EQ PUSH2 0x240D JUMPI DUP1 PUSH4 0x3DD1EB61 EQ PUSH2 0x23A2 JUMPI DUP1 PUSH4 0x3F4BA83A EQ PUSH2 0x2338 JUMPI DUP1 PUSH4 0x42842E0E EQ PUSH2 0x230A JUMPI DUP1 PUSH4 0x4286BB2E EQ PUSH2 0x2198 JUMPI DUP1 PUSH4 0x5071F001 EQ PUSH2 0x204A JUMPI DUP1 PUSH4 0x5C975ABB EQ PUSH2 0x2027 JUMPI DUP1 PUSH4 0x6352211E EQ PUSH2 0x1FF7 JUMPI DUP1 PUSH4 0x6692771E EQ PUSH2 0x17E5 JUMPI DUP1 PUSH4 0x69E2F0FB EQ PUSH2 0x177A JUMPI DUP1 PUSH4 0x70A08231 EQ PUSH2 0x1721 JUMPI DUP1 PUSH4 0x75B238FC EQ PUSH2 0x16E6 JUMPI DUP1 PUSH4 0x8222BDB2 EQ PUSH2 0x16AB JUMPI DUP1 PUSH4 0x8456CB59 EQ PUSH2 0x1651 JUMPI DUP1 PUSH4 0x88FA2AA8 EQ PUSH2 0x150D JUMPI DUP1 PUSH4 0x91D14854 EQ PUSH2 0x14C0 JUMPI DUP1 PUSH4 0x95D89B41 EQ PUSH2 0x13DD JUMPI DUP1 PUSH4 0x9CA39AE9 EQ PUSH2 0x13A2 JUMPI DUP1 PUSH4 0xA217FDDF EQ PUSH2 0x1386 JUMPI DUP1 PUSH4 0xA22CB465 EQ PUSH2 0x12E1 JUMPI DUP1 PUSH4 0xA3669AEF EQ PUSH2 0x1276 JUMPI DUP1 PUSH4 0xA752C69C EQ PUSH2 0x121A JUMPI DUP1 PUSH4 0xB88D4FDE EQ PUSH2 0x11AF JUMPI DUP1 PUSH4 0xBD3070C6 EQ PUSH2 0x1174 JUMPI DUP1 PUSH4 0xC87B56DD EQ PUSH2 0x111B JUMPI DUP1 PUSH4 0xD381BA44 EQ PUSH2 0x1017 JUMPI DUP1 PUSH4 0xD5391393 EQ PUSH2 0xFEE JUMPI DUP1 PUSH4 0xD547741F EQ PUSH2 0xFAF JUMPI DUP1 PUSH4 0xE055315B EQ PUSH2 0x6A5 JUMPI DUP1 PUSH4 0xE561DDDC EQ PUSH2 0x664 JUMPI DUP1 PUSH4 0xE70047C5 EQ PUSH2 0x31C JUMPI DUP1 PUSH4 0xE7705DB6 EQ PUSH2 0x2F3 JUMPI DUP1 PUSH4 0xE83C97DE EQ PUSH2 0x274 JUMPI PUSH4 0xE985E9C5 EQ PUSH2 0x219 JUMPI PUSH1 0x0 DUP1 REVERT JUMPDEST CALLVALUE PUSH2 0x26F JUMPI PUSH1 0x40 CALLDATASIZE PUSH1 0x3 NOT ADD SLT PUSH2 0x26F JUMPI PUSH2 0x232 PUSH2 0x294F JUMP JUMPDEST PUSH2 0x23A PUSH2 0x2965 JUMP JUMPDEST SWAP1 PUSH1 0x1 DUP1 PUSH1 0xA0 SHL SUB DUP1 SWAP2 AND PUSH1 0x0 MSTORE PUSH1 0x5 PUSH1 0x20 MSTORE PUSH1 0x40 PUSH1 0x0 KECCAK256 SWAP2 AND PUSH1 0x0 MSTORE PUSH1 0x20 MSTORE PUSH1 0x20 PUSH1 0xFF PUSH1 0x40 PUSH1 0x0 KECCAK256 SLOAD AND PUSH1 0x40 MLOAD SWAP1 ISZERO ISZERO DUP2 MSTORE RETURN JUMPDEST PUSH1 0x0 DUP1 REVERT JUMPDEST CALLVALUE PUSH2 0x26F JUMPI PUSH1 0x20 CALLDATASIZE PUSH1 0x3 NOT ADD SLT PUSH2 0x26F JUMPI PUSH2 0x2F1 PUSH2 0x290 PUSH2 0x294F JUMP JUMPDEST PUSH2 0x298 PUSH2 0x3179 JUMP JUMPDEST PUSH32 0x373FDAC787BE5578B9A3D4A9CA3E3AE1E632AB5EE4750E92F65223238A15B2EF PUSH1 0x0 MSTORE PUSH1 0x7 PUSH1 0x20 MSTORE PUSH32 0xFC5D98CA782D8179D21919CC8DC8A0B0515F909D18F8C0522E3F9567CC3C6EE0 SLOAD PUSH2 0x2EC SWAP1 PUSH2 0x31E1 JUMP JUMPDEST PUSH2 0x349F JUMP JUMPDEST STOP JUMPDEST CALLVALUE PUSH2 0x26F JUMPI PUSH1 0x0 CALLDATASIZE PUSH1 0x3 NOT ADD SLT PUSH2 0x26F JUMPI PUSH1 0x20 PUSH1 0x40 MLOAD PUSH1 0x0 DUP1 MLOAD PUSH1 0x20 PUSH2 0x3C6C DUP4 CODECOPY DUP2 MLOAD SWAP2 MSTORE DUP2 MSTORE RETURN JUMPDEST CALLVALUE PUSH2 0x26F JUMPI PUSH1 0x40 CALLDATASIZE PUSH1 0x3 NOT ADD SLT PUSH2 0x26F JUMPI PUSH1 0x4 CALLDATALOAD PUSH1 0x1 PUSH1 0x1 PUSH1 0x40 SHL SUB PUSH1 0x24 CALLDATALOAD DUP2 DUP2 GT PUSH2 0x26F JUMPI PUSH2 0x350 SWAP1 CALLDATASIZE SWAP1 PUSH1 0x4 ADD PUSH2 0x29F8 JUMP JUMPDEST CALLER PUSH1 0x0 SWAP1 DUP2 MSTORE PUSH1 0x0 DUP1 MLOAD PUSH1 0x20 PUSH2 0x3C2C DUP4 CODECOPY DUP2 MLOAD SWAP2 MSTORE PUSH1 0x20 SWAP1 DUP2 MSTORE PUSH1 0x40 SWAP1 SWAP2 KECCAK256 SLOAD SWAP1 SWAP5 SWAP3 SWAP2 SWAP1 PUSH1 0xFF AND DUP1 ISZERO PUSH2 0x636 JUMPI JUMPDEST PUSH2 0x388 SWAP1 PUSH2 0x2F96 JUMP JUMPDEST PUSH2 0x390 PUSH2 0x3242 JUMP JUMPDEST PUSH2 0x39D PUSH1 0xA SLOAD DUP5 LT PUSH2 0x2F53 JUMP JUMPDEST DUP3 PUSH1 0x0 MSTORE PUSH1 0xB DUP6 MSTORE PUSH1 0xFF PUSH1 0x7 PUSH1 0x40 PUSH1 0x0 KECCAK256 ADD SLOAD PUSH1 0x40 SHR AND PUSH2 0x5FE JUMPI PUSH1 0x40 MLOAD SWAP4 DUP6 DUP6 ADD PUSH1 0x41 PUSH1 0xF8 SHL DUP2 MSTORE PUSH1 0x1 SWAP6 DUP7 DUP2 MSTORE PUSH2 0x3D5 DUP2 PUSH2 0x2B78 JUMP JUMPDEST MLOAD SWAP1 KECCAK256 PUSH1 0x40 MLOAD DUP8 DUP2 ADD SWAP1 PUSH1 0x21 PUSH1 0xF9 SHL DUP3 MSTORE DUP8 DUP2 MSTORE PUSH2 0x3F2 DUP2 PUSH2 0x2B78 JUMP JUMPDEST MLOAD SWAP1 KECCAK256 SWAP1 PUSH1 0x40 MLOAD DUP9 DUP2 ADD SWAP1 PUSH1 0x43 PUSH1 0xF8 SHL DUP3 MSTORE DUP9 DUP2 MSTORE PUSH2 0x410 DUP2 PUSH2 0x2B78 JUMP JUMPDEST MLOAD SWAP1 KECCAK256 SWAP1 PUSH1 0x40 MLOAD DUP10 DUP2 ADD SWAP1 DUP7 DUP9 DUP4 CALLDATACOPY PUSH2 0x438 DUP12 DUP3 DUP10 DUP2 ADD PUSH1 0x0 DUP4 DUP3 ADD MSTORE SUB DUP1 DUP5 MSTORE ADD DUP3 PUSH2 0x2B93 JUMP JUMPDEST MLOAD SWAP1 KECCAK256 SWAP1 DUP2 EQ SWAP3 DUP4 ISZERO PUSH2 0x5F4 JUMPI JUMPDEST POP DUP3 ISZERO PUSH2 0x5EA JUMPI JUMPDEST POP POP ISZERO PUSH2 0x5AD JUMPI DUP4 PUSH1 0x0 MSTORE PUSH1 0xB DUP7 MSTORE PUSH1 0x6 PUSH1 0x40 PUSH1 0x0 KECCAK256 PUSH1 0x7 DUP2 ADD PUSH9 0x10000000000000000 PUSH1 0xFF PUSH1 0x40 SHL NOT DUP3 SLOAD AND OR SWAP1 SSTORE ADD SWAP1 DUP3 GT PUSH2 0x597 JUMPI PUSH2 0x49A DUP3 PUSH2 0x494 DUP4 SLOAD PUSH2 0x2CA3 JUMP JUMPDEST DUP4 PUSH2 0x3102 JUMP JUMPDEST PUSH1 0x0 SWAP5 PUSH1 0x1F DUP4 GT PUSH1 0x1 EQ PUSH2 0x516 JUMPI POP PUSH2 0x4ED DUP3 DUP1 PUSH32 0x38FD55D5EB9ED975C430EE6A0D82E6074D8E89DB86B31BF01177F98032342140 SWAP7 SWAP8 PUSH1 0x0 SWAP2 PUSH2 0x50B JUMPI JUMPDEST POP DUP2 PUSH1 0x1 SHL SWAP2 PUSH1 0x0 NOT SWAP1 PUSH1 0x3 SHL SHR NOT AND OR SWAP1 JUMP JUMPDEST SWAP1 SSTORE JUMPDEST PUSH2 0x506 PUSH1 0x40 MLOAD SWAP3 DUP4 SWAP3 DUP8 DUP5 MSTORE CALLER SWAP8 DUP5 ADD SWAP2 PUSH2 0x3158 JUMP JUMPDEST SUB SWAP1 LOG3 STOP JUMPDEST SWAP1 POP DUP6 ADD CALLDATALOAD DUP10 PUSH2 0x4D9 JUMP JUMPDEST PUSH1 0x1F NOT DUP4 AND SWAP6 DUP3 PUSH1 0x0 MSTORE DUP8 PUSH1 0x0 KECCAK256 SWAP1 PUSH1 0x0 JUMPDEST DUP10 DUP10 DUP3 LT PUSH2 0x583 JUMPI POP POP DUP5 PUSH32 0x38FD55D5EB9ED975C430EE6A0D82E6074D8E89DB86B31BF01177F98032342140 SWAP8 SWAP9 LT PUSH2 0x569 JUMPI JUMPDEST POP POP DUP3 DUP2 SHL ADD SWAP1 SSTORE PUSH2 0x4F0 JUMP JUMPDEST DUP6 ADD CALLDATALOAD PUSH1 0x0 NOT PUSH1 0x3 DUP7 SWAP1 SHL PUSH1 0xF8 AND SHR NOT AND SWAP1 SSTORE DUP8 DUP1 PUSH2 0x55C JUMP JUMPDEST DUP8 DUP4 ADD CALLDATALOAD DUP5 SSTORE SWAP3 DUP5 ADD SWAP3 SWAP2 DUP3 ADD SWAP2 ADD PUSH2 0x528 JUMP JUMPDEST PUSH4 0x4E487B71 PUSH1 0xE0 SHL PUSH1 0x0 MSTORE PUSH1 0x41 PUSH1 0x4 MSTORE PUSH1 0x24 PUSH1 0x0 REVERT JUMPDEST PUSH1 0x40 MLOAD PUSH3 0x461BCD PUSH1 0xE5 SHL DUP2 MSTORE PUSH1 0x4 DUP2 ADD DUP8 SWAP1 MSTORE PUSH1 0x15 PUSH1 0x24 DUP3 ADD MSTORE PUSH21 0x496E76616C6964207175616C697479206772616465 PUSH1 0x58 SHL PUSH1 0x44 DUP3 ADD MSTORE PUSH1 0x64 SWAP1 REVERT JUMPDEST EQ SWAP1 POP DUP8 DUP1 PUSH2 0x44E JUMP JUMPDEST DUP2 EQ SWAP3 POP DUP10 PUSH2 0x446 JUMP JUMPDEST PUSH1 0x40 MLOAD PUSH3 0x461BCD PUSH1 0xE5 SHL DUP2 MSTORE PUSH1 0x4 DUP2 ADD DUP7 SWAP1 MSTORE PUSH1 0x10 PUSH1 0x24 DUP3 ADD MSTORE PUSH16 0x105B1C9958591E481D995C9A599A5959 PUSH1 0x82 SHL PUSH1 0x44 DUP3 ADD MSTORE PUSH1 0x64 SWAP1 REVERT JUMPDEST POP PUSH1 0x0 DUP1 MLOAD PUSH1 0x20 PUSH2 0x3C6C DUP4 CODECOPY DUP2 MLOAD SWAP2 MSTORE PUSH1 0x0 SWAP1 DUP2 MSTORE PUSH1 0x7 DUP7 MSTORE PUSH1 0x40 DUP1 DUP3 KECCAK256 CALLER DUP4 MSTORE DUP8 MSTORE SWAP1 KECCAK256 SLOAD PUSH1 0xFF AND PUSH2 0x37F JUMP JUMPDEST CALLVALUE PUSH2 0x26F JUMPI PUSH1 0x0 CALLDATASIZE PUSH1 0x3 NOT ADD SLT PUSH2 0x26F JUMPI PUSH1 0xA SLOAD PUSH1 0x0 NOT DUP2 ADD SWAP1 DUP2 GT PUSH2 0x68F JUMPI PUSH1 0x20 SWAP1 PUSH1 0x40 MLOAD SWAP1 DUP2 MSTORE RETURN JUMPDEST PUSH4 0x4E487B71 PUSH1 0xE0 SHL PUSH1 0x0 MSTORE PUSH1 0x11 PUSH1 0x4 MSTORE PUSH1 0x24 PUSH1 0x0 REVERT JUMPDEST CALLVALUE PUSH2 0x26F JUMPI PUSH1 0xA0 CALLDATASIZE PUSH1 0x3 NOT ADD SLT PUSH2 0x26F JUMPI PUSH1 0x4 CALLDATALOAD PUSH1 0x1 PUSH1 0x1 PUSH1 0x40 SHL SUB DUP2 GT PUSH2 0x26F JUMPI PUSH2 0x6D5 SWAP1 CALLDATASIZE SWAP1 PUSH1 0x4 ADD PUSH2 0x29F8 JUMP JUMPDEST PUSH1 0x24 CALLDATALOAD PUSH1 0x1 PUSH1 0x1 PUSH1 0x40 SHL SUB DUP2 GT PUSH2 0x26F JUMPI PUSH2 0x6F4 SWAP1 CALLDATASIZE SWAP1 PUSH1 0x4 ADD PUSH2 0x29F8 JUMP JUMPDEST SWAP2 SWAP1 SWAP3 PUSH1 0x44 CALLDATALOAD PUSH1 0x1 PUSH1 0x1 PUSH1 0x40 SHL SUB DUP2 GT PUSH2 0x26F JUMPI PUSH2 0x716 SWAP1 CALLDATASIZE SWAP1 PUSH1 0x4 ADD PUSH2 0x29F8 JUMP JUMPDEST SWAP5 SWAP1 SWAP4 PUSH1 0x64 CALLDATALOAD PUSH1 0x1 PUSH1 0x1 PUSH1 0x40 SHL SUB DUP2 GT PUSH2 0x26F JUMPI PUSH2 0x738 SWAP1 CALLDATASIZE SWAP1 PUSH1 0x4 ADD PUSH2 0x29F8 JUMP JUMPDEST SWAP6 SWAP1 PUSH1 0x84 CALLDATALOAD PUSH1 0x1 PUSH1 0x1 PUSH1 0x40 SHL SUB DUP2 GT PUSH2 0x26F JUMPI PUSH2 0x759 SWAP1 CALLDATASIZE SWAP1 PUSH1 0x4 ADD PUSH2 0x29F8 JUMP JUMPDEST SWAP8 SWAP1 PUSH2 0x763 PUSH2 0x3242 JUMP JUMPDEST PUSH2 0x76B PUSH2 0x373D JUMP JUMPDEST CALLER PUSH1 0x0 SWAP1 DUP2 MSTORE PUSH1 0x0 DUP1 MLOAD PUSH1 0x20 PUSH2 0x3C8C DUP4 CODECOPY DUP2 MLOAD SWAP2 MSTORE PUSH1 0x20 MSTORE PUSH1 0x40 SWAP1 KECCAK256 SLOAD PUSH1 0xFF AND DUP1 ISZERO PUSH2 0xF89 JUMPI JUMPDEST PUSH2 0x79B SWAP1 PUSH2 0x3060 JUMP JUMPDEST DUP8 ISZERO PUSH2 0xF44 JUMPI DUP5 ISZERO PUSH2 0xEFF JUMPI DUP10 ISZERO PUSH2 0xEBA JUMPI PUSH1 0x40 MLOAD DUP6 DUP8 DUP3 CALLDATACOPY PUSH1 0x20 DUP2 DUP8 DUP2 ADD PUSH1 0xC DUP2 MSTORE SUB ADD SWAP1 KECCAK256 SLOAD PUSH2 0xE75 JUMPI PUSH1 0xA SLOAD SWAP9 PUSH2 0x7D4 DUP11 PUSH2 0x30AC JUMP JUMPDEST PUSH1 0xA SSTORE PUSH2 0x7E1 DUP11 CALLER PUSH2 0x3760 JUMP JUMPDEST CALLDATASIZE SWAP1 PUSH2 0x7EC SWAP3 PUSH2 0x2BCF JUMP JUMPDEST PUSH2 0x7F6 SWAP1 DUP10 PUSH2 0x398E JUMP JUMPDEST PUSH1 0x40 MLOAD SWAP3 PUSH2 0x803 DUP5 PUSH2 0x2B26 JUMP JUMPDEST PUSH1 0x0 DUP5 MSTORE PUSH1 0x20 DUP5 ADD PUSH1 0x0 SWAP1 MSTORE PUSH1 0x40 DUP5 ADD PUSH1 0x0 SWAP1 MSTORE PUSH1 0x60 DUP5 ADD PUSH1 0x0 SWAP1 MSTORE PUSH1 0x40 MLOAD SWAP10 PUSH2 0x82C DUP12 PUSH2 0x2B41 JUMP JUMPDEST DUP10 DUP12 MSTORE PUSH2 0x83A CALLDATASIZE DUP11 DUP11 PUSH2 0x2BCF JUMP JUMPDEST PUSH1 0x20 DUP13 ADD MSTORE PUSH2 0x84A CALLDATASIZE DUP8 DUP10 PUSH2 0x2BCF JUMP JUMPDEST PUSH1 0x40 DUP13 ADD MSTORE CALLER PUSH1 0x60 DUP13 ADD MSTORE CALLDATASIZE SWAP1 PUSH2 0x860 SWAP3 PUSH2 0x2BCF JUMP JUMPDEST PUSH1 0x80 DUP11 ADD MSTORE CALLDATASIZE SWAP1 PUSH2 0x870 SWAP3 PUSH2 0x2BCF JUMP JUMPDEST PUSH1 0xA0 DUP9 ADD MSTORE PUSH2 0x87D PUSH2 0x30E5 JUMP JUMPDEST PUSH1 0xC0 DUP9 ADD MSTORE TIMESTAMP PUSH1 0x1 PUSH1 0x1 PUSH1 0x40 SHL SUB AND PUSH1 0xE0 DUP9 ADD MSTORE PUSH2 0x100 DUP8 ADD PUSH1 0x0 SWAP1 MSTORE PUSH2 0x120 DUP8 ADD PUSH1 0x0 SWAP1 MSTORE PUSH2 0x140 DUP8 ADD MSTORE DUP5 PUSH1 0x0 MSTORE PUSH1 0xB PUSH1 0x20 MSTORE PUSH1 0x40 PUSH1 0x0 KECCAK256 SWAP3 DUP7 MLOAD DUP5 SSTORE PUSH1 0x20 DUP8 ADD MLOAD DUP1 MLOAD SWAP1 PUSH1 0x1 PUSH1 0x1 PUSH1 0x40 SHL SUB DUP3 GT PUSH2 0x597 JUMPI PUSH2 0x8EC DUP3 PUSH2 0x8E3 PUSH1 0x1 DUP10 ADD SLOAD PUSH2 0x2CA3 JUMP JUMPDEST PUSH1 0x1 DUP10 ADD PUSH2 0x3102 JUMP JUMPDEST PUSH1 0x20 SWAP1 PUSH1 0x1F DUP4 GT PUSH1 0x1 EQ PUSH2 0xE03 JUMPI PUSH2 0x91D SWAP3 SWAP2 PUSH1 0x0 SWAP2 DUP4 PUSH2 0xCA2 JUMPI JUMPDEST POP POP DUP2 PUSH1 0x1 SHL SWAP2 PUSH1 0x0 NOT SWAP1 PUSH1 0x3 SHL SHR NOT AND OR SWAP1 JUMP JUMPDEST PUSH1 0x1 DUP6 ADD SSTORE JUMPDEST PUSH1 0x40 DUP8 ADD MLOAD DUP1 MLOAD SWAP1 PUSH1 0x1 PUSH1 0x1 PUSH1 0x40 SHL SUB DUP3 GT PUSH2 0x597 JUMPI PUSH2 0x953 DUP3 PUSH2 0x94A PUSH1 0x2 DUP10 ADD SLOAD PUSH2 0x2CA3 JUMP JUMPDEST PUSH1 0x2 DUP10 ADD PUSH2 0x3102 JUMP JUMPDEST PUSH1 0x20 SWAP1 PUSH1 0x1F DUP4 GT PUSH1 0x1 EQ PUSH2 0xD91 JUMPI PUSH2 0x983 SWAP3 SWAP2 PUSH1 0x0 SWAP2 DUP4 PUSH2 0xCA2 JUMPI POP POP DUP2 PUSH1 0x1 SHL SWAP2 PUSH1 0x0 NOT SWAP1 PUSH1 0x3 SHL SHR NOT AND OR SWAP1 JUMP JUMPDEST PUSH1 0x2 DUP6 ADD SSTORE JUMPDEST PUSH1 0x3 DUP5 ADD PUSH1 0x1 DUP1 PUSH1 0xA0 SHL SUB PUSH1 0x60 DUP10 ADD MLOAD AND PUSH12 0xFFFFFFFFFFFFFFFFFFFFFFFF PUSH1 0xA0 SHL DUP3 SLOAD AND OR SWAP1 SSTORE PUSH1 0x80 DUP8 ADD MLOAD DUP1 MLOAD SWAP1 PUSH1 0x1 PUSH1 0x1 PUSH1 0x40 SHL SUB DUP3 GT PUSH2 0x597 JUMPI PUSH2 0x9E0 DUP3 PUSH2 0x9D7 PUSH1 0x4 DUP10 ADD SLOAD PUSH2 0x2CA3 JUMP JUMPDEST PUSH1 0x4 DUP10 ADD PUSH2 0x3102 JUMP JUMPDEST PUSH1 0x20 SWAP1 PUSH1 0x1F DUP4 GT PUSH1 0x1 EQ PUSH2 0xD1F JUMPI PUSH2 0xA10 SWAP3 SWAP2 PUSH1 0x0 SWAP2 DUP4 PUSH2 0xCA2 JUMPI POP POP DUP2 PUSH1 0x1 SHL SWAP2 PUSH1 0x0 NOT SWAP1 PUSH1 0x3 SHL SHR NOT AND OR SWAP1 JUMP JUMPDEST PUSH1 0x4 DUP6 ADD SSTORE JUMPDEST PUSH1 0xA0 DUP8 ADD MLOAD DUP1 MLOAD SWAP1 PUSH1 0x1 PUSH1 0x1 PUSH1 0x40 SHL SUB DUP3 GT PUSH2 0x597 JUMPI PUSH2 0xA46 DUP3 PUSH2 0xA3D PUSH1 0x5 DUP10 ADD SLOAD PUSH2 0x2CA3 JUMP JUMPDEST PUSH1 0x5 DUP10 ADD PUSH2 0x3102 JUMP JUMPDEST PUSH1 0x20 SWAP1 PUSH1 0x1F DUP4 GT PUSH1 0x1 EQ PUSH2 0xCAD JUMPI PUSH2 0xA76 SWAP3 SWAP2 PUSH1 0x0 SWAP2 DUP4 PUSH2 0xCA2 JUMPI POP POP DUP2 PUSH1 0x1 SHL SWAP2 PUSH1 0x0 NOT SWAP1 PUSH1 0x3 SHL SHR NOT AND OR SWAP1 JUMP JUMPDEST PUSH1 0x5 DUP6 ADD SSTORE JUMPDEST PUSH1 0xC0 DUP8 ADD MLOAD SWAP4 DUP5 MLOAD SWAP8 PUSH1 0x1 PUSH1 0x1 PUSH1 0x40 SHL SUB DUP10 GT PUSH2 0x597 JUMPI DUP9 DUP9 SWAP7 PUSH2 0xAB2 PUSH1 0x20 SWAP12 PUSH2 0xAA9 PUSH1 0x6 DUP8 ADD SLOAD PUSH2 0x2CA3 JUMP JUMPDEST PUSH1 0x6 DUP8 ADD PUSH2 0x3102 JUMP JUMPDEST DUP11 SWAP1 PUSH1 0x1F DUP4 GT PUSH1 0x1 EQ PUSH2 0xBFE JUMPI PUSH1 0x60 PUSH2 0x140 PUSH2 0xBCC SWAP6 PUSH2 0xB15 DUP7 PUSH32 0x8FC3C5F6A5D8FA33EFD13543F345E7BF783B2A5E6F32421F47F2458D67C93E1B SWAP13 SWAP11 SWAP8 PUSH2 0xBD9 SWAP13 SWAP11 SWAP8 PUSH1 0xB SWAP8 PUSH1 0x0 SWAP3 PUSH2 0xBF3 JUMPI POP POP DUP2 PUSH1 0x1 SHL SWAP2 PUSH1 0x0 NOT SWAP1 PUSH1 0x3 SHL SHR NOT AND OR SWAP1 JUMP JUMPDEST PUSH1 0x6 DUP7 ADD SSTORE JUMPDEST PUSH1 0xE0 DUP2 ADD MLOAD PUSH1 0x7 DUP7 ADD DUP1 SLOAD PUSH2 0x100 DUP5 ADD MLOAD PUSH1 0xFF PUSH1 0x40 SHL SWAP1 ISZERO ISZERO PUSH1 0x40 SHL AND PUSH1 0x1 PUSH1 0x1 PUSH1 0x40 SHL SUB SWAP1 SWAP4 AND PUSH9 0xFFFFFFFFFFFFFFFFFF NOT SWAP1 SWAP2 AND OR SWAP2 SWAP1 SWAP2 OR DUP2 SSTORE PUSH2 0xB83 SWAP1 JUMPDEST PUSH2 0x120 DUP4 ADD MLOAD DUP2 SLOAD PUSH1 0xFF PUSH1 0x48 SHL NOT AND SWAP1 ISZERO ISZERO PUSH1 0x48 SHL PUSH10 0xFF000000000000000000 AND OR SWAP1 SSTORE JUMP JUMPDEST ADD MLOAD DUP1 MLOAD PUSH1 0x8 DUP6 ADD SSTORE DUP14 DUP2 ADD MLOAD PUSH1 0x9 DUP6 ADD SSTORE PUSH1 0x40 DUP2 ADD MLOAD PUSH1 0xA DUP6 ADD SSTORE ADD MLOAD SWAP2 ADD SSTORE DUP7 PUSH1 0x40 MLOAD DUP5 DUP7 DUP3 CALLDATACOPY DUP12 DUP2 DUP7 DUP2 ADD PUSH1 0xC DUP2 MSTORE SUB ADD SWAP1 KECCAK256 SSTORE PUSH1 0x40 MLOAD SWAP8 PUSH1 0x60 DUP10 MSTORE PUSH1 0x60 DUP10 ADD SWAP2 PUSH2 0x3158 JUMP JUMPDEST SWAP2 DUP7 DUP4 SUB DUP10 DUP9 ADD MSTORE PUSH2 0x3158 JUMP JUMPDEST SWAP3 TIMESTAMP PUSH1 0x40 DUP3 ADD MSTORE DUP1 CALLER SWAP5 SUB SWAP1 LOG3 PUSH1 0x1 PUSH1 0x8 SSTORE PUSH1 0x40 MLOAD SWAP1 DUP2 MSTORE RETURN JUMPDEST ADD MLOAD SWAP1 POP CODESIZE DUP1 PUSH2 0x908 JUMP JUMPDEST SWAP1 PUSH1 0x6 DUP6 ADD PUSH1 0x0 MSTORE DUP12 PUSH1 0x0 KECCAK256 SWAP2 PUSH1 0x0 JUMPDEST PUSH1 0x1F NOT DUP6 AND DUP2 LT PUSH2 0xC88 JUMPI POP PUSH2 0x140 PUSH2 0xBCC SWAP6 PUSH1 0x1 DUP7 PUSH2 0xBD9 SWAP12 SWAP10 SWAP7 PUSH1 0xB SWAP7 PUSH1 0x60 SWAP7 PUSH32 0x8FC3C5F6A5D8FA33EFD13543F345E7BF783B2A5E6F32421F47F2458D67C93E1B SWAP16 SWAP14 SWAP11 PUSH1 0x1F NOT DUP2 AND LT PUSH2 0xC6F JUMPI JUMPDEST POP POP POP DUP2 SHL ADD PUSH1 0x6 DUP7 ADD SSTORE PUSH2 0xB1B JUMP JUMPDEST ADD MLOAD PUSH1 0x0 NOT PUSH1 0xF8 DUP5 PUSH1 0x3 SHL AND SHR NOT AND SWAP1 SSTORE CODESIZE DUP1 DUP1 PUSH2 0xC5F JUMP JUMPDEST DUP2 DUP4 ADD MLOAD DUP5 SSTORE DUP13 SWAP11 POP PUSH1 0x1 SWAP1 SWAP4 ADD SWAP3 SWAP2 DUP14 ADD SWAP2 DUP14 ADD PUSH2 0xC0E JUMP JUMPDEST ADD MLOAD SWAP1 POP DUP11 DUP1 PUSH2 0x908 JUMP JUMPDEST SWAP2 SWAP1 PUSH1 0x5 DUP8 ADD PUSH1 0x0 MSTORE PUSH1 0x20 PUSH1 0x0 KECCAK256 SWAP1 PUSH1 0x0 SWAP4 JUMPDEST PUSH1 0x1F NOT DUP5 AND DUP6 LT PUSH2 0xD04 JUMPI PUSH1 0x1 SWAP5 POP DUP4 PUSH1 0x1F NOT DUP2 AND LT PUSH2 0xCEB JUMPI JUMPDEST POP POP POP DUP2 SHL ADD PUSH1 0x5 DUP6 ADD SSTORE PUSH2 0xA7C JUMP JUMPDEST ADD MLOAD PUSH1 0x0 NOT PUSH1 0xF8 DUP5 PUSH1 0x3 SHL AND SHR NOT AND SWAP1 SSTORE DUP10 DUP1 DUP1 PUSH2 0xCDB JUMP JUMPDEST DUP2 DUP2 ADD MLOAD DUP4 SSTORE PUSH1 0x20 SWAP5 DUP6 ADD SWAP5 PUSH1 0x1 SWAP1 SWAP4 ADD SWAP3 SWAP1 SWAP2 ADD SWAP1 PUSH2 0xCC0 JUMP JUMPDEST SWAP2 SWAP1 PUSH1 0x4 DUP8 ADD PUSH1 0x0 MSTORE PUSH1 0x20 PUSH1 0x0 KECCAK256 SWAP1 PUSH1 0x0 SWAP4 JUMPDEST PUSH1 0x1F NOT DUP5 AND DUP6 LT PUSH2 0xD76 JUMPI PUSH1 0x1 SWAP5 POP DUP4 PUSH1 0x1F NOT DUP2 AND LT PUSH2 0xD5D JUMPI JUMPDEST POP POP POP DUP2 SHL ADD PUSH1 0x4 DUP6 ADD SSTORE PUSH2 0xA16 JUMP JUMPDEST ADD MLOAD PUSH1 0x0 NOT PUSH1 0xF8 DUP5 PUSH1 0x3 SHL AND SHR NOT AND SWAP1 SSTORE DUP10 DUP1 DUP1 PUSH2 0xD4D JUMP JUMPDEST DUP2 DUP2 ADD MLOAD DUP4 SSTORE PUSH1 0x20 SWAP5 DUP6 ADD SWAP5 PUSH1 0x1 SWAP1 SWAP4 ADD SWAP3 SWAP1 SWAP2 ADD SWAP1 PUSH2 0xD32 JUMP JUMPDEST SWAP2 SWAP1 PUSH1 0x2 DUP8 ADD PUSH1 0x0 MSTORE PUSH1 0x20 PUSH1 0x0 KECCAK256 SWAP1 PUSH1 0x0 SWAP4 JUMPDEST PUSH1 0x1F NOT DUP5 AND DUP6 LT PUSH2 0xDE8 JUMPI PUSH1 0x1 SWAP5 POP DUP4 PUSH1 0x1F NOT DUP2 AND LT PUSH2 0xDCF JUMPI JUMPDEST POP POP POP DUP2 SHL ADD PUSH1 0x2 DUP6 ADD SSTORE PUSH2 0x989 JUMP JUMPDEST ADD MLOAD PUSH1 0x0 NOT PUSH1 0xF8 DUP5 PUSH1 0x3 SHL AND SHR NOT AND SWAP1 SSTORE DUP10 DUP1 DUP1 PUSH2 0xDBF JUMP JUMPDEST DUP2 DUP2 ADD MLOAD DUP4 SSTORE PUSH1 0x20 SWAP5 DUP6 ADD SWAP5 PUSH1 0x1 SWAP1 SWAP4 ADD SWAP3 SWAP1 SWAP2 ADD SWAP1 PUSH2 0xDA4 JUMP JUMPDEST SWAP2 SWAP1 PUSH1 0x1 DUP8 ADD PUSH1 0x0 MSTORE PUSH1 0x20 PUSH1 0x0 KECCAK256 SWAP1 PUSH1 0x0 SWAP4 JUMPDEST PUSH1 0x1F NOT DUP5 AND DUP6 LT PUSH2 0xE5A JUMPI PUSH1 0x1 SWAP5 POP DUP4 PUSH1 0x1F NOT DUP2 AND LT PUSH2 0xE41 JUMPI JUMPDEST POP POP POP DUP2 SHL ADD PUSH1 0x1 DUP6 ADD SSTORE PUSH2 0x923 JUMP JUMPDEST ADD MLOAD PUSH1 0x0 NOT PUSH1 0xF8 DUP5 PUSH1 0x3 SHL AND SHR NOT AND SWAP1 SSTORE DUP10 DUP1 DUP1 PUSH2 0xE31 JUMP JUMPDEST DUP2 DUP2 ADD MLOAD DUP4 SSTORE PUSH1 0x20 SWAP5 DUP6 ADD SWAP5 PUSH1 0x1 SWAP1 SWAP4 ADD SWAP3 SWAP1 SWAP2 ADD SWAP1 PUSH2 0xE16 JUMP JUMPDEST PUSH1 0x40 MLOAD PUSH3 0x461BCD PUSH1 0xE5 SHL DUP2 MSTORE PUSH1 0x20 PUSH1 0x4 DUP3 ADD MSTORE PUSH1 0x19 PUSH1 0x24 DUP3 ADD MSTORE PUSH32 0x426174636820636F646520616C72656164792065786973747300000000000000 PUSH1 0x44 DUP3 ADD MSTORE PUSH1 0x64 SWAP1 REVERT JUMPDEST PUSH1 0x40 MLOAD PUSH3 0x461BCD PUSH1 0xE5 SHL DUP2 MSTORE PUSH1 0x20 PUSH1 0x4 DUP3 ADD MSTORE PUSH1 0x1F PUSH1 0x24 DUP3 ADD MSTORE PUSH32 0x4F726967696E206C6F636174696F6E2063616E6E6F7420626520656D70747900 PUSH1 0x44 DUP3 ADD MSTORE PUSH1 0x64 SWAP1 REVERT JUMPDEST PUSH1 0x40 MLOAD PUSH3 0x461BCD PUSH1 0xE5 SHL DUP2 MSTORE PUSH1 0x20 PUSH1 0x4 DUP3 ADD MSTORE PUSH1 0x1A PUSH1 0x24 DUP3 ADD MSTORE PUSH32 0x426174636820636F64652063616E6E6F7420626520656D707479000000000000 PUSH1 0x44 DUP3 ADD MSTORE PUSH1 0x64 SWAP1 REVERT JUMPDEST PUSH1 0x40 MLOAD PUSH3 0x461BCD PUSH1 0xE5 SHL DUP2 MSTORE PUSH1 0x20 PUSH1 0x4 DUP3 ADD MSTORE PUSH1 0x19 PUSH1 0x24 DUP3 ADD MSTORE PUSH32 0x48657262206E616D652063616E6E6F7420626520656D70747900000000000000 PUSH1 0x44 DUP3 ADD MSTORE PUSH1 0x64 SWAP1 REVERT JUMPDEST POP CALLER PUSH1 0x0 SWAP1 DUP2 MSTORE PUSH1 0x0 DUP1 MLOAD PUSH1 0x20 PUSH2 0x3C2C DUP4 CODECOPY DUP2 MLOAD SWAP2 MSTORE PUSH1 0x20 MSTORE PUSH1 0x40 SWAP1 KECCAK256 SLOAD PUSH1 0xFF AND PUSH2 0x792 JUMP JUMPDEST CALLVALUE PUSH2 0x26F JUMPI PUSH1 0x40 CALLDATASIZE PUSH1 0x3 NOT ADD SLT PUSH2 0x26F JUMPI PUSH2 0x2F1 PUSH1 0x4 CALLDATALOAD PUSH2 0xFCE PUSH2 0x2965 JUMP JUMPDEST SWAP1 DUP1 PUSH1 0x0 MSTORE PUSH1 0x7 PUSH1 0x20 MSTORE PUSH2 0xFE9 PUSH1 0x1 PUSH1 0x40 PUSH1 0x0 KECCAK256 ADD SLOAD PUSH2 0x31E1 JUMP JUMPDEST PUSH2 0x36C6 JUMP JUMPDEST CALLVALUE PUSH2 0x26F JUMPI PUSH1 0x0 CALLDATASIZE PUSH1 0x3 NOT ADD SLT PUSH2 0x26F JUMPI PUSH1 0x20 PUSH1 0x40 MLOAD PUSH1 0x0 DUP1 MLOAD PUSH1 0x20 PUSH2 0x3C4C DUP4 CODECOPY DUP2 MLOAD SWAP2 MSTORE DUP2 MSTORE RETURN JUMPDEST CALLVALUE PUSH2 0x26F JUMPI PUSH1 0x20 CALLDATASIZE PUSH1 0x3 NOT ADD SLT PUSH2 0x26F JUMPI PUSH1 0x4 CALLDATALOAD PUSH2 0x1033 PUSH2 0x2FEC JUMP JUMPDEST POP PUSH2 0x1041 PUSH1 0xA SLOAD DUP3 LT PUSH2 0x2F53 JUMP JUMPDEST PUSH1 0x0 MSTORE PUSH1 0xB PUSH1 0x20 MSTORE PUSH2 0x1117 PUSH1 0x40 PUSH1 0x0 KECCAK256 PUSH2 0x1105 PUSH1 0x8 PUSH1 0x40 MLOAD SWAP3 PUSH2 0x1063 DUP5 PUSH2 0x2B41 JUMP JUMPDEST DUP1 SLOAD DUP5 MSTORE PUSH2 0x1073 PUSH1 0x1 DUP3 ADD PUSH2 0x2CDD JUMP JUMPDEST PUSH1 0x20 DUP6 ADD MSTORE PUSH2 0x1084 PUSH1 0x2 DUP3 ADD PUSH2 0x2CDD JUMP JUMPDEST PUSH1 0x40 DUP6 ADD MSTORE PUSH1 0x3 DUP2 ADD SLOAD PUSH1 0x1 PUSH1 0x1 PUSH1 0xA0 SHL SUB AND PUSH1 0x60 DUP6 ADD MSTORE PUSH2 0x10A8 PUSH1 0x4 DUP3 ADD PUSH2 0x2CDD JUMP JUMPDEST PUSH1 0x80 DUP6 ADD MSTORE PUSH2 0x10B9 PUSH1 0x5 DUP3 ADD PUSH2 0x2CDD JUMP JUMPDEST PUSH1 0xA0 DUP6 ADD MSTORE PUSH2 0x10CA PUSH1 0x6 DUP3 ADD PUSH2 0x2CDD JUMP JUMPDEST PUSH1 0xC0 DUP6 ADD MSTORE PUSH1 0xFF PUSH1 0x7 DUP3 ADD SLOAD PUSH1 0x1 PUSH1 0x1 PUSH1 0x40 SHL SUB DUP2 AND PUSH1 0xE0 DUP8 ADD MSTORE DUP2 DUP2 PUSH1 0x40 SHR AND ISZERO ISZERO PUSH2 0x100 DUP8 ADD MSTORE PUSH1 0x48 SHR AND ISZERO ISZERO PUSH2 0x120 DUP6 ADD MSTORE ADD PUSH2 0x2D82 JUMP JUMPDEST PUSH2 0x140 DUP3 ADD MSTORE PUSH1 0x40 MLOAD SWAP2 DUP3 SWAP2 DUP3 PUSH2 0x2A25 JUMP JUMPDEST SUB SWAP1 RETURN JUMPDEST CALLVALUE PUSH2 0x26F JUMPI PUSH1 0x20 CALLDATASIZE PUSH1 0x3 NOT ADD SLT PUSH2 0x26F JUMPI PUSH1 0x4 CALLDATALOAD PUSH2 0x1138 DUP2 PUSH2 0x3207 JUMP JUMPDEST POP PUSH1 0x0 MSTORE PUSH1 0x6 PUSH1 0x20 MSTORE PUSH2 0x1117 PUSH2 0x1151 PUSH1 0x40 PUSH1 0x0 KECCAK256 PUSH2 0x2CDD JUMP JUMPDEST PUSH1 0x0 PUSH1 0x40 MLOAD PUSH2 0x115F DUP2 PUSH2 0x2B5D JUMP JUMPDEST MSTORE PUSH1 0x40 MLOAD SWAP2 DUP3 SWAP2 PUSH1 0x20 DUP4 MSTORE PUSH1 0x20 DUP4 ADD SWAP1 PUSH2 0x299E JUMP JUMPDEST CALLVALUE PUSH2 0x26F JUMPI PUSH1 0x0 CALLDATASIZE PUSH1 0x3 NOT ADD SLT PUSH2 0x26F JUMPI PUSH1 0x20 PUSH1 0x40 MLOAD PUSH32 0x373FDAC787BE5578B9A3D4A9CA3E3AE1E632AB5EE4750E92F65223238A15B2EF DUP2 MSTORE RETURN JUMPDEST CALLVALUE PUSH2 0x26F JUMPI PUSH1 0x80 CALLDATASIZE PUSH1 0x3 NOT ADD SLT PUSH2 0x26F JUMPI PUSH2 0x11C8 PUSH2 0x294F JUMP JUMPDEST PUSH2 0x11D0 PUSH2 0x2965 JUMP JUMPDEST SWAP1 PUSH1 0x44 CALLDATALOAD PUSH1 0x64 CALLDATALOAD SWAP3 PUSH1 0x1 PUSH1 0x1 PUSH1 0x40 SHL SUB DUP5 GT PUSH2 0x26F JUMPI CALLDATASIZE PUSH1 0x23 DUP6 ADD SLT ISZERO PUSH2 0x26F JUMPI PUSH2 0x1208 PUSH2 0x2F1 SWAP5 CALLDATASIZE SWAP1 PUSH1 0x24 DUP2 PUSH1 0x4 ADD CALLDATALOAD SWAP2 ADD PUSH2 0x2BCF JUMP JUMPDEST SWAP3 PUSH2 0x1214 DUP4 DUP4 DUP4 PUSH2 0x2DB4 JUMP JUMPDEST CALLER PUSH2 0x3ABD JUMP JUMPDEST CALLVALUE PUSH2 0x26F JUMPI PUSH1 0x20 CALLDATASIZE PUSH1 0x3 NOT ADD SLT PUSH2 0x26F JUMPI PUSH1 0x4 CALLDATALOAD PUSH1 0x1 PUSH1 0x1 PUSH1 0x40 SHL SUB DUP2 GT PUSH2 0x26F JUMPI PUSH2 0x1263 PUSH1 0x20 PUSH2 0x1250 DUP2 SWAP4 CALLDATASIZE SWAP1 PUSH1 0x4 ADD PUSH2 0x2C06 JUMP JUMPDEST DUP2 PUSH1 0x40 MLOAD SWAP4 DUP3 DUP6 DUP1 SWAP5 MLOAD SWAP4 DUP5 SWAP3 ADD PUSH2 0x297B JUMP JUMPDEST DUP2 ADD PUSH1 0xC DUP2 MSTORE SUB ADD SWAP1 KECCAK256 SLOAD PUSH1 0x40 MLOAD SWAP1 DUP2 MSTORE RETURN JUMPDEST CALLVALUE PUSH2 0x26F JUMPI PUSH1 0x20 CALLDATASIZE PUSH1 0x3 NOT ADD SLT PUSH2 0x26F JUMPI PUSH2 0x2F1 PUSH2 0x1292 PUSH2 0x294F JUMP JUMPDEST PUSH2 0x129A PUSH2 0x3179 JUMP JUMPDEST PUSH1 0x0 DUP1 MLOAD PUSH1 0x20 PUSH2 0x3C6C DUP4 CODECOPY DUP2 MLOAD SWAP2 MSTORE PUSH1 0x0 MSTORE PUSH1 0x7 PUSH1 0x20 MSTORE PUSH32 0x68CFE6F8C4A0A51FA498A36243209C54367E0B93D1A273C9F15BAC776A478D02 SLOAD PUSH2 0x12DC SWAP1 PUSH2 0x31E1 JUMP JUMPDEST PUSH2 0x362C JUMP JUMPDEST CALLVALUE PUSH2 0x26F JUMPI PUSH1 0x40 CALLDATASIZE PUSH1 0x3 NOT ADD SLT PUSH2 0x26F JUMPI PUSH2 0x12FA PUSH2 0x294F JUMP JUMPDEST PUSH1 0x24 CALLDATALOAD SWAP1 DUP2 ISZERO ISZERO DUP1 SWAP3 SUB PUSH2 0x26F JUMPI PUSH1 0x1 PUSH1 0x1 PUSH1 0xA0 SHL SUB AND SWAP1 DUP2 ISZERO PUSH2 0x136D JUMPI CALLER PUSH1 0x0 MSTORE PUSH1 0x5 PUSH1 0x20 MSTORE PUSH1 0x40 PUSH1 0x0 KECCAK256 DUP3 PUSH1 0x0 MSTORE PUSH1 0x20 MSTORE PUSH1 0x40 PUSH1 0x0 KECCAK256 PUSH1 0xFF NOT DUP2 SLOAD AND PUSH1 0xFF DUP4 AND OR SWAP1 SSTORE PUSH1 0x40 MLOAD SWAP1 DUP2 MSTORE PUSH32 0x17307EAB39AB6107E8899845AD3D59BD9653F200F220920489CA2B5937696C31 PUSH1 0x20 CALLER SWAP3 LOG3 STOP JUMPDEST PUSH1 0x40 MLOAD PUSH4 0xB611743 PUSH1 0xE3 SHL DUP2 MSTORE PUSH1 0x4 DUP2 ADD DUP4 SWAP1 MSTORE PUSH1 0x24 SWAP1 REVERT JUMPDEST CALLVALUE PUSH2 0x26F JUMPI PUSH1 0x0 CALLDATASIZE PUSH1 0x3 NOT ADD SLT PUSH2 0x26F JUMPI PUSH1 0x20 PUSH1 0x40 MLOAD PUSH1 0x0 DUP2 MSTORE RETURN JUMPDEST CALLVALUE PUSH2 0x26F JUMPI PUSH1 0x0 CALLDATASIZE PUSH1 0x3 NOT ADD SLT PUSH2 0x26F JUMPI PUSH1 0x20 PUSH1 0x40 MLOAD PUSH32 0x14CF45180C3FCF249A5A305E9657EA05C14FD4F4E1800EE0216A8213091711D2 DUP2 MSTORE RETURN JUMPDEST CALLVALUE PUSH2 0x26F JUMPI PUSH1 0x0 CALLDATASIZE PUSH1 0x3 NOT ADD SLT PUSH2 0x26F JUMPI PUSH1 0x40 MLOAD PUSH1 0x0 PUSH1 0x1 DUP3 PUSH1 0x1 SLOAD SWAP3 PUSH2 0x1403 DUP5 PUSH2 0x2CA3 JUMP JUMPDEST SWAP3 DUP4 DUP4 MSTORE PUSH1 0x20 SWAP5 DUP6 PUSH1 0x1 DUP3 AND SWAP2 DUP3 PUSH1 0x0 EQ PUSH2 0x14A0 JUMPI POP POP PUSH1 0x1 EQ PUSH2 0x1443 JUMPI JUMPDEST POP PUSH2 0x142F SWAP3 POP SUB DUP4 PUSH2 0x2B93 JUMP JUMPDEST PUSH2 0x1117 PUSH1 0x40 MLOAD SWAP3 DUP3 DUP5 SWAP4 DUP5 MSTORE DUP4 ADD SWAP1 PUSH2 0x299E JUMP JUMPDEST DUP5 SWAP2 POP PUSH1 0x1 PUSH1 0x0 MSTORE PUSH32 0xB10E2D527612073B26EECDFD717E6A320CF44B4AFAC2B0732D9FCBE2B7FA0CF6 SWAP1 PUSH1 0x0 SWAP2 JUMPDEST DUP6 DUP4 LT PUSH2 0x1488 JUMPI POP POP PUSH2 0x142F SWAP4 POP DUP3 ADD ADD DUP6 PUSH2 0x1422 JUMP JUMPDEST DUP1 SLOAD DUP4 DUP10 ADD DUP6 ADD MSTORE DUP8 SWAP5 POP DUP7 SWAP4 SWAP1 SWAP3 ADD SWAP2 DUP2 ADD PUSH2 0x1471 JUMP JUMPDEST PUSH1 0xFF NOT AND DUP6 DUP3 ADD MSTORE PUSH2 0x142F SWAP6 ISZERO ISZERO PUSH1 0x5 SHL DUP6 ADD ADD SWAP3 POP DUP8 SWAP2 POP PUSH2 0x1422 SWAP1 POP JUMP JUMPDEST CALLVALUE PUSH2 0x26F JUMPI PUSH1 0x40 CALLDATASIZE PUSH1 0x3 NOT ADD SLT PUSH2 0x26F JUMPI PUSH2 0x14D9 PUSH2 0x2965 JUMP JUMPDEST PUSH1 0x4 CALLDATALOAD PUSH1 0x0 MSTORE PUSH1 0x7 PUSH1 0x20 MSTORE PUSH1 0x40 PUSH1 0x0 KECCAK256 SWAP1 PUSH1 0x1 DUP1 PUSH1 0xA0 SHL SUB AND PUSH1 0x0 MSTORE PUSH1 0x20 MSTORE PUSH1 0x20 PUSH1 0xFF PUSH1 0x40 PUSH1 0x0 KECCAK256 SLOAD AND PUSH1 0x40 MLOAD SWAP1 ISZERO ISZERO DUP2 MSTORE RETURN JUMPDEST CALLVALUE PUSH2 0x26F JUMPI PUSH1 0x20 CALLDATASIZE PUSH1 0x3 NOT ADD SLT PUSH2 0x26F JUMPI PUSH1 0x4 CALLDATALOAD PUSH1 0x0 MSTORE PUSH1 0xB PUSH1 0x20 MSTORE PUSH1 0x40 PUSH1 0x0 KECCAK256 DUP1 SLOAD PUSH1 0x1 DUP3 ADD PUSH2 0x153D SWAP1 PUSH2 0x2CDD JUMP JUMPDEST SWAP2 PUSH2 0x154A PUSH1 0x2 DUP3 ADD PUSH2 0x2CDD JUMP JUMPDEST PUSH1 0x3 DUP3 ADD SLOAD PUSH1 0x1 PUSH1 0x1 PUSH1 0xA0 SHL SUB AND PUSH2 0x1564 PUSH1 0x4 DUP5 ADD PUSH2 0x2CDD JUMP JUMPDEST PUSH2 0x1570 PUSH1 0x5 DUP6 ADD PUSH2 0x2CDD JUMP JUMPDEST SWAP1 PUSH2 0x157D PUSH1 0x6 DUP7 ADD PUSH2 0x2CDD JUMP JUMPDEST SWAP3 PUSH1 0x7 DUP7 ADD SLOAD SWAP6 PUSH1 0x8 ADD PUSH2 0x1590 SWAP1 PUSH2 0x2D82 JUMP JUMPDEST SWAP5 PUSH1 0x40 MLOAD SWAP9 DUP10 SWAP9 PUSH2 0x1C0 SWAP1 DUP11 MSTORE DUP1 PUSH1 0x20 DUP12 ADD MSTORE DUP10 ADD PUSH2 0x15AE SWAP2 PUSH2 0x299E JUMP JUMPDEST DUP9 DUP2 SUB PUSH1 0x40 DUP11 ADD MSTORE PUSH2 0x15BF SWAP2 PUSH2 0x299E JUMP JUMPDEST SWAP1 PUSH1 0x60 DUP9 ADD MSTORE DUP7 DUP2 SUB PUSH1 0x80 DUP9 ADD MSTORE PUSH2 0x15D6 SWAP2 PUSH2 0x299E JUMP JUMPDEST DUP6 DUP2 SUB PUSH1 0xA0 DUP8 ADD MSTORE PUSH2 0x15E7 SWAP2 PUSH2 0x299E JUMP JUMPDEST DUP5 DUP2 SUB PUSH1 0xC0 DUP7 ADD MSTORE PUSH2 0x15F8 SWAP2 PUSH2 0x299E JUMP JUMPDEST SWAP2 PUSH1 0x1 PUSH1 0x1 PUSH1 0x40 SHL SUB DUP2 AND PUSH1 0xE0 DUP6 ADD MSTORE DUP1 PUSH1 0x40 SHR PUSH1 0xFF AND ISZERO ISZERO PUSH2 0x100 DUP6 ADD MSTORE PUSH1 0x48 SHR PUSH1 0xFF AND ISZERO ISZERO PUSH2 0x120 DUP5 ADD MSTORE PUSH2 0x140 DUP4 ADD PUSH2 0x1117 SWAP2 PUSH1 0x60 DUP1 SWAP2 DUP1 MLOAD DUP5 MSTORE PUSH1 0x20 DUP2 ADD MLOAD PUSH1 0x20 DUP6 ADD MSTORE PUSH1 0x40 DUP2 ADD MLOAD PUSH1 0x40 DUP6 ADD MSTORE ADD MLOAD SWAP2 ADD MSTORE JUMP JUMPDEST CALLVALUE PUSH2 0x26F JUMPI PUSH1 0x0 CALLDATASIZE PUSH1 0x3 NOT ADD SLT PUSH2 0x26F JUMPI PUSH2 0x166A PUSH2 0x3179 JUMP JUMPDEST PUSH2 0x1672 PUSH2 0x3242 JUMP JUMPDEST PUSH1 0x1 PUSH1 0xFF NOT PUSH1 0x9 SLOAD AND OR PUSH1 0x9 SSTORE PUSH32 0x62E78CEA01BEE320CD4E420270B5EA74000D11B0C9F74754EBDBFC544B05A258 PUSH1 0x20 PUSH1 0x40 MLOAD CALLER DUP2 MSTORE LOG1 STOP JUMPDEST CALLVALUE PUSH2 0x26F JUMPI PUSH1 0x0 CALLDATASIZE PUSH1 0x3 NOT ADD SLT PUSH2 0x26F JUMPI PUSH1 0x20 PUSH1 0x40 MLOAD PUSH32 0xE61DECFF6E4A5C6B5A3D3CBD28F882E595173563B49353CE5F31DBA2DE7F05EE DUP2 MSTORE RETURN JUMPDEST CALLVALUE PUSH2 0x26F JUMPI PUSH1 0x0 CALLDATASIZE PUSH1 0x3 NOT ADD SLT PUSH2 0x26F JUMPI PUSH1 0x20 PUSH1 0x40 MLOAD PUSH32 0xA49807205CE4D355092EF5A8A18F56E8913CF4A201FBE287825B095693C21775 DUP2 MSTORE RETURN JUMPDEST CALLVALUE PUSH2 0x26F JUMPI PUSH1 0x20 CALLDATASIZE PUSH1 0x3 NOT ADD SLT PUSH2 0x26F JUMPI PUSH1 0x1 PUSH1 0x1 PUSH1 0xA0 SHL SUB PUSH2 0x1742 PUSH2 0x294F JUMP JUMPDEST AND DUP1 ISZERO PUSH2 0x1761 JUMPI PUSH1 0x0 MSTORE PUSH1 0x3 PUSH1 0x20 MSTORE PUSH1 0x20 PUSH1 0x40 PUSH1 0x0 KECCAK256 SLOAD PUSH1 0x40 MLOAD SWAP1 DUP2 MSTORE RETURN JUMPDEST PUSH1 0x40 MLOAD PUSH4 0x22718AD9 PUSH1 0xE2 SHL DUP2 MSTORE PUSH1 0x0 PUSH1 0x4 DUP3 ADD MSTORE PUSH1 0x24 SWAP1 REVERT JUMPDEST CALLVALUE PUSH2 0x26F JUMPI PUSH1 0x20 CALLDATASIZE PUSH1 0x3 NOT ADD SLT PUSH2 0x26F JUMPI PUSH2 0x2F1 PUSH2 0x1796 PUSH2 0x294F JUMP JUMPDEST PUSH2 0x179E PUSH2 0x3179 JUMP JUMPDEST PUSH1 0x0 DUP1 MLOAD PUSH1 0x20 PUSH2 0x3C4C DUP4 CODECOPY DUP2 MLOAD SWAP2 MSTORE PUSH1 0x0 MSTORE PUSH1 0x7 PUSH1 0x20 MSTORE PUSH32 0xA4BFD7AFE708E2E87E7F0E2AD9B4D545417E0F795F57B5C5AB5D799C565A04F5 SLOAD PUSH2 0x17E0 SWAP1 PUSH2 0x31E1 JUMP JUMPDEST PUSH2 0x35A4 JUMP JUMPDEST CALLVALUE PUSH2 0x26F JUMPI PUSH1 0xA0 CALLDATASIZE PUSH1 0x3 NOT ADD SLT PUSH2 0x26F JUMPI PUSH1 0x4 CALLDATALOAD PUSH1 0x1 PUSH1 0x1 PUSH1 0x40 SHL SUB DUP2 GT PUSH2 0x26F JUMPI PUSH2 0x1815 SWAP1 CALLDATASIZE SWAP1 PUSH1 0x4 ADD PUSH2 0x2C21 JUMP JUMPDEST PUSH1 0x24 CALLDATALOAD PUSH1 0x1 PUSH1 0x1 PUSH1 0x40 SHL SUB DUP2 GT PUSH2 0x26F JUMPI PUSH2 0x1834 SWAP1 CALLDATASIZE SWAP1 PUSH1 0x4 ADD PUSH2 0x2C21 JUMP JUMPDEST PUSH1 0x44 CALLDATALOAD PUSH1 0x1 PUSH1 0x1 PUSH1 0x40 SHL SUB DUP2 GT PUSH2 0x26F JUMPI PUSH2 0x1853 SWAP1 CALLDATASIZE SWAP1 PUSH1 0x4 ADD PUSH2 0x2C21 JUMP JUMPDEST SWAP1 PUSH1 0x64 CALLDATALOAD PUSH1 0x1 PUSH1 0x1 PUSH1 0x40 SHL SUB DUP2 GT PUSH2 0x26F JUMPI PUSH2 0x1873 SWAP1 CALLDATASIZE SWAP1 PUSH1 0x4 ADD PUSH2 0x2C21 JUMP JUMPDEST PUSH1 0x84 CALLDATALOAD PUSH1 0x1 PUSH1 0x1 PUSH1 0x40 SHL SUB DUP2 GT PUSH2 0x26F JUMPI PUSH2 0x1892 SWAP1 CALLDATASIZE SWAP1 PUSH1 0x4 ADD PUSH2 0x2C21 JUMP JUMPDEST SWAP1 PUSH2 0x189B PUSH2 0x3242 JUMP JUMPDEST PUSH2 0x18A3 PUSH2 0x373D JUMP JUMPDEST CALLER PUSH1 0x0 SWAP1 DUP2 MSTORE PUSH1 0x0 DUP1 MLOAD PUSH1 0x20 PUSH2 0x3C8C DUP4 CODECOPY DUP2 MLOAD SWAP2 MSTORE PUSH1 0x20 MSTORE PUSH1 0x40 SWAP1 KECCAK256 SLOAD PUSH1 0xFF AND DUP1 ISZERO PUSH2 0x1FD1 JUMPI JUMPDEST PUSH2 0x18D3 SWAP1 PUSH2 0x3060 JUMP JUMPDEST DUP5 MLOAD DUP4 MLOAD DUP1 SWAP2 EQ SWAP1 DUP2 PUSH2 0x1FC6 JUMPI JUMPDEST POP DUP1 PUSH2 0x1FBB JUMPI JUMPDEST DUP1 PUSH2 0x1FB0 JUMPI JUMPDEST ISZERO PUSH2 0x1F73 JUMPI PUSH1 0x0 JUMPDEST DUP6 MLOAD DUP2 LT ISZERO PUSH2 0x1F6C JUMPI PUSH1 0xA SLOAD PUSH2 0x190B DUP2 PUSH2 0x30AC JUMP JUMPDEST PUSH1 0xA SSTORE PUSH2 0x1918 DUP2 CALLER PUSH2 0x3760 JUMP JUMPDEST PUSH2 0x192C PUSH2 0x1925 DUP4 DUP7 PUSH2 0x30BB JUMP JUMPDEST MLOAD DUP3 PUSH2 0x398E JUMP JUMPDEST PUSH2 0x1936 DUP3 DUP9 PUSH2 0x30BB JUMP JUMPDEST MLOAD PUSH2 0x1941 DUP4 DUP8 PUSH2 0x30BB JUMP JUMPDEST MLOAD PUSH2 0x194C DUP5 DUP10 PUSH2 0x30BB JUMP JUMPDEST MLOAD PUSH2 0x1957 DUP6 DUP8 PUSH2 0x30BB JUMP JUMPDEST MLOAD PUSH1 0x40 MLOAD SWAP2 PUSH2 0x1965 DUP4 PUSH2 0x2B26 JUMP JUMPDEST PUSH1 0x0 DUP4 MSTORE PUSH1 0x0 PUSH1 0x20 DUP5 ADD MSTORE PUSH1 0x0 PUSH1 0x40 DUP5 ADD MSTORE PUSH1 0x0 PUSH1 0x60 DUP5 ADD MSTORE PUSH1 0x40 MLOAD SWAP4 PUSH2 0x198B DUP6 PUSH2 0x2B41 JUMP JUMPDEST DUP7 DUP6 MSTORE PUSH1 0x20 DUP6 ADD SWAP6 DUP7 MSTORE PUSH1 0x40 DUP6 ADD MSTORE CALLER PUSH1 0x60 DUP6 ADD MSTORE PUSH1 0x80 DUP5 ADD MSTORE PUSH1 0xA0 DUP4 ADD MSTORE PUSH2 0x19B2 PUSH2 0x30E5 JUMP JUMPDEST PUSH1 0xC0 DUP4 ADD MSTORE PUSH1 0x1 PUSH1 0x1 PUSH1 0x40 SHL SUB TIMESTAMP AND PUSH1 0xE0 DUP4 ADD MSTORE PUSH1 0x0 PUSH2 0x100 DUP4 ADD MSTORE PUSH1 0x0 PUSH2 0x120 DUP4 ADD MSTORE PUSH2 0x140 DUP3 ADD MSTORE DUP3 PUSH1 0x0 MSTORE PUSH1 0xB PUSH1 0x20 MSTORE PUSH1 0x40 PUSH1 0x0 KECCAK256 SWAP2 DUP2 MLOAD DUP4 SSTORE MLOAD DUP1 MLOAD SWAP1 PUSH1 0x1 PUSH1 0x1 PUSH1 0x40 SHL SUB DUP3 GT PUSH2 0x597 JUMPI PUSH2 0x1A1B DUP3 PUSH2 0x1A12 PUSH1 0x1 DUP8 ADD SLOAD PUSH2 0x2CA3 JUMP JUMPDEST PUSH1 0x1 DUP8 ADD PUSH2 0x3102 JUMP JUMPDEST PUSH1 0x20 SWAP1 PUSH1 0x1F DUP4 GT PUSH1 0x1 EQ PUSH2 0x1EFA JUMPI PUSH2 0x1A4B SWAP3 SWAP2 PUSH1 0x0 SWAP2 DUP4 PUSH2 0x1D99 JUMPI POP POP DUP2 PUSH1 0x1 SHL SWAP2 PUSH1 0x0 NOT SWAP1 PUSH1 0x3 SHL SHR NOT AND OR SWAP1 JUMP JUMPDEST PUSH1 0x1 DUP4 ADD SSTORE JUMPDEST PUSH1 0x40 DUP2 ADD MLOAD DUP1 MLOAD SWAP1 PUSH1 0x1 PUSH1 0x1 PUSH1 0x40 SHL SUB DUP3 GT PUSH2 0x597 JUMPI PUSH2 0x1A81 DUP3 PUSH2 0x1A78 PUSH1 0x2 DUP8 ADD SLOAD PUSH2 0x2CA3 JUMP JUMPDEST PUSH1 0x2 DUP8 ADD PUSH2 0x3102 JUMP JUMPDEST PUSH1 0x20 SWAP1 PUSH1 0x1F DUP4 GT PUSH1 0x1 EQ PUSH2 0x1E88 JUMPI PUSH2 0x1AB1 SWAP3 SWAP2 PUSH1 0x0 SWAP2 DUP4 PUSH2 0x1D99 JUMPI POP POP DUP2 PUSH1 0x1 SHL SWAP2 PUSH1 0x0 NOT SWAP1 PUSH1 0x3 SHL SHR NOT AND OR SWAP1 JUMP JUMPDEST PUSH1 0x2 DUP4 ADD SSTORE JUMPDEST PUSH1 0x3 DUP3 ADD PUSH1 0x1 DUP1 PUSH1 0xA0 SHL SUB PUSH1 0x60 DUP4 ADD MLOAD AND PUSH12 0xFFFFFFFFFFFFFFFFFFFFFFFF PUSH1 0xA0 SHL DUP3 SLOAD AND OR SWAP1 SSTORE PUSH1 0x80 DUP2 ADD MLOAD DUP1 MLOAD SWAP1 PUSH1 0x1 PUSH1 0x1 PUSH1 0x40 SHL SUB DUP3 GT PUSH2 0x597 JUMPI PUSH2 0x1B0E DUP3 PUSH2 0x1B05 PUSH1 0x4 DUP8 ADD SLOAD PUSH2 0x2CA3 JUMP JUMPDEST PUSH1 0x4 DUP8 ADD PUSH2 0x3102 JUMP JUMPDEST PUSH1 0x20 SWAP1 PUSH1 0x1F DUP4 GT PUSH1 0x1 EQ PUSH2 0x1E16 JUMPI PUSH2 0x1B3E SWAP3 SWAP2 PUSH1 0x0 SWAP2 DUP4 PUSH2 0x1D99 JUMPI POP POP DUP2 PUSH1 0x1 SHL SWAP2 PUSH1 0x0 NOT SWAP1 PUSH1 0x3 SHL SHR NOT AND OR SWAP1 JUMP JUMPDEST PUSH1 0x4 DUP4 ADD SSTORE JUMPDEST PUSH1 0xA0 DUP2 ADD MLOAD DUP1 MLOAD SWAP1 PUSH1 0x1 PUSH1 0x1 PUSH1 0x40 SHL SUB DUP3 GT PUSH2 0x597 JUMPI PUSH2 0x1B74 DUP3 PUSH2 0x1B6B PUSH1 0x5 DUP8 ADD SLOAD PUSH2 0x2CA3 JUMP JUMPDEST PUSH1 0x5 DUP8 ADD PUSH2 0x3102 JUMP JUMPDEST PUSH1 0x20 SWAP1 PUSH1 0x1F DUP4 GT PUSH1 0x1 EQ PUSH2 0x1DA4 JUMPI PUSH2 0x1BA4 SWAP3 SWAP2 PUSH1 0x0 SWAP2 DUP4 PUSH2 0x1D99 JUMPI POP POP DUP2 PUSH1 0x1 SHL SWAP2 PUSH1 0x0 NOT SWAP1 PUSH1 0x3 SHL SHR NOT AND OR SWAP1 JUMP JUMPDEST PUSH1 0x5 DUP4 ADD SSTORE JUMPDEST PUSH1 0xC0 DUP2 ADD MLOAD DUP1 MLOAD SWAP1 PUSH1 0x1 PUSH1 0x1 PUSH1 0x40 SHL SUB DUP3 GT PUSH2 0x597 JUMPI PUSH2 0x1BD1 DUP3 PUSH2 0xAA9 PUSH1 0x6 DUP8 ADD SLOAD PUSH2 0x2CA3 JUMP JUMPDEST PUSH1 0x20 SWAP1 PUSH1 0x1F DUP4 GT PUSH1 0x1 EQ PUSH2 0x1D1D JUMPI PUSH1 0x1 SWAP7 SWAP6 SWAP5 SWAP4 PUSH2 0x1C0F DUP5 PUSH1 0xB SWAP6 PUSH1 0x60 SWAP6 PUSH2 0x140 SWAP6 PUSH1 0x0 SWAP3 PUSH2 0xBF3 JUMPI POP POP DUP2 PUSH1 0x1 SHL SWAP2 PUSH1 0x0 NOT SWAP1 PUSH1 0x3 SHL SHR NOT AND OR SWAP1 JUMP JUMPDEST PUSH1 0x6 DUP7 ADD SSTORE JUMPDEST PUSH1 0xE0 DUP2 ADD MLOAD PUSH1 0x7 DUP7 ADD DUP1 SLOAD PUSH2 0x100 DUP5 ADD MLOAD PUSH1 0xFF PUSH1 0x40 SHL SWAP1 ISZERO ISZERO PUSH1 0x40 SHL AND PUSH1 0x1 PUSH1 0x1 PUSH1 0x40 SHL SUB SWAP1 SWAP4 AND PUSH9 0xFFFFFFFFFFFFFFFFFF NOT SWAP1 SWAP2 AND OR SWAP2 SWAP1 SWAP2 OR DUP2 SSTORE PUSH2 0x1C5B SWAP1 PUSH2 0xB5D JUMP JUMPDEST ADD MLOAD DUP1 MLOAD PUSH1 0x8 DUP6 ADD SSTORE PUSH1 0x20 DUP2 ADD MLOAD PUSH1 0x9 DUP6 ADD SSTORE PUSH1 0x40 DUP2 ADD MLOAD PUSH1 0xA DUP6 ADD SSTORE ADD MLOAD SWAP2 ADD SSTORE DUP1 PUSH2 0x1CA1 PUSH1 0x20 PUSH2 0x1C8D DUP6 DUP11 PUSH2 0x30BB JUMP JUMPDEST MLOAD DUP2 PUSH1 0x40 MLOAD SWAP4 DUP3 DUP6 DUP1 SWAP5 MLOAD SWAP4 DUP5 SWAP3 ADD PUSH2 0x297B JUMP JUMPDEST DUP2 ADD PUSH1 0xC DUP2 MSTORE SUB ADD SWAP1 KECCAK256 SSTORE PUSH2 0x1CB6 DUP3 DUP10 PUSH2 0x30BB JUMP JUMPDEST MLOAD SWAP1 PUSH32 0x8FC3C5F6A5D8FA33EFD13543F345E7BF783B2A5E6F32421F47F2458D67C93E1B PUSH2 0x1D0A PUSH2 0x1CE6 DUP6 DUP11 PUSH2 0x30BB JUMP JUMPDEST MLOAD PUSH2 0x1CFC PUSH1 0x40 MLOAD SWAP6 PUSH1 0x60 DUP8 MSTORE PUSH1 0x60 DUP8 ADD SWAP1 PUSH2 0x299E JUMP JUMPDEST SWAP1 DUP6 DUP3 SUB PUSH1 0x20 DUP8 ADD MSTORE PUSH2 0x299E JUMP JUMPDEST SWAP3 TIMESTAMP PUSH1 0x40 DUP3 ADD MSTORE DUP1 CALLER SWAP5 SUB SWAP1 LOG3 ADD PUSH2 0x18F6 JUMP JUMPDEST SWAP1 PUSH1 0x6 DUP6 ADD PUSH1 0x0 MSTORE PUSH1 0x20 PUSH1 0x0 KECCAK256 SWAP2 PUSH1 0x0 JUMPDEST PUSH1 0x1F NOT DUP6 AND DUP2 LT PUSH2 0x1D81 JUMPI POP SWAP4 PUSH1 0x1 DUP5 PUSH1 0x60 SWAP5 PUSH2 0x140 SWAP5 DUP4 SWAP12 SWAP11 SWAP10 SWAP9 PUSH1 0xB SWAP9 PUSH1 0x1F NOT DUP2 AND LT PUSH2 0x1D68 JUMPI JUMPDEST POP POP POP DUP2 SHL ADD PUSH1 0x6 DUP7 ADD SSTORE PUSH2 0x1C15 JUMP JUMPDEST ADD MLOAD PUSH1 0x0 NOT PUSH1 0xF8 DUP5 PUSH1 0x3 SHL AND SHR NOT AND SWAP1 SSTORE DUP16 DUP1 DUP1 PUSH2 0x1D58 JUMP JUMPDEST SWAP2 SWAP3 PUSH1 0x20 PUSH1 0x1 DUP2 SWAP3 DUP7 DUP6 ADD MLOAD DUP2 SSTORE ADD SWAP5 ADD SWAP3 ADD PUSH2 0x1D2E JUMP JUMPDEST ADD MLOAD SWAP1 POP DUP13 DUP1 PUSH2 0x908 JUMP JUMPDEST SWAP2 SWAP1 PUSH1 0x5 DUP6 ADD PUSH1 0x0 MSTORE PUSH1 0x20 PUSH1 0x0 KECCAK256 SWAP1 PUSH1 0x0 SWAP4 JUMPDEST PUSH1 0x1F NOT DUP5 AND DUP6 LT PUSH2 0x1DFB JUMPI PUSH1 0x1 SWAP5 POP DUP4 PUSH1 0x1F NOT DUP2 AND LT PUSH2 0x1DE2 JUMPI JUMPDEST POP POP POP DUP2 SHL ADD PUSH1 0x5 DUP4 ADD SSTORE PUSH2 0x1BAA JUMP JUMPDEST ADD MLOAD PUSH1 0x0 NOT PUSH1 0xF8 DUP5 PUSH1 0x3 SHL AND SHR NOT AND SWAP1 SSTORE DUP12 DUP1 DUP1 PUSH2 0x1DD2 JUMP JUMPDEST DUP2 DUP2 ADD MLOAD DUP4 SSTORE PUSH1 0x20 SWAP5 DUP6 ADD SWAP5 PUSH1 0x1 SWAP1 SWAP4 ADD SWAP3 SWAP1 SWAP2 ADD SWAP1 PUSH2 0x1DB7 JUMP JUMPDEST SWAP2 SWAP1 PUSH1 0x4 DUP6 ADD PUSH1 0x0 MSTORE PUSH1 0x20 PUSH1 0x0 KECCAK256 SWAP1 PUSH1 0x0 SWAP4 JUMPDEST PUSH1 0x1F NOT DUP5 AND DUP6 LT PUSH2 0x1E6D JUMPI PUSH1 0x1 SWAP5 POP DUP4 PUSH1 0x1F NOT DUP2 AND LT PUSH2 0x1E54 JUMPI JUMPDEST POP POP POP DUP2 SHL ADD PUSH1 0x4 DUP4 ADD SSTORE PUSH2 0x1B44 JUMP JUMPDEST ADD MLOAD PUSH1 0x0 NOT PUSH1 0xF8 DUP5 PUSH1 0x3 SHL AND SHR NOT AND SWAP1 SSTORE DUP12 DUP1 DUP1 PUSH2 0x1E44 JUMP JUMPDEST DUP2 DUP2 ADD MLOAD DUP4 SSTORE PUSH1 0x20 SWAP5 DUP6 ADD SWAP5 PUSH1 0x1 SWAP1 SWAP4 ADD SWAP3 SWAP1 SWAP2 ADD SWAP1 PUSH2 0x1E29 JUMP JUMPDEST SWAP2 SWAP1 PUSH1 0x2 DUP6 ADD PUSH1 0x0 MSTORE PUSH1 0x20 PUSH1 0x0 KECCAK256 SWAP1 PUSH1 0x0 SWAP4 JUMPDEST PUSH1 0x1F NOT DUP5 AND DUP6 LT PUSH2 0x1EDF JUMPI PUSH1 0x1 SWAP5 POP DUP4 PUSH1 0x1F NOT DUP2 AND LT PUSH2 0x1EC6 JUMPI JUMPDEST POP POP POP DUP2 SHL ADD PUSH1 0x2 DUP4 ADD SSTORE PUSH2 0x1AB7 JUMP JUMPDEST ADD MLOAD PUSH1 0x0 NOT PUSH1 0xF8 DUP5 PUSH1 0x3 SHL AND SHR NOT AND SWAP1 SSTORE DUP12 DUP1 DUP1 PUSH2 0x1EB6 JUMP JUMPDEST DUP2 DUP2 ADD MLOAD DUP4 SSTORE PUSH1 0x20 SWAP5 DUP6 ADD SWAP5 PUSH1 0x1 SWAP1 SWAP4 ADD SWAP3 SWAP1 SWAP2 ADD SWAP1 PUSH2 0x1E9B JUMP JUMPDEST SWAP2 SWAP1 PUSH1 0x1 DUP6 ADD PUSH1 0x0 MSTORE PUSH1 0x20 PUSH1 0x0 KECCAK256 SWAP1 PUSH1 0x0 SWAP4 JUMPDEST PUSH1 0x1F NOT DUP5 AND DUP6 LT PUSH2 0x1F51 JUMPI PUSH1 0x1 SWAP5 POP DUP4 PUSH1 0x1F NOT DUP2 AND LT PUSH2 0x1F38 JUMPI JUMPDEST POP POP POP DUP2 SHL ADD PUSH1 0x1 DUP4 ADD SSTORE PUSH2 0x1A51 JUMP JUMPDEST ADD MLOAD PUSH1 0x0 NOT PUSH1 0xF8 DUP5 PUSH1 0x3 SHL AND SHR NOT AND SWAP1 SSTORE DUP12 DUP1 DUP1 PUSH2 0x1F28 JUMP JUMPDEST DUP2 DUP2 ADD MLOAD DUP4 SSTORE PUSH1 0x20 SWAP5 DUP6 ADD SWAP5 PUSH1 0x1 SWAP1 SWAP4 ADD SWAP3 SWAP1 SWAP2 ADD SWAP1 PUSH2 0x1F0D JUMP JUMPDEST PUSH1 0x1 PUSH1 0x8 SSTORE STOP JUMPDEST PUSH1 0x40 MLOAD PUSH3 0x461BCD PUSH1 0xE5 SHL DUP2 MSTORE PUSH1 0x20 PUSH1 0x4 DUP3 ADD MSTORE PUSH1 0x15 PUSH1 0x24 DUP3 ADD MSTORE PUSH21 0x82E4E4C2F240D8CADCCEE8D040DAD2E6DAC2E8C6D PUSH1 0x5B SHL PUSH1 0x44 DUP3 ADD MSTORE PUSH1 0x64 SWAP1 REVERT JUMPDEST POP DUP1 MLOAD DUP3 MLOAD EQ PUSH2 0x18EE JUMP JUMPDEST POP DUP4 MLOAD DUP2 MLOAD EQ PUSH2 0x18E8 JUMP JUMPDEST SWAP1 POP DUP5 MLOAD EQ DUP7 PUSH2 0x18E1 JUMP JUMPDEST POP CALLER PUSH1 0x0 SWAP1 DUP2 MSTORE PUSH1 0x0 DUP1 MLOAD PUSH1 0x20 PUSH2 0x3C2C DUP4 CODECOPY DUP2 MLOAD SWAP2 MSTORE PUSH1 0x20 MSTORE PUSH1 0x40 SWAP1 KECCAK256 SLOAD PUSH1 0xFF AND PUSH2 0x18CA JUMP JUMPDEST CALLVALUE PUSH2 0x26F JUMPI PUSH1 0x20 CALLDATASIZE PUSH1 0x3 NOT ADD SLT PUSH2 0x26F JUMPI PUSH1 0x20 PUSH2 0x2015 PUSH1 0x4 CALLDATALOAD PUSH2 0x3207 JUMP JUMPDEST PUSH1 0x40 MLOAD PUSH1 0x1 PUSH1 0x1 PUSH1 0xA0 SHL SUB SWAP1 SWAP2 AND DUP2 MSTORE RETURN JUMPDEST CALLVALUE PUSH2 0x26F JUMPI PUSH1 0x0 CALLDATASIZE PUSH1 0x3 NOT ADD SLT PUSH2 0x26F JUMPI PUSH1 0x20 PUSH1 0xFF PUSH1 0x9 SLOAD AND PUSH1 0x40 MLOAD SWAP1 ISZERO ISZERO DUP2 MSTORE RETURN JUMPDEST CALLVALUE PUSH2 0x26F JUMPI PUSH1 0x20 CALLDATASIZE PUSH1 0x3 NOT ADD SLT PUSH2 0x26F JUMPI PUSH1 0x1 PUSH1 0x1 PUSH1 0x40 SHL SUB PUSH1 0x4 CALLDATALOAD DUP2 DUP2 GT PUSH2 0x26F JUMPI PUSH2 0x207D PUSH1 0x20 SWAP2 CALLDATASIZE SWAP1 PUSH1 0x4 ADD PUSH2 0x29F8 JUMP JUMPDEST SWAP2 SWAP1 PUSH2 0x2087 PUSH2 0x2FEC JUMP JUMPDEST POP DUP3 PUSH1 0x40 MLOAD SWAP4 DUP5 SWAP3 DUP4 CALLDATACOPY DUP2 ADD PUSH1 0xC DUP2 MSTORE SUB ADD SWAP1 KECCAK256 SLOAD SWAP1 DUP2 ISZERO PUSH2 0x2161 JUMPI PUSH2 0x1117 SWAP2 PUSH1 0x0 MSTORE PUSH1 0xB PUSH1 0x20 MSTORE PUSH2 0x1105 PUSH1 0x8 PUSH1 0x40 PUSH1 0x0 KECCAK256 PUSH1 0xFF PUSH1 0x40 MLOAD SWAP5 PUSH2 0x20C8 DUP7 PUSH2 0x2B41 JUMP JUMPDEST DUP3 SLOAD DUP7 MSTORE PUSH2 0x20D8 PUSH1 0x1 DUP5 ADD PUSH2 0x2CDD JUMP JUMPDEST PUSH1 0x20 DUP8 ADD MSTORE PUSH2 0x20E9 PUSH1 0x2 DUP5 ADD PUSH2 0x2CDD JUMP JUMPDEST PUSH1 0x40 DUP8 ADD MSTORE PUSH1 0x3 DUP4 ADD SLOAD PUSH1 0x1 PUSH1 0x1 PUSH1 0xA0 SHL SUB AND PUSH1 0x60 DUP8 ADD MSTORE PUSH2 0x210D PUSH1 0x4 DUP5 ADD PUSH2 0x2CDD JUMP JUMPDEST PUSH1 0x80 DUP8 ADD MSTORE PUSH2 0x211E PUSH1 0x5 DUP5 ADD PUSH2 0x2CDD JUMP JUMPDEST PUSH1 0xA0 DUP8 ADD MSTORE PUSH2 0x212F PUSH1 0x6 DUP5 ADD PUSH2 0x2CDD JUMP JUMPDEST PUSH1 0xC0 DUP8 ADD MSTORE PUSH1 0x7 DUP4 ADD SLOAD SWAP1 DUP2 AND PUSH1 0xE0 DUP8 ADD MSTORE DUP2 DUP2 PUSH1 0x40 SHR AND ISZERO ISZERO PUSH2 0x100 DUP8 ADD MSTORE PUSH1 0x48 SHR AND ISZERO ISZERO PUSH2 0x120 DUP6 ADD MSTORE ADD PUSH2 0x2D82 JUMP JUMPDEST PUSH1 0x40 MLOAD PUSH3 0x461BCD PUSH1 0xE5 SHL DUP2 MSTORE PUSH1 0x20 PUSH1 0x4 DUP3 ADD MSTORE PUSH1 0xF PUSH1 0x24 DUP3 ADD MSTORE PUSH15 0x10985D18DA081B9BDD08199BDD5B99 PUSH1 0x8A SHL PUSH1 0x44 DUP3 ADD MSTORE PUSH1 0x64 SWAP1 REVERT JUMPDEST CALLVALUE PUSH2 0x26F JUMPI PUSH1 0x80 CALLDATASIZE PUSH1 0x3 NOT ADD SLT PUSH2 0x26F JUMPI PUSH1 0x4 CALLDATALOAD PUSH1 0x24 CALLDATALOAD PUSH1 0x44 CALLDATALOAD PUSH32 0xA49807205CE4D355092EF5A8A18F56E8913CF4A201FBE287825B095693C21775 PUSH1 0x0 MSTORE PUSH1 0x20 PUSH1 0x7 DUP2 MSTORE PUSH1 0x40 PUSH1 0x0 KECCAK256 CALLER PUSH1 0x0 MSTORE DUP2 MSTORE PUSH1 0xFF PUSH1 0x40 PUSH1 0x0 KECCAK256 SLOAD AND DUP1 ISZERO PUSH2 0x22DC JUMPI JUMPDEST PUSH2 0x2200 SWAP1 PUSH2 0x2F96 JUMP JUMPDEST PUSH2 0x2208 PUSH2 0x3242 JUMP JUMPDEST PUSH2 0x2215 PUSH1 0xA SLOAD DUP6 LT PUSH2 0x2F53 JUMP JUMPDEST PUSH1 0x64 DUP3 GT PUSH2 0x229F JUMPI SWAP2 PUSH1 0x60 SWAP2 PUSH32 0x95524C7D8850E7594D5662482ABB0DB94193E11A206711BDED04AD1D345E750A SWAP4 PUSH1 0x40 MLOAD PUSH2 0x224F DUP2 PUSH2 0x2B26 JUMP JUMPDEST DUP4 DUP2 MSTORE PUSH1 0xB DUP3 DUP3 ADD DUP5 DUP2 MSTORE PUSH1 0x40 DUP4 ADD PUSH1 0x64 CALLDATALOAD DUP2 MSTORE DUP8 DUP5 ADD SWAP2 TIMESTAMP DUP4 MSTORE DUP11 PUSH1 0x0 MSTORE DUP4 DUP7 MSTORE PUSH1 0x40 PUSH1 0x0 KECCAK256 SWAP5 MLOAD PUSH1 0x8 DUP7 ADD SSTORE MLOAD PUSH1 0x9 DUP6 ADD SSTORE MLOAD PUSH1 0xA DUP5 ADD SSTORE MLOAD SWAP2 ADD SSTORE PUSH1 0x40 MLOAD SWAP3 DUP4 MSTORE DUP3 ADD MSTORE TIMESTAMP PUSH1 0x40 DUP3 ADD MSTORE LOG2 STOP JUMPDEST PUSH1 0x64 SWAP1 PUSH1 0x40 MLOAD SWAP1 PUSH3 0x461BCD PUSH1 0xE5 SHL DUP3 MSTORE PUSH1 0x4 DUP3 ADD MSTORE PUSH1 0x16 PUSH1 0x24 DUP3 ADD MSTORE PUSH22 0x48756D6964697479206D75737420626520302D31303 PUSH1 0x54 SHL PUSH1 0x44 DUP3 ADD MSTORE REVERT JUMPDEST POP PUSH1 0x0 DUP1 MLOAD PUSH1 0x20 PUSH2 0x3C6C DUP4 CODECOPY DUP2 MLOAD SWAP2 MSTORE PUSH1 0x0 SWAP1 DUP2 MSTORE PUSH1 0x7 DUP3 MSTORE PUSH1 0x40 DUP1 DUP3 KECCAK256 CALLER DUP4 MSTORE DUP4 MSTORE SWAP1 KECCAK256 SLOAD PUSH1 0xFF AND PUSH2 0x21F7 JUMP JUMPDEST CALLVALUE PUSH2 0x26F JUMPI PUSH2 0x2F1 PUSH2 0x231B CALLDATASIZE PUSH2 0x29C3 JUMP JUMPDEST SWAP1 PUSH1 0x40 MLOAD SWAP3 PUSH2 0x2329 DUP5 PUSH2 0x2B5D JUMP JUMPDEST PUSH1 0x0 DUP5 MSTORE PUSH2 0x1214 DUP4 DUP4 DUP4 PUSH2 0x2DB4 JUMP JUMPDEST CALLVALUE PUSH2 0x26F JUMPI PUSH1 0x0 CALLDATASIZE PUSH1 0x3 NOT ADD SLT PUSH2 0x26F JUMPI PUSH2 0x2351 PUSH2 0x3179 JUMP JUMPDEST PUSH1 0x9 SLOAD PUSH1 0xFF DUP2 AND ISZERO PUSH2 0x2390 JUMPI PUSH1 0xFF NOT AND PUSH1 0x9 SSTORE PUSH32 0x5DB9EE0A495BF2E6FF9C91A7834C1BA4FDD244A5E8AA4E537BD38AEAE4B073AA PUSH1 0x20 PUSH1 0x40 MLOAD CALLER DUP2 MSTORE LOG1 STOP JUMPDEST PUSH1 0x40 MLOAD PUSH4 0x8DFC202B PUSH1 0xE0 SHL DUP2 MSTORE PUSH1 0x4 SWAP1 REVERT JUMPDEST CALLVALUE PUSH2 0x26F JUMPI PUSH1 0x20 CALLDATASIZE PUSH1 0x3 NOT ADD SLT PUSH2 0x26F JUMPI PUSH2 0x2F1 PUSH2 0x23BE PUSH2 0x294F JUMP JUMPDEST PUSH2 0x23C6 PUSH2 0x3179 JUMP JUMPDEST PUSH1 0x0 DUP1 MLOAD PUSH1 0x20 PUSH2 0x3C4C DUP4 CODECOPY DUP2 MLOAD SWAP2 MSTORE PUSH1 0x0 MSTORE PUSH1 0x7 PUSH1 0x20 MSTORE PUSH32 0xA4BFD7AFE708E2E87E7F0E2AD9B4D545417E0F795F57B5C5AB5D799C565A04F5 SLOAD PUSH2 0x2408 SWAP1 PUSH2 0x31E1 JUMP JUMPDEST PUSH2 0x3427 JUMP JUMPDEST CALLVALUE PUSH2 0x26F JUMPI PUSH1 0x40 CALLDATASIZE PUSH1 0x3 NOT ADD SLT PUSH2 0x26F JUMPI PUSH2 0x2426 PUSH2 0x2965 JUMP JUMPDEST CALLER PUSH1 0x1 PUSH1 0x1 PUSH1 0xA0 SHL SUB DUP3 AND SUB PUSH2 0x2442 JUMPI PUSH2 0x2F1 SWAP1 PUSH1 0x4 CALLDATALOAD PUSH2 0x36C6 JUMP JUMPDEST PUSH1 0x40 MLOAD PUSH4 0x334BD919 PUSH1 0xE1 SHL DUP2 MSTORE PUSH1 0x4 SWAP1 REVERT JUMPDEST CALLVALUE PUSH2 0x26F JUMPI PUSH1 0x20 CALLDATASIZE PUSH1 0x3 NOT ADD SLT PUSH2 0x26F JUMPI PUSH2 0x2F1 PUSH2 0x2470 PUSH2 0x294F JUMP JUMPDEST PUSH2 0x2478 PUSH2 0x3179 JUMP JUMPDEST PUSH32 0x14CF45180C3FCF249A5A305E9657EA05C14FD4F4E1800EE0216A8213091711D2 PUSH1 0x0 MSTORE PUSH1 0x7 PUSH1 0x20 MSTORE PUSH32 0x9A93D366C96821523B1013EE60686DA29AEC06E7C28B7AD65EA7EA0D51FD7FCF SLOAD PUSH2 0x24CC SWAP1 PUSH2 0x31E1 JUMP JUMPDEST PUSH2 0x338B JUMP JUMPDEST CALLVALUE PUSH2 0x26F JUMPI PUSH1 0x40 CALLDATASIZE PUSH1 0x3 NOT ADD SLT PUSH2 0x26F JUMPI PUSH2 0x2F1 PUSH1 0x4 CALLDATALOAD PUSH2 0x24F0 PUSH2 0x2965 JUMP JUMPDEST SWAP1 DUP1 PUSH1 0x0 MSTORE PUSH1 0x7 PUSH1 0x20 MSTORE PUSH2 0x250B PUSH1 0x1 PUSH1 0x40 PUSH1 0x0 KECCAK256 ADD SLOAD PUSH2 0x31E1 JUMP JUMPDEST PUSH2 0x353B JUMP JUMPDEST CALLVALUE PUSH2 0x26F JUMPI PUSH1 0x20 CALLDATASIZE PUSH1 0x3 NOT ADD SLT PUSH2 0x26F JUMPI PUSH1 0x4 CALLDATALOAD PUSH1 0x0 MSTORE PUSH1 0x7 PUSH1 0x20 MSTORE PUSH1 0x20 PUSH1 0x1 PUSH1 0x40 PUSH1 0x0 KECCAK256 ADD SLOAD PUSH1 0x40 MLOAD SWAP1 DUP2 MSTORE RETURN JUMPDEST CALLVALUE PUSH2 0x26F JUMPI PUSH1 0x20 CALLDATASIZE PUSH1 0x3 NOT ADD SLT PUSH2 0x26F JUMPI PUSH1 0x4 CALLDATALOAD PUSH2 0x255B PUSH2 0x3242 JUMP JUMPDEST PUSH2 0x2568 PUSH1 0xA SLOAD DUP3 LT PUSH2 0x2F53 JUMP JUMPDEST PUSH2 0x2571 DUP2 PUSH2 0x3207 JUMP JUMPDEST CALLER PUSH1 0x1 PUSH1 0x1 PUSH1 0xA0 SHL SUB SWAP1 SWAP2 AND SUB PUSH2 0x25AC JUMPI PUSH1 0x0 SWAP1 DUP2 MSTORE PUSH1 0xB PUSH1 0x20 MSTORE PUSH1 0x40 SWAP1 KECCAK256 PUSH1 0x7 ADD DUP1 SLOAD PUSH1 0xFF PUSH1 0x48 SHL NOT AND PUSH10 0x1000000000000000000 OR SWAP1 SSTORE STOP JUMPDEST PUSH1 0x40 MLOAD PUSH3 0x461BCD PUSH1 0xE5 SHL DUP2 MSTORE PUSH1 0x20 PUSH1 0x4 DUP3 ADD MSTORE PUSH1 0xD PUSH1 0x24 DUP3 ADD MSTORE PUSH13 0x2737BA103A34329037BBB732B9 PUSH1 0x99 SHL PUSH1 0x44 DUP3 ADD MSTORE PUSH1 0x64 SWAP1 REVERT JUMPDEST CALLVALUE PUSH2 0x26F JUMPI PUSH2 0x2F1 PUSH2 0x25F2 CALLDATASIZE PUSH2 0x29C3 JUMP JUMPDEST SWAP2 PUSH2 0x2DB4 JUMP JUMPDEST CALLVALUE PUSH2 0x26F JUMPI PUSH1 0x40 CALLDATASIZE PUSH1 0x3 NOT ADD SLT PUSH2 0x26F JUMPI PUSH2 0x2611 PUSH2 0x294F JUMP JUMPDEST PUSH1 0x24 CALLDATALOAD PUSH2 0x261D DUP2 PUSH2 0x3207 JUMP JUMPDEST CALLER ISZERO ISZERO DUP1 PUSH2 0x26CC JUMPI JUMPDEST DUP1 PUSH2 0x269F JUMPI JUMPDEST PUSH2 0x2687 JUMPI PUSH1 0x1 PUSH1 0x1 PUSH1 0xA0 SHL SUB SWAP3 DUP4 AND SWAP3 DUP3 SWAP2 DUP5 SWAP2 AND PUSH32 0x8C5BE1E5EBEC7D5BD14F71427D1E84F3DD0314C0F7B2291E5B200AC8C7C3B925 PUSH1 0x0 DUP1 LOG4 PUSH1 0x0 SWAP1 DUP2 MSTORE PUSH1 0x4 PUSH1 0x20 MSTORE PUSH1 0x40 SWAP1 KECCAK256 DUP1 SLOAD PUSH1 0x1 PUSH1 0x1 PUSH1 0xA0 SHL SUB NOT AND SWAP1 SWAP2 OR SWAP1 SSTORE STOP JUMPDEST PUSH1 0x40 MLOAD PUSH4 0xA9FBF51F PUSH1 0xE0 SHL DUP2 MSTORE CALLER PUSH1 0x4 DUP3 ADD MSTORE PUSH1 0x24 SWAP1 REVERT JUMPDEST POP PUSH1 0x1 DUP1 PUSH1 0xA0 SHL SUB DUP2 AND PUSH1 0x0 MSTORE PUSH1 0x5 PUSH1 0x20 MSTORE PUSH1 0x40 PUSH1 0x0 KECCAK256 CALLER PUSH1 0x0 MSTORE PUSH1 0x20 MSTORE PUSH1 0xFF PUSH1 0x40 PUSH1 0x0 KECCAK256 SLOAD AND ISZERO PUSH2 0x262C JUMP JUMPDEST POP PUSH1 0x1 PUSH1 0x1 PUSH1 0xA0 SHL SUB DUP2 AND CALLER EQ ISZERO PUSH2 0x2626 JUMP JUMPDEST CALLVALUE PUSH2 0x26F JUMPI PUSH1 0x20 CALLDATASIZE PUSH1 0x3 NOT ADD SLT PUSH2 0x26F JUMPI PUSH1 0x4 CALLDATALOAD PUSH2 0x26FC DUP2 PUSH2 0x3207 JUMP JUMPDEST POP PUSH1 0x0 MSTORE PUSH1 0x4 PUSH1 0x20 MSTORE PUSH1 0x20 PUSH1 0x1 DUP1 PUSH1 0xA0 SHL SUB PUSH1 0x40 PUSH1 0x0 KECCAK256 SLOAD AND PUSH1 0x40 MLOAD SWAP1 DUP2 MSTORE RETURN JUMPDEST CALLVALUE PUSH2 0x26F JUMPI PUSH1 0x0 CALLDATASIZE PUSH1 0x3 NOT ADD SLT PUSH2 0x26F JUMPI PUSH1 0x40 MLOAD PUSH1 0x0 DUP1 SLOAD SWAP1 DUP3 PUSH2 0x2740 DUP4 PUSH2 0x2CA3 JUMP JUMPDEST SWAP2 DUP3 DUP3 MSTORE PUSH1 0x20 SWAP4 PUSH1 0x1 SWAP1 DUP6 PUSH1 0x1 DUP3 AND SWAP2 DUP3 PUSH1 0x0 EQ PUSH2 0x14A0 JUMPI POP POP PUSH1 0x1 EQ PUSH2 0x276E JUMPI POP PUSH2 0x142F SWAP3 POP SUB DUP4 PUSH2 0x2B93 JUMP JUMPDEST PUSH1 0x0 DUP1 DUP1 MSTORE DUP6 SWAP3 POP SWAP1 PUSH32 0x290DECD9548B62A8D60345A988386FC84BA6BC95484008F6362F93160EF3E563 JUMPDEST DUP6 DUP4 LT PUSH2 0x27B0 JUMPI POP POP PUSH2 0x142F SWAP4 POP DUP3 ADD ADD DUP6 PUSH2 0x1422 JUMP JUMPDEST DUP1 SLOAD DUP4 DUP10 ADD DUP6 ADD MSTORE DUP8 SWAP5 POP DUP7 SWAP4 SWAP1 SWAP3 ADD SWAP2 DUP2 ADD PUSH2 0x2799 JUMP JUMPDEST CALLVALUE PUSH2 0x26F JUMPI PUSH1 0x20 CALLDATASIZE PUSH1 0x3 NOT ADD SLT PUSH2 0x26F JUMPI PUSH2 0x2F1 PUSH2 0x27E4 PUSH2 0x294F JUMP JUMPDEST PUSH2 0x27EC PUSH2 0x3179 JUMP JUMPDEST PUSH32 0xE61DECFF6E4A5C6B5A3D3CBD28F882E595173563B49353CE5F31DBA2DE7F05EE PUSH1 0x0 MSTORE PUSH1 0x7 PUSH1 0x20 MSTORE PUSH32 0x50055816ADB7D578513AA90FE122CD0CC1CAA8167ABBE37A1AE9B211F48B92D3 SLOAD PUSH2 0x2840 SWAP1 PUSH2 0x31E1 JUMP JUMPDEST PUSH2 0x32EF JUMP JUMPDEST CALLVALUE PUSH2 0x26F JUMPI PUSH1 0x20 CALLDATASIZE PUSH1 0x3 NOT ADD SLT PUSH2 0x26F JUMPI PUSH2 0x2F1 PUSH2 0x2861 PUSH2 0x294F JUMP JUMPDEST PUSH2 0x2869 PUSH2 0x3179 JUMP JUMPDEST PUSH1 0x0 DUP1 MLOAD PUSH1 0x20 PUSH2 0x3C6C DUP4 CODECOPY DUP2 MLOAD SWAP2 MSTORE PUSH1 0x0 MSTORE PUSH1 0x7 PUSH1 0x20 MSTORE PUSH32 0x68CFE6F8C4A0A51FA498A36243209C54367E0B93D1A273C9F15BAC776A478D02 SLOAD PUSH2 0x28AB SWAP1 PUSH2 0x31E1 JUMP JUMPDEST PUSH2 0x3260 JUMP JUMPDEST CALLVALUE PUSH2 0x26F JUMPI PUSH1 0x20 CALLDATASIZE PUSH1 0x3 NOT ADD SLT PUSH2 0x26F JUMPI PUSH1 0x4 CALLDATALOAD SWAP1 PUSH4 0xFFFFFFFF PUSH1 0xE0 SHL DUP3 AND DUP1 SWAP3 SUB PUSH2 0x26F JUMPI PUSH1 0x20 SWAP2 PUSH4 0x7965DB0B PUSH1 0xE0 SHL DUP2 EQ SWAP1 DUP2 ISZERO PUSH2 0x28F2 JUMPI JUMPDEST POP ISZERO ISZERO DUP2 MSTORE RETURN JUMPDEST PUSH4 0x24832483 PUSH1 0xE1 SHL DUP2 EQ SWAP2 POP DUP2 ISZERO PUSH2 0x290C JUMPI JUMPDEST POP DUP4 PUSH2 0x28EB JUMP JUMPDEST PUSH4 0x80AC58CD PUSH1 0xE0 SHL DUP2 EQ SWAP2 POP DUP2 ISZERO PUSH2 0x293E JUMPI JUMPDEST DUP2 ISZERO PUSH2 0x292D JUMPI JUMPDEST POP DUP4 PUSH2 0x2905 JUMP JUMPDEST PUSH4 0x1FFC9A7 PUSH1 0xE0 SHL EQ SWAP1 POP DUP4 PUSH2 0x2926 JUMP JUMPDEST PUSH4 0x5B5E139F PUSH1 0xE0 SHL DUP2 EQ SWAP2 POP PUSH2 0x291F JUMP JUMPDEST PUSH1 0x4 CALLDATALOAD SWAP1 PUSH1 0x1 PUSH1 0x1 PUSH1 0xA0 SHL SUB DUP3 AND DUP3 SUB PUSH2 0x26F JUMPI JUMP JUMPDEST PUSH1 0x24 CALLDATALOAD SWAP1 PUSH1 0x1 PUSH1 0x1 PUSH1 0xA0 SHL SUB DUP3 AND DUP3 SUB PUSH2 0x26F JUMPI JUMP JUMPDEST PUSH1 0x0 JUMPDEST DUP4 DUP2 LT PUSH2 0x298E JUMPI POP POP PUSH1 0x0 SWAP2 ADD MSTORE JUMP JUMPDEST DUP2 DUP2 ADD MLOAD DUP4 DUP3 ADD MSTORE PUSH1 0x20 ADD PUSH2 0x297E JUMP JUMPDEST SWAP1 PUSH1 0x20 SWAP2 PUSH2 0x29B7 DUP2 MLOAD DUP1 SWAP3 DUP2 DUP6 MSTORE DUP6 DUP1 DUP7 ADD SWAP2 ADD PUSH2 0x297B JUMP JUMPDEST PUSH1 0x1F ADD PUSH1 0x1F NOT AND ADD ADD SWAP1 JUMP JUMPDEST PUSH1 0x60 SWAP1 PUSH1 0x3 NOT ADD SLT PUSH2 0x26F JUMPI PUSH1 0x1 PUSH1 0x1 PUSH1 0xA0 SHL SUB SWAP1 PUSH1 0x4 CALLDATALOAD DUP3 DUP2 AND DUP2 SUB PUSH2 0x26F JUMPI SWAP2 PUSH1 0x24 CALLDATALOAD SWAP1 DUP2 AND DUP2 SUB PUSH2 0x26F JUMPI SWAP1 PUSH1 0x44 CALLDATALOAD SWAP1 JUMP JUMPDEST SWAP2 DUP2 PUSH1 0x1F DUP5 ADD SLT ISZERO PUSH2 0x26F JUMPI DUP3 CALLDATALOAD SWAP2 PUSH1 0x1 PUSH1 0x1 PUSH1 0x40 SHL SUB DUP4 GT PUSH2 0x26F JUMPI PUSH1 0x20 DUP4 DUP2 DUP7 ADD SWAP6 ADD ADD GT PUSH2 0x26F JUMPI JUMP JUMPDEST PUSH2 0x2B23 SWAP1 PUSH1 0x20 DUP2 MSTORE DUP3 MLOAD PUSH1 0x20 DUP3 ADD MSTORE PUSH2 0x160 PUSH2 0x2AC9 PUSH2 0x2A55 PUSH1 0x20 DUP7 ADD MLOAD PUSH2 0x1C0 PUSH1 0x40 DUP7 ADD MSTORE PUSH2 0x1E0 DUP6 ADD SWAP1 PUSH2 0x299E JUMP JUMPDEST PUSH2 0x2AB4 PUSH2 0x2AA0 PUSH2 0x2A77 PUSH1 0x40 DUP10 ADD MLOAD SWAP4 PUSH1 0x1F NOT SWAP5 DUP6 DUP10 DUP4 SUB ADD PUSH1 0x60 DUP11 ADD MSTORE PUSH2 0x299E JUMP JUMPDEST PUSH1 0x60 DUP10 ADD MLOAD PUSH1 0x1 PUSH1 0x1 PUSH1 0xA0 SHL SUB AND PUSH1 0x80 DUP9 DUP2 ADD SWAP2 SWAP1 SWAP2 MSTORE DUP10 ADD MLOAD DUP8 DUP3 SUB DUP6 ADD PUSH1 0xA0 DUP10 ADD MSTORE PUSH2 0x299E JUMP JUMPDEST PUSH1 0xA0 DUP9 ADD MLOAD DUP4 DUP8 DUP4 SUB ADD PUSH1 0xC0 DUP9 ADD MSTORE PUSH2 0x299E JUMP JUMPDEST SWAP1 PUSH1 0xC0 DUP8 ADD MLOAD SWAP1 DUP6 DUP4 SUB ADD PUSH1 0xE0 DUP7 ADD MSTORE PUSH2 0x299E JUMP JUMPDEST SWAP4 PUSH1 0xE0 DUP2 ADD MLOAD PUSH1 0x1 PUSH1 0x1 PUSH1 0x40 SHL SUB PUSH2 0x100 SWAP2 AND DUP2 DUP6 ADD MSTORE DUP2 ADD MLOAD PUSH2 0x120 SWAP1 ISZERO ISZERO DUP2 DUP6 ADD MSTORE DUP2 ADD MLOAD SWAP1 PUSH2 0x140 SWAP2 ISZERO ISZERO DUP3 DUP6 ADD MSTORE ADD MLOAD SWAP2 ADD SWAP1 PUSH1 0x60 DUP1 SWAP2 DUP1 MLOAD DUP5 MSTORE PUSH1 0x20 DUP2 ADD MLOAD PUSH1 0x20 DUP6 ADD MSTORE PUSH1 0x40 DUP2 ADD MLOAD PUSH1 0x40 DUP6 ADD MSTORE ADD MLOAD SWAP2 ADD MSTORE JUMP JUMPDEST SWAP1 JUMP JUMPDEST PUSH1 0x80 DUP2 ADD SWAP1 DUP2 LT PUSH1 0x1 PUSH1 0x1 PUSH1 0x40 SHL SUB DUP3 GT OR PUSH2 0x597 JUMPI PUSH1 0x40 MSTORE JUMP JUMPDEST PUSH2 0x160 DUP2 ADD SWAP1 DUP2 LT PUSH1 0x1 PUSH1 0x1 PUSH1 0x40 SHL SUB DUP3 GT OR PUSH2 0x597 JUMPI PUSH1 0x40 MSTORE JUMP JUMPDEST PUSH1 0x20 DUP2 ADD SWAP1 DUP2 LT PUSH1 0x1 PUSH1 0x1 PUSH1 0x40 SHL SUB DUP3 GT OR PUSH2 0x597 JUMPI PUSH1 0x40 MSTORE JUMP JUMPDEST PUSH1 0x40 DUP2 ADD SWAP1 DUP2 LT PUSH1 0x1 PUSH1 0x1 PUSH1 0x40 SHL SUB DUP3 GT OR PUSH2 0x597 JUMPI PUSH1 0x40 MSTORE JUMP JUMPDEST SWAP1 PUSH1 0x1F DUP1 NOT SWAP2 ADD AND DUP2 ADD SWAP1 DUP2 LT PUSH1 0x1 PUSH1 0x1 PUSH1 0x40 SHL SUB DUP3 GT OR PUSH2 0x597 JUMPI PUSH1 0x40 MSTORE JUMP JUMPDEST PUSH1 0x1 PUSH1 0x1 PUSH1 0x40 SHL SUB DUP2 GT PUSH2 0x597 JUMPI PUSH1 0x1F ADD PUSH1 0x1F NOT AND PUSH1 0x20 ADD SWAP1 JUMP JUMPDEST SWAP3 SWAP2 SWAP3 PUSH2 0x2BDB DUP3 PUSH2 0x2BB4 JUMP JUMPDEST SWAP2 PUSH2 0x2BE9 PUSH1 0x40 MLOAD SWAP4 DUP5 PUSH2 0x2B93 JUMP JUMPDEST DUP3 SWAP5 DUP2 DUP5 MSTORE DUP2 DUP4 ADD GT PUSH2 0x26F JUMPI DUP3 DUP2 PUSH1 0x20 SWAP4 DUP5 PUSH1 0x0 SWAP7 ADD CALLDATACOPY ADD ADD MSTORE JUMP JUMPDEST SWAP1 DUP1 PUSH1 0x1F DUP4 ADD SLT ISZERO PUSH2 0x26F JUMPI DUP2 PUSH1 0x20 PUSH2 0x2B23 SWAP4 CALLDATALOAD SWAP2 ADD PUSH2 0x2BCF JUMP JUMPDEST DUP2 PUSH1 0x1F DUP3 ADD SLT ISZERO PUSH2 0x26F JUMPI DUP1 CALLDATALOAD SWAP2 PUSH1 0x20 SWAP2 PUSH1 0x1 PUSH1 0x1 PUSH1 0x40 SHL SUB DUP1 DUP6 GT PUSH2 0x597 JUMPI DUP5 PUSH1 0x5 SHL SWAP1 PUSH1 0x40 MLOAD SWAP6 PUSH2 0x2C56 DUP7 DUP5 ADD DUP9 PUSH2 0x2B93 JUMP JUMPDEST DUP7 MSTORE DUP5 DUP1 DUP8 ADD SWAP3 DUP5 ADD ADD SWAP4 DUP1 DUP6 GT PUSH2 0x26F JUMPI DUP6 DUP5 ADD SWAP3 JUMPDEST DUP6 DUP5 LT PUSH2 0x2C7E JUMPI POP POP POP POP POP POP POP SWAP1 JUMP JUMPDEST DUP4 CALLDATALOAD DUP4 DUP2 GT PUSH2 0x26F JUMPI DUP8 SWAP2 PUSH2 0x2C98 DUP5 DUP5 DUP1 SWAP5 DUP11 ADD ADD PUSH2 0x2C06 JUMP JUMPDEST DUP2 MSTORE ADD SWAP4 ADD SWAP3 PUSH2 0x2C6D JUMP JUMPDEST SWAP1 PUSH1 0x1 DUP3 DUP2 SHR SWAP3 AND DUP1 ISZERO PUSH2 0x2CD3 JUMPI JUMPDEST PUSH1 0x20 DUP4 LT EQ PUSH2 0x2CBD JUMPI JUMP JUMPDEST PUSH4 0x4E487B71 PUSH1 0xE0 SHL PUSH1 0x0 MSTORE PUSH1 0x22 PUSH1 0x4 MSTORE PUSH1 0x24 PUSH1 0x0 REVERT JUMPDEST SWAP2 PUSH1 0x7F AND SWAP2 PUSH2 0x2CB2 JUMP JUMPDEST SWAP1 PUSH1 0x40 MLOAD SWAP2 DUP3 PUSH1 0x0 DUP3 SLOAD PUSH2 0x2CF0 DUP2 PUSH2 0x2CA3 JUMP JUMPDEST SWAP1 DUP2 DUP5 MSTORE PUSH1 0x20 SWAP5 PUSH1 0x1 SWAP2 PUSH1 0x1 DUP2 AND SWAP1 DUP2 PUSH1 0x0 EQ PUSH2 0x2D60 JUMPI POP PUSH1 0x1 EQ PUSH2 0x2D21 JUMPI JUMPDEST POP POP POP PUSH2 0x2D1F SWAP3 POP SUB DUP4 PUSH2 0x2B93 JUMP JUMPDEST JUMP JUMPDEST PUSH1 0x0 SWAP1 DUP2 MSTORE DUP6 DUP2 KECCAK256 SWAP6 SWAP4 POP SWAP2 SWAP1 JUMPDEST DUP2 DUP4 LT PUSH2 0x2D48 JUMPI POP POP PUSH2 0x2D1F SWAP4 POP DUP3 ADD ADD CODESIZE DUP1 DUP1 PUSH2 0x2D10 JUMP JUMPDEST DUP6 SLOAD DUP9 DUP5 ADD DUP6 ADD MSTORE SWAP5 DUP6 ADD SWAP5 DUP8 SWAP5 POP SWAP2 DUP4 ADD SWAP2 PUSH2 0x2D2F JUMP JUMPDEST SWAP3 POP POP POP PUSH2 0x2D1F SWAP5 SWAP3 POP PUSH1 0xFF NOT AND DUP3 DUP5 ADD MSTORE ISZERO ISZERO PUSH1 0x5 SHL DUP3 ADD ADD CODESIZE DUP1 DUP1 PUSH2 0x2D10 JUMP JUMPDEST SWAP1 PUSH1 0x40 MLOAD PUSH2 0x2D8F DUP2 PUSH2 0x2B26 JUMP JUMPDEST PUSH1 0x60 PUSH1 0x3 DUP3 SWAP5 DUP1 SLOAD DUP5 MSTORE PUSH1 0x1 DUP2 ADD SLOAD PUSH1 0x20 DUP6 ADD MSTORE PUSH1 0x2 DUP2 ADD SLOAD PUSH1 0x40 DUP6 ADD MSTORE ADD SLOAD SWAP2 ADD MSTORE JUMP JUMPDEST PUSH1 0x1 PUSH1 0x1 PUSH1 0xA0 SHL SUB SWAP2 DUP3 AND SWAP3 SWAP1 SWAP2 DUP4 ISZERO PUSH2 0x2F3A JUMPI PUSH1 0x0 SWAP3 DUP3 DUP5 MSTORE DUP3 PUSH1 0x20 SWAP6 PUSH1 0x2 DUP8 MSTORE PUSH1 0x40 SWAP7 DUP5 DUP9 DUP9 KECCAK256 SLOAD AND SWAP7 DUP8 SWAP2 CALLER ISZERO ISZERO DUP1 PUSH2 0x2EA4 JUMPI JUMPDEST POP SWAP1 PUSH1 0x2 PUSH32 0xDDF252AD1BE2C89B69C2B068FC378DAA952BA7F163C4A11628F55A4DF523B3EF SWAP3 DUP5 PUSH2 0x2E71 JUMPI JUMPDEST DUP6 DUP4 MSTORE PUSH1 0x3 DUP2 MSTORE DUP12 DUP4 KECCAK256 DUP1 SLOAD PUSH1 0x1 ADD SWAP1 SSTORE DUP7 DUP4 MSTORE MSTORE DUP10 DUP2 KECCAK256 DUP1 SLOAD PUSH1 0x1 PUSH1 0x1 PUSH1 0xA0 SHL SUB NOT AND DUP6 OR SWAP1 SSTORE DUP1 LOG4 AND SWAP3 DUP4 DUP4 SUB PUSH2 0x2E50 JUMPI POP POP POP POP JUMP JUMPDEST PUSH1 0x64 SWAP5 POP MLOAD SWAP3 PUSH4 0x64283D7B PUSH1 0xE0 SHL DUP5 MSTORE PUSH1 0x4 DUP5 ADD MSTORE PUSH1 0x24 DUP4 ADD MSTORE PUSH1 0x44 DUP3 ADD MSTORE REVERT JUMPDEST PUSH1 0x0 DUP8 DUP2 MSTORE PUSH1 0x4 PUSH1 0x20 MSTORE PUSH1 0x40 SWAP1 KECCAK256 DUP1 SLOAD PUSH1 0x1 PUSH1 0x1 PUSH1 0xA0 SHL SUB NOT AND SWAP1 SSTORE DUP5 DUP4 MSTORE PUSH1 0x3 DUP2 MSTORE DUP12 DUP4 KECCAK256 DUP1 SLOAD PUSH1 0x0 NOT ADD SWAP1 SSTORE PUSH2 0x2E17 JUMP JUMPDEST SWAP2 SWAP4 SWAP5 POP SWAP2 POP DUP1 PUSH2 0x2EF9 JUMPI JUMPDEST ISZERO PUSH2 0x2EC0 JUMPI DUP6 SWAP3 SWAP2 DUP8 SWAP2 CODESIZE PUSH2 0x2DEB JUMP JUMPDEST DUP8 DUP7 DUP9 PUSH2 0x2EDD JUMPI PUSH1 0x24 SWAP2 MLOAD SWAP1 PUSH4 0x7E273289 PUSH1 0xE0 SHL DUP3 MSTORE PUSH1 0x4 DUP3 ADD MSTORE REVERT JUMPDEST PUSH1 0x44 SWAP2 MLOAD SWAP1 PUSH4 0x177E802F PUSH1 0xE0 SHL DUP3 MSTORE CALLER PUSH1 0x4 DUP4 ADD MSTORE PUSH1 0x24 DUP3 ADD MSTORE REVERT JUMPDEST POP CALLER DUP8 EQ DUP1 ISZERO PUSH2 0x2F1E JUMPI JUMPDEST DUP1 PUSH2 0x2EB0 JUMPI POP DUP6 DUP3 MSTORE PUSH1 0x4 DUP2 MSTORE CALLER DUP6 DUP10 DUP5 KECCAK256 SLOAD AND EQ PUSH2 0x2EB0 JUMP JUMPDEST POP DUP7 DUP3 MSTORE PUSH1 0x5 DUP2 MSTORE DUP8 DUP3 KECCAK256 CALLER DUP4 MSTORE DUP2 MSTORE PUSH1 0xFF DUP9 DUP4 KECCAK256 SLOAD AND PUSH2 0x2F04 JUMP JUMPDEST PUSH1 0x40 MLOAD PUSH4 0x32505749 PUSH1 0xE1 SHL DUP2 MSTORE PUSH1 0x0 PUSH1 0x4 DUP3 ADD MSTORE PUSH1 0x24 SWAP1 REVERT JUMPDEST ISZERO PUSH2 0x2F5A JUMPI JUMP JUMPDEST PUSH1 0x40 MLOAD PUSH3 0x461BCD PUSH1 0xE5 SHL DUP2 MSTORE PUSH1 0x20 PUSH1 0x4 DUP3 ADD MSTORE PUSH1 0x14 PUSH1 0x24 DUP3 ADD MSTORE PUSH20 0x151BDAD95B88191BD95CC81B9BDD08195E1A5CDD PUSH1 0x62 SHL PUSH1 0x44 DUP3 ADD MSTORE PUSH1 0x64 SWAP1 REVERT JUMPDEST ISZERO PUSH2 0x2F9D JUMPI JUMP JUMPDEST PUSH1 0x40 MLOAD PUSH3 0x461BCD PUSH1 0xE5 SHL DUP2 MSTORE PUSH1 0x20 PUSH1 0x4 DUP3 ADD MSTORE PUSH1 0x21 PUSH1 0x24 DUP3 ADD MSTORE PUSH32 0x4E6F7420617574686F72697A65643A2061646D696E206F722076657269666965 PUSH1 0x44 DUP3 ADD MSTORE PUSH1 0x39 PUSH1 0xF9 SHL PUSH1 0x64 DUP3 ADD MSTORE PUSH1 0x84 SWAP1 REVERT JUMPDEST PUSH1 0x40 MLOAD SWAP1 PUSH2 0x2FF9 DUP3 PUSH2 0x2B41 JUMP JUMPDEST DUP2 PUSH2 0x140 PUSH1 0x0 SWAP2 DUP3 DUP2 MSTORE PUSH1 0x60 SWAP3 DUP4 PUSH1 0x20 DUP4 ADD MSTORE DUP4 PUSH1 0x40 DUP4 ADD MSTORE DUP1 DUP5 DUP4 ADD MSTORE DUP4 PUSH1 0x80 DUP4 ADD MSTORE DUP4 PUSH1 0xA0 DUP4 ADD MSTORE DUP4 PUSH1 0xC0 DUP4 ADD MSTORE DUP1 PUSH1 0xE0 DUP4 ADD MSTORE DUP1 PUSH2 0x100 DUP4 ADD MSTORE DUP1 PUSH2 0x120 DUP4 ADD MSTORE PUSH1 0x40 MLOAD SWAP4 PUSH2 0x304A DUP6 PUSH2 0x2B26 JUMP JUMPDEST DUP2 DUP6 MSTORE DUP2 PUSH1 0x20 DUP7 ADD MSTORE DUP2 PUSH1 0x40 DUP7 ADD MSTORE DUP5 ADD MSTORE ADD MSTORE JUMP JUMPDEST ISZERO PUSH2 0x3067 JUMPI JUMP JUMPDEST PUSH1 0x40 MLOAD PUSH3 0x461BCD PUSH1 0xE5 SHL DUP2 MSTORE PUSH1 0x20 PUSH1 0x4 DUP3 ADD MSTORE PUSH1 0x1F PUSH1 0x24 DUP3 ADD MSTORE PUSH32 0x4E6F7420617574686F72697A65643A206D696E746572206F722061646D696E00 PUSH1 0x44 DUP3 ADD MSTORE PUSH1 0x64 SWAP1 REVERT JUMPDEST PUSH1 0x0 NOT DUP2 EQ PUSH2 0x68F JUMPI PUSH1 0x1 ADD SWAP1 JUMP JUMPDEST DUP1 MLOAD DUP3 LT ISZERO PUSH2 0x30CF JUMPI PUSH1 0x20 SWAP2 PUSH1 0x5 SHL ADD ADD SWAP1 JUMP JUMPDEST PUSH4 0x4E487B71 PUSH1 0xE0 SHL PUSH1 0x0 MSTORE PUSH1 0x32 PUSH1 0x4 MSTORE PUSH1 0x24 PUSH1 0x0 REVERT JUMPDEST PUSH1 0x40 MLOAD SWAP1 PUSH2 0x30F2 DUP3 PUSH2 0x2B78 JUMP JUMPDEST PUSH1 0x1 DUP3 MSTORE PUSH1 0x21 PUSH1 0xF9 SHL PUSH1 0x20 DUP4 ADD MSTORE JUMP JUMPDEST SWAP1 PUSH1 0x1F DUP2 GT PUSH2 0x3110 JUMPI POP POP POP JUMP JUMPDEST PUSH1 0x0 SWAP2 PUSH1 0x0 MSTORE PUSH1 0x20 PUSH1 0x0 KECCAK256 SWAP1 PUSH1 0x20 PUSH1 0x1F DUP6 ADD PUSH1 0x5 SHR DUP4 ADD SWAP5 LT PUSH2 0x314E JUMPI JUMPDEST PUSH1 0x1F ADD PUSH1 0x5 SHR ADD SWAP2 JUMPDEST DUP3 DUP2 LT PUSH2 0x3143 JUMPI POP POP POP JUMP JUMPDEST DUP2 DUP2 SSTORE PUSH1 0x1 ADD PUSH2 0x3137 JUMP JUMPDEST SWAP1 SWAP3 POP DUP3 SWAP1 PUSH2 0x312E JUMP JUMPDEST SWAP1 DUP1 PUSH1 0x20 SWAP4 SWAP3 DUP2 DUP5 MSTORE DUP5 DUP5 ADD CALLDATACOPY PUSH1 0x0 DUP3 DUP3 ADD DUP5 ADD MSTORE PUSH1 0x1F ADD PUSH1 0x1F NOT AND ADD ADD SWAP1 JUMP JUMPDEST CALLER PUSH1 0x0 SWAP1 DUP2 MSTORE PUSH1 0x0 DUP1 MLOAD PUSH1 0x20 PUSH2 0x3C2C DUP4 CODECOPY DUP2 MLOAD SWAP2 MSTORE PUSH1 0x20 MSTORE PUSH1 0x40 SWAP1 KECCAK256 SLOAD PUSH32 0xA49807205CE4D355092EF5A8A18F56E8913CF4A201FBE287825B095693C21775 SWAP1 PUSH1 0xFF AND ISZERO PUSH2 0x31C3 JUMPI POP JUMP JUMPDEST PUSH1 0x44 SWAP1 PUSH1 0x40 MLOAD SWAP1 PUSH4 0xE2517D3F PUSH1 0xE0 SHL DUP3 MSTORE CALLER PUSH1 0x4 DUP4 ADD MSTORE PUSH1 0x24 DUP3 ADD MSTORE REVERT JUMPDEST DUP1 PUSH1 0x0 MSTORE PUSH1 0x7 PUSH1 0x20 MSTORE PUSH1 0x40 PUSH1 0x0 KECCAK256 CALLER PUSH1 0x0 MSTORE PUSH1 0x20 MSTORE PUSH1 0xFF PUSH1 0x40 PUSH1 0x0 KECCAK256 SLOAD AND ISZERO PUSH2 0x31C3 JUMPI POP JUMP JUMPDEST PUSH1 0x0 DUP2 DUP2 MSTORE PUSH1 0x2 PUSH1 0x20 MSTORE PUSH1 0x40 SWAP1 KECCAK256 SLOAD PUSH1 0x1 PUSH1 0x1 PUSH1 0xA0 SHL SUB AND SWAP1 DUP2 ISZERO PUSH2 0x322A JUMPI POP SWAP1 JUMP JUMPDEST PUSH1 0x24 SWAP1 PUSH1 0x40 MLOAD SWAP1 PUSH4 0x7E273289 PUSH1 0xE0 SHL DUP3 MSTORE PUSH1 0x4 DUP3 ADD MSTORE REVERT JUMPDEST PUSH1 0xFF PUSH1 0x9 SLOAD AND PUSH2 0x324E JUMPI JUMP JUMPDEST PUSH1 0x40 MLOAD PUSH4 0xD93C0665 PUSH1 0xE0 SHL DUP2 MSTORE PUSH1 0x4 SWAP1 REVERT JUMPDEST PUSH1 0x1 PUSH1 0x1 PUSH1 0xA0 SHL SUB AND PUSH1 0x0 DUP2 DUP2 MSTORE PUSH32 0x68CFE6F8C4A0A51FA498A36243209C54367E0B93D1A273C9F15BAC776A478D01 PUSH1 0x20 MSTORE PUSH1 0x40 DUP2 KECCAK256 SLOAD SWAP1 SWAP2 SWAP1 PUSH1 0x0 DUP1 MLOAD PUSH1 0x20 PUSH2 0x3C6C DUP4 CODECOPY DUP2 MLOAD SWAP2 MSTORE SWAP1 PUSH1 0xFF AND PUSH2 0x32EA JUMPI DUP1 DUP4 MSTORE PUSH1 0x7 PUSH1 0x20 MSTORE PUSH1 0x40 DUP4 KECCAK256 DUP3 DUP5 MSTORE PUSH1 0x20 MSTORE PUSH1 0x40 DUP4 KECCAK256 PUSH1 0x1 PUSH1 0xFF NOT DUP3 SLOAD AND OR SWAP1 SSTORE PUSH1 0x0 DUP1 MLOAD PUSH1 0x20 PUSH2 0x3C0C DUP4 CODECOPY DUP2 MLOAD SWAP2 MSTORE CALLER SWAP4 DUP1 LOG4 PUSH1 0x1 SWAP1 JUMP JUMPDEST POP POP SWAP1 JUMP JUMPDEST PUSH1 0x1 PUSH1 0x1 PUSH1 0xA0 SHL SUB AND PUSH1 0x0 DUP2 DUP2 MSTORE PUSH32 0x50055816ADB7D578513AA90FE122CD0CC1CAA8167ABBE37A1AE9B211F48B92D2 PUSH1 0x20 MSTORE PUSH1 0x40 DUP2 KECCAK256 SLOAD SWAP1 SWAP2 SWAP1 PUSH32 0xE61DECFF6E4A5C6B5A3D3CBD28F882E595173563B49353CE5F31DBA2DE7F05EE SWAP1 PUSH1 0xFF AND PUSH2 0x32EA JUMPI DUP1 DUP4 MSTORE PUSH1 0x7 PUSH1 0x20 MSTORE PUSH1 0x40 DUP4 KECCAK256 DUP3 DUP5 MSTORE PUSH1 0x20 MSTORE PUSH1 0x40 DUP4 KECCAK256 PUSH1 0x1 PUSH1 0xFF NOT DUP3 SLOAD AND OR SWAP1 SSTORE PUSH1 0x0 DUP1 MLOAD PUSH1 0x20 PUSH2 0x3C0C DUP4 CODECOPY DUP2 MLOAD SWAP2 MSTORE CALLER SWAP4 DUP1 LOG4 PUSH1 0x1 SWAP1 JUMP JUMPDEST PUSH1 0x1 PUSH1 0x1 PUSH1 0xA0 SHL SUB AND PUSH1 0x0 DUP2 DUP2 MSTORE PUSH32 0x9A93D366C96821523B1013EE60686DA29AEC06E7C28B7AD65EA7EA0D51FD7FCE PUSH1 0x20 MSTORE PUSH1 0x40 DUP2 KECCAK256 SLOAD SWAP1 SWAP2 SWAP1 PUSH32 0x14CF45180C3FCF249A5A305E9657EA05C14FD4F4E1800EE0216A8213091711D2 SWAP1 PUSH1 0xFF AND PUSH2 0x32EA JUMPI DUP1 DUP4 MSTORE PUSH1 0x7 PUSH1 0x20 MSTORE PUSH1 0x40 DUP4 KECCAK256 DUP3 DUP5 MSTORE PUSH1 0x20 MSTORE PUSH1 0x40 DUP4 KECCAK256 PUSH1 0x1 PUSH1 0xFF NOT DUP3 SLOAD AND OR SWAP1 SSTORE PUSH1 0x0 DUP1 MLOAD PUSH1 0x20 PUSH2 0x3C0C DUP4 CODECOPY DUP2 MLOAD SWAP2 MSTORE CALLER SWAP4 DUP1 LOG4 PUSH1 0x1 SWAP1 JUMP JUMPDEST PUSH1 0x1 PUSH1 0x1 PUSH1 0xA0 SHL SUB AND PUSH1 0x0 DUP2 DUP2 MSTORE PUSH1 0x0 DUP1 MLOAD PUSH1 0x20 PUSH2 0x3C8C DUP4 CODECOPY DUP2 MLOAD SWAP2 MSTORE PUSH1 0x20 MSTORE PUSH1 0x40 DUP2 KECCAK256 SLOAD SWAP1 SWAP2 SWAP1 PUSH1 0x0 DUP1 MLOAD PUSH1 0x20 PUSH2 0x3C4C DUP4 CODECOPY DUP2 MLOAD SWAP2 MSTORE SWAP1 PUSH1 0xFF AND PUSH2 0x32EA JUMPI DUP1 DUP4 MSTORE PUSH1 0x7 PUSH1 0x20 MSTORE PUSH1 0x40 DUP4 KECCAK256 DUP3 DUP5 MSTORE PUSH1 0x20 MSTORE PUSH1 0x40 DUP4 KECCAK256 PUSH1 0x1 PUSH1 0xFF NOT DUP3 SLOAD AND OR SWAP1 SSTORE PUSH1 0x0 DUP1 MLOAD PUSH1 0x20 PUSH2 0x3C0C DUP4 CODECOPY DUP2 MLOAD SWAP2 MSTORE CALLER SWAP4 DUP1 LOG4 PUSH1 0x1 SWAP1 JUMP JUMPDEST PUSH1 0x1 PUSH1 0x1 PUSH1 0xA0 SHL SUB AND PUSH1 0x0 DUP2 DUP2 MSTORE PUSH32 0xFC5D98CA782D8179D21919CC8DC8A0B0515F909D18F8C0522E3F9567CC3C6EDF PUSH1 0x20 MSTORE PUSH1 0x40 DUP2 KECCAK256 SLOAD SWAP1 SWAP2 SWAP1 PUSH32 0x373FDAC787BE5578B9A3D4A9CA3E3AE1E632AB5EE4750E92F65223238A15B2EF SWAP1 PUSH1 0xFF AND PUSH2 0x32EA JUMPI DUP1 DUP4 MSTORE PUSH1 0x7 PUSH1 0x20 MSTORE PUSH1 0x40 DUP4 KECCAK256 DUP3 DUP5 MSTORE PUSH1 0x20 MSTORE PUSH1 0x40 DUP4 KECCAK256 PUSH1 0x1 PUSH1 0xFF NOT DUP3 SLOAD AND OR SWAP1 SSTORE PUSH1 0x0 DUP1 MLOAD PUSH1 0x20 PUSH2 0x3C0C DUP4 CODECOPY DUP2 MLOAD SWAP2 MSTORE CALLER SWAP4 DUP1 LOG4 PUSH1 0x1 SWAP1 JUMP JUMPDEST SWAP1 PUSH1 0x0 SWAP2 DUP1 DUP4 MSTORE PUSH1 0x7 PUSH1 0x20 MSTORE PUSH1 0x40 DUP4 KECCAK256 SWAP2 PUSH1 0x1 DUP1 PUSH1 0xA0 SHL SUB AND SWAP2 DUP3 DUP5 MSTORE PUSH1 0x20 MSTORE PUSH1 0xFF PUSH1 0x40 DUP5 KECCAK256 SLOAD AND ISZERO PUSH1 0x0 EQ PUSH2 0x32EA JUMPI DUP1 DUP4 MSTORE PUSH1 0x7 PUSH1 0x20 MSTORE PUSH1 0x40 DUP4 KECCAK256 DUP3 DUP5 MSTORE PUSH1 0x20 MSTORE PUSH1 0x40 DUP4 KECCAK256 PUSH1 0x1 PUSH1 0xFF NOT DUP3 SLOAD AND OR SWAP1 SSTORE PUSH1 0x0 DUP1 MLOAD PUSH1 0x20 PUSH2 0x3C0C DUP4 CODECOPY DUP2 MLOAD SWAP2 MSTORE CALLER SWAP4 DUP1 LOG4 PUSH1 0x1 SWAP1 JUMP JUMPDEST PUSH1 0x1 PUSH1 0x1 PUSH1 0xA0 SHL SUB AND PUSH1 0x0 DUP2 DUP2 MSTORE PUSH1 0x0 DUP1 MLOAD PUSH1 0x20 PUSH2 0x3C8C DUP4 CODECOPY DUP2 MLOAD SWAP2 MSTORE PUSH1 0x20 MSTORE PUSH1 0x40 DUP2 KECCAK256 SLOAD SWAP1 SWAP2 SWAP1 PUSH1 0x0 DUP1 MLOAD PUSH1 0x20 PUSH2 0x3C4C DUP4 CODECOPY DUP2 MLOAD SWAP2 MSTORE SWAP1 PUSH1 0xFF AND ISZERO PUSH2 0x32EA JUMPI DUP1 DUP4 MSTORE PUSH1 0x7 PUSH1 0x20 MSTORE PUSH1 0x40 DUP4 KECCAK256 DUP3 DUP5 MSTORE PUSH1 0x20 MSTORE PUSH1 0x40 DUP4 KECCAK256 PUSH1 0xFF NOT DUP2 SLOAD AND SWAP1 SSTORE PUSH32 0xF6391F5C32D9C69D2A47EA670B442974B53935D1EDC7FD64EB21E047A839171B CALLER SWAP4 DUP1 LOG4 PUSH1 0x1 SWAP1 JUMP JUMPDEST PUSH1 0x1 PUSH1 0x1 PUSH1 0xA0 SHL SUB AND PUSH1 0x0 DUP2 DUP2 MSTORE PUSH32 0x68CFE6F8C4A0A51FA498A36243209C54367E0B93D1A273C9F15BAC776A478D01 PUSH1 0x20 MSTORE PUSH1 0x40 DUP2 KECCAK256 SLOAD SWAP1 SWAP2 SWAP1 PUSH1 0x0 DUP1 MLOAD PUSH1 0x20 PUSH2 0x3C6C DUP4 CODECOPY DUP2 MLOAD SWAP2 MSTORE SWAP1 PUSH1 0xFF AND ISZERO PUSH2 0x32EA JUMPI DUP1 DUP4 MSTORE PUSH1 0x7 PUSH1 0x20 MSTORE PUSH1 0x40 DUP4 KECCAK256 DUP3 DUP5 MSTORE PUSH1 0x20 MSTORE PUSH1 0x40 DUP4 KECCAK256 PUSH1 0xFF NOT DUP2 SLOAD AND SWAP1 SSTORE PUSH32 0xF6391F5C32D9C69D2A47EA670B442974B53935D1EDC7FD64EB21E047A839171B CALLER SWAP4 DUP1 LOG4 PUSH1 0x1 SWAP1 JUMP JUMPDEST SWAP1 PUSH1 0x0 SWAP2 DUP1 DUP4 MSTORE PUSH1 0x7 PUSH1 0x20 MSTORE PUSH1 0x40 DUP4 KECCAK256 SWAP2 PUSH1 0x1 DUP1 PUSH1 0xA0 SHL SUB AND SWAP2 DUP3 DUP5 MSTORE PUSH1 0x20 MSTORE PUSH1 0xFF PUSH1 0x40 DUP5 KECCAK256 SLOAD AND PUSH1 0x0 EQ PUSH2 0x32EA JUMPI DUP1 DUP4 MSTORE PUSH1 0x7 PUSH1 0x20 MSTORE PUSH1 0x40 DUP4 KECCAK256 DUP3 DUP5 MSTORE PUSH1 0x20 MSTORE PUSH1 0x40 DUP4 KECCAK256 PUSH1 0xFF NOT DUP2 SLOAD AND SWAP1 SSTORE PUSH32 0xF6391F5C32D9C69D2A47EA670B442974B53935D1EDC7FD64EB21E047A839171B CALLER SWAP4 DUP1 LOG4 PUSH1 0x1 SWAP1 JUMP JUMPDEST PUSH1 0x2 PUSH1 0x8 SLOAD EQ PUSH2 0x374E JUMPI PUSH1 0x2 PUSH1 0x8 SSTORE JUMP JUMPDEST PUSH1 0x40 MLOAD PUSH4 0x3EE5AEB5 PUSH1 0xE0 SHL DUP2 MSTORE PUSH1 0x4 SWAP1 REVERT JUMPDEST PUSH1 0x40 DUP1 MLOAD PUSH2 0x376D DUP2 PUSH2 0x2B5D JUMP JUMPDEST PUSH1 0x0 DUP1 DUP3 MSTORE SWAP4 PUSH1 0x1 PUSH1 0x1 PUSH1 0xA0 SHL SUB DUP5 DUP2 AND SWAP5 SWAP1 SWAP3 SWAP1 DUP6 ISZERO PUSH2 0x3976 JUMPI DUP3 DUP8 MSTORE PUSH1 0x20 SWAP4 PUSH1 0x2 DUP6 MSTORE DUP6 DUP9 KECCAK256 SLOAD AND DUP4 DUP8 DUP3 ISZERO ISZERO SWAP3 DUP4 PUSH2 0x3943 JUMPI JUMPDEST DUP2 DUP12 MSTORE PUSH1 0x3 DUP9 MSTORE DUP9 DUP12 KECCAK256 DUP1 SLOAD PUSH1 0x1 ADD SWAP1 SSTORE DUP3 DUP12 MSTORE PUSH1 0x2 DUP9 MSTORE DUP9 DUP12 KECCAK256 DUP1 SLOAD PUSH1 0x1 PUSH1 0x1 PUSH1 0xA0 SHL SUB NOT AND DUP4 OR SWAP1 SSTORE PUSH32 0xDDF252AD1BE2C89B69C2B068FC378DAA952BA7F163C4A11628F55A4DF523B3EF DUP12 DUP1 LOG4 PUSH2 0x392B JUMPI EXTCODESIZE PUSH2 0x3804 JUMPI JUMPDEST POP POP POP POP POP POP JUMP JUMPDEST DUP3 PUSH2 0x3842 SWAP2 DUP6 SWAP7 SWAP8 SWAP9 SWAP5 SWAP6 MLOAD DUP1 SWAP4 DUP2 SWAP3 PUSH4 0xA85BD01 PUSH1 0xE1 SHL SWAP7 DUP8 DUP5 MSTORE CALLER PUSH1 0x4 DUP6 ADD MSTORE DUP13 PUSH1 0x24 DUP6 ADD MSTORE PUSH1 0x44 DUP5 ADD MSTORE PUSH1 0x80 PUSH1 0x64 DUP5 ADD MSTORE PUSH1 0x84 DUP4 ADD SWAP1 PUSH2 0x299E JUMP JUMPDEST SUB DUP2 DUP11 DUP11 GAS CALL DUP8 SWAP2 DUP2 PUSH2 0x38E7 JUMPI JUMPDEST POP PUSH2 0x38B0 JUMPI POP POP POP RETURNDATASIZE PUSH1 0x0 EQ PUSH2 0x38A7 JUMPI RETURNDATASIZE PUSH2 0x386A DUP2 PUSH2 0x2BB4 JUMP JUMPDEST SWAP1 PUSH2 0x3877 DUP5 MLOAD SWAP3 DUP4 PUSH2 0x2B93 JUMP JUMPDEST DUP2 MSTORE DUP1 SWAP5 DUP3 RETURNDATASIZE SWAP3 ADD RETURNDATACOPY JUMPDEST DUP4 MLOAD SWAP4 DUP5 PUSH2 0x38A1 JUMPI DUP3 MLOAD PUSH4 0x32505749 PUSH1 0xE1 SHL DUP2 MSTORE PUSH1 0x4 DUP2 ADD DUP6 SWAP1 MSTORE PUSH1 0x24 SWAP1 REVERT JUMPDEST DUP5 SWAP3 POP ADD REVERT JUMPDEST PUSH1 0x60 SWAP4 POP PUSH2 0x3881 JUMP JUMPDEST SWAP2 SWAP6 POP SWAP2 POP PUSH4 0xFFFFFFFF PUSH1 0xE0 SHL AND SUB PUSH2 0x38D0 JUMPI POP POP CODESIZE DUP1 DUP1 DUP1 DUP1 DUP1 PUSH2 0x37FC JUMP JUMPDEST PUSH1 0x24 SWAP3 POP MLOAD SWAP1 PUSH4 0x32505749 PUSH1 0xE1 SHL DUP3 MSTORE PUSH1 0x4 DUP3 ADD MSTORE REVERT JUMPDEST SWAP1 SWAP2 POP DUP5 DUP2 DUP2 RETURNDATASIZE DUP4 GT PUSH2 0x3924 JUMPI JUMPDEST PUSH2 0x38FF DUP2 DUP4 PUSH2 0x2B93 JUMP JUMPDEST DUP2 ADD SUB SLT PUSH2 0x3920 JUMPI MLOAD PUSH1 0x1 PUSH1 0x1 PUSH1 0xE0 SHL SUB NOT DUP2 AND DUP2 SUB PUSH2 0x3920 JUMPI SWAP1 CODESIZE PUSH2 0x3850 JUMP JUMPDEST DUP8 DUP1 REVERT JUMPDEST POP RETURNDATASIZE PUSH2 0x38F5 JUMP JUMPDEST DUP5 MLOAD PUSH4 0x39E35637 PUSH1 0xE1 SHL DUP2 MSTORE PUSH1 0x4 DUP2 ADD DUP9 SWAP1 MSTORE PUSH1 0x24 SWAP1 REVERT JUMPDEST PUSH1 0x0 DUP4 DUP2 MSTORE PUSH1 0x4 PUSH1 0x20 MSTORE PUSH1 0x40 SWAP1 KECCAK256 DUP1 SLOAD PUSH1 0x1 PUSH1 0x1 PUSH1 0xA0 SHL SUB NOT AND SWAP1 SSTORE DUP1 DUP12 MSTORE PUSH1 0x3 DUP9 MSTORE DUP9 DUP12 KECCAK256 DUP1 SLOAD PUSH1 0x0 NOT ADD SWAP1 SSTORE PUSH2 0x37A3 JUMP JUMPDEST DUP5 MLOAD PUSH4 0x32505749 PUSH1 0xE1 SHL DUP2 MSTORE PUSH1 0x4 DUP2 ADD DUP9 SWAP1 MSTORE PUSH1 0x24 SWAP1 REVERT JUMPDEST SWAP2 SWAP1 SWAP2 PUSH1 0x0 SWAP1 DUP1 DUP3 MSTORE PUSH1 0x20 SWAP2 PUSH1 0x6 DUP4 MSTORE PUSH1 0x40 DUP2 KECCAK256 SWAP1 DUP6 MLOAD SWAP6 PUSH1 0x1 PUSH1 0x1 PUSH1 0x40 SHL SUB DUP8 GT PUSH2 0x3AA9 JUMPI PUSH2 0x39C8 DUP8 PUSH2 0x39C2 DUP6 SLOAD PUSH2 0x2CA3 JUMP JUMPDEST DUP6 PUSH2 0x3102 JUMP JUMPDEST DUP5 SWAP2 PUSH1 0x1F DUP9 GT PUSH1 0x1 EQ PUSH2 0x3A25 JUMPI SWAP7 PUSH2 0x3A19 SWAP3 DUP2 SWAP3 PUSH32 0xF8E1A15ABA9398E019F0B49DF1A4FDE98EE17AE345CB5F6B5E2C27F5033E8CE7 SWAP9 SWAP10 SWAP3 PUSH2 0xBF3 JUMPI POP POP DUP2 PUSH1 0x1 SHL SWAP2 PUSH1 0x0 NOT SWAP1 PUSH1 0x3 SHL SHR NOT AND OR SWAP1 JUMP JUMPDEST SWAP1 SSTORE JUMPDEST PUSH1 0x40 MLOAD SWAP1 DUP2 MSTORE LOG1 JUMP JUMPDEST SWAP2 SWAP1 PUSH1 0x1F NOT DUP9 AND DUP5 DUP5 MSTORE DUP7 DUP5 KECCAK256 SWAP4 JUMPDEST DUP2 DUP2 LT PUSH2 0x3A92 JUMPI POP SWAP2 PUSH1 0x1 SWAP4 SWAP2 DUP10 PUSH32 0xF8E1A15ABA9398E019F0B49DF1A4FDE98EE17AE345CB5F6B5E2C27F5033E8CE7 SWAP10 SWAP11 SWAP5 LT PUSH2 0x3A79 JUMPI JUMPDEST POP POP POP DUP2 SHL ADD SWAP1 SSTORE PUSH2 0x3A1C JUMP JUMPDEST ADD MLOAD PUSH1 0x0 NOT PUSH1 0xF8 DUP5 PUSH1 0x3 SHL AND SHR NOT AND SWAP1 SSTORE CODESIZE DUP1 DUP1 PUSH2 0x3A6C JUMP JUMPDEST SWAP3 SWAP4 DUP8 PUSH1 0x1 DUP2 SWAP3 DUP8 DUP7 ADD MLOAD DUP2 SSTORE ADD SWAP6 ADD SWAP4 ADD PUSH2 0x3A34 JUMP JUMPDEST PUSH4 0x4E487B71 PUSH1 0xE0 SHL DUP3 MSTORE PUSH1 0x41 PUSH1 0x4 MSTORE PUSH1 0x24 DUP3 REVERT JUMPDEST SWAP1 SWAP4 SWAP2 SWAP3 DUP4 EXTCODESIZE PUSH2 0x3ACF JUMPI JUMPDEST POP POP POP POP POP JUMP JUMPDEST PUSH1 0x40 MLOAD PUSH4 0xA85BD01 PUSH1 0xE1 SHL DUP1 DUP3 MSTORE PUSH1 0x1 PUSH1 0x1 PUSH1 0xA0 SHL SUB SWAP4 DUP5 AND PUSH1 0x4 DUP4 ADD MSTORE SWAP6 DUP4 AND PUSH1 0x24 DUP3 ADD MSTORE PUSH1 0x44 DUP2 ADD SWAP2 SWAP1 SWAP2 MSTORE PUSH1 0x80 PUSH1 0x64 DUP3 ADD MSTORE SWAP5 SWAP3 AND SWAP3 PUSH1 0x20 SWAP3 SWAP2 DUP6 SWAP1 PUSH2 0x3B1C SWAP1 PUSH1 0x84 DUP4 ADD SWAP1 PUSH2 0x299E JUMP JUMPDEST SUB SWAP5 DUP4 DUP2 PUSH1 0x0 SWAP8 DUP2 DUP10 DUP10 GAS CALL DUP7 SWAP2 DUP2 PUSH2 0x3BC7 JUMPI JUMPDEST POP PUSH2 0x3B91 JUMPI POP POP POP RETURNDATASIZE PUSH1 0x0 EQ PUSH2 0x3B88 JUMPI RETURNDATASIZE PUSH2 0x3B4A DUP2 PUSH2 0x2BB4 JUMP JUMPDEST SWAP1 PUSH2 0x3B58 PUSH1 0x40 MLOAD SWAP3 DUP4 PUSH2 0x2B93 JUMP JUMPDEST DUP2 MSTORE DUP1 SWAP4 DUP3 RETURNDATASIZE SWAP3 ADD RETURNDATACOPY JUMPDEST DUP3 MLOAD SWAP3 DUP4 PUSH2 0x3B83 JUMPI PUSH1 0x40 MLOAD PUSH4 0x32505749 PUSH1 0xE1 SHL DUP2 MSTORE PUSH1 0x4 DUP2 ADD DUP5 SWAP1 MSTORE PUSH1 0x24 SWAP1 REVERT JUMPDEST ADD SWAP1 POP REVERT JUMPDEST PUSH1 0x60 SWAP3 POP PUSH2 0x3B62 JUMP JUMPDEST SWAP2 SWAP5 POP SWAP2 POP PUSH4 0xFFFFFFFF PUSH1 0xE0 SHL AND SUB PUSH2 0x3BAF JUMPI POP CODESIZE DUP1 DUP1 DUP1 DUP1 PUSH2 0x3AC8 JUMP JUMPDEST PUSH1 0x24 SWAP1 PUSH1 0x40 MLOAD SWAP1 PUSH4 0x32505749 PUSH1 0xE1 SHL DUP3 MSTORE PUSH1 0x4 DUP3 ADD MSTORE REVERT JUMPDEST SWAP1 SWAP2 POP DUP5 DUP2 DUP2 RETURNDATASIZE DUP4 GT PUSH2 0x3C04 JUMPI JUMPDEST PUSH2 0x3BDF DUP2 DUP4 PUSH2 0x2B93 JUMP JUMPDEST DUP2 ADD SUB SLT PUSH2 0x3C00 JUMPI MLOAD PUSH1 0x1 PUSH1 0x1 PUSH1 0xE0 SHL SUB NOT DUP2 AND DUP2 SUB PUSH2 0x3C00 JUMPI SWAP1 CODESIZE PUSH2 0x3B30 JUMP JUMPDEST DUP7 DUP1 REVERT JUMPDEST POP RETURNDATASIZE PUSH2 0x3BD5 JUMP INVALID 0x2F DUP8 DUP9 GT PUSH31 0x7EFF1D82E926EC794901D17C78024A50270940304540A733656F0DA7036593 EXTCODEHASH PUSH25 0x520EF41D6645BA61E509916296603327302D41466C063E8E26 ADDMOD SWAP16 0x2D CREATE INVALID 0xD2 0xC7 PUSH23 0x48DE5860A4CC508CD0818C85B8B8A1AB4CEEEF8D981C89 JUMP 0xA6 0xC 0xE2 EXTCODECOPY RETURNDATACOPY CODECOPY SWAP9 XOR 0xCF 0xEE DUP2 0xA7 0xAB ADDMOD DUP1 0xF7 EQ 0xE5 RETURNDATASIZE PUSH23 0x72B08DF0FA62F2843416E1EA09A4BFD7AFE708E2E87E7F 0xE 0x2A 0xD9 0xB4 0xD5 GASLIMIT COINBASE PUSH31 0xF795F57B5C5AB5D799C565A04F4A26469706673582212204B5D766F31D4B5 PUSH5 0x280B075A0B SDIV 0x4D PUSH13 0xEDE3CD0499F50FF9550908976C OR 0x2B DUP10 PUSH5 0x736F6C6343 STOP ADDMOD XOR STOP CALLER 0x2F DUP8 DUP9 GT PUSH31 0x7EFF1D82E926EC794901D17C78024A50270940304540A733656F0D00000000 "},"methodIdentifiers":{"ADMIN_ROLE()":"75b238fc","COLLECTOR_ROLE()":"9ca39ae9","DEFAULT_ADMIN_ROLE()":"a217fddf","LAB_ROLE()":"bd3070c6","MINTER_ROLE()":"d5391393","PROCESSOR_ROLE()":"8222bdb2","VERIFIER_ROLE()":"e7705db6","approve(address,uint256)":"095ea7b3","balanceOf(address)":"70a08231","batchCodeToTokenId(string)":"a752c69c","batchMint(string[],string[],string[],string[],string[])":"6692771e","getApproved(uint256)":"081812fc","getBatchByCode(string)":"5071f001","getHerbBatch(uint256)":"d381ba44","getRoleAdmin(bytes32)":"248a9ca3","getTotalBatches()":"e561dddc","grantCollectorRole(address)":"30aaefda","grantLabRole(address)":"e83c97de","grantMinterRole(address)":"3dd1eb61","grantProcessorRole(address)":"04e542dd","grantRole(bytes32,address)":"2f2ff15d","grantVerifierRole(address)":"0337c061","hasRole(bytes32,address)":"91d14854","hasRoleByAddress(bytes32,address)":"033f0651","herbBatches(uint256)":"88fa2aa8","isApprovedForAll(address,address)":"e985e9c5","markAsProcessed(uint256)":"247ab51f","mintHerbBatch(string,string,string,string,string)":"e055315b","name()":"06fdde03","ownerOf(uint256)":"6352211e","pause()":"8456cb59","paused()":"5c975abb","renounceRole(bytes32,address)":"36568abe","revokeMinterRole(address)":"69e2f0fb","revokeRole(bytes32,address)":"d547741f","revokeVerifierRole(address)":"a3669aef","safeTransferFrom(address,address,uint256)":"42842e0e","safeTransferFrom(address,address,uint256,bytes)":"b88d4fde","setApprovalForAll(address,bool)":"a22cb465","supportsInterface(bytes4)":"01ffc9a7","symbol()":"95d89b41","tokenURI(uint256)":"c87b56dd","transferFrom(address,address,uint256)":"23b872dd","unpause()":"3f4ba83a","updateEnvironmentalData(uint256,int256,uint256,uint256)":"4286bb2e","verifyHerbBatch(uint256,string)":"e70047c5"}}}}}