{"contracts/Audit.sol":{"AuditContract":{"abi":[{"anonymous":false,"inputs":[{"indexed":true,"internalType":"address","name":"actor","type":"address"},{"indexed":false,"internalType":"string","name":"action","type":"string"},{"indexed":false,"internalType":"uint256","name":"batchId","type":"uint256"}],"name":"AuditLog","type":"event"},{"inputs":[{"internalType":"uint256","name":"","type":"uint256"},{"internalType":"uint256","name":"","type":"uint256"}],"name":"batchAudits","outputs":[{"internalType":"address","name":"actor","type":"address"},{"internalType":"string","name":"action","type":"string"},{"internalType":"uint256","name":"batchTokenId","type":"uint256"},{"internalType":"string","name":"details","type":"string"},{"internalType":"uint256","name":"timestamp","type":"uint256"}],"stateMutability":"view","type":"function"},{"inputs":[{"internalType":"uint256","name":"_batchId","type":"uint256"}],"name":"getBatchAuditTrail","outputs":[{"components":[{"internalType":"address","name":"actor","type":"address"},{"internalType":"string","name":"action","type":"string"},{"internalType":"uint256","name":"batchTokenId","type":"uint256"},{"internalType":"string","name":"details","type":"string"},{"internalType":"uint256","name":"timestamp","type":"uint256"}],"internalType":"struct AuditContract.AuditEntry[]","name":"","type":"tuple[]"}],"stateMutability":"view","type":"function"},{"inputs":[{"internalType":"uint256","name":"_batchId","type":"uint256"},{"internalType":"string","name":"_action","type":"string"},{"internalType":"string","name":"_details","type":"string"}],"name":"logAudit","outputs":[],"stateMutability":"nonpayable","type":"function"},{"inputs":[{"internalType":"address","name":"","type":"address"},{"internalType":"uint256","name":"","type":"uint256"}],"name":"userAudits","outputs":[{"internalType":"uint256","name":"","type":"uint256"}],"stateMutability":"view","type":"function"}],"evm":{"bytecode":{"linkReferences":{},"object":"60808060405234610016576108c7908161001c8239f35b600080fdfe608080604052600436101561001357600080fd5b60003560e01c90816373247a031461052d5750806388405ca01461014d5780639d106b06146100f35763baeed10f1461004b57600080fd5b346100ee5760403660031901126100ee57602435600435600052600060205260406000209081548110156100ee5761008291610796565b5080546001600160a01b031661009a600183016107ec565b916100e4600282015460046100b1600385016107ec565b930154926100d1604051968796875260a0602088015260a0870190610693565b9160408601528482036060860152610693565b9060808301520390f35b600080fd5b346100ee5760403660031901126100ee576004356001600160a01b038116908190036100ee57602435906000526001602052604060002080548210156100ee5760209161013f91610768565b90546040519160031b1c8152f35b346100ee5760603660031901126100ee5760243567ffffffffffffffff81116100ee5761017e903690600401610711565b60443567ffffffffffffffff81116100ee5761019e903690600401610711565b906004356000526000602052604060002091604051926101bd846106d3565b3384526020840191838352600435604086015260608501524260808501528054600160401b811015610377576101f891600182018155610796565b91909161051757835182546001600160a01b0319166001600160a01b039190911617825551805190939067ffffffffffffffff81116103775761023e60018401546107b2565b601f81116104d0575b506020601f8211600114610461578192939495600092610456575b50508160011b916000199060031b1c19161760018301555b60408101516002830155606081015180519067ffffffffffffffff8211610377576102a860038501546107b2565b601f811161040b575b50602090601f83116001146103985791806004949260809460009261038d575b50508160011b916000199060031b1c19161760038501555b015191015533600052600160205260406000208054600160401b8110156103775761031991600182018155610768565b81549060031b90600435821b91600019901b19161790557f65e43023644c359b3571c2e814b7b1ee3b033dc6ac36dca578e6e28289f7cc3761036660405192604084526040840190610693565b9160043560208201528033930390a2005b634e487b7160e01b600052604160045260246000fd5b0151905087806102d1565b90601f198316916003860160005260206000209260005b8181106103f3575092600192859260809660049896106103da575b505050811b0160038501556102e9565b015160001960f88460031b161c191690558780806103ca565b929360206001819287860151815501950193016103af565b600385016000526020600020601f840160051c8101916020851061044c575b601f0160051c01905b81811061044057506102b1565b60008155600101610433565b909150819061042a565b015190508580610262565b6001840160005260206000209060005b601f19841681106104b8575060019394959683601f1981161061049f575b505050811b01600183015561027a565b015160001960f88460031b161c1916905585808061048f565b9091602060018192858b015181550193019101610471565b600184016000526020600020601f830160051c810160208410610510575b601f830160051c82018110610504575050610247565b600081556001016104ee565b50806104ee565b634e487b7160e01b600052600060045260246000fd5b346100ee57602090816003193601126100ee57600435600052600082526040600020805467ffffffffffffffff8111610377576005939293610574848360051b01866106ef565b8185528385018093600052846000206000915b84831061062f57604080518881528951818a01819052600092600582901b83018101918a918c9085015b8287106105be5785850386f35b909192938280600192603f198982030185528751906106156105f860a0878060a01b03855116845285850151908087860152840190610693565b604084015160408401526060808501519084830390850152610693565b9160808091015191015296019201960195929190926105b1565b838760019260409a999a51610643816106d3565b848060a01b0386541681526106598587016107ec565b8382015260028601546040820152610673600387016107ec565b606082015260048601546080820152815201920192019190969596610587565b919082519283825260005b8481106106bf575050826000602080949584010152601f8019910116010190565b60208183018101518483018201520161069e565b60a0810190811067ffffffffffffffff82111761037757604052565b90601f8019910116810190811067ffffffffffffffff82111761037757604052565b81601f820112156100ee5780359067ffffffffffffffff82116103775760405192610746601f8401601f1916602001856106ef565b828452602083830101116100ee57816000926020809301838601378301015290565b80548210156107805760005260206000200190600090565b634e487b7160e01b600052603260045260246000fd5b8054821015610780576000526005602060002091020190600090565b90600182811c921680156107e2575b60208310146107cc57565b634e487b7160e01b600052602260045260246000fd5b91607f16916107c1565b906040519182600082546107ff816107b2565b9081845260209460019160018116908160001461086f5750600114610830575b50505061082e925003836106ef565b565b600090815285812095935091905b81831061085757505061082e935082010138808061081f565b8554888401850152948501948794509183019161083e565b9250505061082e94925060ff191682840152151560051b82010138808061081f56fea26469706673582212204a29959a8e576c8067db37e9e58f23f412142ba7d68b1a8740de145910508e2864736f6c63430008180033","opcodes":"PUSH1 0x80 DUP1 PUSH1 0x40 MSTORE CALLVALUE PUSH2 0x16 JUMPI PUSH2 0x8C7 SWAP1 DUP2 PUSH2 0x1C DUP3 CODECOPY RETURN JUMPDEST PUSH1 0x0 DUP1 REVERT INVALID PUSH1 0x80 DUP1 PUSH1 0x40 MSTORE PUSH1 0x4 CALLDATASIZE LT ISZERO PUSH2 0x13 JUMPI PUSH1 0x0 DUP1 REVERT JUMPDEST PUSH1 0x0 CALLDATALOAD PUSH1 0xE0 SHR SWAP1 DUP2 PUSH4 0x73247A03 EQ PUSH2 0x52D JUMPI POP DUP1 PUSH4 0x88405CA0 EQ PUSH2 0x14D JUMPI DUP1 PUSH4 0x9D106B06 EQ PUSH2 0xF3 JUMPI PUSH4 0xBAEED10F EQ PUSH2 0x4B JUMPI PUSH1 0x0 DUP1 REVERT JUMPDEST CALLVALUE PUSH2 0xEE JUMPI PUSH1 0x40 CALLDATASIZE PUSH1 0x3 NOT ADD SLT PUSH2 0xEE JUMPI PUSH1 0x24 CALLDATALOAD PUSH1 0x4 CALLDATALOAD PUSH1 0x0 MSTORE PUSH1 0x0 PUSH1 0x20 MSTORE PUSH1 0x40 PUSH1 0x0 KECCAK256 SWAP1 DUP2 SLOAD DUP2 LT ISZERO PUSH2 0xEE JUMPI PUSH2 0x82 SWAP2 PUSH2 0x796 JUMP JUMPDEST POP DUP1 SLOAD PUSH1 0x1 PUSH1 0x1 PUSH1 0xA0 SHL SUB AND PUSH2 0x9A PUSH1 0x1 DUP4 ADD PUSH2 0x7EC JUMP JUMPDEST SWAP2 PUSH2 0xE4 PUSH1 0x2 DUP3 ADD SLOAD PUSH1 0x4 PUSH2 0xB1 PUSH1 0x3 DUP6 ADD PUSH2 0x7EC JUMP JUMPDEST SWAP4 ADD SLOAD SWAP3 PUSH2 0xD1 PUSH1 0x40 MLOAD SWAP7 DUP8 SWAP7 DUP8 MSTORE PUSH1 0xA0 PUSH1 0x20 DUP9 ADD MSTORE PUSH1 0xA0 DUP8 ADD SWAP1 PUSH2 0x693 JUMP JUMPDEST SWAP2 PUSH1 0x40 DUP7 ADD MSTORE DUP5 DUP3 SUB PUSH1 0x60 DUP7 ADD MSTORE PUSH2 0x693 JUMP JUMPDEST SWAP1 PUSH1 0x80 DUP4 ADD MSTORE SUB SWAP1 RETURN JUMPDEST PUSH1 0x0 DUP1 REVERT JUMPDEST CALLVALUE PUSH2 0xEE JUMPI PUSH1 0x40 CALLDATASIZE PUSH1 0x3 NOT ADD SLT PUSH2 0xEE JUMPI PUSH1 0x4 CALLDATALOAD PUSH1 0x1 PUSH1 0x1 PUSH1 0xA0 SHL SUB DUP2 AND SWAP1 DUP2 SWAP1 SUB PUSH2 0xEE JUMPI PUSH1 0x24 CALLDATALOAD SWAP1 PUSH1 0x0 MSTORE PUSH1 0x1 PUSH1 0x20 MSTORE PUSH1 0x40 PUSH1 0x0 KECCAK256 DUP1 SLOAD DUP3 LT ISZERO PUSH2 0xEE JUMPI PUSH1 0x20 SWAP2 PUSH2 0x13F SWAP2 PUSH2 0x768 JUMP JUMPDEST SWAP1 SLOAD PUSH1 0x40 MLOAD SWAP2 PUSH1 0x3 SHL SHR DUP2 MSTORE RETURN JUMPDEST CALLVALUE PUSH2 0xEE JUMPI PUSH1 0x60 CALLDATASIZE PUSH1 0x3 NOT ADD SLT PUSH2 0xEE JUMPI PUSH1 0x24 CALLDATALOAD PUSH8 0xFFFFFFFFFFFFFFFF DUP2 GT PUSH2 0xEE JUMPI PUSH2 0x17E SWAP1 CALLDATASIZE SWAP1 PUSH1 0x4 ADD PUSH2 0x711 JUMP JUMPDEST PUSH1 0x44 CALLDATALOAD PUSH8 0xFFFFFFFFFFFFFFFF DUP2 GT PUSH2 0xEE JUMPI PUSH2 0x19E SWAP1 CALLDATASIZE SWAP1 PUSH1 0x4 ADD PUSH2 0x711 JUMP JUMPDEST SWAP1 PUSH1 0x4 CALLDATALOAD PUSH1 0x0 MSTORE PUSH1 0x0 PUSH1 0x20 MSTORE PUSH1 0x40 PUSH1 0x0 KECCAK256 SWAP2 PUSH1 0x40 MLOAD SWAP3 PUSH2 0x1BD DUP5 PUSH2 0x6D3 JUMP JUMPDEST CALLER DUP5 MSTORE PUSH1 0x20 DUP5 ADD SWAP2 DUP4 DUP4 MSTORE PUSH1 0x4 CALLDATALOAD PUSH1 0x40 DUP7 ADD MSTORE PUSH1 0x60 DUP6 ADD MSTORE TIMESTAMP PUSH1 0x80 DUP6 ADD MSTORE DUP1 SLOAD PUSH1 0x1 PUSH1 0x40 SHL DUP2 LT ISZERO PUSH2 0x377 JUMPI PUSH2 0x1F8 SWAP2 PUSH1 0x1 DUP3 ADD DUP2 SSTORE PUSH2 0x796 JUMP JUMPDEST SWAP2 SWAP1 SWAP2 PUSH2 0x517 JUMPI DUP4 MLOAD DUP3 SLOAD PUSH1 0x1 PUSH1 0x1 PUSH1 0xA0 SHL SUB NOT AND PUSH1 0x1 PUSH1 0x1 PUSH1 0xA0 SHL SUB SWAP2 SWAP1 SWAP2 AND OR DUP3 SSTORE MLOAD DUP1 MLOAD SWAP1 SWAP4 SWAP1 PUSH8 0xFFFFFFFFFFFFFFFF DUP2 GT PUSH2 0x377 JUMPI PUSH2 0x23E PUSH1 0x1 DUP5 ADD SLOAD PUSH2 0x7B2 JUMP JUMPDEST PUSH1 0x1F DUP2 GT PUSH2 0x4D0 JUMPI JUMPDEST POP PUSH1 0x20 PUSH1 0x1F DUP3 GT PUSH1 0x1 EQ PUSH2 0x461 JUMPI DUP2 SWAP3 SWAP4 SWAP5 SWAP6 PUSH1 0x0 SWAP3 PUSH2 0x456 JUMPI JUMPDEST POP POP DUP2 PUSH1 0x1 SHL SWAP2 PUSH1 0x0 NOT SWAP1 PUSH1 0x3 SHL SHR NOT AND OR PUSH1 0x1 DUP4 ADD SSTORE JUMPDEST PUSH1 0x40 DUP2 ADD MLOAD PUSH1 0x2 DUP4 ADD SSTORE PUSH1 0x60 DUP2 ADD MLOAD DUP1 MLOAD SWAP1 PUSH8 0xFFFFFFFFFFFFFFFF DUP3 GT PUSH2 0x377 JUMPI PUSH2 0x2A8 PUSH1 0x3 DUP6 ADD SLOAD PUSH2 0x7B2 JUMP JUMPDEST PUSH1 0x1F DUP2 GT PUSH2 0x40B JUMPI JUMPDEST POP PUSH1 0x20 SWAP1 PUSH1 0x1F DUP4 GT PUSH1 0x1 EQ PUSH2 0x398 JUMPI SWAP2 DUP1 PUSH1 0x4 SWAP5 SWAP3 PUSH1 0x80 SWAP5 PUSH1 0x0 SWAP3 PUSH2 0x38D JUMPI JUMPDEST POP POP DUP2 PUSH1 0x1 SHL SWAP2 PUSH1 0x0 NOT SWAP1 PUSH1 0x3 SHL SHR NOT AND OR PUSH1 0x3 DUP6 ADD SSTORE JUMPDEST ADD MLOAD SWAP2 ADD SSTORE CALLER PUSH1 0x0 MSTORE PUSH1 0x1 PUSH1 0x20 MSTORE PUSH1 0x40 PUSH1 0x0 KECCAK256 DUP1 SLOAD PUSH1 0x1 PUSH1 0x40 SHL DUP2 LT ISZERO PUSH2 0x377 JUMPI PUSH2 0x319 SWAP2 PUSH1 0x1 DUP3 ADD DUP2 SSTORE PUSH2 0x768 JUMP JUMPDEST DUP2 SLOAD SWAP1 PUSH1 0x3 SHL SWAP1 PUSH1 0x4 CALLDATALOAD DUP3 SHL SWAP2 PUSH1 0x0 NOT SWAP1 SHL NOT AND OR SWAP1 SSTORE PUSH32 0x65E43023644C359B3571C2E814B7B1EE3B033DC6AC36DCA578E6E28289F7CC37 PUSH2 0x366 PUSH1 0x40 MLOAD SWAP3 PUSH1 0x40 DUP5 MSTORE PUSH1 0x40 DUP5 ADD SWAP1 PUSH2 0x693 JUMP JUMPDEST SWAP2 PUSH1 0x4 CALLDATALOAD PUSH1 0x20 DUP3 ADD MSTORE DUP1 CALLER SWAP4 SUB SWAP1 LOG2 STOP JUMPDEST PUSH4 0x4E487B71 PUSH1 0xE0 SHL PUSH1 0x0 MSTORE PUSH1 0x41 PUSH1 0x4 MSTORE PUSH1 0x24 PUSH1 0x0 REVERT JUMPDEST ADD MLOAD SWAP1 POP DUP8 DUP1 PUSH2 0x2D1 JUMP JUMPDEST SWAP1 PUSH1 0x1F NOT DUP4 AND SWAP2 PUSH1 0x3 DUP7 ADD PUSH1 0x0 MSTORE PUSH1 0x20 PUSH1 0x0 KECCAK256 SWAP3 PUSH1 0x0 JUMPDEST DUP2 DUP2 LT PUSH2 0x3F3 JUMPI POP SWAP3 PUSH1 0x1 SWAP3 DUP6 SWAP3 PUSH1 0x80 SWAP7 PUSH1 0x4 SWAP9 SWAP7 LT PUSH2 0x3DA JUMPI JUMPDEST POP POP POP DUP2 SHL ADD PUSH1 0x3 DUP6 ADD SSTORE PUSH2 0x2E9 JUMP JUMPDEST ADD MLOAD PUSH1 0x0 NOT PUSH1 0xF8 DUP5 PUSH1 0x3 SHL AND SHR NOT AND SWAP1 SSTORE DUP8 DUP1 DUP1 PUSH2 0x3CA JUMP JUMPDEST SWAP3 SWAP4 PUSH1 0x20 PUSH1 0x1 DUP2 SWAP3 DUP8 DUP7 ADD MLOAD DUP2 SSTORE ADD SWAP6 ADD SWAP4 ADD PUSH2 0x3AF JUMP JUMPDEST PUSH1 0x3 DUP6 ADD PUSH1 0x0 MSTORE PUSH1 0x20 PUSH1 0x0 KECCAK256 PUSH1 0x1F DUP5 ADD PUSH1 0x5 SHR DUP2 ADD SWAP2 PUSH1 0x20 DUP6 LT PUSH2 0x44C JUMPI JUMPDEST PUSH1 0x1F ADD PUSH1 0x5 SHR ADD SWAP1 JUMPDEST DUP2 DUP2 LT PUSH2 0x440 JUMPI POP PUSH2 0x2B1 JUMP JUMPDEST PUSH1 0x0 DUP2 SSTORE PUSH1 0x1 ADD PUSH2 0x433 JUMP JUMPDEST SWAP1 SWAP2 POP DUP2 SWAP1 PUSH2 0x42A JUMP JUMPDEST ADD MLOAD SWAP1 POP DUP6 DUP1 PUSH2 0x262 JUMP JUMPDEST PUSH1 0x1 DUP5 ADD PUSH1 0x0 MSTORE PUSH1 0x20 PUSH1 0x0 KECCAK256 SWAP1 PUSH1 0x0 JUMPDEST PUSH1 0x1F NOT DUP5 AND DUP2 LT PUSH2 0x4B8 JUMPI POP PUSH1 0x1 SWAP4 SWAP5 SWAP6 SWAP7 DUP4 PUSH1 0x1F NOT DUP2 AND LT PUSH2 0x49F JUMPI JUMPDEST POP POP POP DUP2 SHL ADD PUSH1 0x1 DUP4 ADD SSTORE PUSH2 0x27A JUMP JUMPDEST ADD MLOAD PUSH1 0x0 NOT PUSH1 0xF8 DUP5 PUSH1 0x3 SHL AND SHR NOT AND SWAP1 SSTORE DUP6 DUP1 DUP1 PUSH2 0x48F JUMP JUMPDEST SWAP1 SWAP2 PUSH1 0x20 PUSH1 0x1 DUP2 SWAP3 DUP6 DUP12 ADD MLOAD DUP2 SSTORE ADD SWAP4 ADD SWAP2 ADD PUSH2 0x471 JUMP JUMPDEST PUSH1 0x1 DUP5 ADD PUSH1 0x0 MSTORE PUSH1 0x20 PUSH1 0x0 KECCAK256 PUSH1 0x1F DUP4 ADD PUSH1 0x5 SHR DUP2 ADD PUSH1 0x20 DUP5 LT PUSH2 0x510 JUMPI JUMPDEST PUSH1 0x1F DUP4 ADD PUSH1 0x5 SHR DUP3 ADD DUP2 LT PUSH2 0x504 JUMPI POP POP PUSH2 0x247 JUMP JUMPDEST PUSH1 0x0 DUP2 SSTORE PUSH1 0x1 ADD PUSH2 0x4EE JUMP JUMPDEST POP DUP1 PUSH2 0x4EE JUMP JUMPDEST PUSH4 0x4E487B71 PUSH1 0xE0 SHL PUSH1 0x0 MSTORE PUSH1 0x0 PUSH1 0x4 MSTORE PUSH1 0x24 PUSH1 0x0 REVERT JUMPDEST CALLVALUE PUSH2 0xEE JUMPI PUSH1 0x20 SWAP1 DUP2 PUSH1 0x3 NOT CALLDATASIZE ADD SLT PUSH2 0xEE JUMPI PUSH1 0x4 CALLDATALOAD PUSH1 0x0 MSTORE PUSH1 0x0 DUP3 MSTORE PUSH1 0x40 PUSH1 0x0 KECCAK256 DUP1 SLOAD PUSH8 0xFFFFFFFFFFFFFFFF DUP2 GT PUSH2 0x377 JUMPI PUSH1 0x5 SWAP4 SWAP3 SWAP4 PUSH2 0x574 DUP5 DUP4 PUSH1 0x5 SHL ADD DUP7 PUSH2 0x6EF JUMP JUMPDEST DUP2 DUP6 MSTORE DUP4 DUP6 ADD DUP1 SWAP4 PUSH1 0x0 MSTORE DUP5 PUSH1 0x0 KECCAK256 PUSH1 0x0 SWAP2 JUMPDEST DUP5 DUP4 LT PUSH2 0x62F JUMPI PUSH1 0x40 DUP1 MLOAD DUP9 DUP2 MSTORE DUP10 MLOAD DUP2 DUP11 ADD DUP2 SWAP1 MSTORE PUSH1 0x0 SWAP3 PUSH1 0x5 DUP3 SWAP1 SHL DUP4 ADD DUP2 ADD SWAP2 DUP11 SWAP2 DUP13 SWAP1 DUP6 ADD JUMPDEST DUP3 DUP8 LT PUSH2 0x5BE JUMPI DUP6 DUP6 SUB DUP7 RETURN JUMPDEST SWAP1 SWAP2 SWAP3 SWAP4 DUP3 DUP1 PUSH1 0x1 SWAP3 PUSH1 0x3F NOT DUP10 DUP3 SUB ADD DUP6 MSTORE DUP8 MLOAD SWAP1 PUSH2 0x615 PUSH2 0x5F8 PUSH1 0xA0 DUP8 DUP1 PUSH1 0xA0 SHL SUB DUP6 MLOAD AND DUP5 MSTORE DUP6 DUP6 ADD MLOAD SWAP1 DUP1 DUP8 DUP7 ADD MSTORE DUP5 ADD SWAP1 PUSH2 0x693 JUMP JUMPDEST PUSH1 0x40 DUP5 ADD MLOAD PUSH1 0x40 DUP5 ADD MSTORE PUSH1 0x60 DUP1 DUP6 ADD MLOAD SWAP1 DUP5 DUP4 SUB SWAP1 DUP6 ADD MSTORE PUSH2 0x693 JUMP JUMPDEST SWAP2 PUSH1 0x80 DUP1 SWAP2 ADD MLOAD SWAP2 ADD MSTORE SWAP7 ADD SWAP3 ADD SWAP7 ADD SWAP6 SWAP3 SWAP2 SWAP1 SWAP3 PUSH2 0x5B1 JUMP JUMPDEST DUP4 DUP8 PUSH1 0x1 SWAP3 PUSH1 0x40 SWAP11 SWAP10 SWAP11 MLOAD PUSH2 0x643 DUP2 PUSH2 0x6D3 JUMP JUMPDEST DUP5 DUP1 PUSH1 0xA0 SHL SUB DUP7 SLOAD AND DUP2 MSTORE PUSH2 0x659 DUP6 DUP8 ADD PUSH2 0x7EC JUMP JUMPDEST DUP4 DUP3 ADD MSTORE PUSH1 0x2 DUP7 ADD SLOAD PUSH1 0x40 DUP3 ADD MSTORE PUSH2 0x673 PUSH1 0x3 DUP8 ADD PUSH2 0x7EC JUMP JUMPDEST PUSH1 0x60 DUP3 ADD MSTORE PUSH1 0x4 DUP7 ADD SLOAD PUSH1 0x80 DUP3 ADD MSTORE DUP2 MSTORE ADD SWAP3 ADD SWAP3 ADD SWAP2 SWAP1 SWAP7 SWAP6 SWAP7 PUSH2 0x587 JUMP JUMPDEST SWAP2 SWAP1 DUP3 MLOAD SWAP3 DUP4 DUP3 MSTORE PUSH1 0x0 JUMPDEST DUP5 DUP2 LT PUSH2 0x6BF JUMPI POP POP DUP3 PUSH1 0x0 PUSH1 0x20 DUP1 SWAP5 SWAP6 DUP5 ADD ADD MSTORE PUSH1 0x1F DUP1 NOT SWAP2 ADD AND ADD ADD SWAP1 JUMP JUMPDEST PUSH1 0x20 DUP2 DUP4 ADD DUP2 ADD MLOAD DUP5 DUP4 ADD DUP3 ADD MSTORE ADD PUSH2 0x69E JUMP JUMPDEST PUSH1 0xA0 DUP2 ADD SWAP1 DUP2 LT PUSH8 0xFFFFFFFFFFFFFFFF DUP3 GT OR PUSH2 0x377 JUMPI PUSH1 0x40 MSTORE JUMP JUMPDEST SWAP1 PUSH1 0x1F DUP1 NOT SWAP2 ADD AND DUP2 ADD SWAP1 DUP2 LT PUSH8 0xFFFFFFFFFFFFFFFF DUP3 GT OR PUSH2 0x377 JUMPI PUSH1 0x40 MSTORE JUMP JUMPDEST DUP2 PUSH1 0x1F DUP3 ADD SLT ISZERO PUSH2 0xEE JUMPI DUP1 CALLDATALOAD SWAP1 PUSH8 0xFFFFFFFFFFFFFFFF DUP3 GT PUSH2 0x377 JUMPI PUSH1 0x40 MLOAD SWAP3 PUSH2 0x746 PUSH1 0x1F DUP5 ADD PUSH1 0x1F NOT AND PUSH1 0x20 ADD DUP6 PUSH2 0x6EF JUMP JUMPDEST DUP3 DUP5 MSTORE PUSH1 0x20 DUP4 DUP4 ADD ADD GT PUSH2 0xEE JUMPI DUP2 PUSH1 0x0 SWAP3 PUSH1 0x20 DUP1 SWAP4 ADD DUP4 DUP7 ADD CALLDATACOPY DUP4 ADD ADD MSTORE SWAP1 JUMP JUMPDEST DUP1 SLOAD DUP3 LT ISZERO PUSH2 0x780 JUMPI PUSH1 0x0 MSTORE PUSH1 0x20 PUSH1 0x0 KECCAK256 ADD SWAP1 PUSH1 0x0 SWAP1 JUMP JUMPDEST PUSH4 0x4E487B71 PUSH1 0xE0 SHL PUSH1 0x0 MSTORE PUSH1 0x32 PUSH1 0x4 MSTORE PUSH1 0x24 PUSH1 0x0 REVERT JUMPDEST DUP1 SLOAD DUP3 LT ISZERO PUSH2 0x780 JUMPI PUSH1 0x0 MSTORE PUSH1 0x5 PUSH1 0x20 PUSH1 0x0 KECCAK256 SWAP2 MUL ADD SWAP1 PUSH1 0x0 SWAP1 JUMP JUMPDEST SWAP1 PUSH1 0x1 DUP3 DUP2 SHR SWAP3 AND DUP1 ISZERO PUSH2 0x7E2 JUMPI JUMPDEST PUSH1 0x20 DUP4 LT EQ PUSH2 0x7CC JUMPI JUMP JUMPDEST PUSH4 0x4E487B71 PUSH1 0xE0 SHL PUSH1 0x0 MSTORE PUSH1 0x22 PUSH1 0x4 MSTORE PUSH1 0x24 PUSH1 0x0 REVERT JUMPDEST SWAP2 PUSH1 0x7F AND SWAP2 PUSH2 0x7C1 JUMP JUMPDEST SWAP1 PUSH1 0x40 MLOAD SWAP2 DUP3 PUSH1 0x0 DUP3 SLOAD PUSH2 0x7FF DUP2 PUSH2 0x7B2 JUMP JUMPDEST SWAP1 DUP2 DUP5 MSTORE PUSH1 0x20 SWAP5 PUSH1 0x1 SWAP2 PUSH1 0x1 DUP2 AND SWAP1 DUP2 PUSH1 0x0 EQ PUSH2 0x86F JUMPI POP PUSH1 0x1 EQ PUSH2 0x830 JUMPI JUMPDEST POP POP POP PUSH2 0x82E SWAP3 POP SUB DUP4 PUSH2 0x6EF JUMP JUMPDEST JUMP JUMPDEST PUSH1 0x0 SWAP1 DUP2 MSTORE DUP6 DUP2 KECCAK256 SWAP6 SWAP4 POP SWAP2 SWAP1 JUMPDEST DUP2 DUP4 LT PUSH2 0x857 JUMPI POP POP PUSH2 0x82E SWAP4 POP DUP3 ADD ADD CODESIZE DUP1 DUP1 PUSH2 0x81F JUMP JUMPDEST DUP6 SLOAD DUP9 DUP5 ADD DUP6 ADD MSTORE SWAP5 DUP6 ADD SWAP5 DUP8 SWAP5 POP SWAP2 DUP4 ADD SWAP2 PUSH2 0x83E JUMP JUMPDEST SWAP3 POP POP POP PUSH2 0x82E SWAP5 SWAP3 POP PUSH1 0xFF NOT AND DUP3 DUP5 ADD MSTORE ISZERO ISZERO PUSH1 0x5 SHL DUP3 ADD ADD CODESIZE DUP1 DUP1 PUSH2 0x81F JUMP INVALID LOG2 PUSH5 0x6970667358 0x22 SLT KECCAK256 BLOBBASEFEE 0x29 SWAP6 SWAP11 DUP15 JUMPI PUSH13 0x8067DB37E9E58F23F412142BA7 0xD6 DUP12 BYTE DUP8 BLOCKHASH 0xDE EQ MSIZE LT POP DUP15 0x28 PUSH5 0x736F6C6343 STOP ADDMOD XOR STOP CALLER "},"methodIdentifiers":{"batchAudits(uint256,uint256)":"baeed10f","getBatchAuditTrail(uint256)":"73247a03","logAudit(uint256,string,string)":"88405ca0","userAudits(address,uint256)":"9d106b06"}}}}}