{"contracts/DisputeResolution.sol":{"DisputeResolution":{"abi":[{"anonymous":false,"inputs":[{"indexed":true,"internalType":"bytes32","name":"disputeId","type":"bytes32"},{"indexed":false,"internalType":"address","name":"complainant","type":"address"}],"name":"DisputeOpened","type":"event"},{"anonymous":false,"inputs":[{"indexed":true,"internalType":"bytes32","name":"disputeId","type":"bytes32"},{"indexed":false,"internalType":"enum DisputeResolution.DisputeStatus","name":"status","type":"uint8"}],"name":"DisputeResolved","type":"event"},{"inputs":[{"internalType":"uint256","name":"","type":"uint256"}],"name":"disputeIds","outputs":[{"internalType":"bytes32","name":"","type":"bytes32"}],"stateMutability":"view","type":"function"},{"inputs":[{"internalType":"bytes32","name":"","type":"bytes32"}],"name":"disputes","outputs":[{"internalType":"uint256","name":"transactionId","type":"uint256"},{"internalType":"address","name":"complainant","type":"address"},{"internalType":"address","name":"respondent","type":"address"},{"internalType":"string","name":"description","type":"string"},{"internalType":"enum DisputeResolution.DisputeStatus","name":"status","type":"uint8"},{"internalType":"uint256","name":"createdAt","type":"uint256"},{"internalType":"uint256","name":"resolvedAt","type":"uint256"}],"stateMutability":"view","type":"function"},{"inputs":[{"internalType":"uint256","name":"_txId","type":"uint256"},{"internalType":"address","name":"_respondent","type":"address"},{"internalType":"string","name":"_description","type":"string"}],"name":"openDispute","outputs":[{"internalType":"bytes32","name":"","type":"bytes32"}],"stateMutability":"nonpayable","type":"function"},{"inputs":[{"internalType":"bytes32","name":"_disputeId","type":"bytes32"},{"internalType":"enum DisputeResolution.DisputeStatus","name":"_status","type":"uint8"}],"name":"resolveDispute","outputs":[],"stateMutability":"nonpayable","type":"function"}],"evm":{"bytecode":{"linkReferences":{},"object":"608080604052346100165761069b908161001c8239f35b600080fdfe608080604052600436101561001357600080fd5b60003560e01c90816311be199714610425575080634a21b81d146100fb578063acc8a85f146100c45763b641237c1461004b57600080fd5b346100bf5760403660031901126100bf5760043560243560048110156100bf5760207f0a168b993fc74606982b54f62facd64a9642fc31797b78c5b503b4116f3c838891836000526000825260406000206100a9826004830161064d565b6006429101556100bc60405180926105f3565ba2005b600080fd5b346100bf5760203660031901126100bf576004356001548110156100bf576100ed602091610600565b90546040519160031b1c8152f35b346100bf5760603660031901126100bf576001600160a01b0360243581811691600435918390036100bf5767ffffffffffffffff926044358481116100bf57366023820112156100bf57806004013585811161033b5760405191610169601f8301601f1916602001846105d1565b81835236602483830101116100bf578160009260246020930183860137830101526040519160208301938585523360601b60408501524260548501526054845260808401948486108887111761033b5785604052845190209561016085018681108982111761033b57604052855260a084019033825260c0850192835260e0850193845260006101008601524261012086015260006101408601528660005260006020526040600020955186558060018701925116916bffffffffffffffffffffffff60a01b928382541617905560028601925116908254161790555193845190811161033b5761025d6003840154610597565b601f81116103de575b50602094601f821160011461037257948192939495600092610367575b50508160011b916000199060031b1c19161760038301555b6101008101516004811015610351576006916102bd610140926004860161064d565b61012081015160058501550151910155600154906801000000000000000082101561033b576102f482600160209401600155610600565b81549060031b9083821b91600019901b1916179055807fe7b614d99462ab012c8191c9348164cd62a4aec6d211f42371fd1f0759e5c22083604051338152a2604051908152f35b634e487b7160e01b600052604160045260246000fd5b634e487b7160e01b600052602160045260246000fd5b015190508580610283565b601f198216956003850160005260206000209160005b8881106103c6575083600195969798106103ad575b505050811b01600383015561029b565b015160001960f88460031b161c1916905585808061039d565b91926020600181928685015181550194019201610388565b600384016000526020600020601f830160051c81016020841061041e575b601f830160051c82018110610412575050610266565b600081556001016103fc565b50806103fc565b346100bf576020806003193601126100bf576004356000526000815260406000209182549260018060a01b039060019382600183015416926002830154169484600384019160009083549361047985610597565b9485855286600182169182600014610575575050600114610536575b50506104ab9250979594979693929603846105d1565b60ff600482015416946006600583015492015492604051978896875282870152604086015260e060608601528351938460e087015260005b85811061051e5750505061050661010095600087868801015260808601906105f3565b60a084015260c0830152601f01601f19168101030190f35b818101830151898201610100015288965082016104e3565b85925060005281600020906000915b85831061055d5750506104ab93508201018980610495565b8054838b018501528994508693909201918101610545565b92509350506104ab94915060ff191682840152151560051b8201018980610495565b90600182811c921680156105c7575b60208310146105b157565b634e487b7160e01b600052602260045260246000fd5b91607f16916105a6565b90601f8019910116810190811067ffffffffffffffff82111761033b57604052565b9060048210156103515752565b6001548110156106375760016000527fb10e2d527612073b26eecdfd717e6a320cf44b4afac2b0732d9fcbe2b7fa0cf60190600090565b634e487b7160e01b600052603260045260246000fd5b9060048110156103515760ff8019835416911617905556fea26469706673582212203527d0bba58587fd8bf57f45ca30bfc6accc85fc2d1d53e960530a18c8877f7664736f6c63430008180033","opcodes":"PUSH1 0x80 DUP1 PUSH1 0x40 MSTORE CALLVALUE PUSH2 0x16 JUMPI PUSH2 0x69B SWAP1 DUP2 PUSH2 0x1C DUP3 CODECOPY RETURN JUMPDEST PUSH1 0x0 DUP1 REVERT INVALID PUSH1 0x80 DUP1 PUSH1 0x40 MSTORE PUSH1 0x4 CALLDATASIZE LT ISZERO PUSH2 0x13 JUMPI PUSH1 0x0 DUP1 REVERT JUMPDEST PUSH1 0x0 CALLDATALOAD PUSH1 0xE0 SHR SWAP1 DUP2 PUSH4 0x11BE1997 EQ PUSH2 0x425 JUMPI POP DUP1 PUSH4 0x4A21B81D EQ PUSH2 0xFB JUMPI DUP1 PUSH4 0xACC8A85F EQ PUSH2 0xC4 JUMPI PUSH4 0xB641237C EQ PUSH2 0x4B JUMPI PUSH1 0x0 DUP1 REVERT JUMPDEST CALLVALUE PUSH2 0xBF JUMPI PUSH1 0x40 CALLDATASIZE PUSH1 0x3 NOT ADD SLT PUSH2 0xBF JUMPI PUSH1 0x4 CALLDATALOAD PUSH1 0x24 CALLDATALOAD PUSH1 0x4 DUP2 LT ISZERO PUSH2 0xBF JUMPI PUSH1 0x20 PUSH32 0xA168B993FC74606982B54F62FACD64A9642FC31797B78C5B503B4116F3C8388 SWAP2 DUP4 PUSH1 0x0 MSTORE PUSH1 0x0 DUP3 MSTORE PUSH1 0x40 PUSH1 0x0 KECCAK256 PUSH2 0xA9 DUP3 PUSH1 0x4 DUP4 ADD PUSH2 0x64D JUMP JUMPDEST PUSH1 0x6 TIMESTAMP SWAP2 ADD SSTORE PUSH2 0xBC PUSH1 0x40 MLOAD DUP1 SWAP3 PUSH2 0x5F3 JUMP JUMPDEST LOG2 STOP JUMPDEST PUSH1 0x0 DUP1 REVERT JUMPDEST CALLVALUE PUSH2 0xBF JUMPI PUSH1 0x20 CALLDATASIZE PUSH1 0x3 NOT ADD SLT PUSH2 0xBF JUMPI PUSH1 0x4 CALLDATALOAD PUSH1 0x1 SLOAD DUP2 LT ISZERO PUSH2 0xBF JUMPI PUSH2 0xED PUSH1 0x20 SWAP2 PUSH2 0x600 JUMP JUMPDEST SWAP1 SLOAD PUSH1 0x40 MLOAD SWAP2 PUSH1 0x3 SHL SHR DUP2 MSTORE RETURN JUMPDEST CALLVALUE PUSH2 0xBF JUMPI PUSH1 0x60 CALLDATASIZE PUSH1 0x3 NOT ADD SLT PUSH2 0xBF JUMPI PUSH1 0x1 PUSH1 0x1 PUSH1 0xA0 SHL SUB PUSH1 0x24 CALLDATALOAD DUP2 DUP2 AND SWAP2 PUSH1 0x4 CALLDATALOAD SWAP2 DUP4 SWAP1 SUB PUSH2 0xBF JUMPI PUSH8 0xFFFFFFFFFFFFFFFF SWAP3 PUSH1 0x44 CALLDATALOAD DUP5 DUP2 GT PUSH2 0xBF JUMPI CALLDATASIZE PUSH1 0x23 DUP3 ADD SLT ISZERO PUSH2 0xBF JUMPI DUP1 PUSH1 0x4 ADD CALLDATALOAD DUP6 DUP2 GT PUSH2 0x33B JUMPI PUSH1 0x40 MLOAD SWAP2 PUSH2 0x169 PUSH1 0x1F DUP4 ADD PUSH1 0x1F NOT AND PUSH1 0x20 ADD DUP5 PUSH2 0x5D1 JUMP JUMPDEST DUP2 DUP4 MSTORE CALLDATASIZE PUSH1 0x24 DUP4 DUP4 ADD ADD GT PUSH2 0xBF JUMPI DUP2 PUSH1 0x0 SWAP3 PUSH1 0x24 PUSH1 0x20 SWAP4 ADD DUP4 DUP7 ADD CALLDATACOPY DUP4 ADD ADD MSTORE PUSH1 0x40 MLOAD SWAP2 PUSH1 0x20 DUP4 ADD SWAP4 DUP6 DUP6 MSTORE CALLER PUSH1 0x60 SHL PUSH1 0x40 DUP6 ADD MSTORE TIMESTAMP PUSH1 0x54 DUP6 ADD MSTORE PUSH1 0x54 DUP5 MSTORE PUSH1 0x80 DUP5 ADD SWAP5 DUP5 DUP7 LT DUP9 DUP8 GT OR PUSH2 0x33B JUMPI DUP6 PUSH1 0x40 MSTORE DUP5 MLOAD SWAP1 KECCAK256 SWAP6 PUSH2 0x160 DUP6 ADD DUP7 DUP2 LT DUP10 DUP3 GT OR PUSH2 0x33B JUMPI PUSH1 0x40 MSTORE DUP6 MSTORE PUSH1 0xA0 DUP5 ADD SWAP1 CALLER DUP3 MSTORE PUSH1 0xC0 DUP6 ADD SWAP3 DUP4 MSTORE PUSH1 0xE0 DUP6 ADD SWAP4 DUP5 MSTORE PUSH1 0x0 PUSH2 0x100 DUP7 ADD MSTORE TIMESTAMP PUSH2 0x120 DUP7 ADD MSTORE PUSH1 0x0 PUSH2 0x140 DUP7 ADD MSTORE DUP7 PUSH1 0x0 MSTORE PUSH1 0x0 PUSH1 0x20 MSTORE PUSH1 0x40 PUSH1 0x0 KECCAK256 SWAP6 MLOAD DUP7 SSTORE DUP1 PUSH1 0x1 DUP8 ADD SWAP3 MLOAD AND SWAP2 PUSH12 0xFFFFFFFFFFFFFFFFFFFFFFFF PUSH1 0xA0 SHL SWAP3 DUP4 DUP3 SLOAD AND OR SWAP1 SSTORE PUSH1 0x2 DUP7 ADD SWAP3 MLOAD AND SWAP1 DUP3 SLOAD AND OR SWAP1 SSTORE MLOAD SWAP4 DUP5 MLOAD SWAP1 DUP2 GT PUSH2 0x33B JUMPI PUSH2 0x25D PUSH1 0x3 DUP5 ADD SLOAD PUSH2 0x597 JUMP JUMPDEST PUSH1 0x1F DUP2 GT PUSH2 0x3DE JUMPI JUMPDEST POP PUSH1 0x20 SWAP5 PUSH1 0x1F DUP3 GT PUSH1 0x1 EQ PUSH2 0x372 JUMPI SWAP5 DUP2 SWAP3 SWAP4 SWAP5 SWAP6 PUSH1 0x0 SWAP3 PUSH2 0x367 JUMPI JUMPDEST POP POP DUP2 PUSH1 0x1 SHL SWAP2 PUSH1 0x0 NOT SWAP1 PUSH1 0x3 SHL SHR NOT AND OR PUSH1 0x3 DUP4 ADD SSTORE JUMPDEST PUSH2 0x100 DUP2 ADD MLOAD PUSH1 0x4 DUP2 LT ISZERO PUSH2 0x351 JUMPI PUSH1 0x6 SWAP2 PUSH2 0x2BD PUSH2 0x140 SWAP3 PUSH1 0x4 DUP7 ADD PUSH2 0x64D JUMP JUMPDEST PUSH2 0x120 DUP2 ADD MLOAD PUSH1 0x5 DUP6 ADD SSTORE ADD MLOAD SWAP2 ADD SSTORE PUSH1 0x1 SLOAD SWAP1 PUSH9 0x10000000000000000 DUP3 LT ISZERO PUSH2 0x33B JUMPI PUSH2 0x2F4 DUP3 PUSH1 0x1 PUSH1 0x20 SWAP5 ADD PUSH1 0x1 SSTORE PUSH2 0x600 JUMP JUMPDEST DUP2 SLOAD SWAP1 PUSH1 0x3 SHL SWAP1 DUP4 DUP3 SHL SWAP2 PUSH1 0x0 NOT SWAP1 SHL NOT AND OR SWAP1 SSTORE DUP1 PUSH32 0xE7B614D99462AB012C8191C9348164CD62A4AEC6D211F42371FD1F0759E5C220 DUP4 PUSH1 0x40 MLOAD CALLER DUP2 MSTORE LOG2 PUSH1 0x40 MLOAD SWAP1 DUP2 MSTORE RETURN JUMPDEST PUSH4 0x4E487B71 PUSH1 0xE0 SHL PUSH1 0x0 MSTORE PUSH1 0x41 PUSH1 0x4 MSTORE PUSH1 0x24 PUSH1 0x0 REVERT JUMPDEST PUSH4 0x4E487B71 PUSH1 0xE0 SHL PUSH1 0x0 MSTORE PUSH1 0x21 PUSH1 0x4 MSTORE PUSH1 0x24 PUSH1 0x0 REVERT JUMPDEST ADD MLOAD SWAP1 POP DUP6 DUP1 PUSH2 0x283 JUMP JUMPDEST PUSH1 0x1F NOT DUP3 AND SWAP6 PUSH1 0x3 DUP6 ADD PUSH1 0x0 MSTORE PUSH1 0x20 PUSH1 0x0 KECCAK256 SWAP2 PUSH1 0x0 JUMPDEST DUP9 DUP2 LT PUSH2 0x3C6 JUMPI POP DUP4 PUSH1 0x1 SWAP6 SWAP7 SWAP8 SWAP9 LT PUSH2 0x3AD JUMPI JUMPDEST POP POP POP DUP2 SHL ADD PUSH1 0x3 DUP4 ADD SSTORE PUSH2 0x29B JUMP JUMPDEST ADD MLOAD PUSH1 0x0 NOT PUSH1 0xF8 DUP5 PUSH1 0x3 SHL AND SHR NOT AND SWAP1 SSTORE DUP6 DUP1 DUP1 PUSH2 0x39D JUMP JUMPDEST SWAP2 SWAP3 PUSH1 0x20 PUSH1 0x1 DUP2 SWAP3 DUP7 DUP6 ADD MLOAD DUP2 SSTORE ADD SWAP5 ADD SWAP3 ADD PUSH2 0x388 JUMP JUMPDEST PUSH1 0x3 DUP5 ADD PUSH1 0x0 MSTORE PUSH1 0x20 PUSH1 0x0 KECCAK256 PUSH1 0x1F DUP4 ADD PUSH1 0x5 SHR DUP2 ADD PUSH1 0x20 DUP5 LT PUSH2 0x41E JUMPI JUMPDEST PUSH1 0x1F DUP4 ADD PUSH1 0x5 SHR DUP3 ADD DUP2 LT PUSH2 0x412 JUMPI POP POP PUSH2 0x266 JUMP JUMPDEST PUSH1 0x0 DUP2 SSTORE PUSH1 0x1 ADD PUSH2 0x3FC JUMP JUMPDEST POP DUP1 PUSH2 0x3FC JUMP JUMPDEST CALLVALUE PUSH2 0xBF JUMPI PUSH1 0x20 DUP1 PUSH1 0x3 NOT CALLDATASIZE ADD SLT PUSH2 0xBF JUMPI PUSH1 0x4 CALLDATALOAD PUSH1 0x0 MSTORE PUSH1 0x0 DUP2 MSTORE PUSH1 0x40 PUSH1 0x0 KECCAK256 SWAP2 DUP3 SLOAD SWAP3 PUSH1 0x1 DUP1 PUSH1 0xA0 SHL SUB SWAP1 PUSH1 0x1 SWAP4 DUP3 PUSH1 0x1 DUP4 ADD SLOAD AND SWAP3 PUSH1 0x2 DUP4 ADD SLOAD AND SWAP5 DUP5 PUSH1 0x3 DUP5 ADD SWAP2 PUSH1 0x0 SWAP1 DUP4 SLOAD SWAP4 PUSH2 0x479 DUP6 PUSH2 0x597 JUMP JUMPDEST SWAP5 DUP6 DUP6 MSTORE DUP7 PUSH1 0x1 DUP3 AND SWAP2 DUP3 PUSH1 0x0 EQ PUSH2 0x575 JUMPI POP POP PUSH1 0x1 EQ PUSH2 0x536 JUMPI JUMPDEST POP POP PUSH2 0x4AB SWAP3 POP SWAP8 SWAP6 SWAP5 SWAP8 SWAP7 SWAP4 SWAP3 SWAP7 SUB DUP5 PUSH2 0x5D1 JUMP JUMPDEST PUSH1 0xFF PUSH1 0x4 DUP3 ADD SLOAD AND SWAP5 PUSH1 0x6 PUSH1 0x5 DUP4 ADD SLOAD SWAP3 ADD SLOAD SWAP3 PUSH1 0x40 MLOAD SWAP8 DUP9 SWAP7 DUP8 MSTORE DUP3 DUP8 ADD MSTORE PUSH1 0x40 DUP7 ADD MSTORE PUSH1 0xE0 PUSH1 0x60 DUP7 ADD MSTORE DUP4 MLOAD SWAP4 DUP5 PUSH1 0xE0 DUP8 ADD MSTORE PUSH1 0x0 JUMPDEST DUP6 DUP2 LT PUSH2 0x51E JUMPI POP POP POP PUSH2 0x506 PUSH2 0x100 SWAP6 PUSH1 0x0 DUP8 DUP7 DUP9 ADD ADD MSTORE PUSH1 0x80 DUP7 ADD SWAP1 PUSH2 0x5F3 JUMP JUMPDEST PUSH1 0xA0 DUP5 ADD MSTORE PUSH1 0xC0 DUP4 ADD MSTORE PUSH1 0x1F ADD PUSH1 0x1F NOT AND DUP2 ADD SUB ADD SWAP1 RETURN JUMPDEST DUP2 DUP2 ADD DUP4 ADD MLOAD DUP10 DUP3 ADD PUSH2 0x100 ADD MSTORE DUP9 SWAP7 POP DUP3 ADD PUSH2 0x4E3 JUMP JUMPDEST DUP6 SWAP3 POP PUSH1 0x0 MSTORE DUP2 PUSH1 0x0 KECCAK256 SWAP1 PUSH1 0x0 SWAP2 JUMPDEST DUP6 DUP4 LT PUSH2 0x55D JUMPI POP POP PUSH2 0x4AB SWAP4 POP DUP3 ADD ADD DUP10 DUP1 PUSH2 0x495 JUMP JUMPDEST DUP1 SLOAD DUP4 DUP12 ADD DUP6 ADD MSTORE DUP10 SWAP5 POP DUP7 SWAP4 SWAP1 SWAP3 ADD SWAP2 DUP2 ADD PUSH2 0x545 JUMP JUMPDEST SWAP3 POP SWAP4 POP POP PUSH2 0x4AB SWAP5 SWAP2 POP PUSH1 0xFF NOT AND DUP3 DUP5 ADD MSTORE ISZERO ISZERO PUSH1 0x5 SHL DUP3 ADD ADD DUP10 DUP1 PUSH2 0x495 JUMP JUMPDEST SWAP1 PUSH1 0x1 DUP3 DUP2 SHR SWAP3 AND DUP1 ISZERO PUSH2 0x5C7 JUMPI JUMPDEST PUSH1 0x20 DUP4 LT EQ PUSH2 0x5B1 JUMPI JUMP JUMPDEST PUSH4 0x4E487B71 PUSH1 0xE0 SHL PUSH1 0x0 MSTORE PUSH1 0x22 PUSH1 0x4 MSTORE PUSH1 0x24 PUSH1 0x0 REVERT JUMPDEST SWAP2 PUSH1 0x7F AND SWAP2 PUSH2 0x5A6 JUMP JUMPDEST SWAP1 PUSH1 0x1F DUP1 NOT SWAP2 ADD AND DUP2 ADD SWAP1 DUP2 LT PUSH8 0xFFFFFFFFFFFFFFFF DUP3 GT OR PUSH2 0x33B JUMPI PUSH1 0x40 MSTORE JUMP JUMPDEST SWAP1 PUSH1 0x4 DUP3 LT ISZERO PUSH2 0x351 JUMPI MSTORE JUMP JUMPDEST PUSH1 0x1 SLOAD DUP2 LT ISZERO PUSH2 0x637 JUMPI PUSH1 0x1 PUSH1 0x0 MSTORE PUSH32 0xB10E2D527612073B26EECDFD717E6A320CF44B4AFAC2B0732D9FCBE2B7FA0CF6 ADD SWAP1 PUSH1 0x0 SWAP1 JUMP JUMPDEST PUSH4 0x4E487B71 PUSH1 0xE0 SHL PUSH1 0x0 MSTORE PUSH1 0x32 PUSH1 0x4 MSTORE PUSH1 0x24 PUSH1 0x0 REVERT JUMPDEST SWAP1 PUSH1 0x4 DUP2 LT ISZERO PUSH2 0x351 JUMPI PUSH1 0xFF DUP1 NOT DUP4 SLOAD AND SWAP2 AND OR SWAP1 SSTORE JUMP INVALID LOG2 PUSH5 0x6970667358 0x22 SLT KECCAK256 CALLDATALOAD 0x27 0xD0 0xBB 0xA5 DUP6 DUP8 REVERT DUP12 CREATE2 PUSH32 0x45CA30BFC6ACCC85FC2D1D53E960530A18C8877F7664736F6C63430008180033 "},"methodIdentifiers":{"disputeIds(uint256)":"acc8a85f","disputes(bytes32)":"11be1997","openDispute(uint256,address,string)":"4a21b81d","resolveDispute(bytes32,uint8)":"b641237c"}}}}}