{"contracts/PriceOracle.sol":{"PriceOracle":{"abi":[{"anonymous":false,"inputs":[{"indexed":true,"internalType":"string","name":"herb","type":"string"},{"indexed":false,"internalType":"int256","name":"price","type":"int256"}],"name":"PriceUpdated","type":"event"},{"inputs":[{"internalType":"string","name":"_herb","type":"string"}],"name":"getPrice","outputs":[{"internalType":"int256","name":"","type":"int256"}],"stateMutability":"view","type":"function"},{"inputs":[{"internalType":"string","name":"","type":"string"}],"name":"lastUpdated","outputs":[{"internalType":"uint256","name":"","type":"uint256"}],"stateMutability":"view","type":"function"},{"inputs":[{"internalType":"string","name":"","type":"string"}],"name":"prices","outputs":[{"internalType":"int256","name":"","type":"int256"}],"stateMutability":"view","type":"function"},{"inputs":[{"internalType":"string","name":"_herb","type":"string"},{"internalType":"int256","name":"_price","type":"int256"}],"name":"updatePrice","outputs":[],"stateMutability":"nonpayable","type":"function"}],"evm":{"bytecode":{"linkReferences":{},"object":"60808060405234610016576102b5908161001c8239f35b600080fdfe6040608081526004908136101561001557600080fd5b600091823560e01c8063233af1b01461017f5780632a632795146100dd578063524f3889146100a65763c3825f4b1461004d57600080fd5b346100a25760203660031901126100a257803567ffffffffffffffff811161009e5760209361008361008f9386933691016101d6565b90845193848093610254565b90815203019020549051908152f35b8380fd5b8280fd5b50346100a25760203660031901126100a257803567ffffffffffffffff811161009e5760209361008361008f9386933691016101d6565b50346100a257816003193601126100a25780359067ffffffffffffffff821161009e576101306020917f96bcd8c61eef208b976d0b3a236114099b678dc3b78adcaf2e4703ad8b49233a933691016101d6565b6101736024359182865185816101468186610254565b8b81520301902055855161015a8183610254565b9060018252858142930301902055855191828092610254565b0390209351908152a280f35b5091346101d35760203660031901126101d35782359067ffffffffffffffff82116101d3575060206101b881946101c3933691016101d6565b835192838092610254565b6001815203019020549051908152f35b80fd5b81601f820112156102395780359067ffffffffffffffff9283831161023e5760405193601f8401601f19908116603f011685019081118582101761023e576040528284526020838301011161023957816000926020809301838601378301015290565b600080fd5b634e487b7160e01b600052604160045260246000fd5b9081519160005b83811061026c575050016000815290565b806020809284010151818501520161025b56fea26469706673582212202a8f863171b39bfe2cee5184e9f159cf50e84a811df4ee76cbb774ce218191f464736f6c63430008180033","opcodes":"PUSH1 0x80 DUP1 PUSH1 0x40 MSTORE CALLVALUE PUSH2 0x16 JUMPI PUSH2 0x2B5 SWAP1 DUP2 PUSH2 0x1C DUP3 CODECOPY RETURN JUMPDEST PUSH1 0x0 DUP1 REVERT INVALID PUSH1 0x40 PUSH1 0x80 DUP2 MSTORE PUSH1 0x4 SWAP1 DUP2 CALLDATASIZE LT ISZERO PUSH2 0x15 JUMPI PUSH1 0x0 DUP1 REVERT JUMPDEST PUSH1 0x0 SWAP2 DUP3 CALLDATALOAD PUSH1 0xE0 SHR DUP1 PUSH4 0x233AF1B0 EQ PUSH2 0x17F JUMPI DUP1 PUSH4 0x2A632795 EQ PUSH2 0xDD JUMPI DUP1 PUSH4 0x524F3889 EQ PUSH2 0xA6 JUMPI PUSH4 0xC3825F4B EQ PUSH2 0x4D JUMPI PUSH1 0x0 DUP1 REVERT JUMPDEST CALLVALUE PUSH2 0xA2 JUMPI PUSH1 0x20 CALLDATASIZE PUSH1 0x3 NOT ADD SLT PUSH2 0xA2 JUMPI DUP1 CALLDATALOAD PUSH8 0xFFFFFFFFFFFFFFFF DUP2 GT PUSH2 0x9E JUMPI PUSH1 0x20 SWAP4 PUSH2 0x83 PUSH2 0x8F SWAP4 DUP7 SWAP4 CALLDATASIZE SWAP2 ADD PUSH2 0x1D6 JUMP JUMPDEST SWAP1 DUP5 MLOAD SWAP4 DUP5 DUP1 SWAP4 PUSH2 0x254 JUMP JUMPDEST SWAP1 DUP2 MSTORE SUB ADD SWAP1 KECCAK256 SLOAD SWAP1 MLOAD SWAP1 DUP2 MSTORE RETURN JUMPDEST DUP4 DUP1 REVERT JUMPDEST DUP3 DUP1 REVERT JUMPDEST POP CALLVALUE PUSH2 0xA2 JUMPI PUSH1 0x20 CALLDATASIZE PUSH1 0x3 NOT ADD SLT PUSH2 0xA2 JUMPI DUP1 CALLDATALOAD PUSH8 0xFFFFFFFFFFFFFFFF DUP2 GT PUSH2 0x9E JUMPI PUSH1 0x20 SWAP4 PUSH2 0x83 PUSH2 0x8F SWAP4 DUP7 SWAP4 CALLDATASIZE SWAP2 ADD PUSH2 0x1D6 JUMP JUMPDEST POP CALLVALUE PUSH2 0xA2 JUMPI DUP2 PUSH1 0x3 NOT CALLDATASIZE ADD SLT PUSH2 0xA2 JUMPI DUP1 CALLDATALOAD SWAP1 PUSH8 0xFFFFFFFFFFFFFFFF DUP3 GT PUSH2 0x9E JUMPI PUSH2 0x130 PUSH1 0x20 SWAP2 PUSH32 0x96BCD8C61EEF208B976D0B3A236114099B678DC3B78ADCAF2E4703AD8B49233A SWAP4 CALLDATASIZE SWAP2 ADD PUSH2 0x1D6 JUMP JUMPDEST PUSH2 0x173 PUSH1 0x24 CALLDATALOAD SWAP2 DUP3 DUP7 MLOAD DUP6 DUP2 PUSH2 0x146 DUP2 DUP7 PUSH2 0x254 JUMP JUMPDEST DUP12 DUP2 MSTORE SUB ADD SWAP1 KECCAK256 SSTORE DUP6 MLOAD PUSH2 0x15A DUP2 DUP4 PUSH2 0x254 JUMP JUMPDEST SWAP1 PUSH1 0x1 DUP3 MSTORE DUP6 DUP2 TIMESTAMP SWAP4 SUB ADD SWAP1 KECCAK256 SSTORE DUP6 MLOAD SWAP2 DUP3 DUP1 SWAP3 PUSH2 0x254 JUMP JUMPDEST SUB SWAP1 KECCAK256 SWAP4 MLOAD SWAP1 DUP2 MSTORE LOG2 DUP1 RETURN JUMPDEST POP SWAP2 CALLVALUE PUSH2 0x1D3 JUMPI PUSH1 0x20 CALLDATASIZE PUSH1 0x3 NOT ADD SLT PUSH2 0x1D3 JUMPI DUP3 CALLDATALOAD SWAP1 PUSH8 0xFFFFFFFFFFFFFFFF DUP3 GT PUSH2 0x1D3 JUMPI POP PUSH1 0x20 PUSH2 0x1B8 DUP2 SWAP5 PUSH2 0x1C3 SWAP4 CALLDATASIZE SWAP2 ADD PUSH2 0x1D6 JUMP JUMPDEST DUP4 MLOAD SWAP3 DUP4 DUP1 SWAP3 PUSH2 0x254 JUMP JUMPDEST PUSH1 0x1 DUP2 MSTORE SUB ADD SWAP1 KECCAK256 SLOAD SWAP1 MLOAD SWAP1 DUP2 MSTORE RETURN JUMPDEST DUP1 REVERT JUMPDEST DUP2 PUSH1 0x1F DUP3 ADD SLT ISZERO PUSH2 0x239 JUMPI DUP1 CALLDATALOAD SWAP1 PUSH8 0xFFFFFFFFFFFFFFFF SWAP3 DUP4 DUP4 GT PUSH2 0x23E JUMPI PUSH1 0x40 MLOAD SWAP4 PUSH1 0x1F DUP5 ADD PUSH1 0x1F NOT SWAP1 DUP2 AND PUSH1 0x3F ADD AND DUP6 ADD SWAP1 DUP2 GT DUP6 DUP3 LT OR PUSH2 0x23E JUMPI PUSH1 0x40 MSTORE DUP3 DUP5 MSTORE PUSH1 0x20 DUP4 DUP4 ADD ADD GT PUSH2 0x239 JUMPI DUP2 PUSH1 0x0 SWAP3 PUSH1 0x20 DUP1 SWAP4 ADD DUP4 DUP7 ADD CALLDATACOPY DUP4 ADD ADD MSTORE SWAP1 JUMP JUMPDEST PUSH1 0x0 DUP1 REVERT JUMPDEST PUSH4 0x4E487B71 PUSH1 0xE0 SHL PUSH1 0x0 MSTORE PUSH1 0x41 PUSH1 0x4 MSTORE PUSH1 0x24 PUSH1 0x0 REVERT JUMPDEST SWAP1 DUP2 MLOAD SWAP2 PUSH1 0x0 JUMPDEST DUP4 DUP2 LT PUSH2 0x26C JUMPI POP POP ADD PUSH1 0x0 DUP2 MSTORE SWAP1 JUMP JUMPDEST DUP1 PUSH1 0x20 DUP1 SWAP3 DUP5 ADD ADD MLOAD DUP2 DUP6 ADD MSTORE ADD PUSH2 0x25B JUMP INVALID LOG2 PUSH5 0x6970667358 0x22 SLT KECCAK256 0x2A DUP16 DUP7 BALANCE PUSH18 0xB39BFE2CEE5184E9F159CF50E84A811DF4EE PUSH23 0xCBB774CE218191F464736F6C6343000818003300000000 "},"methodIdentifiers":{"getPrice(string)":"524f3889","lastUpdated(string)":"233af1b0","prices(string)":"c3825f4b","updatePrice(string,int256)":"2a632795"}}}}}