{"contracts/ColdChain.sol":{"ColdChainManager":{"abi":[{"inputs":[{"internalType":"uint256","name":"_batchId","type":"uint256"}],"name":"getTemperatureLogs","outputs":[{"components":[{"internalType":"uint256","name":"batchId","type":"uint256"},{"internalType":"int256","name":"temperature","type":"int256"},{"internalType":"uint256","name":"timestamp","type":"uint256"}],"internalType":"struct ColdChainManager.TemperatureLog[]","name":"","type":"tuple[]"}],"stateMutability":"view","type":"function"},{"inputs":[{"internalType":"uint256","name":"_batchId","type":"uint256"},{"internalType":"int256","name":"_temp","type":"int256"}],"name":"logTemperature","outputs":[],"stateMutability":"nonpayable","type":"function"},{"inputs":[{"internalType":"uint256","name":"","type":"uint256"},{"internalType":"uint256","name":"","type":"uint256"}],"name":"temperatureLogs","outputs":[{"internalType":"uint256","name":"batchId","type":"uint256"},{"internalType":"int256","name":"temperature","type":"int256"},{"internalType":"uint256","name":"timestamp","type":"uint256"}],"stateMutability":"view","type":"function"}],"evm":{"bytecode":{"linkReferences":{},"object":"60808060405234610016576102e8908161001c8239f35b600080fdfe60806040908082526004918236101561001757600080fd5b600091823560e01c9081632dfe88431461013e575080633ffb632e146100e65763b9ff7eed1461004657600080fd5b346100e257806003193601126100e257823590818352826020528083209061006c61027c565b92835260208301906024358252830191428352805490680100000000000000008210156100cf57906100a39160018201815561024a565b9390936100bd575183555160018301555160029091015580f35b634e487b7160e01b8552848652602485fd5b634e487b7160e01b865260418752602486fd5b5080fd5b50903461013b578160031936011261013b57602435923581528060205281812090815484101561013b575060609261011d9161024a565b50805491600260018301549201549181519384526020840152820152f35b80fd5b83858492346102465760208060031936011261024257823584528381528484209283549067ffffffffffffffff9081831161022f57600583901b603f01601f191685019182118583101761022f57508695939295528082528482018094845285842084915b8383106101f65750505050845193808501918186525180925285850193925b8281106101cf5785850386f35b835180518652808301518684015287015187860152606090940193928101926001016101c2565b6003886001926102089a97989a61027c565b85548152848601548382015260028601548d820152815201920192019190969493966101a3565b634e487b7160e01b875260419052602486fd5b8380fd5b8280fd5b8054821015610266576000526003602060002091020190600090565b634e487b7160e01b600052603260045260246000fd5b604051906060820182811067ffffffffffffffff82111761029c57604052565b634e487b7160e01b600052604160045260246000fdfea2646970667358221220e5c1231d094ac5beb7dbc61f6f6df1e75883f2f7334b91f633358ff61315ed7164736f6c63430008180033","opcodes":"PUSH1 0x80 DUP1 PUSH1 0x40 MSTORE CALLVALUE PUSH2 0x16 JUMPI PUSH2 0x2E8 SWAP1 DUP2 PUSH2 0x1C DUP3 CODECOPY RETURN JUMPDEST PUSH1 0x0 DUP1 REVERT INVALID PUSH1 0x80 PUSH1 0x40 SWAP1 DUP1 DUP3 MSTORE PUSH1 0x4 SWAP2 DUP3 CALLDATASIZE LT ISZERO PUSH2 0x17 JUMPI PUSH1 0x0 DUP1 REVERT JUMPDEST PUSH1 0x0 SWAP2 DUP3 CALLDATALOAD PUSH1 0xE0 SHR SWAP1 DUP2 PUSH4 0x2DFE8843 EQ PUSH2 0x13E JUMPI POP DUP1 PUSH4 0x3FFB632E EQ PUSH2 0xE6 JUMPI PUSH4 0xB9FF7EED EQ PUSH2 0x46 JUMPI PUSH1 0x0 DUP1 REVERT JUMPDEST CALLVALUE PUSH2 0xE2 JUMPI DUP1 PUSH1 0x3 NOT CALLDATASIZE ADD SLT PUSH2 0xE2 JUMPI DUP3 CALLDATALOAD SWAP1 DUP2 DUP4 MSTORE DUP3 PUSH1 0x20 MSTORE DUP1 DUP4 KECCAK256 SWAP1 PUSH2 0x6C PUSH2 0x27C JUMP JUMPDEST SWAP3 DUP4 MSTORE PUSH1 0x20 DUP4 ADD SWAP1 PUSH1 0x24 CALLDATALOAD DUP3 MSTORE DUP4 ADD SWAP2 TIMESTAMP DUP4 MSTORE DUP1 SLOAD SWAP1 PUSH9 0x10000000000000000 DUP3 LT ISZERO PUSH2 0xCF JUMPI SWAP1 PUSH2 0xA3 SWAP2 PUSH1 0x1 DUP3 ADD DUP2 SSTORE PUSH2 0x24A JUMP JUMPDEST SWAP4 SWAP1 SWAP4 PUSH2 0xBD JUMPI MLOAD DUP4 SSTORE MLOAD PUSH1 0x1 DUP4 ADD SSTORE MLOAD PUSH1 0x2 SWAP1 SWAP2 ADD SSTORE DUP1 RETURN JUMPDEST PUSH4 0x4E487B71 PUSH1 0xE0 SHL DUP6 MSTORE DUP5 DUP7 MSTORE PUSH1 0x24 DUP6 REVERT JUMPDEST PUSH4 0x4E487B71 PUSH1 0xE0 SHL DUP7 MSTORE PUSH1 0x41 DUP8 MSTORE PUSH1 0x24 DUP7 REVERT JUMPDEST POP DUP1 REVERT JUMPDEST POP SWAP1 CALLVALUE PUSH2 0x13B JUMPI DUP2 PUSH1 0x3 NOT CALLDATASIZE ADD SLT PUSH2 0x13B JUMPI PUSH1 0x24 CALLDATALOAD SWAP3 CALLDATALOAD DUP2 MSTORE DUP1 PUSH1 0x20 MSTORE DUP2 DUP2 KECCAK256 SWAP1 DUP2 SLOAD DUP5 LT ISZERO PUSH2 0x13B JUMPI POP PUSH1 0x60 SWAP3 PUSH2 0x11D SWAP2 PUSH2 0x24A JUMP JUMPDEST POP DUP1 SLOAD SWAP2 PUSH1 0x2 PUSH1 0x1 DUP4 ADD SLOAD SWAP3 ADD SLOAD SWAP2 DUP2 MLOAD SWAP4 DUP5 MSTORE PUSH1 0x20 DUP5 ADD MSTORE DUP3 ADD MSTORE RETURN JUMPDEST DUP1 REVERT JUMPDEST DUP4 DUP6 DUP5 SWAP3 CALLVALUE PUSH2 0x246 JUMPI PUSH1 0x20 DUP1 PUSH1 0x3 NOT CALLDATASIZE ADD SLT PUSH2 0x242 JUMPI DUP3 CALLDATALOAD DUP5 MSTORE DUP4 DUP2 MSTORE DUP5 DUP5 KECCAK256 SWAP3 DUP4 SLOAD SWAP1 PUSH8 0xFFFFFFFFFFFFFFFF SWAP1 DUP2 DUP4 GT PUSH2 0x22F JUMPI PUSH1 0x5 DUP4 SWAP1 SHL PUSH1 0x3F ADD PUSH1 0x1F NOT AND DUP6 ADD SWAP2 DUP3 GT DUP6 DUP4 LT OR PUSH2 0x22F JUMPI POP DUP7 SWAP6 SWAP4 SWAP3 SWAP6 MSTORE DUP1 DUP3 MSTORE DUP5 DUP3 ADD DUP1 SWAP5 DUP5 MSTORE DUP6 DUP5 KECCAK256 DUP5 SWAP2 JUMPDEST DUP4 DUP4 LT PUSH2 0x1F6 JUMPI POP POP POP POP DUP5 MLOAD SWAP4 DUP1 DUP6 ADD SWAP2 DUP2 DUP7 MSTORE MLOAD DUP1 SWAP3 MSTORE DUP6 DUP6 ADD SWAP4 SWAP3 JUMPDEST DUP3 DUP2 LT PUSH2 0x1CF JUMPI DUP6 DUP6 SUB DUP7 RETURN JUMPDEST DUP4 MLOAD DUP1 MLOAD DUP7 MSTORE DUP1 DUP4 ADD MLOAD DUP7 DUP5 ADD MSTORE DUP8 ADD MLOAD DUP8 DUP7 ADD MSTORE PUSH1 0x60 SWAP1 SWAP5 ADD SWAP4 SWAP3 DUP2 ADD SWAP3 PUSH1 0x1 ADD PUSH2 0x1C2 JUMP JUMPDEST PUSH1 0x3 DUP9 PUSH1 0x1 SWAP3 PUSH2 0x208 SWAP11 SWAP8 SWAP9 SWAP11 PUSH2 0x27C JUMP JUMPDEST DUP6 SLOAD DUP2 MSTORE DUP5 DUP7 ADD SLOAD DUP4 DUP3 ADD MSTORE PUSH1 0x2 DUP7 ADD SLOAD DUP14 DUP3 ADD MSTORE DUP2 MSTORE ADD SWAP3 ADD SWAP3 ADD SWAP2 SWAP1 SWAP7 SWAP5 SWAP4 SWAP7 PUSH2 0x1A3 JUMP JUMPDEST PUSH4 0x4E487B71 PUSH1 0xE0 SHL DUP8 MSTORE PUSH1 0x41 SWAP1 MSTORE PUSH1 0x24 DUP7 REVERT JUMPDEST DUP4 DUP1 REVERT JUMPDEST DUP3 DUP1 REVERT JUMPDEST DUP1 SLOAD DUP3 LT ISZERO PUSH2 0x266 JUMPI PUSH1 0x0 MSTORE PUSH1 0x3 PUSH1 0x20 PUSH1 0x0 KECCAK256 SWAP2 MUL ADD SWAP1 PUSH1 0x0 SWAP1 JUMP JUMPDEST PUSH4 0x4E487B71 PUSH1 0xE0 SHL PUSH1 0x0 MSTORE PUSH1 0x32 PUSH1 0x4 MSTORE PUSH1 0x24 PUSH1 0x0 REVERT JUMPDEST PUSH1 0x40 MLOAD SWAP1 PUSH1 0x60 DUP3 ADD DUP3 DUP2 LT PUSH8 0xFFFFFFFFFFFFFFFF DUP3 GT OR PUSH2 0x29C JUMPI PUSH1 0x40 MSTORE JUMP JUMPDEST PUSH4 0x4E487B71 PUSH1 0xE0 SHL PUSH1 0x0 MSTORE PUSH1 0x41 PUSH1 0x4 MSTORE PUSH1 0x24 PUSH1 0x0 REVERT INVALID LOG2 PUSH5 0x6970667358 0x22 SLT KECCAK256 0xE5 0xC1 0x23 SAR MULMOD BLOBBASEFEE 0xC5 0xBE 0xB7 0xDB 0xC6 0x1F PUSH16 0x6DF1E75883F2F7334B91F633358FF613 ISZERO 0xED PUSH18 0x64736F6C6343000818003300000000000000 "},"methodIdentifiers":{"getTemperatureLogs(uint256)":"2dfe8843","logTemperature(uint256,int256)":"b9ff7eed","temperatureLogs(uint256,uint256)":"3ffb632e"}}}}}