{"contracts/Analytics.sol":{"AnalyticsContract":{"abi":[{"inputs":[],"name":"getStatsCount","outputs":[{"internalType":"uint256","name":"","type":"uint256"}],"stateMutability":"view","type":"function"},{"inputs":[{"internalType":"string","name":"_metric","type":"string"},{"internalType":"uint256","name":"_value","type":"uint256"}],"name":"recordStat","outputs":[],"stateMutability":"nonpayable","type":"function"},{"inputs":[{"internalType":"uint256","name":"","type":"uint256"}],"name":"stats","outputs":[{"internalType":"string","name":"metric","type":"string"},{"internalType":"uint256","name":"value","type":"uint256"},{"internalType":"uint256","name":"timestamp","type":"uint256"}],"stateMutability":"view","type":"function"}],"evm":{"bytecode":{"linkReferences":{},"object":"60808060405234610016576104be908161001c8239f35b600080fdfe608060408181526004918236101561001657600080fd5b600092833560e01c9182637d4090601461019057508163ad217ae514610065575063fc3e4ff01461004657600080fd5b34610061578160031936011261006157602091549051908152f35b5080fd5b90503461018c5760209081600319360112610188573583548110156101885761008d90610400565b509180519284848254916100a08361044e565b928383526001908760018216918260001461016857505060011461012c575b506100d092509693929603856103c8565b6002600186015495015490805195869460608652865194856060880152805b868110610115575060808098508688010152850152830152601f80199101168101030190f35b8089018301518a82016080015289975082016100ef565b8691508489528189209089915b8583106101505750506100d09350820101386100bf565b8054838b018501528994508893909201918101610139565b60ff1916858201526100d095151560051b85010192503891506100bf9050565b8380fd5b8280fd5b908492503461018c578360031936011261018c5780359367ffffffffffffffff908186116103c457366023870112156103c457602491838701358181116103b257602090601f19986101e9838b601f85011601896103c8565b818852368683830101116103ae5781899287859301838b013788010152825195606087018781108482111761039c578452865280860192843584528601944286528754946801000000000000000086101561038b5761024e6001968781018b55610400565b98909861037a575191825194851161036957505061026c875461044e565b601f8111610323575b5081601f84116001146102be575087985090829160029798926102b3575b5050600019600383901b1c191690831b1785555b51908401555191015580f35b015190508880610293565b929889168789528389209389905b82821061030c575050918593918a6002999a9b94106102f3575b505050811b0185556102a7565b015160001960f88460031b161c191690558880806102e6565b8088869782949787015181550196019401906102cc565b878952828920601f850160051c81019184861061035f575b601f0160051c019086905b828110610354575050610275565b8a8155018690610346565b909150819061033b565b634e487b7160e01b8a526041905288fd5b50634e487b7160e01b895288825288fd5b634e487b7160e01b89526041825288fd5b634e487b7160e01b8952604187528589fd5b8880fd5b634e487b7160e01b8752604185528387fd5b8480fd5b90601f8019910116810190811067ffffffffffffffff8211176103ea57604052565b634e487b7160e01b600052604160045260246000fd5b90600091825481101561043a57600390838052027f290decd9548b62a8d60345a988386fc84ba6bc95484008f6362f93160ef3e563019190565b634e487b7160e01b83526032600452602483fd5b90600182811c9216801561047e575b602083101461046857565b634e487b7160e01b600052602260045260246000fd5b91607f169161045d56fea264697066735822122069460a75fdd2053d52f4d84d19631ea8f112f4ac3c6efbda49fa47ff9a637e7f64736f6c63430008180033","opcodes":"PUSH1 0x80 DUP1 PUSH1 0x40 MSTORE CALLVALUE PUSH2 0x16 JUMPI PUSH2 0x4BE SWAP1 DUP2 PUSH2 0x1C DUP3 CODECOPY RETURN JUMPDEST PUSH1 0x0 DUP1 REVERT INVALID PUSH1 0x80 PUSH1 0x40 DUP2 DUP2 MSTORE PUSH1 0x4 SWAP2 DUP3 CALLDATASIZE LT ISZERO PUSH2 0x16 JUMPI PUSH1 0x0 DUP1 REVERT JUMPDEST PUSH1 0x0 SWAP3 DUP4 CALLDATALOAD PUSH1 0xE0 SHR SWAP2 DUP3 PUSH4 0x7D409060 EQ PUSH2 0x190 JUMPI POP DUP2 PUSH4 0xAD217AE5 EQ PUSH2 0x65 JUMPI POP PUSH4 0xFC3E4FF0 EQ PUSH2 0x46 JUMPI PUSH1 0x0 DUP1 REVERT JUMPDEST CALLVALUE PUSH2 0x61 JUMPI DUP2 PUSH1 0x3 NOT CALLDATASIZE ADD SLT PUSH2 0x61 JUMPI PUSH1 0x20 SWAP2 SLOAD SWAP1 MLOAD SWAP1 DUP2 MSTORE RETURN JUMPDEST POP DUP1 REVERT JUMPDEST SWAP1 POP CALLVALUE PUSH2 0x18C JUMPI PUSH1 0x20 SWAP1 DUP2 PUSH1 0x3 NOT CALLDATASIZE ADD SLT PUSH2 0x188 JUMPI CALLDATALOAD DUP4 SLOAD DUP2 LT ISZERO PUSH2 0x188 JUMPI PUSH2 0x8D SWAP1 PUSH2 0x400 JUMP JUMPDEST POP SWAP2 DUP1 MLOAD SWAP3 DUP5 DUP5 DUP3 SLOAD SWAP2 PUSH2 0xA0 DUP4 PUSH2 0x44E JUMP JUMPDEST SWAP3 DUP4 DUP4 MSTORE PUSH1 0x1 SWAP1 DUP8 PUSH1 0x1 DUP3 AND SWAP2 DUP3 PUSH1 0x0 EQ PUSH2 0x168 JUMPI POP POP PUSH1 0x1 EQ PUSH2 0x12C JUMPI JUMPDEST POP PUSH2 0xD0 SWAP3 POP SWAP7 SWAP4 SWAP3 SWAP7 SUB DUP6 PUSH2 0x3C8 JUMP JUMPDEST PUSH1 0x2 PUSH1 0x1 DUP7 ADD SLOAD SWAP6 ADD SLOAD SWAP1 DUP1 MLOAD SWAP6 DUP7 SWAP5 PUSH1 0x60 DUP7 MSTORE DUP7 MLOAD SWAP5 DUP6 PUSH1 0x60 DUP9 ADD MSTORE DUP1 JUMPDEST DUP7 DUP2 LT PUSH2 0x115 JUMPI POP PUSH1 0x80 DUP1 SWAP9 POP DUP7 DUP9 ADD ADD MSTORE DUP6 ADD MSTORE DUP4 ADD MSTORE PUSH1 0x1F DUP1 NOT SWAP2 ADD AND DUP2 ADD SUB ADD SWAP1 RETURN JUMPDEST DUP1 DUP10 ADD DUP4 ADD MLOAD DUP11 DUP3 ADD PUSH1 0x80 ADD MSTORE DUP10 SWAP8 POP DUP3 ADD PUSH2 0xEF JUMP JUMPDEST DUP7 SWAP2 POP DUP5 DUP10 MSTORE DUP2 DUP10 KECCAK256 SWAP1 DUP10 SWAP2 JUMPDEST DUP6 DUP4 LT PUSH2 0x150 JUMPI POP POP PUSH2 0xD0 SWAP4 POP DUP3 ADD ADD CODESIZE PUSH2 0xBF JUMP JUMPDEST DUP1 SLOAD DUP4 DUP12 ADD DUP6 ADD MSTORE DUP10 SWAP5 POP DUP9 SWAP4 SWAP1 SWAP3 ADD SWAP2 DUP2 ADD PUSH2 0x139 JUMP JUMPDEST PUSH1 0xFF NOT AND DUP6 DUP3 ADD MSTORE PUSH2 0xD0 SWAP6 ISZERO ISZERO PUSH1 0x5 SHL DUP6 ADD ADD SWAP3 POP CODESIZE SWAP2 POP PUSH2 0xBF SWAP1 POP JUMP JUMPDEST DUP4 DUP1 REVERT JUMPDEST DUP3 DUP1 REVERT JUMPDEST SWAP1 DUP5 SWAP3 POP CALLVALUE PUSH2 0x18C JUMPI DUP4 PUSH1 0x3 NOT CALLDATASIZE ADD SLT PUSH2 0x18C JUMPI DUP1 CALLDATALOAD SWAP4 PUSH8 0xFFFFFFFFFFFFFFFF SWAP1 DUP2 DUP7 GT PUSH2 0x3C4 JUMPI CALLDATASIZE PUSH1 0x23 DUP8 ADD SLT ISZERO PUSH2 0x3C4 JUMPI PUSH1 0x24 SWAP2 DUP4 DUP8 ADD CALLDATALOAD DUP2 DUP2 GT PUSH2 0x3B2 JUMPI PUSH1 0x20 SWAP1 PUSH1 0x1F NOT SWAP9 PUSH2 0x1E9 DUP4 DUP12 PUSH1 0x1F DUP6 ADD AND ADD DUP10 PUSH2 0x3C8 JUMP JUMPDEST DUP2 DUP9 MSTORE CALLDATASIZE DUP7 DUP4 DUP4 ADD ADD GT PUSH2 0x3AE JUMPI DUP2 DUP10 SWAP3 DUP8 DUP6 SWAP4 ADD DUP4 DUP12 ADD CALLDATACOPY DUP9 ADD ADD MSTORE DUP3 MLOAD SWAP6 PUSH1 0x60 DUP8 ADD DUP8 DUP2 LT DUP5 DUP3 GT OR PUSH2 0x39C JUMPI DUP5 MSTORE DUP7 MSTORE DUP1 DUP7 ADD SWAP3 DUP5 CALLDATALOAD DUP5 MSTORE DUP7 ADD SWAP5 TIMESTAMP DUP7 MSTORE DUP8 SLOAD SWAP5 PUSH9 0x10000000000000000 DUP7 LT ISZERO PUSH2 0x38B JUMPI PUSH2 0x24E PUSH1 0x1 SWAP7 DUP8 DUP2 ADD DUP12 SSTORE PUSH2 0x400 JUMP JUMPDEST SWAP9 SWAP1 SWAP9 PUSH2 0x37A JUMPI MLOAD SWAP2 DUP3 MLOAD SWAP5 DUP6 GT PUSH2 0x369 JUMPI POP POP PUSH2 0x26C DUP8 SLOAD PUSH2 0x44E JUMP JUMPDEST PUSH1 0x1F DUP2 GT PUSH2 0x323 JUMPI JUMPDEST POP DUP2 PUSH1 0x1F DUP5 GT PUSH1 0x1 EQ PUSH2 0x2BE JUMPI POP DUP8 SWAP9 POP SWAP1 DUP3 SWAP2 PUSH1 0x2 SWAP8 SWAP9 SWAP3 PUSH2 0x2B3 JUMPI JUMPDEST POP POP PUSH1 0x0 NOT PUSH1 0x3 DUP4 SWAP1 SHL SHR NOT AND SWAP1 DUP4 SHL OR DUP6 SSTORE JUMPDEST MLOAD SWAP1 DUP5 ADD SSTORE MLOAD SWAP2 ADD SSTORE DUP1 RETURN JUMPDEST ADD MLOAD SWAP1 POP DUP9 DUP1 PUSH2 0x293 JUMP JUMPDEST SWAP3 SWAP9 DUP10 AND DUP8 DUP10 MSTORE DUP4 DUP10 KECCAK256 SWAP4 DUP10 SWAP1 JUMPDEST DUP3 DUP3 LT PUSH2 0x30C JUMPI POP POP SWAP2 DUP6 SWAP4 SWAP2 DUP11 PUSH1 0x2 SWAP10 SWAP11 SWAP12 SWAP5 LT PUSH2 0x2F3 JUMPI JUMPDEST POP POP POP DUP2 SHL ADD DUP6 SSTORE PUSH2 0x2A7 JUMP JUMPDEST ADD MLOAD PUSH1 0x0 NOT PUSH1 0xF8 DUP5 PUSH1 0x3 SHL AND SHR NOT AND SWAP1 SSTORE DUP9 DUP1 DUP1 PUSH2 0x2E6 JUMP JUMPDEST DUP1 DUP9 DUP7 SWAP8 DUP3 SWAP5 SWAP8 DUP8 ADD MLOAD DUP2 SSTORE ADD SWAP7 ADD SWAP5 ADD SWAP1 PUSH2 0x2CC JUMP JUMPDEST DUP8 DUP10 MSTORE DUP3 DUP10 KECCAK256 PUSH1 0x1F DUP6 ADD PUSH1 0x5 SHR DUP2 ADD SWAP2 DUP5 DUP7 LT PUSH2 0x35F JUMPI JUMPDEST PUSH1 0x1F ADD PUSH1 0x5 SHR ADD SWAP1 DUP7 SWAP1 JUMPDEST DUP3 DUP2 LT PUSH2 0x354 JUMPI POP POP PUSH2 0x275 JUMP JUMPDEST DUP11 DUP2 SSTORE ADD DUP7 SWAP1 PUSH2 0x346 JUMP JUMPDEST SWAP1 SWAP2 POP DUP2 SWAP1 PUSH2 0x33B JUMP JUMPDEST PUSH4 0x4E487B71 PUSH1 0xE0 SHL DUP11 MSTORE PUSH1 0x41 SWAP1 MSTORE DUP9 REVERT JUMPDEST POP PUSH4 0x4E487B71 PUSH1 0xE0 SHL DUP10 MSTORE DUP9 DUP3 MSTORE DUP9 REVERT JUMPDEST PUSH4 0x4E487B71 PUSH1 0xE0 SHL DUP10 MSTORE PUSH1 0x41 DUP3 MSTORE DUP9 REVERT JUMPDEST PUSH4 0x4E487B71 PUSH1 0xE0 SHL DUP10 MSTORE PUSH1 0x41 DUP8 MSTORE DUP6 DUP10 REVERT JUMPDEST DUP9 DUP1 REVERT JUMPDEST PUSH4 0x4E487B71 PUSH1 0xE0 SHL DUP8 MSTORE PUSH1 0x41 DUP6 MSTORE DUP4 DUP8 REVERT JUMPDEST DUP5 DUP1 REVERT JUMPDEST SWAP1 PUSH1 0x1F DUP1 NOT SWAP2 ADD AND DUP2 ADD SWAP1 DUP2 LT PUSH8 0xFFFFFFFFFFFFFFFF DUP3 GT OR PUSH2 0x3EA JUMPI PUSH1 0x40 MSTORE JUMP JUMPDEST PUSH4 0x4E487B71 PUSH1 0xE0 SHL PUSH1 0x0 MSTORE PUSH1 0x41 PUSH1 0x4 MSTORE PUSH1 0x24 PUSH1 0x0 REVERT JUMPDEST SWAP1 PUSH1 0x0 SWAP2 DUP3 SLOAD DUP2 LT ISZERO PUSH2 0x43A JUMPI PUSH1 0x3 SWAP1 DUP4 DUP1 MSTORE MUL PUSH32 0x290DECD9548B62A8D60345A988386FC84BA6BC95484008F6362F93160EF3E563 ADD SWAP2 SWAP1 JUMP JUMPDEST PUSH4 0x4E487B71 PUSH1 0xE0 SHL DUP4 MSTORE PUSH1 0x32 PUSH1 0x4 MSTORE PUSH1 0x24 DUP4 REVERT JUMPDEST SWAP1 PUSH1 0x1 DUP3 DUP2 SHR SWAP3 AND DUP1 ISZERO PUSH2 0x47E JUMPI JUMPDEST PUSH1 0x20 DUP4 LT EQ PUSH2 0x468 JUMPI JUMP JUMPDEST PUSH4 0x4E487B71 PUSH1 0xE0 SHL PUSH1 0x0 MSTORE PUSH1 0x22 PUSH1 0x4 MSTORE PUSH1 0x24 PUSH1 0x0 REVERT JUMPDEST SWAP2 PUSH1 0x7F AND SWAP2 PUSH2 0x45D JUMP INVALID LOG2 PUSH5 0x6970667358 0x22 SLT KECCAK256 PUSH10 0x460A75FDD2053D52F4D8 0x4D NOT PUSH4 0x1EA8F112 DELEGATECALL 0xAC EXTCODECOPY PUSH15 0xFBDA49FA47FF9A637E7F64736F6C63 NUMBER STOP ADDMOD XOR STOP CALLER "},"methodIdentifiers":{"getStatsCount()":"fc3e4ff0","recordStat(string,uint256)":"7d409060","stats(uint256)":"ad217ae5"}}}}}