{"contracts/Escrow.sol":{"EscrowContract":{"abi":[{"anonymous":false,"inputs":[{"indexed":true,"internalType":"bytes32","name":"id","type":"bytes32"}],"name":"EscrowCancelled","type":"event"},{"anonymous":false,"inputs":[{"indexed":true,"internalType":"bytes32","name":"id","type":"bytes32"},{"indexed":false,"internalType":"address","name":"buyer","type":"address"},{"indexed":false,"internalType":"address","name":"seller","type":"address"},{"indexed":false,"internalType":"uint256","name":"amount","type":"uint256"}],"name":"EscrowCreated","type":"event"},{"anonymous":false,"inputs":[{"indexed":true,"internalType":"bytes32","name":"id","type":"bytes32"},{"indexed":false,"internalType":"address","name":"funder","type":"address"}],"name":"EscrowFunded","type":"event"},{"anonymous":false,"inputs":[{"indexed":true,"internalType":"bytes32","name":"id","type":"bytes32"},{"indexed":false,"internalType":"address","name":"recipient","type":"address"}],"name":"EscrowReleased","type":"event"},{"inputs":[{"internalType":"bytes32","name":"_id","type":"bytes32"}],"name":"cancelEscrow","outputs":[],"stateMutability":"nonpayable","type":"function"},{"inputs":[{"internalType":"address","name":"_seller","type":"address"},{"internalType":"address","name":"_arbiter","type":"address"}],"name":"createEscrow","outputs":[{"internalType":"bytes32","name":"","type":"bytes32"}],"stateMutability":"payable","type":"function"},{"inputs":[{"internalType":"bytes32","name":"","type":"bytes32"}],"name":"escrows","outputs":[{"internalType":"address","name":"buyer","type":"address"},{"internalType":"address","name":"seller","type":"address"},{"internalType":"address","name":"arbiter","type":"address"},{"internalType":"uint256","name":"amount","type":"uint256"},{"internalType":"enum EscrowContract.State","name":"state","type":"uint8"},{"internalType":"uint256","name":"createdAt","type":"uint256"}],"stateMutability":"view","type":"function"},{"inputs":[{"internalType":"bytes32","name":"_id","type":"bytes32"}],"name":"releaseEscrow","outputs":[],"stateMutability":"nonpayable","type":"function"}],"evm":{"bytecode":{"linkReferences":{},"object":"6080806040523461001657610523908161001c8239f35b600080fdfe608060408181526004908136101561001657600080fd5b600092833560e01c9081632d83549c1461042a57508063834cc6fc14610264578063bf89fc611461016d5763ee5e3b811461005057600080fd5b346101695760203660031901126101695781358084526020849052818420805491936001600160a01b0392831692338414908115610159575b5015610125578082019081549060ff821690808210156101125750936003889594869594828796956100be60018998146104b4565b60ff1916179055015490828215610109575bf1156100fe57507f642e58efcd0db9e3e5171b8f71a4655b98647c098a6aa596308df9e8037ecc098280a280f35b51913d9150823e3d90fd5b506108fc6100d0565b634e487b7160e01b895260219052602488fd5b606490602085519162461bcd60e51b8352820152600e60248201526d139bdd08185d5d1a1bdc9a5e995960921b6044820152fd5b6002840154163314905038610089565b8280fd5b50346101695760203660031901126101695781358084526020849052818420600281015491936001600160a01b039283163303610233578082019081549060ff821690808210156101125750906101c86001600293146104b4565b60ff19161790558480808060018501946003878754169101549082821561022a575bf11561022057549151911681527f376b9e73ea20b749b533d8617356ec5071166c91c1ef89d834667c279eba9d9290602090a280f35b82513d86823e3d90fd5b506108fc6101ea565b606490602085519162461bcd60e51b8352820152600b60248201526a2737ba1030b93134ba32b960a91b6044820152fd5b50808391600319360112610426578235916001600160a01b03808416919082850361042657602435918183168093036104235784519060208201963360601b88526bffffffffffffffffffffffff199060601b16603483015242604883015260488252608082019367ffffffffffffffff978386108987111761041057858852835190209761014084019081118682101761041057875233855260a083019086825260c0840190815260e08401913483526101206101008601956001875201954287528a855284602052808a8620985116916bffffffffffffffffffffffff60a01b92838a54161789558160018a01915116838254161790556002880192511690825416179055516003850155878401915190888210156103fd5760208888817f0dd968c277d9dc6b36b6ec2b638324c3d937882c64ca109440bc050ebf26cb0760608b8b60058c8c8c60ff8019835416911617905551910155845190338252878201523485820152a2817f4fc219690ca7a1d596563e2006660adbf68569aab71bf7a8e54ac3e14516c8a0848351338152a251908152f35b634e487b7160e01b815260218952602490fd5b634e487b7160e01b835260418a52602483fd5b80fd5b5080fd5b92939050346104235760203660031901126104235783358152806020528181209060018060a01b038083541693816001850154169160028501541690600385015492600560ff8a8801541696015496885260208801528601526060850152848210156104a1575060c09350608083015260a0820152f35b634e487b7160e01b815260218552602490fd5b156104bb57565b60405162461bcd60e51b815260206004820152600a602482015269139bdd08199d5b99195960b21b6044820152606490fdfea26469706673582212207c41d630e092428ad2023fe0aed028114e3310d76adbb72ca32aec5ab6b1956764736f6c63430008180033","opcodes":"PUSH1 0x80 DUP1 PUSH1 0x40 MSTORE CALLVALUE PUSH2 0x16 JUMPI PUSH2 0x523 SWAP1 DUP2 PUSH2 0x1C DUP3 CODECOPY RETURN JUMPDEST PUSH1 0x0 DUP1 REVERT INVALID PUSH1 0x80 PUSH1 0x40 DUP2 DUP2 MSTORE PUSH1 0x4 SWAP1 DUP2 CALLDATASIZE LT ISZERO PUSH2 0x16 JUMPI PUSH1 0x0 DUP1 REVERT JUMPDEST PUSH1 0x0 SWAP3 DUP4 CALLDATALOAD PUSH1 0xE0 SHR SWAP1 DUP2 PUSH4 0x2D83549C EQ PUSH2 0x42A JUMPI POP DUP1 PUSH4 0x834CC6FC EQ PUSH2 0x264 JUMPI DUP1 PUSH4 0xBF89FC61 EQ PUSH2 0x16D JUMPI PUSH4 0xEE5E3B81 EQ PUSH2 0x50 JUMPI PUSH1 0x0 DUP1 REVERT JUMPDEST CALLVALUE PUSH2 0x169 JUMPI PUSH1 0x20 CALLDATASIZE PUSH1 0x3 NOT ADD SLT PUSH2 0x169 JUMPI DUP2 CALLDATALOAD DUP1 DUP5 MSTORE PUSH1 0x20 DUP5 SWAP1 MSTORE DUP2 DUP5 KECCAK256 DUP1 SLOAD SWAP2 SWAP4 PUSH1 0x1 PUSH1 0x1 PUSH1 0xA0 SHL SUB SWAP3 DUP4 AND SWAP3 CALLER DUP5 EQ SWAP1 DUP2 ISZERO PUSH2 0x159 JUMPI JUMPDEST POP ISZERO PUSH2 0x125 JUMPI DUP1 DUP3 ADD SWAP1 DUP2 SLOAD SWAP1 PUSH1 0xFF DUP3 AND SWAP1 DUP1 DUP3 LT ISZERO PUSH2 0x112 JUMPI POP SWAP4 PUSH1 0x3 DUP9 SWAP6 SWAP5 DUP7 SWAP6 SWAP5 DUP3 DUP8 SWAP7 SWAP6 PUSH2 0xBE PUSH1 0x1 DUP10 SWAP9 EQ PUSH2 0x4B4 JUMP JUMPDEST PUSH1 0xFF NOT AND OR SWAP1 SSTORE ADD SLOAD SWAP1 DUP3 DUP3 ISZERO PUSH2 0x109 JUMPI JUMPDEST CALL ISZERO PUSH2 0xFE JUMPI POP PUSH32 0x642E58EFCD0DB9E3E5171B8F71A4655B98647C098A6AA596308DF9E8037ECC09 DUP3 DUP1 LOG2 DUP1 RETURN JUMPDEST MLOAD SWAP2 RETURNDATASIZE SWAP2 POP DUP3 RETURNDATACOPY RETURNDATASIZE SWAP1 REVERT JUMPDEST POP PUSH2 0x8FC PUSH2 0xD0 JUMP JUMPDEST PUSH4 0x4E487B71 PUSH1 0xE0 SHL DUP10 MSTORE PUSH1 0x21 SWAP1 MSTORE PUSH1 0x24 DUP9 REVERT JUMPDEST PUSH1 0x64 SWAP1 PUSH1 0x20 DUP6 MLOAD SWAP2 PUSH3 0x461BCD PUSH1 0xE5 SHL DUP4 MSTORE DUP3 ADD MSTORE PUSH1 0xE PUSH1 0x24 DUP3 ADD MSTORE PUSH14 0x139BDD08185D5D1A1BDC9A5E9959 PUSH1 0x92 SHL PUSH1 0x44 DUP3 ADD MSTORE REVERT JUMPDEST PUSH1 0x2 DUP5 ADD SLOAD AND CALLER EQ SWAP1 POP CODESIZE PUSH2 0x89 JUMP JUMPDEST DUP3 DUP1 REVERT JUMPDEST POP CALLVALUE PUSH2 0x169 JUMPI PUSH1 0x20 CALLDATASIZE PUSH1 0x3 NOT ADD SLT PUSH2 0x169 JUMPI DUP2 CALLDATALOAD DUP1 DUP5 MSTORE PUSH1 0x20 DUP5 SWAP1 MSTORE DUP2 DUP5 KECCAK256 PUSH1 0x2 DUP2 ADD SLOAD SWAP2 SWAP4 PUSH1 0x1 PUSH1 0x1 PUSH1 0xA0 SHL SUB SWAP3 DUP4 AND CALLER SUB PUSH2 0x233 JUMPI DUP1 DUP3 ADD SWAP1 DUP2 SLOAD SWAP1 PUSH1 0xFF DUP3 AND SWAP1 DUP1 DUP3 LT ISZERO PUSH2 0x112 JUMPI POP SWAP1 PUSH2 0x1C8 PUSH1 0x1 PUSH1 0x2 SWAP4 EQ PUSH2 0x4B4 JUMP JUMPDEST PUSH1 0xFF NOT AND OR SWAP1 SSTORE DUP5 DUP1 DUP1 DUP1 PUSH1 0x1 DUP6 ADD SWAP5 PUSH1 0x3 DUP8 DUP8 SLOAD AND SWAP2 ADD SLOAD SWAP1 DUP3 DUP3 ISZERO PUSH2 0x22A JUMPI JUMPDEST CALL ISZERO PUSH2 0x220 JUMPI SLOAD SWAP2 MLOAD SWAP2 AND DUP2 MSTORE PUSH32 0x376B9E73EA20B749B533D8617356EC5071166C91C1EF89D834667C279EBA9D92 SWAP1 PUSH1 0x20 SWAP1 LOG2 DUP1 RETURN JUMPDEST DUP3 MLOAD RETURNDATASIZE DUP7 DUP3 RETURNDATACOPY RETURNDATASIZE SWAP1 REVERT JUMPDEST POP PUSH2 0x8FC PUSH2 0x1EA JUMP JUMPDEST PUSH1 0x64 SWAP1 PUSH1 0x20 DUP6 MLOAD SWAP2 PUSH3 0x461BCD PUSH1 0xE5 SHL DUP4 MSTORE DUP3 ADD MSTORE PUSH1 0xB PUSH1 0x24 DUP3 ADD MSTORE PUSH11 0x2737BA1030B93134BA32B9 PUSH1 0xA9 SHL PUSH1 0x44 DUP3 ADD MSTORE REVERT JUMPDEST POP DUP1 DUP4 SWAP2 PUSH1 0x3 NOT CALLDATASIZE ADD SLT PUSH2 0x426 JUMPI DUP3 CALLDATALOAD SWAP2 PUSH1 0x1 PUSH1 0x1 PUSH1 0xA0 SHL SUB DUP1 DUP5 AND SWAP2 SWAP1 DUP3 DUP6 SUB PUSH2 0x426 JUMPI PUSH1 0x24 CALLDATALOAD SWAP2 DUP2 DUP4 AND DUP1 SWAP4 SUB PUSH2 0x423 JUMPI DUP5 MLOAD SWAP1 PUSH1 0x20 DUP3 ADD SWAP7 CALLER PUSH1 0x60 SHL DUP9 MSTORE PUSH12 0xFFFFFFFFFFFFFFFFFFFFFFFF NOT SWAP1 PUSH1 0x60 SHL AND PUSH1 0x34 DUP4 ADD MSTORE TIMESTAMP PUSH1 0x48 DUP4 ADD MSTORE PUSH1 0x48 DUP3 MSTORE PUSH1 0x80 DUP3 ADD SWAP4 PUSH8 0xFFFFFFFFFFFFFFFF SWAP8 DUP4 DUP7 LT DUP10 DUP8 GT OR PUSH2 0x410 JUMPI DUP6 DUP9 MSTORE DUP4 MLOAD SWAP1 KECCAK256 SWAP8 PUSH2 0x140 DUP5 ADD SWAP1 DUP2 GT DUP7 DUP3 LT OR PUSH2 0x410 JUMPI DUP8 MSTORE CALLER DUP6 MSTORE PUSH1 0xA0 DUP4 ADD SWAP1 DUP7 DUP3 MSTORE PUSH1 0xC0 DUP5 ADD SWAP1 DUP2 MSTORE PUSH1 0xE0 DUP5 ADD SWAP2 CALLVALUE DUP4 MSTORE PUSH2 0x120 PUSH2 0x100 DUP7 ADD SWAP6 PUSH1 0x1 DUP8 MSTORE ADD SWAP6 TIMESTAMP DUP8 MSTORE DUP11 DUP6 MSTORE DUP5 PUSH1 0x20 MSTORE DUP1 DUP11 DUP7 KECCAK256 SWAP9 MLOAD AND SWAP2 PUSH12 0xFFFFFFFFFFFFFFFFFFFFFFFF PUSH1 0xA0 SHL SWAP3 DUP4 DUP11 SLOAD AND OR DUP10 SSTORE DUP2 PUSH1 0x1 DUP11 ADD SWAP2 MLOAD AND DUP4 DUP3 SLOAD AND OR SWAP1 SSTORE PUSH1 0x2 DUP9 ADD SWAP3 MLOAD AND SWAP1 DUP3 SLOAD AND OR SWAP1 SSTORE MLOAD PUSH1 0x3 DUP6 ADD SSTORE DUP8 DUP5 ADD SWAP2 MLOAD SWAP1 DUP9 DUP3 LT ISZERO PUSH2 0x3FD JUMPI PUSH1 0x20 DUP9 DUP9 DUP2 PUSH32 0xDD968C277D9DC6B36B6EC2B638324C3D937882C64CA109440BC050EBF26CB07 PUSH1 0x60 DUP12 DUP12 PUSH1 0x5 DUP13 DUP13 DUP13 PUSH1 0xFF DUP1 NOT DUP4 SLOAD AND SWAP2 AND OR SWAP1 SSTORE MLOAD SWAP2 ADD SSTORE DUP5 MLOAD SWAP1 CALLER DUP3 MSTORE DUP8 DUP3 ADD MSTORE CALLVALUE DUP6 DUP3 ADD MSTORE LOG2 DUP2 PUSH32 0x4FC219690CA7A1D596563E2006660ADBF68569AAB71BF7A8E54AC3E14516C8A0 DUP5 DUP4 MLOAD CALLER DUP2 MSTORE LOG2 MLOAD SWAP1 DUP2 MSTORE RETURN JUMPDEST PUSH4 0x4E487B71 PUSH1 0xE0 SHL DUP2 MSTORE PUSH1 0x21 DUP10 MSTORE PUSH1 0x24 SWAP1 REVERT JUMPDEST PUSH4 0x4E487B71 PUSH1 0xE0 SHL DUP4 MSTORE PUSH1 0x41 DUP11 MSTORE PUSH1 0x24 DUP4 REVERT JUMPDEST DUP1 REVERT JUMPDEST POP DUP1 REVERT JUMPDEST SWAP3 SWAP4 SWAP1 POP CALLVALUE PUSH2 0x423 JUMPI PUSH1 0x20 CALLDATASIZE PUSH1 0x3 NOT ADD SLT PUSH2 0x423 JUMPI DUP4 CALLDATALOAD DUP2 MSTORE DUP1 PUSH1 0x20 MSTORE DUP2 DUP2 KECCAK256 SWAP1 PUSH1 0x1 DUP1 PUSH1 0xA0 SHL SUB DUP1 DUP4 SLOAD AND SWAP4 DUP2 PUSH1 0x1 DUP6 ADD SLOAD AND SWAP2 PUSH1 0x2 DUP6 ADD SLOAD AND SWAP1 PUSH1 0x3 DUP6 ADD SLOAD SWAP3 PUSH1 0x5 PUSH1 0xFF DUP11 DUP9 ADD SLOAD AND SWAP7 ADD SLOAD SWAP7 DUP9 MSTORE PUSH1 0x20 DUP9 ADD MSTORE DUP7 ADD MSTORE PUSH1 0x60 DUP6 ADD MSTORE DUP5 DUP3 LT ISZERO PUSH2 0x4A1 JUMPI POP PUSH1 0xC0 SWAP4 POP PUSH1 0x80 DUP4 ADD MSTORE PUSH1 0xA0 DUP3 ADD MSTORE RETURN JUMPDEST PUSH4 0x4E487B71 PUSH1 0xE0 SHL DUP2 MSTORE PUSH1 0x21 DUP6 MSTORE PUSH1 0x24 SWAP1 REVERT JUMPDEST ISZERO PUSH2 0x4BB JUMPI JUMP JUMPDEST PUSH1 0x40 MLOAD PUSH3 0x461BCD PUSH1 0xE5 SHL DUP2 MSTORE PUSH1 0x20 PUSH1 0x4 DUP3 ADD MSTORE PUSH1 0xA PUSH1 0x24 DUP3 ADD MSTORE PUSH10 0x139BDD08199D5B991959 PUSH1 0xB2 SHL PUSH1 0x44 DUP3 ADD MSTORE PUSH1 0x64 SWAP1 REVERT INVALID LOG2 PUSH5 0x6970667358 0x22 SLT KECCAK256 PUSH29 0x41D630E092428AD2023FE0AED028114E3310D76ADBB72CA32AEC5AB6B1 SWAP6 PUSH8 0x64736F6C63430008 XOR STOP CALLER "},"methodIdentifiers":{"cancelEscrow(bytes32)":"ee5e3b81","createEscrow(address,address)":"834cc6fc","escrows(bytes32)":"2d83549c","releaseEscrow(bytes32)":"bf89fc61"}}}}}