{"contracts/Compliance.sol":{"ComplianceContract":{"abi":[{"anonymous":false,"inputs":[{"indexed":true,"internalType":"uint256","name":"batchId","type":"uint256"},{"indexed":false,"internalType":"string","name":"standard","type":"string"},{"indexed":false,"internalType":"bool","name":"passed","type":"bool"}],"name":"ComplianceAdded","type":"event"},{"inputs":[{"internalType":"uint256","name":"_batchId","type":"uint256"},{"internalType":"string","name":"_standard","type":"string"},{"internalType":"bool","name":"_passed","type":"bool"},{"internalType":"string","name":"_auditor","type":"string"}],"name":"addComplianceRecord","outputs":[],"stateMutability":"nonpayable","type":"function"},{"inputs":[{"internalType":"uint256","name":"","type":"uint256"},{"internalType":"uint256","name":"","type":"uint256"}],"name":"complianceRecords","outputs":[{"internalType":"uint256","name":"batchTokenId","type":"uint256"},{"internalType":"string","name":"standard","type":"string"},{"internalType":"bool","name":"passed","type":"bool"},{"internalType":"string","name":"auditor","type":"string"},{"internalType":"uint256","name":"auditDate","type":"uint256"},{"internalType":"string","name":"certificateHash","type":"string"}],"stateMutability":"view","type":"function"},{"inputs":[{"internalType":"uint256","name":"_batchId","type":"uint256"}],"name":"getComplianceRecords","outputs":[{"components":[{"internalType":"uint256","name":"batchTokenId","type":"uint256"},{"internalType":"string","name":"standard","type":"string"},{"internalType":"bool","name":"passed","type":"bool"},{"internalType":"string","name":"auditor","type":"string"},{"internalType":"uint256","name":"auditDate","type":"uint256"},{"internalType":"string","name":"certificateHash","type":"string"}],"internalType":"struct ComplianceContract.ComplianceRecord[]","name":"","type":"tuple[]"}],"stateMutability":"view","type":"function"}],"evm":{"bytecode":{"linkReferences":{},"object":"60808060405234610016576109ae908161001c8239f35b600080fdfe6080604052600436101561001257600080fd5b60003560e01c80634615352e146106d6578063b86a65a2146101e05763ed8828511461003d57600080fd5b346101db576020806003193601126101db5760043560005260008152604060002080549067ffffffffffffffff82116101c557829060059260405193610088848360051b018661081a565b81855260009283528383208486019391845b84841061015257604080518881528951818a01819052600092600582901b83018101918a918c9085015b8287106100d15785850386f35b909192938280610142600193603f198a8203018652885161012561010660c083518552868401519080888701528501906108e1565b60408301511515604085015260608084015190858303908601526108e1565b916080808301519082015260a080920151918184039101526108e1565b96019201960195929190926100c4565b60068760019260409a999a51610167816107fe565b8654815261017685880161083c565b8382015260ff600288015416151560408201526101956003880161083c565b6060820152600487015460808201526101af86880161083c565b60a082015281520193019301929196959661009a565b634e487b7160e01b600052604160045260246000fd5b600080fd5b346101db5760803660031901126101db5760243567ffffffffffffffff81116101db57610211903690600401610921565b60443580151581036101db5760643567ffffffffffffffff81116101db5761023d903690600401610921565b9160043560005260006020526040600020926040519361025c856107fe565b60043585526020850191838352841515604087015260608601524260808601526040516020810181811067ffffffffffffffff8211176101c5576040526000815260a08601528054680100000000000000008110156101c5576102c491600182018155610792565b9190916106c057845182555180519067ffffffffffffffff82116101c55781906102f160018501546107c4565b601f811161066d575b50602090601f83116001146105fb576000926105f0575b50508160011b916000199060031b1c19161760018201555b600281016040850151151560ff80198354169116179055606084015180519067ffffffffffffffff82116101c55761036460038401546107c4565b601f81116105a9575b50602090601f831160011461053657918060a0949260059460009261052b575b50508160011b916000199060031b1c19161760038201555b608086015160048201550193015192835167ffffffffffffffff81116101c5576103cf82546107c4565b601f81116104e3575b506020601f821160011461045a5781907f520f503f282709dfe5f0f44377819a0ef9364d49817d1bccc2be8b4bbdb94ba1959660009261044f575b50508160011b916000199060031b1c19161790555b61043d604051916040835260408301906108e1565b921515602082015280600435930390a2005b015190508680610413565b601f198216958360005260206000209660005b8181106104cb5750917f520f503f282709dfe5f0f44377819a0ef9364d49817d1bccc2be8b4bbdb94ba19697918460019594106104b2575b505050811b019055610428565b015160001960f88460031b161c191690558680806104a5565b8383015189556001909801976020938401930161046d565b826000526020600020601f830160051c81019160208410610521575b601f0160051c01905b81811061051557506103d8565b60008155600101610508565b90915081906104ff565b01519050888061038d565b90601f198316916003850160005260206000209260005b818110610591575092600192859260059660a0989610610578575b505050811b0160038201556103a5565b015160001960f88460031b161c19169055888080610568565b9293602060018192878601518155019501930161054d565b600384016000526020600020601f840160051c8101602085106105e9575b601f830160051c820181106105dd57505061036d565b600081556001016105c7565b50806105c7565b015190508680610311565b9250600184016000526020600020906000935b601f1984168510610652576001945083601f19811610610639575b505050811b016001820155610329565b015160001960f88460031b161c19169055868080610629565b8181015183556020948501946001909301929091019061060e565b909150600184016000526020600020601f840160051c8101602085106106b9575b90849392915b601f830160051c820181106106aa5750506102fa565b60008155859450600101610694565b508061068e565b634e487b7160e01b600052600060045260246000fd5b346101db5760403660031901126101db57602435600435600052600060205260406000209081548110156101db5761070d91610792565b50805461078e61071f6001840161083c565b9260ff60028201541661077b6107376003840161083c565b9161074960056004860154950161083c565b92610766604051988998895260c060208a015260c08901906108e1565b911515604088015286820360608801526108e1565b91608085015283820360a08501526108e1565b0390f35b80548210156107ae576000526006602060002091020190600090565b634e487b7160e01b600052603260045260246000fd5b90600182811c921680156107f4575b60208310146107de57565b634e487b7160e01b600052602260045260246000fd5b91607f16916107d3565b60c0810190811067ffffffffffffffff8211176101c557604052565b90601f8019910116810190811067ffffffffffffffff8211176101c557604052565b9060405191826000825461084f816107c4565b908184526020946001916001811690816000146108bf5750600114610880575b50505061087e9250038361081a565b565b600090815285812095935091905b8183106108a757505061087e935082010138808061086f565b8554888401850152948501948794509183019161088e565b9250505061087e94925060ff191682840152151560051b82010138808061086f565b919082519283825260005b84811061090d575050826000602080949584010152601f8019910116010190565b6020818301810151848301820152016108ec565b81601f820112156101db5780359067ffffffffffffffff82116101c55760405192610956601f8401601f19166020018561081a565b828452602083830101116101db5781600092602080930183860137830101529056fea26469706673582212202be4808fade6501174641300617d4e31d0f34c415807af6d78833d681dc343fd64736f6c63430008180033","opcodes":"PUSH1 0x80 DUP1 PUSH1 0x40 MSTORE CALLVALUE PUSH2 0x16 JUMPI PUSH2 0x9AE SWAP1 DUP2 PUSH2 0x1C DUP3 CODECOPY RETURN JUMPDEST PUSH1 0x0 DUP1 REVERT INVALID PUSH1 0x80 PUSH1 0x40 MSTORE PUSH1 0x4 CALLDATASIZE LT ISZERO PUSH2 0x12 JUMPI PUSH1 0x0 DUP1 REVERT JUMPDEST PUSH1 0x0 CALLDATALOAD PUSH1 0xE0 SHR DUP1 PUSH4 0x4615352E EQ PUSH2 0x6D6 JUMPI DUP1 PUSH4 0xB86A65A2 EQ PUSH2 0x1E0 JUMPI PUSH4 0xED882851 EQ PUSH2 0x3D JUMPI PUSH1 0x0 DUP1 REVERT JUMPDEST CALLVALUE PUSH2 0x1DB JUMPI PUSH1 0x20 DUP1 PUSH1 0x3 NOT CALLDATASIZE ADD SLT PUSH2 0x1DB JUMPI PUSH1 0x4 CALLDATALOAD PUSH1 0x0 MSTORE PUSH1 0x0 DUP2 MSTORE PUSH1 0x40 PUSH1 0x0 KECCAK256 DUP1 SLOAD SWAP1 PUSH8 0xFFFFFFFFFFFFFFFF DUP3 GT PUSH2 0x1C5 JUMPI DUP3 SWAP1 PUSH1 0x5 SWAP3 PUSH1 0x40 MLOAD SWAP4 PUSH2 0x88 DUP5 DUP4 PUSH1 0x5 SHL ADD DUP7 PUSH2 0x81A JUMP JUMPDEST DUP2 DUP6 MSTORE PUSH1 0x0 SWAP3 DUP4 MSTORE DUP4 DUP4 KECCAK256 DUP5 DUP7 ADD SWAP4 SWAP2 DUP5 JUMPDEST DUP5 DUP5 LT PUSH2 0x152 JUMPI PUSH1 0x40 DUP1 MLOAD DUP9 DUP2 MSTORE DUP10 MLOAD DUP2 DUP11 ADD DUP2 SWAP1 MSTORE PUSH1 0x0 SWAP3 PUSH1 0x5 DUP3 SWAP1 SHL DUP4 ADD DUP2 ADD SWAP2 DUP11 SWAP2 DUP13 SWAP1 DUP6 ADD JUMPDEST DUP3 DUP8 LT PUSH2 0xD1 JUMPI DUP6 DUP6 SUB DUP7 RETURN JUMPDEST SWAP1 SWAP2 SWAP3 SWAP4 DUP3 DUP1 PUSH2 0x142 PUSH1 0x1 SWAP4 PUSH1 0x3F NOT DUP11 DUP3 SUB ADD DUP7 MSTORE DUP9 MLOAD PUSH2 0x125 PUSH2 0x106 PUSH1 0xC0 DUP4 MLOAD DUP6 MSTORE DUP7 DUP5 ADD MLOAD SWAP1 DUP1 DUP9 DUP8 ADD MSTORE DUP6 ADD SWAP1 PUSH2 0x8E1 JUMP JUMPDEST PUSH1 0x40 DUP4 ADD MLOAD ISZERO ISZERO PUSH1 0x40 DUP6 ADD MSTORE PUSH1 0x60 DUP1 DUP5 ADD MLOAD SWAP1 DUP6 DUP4 SUB SWAP1 DUP7 ADD MSTORE PUSH2 0x8E1 JUMP JUMPDEST SWAP2 PUSH1 0x80 DUP1 DUP4 ADD MLOAD SWAP1 DUP3 ADD MSTORE PUSH1 0xA0 DUP1 SWAP3 ADD MLOAD SWAP2 DUP2 DUP5 SUB SWAP2 ADD MSTORE PUSH2 0x8E1 JUMP JUMPDEST SWAP7 ADD SWAP3 ADD SWAP7 ADD SWAP6 SWAP3 SWAP2 SWAP1 SWAP3 PUSH2 0xC4 JUMP JUMPDEST PUSH1 0x6 DUP8 PUSH1 0x1 SWAP3 PUSH1 0x40 SWAP11 SWAP10 SWAP11 MLOAD PUSH2 0x167 DUP2 PUSH2 0x7FE JUMP JUMPDEST DUP7 SLOAD DUP2 MSTORE PUSH2 0x176 DUP6 DUP9 ADD PUSH2 0x83C JUMP JUMPDEST DUP4 DUP3 ADD MSTORE PUSH1 0xFF PUSH1 0x2 DUP9 ADD SLOAD AND ISZERO ISZERO PUSH1 0x40 DUP3 ADD MSTORE PUSH2 0x195 PUSH1 0x3 DUP9 ADD PUSH2 0x83C JUMP JUMPDEST PUSH1 0x60 DUP3 ADD MSTORE PUSH1 0x4 DUP8 ADD SLOAD PUSH1 0x80 DUP3 ADD MSTORE PUSH2 0x1AF DUP7 DUP9 ADD PUSH2 0x83C JUMP JUMPDEST PUSH1 0xA0 DUP3 ADD MSTORE DUP2 MSTORE ADD SWAP4 ADD SWAP4 ADD SWAP3 SWAP2 SWAP7 SWAP6 SWAP7 PUSH2 0x9A JUMP JUMPDEST PUSH4 0x4E487B71 PUSH1 0xE0 SHL PUSH1 0x0 MSTORE PUSH1 0x41 PUSH1 0x4 MSTORE PUSH1 0x24 PUSH1 0x0 REVERT JUMPDEST PUSH1 0x0 DUP1 REVERT JUMPDEST CALLVALUE PUSH2 0x1DB JUMPI PUSH1 0x80 CALLDATASIZE PUSH1 0x3 NOT ADD SLT PUSH2 0x1DB JUMPI PUSH1 0x24 CALLDATALOAD PUSH8 0xFFFFFFFFFFFFFFFF DUP2 GT PUSH2 0x1DB JUMPI PUSH2 0x211 SWAP1 CALLDATASIZE SWAP1 PUSH1 0x4 ADD PUSH2 0x921 JUMP JUMPDEST PUSH1 0x44 CALLDATALOAD DUP1 ISZERO ISZERO DUP2 SUB PUSH2 0x1DB JUMPI PUSH1 0x64 CALLDATALOAD PUSH8 0xFFFFFFFFFFFFFFFF DUP2 GT PUSH2 0x1DB JUMPI PUSH2 0x23D SWAP1 CALLDATASIZE SWAP1 PUSH1 0x4 ADD PUSH2 0x921 JUMP JUMPDEST SWAP2 PUSH1 0x4 CALLDATALOAD PUSH1 0x0 MSTORE PUSH1 0x0 PUSH1 0x20 MSTORE PUSH1 0x40 PUSH1 0x0 KECCAK256 SWAP3 PUSH1 0x40 MLOAD SWAP4 PUSH2 0x25C DUP6 PUSH2 0x7FE JUMP JUMPDEST PUSH1 0x4 CALLDATALOAD DUP6 MSTORE PUSH1 0x20 DUP6 ADD SWAP2 DUP4 DUP4 MSTORE DUP5 ISZERO ISZERO PUSH1 0x40 DUP8 ADD MSTORE PUSH1 0x60 DUP7 ADD MSTORE TIMESTAMP PUSH1 0x80 DUP7 ADD MSTORE PUSH1 0x40 MLOAD PUSH1 0x20 DUP2 ADD DUP2 DUP2 LT PUSH8 0xFFFFFFFFFFFFFFFF DUP3 GT OR PUSH2 0x1C5 JUMPI PUSH1 0x40 MSTORE PUSH1 0x0 DUP2 MSTORE PUSH1 0xA0 DUP7 ADD MSTORE DUP1 SLOAD PUSH9 0x10000000000000000 DUP2 LT ISZERO PUSH2 0x1C5 JUMPI PUSH2 0x2C4 SWAP2 PUSH1 0x1 DUP3 ADD DUP2 SSTORE PUSH2 0x792 JUMP JUMPDEST SWAP2 SWAP1 SWAP2 PUSH2 0x6C0 JUMPI DUP5 MLOAD DUP3 SSTORE MLOAD DUP1 MLOAD SWAP1 PUSH8 0xFFFFFFFFFFFFFFFF DUP3 GT PUSH2 0x1C5 JUMPI DUP2 SWAP1 PUSH2 0x2F1 PUSH1 0x1 DUP6 ADD SLOAD PUSH2 0x7C4 JUMP JUMPDEST PUSH1 0x1F DUP2 GT PUSH2 0x66D JUMPI JUMPDEST POP PUSH1 0x20 SWAP1 PUSH1 0x1F DUP4 GT PUSH1 0x1 EQ PUSH2 0x5FB JUMPI PUSH1 0x0 SWAP3 PUSH2 0x5F0 JUMPI JUMPDEST POP POP DUP2 PUSH1 0x1 SHL SWAP2 PUSH1 0x0 NOT SWAP1 PUSH1 0x3 SHL SHR NOT AND OR PUSH1 0x1 DUP3 ADD SSTORE JUMPDEST PUSH1 0x2 DUP2 ADD PUSH1 0x40 DUP6 ADD MLOAD ISZERO ISZERO PUSH1 0xFF DUP1 NOT DUP4 SLOAD AND SWAP2 AND OR SWAP1 SSTORE PUSH1 0x60 DUP5 ADD MLOAD DUP1 MLOAD SWAP1 PUSH8 0xFFFFFFFFFFFFFFFF DUP3 GT PUSH2 0x1C5 JUMPI PUSH2 0x364 PUSH1 0x3 DUP5 ADD SLOAD PUSH2 0x7C4 JUMP JUMPDEST PUSH1 0x1F DUP2 GT PUSH2 0x5A9 JUMPI JUMPDEST POP PUSH1 0x20 SWAP1 PUSH1 0x1F DUP4 GT PUSH1 0x1 EQ PUSH2 0x536 JUMPI SWAP2 DUP1 PUSH1 0xA0 SWAP5 SWAP3 PUSH1 0x5 SWAP5 PUSH1 0x0 SWAP3 PUSH2 0x52B JUMPI JUMPDEST POP POP DUP2 PUSH1 0x1 SHL SWAP2 PUSH1 0x0 NOT SWAP1 PUSH1 0x3 SHL SHR NOT AND OR PUSH1 0x3 DUP3 ADD SSTORE JUMPDEST PUSH1 0x80 DUP7 ADD MLOAD PUSH1 0x4 DUP3 ADD SSTORE ADD SWAP4 ADD MLOAD SWAP3 DUP4 MLOAD PUSH8 0xFFFFFFFFFFFFFFFF DUP2 GT PUSH2 0x1C5 JUMPI PUSH2 0x3CF DUP3 SLOAD PUSH2 0x7C4 JUMP JUMPDEST PUSH1 0x1F DUP2 GT PUSH2 0x4E3 JUMPI JUMPDEST POP PUSH1 0x20 PUSH1 0x1F DUP3 GT PUSH1 0x1 EQ PUSH2 0x45A JUMPI DUP2 SWAP1 PUSH32 0x520F503F282709DFE5F0F44377819A0EF9364D49817D1BCCC2BE8B4BBDB94BA1 SWAP6 SWAP7 PUSH1 0x0 SWAP3 PUSH2 0x44F JUMPI JUMPDEST POP POP DUP2 PUSH1 0x1 SHL SWAP2 PUSH1 0x0 NOT SWAP1 PUSH1 0x3 SHL SHR NOT AND OR SWAP1 SSTORE JUMPDEST PUSH2 0x43D PUSH1 0x40 MLOAD SWAP2 PUSH1 0x40 DUP4 MSTORE PUSH1 0x40 DUP4 ADD SWAP1 PUSH2 0x8E1 JUMP JUMPDEST SWAP3 ISZERO ISZERO PUSH1 0x20 DUP3 ADD MSTORE DUP1 PUSH1 0x4 CALLDATALOAD SWAP4 SUB SWAP1 LOG2 STOP JUMPDEST ADD MLOAD SWAP1 POP DUP7 DUP1 PUSH2 0x413 JUMP JUMPDEST PUSH1 0x1F NOT DUP3 AND SWAP6 DUP4 PUSH1 0x0 MSTORE PUSH1 0x20 PUSH1 0x0 KECCAK256 SWAP7 PUSH1 0x0 JUMPDEST DUP2 DUP2 LT PUSH2 0x4CB JUMPI POP SWAP2 PUSH32 0x520F503F282709DFE5F0F44377819A0EF9364D49817D1BCCC2BE8B4BBDB94BA1 SWAP7 SWAP8 SWAP2 DUP5 PUSH1 0x1 SWAP6 SWAP5 LT PUSH2 0x4B2 JUMPI JUMPDEST POP POP POP DUP2 SHL ADD SWAP1 SSTORE PUSH2 0x428 JUMP JUMPDEST ADD MLOAD PUSH1 0x0 NOT PUSH1 0xF8 DUP5 PUSH1 0x3 SHL AND SHR NOT AND SWAP1 SSTORE DUP7 DUP1 DUP1 PUSH2 0x4A5 JUMP JUMPDEST DUP4 DUP4 ADD MLOAD DUP10 SSTORE PUSH1 0x1 SWAP1 SWAP9 ADD SWAP8 PUSH1 0x20 SWAP4 DUP5 ADD SWAP4 ADD PUSH2 0x46D JUMP JUMPDEST DUP3 PUSH1 0x0 MSTORE PUSH1 0x20 PUSH1 0x0 KECCAK256 PUSH1 0x1F DUP4 ADD PUSH1 0x5 SHR DUP2 ADD SWAP2 PUSH1 0x20 DUP5 LT PUSH2 0x521 JUMPI JUMPDEST PUSH1 0x1F ADD PUSH1 0x5 SHR ADD SWAP1 JUMPDEST DUP2 DUP2 LT PUSH2 0x515 JUMPI POP PUSH2 0x3D8 JUMP JUMPDEST PUSH1 0x0 DUP2 SSTORE PUSH1 0x1 ADD PUSH2 0x508 JUMP JUMPDEST SWAP1 SWAP2 POP DUP2 SWAP1 PUSH2 0x4FF JUMP JUMPDEST ADD MLOAD SWAP1 POP DUP9 DUP1 PUSH2 0x38D JUMP JUMPDEST SWAP1 PUSH1 0x1F NOT DUP4 AND SWAP2 PUSH1 0x3 DUP6 ADD PUSH1 0x0 MSTORE PUSH1 0x20 PUSH1 0x0 KECCAK256 SWAP3 PUSH1 0x0 JUMPDEST DUP2 DUP2 LT PUSH2 0x591 JUMPI POP SWAP3 PUSH1 0x1 SWAP3 DUP6 SWAP3 PUSH1 0x5 SWAP7 PUSH1 0xA0 SWAP9 SWAP7 LT PUSH2 0x578 JUMPI JUMPDEST POP POP POP DUP2 SHL ADD PUSH1 0x3 DUP3 ADD SSTORE PUSH2 0x3A5 JUMP JUMPDEST ADD MLOAD PUSH1 0x0 NOT PUSH1 0xF8 DUP5 PUSH1 0x3 SHL AND SHR NOT AND SWAP1 SSTORE DUP9 DUP1 DUP1 PUSH2 0x568 JUMP JUMPDEST SWAP3 SWAP4 PUSH1 0x20 PUSH1 0x1 DUP2 SWAP3 DUP8 DUP7 ADD MLOAD DUP2 SSTORE ADD SWAP6 ADD SWAP4 ADD PUSH2 0x54D JUMP JUMPDEST PUSH1 0x3 DUP5 ADD PUSH1 0x0 MSTORE PUSH1 0x20 PUSH1 0x0 KECCAK256 PUSH1 0x1F DUP5 ADD PUSH1 0x5 SHR DUP2 ADD PUSH1 0x20 DUP6 LT PUSH2 0x5E9 JUMPI JUMPDEST PUSH1 0x1F DUP4 ADD PUSH1 0x5 SHR DUP3 ADD DUP2 LT PUSH2 0x5DD JUMPI POP POP PUSH2 0x36D JUMP JUMPDEST PUSH1 0x0 DUP2 SSTORE PUSH1 0x1 ADD PUSH2 0x5C7 JUMP JUMPDEST POP DUP1 PUSH2 0x5C7 JUMP JUMPDEST ADD MLOAD SWAP1 POP DUP7 DUP1 PUSH2 0x311 JUMP JUMPDEST SWAP3 POP PUSH1 0x1 DUP5 ADD PUSH1 0x0 MSTORE PUSH1 0x20 PUSH1 0x0 KECCAK256 SWAP1 PUSH1 0x0 SWAP4 JUMPDEST PUSH1 0x1F NOT DUP5 AND DUP6 LT PUSH2 0x652 JUMPI PUSH1 0x1 SWAP5 POP DUP4 PUSH1 0x1F NOT DUP2 AND LT PUSH2 0x639 JUMPI JUMPDEST POP POP POP DUP2 SHL ADD PUSH1 0x1 DUP3 ADD SSTORE PUSH2 0x329 JUMP JUMPDEST ADD MLOAD PUSH1 0x0 NOT PUSH1 0xF8 DUP5 PUSH1 0x3 SHL AND SHR NOT AND SWAP1 SSTORE DUP7 DUP1 DUP1 PUSH2 0x629 JUMP JUMPDEST DUP2 DUP2 ADD MLOAD DUP4 SSTORE PUSH1 0x20 SWAP5 DUP6 ADD SWAP5 PUSH1 0x1 SWAP1 SWAP4 ADD SWAP3 SWAP1 SWAP2 ADD SWAP1 PUSH2 0x60E JUMP JUMPDEST SWAP1 SWAP2 POP PUSH1 0x1 DUP5 ADD PUSH1 0x0 MSTORE PUSH1 0x20 PUSH1 0x0 KECCAK256 PUSH1 0x1F DUP5 ADD PUSH1 0x5 SHR DUP2 ADD PUSH1 0x20 DUP6 LT PUSH2 0x6B9 JUMPI JUMPDEST SWAP1 DUP5 SWAP4 SWAP3 SWAP2 JUMPDEST PUSH1 0x1F DUP4 ADD PUSH1 0x5 SHR DUP3 ADD DUP2 LT PUSH2 0x6AA JUMPI POP POP PUSH2 0x2FA JUMP JUMPDEST PUSH1 0x0 DUP2 SSTORE DUP6 SWAP5 POP PUSH1 0x1 ADD PUSH2 0x694 JUMP JUMPDEST POP DUP1 PUSH2 0x68E JUMP JUMPDEST PUSH4 0x4E487B71 PUSH1 0xE0 SHL PUSH1 0x0 MSTORE PUSH1 0x0 PUSH1 0x4 MSTORE PUSH1 0x24 PUSH1 0x0 REVERT JUMPDEST CALLVALUE PUSH2 0x1DB JUMPI PUSH1 0x40 CALLDATASIZE PUSH1 0x3 NOT ADD SLT PUSH2 0x1DB JUMPI PUSH1 0x24 CALLDATALOAD PUSH1 0x4 CALLDATALOAD PUSH1 0x0 MSTORE PUSH1 0x0 PUSH1 0x20 MSTORE PUSH1 0x40 PUSH1 0x0 KECCAK256 SWAP1 DUP2 SLOAD DUP2 LT ISZERO PUSH2 0x1DB JUMPI PUSH2 0x70D SWAP2 PUSH2 0x792 JUMP JUMPDEST POP DUP1 SLOAD PUSH2 0x78E PUSH2 0x71F PUSH1 0x1 DUP5 ADD PUSH2 0x83C JUMP JUMPDEST SWAP3 PUSH1 0xFF PUSH1 0x2 DUP3 ADD SLOAD AND PUSH2 0x77B PUSH2 0x737 PUSH1 0x3 DUP5 ADD PUSH2 0x83C JUMP JUMPDEST SWAP2 PUSH2 0x749 PUSH1 0x5 PUSH1 0x4 DUP7 ADD SLOAD SWAP6 ADD PUSH2 0x83C JUMP JUMPDEST SWAP3 PUSH2 0x766 PUSH1 0x40 MLOAD SWAP9 DUP10 SWAP9 DUP10 MSTORE PUSH1 0xC0 PUSH1 0x20 DUP11 ADD MSTORE PUSH1 0xC0 DUP10 ADD SWAP1 PUSH2 0x8E1 JUMP JUMPDEST SWAP2 ISZERO ISZERO PUSH1 0x40 DUP9 ADD MSTORE DUP7 DUP3 SUB PUSH1 0x60 DUP9 ADD MSTORE PUSH2 0x8E1 JUMP JUMPDEST SWAP2 PUSH1 0x80 DUP6 ADD MSTORE DUP4 DUP3 SUB PUSH1 0xA0 DUP6 ADD MSTORE PUSH2 0x8E1 JUMP JUMPDEST SUB SWAP1 RETURN JUMPDEST DUP1 SLOAD DUP3 LT ISZERO PUSH2 0x7AE JUMPI PUSH1 0x0 MSTORE PUSH1 0x6 PUSH1 0x20 PUSH1 0x0 KECCAK256 SWAP2 MUL ADD SWAP1 PUSH1 0x0 SWAP1 JUMP JUMPDEST PUSH4 0x4E487B71 PUSH1 0xE0 SHL PUSH1 0x0 MSTORE PUSH1 0x32 PUSH1 0x4 MSTORE PUSH1 0x24 PUSH1 0x0 REVERT JUMPDEST SWAP1 PUSH1 0x1 DUP3 DUP2 SHR SWAP3 AND DUP1 ISZERO PUSH2 0x7F4 JUMPI JUMPDEST PUSH1 0x20 DUP4 LT EQ PUSH2 0x7DE JUMPI JUMP JUMPDEST PUSH4 0x4E487B71 PUSH1 0xE0 SHL PUSH1 0x0 MSTORE PUSH1 0x22 PUSH1 0x4 MSTORE PUSH1 0x24 PUSH1 0x0 REVERT JUMPDEST SWAP2 PUSH1 0x7F AND SWAP2 PUSH2 0x7D3 JUMP JUMPDEST PUSH1 0xC0 DUP2 ADD SWAP1 DUP2 LT PUSH8 0xFFFFFFFFFFFFFFFF DUP3 GT OR PUSH2 0x1C5 JUMPI PUSH1 0x40 MSTORE JUMP JUMPDEST SWAP1 PUSH1 0x1F DUP1 NOT SWAP2 ADD AND DUP2 ADD SWAP1 DUP2 LT PUSH8 0xFFFFFFFFFFFFFFFF DUP3 GT OR PUSH2 0x1C5 JUMPI PUSH1 0x40 MSTORE JUMP JUMPDEST SWAP1 PUSH1 0x40 MLOAD SWAP2 DUP3 PUSH1 0x0 DUP3 SLOAD PUSH2 0x84F DUP2 PUSH2 0x7C4 JUMP JUMPDEST SWAP1 DUP2 DUP5 MSTORE PUSH1 0x20 SWAP5 PUSH1 0x1 SWAP2 PUSH1 0x1 DUP2 AND SWAP1 DUP2 PUSH1 0x0 EQ PUSH2 0x8BF JUMPI POP PUSH1 0x1 EQ PUSH2 0x880 JUMPI JUMPDEST POP POP POP PUSH2 0x87E SWAP3 POP SUB DUP4 PUSH2 0x81A JUMP JUMPDEST JUMP JUMPDEST PUSH1 0x0 SWAP1 DUP2 MSTORE DUP6 DUP2 KECCAK256 SWAP6 SWAP4 POP SWAP2 SWAP1 JUMPDEST DUP2 DUP4 LT PUSH2 0x8A7 JUMPI POP POP PUSH2 0x87E SWAP4 POP DUP3 ADD ADD CODESIZE DUP1 DUP1 PUSH2 0x86F JUMP JUMPDEST DUP6 SLOAD DUP9 DUP5 ADD DUP6 ADD MSTORE SWAP5 DUP6 ADD SWAP5 DUP8 SWAP5 POP SWAP2 DUP4 ADD SWAP2 PUSH2 0x88E JUMP JUMPDEST SWAP3 POP POP POP PUSH2 0x87E SWAP5 SWAP3 POP PUSH1 0xFF NOT AND DUP3 DUP5 ADD MSTORE ISZERO ISZERO PUSH1 0x5 SHL DUP3 ADD ADD CODESIZE DUP1 DUP1 PUSH2 0x86F JUMP JUMPDEST SWAP2 SWAP1 DUP3 MLOAD SWAP3 DUP4 DUP3 MSTORE PUSH1 0x0 JUMPDEST DUP5 DUP2 LT PUSH2 0x90D JUMPI POP POP DUP3 PUSH1 0x0 PUSH1 0x20 DUP1 SWAP5 SWAP6 DUP5 ADD ADD MSTORE PUSH1 0x1F DUP1 NOT SWAP2 ADD AND ADD ADD SWAP1 JUMP JUMPDEST PUSH1 0x20 DUP2 DUP4 ADD DUP2 ADD MLOAD DUP5 DUP4 ADD DUP3 ADD MSTORE ADD PUSH2 0x8EC JUMP JUMPDEST DUP2 PUSH1 0x1F DUP3 ADD SLT ISZERO PUSH2 0x1DB JUMPI DUP1 CALLDATALOAD SWAP1 PUSH8 0xFFFFFFFFFFFFFFFF DUP3 GT PUSH2 0x1C5 JUMPI PUSH1 0x40 MLOAD SWAP3 PUSH2 0x956 PUSH1 0x1F DUP5 ADD PUSH1 0x1F NOT AND PUSH1 0x20 ADD DUP6 PUSH2 0x81A JUMP JUMPDEST DUP3 DUP5 MSTORE PUSH1 0x20 DUP4 DUP4 ADD ADD GT PUSH2 0x1DB JUMPI DUP2 PUSH1 0x0 SWAP3 PUSH1 0x20 DUP1 SWAP4 ADD DUP4 DUP7 ADD CALLDATACOPY DUP4 ADD ADD MSTORE SWAP1 JUMP INVALID LOG2 PUSH5 0x6970667358 0x22 SLT KECCAK256 0x2B 0xE4 DUP1 DUP16 0xAD 0xE6 POP GT PUSH21 0x641300617D4E31D0F34C415807AF6D78833D681DC3 NUMBER REVERT PUSH5 0x736F6C6343 STOP ADDMOD XOR STOP CALLER "},"methodIdentifiers":{"addComplianceRecord(uint256,string,bool,string)":"b86a65a2","complianceRecords(uint256,uint256)":"4615352e","getComplianceRecords(uint256)":"ed882851"}}}}}