{"contracts/Vesting.sol":{"TokenVesting":{"abi":[{"anonymous":false,"inputs":[{"indexed":true,"internalType":"bytes32","name":"id","type":"bytes32"},{"indexed":false,"internalType":"uint256","name":"amount","type":"uint256"}],"name":"TokensReleased","type":"event"},{"anonymous":false,"inputs":[{"indexed":true,"internalType":"bytes32","name":"id","type":"bytes32"},{"indexed":false,"internalType":"address","name":"beneficiary","type":"address"},{"indexed":false,"internalType":"uint256","name":"amount","type":"uint256"},{"indexed":false,"internalType":"uint256","name":"duration","type":"uint256"}],"name":"VestingCreated","type":"event"},{"inputs":[{"internalType":"address","name":"","type":"address"},{"internalType":"uint256","name":"","type":"uint256"}],"name":"beneficiarySchedules","outputs":[{"internalType":"bytes32","name":"","type":"bytes32"}],"stateMutability":"view","type":"function"},{"inputs":[{"internalType":"address","name":"_beneficiary","type":"address"},{"internalType":"uint256","name":"_amount","type":"uint256"},{"internalType":"uint256","name":"_duration","type":"uint256"}],"name":"createVesting","outputs":[],"stateMutability":"nonpayable","type":"function"},{"inputs":[{"internalType":"bytes32","name":"_id","type":"bytes32"}],"name":"release","outputs":[],"stateMutability":"nonpayable","type":"function"},{"inputs":[{"internalType":"bytes32","name":"","type":"bytes32"}],"name":"schedules","outputs":[{"internalType":"address","name":"beneficiary","type":"address"},{"internalType":"uint256","name":"totalAmount","type":"uint256"},{"internalType":"uint256","name":"startTime","type":"uint256"},{"internalType":"uint256","name":"duration","type":"uint256"},{"internalType":"uint256","name":"released","type":"uint256"}],"stateMutability":"view","type":"function"}],"evm":{"bytecode":{"linkReferences":{},"object":"6080806040523461001657610472908161001c8239f35b600080fdfe60406080815260048036101561001457600080fd5b600091823560e01c806346ca42411461030057806367d42a8b14610232578063d1e16bfa146101db5763e97549081461004c57600080fd5b346101d75760603660031901126101d75761006561035d565b906024359060443591815194602086019560018060a01b0390818716966bffffffffffffffffffffffff199060601b16885242603482015260348152606081019167ffffffffffffffff988284108a8511176101c45783875282519020986101008301908111848210176101c45784928b8b938a938a528b87528960808401928a845260e060a086019542875260c081019788520196818852815280602052209651166bffffffffffffffffffffffff60a01b875416178655516001860155516002850155516003840155519101558487526001602052828720805491680100000000000000008310156101b157509161018b826060969460017fbc6fddd239930fc9c6508a5c8c99f3b138d55419faec3913ab45ece2e9057b87999795018155610378565b81549060031b9089821b91600019901b191617905581519384526020840152820152a280f35b634e487b7160e01b895260419052602488fd5b634e487b7160e01b8b526041855260248bfd5b8280fd5b50346101d75760203660031901126101d7578060a093833581528060205220600180851b03815416926001820154926002830154916003840154930154938151958652602086015284015260608301526080820152f35b5090346101d75760203660031901126101d7578035918284528360205280842061025b816103d6565b8382019061026b825480926103a6565b9485156102cd57508685819482946102848385966103c9565b9055546001600160a01b031682f1156102c4577f7e7eb8def93882018eb053721bca2801550a422e8176c587e1ad367fcc4fdc9d9160209151908152a280f35b513d84823e3d90fd5b606490602086519162461bcd60e51b8352820152600d60248201526c4e6f20746f6b656e732064756560981b6044820152fd5b83823461035957806003193601126103595761031a61035d565b6001600160a01b03168252600160205280822080546024359390841015610356575060209261034891610378565b91905490519160031b1c8152f35b80fd5b5080fd5b600435906001600160a01b038216820361037357565b600080fd5b80548210156103905760005260206000200190600090565b634e487b7160e01b600052603260045260246000fd5b919082039182116103b357565b634e487b7160e01b600052601160045260246000fd5b919082018092116103b357565b60028101546003820154916103eb83836103c9565b42101561043257600161040191015491426103a6565b908181029181830414901517156103b357811561041c570490565b634e487b7160e01b600052601260045260246000fd5b600101549291505056fea2646970667358221220cfda6d32391ed2dd29ad0f3c0d7b74ff2dfd9bef4239baa9c04526005dc0d46c64736f6c63430008180033","opcodes":"PUSH1 0x80 DUP1 PUSH1 0x40 MSTORE CALLVALUE PUSH2 0x16 JUMPI PUSH2 0x472 SWAP1 DUP2 PUSH2 0x1C DUP3 CODECOPY RETURN JUMPDEST PUSH1 0x0 DUP1 REVERT INVALID PUSH1 0x40 PUSH1 0x80 DUP2 MSTORE PUSH1 0x4 DUP1 CALLDATASIZE LT ISZERO PUSH2 0x14 JUMPI PUSH1 0x0 DUP1 REVERT JUMPDEST PUSH1 0x0 SWAP2 DUP3 CALLDATALOAD PUSH1 0xE0 SHR DUP1 PUSH4 0x46CA4241 EQ PUSH2 0x300 JUMPI DUP1 PUSH4 0x67D42A8B EQ PUSH2 0x232 JUMPI DUP1 PUSH4 0xD1E16BFA EQ PUSH2 0x1DB JUMPI PUSH4 0xE9754908 EQ PUSH2 0x4C JUMPI PUSH1 0x0 DUP1 REVERT JUMPDEST CALLVALUE PUSH2 0x1D7 JUMPI PUSH1 0x60 CALLDATASIZE PUSH1 0x3 NOT ADD SLT PUSH2 0x1D7 JUMPI PUSH2 0x65 PUSH2 0x35D JUMP JUMPDEST SWAP1 PUSH1 0x24 CALLDATALOAD SWAP1 PUSH1 0x44 CALLDATALOAD SWAP2 DUP2 MLOAD SWAP5 PUSH1 0x20 DUP7 ADD SWAP6 PUSH1 0x1 DUP1 PUSH1 0xA0 SHL SUB SWAP1 DUP2 DUP8 AND SWAP7 PUSH12 0xFFFFFFFFFFFFFFFFFFFFFFFF NOT SWAP1 PUSH1 0x60 SHL AND DUP9 MSTORE TIMESTAMP PUSH1 0x34 DUP3 ADD MSTORE PUSH1 0x34 DUP2 MSTORE PUSH1 0x60 DUP2 ADD SWAP2 PUSH8 0xFFFFFFFFFFFFFFFF SWAP9 DUP3 DUP5 LT DUP11 DUP6 GT OR PUSH2 0x1C4 JUMPI DUP4 DUP8 MSTORE DUP3 MLOAD SWAP1 KECCAK256 SWAP9 PUSH2 0x100 DUP4 ADD SWAP1 DUP2 GT DUP5 DUP3 LT OR PUSH2 0x1C4 JUMPI DUP5 SWAP3 DUP12 DUP12 SWAP4 DUP11 SWAP4 DUP11 MSTORE DUP12 DUP8 MSTORE DUP10 PUSH1 0x80 DUP5 ADD SWAP3 DUP11 DUP5 MSTORE PUSH1 0xE0 PUSH1 0xA0 DUP7 ADD SWAP6 TIMESTAMP DUP8 MSTORE PUSH1 0xC0 DUP2 ADD SWAP8 DUP9 MSTORE ADD SWAP7 DUP2 DUP9 MSTORE DUP2 MSTORE DUP1 PUSH1 0x20 MSTORE KECCAK256 SWAP7 MLOAD AND PUSH12 0xFFFFFFFFFFFFFFFFFFFFFFFF PUSH1 0xA0 SHL DUP8 SLOAD AND OR DUP7 SSTORE MLOAD PUSH1 0x1 DUP7 ADD SSTORE MLOAD PUSH1 0x2 DUP6 ADD SSTORE MLOAD PUSH1 0x3 DUP5 ADD SSTORE MLOAD SWAP2 ADD SSTORE DUP5 DUP8 MSTORE PUSH1 0x1 PUSH1 0x20 MSTORE DUP3 DUP8 KECCAK256 DUP1 SLOAD SWAP2 PUSH9 0x10000000000000000 DUP4 LT ISZERO PUSH2 0x1B1 JUMPI POP SWAP2 PUSH2 0x18B DUP3 PUSH1 0x60 SWAP7 SWAP5 PUSH1 0x1 PUSH32 0xBC6FDDD239930FC9C6508A5C8C99F3B138D55419FAEC3913AB45ECE2E9057B87 SWAP10 SWAP8 SWAP6 ADD DUP2 SSTORE PUSH2 0x378 JUMP JUMPDEST DUP2 SLOAD SWAP1 PUSH1 0x3 SHL SWAP1 DUP10 DUP3 SHL SWAP2 PUSH1 0x0 NOT SWAP1 SHL NOT AND OR SWAP1 SSTORE DUP2 MLOAD SWAP4 DUP5 MSTORE PUSH1 0x20 DUP5 ADD MSTORE DUP3 ADD MSTORE LOG2 DUP1 RETURN JUMPDEST PUSH4 0x4E487B71 PUSH1 0xE0 SHL DUP10 MSTORE PUSH1 0x41 SWAP1 MSTORE PUSH1 0x24 DUP9 REVERT JUMPDEST PUSH4 0x4E487B71 PUSH1 0xE0 SHL DUP12 MSTORE PUSH1 0x41 DUP6 MSTORE PUSH1 0x24 DUP12 REVERT JUMPDEST DUP3 DUP1 REVERT JUMPDEST POP CALLVALUE PUSH2 0x1D7 JUMPI PUSH1 0x20 CALLDATASIZE PUSH1 0x3 NOT ADD SLT PUSH2 0x1D7 JUMPI DUP1 PUSH1 0xA0 SWAP4 DUP4 CALLDATALOAD DUP2 MSTORE DUP1 PUSH1 0x20 MSTORE KECCAK256 PUSH1 0x1 DUP1 DUP6 SHL SUB DUP2 SLOAD AND SWAP3 PUSH1 0x1 DUP3 ADD SLOAD SWAP3 PUSH1 0x2 DUP4 ADD SLOAD SWAP2 PUSH1 0x3 DUP5 ADD SLOAD SWAP4 ADD SLOAD SWAP4 DUP2 MLOAD SWAP6 DUP7 MSTORE PUSH1 0x20 DUP7 ADD MSTORE DUP5 ADD MSTORE PUSH1 0x60 DUP4 ADD MSTORE PUSH1 0x80 DUP3 ADD MSTORE RETURN JUMPDEST POP SWAP1 CALLVALUE PUSH2 0x1D7 JUMPI PUSH1 0x20 CALLDATASIZE PUSH1 0x3 NOT ADD SLT PUSH2 0x1D7 JUMPI DUP1 CALLDATALOAD SWAP2 DUP3 DUP5 MSTORE DUP4 PUSH1 0x20 MSTORE DUP1 DUP5 KECCAK256 PUSH2 0x25B DUP2 PUSH2 0x3D6 JUMP JUMPDEST DUP4 DUP3 ADD SWAP1 PUSH2 0x26B DUP3 SLOAD DUP1 SWAP3 PUSH2 0x3A6 JUMP JUMPDEST SWAP5 DUP6 ISZERO PUSH2 0x2CD JUMPI POP DUP7 DUP6 DUP2 SWAP5 DUP3 SWAP5 PUSH2 0x284 DUP4 DUP6 SWAP7 PUSH2 0x3C9 JUMP JUMPDEST SWAP1 SSTORE SLOAD PUSH1 0x1 PUSH1 0x1 PUSH1 0xA0 SHL SUB AND DUP3 CALL ISZERO PUSH2 0x2C4 JUMPI PUSH32 0x7E7EB8DEF93882018EB053721BCA2801550A422E8176C587E1AD367FCC4FDC9D SWAP2 PUSH1 0x20 SWAP2 MLOAD SWAP1 DUP2 MSTORE LOG2 DUP1 RETURN JUMPDEST MLOAD RETURNDATASIZE DUP5 DUP3 RETURNDATACOPY RETURNDATASIZE SWAP1 REVERT JUMPDEST PUSH1 0x64 SWAP1 PUSH1 0x20 DUP7 MLOAD SWAP2 PUSH3 0x461BCD PUSH1 0xE5 SHL DUP4 MSTORE DUP3 ADD MSTORE PUSH1 0xD PUSH1 0x24 DUP3 ADD MSTORE PUSH13 0x4E6F20746F6B656E7320647565 PUSH1 0x98 SHL PUSH1 0x44 DUP3 ADD MSTORE REVERT JUMPDEST DUP4 DUP3 CALLVALUE PUSH2 0x359 JUMPI DUP1 PUSH1 0x3 NOT CALLDATASIZE ADD SLT PUSH2 0x359 JUMPI PUSH2 0x31A PUSH2 0x35D JUMP JUMPDEST PUSH1 0x1 PUSH1 0x1 PUSH1 0xA0 SHL SUB AND DUP3 MSTORE PUSH1 0x1 PUSH1 0x20 MSTORE DUP1 DUP3 KECCAK256 DUP1 SLOAD PUSH1 0x24 CALLDATALOAD SWAP4 SWAP1 DUP5 LT ISZERO PUSH2 0x356 JUMPI POP PUSH1 0x20 SWAP3 PUSH2 0x348 SWAP2 PUSH2 0x378 JUMP JUMPDEST SWAP2 SWAP1 SLOAD SWAP1 MLOAD SWAP2 PUSH1 0x3 SHL SHR DUP2 MSTORE RETURN JUMPDEST DUP1 REVERT JUMPDEST POP DUP1 REVERT JUMPDEST PUSH1 0x4 CALLDATALOAD SWAP1 PUSH1 0x1 PUSH1 0x1 PUSH1 0xA0 SHL SUB DUP3 AND DUP3 SUB PUSH2 0x373 JUMPI JUMP JUMPDEST PUSH1 0x0 DUP1 REVERT JUMPDEST DUP1 SLOAD DUP3 LT ISZERO PUSH2 0x390 JUMPI PUSH1 0x0 MSTORE PUSH1 0x20 PUSH1 0x0 KECCAK256 ADD SWAP1 PUSH1 0x0 SWAP1 JUMP JUMPDEST PUSH4 0x4E487B71 PUSH1 0xE0 SHL PUSH1 0x0 MSTORE PUSH1 0x32 PUSH1 0x4 MSTORE PUSH1 0x24 PUSH1 0x0 REVERT JUMPDEST SWAP2 SWAP1 DUP3 SUB SWAP2 DUP3 GT PUSH2 0x3B3 JUMPI JUMP JUMPDEST PUSH4 0x4E487B71 PUSH1 0xE0 SHL PUSH1 0x0 MSTORE PUSH1 0x11 PUSH1 0x4 MSTORE PUSH1 0x24 PUSH1 0x0 REVERT JUMPDEST SWAP2 SWAP1 DUP3 ADD DUP1 SWAP3 GT PUSH2 0x3B3 JUMPI JUMP JUMPDEST PUSH1 0x2 DUP2 ADD SLOAD PUSH1 0x3 DUP3 ADD SLOAD SWAP2 PUSH2 0x3EB DUP4 DUP4 PUSH2 0x3C9 JUMP JUMPDEST TIMESTAMP LT ISZERO PUSH2 0x432 JUMPI PUSH1 0x1 PUSH2 0x401 SWAP2 ADD SLOAD SWAP2 TIMESTAMP PUSH2 0x3A6 JUMP JUMPDEST SWAP1 DUP2 DUP2 MUL SWAP2 DUP2 DUP4 DIV EQ SWAP1 ISZERO OR ISZERO PUSH2 0x3B3 JUMPI DUP2 ISZERO PUSH2 0x41C JUMPI DIV SWAP1 JUMP JUMPDEST PUSH4 0x4E487B71 PUSH1 0xE0 SHL PUSH1 0x0 MSTORE PUSH1 0x12 PUSH1 0x4 MSTORE PUSH1 0x24 PUSH1 0x0 REVERT JUMPDEST PUSH1 0x1 ADD SLOAD SWAP3 SWAP2 POP POP JUMP INVALID LOG2 PUSH5 0x6970667358 0x22 SLT KECCAK256 0xCF 0xDA PUSH14 0x32391ED2DD29AD0F3C0D7B74FF2D REVERT SWAP12 0xEF TIMESTAMP CODECOPY 0xBA 0xA9 0xC0 GASLIMIT 0x26 STOP TSTORE 0xC0 0xD4 PUSH13 0x64736F6C634300081800330000 "},"methodIdentifiers":{"beneficiarySchedules(address,uint256)":"46ca4241","createVesting(address,uint256,uint256)":"e9754908","release(bytes32)":"67d42a8b","schedules(bytes32)":"d1e16bfa"}}}}}