{"contracts/SeasonManager.sol":{"SeasonManager":{"abi":[{"anonymous":false,"inputs":[{"indexed":false,"internalType":"uint256","name":"id","type":"uint256"},{"indexed":false,"internalType":"string","name":"name","type":"string"},{"indexed":false,"internalType":"uint256","name":"start","type":"uint256"},{"indexed":false,"internalType":"uint256","name":"end","type":"uint256"}],"name":"SeasonCreated","type":"event"},{"anonymous":false,"inputs":[{"indexed":false,"internalType":"uint256","name":"id","type":"uint256"}],"name":"SeasonStarted","type":"event"},{"inputs":[{"internalType":"string","name":"_name","type":"string"},{"internalType":"uint256","name":"_start","type":"uint256"},{"internalType":"uint256","name":"_end","type":"uint256"}],"name":"createSeason","outputs":[{"internalType":"uint256","name":"","type":"uint256"}],"stateMutability":"nonpayable","type":"function"},{"inputs":[],"name":"currentSeasonId","outputs":[{"internalType":"uint256","name":"","type":"uint256"}],"stateMutability":"view","type":"function"},{"inputs":[],"name":"getCurrentSeason","outputs":[{"components":[{"internalType":"string","name":"name","type":"string"},{"internalType":"uint256","name":"startTime","type":"uint256"},{"internalType":"uint256","name":"endTime","type":"uint256"},{"internalType":"bool","name":"active","type":"bool"}],"internalType":"struct SeasonManager.Season","name":"","type":"tuple"}],"stateMutability":"view","type":"function"},{"inputs":[{"internalType":"uint256","name":"","type":"uint256"}],"name":"seasons","outputs":[{"internalType":"string","name":"name","type":"string"},{"internalType":"uint256","name":"startTime","type":"uint256"},{"internalType":"uint256","name":"endTime","type":"uint256"},{"internalType":"bool","name":"active","type":"bool"}],"stateMutability":"view","type":"function"},{"inputs":[{"internalType":"uint256","name":"_id","type":"uint256"}],"name":"startSeason","outputs":[],"stateMutability":"nonpayable","type":"function"}],"evm":{"bytecode":{"linkReferences":{},"object":"60808060405234610016576106bd908161001c8239f35b600080fdfe608060405260048036101561001357600080fd5b60003560e01c8063703dbfe41461046b578063d3b30b75146103b2578063dc29338214610394578063f5d709a1146103225763ff2b76d91461005457600080fd5b346103095760603660031901126103095767ffffffffffffffff813581811161030957366023820112156103095760248382013583811161030e57604051926100a7601f8301601f1916602001856105c0565b8184523683838301011161030957816000928460209301838701378401015260005492604051906100d78261058e565b83825282356020830152604435604083015260006060830152680100000000000000008510156102f5576001850160005561011185610507565b9190916102e25782519687519182116102ce575061012f8254610554565b96601f881161028a575b602097508790601f83116001146101f9576101d49593837fc53cf244672e3e1eed9acdcd22658f6c1cee6d44144f1a17e4a1609b803aa6059896946060946003946000926101ee575b50508160011b9160001990851b1c19161781555b8984015160018201556040840151600282015501910151151560ff8019835416911617905560405192839286845260808885015260808401906104c7565b9035604083015260443560608301520390a1604051908152f35b015190503880610182565b90601f1983169184600052896000209260005b8181106102735750846060946003946101d49a98947fc53cf244672e3e1eed9acdcd22658f6c1cee6d44144f1a17e4a1609b803aa6059c9a986001951061025b575b505050811b018155610196565b015160001983871b60f8161c1916905538808061024e565b92938b60018192878601518155019501930161020c565b826000526020600020601f830160051c8101602084106102c7575b601f8a0160051c820181106102bb575050610139565b600081556001016102a5565b50806102a5565b60418591634e487b7160e01b600052526000fd5b83600088634e487b7160e01b8252526000fd5b82604187634e487b7160e01b600052526000fd5b600080fd5b50634e487b7160e01b600090815260418552fd5b503461030957602036600319011261030957356000548110156103095761034b61037e91610507565b50610355816105e2565b9060018101549060ff6003600283015492015416906040519485946080865260808601906104c7565b9260208501526040840152151560608301520390f35b34610309576000366003190112610309576020600154604051908152f35b3461030957600036600319011261030957600060606040516103d38161058e565b81815282602082015282604082015201526104526103f2600154610507565b50604051906104008261058e565b610409816105e2565b82526001810154906020830191825260ff6003600283015492604086019384520154169060608401911515825260405194859460208652516080602087015260a08601906104c7565b9251604085015251606084015251151560808301520390f35b50346103095760203660031901126103095760207fe2046d333900871694b2fb421975b907ac5d93052201a0e259fa0664d9dbdf1d913560036104ad82610507565b5001600160ff1982541617905580600155604051908152a1005b919082519283825260005b8481106104f3575050826000602080949584010152601f8019910116010190565b6020818301810151848301820152016104d2565b9060009182548110156105405782805260021b7f290decd9548b62a8d60345a988386fc84ba6bc95484008f6362f93160ef3e563019190565b634e487b7160e01b83526032600452602483fd5b90600182811c92168015610584575b602083101461056e57565b634e487b7160e01b600052602260045260246000fd5b91607f1691610563565b6080810190811067ffffffffffffffff8211176105aa57604052565b634e487b7160e01b600052604160045260246000fd5b90601f8019910116810190811067ffffffffffffffff8211176105aa57604052565b906040519182600082546105f581610554565b908184526020946001916001811690816000146106655750600114610626575b505050610624925003836105c0565b565b600090815285812095935091905b81831061064d5750506106249350820101388080610615565b85548884018501529485019487945091830191610634565b9250505061062494925060ff191682840152151560051b82010138808061061556fea26469706673582212207e483bebab87c8c2f1ef3126f838474e5358f83aeb65ef74d54b1c69752d548364736f6c63430008180033","opcodes":"PUSH1 0x80 DUP1 PUSH1 0x40 MSTORE CALLVALUE PUSH2 0x16 JUMPI PUSH2 0x6BD SWAP1 DUP2 PUSH2 0x1C DUP3 CODECOPY RETURN JUMPDEST PUSH1 0x0 DUP1 REVERT INVALID PUSH1 0x80 PUSH1 0x40 MSTORE PUSH1 0x4 DUP1 CALLDATASIZE LT ISZERO PUSH2 0x13 JUMPI PUSH1 0x0 DUP1 REVERT JUMPDEST PUSH1 0x0 CALLDATALOAD PUSH1 0xE0 SHR DUP1 PUSH4 0x703DBFE4 EQ PUSH2 0x46B JUMPI DUP1 PUSH4 0xD3B30B75 EQ PUSH2 0x3B2 JUMPI DUP1 PUSH4 0xDC293382 EQ PUSH2 0x394 JUMPI DUP1 PUSH4 0xF5D709A1 EQ PUSH2 0x322 JUMPI PUSH4 0xFF2B76D9 EQ PUSH2 0x54 JUMPI PUSH1 0x0 DUP1 REVERT JUMPDEST CALLVALUE PUSH2 0x309 JUMPI PUSH1 0x60 CALLDATASIZE PUSH1 0x3 NOT ADD SLT PUSH2 0x309 JUMPI PUSH8 0xFFFFFFFFFFFFFFFF DUP2 CALLDATALOAD DUP2 DUP2 GT PUSH2 0x309 JUMPI CALLDATASIZE PUSH1 0x23 DUP3 ADD SLT ISZERO PUSH2 0x309 JUMPI PUSH1 0x24 DUP4 DUP3 ADD CALLDATALOAD DUP4 DUP2 GT PUSH2 0x30E JUMPI PUSH1 0x40 MLOAD SWAP3 PUSH2 0xA7 PUSH1 0x1F DUP4 ADD PUSH1 0x1F NOT AND PUSH1 0x20 ADD DUP6 PUSH2 0x5C0 JUMP JUMPDEST DUP2 DUP5 MSTORE CALLDATASIZE DUP4 DUP4 DUP4 ADD ADD GT PUSH2 0x309 JUMPI DUP2 PUSH1 0x0 SWAP3 DUP5 PUSH1 0x20 SWAP4 ADD DUP4 DUP8 ADD CALLDATACOPY DUP5 ADD ADD MSTORE PUSH1 0x0 SLOAD SWAP3 PUSH1 0x40 MLOAD SWAP1 PUSH2 0xD7 DUP3 PUSH2 0x58E JUMP JUMPDEST DUP4 DUP3 MSTORE DUP3 CALLDATALOAD PUSH1 0x20 DUP4 ADD MSTORE PUSH1 0x44 CALLDATALOAD PUSH1 0x40 DUP4 ADD MSTORE PUSH1 0x0 PUSH1 0x60 DUP4 ADD MSTORE PUSH9 0x10000000000000000 DUP6 LT ISZERO PUSH2 0x2F5 JUMPI PUSH1 0x1 DUP6 ADD PUSH1 0x0 SSTORE PUSH2 0x111 DUP6 PUSH2 0x507 JUMP JUMPDEST SWAP2 SWAP1 SWAP2 PUSH2 0x2E2 JUMPI DUP3 MLOAD SWAP7 DUP8 MLOAD SWAP2 DUP3 GT PUSH2 0x2CE JUMPI POP PUSH2 0x12F DUP3 SLOAD PUSH2 0x554 JUMP JUMPDEST SWAP7 PUSH1 0x1F DUP9 GT PUSH2 0x28A JUMPI JUMPDEST PUSH1 0x20 SWAP8 POP DUP8 SWAP1 PUSH1 0x1F DUP4 GT PUSH1 0x1 EQ PUSH2 0x1F9 JUMPI PUSH2 0x1D4 SWAP6 SWAP4 DUP4 PUSH32 0xC53CF244672E3E1EED9ACDCD22658F6C1CEE6D44144F1A17E4A1609B803AA605 SWAP9 SWAP7 SWAP5 PUSH1 0x60 SWAP5 PUSH1 0x3 SWAP5 PUSH1 0x0 SWAP3 PUSH2 0x1EE JUMPI JUMPDEST POP POP DUP2 PUSH1 0x1 SHL SWAP2 PUSH1 0x0 NOT SWAP1 DUP6 SHL SHR NOT AND OR DUP2 SSTORE JUMPDEST DUP10 DUP5 ADD MLOAD PUSH1 0x1 DUP3 ADD SSTORE PUSH1 0x40 DUP5 ADD MLOAD PUSH1 0x2 DUP3 ADD SSTORE ADD SWAP2 ADD MLOAD ISZERO ISZERO PUSH1 0xFF DUP1 NOT DUP4 SLOAD AND SWAP2 AND OR SWAP1 SSTORE PUSH1 0x40 MLOAD SWAP3 DUP4 SWAP3 DUP7 DUP5 MSTORE PUSH1 0x80 DUP9 DUP6 ADD MSTORE PUSH1 0x80 DUP5 ADD SWAP1 PUSH2 0x4C7 JUMP JUMPDEST SWAP1 CALLDATALOAD PUSH1 0x40 DUP4 ADD MSTORE PUSH1 0x44 CALLDATALOAD PUSH1 0x60 DUP4 ADD MSTORE SUB SWAP1 LOG1 PUSH1 0x40 MLOAD SWAP1 DUP2 MSTORE RETURN JUMPDEST ADD MLOAD SWAP1 POP CODESIZE DUP1 PUSH2 0x182 JUMP JUMPDEST SWAP1 PUSH1 0x1F NOT DUP4 AND SWAP2 DUP5 PUSH1 0x0 MSTORE DUP10 PUSH1 0x0 KECCAK256 SWAP3 PUSH1 0x0 JUMPDEST DUP2 DUP2 LT PUSH2 0x273 JUMPI POP DUP5 PUSH1 0x60 SWAP5 PUSH1 0x3 SWAP5 PUSH2 0x1D4 SWAP11 SWAP9 SWAP5 PUSH32 0xC53CF244672E3E1EED9ACDCD22658F6C1CEE6D44144F1A17E4A1609B803AA605 SWAP13 SWAP11 SWAP9 PUSH1 0x1 SWAP6 LT PUSH2 0x25B JUMPI JUMPDEST POP POP POP DUP2 SHL ADD DUP2 SSTORE PUSH2 0x196 JUMP JUMPDEST ADD MLOAD PUSH1 0x0 NOT DUP4 DUP8 SHL PUSH1 0xF8 AND SHR NOT AND SWAP1 SSTORE CODESIZE DUP1 DUP1 PUSH2 0x24E JUMP JUMPDEST SWAP3 SWAP4 DUP12 PUSH1 0x1 DUP2 SWAP3 DUP8 DUP7 ADD MLOAD DUP2 SSTORE ADD SWAP6 ADD SWAP4 ADD PUSH2 0x20C JUMP JUMPDEST DUP3 PUSH1 0x0 MSTORE PUSH1 0x20 PUSH1 0x0 KECCAK256 PUSH1 0x1F DUP4 ADD PUSH1 0x5 SHR DUP2 ADD PUSH1 0x20 DUP5 LT PUSH2 0x2C7 JUMPI JUMPDEST PUSH1 0x1F DUP11 ADD PUSH1 0x5 SHR DUP3 ADD DUP2 LT PUSH2 0x2BB JUMPI POP POP PUSH2 0x139 JUMP JUMPDEST PUSH1 0x0 DUP2 SSTORE PUSH1 0x1 ADD PUSH2 0x2A5 JUMP JUMPDEST POP DUP1 PUSH2 0x2A5 JUMP JUMPDEST PUSH1 0x41 DUP6 SWAP2 PUSH4 0x4E487B71 PUSH1 0xE0 SHL PUSH1 0x0 MSTORE MSTORE PUSH1 0x0 REVERT JUMPDEST DUP4 PUSH1 0x0 DUP9 PUSH4 0x4E487B71 PUSH1 0xE0 SHL DUP3 MSTORE MSTORE PUSH1 0x0 REVERT JUMPDEST DUP3 PUSH1 0x41 DUP8 PUSH4 0x4E487B71 PUSH1 0xE0 SHL PUSH1 0x0 MSTORE MSTORE PUSH1 0x0 REVERT JUMPDEST PUSH1 0x0 DUP1 REVERT JUMPDEST POP PUSH4 0x4E487B71 PUSH1 0xE0 SHL PUSH1 0x0 SWAP1 DUP2 MSTORE PUSH1 0x41 DUP6 MSTORE REVERT JUMPDEST POP CALLVALUE PUSH2 0x309 JUMPI PUSH1 0x20 CALLDATASIZE PUSH1 0x3 NOT ADD SLT PUSH2 0x309 JUMPI CALLDATALOAD PUSH1 0x0 SLOAD DUP2 LT ISZERO PUSH2 0x309 JUMPI PUSH2 0x34B PUSH2 0x37E SWAP2 PUSH2 0x507 JUMP JUMPDEST POP PUSH2 0x355 DUP2 PUSH2 0x5E2 JUMP JUMPDEST SWAP1 PUSH1 0x1 DUP2 ADD SLOAD SWAP1 PUSH1 0xFF PUSH1 0x3 PUSH1 0x2 DUP4 ADD SLOAD SWAP3 ADD SLOAD AND SWAP1 PUSH1 0x40 MLOAD SWAP5 DUP6 SWAP5 PUSH1 0x80 DUP7 MSTORE PUSH1 0x80 DUP7 ADD SWAP1 PUSH2 0x4C7 JUMP JUMPDEST SWAP3 PUSH1 0x20 DUP6 ADD MSTORE PUSH1 0x40 DUP5 ADD MSTORE ISZERO ISZERO PUSH1 0x60 DUP4 ADD MSTORE SUB SWAP1 RETURN JUMPDEST CALLVALUE PUSH2 0x309 JUMPI PUSH1 0x0 CALLDATASIZE PUSH1 0x3 NOT ADD SLT PUSH2 0x309 JUMPI PUSH1 0x20 PUSH1 0x1 SLOAD PUSH1 0x40 MLOAD SWAP1 DUP2 MSTORE RETURN JUMPDEST CALLVALUE PUSH2 0x309 JUMPI PUSH1 0x0 CALLDATASIZE PUSH1 0x3 NOT ADD SLT PUSH2 0x309 JUMPI PUSH1 0x0 PUSH1 0x60 PUSH1 0x40 MLOAD PUSH2 0x3D3 DUP2 PUSH2 0x58E JUMP JUMPDEST DUP2 DUP2 MSTORE DUP3 PUSH1 0x20 DUP3 ADD MSTORE DUP3 PUSH1 0x40 DUP3 ADD MSTORE ADD MSTORE PUSH2 0x452 PUSH2 0x3F2 PUSH1 0x1 SLOAD PUSH2 0x507 JUMP JUMPDEST POP PUSH1 0x40 MLOAD SWAP1 PUSH2 0x400 DUP3 PUSH2 0x58E JUMP JUMPDEST PUSH2 0x409 DUP2 PUSH2 0x5E2 JUMP JUMPDEST DUP3 MSTORE PUSH1 0x1 DUP2 ADD SLOAD SWAP1 PUSH1 0x20 DUP4 ADD SWAP2 DUP3 MSTORE PUSH1 0xFF PUSH1 0x3 PUSH1 0x2 DUP4 ADD SLOAD SWAP3 PUSH1 0x40 DUP7 ADD SWAP4 DUP5 MSTORE ADD SLOAD AND SWAP1 PUSH1 0x60 DUP5 ADD SWAP2 ISZERO ISZERO DUP3 MSTORE PUSH1 0x40 MLOAD SWAP5 DUP6 SWAP5 PUSH1 0x20 DUP7 MSTORE MLOAD PUSH1 0x80 PUSH1 0x20 DUP8 ADD MSTORE PUSH1 0xA0 DUP7 ADD SWAP1 PUSH2 0x4C7 JUMP JUMPDEST SWAP3 MLOAD PUSH1 0x40 DUP6 ADD MSTORE MLOAD PUSH1 0x60 DUP5 ADD MSTORE MLOAD ISZERO ISZERO PUSH1 0x80 DUP4 ADD MSTORE SUB SWAP1 RETURN JUMPDEST POP CALLVALUE PUSH2 0x309 JUMPI PUSH1 0x20 CALLDATASIZE PUSH1 0x3 NOT ADD SLT PUSH2 0x309 JUMPI PUSH1 0x20 PUSH32 0xE2046D333900871694B2FB421975B907AC5D93052201A0E259FA0664D9DBDF1D SWAP2 CALLDATALOAD PUSH1 0x3 PUSH2 0x4AD DUP3 PUSH2 0x507 JUMP JUMPDEST POP ADD PUSH1 0x1 PUSH1 0xFF NOT DUP3 SLOAD AND OR SWAP1 SSTORE DUP1 PUSH1 0x1 SSTORE PUSH1 0x40 MLOAD SWAP1 DUP2 MSTORE LOG1 STOP JUMPDEST SWAP2 SWAP1 DUP3 MLOAD SWAP3 DUP4 DUP3 MSTORE PUSH1 0x0 JUMPDEST DUP5 DUP2 LT PUSH2 0x4F3 JUMPI POP POP DUP3 PUSH1 0x0 PUSH1 0x20 DUP1 SWAP5 SWAP6 DUP5 ADD ADD MSTORE PUSH1 0x1F DUP1 NOT SWAP2 ADD AND ADD ADD SWAP1 JUMP JUMPDEST PUSH1 0x20 DUP2 DUP4 ADD DUP2 ADD MLOAD DUP5 DUP4 ADD DUP3 ADD MSTORE ADD PUSH2 0x4D2 JUMP JUMPDEST SWAP1 PUSH1 0x0 SWAP2 DUP3 SLOAD DUP2 LT ISZERO PUSH2 0x540 JUMPI DUP3 DUP1 MSTORE PUSH1 0x2 SHL PUSH32 0x290DECD9548B62A8D60345A988386FC84BA6BC95484008F6362F93160EF3E563 ADD SWAP2 SWAP1 JUMP JUMPDEST PUSH4 0x4E487B71 PUSH1 0xE0 SHL DUP4 MSTORE PUSH1 0x32 PUSH1 0x4 MSTORE PUSH1 0x24 DUP4 REVERT JUMPDEST SWAP1 PUSH1 0x1 DUP3 DUP2 SHR SWAP3 AND DUP1 ISZERO PUSH2 0x584 JUMPI JUMPDEST PUSH1 0x20 DUP4 LT EQ PUSH2 0x56E JUMPI JUMP JUMPDEST PUSH4 0x4E487B71 PUSH1 0xE0 SHL PUSH1 0x0 MSTORE PUSH1 0x22 PUSH1 0x4 MSTORE PUSH1 0x24 PUSH1 0x0 REVERT JUMPDEST SWAP2 PUSH1 0x7F AND SWAP2 PUSH2 0x563 JUMP JUMPDEST PUSH1 0x80 DUP2 ADD SWAP1 DUP2 LT PUSH8 0xFFFFFFFFFFFFFFFF DUP3 GT OR PUSH2 0x5AA JUMPI PUSH1 0x40 MSTORE JUMP JUMPDEST PUSH4 0x4E487B71 PUSH1 0xE0 SHL PUSH1 0x0 MSTORE PUSH1 0x41 PUSH1 0x4 MSTORE PUSH1 0x24 PUSH1 0x0 REVERT JUMPDEST SWAP1 PUSH1 0x1F DUP1 NOT SWAP2 ADD AND DUP2 ADD SWAP1 DUP2 LT PUSH8 0xFFFFFFFFFFFFFFFF DUP3 GT OR PUSH2 0x5AA JUMPI PUSH1 0x40 MSTORE JUMP JUMPDEST SWAP1 PUSH1 0x40 MLOAD SWAP2 DUP3 PUSH1 0x0 DUP3 SLOAD PUSH2 0x5F5 DUP2 PUSH2 0x554 JUMP JUMPDEST SWAP1 DUP2 DUP5 MSTORE PUSH1 0x20 SWAP5 PUSH1 0x1 SWAP2 PUSH1 0x1 DUP2 AND SWAP1 DUP2 PUSH1 0x0 EQ PUSH2 0x665 JUMPI POP PUSH1 0x1 EQ PUSH2 0x626 JUMPI JUMPDEST POP POP POP PUSH2 0x624 SWAP3 POP SUB DUP4 PUSH2 0x5C0 JUMP JUMPDEST JUMP JUMPDEST PUSH1 0x0 SWAP1 DUP2 MSTORE DUP6 DUP2 KECCAK256 SWAP6 SWAP4 POP SWAP2 SWAP1 JUMPDEST DUP2 DUP4 LT PUSH2 0x64D JUMPI POP POP PUSH2 0x624 SWAP4 POP DUP3 ADD ADD CODESIZE DUP1 DUP1 PUSH2 0x615 JUMP JUMPDEST DUP6 SLOAD DUP9 DUP5 ADD DUP6 ADD MSTORE SWAP5 DUP6 ADD SWAP5 DUP8 SWAP5 POP SWAP2 DUP4 ADD SWAP2 PUSH2 0x634 JUMP JUMPDEST SWAP3 POP POP POP PUSH2 0x624 SWAP5 SWAP3 POP PUSH1 0xFF NOT AND DUP3 DUP5 ADD MSTORE ISZERO ISZERO PUSH1 0x5 SHL DUP3 ADD ADD CODESIZE DUP1 DUP1 PUSH2 0x615 JUMP INVALID LOG2 PUSH5 0x6970667358 0x22 SLT KECCAK256 PUSH31 0x483BEBAB87C8C2F1EF3126F838474E5358F83AEB65EF74D54B1C69752D5483 PUSH5 0x736F6C6343 STOP ADDMOD XOR STOP CALLER "},"methodIdentifiers":{"createSeason(string,uint256,uint256)":"ff2b76d9","currentSeasonId()":"dc293382","getCurrentSeason()":"d3b30b75","seasons(uint256)":"f5d709a1","startSeason(uint256)":"703dbfe4"}}}}}