{"contracts/Notification.sol":{"NotificationContract":{"abi":[{"anonymous":false,"inputs":[{"indexed":true,"internalType":"address","name":"recipient","type":"address"},{"indexed":false,"internalType":"string","name":"message","type":"string"}],"name":"NotificationSent","type":"event"},{"inputs":[{"internalType":"address","name":"_user","type":"address"}],"name":"getNotifications","outputs":[{"components":[{"internalType":"address","name":"recipient","type":"address"},{"internalType":"string","name":"message","type":"string"},{"internalType":"uint256","name":"timestamp","type":"uint256"},{"internalType":"bool","name":"read","type":"bool"}],"internalType":"struct NotificationContract.Notification[]","name":"","type":"tuple[]"}],"stateMutability":"view","type":"function"},{"inputs":[{"internalType":"address","name":"","type":"address"},{"internalType":"uint256","name":"","type":"uint256"}],"name":"notifications","outputs":[{"internalType":"address","name":"recipient","type":"address"},{"internalType":"string","name":"message","type":"string"},{"internalType":"uint256","name":"timestamp","type":"uint256"},{"internalType":"bool","name":"read","type":"bool"}],"stateMutability":"view","type":"function"},{"inputs":[{"internalType":"address","name":"_recipient","type":"address"},{"internalType":"string","name":"_message","type":"string"}],"name":"sendNotification","outputs":[],"stateMutability":"nonpayable","type":"function"}],"evm":{"bytecode":{"linkReferences":{},"object":"608080604052346100165761071a908161001c8239f35b600080fdfe608060408181526004918236101561001657600080fd5b600090813560e01c90816349f66a2c1461023f5750806365d0bddd146101ab57638a8f63b01461004557600080fd5b346101a857602092836003193601126101a4576001600160a01b03938461006a610524565b16835282815283832092835467ffffffffffffffff8111610191578593929193519261009b838360051b0185610571565b8184528284018096865283862086915b84831061013c575050505050845194818601928287525180935280860190808460051b8801019594975b8489106100e25787870388f35b9091929394958480600192603f198b82030187528951906101166080878451168352848401519080868501528301906106a4565b9187810151888301526060809101511515910152980194019801979190949392946100d5565b83866001928d8d9b999a9b51906101528261053f565b86541681526101628587016105ff565b838201528d60028701549082015260ff60038701541615156060820152815201920192019190969594966100ab565b634e487b7160e01b825260418452602482fd5b5080fd5b80fd5b5090346101a457806003193601126101a4576101c5610524565b6001600160a01b039081168352602083905281832080549193602435928310156101a85750906101f491610593565b509182541690610206600184016105ff565b9260ff600360028301549201541690610230835195869586526080602087015260808601906106a4565b92840152151560608301520390f35b919390503461052057826003193601126105205761025b610524565b9260249182359467ffffffffffffffff9384871161051c573660238801121561051c57868301359480861161050a579088939291602096601f19996102a7898c601f850116018b610571565b818a523684838301011161050657818792858b9301838d01378a01015260018060a01b0380931698898652858852868620908751956102e58761053f565b8b8752898701948b86528988019642885260608901998a528454680100000000000000008110156104f357610321906001968782018155610593565b9990996104e15751166bffffffffffffffffffffffff60a01b89541617885583880195519182519586116104d05750508c8a61035d87546105c5565b91601f8311610488575b915050508c8a92601f86116001146103fc575093806103eb9997946003979482947f2a7838cbc4deb7bf40319be175f9abfbd110b62bcdfd6dea91b9d3fc6b5db2d39f9e9d9b98946103f1575b50501b9160001990871b1c19161790555b516002820155019051151560ff80198354169116179055519282849384528301906106a4565b0390a280f35b0151925038806103b4565b85949593929193168684528b8420935b8181106104735750927f2a7838cbc4deb7bf40319be175f9abfbd110b62bcdfd6dea91b9d3fc6b5db2d39c9b9a98959285926103eb9b9996600399961061045b575b505050811b0190556103c5565b015160001983891b60f8161c1916905538808061044e565b82840151855593860193928c01928c0161040c565b87815220601f860160051c8101918c87106104c6575b601f0160051c019084908f5b8382106104bb5790508c9150610367565b81550184908f6104aa565b909150819061049e565b634e487b7160e01b8f52604190528dfd5b5050634e487b7160e01b8e528d82528dfd5b5050634e487b7160e01b8e52604182528dfd5b8680fd5b50634e487b7160e01b88526041835287fd5b8780fd5b8380fd5b600435906001600160a01b038216820361053a57565b600080fd5b6080810190811067ffffffffffffffff82111761055b57604052565b634e487b7160e01b600052604160045260246000fd5b90601f8019910116810190811067ffffffffffffffff82111761055b57604052565b80548210156105af5760005260206000209060021b0190600090565b634e487b7160e01b600052603260045260246000fd5b90600182811c921680156105f5575b60208310146105df57565b634e487b7160e01b600052602260045260246000fd5b91607f16916105d4565b90604051918260008254610612816105c5565b908184526020946001916001811690816000146106825750600114610643575b50505061064192500383610571565b565b600090815285812095935091905b81831061066a5750506106419350820101388080610632565b85548884018501529485019487945091830191610651565b9250505061064194925060ff191682840152151560051b820101388080610632565b919082519283825260005b8481106106d0575050826000602080949584010152601f8019910116010190565b6020818301810151848301820152016106af56fea2646970667358221220381fe51cd24614cee8a3aff5659a63136821458b2b0330e86b84e8b4c24c7b0164736f6c63430008180033","opcodes":"PUSH1 0x80 DUP1 PUSH1 0x40 MSTORE CALLVALUE PUSH2 0x16 JUMPI PUSH2 0x71A SWAP1 DUP2 PUSH2 0x1C DUP3 CODECOPY RETURN JUMPDEST PUSH1 0x0 DUP1 REVERT INVALID PUSH1 0x80 PUSH1 0x40 DUP2 DUP2 MSTORE PUSH1 0x4 SWAP2 DUP3 CALLDATASIZE LT ISZERO PUSH2 0x16 JUMPI PUSH1 0x0 DUP1 REVERT JUMPDEST PUSH1 0x0 SWAP1 DUP2 CALLDATALOAD PUSH1 0xE0 SHR SWAP1 DUP2 PUSH4 0x49F66A2C EQ PUSH2 0x23F JUMPI POP DUP1 PUSH4 0x65D0BDDD EQ PUSH2 0x1AB JUMPI PUSH4 0x8A8F63B0 EQ PUSH2 0x45 JUMPI PUSH1 0x0 DUP1 REVERT JUMPDEST CALLVALUE PUSH2 0x1A8 JUMPI PUSH1 0x20 SWAP3 DUP4 PUSH1 0x3 NOT CALLDATASIZE ADD SLT PUSH2 0x1A4 JUMPI PUSH1 0x1 PUSH1 0x1 PUSH1 0xA0 SHL SUB SWAP4 DUP5 PUSH2 0x6A PUSH2 0x524 JUMP JUMPDEST AND DUP4 MSTORE DUP3 DUP2 MSTORE DUP4 DUP4 KECCAK256 SWAP3 DUP4 SLOAD PUSH8 0xFFFFFFFFFFFFFFFF DUP2 GT PUSH2 0x191 JUMPI DUP6 SWAP4 SWAP3 SWAP2 SWAP4 MLOAD SWAP3 PUSH2 0x9B DUP4 DUP4 PUSH1 0x5 SHL ADD DUP6 PUSH2 0x571 JUMP JUMPDEST DUP2 DUP5 MSTORE DUP3 DUP5 ADD DUP1 SWAP7 DUP7 MSTORE DUP4 DUP7 KECCAK256 DUP7 SWAP2 JUMPDEST DUP5 DUP4 LT PUSH2 0x13C JUMPI POP POP POP POP POP DUP5 MLOAD SWAP5 DUP2 DUP7 ADD SWAP3 DUP3 DUP8 MSTORE MLOAD DUP1 SWAP4 MSTORE DUP1 DUP7 ADD SWAP1 DUP1 DUP5 PUSH1 0x5 SHL DUP9 ADD ADD SWAP6 SWAP5 SWAP8 JUMPDEST DUP5 DUP10 LT PUSH2 0xE2 JUMPI DUP8 DUP8 SUB DUP9 RETURN JUMPDEST SWAP1 SWAP2 SWAP3 SWAP4 SWAP5 SWAP6 DUP5 DUP1 PUSH1 0x1 SWAP3 PUSH1 0x3F NOT DUP12 DUP3 SUB ADD DUP8 MSTORE DUP10 MLOAD SWAP1 PUSH2 0x116 PUSH1 0x80 DUP8 DUP5 MLOAD AND DUP4 MSTORE DUP5 DUP5 ADD MLOAD SWAP1 DUP1 DUP7 DUP6 ADD MSTORE DUP4 ADD SWAP1 PUSH2 0x6A4 JUMP JUMPDEST SWAP2 DUP8 DUP2 ADD MLOAD DUP9 DUP4 ADD MSTORE PUSH1 0x60 DUP1 SWAP2 ADD MLOAD ISZERO ISZERO SWAP2 ADD MSTORE SWAP9 ADD SWAP5 ADD SWAP9 ADD SWAP8 SWAP2 SWAP1 SWAP5 SWAP4 SWAP3 SWAP5 PUSH2 0xD5 JUMP JUMPDEST DUP4 DUP7 PUSH1 0x1 SWAP3 DUP14 DUP14 SWAP12 SWAP10 SWAP11 SWAP12 MLOAD SWAP1 PUSH2 0x152 DUP3 PUSH2 0x53F JUMP JUMPDEST DUP7 SLOAD AND DUP2 MSTORE PUSH2 0x162 DUP6 DUP8 ADD PUSH2 0x5FF JUMP JUMPDEST DUP4 DUP3 ADD MSTORE DUP14 PUSH1 0x2 DUP8 ADD SLOAD SWAP1 DUP3 ADD MSTORE PUSH1 0xFF PUSH1 0x3 DUP8 ADD SLOAD AND ISZERO ISZERO PUSH1 0x60 DUP3 ADD MSTORE DUP2 MSTORE ADD SWAP3 ADD SWAP3 ADD SWAP2 SWAP1 SWAP7 SWAP6 SWAP5 SWAP7 PUSH2 0xAB JUMP JUMPDEST PUSH4 0x4E487B71 PUSH1 0xE0 SHL DUP3 MSTORE PUSH1 0x41 DUP5 MSTORE PUSH1 0x24 DUP3 REVERT JUMPDEST POP DUP1 REVERT JUMPDEST DUP1 REVERT JUMPDEST POP SWAP1 CALLVALUE PUSH2 0x1A4 JUMPI DUP1 PUSH1 0x3 NOT CALLDATASIZE ADD SLT PUSH2 0x1A4 JUMPI PUSH2 0x1C5 PUSH2 0x524 JUMP JUMPDEST PUSH1 0x1 PUSH1 0x1 PUSH1 0xA0 SHL SUB SWAP1 DUP2 AND DUP4 MSTORE PUSH1 0x20 DUP4 SWAP1 MSTORE DUP2 DUP4 KECCAK256 DUP1 SLOAD SWAP2 SWAP4 PUSH1 0x24 CALLDATALOAD SWAP3 DUP4 LT ISZERO PUSH2 0x1A8 JUMPI POP SWAP1 PUSH2 0x1F4 SWAP2 PUSH2 0x593 JUMP JUMPDEST POP SWAP2 DUP3 SLOAD AND SWAP1 PUSH2 0x206 PUSH1 0x1 DUP5 ADD PUSH2 0x5FF JUMP JUMPDEST SWAP3 PUSH1 0xFF PUSH1 0x3 PUSH1 0x2 DUP4 ADD SLOAD SWAP3 ADD SLOAD AND SWAP1 PUSH2 0x230 DUP4 MLOAD SWAP6 DUP7 SWAP6 DUP7 MSTORE PUSH1 0x80 PUSH1 0x20 DUP8 ADD MSTORE PUSH1 0x80 DUP7 ADD SWAP1 PUSH2 0x6A4 JUMP JUMPDEST SWAP3 DUP5 ADD MSTORE ISZERO ISZERO PUSH1 0x60 DUP4 ADD MSTORE SUB SWAP1 RETURN JUMPDEST SWAP2 SWAP4 SWAP1 POP CALLVALUE PUSH2 0x520 JUMPI DUP3 PUSH1 0x3 NOT CALLDATASIZE ADD SLT PUSH2 0x520 JUMPI PUSH2 0x25B PUSH2 0x524 JUMP JUMPDEST SWAP3 PUSH1 0x24 SWAP2 DUP3 CALLDATALOAD SWAP5 PUSH8 0xFFFFFFFFFFFFFFFF SWAP4 DUP5 DUP8 GT PUSH2 0x51C JUMPI CALLDATASIZE PUSH1 0x23 DUP9 ADD SLT ISZERO PUSH2 0x51C JUMPI DUP7 DUP4 ADD CALLDATALOAD SWAP5 DUP1 DUP7 GT PUSH2 0x50A JUMPI SWAP1 DUP9 SWAP4 SWAP3 SWAP2 PUSH1 0x20 SWAP7 PUSH1 0x1F NOT SWAP10 PUSH2 0x2A7 DUP10 DUP13 PUSH1 0x1F DUP6 ADD AND ADD DUP12 PUSH2 0x571 JUMP JUMPDEST DUP2 DUP11 MSTORE CALLDATASIZE DUP5 DUP4 DUP4 ADD ADD GT PUSH2 0x506 JUMPI DUP2 DUP8 SWAP3 DUP6 DUP12 SWAP4 ADD DUP4 DUP14 ADD CALLDATACOPY DUP11 ADD ADD MSTORE PUSH1 0x1 DUP1 PUSH1 0xA0 SHL SUB DUP1 SWAP4 AND SWAP9 DUP10 DUP7 MSTORE DUP6 DUP9 MSTORE DUP7 DUP7 KECCAK256 SWAP1 DUP8 MLOAD SWAP6 PUSH2 0x2E5 DUP8 PUSH2 0x53F JUMP JUMPDEST DUP12 DUP8 MSTORE DUP10 DUP8 ADD SWAP5 DUP12 DUP7 MSTORE DUP10 DUP9 ADD SWAP7 TIMESTAMP DUP9 MSTORE PUSH1 0x60 DUP10 ADD SWAP10 DUP11 MSTORE DUP5 SLOAD PUSH9 0x10000000000000000 DUP2 LT ISZERO PUSH2 0x4F3 JUMPI PUSH2 0x321 SWAP1 PUSH1 0x1 SWAP7 DUP8 DUP3 ADD DUP2 SSTORE PUSH2 0x593 JUMP JUMPDEST SWAP10 SWAP1 SWAP10 PUSH2 0x4E1 JUMPI MLOAD AND PUSH12 0xFFFFFFFFFFFFFFFFFFFFFFFF PUSH1 0xA0 SHL DUP10 SLOAD AND OR DUP9 SSTORE DUP4 DUP9 ADD SWAP6 MLOAD SWAP2 DUP3 MLOAD SWAP6 DUP7 GT PUSH2 0x4D0 JUMPI POP POP DUP13 DUP11 PUSH2 0x35D DUP8 SLOAD PUSH2 0x5C5 JUMP JUMPDEST SWAP2 PUSH1 0x1F DUP4 GT PUSH2 0x488 JUMPI JUMPDEST SWAP2 POP POP POP DUP13 DUP11 SWAP3 PUSH1 0x1F DUP7 GT PUSH1 0x1 EQ PUSH2 0x3FC JUMPI POP SWAP4 DUP1 PUSH2 0x3EB SWAP10 SWAP8 SWAP5 PUSH1 0x3 SWAP8 SWAP5 DUP3 SWAP5 PUSH32 0x2A7838CBC4DEB7BF40319BE175F9ABFBD110B62BCDFD6DEA91B9D3FC6B5DB2D3 SWAP16 SWAP15 SWAP14 SWAP12 SWAP9 SWAP5 PUSH2 0x3F1 JUMPI JUMPDEST POP POP SHL SWAP2 PUSH1 0x0 NOT SWAP1 DUP8 SHL SHR NOT AND OR SWAP1 SSTORE JUMPDEST MLOAD PUSH1 0x2 DUP3 ADD SSTORE ADD SWAP1 MLOAD ISZERO ISZERO PUSH1 0xFF DUP1 NOT DUP4 SLOAD AND SWAP2 AND OR SWAP1 SSTORE MLOAD SWAP3 DUP3 DUP5 SWAP4 DUP5 MSTORE DUP4 ADD SWAP1 PUSH2 0x6A4 JUMP JUMPDEST SUB SWAP1 LOG2 DUP1 RETURN JUMPDEST ADD MLOAD SWAP3 POP CODESIZE DUP1 PUSH2 0x3B4 JUMP JUMPDEST DUP6 SWAP5 SWAP6 SWAP4 SWAP3 SWAP2 SWAP4 AND DUP7 DUP5 MSTORE DUP12 DUP5 KECCAK256 SWAP4 JUMPDEST DUP2 DUP2 LT PUSH2 0x473 JUMPI POP SWAP3 PUSH32 0x2A7838CBC4DEB7BF40319BE175F9ABFBD110B62BCDFD6DEA91B9D3FC6B5DB2D3 SWAP13 SWAP12 SWAP11 SWAP9 SWAP6 SWAP3 DUP6 SWAP3 PUSH2 0x3EB SWAP12 SWAP10 SWAP7 PUSH1 0x3 SWAP10 SWAP7 LT PUSH2 0x45B JUMPI JUMPDEST POP POP POP DUP2 SHL ADD SWAP1 SSTORE PUSH2 0x3C5 JUMP JUMPDEST ADD MLOAD PUSH1 0x0 NOT DUP4 DUP10 SHL PUSH1 0xF8 AND SHR NOT AND SWAP1 SSTORE CODESIZE DUP1 DUP1 PUSH2 0x44E JUMP JUMPDEST DUP3 DUP5 ADD MLOAD DUP6 SSTORE SWAP4 DUP7 ADD SWAP4 SWAP3 DUP13 ADD SWAP3 DUP13 ADD PUSH2 0x40C JUMP JUMPDEST DUP8 DUP2 MSTORE KECCAK256 PUSH1 0x1F DUP7 ADD PUSH1 0x5 SHR DUP2 ADD SWAP2 DUP13 DUP8 LT PUSH2 0x4C6 JUMPI JUMPDEST PUSH1 0x1F ADD PUSH1 0x5 SHR ADD SWAP1 DUP5 SWAP1 DUP16 JUMPDEST DUP4 DUP3 LT PUSH2 0x4BB JUMPI SWAP1 POP DUP13 SWAP2 POP PUSH2 0x367 JUMP JUMPDEST DUP2 SSTORE ADD DUP5 SWAP1 DUP16 PUSH2 0x4AA JUMP JUMPDEST SWAP1 SWAP2 POP DUP2 SWAP1 PUSH2 0x49E JUMP JUMPDEST PUSH4 0x4E487B71 PUSH1 0xE0 SHL DUP16 MSTORE PUSH1 0x41 SWAP1 MSTORE DUP14 REVERT JUMPDEST POP POP PUSH4 0x4E487B71 PUSH1 0xE0 SHL DUP15 MSTORE DUP14 DUP3 MSTORE DUP14 REVERT JUMPDEST POP POP PUSH4 0x4E487B71 PUSH1 0xE0 SHL DUP15 MSTORE PUSH1 0x41 DUP3 MSTORE DUP14 REVERT JUMPDEST DUP7 DUP1 REVERT JUMPDEST POP PUSH4 0x4E487B71 PUSH1 0xE0 SHL DUP9 MSTORE PUSH1 0x41 DUP4 MSTORE DUP8 REVERT JUMPDEST DUP8 DUP1 REVERT JUMPDEST DUP4 DUP1 REVERT JUMPDEST PUSH1 0x4 CALLDATALOAD SWAP1 PUSH1 0x1 PUSH1 0x1 PUSH1 0xA0 SHL SUB DUP3 AND DUP3 SUB PUSH2 0x53A JUMPI JUMP JUMPDEST PUSH1 0x0 DUP1 REVERT JUMPDEST PUSH1 0x80 DUP2 ADD SWAP1 DUP2 LT PUSH8 0xFFFFFFFFFFFFFFFF DUP3 GT OR PUSH2 0x55B JUMPI PUSH1 0x40 MSTORE JUMP JUMPDEST PUSH4 0x4E487B71 PUSH1 0xE0 SHL PUSH1 0x0 MSTORE PUSH1 0x41 PUSH1 0x4 MSTORE PUSH1 0x24 PUSH1 0x0 REVERT JUMPDEST SWAP1 PUSH1 0x1F DUP1 NOT SWAP2 ADD AND DUP2 ADD SWAP1 DUP2 LT PUSH8 0xFFFFFFFFFFFFFFFF DUP3 GT OR PUSH2 0x55B JUMPI PUSH1 0x40 MSTORE JUMP JUMPDEST DUP1 SLOAD DUP3 LT ISZERO PUSH2 0x5AF JUMPI PUSH1 0x0 MSTORE PUSH1 0x20 PUSH1 0x0 KECCAK256 SWAP1 PUSH1 0x2 SHL ADD SWAP1 PUSH1 0x0 SWAP1 JUMP JUMPDEST PUSH4 0x4E487B71 PUSH1 0xE0 SHL PUSH1 0x0 MSTORE PUSH1 0x32 PUSH1 0x4 MSTORE PUSH1 0x24 PUSH1 0x0 REVERT JUMPDEST SWAP1 PUSH1 0x1 DUP3 DUP2 SHR SWAP3 AND DUP1 ISZERO PUSH2 0x5F5 JUMPI JUMPDEST PUSH1 0x20 DUP4 LT EQ PUSH2 0x5DF JUMPI JUMP JUMPDEST PUSH4 0x4E487B71 PUSH1 0xE0 SHL PUSH1 0x0 MSTORE PUSH1 0x22 PUSH1 0x4 MSTORE PUSH1 0x24 PUSH1 0x0 REVERT JUMPDEST SWAP2 PUSH1 0x7F AND SWAP2 PUSH2 0x5D4 JUMP JUMPDEST SWAP1 PUSH1 0x40 MLOAD SWAP2 DUP3 PUSH1 0x0 DUP3 SLOAD PUSH2 0x612 DUP2 PUSH2 0x5C5 JUMP JUMPDEST SWAP1 DUP2 DUP5 MSTORE PUSH1 0x20 SWAP5 PUSH1 0x1 SWAP2 PUSH1 0x1 DUP2 AND SWAP1 DUP2 PUSH1 0x0 EQ PUSH2 0x682 JUMPI POP PUSH1 0x1 EQ PUSH2 0x643 JUMPI JUMPDEST POP POP POP PUSH2 0x641 SWAP3 POP SUB DUP4 PUSH2 0x571 JUMP JUMPDEST JUMP JUMPDEST PUSH1 0x0 SWAP1 DUP2 MSTORE DUP6 DUP2 KECCAK256 SWAP6 SWAP4 POP SWAP2 SWAP1 JUMPDEST DUP2 DUP4 LT PUSH2 0x66A JUMPI POP POP PUSH2 0x641 SWAP4 POP DUP3 ADD ADD CODESIZE DUP1 DUP1 PUSH2 0x632 JUMP JUMPDEST DUP6 SLOAD DUP9 DUP5 ADD DUP6 ADD MSTORE SWAP5 DUP6 ADD SWAP5 DUP8 SWAP5 POP SWAP2 DUP4 ADD SWAP2 PUSH2 0x651 JUMP JUMPDEST SWAP3 POP POP POP PUSH2 0x641 SWAP5 SWAP3 POP PUSH1 0xFF NOT AND DUP3 DUP5 ADD MSTORE ISZERO ISZERO PUSH1 0x5 SHL DUP3 ADD ADD CODESIZE DUP1 DUP1 PUSH2 0x632 JUMP JUMPDEST SWAP2 SWAP1 DUP3 MLOAD SWAP3 DUP4 DUP3 MSTORE PUSH1 0x0 JUMPDEST DUP5 DUP2 LT PUSH2 0x6D0 JUMPI POP POP DUP3 PUSH1 0x0 PUSH1 0x20 DUP1 SWAP5 SWAP6 DUP5 ADD ADD MSTORE PUSH1 0x1F DUP1 NOT SWAP2 ADD AND ADD ADD SWAP1 JUMP JUMPDEST PUSH1 0x20 DUP2 DUP4 ADD DUP2 ADD MLOAD DUP5 DUP4 ADD DUP3 ADD MSTORE ADD PUSH2 0x6AF JUMP INVALID LOG2 PUSH5 0x6970667358 0x22 SLT KECCAK256 CODESIZE 0x1F 0xE5 SHR 0xD2 CHAINID EQ 0xCE 0xE8 LOG3 0xAF CREATE2 PUSH6 0x9A6313682145 DUP12 0x2B SUB ADDRESS 0xE8 PUSH12 0x84E8B4C24C7B0164736F6C63 NUMBER STOP ADDMOD XOR STOP CALLER "},"methodIdentifiers":{"getNotifications(address)":"8a8f63b0","notifications(address,uint256)":"65d0bddd","sendNotification(address,string)":"49f66a2c"}}}}}