{"contracts/Timelock.sol":{"TimelockController":{"abi":[{"anonymous":false,"inputs":[{"indexed":true,"internalType":"bytes32","name":"txId","type":"bytes32"}],"name":"TransactionExecuted","type":"event"},{"anonymous":false,"inputs":[{"indexed":true,"internalType":"bytes32","name":"txId","type":"bytes32"},{"indexed":false,"internalType":"address","name":"to","type":"address"},{"indexed":false,"internalType":"uint256","name":"value","type":"uint256"},{"indexed":false,"internalType":"uint256","name":"executionTime","type":"uint256"}],"name":"TransactionQueued","type":"event"},{"inputs":[],"name":"DELAY","outputs":[{"internalType":"uint256","name":"","type":"uint256"}],"stateMutability":"view","type":"function"},{"inputs":[{"internalType":"bytes32","name":"_txId","type":"bytes32"}],"name":"executeTransaction","outputs":[],"stateMutability":"nonpayable","type":"function"},{"inputs":[{"internalType":"address","name":"_to","type":"address"},{"internalType":"uint256","name":"_value","type":"uint256"},{"internalType":"bytes","name":"_data","type":"bytes"}],"name":"queueTransaction","outputs":[{"internalType":"bytes32","name":"","type":"bytes32"}],"stateMutability":"nonpayable","type":"function"},{"inputs":[{"internalType":"uint256","name":"","type":"uint256"}],"name":"transactionIds","outputs":[{"internalType":"bytes32","name":"","type":"bytes32"}],"stateMutability":"view","type":"function"},{"inputs":[{"internalType":"bytes32","name":"","type":"bytes32"}],"name":"transactions","outputs":[{"internalType":"address","name":"to","type":"address"},{"internalType":"uint256","name":"value","type":"uint256"},{"internalType":"bytes","name":"data","type":"bytes"},{"internalType":"uint256","name":"executionTime","type":"uint256"},{"internalType":"bool","name":"executed","type":"bool"}],"stateMutability":"view","type":"function"}],"evm":{"bytecode":{"linkReferences":{},"object":"6080806040523461001657610812908161001c8239f35b600080fdfe608080604052600436101561001357600080fd5b60003560e01c908163642f2eaf146105d05750806369b41170146105b257806380b3b09914610275578063c69ed5f2146100925763e36f8dc51461005657600080fd5b3461008d57602036600319011261008d5760043560015481101561008d5761007f60209161078f565b90546040519160031b1c8152f35b600080fd5b3461008d5760208060031936011261008d57600435908160005260008152604060002060038101544210610244576004810180549160ff831661020c57600191600160ff1980951617905560018060a01b038154169260026001830154920190604051936000928054610104816106f4565b93600182169182156101f55750506001146101ba575b505050916000939181859403925af13d156101b5573d61013981610773565b90610147604051928361072e565b81526000833d92013e5b1561017e57507f862d83c6c5af275e697bfd4e27c8323c196b44bdd011dd9aaab6db0ec9943dce600080a2005b6064906040519062461bcd60e51b82526004820152601060248201526f115e1958dd5d1a5bdb8819985a5b195960821b6044820152fd5b610151565b909192506000528560002090866000925b8484106101e35750505090830190508183600061011a565b805487850152920191879082016101cb565b16875250505080151502830190508183600061011a565b60405162461bcd60e51b815260048101859052601060248201526f105b1c9958591e48195e1958dd5d195960821b6044820152606490fd5b60405162461bcd60e51b81526004810183905260096024820152684e6f7420726561647960b81b6044820152606490fd5b3461008d57606036600319011261008d576001600160a01b03600435818116810361008d576044359067ffffffffffffffff80831161008d573660238401121561008d578260040135926102c884610773565b936102d6604051958661072e565b8085526020850191366024838301011161008d578160009260246020930185378601015260405161034c60748260208101946bffffffffffffffffffffffff198860601b1686526024356034830152610336895180926054850190610750565b810142605482015203605481018452018261072e565b519020926202a3004201421161059c576040519160a08301838110828211176104c157604052858416835260208301916024358352604084019081526202a3004201606085015260006080850152856000526000602052604060002092878551166bffffffffffffffffffffffff60a01b8554161784555160018401555180519182116104c1576103e060028401546106f4565b601f8111610555575b50602090601f83116001146104e2579180608094926004946000926104d7575b50508160011b916000199060031b1c19161760028201555b6060840151600382015501910151151560ff8019835416911617905560015492680100000000000000008410156104c157606083927f7519d8853a123928eedd53667daaff4654e17e3156685ee5d16f01e07cad01099261048a8760016020990160015561078f565b81549060031b9087821b91600019901b191617905560405191168152602435868201526202a30042016040820152a2604051908152f35b634e487b7160e01b600052604160045260246000fd5b015190508980610409565b90601f198316916002850160005260206000209260005b81811061053d57509260019285926004966080989610610524575b505050811b016002820155610421565b015160001960f88460031b161c19169055898080610514565b929360206001819287860151815501950193016104f9565b600284016000526020600020601f840160051c810160208510610595575b601f830160051c820181106105895750506103e9565b60008155600101610573565b5080610573565b634e487b7160e01b600052601160045260246000fd5b3461008d57600036600319011261008d5760206040516202a3008152f35b3461008d576020908160031936011261008d5760043560005260008252604060002060018060a01b038154169060019060018101549060028101946000958781549561061b876106f4565b92838552828501976001811690816000146106d6575060011461069b575b505050508061064f6106819260c098038261072e565b60ff600460038501549401541693604051988997885287015260a060408701525180948160a088015287870190610750565b606084015215156080830152601f01601f19168101030190f35b600090815282812092995092915b8284106106c35750505081019095019480878160c0610639565b80548585018b01529289019281016106a9565b60ff1916895250505090151560051b820101955080878160c0610639565b90600182811c92168015610724575b602083101461070e57565b634e487b7160e01b600052602260045260246000fd5b91607f1691610703565b90601f8019910116810190811067ffffffffffffffff8211176104c157604052565b60005b8381106107635750506000910152565b8181015183820152602001610753565b67ffffffffffffffff81116104c157601f01601f191660200190565b6001548110156107c65760016000527fb10e2d527612073b26eecdfd717e6a320cf44b4afac2b0732d9fcbe2b7fa0cf60190600090565b634e487b7160e01b600052603260045260246000fdfea264697066735822122090960728d72e5224000667931d719df8fe485232954073f6328091b39d224d6964736f6c63430008180033","opcodes":"PUSH1 0x80 DUP1 PUSH1 0x40 MSTORE CALLVALUE PUSH2 0x16 JUMPI PUSH2 0x812 SWAP1 DUP2 PUSH2 0x1C DUP3 CODECOPY RETURN JUMPDEST PUSH1 0x0 DUP1 REVERT INVALID PUSH1 0x80 DUP1 PUSH1 0x40 MSTORE PUSH1 0x4 CALLDATASIZE LT ISZERO PUSH2 0x13 JUMPI PUSH1 0x0 DUP1 REVERT JUMPDEST PUSH1 0x0 CALLDATALOAD PUSH1 0xE0 SHR SWAP1 DUP2 PUSH4 0x642F2EAF EQ PUSH2 0x5D0 JUMPI POP DUP1 PUSH4 0x69B41170 EQ PUSH2 0x5B2 JUMPI DUP1 PUSH4 0x80B3B099 EQ PUSH2 0x275 JUMPI DUP1 PUSH4 0xC69ED5F2 EQ PUSH2 0x92 JUMPI PUSH4 0xE36F8DC5 EQ PUSH2 0x56 JUMPI PUSH1 0x0 DUP1 REVERT JUMPDEST CALLVALUE PUSH2 0x8D JUMPI PUSH1 0x20 CALLDATASIZE PUSH1 0x3 NOT ADD SLT PUSH2 0x8D JUMPI PUSH1 0x4 CALLDATALOAD PUSH1 0x1 SLOAD DUP2 LT ISZERO PUSH2 0x8D JUMPI PUSH2 0x7F PUSH1 0x20 SWAP2 PUSH2 0x78F JUMP JUMPDEST SWAP1 SLOAD PUSH1 0x40 MLOAD SWAP2 PUSH1 0x3 SHL SHR DUP2 MSTORE RETURN JUMPDEST PUSH1 0x0 DUP1 REVERT JUMPDEST CALLVALUE PUSH2 0x8D JUMPI PUSH1 0x20 DUP1 PUSH1 0x3 NOT CALLDATASIZE ADD SLT PUSH2 0x8D JUMPI PUSH1 0x4 CALLDATALOAD SWAP1 DUP2 PUSH1 0x0 MSTORE PUSH1 0x0 DUP2 MSTORE PUSH1 0x40 PUSH1 0x0 KECCAK256 PUSH1 0x3 DUP2 ADD SLOAD TIMESTAMP LT PUSH2 0x244 JUMPI PUSH1 0x4 DUP2 ADD DUP1 SLOAD SWAP2 PUSH1 0xFF DUP4 AND PUSH2 0x20C JUMPI PUSH1 0x1 SWAP2 PUSH1 0x1 PUSH1 0xFF NOT DUP1 SWAP6 AND OR SWAP1 SSTORE PUSH1 0x1 DUP1 PUSH1 0xA0 SHL SUB DUP2 SLOAD AND SWAP3 PUSH1 0x2 PUSH1 0x1 DUP4 ADD SLOAD SWAP3 ADD SWAP1 PUSH1 0x40 MLOAD SWAP4 PUSH1 0x0 SWAP3 DUP1 SLOAD PUSH2 0x104 DUP2 PUSH2 0x6F4 JUMP JUMPDEST SWAP4 PUSH1 0x1 DUP3 AND SWAP2 DUP3 ISZERO PUSH2 0x1F5 JUMPI POP POP PUSH1 0x1 EQ PUSH2 0x1BA JUMPI JUMPDEST POP POP POP SWAP2 PUSH1 0x0 SWAP4 SWAP2 DUP2 DUP6 SWAP5 SUB SWAP3 GAS CALL RETURNDATASIZE ISZERO PUSH2 0x1B5 JUMPI RETURNDATASIZE PUSH2 0x139 DUP2 PUSH2 0x773 JUMP JUMPDEST SWAP1 PUSH2 0x147 PUSH1 0x40 MLOAD SWAP3 DUP4 PUSH2 0x72E JUMP JUMPDEST DUP2 MSTORE PUSH1 0x0 DUP4 RETURNDATASIZE SWAP3 ADD RETURNDATACOPY JUMPDEST ISZERO PUSH2 0x17E JUMPI POP PUSH32 0x862D83C6C5AF275E697BFD4E27C8323C196B44BDD011DD9AAAB6DB0EC9943DCE PUSH1 0x0 DUP1 LOG2 STOP JUMPDEST PUSH1 0x64 SWAP1 PUSH1 0x40 MLOAD SWAP1 PUSH3 0x461BCD PUSH1 0xE5 SHL DUP3 MSTORE PUSH1 0x4 DUP3 ADD MSTORE PUSH1 0x10 PUSH1 0x24 DUP3 ADD MSTORE PUSH16 0x115E1958DD5D1A5BDB8819985A5B1959 PUSH1 0x82 SHL PUSH1 0x44 DUP3 ADD MSTORE REVERT JUMPDEST PUSH2 0x151 JUMP JUMPDEST SWAP1 SWAP2 SWAP3 POP PUSH1 0x0 MSTORE DUP6 PUSH1 0x0 KECCAK256 SWAP1 DUP7 PUSH1 0x0 SWAP3 JUMPDEST DUP5 DUP5 LT PUSH2 0x1E3 JUMPI POP POP POP SWAP1 DUP4 ADD SWAP1 POP DUP2 DUP4 PUSH1 0x0 PUSH2 0x11A JUMP JUMPDEST DUP1 SLOAD DUP8 DUP6 ADD MSTORE SWAP3 ADD SWAP2 DUP8 SWAP1 DUP3 ADD PUSH2 0x1CB JUMP JUMPDEST AND DUP8 MSTORE POP POP POP DUP1 ISZERO ISZERO MUL DUP4 ADD SWAP1 POP DUP2 DUP4 PUSH1 0x0 PUSH2 0x11A JUMP JUMPDEST PUSH1 0x40 MLOAD PUSH3 0x461BCD PUSH1 0xE5 SHL DUP2 MSTORE PUSH1 0x4 DUP2 ADD DUP6 SWAP1 MSTORE PUSH1 0x10 PUSH1 0x24 DUP3 ADD MSTORE PUSH16 0x105B1C9958591E48195E1958DD5D1959 PUSH1 0x82 SHL PUSH1 0x44 DUP3 ADD MSTORE PUSH1 0x64 SWAP1 REVERT JUMPDEST PUSH1 0x40 MLOAD PUSH3 0x461BCD PUSH1 0xE5 SHL DUP2 MSTORE PUSH1 0x4 DUP2 ADD DUP4 SWAP1 MSTORE PUSH1 0x9 PUSH1 0x24 DUP3 ADD MSTORE PUSH9 0x4E6F74207265616479 PUSH1 0xB8 SHL PUSH1 0x44 DUP3 ADD MSTORE PUSH1 0x64 SWAP1 REVERT JUMPDEST CALLVALUE PUSH2 0x8D JUMPI PUSH1 0x60 CALLDATASIZE PUSH1 0x3 NOT ADD SLT PUSH2 0x8D JUMPI PUSH1 0x1 PUSH1 0x1 PUSH1 0xA0 SHL SUB PUSH1 0x4 CALLDATALOAD DUP2 DUP2 AND DUP2 SUB PUSH2 0x8D JUMPI PUSH1 0x44 CALLDATALOAD SWAP1 PUSH8 0xFFFFFFFFFFFFFFFF DUP1 DUP4 GT PUSH2 0x8D JUMPI CALLDATASIZE PUSH1 0x23 DUP5 ADD SLT ISZERO PUSH2 0x8D JUMPI DUP3 PUSH1 0x4 ADD CALLDATALOAD SWAP3 PUSH2 0x2C8 DUP5 PUSH2 0x773 JUMP JUMPDEST SWAP4 PUSH2 0x2D6 PUSH1 0x40 MLOAD SWAP6 DUP7 PUSH2 0x72E JUMP JUMPDEST DUP1 DUP6 MSTORE PUSH1 0x20 DUP6 ADD SWAP2 CALLDATASIZE PUSH1 0x24 DUP4 DUP4 ADD ADD GT PUSH2 0x8D JUMPI DUP2 PUSH1 0x0 SWAP3 PUSH1 0x24 PUSH1 0x20 SWAP4 ADD DUP6 CALLDATACOPY DUP7 ADD ADD MSTORE PUSH1 0x40 MLOAD PUSH2 0x34C PUSH1 0x74 DUP3 PUSH1 0x20 DUP2 ADD SWAP5 PUSH12 0xFFFFFFFFFFFFFFFFFFFFFFFF NOT DUP9 PUSH1 0x60 SHL AND DUP7 MSTORE PUSH1 0x24 CALLDATALOAD PUSH1 0x34 DUP4 ADD MSTORE PUSH2 0x336 DUP10 MLOAD DUP1 SWAP3 PUSH1 0x54 DUP6 ADD SWAP1 PUSH2 0x750 JUMP JUMPDEST DUP2 ADD TIMESTAMP PUSH1 0x54 DUP3 ADD MSTORE SUB PUSH1 0x54 DUP2 ADD DUP5 MSTORE ADD DUP3 PUSH2 0x72E JUMP JUMPDEST MLOAD SWAP1 KECCAK256 SWAP3 PUSH3 0x2A300 TIMESTAMP ADD TIMESTAMP GT PUSH2 0x59C JUMPI PUSH1 0x40 MLOAD SWAP2 PUSH1 0xA0 DUP4 ADD DUP4 DUP2 LT DUP3 DUP3 GT OR PUSH2 0x4C1 JUMPI PUSH1 0x40 MSTORE DUP6 DUP5 AND DUP4 MSTORE PUSH1 0x20 DUP4 ADD SWAP2 PUSH1 0x24 CALLDATALOAD DUP4 MSTORE PUSH1 0x40 DUP5 ADD SWAP1 DUP2 MSTORE PUSH3 0x2A300 TIMESTAMP ADD PUSH1 0x60 DUP6 ADD MSTORE PUSH1 0x0 PUSH1 0x80 DUP6 ADD MSTORE DUP6 PUSH1 0x0 MSTORE PUSH1 0x0 PUSH1 0x20 MSTORE PUSH1 0x40 PUSH1 0x0 KECCAK256 SWAP3 DUP8 DUP6 MLOAD AND PUSH12 0xFFFFFFFFFFFFFFFFFFFFFFFF PUSH1 0xA0 SHL DUP6 SLOAD AND OR DUP5 SSTORE MLOAD PUSH1 0x1 DUP5 ADD SSTORE MLOAD DUP1 MLOAD SWAP2 DUP3 GT PUSH2 0x4C1 JUMPI PUSH2 0x3E0 PUSH1 0x2 DUP5 ADD SLOAD PUSH2 0x6F4 JUMP JUMPDEST PUSH1 0x1F DUP2 GT PUSH2 0x555 JUMPI JUMPDEST POP PUSH1 0x20 SWAP1 PUSH1 0x1F DUP4 GT PUSH1 0x1 EQ PUSH2 0x4E2 JUMPI SWAP2 DUP1 PUSH1 0x80 SWAP5 SWAP3 PUSH1 0x4 SWAP5 PUSH1 0x0 SWAP3 PUSH2 0x4D7 JUMPI JUMPDEST POP POP DUP2 PUSH1 0x1 SHL SWAP2 PUSH1 0x0 NOT SWAP1 PUSH1 0x3 SHL SHR NOT AND OR PUSH1 0x2 DUP3 ADD SSTORE JUMPDEST PUSH1 0x60 DUP5 ADD MLOAD PUSH1 0x3 DUP3 ADD SSTORE ADD SWAP2 ADD MLOAD ISZERO ISZERO PUSH1 0xFF DUP1 NOT DUP4 SLOAD AND SWAP2 AND OR SWAP1 SSTORE PUSH1 0x1 SLOAD SWAP3 PUSH9 0x10000000000000000 DUP5 LT ISZERO PUSH2 0x4C1 JUMPI PUSH1 0x60 DUP4 SWAP3 PUSH32 0x7519D8853A123928EEDD53667DAAFF4654E17E3156685EE5D16F01E07CAD0109 SWAP3 PUSH2 0x48A DUP8 PUSH1 0x1 PUSH1 0x20 SWAP10 ADD PUSH1 0x1 SSTORE PUSH2 0x78F JUMP JUMPDEST DUP2 SLOAD SWAP1 PUSH1 0x3 SHL SWAP1 DUP8 DUP3 SHL SWAP2 PUSH1 0x0 NOT SWAP1 SHL NOT AND OR SWAP1 SSTORE PUSH1 0x40 MLOAD SWAP2 AND DUP2 MSTORE PUSH1 0x24 CALLDATALOAD DUP7 DUP3 ADD MSTORE PUSH3 0x2A300 TIMESTAMP ADD PUSH1 0x40 DUP3 ADD MSTORE LOG2 PUSH1 0x40 MLOAD SWAP1 DUP2 MSTORE RETURN JUMPDEST PUSH4 0x4E487B71 PUSH1 0xE0 SHL PUSH1 0x0 MSTORE PUSH1 0x41 PUSH1 0x4 MSTORE PUSH1 0x24 PUSH1 0x0 REVERT JUMPDEST ADD MLOAD SWAP1 POP DUP10 DUP1 PUSH2 0x409 JUMP JUMPDEST SWAP1 PUSH1 0x1F NOT DUP4 AND SWAP2 PUSH1 0x2 DUP6 ADD PUSH1 0x0 MSTORE PUSH1 0x20 PUSH1 0x0 KECCAK256 SWAP3 PUSH1 0x0 JUMPDEST DUP2 DUP2 LT PUSH2 0x53D JUMPI POP SWAP3 PUSH1 0x1 SWAP3 DUP6 SWAP3 PUSH1 0x4 SWAP7 PUSH1 0x80 SWAP9 SWAP7 LT PUSH2 0x524 JUMPI JUMPDEST POP POP POP DUP2 SHL ADD PUSH1 0x2 DUP3 ADD SSTORE PUSH2 0x421 JUMP JUMPDEST ADD MLOAD PUSH1 0x0 NOT PUSH1 0xF8 DUP5 PUSH1 0x3 SHL AND SHR NOT AND SWAP1 SSTORE DUP10 DUP1 DUP1 PUSH2 0x514 JUMP JUMPDEST SWAP3 SWAP4 PUSH1 0x20 PUSH1 0x1 DUP2 SWAP3 DUP8 DUP7 ADD MLOAD DUP2 SSTORE ADD SWAP6 ADD SWAP4 ADD PUSH2 0x4F9 JUMP JUMPDEST PUSH1 0x2 DUP5 ADD PUSH1 0x0 MSTORE PUSH1 0x20 PUSH1 0x0 KECCAK256 PUSH1 0x1F DUP5 ADD PUSH1 0x5 SHR DUP2 ADD PUSH1 0x20 DUP6 LT PUSH2 0x595 JUMPI JUMPDEST PUSH1 0x1F DUP4 ADD PUSH1 0x5 SHR DUP3 ADD DUP2 LT PUSH2 0x589 JUMPI POP POP PUSH2 0x3E9 JUMP JUMPDEST PUSH1 0x0 DUP2 SSTORE PUSH1 0x1 ADD PUSH2 0x573 JUMP JUMPDEST POP DUP1 PUSH2 0x573 JUMP JUMPDEST PUSH4 0x4E487B71 PUSH1 0xE0 SHL PUSH1 0x0 MSTORE PUSH1 0x11 PUSH1 0x4 MSTORE PUSH1 0x24 PUSH1 0x0 REVERT JUMPDEST CALLVALUE PUSH2 0x8D JUMPI PUSH1 0x0 CALLDATASIZE PUSH1 0x3 NOT ADD SLT PUSH2 0x8D JUMPI PUSH1 0x20 PUSH1 0x40 MLOAD PUSH3 0x2A300 DUP2 MSTORE RETURN JUMPDEST CALLVALUE PUSH2 0x8D JUMPI PUSH1 0x20 SWAP1 DUP2 PUSH1 0x3 NOT CALLDATASIZE ADD SLT PUSH2 0x8D JUMPI PUSH1 0x4 CALLDATALOAD PUSH1 0x0 MSTORE PUSH1 0x0 DUP3 MSTORE PUSH1 0x40 PUSH1 0x0 KECCAK256 PUSH1 0x1 DUP1 PUSH1 0xA0 SHL SUB DUP2 SLOAD AND SWAP1 PUSH1 0x1 SWAP1 PUSH1 0x1 DUP2 ADD SLOAD SWAP1 PUSH1 0x2 DUP2 ADD SWAP5 PUSH1 0x0 SWAP6 DUP8 DUP2 SLOAD SWAP6 PUSH2 0x61B DUP8 PUSH2 0x6F4 JUMP JUMPDEST SWAP3 DUP4 DUP6 MSTORE DUP3 DUP6 ADD SWAP8 PUSH1 0x1 DUP2 AND SWAP1 DUP2 PUSH1 0x0 EQ PUSH2 0x6D6 JUMPI POP PUSH1 0x1 EQ PUSH2 0x69B JUMPI JUMPDEST POP POP POP POP DUP1 PUSH2 0x64F PUSH2 0x681 SWAP3 PUSH1 0xC0 SWAP9 SUB DUP3 PUSH2 0x72E JUMP JUMPDEST PUSH1 0xFF PUSH1 0x4 PUSH1 0x3 DUP6 ADD SLOAD SWAP5 ADD SLOAD AND SWAP4 PUSH1 0x40 MLOAD SWAP9 DUP10 SWAP8 DUP9 MSTORE DUP8 ADD MSTORE PUSH1 0xA0 PUSH1 0x40 DUP8 ADD MSTORE MLOAD DUP1 SWAP5 DUP2 PUSH1 0xA0 DUP9 ADD MSTORE DUP8 DUP8 ADD SWAP1 PUSH2 0x750 JUMP JUMPDEST PUSH1 0x60 DUP5 ADD MSTORE ISZERO ISZERO PUSH1 0x80 DUP4 ADD MSTORE PUSH1 0x1F ADD PUSH1 0x1F NOT AND DUP2 ADD SUB ADD SWAP1 RETURN JUMPDEST PUSH1 0x0 SWAP1 DUP2 MSTORE DUP3 DUP2 KECCAK256 SWAP3 SWAP10 POP SWAP3 SWAP2 JUMPDEST DUP3 DUP5 LT PUSH2 0x6C3 JUMPI POP POP POP DUP2 ADD SWAP1 SWAP6 ADD SWAP5 DUP1 DUP8 DUP2 PUSH1 0xC0 PUSH2 0x639 JUMP JUMPDEST DUP1 SLOAD DUP6 DUP6 ADD DUP12 ADD MSTORE SWAP3 DUP10 ADD SWAP3 DUP2 ADD PUSH2 0x6A9 JUMP JUMPDEST PUSH1 0xFF NOT AND DUP10 MSTORE POP POP POP SWAP1 ISZERO ISZERO PUSH1 0x5 SHL DUP3 ADD ADD SWAP6 POP DUP1 DUP8 DUP2 PUSH1 0xC0 PUSH2 0x639 JUMP JUMPDEST SWAP1 PUSH1 0x1 DUP3 DUP2 SHR SWAP3 AND DUP1 ISZERO PUSH2 0x724 JUMPI JUMPDEST PUSH1 0x20 DUP4 LT EQ PUSH2 0x70E JUMPI JUMP JUMPDEST PUSH4 0x4E487B71 PUSH1 0xE0 SHL PUSH1 0x0 MSTORE PUSH1 0x22 PUSH1 0x4 MSTORE PUSH1 0x24 PUSH1 0x0 REVERT JUMPDEST SWAP2 PUSH1 0x7F AND SWAP2 PUSH2 0x703 JUMP JUMPDEST SWAP1 PUSH1 0x1F DUP1 NOT SWAP2 ADD AND DUP2 ADD SWAP1 DUP2 LT PUSH8 0xFFFFFFFFFFFFFFFF DUP3 GT OR PUSH2 0x4C1 JUMPI PUSH1 0x40 MSTORE JUMP JUMPDEST PUSH1 0x0 JUMPDEST DUP4 DUP2 LT PUSH2 0x763 JUMPI POP POP PUSH1 0x0 SWAP2 ADD MSTORE JUMP JUMPDEST DUP2 DUP2 ADD MLOAD DUP4 DUP3 ADD MSTORE PUSH1 0x20 ADD PUSH2 0x753 JUMP JUMPDEST PUSH8 0xFFFFFFFFFFFFFFFF DUP2 GT PUSH2 0x4C1 JUMPI PUSH1 0x1F ADD PUSH1 0x1F NOT AND PUSH1 0x20 ADD SWAP1 JUMP JUMPDEST PUSH1 0x1 SLOAD DUP2 LT ISZERO PUSH2 0x7C6 JUMPI PUSH1 0x1 PUSH1 0x0 MSTORE PUSH32 0xB10E2D527612073B26EECDFD717E6A320CF44B4AFAC2B0732D9FCBE2B7FA0CF6 ADD SWAP1 PUSH1 0x0 SWAP1 JUMP JUMPDEST PUSH4 0x4E487B71 PUSH1 0xE0 SHL PUSH1 0x0 MSTORE PUSH1 0x32 PUSH1 0x4 MSTORE PUSH1 0x24 PUSH1 0x0 REVERT INVALID LOG2 PUSH5 0x6970667358 0x22 SLT KECCAK256 SWAP1 SWAP7 SMOD 0x28 0xD7 0x2E MSTORE 0x24 STOP MOD PUSH8 0x931D719DF8FE4852 ORIGIN SWAP6 BLOCKHASH PUSH20 0xF6328091B39D224D6964736F6C63430008180033 "},"methodIdentifiers":{"DELAY()":"69b41170","executeTransaction(bytes32)":"c69ed5f2","queueTransaction(address,uint256,bytes)":"80b3b099","transactionIds(uint256)":"e36f8dc5","transactions(bytes32)":"642f2eaf"}}}}}