{"contracts/HerbalDatabase.sol":{"HerbalDatabase":{"abi":[{"inputs":[{"internalType":"string","name":"_name","type":"string"},{"internalType":"string","name":"_scientific","type":"string"},{"internalType":"string","name":"_family","type":"string"},{"internalType":"string","name":"_uses","type":"string"},{"internalType":"uint256","name":"_temp","type":"uint256"},{"internalType":"uint256","name":"_humidity","type":"uint256"}],"name":"addHerb","outputs":[],"stateMutability":"nonpayable","type":"function"},{"inputs":[{"internalType":"string","name":"_name","type":"string"}],"name":"getHerbInfo","outputs":[{"components":[{"internalType":"string","name":"scientificName","type":"string"},{"internalType":"string","name":"commonName","type":"string"},{"internalType":"string","name":"family","type":"string"},{"internalType":"string","name":"medicinalUses","type":"string"},{"internalType":"uint256","name":"optimalTemperature","type":"uint256"},{"internalType":"uint256","name":"optimalHumidity","type":"uint256"}],"internalType":"struct HerbalDatabase.HerbInfo","name":"","type":"tuple"}],"stateMutability":"view","type":"function"},{"inputs":[{"internalType":"string","name":"","type":"string"}],"name":"herbs","outputs":[{"internalType":"string","name":"scientificName","type":"string"},{"internalType":"string","name":"commonName","type":"string"},{"internalType":"string","name":"family","type":"string"},{"internalType":"string","name":"medicinalUses","type":"string"},{"internalType":"uint256","name":"optimalTemperature","type":"uint256"},{"internalType":"uint256","name":"optimalHumidity","type":"uint256"}],"stateMutability":"view","type":"function"}],"evm":{"bytecode":{"linkReferences":{},"object":"60808060405234610016576109cc908161001c8239f35b600080fdfe604060808152600436101561001357600080fd5b60003560e01c80635f9106a814610680578063db0251f3146101295763e9e374581461003e57600080fd5b34610124576020366003190112610124576004359067ffffffffffffffff82116101245761008a60206100786100ec943690600401610818565b8184519382858094519384920161086f565b8101600081520301902061009d816108f1565b916101156100ad600184016108f1565b916101076100bd600286016108f1565b916100ca600387016108f1565b926100fa600560048901549801549683519a8b9a60c08c5260c08c0190610892565b908a820360208c0152610892565b9188830390890152610892565b908582036060870152610892565b91608084015260a08301520390f35b600080fd5b50346101245760c03660031901126101245767ffffffffffffffff6004358181116101245761015c903690600401610818565b9160243582811161012457610175903690600401610818565b916044358181116101245761018e903690600401610818565b90606435818111610124576101a7903690600401610818565b918351946101b4866107da565b85526101f260208087019780895286880193845260608801958652816080890197608435895260a43560a08b0152519382858094519384920161086f565b810160008152030190209585518051908482116104145781906102158a546108b7565b601f811161062d575b50602090601f83116001146105c7576000926105bc575b50508160011b916000199060031b1c19161787555b5180519083821161041457819061026460018a01546108b7565b601f8111610566575b50602090601f83116001146104f9576000926104ee575b50508160011b916000199060031b1c19161760018701555b51805160028701918382116104145781906102b784546108b7565b601f811161049b575b50602090601f83116001146104355760009261042a575b50508160011b916000199060031b1c19161790555b60038501915180519182116104145761030583546108b7565b601f81116103cc575b50602090601f831160011461035d579180600596949260a09694600092610352575b50508160011b916000199060031b1c19161790555b5160048501550151910155005b015190503880610330565b90601f198316918460005260206000209260005b8181106103b4575092600192859260a0989660059a98961061039b575b505050811b019055610345565b015160001960f88460031b161c1916905538808061038e565b92936020600181928786015181550195019301610371565b836000526020600020601f840160051c8101916020851061040a575b601f0160051c01905b8181106103fe575061030e565b600081556001016103f1565b90915081906103e8565b634e487b7160e01b600052604160045260246000fd5b0151905038806102d7565b6000858152602081209350601f198516905b818110610483575090846001959493921061046a575b505050811b0190556102ec565b015160001960f88460031b161c1916905538808061045d565b92936020600181928786015181550195019301610447565b909150836000526020600020601f840160051c810191602085106104e4575b90601f859493920160051c01905b8181106104d557506102c0565b600081558493506001016104c8565b90915081906104ba565b015190503880610284565b60018a016000908152602081209350601f198516905b81811061054e5750908460019594939210610535575b505050811b01600187015561029c565b015160001960f88460031b161c19169055388080610525565b9293602060018192878601518155019501930161050f565b909150600189016000526020600020601f840160051c810191602085106105b2575b90601f859493920160051c01905b8181106105a3575061026d565b60008155849350600101610596565b9091508190610588565b015190503880610235565b60008b8152602081209350601f198516905b81811061061557509084600195949392106105fc575b505050811b01875561024a565b015160001960f88460031b161c191690553880806105ef565b929360206001819287860151815501950193016105d9565b909150896000526020600020601f840160051c81019160208510610676575b90601f859493920160051c01905b818110610667575061021e565b6000815584935060010161065a565b909150819061064c565b503461012457602080600319360112610124576004359167ffffffffffffffff8311610124576106b660c0933690600401610818565b906107c96106fd848351946106ca866107da565b600060a060609788815288858201528888820152888082015282608082015201528185519382858094519384920161086f565b8101600081520301902092825192610714846107da565b61071d856108f1565b84526107b861072e600187016108f1565b92878601938452610741600288016108f1565b908387019182526107a761075760038a016108f1565b95828901968752610793600560048c01549b60808c019c8d5201549960a081019a8b5287519d8d8f9e928f9384525192015260e08d0190610892565b9051601f1996878d840301908d0152610892565b915190848a840301908a0152610892565b915190868303016080870152610892565b915160a08401525160c08301520390f35b60c0810190811067ffffffffffffffff82111761041457604052565b90601f8019910116810190811067ffffffffffffffff82111761041457604052565b81601f820112156101245780359067ffffffffffffffff8211610414576040519261084d601f8401601f1916602001856107f6565b8284526020838301011161012457816000926020809301838601378301015290565b60005b8381106108825750506000910152565b8181015183820152602001610872565b906020916108ab8151809281855285808601910161086f565b601f01601f1916010190565b90600182811c921680156108e7575b60208310146108d157565b634e487b7160e01b600052602260045260246000fd5b91607f16916108c6565b90604051918260008254610904816108b7565b908184526020946001916001811690816000146109745750600114610935575b505050610933925003836107f6565b565b600090815285812095935091905b81831061095c5750506109339350820101388080610924565b85548884018501529485019487945091830191610943565b9250505061093394925060ff191682840152151560051b82010138808061092456fea2646970667358221220c25053f4b79e2aae7f20bbcf0064f45d424ceeed5e3488a96cbdfba3c948d3b364736f6c63430008180033","opcodes":"PUSH1 0x80 DUP1 PUSH1 0x40 MSTORE CALLVALUE PUSH2 0x16 JUMPI PUSH2 0x9CC SWAP1 DUP2 PUSH2 0x1C DUP3 CODECOPY RETURN JUMPDEST PUSH1 0x0 DUP1 REVERT INVALID PUSH1 0x40 PUSH1 0x80 DUP2 MSTORE PUSH1 0x4 CALLDATASIZE LT ISZERO PUSH2 0x13 JUMPI PUSH1 0x0 DUP1 REVERT JUMPDEST PUSH1 0x0 CALLDATALOAD PUSH1 0xE0 SHR DUP1 PUSH4 0x5F9106A8 EQ PUSH2 0x680 JUMPI DUP1 PUSH4 0xDB0251F3 EQ PUSH2 0x129 JUMPI PUSH4 0xE9E37458 EQ PUSH2 0x3E JUMPI PUSH1 0x0 DUP1 REVERT JUMPDEST CALLVALUE PUSH2 0x124 JUMPI PUSH1 0x20 CALLDATASIZE PUSH1 0x3 NOT ADD SLT PUSH2 0x124 JUMPI PUSH1 0x4 CALLDATALOAD SWAP1 PUSH8 0xFFFFFFFFFFFFFFFF DUP3 GT PUSH2 0x124 JUMPI PUSH2 0x8A PUSH1 0x20 PUSH2 0x78 PUSH2 0xEC SWAP5 CALLDATASIZE SWAP1 PUSH1 0x4 ADD PUSH2 0x818 JUMP JUMPDEST DUP2 DUP5 MLOAD SWAP4 DUP3 DUP6 DUP1 SWAP5 MLOAD SWAP4 DUP5 SWAP3 ADD PUSH2 0x86F JUMP JUMPDEST DUP2 ADD PUSH1 0x0 DUP2 MSTORE SUB ADD SWAP1 KECCAK256 PUSH2 0x9D DUP2 PUSH2 0x8F1 JUMP JUMPDEST SWAP2 PUSH2 0x115 PUSH2 0xAD PUSH1 0x1 DUP5 ADD PUSH2 0x8F1 JUMP JUMPDEST SWAP2 PUSH2 0x107 PUSH2 0xBD PUSH1 0x2 DUP7 ADD PUSH2 0x8F1 JUMP JUMPDEST SWAP2 PUSH2 0xCA PUSH1 0x3 DUP8 ADD PUSH2 0x8F1 JUMP JUMPDEST SWAP3 PUSH2 0xFA PUSH1 0x5 PUSH1 0x4 DUP10 ADD SLOAD SWAP9 ADD SLOAD SWAP7 DUP4 MLOAD SWAP11 DUP12 SWAP11 PUSH1 0xC0 DUP13 MSTORE PUSH1 0xC0 DUP13 ADD SWAP1 PUSH2 0x892 JUMP JUMPDEST SWAP1 DUP11 DUP3 SUB PUSH1 0x20 DUP13 ADD MSTORE PUSH2 0x892 JUMP JUMPDEST SWAP2 DUP9 DUP4 SUB SWAP1 DUP10 ADD MSTORE PUSH2 0x892 JUMP JUMPDEST SWAP1 DUP6 DUP3 SUB PUSH1 0x60 DUP8 ADD MSTORE PUSH2 0x892 JUMP JUMPDEST SWAP2 PUSH1 0x80 DUP5 ADD MSTORE PUSH1 0xA0 DUP4 ADD MSTORE SUB SWAP1 RETURN JUMPDEST PUSH1 0x0 DUP1 REVERT JUMPDEST POP CALLVALUE PUSH2 0x124 JUMPI PUSH1 0xC0 CALLDATASIZE PUSH1 0x3 NOT ADD SLT PUSH2 0x124 JUMPI PUSH8 0xFFFFFFFFFFFFFFFF PUSH1 0x4 CALLDATALOAD DUP2 DUP2 GT PUSH2 0x124 JUMPI PUSH2 0x15C SWAP1 CALLDATASIZE SWAP1 PUSH1 0x4 ADD PUSH2 0x818 JUMP JUMPDEST SWAP2 PUSH1 0x24 CALLDATALOAD DUP3 DUP2 GT PUSH2 0x124 JUMPI PUSH2 0x175 SWAP1 CALLDATASIZE SWAP1 PUSH1 0x4 ADD PUSH2 0x818 JUMP JUMPDEST SWAP2 PUSH1 0x44 CALLDATALOAD DUP2 DUP2 GT PUSH2 0x124 JUMPI PUSH2 0x18E SWAP1 CALLDATASIZE SWAP1 PUSH1 0x4 ADD PUSH2 0x818 JUMP JUMPDEST SWAP1 PUSH1 0x64 CALLDATALOAD DUP2 DUP2 GT PUSH2 0x124 JUMPI PUSH2 0x1A7 SWAP1 CALLDATASIZE SWAP1 PUSH1 0x4 ADD PUSH2 0x818 JUMP JUMPDEST SWAP2 DUP4 MLOAD SWAP5 PUSH2 0x1B4 DUP7 PUSH2 0x7DA JUMP JUMPDEST DUP6 MSTORE PUSH2 0x1F2 PUSH1 0x20 DUP1 DUP8 ADD SWAP8 DUP1 DUP10 MSTORE DUP7 DUP9 ADD SWAP4 DUP5 MSTORE PUSH1 0x60 DUP9 ADD SWAP6 DUP7 MSTORE DUP2 PUSH1 0x80 DUP10 ADD SWAP8 PUSH1 0x84 CALLDATALOAD DUP10 MSTORE PUSH1 0xA4 CALLDATALOAD PUSH1 0xA0 DUP12 ADD MSTORE MLOAD SWAP4 DUP3 DUP6 DUP1 SWAP5 MLOAD SWAP4 DUP5 SWAP3 ADD PUSH2 0x86F JUMP JUMPDEST DUP2 ADD PUSH1 0x0 DUP2 MSTORE SUB ADD SWAP1 KECCAK256 SWAP6 DUP6 MLOAD DUP1 MLOAD SWAP1 DUP5 DUP3 GT PUSH2 0x414 JUMPI DUP2 SWAP1 PUSH2 0x215 DUP11 SLOAD PUSH2 0x8B7 JUMP JUMPDEST PUSH1 0x1F DUP2 GT PUSH2 0x62D JUMPI JUMPDEST POP PUSH1 0x20 SWAP1 PUSH1 0x1F DUP4 GT PUSH1 0x1 EQ PUSH2 0x5C7 JUMPI PUSH1 0x0 SWAP3 PUSH2 0x5BC JUMPI JUMPDEST POP POP DUP2 PUSH1 0x1 SHL SWAP2 PUSH1 0x0 NOT SWAP1 PUSH1 0x3 SHL SHR NOT AND OR DUP8 SSTORE JUMPDEST MLOAD DUP1 MLOAD SWAP1 DUP4 DUP3 GT PUSH2 0x414 JUMPI DUP2 SWAP1 PUSH2 0x264 PUSH1 0x1 DUP11 ADD SLOAD PUSH2 0x8B7 JUMP JUMPDEST PUSH1 0x1F DUP2 GT PUSH2 0x566 JUMPI JUMPDEST POP PUSH1 0x20 SWAP1 PUSH1 0x1F DUP4 GT PUSH1 0x1 EQ PUSH2 0x4F9 JUMPI PUSH1 0x0 SWAP3 PUSH2 0x4EE JUMPI JUMPDEST POP POP DUP2 PUSH1 0x1 SHL SWAP2 PUSH1 0x0 NOT SWAP1 PUSH1 0x3 SHL SHR NOT AND OR PUSH1 0x1 DUP8 ADD SSTORE JUMPDEST MLOAD DUP1 MLOAD PUSH1 0x2 DUP8 ADD SWAP2 DUP4 DUP3 GT PUSH2 0x414 JUMPI DUP2 SWAP1 PUSH2 0x2B7 DUP5 SLOAD PUSH2 0x8B7 JUMP JUMPDEST PUSH1 0x1F DUP2 GT PUSH2 0x49B JUMPI JUMPDEST POP PUSH1 0x20 SWAP1 PUSH1 0x1F DUP4 GT PUSH1 0x1 EQ PUSH2 0x435 JUMPI PUSH1 0x0 SWAP3 PUSH2 0x42A JUMPI JUMPDEST POP POP DUP2 PUSH1 0x1 SHL SWAP2 PUSH1 0x0 NOT SWAP1 PUSH1 0x3 SHL SHR NOT AND OR SWAP1 SSTORE JUMPDEST PUSH1 0x3 DUP6 ADD SWAP2 MLOAD DUP1 MLOAD SWAP2 DUP3 GT PUSH2 0x414 JUMPI PUSH2 0x305 DUP4 SLOAD PUSH2 0x8B7 JUMP JUMPDEST PUSH1 0x1F DUP2 GT PUSH2 0x3CC JUMPI JUMPDEST POP PUSH1 0x20 SWAP1 PUSH1 0x1F DUP4 GT PUSH1 0x1 EQ PUSH2 0x35D JUMPI SWAP2 DUP1 PUSH1 0x5 SWAP7 SWAP5 SWAP3 PUSH1 0xA0 SWAP7 SWAP5 PUSH1 0x0 SWAP3 PUSH2 0x352 JUMPI JUMPDEST POP POP DUP2 PUSH1 0x1 SHL SWAP2 PUSH1 0x0 NOT SWAP1 PUSH1 0x3 SHL SHR NOT AND OR SWAP1 SSTORE JUMPDEST MLOAD PUSH1 0x4 DUP6 ADD SSTORE ADD MLOAD SWAP2 ADD SSTORE STOP JUMPDEST ADD MLOAD SWAP1 POP CODESIZE DUP1 PUSH2 0x330 JUMP JUMPDEST SWAP1 PUSH1 0x1F NOT DUP4 AND SWAP2 DUP5 PUSH1 0x0 MSTORE PUSH1 0x20 PUSH1 0x0 KECCAK256 SWAP3 PUSH1 0x0 JUMPDEST DUP2 DUP2 LT PUSH2 0x3B4 JUMPI POP SWAP3 PUSH1 0x1 SWAP3 DUP6 SWAP3 PUSH1 0xA0 SWAP9 SWAP7 PUSH1 0x5 SWAP11 SWAP9 SWAP7 LT PUSH2 0x39B JUMPI JUMPDEST POP POP POP DUP2 SHL ADD SWAP1 SSTORE PUSH2 0x345 JUMP JUMPDEST ADD MLOAD PUSH1 0x0 NOT PUSH1 0xF8 DUP5 PUSH1 0x3 SHL AND SHR NOT AND SWAP1 SSTORE CODESIZE DUP1 DUP1 PUSH2 0x38E JUMP JUMPDEST SWAP3 SWAP4 PUSH1 0x20 PUSH1 0x1 DUP2 SWAP3 DUP8 DUP7 ADD MLOAD DUP2 SSTORE ADD SWAP6 ADD SWAP4 ADD PUSH2 0x371 JUMP JUMPDEST DUP4 PUSH1 0x0 MSTORE PUSH1 0x20 PUSH1 0x0 KECCAK256 PUSH1 0x1F DUP5 ADD PUSH1 0x5 SHR DUP2 ADD SWAP2 PUSH1 0x20 DUP6 LT PUSH2 0x40A JUMPI JUMPDEST PUSH1 0x1F ADD PUSH1 0x5 SHR ADD SWAP1 JUMPDEST DUP2 DUP2 LT PUSH2 0x3FE JUMPI POP PUSH2 0x30E JUMP JUMPDEST PUSH1 0x0 DUP2 SSTORE PUSH1 0x1 ADD PUSH2 0x3F1 JUMP JUMPDEST SWAP1 SWAP2 POP DUP2 SWAP1 PUSH2 0x3E8 JUMP JUMPDEST PUSH4 0x4E487B71 PUSH1 0xE0 SHL PUSH1 0x0 MSTORE PUSH1 0x41 PUSH1 0x4 MSTORE PUSH1 0x24 PUSH1 0x0 REVERT JUMPDEST ADD MLOAD SWAP1 POP CODESIZE DUP1 PUSH2 0x2D7 JUMP JUMPDEST PUSH1 0x0 DUP6 DUP2 MSTORE PUSH1 0x20 DUP2 KECCAK256 SWAP4 POP PUSH1 0x1F NOT DUP6 AND SWAP1 JUMPDEST DUP2 DUP2 LT PUSH2 0x483 JUMPI POP SWAP1 DUP5 PUSH1 0x1 SWAP6 SWAP5 SWAP4 SWAP3 LT PUSH2 0x46A JUMPI JUMPDEST POP POP POP DUP2 SHL ADD SWAP1 SSTORE PUSH2 0x2EC JUMP JUMPDEST ADD MLOAD PUSH1 0x0 NOT PUSH1 0xF8 DUP5 PUSH1 0x3 SHL AND SHR NOT AND SWAP1 SSTORE CODESIZE DUP1 DUP1 PUSH2 0x45D JUMP JUMPDEST SWAP3 SWAP4 PUSH1 0x20 PUSH1 0x1 DUP2 SWAP3 DUP8 DUP7 ADD MLOAD DUP2 SSTORE ADD SWAP6 ADD SWAP4 ADD PUSH2 0x447 JUMP JUMPDEST SWAP1 SWAP2 POP DUP4 PUSH1 0x0 MSTORE PUSH1 0x20 PUSH1 0x0 KECCAK256 PUSH1 0x1F DUP5 ADD PUSH1 0x5 SHR DUP2 ADD SWAP2 PUSH1 0x20 DUP6 LT PUSH2 0x4E4 JUMPI JUMPDEST SWAP1 PUSH1 0x1F DUP6 SWAP5 SWAP4 SWAP3 ADD PUSH1 0x5 SHR ADD SWAP1 JUMPDEST DUP2 DUP2 LT PUSH2 0x4D5 JUMPI POP PUSH2 0x2C0 JUMP JUMPDEST PUSH1 0x0 DUP2 SSTORE DUP5 SWAP4 POP PUSH1 0x1 ADD PUSH2 0x4C8 JUMP JUMPDEST SWAP1 SWAP2 POP DUP2 SWAP1 PUSH2 0x4BA JUMP JUMPDEST ADD MLOAD SWAP1 POP CODESIZE DUP1 PUSH2 0x284 JUMP JUMPDEST PUSH1 0x1 DUP11 ADD PUSH1 0x0 SWAP1 DUP2 MSTORE PUSH1 0x20 DUP2 KECCAK256 SWAP4 POP PUSH1 0x1F NOT DUP6 AND SWAP1 JUMPDEST DUP2 DUP2 LT PUSH2 0x54E JUMPI POP SWAP1 DUP5 PUSH1 0x1 SWAP6 SWAP5 SWAP4 SWAP3 LT PUSH2 0x535 JUMPI JUMPDEST POP POP POP DUP2 SHL ADD PUSH1 0x1 DUP8 ADD SSTORE PUSH2 0x29C JUMP JUMPDEST ADD MLOAD PUSH1 0x0 NOT PUSH1 0xF8 DUP5 PUSH1 0x3 SHL AND SHR NOT AND SWAP1 SSTORE CODESIZE DUP1 DUP1 PUSH2 0x525 JUMP JUMPDEST SWAP3 SWAP4 PUSH1 0x20 PUSH1 0x1 DUP2 SWAP3 DUP8 DUP7 ADD MLOAD DUP2 SSTORE ADD SWAP6 ADD SWAP4 ADD PUSH2 0x50F JUMP JUMPDEST SWAP1 SWAP2 POP PUSH1 0x1 DUP10 ADD PUSH1 0x0 MSTORE PUSH1 0x20 PUSH1 0x0 KECCAK256 PUSH1 0x1F DUP5 ADD PUSH1 0x5 SHR DUP2 ADD SWAP2 PUSH1 0x20 DUP6 LT PUSH2 0x5B2 JUMPI JUMPDEST SWAP1 PUSH1 0x1F DUP6 SWAP5 SWAP4 SWAP3 ADD PUSH1 0x5 SHR ADD SWAP1 JUMPDEST DUP2 DUP2 LT PUSH2 0x5A3 JUMPI POP PUSH2 0x26D JUMP JUMPDEST PUSH1 0x0 DUP2 SSTORE DUP5 SWAP4 POP PUSH1 0x1 ADD PUSH2 0x596 JUMP JUMPDEST SWAP1 SWAP2 POP DUP2 SWAP1 PUSH2 0x588 JUMP JUMPDEST ADD MLOAD SWAP1 POP CODESIZE DUP1 PUSH2 0x235 JUMP JUMPDEST PUSH1 0x0 DUP12 DUP2 MSTORE PUSH1 0x20 DUP2 KECCAK256 SWAP4 POP PUSH1 0x1F NOT DUP6 AND SWAP1 JUMPDEST DUP2 DUP2 LT PUSH2 0x615 JUMPI POP SWAP1 DUP5 PUSH1 0x1 SWAP6 SWAP5 SWAP4 SWAP3 LT PUSH2 0x5FC JUMPI JUMPDEST POP POP POP DUP2 SHL ADD DUP8 SSTORE PUSH2 0x24A JUMP JUMPDEST ADD MLOAD PUSH1 0x0 NOT PUSH1 0xF8 DUP5 PUSH1 0x3 SHL AND SHR NOT AND SWAP1 SSTORE CODESIZE DUP1 DUP1 PUSH2 0x5EF JUMP JUMPDEST SWAP3 SWAP4 PUSH1 0x20 PUSH1 0x1 DUP2 SWAP3 DUP8 DUP7 ADD MLOAD DUP2 SSTORE ADD SWAP6 ADD SWAP4 ADD PUSH2 0x5D9 JUMP JUMPDEST SWAP1 SWAP2 POP DUP10 PUSH1 0x0 MSTORE PUSH1 0x20 PUSH1 0x0 KECCAK256 PUSH1 0x1F DUP5 ADD PUSH1 0x5 SHR DUP2 ADD SWAP2 PUSH1 0x20 DUP6 LT PUSH2 0x676 JUMPI JUMPDEST SWAP1 PUSH1 0x1F DUP6 SWAP5 SWAP4 SWAP3 ADD PUSH1 0x5 SHR ADD SWAP1 JUMPDEST DUP2 DUP2 LT PUSH2 0x667 JUMPI POP PUSH2 0x21E JUMP JUMPDEST PUSH1 0x0 DUP2 SSTORE DUP5 SWAP4 POP PUSH1 0x1 ADD PUSH2 0x65A JUMP JUMPDEST SWAP1 SWAP2 POP DUP2 SWAP1 PUSH2 0x64C JUMP JUMPDEST POP CALLVALUE PUSH2 0x124 JUMPI PUSH1 0x20 DUP1 PUSH1 0x3 NOT CALLDATASIZE ADD SLT PUSH2 0x124 JUMPI PUSH1 0x4 CALLDATALOAD SWAP2 PUSH8 0xFFFFFFFFFFFFFFFF DUP4 GT PUSH2 0x124 JUMPI PUSH2 0x6B6 PUSH1 0xC0 SWAP4 CALLDATASIZE SWAP1 PUSH1 0x4 ADD PUSH2 0x818 JUMP JUMPDEST SWAP1 PUSH2 0x7C9 PUSH2 0x6FD DUP5 DUP4 MLOAD SWAP5 PUSH2 0x6CA DUP7 PUSH2 0x7DA JUMP JUMPDEST PUSH1 0x0 PUSH1 0xA0 PUSH1 0x60 SWAP8 DUP9 DUP2 MSTORE DUP9 DUP6 DUP3 ADD MSTORE DUP9 DUP9 DUP3 ADD MSTORE DUP9 DUP1 DUP3 ADD MSTORE DUP3 PUSH1 0x80 DUP3 ADD MSTORE ADD MSTORE DUP2 DUP6 MLOAD SWAP4 DUP3 DUP6 DUP1 SWAP5 MLOAD SWAP4 DUP5 SWAP3 ADD PUSH2 0x86F JUMP JUMPDEST DUP2 ADD PUSH1 0x0 DUP2 MSTORE SUB ADD SWAP1 KECCAK256 SWAP3 DUP3 MLOAD SWAP3 PUSH2 0x714 DUP5 PUSH2 0x7DA JUMP JUMPDEST PUSH2 0x71D DUP6 PUSH2 0x8F1 JUMP JUMPDEST DUP5 MSTORE PUSH2 0x7B8 PUSH2 0x72E PUSH1 0x1 DUP8 ADD PUSH2 0x8F1 JUMP JUMPDEST SWAP3 DUP8 DUP7 ADD SWAP4 DUP5 MSTORE PUSH2 0x741 PUSH1 0x2 DUP9 ADD PUSH2 0x8F1 JUMP JUMPDEST SWAP1 DUP4 DUP8 ADD SWAP2 DUP3 MSTORE PUSH2 0x7A7 PUSH2 0x757 PUSH1 0x3 DUP11 ADD PUSH2 0x8F1 JUMP JUMPDEST SWAP6 DUP3 DUP10 ADD SWAP7 DUP8 MSTORE PUSH2 0x793 PUSH1 0x5 PUSH1 0x4 DUP13 ADD SLOAD SWAP12 PUSH1 0x80 DUP13 ADD SWAP13 DUP14 MSTORE ADD SLOAD SWAP10 PUSH1 0xA0 DUP2 ADD SWAP11 DUP12 MSTORE DUP8 MLOAD SWAP14 DUP14 DUP16 SWAP15 SWAP3 DUP16 SWAP4 DUP5 MSTORE MLOAD SWAP3 ADD MSTORE PUSH1 0xE0 DUP14 ADD SWAP1 PUSH2 0x892 JUMP JUMPDEST SWAP1 MLOAD PUSH1 0x1F NOT SWAP7 DUP8 DUP14 DUP5 SUB ADD SWAP1 DUP14 ADD MSTORE PUSH2 0x892 JUMP JUMPDEST SWAP2 MLOAD SWAP1 DUP5 DUP11 DUP5 SUB ADD SWAP1 DUP11 ADD MSTORE PUSH2 0x892 JUMP JUMPDEST SWAP2 MLOAD SWAP1 DUP7 DUP4 SUB ADD PUSH1 0x80 DUP8 ADD MSTORE PUSH2 0x892 JUMP JUMPDEST SWAP2 MLOAD PUSH1 0xA0 DUP5 ADD MSTORE MLOAD PUSH1 0xC0 DUP4 ADD MSTORE SUB SWAP1 RETURN JUMPDEST PUSH1 0xC0 DUP2 ADD SWAP1 DUP2 LT PUSH8 0xFFFFFFFFFFFFFFFF DUP3 GT OR PUSH2 0x414 JUMPI PUSH1 0x40 MSTORE JUMP JUMPDEST SWAP1 PUSH1 0x1F DUP1 NOT SWAP2 ADD AND DUP2 ADD SWAP1 DUP2 LT PUSH8 0xFFFFFFFFFFFFFFFF DUP3 GT OR PUSH2 0x414 JUMPI PUSH1 0x40 MSTORE JUMP JUMPDEST DUP2 PUSH1 0x1F DUP3 ADD SLT ISZERO PUSH2 0x124 JUMPI DUP1 CALLDATALOAD SWAP1 PUSH8 0xFFFFFFFFFFFFFFFF DUP3 GT PUSH2 0x414 JUMPI PUSH1 0x40 MLOAD SWAP3 PUSH2 0x84D PUSH1 0x1F DUP5 ADD PUSH1 0x1F NOT AND PUSH1 0x20 ADD DUP6 PUSH2 0x7F6 JUMP JUMPDEST DUP3 DUP5 MSTORE PUSH1 0x20 DUP4 DUP4 ADD ADD GT PUSH2 0x124 JUMPI DUP2 PUSH1 0x0 SWAP3 PUSH1 0x20 DUP1 SWAP4 ADD DUP4 DUP7 ADD CALLDATACOPY DUP4 ADD ADD MSTORE SWAP1 JUMP JUMPDEST PUSH1 0x0 JUMPDEST DUP4 DUP2 LT PUSH2 0x882 JUMPI POP POP PUSH1 0x0 SWAP2 ADD MSTORE JUMP JUMPDEST DUP2 DUP2 ADD MLOAD DUP4 DUP3 ADD MSTORE PUSH1 0x20 ADD PUSH2 0x872 JUMP JUMPDEST SWAP1 PUSH1 0x20 SWAP2 PUSH2 0x8AB DUP2 MLOAD DUP1 SWAP3 DUP2 DUP6 MSTORE DUP6 DUP1 DUP7 ADD SWAP2 ADD PUSH2 0x86F JUMP JUMPDEST PUSH1 0x1F ADD PUSH1 0x1F NOT AND ADD ADD SWAP1 JUMP JUMPDEST SWAP1 PUSH1 0x1 DUP3 DUP2 SHR SWAP3 AND DUP1 ISZERO PUSH2 0x8E7 JUMPI JUMPDEST PUSH1 0x20 DUP4 LT EQ PUSH2 0x8D1 JUMPI JUMP JUMPDEST PUSH4 0x4E487B71 PUSH1 0xE0 SHL PUSH1 0x0 MSTORE PUSH1 0x22 PUSH1 0x4 MSTORE PUSH1 0x24 PUSH1 0x0 REVERT JUMPDEST SWAP2 PUSH1 0x7F AND SWAP2 PUSH2 0x8C6 JUMP JUMPDEST SWAP1 PUSH1 0x40 MLOAD SWAP2 DUP3 PUSH1 0x0 DUP3 SLOAD PUSH2 0x904 DUP2 PUSH2 0x8B7 JUMP JUMPDEST SWAP1 DUP2 DUP5 MSTORE PUSH1 0x20 SWAP5 PUSH1 0x1 SWAP2 PUSH1 0x1 DUP2 AND SWAP1 DUP2 PUSH1 0x0 EQ PUSH2 0x974 JUMPI POP PUSH1 0x1 EQ PUSH2 0x935 JUMPI JUMPDEST POP POP POP PUSH2 0x933 SWAP3 POP SUB DUP4 PUSH2 0x7F6 JUMP JUMPDEST JUMP JUMPDEST PUSH1 0x0 SWAP1 DUP2 MSTORE DUP6 DUP2 KECCAK256 SWAP6 SWAP4 POP SWAP2 SWAP1 JUMPDEST DUP2 DUP4 LT PUSH2 0x95C JUMPI POP POP PUSH2 0x933 SWAP4 POP DUP3 ADD ADD CODESIZE DUP1 DUP1 PUSH2 0x924 JUMP JUMPDEST DUP6 SLOAD DUP9 DUP5 ADD DUP6 ADD MSTORE SWAP5 DUP6 ADD SWAP5 DUP8 SWAP5 POP SWAP2 DUP4 ADD SWAP2 PUSH2 0x943 JUMP JUMPDEST SWAP3 POP POP POP PUSH2 0x933 SWAP5 SWAP3 POP PUSH1 0xFF NOT AND DUP3 DUP5 ADD MSTORE ISZERO ISZERO PUSH1 0x5 SHL DUP3 ADD ADD CODESIZE DUP1 DUP1 PUSH2 0x924 JUMP INVALID LOG2 PUSH5 0x6970667358 0x22 SLT KECCAK256 0xC2 POP MSTORE8 DELEGATECALL 0xB7 SWAP15 0x2A 0xAE PUSH32 0x20BBCF0064F45D424CEEED5E3488A96CBDFBA3C948D3B364736F6C6343000818 STOP CALLER "},"methodIdentifiers":{"addHerb(string,string,string,string,uint256,uint256)":"db0251f3","getHerbInfo(string)":"5f9106a8","herbs(string)":"e9e37458"}}}}}