{"contracts/Storage.sol":{"DataStorage":{"abi":[{"anonymous":false,"inputs":[{"indexed":true,"internalType":"bytes32","name":"hash","type":"bytes32"},{"indexed":true,"internalType":"address","name":"creator","type":"address"},{"indexed":false,"internalType":"uint256","name":"timestamp","type":"uint256"}],"name":"DataStored","type":"event"},{"inputs":[{"internalType":"bytes32","name":"_hash","type":"bytes32"}],"name":"getData","outputs":[{"components":[{"internalType":"bytes32","name":"dataHash","type":"bytes32"},{"internalType":"string","name":"ipfsHash","type":"string"},{"internalType":"address","name":"creator","type":"address"},{"internalType":"uint256","name":"timestamp","type":"uint256"},{"internalType":"bool","name":"isEncrypted","type":"bool"}],"internalType":"struct DataStorage.DataRecord","name":"","type":"tuple"}],"stateMutability":"view","type":"function"},{"inputs":[{"internalType":"address","name":"_user","type":"address"}],"name":"getUserData","outputs":[{"internalType":"bytes32[]","name":"","type":"bytes32[]"}],"stateMutability":"view","type":"function"},{"inputs":[{"internalType":"bytes32","name":"","type":"bytes32"}],"name":"records","outputs":[{"internalType":"bytes32","name":"dataHash","type":"bytes32"},{"internalType":"string","name":"ipfsHash","type":"string"},{"internalType":"address","name":"creator","type":"address"},{"internalType":"uint256","name":"timestamp","type":"uint256"},{"internalType":"bool","name":"isEncrypted","type":"bool"}],"stateMutability":"view","type":"function"},{"inputs":[{"internalType":"bytes32","name":"_hash","type":"bytes32"},{"internalType":"string","name":"_ipfsHash","type":"string"},{"internalType":"bool","name":"_encrypted","type":"bool"}],"name":"storeData","outputs":[],"stateMutability":"nonpayable","type":"function"},{"inputs":[{"internalType":"address","name":"","type":"address"},{"internalType":"uint256","name":"","type":"uint256"}],"name":"userRecords","outputs":[{"internalType":"bytes32","name":"","type":"bytes32"}],"stateMutability":"view","type":"function"}],"evm":{"bytecode":{"linkReferences":{},"object":"6080806040523461001657610796908161001c8239f35b600080fdfe6080604052600436101561001257600080fd5b60003560e01c806301e647251461054157806354f6127f14610464578063cdc2bc6a1461015f578063e85d28b9146101075763ffc9896b1461005357600080fd5b3461010257602080600319360112610102576001600160a01b0361007561071c565b166000526001906001815260406000209160405191828185549182815201908195600052826000209060005b8181106100ef57505050836100b7910384610615565b60405192818401908285525180915260408401949160005b8281106100dc5785870386f35b83518752958101959281019284016100cf565b82548452928401929185019185016100a1565b600080fd5b346101025760403660031901126101025761012061071c565b6001600160a01b03166000908152600160205260409020805460243591908210156101025760209161015191610732565b90546040519160031b1c8152f35b346101025760603660031901126101025767ffffffffffffffff602435818111610102573660238201121561010257806004013582811161034c57604051916101b2601f8301601f191660200184610615565b818352366024838301011161010257816000926024602093018386013783010152604435918215158093036101025760043560005260006020526003604060002001546104295760405192610206846105f9565b600435845260208401928352336040850152426060850152608084015260043560005260006020526040600020918351835551805191821161034c5761024f60018401546105bf565b601f81116103e2575b50602090601f831160011461036d57918060809492600494600092610362575b50508160011b916000199060031b1c19161760018201555b6002810160018060a01b036040860151166bffffffffffffffffffffffff60a01b8254161790556060840151600382015501910151151560ff80198354169116179055336000526001602052604060002080546801000000000000000081101561034c5761030391600182018155610732565b81549060031b90600435821b91600019901b191617905560405142815233907ff4a53c8ab0643c31242d1baa180adf580c6fd8b89c6ac3726aedbf3ca5fb82cb602060043592a3005b634e487b7160e01b600052604160045260246000fd5b015190508680610278565b906001840160005260206000209160005b601f19851681106103ca5750926080949260019260049583601f198116106103b1575b505050811b016001820155610290565b015160001960f88460031b161c191690558680806103a1565b9192602060018192868501518155019401920161037e565b600184016000526020600020601f840160051c810160208510610422575b601f830160051c82018110610416575050610258565b60008155600101610400565b5080610400565b60405162461bcd60e51b81526020600482015260136024820152724461746120616c72656164792065786973747360681b6044820152606490fd5b34610102576020806003193601126101025760006080604051610486816105f9565b8281526060848201528260408201528260608201520152600435600052600081526040600020604051906104b9826105f9565b805482526104c960018201610637565b83830190815260018060a01b039182600282015416926040850193845261052760ff6004600385015494606089019586520154169360808701941515855260405197889781895251908801525160a0604088015260c08701906106dc565b935116606085015251608084015251151560a08301520390f35b346101025760203660031901126101025760043560005260006020526040600020805461057060018301610637565b9160018060a01b036002820154169060ff6004600383015492015416906105a9604051958695865260a0602087015260a08601906106dc565b9260408501526060840152151560808301520390f35b90600182811c921680156105ef575b60208310146105d957565b634e487b7160e01b600052602260045260246000fd5b91607f16916105ce565b60a0810190811067ffffffffffffffff82111761034c57604052565b90601f8019910116810190811067ffffffffffffffff82111761034c57604052565b9060405191826000825461064a816105bf565b908184526020946001916001811690816000146106ba575060011461067b575b50505061067992500383610615565b565b600090815285812095935091905b8183106106a2575050610679935082010138808061066a565b85548884018501529485019487945091830191610689565b9250505061067994925060ff191682840152151560051b82010138808061066a565b919082519283825260005b848110610708575050826000602080949584010152601f8019910116010190565b6020818301810151848301820152016106e7565b600435906001600160a01b038216820361010257565b805482101561074a5760005260206000200190600090565b634e487b7160e01b600052603260045260246000fdfea264697066735822122053852d9aab0d91fe8c303afefd2de15f0636af32cb5ee5381c8c12e0e33af81664736f6c63430008180033","opcodes":"PUSH1 0x80 DUP1 PUSH1 0x40 MSTORE CALLVALUE PUSH2 0x16 JUMPI PUSH2 0x796 SWAP1 DUP2 PUSH2 0x1C DUP3 CODECOPY RETURN JUMPDEST PUSH1 0x0 DUP1 REVERT INVALID PUSH1 0x80 PUSH1 0x40 MSTORE PUSH1 0x4 CALLDATASIZE LT ISZERO PUSH2 0x12 JUMPI PUSH1 0x0 DUP1 REVERT JUMPDEST PUSH1 0x0 CALLDATALOAD PUSH1 0xE0 SHR DUP1 PUSH4 0x1E64725 EQ PUSH2 0x541 JUMPI DUP1 PUSH4 0x54F6127F EQ PUSH2 0x464 JUMPI DUP1 PUSH4 0xCDC2BC6A EQ PUSH2 0x15F JUMPI DUP1 PUSH4 0xE85D28B9 EQ PUSH2 0x107 JUMPI PUSH4 0xFFC9896B EQ PUSH2 0x53 JUMPI PUSH1 0x0 DUP1 REVERT JUMPDEST CALLVALUE PUSH2 0x102 JUMPI PUSH1 0x20 DUP1 PUSH1 0x3 NOT CALLDATASIZE ADD SLT PUSH2 0x102 JUMPI PUSH1 0x1 PUSH1 0x1 PUSH1 0xA0 SHL SUB PUSH2 0x75 PUSH2 0x71C JUMP JUMPDEST AND PUSH1 0x0 MSTORE PUSH1 0x1 SWAP1 PUSH1 0x1 DUP2 MSTORE PUSH1 0x40 PUSH1 0x0 KECCAK256 SWAP2 PUSH1 0x40 MLOAD SWAP2 DUP3 DUP2 DUP6 SLOAD SWAP2 DUP3 DUP2 MSTORE ADD SWAP1 DUP2 SWAP6 PUSH1 0x0 MSTORE DUP3 PUSH1 0x0 KECCAK256 SWAP1 PUSH1 0x0 JUMPDEST DUP2 DUP2 LT PUSH2 0xEF JUMPI POP POP POP DUP4 PUSH2 0xB7 SWAP2 SUB DUP5 PUSH2 0x615 JUMP JUMPDEST PUSH1 0x40 MLOAD SWAP3 DUP2 DUP5 ADD SWAP1 DUP3 DUP6 MSTORE MLOAD DUP1 SWAP2 MSTORE PUSH1 0x40 DUP5 ADD SWAP5 SWAP2 PUSH1 0x0 JUMPDEST DUP3 DUP2 LT PUSH2 0xDC JUMPI DUP6 DUP8 SUB DUP7 RETURN JUMPDEST DUP4 MLOAD DUP8 MSTORE SWAP6 DUP2 ADD SWAP6 SWAP3 DUP2 ADD SWAP3 DUP5 ADD PUSH2 0xCF JUMP JUMPDEST DUP3 SLOAD DUP5 MSTORE SWAP3 DUP5 ADD SWAP3 SWAP2 DUP6 ADD SWAP2 DUP6 ADD PUSH2 0xA1 JUMP JUMPDEST PUSH1 0x0 DUP1 REVERT JUMPDEST CALLVALUE PUSH2 0x102 JUMPI PUSH1 0x40 CALLDATASIZE PUSH1 0x3 NOT ADD SLT PUSH2 0x102 JUMPI PUSH2 0x120 PUSH2 0x71C JUMP JUMPDEST PUSH1 0x1 PUSH1 0x1 PUSH1 0xA0 SHL SUB AND PUSH1 0x0 SWAP1 DUP2 MSTORE PUSH1 0x1 PUSH1 0x20 MSTORE PUSH1 0x40 SWAP1 KECCAK256 DUP1 SLOAD PUSH1 0x24 CALLDATALOAD SWAP2 SWAP1 DUP3 LT ISZERO PUSH2 0x102 JUMPI PUSH1 0x20 SWAP2 PUSH2 0x151 SWAP2 PUSH2 0x732 JUMP JUMPDEST SWAP1 SLOAD PUSH1 0x40 MLOAD SWAP2 PUSH1 0x3 SHL SHR DUP2 MSTORE RETURN JUMPDEST CALLVALUE PUSH2 0x102 JUMPI PUSH1 0x60 CALLDATASIZE PUSH1 0x3 NOT ADD SLT PUSH2 0x102 JUMPI PUSH8 0xFFFFFFFFFFFFFFFF PUSH1 0x24 CALLDATALOAD DUP2 DUP2 GT PUSH2 0x102 JUMPI CALLDATASIZE PUSH1 0x23 DUP3 ADD SLT ISZERO PUSH2 0x102 JUMPI DUP1 PUSH1 0x4 ADD CALLDATALOAD DUP3 DUP2 GT PUSH2 0x34C JUMPI PUSH1 0x40 MLOAD SWAP2 PUSH2 0x1B2 PUSH1 0x1F DUP4 ADD PUSH1 0x1F NOT AND PUSH1 0x20 ADD DUP5 PUSH2 0x615 JUMP JUMPDEST DUP2 DUP4 MSTORE CALLDATASIZE PUSH1 0x24 DUP4 DUP4 ADD ADD GT PUSH2 0x102 JUMPI DUP2 PUSH1 0x0 SWAP3 PUSH1 0x24 PUSH1 0x20 SWAP4 ADD DUP4 DUP7 ADD CALLDATACOPY DUP4 ADD ADD MSTORE PUSH1 0x44 CALLDATALOAD SWAP2 DUP3 ISZERO ISZERO DUP1 SWAP4 SUB PUSH2 0x102 JUMPI PUSH1 0x4 CALLDATALOAD PUSH1 0x0 MSTORE PUSH1 0x0 PUSH1 0x20 MSTORE PUSH1 0x3 PUSH1 0x40 PUSH1 0x0 KECCAK256 ADD SLOAD PUSH2 0x429 JUMPI PUSH1 0x40 MLOAD SWAP3 PUSH2 0x206 DUP5 PUSH2 0x5F9 JUMP JUMPDEST PUSH1 0x4 CALLDATALOAD DUP5 MSTORE PUSH1 0x20 DUP5 ADD SWAP3 DUP4 MSTORE CALLER PUSH1 0x40 DUP6 ADD MSTORE TIMESTAMP PUSH1 0x60 DUP6 ADD MSTORE PUSH1 0x80 DUP5 ADD MSTORE PUSH1 0x4 CALLDATALOAD PUSH1 0x0 MSTORE PUSH1 0x0 PUSH1 0x20 MSTORE PUSH1 0x40 PUSH1 0x0 KECCAK256 SWAP2 DUP4 MLOAD DUP4 SSTORE MLOAD DUP1 MLOAD SWAP2 DUP3 GT PUSH2 0x34C JUMPI PUSH2 0x24F PUSH1 0x1 DUP5 ADD SLOAD PUSH2 0x5BF JUMP JUMPDEST PUSH1 0x1F DUP2 GT PUSH2 0x3E2 JUMPI JUMPDEST POP PUSH1 0x20 SWAP1 PUSH1 0x1F DUP4 GT PUSH1 0x1 EQ PUSH2 0x36D JUMPI SWAP2 DUP1 PUSH1 0x80 SWAP5 SWAP3 PUSH1 0x4 SWAP5 PUSH1 0x0 SWAP3 PUSH2 0x362 JUMPI JUMPDEST POP POP DUP2 PUSH1 0x1 SHL SWAP2 PUSH1 0x0 NOT SWAP1 PUSH1 0x3 SHL SHR NOT AND OR PUSH1 0x1 DUP3 ADD SSTORE JUMPDEST PUSH1 0x2 DUP2 ADD PUSH1 0x1 DUP1 PUSH1 0xA0 SHL SUB PUSH1 0x40 DUP7 ADD MLOAD AND PUSH12 0xFFFFFFFFFFFFFFFFFFFFFFFF PUSH1 0xA0 SHL DUP3 SLOAD AND OR SWAP1 SSTORE PUSH1 0x60 DUP5 ADD MLOAD PUSH1 0x3 DUP3 ADD SSTORE ADD SWAP2 ADD MLOAD ISZERO ISZERO PUSH1 0xFF DUP1 NOT DUP4 SLOAD AND SWAP2 AND OR SWAP1 SSTORE CALLER PUSH1 0x0 MSTORE PUSH1 0x1 PUSH1 0x20 MSTORE PUSH1 0x40 PUSH1 0x0 KECCAK256 DUP1 SLOAD PUSH9 0x10000000000000000 DUP2 LT ISZERO PUSH2 0x34C JUMPI PUSH2 0x303 SWAP2 PUSH1 0x1 DUP3 ADD DUP2 SSTORE PUSH2 0x732 JUMP JUMPDEST DUP2 SLOAD SWAP1 PUSH1 0x3 SHL SWAP1 PUSH1 0x4 CALLDATALOAD DUP3 SHL SWAP2 PUSH1 0x0 NOT SWAP1 SHL NOT AND OR SWAP1 SSTORE PUSH1 0x40 MLOAD TIMESTAMP DUP2 MSTORE CALLER SWAP1 PUSH32 0xF4A53C8AB0643C31242D1BAA180ADF580C6FD8B89C6AC3726AEDBF3CA5FB82CB PUSH1 0x20 PUSH1 0x4 CALLDATALOAD SWAP3 LOG3 STOP JUMPDEST PUSH4 0x4E487B71 PUSH1 0xE0 SHL PUSH1 0x0 MSTORE PUSH1 0x41 PUSH1 0x4 MSTORE PUSH1 0x24 PUSH1 0x0 REVERT JUMPDEST ADD MLOAD SWAP1 POP DUP7 DUP1 PUSH2 0x278 JUMP JUMPDEST SWAP1 PUSH1 0x1 DUP5 ADD PUSH1 0x0 MSTORE PUSH1 0x20 PUSH1 0x0 KECCAK256 SWAP2 PUSH1 0x0 JUMPDEST PUSH1 0x1F NOT DUP6 AND DUP2 LT PUSH2 0x3CA JUMPI POP SWAP3 PUSH1 0x80 SWAP5 SWAP3 PUSH1 0x1 SWAP3 PUSH1 0x4 SWAP6 DUP4 PUSH1 0x1F NOT DUP2 AND LT PUSH2 0x3B1 JUMPI JUMPDEST POP POP POP DUP2 SHL ADD PUSH1 0x1 DUP3 ADD SSTORE PUSH2 0x290 JUMP JUMPDEST ADD MLOAD PUSH1 0x0 NOT PUSH1 0xF8 DUP5 PUSH1 0x3 SHL AND SHR NOT AND SWAP1 SSTORE DUP7 DUP1 DUP1 PUSH2 0x3A1 JUMP JUMPDEST SWAP2 SWAP3 PUSH1 0x20 PUSH1 0x1 DUP2 SWAP3 DUP7 DUP6 ADD MLOAD DUP2 SSTORE ADD SWAP5 ADD SWAP3 ADD PUSH2 0x37E JUMP JUMPDEST PUSH1 0x1 DUP5 ADD PUSH1 0x0 MSTORE PUSH1 0x20 PUSH1 0x0 KECCAK256 PUSH1 0x1F DUP5 ADD PUSH1 0x5 SHR DUP2 ADD PUSH1 0x20 DUP6 LT PUSH2 0x422 JUMPI JUMPDEST PUSH1 0x1F DUP4 ADD PUSH1 0x5 SHR DUP3 ADD DUP2 LT PUSH2 0x416 JUMPI POP POP PUSH2 0x258 JUMP JUMPDEST PUSH1 0x0 DUP2 SSTORE PUSH1 0x1 ADD PUSH2 0x400 JUMP JUMPDEST POP DUP1 PUSH2 0x400 JUMP JUMPDEST PUSH1 0x40 MLOAD PUSH3 0x461BCD PUSH1 0xE5 SHL DUP2 MSTORE PUSH1 0x20 PUSH1 0x4 DUP3 ADD MSTORE PUSH1 0x13 PUSH1 0x24 DUP3 ADD MSTORE PUSH19 0x4461746120616C726561647920657869737473 PUSH1 0x68 SHL PUSH1 0x44 DUP3 ADD MSTORE PUSH1 0x64 SWAP1 REVERT JUMPDEST CALLVALUE PUSH2 0x102 JUMPI PUSH1 0x20 DUP1 PUSH1 0x3 NOT CALLDATASIZE ADD SLT PUSH2 0x102 JUMPI PUSH1 0x0 PUSH1 0x80 PUSH1 0x40 MLOAD PUSH2 0x486 DUP2 PUSH2 0x5F9 JUMP JUMPDEST DUP3 DUP2 MSTORE PUSH1 0x60 DUP5 DUP3 ADD MSTORE DUP3 PUSH1 0x40 DUP3 ADD MSTORE DUP3 PUSH1 0x60 DUP3 ADD MSTORE ADD MSTORE PUSH1 0x4 CALLDATALOAD PUSH1 0x0 MSTORE PUSH1 0x0 DUP2 MSTORE PUSH1 0x40 PUSH1 0x0 KECCAK256 PUSH1 0x40 MLOAD SWAP1 PUSH2 0x4B9 DUP3 PUSH2 0x5F9 JUMP JUMPDEST DUP1 SLOAD DUP3 MSTORE PUSH2 0x4C9 PUSH1 0x1 DUP3 ADD PUSH2 0x637 JUMP JUMPDEST DUP4 DUP4 ADD SWAP1 DUP2 MSTORE PUSH1 0x1 DUP1 PUSH1 0xA0 SHL SUB SWAP2 DUP3 PUSH1 0x2 DUP3 ADD SLOAD AND SWAP3 PUSH1 0x40 DUP6 ADD SWAP4 DUP5 MSTORE PUSH2 0x527 PUSH1 0xFF PUSH1 0x4 PUSH1 0x3 DUP6 ADD SLOAD SWAP5 PUSH1 0x60 DUP10 ADD SWAP6 DUP7 MSTORE ADD SLOAD AND SWAP4 PUSH1 0x80 DUP8 ADD SWAP5 ISZERO ISZERO DUP6 MSTORE PUSH1 0x40 MLOAD SWAP8 DUP9 SWAP8 DUP2 DUP10 MSTORE MLOAD SWAP1 DUP9 ADD MSTORE MLOAD PUSH1 0xA0 PUSH1 0x40 DUP9 ADD MSTORE PUSH1 0xC0 DUP8 ADD SWAP1 PUSH2 0x6DC JUMP JUMPDEST SWAP4 MLOAD AND PUSH1 0x60 DUP6 ADD MSTORE MLOAD PUSH1 0x80 DUP5 ADD MSTORE MLOAD ISZERO ISZERO PUSH1 0xA0 DUP4 ADD MSTORE SUB SWAP1 RETURN JUMPDEST CALLVALUE PUSH2 0x102 JUMPI PUSH1 0x20 CALLDATASIZE PUSH1 0x3 NOT ADD SLT PUSH2 0x102 JUMPI PUSH1 0x4 CALLDATALOAD PUSH1 0x0 MSTORE PUSH1 0x0 PUSH1 0x20 MSTORE PUSH1 0x40 PUSH1 0x0 KECCAK256 DUP1 SLOAD PUSH2 0x570 PUSH1 0x1 DUP4 ADD PUSH2 0x637 JUMP JUMPDEST SWAP2 PUSH1 0x1 DUP1 PUSH1 0xA0 SHL SUB PUSH1 0x2 DUP3 ADD SLOAD AND SWAP1 PUSH1 0xFF PUSH1 0x4 PUSH1 0x3 DUP4 ADD SLOAD SWAP3 ADD SLOAD AND SWAP1 PUSH2 0x5A9 PUSH1 0x40 MLOAD SWAP6 DUP7 SWAP6 DUP7 MSTORE PUSH1 0xA0 PUSH1 0x20 DUP8 ADD MSTORE PUSH1 0xA0 DUP7 ADD SWAP1 PUSH2 0x6DC JUMP JUMPDEST SWAP3 PUSH1 0x40 DUP6 ADD MSTORE PUSH1 0x60 DUP5 ADD MSTORE ISZERO ISZERO PUSH1 0x80 DUP4 ADD MSTORE SUB SWAP1 RETURN JUMPDEST SWAP1 PUSH1 0x1 DUP3 DUP2 SHR SWAP3 AND DUP1 ISZERO PUSH2 0x5EF JUMPI JUMPDEST PUSH1 0x20 DUP4 LT EQ PUSH2 0x5D9 JUMPI JUMP JUMPDEST PUSH4 0x4E487B71 PUSH1 0xE0 SHL PUSH1 0x0 MSTORE PUSH1 0x22 PUSH1 0x4 MSTORE PUSH1 0x24 PUSH1 0x0 REVERT JUMPDEST SWAP2 PUSH1 0x7F AND SWAP2 PUSH2 0x5CE JUMP JUMPDEST PUSH1 0xA0 DUP2 ADD SWAP1 DUP2 LT PUSH8 0xFFFFFFFFFFFFFFFF DUP3 GT OR PUSH2 0x34C JUMPI PUSH1 0x40 MSTORE JUMP JUMPDEST SWAP1 PUSH1 0x1F DUP1 NOT SWAP2 ADD AND DUP2 ADD SWAP1 DUP2 LT PUSH8 0xFFFFFFFFFFFFFFFF DUP3 GT OR PUSH2 0x34C JUMPI PUSH1 0x40 MSTORE JUMP JUMPDEST SWAP1 PUSH1 0x40 MLOAD SWAP2 DUP3 PUSH1 0x0 DUP3 SLOAD PUSH2 0x64A DUP2 PUSH2 0x5BF JUMP JUMPDEST SWAP1 DUP2 DUP5 MSTORE PUSH1 0x20 SWAP5 PUSH1 0x1 SWAP2 PUSH1 0x1 DUP2 AND SWAP1 DUP2 PUSH1 0x0 EQ PUSH2 0x6BA JUMPI POP PUSH1 0x1 EQ PUSH2 0x67B JUMPI JUMPDEST POP POP POP PUSH2 0x679 SWAP3 POP SUB DUP4 PUSH2 0x615 JUMP JUMPDEST JUMP JUMPDEST PUSH1 0x0 SWAP1 DUP2 MSTORE DUP6 DUP2 KECCAK256 SWAP6 SWAP4 POP SWAP2 SWAP1 JUMPDEST DUP2 DUP4 LT PUSH2 0x6A2 JUMPI POP POP PUSH2 0x679 SWAP4 POP DUP3 ADD ADD CODESIZE DUP1 DUP1 PUSH2 0x66A JUMP JUMPDEST DUP6 SLOAD DUP9 DUP5 ADD DUP6 ADD MSTORE SWAP5 DUP6 ADD SWAP5 DUP8 SWAP5 POP SWAP2 DUP4 ADD SWAP2 PUSH2 0x689 JUMP JUMPDEST SWAP3 POP POP POP PUSH2 0x679 SWAP5 SWAP3 POP PUSH1 0xFF NOT AND DUP3 DUP5 ADD MSTORE ISZERO ISZERO PUSH1 0x5 SHL DUP3 ADD ADD CODESIZE DUP1 DUP1 PUSH2 0x66A JUMP JUMPDEST SWAP2 SWAP1 DUP3 MLOAD SWAP3 DUP4 DUP3 MSTORE PUSH1 0x0 JUMPDEST DUP5 DUP2 LT PUSH2 0x708 JUMPI POP POP DUP3 PUSH1 0x0 PUSH1 0x20 DUP1 SWAP5 SWAP6 DUP5 ADD ADD MSTORE PUSH1 0x1F DUP1 NOT SWAP2 ADD AND ADD ADD SWAP1 JUMP JUMPDEST PUSH1 0x20 DUP2 DUP4 ADD DUP2 ADD MLOAD DUP5 DUP4 ADD DUP3 ADD MSTORE ADD PUSH2 0x6E7 JUMP JUMPDEST PUSH1 0x4 CALLDATALOAD SWAP1 PUSH1 0x1 PUSH1 0x1 PUSH1 0xA0 SHL SUB DUP3 AND DUP3 SUB PUSH2 0x102 JUMPI JUMP JUMPDEST DUP1 SLOAD DUP3 LT ISZERO PUSH2 0x74A JUMPI PUSH1 0x0 MSTORE PUSH1 0x20 PUSH1 0x0 KECCAK256 ADD SWAP1 PUSH1 0x0 SWAP1 JUMP JUMPDEST PUSH4 0x4E487B71 PUSH1 0xE0 SHL PUSH1 0x0 MSTORE PUSH1 0x32 PUSH1 0x4 MSTORE PUSH1 0x24 PUSH1 0x0 REVERT INVALID LOG2 PUSH5 0x6970667358 0x22 SLT KECCAK256 MSTORE8 DUP6 0x2D SWAP11 0xAB 0xD SWAP2 INVALID DUP13 ADDRESS GASPRICE INVALID REVERT 0x2D 0xE1 PUSH0 MOD CALLDATASIZE 0xAF ORIGIN 0xCB MCOPY 0xE5 CODESIZE SHR DUP13 SLT 0xE0 0xE3 GASPRICE 0xF8 AND PUSH5 0x736F6C6343 STOP ADDMOD XOR STOP CALLER "},"methodIdentifiers":{"getData(bytes32)":"54f6127f","getUserData(address)":"ffc9896b","records(bytes32)":"01e64725","storeData(bytes32,string,bool)":"cdc2bc6a","userRecords(address,uint256)":"e85d28b9"}}}}}