{"contracts/TokenClaim.sol":{"TokenClaim":{"abi":[{"inputs":[],"stateMutability":"nonpayable","type":"constructor"},{"anonymous":false,"inputs":[{"indexed":false,"internalType":"address","name":"claimant","type":"address"},{"indexed":false,"internalType":"uint256","name":"amount","type":"uint256"}],"name":"Claimed","type":"event"},{"inputs":[],"name":"claim","outputs":[],"stateMutability":"nonpayable","type":"function"},{"inputs":[{"internalType":"address","name":"","type":"address"}],"name":"claimAmounts","outputs":[{"internalType":"uint256","name":"","type":"uint256"}],"stateMutability":"view","type":"function"},{"inputs":[{"internalType":"address","name":"","type":"address"}],"name":"claimed","outputs":[{"internalType":"bool","name":"","type":"bool"}],"stateMutability":"view","type":"function"},{"inputs":[],"name":"distributor","outputs":[{"internalType":"address","name":"","type":"address"}],"stateMutability":"view","type":"function"},{"inputs":[{"internalType":"address[]","name":"_addresses","type":"address[]"},{"internalType":"uint256[]","name":"_amounts","type":"uint256[]"}],"name":"setClaimAmounts","outputs":[],"stateMutability":"nonpayable","type":"function"},{"inputs":[],"name":"totalClaimed","outputs":[{"internalType":"uint256","name":"","type":"uint256"}],"stateMutability":"view","type":"function"},{"stateMutability":"payable","type":"receive"}],"evm":{"bytecode":{"linkReferences":{},"object":"6080806040523461002857600380546001600160a01b031916331790556104c8908161002e8239f35b600080fdfe6080604081815260049182361015610022575b505050361561002057600080fd5b005b600092833560e01c9182634e71d92d146102b2575081636d4d226e1461027a578163ab4baaf4146100f957508063bfe10928146100d1578063c884ef83146100955763d54ad2a1146100745780610012565b346100915781600319360112610091576020906002549051908152f35b5080fd5b50346100915760203660031901126100915760209160ff9082906001600160a01b036100bf6103f9565b16815280855220541690519015158152f35b503461009157816003193601126100915760035490516001600160a01b039091168152602090f35b83833461009157806003193601126100915782359067ffffffffffffffff92838311610277573660238401121561027757828501359260249561014361013e86610450565b610414565b9182958084528860208095019160051b8301019136831161024c578901905b828210610254575050508635958611610250573660238701121561025057858101359561019161013e88610450565b96888489838152019160051b8301019136831161024c5789859101915b83831061023c5750506003546001600160a01b0399925089163303905061020a575050815b845181101561020657806101e960019288610468565b51886101f58389610468565b5116855282845285852055016101d3565b8280f35b600f9060649386519362461bcd60e51b85528401528201526e2737ba103234b9ba3934b13aba37b960891b6044820152fd5b82358152918101918591016101ae565b8580fd5b8280fd5b81356001600160a01b0381168103610273578152908401908401610162565b8680fd5b80fd5b5050346100915760203660031901126100915760209181906001600160a01b036102a26103f9565b1681526001845220549051908152f35b9150346103f557836003193601126103f55733845260209184835260ff84862054166103c4575033845260018252828420541561039857338452838252828420600160ff19825416179055600182528284205490600254918201809211610385575060025533835260018152828080808581205481811561037c575b3390f11561037157907fd8138f8a3f377c5259ca548e70e4c2de94f129f5a11036a15b69513cba2b426a913384526001815281842054825191338352820152a180f35b5051903d90823e3d90fd5b506108fc61032e565b634e487b7160e01b855260119052602484fd5b915162461bcd60e51b81529182015260086024820152674e6f20636c61696d60c01b6044820152606490fd5b8260649262461bcd60e51b8352820152600f60248201526e105b1c9958591e4818db185a5b5959608a1b6044820152fd5b8380fd5b600435906001600160a01b038216820361040f57565b600080fd5b6040519190601f01601f1916820167ffffffffffffffff81118382101761043a57604052565b634e487b7160e01b600052604160045260246000fd5b67ffffffffffffffff811161043a5760051b60200190565b805182101561047c5760209160051b010190565b634e487b7160e01b600052603260045260246000fdfea26469706673582212201545040cfdfc9dff4a5ef777507acedb79d78dbbebf29c2d378f9d58468170c264736f6c63430008180033","opcodes":"PUSH1 0x80 DUP1 PUSH1 0x40 MSTORE CALLVALUE PUSH2 0x28 JUMPI PUSH1 0x3 DUP1 SLOAD PUSH1 0x1 PUSH1 0x1 PUSH1 0xA0 SHL SUB NOT AND CALLER OR SWAP1 SSTORE PUSH2 0x4C8 SWAP1 DUP2 PUSH2 0x2E DUP3 CODECOPY RETURN JUMPDEST PUSH1 0x0 DUP1 REVERT INVALID PUSH1 0x80 PUSH1 0x40 DUP2 DUP2 MSTORE PUSH1 0x4 SWAP2 DUP3 CALLDATASIZE LT ISZERO PUSH2 0x22 JUMPI JUMPDEST POP POP POP CALLDATASIZE ISZERO PUSH2 0x20 JUMPI PUSH1 0x0 DUP1 REVERT JUMPDEST STOP JUMPDEST PUSH1 0x0 SWAP3 DUP4 CALLDATALOAD PUSH1 0xE0 SHR SWAP2 DUP3 PUSH4 0x4E71D92D EQ PUSH2 0x2B2 JUMPI POP DUP2 PUSH4 0x6D4D226E EQ PUSH2 0x27A JUMPI DUP2 PUSH4 0xAB4BAAF4 EQ PUSH2 0xF9 JUMPI POP DUP1 PUSH4 0xBFE10928 EQ PUSH2 0xD1 JUMPI DUP1 PUSH4 0xC884EF83 EQ PUSH2 0x95 JUMPI PUSH4 0xD54AD2A1 EQ PUSH2 0x74 JUMPI DUP1 PUSH2 0x12 JUMP JUMPDEST CALLVALUE PUSH2 0x91 JUMPI DUP2 PUSH1 0x3 NOT CALLDATASIZE ADD SLT PUSH2 0x91 JUMPI PUSH1 0x20 SWAP1 PUSH1 0x2 SLOAD SWAP1 MLOAD SWAP1 DUP2 MSTORE RETURN JUMPDEST POP DUP1 REVERT JUMPDEST POP CALLVALUE PUSH2 0x91 JUMPI PUSH1 0x20 CALLDATASIZE PUSH1 0x3 NOT ADD SLT PUSH2 0x91 JUMPI PUSH1 0x20 SWAP2 PUSH1 0xFF SWAP1 DUP3 SWAP1 PUSH1 0x1 PUSH1 0x1 PUSH1 0xA0 SHL SUB PUSH2 0xBF PUSH2 0x3F9 JUMP JUMPDEST AND DUP2 MSTORE DUP1 DUP6 MSTORE KECCAK256 SLOAD AND SWAP1 MLOAD SWAP1 ISZERO ISZERO DUP2 MSTORE RETURN JUMPDEST POP CALLVALUE PUSH2 0x91 JUMPI DUP2 PUSH1 0x3 NOT CALLDATASIZE ADD SLT PUSH2 0x91 JUMPI PUSH1 0x3 SLOAD SWAP1 MLOAD PUSH1 0x1 PUSH1 0x1 PUSH1 0xA0 SHL SUB SWAP1 SWAP2 AND DUP2 MSTORE PUSH1 0x20 SWAP1 RETURN JUMPDEST DUP4 DUP4 CALLVALUE PUSH2 0x91 JUMPI DUP1 PUSH1 0x3 NOT CALLDATASIZE ADD SLT PUSH2 0x91 JUMPI DUP3 CALLDATALOAD SWAP1 PUSH8 0xFFFFFFFFFFFFFFFF SWAP3 DUP4 DUP4 GT PUSH2 0x277 JUMPI CALLDATASIZE PUSH1 0x23 DUP5 ADD SLT ISZERO PUSH2 0x277 JUMPI DUP3 DUP6 ADD CALLDATALOAD SWAP3 PUSH1 0x24 SWAP6 PUSH2 0x143 PUSH2 0x13E DUP7 PUSH2 0x450 JUMP JUMPDEST PUSH2 0x414 JUMP JUMPDEST SWAP2 DUP3 SWAP6 DUP1 DUP5 MSTORE DUP9 PUSH1 0x20 DUP1 SWAP6 ADD SWAP2 PUSH1 0x5 SHL DUP4 ADD ADD SWAP2 CALLDATASIZE DUP4 GT PUSH2 0x24C JUMPI DUP10 ADD SWAP1 JUMPDEST DUP3 DUP3 LT PUSH2 0x254 JUMPI POP POP POP DUP7 CALLDATALOAD SWAP6 DUP7 GT PUSH2 0x250 JUMPI CALLDATASIZE PUSH1 0x23 DUP8 ADD SLT ISZERO PUSH2 0x250 JUMPI DUP6 DUP2 ADD CALLDATALOAD SWAP6 PUSH2 0x191 PUSH2 0x13E DUP9 PUSH2 0x450 JUMP JUMPDEST SWAP7 DUP9 DUP5 DUP10 DUP4 DUP2 MSTORE ADD SWAP2 PUSH1 0x5 SHL DUP4 ADD ADD SWAP2 CALLDATASIZE DUP4 GT PUSH2 0x24C JUMPI DUP10 DUP6 SWAP2 ADD SWAP2 JUMPDEST DUP4 DUP4 LT PUSH2 0x23C JUMPI POP POP PUSH1 0x3 SLOAD PUSH1 0x1 PUSH1 0x1 PUSH1 0xA0 SHL SUB SWAP10 SWAP3 POP DUP10 AND CALLER SUB SWAP1 POP PUSH2 0x20A JUMPI POP POP DUP2 JUMPDEST DUP5 MLOAD DUP2 LT ISZERO PUSH2 0x206 JUMPI DUP1 PUSH2 0x1E9 PUSH1 0x1 SWAP3 DUP9 PUSH2 0x468 JUMP JUMPDEST MLOAD DUP9 PUSH2 0x1F5 DUP4 DUP10 PUSH2 0x468 JUMP JUMPDEST MLOAD AND DUP6 MSTORE DUP3 DUP5 MSTORE DUP6 DUP6 KECCAK256 SSTORE ADD PUSH2 0x1D3 JUMP JUMPDEST DUP3 DUP1 RETURN JUMPDEST PUSH1 0xF SWAP1 PUSH1 0x64 SWAP4 DUP7 MLOAD SWAP4 PUSH3 0x461BCD PUSH1 0xE5 SHL DUP6 MSTORE DUP5 ADD MSTORE DUP3 ADD MSTORE PUSH15 0x2737BA103234B9BA3934B13ABA37B9 PUSH1 0x89 SHL PUSH1 0x44 DUP3 ADD MSTORE REVERT JUMPDEST DUP3 CALLDATALOAD DUP2 MSTORE SWAP2 DUP2 ADD SWAP2 DUP6 SWAP2 ADD PUSH2 0x1AE JUMP JUMPDEST DUP6 DUP1 REVERT JUMPDEST DUP3 DUP1 REVERT JUMPDEST DUP2 CALLDATALOAD PUSH1 0x1 PUSH1 0x1 PUSH1 0xA0 SHL SUB DUP2 AND DUP2 SUB PUSH2 0x273 JUMPI DUP2 MSTORE SWAP1 DUP5 ADD SWAP1 DUP5 ADD PUSH2 0x162 JUMP JUMPDEST DUP7 DUP1 REVERT JUMPDEST DUP1 REVERT JUMPDEST POP POP CALLVALUE PUSH2 0x91 JUMPI PUSH1 0x20 CALLDATASIZE PUSH1 0x3 NOT ADD SLT PUSH2 0x91 JUMPI PUSH1 0x20 SWAP2 DUP2 SWAP1 PUSH1 0x1 PUSH1 0x1 PUSH1 0xA0 SHL SUB PUSH2 0x2A2 PUSH2 0x3F9 JUMP JUMPDEST AND DUP2 MSTORE PUSH1 0x1 DUP5 MSTORE KECCAK256 SLOAD SWAP1 MLOAD SWAP1 DUP2 MSTORE RETURN JUMPDEST SWAP2 POP CALLVALUE PUSH2 0x3F5 JUMPI DUP4 PUSH1 0x3 NOT CALLDATASIZE ADD SLT PUSH2 0x3F5 JUMPI CALLER DUP5 MSTORE PUSH1 0x20 SWAP2 DUP5 DUP4 MSTORE PUSH1 0xFF DUP5 DUP7 KECCAK256 SLOAD AND PUSH2 0x3C4 JUMPI POP CALLER DUP5 MSTORE PUSH1 0x1 DUP3 MSTORE DUP3 DUP5 KECCAK256 SLOAD ISZERO PUSH2 0x398 JUMPI CALLER DUP5 MSTORE DUP4 DUP3 MSTORE DUP3 DUP5 KECCAK256 PUSH1 0x1 PUSH1 0xFF NOT DUP3 SLOAD AND OR SWAP1 SSTORE PUSH1 0x1 DUP3 MSTORE DUP3 DUP5 KECCAK256 SLOAD SWAP1 PUSH1 0x2 SLOAD SWAP2 DUP3 ADD DUP1 SWAP3 GT PUSH2 0x385 JUMPI POP PUSH1 0x2 SSTORE CALLER DUP4 MSTORE PUSH1 0x1 DUP2 MSTORE DUP3 DUP1 DUP1 DUP1 DUP6 DUP2 KECCAK256 SLOAD DUP2 DUP2 ISZERO PUSH2 0x37C JUMPI JUMPDEST CALLER SWAP1 CALL ISZERO PUSH2 0x371 JUMPI SWAP1 PUSH32 0xD8138F8A3F377C5259CA548E70E4C2DE94F129F5A11036A15B69513CBA2B426A SWAP2 CALLER DUP5 MSTORE PUSH1 0x1 DUP2 MSTORE DUP2 DUP5 KECCAK256 SLOAD DUP3 MLOAD SWAP2 CALLER DUP4 MSTORE DUP3 ADD MSTORE LOG1 DUP1 RETURN JUMPDEST POP MLOAD SWAP1 RETURNDATASIZE SWAP1 DUP3 RETURNDATACOPY RETURNDATASIZE SWAP1 REVERT JUMPDEST POP PUSH2 0x8FC PUSH2 0x32E JUMP JUMPDEST PUSH4 0x4E487B71 PUSH1 0xE0 SHL DUP6 MSTORE PUSH1 0x11 SWAP1 MSTORE PUSH1 0x24 DUP5 REVERT JUMPDEST SWAP2 MLOAD PUSH3 0x461BCD PUSH1 0xE5 SHL DUP2 MSTORE SWAP2 DUP3 ADD MSTORE PUSH1 0x8 PUSH1 0x24 DUP3 ADD MSTORE PUSH8 0x4E6F20636C61696D PUSH1 0xC0 SHL PUSH1 0x44 DUP3 ADD MSTORE PUSH1 0x64 SWAP1 REVERT JUMPDEST DUP3 PUSH1 0x64 SWAP3 PUSH3 0x461BCD PUSH1 0xE5 SHL DUP4 MSTORE DUP3 ADD MSTORE PUSH1 0xF PUSH1 0x24 DUP3 ADD MSTORE PUSH15 0x105B1C9958591E4818DB185A5B5959 PUSH1 0x8A SHL PUSH1 0x44 DUP3 ADD MSTORE REVERT JUMPDEST DUP4 DUP1 REVERT JUMPDEST PUSH1 0x4 CALLDATALOAD SWAP1 PUSH1 0x1 PUSH1 0x1 PUSH1 0xA0 SHL SUB DUP3 AND DUP3 SUB PUSH2 0x40F JUMPI JUMP JUMPDEST PUSH1 0x0 DUP1 REVERT JUMPDEST PUSH1 0x40 MLOAD SWAP2 SWAP1 PUSH1 0x1F ADD PUSH1 0x1F NOT AND DUP3 ADD PUSH8 0xFFFFFFFFFFFFFFFF DUP2 GT DUP4 DUP3 LT OR PUSH2 0x43A JUMPI PUSH1 0x40 MSTORE JUMP JUMPDEST PUSH4 0x4E487B71 PUSH1 0xE0 SHL PUSH1 0x0 MSTORE PUSH1 0x41 PUSH1 0x4 MSTORE PUSH1 0x24 PUSH1 0x0 REVERT JUMPDEST PUSH8 0xFFFFFFFFFFFFFFFF DUP2 GT PUSH2 0x43A JUMPI PUSH1 0x5 SHL PUSH1 0x20 ADD SWAP1 JUMP JUMPDEST DUP1 MLOAD DUP3 LT ISZERO PUSH2 0x47C JUMPI PUSH1 0x20 SWAP2 PUSH1 0x5 SHL ADD ADD SWAP1 JUMP JUMPDEST PUSH4 0x4E487B71 PUSH1 0xE0 SHL PUSH1 0x0 MSTORE PUSH1 0x32 PUSH1 0x4 MSTORE PUSH1 0x24 PUSH1 0x0 REVERT INVALID LOG2 PUSH5 0x6970667358 0x22 SLT KECCAK256 ISZERO GASLIMIT DIV 0xC REVERT 0xFC SWAP14 SELFDESTRUCT BLOBBASEFEE MCOPY 0xF7 PUSH24 0x507ACEDB79D78DBBEBF29C2D378F9D58468170C264736F6C PUSH4 0x43000818 STOP CALLER "},"methodIdentifiers":{"claim()":"4e71d92d","claimAmounts(address)":"6d4d226e","claimed(address)":"c884ef83","distributor()":"bfe10928","setClaimAmounts(address[],uint256[])":"ab4baaf4","totalClaimed()":"d54ad2a1"}}}}}