{"contracts/FarmerRegistry.sol":{"FarmerRegistry":{"abi":[{"inputs":[{"internalType":"uint256","name":"","type":"uint256"}],"name":"farmerAddresses","outputs":[{"internalType":"address","name":"","type":"address"}],"stateMutability":"view","type":"function"},{"inputs":[{"internalType":"address","name":"","type":"address"}],"name":"farmers","outputs":[{"internalType":"string","name":"name","type":"string"},{"internalType":"string","name":"location","type":"string"},{"internalType":"uint256","name":"registeredAt","type":"uint256"},{"internalType":"bool","name":"verified","type":"bool"}],"stateMutability":"view","type":"function"},{"inputs":[],"name":"getFarmerCount","outputs":[{"internalType":"uint256","name":"","type":"uint256"}],"stateMutability":"view","type":"function"},{"inputs":[{"internalType":"string","name":"_name","type":"string"},{"internalType":"string","name":"_location","type":"string"}],"name":"register","outputs":[],"stateMutability":"nonpayable","type":"function"},{"inputs":[{"internalType":"address","name":"_farmer","type":"address"}],"name":"verify","outputs":[],"stateMutability":"nonpayable","type":"function"}],"evm":{"bytecode":{"linkReferences":{},"object":"60808060405234610016576106f9908161001c8239f35b600080fdfe6040608081526004908136101561001557600080fd5b600091823560e01c9081633ffbd47f14610190578163401b21681461010457816363a9c3d7146100c3578163b9cc16141461007b575063c4a8b5d51461005a57600080fd5b346100775781600319360112610077576020906001549051908152f35b5080fd5b9050346100bf5760203660031901126100bf5735916001548310156100bc57506100a6602092610676565b905491519160018060a01b039160031b1c168152f35b80fd5b8280fd5b9050346100bf5760203660031901126100bf57356001600160a01b03811691908290036100bf57600391835282602052822001600160ff1982541617905580f35b9050346100bf5760203660031901126100bf57356001600160a01b038116908190036100bf57828291610173945280602052209061014182610591565b9161014e60018201610591565b9061018160ff6003600284015493015416928451968796608088526080880190610636565b908682036020880152610636565b92840152151560608301520390f35b83833461007757806003193601126100775767ffffffffffffffff9083358281116104bf576101c290369086016104fb565b6024358381116104bb576101d990369087016104fb565b9082519060808201828110868211176104a857845281526020918282019081528382019042825260608301948786523388528785528720925195865181811161049557806102278654610557565b98601f998a8111610449575b5087908a83116001146103e6578b926103db575b50508160011b916000199060031b1c19161784555b60019687850192519586519283116103c8576102788454610557565b828111610385575b5080918311600114610321575081906003968a92610316575b505060001982871b1c191690871b1790555b516002820155019051151560ff80198354169116179055805490680100000000000000008210156103035781810190556102e490610676565b81546001600160a01b0360039290921b91821b19163390911b17905580f35b634e487b7160e01b835260418452602483fd5b015190508a80610299565b889291601f198316858c52828c20928c905b82821061036c575050978360039910610354575b505050811b0190556102ab565b015160001983891b60f8161c191690558a8080610347565b838b015185558c96909401939283019290810190610333565b848b52818b208380860160051c8201928487106103bf575b0160051c01908a905b8281106103b4575050610280565b8c8155018a906103a6565b9250819261039d565b634e487b7160e01b8a5260418b5260248afd5b015190508b80610247565b878c52888c209250601f1984168c5b8a82821061043357505090846001959493921061041a575b505050811b01845561025c565b015160001960f88460031b161c191690558b808061040d565b60018596829396860151815501950193016103f5565b909150868b52878b208a80850160051c8201928a861061048c575b9085949392910160051c01905b81811061047e5750610233565b8c8155849350600101610471565b92508192610464565b634e487b7160e01b895260418a52602489fd5b634e487b7160e01b875260418852602487fd5b8480fd5b8380fd5b90601f8019910116810190811067ffffffffffffffff8211176104e557604052565b634e487b7160e01b600052604160045260246000fd5b81601f820112156105525780359067ffffffffffffffff82116104e55760405192610530601f8401601f1916602001856104c3565b8284526020838301011161055257816000926020809301838601378301015290565b600080fd5b90600182811c92168015610587575b602083101461057157565b634e487b7160e01b600052602260045260246000fd5b91607f1691610566565b906040519182600082546105a481610557565b9081845260209460019160018116908160001461061457506001146105d5575b5050506105d3925003836104c3565b565b600090815285812095935091905b8183106105fc5750506105d393508201013880806105c4565b855488840185015294850194879450918301916105e3565b925050506105d394925060ff191682840152151560051b8201013880806105c4565b919082519283825260005b848110610662575050826000602080949584010152601f8019910116010190565b602081830181015184830182015201610641565b6001548110156106ad5760016000527fb10e2d527612073b26eecdfd717e6a320cf44b4afac2b0732d9fcbe2b7fa0cf60190600090565b634e487b7160e01b600052603260045260246000fdfea2646970667358221220bb35a9eaf04fca0965a589b0f4463be9fbed19521286d2bfaa322b112ee6e17a64736f6c63430008180033","opcodes":"PUSH1 0x80 DUP1 PUSH1 0x40 MSTORE CALLVALUE PUSH2 0x16 JUMPI PUSH2 0x6F9 SWAP1 DUP2 PUSH2 0x1C DUP3 CODECOPY RETURN JUMPDEST PUSH1 0x0 DUP1 REVERT INVALID PUSH1 0x40 PUSH1 0x80 DUP2 MSTORE PUSH1 0x4 SWAP1 DUP2 CALLDATASIZE LT ISZERO PUSH2 0x15 JUMPI PUSH1 0x0 DUP1 REVERT JUMPDEST PUSH1 0x0 SWAP2 DUP3 CALLDATALOAD PUSH1 0xE0 SHR SWAP1 DUP2 PUSH4 0x3FFBD47F EQ PUSH2 0x190 JUMPI DUP2 PUSH4 0x401B2168 EQ PUSH2 0x104 JUMPI DUP2 PUSH4 0x63A9C3D7 EQ PUSH2 0xC3 JUMPI DUP2 PUSH4 0xB9CC1614 EQ PUSH2 0x7B JUMPI POP PUSH4 0xC4A8B5D5 EQ PUSH2 0x5A JUMPI PUSH1 0x0 DUP1 REVERT JUMPDEST CALLVALUE PUSH2 0x77 JUMPI DUP2 PUSH1 0x3 NOT CALLDATASIZE ADD SLT PUSH2 0x77 JUMPI PUSH1 0x20 SWAP1 PUSH1 0x1 SLOAD SWAP1 MLOAD SWAP1 DUP2 MSTORE RETURN JUMPDEST POP DUP1 REVERT JUMPDEST SWAP1 POP CALLVALUE PUSH2 0xBF JUMPI PUSH1 0x20 CALLDATASIZE PUSH1 0x3 NOT ADD SLT PUSH2 0xBF JUMPI CALLDATALOAD SWAP2 PUSH1 0x1 SLOAD DUP4 LT ISZERO PUSH2 0xBC JUMPI POP PUSH2 0xA6 PUSH1 0x20 SWAP3 PUSH2 0x676 JUMP JUMPDEST SWAP1 SLOAD SWAP2 MLOAD SWAP2 PUSH1 0x1 DUP1 PUSH1 0xA0 SHL SUB SWAP2 PUSH1 0x3 SHL SHR AND DUP2 MSTORE RETURN JUMPDEST DUP1 REVERT JUMPDEST DUP3 DUP1 REVERT JUMPDEST SWAP1 POP CALLVALUE PUSH2 0xBF JUMPI PUSH1 0x20 CALLDATASIZE PUSH1 0x3 NOT ADD SLT PUSH2 0xBF JUMPI CALLDATALOAD PUSH1 0x1 PUSH1 0x1 PUSH1 0xA0 SHL SUB DUP2 AND SWAP2 SWAP1 DUP3 SWAP1 SUB PUSH2 0xBF JUMPI PUSH1 0x3 SWAP2 DUP4 MSTORE DUP3 PUSH1 0x20 MSTORE DUP3 KECCAK256 ADD PUSH1 0x1 PUSH1 0xFF NOT DUP3 SLOAD AND OR SWAP1 SSTORE DUP1 RETURN JUMPDEST SWAP1 POP CALLVALUE PUSH2 0xBF JUMPI PUSH1 0x20 CALLDATASIZE PUSH1 0x3 NOT ADD SLT PUSH2 0xBF JUMPI CALLDATALOAD PUSH1 0x1 PUSH1 0x1 PUSH1 0xA0 SHL SUB DUP2 AND SWAP1 DUP2 SWAP1 SUB PUSH2 0xBF JUMPI DUP3 DUP3 SWAP2 PUSH2 0x173 SWAP5 MSTORE DUP1 PUSH1 0x20 MSTORE KECCAK256 SWAP1 PUSH2 0x141 DUP3 PUSH2 0x591 JUMP JUMPDEST SWAP2 PUSH2 0x14E PUSH1 0x1 DUP3 ADD PUSH2 0x591 JUMP JUMPDEST SWAP1 PUSH2 0x181 PUSH1 0xFF PUSH1 0x3 PUSH1 0x2 DUP5 ADD SLOAD SWAP4 ADD SLOAD AND SWAP3 DUP5 MLOAD SWAP7 DUP8 SWAP7 PUSH1 0x80 DUP9 MSTORE PUSH1 0x80 DUP9 ADD SWAP1 PUSH2 0x636 JUMP JUMPDEST SWAP1 DUP7 DUP3 SUB PUSH1 0x20 DUP9 ADD MSTORE PUSH2 0x636 JUMP JUMPDEST SWAP3 DUP5 ADD MSTORE ISZERO ISZERO PUSH1 0x60 DUP4 ADD MSTORE SUB SWAP1 RETURN JUMPDEST DUP4 DUP4 CALLVALUE PUSH2 0x77 JUMPI DUP1 PUSH1 0x3 NOT CALLDATASIZE ADD SLT PUSH2 0x77 JUMPI PUSH8 0xFFFFFFFFFFFFFFFF SWAP1 DUP4 CALLDATALOAD DUP3 DUP2 GT PUSH2 0x4BF JUMPI PUSH2 0x1C2 SWAP1 CALLDATASIZE SWAP1 DUP7 ADD PUSH2 0x4FB JUMP JUMPDEST PUSH1 0x24 CALLDATALOAD DUP4 DUP2 GT PUSH2 0x4BB JUMPI PUSH2 0x1D9 SWAP1 CALLDATASIZE SWAP1 DUP8 ADD PUSH2 0x4FB JUMP JUMPDEST SWAP1 DUP3 MLOAD SWAP1 PUSH1 0x80 DUP3 ADD DUP3 DUP2 LT DUP7 DUP3 GT OR PUSH2 0x4A8 JUMPI DUP5 MSTORE DUP2 MSTORE PUSH1 0x20 SWAP2 DUP3 DUP3 ADD SWAP1 DUP2 MSTORE DUP4 DUP3 ADD SWAP1 TIMESTAMP DUP3 MSTORE PUSH1 0x60 DUP4 ADD SWAP5 DUP8 DUP7 MSTORE CALLER DUP9 MSTORE DUP8 DUP6 MSTORE DUP8 KECCAK256 SWAP3 MLOAD SWAP6 DUP7 MLOAD DUP2 DUP2 GT PUSH2 0x495 JUMPI DUP1 PUSH2 0x227 DUP7 SLOAD PUSH2 0x557 JUMP JUMPDEST SWAP9 PUSH1 0x1F SWAP10 DUP11 DUP2 GT PUSH2 0x449 JUMPI JUMPDEST POP DUP8 SWAP1 DUP11 DUP4 GT PUSH1 0x1 EQ PUSH2 0x3E6 JUMPI DUP12 SWAP3 PUSH2 0x3DB JUMPI JUMPDEST POP POP DUP2 PUSH1 0x1 SHL SWAP2 PUSH1 0x0 NOT SWAP1 PUSH1 0x3 SHL SHR NOT AND OR DUP5 SSTORE JUMPDEST PUSH1 0x1 SWAP7 DUP8 DUP6 ADD SWAP3 MLOAD SWAP6 DUP7 MLOAD SWAP3 DUP4 GT PUSH2 0x3C8 JUMPI PUSH2 0x278 DUP5 SLOAD PUSH2 0x557 JUMP JUMPDEST DUP3 DUP2 GT PUSH2 0x385 JUMPI JUMPDEST POP DUP1 SWAP2 DUP4 GT PUSH1 0x1 EQ PUSH2 0x321 JUMPI POP DUP2 SWAP1 PUSH1 0x3 SWAP7 DUP11 SWAP3 PUSH2 0x316 JUMPI JUMPDEST POP POP PUSH1 0x0 NOT DUP3 DUP8 SHL SHR NOT AND SWAP1 DUP8 SHL OR SWAP1 SSTORE JUMPDEST MLOAD PUSH1 0x2 DUP3 ADD SSTORE ADD SWAP1 MLOAD ISZERO ISZERO PUSH1 0xFF DUP1 NOT DUP4 SLOAD AND SWAP2 AND OR SWAP1 SSTORE DUP1 SLOAD SWAP1 PUSH9 0x10000000000000000 DUP3 LT ISZERO PUSH2 0x303 JUMPI DUP2 DUP2 ADD SWAP1 SSTORE PUSH2 0x2E4 SWAP1 PUSH2 0x676 JUMP JUMPDEST DUP2 SLOAD PUSH1 0x1 PUSH1 0x1 PUSH1 0xA0 SHL SUB PUSH1 0x3 SWAP3 SWAP1 SWAP3 SHL SWAP2 DUP3 SHL NOT AND CALLER SWAP1 SWAP2 SHL OR SWAP1 SSTORE DUP1 RETURN JUMPDEST PUSH4 0x4E487B71 PUSH1 0xE0 SHL DUP4 MSTORE PUSH1 0x41 DUP5 MSTORE PUSH1 0x24 DUP4 REVERT JUMPDEST ADD MLOAD SWAP1 POP DUP11 DUP1 PUSH2 0x299 JUMP JUMPDEST DUP9 SWAP3 SWAP2 PUSH1 0x1F NOT DUP4 AND DUP6 DUP13 MSTORE DUP3 DUP13 KECCAK256 SWAP3 DUP13 SWAP1 JUMPDEST DUP3 DUP3 LT PUSH2 0x36C JUMPI POP POP SWAP8 DUP4 PUSH1 0x3 SWAP10 LT PUSH2 0x354 JUMPI JUMPDEST POP POP POP DUP2 SHL ADD SWAP1 SSTORE PUSH2 0x2AB JUMP JUMPDEST ADD MLOAD PUSH1 0x0 NOT DUP4 DUP10 SHL PUSH1 0xF8 AND SHR NOT AND SWAP1 SSTORE DUP11 DUP1 DUP1 PUSH2 0x347 JUMP JUMPDEST DUP4 DUP12 ADD MLOAD DUP6 SSTORE DUP13 SWAP7 SWAP1 SWAP5 ADD SWAP4 SWAP3 DUP4 ADD SWAP3 SWAP1 DUP2 ADD SWAP1 PUSH2 0x333 JUMP JUMPDEST DUP5 DUP12 MSTORE DUP2 DUP12 KECCAK256 DUP4 DUP1 DUP7 ADD PUSH1 0x5 SHR DUP3 ADD SWAP3 DUP5 DUP8 LT PUSH2 0x3BF JUMPI JUMPDEST ADD PUSH1 0x5 SHR ADD SWAP1 DUP11 SWAP1 JUMPDEST DUP3 DUP2 LT PUSH2 0x3B4 JUMPI POP POP PUSH2 0x280 JUMP JUMPDEST DUP13 DUP2 SSTORE ADD DUP11 SWAP1 PUSH2 0x3A6 JUMP JUMPDEST SWAP3 POP DUP2 SWAP3 PUSH2 0x39D JUMP JUMPDEST PUSH4 0x4E487B71 PUSH1 0xE0 SHL DUP11 MSTORE PUSH1 0x41 DUP12 MSTORE PUSH1 0x24 DUP11 REVERT JUMPDEST ADD MLOAD SWAP1 POP DUP12 DUP1 PUSH2 0x247 JUMP JUMPDEST DUP8 DUP13 MSTORE DUP9 DUP13 KECCAK256 SWAP3 POP PUSH1 0x1F NOT DUP5 AND DUP13 JUMPDEST DUP11 DUP3 DUP3 LT PUSH2 0x433 JUMPI POP POP SWAP1 DUP5 PUSH1 0x1 SWAP6 SWAP5 SWAP4 SWAP3 LT PUSH2 0x41A JUMPI JUMPDEST POP POP POP DUP2 SHL ADD DUP5 SSTORE PUSH2 0x25C JUMP JUMPDEST ADD MLOAD PUSH1 0x0 NOT PUSH1 0xF8 DUP5 PUSH1 0x3 SHL AND SHR NOT AND SWAP1 SSTORE DUP12 DUP1 DUP1 PUSH2 0x40D JUMP JUMPDEST PUSH1 0x1 DUP6 SWAP7 DUP3 SWAP4 SWAP7 DUP7 ADD MLOAD DUP2 SSTORE ADD SWAP6 ADD SWAP4 ADD PUSH2 0x3F5 JUMP JUMPDEST SWAP1 SWAP2 POP DUP7 DUP12 MSTORE DUP8 DUP12 KECCAK256 DUP11 DUP1 DUP6 ADD PUSH1 0x5 SHR DUP3 ADD SWAP3 DUP11 DUP7 LT PUSH2 0x48C JUMPI JUMPDEST SWAP1 DUP6 SWAP5 SWAP4 SWAP3 SWAP2 ADD PUSH1 0x5 SHR ADD SWAP1 JUMPDEST DUP2 DUP2 LT PUSH2 0x47E JUMPI POP PUSH2 0x233 JUMP JUMPDEST DUP13 DUP2 SSTORE DUP5 SWAP4 POP PUSH1 0x1 ADD PUSH2 0x471 JUMP JUMPDEST SWAP3 POP DUP2 SWAP3 PUSH2 0x464 JUMP JUMPDEST PUSH4 0x4E487B71 PUSH1 0xE0 SHL DUP10 MSTORE PUSH1 0x41 DUP11 MSTORE PUSH1 0x24 DUP10 REVERT JUMPDEST PUSH4 0x4E487B71 PUSH1 0xE0 SHL DUP8 MSTORE PUSH1 0x41 DUP9 MSTORE PUSH1 0x24 DUP8 REVERT JUMPDEST DUP5 DUP1 REVERT JUMPDEST DUP4 DUP1 REVERT JUMPDEST SWAP1 PUSH1 0x1F DUP1 NOT SWAP2 ADD AND DUP2 ADD SWAP1 DUP2 LT PUSH8 0xFFFFFFFFFFFFFFFF DUP3 GT OR PUSH2 0x4E5 JUMPI PUSH1 0x40 MSTORE JUMP JUMPDEST PUSH4 0x4E487B71 PUSH1 0xE0 SHL PUSH1 0x0 MSTORE PUSH1 0x41 PUSH1 0x4 MSTORE PUSH1 0x24 PUSH1 0x0 REVERT JUMPDEST DUP2 PUSH1 0x1F DUP3 ADD SLT ISZERO PUSH2 0x552 JUMPI DUP1 CALLDATALOAD SWAP1 PUSH8 0xFFFFFFFFFFFFFFFF DUP3 GT PUSH2 0x4E5 JUMPI PUSH1 0x40 MLOAD SWAP3 PUSH2 0x530 PUSH1 0x1F DUP5 ADD PUSH1 0x1F NOT AND PUSH1 0x20 ADD DUP6 PUSH2 0x4C3 JUMP JUMPDEST DUP3 DUP5 MSTORE PUSH1 0x20 DUP4 DUP4 ADD ADD GT PUSH2 0x552 JUMPI DUP2 PUSH1 0x0 SWAP3 PUSH1 0x20 DUP1 SWAP4 ADD DUP4 DUP7 ADD CALLDATACOPY DUP4 ADD ADD MSTORE SWAP1 JUMP JUMPDEST PUSH1 0x0 DUP1 REVERT JUMPDEST SWAP1 PUSH1 0x1 DUP3 DUP2 SHR SWAP3 AND DUP1 ISZERO PUSH2 0x587 JUMPI JUMPDEST PUSH1 0x20 DUP4 LT EQ PUSH2 0x571 JUMPI JUMP JUMPDEST PUSH4 0x4E487B71 PUSH1 0xE0 SHL PUSH1 0x0 MSTORE PUSH1 0x22 PUSH1 0x4 MSTORE PUSH1 0x24 PUSH1 0x0 REVERT JUMPDEST SWAP2 PUSH1 0x7F AND SWAP2 PUSH2 0x566 JUMP JUMPDEST SWAP1 PUSH1 0x40 MLOAD SWAP2 DUP3 PUSH1 0x0 DUP3 SLOAD PUSH2 0x5A4 DUP2 PUSH2 0x557 JUMP JUMPDEST SWAP1 DUP2 DUP5 MSTORE PUSH1 0x20 SWAP5 PUSH1 0x1 SWAP2 PUSH1 0x1 DUP2 AND SWAP1 DUP2 PUSH1 0x0 EQ PUSH2 0x614 JUMPI POP PUSH1 0x1 EQ PUSH2 0x5D5 JUMPI JUMPDEST POP POP POP PUSH2 0x5D3 SWAP3 POP SUB DUP4 PUSH2 0x4C3 JUMP JUMPDEST JUMP JUMPDEST PUSH1 0x0 SWAP1 DUP2 MSTORE DUP6 DUP2 KECCAK256 SWAP6 SWAP4 POP SWAP2 SWAP1 JUMPDEST DUP2 DUP4 LT PUSH2 0x5FC JUMPI POP POP PUSH2 0x5D3 SWAP4 POP DUP3 ADD ADD CODESIZE DUP1 DUP1 PUSH2 0x5C4 JUMP JUMPDEST DUP6 SLOAD DUP9 DUP5 ADD DUP6 ADD MSTORE SWAP5 DUP6 ADD SWAP5 DUP8 SWAP5 POP SWAP2 DUP4 ADD SWAP2 PUSH2 0x5E3 JUMP JUMPDEST SWAP3 POP POP POP PUSH2 0x5D3 SWAP5 SWAP3 POP PUSH1 0xFF NOT AND DUP3 DUP5 ADD MSTORE ISZERO ISZERO PUSH1 0x5 SHL DUP3 ADD ADD CODESIZE DUP1 DUP1 PUSH2 0x5C4 JUMP JUMPDEST SWAP2 SWAP1 DUP3 MLOAD SWAP3 DUP4 DUP3 MSTORE PUSH1 0x0 JUMPDEST DUP5 DUP2 LT PUSH2 0x662 JUMPI POP POP DUP3 PUSH1 0x0 PUSH1 0x20 DUP1 SWAP5 SWAP6 DUP5 ADD ADD MSTORE PUSH1 0x1F DUP1 NOT SWAP2 ADD AND ADD ADD SWAP1 JUMP JUMPDEST PUSH1 0x20 DUP2 DUP4 ADD DUP2 ADD MLOAD DUP5 DUP4 ADD DUP3 ADD MSTORE ADD PUSH2 0x641 JUMP JUMPDEST PUSH1 0x1 SLOAD DUP2 LT ISZERO PUSH2 0x6AD JUMPI PUSH1 0x1 PUSH1 0x0 MSTORE PUSH32 0xB10E2D527612073B26EECDFD717E6A320CF44B4AFAC2B0732D9FCBE2B7FA0CF6 ADD SWAP1 PUSH1 0x0 SWAP1 JUMP JUMPDEST PUSH4 0x4E487B71 PUSH1 0xE0 SHL PUSH1 0x0 MSTORE PUSH1 0x32 PUSH1 0x4 MSTORE PUSH1 0x24 PUSH1 0x0 REVERT INVALID LOG2 PUSH5 0x6970667358 0x22 SLT KECCAK256 0xBB CALLDATALOAD 0xA9 0xEA CREATE 0x4F 0xCA MULMOD PUSH6 0xA589B0F4463B 0xE9 0xFB 0xED NOT MSTORE SLT DUP7 0xD2 0xBF 0xAA ORIGIN 0x2B GT 0x2E 0xE6 0xE1 PUSH27 0x64736F6C6343000818003300000000000000000000000000000000 "},"methodIdentifiers":{"farmerAddresses(uint256)":"b9cc1614","farmers(address)":"401b2168","getFarmerCount()":"c4a8b5d5","register(string,string)":"3ffbd47f","verify(address)":"63a9c3d7"}}}}}