{"contracts/WeatherData.sol":{"WeatherData":{"abi":[{"inputs":[{"internalType":"int256","name":"_temp","type":"int256"},{"internalType":"uint256","name":"_humidity","type":"uint256"},{"internalType":"uint256","name":"_rainfall","type":"uint256"}],"name":"recordWeather","outputs":[],"stateMutability":"nonpayable","type":"function"},{"inputs":[{"internalType":"address","name":"","type":"address"},{"internalType":"uint256","name":"","type":"uint256"}],"name":"weatherData","outputs":[{"internalType":"int256","name":"temperature","type":"int256"},{"internalType":"uint256","name":"humidity","type":"uint256"},{"internalType":"uint256","name":"rainfall","type":"uint256"},{"internalType":"uint256","name":"timestamp","type":"uint256"}],"stateMutability":"view","type":"function"}],"evm":{"bytecode":{"linkReferences":{},"object":"60808060405234610016576101f2908161001c8239f35b600080fdfe6040608081526004908136101561001557600080fd5b600090813560e01c8063258bbe471461010f5763dd73ed2f1461003757600080fd5b3461010b57606036600319011261010b57338252816020528082208151916080830183811067ffffffffffffffff8211176100f8578152843583526020830190602435825283019060443582526060840192428452805490680100000000000000008210156100e557906100b09160018201815561018a565b9490946100d3576003949596505185555160018501555160028401555191015580f35b634e487b7160e01b8652858752602486fd5b634e487b7160e01b875260418852602487fd5b634e487b7160e01b855260418652602485fd5b5080fd5b508234610186578160031936011261018657356001600160a01b0381169290839003610183576024359281528060205281812090815484101561018357506080926101599161018a565b50908154916001810154916003600283015492015492815194855260208501528301526060820152f35b80fd5b8280fd5b80548210156101a65760005260206000209060021b0190600090565b634e487b7160e01b600052603260045260246000fdfea2646970667358221220ae14654bedd3a5f287d46c0cd68c84ef57680ffdaf59fc1b0abb7c5555714a8664736f6c63430008180033","opcodes":"PUSH1 0x80 DUP1 PUSH1 0x40 MSTORE CALLVALUE PUSH2 0x16 JUMPI PUSH2 0x1F2 SWAP1 DUP2 PUSH2 0x1C DUP3 CODECOPY RETURN JUMPDEST PUSH1 0x0 DUP1 REVERT INVALID PUSH1 0x40 PUSH1 0x80 DUP2 MSTORE PUSH1 0x4 SWAP1 DUP2 CALLDATASIZE LT ISZERO PUSH2 0x15 JUMPI PUSH1 0x0 DUP1 REVERT JUMPDEST PUSH1 0x0 SWAP1 DUP2 CALLDATALOAD PUSH1 0xE0 SHR DUP1 PUSH4 0x258BBE47 EQ PUSH2 0x10F JUMPI PUSH4 0xDD73ED2F EQ PUSH2 0x37 JUMPI PUSH1 0x0 DUP1 REVERT JUMPDEST CALLVALUE PUSH2 0x10B JUMPI PUSH1 0x60 CALLDATASIZE PUSH1 0x3 NOT ADD SLT PUSH2 0x10B JUMPI CALLER DUP3 MSTORE DUP2 PUSH1 0x20 MSTORE DUP1 DUP3 KECCAK256 DUP2 MLOAD SWAP2 PUSH1 0x80 DUP4 ADD DUP4 DUP2 LT PUSH8 0xFFFFFFFFFFFFFFFF DUP3 GT OR PUSH2 0xF8 JUMPI DUP2 MSTORE DUP5 CALLDATALOAD DUP4 MSTORE PUSH1 0x20 DUP4 ADD SWAP1 PUSH1 0x24 CALLDATALOAD DUP3 MSTORE DUP4 ADD SWAP1 PUSH1 0x44 CALLDATALOAD DUP3 MSTORE PUSH1 0x60 DUP5 ADD SWAP3 TIMESTAMP DUP5 MSTORE DUP1 SLOAD SWAP1 PUSH9 0x10000000000000000 DUP3 LT ISZERO PUSH2 0xE5 JUMPI SWAP1 PUSH2 0xB0 SWAP2 PUSH1 0x1 DUP3 ADD DUP2 SSTORE PUSH2 0x18A JUMP JUMPDEST SWAP5 SWAP1 SWAP5 PUSH2 0xD3 JUMPI PUSH1 0x3 SWAP5 SWAP6 SWAP7 POP MLOAD DUP6 SSTORE MLOAD PUSH1 0x1 DUP6 ADD SSTORE MLOAD PUSH1 0x2 DUP5 ADD SSTORE MLOAD SWAP2 ADD SSTORE DUP1 RETURN JUMPDEST PUSH4 0x4E487B71 PUSH1 0xE0 SHL DUP7 MSTORE DUP6 DUP8 MSTORE PUSH1 0x24 DUP7 REVERT JUMPDEST PUSH4 0x4E487B71 PUSH1 0xE0 SHL DUP8 MSTORE PUSH1 0x41 DUP9 MSTORE PUSH1 0x24 DUP8 REVERT JUMPDEST PUSH4 0x4E487B71 PUSH1 0xE0 SHL DUP6 MSTORE PUSH1 0x41 DUP7 MSTORE PUSH1 0x24 DUP6 REVERT JUMPDEST POP DUP1 REVERT JUMPDEST POP DUP3 CALLVALUE PUSH2 0x186 JUMPI DUP2 PUSH1 0x3 NOT CALLDATASIZE ADD SLT PUSH2 0x186 JUMPI CALLDATALOAD PUSH1 0x1 PUSH1 0x1 PUSH1 0xA0 SHL SUB DUP2 AND SWAP3 SWAP1 DUP4 SWAP1 SUB PUSH2 0x183 JUMPI PUSH1 0x24 CALLDATALOAD SWAP3 DUP2 MSTORE DUP1 PUSH1 0x20 MSTORE DUP2 DUP2 KECCAK256 SWAP1 DUP2 SLOAD DUP5 LT ISZERO PUSH2 0x183 JUMPI POP PUSH1 0x80 SWAP3 PUSH2 0x159 SWAP2 PUSH2 0x18A JUMP JUMPDEST POP SWAP1 DUP2 SLOAD SWAP2 PUSH1 0x1 DUP2 ADD SLOAD SWAP2 PUSH1 0x3 PUSH1 0x2 DUP4 ADD SLOAD SWAP3 ADD SLOAD SWAP3 DUP2 MLOAD SWAP5 DUP6 MSTORE PUSH1 0x20 DUP6 ADD MSTORE DUP4 ADD MSTORE PUSH1 0x60 DUP3 ADD MSTORE RETURN JUMPDEST DUP1 REVERT JUMPDEST DUP3 DUP1 REVERT JUMPDEST DUP1 SLOAD DUP3 LT ISZERO PUSH2 0x1A6 JUMPI PUSH1 0x0 MSTORE PUSH1 0x20 PUSH1 0x0 KECCAK256 SWAP1 PUSH1 0x2 SHL ADD SWAP1 PUSH1 0x0 SWAP1 JUMP JUMPDEST PUSH4 0x4E487B71 PUSH1 0xE0 SHL PUSH1 0x0 MSTORE PUSH1 0x32 PUSH1 0x4 MSTORE PUSH1 0x24 PUSH1 0x0 REVERT INVALID LOG2 PUSH5 0x6970667358 0x22 SLT KECCAK256 0xAE EQ PUSH6 0x4BEDD3A5F287 0xD4 PUSH13 0xCD68C84EF57680FFDAF59FC1B EXP 0xBB PUSH29 0x5555714A8664736F6C6343000818003300000000000000000000000000 "},"methodIdentifiers":{"recordWeather(int256,uint256,uint256)":"dd73ed2f","weatherData(address,uint256)":"258bbe47"}}}}}