{"contracts/Reputation.sol":{"ReputationContract":{"abi":[{"anonymous":false,"inputs":[{"indexed":true,"internalType":"address","name":"user","type":"address"},{"indexed":false,"internalType":"uint256","name":"newScore","type":"uint256"}],"name":"ReputationUpdated","type":"event"},{"inputs":[{"internalType":"address","name":"_user","type":"address"}],"name":"getReputation","outputs":[{"components":[{"internalType":"uint256","name":"score","type":"uint256"},{"internalType":"uint256","name":"totalRatings","type":"uint256"},{"internalType":"uint256","name":"lastUpdate","type":"uint256"}],"internalType":"struct ReputationContract.Reputation","name":"","type":"tuple"}],"stateMutability":"view","type":"function"},{"inputs":[{"internalType":"address","name":"","type":"address"}],"name":"reputations","outputs":[{"internalType":"uint256","name":"score","type":"uint256"},{"internalType":"uint256","name":"totalRatings","type":"uint256"},{"internalType":"uint256","name":"lastUpdate","type":"uint256"}],"stateMutability":"view","type":"function"},{"inputs":[{"internalType":"address","name":"_user","type":"address"},{"internalType":"uint256","name":"_rating","type":"uint256"}],"name":"updateReputation","outputs":[],"stateMutability":"nonpayable","type":"function"}],"evm":{"bytecode":{"linkReferences":{},"object":"608080604052346100165761027f908161001c8239f35b600080fdfe6080604081815260048036101561001557600080fd5b600092833560e01c90816306fa15a7146101ac575080639c89a0e21461012d5763f5c91a081461004457600080fd5b3461012957816003193601126101295761005c6101f8565b6001600160a01b0316808452602084905282842080546001820180549395939485830292602491908015908504881417156100f457813584018094116100f45760018701938488116101175784156101055784900480865596600019146100f45750505542600290910155519081527ffc577563f1b9a0461e24abef1e1fcc0d33d3d881f20b5df6dda59de4aae2c82190602090a280f35b634e487b7160e01b89526011905287fd5b50634e487b7160e01b89526012905287fd5b50634e487b7160e01b89526011905287fd5b8280fd5b5050346101a85760203660031901126101a8578060609261014c6101f8565b8183610156610213565b828152826020820152015260018060a01b03168152806020522090610179610213565b825492838252826002600183015492602085019384520154920191825282519384525160208401525190820152f35b5080fd5b849084346101295760203660031901126101295760609281906001600160a01b036101d56101f8565b168152806020522090815491600260018201549101549284526020840152820152f35b600435906001600160a01b038216820361020e57565b600080fd5b604051906060820182811067ffffffffffffffff82111761023357604052565b634e487b7160e01b600052604160045260246000fdfea2646970667358221220a97b77495ebd81e189eb7196086b8d4d410518b84de986ffa7c45d8877226fd864736f6c63430008180033","opcodes":"PUSH1 0x80 DUP1 PUSH1 0x40 MSTORE CALLVALUE PUSH2 0x16 JUMPI PUSH2 0x27F SWAP1 DUP2 PUSH2 0x1C DUP3 CODECOPY RETURN JUMPDEST PUSH1 0x0 DUP1 REVERT INVALID PUSH1 0x80 PUSH1 0x40 DUP2 DUP2 MSTORE PUSH1 0x4 DUP1 CALLDATASIZE LT ISZERO PUSH2 0x15 JUMPI PUSH1 0x0 DUP1 REVERT JUMPDEST PUSH1 0x0 SWAP3 DUP4 CALLDATALOAD PUSH1 0xE0 SHR SWAP1 DUP2 PUSH4 0x6FA15A7 EQ PUSH2 0x1AC JUMPI POP DUP1 PUSH4 0x9C89A0E2 EQ PUSH2 0x12D JUMPI PUSH4 0xF5C91A08 EQ PUSH2 0x44 JUMPI PUSH1 0x0 DUP1 REVERT JUMPDEST CALLVALUE PUSH2 0x129 JUMPI DUP2 PUSH1 0x3 NOT CALLDATASIZE ADD SLT PUSH2 0x129 JUMPI PUSH2 0x5C PUSH2 0x1F8 JUMP JUMPDEST PUSH1 0x1 PUSH1 0x1 PUSH1 0xA0 SHL SUB AND DUP1 DUP5 MSTORE PUSH1 0x20 DUP5 SWAP1 MSTORE DUP3 DUP5 KECCAK256 DUP1 SLOAD PUSH1 0x1 DUP3 ADD DUP1 SLOAD SWAP4 SWAP6 SWAP4 SWAP5 DUP6 DUP4 MUL SWAP3 PUSH1 0x24 SWAP2 SWAP1 DUP1 ISZERO SWAP1 DUP6 DIV DUP9 EQ OR ISZERO PUSH2 0xF4 JUMPI DUP2 CALLDATALOAD DUP5 ADD DUP1 SWAP5 GT PUSH2 0xF4 JUMPI PUSH1 0x1 DUP8 ADD SWAP4 DUP5 DUP9 GT PUSH2 0x117 JUMPI DUP5 ISZERO PUSH2 0x105 JUMPI DUP5 SWAP1 DIV DUP1 DUP7 SSTORE SWAP7 PUSH1 0x0 NOT EQ PUSH2 0xF4 JUMPI POP POP SSTORE TIMESTAMP PUSH1 0x2 SWAP1 SWAP2 ADD SSTORE MLOAD SWAP1 DUP2 MSTORE PUSH32 0xFC577563F1B9A0461E24ABEF1E1FCC0D33D3D881F20B5DF6DDA59DE4AAE2C821 SWAP1 PUSH1 0x20 SWAP1 LOG2 DUP1 RETURN JUMPDEST PUSH4 0x4E487B71 PUSH1 0xE0 SHL DUP10 MSTORE PUSH1 0x11 SWAP1 MSTORE DUP8 REVERT JUMPDEST POP PUSH4 0x4E487B71 PUSH1 0xE0 SHL DUP10 MSTORE PUSH1 0x12 SWAP1 MSTORE DUP8 REVERT JUMPDEST POP PUSH4 0x4E487B71 PUSH1 0xE0 SHL DUP10 MSTORE PUSH1 0x11 SWAP1 MSTORE DUP8 REVERT JUMPDEST DUP3 DUP1 REVERT JUMPDEST POP POP CALLVALUE PUSH2 0x1A8 JUMPI PUSH1 0x20 CALLDATASIZE PUSH1 0x3 NOT ADD SLT PUSH2 0x1A8 JUMPI DUP1 PUSH1 0x60 SWAP3 PUSH2 0x14C PUSH2 0x1F8 JUMP JUMPDEST DUP2 DUP4 PUSH2 0x156 PUSH2 0x213 JUMP JUMPDEST DUP3 DUP2 MSTORE DUP3 PUSH1 0x20 DUP3 ADD MSTORE ADD MSTORE PUSH1 0x1 DUP1 PUSH1 0xA0 SHL SUB AND DUP2 MSTORE DUP1 PUSH1 0x20 MSTORE KECCAK256 SWAP1 PUSH2 0x179 PUSH2 0x213 JUMP JUMPDEST DUP3 SLOAD SWAP3 DUP4 DUP3 MSTORE DUP3 PUSH1 0x2 PUSH1 0x1 DUP4 ADD SLOAD SWAP3 PUSH1 0x20 DUP6 ADD SWAP4 DUP5 MSTORE ADD SLOAD SWAP3 ADD SWAP2 DUP3 MSTORE DUP3 MLOAD SWAP4 DUP5 MSTORE MLOAD PUSH1 0x20 DUP5 ADD MSTORE MLOAD SWAP1 DUP3 ADD MSTORE RETURN JUMPDEST POP DUP1 REVERT JUMPDEST DUP5 SWAP1 DUP5 CALLVALUE PUSH2 0x129 JUMPI PUSH1 0x20 CALLDATASIZE PUSH1 0x3 NOT ADD SLT PUSH2 0x129 JUMPI PUSH1 0x60 SWAP3 DUP2 SWAP1 PUSH1 0x1 PUSH1 0x1 PUSH1 0xA0 SHL SUB PUSH2 0x1D5 PUSH2 0x1F8 JUMP JUMPDEST AND DUP2 MSTORE DUP1 PUSH1 0x20 MSTORE KECCAK256 SWAP1 DUP2 SLOAD SWAP2 PUSH1 0x2 PUSH1 0x1 DUP3 ADD SLOAD SWAP2 ADD SLOAD SWAP3 DUP5 MSTORE PUSH1 0x20 DUP5 ADD MSTORE DUP3 ADD MSTORE RETURN JUMPDEST PUSH1 0x4 CALLDATALOAD SWAP1 PUSH1 0x1 PUSH1 0x1 PUSH1 0xA0 SHL SUB DUP3 AND DUP3 SUB PUSH2 0x20E JUMPI JUMP JUMPDEST PUSH1 0x0 DUP1 REVERT JUMPDEST PUSH1 0x40 MLOAD SWAP1 PUSH1 0x60 DUP3 ADD DUP3 DUP2 LT PUSH8 0xFFFFFFFFFFFFFFFF DUP3 GT OR PUSH2 0x233 JUMPI PUSH1 0x40 MSTORE JUMP JUMPDEST PUSH4 0x4E487B71 PUSH1 0xE0 SHL PUSH1 0x0 MSTORE PUSH1 0x41 PUSH1 0x4 MSTORE PUSH1 0x24 PUSH1 0x0 REVERT INVALID LOG2 PUSH5 0x6970667358 0x22 SLT KECCAK256 0xA9 PUSH28 0x77495EBD81E189EB7196086B8D4D410518B84DE986FFA7C45D887722 PUSH16 0xD864736F6C6343000818003300000000 "},"methodIdentifiers":{"getReputation(address)":"9c89a0e2","reputations(address)":"06fa15a7","updateReputation(address,uint256)":"f5c91a08"}}}}}