{"contracts/RouteOptimizer.sol":{"RouteOptimizer":{"abi":[{"inputs":[{"internalType":"uint256[]","name":"_waypoints","type":"uint256[]"},{"internalType":"uint256","name":"_distance","type":"uint256"}],"name":"createRoute","outputs":[{"internalType":"bytes32","name":"","type":"bytes32"}],"stateMutability":"nonpayable","type":"function"},{"inputs":[{"internalType":"bytes32","name":"","type":"bytes32"}],"name":"routes","outputs":[{"internalType":"uint256","name":"distance","type":"uint256"},{"internalType":"uint256","name":"estimatedTime","type":"uint256"}],"stateMutability":"view","type":"function"}],"evm":{"bytecode":{"linkReferences":{},"object":"60808060405234610016576102da908161001c8239f35b600080fdfe608060408181526004908136101561001657600080fd5b600092833560e01c908163066e94811461021c575063d8449f831461003a57600080fd5b3461021857806003193601126102185781359267ffffffffffffffff8085116102145736602386011215610214578484013591602491808411610203578360051b9160209786519561008e8a860188610282565b8652888601858195830101913683116101ff5790868b9201905b8382106101f057505050508335928551156101de5751865189810191825242888201528781526100d781610250565b519020966078840294848604607814851517156101cd5787519660608801888110868211176101bb5789528752898701948552878701958652888352828a5287832096519182519485116101aa576801000000000000000085116101aa57505088908654848855808510610182575b500190858152888120905b8381106101705750505050906002915160018401555191015551908152f35b82518282015591890191600101610151565b8784528483852091820191015b81811061019c5750610146565b8481558b935060010161018f565b634e487b7160e01b84526041905282fd5b634e487b7160e01b8552604184528285fd5b634e487b7160e01b83526011825282fd5b634e487b7160e01b8252603288528482fd5b813581529082019082016100a8565b8380fd5b50634e487b7160e01b815260418552fd5b5080fd5b8280fd5b9050838334610214576020366003190112610214579083913581528060205220600260018201549101549082526020820152f35b6060810190811067ffffffffffffffff82111761026c57604052565b634e487b7160e01b600052604160045260246000fd5b90601f8019910116810190811067ffffffffffffffff82111761026c5760405256fea264697066735822122017775c5ec637c6f3774479f9fb28b312fc89a1b7ad3cc3d67a1b9cb9bc763fff64736f6c63430008180033","opcodes":"PUSH1 0x80 DUP1 PUSH1 0x40 MSTORE CALLVALUE PUSH2 0x16 JUMPI PUSH2 0x2DA SWAP1 DUP2 PUSH2 0x1C DUP3 CODECOPY RETURN JUMPDEST PUSH1 0x0 DUP1 REVERT INVALID PUSH1 0x80 PUSH1 0x40 DUP2 DUP2 MSTORE PUSH1 0x4 SWAP1 DUP2 CALLDATASIZE LT ISZERO PUSH2 0x16 JUMPI PUSH1 0x0 DUP1 REVERT JUMPDEST PUSH1 0x0 SWAP3 DUP4 CALLDATALOAD PUSH1 0xE0 SHR SWAP1 DUP2 PUSH4 0x66E9481 EQ PUSH2 0x21C JUMPI POP PUSH4 0xD8449F83 EQ PUSH2 0x3A JUMPI PUSH1 0x0 DUP1 REVERT JUMPDEST CALLVALUE PUSH2 0x218 JUMPI DUP1 PUSH1 0x3 NOT CALLDATASIZE ADD SLT PUSH2 0x218 JUMPI DUP2 CALLDATALOAD SWAP3 PUSH8 0xFFFFFFFFFFFFFFFF DUP1 DUP6 GT PUSH2 0x214 JUMPI CALLDATASIZE PUSH1 0x23 DUP7 ADD SLT ISZERO PUSH2 0x214 JUMPI DUP5 DUP5 ADD CALLDATALOAD SWAP2 PUSH1 0x24 SWAP2 DUP1 DUP5 GT PUSH2 0x203 JUMPI DUP4 PUSH1 0x5 SHL SWAP2 PUSH1 0x20 SWAP8 DUP7 MLOAD SWAP6 PUSH2 0x8E DUP11 DUP7 ADD DUP9 PUSH2 0x282 JUMP JUMPDEST DUP7 MSTORE DUP9 DUP7 ADD DUP6 DUP2 SWAP6 DUP4 ADD ADD SWAP2 CALLDATASIZE DUP4 GT PUSH2 0x1FF JUMPI SWAP1 DUP7 DUP12 SWAP3 ADD SWAP1 JUMPDEST DUP4 DUP3 LT PUSH2 0x1F0 JUMPI POP POP POP POP DUP4 CALLDATALOAD SWAP3 DUP6 MLOAD ISZERO PUSH2 0x1DE JUMPI MLOAD DUP7 MLOAD DUP10 DUP2 ADD SWAP2 DUP3 MSTORE TIMESTAMP DUP9 DUP3 ADD MSTORE DUP8 DUP2 MSTORE PUSH2 0xD7 DUP2 PUSH2 0x250 JUMP JUMPDEST MLOAD SWAP1 KECCAK256 SWAP7 PUSH1 0x78 DUP5 MUL SWAP5 DUP5 DUP7 DIV PUSH1 0x78 EQ DUP6 ISZERO OR ISZERO PUSH2 0x1CD JUMPI DUP8 MLOAD SWAP7 PUSH1 0x60 DUP9 ADD DUP9 DUP2 LT DUP7 DUP3 GT OR PUSH2 0x1BB JUMPI DUP10 MSTORE DUP8 MSTORE DUP10 DUP8 ADD SWAP5 DUP6 MSTORE DUP8 DUP8 ADD SWAP6 DUP7 MSTORE DUP9 DUP4 MSTORE DUP3 DUP11 MSTORE DUP8 DUP4 KECCAK256 SWAP7 MLOAD SWAP2 DUP3 MLOAD SWAP5 DUP6 GT PUSH2 0x1AA JUMPI PUSH9 0x10000000000000000 DUP6 GT PUSH2 0x1AA JUMPI POP POP DUP9 SWAP1 DUP7 SLOAD DUP5 DUP9 SSTORE DUP1 DUP6 LT PUSH2 0x182 JUMPI JUMPDEST POP ADD SWAP1 DUP6 DUP2 MSTORE DUP9 DUP2 KECCAK256 SWAP1 JUMPDEST DUP4 DUP2 LT PUSH2 0x170 JUMPI POP POP POP POP SWAP1 PUSH1 0x2 SWAP2 MLOAD PUSH1 0x1 DUP5 ADD SSTORE MLOAD SWAP2 ADD SSTORE MLOAD SWAP1 DUP2 MSTORE RETURN JUMPDEST DUP3 MLOAD DUP3 DUP3 ADD SSTORE SWAP2 DUP10 ADD SWAP2 PUSH1 0x1 ADD PUSH2 0x151 JUMP JUMPDEST DUP8 DUP5 MSTORE DUP5 DUP4 DUP6 KECCAK256 SWAP2 DUP3 ADD SWAP2 ADD JUMPDEST DUP2 DUP2 LT PUSH2 0x19C JUMPI POP PUSH2 0x146 JUMP JUMPDEST DUP5 DUP2 SSTORE DUP12 SWAP4 POP PUSH1 0x1 ADD PUSH2 0x18F JUMP JUMPDEST PUSH4 0x4E487B71 PUSH1 0xE0 SHL DUP5 MSTORE PUSH1 0x41 SWAP1 MSTORE DUP3 REVERT JUMPDEST PUSH4 0x4E487B71 PUSH1 0xE0 SHL DUP6 MSTORE PUSH1 0x41 DUP5 MSTORE DUP3 DUP6 REVERT JUMPDEST PUSH4 0x4E487B71 PUSH1 0xE0 SHL DUP4 MSTORE PUSH1 0x11 DUP3 MSTORE DUP3 REVERT JUMPDEST PUSH4 0x4E487B71 PUSH1 0xE0 SHL DUP3 MSTORE PUSH1 0x32 DUP9 MSTORE DUP5 DUP3 REVERT JUMPDEST DUP2 CALLDATALOAD DUP2 MSTORE SWAP1 DUP3 ADD SWAP1 DUP3 ADD PUSH2 0xA8 JUMP JUMPDEST DUP4 DUP1 REVERT JUMPDEST POP PUSH4 0x4E487B71 PUSH1 0xE0 SHL DUP2 MSTORE PUSH1 0x41 DUP6 MSTORE REVERT JUMPDEST POP DUP1 REVERT JUMPDEST DUP3 DUP1 REVERT JUMPDEST SWAP1 POP DUP4 DUP4 CALLVALUE PUSH2 0x214 JUMPI PUSH1 0x20 CALLDATASIZE PUSH1 0x3 NOT ADD SLT PUSH2 0x214 JUMPI SWAP1 DUP4 SWAP2 CALLDATALOAD DUP2 MSTORE DUP1 PUSH1 0x20 MSTORE KECCAK256 PUSH1 0x2 PUSH1 0x1 DUP3 ADD SLOAD SWAP2 ADD SLOAD SWAP1 DUP3 MSTORE PUSH1 0x20 DUP3 ADD MSTORE RETURN JUMPDEST PUSH1 0x60 DUP2 ADD SWAP1 DUP2 LT PUSH8 0xFFFFFFFFFFFFFFFF DUP3 GT OR PUSH2 0x26C JUMPI PUSH1 0x40 MSTORE JUMP JUMPDEST PUSH4 0x4E487B71 PUSH1 0xE0 SHL PUSH1 0x0 MSTORE PUSH1 0x41 PUSH1 0x4 MSTORE PUSH1 0x24 PUSH1 0x0 REVERT JUMPDEST SWAP1 PUSH1 0x1F DUP1 NOT SWAP2 ADD AND DUP2 ADD SWAP1 DUP2 LT PUSH8 0xFFFFFFFFFFFFFFFF DUP3 GT OR PUSH2 0x26C JUMPI PUSH1 0x40 MSTORE JUMP INVALID LOG2 PUSH5 0x6970667358 0x22 SLT KECCAK256 OR PUSH24 0x5C5EC637C6F3774479F9FB28B312FC89A1B7AD3CC3D67A1B SWAP13 0xB9 0xBC PUSH23 0x3FFF64736F6C6343000818003300000000000000000000 "},"methodIdentifiers":{"createRoute(uint256[],uint256)":"d8449f83","routes(bytes32)":"066e9481"}}}}}