{"contracts/RegionManager.sol":{"RegionManager":{"abi":[{"anonymous":false,"inputs":[{"indexed":false,"internalType":"uint256","name":"id","type":"uint256"},{"indexed":false,"internalType":"string","name":"name","type":"string"},{"indexed":false,"internalType":"string","name":"country","type":"string"}],"name":"RegionCreated","type":"event"},{"inputs":[{"internalType":"string","name":"_name","type":"string"},{"internalType":"string","name":"_country","type":"string"},{"internalType":"string","name":"_climate","type":"string"}],"name":"createRegion","outputs":[{"internalType":"uint256","name":"","type":"uint256"}],"stateMutability":"nonpayable","type":"function"},{"inputs":[{"internalType":"uint256","name":"_id","type":"uint256"}],"name":"getRegion","outputs":[{"components":[{"internalType":"string","name":"name","type":"string"},{"internalType":"string","name":"country","type":"string"},{"internalType":"string","name":"climateZone","type":"string"},{"internalType":"uint256","name":"totalFarmers","type":"uint256"}],"internalType":"struct RegionManager.Region","name":"","type":"tuple"}],"stateMutability":"view","type":"function"},{"inputs":[],"name":"nextRegionId","outputs":[{"internalType":"uint256","name":"","type":"uint256"}],"stateMutability":"view","type":"function"},{"inputs":[{"internalType":"uint256","name":"","type":"uint256"}],"name":"regions","outputs":[{"internalType":"string","name":"name","type":"string"},{"internalType":"string","name":"country","type":"string"},{"internalType":"string","name":"climateZone","type":"string"},{"internalType":"uint256","name":"totalFarmers","type":"uint256"}],"stateMutability":"view","type":"function"}],"evm":{"bytecode":{"linkReferences":{},"object":"6080806040523461001a576001805561089590816100208239f35b600080fdfe6080604052600436101561001257600080fd5b60003560e01c8063132abfb61461061e578063244b25a41461014d57806340ba0e941461006b5763b937e1391461004857600080fd5b34610066576000366003190112610066576020600154604051908152f35b600080fd5b34610066576020806003193601126100665760405160809161008c826106e5565b60006060838180955281848201528160408201520152600435600052600081526101426040600020604051936100c1856106e5565b6100ca82610723565b85526100d860018301610723565b9084860191825261013261011c60036100f360028701610723565b9560408a01968752015496838901978852604051998a99828b5251918a015260a08901906107c8565b925192601f1993848983030160408a01526107c8565b92519186840301908601526107c8565b905160808301520390f35b346100665760603660031901126100665760043567ffffffffffffffff81116100665761017e903690600401610808565b60243567ffffffffffffffff81116100665761019e903690600401610808565b60443567ffffffffffffffff8111610066576101be903690600401610808565b916001549160001983146106085760018301600155604051936101e0856106e5565b8285528160208601526040850152600060608501528260005260006020526040600020845180519067ffffffffffffffff821161046657819061022384546106ab565b601f81116105b8575b50602090601f831160011461055257600092610547575b50508160011b916000199060031b1c19161781555b602085015180519067ffffffffffffffff821161046657819061027e60018501546106ab565b601f81116104f4575b50602090601f83116001146104875760009261047c575b50508160011b916000199060031b1c19161760018201555b6002810194604081015195865167ffffffffffffffff8111610466576102dc82546106ab565b97601f891161041e575b602098508890601f831160011461038957610373946103659794847f6012e14a4c4012f22f6ddbedd717fd342085dd640eaa08aa4b86813d0b6f3b539a989560039560609560009261037e575b50508160011b9160001990871b1c19161790555b015191015560405193849387855260608986015260608501906107c8565b9083820360408501526107c8565b0390a1604051908152f35b015190508e80610333565b90601f19831691846000528a6000209260005b8181106104075750946001856003956060956103739a957f6012e14a4c4012f22f6ddbedd717fd342085dd640eaa08aa4b86813d0b6f3b539e9c996103659e9b106103ef575b505050811b019055610347565b015160001983891b60f8161c191690558e80806103e2565b92938c60018192878601518155019501930161039c565b826000526020600020601f830160051c8101996020841061045c575b601f0160051c01985b89811061045057506102e6565b60008155600101610443565b909950899061043a565b634e487b7160e01b600052604160045260246000fd5b01519050878061029e565b600185016000908152602081209350601f198516905b8181106104dc57509084600195949392106104c3575b505050811b0160018201556102b6565b015160001960f88460031b161c191690558780806104b3565b9293602060018192878601518155019501930161049d565b909150600184016000526020600020601f840160051c810160208510610540575b90849392915b601f830160051c82018110610531575050610287565b6000815585945060010161051b565b5080610515565b015190508780610243565b6000858152602081209350601f198516905b8181106105a05750908460019594939210610587575b505050811b018155610258565b015160001960f88460031b161c1916905587808061057a565b92936020600181928786015181550195019301610564565b909150836000526020600020601f840160051c810160208510610601575b90849392915b601f830160051c820181106105f257505061022c565b600081558594506001016105dc565b50806105d6565b634e487b7160e01b600052601160045260246000fd5b34610066576020366003190112610066576004356000526000602052610685604060002061064b81610723565b906106a161065b60018301610723565b91610693600361066d60028401610723565b920154936040519687966080885260808801906107c8565b9086820360208801526107c8565b9084820360408601526107c8565b9060608301520390f35b90600182811c921680156106db575b60208310146106c557565b634e487b7160e01b600052602260045260246000fd5b91607f16916106ba565b6080810190811067ffffffffffffffff82111761046657604052565b90601f8019910116810190811067ffffffffffffffff82111761046657604052565b90604051918260008254610736816106ab565b908184526020946001916001811690816000146107a65750600114610767575b50505061076592500383610701565b565b600090815285812095935091905b81831061078e5750506107659350820101388080610756565b85548884018501529485019487945091830191610775565b9250505061076594925060ff191682840152151560051b820101388080610756565b919082519283825260005b8481106107f4575050826000602080949584010152601f8019910116010190565b6020818301810151848301820152016107d3565b81601f820112156100665780359067ffffffffffffffff8211610466576040519261083d601f8401601f191660200185610701565b828452602083830101116100665781600092602080930183860137830101529056fea2646970667358221220e12bd7df797a3602bf85189c4c6bc1949fe4bb4ee91526e6e6e074f8d6ea2a6464736f6c63430008180033","opcodes":"PUSH1 0x80 DUP1 PUSH1 0x40 MSTORE CALLVALUE PUSH2 0x1A JUMPI PUSH1 0x1 DUP1 SSTORE PUSH2 0x895 SWAP1 DUP2 PUSH2 0x20 DUP3 CODECOPY RETURN JUMPDEST PUSH1 0x0 DUP1 REVERT INVALID PUSH1 0x80 PUSH1 0x40 MSTORE PUSH1 0x4 CALLDATASIZE LT ISZERO PUSH2 0x12 JUMPI PUSH1 0x0 DUP1 REVERT JUMPDEST PUSH1 0x0 CALLDATALOAD PUSH1 0xE0 SHR DUP1 PUSH4 0x132ABFB6 EQ PUSH2 0x61E JUMPI DUP1 PUSH4 0x244B25A4 EQ PUSH2 0x14D JUMPI DUP1 PUSH4 0x40BA0E94 EQ PUSH2 0x6B JUMPI PUSH4 0xB937E139 EQ PUSH2 0x48 JUMPI PUSH1 0x0 DUP1 REVERT JUMPDEST CALLVALUE PUSH2 0x66 JUMPI PUSH1 0x0 CALLDATASIZE PUSH1 0x3 NOT ADD SLT PUSH2 0x66 JUMPI PUSH1 0x20 PUSH1 0x1 SLOAD PUSH1 0x40 MLOAD SWAP1 DUP2 MSTORE RETURN JUMPDEST PUSH1 0x0 DUP1 REVERT JUMPDEST CALLVALUE PUSH2 0x66 JUMPI PUSH1 0x20 DUP1 PUSH1 0x3 NOT CALLDATASIZE ADD SLT PUSH2 0x66 JUMPI PUSH1 0x40 MLOAD PUSH1 0x80 SWAP2 PUSH2 0x8C DUP3 PUSH2 0x6E5 JUMP JUMPDEST PUSH1 0x0 PUSH1 0x60 DUP4 DUP2 DUP1 SWAP6 MSTORE DUP2 DUP5 DUP3 ADD MSTORE DUP2 PUSH1 0x40 DUP3 ADD MSTORE ADD MSTORE PUSH1 0x4 CALLDATALOAD PUSH1 0x0 MSTORE PUSH1 0x0 DUP2 MSTORE PUSH2 0x142 PUSH1 0x40 PUSH1 0x0 KECCAK256 PUSH1 0x40 MLOAD SWAP4 PUSH2 0xC1 DUP6 PUSH2 0x6E5 JUMP JUMPDEST PUSH2 0xCA DUP3 PUSH2 0x723 JUMP JUMPDEST DUP6 MSTORE PUSH2 0xD8 PUSH1 0x1 DUP4 ADD PUSH2 0x723 JUMP JUMPDEST SWAP1 DUP5 DUP7 ADD SWAP2 DUP3 MSTORE PUSH2 0x132 PUSH2 0x11C PUSH1 0x3 PUSH2 0xF3 PUSH1 0x2 DUP8 ADD PUSH2 0x723 JUMP JUMPDEST SWAP6 PUSH1 0x40 DUP11 ADD SWAP7 DUP8 MSTORE ADD SLOAD SWAP7 DUP4 DUP10 ADD SWAP8 DUP9 MSTORE PUSH1 0x40 MLOAD SWAP10 DUP11 SWAP10 DUP3 DUP12 MSTORE MLOAD SWAP2 DUP11 ADD MSTORE PUSH1 0xA0 DUP10 ADD SWAP1 PUSH2 0x7C8 JUMP JUMPDEST SWAP3 MLOAD SWAP3 PUSH1 0x1F NOT SWAP4 DUP5 DUP10 DUP4 SUB ADD PUSH1 0x40 DUP11 ADD MSTORE PUSH2 0x7C8 JUMP JUMPDEST SWAP3 MLOAD SWAP2 DUP7 DUP5 SUB ADD SWAP1 DUP7 ADD MSTORE PUSH2 0x7C8 JUMP JUMPDEST SWAP1 MLOAD PUSH1 0x80 DUP4 ADD MSTORE SUB SWAP1 RETURN JUMPDEST CALLVALUE PUSH2 0x66 JUMPI PUSH1 0x60 CALLDATASIZE PUSH1 0x3 NOT ADD SLT PUSH2 0x66 JUMPI PUSH1 0x4 CALLDATALOAD PUSH8 0xFFFFFFFFFFFFFFFF DUP2 GT PUSH2 0x66 JUMPI PUSH2 0x17E SWAP1 CALLDATASIZE SWAP1 PUSH1 0x4 ADD PUSH2 0x808 JUMP JUMPDEST PUSH1 0x24 CALLDATALOAD PUSH8 0xFFFFFFFFFFFFFFFF DUP2 GT PUSH2 0x66 JUMPI PUSH2 0x19E SWAP1 CALLDATASIZE SWAP1 PUSH1 0x4 ADD PUSH2 0x808 JUMP JUMPDEST PUSH1 0x44 CALLDATALOAD PUSH8 0xFFFFFFFFFFFFFFFF DUP2 GT PUSH2 0x66 JUMPI PUSH2 0x1BE SWAP1 CALLDATASIZE SWAP1 PUSH1 0x4 ADD PUSH2 0x808 JUMP JUMPDEST SWAP2 PUSH1 0x1 SLOAD SWAP2 PUSH1 0x0 NOT DUP4 EQ PUSH2 0x608 JUMPI PUSH1 0x1 DUP4 ADD PUSH1 0x1 SSTORE PUSH1 0x40 MLOAD SWAP4 PUSH2 0x1E0 DUP6 PUSH2 0x6E5 JUMP JUMPDEST DUP3 DUP6 MSTORE DUP2 PUSH1 0x20 DUP7 ADD MSTORE PUSH1 0x40 DUP6 ADD MSTORE PUSH1 0x0 PUSH1 0x60 DUP6 ADD MSTORE DUP3 PUSH1 0x0 MSTORE PUSH1 0x0 PUSH1 0x20 MSTORE PUSH1 0x40 PUSH1 0x0 KECCAK256 DUP5 MLOAD DUP1 MLOAD SWAP1 PUSH8 0xFFFFFFFFFFFFFFFF DUP3 GT PUSH2 0x466 JUMPI DUP2 SWAP1 PUSH2 0x223 DUP5 SLOAD PUSH2 0x6AB JUMP JUMPDEST PUSH1 0x1F DUP2 GT PUSH2 0x5B8 JUMPI JUMPDEST POP PUSH1 0x20 SWAP1 PUSH1 0x1F DUP4 GT PUSH1 0x1 EQ PUSH2 0x552 JUMPI PUSH1 0x0 SWAP3 PUSH2 0x547 JUMPI JUMPDEST POP POP DUP2 PUSH1 0x1 SHL SWAP2 PUSH1 0x0 NOT SWAP1 PUSH1 0x3 SHL SHR NOT AND OR DUP2 SSTORE JUMPDEST PUSH1 0x20 DUP6 ADD MLOAD DUP1 MLOAD SWAP1 PUSH8 0xFFFFFFFFFFFFFFFF DUP3 GT PUSH2 0x466 JUMPI DUP2 SWAP1 PUSH2 0x27E PUSH1 0x1 DUP6 ADD SLOAD PUSH2 0x6AB JUMP JUMPDEST PUSH1 0x1F DUP2 GT PUSH2 0x4F4 JUMPI JUMPDEST POP PUSH1 0x20 SWAP1 PUSH1 0x1F DUP4 GT PUSH1 0x1 EQ PUSH2 0x487 JUMPI PUSH1 0x0 SWAP3 PUSH2 0x47C JUMPI JUMPDEST POP POP DUP2 PUSH1 0x1 SHL SWAP2 PUSH1 0x0 NOT SWAP1 PUSH1 0x3 SHL SHR NOT AND OR PUSH1 0x1 DUP3 ADD SSTORE JUMPDEST PUSH1 0x2 DUP2 ADD SWAP5 PUSH1 0x40 DUP2 ADD MLOAD SWAP6 DUP7 MLOAD PUSH8 0xFFFFFFFFFFFFFFFF DUP2 GT PUSH2 0x466 JUMPI PUSH2 0x2DC DUP3 SLOAD PUSH2 0x6AB JUMP JUMPDEST SWAP8 PUSH1 0x1F DUP10 GT PUSH2 0x41E JUMPI JUMPDEST PUSH1 0x20 SWAP9 POP DUP9 SWAP1 PUSH1 0x1F DUP4 GT PUSH1 0x1 EQ PUSH2 0x389 JUMPI PUSH2 0x373 SWAP5 PUSH2 0x365 SWAP8 SWAP5 DUP5 PUSH32 0x6012E14A4C4012F22F6DDBEDD717FD342085DD640EAA08AA4B86813D0B6F3B53 SWAP11 SWAP9 SWAP6 PUSH1 0x3 SWAP6 PUSH1 0x60 SWAP6 PUSH1 0x0 SWAP3 PUSH2 0x37E JUMPI JUMPDEST POP POP DUP2 PUSH1 0x1 SHL SWAP2 PUSH1 0x0 NOT SWAP1 DUP8 SHL SHR NOT AND OR SWAP1 SSTORE JUMPDEST ADD MLOAD SWAP2 ADD SSTORE PUSH1 0x40 MLOAD SWAP4 DUP5 SWAP4 DUP8 DUP6 MSTORE PUSH1 0x60 DUP10 DUP7 ADD MSTORE PUSH1 0x60 DUP6 ADD SWAP1 PUSH2 0x7C8 JUMP JUMPDEST SWAP1 DUP4 DUP3 SUB PUSH1 0x40 DUP6 ADD MSTORE PUSH2 0x7C8 JUMP JUMPDEST SUB SWAP1 LOG1 PUSH1 0x40 MLOAD SWAP1 DUP2 MSTORE RETURN JUMPDEST ADD MLOAD SWAP1 POP DUP15 DUP1 PUSH2 0x333 JUMP JUMPDEST SWAP1 PUSH1 0x1F NOT DUP4 AND SWAP2 DUP5 PUSH1 0x0 MSTORE DUP11 PUSH1 0x0 KECCAK256 SWAP3 PUSH1 0x0 JUMPDEST DUP2 DUP2 LT PUSH2 0x407 JUMPI POP SWAP5 PUSH1 0x1 DUP6 PUSH1 0x3 SWAP6 PUSH1 0x60 SWAP6 PUSH2 0x373 SWAP11 SWAP6 PUSH32 0x6012E14A4C4012F22F6DDBEDD717FD342085DD640EAA08AA4B86813D0B6F3B53 SWAP15 SWAP13 SWAP10 PUSH2 0x365 SWAP15 SWAP12 LT PUSH2 0x3EF JUMPI JUMPDEST POP POP POP DUP2 SHL ADD SWAP1 SSTORE PUSH2 0x347 JUMP JUMPDEST ADD MLOAD PUSH1 0x0 NOT DUP4 DUP10 SHL PUSH1 0xF8 AND SHR NOT AND SWAP1 SSTORE DUP15 DUP1 DUP1 PUSH2 0x3E2 JUMP JUMPDEST SWAP3 SWAP4 DUP13 PUSH1 0x1 DUP2 SWAP3 DUP8 DUP7 ADD MLOAD DUP2 SSTORE ADD SWAP6 ADD SWAP4 ADD PUSH2 0x39C JUMP JUMPDEST DUP3 PUSH1 0x0 MSTORE PUSH1 0x20 PUSH1 0x0 KECCAK256 PUSH1 0x1F DUP4 ADD PUSH1 0x5 SHR DUP2 ADD SWAP10 PUSH1 0x20 DUP5 LT PUSH2 0x45C JUMPI JUMPDEST PUSH1 0x1F ADD PUSH1 0x5 SHR ADD SWAP9 JUMPDEST DUP10 DUP2 LT PUSH2 0x450 JUMPI POP PUSH2 0x2E6 JUMP JUMPDEST PUSH1 0x0 DUP2 SSTORE PUSH1 0x1 ADD PUSH2 0x443 JUMP JUMPDEST SWAP1 SWAP10 POP DUP10 SWAP1 PUSH2 0x43A JUMP JUMPDEST PUSH4 0x4E487B71 PUSH1 0xE0 SHL PUSH1 0x0 MSTORE PUSH1 0x41 PUSH1 0x4 MSTORE PUSH1 0x24 PUSH1 0x0 REVERT JUMPDEST ADD MLOAD SWAP1 POP DUP8 DUP1 PUSH2 0x29E JUMP JUMPDEST PUSH1 0x1 DUP6 ADD PUSH1 0x0 SWAP1 DUP2 MSTORE PUSH1 0x20 DUP2 KECCAK256 SWAP4 POP PUSH1 0x1F NOT DUP6 AND SWAP1 JUMPDEST DUP2 DUP2 LT PUSH2 0x4DC JUMPI POP SWAP1 DUP5 PUSH1 0x1 SWAP6 SWAP5 SWAP4 SWAP3 LT PUSH2 0x4C3 JUMPI JUMPDEST POP POP POP DUP2 SHL ADD PUSH1 0x1 DUP3 ADD SSTORE PUSH2 0x2B6 JUMP JUMPDEST ADD MLOAD PUSH1 0x0 NOT PUSH1 0xF8 DUP5 PUSH1 0x3 SHL AND SHR NOT AND SWAP1 SSTORE DUP8 DUP1 DUP1 PUSH2 0x4B3 JUMP JUMPDEST SWAP3 SWAP4 PUSH1 0x20 PUSH1 0x1 DUP2 SWAP3 DUP8 DUP7 ADD MLOAD DUP2 SSTORE ADD SWAP6 ADD SWAP4 ADD PUSH2 0x49D JUMP JUMPDEST SWAP1 SWAP2 POP PUSH1 0x1 DUP5 ADD PUSH1 0x0 MSTORE PUSH1 0x20 PUSH1 0x0 KECCAK256 PUSH1 0x1F DUP5 ADD PUSH1 0x5 SHR DUP2 ADD PUSH1 0x20 DUP6 LT PUSH2 0x540 JUMPI JUMPDEST SWAP1 DUP5 SWAP4 SWAP3 SWAP2 JUMPDEST PUSH1 0x1F DUP4 ADD PUSH1 0x5 SHR DUP3 ADD DUP2 LT PUSH2 0x531 JUMPI POP POP PUSH2 0x287 JUMP JUMPDEST PUSH1 0x0 DUP2 SSTORE DUP6 SWAP5 POP PUSH1 0x1 ADD PUSH2 0x51B JUMP JUMPDEST POP DUP1 PUSH2 0x515 JUMP JUMPDEST ADD MLOAD SWAP1 POP DUP8 DUP1 PUSH2 0x243 JUMP JUMPDEST PUSH1 0x0 DUP6 DUP2 MSTORE PUSH1 0x20 DUP2 KECCAK256 SWAP4 POP PUSH1 0x1F NOT DUP6 AND SWAP1 JUMPDEST DUP2 DUP2 LT PUSH2 0x5A0 JUMPI POP SWAP1 DUP5 PUSH1 0x1 SWAP6 SWAP5 SWAP4 SWAP3 LT PUSH2 0x587 JUMPI JUMPDEST POP POP POP DUP2 SHL ADD DUP2 SSTORE PUSH2 0x258 JUMP JUMPDEST ADD MLOAD PUSH1 0x0 NOT PUSH1 0xF8 DUP5 PUSH1 0x3 SHL AND SHR NOT AND SWAP1 SSTORE DUP8 DUP1 DUP1 PUSH2 0x57A JUMP JUMPDEST SWAP3 SWAP4 PUSH1 0x20 PUSH1 0x1 DUP2 SWAP3 DUP8 DUP7 ADD MLOAD DUP2 SSTORE ADD SWAP6 ADD SWAP4 ADD PUSH2 0x564 JUMP JUMPDEST SWAP1 SWAP2 POP DUP4 PUSH1 0x0 MSTORE PUSH1 0x20 PUSH1 0x0 KECCAK256 PUSH1 0x1F DUP5 ADD PUSH1 0x5 SHR DUP2 ADD PUSH1 0x20 DUP6 LT PUSH2 0x601 JUMPI JUMPDEST SWAP1 DUP5 SWAP4 SWAP3 SWAP2 JUMPDEST PUSH1 0x1F DUP4 ADD PUSH1 0x5 SHR DUP3 ADD DUP2 LT PUSH2 0x5F2 JUMPI POP POP PUSH2 0x22C JUMP JUMPDEST PUSH1 0x0 DUP2 SSTORE DUP6 SWAP5 POP PUSH1 0x1 ADD PUSH2 0x5DC JUMP JUMPDEST POP DUP1 PUSH2 0x5D6 JUMP JUMPDEST PUSH4 0x4E487B71 PUSH1 0xE0 SHL PUSH1 0x0 MSTORE PUSH1 0x11 PUSH1 0x4 MSTORE PUSH1 0x24 PUSH1 0x0 REVERT JUMPDEST CALLVALUE PUSH2 0x66 JUMPI PUSH1 0x20 CALLDATASIZE PUSH1 0x3 NOT ADD SLT PUSH2 0x66 JUMPI PUSH1 0x4 CALLDATALOAD PUSH1 0x0 MSTORE PUSH1 0x0 PUSH1 0x20 MSTORE PUSH2 0x685 PUSH1 0x40 PUSH1 0x0 KECCAK256 PUSH2 0x64B DUP2 PUSH2 0x723 JUMP JUMPDEST SWAP1 PUSH2 0x6A1 PUSH2 0x65B PUSH1 0x1 DUP4 ADD PUSH2 0x723 JUMP JUMPDEST SWAP2 PUSH2 0x693 PUSH1 0x3 PUSH2 0x66D PUSH1 0x2 DUP5 ADD PUSH2 0x723 JUMP JUMPDEST SWAP3 ADD SLOAD SWAP4 PUSH1 0x40 MLOAD SWAP7 DUP8 SWAP7 PUSH1 0x80 DUP9 MSTORE PUSH1 0x80 DUP9 ADD SWAP1 PUSH2 0x7C8 JUMP JUMPDEST SWAP1 DUP7 DUP3 SUB PUSH1 0x20 DUP9 ADD MSTORE PUSH2 0x7C8 JUMP JUMPDEST SWAP1 DUP5 DUP3 SUB PUSH1 0x40 DUP7 ADD MSTORE PUSH2 0x7C8 JUMP JUMPDEST SWAP1 PUSH1 0x60 DUP4 ADD MSTORE SUB SWAP1 RETURN JUMPDEST SWAP1 PUSH1 0x1 DUP3 DUP2 SHR SWAP3 AND DUP1 ISZERO PUSH2 0x6DB JUMPI JUMPDEST PUSH1 0x20 DUP4 LT EQ PUSH2 0x6C5 JUMPI JUMP JUMPDEST PUSH4 0x4E487B71 PUSH1 0xE0 SHL PUSH1 0x0 MSTORE PUSH1 0x22 PUSH1 0x4 MSTORE PUSH1 0x24 PUSH1 0x0 REVERT JUMPDEST SWAP2 PUSH1 0x7F AND SWAP2 PUSH2 0x6BA JUMP JUMPDEST PUSH1 0x80 DUP2 ADD SWAP1 DUP2 LT PUSH8 0xFFFFFFFFFFFFFFFF DUP3 GT OR PUSH2 0x466 JUMPI PUSH1 0x40 MSTORE JUMP JUMPDEST SWAP1 PUSH1 0x1F DUP1 NOT SWAP2 ADD AND DUP2 ADD SWAP1 DUP2 LT PUSH8 0xFFFFFFFFFFFFFFFF DUP3 GT OR PUSH2 0x466 JUMPI PUSH1 0x40 MSTORE JUMP JUMPDEST SWAP1 PUSH1 0x40 MLOAD SWAP2 DUP3 PUSH1 0x0 DUP3 SLOAD PUSH2 0x736 DUP2 PUSH2 0x6AB JUMP JUMPDEST SWAP1 DUP2 DUP5 MSTORE PUSH1 0x20 SWAP5 PUSH1 0x1 SWAP2 PUSH1 0x1 DUP2 AND SWAP1 DUP2 PUSH1 0x0 EQ PUSH2 0x7A6 JUMPI POP PUSH1 0x1 EQ PUSH2 0x767 JUMPI JUMPDEST POP POP POP PUSH2 0x765 SWAP3 POP SUB DUP4 PUSH2 0x701 JUMP JUMPDEST JUMP JUMPDEST PUSH1 0x0 SWAP1 DUP2 MSTORE DUP6 DUP2 KECCAK256 SWAP6 SWAP4 POP SWAP2 SWAP1 JUMPDEST DUP2 DUP4 LT PUSH2 0x78E JUMPI POP POP PUSH2 0x765 SWAP4 POP DUP3 ADD ADD CODESIZE DUP1 DUP1 PUSH2 0x756 JUMP JUMPDEST DUP6 SLOAD DUP9 DUP5 ADD DUP6 ADD MSTORE SWAP5 DUP6 ADD SWAP5 DUP8 SWAP5 POP SWAP2 DUP4 ADD SWAP2 PUSH2 0x775 JUMP JUMPDEST SWAP3 POP POP POP PUSH2 0x765 SWAP5 SWAP3 POP PUSH1 0xFF NOT AND DUP3 DUP5 ADD MSTORE ISZERO ISZERO PUSH1 0x5 SHL DUP3 ADD ADD CODESIZE DUP1 DUP1 PUSH2 0x756 JUMP JUMPDEST SWAP2 SWAP1 DUP3 MLOAD SWAP3 DUP4 DUP3 MSTORE PUSH1 0x0 JUMPDEST DUP5 DUP2 LT PUSH2 0x7F4 JUMPI POP POP DUP3 PUSH1 0x0 PUSH1 0x20 DUP1 SWAP5 SWAP6 DUP5 ADD ADD MSTORE PUSH1 0x1F DUP1 NOT SWAP2 ADD AND ADD ADD SWAP1 JUMP JUMPDEST PUSH1 0x20 DUP2 DUP4 ADD DUP2 ADD MLOAD DUP5 DUP4 ADD DUP3 ADD MSTORE ADD PUSH2 0x7D3 JUMP JUMPDEST DUP2 PUSH1 0x1F DUP3 ADD SLT ISZERO PUSH2 0x66 JUMPI DUP1 CALLDATALOAD SWAP1 PUSH8 0xFFFFFFFFFFFFFFFF DUP3 GT PUSH2 0x466 JUMPI PUSH1 0x40 MLOAD SWAP3 PUSH2 0x83D PUSH1 0x1F DUP5 ADD PUSH1 0x1F NOT AND PUSH1 0x20 ADD DUP6 PUSH2 0x701 JUMP JUMPDEST DUP3 DUP5 MSTORE PUSH1 0x20 DUP4 DUP4 ADD ADD GT PUSH2 0x66 JUMPI DUP2 PUSH1 0x0 SWAP3 PUSH1 0x20 DUP1 SWAP4 ADD DUP4 DUP7 ADD CALLDATACOPY DUP4 ADD ADD MSTORE SWAP1 JUMP INVALID LOG2 PUSH5 0x6970667358 0x22 SLT KECCAK256 0xE1 0x2B 0xD7 0xDF PUSH26 0x7A3602BF85189C4C6BC1949FE4BB4EE91526E6E6E074F8D6EA2A PUSH5 0x64736F6C63 NUMBER STOP ADDMOD XOR STOP CALLER "},"methodIdentifiers":{"createRegion(string,string,string)":"244b25a4","getRegion(uint256)":"40ba0e94","nextRegionId()":"b937e139","regions(uint256)":"132abfb6"}}}}}