{"contracts/Insurance.sol":{"InsuranceContract":{"abi":[{"anonymous":false,"inputs":[{"indexed":true,"internalType":"uint256","name":"id","type":"uint256"},{"indexed":false,"internalType":"uint256","name":"amount","type":"uint256"}],"name":"PolicyClaimed","type":"event"},{"anonymous":false,"inputs":[{"indexed":true,"internalType":"uint256","name":"id","type":"uint256"},{"indexed":false,"internalType":"address","name":"farmer","type":"address"},{"indexed":false,"internalType":"uint256","name":"coverage","type":"uint256"}],"name":"PolicyCreated","type":"event"},{"inputs":[{"internalType":"uint256","name":"_batchId","type":"uint256"}],"name":"claim","outputs":[],"stateMutability":"nonpayable","type":"function"},{"inputs":[{"internalType":"uint256","name":"_batchId","type":"uint256"},{"internalType":"uint256","name":"_coverage","type":"uint256"}],"name":"createPolicy","outputs":[],"stateMutability":"payable","type":"function"},{"inputs":[{"internalType":"uint256","name":"","type":"uint256"}],"name":"policies","outputs":[{"internalType":"uint256","name":"batchTokenId","type":"uint256"},{"internalType":"address","name":"farmer","type":"address"},{"internalType":"uint256","name":"coverageAmount","type":"uint256"},{"internalType":"uint256","name":"premium","type":"uint256"},{"internalType":"bool","name":"active","type":"bool"},{"internalType":"uint256","name":"expiry","type":"uint256"}],"stateMutability":"view","type":"function"}],"evm":{"bytecode":{"linkReferences":{},"object":"6080806040523461001657610354908161001c8239f35b600080fdfe608060408181526004908136101561001657600080fd5b600092833560e01c908163379607f51461021257508063c7e2f28e146100b05763d3e894831461004557600080fd5b346100ac5760203660031901126100ac578060c09383358152806020522080549260018060a01b0360018301541692600283015490600560ff60038601549486015416940154948151968752602087015285015260608401521515608083015260a0820152f35b8280fd5b5080839160031936011261020e5782359060243582845283602052600282852001546101db576301e1338042018042116101c85782519060c0820182811067ffffffffffffffff8211176101b557907f601882301d3e3fce7fe3a99d4bb17ef5b6699b417bdd29f2bfb82e19fcbcb66095969760059286528784526020840190338252868501868152606086019034825260808701936001855260a088019586528b8d528c602052898d2097518855600188019060018060a01b039051166bffffffffffffffffffffffff60a01b82541617905551600287015551600386015584019051151560ff80198354169116179055519101558151903382526020820152a280f35b634e487b7160e01b875260418852602487fd5b634e487b7160e01b855260118652602485fd5b815162461bcd60e51b8152602081870152600d60248201526c506f6c6963792065786973747360981b6044820152606490fd5b5080fd5b90503461031a57602036600319011261031a5782359283855284602052828520918183019182549160ff8316156102ed575060058401544210156102c0575060ff1916905583808080600260018060a01b036001870154169501948554908282156102b7575bf1156102ad577fc9d92d603dc7645c578a271dc9dec46855d3c0cdbdc48d00399a438907cfa1cb91602091549051908152a280f35b81513d85823e3d90fd5b506108fc610278565b606490602086519162461bcd60e51b83528201526007602482015266115e1c1a5c995960ca1b6044820152fd5b602060649262461bcd60e51b8352820152600a6024820152694e6f742061637469766560b01b6044820152fd5b8380fdfea26469706673582212200fe9f9d8b32869c1cbfe9c90f98edeede47e049bf8c085586263e553b6f5b71264736f6c63430008180033","opcodes":"PUSH1 0x80 DUP1 PUSH1 0x40 MSTORE CALLVALUE PUSH2 0x16 JUMPI PUSH2 0x354 SWAP1 DUP2 PUSH2 0x1C DUP3 CODECOPY RETURN JUMPDEST PUSH1 0x0 DUP1 REVERT INVALID PUSH1 0x80 PUSH1 0x40 DUP2 DUP2 MSTORE PUSH1 0x4 SWAP1 DUP2 CALLDATASIZE LT ISZERO PUSH2 0x16 JUMPI PUSH1 0x0 DUP1 REVERT JUMPDEST PUSH1 0x0 SWAP3 DUP4 CALLDATALOAD PUSH1 0xE0 SHR SWAP1 DUP2 PUSH4 0x379607F5 EQ PUSH2 0x212 JUMPI POP DUP1 PUSH4 0xC7E2F28E EQ PUSH2 0xB0 JUMPI PUSH4 0xD3E89483 EQ PUSH2 0x45 JUMPI PUSH1 0x0 DUP1 REVERT JUMPDEST CALLVALUE PUSH2 0xAC JUMPI PUSH1 0x20 CALLDATASIZE PUSH1 0x3 NOT ADD SLT PUSH2 0xAC JUMPI DUP1 PUSH1 0xC0 SWAP4 DUP4 CALLDATALOAD DUP2 MSTORE DUP1 PUSH1 0x20 MSTORE KECCAK256 DUP1 SLOAD SWAP3 PUSH1 0x1 DUP1 PUSH1 0xA0 SHL SUB PUSH1 0x1 DUP4 ADD SLOAD AND SWAP3 PUSH1 0x2 DUP4 ADD SLOAD SWAP1 PUSH1 0x5 PUSH1 0xFF PUSH1 0x3 DUP7 ADD SLOAD SWAP5 DUP7 ADD SLOAD AND SWAP5 ADD SLOAD SWAP5 DUP2 MLOAD SWAP7 DUP8 MSTORE PUSH1 0x20 DUP8 ADD MSTORE DUP6 ADD MSTORE PUSH1 0x60 DUP5 ADD MSTORE ISZERO ISZERO PUSH1 0x80 DUP4 ADD MSTORE PUSH1 0xA0 DUP3 ADD MSTORE RETURN JUMPDEST DUP3 DUP1 REVERT JUMPDEST POP DUP1 DUP4 SWAP2 PUSH1 0x3 NOT CALLDATASIZE ADD SLT PUSH2 0x20E JUMPI DUP3 CALLDATALOAD SWAP1 PUSH1 0x24 CALLDATALOAD DUP3 DUP5 MSTORE DUP4 PUSH1 0x20 MSTORE PUSH1 0x2 DUP3 DUP6 KECCAK256 ADD SLOAD PUSH2 0x1DB JUMPI PUSH4 0x1E13380 TIMESTAMP ADD DUP1 TIMESTAMP GT PUSH2 0x1C8 JUMPI DUP3 MLOAD SWAP1 PUSH1 0xC0 DUP3 ADD DUP3 DUP2 LT PUSH8 0xFFFFFFFFFFFFFFFF DUP3 GT OR PUSH2 0x1B5 JUMPI SWAP1 PUSH32 0x601882301D3E3FCE7FE3A99D4BB17EF5B6699B417BDD29F2BFB82E19FCBCB660 SWAP6 SWAP7 SWAP8 PUSH1 0x5 SWAP3 DUP7 MSTORE DUP8 DUP5 MSTORE PUSH1 0x20 DUP5 ADD SWAP1 CALLER DUP3 MSTORE DUP7 DUP6 ADD DUP7 DUP2 MSTORE PUSH1 0x60 DUP7 ADD SWAP1 CALLVALUE DUP3 MSTORE PUSH1 0x80 DUP8 ADD SWAP4 PUSH1 0x1 DUP6 MSTORE PUSH1 0xA0 DUP9 ADD SWAP6 DUP7 MSTORE DUP12 DUP14 MSTORE DUP13 PUSH1 0x20 MSTORE DUP10 DUP14 KECCAK256 SWAP8 MLOAD DUP9 SSTORE PUSH1 0x1 DUP9 ADD SWAP1 PUSH1 0x1 DUP1 PUSH1 0xA0 SHL SUB SWAP1 MLOAD AND PUSH12 0xFFFFFFFFFFFFFFFFFFFFFFFF PUSH1 0xA0 SHL DUP3 SLOAD AND OR SWAP1 SSTORE MLOAD PUSH1 0x2 DUP8 ADD SSTORE MLOAD PUSH1 0x3 DUP7 ADD SSTORE DUP5 ADD SWAP1 MLOAD ISZERO ISZERO PUSH1 0xFF DUP1 NOT DUP4 SLOAD AND SWAP2 AND OR SWAP1 SSTORE MLOAD SWAP2 ADD SSTORE DUP2 MLOAD SWAP1 CALLER DUP3 MSTORE PUSH1 0x20 DUP3 ADD MSTORE LOG2 DUP1 RETURN JUMPDEST PUSH4 0x4E487B71 PUSH1 0xE0 SHL DUP8 MSTORE PUSH1 0x41 DUP9 MSTORE PUSH1 0x24 DUP8 REVERT JUMPDEST PUSH4 0x4E487B71 PUSH1 0xE0 SHL DUP6 MSTORE PUSH1 0x11 DUP7 MSTORE PUSH1 0x24 DUP6 REVERT JUMPDEST DUP2 MLOAD PUSH3 0x461BCD PUSH1 0xE5 SHL DUP2 MSTORE PUSH1 0x20 DUP2 DUP8 ADD MSTORE PUSH1 0xD PUSH1 0x24 DUP3 ADD MSTORE PUSH13 0x506F6C69637920657869737473 PUSH1 0x98 SHL PUSH1 0x44 DUP3 ADD MSTORE PUSH1 0x64 SWAP1 REVERT JUMPDEST POP DUP1 REVERT JUMPDEST SWAP1 POP CALLVALUE PUSH2 0x31A JUMPI PUSH1 0x20 CALLDATASIZE PUSH1 0x3 NOT ADD SLT PUSH2 0x31A JUMPI DUP3 CALLDATALOAD SWAP3 DUP4 DUP6 MSTORE DUP5 PUSH1 0x20 MSTORE DUP3 DUP6 KECCAK256 SWAP2 DUP2 DUP4 ADD SWAP2 DUP3 SLOAD SWAP2 PUSH1 0xFF DUP4 AND ISZERO PUSH2 0x2ED JUMPI POP PUSH1 0x5 DUP5 ADD SLOAD TIMESTAMP LT ISZERO PUSH2 0x2C0 JUMPI POP PUSH1 0xFF NOT AND SWAP1 SSTORE DUP4 DUP1 DUP1 DUP1 PUSH1 0x2 PUSH1 0x1 DUP1 PUSH1 0xA0 SHL SUB PUSH1 0x1 DUP8 ADD SLOAD AND SWAP6 ADD SWAP5 DUP6 SLOAD SWAP1 DUP3 DUP3 ISZERO PUSH2 0x2B7 JUMPI JUMPDEST CALL ISZERO PUSH2 0x2AD JUMPI PUSH32 0xC9D92D603DC7645C578A271DC9DEC46855D3C0CDBDC48D00399A438907CFA1CB SWAP2 PUSH1 0x20 SWAP2 SLOAD SWAP1 MLOAD SWAP1 DUP2 MSTORE LOG2 DUP1 RETURN JUMPDEST DUP2 MLOAD RETURNDATASIZE DUP6 DUP3 RETURNDATACOPY RETURNDATASIZE SWAP1 REVERT JUMPDEST POP PUSH2 0x8FC PUSH2 0x278 JUMP JUMPDEST PUSH1 0x64 SWAP1 PUSH1 0x20 DUP7 MLOAD SWAP2 PUSH3 0x461BCD PUSH1 0xE5 SHL DUP4 MSTORE DUP3 ADD MSTORE PUSH1 0x7 PUSH1 0x24 DUP3 ADD MSTORE PUSH7 0x115E1C1A5C9959 PUSH1 0xCA SHL PUSH1 0x44 DUP3 ADD MSTORE REVERT JUMPDEST PUSH1 0x20 PUSH1 0x64 SWAP3 PUSH3 0x461BCD PUSH1 0xE5 SHL DUP4 MSTORE DUP3 ADD MSTORE PUSH1 0xA PUSH1 0x24 DUP3 ADD MSTORE PUSH10 0x4E6F7420616374697665 PUSH1 0xB0 SHL PUSH1 0x44 DUP3 ADD MSTORE REVERT JUMPDEST DUP4 DUP1 REVERT INVALID LOG2 PUSH5 0x6970667358 0x22 SLT KECCAK256 0xF 0xE9 0xF9 0xD8 0xB3 0x28 PUSH10 0xC1CBFE9C90F98EDEEDE4 PUSH31 0x49BF8C085586263E553B6F5B71264736F6C63430008180033000000000000 "},"methodIdentifiers":{"claim(uint256)":"379607f5","createPolicy(uint256,uint256)":"c7e2f28e","policies(uint256)":"d3e89483"}}}}}