{"contracts/Validator.sol":{"ValidatorContract":{"abi":[{"anonymous":false,"inputs":[{"indexed":true,"internalType":"bytes32","name":"dataHash","type":"bytes32"},{"indexed":false,"internalType":"address","name":"validator","type":"address"}],"name":"DataValidated","type":"event"},{"inputs":[{"internalType":"bytes32","name":"_dataHash","type":"bytes32"}],"name":"isValidated","outputs":[{"internalType":"bool","name":"","type":"bool"}],"stateMutability":"view","type":"function"},{"inputs":[{"internalType":"bytes32","name":"_dataHash","type":"bytes32"}],"name":"validateData","outputs":[],"stateMutability":"nonpayable","type":"function"},{"inputs":[{"internalType":"bytes32","name":"","type":"bytes32"}],"name":"validatedData","outputs":[{"internalType":"bool","name":"","type":"bool"}],"stateMutability":"view","type":"function"}],"evm":{"bytecode":{"linkReferences":{},"object":"6080806040523461001657610121908161001c8239f35b600080fdfe608060408181526004361015601357600080fd5b600091823560e01c9081633fc93da21460bf575080635e8e31d014606c5763bf1db71e14603f57600080fd5b34606857602036600319011260685760ff81602093600435815280855220541690519015158152f35b5080fd5b503460685760203660031901126068577f02aa667f299fe7f37e26e41f6c358d96727c31eccb158639520d98f731cc5f25602060043592838552848252808520600160ff1982541617905551338152a280f35b9190503460e757602036600319011260e7576004358352602083815292205460ff1615158152f35b8280fdfea2646970667358221220d76575e84cf04eb56a8996bdf6f5f86626ea9525ed6e1b7044dad5e35be30b9f64736f6c63430008180033","opcodes":"PUSH1 0x80 DUP1 PUSH1 0x40 MSTORE CALLVALUE PUSH2 0x16 JUMPI PUSH2 0x121 SWAP1 DUP2 PUSH2 0x1C DUP3 CODECOPY RETURN JUMPDEST PUSH1 0x0 DUP1 REVERT INVALID PUSH1 0x80 PUSH1 0x40 DUP2 DUP2 MSTORE PUSH1 0x4 CALLDATASIZE LT ISZERO PUSH1 0x13 JUMPI PUSH1 0x0 DUP1 REVERT JUMPDEST PUSH1 0x0 SWAP2 DUP3 CALLDATALOAD PUSH1 0xE0 SHR SWAP1 DUP2 PUSH4 0x3FC93DA2 EQ PUSH1 0xBF JUMPI POP DUP1 PUSH4 0x5E8E31D0 EQ PUSH1 0x6C JUMPI PUSH4 0xBF1DB71E EQ PUSH1 0x3F JUMPI PUSH1 0x0 DUP1 REVERT JUMPDEST CALLVALUE PUSH1 0x68 JUMPI PUSH1 0x20 CALLDATASIZE PUSH1 0x3 NOT ADD SLT PUSH1 0x68 JUMPI PUSH1 0xFF DUP2 PUSH1 0x20 SWAP4 PUSH1 0x4 CALLDATALOAD DUP2 MSTORE DUP1 DUP6 MSTORE KECCAK256 SLOAD AND SWAP1 MLOAD SWAP1 ISZERO ISZERO DUP2 MSTORE RETURN JUMPDEST POP DUP1 REVERT JUMPDEST POP CALLVALUE PUSH1 0x68 JUMPI PUSH1 0x20 CALLDATASIZE PUSH1 0x3 NOT ADD SLT PUSH1 0x68 JUMPI PUSH32 0x2AA667F299FE7F37E26E41F6C358D96727C31ECCB158639520D98F731CC5F25 PUSH1 0x20 PUSH1 0x4 CALLDATALOAD SWAP3 DUP4 DUP6 MSTORE DUP5 DUP3 MSTORE DUP1 DUP6 KECCAK256 PUSH1 0x1 PUSH1 0xFF NOT DUP3 SLOAD AND OR SWAP1 SSTORE MLOAD CALLER DUP2 MSTORE LOG2 DUP1 RETURN JUMPDEST SWAP2 SWAP1 POP CALLVALUE PUSH1 0xE7 JUMPI PUSH1 0x20 CALLDATASIZE PUSH1 0x3 NOT ADD SLT PUSH1 0xE7 JUMPI PUSH1 0x4 CALLDATALOAD DUP4 MSTORE PUSH1 0x20 DUP4 DUP2 MSTORE SWAP3 KECCAK256 SLOAD PUSH1 0xFF AND ISZERO ISZERO DUP2 MSTORE RETURN JUMPDEST DUP3 DUP1 REVERT INVALID LOG2 PUSH5 0x6970667358 0x22 SLT KECCAK256 0xD7 PUSH6 0x75E84CF04EB5 PUSH11 0x8996BDF6F5F86626EA9525 0xED PUSH15 0x1B7044DAD5E35BE30B9F64736F6C63 NUMBER STOP ADDMOD XOR STOP CALLER "},"methodIdentifiers":{"isValidated(bytes32)":"bf1db71e","validateData(bytes32)":"5e8e31d0","validatedData(bytes32)":"3fc93da2"}}}}}