{"contracts/MultiSigWallet.sol":{"MultiSigWallet":{"abi":[{"inputs":[{"internalType":"address[]","name":"_owners","type":"address[]"},{"internalType":"uint256","name":"_required","type":"uint256"}],"stateMutability":"nonpayable","type":"constructor"},{"anonymous":false,"inputs":[{"indexed":true,"internalType":"uint256","name":"txId","type":"uint256"},{"indexed":true,"internalType":"address","name":"approver","type":"address"}],"name":"TransactionApproved","type":"event"},{"anonymous":false,"inputs":[{"indexed":true,"internalType":"uint256","name":"txId","type":"uint256"}],"name":"TransactionExecuted","type":"event"},{"anonymous":false,"inputs":[{"indexed":true,"internalType":"uint256","name":"txId","type":"uint256"},{"indexed":true,"internalType":"address","name":"owner","type":"address"}],"name":"TransactionSubmitted","type":"event"},{"inputs":[{"internalType":"uint256","name":"","type":"uint256"},{"internalType":"address","name":"","type":"address"}],"name":"approvals","outputs":[{"internalType":"bool","name":"","type":"bool"}],"stateMutability":"view","type":"function"},{"inputs":[{"internalType":"uint256","name":"_txId","type":"uint256"}],"name":"approveTransaction","outputs":[],"stateMutability":"nonpayable","type":"function"},{"inputs":[{"internalType":"uint256","name":"_txId","type":"uint256"}],"name":"executeTransaction","outputs":[],"stateMutability":"payable","type":"function"},{"inputs":[],"name":"getTransactionCount","outputs":[{"internalType":"uint256","name":"","type":"uint256"}],"stateMutability":"view","type":"function"},{"inputs":[{"internalType":"uint256","name":"","type":"uint256"}],"name":"owners","outputs":[{"internalType":"address","name":"","type":"address"}],"stateMutability":"view","type":"function"},{"inputs":[],"name":"required","outputs":[{"internalType":"uint256","name":"","type":"uint256"}],"stateMutability":"view","type":"function"},{"inputs":[{"internalType":"address","name":"_to","type":"address"},{"internalType":"uint256","name":"_value","type":"uint256"},{"internalType":"bytes","name":"_data","type":"bytes"}],"name":"submitTransaction","outputs":[],"stateMutability":"nonpayable","type":"function"},{"inputs":[{"internalType":"uint256","name":"","type":"uint256"}],"name":"transactions","outputs":[{"internalType":"address","name":"to","type":"address"},{"internalType":"uint256","name":"value","type":"uint256"},{"internalType":"bytes","name":"data","type":"bytes"},{"internalType":"bool","name":"executed","type":"bool"},{"internalType":"uint256","name":"approvalCount","type":"uint256"}],"stateMutability":"view","type":"function"}],"evm":{"bytecode":{"linkReferences":{},"object":"60806040523461016557610a9c803803806100198161016a565b92833981016040828203126101655781516001600160401b03919082811161016557830181601f8201121561016557805193602092848611610125578560051b928461006681860161016a565b8098815201908582958201019283116101655790858094939201905b82821061013b57505050015193519283116101255768010000000000000000831161012557600254836002558084106100fa575b50906002600052806000209060005b8481106100df578560035560405161090c90816101908239f35b83516001600160a01b031683820155928101926001016100c5565b60006002600052848460002092830192015b82811061011a5750506100b6565b81815560010161010c565b634e487b7160e01b600052604160045260246000fd5b815193945091929091906001600160a01b0381168103610165578152859392918401908401610082565b600080fd5b6040519190601f01601f191682016001600160401b038111838210176101255760405256fe6080604081815260048036101561001557600080fd5b600092833560e01c908163025e7c271461079e57508063242232d1146106c45780632e7700f0146106a55780639ace38c214610548578063ab2850da146104ff578063c642747414610278578063dc8452cd146102555763ee22610b1461007b57600080fd5b60208060031936011261025157813592610094846107f7565b50838101546003541161021857600381019081549160ff83166101e257908791600190600160ff1980961617905560018060a01b038254169160026001820154910194865192859680546100e781610848565b93600182169182156101cc575050600114610195575b50505081849503925af13d15610190573d610117816108ba565b9061012484519283610882565b815286843d92013e5b1561015c575050507f15ed165a284872ea7017f03df402a0cadfbfab588320ffaf83f160c2f82781c78280a280f35b5162461bcd60e51b815291820152601060248201526f115e1958dd5d1a5bdb8819985a5b195960821b604482015260649150fd5b61012d565b8652888620965085905b898383106101b657505050820194508184386100fd565b885483870152978101978d97509091019061019f565b16865250505080151502820194508184386100fd565b835162461bcd60e51b8152808701869052601060248201526f105b1c9958591e48195e1958dd5d195960821b6044820152606490fd5b505162461bcd60e51b81529182015260146024820152734e6f7420656e6f75676820617070726f76616c7360601b604482015260649150fd5b8380fd5b5050346102745781600319360112610274576020906003549051908152f35b5080fd5b50346104f35760603660031901126104f35780356001600160a01b0381811692918390036104fb5760249360443567ffffffffffffffff8082116104f757366023830112156104f7578185013590886102d0836108ba565b936102dd86519586610882565b838552602093368b82840101116104f357808b869301838801378501015260019182549885519860a08a018a8110858211176104e157875289528189019581358752890194855260608901958b875260808a01978c8952680100000000000000008c10156104e157858c0186556103538c6107f7565b9b909b6104d05751166bffffffffffffffffffffffff60a01b8b5416178a5551848a01556002890194519081519384116104bf57506103928554610848565b601f8111610479575b5081601f841160011461041457509282939183928c94610409575b50501b916000199060031b1c19161790555b600384019051151560ff801983541691161790555191015533907f49dac62158bf9ae2b4399a70c655777cc0924f8708068eea723a1b4af2f07f1b8380a380f35b0151925038806103b6565b858c52808c209291908490601f198216908e905b8883831061045f5750505010610446575b505050811b0190556103c8565b015160001960f88460031b161c19169055388080610439565b858701518855909601959485019487935090810190610428565b858c52828c20601f850160051c8101918486106104b5575b601f0160051c019085905b8281106104aa57505061039b565b8d815501859061049c565b9091508190610491565b634e487b7160e01b8c52604189528bfd5b634e487b7160e01b8e528d8b52838efd5b634e487b7160e01b8d5260418a52828dfd5b8280fd5b8780fd5b8480fd5b50346104f357816003193601126104f3576024356001600160a01b03811691908290036102515760209360ff928492358252818652828220908252855220541690519015158152f35b50829034610274576020806003193601126104f35781359260019360015481101561027457610576906107f7565b509160018060a01b038354169560018401549460028501825197889186918154916105a083610848565b928386528860018216918260001461067f575050600114610640575b50505060a092916105d7919a989a9795979694960389610882565b60ff6003850154169301549380519889978852868801528601528551938460a0870152815b85811061062957505060c08096508486010152151560608401526080830152601f80199101168101030190f35b80880182015189820160c0015288965081016105fc565b8852868820879350889291905b82841061066557505050820101816105d760a06105bc565b849295829585835492010152019101909286928b9461064d565b60ff19168782015293151560051b860190930193508492506105d7915060a090506105bc565b5050346102745781600319360112610274576020906001549051908152f35b50346104f3576020918260031936011261025157813592838552848152818520338652815260ff828620541661076a5783855284815281852033865290528320805460ff1916600117905580610719836107f7565b50018054909160001982146107575750600101905533907f924813d717e221b5f46dcd8a56da1679e4612584ab3237d55e5faabf6f6a30798380a380f35b634e487b7160e01b855260119052602484fd5b905162461bcd60e51b815291820152601060248201526f105b1c9958591e48185c1c1c9bdd995960821b6044820152606490fd5b925050346104f35760203660031901126104f357356002548110156104f35760029092527f405787fa12a823e0f2b7631cc41b3ba8828b3321ca811111fa75cd3aa3bb5ace909101546001600160a01b03168152602090f35b600154811015610832576005906001600052027fb10e2d527612073b26eecdfd717e6a320cf44b4afac2b0732d9fcbe2b7fa0cf60190600090565b634e487b7160e01b600052603260045260246000fd5b90600182811c92168015610878575b602083101461086257565b634e487b7160e01b600052602260045260246000fd5b91607f1691610857565b90601f8019910116810190811067ffffffffffffffff8211176108a457604052565b634e487b7160e01b600052604160045260246000fd5b67ffffffffffffffff81116108a457601f01601f19166020019056fea26469706673582212201d2a541736837508a3def9fb76f1545d568aab6e2119f5f8c3ca0356298aaa0e64736f6c63430008180033","opcodes":"PUSH1 0x80 PUSH1 0x40 MSTORE CALLVALUE PUSH2 0x165 JUMPI PUSH2 0xA9C DUP1 CODESIZE SUB DUP1 PUSH2 0x19 DUP2 PUSH2 0x16A JUMP JUMPDEST SWAP3 DUP4 CODECOPY DUP2 ADD PUSH1 0x40 DUP3 DUP3 SUB SLT PUSH2 0x165 JUMPI DUP2 MLOAD PUSH1 0x1 PUSH1 0x1 PUSH1 0x40 SHL SUB SWAP2 SWAP1 DUP3 DUP2 GT PUSH2 0x165 JUMPI DUP4 ADD DUP2 PUSH1 0x1F DUP3 ADD SLT ISZERO PUSH2 0x165 JUMPI DUP1 MLOAD SWAP4 PUSH1 0x20 SWAP3 DUP5 DUP7 GT PUSH2 0x125 JUMPI DUP6 PUSH1 0x5 SHL SWAP3 DUP5 PUSH2 0x66 DUP2 DUP7 ADD PUSH2 0x16A JUMP JUMPDEST DUP1 SWAP9 DUP2 MSTORE ADD SWAP1 DUP6 DUP3 SWAP6 DUP3 ADD ADD SWAP3 DUP4 GT PUSH2 0x165 JUMPI SWAP1 DUP6 DUP1 SWAP5 SWAP4 SWAP3 ADD SWAP1 JUMPDEST DUP3 DUP3 LT PUSH2 0x13B JUMPI POP POP POP ADD MLOAD SWAP4 MLOAD SWAP3 DUP4 GT PUSH2 0x125 JUMPI PUSH9 0x10000000000000000 DUP4 GT PUSH2 0x125 JUMPI PUSH1 0x2 SLOAD DUP4 PUSH1 0x2 SSTORE DUP1 DUP5 LT PUSH2 0xFA JUMPI JUMPDEST POP SWAP1 PUSH1 0x2 PUSH1 0x0 MSTORE DUP1 PUSH1 0x0 KECCAK256 SWAP1 PUSH1 0x0 JUMPDEST DUP5 DUP2 LT PUSH2 0xDF JUMPI DUP6 PUSH1 0x3 SSTORE PUSH1 0x40 MLOAD PUSH2 0x90C SWAP1 DUP2 PUSH2 0x190 DUP3 CODECOPY RETURN JUMPDEST DUP4 MLOAD PUSH1 0x1 PUSH1 0x1 PUSH1 0xA0 SHL SUB AND DUP4 DUP3 ADD SSTORE SWAP3 DUP2 ADD SWAP3 PUSH1 0x1 ADD PUSH2 0xC5 JUMP JUMPDEST PUSH1 0x0 PUSH1 0x2 PUSH1 0x0 MSTORE DUP5 DUP5 PUSH1 0x0 KECCAK256 SWAP3 DUP4 ADD SWAP3 ADD JUMPDEST DUP3 DUP2 LT PUSH2 0x11A JUMPI POP POP PUSH2 0xB6 JUMP JUMPDEST DUP2 DUP2 SSTORE PUSH1 0x1 ADD PUSH2 0x10C JUMP JUMPDEST PUSH4 0x4E487B71 PUSH1 0xE0 SHL PUSH1 0x0 MSTORE PUSH1 0x41 PUSH1 0x4 MSTORE PUSH1 0x24 PUSH1 0x0 REVERT JUMPDEST DUP2 MLOAD SWAP4 SWAP5 POP SWAP2 SWAP3 SWAP1 SWAP2 SWAP1 PUSH1 0x1 PUSH1 0x1 PUSH1 0xA0 SHL SUB DUP2 AND DUP2 SUB PUSH2 0x165 JUMPI DUP2 MSTORE DUP6 SWAP4 SWAP3 SWAP2 DUP5 ADD SWAP1 DUP5 ADD PUSH2 0x82 JUMP JUMPDEST PUSH1 0x0 DUP1 REVERT JUMPDEST PUSH1 0x40 MLOAD SWAP2 SWAP1 PUSH1 0x1F ADD PUSH1 0x1F NOT AND DUP3 ADD PUSH1 0x1 PUSH1 0x1 PUSH1 0x40 SHL SUB DUP2 GT DUP4 DUP3 LT OR PUSH2 0x125 JUMPI PUSH1 0x40 MSTORE JUMP INVALID PUSH1 0x80 PUSH1 0x40 DUP2 DUP2 MSTORE PUSH1 0x4 DUP1 CALLDATASIZE LT ISZERO PUSH2 0x15 JUMPI PUSH1 0x0 DUP1 REVERT JUMPDEST PUSH1 0x0 SWAP3 DUP4 CALLDATALOAD PUSH1 0xE0 SHR SWAP1 DUP2 PUSH4 0x25E7C27 EQ PUSH2 0x79E JUMPI POP DUP1 PUSH4 0x242232D1 EQ PUSH2 0x6C4 JUMPI DUP1 PUSH4 0x2E7700F0 EQ PUSH2 0x6A5 JUMPI DUP1 PUSH4 0x9ACE38C2 EQ PUSH2 0x548 JUMPI DUP1 PUSH4 0xAB2850DA EQ PUSH2 0x4FF JUMPI DUP1 PUSH4 0xC6427474 EQ PUSH2 0x278 JUMPI DUP1 PUSH4 0xDC8452CD EQ PUSH2 0x255 JUMPI PUSH4 0xEE22610B EQ PUSH2 0x7B JUMPI PUSH1 0x0 DUP1 REVERT JUMPDEST PUSH1 0x20 DUP1 PUSH1 0x3 NOT CALLDATASIZE ADD SLT PUSH2 0x251 JUMPI DUP2 CALLDATALOAD SWAP3 PUSH2 0x94 DUP5 PUSH2 0x7F7 JUMP JUMPDEST POP DUP4 DUP2 ADD SLOAD PUSH1 0x3 SLOAD GT PUSH2 0x218 JUMPI PUSH1 0x3 DUP2 ADD SWAP1 DUP2 SLOAD SWAP2 PUSH1 0xFF DUP4 AND PUSH2 0x1E2 JUMPI SWAP1 DUP8 SWAP2 PUSH1 0x1 SWAP1 PUSH1 0x1 PUSH1 0xFF NOT DUP1 SWAP7 AND OR SWAP1 SSTORE PUSH1 0x1 DUP1 PUSH1 0xA0 SHL SUB DUP3 SLOAD AND SWAP2 PUSH1 0x2 PUSH1 0x1 DUP3 ADD SLOAD SWAP2 ADD SWAP5 DUP7 MLOAD SWAP3 DUP6 SWAP7 DUP1 SLOAD PUSH2 0xE7 DUP2 PUSH2 0x848 JUMP JUMPDEST SWAP4 PUSH1 0x1 DUP3 AND SWAP2 DUP3 ISZERO PUSH2 0x1CC JUMPI POP POP PUSH1 0x1 EQ PUSH2 0x195 JUMPI JUMPDEST POP POP POP DUP2 DUP5 SWAP6 SUB SWAP3 GAS CALL RETURNDATASIZE ISZERO PUSH2 0x190 JUMPI RETURNDATASIZE PUSH2 0x117 DUP2 PUSH2 0x8BA JUMP JUMPDEST SWAP1 PUSH2 0x124 DUP5 MLOAD SWAP3 DUP4 PUSH2 0x882 JUMP JUMPDEST DUP2 MSTORE DUP7 DUP5 RETURNDATASIZE SWAP3 ADD RETURNDATACOPY JUMPDEST ISZERO PUSH2 0x15C JUMPI POP POP POP PUSH32 0x15ED165A284872EA7017F03DF402A0CADFBFAB588320FFAF83F160C2F82781C7 DUP3 DUP1 LOG2 DUP1 RETURN JUMPDEST MLOAD PUSH3 0x461BCD PUSH1 0xE5 SHL DUP2 MSTORE SWAP2 DUP3 ADD MSTORE PUSH1 0x10 PUSH1 0x24 DUP3 ADD MSTORE PUSH16 0x115E1958DD5D1A5BDB8819985A5B1959 PUSH1 0x82 SHL PUSH1 0x44 DUP3 ADD MSTORE PUSH1 0x64 SWAP2 POP REVERT JUMPDEST PUSH2 0x12D JUMP JUMPDEST DUP7 MSTORE DUP9 DUP7 KECCAK256 SWAP7 POP DUP6 SWAP1 JUMPDEST DUP10 DUP4 DUP4 LT PUSH2 0x1B6 JUMPI POP POP POP DUP3 ADD SWAP5 POP DUP2 DUP5 CODESIZE PUSH2 0xFD JUMP JUMPDEST DUP9 SLOAD DUP4 DUP8 ADD MSTORE SWAP8 DUP2 ADD SWAP8 DUP14 SWAP8 POP SWAP1 SWAP2 ADD SWAP1 PUSH2 0x19F JUMP JUMPDEST AND DUP7 MSTORE POP POP POP DUP1 ISZERO ISZERO MUL DUP3 ADD SWAP5 POP DUP2 DUP5 CODESIZE PUSH2 0xFD JUMP JUMPDEST DUP4 MLOAD PUSH3 0x461BCD PUSH1 0xE5 SHL DUP2 MSTORE DUP1 DUP8 ADD DUP7 SWAP1 MSTORE PUSH1 0x10 PUSH1 0x24 DUP3 ADD MSTORE PUSH16 0x105B1C9958591E48195E1958DD5D1959 PUSH1 0x82 SHL PUSH1 0x44 DUP3 ADD MSTORE PUSH1 0x64 SWAP1 REVERT JUMPDEST POP MLOAD PUSH3 0x461BCD PUSH1 0xE5 SHL DUP2 MSTORE SWAP2 DUP3 ADD MSTORE PUSH1 0x14 PUSH1 0x24 DUP3 ADD MSTORE PUSH20 0x4E6F7420656E6F75676820617070726F76616C73 PUSH1 0x60 SHL PUSH1 0x44 DUP3 ADD MSTORE PUSH1 0x64 SWAP2 POP REVERT JUMPDEST DUP4 DUP1 REVERT JUMPDEST POP POP CALLVALUE PUSH2 0x274 JUMPI DUP2 PUSH1 0x3 NOT CALLDATASIZE ADD SLT PUSH2 0x274 JUMPI PUSH1 0x20 SWAP1 PUSH1 0x3 SLOAD SWAP1 MLOAD SWAP1 DUP2 MSTORE RETURN JUMPDEST POP DUP1 REVERT JUMPDEST POP CALLVALUE PUSH2 0x4F3 JUMPI PUSH1 0x60 CALLDATASIZE PUSH1 0x3 NOT ADD SLT PUSH2 0x4F3 JUMPI DUP1 CALLDATALOAD PUSH1 0x1 PUSH1 0x1 PUSH1 0xA0 SHL SUB DUP2 DUP2 AND SWAP3 SWAP2 DUP4 SWAP1 SUB PUSH2 0x4FB JUMPI PUSH1 0x24 SWAP4 PUSH1 0x44 CALLDATALOAD PUSH8 0xFFFFFFFFFFFFFFFF DUP1 DUP3 GT PUSH2 0x4F7 JUMPI CALLDATASIZE PUSH1 0x23 DUP4 ADD SLT ISZERO PUSH2 0x4F7 JUMPI DUP2 DUP6 ADD CALLDATALOAD SWAP1 DUP9 PUSH2 0x2D0 DUP4 PUSH2 0x8BA JUMP JUMPDEST SWAP4 PUSH2 0x2DD DUP7 MLOAD SWAP6 DUP7 PUSH2 0x882 JUMP JUMPDEST DUP4 DUP6 MSTORE PUSH1 0x20 SWAP4 CALLDATASIZE DUP12 DUP3 DUP5 ADD ADD GT PUSH2 0x4F3 JUMPI DUP1 DUP12 DUP7 SWAP4 ADD DUP4 DUP9 ADD CALLDATACOPY DUP6 ADD ADD MSTORE PUSH1 0x1 SWAP2 DUP3 SLOAD SWAP9 DUP6 MLOAD SWAP9 PUSH1 0xA0 DUP11 ADD DUP11 DUP2 LT DUP6 DUP3 GT OR PUSH2 0x4E1 JUMPI DUP8 MSTORE DUP10 MSTORE DUP2 DUP10 ADD SWAP6 DUP2 CALLDATALOAD DUP8 MSTORE DUP10 ADD SWAP5 DUP6 MSTORE PUSH1 0x60 DUP10 ADD SWAP6 DUP12 DUP8 MSTORE PUSH1 0x80 DUP11 ADD SWAP8 DUP13 DUP10 MSTORE PUSH9 0x10000000000000000 DUP13 LT ISZERO PUSH2 0x4E1 JUMPI DUP6 DUP13 ADD DUP7 SSTORE PUSH2 0x353 DUP13 PUSH2 0x7F7 JUMP JUMPDEST SWAP12 SWAP1 SWAP12 PUSH2 0x4D0 JUMPI MLOAD AND PUSH12 0xFFFFFFFFFFFFFFFFFFFFFFFF PUSH1 0xA0 SHL DUP12 SLOAD AND OR DUP11 SSTORE MLOAD DUP5 DUP11 ADD SSTORE PUSH1 0x2 DUP10 ADD SWAP5 MLOAD SWAP1 DUP2 MLOAD SWAP4 DUP5 GT PUSH2 0x4BF JUMPI POP PUSH2 0x392 DUP6 SLOAD PUSH2 0x848 JUMP JUMPDEST PUSH1 0x1F DUP2 GT PUSH2 0x479 JUMPI JUMPDEST POP DUP2 PUSH1 0x1F DUP5 GT PUSH1 0x1 EQ PUSH2 0x414 JUMPI POP SWAP3 DUP3 SWAP4 SWAP2 DUP4 SWAP3 DUP13 SWAP5 PUSH2 0x409 JUMPI JUMPDEST POP POP SHL SWAP2 PUSH1 0x0 NOT SWAP1 PUSH1 0x3 SHL SHR NOT AND OR SWAP1 SSTORE JUMPDEST PUSH1 0x3 DUP5 ADD SWAP1 MLOAD ISZERO ISZERO PUSH1 0xFF DUP1 NOT DUP4 SLOAD AND SWAP2 AND OR SWAP1 SSTORE MLOAD SWAP2 ADD SSTORE CALLER SWAP1 PUSH32 0x49DAC62158BF9AE2B4399A70C655777CC0924F8708068EEA723A1B4AF2F07F1B DUP4 DUP1 LOG3 DUP1 RETURN JUMPDEST ADD MLOAD SWAP3 POP CODESIZE DUP1 PUSH2 0x3B6 JUMP JUMPDEST DUP6 DUP13 MSTORE DUP1 DUP13 KECCAK256 SWAP3 SWAP2 SWAP1 DUP5 SWAP1 PUSH1 0x1F NOT DUP3 AND SWAP1 DUP15 SWAP1 JUMPDEST DUP9 DUP4 DUP4 LT PUSH2 0x45F JUMPI POP POP POP LT PUSH2 0x446 JUMPI JUMPDEST POP POP POP DUP2 SHL ADD SWAP1 SSTORE PUSH2 0x3C8 JUMP JUMPDEST ADD MLOAD PUSH1 0x0 NOT PUSH1 0xF8 DUP5 PUSH1 0x3 SHL AND SHR NOT AND SWAP1 SSTORE CODESIZE DUP1 DUP1 PUSH2 0x439 JUMP JUMPDEST DUP6 DUP8 ADD MLOAD DUP9 SSTORE SWAP1 SWAP7 ADD SWAP6 SWAP5 DUP6 ADD SWAP5 DUP8 SWAP4 POP SWAP1 DUP2 ADD SWAP1 PUSH2 0x428 JUMP JUMPDEST DUP6 DUP13 MSTORE DUP3 DUP13 KECCAK256 PUSH1 0x1F DUP6 ADD PUSH1 0x5 SHR DUP2 ADD SWAP2 DUP5 DUP7 LT PUSH2 0x4B5 JUMPI JUMPDEST PUSH1 0x1F ADD PUSH1 0x5 SHR ADD SWAP1 DUP6 SWAP1 JUMPDEST DUP3 DUP2 LT PUSH2 0x4AA JUMPI POP POP PUSH2 0x39B JUMP JUMPDEST DUP14 DUP2 SSTORE ADD DUP6 SWAP1 PUSH2 0x49C JUMP JUMPDEST SWAP1 SWAP2 POP DUP2 SWAP1 PUSH2 0x491 JUMP JUMPDEST PUSH4 0x4E487B71 PUSH1 0xE0 SHL DUP13 MSTORE PUSH1 0x41 DUP10 MSTORE DUP12 REVERT JUMPDEST PUSH4 0x4E487B71 PUSH1 0xE0 SHL DUP15 MSTORE DUP14 DUP12 MSTORE DUP4 DUP15 REVERT JUMPDEST PUSH4 0x4E487B71 PUSH1 0xE0 SHL DUP14 MSTORE PUSH1 0x41 DUP11 MSTORE DUP3 DUP14 REVERT JUMPDEST DUP3 DUP1 REVERT JUMPDEST DUP8 DUP1 REVERT JUMPDEST DUP5 DUP1 REVERT JUMPDEST POP CALLVALUE PUSH2 0x4F3 JUMPI DUP2 PUSH1 0x3 NOT CALLDATASIZE ADD SLT PUSH2 0x4F3 JUMPI PUSH1 0x24 CALLDATALOAD PUSH1 0x1 PUSH1 0x1 PUSH1 0xA0 SHL SUB DUP2 AND SWAP2 SWAP1 DUP3 SWAP1 SUB PUSH2 0x251 JUMPI PUSH1 0x20 SWAP4 PUSH1 0xFF SWAP3 DUP5 SWAP3 CALLDATALOAD DUP3 MSTORE DUP2 DUP7 MSTORE DUP3 DUP3 KECCAK256 SWAP1 DUP3 MSTORE DUP6 MSTORE KECCAK256 SLOAD AND SWAP1 MLOAD SWAP1 ISZERO ISZERO DUP2 MSTORE RETURN JUMPDEST POP DUP3 SWAP1 CALLVALUE PUSH2 0x274 JUMPI PUSH1 0x20 DUP1 PUSH1 0x3 NOT CALLDATASIZE ADD SLT PUSH2 0x4F3 JUMPI DUP2 CALLDATALOAD SWAP3 PUSH1 0x1 SWAP4 PUSH1 0x1 SLOAD DUP2 LT ISZERO PUSH2 0x274 JUMPI PUSH2 0x576 SWAP1 PUSH2 0x7F7 JUMP JUMPDEST POP SWAP2 PUSH1 0x1 DUP1 PUSH1 0xA0 SHL SUB DUP4 SLOAD AND SWAP6 PUSH1 0x1 DUP5 ADD SLOAD SWAP5 PUSH1 0x2 DUP6 ADD DUP3 MLOAD SWAP8 DUP9 SWAP2 DUP7 SWAP2 DUP2 SLOAD SWAP2 PUSH2 0x5A0 DUP4 PUSH2 0x848 JUMP JUMPDEST SWAP3 DUP4 DUP7 MSTORE DUP9 PUSH1 0x1 DUP3 AND SWAP2 DUP3 PUSH1 0x0 EQ PUSH2 0x67F JUMPI POP POP PUSH1 0x1 EQ PUSH2 0x640 JUMPI JUMPDEST POP POP POP PUSH1 0xA0 SWAP3 SWAP2 PUSH2 0x5D7 SWAP2 SWAP11 SWAP9 SWAP11 SWAP8 SWAP6 SWAP8 SWAP7 SWAP5 SWAP7 SUB DUP10 PUSH2 0x882 JUMP JUMPDEST PUSH1 0xFF PUSH1 0x3 DUP6 ADD SLOAD AND SWAP4 ADD SLOAD SWAP4 DUP1 MLOAD SWAP9 DUP10 SWAP8 DUP9 MSTORE DUP7 DUP9 ADD MSTORE DUP7 ADD MSTORE DUP6 MLOAD SWAP4 DUP5 PUSH1 0xA0 DUP8 ADD MSTORE DUP2 JUMPDEST DUP6 DUP2 LT PUSH2 0x629 JUMPI POP POP PUSH1 0xC0 DUP1 SWAP7 POP DUP5 DUP7 ADD ADD MSTORE ISZERO ISZERO PUSH1 0x60 DUP5 ADD MSTORE PUSH1 0x80 DUP4 ADD MSTORE PUSH1 0x1F DUP1 NOT SWAP2 ADD AND DUP2 ADD SUB ADD SWAP1 RETURN JUMPDEST DUP1 DUP9 ADD DUP3 ADD MLOAD DUP10 DUP3 ADD PUSH1 0xC0 ADD MSTORE DUP9 SWAP7 POP DUP2 ADD PUSH2 0x5FC JUMP JUMPDEST DUP9 MSTORE DUP7 DUP9 KECCAK256 DUP8 SWAP4 POP DUP9 SWAP3 SWAP2 SWAP1 JUMPDEST DUP3 DUP5 LT PUSH2 0x665 JUMPI POP POP POP DUP3 ADD ADD DUP2 PUSH2 0x5D7 PUSH1 0xA0 PUSH2 0x5BC JUMP JUMPDEST DUP5 SWAP3 SWAP6 DUP3 SWAP6 DUP6 DUP4 SLOAD SWAP3 ADD ADD MSTORE ADD SWAP2 ADD SWAP1 SWAP3 DUP7 SWAP3 DUP12 SWAP5 PUSH2 0x64D JUMP JUMPDEST PUSH1 0xFF NOT AND DUP8 DUP3 ADD MSTORE SWAP4 ISZERO ISZERO PUSH1 0x5 SHL DUP7 ADD SWAP1 SWAP4 ADD SWAP4 POP DUP5 SWAP3 POP PUSH2 0x5D7 SWAP2 POP PUSH1 0xA0 SWAP1 POP PUSH2 0x5BC JUMP JUMPDEST POP POP CALLVALUE PUSH2 0x274 JUMPI DUP2 PUSH1 0x3 NOT CALLDATASIZE ADD SLT PUSH2 0x274 JUMPI PUSH1 0x20 SWAP1 PUSH1 0x1 SLOAD SWAP1 MLOAD SWAP1 DUP2 MSTORE RETURN JUMPDEST POP CALLVALUE PUSH2 0x4F3 JUMPI PUSH1 0x20 SWAP2 DUP3 PUSH1 0x3 NOT CALLDATASIZE ADD SLT PUSH2 0x251 JUMPI DUP2 CALLDATALOAD SWAP3 DUP4 DUP6 MSTORE DUP5 DUP2 MSTORE DUP2 DUP6 KECCAK256 CALLER DUP7 MSTORE DUP2 MSTORE PUSH1 0xFF DUP3 DUP7 KECCAK256 SLOAD AND PUSH2 0x76A JUMPI DUP4 DUP6 MSTORE DUP5 DUP2 MSTORE DUP2 DUP6 KECCAK256 CALLER DUP7 MSTORE SWAP1 MSTORE DUP4 KECCAK256 DUP1 SLOAD PUSH1 0xFF NOT AND PUSH1 0x1 OR SWAP1 SSTORE DUP1 PUSH2 0x719 DUP4 PUSH2 0x7F7 JUMP JUMPDEST POP ADD DUP1 SLOAD SWAP1 SWAP2 PUSH1 0x0 NOT DUP3 EQ PUSH2 0x757 JUMPI POP PUSH1 0x1 ADD SWAP1 SSTORE CALLER SWAP1 PUSH32 0x924813D717E221B5F46DCD8A56DA1679E4612584AB3237D55E5FAABF6F6A3079 DUP4 DUP1 LOG3 DUP1 RETURN JUMPDEST PUSH4 0x4E487B71 PUSH1 0xE0 SHL DUP6 MSTORE PUSH1 0x11 SWAP1 MSTORE PUSH1 0x24 DUP5 REVERT JUMPDEST SWAP1 MLOAD PUSH3 0x461BCD PUSH1 0xE5 SHL DUP2 MSTORE SWAP2 DUP3 ADD MSTORE PUSH1 0x10 PUSH1 0x24 DUP3 ADD MSTORE PUSH16 0x105B1C9958591E48185C1C1C9BDD9959 PUSH1 0x82 SHL PUSH1 0x44 DUP3 ADD MSTORE PUSH1 0x64 SWAP1 REVERT JUMPDEST SWAP3 POP POP CALLVALUE PUSH2 0x4F3 JUMPI PUSH1 0x20 CALLDATASIZE PUSH1 0x3 NOT ADD SLT PUSH2 0x4F3 JUMPI CALLDATALOAD PUSH1 0x2 SLOAD DUP2 LT ISZERO PUSH2 0x4F3 JUMPI PUSH1 0x2 SWAP1 SWAP3 MSTORE PUSH32 0x405787FA12A823E0F2B7631CC41B3BA8828B3321CA811111FA75CD3AA3BB5ACE SWAP1 SWAP2 ADD SLOAD PUSH1 0x1 PUSH1 0x1 PUSH1 0xA0 SHL SUB AND DUP2 MSTORE PUSH1 0x20 SWAP1 RETURN JUMPDEST PUSH1 0x1 SLOAD DUP2 LT ISZERO PUSH2 0x832 JUMPI PUSH1 0x5 SWAP1 PUSH1 0x1 PUSH1 0x0 MSTORE MUL PUSH32 0xB10E2D527612073B26EECDFD717E6A320CF44B4AFAC2B0732D9FCBE2B7FA0CF6 ADD SWAP1 PUSH1 0x0 SWAP1 JUMP JUMPDEST PUSH4 0x4E487B71 PUSH1 0xE0 SHL PUSH1 0x0 MSTORE PUSH1 0x32 PUSH1 0x4 MSTORE PUSH1 0x24 PUSH1 0x0 REVERT JUMPDEST SWAP1 PUSH1 0x1 DUP3 DUP2 SHR SWAP3 AND DUP1 ISZERO PUSH2 0x878 JUMPI JUMPDEST PUSH1 0x20 DUP4 LT EQ PUSH2 0x862 JUMPI JUMP JUMPDEST PUSH4 0x4E487B71 PUSH1 0xE0 SHL PUSH1 0x0 MSTORE PUSH1 0x22 PUSH1 0x4 MSTORE PUSH1 0x24 PUSH1 0x0 REVERT JUMPDEST SWAP2 PUSH1 0x7F AND SWAP2 PUSH2 0x857 JUMP JUMPDEST SWAP1 PUSH1 0x1F DUP1 NOT SWAP2 ADD AND DUP2 ADD SWAP1 DUP2 LT PUSH8 0xFFFFFFFFFFFFFFFF DUP3 GT OR PUSH2 0x8A4 JUMPI PUSH1 0x40 MSTORE JUMP JUMPDEST PUSH4 0x4E487B71 PUSH1 0xE0 SHL PUSH1 0x0 MSTORE PUSH1 0x41 PUSH1 0x4 MSTORE PUSH1 0x24 PUSH1 0x0 REVERT JUMPDEST PUSH8 0xFFFFFFFFFFFFFFFF DUP2 GT PUSH2 0x8A4 JUMPI PUSH1 0x1F ADD PUSH1 0x1F NOT AND PUSH1 0x20 ADD SWAP1 JUMP INVALID LOG2 PUSH5 0x6970667358 0x22 SLT KECCAK256 SAR 0x2A SLOAD OR CALLDATASIZE DUP4 PUSH22 0x8A3DEF9FB76F1545D568AAB6E2119F5F8C3CA035629 DUP11 0xAA 0xE PUSH5 0x736F6C6343 STOP ADDMOD XOR STOP CALLER "},"methodIdentifiers":{"approvals(uint256,address)":"ab2850da","approveTransaction(uint256)":"242232d1","executeTransaction(uint256)":"ee22610b","getTransactionCount()":"2e7700f0","owners(uint256)":"025e7c27","required()":"dc8452cd","submitTransaction(address,uint256,bytes)":"c6427474","transactions(uint256)":"9ace38c2"}}}}}