{"contracts/KYCContract.sol":{"KYCContract":{"abi":[{"anonymous":false,"inputs":[{"indexed":true,"internalType":"address","name":"user","type":"address"}],"name":"KYCApproved","type":"event"},{"anonymous":false,"inputs":[{"indexed":true,"internalType":"address","name":"user","type":"address"}],"name":"KYCRejected","type":"event"},{"anonymous":false,"inputs":[{"indexed":true,"internalType":"address","name":"user","type":"address"}],"name":"KYCSubmitted","type":"event"},{"inputs":[{"internalType":"address","name":"_user","type":"address"}],"name":"approveKYC","outputs":[],"stateMutability":"nonpayable","type":"function"},{"inputs":[{"internalType":"address","name":"_user","type":"address"}],"name":"isApproved","outputs":[{"internalType":"bool","name":"","type":"bool"}],"stateMutability":"view","type":"function"},{"inputs":[{"internalType":"address","name":"","type":"address"}],"name":"kycData","outputs":[{"internalType":"address","name":"user","type":"address"},{"internalType":"string","name":"fullName","type":"string"},{"internalType":"string","name":"country","type":"string"},{"internalType":"uint256","name":"verifiedAt","type":"uint256"},{"internalType":"bool","name":"approved","type":"bool"}],"stateMutability":"view","type":"function"},{"inputs":[{"internalType":"string","name":"_name","type":"string"},{"internalType":"string","name":"_country","type":"string"}],"name":"submitKYC","outputs":[],"stateMutability":"nonpayable","type":"function"}],"evm":{"bytecode":{"linkReferences":{},"object":"60808060405234610016576106c4908161001c8239f35b600080fdfe604060808152600436101561001357600080fd5b60003560e01c8063076f3565146104595780630c670595146101035780630e27324d146100935763673448dd1461004957600080fd5b3461008e57602036600319011261008e576004356001600160a01b038116919082900361008e576020916000526000825260ff60048260002001541690519015158152f35b600080fd5b503461008e57602036600319011261008e576004356001600160a01b038116919082900361008e5781600052600060205260002060048101600160ff198254161790556003429101557f333bb19eeef0621b32888db778cc7a481a89fc1d59adb2cecb59b40ef048941e600080a2005b503461008e578060031936011261008e5760043567ffffffffffffffff811161008e57610134903690600401610637565b60243567ffffffffffffffff811161008e57610154903690600401610637565b9180519260a0840184811067ffffffffffffffff82111761037757825233845260208401928352818401908152606084019160008352600060808601523360005260006020526000209260018060a01b038551166bffffffffffffffffffffffff60a01b85541617845551805167ffffffffffffffff811161037757806101de60018701546104f6565b92601f93848111610405575b506020908483116001146103985760009261038d575b50508160011b916000199060031b1c19161760018501555b6002840191519081519167ffffffffffffffff83116103775761023b84546104f6565b828111610332575b5060209183116001146102c35791806080969492600496946000926102b8575b50508160011b916000199060031b1c19161790555b51600382015501910151151560ff80198354169116179055337f50254a0dab3f208f414bf247012e8d8c90928d1a1b1699b1b62df2326bfb09ab600080a2005b015190503880610263565b90601f198316918460005260206000209260005b81811061031a57509260019285926004989660809a989610610301575b505050811b019055610278565b015160001960f88460031b161c191690553880806102f4565b929360206001819287860151815501950193016102d7565b8460005260206000208380860160051c8201926020871061036e575b0160051c01905b8181106103625750610243565b60008155600101610355565b9250819261034e565b634e487b7160e01b600052604160045260246000fd5b015190503880610200565b600188016000908152602081209350601f198516905b8181106103ed57509084600195949392106103d4575b505050811b016001850155610218565b015160001960f88460031b161c191690553880806103c4565b929360206001819287860151815501950193016103ae565b9091506001870160005260206000208480850160051c82019260208610610450575b9085949392910160051c01905b81811061044157506101ea565b60008155849350600101610434565b92508192610427565b503461008e57602036600319011261008e576001600160a01b036004358181169081900361008e57600052600060205281600020908154169061049e60018201610552565b926104e56104ae60028401610552565b9160ff6004600386015495015416926104d88251978897885260a0602089015260a08801906105f7565b91868303908701526105f7565b916060840152151560808301520390f35b90600182811c92168015610526575b602083101461051057565b634e487b7160e01b600052602260045260246000fd5b91607f1691610505565b90601f8019910116810190811067ffffffffffffffff82111761037757604052565b90604051918260008254610565816104f6565b908184526020946001916001811690816000146105d55750600114610596575b50505061059492500383610530565b565b600090815285812095935091905b8183106105bd5750506105949350820101388080610585565b855488840185015294850194879450918301916105a4565b9250505061059494925060ff191682840152151560051b820101388080610585565b919082519283825260005b848110610623575050826000602080949584010152601f8019910116010190565b602081830181015184830182015201610602565b81601f8201121561008e5780359067ffffffffffffffff8211610377576040519261066c601f8401601f191660200185610530565b8284526020838301011161008e5781600092602080930183860137830101529056fea2646970667358221220614c9fb4919143f44083fb0d93ccb42faa7af0647e135fd4fd6a2c9d218e117864736f6c63430008180033","opcodes":"PUSH1 0x80 DUP1 PUSH1 0x40 MSTORE CALLVALUE PUSH2 0x16 JUMPI PUSH2 0x6C4 SWAP1 DUP2 PUSH2 0x1C DUP3 CODECOPY RETURN JUMPDEST PUSH1 0x0 DUP1 REVERT INVALID PUSH1 0x40 PUSH1 0x80 DUP2 MSTORE PUSH1 0x4 CALLDATASIZE LT ISZERO PUSH2 0x13 JUMPI PUSH1 0x0 DUP1 REVERT JUMPDEST PUSH1 0x0 CALLDATALOAD PUSH1 0xE0 SHR DUP1 PUSH4 0x76F3565 EQ PUSH2 0x459 JUMPI DUP1 PUSH4 0xC670595 EQ PUSH2 0x103 JUMPI DUP1 PUSH4 0xE27324D EQ PUSH2 0x93 JUMPI PUSH4 0x673448DD EQ PUSH2 0x49 JUMPI PUSH1 0x0 DUP1 REVERT JUMPDEST CALLVALUE PUSH2 0x8E JUMPI PUSH1 0x20 CALLDATASIZE PUSH1 0x3 NOT ADD SLT PUSH2 0x8E JUMPI PUSH1 0x4 CALLDATALOAD PUSH1 0x1 PUSH1 0x1 PUSH1 0xA0 SHL SUB DUP2 AND SWAP2 SWAP1 DUP3 SWAP1 SUB PUSH2 0x8E JUMPI PUSH1 0x20 SWAP2 PUSH1 0x0 MSTORE PUSH1 0x0 DUP3 MSTORE PUSH1 0xFF PUSH1 0x4 DUP3 PUSH1 0x0 KECCAK256 ADD SLOAD AND SWAP1 MLOAD SWAP1 ISZERO ISZERO DUP2 MSTORE RETURN JUMPDEST PUSH1 0x0 DUP1 REVERT JUMPDEST POP CALLVALUE PUSH2 0x8E JUMPI PUSH1 0x20 CALLDATASIZE PUSH1 0x3 NOT ADD SLT PUSH2 0x8E JUMPI PUSH1 0x4 CALLDATALOAD PUSH1 0x1 PUSH1 0x1 PUSH1 0xA0 SHL SUB DUP2 AND SWAP2 SWAP1 DUP3 SWAP1 SUB PUSH2 0x8E JUMPI DUP2 PUSH1 0x0 MSTORE PUSH1 0x0 PUSH1 0x20 MSTORE PUSH1 0x0 KECCAK256 PUSH1 0x4 DUP2 ADD PUSH1 0x1 PUSH1 0xFF NOT DUP3 SLOAD AND OR SWAP1 SSTORE PUSH1 0x3 TIMESTAMP SWAP2 ADD SSTORE PUSH32 0x333BB19EEEF0621B32888DB778CC7A481A89FC1D59ADB2CECB59B40EF048941E PUSH1 0x0 DUP1 LOG2 STOP JUMPDEST POP CALLVALUE PUSH2 0x8E JUMPI DUP1 PUSH1 0x3 NOT CALLDATASIZE ADD SLT PUSH2 0x8E JUMPI PUSH1 0x4 CALLDATALOAD PUSH8 0xFFFFFFFFFFFFFFFF DUP2 GT PUSH2 0x8E JUMPI PUSH2 0x134 SWAP1 CALLDATASIZE SWAP1 PUSH1 0x4 ADD PUSH2 0x637 JUMP JUMPDEST PUSH1 0x24 CALLDATALOAD PUSH8 0xFFFFFFFFFFFFFFFF DUP2 GT PUSH2 0x8E JUMPI PUSH2 0x154 SWAP1 CALLDATASIZE SWAP1 PUSH1 0x4 ADD PUSH2 0x637 JUMP JUMPDEST SWAP2 DUP1 MLOAD SWAP3 PUSH1 0xA0 DUP5 ADD DUP5 DUP2 LT PUSH8 0xFFFFFFFFFFFFFFFF DUP3 GT OR PUSH2 0x377 JUMPI DUP3 MSTORE CALLER DUP5 MSTORE PUSH1 0x20 DUP5 ADD SWAP3 DUP4 MSTORE DUP2 DUP5 ADD SWAP1 DUP2 MSTORE PUSH1 0x60 DUP5 ADD SWAP2 PUSH1 0x0 DUP4 MSTORE PUSH1 0x0 PUSH1 0x80 DUP7 ADD MSTORE CALLER PUSH1 0x0 MSTORE PUSH1 0x0 PUSH1 0x20 MSTORE PUSH1 0x0 KECCAK256 SWAP3 PUSH1 0x1 DUP1 PUSH1 0xA0 SHL SUB DUP6 MLOAD AND PUSH12 0xFFFFFFFFFFFFFFFFFFFFFFFF PUSH1 0xA0 SHL DUP6 SLOAD AND OR DUP5 SSTORE MLOAD DUP1 MLOAD PUSH8 0xFFFFFFFFFFFFFFFF DUP2 GT PUSH2 0x377 JUMPI DUP1 PUSH2 0x1DE PUSH1 0x1 DUP8 ADD SLOAD PUSH2 0x4F6 JUMP JUMPDEST SWAP3 PUSH1 0x1F SWAP4 DUP5 DUP2 GT PUSH2 0x405 JUMPI JUMPDEST POP PUSH1 0x20 SWAP1 DUP5 DUP4 GT PUSH1 0x1 EQ PUSH2 0x398 JUMPI PUSH1 0x0 SWAP3 PUSH2 0x38D JUMPI JUMPDEST POP POP DUP2 PUSH1 0x1 SHL SWAP2 PUSH1 0x0 NOT SWAP1 PUSH1 0x3 SHL SHR NOT AND OR PUSH1 0x1 DUP6 ADD SSTORE JUMPDEST PUSH1 0x2 DUP5 ADD SWAP2 MLOAD SWAP1 DUP2 MLOAD SWAP2 PUSH8 0xFFFFFFFFFFFFFFFF DUP4 GT PUSH2 0x377 JUMPI PUSH2 0x23B DUP5 SLOAD PUSH2 0x4F6 JUMP JUMPDEST DUP3 DUP2 GT PUSH2 0x332 JUMPI JUMPDEST POP PUSH1 0x20 SWAP2 DUP4 GT PUSH1 0x1 EQ PUSH2 0x2C3 JUMPI SWAP2 DUP1 PUSH1 0x80 SWAP7 SWAP5 SWAP3 PUSH1 0x4 SWAP7 SWAP5 PUSH1 0x0 SWAP3 PUSH2 0x2B8 JUMPI JUMPDEST POP POP DUP2 PUSH1 0x1 SHL SWAP2 PUSH1 0x0 NOT SWAP1 PUSH1 0x3 SHL SHR NOT AND OR SWAP1 SSTORE JUMPDEST MLOAD PUSH1 0x3 DUP3 ADD SSTORE ADD SWAP2 ADD MLOAD ISZERO ISZERO PUSH1 0xFF DUP1 NOT DUP4 SLOAD AND SWAP2 AND OR SWAP1 SSTORE CALLER PUSH32 0x50254A0DAB3F208F414BF247012E8D8C90928D1A1B1699B1B62DF2326BFB09AB PUSH1 0x0 DUP1 LOG2 STOP JUMPDEST ADD MLOAD SWAP1 POP CODESIZE DUP1 PUSH2 0x263 JUMP JUMPDEST SWAP1 PUSH1 0x1F NOT DUP4 AND SWAP2 DUP5 PUSH1 0x0 MSTORE PUSH1 0x20 PUSH1 0x0 KECCAK256 SWAP3 PUSH1 0x0 JUMPDEST DUP2 DUP2 LT PUSH2 0x31A JUMPI POP SWAP3 PUSH1 0x1 SWAP3 DUP6 SWAP3 PUSH1 0x4 SWAP9 SWAP7 PUSH1 0x80 SWAP11 SWAP9 SWAP7 LT PUSH2 0x301 JUMPI JUMPDEST POP POP POP DUP2 SHL ADD SWAP1 SSTORE PUSH2 0x278 JUMP JUMPDEST ADD MLOAD PUSH1 0x0 NOT PUSH1 0xF8 DUP5 PUSH1 0x3 SHL AND SHR NOT AND SWAP1 SSTORE CODESIZE DUP1 DUP1 PUSH2 0x2F4 JUMP JUMPDEST SWAP3 SWAP4 PUSH1 0x20 PUSH1 0x1 DUP2 SWAP3 DUP8 DUP7 ADD MLOAD DUP2 SSTORE ADD SWAP6 ADD SWAP4 ADD PUSH2 0x2D7 JUMP JUMPDEST DUP5 PUSH1 0x0 MSTORE PUSH1 0x20 PUSH1 0x0 KECCAK256 DUP4 DUP1 DUP7 ADD PUSH1 0x5 SHR DUP3 ADD SWAP3 PUSH1 0x20 DUP8 LT PUSH2 0x36E JUMPI JUMPDEST ADD PUSH1 0x5 SHR ADD SWAP1 JUMPDEST DUP2 DUP2 LT PUSH2 0x362 JUMPI POP PUSH2 0x243 JUMP JUMPDEST PUSH1 0x0 DUP2 SSTORE PUSH1 0x1 ADD PUSH2 0x355 JUMP JUMPDEST SWAP3 POP DUP2 SWAP3 PUSH2 0x34E JUMP JUMPDEST PUSH4 0x4E487B71 PUSH1 0xE0 SHL PUSH1 0x0 MSTORE PUSH1 0x41 PUSH1 0x4 MSTORE PUSH1 0x24 PUSH1 0x0 REVERT JUMPDEST ADD MLOAD SWAP1 POP CODESIZE DUP1 PUSH2 0x200 JUMP JUMPDEST PUSH1 0x1 DUP9 ADD PUSH1 0x0 SWAP1 DUP2 MSTORE PUSH1 0x20 DUP2 KECCAK256 SWAP4 POP PUSH1 0x1F NOT DUP6 AND SWAP1 JUMPDEST DUP2 DUP2 LT PUSH2 0x3ED JUMPI POP SWAP1 DUP5 PUSH1 0x1 SWAP6 SWAP5 SWAP4 SWAP3 LT PUSH2 0x3D4 JUMPI JUMPDEST POP POP POP DUP2 SHL ADD PUSH1 0x1 DUP6 ADD SSTORE PUSH2 0x218 JUMP JUMPDEST ADD MLOAD PUSH1 0x0 NOT PUSH1 0xF8 DUP5 PUSH1 0x3 SHL AND SHR NOT AND SWAP1 SSTORE CODESIZE DUP1 DUP1 PUSH2 0x3C4 JUMP JUMPDEST SWAP3 SWAP4 PUSH1 0x20 PUSH1 0x1 DUP2 SWAP3 DUP8 DUP7 ADD MLOAD DUP2 SSTORE ADD SWAP6 ADD SWAP4 ADD PUSH2 0x3AE JUMP JUMPDEST SWAP1 SWAP2 POP PUSH1 0x1 DUP8 ADD PUSH1 0x0 MSTORE PUSH1 0x20 PUSH1 0x0 KECCAK256 DUP5 DUP1 DUP6 ADD PUSH1 0x5 SHR DUP3 ADD SWAP3 PUSH1 0x20 DUP7 LT PUSH2 0x450 JUMPI JUMPDEST SWAP1 DUP6 SWAP5 SWAP4 SWAP3 SWAP2 ADD PUSH1 0x5 SHR ADD SWAP1 JUMPDEST DUP2 DUP2 LT PUSH2 0x441 JUMPI POP PUSH2 0x1EA JUMP JUMPDEST PUSH1 0x0 DUP2 SSTORE DUP5 SWAP4 POP PUSH1 0x1 ADD PUSH2 0x434 JUMP JUMPDEST SWAP3 POP DUP2 SWAP3 PUSH2 0x427 JUMP JUMPDEST POP CALLVALUE PUSH2 0x8E JUMPI PUSH1 0x20 CALLDATASIZE PUSH1 0x3 NOT ADD SLT PUSH2 0x8E JUMPI PUSH1 0x1 PUSH1 0x1 PUSH1 0xA0 SHL SUB PUSH1 0x4 CALLDATALOAD DUP2 DUP2 AND SWAP1 DUP2 SWAP1 SUB PUSH2 0x8E JUMPI PUSH1 0x0 MSTORE PUSH1 0x0 PUSH1 0x20 MSTORE DUP2 PUSH1 0x0 KECCAK256 SWAP1 DUP2 SLOAD AND SWAP1 PUSH2 0x49E PUSH1 0x1 DUP3 ADD PUSH2 0x552 JUMP JUMPDEST SWAP3 PUSH2 0x4E5 PUSH2 0x4AE PUSH1 0x2 DUP5 ADD PUSH2 0x552 JUMP JUMPDEST SWAP2 PUSH1 0xFF PUSH1 0x4 PUSH1 0x3 DUP7 ADD SLOAD SWAP6 ADD SLOAD AND SWAP3 PUSH2 0x4D8 DUP3 MLOAD SWAP8 DUP9 SWAP8 DUP9 MSTORE PUSH1 0xA0 PUSH1 0x20 DUP10 ADD MSTORE PUSH1 0xA0 DUP9 ADD SWAP1 PUSH2 0x5F7 JUMP JUMPDEST SWAP2 DUP7 DUP4 SUB SWAP1 DUP8 ADD MSTORE PUSH2 0x5F7 JUMP JUMPDEST SWAP2 PUSH1 0x60 DUP5 ADD MSTORE ISZERO ISZERO PUSH1 0x80 DUP4 ADD MSTORE SUB SWAP1 RETURN JUMPDEST SWAP1 PUSH1 0x1 DUP3 DUP2 SHR SWAP3 AND DUP1 ISZERO PUSH2 0x526 JUMPI JUMPDEST PUSH1 0x20 DUP4 LT EQ PUSH2 0x510 JUMPI JUMP JUMPDEST PUSH4 0x4E487B71 PUSH1 0xE0 SHL PUSH1 0x0 MSTORE PUSH1 0x22 PUSH1 0x4 MSTORE PUSH1 0x24 PUSH1 0x0 REVERT JUMPDEST SWAP2 PUSH1 0x7F AND SWAP2 PUSH2 0x505 JUMP JUMPDEST SWAP1 PUSH1 0x1F DUP1 NOT SWAP2 ADD AND DUP2 ADD SWAP1 DUP2 LT PUSH8 0xFFFFFFFFFFFFFFFF DUP3 GT OR PUSH2 0x377 JUMPI PUSH1 0x40 MSTORE JUMP JUMPDEST SWAP1 PUSH1 0x40 MLOAD SWAP2 DUP3 PUSH1 0x0 DUP3 SLOAD PUSH2 0x565 DUP2 PUSH2 0x4F6 JUMP JUMPDEST SWAP1 DUP2 DUP5 MSTORE PUSH1 0x20 SWAP5 PUSH1 0x1 SWAP2 PUSH1 0x1 DUP2 AND SWAP1 DUP2 PUSH1 0x0 EQ PUSH2 0x5D5 JUMPI POP PUSH1 0x1 EQ PUSH2 0x596 JUMPI JUMPDEST POP POP POP PUSH2 0x594 SWAP3 POP SUB DUP4 PUSH2 0x530 JUMP JUMPDEST JUMP JUMPDEST PUSH1 0x0 SWAP1 DUP2 MSTORE DUP6 DUP2 KECCAK256 SWAP6 SWAP4 POP SWAP2 SWAP1 JUMPDEST DUP2 DUP4 LT PUSH2 0x5BD JUMPI POP POP PUSH2 0x594 SWAP4 POP DUP3 ADD ADD CODESIZE DUP1 DUP1 PUSH2 0x585 JUMP JUMPDEST DUP6 SLOAD DUP9 DUP5 ADD DUP6 ADD MSTORE SWAP5 DUP6 ADD SWAP5 DUP8 SWAP5 POP SWAP2 DUP4 ADD SWAP2 PUSH2 0x5A4 JUMP JUMPDEST SWAP3 POP POP POP PUSH2 0x594 SWAP5 SWAP3 POP PUSH1 0xFF NOT AND DUP3 DUP5 ADD MSTORE ISZERO ISZERO PUSH1 0x5 SHL DUP3 ADD ADD CODESIZE DUP1 DUP1 PUSH2 0x585 JUMP JUMPDEST SWAP2 SWAP1 DUP3 MLOAD SWAP3 DUP4 DUP3 MSTORE PUSH1 0x0 JUMPDEST DUP5 DUP2 LT PUSH2 0x623 JUMPI POP POP DUP3 PUSH1 0x0 PUSH1 0x20 DUP1 SWAP5 SWAP6 DUP5 ADD ADD MSTORE PUSH1 0x1F DUP1 NOT SWAP2 ADD AND ADD ADD SWAP1 JUMP JUMPDEST PUSH1 0x20 DUP2 DUP4 ADD DUP2 ADD MLOAD DUP5 DUP4 ADD DUP3 ADD MSTORE ADD PUSH2 0x602 JUMP JUMPDEST DUP2 PUSH1 0x1F DUP3 ADD SLT ISZERO PUSH2 0x8E JUMPI DUP1 CALLDATALOAD SWAP1 PUSH8 0xFFFFFFFFFFFFFFFF DUP3 GT PUSH2 0x377 JUMPI PUSH1 0x40 MLOAD SWAP3 PUSH2 0x66C PUSH1 0x1F DUP5 ADD PUSH1 0x1F NOT AND PUSH1 0x20 ADD DUP6 PUSH2 0x530 JUMP JUMPDEST DUP3 DUP5 MSTORE PUSH1 0x20 DUP4 DUP4 ADD ADD GT PUSH2 0x8E JUMPI DUP2 PUSH1 0x0 SWAP3 PUSH1 0x20 DUP1 SWAP4 ADD DUP4 DUP7 ADD CALLDATACOPY DUP4 ADD ADD MSTORE SWAP1 JUMP INVALID LOG2 PUSH5 0x6970667358 0x22 SLT KECCAK256 PUSH2 0x4C9F 0xB4 SWAP2 SWAP2 NUMBER DELEGATECALL BLOCKHASH DUP4 0xFB 0xD SWAP4 0xCC 0xB4 0x2F 0xAA PUSH27 0xF0647E135FD4FD6A2C9D218E117864736F6C634300081800330000 "},"methodIdentifiers":{"approveKYC(address)":"0e27324d","isApproved(address)":"673448dd","kycData(address)":"076f3565","submitKYC(string,string)":"0c670595"}}}}}