{"contracts/Logistics.sol":{"LogisticsContract":{"abi":[{"anonymous":false,"inputs":[{"indexed":true,"internalType":"bytes32","name":"id","type":"bytes32"},{"indexed":false,"internalType":"uint256","name":"batchId","type":"uint256"},{"indexed":false,"internalType":"address","name":"sender","type":"address"}],"name":"ShipmentCreated","type":"event"},{"anonymous":false,"inputs":[{"indexed":true,"internalType":"bytes32","name":"id","type":"bytes32"},{"indexed":false,"internalType":"enum LogisticsContract.ShippingStatus","name":"status","type":"uint8"}],"name":"ShipmentStatusChanged","type":"event"},{"inputs":[{"internalType":"uint256","name":"_batchId","type":"uint256"},{"internalType":"address","name":"_receiver","type":"address"},{"internalType":"string","name":"_carrier","type":"string"}],"name":"createShipment","outputs":[{"internalType":"bytes32","name":"","type":"bytes32"}],"stateMutability":"nonpayable","type":"function"},{"inputs":[{"internalType":"bytes32","name":"","type":"bytes32"}],"name":"shipments","outputs":[{"internalType":"uint256","name":"batchTokenId","type":"uint256"},{"internalType":"address","name":"sender","type":"address"},{"internalType":"address","name":"receiver","type":"address"},{"internalType":"string","name":"carrier","type":"string"},{"internalType":"string","name":"trackingNumber","type":"string"},{"internalType":"enum LogisticsContract.ShippingStatus","name":"status","type":"uint8"},{"internalType":"uint256","name":"estimatedDelivery","type":"uint256"},{"internalType":"uint256","name":"actualDelivery","type":"uint256"}],"stateMutability":"view","type":"function"},{"inputs":[{"internalType":"bytes32","name":"_id","type":"bytes32"},{"internalType":"enum LogisticsContract.ShippingStatus","name":"_status","type":"uint8"}],"name":"updateStatus","outputs":[],"stateMutability":"nonpayable","type":"function"}],"evm":{"bytecode":{"linkReferences":{},"object":"60808060405234610016576107c5908161001c8239f35b600080fdfe6080604052600436101561001257600080fd5b60003560e01c8063054372ed146105a5578063ce90ceff146101005763d87b40411461003d57600080fd5b346100fb5760203660031901126100fb5760043560009081526020819052604090208054600182015460028301546001600160a01b039081169391169161008660038301610685565b916100ed6100e261009960048401610685565b6100d460ff6005860154169660076006870154960154966040519a8b9a610100928c5260208c015260408b01528060608b015289019061072a565b90878203608089015261072a565b9360a086019061076a565b60c084015260e08301520390f35b600080fd5b346100fb5760603660031901126100fb576024356001600160a01b03811681036100fb5760443567ffffffffffffffff81116100fb57366023820112156100fb57806004013567ffffffffffffffff81116104bb576040519161016d601f8301601f191660200184610629565b81835236602483830101116100fb57816000926024602093018386013783010152604051906020820160043581524260408401526040835282606081011067ffffffffffffffff6060850111176104bb5760608301604052825190209262093a804201421161058f57610160830160608401811067ffffffffffffffff8211176104bb57604052600435606084015233608084015260018060a01b031660a083015260c082015260405180602081011067ffffffffffffffff6020830111176104bb57602081016040526000815260e0820152600061010082015262093a8042016101208201526000610140820152816000526000602052604060002090606081015182556001820160018060a01b03608083015116906bffffffffffffffffffffffff60a01b9182825416179055600283019060018060a01b0360a0840151169082541617905560c081015192835167ffffffffffffffff81116104bb576102d9600385015461064b565b601f8111610548575b50602094601f82116001146104dc579481929394956000926104d1575b50508160011b916000199060031b1c19161760038401555b60e082015192835167ffffffffffffffff81116104bb5761033b600483015461064b565b601f8111610474575b50602094601f8211600114610408579481929394956000926103fd575b50508160011b916000199060031b1c19161760048201555b6101008301519260058410156103e75761014060079161039e60209660058601610777565b61012081015160068501550151910155807f800f27b507ba0f04b931d7a0b06fd310dcf1696e3cc6c506ed31d69daa16a29e6040805160043581523386820152a2604051908152f35b634e487b7160e01b600052602160045260246000fd5b015190508580610361565b601f198216956004840160005260206000209160005b88811061045c57508360019596979810610443575b505050811b016004820155610379565b015160001960f88460031b161c19169055858080610433565b9192602060018192868501518155019401920161041e565b600483016000526020600020601f830160051c8101602084106104b4575b601f830160051c820181106104a8575050610344565b60008155600101610492565b5080610492565b634e487b7160e01b600052604160045260246000fd5b0151905085806102ff565b601f198216956003860160005260206000209160005b88811061053057508360019596979810610517575b505050811b016003840155610317565b015160001960f88460031b161c19169055858080610507565b919260206001819286850151815501940192016104f2565b600385016000526020600020601f830160051c810160208410610588575b601f830160051c8201811061057c5750506102e2565b60008155600101610566565b5080610566565b634e487b7160e01b600052601160045260246000fd5b346100fb5760403660031901126100fb5760043560243560058110156100fb5760207ffb3478113a887b3ea044d1b4b8ef6e12d5fdcd7a27ec7dd3299748e7fb38447691836000526000825260406000206106038260058301610777565b6002821461061d575b5061061a604051809261076a565ba2005b6007429101558461060c565b90601f8019910116810190811067ffffffffffffffff8211176104bb57604052565b90600182811c9216801561067b575b602083101461066557565b634e487b7160e01b600052602260045260246000fd5b91607f169161065a565b906040519182600082546106988161064b565b9081845260209460019160018116908160001461070857506001146106c9575b5050506106c792500383610629565b565b600090815285812095935091905b8183106106f05750506106c793508201013880806106b8565b855488840185015294850194879450918301916106d7565b925050506106c794925060ff191682840152151560051b8201013880806106b8565b919082519283825260005b848110610756575050826000602080949584010152601f8019910116010190565b602081830181015184830182015201610735565b9060058210156103e75752565b9060058110156103e75760ff8019835416911617905556fea2646970667358221220d8677905155686d05b02905462b4fec79b5e697402f54b118a0a9df63354ac2f64736f6c63430008180033","opcodes":"PUSH1 0x80 DUP1 PUSH1 0x40 MSTORE CALLVALUE PUSH2 0x16 JUMPI PUSH2 0x7C5 SWAP1 DUP2 PUSH2 0x1C DUP3 CODECOPY RETURN JUMPDEST PUSH1 0x0 DUP1 REVERT INVALID PUSH1 0x80 PUSH1 0x40 MSTORE PUSH1 0x4 CALLDATASIZE LT ISZERO PUSH2 0x12 JUMPI PUSH1 0x0 DUP1 REVERT JUMPDEST PUSH1 0x0 CALLDATALOAD PUSH1 0xE0 SHR DUP1 PUSH4 0x54372ED EQ PUSH2 0x5A5 JUMPI DUP1 PUSH4 0xCE90CEFF EQ PUSH2 0x100 JUMPI PUSH4 0xD87B4041 EQ PUSH2 0x3D JUMPI PUSH1 0x0 DUP1 REVERT JUMPDEST CALLVALUE PUSH2 0xFB JUMPI PUSH1 0x20 CALLDATASIZE PUSH1 0x3 NOT ADD SLT PUSH2 0xFB JUMPI PUSH1 0x4 CALLDATALOAD PUSH1 0x0 SWAP1 DUP2 MSTORE PUSH1 0x20 DUP2 SWAP1 MSTORE PUSH1 0x40 SWAP1 KECCAK256 DUP1 SLOAD PUSH1 0x1 DUP3 ADD SLOAD PUSH1 0x2 DUP4 ADD SLOAD PUSH1 0x1 PUSH1 0x1 PUSH1 0xA0 SHL SUB SWAP1 DUP2 AND SWAP4 SWAP2 AND SWAP2 PUSH2 0x86 PUSH1 0x3 DUP4 ADD PUSH2 0x685 JUMP JUMPDEST SWAP2 PUSH2 0xED PUSH2 0xE2 PUSH2 0x99 PUSH1 0x4 DUP5 ADD PUSH2 0x685 JUMP JUMPDEST PUSH2 0xD4 PUSH1 0xFF PUSH1 0x5 DUP7 ADD SLOAD AND SWAP7 PUSH1 0x7 PUSH1 0x6 DUP8 ADD SLOAD SWAP7 ADD SLOAD SWAP7 PUSH1 0x40 MLOAD SWAP11 DUP12 SWAP11 PUSH2 0x100 SWAP3 DUP13 MSTORE PUSH1 0x20 DUP13 ADD MSTORE PUSH1 0x40 DUP12 ADD MSTORE DUP1 PUSH1 0x60 DUP12 ADD MSTORE DUP10 ADD SWAP1 PUSH2 0x72A JUMP JUMPDEST SWAP1 DUP8 DUP3 SUB PUSH1 0x80 DUP10 ADD MSTORE PUSH2 0x72A JUMP JUMPDEST SWAP4 PUSH1 0xA0 DUP7 ADD SWAP1 PUSH2 0x76A JUMP JUMPDEST PUSH1 0xC0 DUP5 ADD MSTORE PUSH1 0xE0 DUP4 ADD MSTORE SUB SWAP1 RETURN JUMPDEST PUSH1 0x0 DUP1 REVERT JUMPDEST CALLVALUE PUSH2 0xFB JUMPI PUSH1 0x60 CALLDATASIZE PUSH1 0x3 NOT ADD SLT PUSH2 0xFB JUMPI PUSH1 0x24 CALLDATALOAD PUSH1 0x1 PUSH1 0x1 PUSH1 0xA0 SHL SUB DUP2 AND DUP2 SUB PUSH2 0xFB JUMPI PUSH1 0x44 CALLDATALOAD PUSH8 0xFFFFFFFFFFFFFFFF DUP2 GT PUSH2 0xFB JUMPI CALLDATASIZE PUSH1 0x23 DUP3 ADD SLT ISZERO PUSH2 0xFB JUMPI DUP1 PUSH1 0x4 ADD CALLDATALOAD PUSH8 0xFFFFFFFFFFFFFFFF DUP2 GT PUSH2 0x4BB JUMPI PUSH1 0x40 MLOAD SWAP2 PUSH2 0x16D PUSH1 0x1F DUP4 ADD PUSH1 0x1F NOT AND PUSH1 0x20 ADD DUP5 PUSH2 0x629 JUMP JUMPDEST DUP2 DUP4 MSTORE CALLDATASIZE PUSH1 0x24 DUP4 DUP4 ADD ADD GT PUSH2 0xFB JUMPI DUP2 PUSH1 0x0 SWAP3 PUSH1 0x24 PUSH1 0x20 SWAP4 ADD DUP4 DUP7 ADD CALLDATACOPY DUP4 ADD ADD MSTORE PUSH1 0x40 MLOAD SWAP1 PUSH1 0x20 DUP3 ADD PUSH1 0x4 CALLDATALOAD DUP2 MSTORE TIMESTAMP PUSH1 0x40 DUP5 ADD MSTORE PUSH1 0x40 DUP4 MSTORE DUP3 PUSH1 0x60 DUP2 ADD LT PUSH8 0xFFFFFFFFFFFFFFFF PUSH1 0x60 DUP6 ADD GT OR PUSH2 0x4BB JUMPI PUSH1 0x60 DUP4 ADD PUSH1 0x40 MSTORE DUP3 MLOAD SWAP1 KECCAK256 SWAP3 PUSH3 0x93A80 TIMESTAMP ADD TIMESTAMP GT PUSH2 0x58F JUMPI PUSH2 0x160 DUP4 ADD PUSH1 0x60 DUP5 ADD DUP2 LT PUSH8 0xFFFFFFFFFFFFFFFF DUP3 GT OR PUSH2 0x4BB JUMPI PUSH1 0x40 MSTORE PUSH1 0x4 CALLDATALOAD PUSH1 0x60 DUP5 ADD MSTORE CALLER PUSH1 0x80 DUP5 ADD MSTORE PUSH1 0x1 DUP1 PUSH1 0xA0 SHL SUB AND PUSH1 0xA0 DUP4 ADD MSTORE PUSH1 0xC0 DUP3 ADD MSTORE PUSH1 0x40 MLOAD DUP1 PUSH1 0x20 DUP2 ADD LT PUSH8 0xFFFFFFFFFFFFFFFF PUSH1 0x20 DUP4 ADD GT OR PUSH2 0x4BB JUMPI PUSH1 0x20 DUP2 ADD PUSH1 0x40 MSTORE PUSH1 0x0 DUP2 MSTORE PUSH1 0xE0 DUP3 ADD MSTORE PUSH1 0x0 PUSH2 0x100 DUP3 ADD MSTORE PUSH3 0x93A80 TIMESTAMP ADD PUSH2 0x120 DUP3 ADD MSTORE PUSH1 0x0 PUSH2 0x140 DUP3 ADD MSTORE DUP2 PUSH1 0x0 MSTORE PUSH1 0x0 PUSH1 0x20 MSTORE PUSH1 0x40 PUSH1 0x0 KECCAK256 SWAP1 PUSH1 0x60 DUP2 ADD MLOAD DUP3 SSTORE PUSH1 0x1 DUP3 ADD PUSH1 0x1 DUP1 PUSH1 0xA0 SHL SUB PUSH1 0x80 DUP4 ADD MLOAD AND SWAP1 PUSH12 0xFFFFFFFFFFFFFFFFFFFFFFFF PUSH1 0xA0 SHL SWAP2 DUP3 DUP3 SLOAD AND OR SWAP1 SSTORE PUSH1 0x2 DUP4 ADD SWAP1 PUSH1 0x1 DUP1 PUSH1 0xA0 SHL SUB PUSH1 0xA0 DUP5 ADD MLOAD AND SWAP1 DUP3 SLOAD AND OR SWAP1 SSTORE PUSH1 0xC0 DUP2 ADD MLOAD SWAP3 DUP4 MLOAD PUSH8 0xFFFFFFFFFFFFFFFF DUP2 GT PUSH2 0x4BB JUMPI PUSH2 0x2D9 PUSH1 0x3 DUP6 ADD SLOAD PUSH2 0x64B JUMP JUMPDEST PUSH1 0x1F DUP2 GT PUSH2 0x548 JUMPI JUMPDEST POP PUSH1 0x20 SWAP5 PUSH1 0x1F DUP3 GT PUSH1 0x1 EQ PUSH2 0x4DC JUMPI SWAP5 DUP2 SWAP3 SWAP4 SWAP5 SWAP6 PUSH1 0x0 SWAP3 PUSH2 0x4D1 JUMPI JUMPDEST POP POP DUP2 PUSH1 0x1 SHL SWAP2 PUSH1 0x0 NOT SWAP1 PUSH1 0x3 SHL SHR NOT AND OR PUSH1 0x3 DUP5 ADD SSTORE JUMPDEST PUSH1 0xE0 DUP3 ADD MLOAD SWAP3 DUP4 MLOAD PUSH8 0xFFFFFFFFFFFFFFFF DUP2 GT PUSH2 0x4BB JUMPI PUSH2 0x33B PUSH1 0x4 DUP4 ADD SLOAD PUSH2 0x64B JUMP JUMPDEST PUSH1 0x1F DUP2 GT PUSH2 0x474 JUMPI JUMPDEST POP PUSH1 0x20 SWAP5 PUSH1 0x1F DUP3 GT PUSH1 0x1 EQ PUSH2 0x408 JUMPI SWAP5 DUP2 SWAP3 SWAP4 SWAP5 SWAP6 PUSH1 0x0 SWAP3 PUSH2 0x3FD JUMPI JUMPDEST POP POP DUP2 PUSH1 0x1 SHL SWAP2 PUSH1 0x0 NOT SWAP1 PUSH1 0x3 SHL SHR NOT AND OR PUSH1 0x4 DUP3 ADD SSTORE JUMPDEST PUSH2 0x100 DUP4 ADD MLOAD SWAP3 PUSH1 0x5 DUP5 LT ISZERO PUSH2 0x3E7 JUMPI PUSH2 0x140 PUSH1 0x7 SWAP2 PUSH2 0x39E PUSH1 0x20 SWAP7 PUSH1 0x5 DUP7 ADD PUSH2 0x777 JUMP JUMPDEST PUSH2 0x120 DUP2 ADD MLOAD PUSH1 0x6 DUP6 ADD SSTORE ADD MLOAD SWAP2 ADD SSTORE DUP1 PUSH32 0x800F27B507BA0F04B931D7A0B06FD310DCF1696E3CC6C506ED31D69DAA16A29E PUSH1 0x40 DUP1 MLOAD PUSH1 0x4 CALLDATALOAD DUP2 MSTORE CALLER DUP7 DUP3 ADD MSTORE LOG2 PUSH1 0x40 MLOAD SWAP1 DUP2 MSTORE RETURN JUMPDEST PUSH4 0x4E487B71 PUSH1 0xE0 SHL PUSH1 0x0 MSTORE PUSH1 0x21 PUSH1 0x4 MSTORE PUSH1 0x24 PUSH1 0x0 REVERT JUMPDEST ADD MLOAD SWAP1 POP DUP6 DUP1 PUSH2 0x361 JUMP JUMPDEST PUSH1 0x1F NOT DUP3 AND SWAP6 PUSH1 0x4 DUP5 ADD PUSH1 0x0 MSTORE PUSH1 0x20 PUSH1 0x0 KECCAK256 SWAP2 PUSH1 0x0 JUMPDEST DUP9 DUP2 LT PUSH2 0x45C JUMPI POP DUP4 PUSH1 0x1 SWAP6 SWAP7 SWAP8 SWAP9 LT PUSH2 0x443 JUMPI JUMPDEST POP POP POP DUP2 SHL ADD PUSH1 0x4 DUP3 ADD SSTORE PUSH2 0x379 JUMP JUMPDEST ADD MLOAD PUSH1 0x0 NOT PUSH1 0xF8 DUP5 PUSH1 0x3 SHL AND SHR NOT AND SWAP1 SSTORE DUP6 DUP1 DUP1 PUSH2 0x433 JUMP JUMPDEST SWAP2 SWAP3 PUSH1 0x20 PUSH1 0x1 DUP2 SWAP3 DUP7 DUP6 ADD MLOAD DUP2 SSTORE ADD SWAP5 ADD SWAP3 ADD PUSH2 0x41E JUMP JUMPDEST PUSH1 0x4 DUP4 ADD PUSH1 0x0 MSTORE PUSH1 0x20 PUSH1 0x0 KECCAK256 PUSH1 0x1F DUP4 ADD PUSH1 0x5 SHR DUP2 ADD PUSH1 0x20 DUP5 LT PUSH2 0x4B4 JUMPI JUMPDEST PUSH1 0x1F DUP4 ADD PUSH1 0x5 SHR DUP3 ADD DUP2 LT PUSH2 0x4A8 JUMPI POP POP PUSH2 0x344 JUMP JUMPDEST PUSH1 0x0 DUP2 SSTORE PUSH1 0x1 ADD PUSH2 0x492 JUMP JUMPDEST POP DUP1 PUSH2 0x492 JUMP JUMPDEST PUSH4 0x4E487B71 PUSH1 0xE0 SHL PUSH1 0x0 MSTORE PUSH1 0x41 PUSH1 0x4 MSTORE PUSH1 0x24 PUSH1 0x0 REVERT JUMPDEST ADD MLOAD SWAP1 POP DUP6 DUP1 PUSH2 0x2FF JUMP JUMPDEST PUSH1 0x1F NOT DUP3 AND SWAP6 PUSH1 0x3 DUP7 ADD PUSH1 0x0 MSTORE PUSH1 0x20 PUSH1 0x0 KECCAK256 SWAP2 PUSH1 0x0 JUMPDEST DUP9 DUP2 LT PUSH2 0x530 JUMPI POP DUP4 PUSH1 0x1 SWAP6 SWAP7 SWAP8 SWAP9 LT PUSH2 0x517 JUMPI JUMPDEST POP POP POP DUP2 SHL ADD PUSH1 0x3 DUP5 ADD SSTORE PUSH2 0x317 JUMP JUMPDEST ADD MLOAD PUSH1 0x0 NOT PUSH1 0xF8 DUP5 PUSH1 0x3 SHL AND SHR NOT AND SWAP1 SSTORE DUP6 DUP1 DUP1 PUSH2 0x507 JUMP JUMPDEST SWAP2 SWAP3 PUSH1 0x20 PUSH1 0x1 DUP2 SWAP3 DUP7 DUP6 ADD MLOAD DUP2 SSTORE ADD SWAP5 ADD SWAP3 ADD PUSH2 0x4F2 JUMP JUMPDEST PUSH1 0x3 DUP6 ADD PUSH1 0x0 MSTORE PUSH1 0x20 PUSH1 0x0 KECCAK256 PUSH1 0x1F DUP4 ADD PUSH1 0x5 SHR DUP2 ADD PUSH1 0x20 DUP5 LT PUSH2 0x588 JUMPI JUMPDEST PUSH1 0x1F DUP4 ADD PUSH1 0x5 SHR DUP3 ADD DUP2 LT PUSH2 0x57C JUMPI POP POP PUSH2 0x2E2 JUMP JUMPDEST PUSH1 0x0 DUP2 SSTORE PUSH1 0x1 ADD PUSH2 0x566 JUMP JUMPDEST POP DUP1 PUSH2 0x566 JUMP JUMPDEST PUSH4 0x4E487B71 PUSH1 0xE0 SHL PUSH1 0x0 MSTORE PUSH1 0x11 PUSH1 0x4 MSTORE PUSH1 0x24 PUSH1 0x0 REVERT JUMPDEST CALLVALUE PUSH2 0xFB JUMPI PUSH1 0x40 CALLDATASIZE PUSH1 0x3 NOT ADD SLT PUSH2 0xFB JUMPI PUSH1 0x4 CALLDATALOAD PUSH1 0x24 CALLDATALOAD PUSH1 0x5 DUP2 LT ISZERO PUSH2 0xFB JUMPI PUSH1 0x20 PUSH32 0xFB3478113A887B3EA044D1B4B8EF6E12D5FDCD7A27EC7DD3299748E7FB384476 SWAP2 DUP4 PUSH1 0x0 MSTORE PUSH1 0x0 DUP3 MSTORE PUSH1 0x40 PUSH1 0x0 KECCAK256 PUSH2 0x603 DUP3 PUSH1 0x5 DUP4 ADD PUSH2 0x777 JUMP JUMPDEST PUSH1 0x2 DUP3 EQ PUSH2 0x61D JUMPI JUMPDEST POP PUSH2 0x61A PUSH1 0x40 MLOAD DUP1 SWAP3 PUSH2 0x76A JUMP JUMPDEST LOG2 STOP JUMPDEST PUSH1 0x7 TIMESTAMP SWAP2 ADD SSTORE DUP5 PUSH2 0x60C JUMP JUMPDEST SWAP1 PUSH1 0x1F DUP1 NOT SWAP2 ADD AND DUP2 ADD SWAP1 DUP2 LT PUSH8 0xFFFFFFFFFFFFFFFF DUP3 GT OR PUSH2 0x4BB JUMPI PUSH1 0x40 MSTORE JUMP JUMPDEST SWAP1 PUSH1 0x1 DUP3 DUP2 SHR SWAP3 AND DUP1 ISZERO PUSH2 0x67B JUMPI JUMPDEST PUSH1 0x20 DUP4 LT EQ PUSH2 0x665 JUMPI JUMP JUMPDEST PUSH4 0x4E487B71 PUSH1 0xE0 SHL PUSH1 0x0 MSTORE PUSH1 0x22 PUSH1 0x4 MSTORE PUSH1 0x24 PUSH1 0x0 REVERT JUMPDEST SWAP2 PUSH1 0x7F AND SWAP2 PUSH2 0x65A JUMP JUMPDEST SWAP1 PUSH1 0x40 MLOAD SWAP2 DUP3 PUSH1 0x0 DUP3 SLOAD PUSH2 0x698 DUP2 PUSH2 0x64B JUMP JUMPDEST SWAP1 DUP2 DUP5 MSTORE PUSH1 0x20 SWAP5 PUSH1 0x1 SWAP2 PUSH1 0x1 DUP2 AND SWAP1 DUP2 PUSH1 0x0 EQ PUSH2 0x708 JUMPI POP PUSH1 0x1 EQ PUSH2 0x6C9 JUMPI JUMPDEST POP POP POP PUSH2 0x6C7 SWAP3 POP SUB DUP4 PUSH2 0x629 JUMP JUMPDEST JUMP JUMPDEST PUSH1 0x0 SWAP1 DUP2 MSTORE DUP6 DUP2 KECCAK256 SWAP6 SWAP4 POP SWAP2 SWAP1 JUMPDEST DUP2 DUP4 LT PUSH2 0x6F0 JUMPI POP POP PUSH2 0x6C7 SWAP4 POP DUP3 ADD ADD CODESIZE DUP1 DUP1 PUSH2 0x6B8 JUMP JUMPDEST DUP6 SLOAD DUP9 DUP5 ADD DUP6 ADD MSTORE SWAP5 DUP6 ADD SWAP5 DUP8 SWAP5 POP SWAP2 DUP4 ADD SWAP2 PUSH2 0x6D7 JUMP JUMPDEST SWAP3 POP POP POP PUSH2 0x6C7 SWAP5 SWAP3 POP PUSH1 0xFF NOT AND DUP3 DUP5 ADD MSTORE ISZERO ISZERO PUSH1 0x5 SHL DUP3 ADD ADD CODESIZE DUP1 DUP1 PUSH2 0x6B8 JUMP JUMPDEST SWAP2 SWAP1 DUP3 MLOAD SWAP3 DUP4 DUP3 MSTORE PUSH1 0x0 JUMPDEST DUP5 DUP2 LT PUSH2 0x756 JUMPI POP POP DUP3 PUSH1 0x0 PUSH1 0x20 DUP1 SWAP5 SWAP6 DUP5 ADD ADD MSTORE PUSH1 0x1F DUP1 NOT SWAP2 ADD AND ADD ADD SWAP1 JUMP JUMPDEST PUSH1 0x20 DUP2 DUP4 ADD DUP2 ADD MLOAD DUP5 DUP4 ADD DUP3 ADD MSTORE ADD PUSH2 0x735 JUMP JUMPDEST SWAP1 PUSH1 0x5 DUP3 LT ISZERO PUSH2 0x3E7 JUMPI MSTORE JUMP JUMPDEST SWAP1 PUSH1 0x5 DUP2 LT ISZERO PUSH2 0x3E7 JUMPI PUSH1 0xFF DUP1 NOT DUP4 SLOAD AND SWAP2 AND OR SWAP1 SSTORE JUMP INVALID LOG2 PUSH5 0x6970667358 0x22 SLT KECCAK256 0xD8 PUSH8 0x7905155686D05B02 SWAP1 SLOAD PUSH3 0xB4FEC7 SWAP12 MCOPY PUSH10 0x7402F54B118A0A9DF633 SLOAD 0xAC 0x2F PUSH5 0x736F6C6343 STOP ADDMOD XOR STOP CALLER "},"methodIdentifiers":{"createShipment(uint256,address,string)":"ce90ceff","shipments(bytes32)":"d87b4041","updateStatus(bytes32,uint8)":"054372ed"}}}}}