{"contracts/QRCodeRegistry.sol":{"QRCodeRegistry":{"abi":[{"inputs":[{"internalType":"uint256","name":"","type":"uint256"}],"name":"batchToQR","outputs":[{"internalType":"bytes32","name":"","type":"bytes32"}],"stateMutability":"view","type":"function"},{"inputs":[{"internalType":"bytes32","name":"_qrHash","type":"bytes32"}],"name":"getBatchByQR","outputs":[{"internalType":"uint256","name":"","type":"uint256"}],"stateMutability":"view","type":"function"},{"inputs":[{"internalType":"bytes32","name":"","type":"bytes32"}],"name":"qrToBatch","outputs":[{"internalType":"uint256","name":"","type":"uint256"}],"stateMutability":"view","type":"function"},{"inputs":[{"internalType":"bytes32","name":"_qrHash","type":"bytes32"},{"internalType":"uint256","name":"_batchId","type":"uint256"}],"name":"registerQR","outputs":[],"stateMutability":"nonpayable","type":"function"}],"evm":{"bytecode":{"linkReferences":{},"object":"6080806040523461001657610123908161001c8239f35b600080fdfe608060408181526004361015601357600080fd5b600091823560e01c9081634df9f9791460c55750806356da65101460a0578063b79d56fc1460715763e08d304814604957600080fd5b34606d576020366003190112606d5780602092600435815280845220549051908152f35b5080fd5b5034606d5780600319360112606d57600435906024358284528360205280828520558352600160205282205580f35b5034606d576020366003190112606d5780602092600435815280845220549051908152f35b9190503460e957602036600319011260e95760209260043581526001845220548152f35b8280fdfea2646970667358221220a6d1df01d6d6e7a3fcc7ae1a01c428bc48473e71551ebb4391b9ffc496afe87664736f6c63430008180033","opcodes":"PUSH1 0x80 DUP1 PUSH1 0x40 MSTORE CALLVALUE PUSH2 0x16 JUMPI PUSH2 0x123 SWAP1 DUP2 PUSH2 0x1C DUP3 CODECOPY RETURN JUMPDEST PUSH1 0x0 DUP1 REVERT INVALID PUSH1 0x80 PUSH1 0x40 DUP2 DUP2 MSTORE PUSH1 0x4 CALLDATASIZE LT ISZERO PUSH1 0x13 JUMPI PUSH1 0x0 DUP1 REVERT JUMPDEST PUSH1 0x0 SWAP2 DUP3 CALLDATALOAD PUSH1 0xE0 SHR SWAP1 DUP2 PUSH4 0x4DF9F979 EQ PUSH1 0xC5 JUMPI POP DUP1 PUSH4 0x56DA6510 EQ PUSH1 0xA0 JUMPI DUP1 PUSH4 0xB79D56FC EQ PUSH1 0x71 JUMPI PUSH4 0xE08D3048 EQ PUSH1 0x49 JUMPI PUSH1 0x0 DUP1 REVERT JUMPDEST CALLVALUE PUSH1 0x6D JUMPI PUSH1 0x20 CALLDATASIZE PUSH1 0x3 NOT ADD SLT PUSH1 0x6D JUMPI DUP1 PUSH1 0x20 SWAP3 PUSH1 0x4 CALLDATALOAD DUP2 MSTORE DUP1 DUP5 MSTORE KECCAK256 SLOAD SWAP1 MLOAD SWAP1 DUP2 MSTORE RETURN JUMPDEST POP DUP1 REVERT JUMPDEST POP CALLVALUE PUSH1 0x6D JUMPI DUP1 PUSH1 0x3 NOT CALLDATASIZE ADD SLT PUSH1 0x6D JUMPI PUSH1 0x4 CALLDATALOAD SWAP1 PUSH1 0x24 CALLDATALOAD DUP3 DUP5 MSTORE DUP4 PUSH1 0x20 MSTORE DUP1 DUP3 DUP6 KECCAK256 SSTORE DUP4 MSTORE PUSH1 0x1 PUSH1 0x20 MSTORE DUP3 KECCAK256 SSTORE DUP1 RETURN JUMPDEST POP CALLVALUE PUSH1 0x6D JUMPI PUSH1 0x20 CALLDATASIZE PUSH1 0x3 NOT ADD SLT PUSH1 0x6D JUMPI DUP1 PUSH1 0x20 SWAP3 PUSH1 0x4 CALLDATALOAD DUP2 MSTORE DUP1 DUP5 MSTORE KECCAK256 SLOAD SWAP1 MLOAD SWAP1 DUP2 MSTORE RETURN JUMPDEST SWAP2 SWAP1 POP CALLVALUE PUSH1 0xE9 JUMPI PUSH1 0x20 CALLDATASIZE PUSH1 0x3 NOT ADD SLT PUSH1 0xE9 JUMPI PUSH1 0x20 SWAP3 PUSH1 0x4 CALLDATALOAD DUP2 MSTORE PUSH1 0x1 DUP5 MSTORE KECCAK256 SLOAD DUP2 MSTORE RETURN JUMPDEST DUP3 DUP1 REVERT INVALID LOG2 PUSH5 0x6970667358 0x22 SLT KECCAK256 0xA6 0xD1 0xDF ADD 0xD6 0xD6 0xE7 LOG3 0xFC 0xC7 0xAE BYTE ADD 0xC4 0x28 0xBC BASEFEE SELFBALANCE RETURNDATACOPY PUSH18 0x551EBB4391B9FFC496AFE87664736F6C6343 STOP ADDMOD XOR STOP CALLER "},"methodIdentifiers":{"batchToQR(uint256)":"4df9f979","getBatchByQR(bytes32)":"56da6510","qrToBatch(bytes32)":"e08d3048","registerQR(bytes32,uint256)":"b79d56fc"}}}}}