{"contracts/Subscription.sol":{"SubscriptionContract":{"abi":[{"anonymous":false,"inputs":[{"indexed":false,"internalType":"address","name":"subscriber","type":"address"}],"name":"SubscriptionCancelled","type":"event"},{"anonymous":false,"inputs":[{"indexed":false,"internalType":"address","name":"subscriber","type":"address"}],"name":"SubscriptionRenewed","type":"event"},{"anonymous":false,"inputs":[{"indexed":false,"internalType":"address","name":"subscriber","type":"address"},{"indexed":false,"internalType":"uint256","name":"endTime","type":"uint256"}],"name":"SubscriptionStarted","type":"event"},{"inputs":[],"name":"cancel","outputs":[],"stateMutability":"nonpayable","type":"function"},{"inputs":[{"internalType":"address","name":"_subscriber","type":"address"}],"name":"isActive","outputs":[{"internalType":"bool","name":"","type":"bool"}],"stateMutability":"view","type":"function"},{"inputs":[{"internalType":"uint256","name":"_durationDays","type":"uint256"}],"name":"subscribe","outputs":[],"stateMutability":"payable","type":"function"},{"inputs":[{"internalType":"address","name":"","type":"address"}],"name":"subscriptions","outputs":[{"internalType":"address","name":"subscriber","type":"address"},{"internalType":"uint256","name":"startTime","type":"uint256"},{"internalType":"uint256","name":"endTime","type":"uint256"},{"internalType":"bool","name":"active","type":"bool"}],"stateMutability":"view","type":"function"}],"evm":{"bytecode":{"linkReferences":{},"object":"60808060405234610016576102ff908161001c8239f35b600080fdfe604060808152600436101561001357600080fd5b600090813560e01c80630f574ba7146101875780639f8a13d714610107578063ea8a1af0146100b65763f046395a1461004b57600080fd5b346100b25760203660031901126100b2576001600160a01b0390600435828116908190036100ae57838291608095528060205220918254169160018101549160ff6003600284015493015416928151948552602085015283015215156060820152f35b8380fd5b5080fd5b50346100b257816003193601126100b25760207f71215198e3f86c24dc3af6d0d7f84d0095e5ee736aa56daf9927fae51935e95d9133845283825260038185200160ff19815416905551338152a180f35b50346100b25760203660031901126100b2576001600160a01b03600435818116908190036100ae57835260208381529282902060609291610146610293565b90825416815260018201548582015260ff60036002840154938486850152015416151593849101528261017d575b50519015158152f35b4210915038610174565b5060203660031901126100b2576201518060043581810291811591830414171561025c579061024d826101db7f3569431152110722ac0db636dd27ae1423bce34e35a19c281a7b4fcbb280ceb59442610270565b60036101e5610293565b3381526020810192428452868201908152606082019360018552338a5289602052878a209260018060a01b039051166bffffffffffffffffffffffff60a01b845416178355516001830155516002820155019051151560ff8019835416911617905542610270565b8151903382526020820152a180f35b634e487b7160e01b83526011600452602483fd5b9190820180921161027d57565b634e487b7160e01b600052601160045260246000fd5b604051906080820182811067ffffffffffffffff8211176102b357604052565b634e487b7160e01b600052604160045260246000fdfea2646970667358221220ca96ec5807e6b646fc57b4fe306e719bb3d52860def9fe3e5de68fec8be9d43b64736f6c63430008180033","opcodes":"PUSH1 0x80 DUP1 PUSH1 0x40 MSTORE CALLVALUE PUSH2 0x16 JUMPI PUSH2 0x2FF SWAP1 DUP2 PUSH2 0x1C DUP3 CODECOPY RETURN JUMPDEST PUSH1 0x0 DUP1 REVERT INVALID PUSH1 0x40 PUSH1 0x80 DUP2 MSTORE PUSH1 0x4 CALLDATASIZE LT ISZERO PUSH2 0x13 JUMPI PUSH1 0x0 DUP1 REVERT JUMPDEST PUSH1 0x0 SWAP1 DUP2 CALLDATALOAD PUSH1 0xE0 SHR DUP1 PUSH4 0xF574BA7 EQ PUSH2 0x187 JUMPI DUP1 PUSH4 0x9F8A13D7 EQ PUSH2 0x107 JUMPI DUP1 PUSH4 0xEA8A1AF0 EQ PUSH2 0xB6 JUMPI PUSH4 0xF046395A EQ PUSH2 0x4B JUMPI PUSH1 0x0 DUP1 REVERT JUMPDEST CALLVALUE PUSH2 0xB2 JUMPI PUSH1 0x20 CALLDATASIZE PUSH1 0x3 NOT ADD SLT PUSH2 0xB2 JUMPI PUSH1 0x1 PUSH1 0x1 PUSH1 0xA0 SHL SUB SWAP1 PUSH1 0x4 CALLDATALOAD DUP3 DUP2 AND SWAP1 DUP2 SWAP1 SUB PUSH2 0xAE JUMPI DUP4 DUP3 SWAP2 PUSH1 0x80 SWAP6 MSTORE DUP1 PUSH1 0x20 MSTORE KECCAK256 SWAP2 DUP3 SLOAD AND SWAP2 PUSH1 0x1 DUP2 ADD SLOAD SWAP2 PUSH1 0xFF PUSH1 0x3 PUSH1 0x2 DUP5 ADD SLOAD SWAP4 ADD SLOAD AND SWAP3 DUP2 MLOAD SWAP5 DUP6 MSTORE PUSH1 0x20 DUP6 ADD MSTORE DUP4 ADD MSTORE ISZERO ISZERO PUSH1 0x60 DUP3 ADD MSTORE RETURN JUMPDEST DUP4 DUP1 REVERT JUMPDEST POP DUP1 REVERT JUMPDEST POP CALLVALUE PUSH2 0xB2 JUMPI DUP2 PUSH1 0x3 NOT CALLDATASIZE ADD SLT PUSH2 0xB2 JUMPI PUSH1 0x20 PUSH32 0x71215198E3F86C24DC3AF6D0D7F84D0095E5EE736AA56DAF9927FAE51935E95D SWAP2 CALLER DUP5 MSTORE DUP4 DUP3 MSTORE PUSH1 0x3 DUP2 DUP6 KECCAK256 ADD PUSH1 0xFF NOT DUP2 SLOAD AND SWAP1 SSTORE MLOAD CALLER DUP2 MSTORE LOG1 DUP1 RETURN JUMPDEST POP CALLVALUE PUSH2 0xB2 JUMPI PUSH1 0x20 CALLDATASIZE PUSH1 0x3 NOT ADD SLT PUSH2 0xB2 JUMPI PUSH1 0x1 PUSH1 0x1 PUSH1 0xA0 SHL SUB PUSH1 0x4 CALLDATALOAD DUP2 DUP2 AND SWAP1 DUP2 SWAP1 SUB PUSH2 0xAE JUMPI DUP4 MSTORE PUSH1 0x20 DUP4 DUP2 MSTORE SWAP3 DUP3 SWAP1 KECCAK256 PUSH1 0x60 SWAP3 SWAP2 PUSH2 0x146 PUSH2 0x293 JUMP JUMPDEST SWAP1 DUP3 SLOAD AND DUP2 MSTORE PUSH1 0x1 DUP3 ADD SLOAD DUP6 DUP3 ADD MSTORE PUSH1 0xFF PUSH1 0x3 PUSH1 0x2 DUP5 ADD SLOAD SWAP4 DUP5 DUP7 DUP6 ADD MSTORE ADD SLOAD AND ISZERO ISZERO SWAP4 DUP5 SWAP2 ADD MSTORE DUP3 PUSH2 0x17D JUMPI JUMPDEST POP MLOAD SWAP1 ISZERO ISZERO DUP2 MSTORE RETURN JUMPDEST TIMESTAMP LT SWAP2 POP CODESIZE PUSH2 0x174 JUMP JUMPDEST POP PUSH1 0x20 CALLDATASIZE PUSH1 0x3 NOT ADD SLT PUSH2 0xB2 JUMPI PUSH3 0x15180 PUSH1 0x4 CALLDATALOAD DUP2 DUP2 MUL SWAP2 DUP2 ISZERO SWAP2 DUP4 DIV EQ OR ISZERO PUSH2 0x25C JUMPI SWAP1 PUSH2 0x24D DUP3 PUSH2 0x1DB PUSH32 0x3569431152110722AC0DB636DD27AE1423BCE34E35A19C281A7B4FCBB280CEB5 SWAP5 TIMESTAMP PUSH2 0x270 JUMP JUMPDEST PUSH1 0x3 PUSH2 0x1E5 PUSH2 0x293 JUMP JUMPDEST CALLER DUP2 MSTORE PUSH1 0x20 DUP2 ADD SWAP3 TIMESTAMP DUP5 MSTORE DUP7 DUP3 ADD SWAP1 DUP2 MSTORE PUSH1 0x60 DUP3 ADD SWAP4 PUSH1 0x1 DUP6 MSTORE CALLER DUP11 MSTORE DUP10 PUSH1 0x20 MSTORE DUP8 DUP11 KECCAK256 SWAP3 PUSH1 0x1 DUP1 PUSH1 0xA0 SHL SUB SWAP1 MLOAD AND PUSH12 0xFFFFFFFFFFFFFFFFFFFFFFFF PUSH1 0xA0 SHL DUP5 SLOAD AND OR DUP4 SSTORE MLOAD PUSH1 0x1 DUP4 ADD SSTORE MLOAD PUSH1 0x2 DUP3 ADD SSTORE ADD SWAP1 MLOAD ISZERO ISZERO PUSH1 0xFF DUP1 NOT DUP4 SLOAD AND SWAP2 AND OR SWAP1 SSTORE TIMESTAMP PUSH2 0x270 JUMP JUMPDEST DUP2 MLOAD SWAP1 CALLER DUP3 MSTORE PUSH1 0x20 DUP3 ADD MSTORE LOG1 DUP1 RETURN JUMPDEST PUSH4 0x4E487B71 PUSH1 0xE0 SHL DUP4 MSTORE PUSH1 0x11 PUSH1 0x4 MSTORE PUSH1 0x24 DUP4 REVERT JUMPDEST SWAP2 SWAP1 DUP3 ADD DUP1 SWAP3 GT PUSH2 0x27D JUMPI JUMP JUMPDEST PUSH4 0x4E487B71 PUSH1 0xE0 SHL PUSH1 0x0 MSTORE PUSH1 0x11 PUSH1 0x4 MSTORE PUSH1 0x24 PUSH1 0x0 REVERT JUMPDEST PUSH1 0x40 MLOAD SWAP1 PUSH1 0x80 DUP3 ADD DUP3 DUP2 LT PUSH8 0xFFFFFFFFFFFFFFFF DUP3 GT OR PUSH2 0x2B3 JUMPI PUSH1 0x40 MSTORE JUMP JUMPDEST PUSH4 0x4E487B71 PUSH1 0xE0 SHL PUSH1 0x0 MSTORE PUSH1 0x41 PUSH1 0x4 MSTORE PUSH1 0x24 PUSH1 0x0 REVERT INVALID LOG2 PUSH5 0x6970667358 0x22 SLT KECCAK256 0xCA SWAP7 0xEC PC SMOD 0xE6 0xB6 CHAINID 0xFC JUMPI 0xB4 INVALID ADDRESS PUSH15 0x719BB3D52860DEF9FE3E5DE68FEC8B 0xE9 0xD4 EXTCODESIZE PUSH5 0x736F6C6343 STOP ADDMOD XOR STOP CALLER "},"methodIdentifiers":{"cancel()":"ea8a1af0","isActive(address)":"9f8a13d7","subscribe(uint256)":"0f574ba7","subscriptions(address)":"f046395a"}}}}}