{"contracts/Inventory.sol":{"InventoryManager":{"abi":[{"anonymous":false,"inputs":[{"indexed":true,"internalType":"uint256","name":"batchId","type":"uint256"},{"indexed":false,"internalType":"uint256","name":"quantity","type":"uint256"},{"indexed":false,"internalType":"address","name":"updater","type":"address"}],"name":"InventoryUpdated","type":"event"},{"inputs":[{"internalType":"uint256","name":"_batchId","type":"uint256"}],"name":"getInventory","outputs":[{"components":[{"internalType":"uint256","name":"batchTokenId","type":"uint256"},{"internalType":"uint256","name":"quantity","type":"uint256"},{"internalType":"string","name":"unit","type":"string"},{"internalType":"string","name":"storageLocation","type":"string"},{"internalType":"uint256","name":"lastUpdated","type":"uint256"}],"internalType":"struct InventoryManager.InventoryItem","name":"","type":"tuple"}],"stateMutability":"view","type":"function"},{"inputs":[{"internalType":"uint256","name":"","type":"uint256"}],"name":"inventory","outputs":[{"internalType":"uint256","name":"batchTokenId","type":"uint256"},{"internalType":"uint256","name":"quantity","type":"uint256"},{"internalType":"string","name":"unit","type":"string"},{"internalType":"string","name":"storageLocation","type":"string"},{"internalType":"uint256","name":"lastUpdated","type":"uint256"}],"stateMutability":"view","type":"function"},{"inputs":[{"internalType":"uint256","name":"_batchId","type":"uint256"},{"internalType":"uint256","name":"_quantity","type":"uint256"},{"internalType":"string","name":"_unit","type":"string"},{"internalType":"string","name":"_location","type":"string"}],"name":"updateInventory","outputs":[],"stateMutability":"nonpayable","type":"function"},{"inputs":[{"internalType":"address","name":"","type":"address"},{"internalType":"uint256","name":"","type":"uint256"}],"name":"userInventory","outputs":[{"internalType":"uint256","name":"","type":"uint256"}],"stateMutability":"view","type":"function"}],"evm":{"bytecode":{"linkReferences":{},"object":"608080604052346100165761071d908161001c8239f35b600080fdfe6080604052600436101561001257600080fd5b60003560e01c80634272ee18146104af5780635b298d32146103cd5780635c0529a3146103785763a8f0aa081461004857600080fd5b346103735760803660031901126103735767ffffffffffffffff6044358181116103735761007a903690600401610690565b9060643581811161037357610093903690600401610690565b90604051916100a18361056d565b60043583526020830193602435855260408401908152606084019182524260808501526004356000526000602052604060002094845186555160018601555180519083821161028f5781906100f96002880154610533565b601f811161031d575b50602090601f83116001146102b0576000926102a5575b50508160011b916000199060031b1c19161760028501555b51805191821161028f576101486003850154610533565b601f8111610244575b50602090601f83116001146101d1579180600494926080946000926101c6575b50508160011b916000199060031b1c19161760038501555b015191015560405160243581523360208201527f6f2c797ac120a797ccb9fec093c2307f005d4536440f414443f3e217bb40b2ca604060043592a2005b015190503880610171565b90601f198316916003860160005260206000209260005b81811061022c57509260019285926080966004989610610213575b505050811b016003850155610189565b015160001960f88460031b161c19169055388080610203565b929360206001819287860151815501950193016101e8565b600385016000526020600020601f840160051c81019160208510610285575b601f0160051c01905b8181106102795750610151565b6000815560010161026c565b9091508190610263565b634e487b7160e01b600052604160045260246000fd5b015190503880610119565b600288016000908152602081209350601f198516905b81811061030557509084600195949392106102ec575b505050811b016002850155610131565b015160001960f88460031b161c191690553880806102dc565b929360206001819287860151815501950193016102c6565b909150600287016000526020600020601f840160051c81019160208510610369575b90601f859493920160051c01905b81811061035a5750610102565b6000815584935060010161034d565b909150819061033f565b600080fd5b34610373576040366003190112610373576004356001600160a01b0381169081900361037357602435906000526001602052604060002090815481101561037357602091600052816000200154604051908152f35b346103735760208060031936011261037357600060806040516103ef8161056d565b8281528284820152606060408201526060808201520152600435600052600081526040600020604051906104228261056d565b805482526104a4600182015491848401928352610491610444600283016105ab565b604086019081526004610459600385016105ab565b93606088019485520154946080870195865260405197889781895251908801525160408701525160a0606087015260c0860190610650565b9051848203601f19016080860152610650565b905160a08301520390f35b34610373576020366003190112610373576004356000526000602052604060002080546001820154916105296104e7600283016105ab565b9161051b60046104f9600384016105ab565b920154936040519687968752602087015260a0604087015260a0860190610650565b908482036060860152610650565b9060808301520390f35b90600182811c92168015610563575b602083101461054d57565b634e487b7160e01b600052602260045260246000fd5b91607f1691610542565b60a0810190811067ffffffffffffffff82111761028f57604052565b90601f8019910116810190811067ffffffffffffffff82111761028f57604052565b906040519182600082546105be81610533565b9081845260209460019160018116908160001461062e57506001146105ef575b5050506105ed92500383610589565b565b600090815285812095935091905b8183106106165750506105ed93508201013880806105de565b855488840185015294850194879450918301916105fd565b925050506105ed94925060ff191682840152151560051b8201013880806105de565b919082519283825260005b84811061067c575050826000602080949584010152601f8019910116010190565b60208183018101518483018201520161065b565b81601f820112156103735780359067ffffffffffffffff821161028f57604051926106c5601f8401601f191660200185610589565b828452602083830101116103735781600092602080930183860137830101529056fea2646970667358221220258016f08a372a2e571e25d582ce136f164734ee64dc01cdf88613b456ad53e964736f6c63430008180033","opcodes":"PUSH1 0x80 DUP1 PUSH1 0x40 MSTORE CALLVALUE PUSH2 0x16 JUMPI PUSH2 0x71D SWAP1 DUP2 PUSH2 0x1C DUP3 CODECOPY RETURN JUMPDEST PUSH1 0x0 DUP1 REVERT INVALID PUSH1 0x80 PUSH1 0x40 MSTORE PUSH1 0x4 CALLDATASIZE LT ISZERO PUSH2 0x12 JUMPI PUSH1 0x0 DUP1 REVERT JUMPDEST PUSH1 0x0 CALLDATALOAD PUSH1 0xE0 SHR DUP1 PUSH4 0x4272EE18 EQ PUSH2 0x4AF JUMPI DUP1 PUSH4 0x5B298D32 EQ PUSH2 0x3CD JUMPI DUP1 PUSH4 0x5C0529A3 EQ PUSH2 0x378 JUMPI PUSH4 0xA8F0AA08 EQ PUSH2 0x48 JUMPI PUSH1 0x0 DUP1 REVERT JUMPDEST CALLVALUE PUSH2 0x373 JUMPI PUSH1 0x80 CALLDATASIZE PUSH1 0x3 NOT ADD SLT PUSH2 0x373 JUMPI PUSH8 0xFFFFFFFFFFFFFFFF PUSH1 0x44 CALLDATALOAD DUP2 DUP2 GT PUSH2 0x373 JUMPI PUSH2 0x7A SWAP1 CALLDATASIZE SWAP1 PUSH1 0x4 ADD PUSH2 0x690 JUMP JUMPDEST SWAP1 PUSH1 0x64 CALLDATALOAD DUP2 DUP2 GT PUSH2 0x373 JUMPI PUSH2 0x93 SWAP1 CALLDATASIZE SWAP1 PUSH1 0x4 ADD PUSH2 0x690 JUMP JUMPDEST SWAP1 PUSH1 0x40 MLOAD SWAP2 PUSH2 0xA1 DUP4 PUSH2 0x56D JUMP JUMPDEST PUSH1 0x4 CALLDATALOAD DUP4 MSTORE PUSH1 0x20 DUP4 ADD SWAP4 PUSH1 0x24 CALLDATALOAD DUP6 MSTORE PUSH1 0x40 DUP5 ADD SWAP1 DUP2 MSTORE PUSH1 0x60 DUP5 ADD SWAP2 DUP3 MSTORE TIMESTAMP PUSH1 0x80 DUP6 ADD MSTORE PUSH1 0x4 CALLDATALOAD PUSH1 0x0 MSTORE PUSH1 0x0 PUSH1 0x20 MSTORE PUSH1 0x40 PUSH1 0x0 KECCAK256 SWAP5 DUP5 MLOAD DUP7 SSTORE MLOAD PUSH1 0x1 DUP7 ADD SSTORE MLOAD DUP1 MLOAD SWAP1 DUP4 DUP3 GT PUSH2 0x28F JUMPI DUP2 SWAP1 PUSH2 0xF9 PUSH1 0x2 DUP9 ADD SLOAD PUSH2 0x533 JUMP JUMPDEST PUSH1 0x1F DUP2 GT PUSH2 0x31D JUMPI JUMPDEST POP PUSH1 0x20 SWAP1 PUSH1 0x1F DUP4 GT PUSH1 0x1 EQ PUSH2 0x2B0 JUMPI PUSH1 0x0 SWAP3 PUSH2 0x2A5 JUMPI JUMPDEST POP POP DUP2 PUSH1 0x1 SHL SWAP2 PUSH1 0x0 NOT SWAP1 PUSH1 0x3 SHL SHR NOT AND OR PUSH1 0x2 DUP6 ADD SSTORE JUMPDEST MLOAD DUP1 MLOAD SWAP2 DUP3 GT PUSH2 0x28F JUMPI PUSH2 0x148 PUSH1 0x3 DUP6 ADD SLOAD PUSH2 0x533 JUMP JUMPDEST PUSH1 0x1F DUP2 GT PUSH2 0x244 JUMPI JUMPDEST POP PUSH1 0x20 SWAP1 PUSH1 0x1F DUP4 GT PUSH1 0x1 EQ PUSH2 0x1D1 JUMPI SWAP2 DUP1 PUSH1 0x4 SWAP5 SWAP3 PUSH1 0x80 SWAP5 PUSH1 0x0 SWAP3 PUSH2 0x1C6 JUMPI JUMPDEST POP POP DUP2 PUSH1 0x1 SHL SWAP2 PUSH1 0x0 NOT SWAP1 PUSH1 0x3 SHL SHR NOT AND OR PUSH1 0x3 DUP6 ADD SSTORE JUMPDEST ADD MLOAD SWAP2 ADD SSTORE PUSH1 0x40 MLOAD PUSH1 0x24 CALLDATALOAD DUP2 MSTORE CALLER PUSH1 0x20 DUP3 ADD MSTORE PUSH32 0x6F2C797AC120A797CCB9FEC093C2307F005D4536440F414443F3E217BB40B2CA PUSH1 0x40 PUSH1 0x4 CALLDATALOAD SWAP3 LOG2 STOP JUMPDEST ADD MLOAD SWAP1 POP CODESIZE DUP1 PUSH2 0x171 JUMP JUMPDEST SWAP1 PUSH1 0x1F NOT DUP4 AND SWAP2 PUSH1 0x3 DUP7 ADD PUSH1 0x0 MSTORE PUSH1 0x20 PUSH1 0x0 KECCAK256 SWAP3 PUSH1 0x0 JUMPDEST DUP2 DUP2 LT PUSH2 0x22C JUMPI POP SWAP3 PUSH1 0x1 SWAP3 DUP6 SWAP3 PUSH1 0x80 SWAP7 PUSH1 0x4 SWAP9 SWAP7 LT PUSH2 0x213 JUMPI JUMPDEST POP POP POP DUP2 SHL ADD PUSH1 0x3 DUP6 ADD SSTORE PUSH2 0x189 JUMP JUMPDEST ADD MLOAD PUSH1 0x0 NOT PUSH1 0xF8 DUP5 PUSH1 0x3 SHL AND SHR NOT AND SWAP1 SSTORE CODESIZE DUP1 DUP1 PUSH2 0x203 JUMP JUMPDEST SWAP3 SWAP4 PUSH1 0x20 PUSH1 0x1 DUP2 SWAP3 DUP8 DUP7 ADD MLOAD DUP2 SSTORE ADD SWAP6 ADD SWAP4 ADD PUSH2 0x1E8 JUMP JUMPDEST PUSH1 0x3 DUP6 ADD PUSH1 0x0 MSTORE PUSH1 0x20 PUSH1 0x0 KECCAK256 PUSH1 0x1F DUP5 ADD PUSH1 0x5 SHR DUP2 ADD SWAP2 PUSH1 0x20 DUP6 LT PUSH2 0x285 JUMPI JUMPDEST PUSH1 0x1F ADD PUSH1 0x5 SHR ADD SWAP1 JUMPDEST DUP2 DUP2 LT PUSH2 0x279 JUMPI POP PUSH2 0x151 JUMP JUMPDEST PUSH1 0x0 DUP2 SSTORE PUSH1 0x1 ADD PUSH2 0x26C JUMP JUMPDEST SWAP1 SWAP2 POP DUP2 SWAP1 PUSH2 0x263 JUMP JUMPDEST PUSH4 0x4E487B71 PUSH1 0xE0 SHL PUSH1 0x0 MSTORE PUSH1 0x41 PUSH1 0x4 MSTORE PUSH1 0x24 PUSH1 0x0 REVERT JUMPDEST ADD MLOAD SWAP1 POP CODESIZE DUP1 PUSH2 0x119 JUMP JUMPDEST PUSH1 0x2 DUP9 ADD PUSH1 0x0 SWAP1 DUP2 MSTORE PUSH1 0x20 DUP2 KECCAK256 SWAP4 POP PUSH1 0x1F NOT DUP6 AND SWAP1 JUMPDEST DUP2 DUP2 LT PUSH2 0x305 JUMPI POP SWAP1 DUP5 PUSH1 0x1 SWAP6 SWAP5 SWAP4 SWAP3 LT PUSH2 0x2EC JUMPI JUMPDEST POP POP POP DUP2 SHL ADD PUSH1 0x2 DUP6 ADD SSTORE PUSH2 0x131 JUMP JUMPDEST ADD MLOAD PUSH1 0x0 NOT PUSH1 0xF8 DUP5 PUSH1 0x3 SHL AND SHR NOT AND SWAP1 SSTORE CODESIZE DUP1 DUP1 PUSH2 0x2DC JUMP JUMPDEST SWAP3 SWAP4 PUSH1 0x20 PUSH1 0x1 DUP2 SWAP3 DUP8 DUP7 ADD MLOAD DUP2 SSTORE ADD SWAP6 ADD SWAP4 ADD PUSH2 0x2C6 JUMP JUMPDEST SWAP1 SWAP2 POP PUSH1 0x2 DUP8 ADD PUSH1 0x0 MSTORE PUSH1 0x20 PUSH1 0x0 KECCAK256 PUSH1 0x1F DUP5 ADD PUSH1 0x5 SHR DUP2 ADD SWAP2 PUSH1 0x20 DUP6 LT PUSH2 0x369 JUMPI JUMPDEST SWAP1 PUSH1 0x1F DUP6 SWAP5 SWAP4 SWAP3 ADD PUSH1 0x5 SHR ADD SWAP1 JUMPDEST DUP2 DUP2 LT PUSH2 0x35A JUMPI POP PUSH2 0x102 JUMP JUMPDEST PUSH1 0x0 DUP2 SSTORE DUP5 SWAP4 POP PUSH1 0x1 ADD PUSH2 0x34D JUMP JUMPDEST SWAP1 SWAP2 POP DUP2 SWAP1 PUSH2 0x33F JUMP JUMPDEST PUSH1 0x0 DUP1 REVERT JUMPDEST CALLVALUE PUSH2 0x373 JUMPI PUSH1 0x40 CALLDATASIZE PUSH1 0x3 NOT ADD SLT PUSH2 0x373 JUMPI PUSH1 0x4 CALLDATALOAD PUSH1 0x1 PUSH1 0x1 PUSH1 0xA0 SHL SUB DUP2 AND SWAP1 DUP2 SWAP1 SUB PUSH2 0x373 JUMPI PUSH1 0x24 CALLDATALOAD SWAP1 PUSH1 0x0 MSTORE PUSH1 0x1 PUSH1 0x20 MSTORE PUSH1 0x40 PUSH1 0x0 KECCAK256 SWAP1 DUP2 SLOAD DUP2 LT ISZERO PUSH2 0x373 JUMPI PUSH1 0x20 SWAP2 PUSH1 0x0 MSTORE DUP2 PUSH1 0x0 KECCAK256 ADD SLOAD PUSH1 0x40 MLOAD SWAP1 DUP2 MSTORE RETURN JUMPDEST CALLVALUE PUSH2 0x373 JUMPI PUSH1 0x20 DUP1 PUSH1 0x3 NOT CALLDATASIZE ADD SLT PUSH2 0x373 JUMPI PUSH1 0x0 PUSH1 0x80 PUSH1 0x40 MLOAD PUSH2 0x3EF DUP2 PUSH2 0x56D JUMP JUMPDEST DUP3 DUP2 MSTORE DUP3 DUP5 DUP3 ADD MSTORE PUSH1 0x60 PUSH1 0x40 DUP3 ADD MSTORE PUSH1 0x60 DUP1 DUP3 ADD MSTORE ADD MSTORE PUSH1 0x4 CALLDATALOAD PUSH1 0x0 MSTORE PUSH1 0x0 DUP2 MSTORE PUSH1 0x40 PUSH1 0x0 KECCAK256 PUSH1 0x40 MLOAD SWAP1 PUSH2 0x422 DUP3 PUSH2 0x56D JUMP JUMPDEST DUP1 SLOAD DUP3 MSTORE PUSH2 0x4A4 PUSH1 0x1 DUP3 ADD SLOAD SWAP2 DUP5 DUP5 ADD SWAP3 DUP4 MSTORE PUSH2 0x491 PUSH2 0x444 PUSH1 0x2 DUP4 ADD PUSH2 0x5AB JUMP JUMPDEST PUSH1 0x40 DUP7 ADD SWAP1 DUP2 MSTORE PUSH1 0x4 PUSH2 0x459 PUSH1 0x3 DUP6 ADD PUSH2 0x5AB JUMP JUMPDEST SWAP4 PUSH1 0x60 DUP9 ADD SWAP5 DUP6 MSTORE ADD SLOAD SWAP5 PUSH1 0x80 DUP8 ADD SWAP6 DUP7 MSTORE PUSH1 0x40 MLOAD SWAP8 DUP9 SWAP8 DUP2 DUP10 MSTORE MLOAD SWAP1 DUP9 ADD MSTORE MLOAD PUSH1 0x40 DUP8 ADD MSTORE MLOAD PUSH1 0xA0 PUSH1 0x60 DUP8 ADD MSTORE PUSH1 0xC0 DUP7 ADD SWAP1 PUSH2 0x650 JUMP JUMPDEST SWAP1 MLOAD DUP5 DUP3 SUB PUSH1 0x1F NOT ADD PUSH1 0x80 DUP7 ADD MSTORE PUSH2 0x650 JUMP JUMPDEST SWAP1 MLOAD PUSH1 0xA0 DUP4 ADD MSTORE SUB SWAP1 RETURN JUMPDEST CALLVALUE PUSH2 0x373 JUMPI PUSH1 0x20 CALLDATASIZE PUSH1 0x3 NOT ADD SLT PUSH2 0x373 JUMPI PUSH1 0x4 CALLDATALOAD PUSH1 0x0 MSTORE PUSH1 0x0 PUSH1 0x20 MSTORE PUSH1 0x40 PUSH1 0x0 KECCAK256 DUP1 SLOAD PUSH1 0x1 DUP3 ADD SLOAD SWAP2 PUSH2 0x529 PUSH2 0x4E7 PUSH1 0x2 DUP4 ADD PUSH2 0x5AB JUMP JUMPDEST SWAP2 PUSH2 0x51B PUSH1 0x4 PUSH2 0x4F9 PUSH1 0x3 DUP5 ADD PUSH2 0x5AB JUMP JUMPDEST SWAP3 ADD SLOAD SWAP4 PUSH1 0x40 MLOAD SWAP7 DUP8 SWAP7 DUP8 MSTORE PUSH1 0x20 DUP8 ADD MSTORE PUSH1 0xA0 PUSH1 0x40 DUP8 ADD MSTORE PUSH1 0xA0 DUP7 ADD SWAP1 PUSH2 0x650 JUMP JUMPDEST SWAP1 DUP5 DUP3 SUB PUSH1 0x60 DUP7 ADD MSTORE PUSH2 0x650 JUMP JUMPDEST SWAP1 PUSH1 0x80 DUP4 ADD MSTORE SUB SWAP1 RETURN JUMPDEST SWAP1 PUSH1 0x1 DUP3 DUP2 SHR SWAP3 AND DUP1 ISZERO PUSH2 0x563 JUMPI JUMPDEST PUSH1 0x20 DUP4 LT EQ PUSH2 0x54D JUMPI JUMP JUMPDEST PUSH4 0x4E487B71 PUSH1 0xE0 SHL PUSH1 0x0 MSTORE PUSH1 0x22 PUSH1 0x4 MSTORE PUSH1 0x24 PUSH1 0x0 REVERT JUMPDEST SWAP2 PUSH1 0x7F AND SWAP2 PUSH2 0x542 JUMP JUMPDEST PUSH1 0xA0 DUP2 ADD SWAP1 DUP2 LT PUSH8 0xFFFFFFFFFFFFFFFF DUP3 GT OR PUSH2 0x28F JUMPI PUSH1 0x40 MSTORE JUMP JUMPDEST SWAP1 PUSH1 0x1F DUP1 NOT SWAP2 ADD AND DUP2 ADD SWAP1 DUP2 LT PUSH8 0xFFFFFFFFFFFFFFFF DUP3 GT OR PUSH2 0x28F JUMPI PUSH1 0x40 MSTORE JUMP JUMPDEST SWAP1 PUSH1 0x40 MLOAD SWAP2 DUP3 PUSH1 0x0 DUP3 SLOAD PUSH2 0x5BE DUP2 PUSH2 0x533 JUMP JUMPDEST SWAP1 DUP2 DUP5 MSTORE PUSH1 0x20 SWAP5 PUSH1 0x1 SWAP2 PUSH1 0x1 DUP2 AND SWAP1 DUP2 PUSH1 0x0 EQ PUSH2 0x62E JUMPI POP PUSH1 0x1 EQ PUSH2 0x5EF JUMPI JUMPDEST POP POP POP PUSH2 0x5ED SWAP3 POP SUB DUP4 PUSH2 0x589 JUMP JUMPDEST JUMP JUMPDEST PUSH1 0x0 SWAP1 DUP2 MSTORE DUP6 DUP2 KECCAK256 SWAP6 SWAP4 POP SWAP2 SWAP1 JUMPDEST DUP2 DUP4 LT PUSH2 0x616 JUMPI POP POP PUSH2 0x5ED SWAP4 POP DUP3 ADD ADD CODESIZE DUP1 DUP1 PUSH2 0x5DE JUMP JUMPDEST DUP6 SLOAD DUP9 DUP5 ADD DUP6 ADD MSTORE SWAP5 DUP6 ADD SWAP5 DUP8 SWAP5 POP SWAP2 DUP4 ADD SWAP2 PUSH2 0x5FD JUMP JUMPDEST SWAP3 POP POP POP PUSH2 0x5ED SWAP5 SWAP3 POP PUSH1 0xFF NOT AND DUP3 DUP5 ADD MSTORE ISZERO ISZERO PUSH1 0x5 SHL DUP3 ADD ADD CODESIZE DUP1 DUP1 PUSH2 0x5DE JUMP JUMPDEST SWAP2 SWAP1 DUP3 MLOAD SWAP3 DUP4 DUP3 MSTORE PUSH1 0x0 JUMPDEST DUP5 DUP2 LT PUSH2 0x67C JUMPI POP POP DUP3 PUSH1 0x0 PUSH1 0x20 DUP1 SWAP5 SWAP6 DUP5 ADD ADD MSTORE PUSH1 0x1F DUP1 NOT SWAP2 ADD AND ADD ADD SWAP1 JUMP JUMPDEST PUSH1 0x20 DUP2 DUP4 ADD DUP2 ADD MLOAD DUP5 DUP4 ADD DUP3 ADD MSTORE ADD PUSH2 0x65B JUMP JUMPDEST DUP2 PUSH1 0x1F DUP3 ADD SLT ISZERO PUSH2 0x373 JUMPI DUP1 CALLDATALOAD SWAP1 PUSH8 0xFFFFFFFFFFFFFFFF DUP3 GT PUSH2 0x28F JUMPI PUSH1 0x40 MLOAD SWAP3 PUSH2 0x6C5 PUSH1 0x1F DUP5 ADD PUSH1 0x1F NOT AND PUSH1 0x20 ADD DUP6 PUSH2 0x589 JUMP JUMPDEST DUP3 DUP5 MSTORE PUSH1 0x20 DUP4 DUP4 ADD ADD GT PUSH2 0x373 JUMPI DUP2 PUSH1 0x0 SWAP3 PUSH1 0x20 DUP1 SWAP4 ADD DUP4 DUP7 ADD CALLDATACOPY DUP4 ADD ADD MSTORE SWAP1 JUMP INVALID LOG2 PUSH5 0x6970667358 0x22 SLT KECCAK256 0x25 DUP1 AND CREATE DUP11 CALLDATACOPY 0x2A 0x2E JUMPI 0x1E 0x25 0xD5 DUP3 0xCE SGT PUSH16 0x164734EE64DC01CDF88613B456AD53E9 PUSH5 0x736F6C6343 STOP ADDMOD XOR STOP CALLER "},"methodIdentifiers":{"getInventory(uint256)":"5b298d32","inventory(uint256)":"4272ee18","updateInventory(uint256,uint256,string,string)":"a8f0aa08","userInventory(address,uint256)":"5c0529a3"}}}}}