{"contracts/LabRegistry.sol":{"LabRegistry":{"abi":[{"inputs":[{"internalType":"address","name":"_lab","type":"address"}],"name":"certifyLab","outputs":[],"stateMutability":"nonpayable","type":"function"},{"inputs":[{"internalType":"address","name":"","type":"address"}],"name":"labs","outputs":[{"internalType":"string","name":"name","type":"string"},{"internalType":"string","name":"accreditation","type":"string"},{"internalType":"address","name":"labAddress","type":"address"},{"internalType":"bool","name":"certified","type":"bool"}],"stateMutability":"view","type":"function"},{"inputs":[{"internalType":"string","name":"_name","type":"string"},{"internalType":"string","name":"_accreditation","type":"string"}],"name":"registerLab","outputs":[],"stateMutability":"nonpayable","type":"function"}],"evm":{"bytecode":{"linkReferences":{},"object":"608080604052346100165761060f908161001c8239f35b600080fdfe6040608081526004908136101561001557600080fd5b600091823560e01c8063277d58911461039a5780632ca662c71461008c57639275a1cf1461004257600080fd5b3461008857602036600319011261008857356001600160a01b03811691908290036100885790825260208290528120600201805460ff60a01b1916600160a01b17905580f35b8280fd5b5082903461039657826003193601126103965767ffffffffffffffff928135848111610392576100bf903690840161057d565b60243585811161038e576100d6903690850161057d565b825191608083018381108882111761037b578452825260208083019182528383019433865260608401948786523388528783528720935190815189811161036857806101228754610426565b93601f9485811161031c575b5085908583116001146102b9578b926102ae575b50508160011b916000199060031b1c19161785555b60019283860194519182519a8b1161029b5750896101758654610426565b848111610256575b505080928a116001146101f057509780928192899a600298999a946101e5575b50501b916000199060031b1c19161790555b92519201805491516001600160a81b03199092166001600160a01b03939093169290921790151560a01b60ff60a01b1617905580f35b015192508a8061019d565b909891601f19831699858a52828a20928a905b8c821061023f57505083600298999a9b10610226575b505050811b0190556101af565b015160001960f88460031b161c19169055888080610219565b808785968294968601518155019501930190610203565b868b5284838c20918482850160051c84019410610292575b0160051c019085905b82811061028757508b915061017d565b8b8155018590610277565b9250819261026e565b634e487b7160e01b8a5260419052602489fd5b015190508b80610142565b888c52868c209250601f1984168c5b888282106103065750509084600195949392106102ed575b505050811b018555610157565b015160001960f88460031b161c191690558b80806102e0565b60018596829396860151815501950193016102c8565b909150878b52858b208580850160051c82019288861061035f575b9085949392910160051c01905b818110610351575061012e565b8c8155849350600101610344565b92508192610337565b634e487b7160e01b895260418252602489fd5b634e487b7160e01b875260418652602487fd5b8480fd5b8380fd5b5080fd5b5034610088576020366003190112610088576001600160a01b0390358181169081900361039257828460ff92610402965280602052206103d981610498565b9361041060026103eb60018501610498565b93015492825197889760808952608089019061053d565b90878203602089015261053d565b9382169085015260a01c16151560608301520390f35b90600182811c92168015610456575b602083101461044057565b634e487b7160e01b600052602260045260246000fd5b91607f1691610435565b90601f8019910116810190811067ffffffffffffffff82111761048257604052565b634e487b7160e01b600052604160045260246000fd5b906040519182600082546104ab81610426565b9081845260209460019160018116908160001461051b57506001146104dc575b5050506104da92500383610460565b565b600090815285812095935091905b8183106105035750506104da93508201013880806104cb565b855488840185015294850194879450918301916104ea565b925050506104da94925060ff191682840152151560051b8201013880806104cb565b919082519283825260005b848110610569575050826000602080949584010152601f8019910116010190565b602081830181015184830182015201610548565b81601f820112156105d45780359067ffffffffffffffff821161048257604051926105b2601f8401601f191660200185610460565b828452602083830101116105d457816000926020809301838601378301015290565b600080fdfea264697066735822122049fbd9bce0e4e7ba1f8459c1d2d4a6b7d1548adb46740c7f534f4167c0d4146964736f6c63430008180033","opcodes":"PUSH1 0x80 DUP1 PUSH1 0x40 MSTORE CALLVALUE PUSH2 0x16 JUMPI PUSH2 0x60F SWAP1 DUP2 PUSH2 0x1C DUP3 CODECOPY RETURN JUMPDEST PUSH1 0x0 DUP1 REVERT INVALID PUSH1 0x40 PUSH1 0x80 DUP2 MSTORE PUSH1 0x4 SWAP1 DUP2 CALLDATASIZE LT ISZERO PUSH2 0x15 JUMPI PUSH1 0x0 DUP1 REVERT JUMPDEST PUSH1 0x0 SWAP2 DUP3 CALLDATALOAD PUSH1 0xE0 SHR DUP1 PUSH4 0x277D5891 EQ PUSH2 0x39A JUMPI DUP1 PUSH4 0x2CA662C7 EQ PUSH2 0x8C JUMPI PUSH4 0x9275A1CF EQ PUSH2 0x42 JUMPI PUSH1 0x0 DUP1 REVERT JUMPDEST CALLVALUE PUSH2 0x88 JUMPI PUSH1 0x20 CALLDATASIZE PUSH1 0x3 NOT ADD SLT PUSH2 0x88 JUMPI CALLDATALOAD PUSH1 0x1 PUSH1 0x1 PUSH1 0xA0 SHL SUB DUP2 AND SWAP2 SWAP1 DUP3 SWAP1 SUB PUSH2 0x88 JUMPI SWAP1 DUP3 MSTORE PUSH1 0x20 DUP3 SWAP1 MSTORE DUP2 KECCAK256 PUSH1 0x2 ADD DUP1 SLOAD PUSH1 0xFF PUSH1 0xA0 SHL NOT AND PUSH1 0x1 PUSH1 0xA0 SHL OR SWAP1 SSTORE DUP1 RETURN JUMPDEST DUP3 DUP1 REVERT JUMPDEST POP DUP3 SWAP1 CALLVALUE PUSH2 0x396 JUMPI DUP3 PUSH1 0x3 NOT CALLDATASIZE ADD SLT PUSH2 0x396 JUMPI PUSH8 0xFFFFFFFFFFFFFFFF SWAP3 DUP2 CALLDATALOAD DUP5 DUP2 GT PUSH2 0x392 JUMPI PUSH2 0xBF SWAP1 CALLDATASIZE SWAP1 DUP5 ADD PUSH2 0x57D JUMP JUMPDEST PUSH1 0x24 CALLDATALOAD DUP6 DUP2 GT PUSH2 0x38E JUMPI PUSH2 0xD6 SWAP1 CALLDATASIZE SWAP1 DUP6 ADD PUSH2 0x57D JUMP JUMPDEST DUP3 MLOAD SWAP2 PUSH1 0x80 DUP4 ADD DUP4 DUP2 LT DUP9 DUP3 GT OR PUSH2 0x37B JUMPI DUP5 MSTORE DUP3 MSTORE PUSH1 0x20 DUP1 DUP4 ADD SWAP2 DUP3 MSTORE DUP4 DUP4 ADD SWAP5 CALLER DUP7 MSTORE PUSH1 0x60 DUP5 ADD SWAP5 DUP8 DUP7 MSTORE CALLER DUP9 MSTORE DUP8 DUP4 MSTORE DUP8 KECCAK256 SWAP4 MLOAD SWAP1 DUP2 MLOAD DUP10 DUP2 GT PUSH2 0x368 JUMPI DUP1 PUSH2 0x122 DUP8 SLOAD PUSH2 0x426 JUMP JUMPDEST SWAP4 PUSH1 0x1F SWAP5 DUP6 DUP2 GT PUSH2 0x31C JUMPI JUMPDEST POP DUP6 SWAP1 DUP6 DUP4 GT PUSH1 0x1 EQ PUSH2 0x2B9 JUMPI DUP12 SWAP3 PUSH2 0x2AE JUMPI JUMPDEST POP POP DUP2 PUSH1 0x1 SHL SWAP2 PUSH1 0x0 NOT SWAP1 PUSH1 0x3 SHL SHR NOT AND OR DUP6 SSTORE JUMPDEST PUSH1 0x1 SWAP3 DUP4 DUP7 ADD SWAP5 MLOAD SWAP2 DUP3 MLOAD SWAP11 DUP12 GT PUSH2 0x29B JUMPI POP DUP10 PUSH2 0x175 DUP7 SLOAD PUSH2 0x426 JUMP JUMPDEST DUP5 DUP2 GT PUSH2 0x256 JUMPI JUMPDEST POP POP DUP1 SWAP3 DUP11 GT PUSH1 0x1 EQ PUSH2 0x1F0 JUMPI POP SWAP8 DUP1 SWAP3 DUP2 SWAP3 DUP10 SWAP11 PUSH1 0x2 SWAP9 SWAP10 SWAP11 SWAP5 PUSH2 0x1E5 JUMPI JUMPDEST POP POP SHL SWAP2 PUSH1 0x0 NOT SWAP1 PUSH1 0x3 SHL SHR NOT AND OR SWAP1 SSTORE JUMPDEST SWAP3 MLOAD SWAP3 ADD DUP1 SLOAD SWAP2 MLOAD PUSH1 0x1 PUSH1 0x1 PUSH1 0xA8 SHL SUB NOT SWAP1 SWAP3 AND PUSH1 0x1 PUSH1 0x1 PUSH1 0xA0 SHL SUB SWAP4 SWAP1 SWAP4 AND SWAP3 SWAP1 SWAP3 OR SWAP1 ISZERO ISZERO PUSH1 0xA0 SHL PUSH1 0xFF PUSH1 0xA0 SHL AND OR SWAP1 SSTORE DUP1 RETURN JUMPDEST ADD MLOAD SWAP3 POP DUP11 DUP1 PUSH2 0x19D JUMP JUMPDEST SWAP1 SWAP9 SWAP2 PUSH1 0x1F NOT DUP4 AND SWAP10 DUP6 DUP11 MSTORE DUP3 DUP11 KECCAK256 SWAP3 DUP11 SWAP1 JUMPDEST DUP13 DUP3 LT PUSH2 0x23F JUMPI POP POP DUP4 PUSH1 0x2 SWAP9 SWAP10 SWAP11 SWAP12 LT PUSH2 0x226 JUMPI JUMPDEST POP POP POP DUP2 SHL ADD SWAP1 SSTORE PUSH2 0x1AF JUMP JUMPDEST ADD MLOAD PUSH1 0x0 NOT PUSH1 0xF8 DUP5 PUSH1 0x3 SHL AND SHR NOT AND SWAP1 SSTORE DUP9 DUP1 DUP1 PUSH2 0x219 JUMP JUMPDEST DUP1 DUP8 DUP6 SWAP7 DUP3 SWAP5 SWAP7 DUP7 ADD MLOAD DUP2 SSTORE ADD SWAP6 ADD SWAP4 ADD SWAP1 PUSH2 0x203 JUMP JUMPDEST DUP7 DUP12 MSTORE DUP5 DUP4 DUP13 KECCAK256 SWAP2 DUP5 DUP3 DUP6 ADD PUSH1 0x5 SHR DUP5 ADD SWAP5 LT PUSH2 0x292 JUMPI JUMPDEST ADD PUSH1 0x5 SHR ADD SWAP1 DUP6 SWAP1 JUMPDEST DUP3 DUP2 LT PUSH2 0x287 JUMPI POP DUP12 SWAP2 POP PUSH2 0x17D JUMP JUMPDEST DUP12 DUP2 SSTORE ADD DUP6 SWAP1 PUSH2 0x277 JUMP JUMPDEST SWAP3 POP DUP2 SWAP3 PUSH2 0x26E JUMP JUMPDEST PUSH4 0x4E487B71 PUSH1 0xE0 SHL DUP11 MSTORE PUSH1 0x41 SWAP1 MSTORE PUSH1 0x24 DUP10 REVERT JUMPDEST ADD MLOAD SWAP1 POP DUP12 DUP1 PUSH2 0x142 JUMP JUMPDEST DUP9 DUP13 MSTORE DUP7 DUP13 KECCAK256 SWAP3 POP PUSH1 0x1F NOT DUP5 AND DUP13 JUMPDEST DUP9 DUP3 DUP3 LT PUSH2 0x306 JUMPI POP POP SWAP1 DUP5 PUSH1 0x1 SWAP6 SWAP5 SWAP4 SWAP3 LT PUSH2 0x2ED JUMPI JUMPDEST POP POP POP DUP2 SHL ADD DUP6 SSTORE PUSH2 0x157 JUMP JUMPDEST ADD MLOAD PUSH1 0x0 NOT PUSH1 0xF8 DUP5 PUSH1 0x3 SHL AND SHR NOT AND SWAP1 SSTORE DUP12 DUP1 DUP1 PUSH2 0x2E0 JUMP JUMPDEST PUSH1 0x1 DUP6 SWAP7 DUP3 SWAP4 SWAP7 DUP7 ADD MLOAD DUP2 SSTORE ADD SWAP6 ADD SWAP4 ADD PUSH2 0x2C8 JUMP JUMPDEST SWAP1 SWAP2 POP DUP8 DUP12 MSTORE DUP6 DUP12 KECCAK256 DUP6 DUP1 DUP6 ADD PUSH1 0x5 SHR DUP3 ADD SWAP3 DUP9 DUP7 LT PUSH2 0x35F JUMPI JUMPDEST SWAP1 DUP6 SWAP5 SWAP4 SWAP3 SWAP2 ADD PUSH1 0x5 SHR ADD SWAP1 JUMPDEST DUP2 DUP2 LT PUSH2 0x351 JUMPI POP PUSH2 0x12E JUMP JUMPDEST DUP13 DUP2 SSTORE DUP5 SWAP4 POP PUSH1 0x1 ADD PUSH2 0x344 JUMP JUMPDEST SWAP3 POP DUP2 SWAP3 PUSH2 0x337 JUMP JUMPDEST PUSH4 0x4E487B71 PUSH1 0xE0 SHL DUP10 MSTORE PUSH1 0x41 DUP3 MSTORE PUSH1 0x24 DUP10 REVERT JUMPDEST PUSH4 0x4E487B71 PUSH1 0xE0 SHL DUP8 MSTORE PUSH1 0x41 DUP7 MSTORE PUSH1 0x24 DUP8 REVERT JUMPDEST DUP5 DUP1 REVERT JUMPDEST DUP4 DUP1 REVERT JUMPDEST POP DUP1 REVERT JUMPDEST POP CALLVALUE PUSH2 0x88 JUMPI PUSH1 0x20 CALLDATASIZE PUSH1 0x3 NOT ADD SLT PUSH2 0x88 JUMPI PUSH1 0x1 PUSH1 0x1 PUSH1 0xA0 SHL SUB SWAP1 CALLDATALOAD DUP2 DUP2 AND SWAP1 DUP2 SWAP1 SUB PUSH2 0x392 JUMPI DUP3 DUP5 PUSH1 0xFF SWAP3 PUSH2 0x402 SWAP7 MSTORE DUP1 PUSH1 0x20 MSTORE KECCAK256 PUSH2 0x3D9 DUP2 PUSH2 0x498 JUMP JUMPDEST SWAP4 PUSH2 0x410 PUSH1 0x2 PUSH2 0x3EB PUSH1 0x1 DUP6 ADD PUSH2 0x498 JUMP JUMPDEST SWAP4 ADD SLOAD SWAP3 DUP3 MLOAD SWAP8 DUP9 SWAP8 PUSH1 0x80 DUP10 MSTORE PUSH1 0x80 DUP10 ADD SWAP1 PUSH2 0x53D JUMP JUMPDEST SWAP1 DUP8 DUP3 SUB PUSH1 0x20 DUP10 ADD MSTORE PUSH2 0x53D JUMP JUMPDEST SWAP4 DUP3 AND SWAP1 DUP6 ADD MSTORE PUSH1 0xA0 SHR AND ISZERO ISZERO PUSH1 0x60 DUP4 ADD MSTORE SUB SWAP1 RETURN JUMPDEST SWAP1 PUSH1 0x1 DUP3 DUP2 SHR SWAP3 AND DUP1 ISZERO PUSH2 0x456 JUMPI JUMPDEST PUSH1 0x20 DUP4 LT EQ PUSH2 0x440 JUMPI JUMP JUMPDEST PUSH4 0x4E487B71 PUSH1 0xE0 SHL PUSH1 0x0 MSTORE PUSH1 0x22 PUSH1 0x4 MSTORE PUSH1 0x24 PUSH1 0x0 REVERT JUMPDEST SWAP2 PUSH1 0x7F AND SWAP2 PUSH2 0x435 JUMP JUMPDEST SWAP1 PUSH1 0x1F DUP1 NOT SWAP2 ADD AND DUP2 ADD SWAP1 DUP2 LT PUSH8 0xFFFFFFFFFFFFFFFF DUP3 GT OR PUSH2 0x482 JUMPI PUSH1 0x40 MSTORE JUMP JUMPDEST PUSH4 0x4E487B71 PUSH1 0xE0 SHL PUSH1 0x0 MSTORE PUSH1 0x41 PUSH1 0x4 MSTORE PUSH1 0x24 PUSH1 0x0 REVERT JUMPDEST SWAP1 PUSH1 0x40 MLOAD SWAP2 DUP3 PUSH1 0x0 DUP3 SLOAD PUSH2 0x4AB DUP2 PUSH2 0x426 JUMP JUMPDEST SWAP1 DUP2 DUP5 MSTORE PUSH1 0x20 SWAP5 PUSH1 0x1 SWAP2 PUSH1 0x1 DUP2 AND SWAP1 DUP2 PUSH1 0x0 EQ PUSH2 0x51B JUMPI POP PUSH1 0x1 EQ PUSH2 0x4DC JUMPI JUMPDEST POP POP POP PUSH2 0x4DA SWAP3 POP SUB DUP4 PUSH2 0x460 JUMP JUMPDEST JUMP JUMPDEST PUSH1 0x0 SWAP1 DUP2 MSTORE DUP6 DUP2 KECCAK256 SWAP6 SWAP4 POP SWAP2 SWAP1 JUMPDEST DUP2 DUP4 LT PUSH2 0x503 JUMPI POP POP PUSH2 0x4DA SWAP4 POP DUP3 ADD ADD CODESIZE DUP1 DUP1 PUSH2 0x4CB JUMP JUMPDEST DUP6 SLOAD DUP9 DUP5 ADD DUP6 ADD MSTORE SWAP5 DUP6 ADD SWAP5 DUP8 SWAP5 POP SWAP2 DUP4 ADD SWAP2 PUSH2 0x4EA JUMP JUMPDEST SWAP3 POP POP POP PUSH2 0x4DA SWAP5 SWAP3 POP PUSH1 0xFF NOT AND DUP3 DUP5 ADD MSTORE ISZERO ISZERO PUSH1 0x5 SHL DUP3 ADD ADD CODESIZE DUP1 DUP1 PUSH2 0x4CB JUMP JUMPDEST SWAP2 SWAP1 DUP3 MLOAD SWAP3 DUP4 DUP3 MSTORE PUSH1 0x0 JUMPDEST DUP5 DUP2 LT PUSH2 0x569 JUMPI POP POP DUP3 PUSH1 0x0 PUSH1 0x20 DUP1 SWAP5 SWAP6 DUP5 ADD ADD MSTORE PUSH1 0x1F DUP1 NOT SWAP2 ADD AND ADD ADD SWAP1 JUMP JUMPDEST PUSH1 0x20 DUP2 DUP4 ADD DUP2 ADD MLOAD DUP5 DUP4 ADD DUP3 ADD MSTORE ADD PUSH2 0x548 JUMP JUMPDEST DUP2 PUSH1 0x1F DUP3 ADD SLT ISZERO PUSH2 0x5D4 JUMPI DUP1 CALLDATALOAD SWAP1 PUSH8 0xFFFFFFFFFFFFFFFF DUP3 GT PUSH2 0x482 JUMPI PUSH1 0x40 MLOAD SWAP3 PUSH2 0x5B2 PUSH1 0x1F DUP5 ADD PUSH1 0x1F NOT AND PUSH1 0x20 ADD DUP6 PUSH2 0x460 JUMP JUMPDEST DUP3 DUP5 MSTORE PUSH1 0x20 DUP4 DUP4 ADD ADD GT PUSH2 0x5D4 JUMPI DUP2 PUSH1 0x0 SWAP3 PUSH1 0x20 DUP1 SWAP4 ADD DUP4 DUP7 ADD CALLDATACOPY DUP4 ADD ADD MSTORE SWAP1 JUMP JUMPDEST PUSH1 0x0 DUP1 REVERT INVALID LOG2 PUSH5 0x6970667358 0x22 SLT KECCAK256 BLOBHASH 0xFB 0xD9 0xBC 0xE0 0xE4 0xE7 0xBA 0x1F DUP5 MSIZE 0xC1 0xD2 0xD4 0xA6 0xB7 0xD1 SLOAD DUP11 0xDB CHAINID PUSH21 0xC7F534F4167C0D4146964736F6C63430008180033 "},"methodIdentifiers":{"certifyLab(address)":"9275a1cf","labs(address)":"277d5891","registerLab(string,string)":"2ca662c7"}}}}}