{"contracts/BatchProcessor.sol":{"BatchProcessor":{"abi":[{"anonymous":false,"inputs":[{"indexed":true,"internalType":"bytes32","name":"opId","type":"bytes32"},{"indexed":false,"internalType":"address","name":"operator","type":"address"},{"indexed":false,"internalType":"uint256","name":"count","type":"uint256"}],"name":"BatchOperationCreated","type":"event"},{"inputs":[{"internalType":"uint256[]","name":"_batchIds","type":"uint256[]"},{"internalType":"string","name":"_opType","type":"string"}],"name":"createBatchOperation","outputs":[{"internalType":"bytes32","name":"","type":"bytes32"}],"stateMutability":"nonpayable","type":"function"},{"inputs":[{"internalType":"bytes32","name":"_opId","type":"bytes32"}],"name":"getOperation","outputs":[{"components":[{"internalType":"uint256[]","name":"batchTokenIds","type":"uint256[]"},{"internalType":"address","name":"operator","type":"address"},{"internalType":"string","name":"operationType","type":"string"},{"internalType":"uint256","name":"timestamp","type":"uint256"}],"internalType":"struct BatchProcessor.BatchOperation","name":"","type":"tuple"}],"stateMutability":"view","type":"function"},{"inputs":[{"internalType":"bytes32","name":"","type":"bytes32"}],"name":"operations","outputs":[{"internalType":"address","name":"operator","type":"address"},{"internalType":"string","name":"operationType","type":"string"},{"internalType":"uint256","name":"timestamp","type":"uint256"}],"stateMutability":"view","type":"function"}],"evm":{"bytecode":{"linkReferences":{},"object":"6080806040523461001657610752908161001c8239f35b600080fdfe6080604081815260048036101561001557600080fd5b600092833560e01c908163279412c514610468575080636a1f3bbe146100a75763c74f349b1461004457600080fd5b346100a35760203660031901126100a35791819235815280602052209060018060a01b0360018301541690600361007d60028501610660565b93015461009b82519485948552606060208601526060850190610592565b918301520390f35b8280fd5b5091903461046457806003193601126104645782359267ffffffffffffffff90818511610460573660238601121561046057848101359060249280831161044e578260051b906020978651946100ff8a850187610604565b8552888501868194830101913683116104255790878b9201905b83821061043f575050505084359181831161043b573660238401121561043b57828401358281116104295787519361015a601f8301601f19168c0186610604565b8185523688838301011161042557818a92898d9301838801378501015284511561041357519286519089820194855242888301528782526060820194828610848711176104015785895282519020986101b2866105d2565b86865260c0608084019333855260a0810196875201974289528a8252818c5289822096518051908682116103ef576801000000000000000082116103ef578d908954838b558084106103d5575b50018884528d80852090855b8481106103c2575050505050600193600188019060018060a01b039051166bffffffffffffffffffffffff60a01b8254161790556002870195519283519586116103b1575050918895939185936102648c999754610626565b8d601f8211610378575b50508c92601f85116001146102e45750926003949281927fe8b3eeeeaf94ca4c4b7a12437bdfd802183f168230ce2a9ce7272f9de5f425c49a9b95926102d9575b50508160011b9160001990861b1c19161790555b519101555181519033825287820152a251908152f35b0151905038806102af565b8582528d82209a9594939291601f198516918f5b83831061035b5750505099600192849260039796957fe8b3eeeeaf94ca4c4b7a12437bdfd802183f168230ce2a9ce7272f9de5f425c49c9d10610343575b505050811b0190556102c3565b015160001983881b60f8161c19169055388080610336565b848601518e559c81019c8f9c508e9b5094850194918201916102f8565b8683528083206103a092601f880160051c82019288106103a7575b601f0160051c0190610705565b388d61026e565b9091508190610393565b634e487b7160e01b83526041905281fd5b8351838201559201918f9060010161020b565b8a86528286206103e9918101908501610705565b386101ff565b634e487b7160e01b8452604185528284fd5b634e487b7160e01b8a5260418252878afd5b634e487b7160e01b8852603284528588fd5b8980fd5b634e487b7160e01b8952604185528689fd5b8780fd5b81358152908201908201610119565b634e487b7160e01b8652604182528386fd5b8380fd5b5080fd5b9291905034610460578360209384600319360112610464579060608261048f8395946105d2565b8181528287820152818682015201523581528083528181208251926104b3846105d2565b8051825480825283855286852087830191865b81811061057e57505050816104dc910382610604565b845260018060a01b036001938160018501541690878701918252600361050460028701610660565b958589019687520154956060880196875284519789895260a089019051996080818b01528a518092528060c08b019b01935b82811061056b578a808b6105608f8d8d8d8d51169086015251601f19858303016060860152610592565b905160808301520390f35b84518c529a81019a938101938301610536565b8254845292890192600192830192016104c6565b919082519283825260005b8481106105be575050826000602080949584010152601f8019910116010190565b60208183018101518483018201520161059d565b6080810190811067ffffffffffffffff8211176105ee57604052565b634e487b7160e01b600052604160045260246000fd5b90601f8019910116810190811067ffffffffffffffff8211176105ee57604052565b90600182811c92168015610656575b602083101461064057565b634e487b7160e01b600052602260045260246000fd5b91607f1691610635565b9060405191826000825461067381610626565b908184526020946001916001811690816000146106e357506001146106a4575b5050506106a292500383610604565b565b600090815285812095935091905b8183106106cb5750506106a29350820101388080610693565b855488840185015294850194879450918301916106b2565b925050506106a294925060ff191682840152151560051b820101388080610693565b818110610710575050565b6000815560010161070556fea26469706673582212208f53162977b3acafff6b1a5ae33c2ff2bf3f05ca18af2f37d79d2e9e4f9b00fa64736f6c63430008180033","opcodes":"PUSH1 0x80 DUP1 PUSH1 0x40 MSTORE CALLVALUE PUSH2 0x16 JUMPI PUSH2 0x752 SWAP1 DUP2 PUSH2 0x1C DUP3 CODECOPY RETURN JUMPDEST PUSH1 0x0 DUP1 REVERT INVALID PUSH1 0x80 PUSH1 0x40 DUP2 DUP2 MSTORE PUSH1 0x4 DUP1 CALLDATASIZE LT ISZERO PUSH2 0x15 JUMPI PUSH1 0x0 DUP1 REVERT JUMPDEST PUSH1 0x0 SWAP3 DUP4 CALLDATALOAD PUSH1 0xE0 SHR SWAP1 DUP2 PUSH4 0x279412C5 EQ PUSH2 0x468 JUMPI POP DUP1 PUSH4 0x6A1F3BBE EQ PUSH2 0xA7 JUMPI PUSH4 0xC74F349B EQ PUSH2 0x44 JUMPI PUSH1 0x0 DUP1 REVERT JUMPDEST CALLVALUE PUSH2 0xA3 JUMPI PUSH1 0x20 CALLDATASIZE PUSH1 0x3 NOT ADD SLT PUSH2 0xA3 JUMPI SWAP2 DUP2 SWAP3 CALLDATALOAD DUP2 MSTORE DUP1 PUSH1 0x20 MSTORE KECCAK256 SWAP1 PUSH1 0x1 DUP1 PUSH1 0xA0 SHL SUB PUSH1 0x1 DUP4 ADD SLOAD AND SWAP1 PUSH1 0x3 PUSH2 0x7D PUSH1 0x2 DUP6 ADD PUSH2 0x660 JUMP JUMPDEST SWAP4 ADD SLOAD PUSH2 0x9B DUP3 MLOAD SWAP5 DUP6 SWAP5 DUP6 MSTORE PUSH1 0x60 PUSH1 0x20 DUP7 ADD MSTORE PUSH1 0x60 DUP6 ADD SWAP1 PUSH2 0x592 JUMP JUMPDEST SWAP2 DUP4 ADD MSTORE SUB SWAP1 RETURN JUMPDEST DUP3 DUP1 REVERT JUMPDEST POP SWAP2 SWAP1 CALLVALUE PUSH2 0x464 JUMPI DUP1 PUSH1 0x3 NOT CALLDATASIZE ADD SLT PUSH2 0x464 JUMPI DUP3 CALLDATALOAD SWAP3 PUSH8 0xFFFFFFFFFFFFFFFF SWAP1 DUP2 DUP6 GT PUSH2 0x460 JUMPI CALLDATASIZE PUSH1 0x23 DUP7 ADD SLT ISZERO PUSH2 0x460 JUMPI DUP5 DUP2 ADD CALLDATALOAD SWAP1 PUSH1 0x24 SWAP3 DUP1 DUP4 GT PUSH2 0x44E JUMPI DUP3 PUSH1 0x5 SHL SWAP1 PUSH1 0x20 SWAP8 DUP7 MLOAD SWAP5 PUSH2 0xFF DUP11 DUP6 ADD DUP8 PUSH2 0x604 JUMP JUMPDEST DUP6 MSTORE DUP9 DUP6 ADD DUP7 DUP2 SWAP5 DUP4 ADD ADD SWAP2 CALLDATASIZE DUP4 GT PUSH2 0x425 JUMPI SWAP1 DUP8 DUP12 SWAP3 ADD SWAP1 JUMPDEST DUP4 DUP3 LT PUSH2 0x43F JUMPI POP POP POP POP DUP5 CALLDATALOAD SWAP2 DUP2 DUP4 GT PUSH2 0x43B JUMPI CALLDATASIZE PUSH1 0x23 DUP5 ADD SLT ISZERO PUSH2 0x43B JUMPI DUP3 DUP5 ADD CALLDATALOAD DUP3 DUP2 GT PUSH2 0x429 JUMPI DUP8 MLOAD SWAP4 PUSH2 0x15A PUSH1 0x1F DUP4 ADD PUSH1 0x1F NOT AND DUP13 ADD DUP7 PUSH2 0x604 JUMP JUMPDEST DUP2 DUP6 MSTORE CALLDATASIZE DUP9 DUP4 DUP4 ADD ADD GT PUSH2 0x425 JUMPI DUP2 DUP11 SWAP3 DUP10 DUP14 SWAP4 ADD DUP4 DUP9 ADD CALLDATACOPY DUP6 ADD ADD MSTORE DUP5 MLOAD ISZERO PUSH2 0x413 JUMPI MLOAD SWAP3 DUP7 MLOAD SWAP1 DUP10 DUP3 ADD SWAP5 DUP6 MSTORE TIMESTAMP DUP9 DUP4 ADD MSTORE DUP8 DUP3 MSTORE PUSH1 0x60 DUP3 ADD SWAP5 DUP3 DUP7 LT DUP5 DUP8 GT OR PUSH2 0x401 JUMPI DUP6 DUP10 MSTORE DUP3 MLOAD SWAP1 KECCAK256 SWAP9 PUSH2 0x1B2 DUP7 PUSH2 0x5D2 JUMP JUMPDEST DUP7 DUP7 MSTORE PUSH1 0xC0 PUSH1 0x80 DUP5 ADD SWAP4 CALLER DUP6 MSTORE PUSH1 0xA0 DUP2 ADD SWAP7 DUP8 MSTORE ADD SWAP8 TIMESTAMP DUP10 MSTORE DUP11 DUP3 MSTORE DUP2 DUP13 MSTORE DUP10 DUP3 KECCAK256 SWAP7 MLOAD DUP1 MLOAD SWAP1 DUP7 DUP3 GT PUSH2 0x3EF JUMPI PUSH9 0x10000000000000000 DUP3 GT PUSH2 0x3EF JUMPI DUP14 SWAP1 DUP10 SLOAD DUP4 DUP12 SSTORE DUP1 DUP5 LT PUSH2 0x3D5 JUMPI JUMPDEST POP ADD DUP9 DUP5 MSTORE DUP14 DUP1 DUP6 KECCAK256 SWAP1 DUP6 JUMPDEST DUP5 DUP2 LT PUSH2 0x3C2 JUMPI POP POP POP POP POP PUSH1 0x1 SWAP4 PUSH1 0x1 DUP9 ADD SWAP1 PUSH1 0x1 DUP1 PUSH1 0xA0 SHL SUB SWAP1 MLOAD AND PUSH12 0xFFFFFFFFFFFFFFFFFFFFFFFF PUSH1 0xA0 SHL DUP3 SLOAD AND OR SWAP1 SSTORE PUSH1 0x2 DUP8 ADD SWAP6 MLOAD SWAP3 DUP4 MLOAD SWAP6 DUP7 GT PUSH2 0x3B1 JUMPI POP POP SWAP2 DUP9 SWAP6 SWAP4 SWAP2 DUP6 SWAP4 PUSH2 0x264 DUP13 SWAP10 SWAP8 SLOAD PUSH2 0x626 JUMP JUMPDEST DUP14 PUSH1 0x1F DUP3 GT PUSH2 0x378 JUMPI JUMPDEST POP POP DUP13 SWAP3 PUSH1 0x1F DUP6 GT PUSH1 0x1 EQ PUSH2 0x2E4 JUMPI POP SWAP3 PUSH1 0x3 SWAP5 SWAP3 DUP2 SWAP3 PUSH32 0xE8B3EEEEAF94CA4C4B7A12437BDFD802183F168230CE2A9CE7272F9DE5F425C4 SWAP11 SWAP12 SWAP6 SWAP3 PUSH2 0x2D9 JUMPI JUMPDEST POP POP DUP2 PUSH1 0x1 SHL SWAP2 PUSH1 0x0 NOT SWAP1 DUP7 SHL SHR NOT AND OR SWAP1 SSTORE JUMPDEST MLOAD SWAP2 ADD SSTORE MLOAD DUP2 MLOAD SWAP1 CALLER DUP3 MSTORE DUP8 DUP3 ADD MSTORE LOG2 MLOAD SWAP1 DUP2 MSTORE RETURN JUMPDEST ADD MLOAD SWAP1 POP CODESIZE DUP1 PUSH2 0x2AF JUMP JUMPDEST DUP6 DUP3 MSTORE DUP14 DUP3 KECCAK256 SWAP11 SWAP6 SWAP5 SWAP4 SWAP3 SWAP2 PUSH1 0x1F NOT DUP6 AND SWAP2 DUP16 JUMPDEST DUP4 DUP4 LT PUSH2 0x35B JUMPI POP POP POP SWAP10 PUSH1 0x1 SWAP3 DUP5 SWAP3 PUSH1 0x3 SWAP8 SWAP7 SWAP6 PUSH32 0xE8B3EEEEAF94CA4C4B7A12437BDFD802183F168230CE2A9CE7272F9DE5F425C4 SWAP13 SWAP14 LT PUSH2 0x343 JUMPI JUMPDEST POP POP POP DUP2 SHL ADD SWAP1 SSTORE PUSH2 0x2C3 JUMP JUMPDEST ADD MLOAD PUSH1 0x0 NOT DUP4 DUP9 SHL PUSH1 0xF8 AND SHR NOT AND SWAP1 SSTORE CODESIZE DUP1 DUP1 PUSH2 0x336 JUMP JUMPDEST DUP5 DUP7 ADD MLOAD DUP15 SSTORE SWAP13 DUP2 ADD SWAP13 DUP16 SWAP13 POP DUP15 SWAP12 POP SWAP5 DUP6 ADD SWAP5 SWAP2 DUP3 ADD SWAP2 PUSH2 0x2F8 JUMP JUMPDEST DUP7 DUP4 MSTORE DUP1 DUP4 KECCAK256 PUSH2 0x3A0 SWAP3 PUSH1 0x1F DUP9 ADD PUSH1 0x5 SHR DUP3 ADD SWAP3 DUP9 LT PUSH2 0x3A7 JUMPI JUMPDEST PUSH1 0x1F ADD PUSH1 0x5 SHR ADD SWAP1 PUSH2 0x705 JUMP JUMPDEST CODESIZE DUP14 PUSH2 0x26E JUMP JUMPDEST SWAP1 SWAP2 POP DUP2 SWAP1 PUSH2 0x393 JUMP JUMPDEST PUSH4 0x4E487B71 PUSH1 0xE0 SHL DUP4 MSTORE PUSH1 0x41 SWAP1 MSTORE DUP2 REVERT JUMPDEST DUP4 MLOAD DUP4 DUP3 ADD SSTORE SWAP3 ADD SWAP2 DUP16 SWAP1 PUSH1 0x1 ADD PUSH2 0x20B JUMP JUMPDEST DUP11 DUP7 MSTORE DUP3 DUP7 KECCAK256 PUSH2 0x3E9 SWAP2 DUP2 ADD SWAP1 DUP6 ADD PUSH2 0x705 JUMP JUMPDEST CODESIZE PUSH2 0x1FF JUMP JUMPDEST PUSH4 0x4E487B71 PUSH1 0xE0 SHL DUP5 MSTORE PUSH1 0x41 DUP6 MSTORE DUP3 DUP5 REVERT JUMPDEST PUSH4 0x4E487B71 PUSH1 0xE0 SHL DUP11 MSTORE PUSH1 0x41 DUP3 MSTORE DUP8 DUP11 REVERT JUMPDEST PUSH4 0x4E487B71 PUSH1 0xE0 SHL DUP9 MSTORE PUSH1 0x32 DUP5 MSTORE DUP6 DUP9 REVERT JUMPDEST DUP10 DUP1 REVERT JUMPDEST PUSH4 0x4E487B71 PUSH1 0xE0 SHL DUP10 MSTORE PUSH1 0x41 DUP6 MSTORE DUP7 DUP10 REVERT JUMPDEST DUP8 DUP1 REVERT JUMPDEST DUP2 CALLDATALOAD DUP2 MSTORE SWAP1 DUP3 ADD SWAP1 DUP3 ADD PUSH2 0x119 JUMP JUMPDEST PUSH4 0x4E487B71 PUSH1 0xE0 SHL DUP7 MSTORE PUSH1 0x41 DUP3 MSTORE DUP4 DUP7 REVERT JUMPDEST DUP4 DUP1 REVERT JUMPDEST POP DUP1 REVERT JUMPDEST SWAP3 SWAP2 SWAP1 POP CALLVALUE PUSH2 0x460 JUMPI DUP4 PUSH1 0x20 SWAP4 DUP5 PUSH1 0x3 NOT CALLDATASIZE ADD SLT PUSH2 0x464 JUMPI SWAP1 PUSH1 0x60 DUP3 PUSH2 0x48F DUP4 SWAP6 SWAP5 PUSH2 0x5D2 JUMP JUMPDEST DUP2 DUP2 MSTORE DUP3 DUP8 DUP3 ADD MSTORE DUP2 DUP7 DUP3 ADD MSTORE ADD MSTORE CALLDATALOAD DUP2 MSTORE DUP1 DUP4 MSTORE DUP2 DUP2 KECCAK256 DUP3 MLOAD SWAP3 PUSH2 0x4B3 DUP5 PUSH2 0x5D2 JUMP JUMPDEST DUP1 MLOAD DUP3 SLOAD DUP1 DUP3 MSTORE DUP4 DUP6 MSTORE DUP7 DUP6 KECCAK256 DUP8 DUP4 ADD SWAP2 DUP7 JUMPDEST DUP2 DUP2 LT PUSH2 0x57E JUMPI POP POP POP DUP2 PUSH2 0x4DC SWAP2 SUB DUP3 PUSH2 0x604 JUMP JUMPDEST DUP5 MSTORE PUSH1 0x1 DUP1 PUSH1 0xA0 SHL SUB PUSH1 0x1 SWAP4 DUP2 PUSH1 0x1 DUP6 ADD SLOAD AND SWAP1 DUP8 DUP8 ADD SWAP2 DUP3 MSTORE PUSH1 0x3 PUSH2 0x504 PUSH1 0x2 DUP8 ADD PUSH2 0x660 JUMP JUMPDEST SWAP6 DUP6 DUP10 ADD SWAP7 DUP8 MSTORE ADD SLOAD SWAP6 PUSH1 0x60 DUP9 ADD SWAP7 DUP8 MSTORE DUP5 MLOAD SWAP8 DUP10 DUP10 MSTORE PUSH1 0xA0 DUP10 ADD SWAP1 MLOAD SWAP10 PUSH1 0x80 DUP2 DUP12 ADD MSTORE DUP11 MLOAD DUP1 SWAP3 MSTORE DUP1 PUSH1 0xC0 DUP12 ADD SWAP12 ADD SWAP4 JUMPDEST DUP3 DUP2 LT PUSH2 0x56B JUMPI DUP11 DUP1 DUP12 PUSH2 0x560 DUP16 DUP14 DUP14 DUP14 DUP14 MLOAD AND SWAP1 DUP7 ADD MSTORE MLOAD PUSH1 0x1F NOT DUP6 DUP4 SUB ADD PUSH1 0x60 DUP7 ADD MSTORE PUSH2 0x592 JUMP JUMPDEST SWAP1 MLOAD PUSH1 0x80 DUP4 ADD MSTORE SUB SWAP1 RETURN JUMPDEST DUP5 MLOAD DUP13 MSTORE SWAP11 DUP2 ADD SWAP11 SWAP4 DUP2 ADD SWAP4 DUP4 ADD PUSH2 0x536 JUMP JUMPDEST DUP3 SLOAD DUP5 MSTORE SWAP3 DUP10 ADD SWAP3 PUSH1 0x1 SWAP3 DUP4 ADD SWAP3 ADD PUSH2 0x4C6 JUMP JUMPDEST SWAP2 SWAP1 DUP3 MLOAD SWAP3 DUP4 DUP3 MSTORE PUSH1 0x0 JUMPDEST DUP5 DUP2 LT PUSH2 0x5BE JUMPI POP POP DUP3 PUSH1 0x0 PUSH1 0x20 DUP1 SWAP5 SWAP6 DUP5 ADD ADD MSTORE PUSH1 0x1F DUP1 NOT SWAP2 ADD AND ADD ADD SWAP1 JUMP JUMPDEST PUSH1 0x20 DUP2 DUP4 ADD DUP2 ADD MLOAD DUP5 DUP4 ADD DUP3 ADD MSTORE ADD PUSH2 0x59D JUMP JUMPDEST PUSH1 0x80 DUP2 ADD SWAP1 DUP2 LT PUSH8 0xFFFFFFFFFFFFFFFF DUP3 GT OR PUSH2 0x5EE JUMPI PUSH1 0x40 MSTORE JUMP JUMPDEST PUSH4 0x4E487B71 PUSH1 0xE0 SHL PUSH1 0x0 MSTORE PUSH1 0x41 PUSH1 0x4 MSTORE PUSH1 0x24 PUSH1 0x0 REVERT JUMPDEST SWAP1 PUSH1 0x1F DUP1 NOT SWAP2 ADD AND DUP2 ADD SWAP1 DUP2 LT PUSH8 0xFFFFFFFFFFFFFFFF DUP3 GT OR PUSH2 0x5EE JUMPI PUSH1 0x40 MSTORE JUMP JUMPDEST SWAP1 PUSH1 0x1 DUP3 DUP2 SHR SWAP3 AND DUP1 ISZERO PUSH2 0x656 JUMPI JUMPDEST PUSH1 0x20 DUP4 LT EQ PUSH2 0x640 JUMPI JUMP JUMPDEST PUSH4 0x4E487B71 PUSH1 0xE0 SHL PUSH1 0x0 MSTORE PUSH1 0x22 PUSH1 0x4 MSTORE PUSH1 0x24 PUSH1 0x0 REVERT JUMPDEST SWAP2 PUSH1 0x7F AND SWAP2 PUSH2 0x635 JUMP JUMPDEST SWAP1 PUSH1 0x40 MLOAD SWAP2 DUP3 PUSH1 0x0 DUP3 SLOAD PUSH2 0x673 DUP2 PUSH2 0x626 JUMP JUMPDEST SWAP1 DUP2 DUP5 MSTORE PUSH1 0x20 SWAP5 PUSH1 0x1 SWAP2 PUSH1 0x1 DUP2 AND SWAP1 DUP2 PUSH1 0x0 EQ PUSH2 0x6E3 JUMPI POP PUSH1 0x1 EQ PUSH2 0x6A4 JUMPI JUMPDEST POP POP POP PUSH2 0x6A2 SWAP3 POP SUB DUP4 PUSH2 0x604 JUMP JUMPDEST JUMP JUMPDEST PUSH1 0x0 SWAP1 DUP2 MSTORE DUP6 DUP2 KECCAK256 SWAP6 SWAP4 POP SWAP2 SWAP1 JUMPDEST DUP2 DUP4 LT PUSH2 0x6CB JUMPI POP POP PUSH2 0x6A2 SWAP4 POP DUP3 ADD ADD CODESIZE DUP1 DUP1 PUSH2 0x693 JUMP JUMPDEST DUP6 SLOAD DUP9 DUP5 ADD DUP6 ADD MSTORE SWAP5 DUP6 ADD SWAP5 DUP8 SWAP5 POP SWAP2 DUP4 ADD SWAP2 PUSH2 0x6B2 JUMP JUMPDEST SWAP3 POP POP POP PUSH2 0x6A2 SWAP5 SWAP3 POP PUSH1 0xFF NOT AND DUP3 DUP5 ADD MSTORE ISZERO ISZERO PUSH1 0x5 SHL DUP3 ADD ADD CODESIZE DUP1 DUP1 PUSH2 0x693 JUMP JUMPDEST DUP2 DUP2 LT PUSH2 0x710 JUMPI POP POP JUMP JUMPDEST PUSH1 0x0 DUP2 SSTORE PUSH1 0x1 ADD PUSH2 0x705 JUMP INVALID LOG2 PUSH5 0x6970667358 0x22 SLT KECCAK256 DUP16 MSTORE8 AND 0x29 PUSH24 0xB3ACAFFF6B1A5AE33C2FF2BF3F05CA18AF2F37D79D2E9E4F SWAP12 STOP STATICCALL PUSH5 0x736F6C6343 STOP ADDMOD XOR STOP CALLER "},"methodIdentifiers":{"createBatchOperation(uint256[],string)":"6a1f3bbe","getOperation(bytes32)":"279412c5","operations(bytes32)":"c74f349b"}}}}}