{"contracts/Certificate.sol":{"CertificateContract":{"abi":[{"anonymous":false,"inputs":[{"indexed":true,"internalType":"bytes32","name":"certId","type":"bytes32"},{"indexed":false,"internalType":"uint256","name":"batchId","type":"uint256"},{"indexed":false,"internalType":"string","name":"certType","type":"string"}],"name":"CertificateIssued","type":"event"},{"anonymous":false,"inputs":[{"indexed":true,"internalType":"bytes32","name":"certId","type":"bytes32"}],"name":"CertificateRevoked","type":"event"},{"inputs":[{"internalType":"bytes32","name":"","type":"bytes32"}],"name":"certificates","outputs":[{"internalType":"uint256","name":"batchTokenId","type":"uint256"},{"internalType":"string","name":"certType","type":"string"},{"internalType":"string","name":"issuer","type":"string"},{"internalType":"string","name":"documentHash","type":"string"},{"internalType":"uint256","name":"issueDate","type":"uint256"},{"internalType":"uint256","name":"expiryDate","type":"uint256"},{"internalType":"bool","name":"valid","type":"bool"}],"stateMutability":"view","type":"function"},{"inputs":[{"internalType":"bytes32","name":"_certId","type":"bytes32"}],"name":"isValid","outputs":[{"internalType":"bool","name":"","type":"bool"}],"stateMutability":"view","type":"function"},{"inputs":[{"internalType":"uint256","name":"_batchId","type":"uint256"},{"internalType":"string","name":"_type","type":"string"},{"internalType":"string","name":"_issuer","type":"string"},{"internalType":"uint256","name":"_validityDays","type":"uint256"}],"name":"issueCertificate","outputs":[{"internalType":"bytes32","name":"","type":"bytes32"}],"stateMutability":"nonpayable","type":"function"},{"inputs":[{"internalType":"bytes32","name":"_certId","type":"bytes32"}],"name":"revokeCertificate","outputs":[],"stateMutability":"nonpayable","type":"function"}],"evm":{"bytecode":{"linkReferences":{},"object":"6080806040523461001657610959908161001c8239f35b600080fdfe608080604052600436101561001357600080fd5b60003560e01c9081636a938567146106c357508063742f068814610612578063be749989146100a45763c6cbc52a1461004b57600080fd5b3461009f57602036600319011261009f57600435806000526000602052600660406000200160ff1981541690557f44d80a438cb4fa3b5aedbe551ce3d9382e37f446917b783e1dee70a03b4180e3600080a2005b600080fd5b3461009f57608036600319011261009f5760243567ffffffffffffffff811161009f576100d59036906004016108cc565b60443567ffffffffffffffff811161009f576100f59036906004016108cc565b6064359060405160208101906004358252610135606082875161011f816040840160208c01610884565b81014260408201520360408101845201826107bd565b5190209162015180908181029181830414901517156105fc574201908142116105fc5760405191610165836107a1565b6004358352602083019185835260408401526040516020810181811067ffffffffffffffff8211176104465760405260008152606084015242608084015260a0830152600160c0830152826000526000602052604060002090825182555180519067ffffffffffffffff82116104465781906101e46001850154610767565b601f81116105a9575b50602090601f83116001146105375760009261052c575b50508160011b916000199060031b1c19161760018201555b604082015180519067ffffffffffffffff82116104465781906102426002850154610767565b601f81116104d9575b50602090601f83116001146104675760009261045c575b50508160011b916000199060031b1c19161760028201555b606082015180519067ffffffffffffffff82116104465761029e6003840154610767565b601f81116103ff575b5091849391602096938790601f8311600114610363577f52ff540644d3ca4a69d1eb5a9736673fccd2d5f33f3a3258ebabcb0c35f7927295938361034d969460c094600694600092610358575b50508160011b916000199060031b1c19161760038201555b6080840151600482015560a0840151600582015501910151151560ff80198354169116179055604051918291600435835260408884015260408301906108a7565b0390a2604051908152f35b015190508c806102f4565b9060038401600052886000209160005b601f19851681106103e557509360018460c0946006947f52ff540644d3ca4a69d1eb5a9736673fccd2d5f33f3a3258ebabcb0c35f792729a9861034d9a98601f198116106103cc575b505050811b01600382015561030c565b015160001960f88460031b161c191690558c80806103bc565b818301518455899850600190930192918a01918a01610373565b600384016000526020600020601f840160051c81016020851061043f575b601f830160051c820181106104335750506102a7565b6000815560010161041d565b508061041d565b634e487b7160e01b600052604160045260246000fd5b015190508680610262565b9250600284016000526020600020906000935b601f19841685106104be576001945083601f198116106104a5575b505050811b01600282015561027a565b015160001960f88460031b161c19169055868080610495565b8181015183556020948501946001909301929091019061047a565b909150600284016000526020600020601f840160051c810160208510610525575b90849392915b601f830160051c8201811061051657505061024b565b60008155859450600101610500565b50806104fa565b015190508680610204565b9250600184016000526020600020906000935b601f198416851061058e576001945083601f19811610610575575b505050811b01600182015561021c565b015160001960f88460031b161c19169055868080610565565b8181015183556020948501946001909301929091019061054a565b909150600184016000526020600020601f840160051c8101602085106105f5575b90849392915b601f830160051c820181106105e65750506101ed565b600081558594506001016105d0565b50806105ca565b634e487b7160e01b600052601160045260246000fd5b3461009f57602036600319011261009f57600435600052600060205260406000208054610641600183016107df565b9161064e600282016107df565b61065a600383016107df565b916106ad60048201549361069f60ff600660058601549501541694610691604051998a998a5260e060208b015260e08a01906108a7565b9088820360408a01526108a7565b9086820360608801526108a7565b92608085015260a0840152151560c08301520390f35b3461009f57602036600319011261009f5760c0602091600435600052600083526040600020906106f2816107a1565b81548152610702600183016107df565b84820152610712600283016107df565b6040820152610723600383016107df565b60608201526004820154608082015260ff60066005840154938460a0850152015416151592839101528161075d575b506040519015158152f35b9050421082610752565b90600182811c92168015610797575b602083101461078157565b634e487b7160e01b600052602260045260246000fd5b91607f1691610776565b60e0810190811067ffffffffffffffff82111761044657604052565b90601f8019910116810190811067ffffffffffffffff82111761044657604052565b906040519182600082546107f281610767565b908184526020946001916001811690816000146108625750600114610823575b505050610821925003836107bd565b565b600090815285812095935091905b81831061084a5750506108219350820101388080610812565b85548884018501529485019487945091830191610831565b9250505061082194925060ff191682840152151560051b820101388080610812565b60005b8381106108975750506000910152565b8181015183820152602001610887565b906020916108c081518092818552858086019101610884565b601f01601f1916010190565b81601f8201121561009f5780359067ffffffffffffffff82116104465760405192610901601f8401601f1916602001856107bd565b8284526020838301011161009f5781600092602080930183860137830101529056fea2646970667358221220d77f66c815c88cc9422bed358f175d637e60944f9ddcf1d12b92c6f5727c957464736f6c63430008180033","opcodes":"PUSH1 0x80 DUP1 PUSH1 0x40 MSTORE CALLVALUE PUSH2 0x16 JUMPI PUSH2 0x959 SWAP1 DUP2 PUSH2 0x1C DUP3 CODECOPY RETURN JUMPDEST PUSH1 0x0 DUP1 REVERT INVALID PUSH1 0x80 DUP1 PUSH1 0x40 MSTORE PUSH1 0x4 CALLDATASIZE LT ISZERO PUSH2 0x13 JUMPI PUSH1 0x0 DUP1 REVERT JUMPDEST PUSH1 0x0 CALLDATALOAD PUSH1 0xE0 SHR SWAP1 DUP2 PUSH4 0x6A938567 EQ PUSH2 0x6C3 JUMPI POP DUP1 PUSH4 0x742F0688 EQ PUSH2 0x612 JUMPI DUP1 PUSH4 0xBE749989 EQ PUSH2 0xA4 JUMPI PUSH4 0xC6CBC52A EQ PUSH2 0x4B JUMPI PUSH1 0x0 DUP1 REVERT JUMPDEST CALLVALUE PUSH2 0x9F JUMPI PUSH1 0x20 CALLDATASIZE PUSH1 0x3 NOT ADD SLT PUSH2 0x9F JUMPI PUSH1 0x4 CALLDATALOAD DUP1 PUSH1 0x0 MSTORE PUSH1 0x0 PUSH1 0x20 MSTORE PUSH1 0x6 PUSH1 0x40 PUSH1 0x0 KECCAK256 ADD PUSH1 0xFF NOT DUP2 SLOAD AND SWAP1 SSTORE PUSH32 0x44D80A438CB4FA3B5AEDBE551CE3D9382E37F446917B783E1DEE70A03B4180E3 PUSH1 0x0 DUP1 LOG2 STOP JUMPDEST PUSH1 0x0 DUP1 REVERT JUMPDEST CALLVALUE PUSH2 0x9F JUMPI PUSH1 0x80 CALLDATASIZE PUSH1 0x3 NOT ADD SLT PUSH2 0x9F JUMPI PUSH1 0x24 CALLDATALOAD PUSH8 0xFFFFFFFFFFFFFFFF DUP2 GT PUSH2 0x9F JUMPI PUSH2 0xD5 SWAP1 CALLDATASIZE SWAP1 PUSH1 0x4 ADD PUSH2 0x8CC JUMP JUMPDEST PUSH1 0x44 CALLDATALOAD PUSH8 0xFFFFFFFFFFFFFFFF DUP2 GT PUSH2 0x9F JUMPI PUSH2 0xF5 SWAP1 CALLDATASIZE SWAP1 PUSH1 0x4 ADD PUSH2 0x8CC JUMP JUMPDEST PUSH1 0x64 CALLDATALOAD SWAP1 PUSH1 0x40 MLOAD PUSH1 0x20 DUP2 ADD SWAP1 PUSH1 0x4 CALLDATALOAD DUP3 MSTORE PUSH2 0x135 PUSH1 0x60 DUP3 DUP8 MLOAD PUSH2 0x11F DUP2 PUSH1 0x40 DUP5 ADD PUSH1 0x20 DUP13 ADD PUSH2 0x884 JUMP JUMPDEST DUP2 ADD TIMESTAMP PUSH1 0x40 DUP3 ADD MSTORE SUB PUSH1 0x40 DUP2 ADD DUP5 MSTORE ADD DUP3 PUSH2 0x7BD JUMP JUMPDEST MLOAD SWAP1 KECCAK256 SWAP2 PUSH3 0x15180 SWAP1 DUP2 DUP2 MUL SWAP2 DUP2 DUP4 DIV EQ SWAP1 ISZERO OR ISZERO PUSH2 0x5FC JUMPI TIMESTAMP ADD SWAP1 DUP2 TIMESTAMP GT PUSH2 0x5FC JUMPI PUSH1 0x40 MLOAD SWAP2 PUSH2 0x165 DUP4 PUSH2 0x7A1 JUMP JUMPDEST PUSH1 0x4 CALLDATALOAD DUP4 MSTORE PUSH1 0x20 DUP4 ADD SWAP2 DUP6 DUP4 MSTORE PUSH1 0x40 DUP5 ADD MSTORE PUSH1 0x40 MLOAD PUSH1 0x20 DUP2 ADD DUP2 DUP2 LT PUSH8 0xFFFFFFFFFFFFFFFF DUP3 GT OR PUSH2 0x446 JUMPI PUSH1 0x40 MSTORE PUSH1 0x0 DUP2 MSTORE PUSH1 0x60 DUP5 ADD MSTORE TIMESTAMP PUSH1 0x80 DUP5 ADD MSTORE PUSH1 0xA0 DUP4 ADD MSTORE PUSH1 0x1 PUSH1 0xC0 DUP4 ADD MSTORE DUP3 PUSH1 0x0 MSTORE PUSH1 0x0 PUSH1 0x20 MSTORE PUSH1 0x40 PUSH1 0x0 KECCAK256 SWAP1 DUP3 MLOAD DUP3 SSTORE MLOAD DUP1 MLOAD SWAP1 PUSH8 0xFFFFFFFFFFFFFFFF DUP3 GT PUSH2 0x446 JUMPI DUP2 SWAP1 PUSH2 0x1E4 PUSH1 0x1 DUP6 ADD SLOAD PUSH2 0x767 JUMP JUMPDEST PUSH1 0x1F DUP2 GT PUSH2 0x5A9 JUMPI JUMPDEST POP PUSH1 0x20 SWAP1 PUSH1 0x1F DUP4 GT PUSH1 0x1 EQ PUSH2 0x537 JUMPI PUSH1 0x0 SWAP3 PUSH2 0x52C JUMPI JUMPDEST POP POP DUP2 PUSH1 0x1 SHL SWAP2 PUSH1 0x0 NOT SWAP1 PUSH1 0x3 SHL SHR NOT AND OR PUSH1 0x1 DUP3 ADD SSTORE JUMPDEST PUSH1 0x40 DUP3 ADD MLOAD DUP1 MLOAD SWAP1 PUSH8 0xFFFFFFFFFFFFFFFF DUP3 GT PUSH2 0x446 JUMPI DUP2 SWAP1 PUSH2 0x242 PUSH1 0x2 DUP6 ADD SLOAD PUSH2 0x767 JUMP JUMPDEST PUSH1 0x1F DUP2 GT PUSH2 0x4D9 JUMPI JUMPDEST POP PUSH1 0x20 SWAP1 PUSH1 0x1F DUP4 GT PUSH1 0x1 EQ PUSH2 0x467 JUMPI PUSH1 0x0 SWAP3 PUSH2 0x45C JUMPI JUMPDEST POP POP DUP2 PUSH1 0x1 SHL SWAP2 PUSH1 0x0 NOT SWAP1 PUSH1 0x3 SHL SHR NOT AND OR PUSH1 0x2 DUP3 ADD SSTORE JUMPDEST PUSH1 0x60 DUP3 ADD MLOAD DUP1 MLOAD SWAP1 PUSH8 0xFFFFFFFFFFFFFFFF DUP3 GT PUSH2 0x446 JUMPI PUSH2 0x29E PUSH1 0x3 DUP5 ADD SLOAD PUSH2 0x767 JUMP JUMPDEST PUSH1 0x1F DUP2 GT PUSH2 0x3FF JUMPI JUMPDEST POP SWAP2 DUP5 SWAP4 SWAP2 PUSH1 0x20 SWAP7 SWAP4 DUP8 SWAP1 PUSH1 0x1F DUP4 GT PUSH1 0x1 EQ PUSH2 0x363 JUMPI PUSH32 0x52FF540644D3CA4A69D1EB5A9736673FCCD2D5F33F3A3258EBABCB0C35F79272 SWAP6 SWAP4 DUP4 PUSH2 0x34D SWAP7 SWAP5 PUSH1 0xC0 SWAP5 PUSH1 0x6 SWAP5 PUSH1 0x0 SWAP3 PUSH2 0x358 JUMPI JUMPDEST POP POP DUP2 PUSH1 0x1 SHL SWAP2 PUSH1 0x0 NOT SWAP1 PUSH1 0x3 SHL SHR NOT AND OR PUSH1 0x3 DUP3 ADD SSTORE JUMPDEST PUSH1 0x80 DUP5 ADD MLOAD PUSH1 0x4 DUP3 ADD SSTORE PUSH1 0xA0 DUP5 ADD MLOAD PUSH1 0x5 DUP3 ADD SSTORE ADD SWAP2 ADD MLOAD ISZERO ISZERO PUSH1 0xFF DUP1 NOT DUP4 SLOAD AND SWAP2 AND OR SWAP1 SSTORE PUSH1 0x40 MLOAD SWAP2 DUP3 SWAP2 PUSH1 0x4 CALLDATALOAD DUP4 MSTORE PUSH1 0x40 DUP9 DUP5 ADD MSTORE PUSH1 0x40 DUP4 ADD SWAP1 PUSH2 0x8A7 JUMP JUMPDEST SUB SWAP1 LOG2 PUSH1 0x40 MLOAD SWAP1 DUP2 MSTORE RETURN JUMPDEST ADD MLOAD SWAP1 POP DUP13 DUP1 PUSH2 0x2F4 JUMP JUMPDEST SWAP1 PUSH1 0x3 DUP5 ADD PUSH1 0x0 MSTORE DUP9 PUSH1 0x0 KECCAK256 SWAP2 PUSH1 0x0 JUMPDEST PUSH1 0x1F NOT DUP6 AND DUP2 LT PUSH2 0x3E5 JUMPI POP SWAP4 PUSH1 0x1 DUP5 PUSH1 0xC0 SWAP5 PUSH1 0x6 SWAP5 PUSH32 0x52FF540644D3CA4A69D1EB5A9736673FCCD2D5F33F3A3258EBABCB0C35F79272 SWAP11 SWAP9 PUSH2 0x34D SWAP11 SWAP9 PUSH1 0x1F NOT DUP2 AND LT PUSH2 0x3CC JUMPI JUMPDEST POP POP POP DUP2 SHL ADD PUSH1 0x3 DUP3 ADD SSTORE PUSH2 0x30C JUMP JUMPDEST ADD MLOAD PUSH1 0x0 NOT PUSH1 0xF8 DUP5 PUSH1 0x3 SHL AND SHR NOT AND SWAP1 SSTORE DUP13 DUP1 DUP1 PUSH2 0x3BC JUMP JUMPDEST DUP2 DUP4 ADD MLOAD DUP5 SSTORE DUP10 SWAP9 POP PUSH1 0x1 SWAP1 SWAP4 ADD SWAP3 SWAP2 DUP11 ADD SWAP2 DUP11 ADD PUSH2 0x373 JUMP JUMPDEST PUSH1 0x3 DUP5 ADD PUSH1 0x0 MSTORE PUSH1 0x20 PUSH1 0x0 KECCAK256 PUSH1 0x1F DUP5 ADD PUSH1 0x5 SHR DUP2 ADD PUSH1 0x20 DUP6 LT PUSH2 0x43F JUMPI JUMPDEST PUSH1 0x1F DUP4 ADD PUSH1 0x5 SHR DUP3 ADD DUP2 LT PUSH2 0x433 JUMPI POP POP PUSH2 0x2A7 JUMP JUMPDEST PUSH1 0x0 DUP2 SSTORE PUSH1 0x1 ADD PUSH2 0x41D JUMP JUMPDEST POP DUP1 PUSH2 0x41D JUMP JUMPDEST PUSH4 0x4E487B71 PUSH1 0xE0 SHL PUSH1 0x0 MSTORE PUSH1 0x41 PUSH1 0x4 MSTORE PUSH1 0x24 PUSH1 0x0 REVERT JUMPDEST ADD MLOAD SWAP1 POP DUP7 DUP1 PUSH2 0x262 JUMP JUMPDEST SWAP3 POP PUSH1 0x2 DUP5 ADD PUSH1 0x0 MSTORE PUSH1 0x20 PUSH1 0x0 KECCAK256 SWAP1 PUSH1 0x0 SWAP4 JUMPDEST PUSH1 0x1F NOT DUP5 AND DUP6 LT PUSH2 0x4BE JUMPI PUSH1 0x1 SWAP5 POP DUP4 PUSH1 0x1F NOT DUP2 AND LT PUSH2 0x4A5 JUMPI JUMPDEST POP POP POP DUP2 SHL ADD PUSH1 0x2 DUP3 ADD SSTORE PUSH2 0x27A JUMP JUMPDEST ADD MLOAD PUSH1 0x0 NOT PUSH1 0xF8 DUP5 PUSH1 0x3 SHL AND SHR NOT AND SWAP1 SSTORE DUP7 DUP1 DUP1 PUSH2 0x495 JUMP JUMPDEST DUP2 DUP2 ADD MLOAD DUP4 SSTORE PUSH1 0x20 SWAP5 DUP6 ADD SWAP5 PUSH1 0x1 SWAP1 SWAP4 ADD SWAP3 SWAP1 SWAP2 ADD SWAP1 PUSH2 0x47A JUMP JUMPDEST SWAP1 SWAP2 POP PUSH1 0x2 DUP5 ADD PUSH1 0x0 MSTORE PUSH1 0x20 PUSH1 0x0 KECCAK256 PUSH1 0x1F DUP5 ADD PUSH1 0x5 SHR DUP2 ADD PUSH1 0x20 DUP6 LT PUSH2 0x525 JUMPI JUMPDEST SWAP1 DUP5 SWAP4 SWAP3 SWAP2 JUMPDEST PUSH1 0x1F DUP4 ADD PUSH1 0x5 SHR DUP3 ADD DUP2 LT PUSH2 0x516 JUMPI POP POP PUSH2 0x24B JUMP JUMPDEST PUSH1 0x0 DUP2 SSTORE DUP6 SWAP5 POP PUSH1 0x1 ADD PUSH2 0x500 JUMP JUMPDEST POP DUP1 PUSH2 0x4FA JUMP JUMPDEST ADD MLOAD SWAP1 POP DUP7 DUP1 PUSH2 0x204 JUMP JUMPDEST SWAP3 POP PUSH1 0x1 DUP5 ADD PUSH1 0x0 MSTORE PUSH1 0x20 PUSH1 0x0 KECCAK256 SWAP1 PUSH1 0x0 SWAP4 JUMPDEST PUSH1 0x1F NOT DUP5 AND DUP6 LT PUSH2 0x58E JUMPI PUSH1 0x1 SWAP5 POP DUP4 PUSH1 0x1F NOT DUP2 AND LT PUSH2 0x575 JUMPI JUMPDEST POP POP POP DUP2 SHL ADD PUSH1 0x1 DUP3 ADD SSTORE PUSH2 0x21C JUMP JUMPDEST ADD MLOAD PUSH1 0x0 NOT PUSH1 0xF8 DUP5 PUSH1 0x3 SHL AND SHR NOT AND SWAP1 SSTORE DUP7 DUP1 DUP1 PUSH2 0x565 JUMP JUMPDEST DUP2 DUP2 ADD MLOAD DUP4 SSTORE PUSH1 0x20 SWAP5 DUP6 ADD SWAP5 PUSH1 0x1 SWAP1 SWAP4 ADD SWAP3 SWAP1 SWAP2 ADD SWAP1 PUSH2 0x54A JUMP JUMPDEST SWAP1 SWAP2 POP PUSH1 0x1 DUP5 ADD PUSH1 0x0 MSTORE PUSH1 0x20 PUSH1 0x0 KECCAK256 PUSH1 0x1F DUP5 ADD PUSH1 0x5 SHR DUP2 ADD PUSH1 0x20 DUP6 LT PUSH2 0x5F5 JUMPI JUMPDEST SWAP1 DUP5 SWAP4 SWAP3 SWAP2 JUMPDEST PUSH1 0x1F DUP4 ADD PUSH1 0x5 SHR DUP3 ADD DUP2 LT PUSH2 0x5E6 JUMPI POP POP PUSH2 0x1ED JUMP JUMPDEST PUSH1 0x0 DUP2 SSTORE DUP6 SWAP5 POP PUSH1 0x1 ADD PUSH2 0x5D0 JUMP JUMPDEST POP DUP1 PUSH2 0x5CA JUMP JUMPDEST PUSH4 0x4E487B71 PUSH1 0xE0 SHL PUSH1 0x0 MSTORE PUSH1 0x11 PUSH1 0x4 MSTORE PUSH1 0x24 PUSH1 0x0 REVERT JUMPDEST CALLVALUE PUSH2 0x9F JUMPI PUSH1 0x20 CALLDATASIZE PUSH1 0x3 NOT ADD SLT PUSH2 0x9F JUMPI PUSH1 0x4 CALLDATALOAD PUSH1 0x0 MSTORE PUSH1 0x0 PUSH1 0x20 MSTORE PUSH1 0x40 PUSH1 0x0 KECCAK256 DUP1 SLOAD PUSH2 0x641 PUSH1 0x1 DUP4 ADD PUSH2 0x7DF JUMP JUMPDEST SWAP2 PUSH2 0x64E PUSH1 0x2 DUP3 ADD PUSH2 0x7DF JUMP JUMPDEST PUSH2 0x65A PUSH1 0x3 DUP4 ADD PUSH2 0x7DF JUMP JUMPDEST SWAP2 PUSH2 0x6AD PUSH1 0x4 DUP3 ADD SLOAD SWAP4 PUSH2 0x69F PUSH1 0xFF PUSH1 0x6 PUSH1 0x5 DUP7 ADD SLOAD SWAP6 ADD SLOAD AND SWAP5 PUSH2 0x691 PUSH1 0x40 MLOAD SWAP10 DUP11 SWAP10 DUP11 MSTORE PUSH1 0xE0 PUSH1 0x20 DUP12 ADD MSTORE PUSH1 0xE0 DUP11 ADD SWAP1 PUSH2 0x8A7 JUMP JUMPDEST SWAP1 DUP9 DUP3 SUB PUSH1 0x40 DUP11 ADD MSTORE PUSH2 0x8A7 JUMP JUMPDEST SWAP1 DUP7 DUP3 SUB PUSH1 0x60 DUP9 ADD MSTORE PUSH2 0x8A7 JUMP JUMPDEST SWAP3 PUSH1 0x80 DUP6 ADD MSTORE PUSH1 0xA0 DUP5 ADD MSTORE ISZERO ISZERO PUSH1 0xC0 DUP4 ADD MSTORE SUB SWAP1 RETURN JUMPDEST CALLVALUE PUSH2 0x9F JUMPI PUSH1 0x20 CALLDATASIZE PUSH1 0x3 NOT ADD SLT PUSH2 0x9F JUMPI PUSH1 0xC0 PUSH1 0x20 SWAP2 PUSH1 0x4 CALLDATALOAD PUSH1 0x0 MSTORE PUSH1 0x0 DUP4 MSTORE PUSH1 0x40 PUSH1 0x0 KECCAK256 SWAP1 PUSH2 0x6F2 DUP2 PUSH2 0x7A1 JUMP JUMPDEST DUP2 SLOAD DUP2 MSTORE PUSH2 0x702 PUSH1 0x1 DUP4 ADD PUSH2 0x7DF JUMP JUMPDEST DUP5 DUP3 ADD MSTORE PUSH2 0x712 PUSH1 0x2 DUP4 ADD PUSH2 0x7DF JUMP JUMPDEST PUSH1 0x40 DUP3 ADD MSTORE PUSH2 0x723 PUSH1 0x3 DUP4 ADD PUSH2 0x7DF JUMP JUMPDEST PUSH1 0x60 DUP3 ADD MSTORE PUSH1 0x4 DUP3 ADD SLOAD PUSH1 0x80 DUP3 ADD MSTORE PUSH1 0xFF PUSH1 0x6 PUSH1 0x5 DUP5 ADD SLOAD SWAP4 DUP5 PUSH1 0xA0 DUP6 ADD MSTORE ADD SLOAD AND ISZERO ISZERO SWAP3 DUP4 SWAP2 ADD MSTORE DUP2 PUSH2 0x75D JUMPI JUMPDEST POP PUSH1 0x40 MLOAD SWAP1 ISZERO ISZERO DUP2 MSTORE RETURN JUMPDEST SWAP1 POP TIMESTAMP LT DUP3 PUSH2 0x752 JUMP JUMPDEST SWAP1 PUSH1 0x1 DUP3 DUP2 SHR SWAP3 AND DUP1 ISZERO PUSH2 0x797 JUMPI JUMPDEST PUSH1 0x20 DUP4 LT EQ PUSH2 0x781 JUMPI JUMP JUMPDEST PUSH4 0x4E487B71 PUSH1 0xE0 SHL PUSH1 0x0 MSTORE PUSH1 0x22 PUSH1 0x4 MSTORE PUSH1 0x24 PUSH1 0x0 REVERT JUMPDEST SWAP2 PUSH1 0x7F AND SWAP2 PUSH2 0x776 JUMP JUMPDEST PUSH1 0xE0 DUP2 ADD SWAP1 DUP2 LT PUSH8 0xFFFFFFFFFFFFFFFF DUP3 GT OR PUSH2 0x446 JUMPI PUSH1 0x40 MSTORE JUMP JUMPDEST SWAP1 PUSH1 0x1F DUP1 NOT SWAP2 ADD AND DUP2 ADD SWAP1 DUP2 LT PUSH8 0xFFFFFFFFFFFFFFFF DUP3 GT OR PUSH2 0x446 JUMPI PUSH1 0x40 MSTORE JUMP JUMPDEST SWAP1 PUSH1 0x40 MLOAD SWAP2 DUP3 PUSH1 0x0 DUP3 SLOAD PUSH2 0x7F2 DUP2 PUSH2 0x767 JUMP JUMPDEST SWAP1 DUP2 DUP5 MSTORE PUSH1 0x20 SWAP5 PUSH1 0x1 SWAP2 PUSH1 0x1 DUP2 AND SWAP1 DUP2 PUSH1 0x0 EQ PUSH2 0x862 JUMPI POP PUSH1 0x1 EQ PUSH2 0x823 JUMPI JUMPDEST POP POP POP PUSH2 0x821 SWAP3 POP SUB DUP4 PUSH2 0x7BD JUMP JUMPDEST JUMP JUMPDEST PUSH1 0x0 SWAP1 DUP2 MSTORE DUP6 DUP2 KECCAK256 SWAP6 SWAP4 POP SWAP2 SWAP1 JUMPDEST DUP2 DUP4 LT PUSH2 0x84A JUMPI POP POP PUSH2 0x821 SWAP4 POP DUP3 ADD ADD CODESIZE DUP1 DUP1 PUSH2 0x812 JUMP JUMPDEST DUP6 SLOAD DUP9 DUP5 ADD DUP6 ADD MSTORE SWAP5 DUP6 ADD SWAP5 DUP8 SWAP5 POP SWAP2 DUP4 ADD SWAP2 PUSH2 0x831 JUMP JUMPDEST SWAP3 POP POP POP PUSH2 0x821 SWAP5 SWAP3 POP PUSH1 0xFF NOT AND DUP3 DUP5 ADD MSTORE ISZERO ISZERO PUSH1 0x5 SHL DUP3 ADD ADD CODESIZE DUP1 DUP1 PUSH2 0x812 JUMP JUMPDEST PUSH1 0x0 JUMPDEST DUP4 DUP2 LT PUSH2 0x897 JUMPI POP POP PUSH1 0x0 SWAP2 ADD MSTORE JUMP JUMPDEST DUP2 DUP2 ADD MLOAD DUP4 DUP3 ADD MSTORE PUSH1 0x20 ADD PUSH2 0x887 JUMP JUMPDEST SWAP1 PUSH1 0x20 SWAP2 PUSH2 0x8C0 DUP2 MLOAD DUP1 SWAP3 DUP2 DUP6 MSTORE DUP6 DUP1 DUP7 ADD SWAP2 ADD PUSH2 0x884 JUMP JUMPDEST PUSH1 0x1F ADD PUSH1 0x1F NOT AND ADD ADD SWAP1 JUMP JUMPDEST DUP2 PUSH1 0x1F DUP3 ADD SLT ISZERO PUSH2 0x9F JUMPI DUP1 CALLDATALOAD SWAP1 PUSH8 0xFFFFFFFFFFFFFFFF DUP3 GT PUSH2 0x446 JUMPI PUSH1 0x40 MLOAD SWAP3 PUSH2 0x901 PUSH1 0x1F DUP5 ADD PUSH1 0x1F NOT AND PUSH1 0x20 ADD DUP6 PUSH2 0x7BD JUMP JUMPDEST DUP3 DUP5 MSTORE PUSH1 0x20 DUP4 DUP4 ADD ADD GT PUSH2 0x9F JUMPI DUP2 PUSH1 0x0 SWAP3 PUSH1 0x20 DUP1 SWAP4 ADD DUP4 DUP7 ADD CALLDATACOPY DUP4 ADD ADD MSTORE SWAP1 JUMP INVALID LOG2 PUSH5 0x6970667358 0x22 SLT KECCAK256 0xD7 PUSH32 0x66C815C88CC9422BED358F175D637E60944F9DDCF1D12B92C6F5727C95746473 PUSH16 0x6C634300081800330000000000000000 "},"methodIdentifiers":{"certificates(bytes32)":"742f0688","isValid(bytes32)":"6a938567","issueCertificate(uint256,string,string,uint256)":"be749989","revokeCertificate(bytes32)":"c6cbc52a"}}}}}