{"contracts/PaymentSplitter.sol":{"PaymentSplitterContract":{"abi":[{"anonymous":false,"inputs":[{"indexed":false,"internalType":"address[]","name":"recipients","type":"address[]"},{"indexed":false,"internalType":"uint256[]","name":"amounts","type":"uint256[]"}],"name":"FundsDistributed","type":"event"},{"anonymous":false,"inputs":[{"indexed":false,"internalType":"address","name":"from","type":"address"},{"indexed":false,"internalType":"uint256","name":"amount","type":"uint256"}],"name":"PaymentReceived","type":"event"},{"inputs":[{"internalType":"address[]","name":"_recipients","type":"address[]"},{"internalType":"uint256[]","name":"_amounts","type":"uint256[]"}],"name":"distribute","outputs":[],"stateMutability":"payable","type":"function"},{"stateMutability":"payable","type":"receive"}],"evm":{"bytecode":{"linkReferences":{},"object":"6080806040523461001657610347908161001c8239f35b600080fdfe604060808152600436101561004a575b361561001a57600080fd5b807f6ef95f06320e7a25a04a175ca677b7052bdd97131872c2192525a629f51be7709151338152346020820152a1005b6000803560e01c632929abe614610061575061000f565b908060031936011261028f576004359067ffffffffffffffff80831161028b573660238401121561028b5782600401359260246100a56100a0866102cf565b610293565b948592818752602080970183819360051b83010191368311610287578401905b8282106102685750505081359384116102645736602385011215610264578360040135916100f56100a0846102cf565b9487868581520182819560051b8301019136831161026057838a9101915b8383106102505750505050835185510361021c57509086939291845b835181101561018557858080806001600160a01b0361014e868a6102e7565b511661015a868b6102e7565b519082821561017c575bf1156101725760010161012f565b86513d87823e3d90fd5b506108fc610164565b5085518681529251838701819052859488926060860192875b8181106101ff5750505084820385840152518082529082019291855b8281106101eb57867fa9c05f435364985a2f5d31ba04a2d619c7cff780a5e92d315a88a3ed6502542187870388a180f35b8351855293810193928101926001016101ba565b82516001600160a01b03168552938501939185019160010161019e565b86600f60649288519262461bcd60e51b845260048401528201526e098cadccee8d040dad2e6dac2e8c6d608b1b6044820152fd5b82358152918101918a9101610113565b8a80fd5b8680fd5b81356001600160a01b03811681036102605781529088019088016100c5565b8980fd5b8380fd5b5080fd5b6040519190601f01601f1916820167ffffffffffffffff8111838210176102b957604052565b634e487b7160e01b600052604160045260246000fd5b67ffffffffffffffff81116102b95760051b60200190565b80518210156102fb5760209160051b010190565b634e487b7160e01b600052603260045260246000fdfea26469706673582212200e2ef67ea05f10289a70e34832317c2f07b5595ffc20ed0d1090b34e711cbb0164736f6c63430008180033","opcodes":"PUSH1 0x80 DUP1 PUSH1 0x40 MSTORE CALLVALUE PUSH2 0x16 JUMPI PUSH2 0x347 SWAP1 DUP2 PUSH2 0x1C DUP3 CODECOPY RETURN JUMPDEST PUSH1 0x0 DUP1 REVERT INVALID PUSH1 0x40 PUSH1 0x80 DUP2 MSTORE PUSH1 0x4 CALLDATASIZE LT ISZERO PUSH2 0x4A JUMPI JUMPDEST CALLDATASIZE ISZERO PUSH2 0x1A JUMPI PUSH1 0x0 DUP1 REVERT JUMPDEST DUP1 PUSH32 0x6EF95F06320E7A25A04A175CA677B7052BDD97131872C2192525A629F51BE770 SWAP2 MLOAD CALLER DUP2 MSTORE CALLVALUE PUSH1 0x20 DUP3 ADD MSTORE LOG1 STOP JUMPDEST PUSH1 0x0 DUP1 CALLDATALOAD PUSH1 0xE0 SHR PUSH4 0x2929ABE6 EQ PUSH2 0x61 JUMPI POP PUSH2 0xF JUMP JUMPDEST SWAP1 DUP1 PUSH1 0x3 NOT CALLDATASIZE ADD SLT PUSH2 0x28F JUMPI PUSH1 0x4 CALLDATALOAD SWAP1 PUSH8 0xFFFFFFFFFFFFFFFF DUP1 DUP4 GT PUSH2 0x28B JUMPI CALLDATASIZE PUSH1 0x23 DUP5 ADD SLT ISZERO PUSH2 0x28B JUMPI DUP3 PUSH1 0x4 ADD CALLDATALOAD SWAP3 PUSH1 0x24 PUSH2 0xA5 PUSH2 0xA0 DUP7 PUSH2 0x2CF JUMP JUMPDEST PUSH2 0x293 JUMP JUMPDEST SWAP5 DUP6 SWAP3 DUP2 DUP8 MSTORE PUSH1 0x20 DUP1 SWAP8 ADD DUP4 DUP2 SWAP4 PUSH1 0x5 SHL DUP4 ADD ADD SWAP2 CALLDATASIZE DUP4 GT PUSH2 0x287 JUMPI DUP5 ADD SWAP1 JUMPDEST DUP3 DUP3 LT PUSH2 0x268 JUMPI POP POP POP DUP2 CALLDATALOAD SWAP4 DUP5 GT PUSH2 0x264 JUMPI CALLDATASIZE PUSH1 0x23 DUP6 ADD SLT ISZERO PUSH2 0x264 JUMPI DUP4 PUSH1 0x4 ADD CALLDATALOAD SWAP2 PUSH2 0xF5 PUSH2 0xA0 DUP5 PUSH2 0x2CF JUMP JUMPDEST SWAP5 DUP8 DUP7 DUP6 DUP2 MSTORE ADD DUP3 DUP2 SWAP6 PUSH1 0x5 SHL DUP4 ADD ADD SWAP2 CALLDATASIZE DUP4 GT PUSH2 0x260 JUMPI DUP4 DUP11 SWAP2 ADD SWAP2 JUMPDEST DUP4 DUP4 LT PUSH2 0x250 JUMPI POP POP POP POP DUP4 MLOAD DUP6 MLOAD SUB PUSH2 0x21C JUMPI POP SWAP1 DUP7 SWAP4 SWAP3 SWAP2 DUP5 JUMPDEST DUP4 MLOAD DUP2 LT ISZERO PUSH2 0x185 JUMPI DUP6 DUP1 DUP1 DUP1 PUSH1 0x1 PUSH1 0x1 PUSH1 0xA0 SHL SUB PUSH2 0x14E DUP7 DUP11 PUSH2 0x2E7 JUMP JUMPDEST MLOAD AND PUSH2 0x15A DUP7 DUP12 PUSH2 0x2E7 JUMP JUMPDEST MLOAD SWAP1 DUP3 DUP3 ISZERO PUSH2 0x17C JUMPI JUMPDEST CALL ISZERO PUSH2 0x172 JUMPI PUSH1 0x1 ADD PUSH2 0x12F JUMP JUMPDEST DUP7 MLOAD RETURNDATASIZE DUP8 DUP3 RETURNDATACOPY RETURNDATASIZE SWAP1 REVERT JUMPDEST POP PUSH2 0x8FC PUSH2 0x164 JUMP JUMPDEST POP DUP6 MLOAD DUP7 DUP2 MSTORE SWAP3 MLOAD DUP4 DUP8 ADD DUP2 SWAP1 MSTORE DUP6 SWAP5 DUP9 SWAP3 PUSH1 0x60 DUP7 ADD SWAP3 DUP8 JUMPDEST DUP2 DUP2 LT PUSH2 0x1FF JUMPI POP POP POP DUP5 DUP3 SUB DUP6 DUP5 ADD MSTORE MLOAD DUP1 DUP3 MSTORE SWAP1 DUP3 ADD SWAP3 SWAP2 DUP6 JUMPDEST DUP3 DUP2 LT PUSH2 0x1EB JUMPI DUP7 PUSH32 0xA9C05F435364985A2F5D31BA04A2D619C7CFF780A5E92D315A88A3ED65025421 DUP8 DUP8 SUB DUP9 LOG1 DUP1 RETURN JUMPDEST DUP4 MLOAD DUP6 MSTORE SWAP4 DUP2 ADD SWAP4 SWAP3 DUP2 ADD SWAP3 PUSH1 0x1 ADD PUSH2 0x1BA JUMP JUMPDEST DUP3 MLOAD PUSH1 0x1 PUSH1 0x1 PUSH1 0xA0 SHL SUB AND DUP6 MSTORE SWAP4 DUP6 ADD SWAP4 SWAP2 DUP6 ADD SWAP2 PUSH1 0x1 ADD PUSH2 0x19E JUMP JUMPDEST DUP7 PUSH1 0xF PUSH1 0x64 SWAP3 DUP9 MLOAD SWAP3 PUSH3 0x461BCD PUSH1 0xE5 SHL DUP5 MSTORE PUSH1 0x4 DUP5 ADD MSTORE DUP3 ADD MSTORE PUSH15 0x98CADCCEE8D040DAD2E6DAC2E8C6D PUSH1 0x8B SHL PUSH1 0x44 DUP3 ADD MSTORE REVERT JUMPDEST DUP3 CALLDATALOAD DUP2 MSTORE SWAP2 DUP2 ADD SWAP2 DUP11 SWAP2 ADD PUSH2 0x113 JUMP JUMPDEST DUP11 DUP1 REVERT JUMPDEST DUP7 DUP1 REVERT JUMPDEST DUP2 CALLDATALOAD PUSH1 0x1 PUSH1 0x1 PUSH1 0xA0 SHL SUB DUP2 AND DUP2 SUB PUSH2 0x260 JUMPI DUP2 MSTORE SWAP1 DUP9 ADD SWAP1 DUP9 ADD PUSH2 0xC5 JUMP JUMPDEST DUP10 DUP1 REVERT JUMPDEST DUP4 DUP1 REVERT JUMPDEST POP DUP1 REVERT JUMPDEST PUSH1 0x40 MLOAD SWAP2 SWAP1 PUSH1 0x1F ADD PUSH1 0x1F NOT AND DUP3 ADD PUSH8 0xFFFFFFFFFFFFFFFF DUP2 GT DUP4 DUP3 LT OR PUSH2 0x2B9 JUMPI PUSH1 0x40 MSTORE JUMP JUMPDEST PUSH4 0x4E487B71 PUSH1 0xE0 SHL PUSH1 0x0 MSTORE PUSH1 0x41 PUSH1 0x4 MSTORE PUSH1 0x24 PUSH1 0x0 REVERT JUMPDEST PUSH8 0xFFFFFFFFFFFFFFFF DUP2 GT PUSH2 0x2B9 JUMPI PUSH1 0x5 SHL PUSH1 0x20 ADD SWAP1 JUMP JUMPDEST DUP1 MLOAD DUP3 LT ISZERO PUSH2 0x2FB JUMPI PUSH1 0x20 SWAP2 PUSH1 0x5 SHL ADD ADD SWAP1 JUMP JUMPDEST PUSH4 0x4E487B71 PUSH1 0xE0 SHL PUSH1 0x0 MSTORE PUSH1 0x32 PUSH1 0x4 MSTORE PUSH1 0x24 PUSH1 0x0 REVERT INVALID LOG2 PUSH5 0x6970667358 0x22 SLT KECCAK256 0xE 0x2E 0xF6 PUSH31 0xA05F10289A70E34832317C2F07B5595FFC20ED0D1090B34E711CBB0164736F PUSH13 0x63430008180033000000000000 "},"methodIdentifiers":{"distribute(address[],uint256[])":"2929abe6"}}}}}