{"contracts/AccessControl.sol":{"AyurHerbAccessControl":{"abi":[{"anonymous":false,"inputs":[{"indexed":true,"internalType":"address","name":"account","type":"address"}],"name":"CollectorRoleGranted","type":"event"},{"anonymous":false,"inputs":[{"indexed":true,"internalType":"address","name":"account","type":"address"}],"name":"CollectorRoleRevoked","type":"event"},{"anonymous":false,"inputs":[{"indexed":true,"internalType":"address","name":"account","type":"address"}],"name":"LabRoleGranted","type":"event"},{"anonymous":false,"inputs":[{"indexed":true,"internalType":"address","name":"account","type":"address"}],"name":"LabRoleRevoked","type":"event"},{"anonymous":false,"inputs":[{"indexed":true,"internalType":"address","name":"account","type":"address"}],"name":"ProcessorRoleGranted","type":"event"},{"anonymous":false,"inputs":[{"indexed":true,"internalType":"address","name":"account","type":"address"}],"name":"ProcessorRoleRevoked","type":"event"},{"inputs":[],"name":"ADMIN_ROLE","outputs":[{"internalType":"bytes32","name":"","type":"bytes32"}],"stateMutability":"view","type":"function"},{"inputs":[],"name":"COLLECTOR_ROLE","outputs":[{"internalType":"bytes32","name":"","type":"bytes32"}],"stateMutability":"view","type":"function"},{"inputs":[],"name":"LAB_ROLE","outputs":[{"internalType":"bytes32","name":"","type":"bytes32"}],"stateMutability":"view","type":"function"},{"inputs":[],"name":"MINTER_ROLE","outputs":[{"internalType":"bytes32","name":"","type":"bytes32"}],"stateMutability":"view","type":"function"},{"inputs":[],"name":"PROCESSOR_ROLE","outputs":[{"internalType":"bytes32","name":"","type":"bytes32"}],"stateMutability":"view","type":"function"},{"inputs":[],"name":"VERIFIER_ROLE","outputs":[{"internalType":"bytes32","name":"","type":"bytes32"}],"stateMutability":"view","type":"function"},{"inputs":[{"internalType":"address","name":"account","type":"address"}],"name":"grantCollectorRole","outputs":[],"stateMutability":"nonpayable","type":"function"},{"inputs":[{"internalType":"address","name":"account","type":"address"}],"name":"grantLabRole","outputs":[],"stateMutability":"nonpayable","type":"function"},{"inputs":[{"internalType":"address","name":"account","type":"address"}],"name":"grantProcessorRole","outputs":[],"stateMutability":"nonpayable","type":"function"},{"inputs":[{"internalType":"address","name":"account","type":"address"}],"name":"isCollector","outputs":[{"internalType":"bool","name":"","type":"bool"}],"stateMutability":"view","type":"function"},{"inputs":[{"internalType":"address","name":"account","type":"address"}],"name":"isLab","outputs":[{"internalType":"bool","name":"","type":"bool"}],"stateMutability":"view","type":"function"},{"inputs":[{"internalType":"address","name":"account","type":"address"}],"name":"isProcessor","outputs":[{"internalType":"bool","name":"","type":"bool"}],"stateMutability":"view","type":"function"},{"inputs":[{"internalType":"address","name":"account","type":"address"}],"name":"revokeCollectorRole","outputs":[],"stateMutability":"nonpayable","type":"function"},{"inputs":[{"internalType":"bytes32","name":"","type":"bytes32"},{"internalType":"address","name":"","type":"address"}],"name":"roles","outputs":[{"internalType":"bool","name":"","type":"bool"}],"stateMutability":"view","type":"function"}],"evm":{"bytecode":{"linkReferences":{},"object":"60808060405234610016576105e4908161001c8239f35b600080fdfe60806040818152600436101561001457600080fd5b600091823560e01c908162091988146105105750806304e542dd1461048557806330aaefda1461040c57806334795c56146103965780635e3908801461033257806362129804146102e057806375b238fc146102a65780638222bdb21461026c5780639ca39ae914610244578063bd3070c61461020a578063d5391393146101d0578063e7705db614610196578063e83c97de1461010b5763f8fc08b9146100bb57600080fd5b346101075780600319360112610107576024356001600160a01b03811690819003610103578160209360ff926004358252818652828220908252855220541690519015158152f35b8280fd5b5080fd5b503461010757602036600319011261010757610125610573565b7f373fdac787be5578b9a3d4a9ca3e3ae1e632ab5ee4750e92f65223238a15b2ef835260208381528284206001600160a01b03909216808552919052908220805460ff191660011790557f236a583485e1c8eae6fd9bae87993eb7e53c403af2200b146bcc2dd232ec5fa38280a280f35b5034610107578160031936011261010757602090517f0ce23c3e399818cfee81a7ab0880f714e53d7672b08df0fa62f2843416e1ea098152f35b5034610107578160031936011261010757602090517f9f2df0fed2c77648de5860a4cc508cd0818c85b8b8a1ab4ceeef8d981c8956a68152f35b5034610107578160031936011261010757602090517f373fdac787be5578b9a3d4a9ca3e3ae1e632ab5ee4750e92f65223238a15b2ef8152f35b50346101075781600319360112610107576020905160008051602061058f8339815191528152f35b5034610107578160031936011261010757602090517fe61decff6e4a5c6b5a3d3cbd28f882e595173563b49353ce5f31dba2de7f05ee8152f35b5034610107578160031936011261010757602090517fa49807205ce4d355092ef5a8a18f56e8913cf4a201fbe287825b095693c217758152f35b50346101075760203660031901126101075760ff81602093610300610573565b60008051602061058f83398151915282528186528282206001600160a01b039091168252855220549151911615158152f35b50346101075760203660031901126101075760ff81602093610352610573565b7f373fdac787be5578b9a3d4a9ca3e3ae1e632ab5ee4750e92f65223238a15b2ef82528186528282206001600160a01b039091168252855220549151911615158152f35b5034610107576020366003190112610107576103b0610573565b60008051602061058f833981519152835260208381528284206001600160a01b03909216808552919052908220805460ff191690557f90512772a910581b18caa93325b8b64e8c23f2a7e42716f955e29c01b28b38618280a280f35b503461010757602036600319011261010757610426610573565b60008051602061058f833981519152835260208381528284206001600160a01b03909216808552919052908220805460ff191660011790557f549b6d2c2976774037cc6fb3ef0492bd2d452a4e303cb300670ddc8af71df5208280a280f35b50346101075760203660031901126101075761049f610573565b7fe61decff6e4a5c6b5a3d3cbd28f882e595173563b49353ce5f31dba2de7f05ee835260208381528284206001600160a01b03909216808552919052908220805460ff191660011790557fd835404a0f4f56bce92ca29e1f237922e82e22876c1368cf31a5549c0ba3f7838280a280f35b919050346101035760203660031901126101035760ff90602093610532610573565b7fe61decff6e4a5c6b5a3d3cbd28f882e595173563b49353ce5f31dba2de7f05ee82528186528282206001600160a01b039091168252855220541615158152f35b600435906001600160a01b038216820361058957565b600080fdfe14cf45180c3fcf249a5a305e9657ea05c14fd4f4e1800ee0216a8213091711d2a264697066735822122010c0c1a01d16992c13040b4acd2b7e3bb3ac977a3847d8bbbc1a2cf366dd823c64736f6c63430008180033","opcodes":"PUSH1 0x80 DUP1 PUSH1 0x40 MSTORE CALLVALUE PUSH2 0x16 JUMPI PUSH2 0x5E4 SWAP1 DUP2 PUSH2 0x1C DUP3 CODECOPY RETURN JUMPDEST PUSH1 0x0 DUP1 REVERT INVALID PUSH1 0x80 PUSH1 0x40 DUP2 DUP2 MSTORE PUSH1 0x4 CALLDATASIZE LT ISZERO PUSH2 0x14 JUMPI PUSH1 0x0 DUP1 REVERT JUMPDEST PUSH1 0x0 SWAP2 DUP3 CALLDATALOAD PUSH1 0xE0 SHR SWAP1 DUP2 PUSH3 0x91988 EQ PUSH2 0x510 JUMPI POP DUP1 PUSH4 0x4E542DD EQ PUSH2 0x485 JUMPI DUP1 PUSH4 0x30AAEFDA EQ PUSH2 0x40C JUMPI DUP1 PUSH4 0x34795C56 EQ PUSH2 0x396 JUMPI DUP1 PUSH4 0x5E390880 EQ PUSH2 0x332 JUMPI DUP1 PUSH4 0x62129804 EQ PUSH2 0x2E0 JUMPI DUP1 PUSH4 0x75B238FC EQ PUSH2 0x2A6 JUMPI DUP1 PUSH4 0x8222BDB2 EQ PUSH2 0x26C JUMPI DUP1 PUSH4 0x9CA39AE9 EQ PUSH2 0x244 JUMPI DUP1 PUSH4 0xBD3070C6 EQ PUSH2 0x20A JUMPI DUP1 PUSH4 0xD5391393 EQ PUSH2 0x1D0 JUMPI DUP1 PUSH4 0xE7705DB6 EQ PUSH2 0x196 JUMPI DUP1 PUSH4 0xE83C97DE EQ PUSH2 0x10B JUMPI PUSH4 0xF8FC08B9 EQ PUSH2 0xBB JUMPI PUSH1 0x0 DUP1 REVERT JUMPDEST CALLVALUE PUSH2 0x107 JUMPI DUP1 PUSH1 0x3 NOT CALLDATASIZE ADD SLT PUSH2 0x107 JUMPI PUSH1 0x24 CALLDATALOAD PUSH1 0x1 PUSH1 0x1 PUSH1 0xA0 SHL SUB DUP2 AND SWAP1 DUP2 SWAP1 SUB PUSH2 0x103 JUMPI DUP2 PUSH1 0x20 SWAP4 PUSH1 0xFF SWAP3 PUSH1 0x4 CALLDATALOAD DUP3 MSTORE DUP2 DUP7 MSTORE DUP3 DUP3 KECCAK256 SWAP1 DUP3 MSTORE DUP6 MSTORE KECCAK256 SLOAD AND SWAP1 MLOAD SWAP1 ISZERO ISZERO DUP2 MSTORE RETURN JUMPDEST DUP3 DUP1 REVERT JUMPDEST POP DUP1 REVERT JUMPDEST POP CALLVALUE PUSH2 0x107 JUMPI PUSH1 0x20 CALLDATASIZE PUSH1 0x3 NOT ADD SLT PUSH2 0x107 JUMPI PUSH2 0x125 PUSH2 0x573 JUMP JUMPDEST PUSH32 0x373FDAC787BE5578B9A3D4A9CA3E3AE1E632AB5EE4750E92F65223238A15B2EF DUP4 MSTORE PUSH1 0x20 DUP4 DUP2 MSTORE DUP3 DUP5 KECCAK256 PUSH1 0x1 PUSH1 0x1 PUSH1 0xA0 SHL SUB SWAP1 SWAP3 AND DUP1 DUP6 MSTORE SWAP2 SWAP1 MSTORE SWAP1 DUP3 KECCAK256 DUP1 SLOAD PUSH1 0xFF NOT AND PUSH1 0x1 OR SWAP1 SSTORE PUSH32 0x236A583485E1C8EAE6FD9BAE87993EB7E53C403AF2200B146BCC2DD232EC5FA3 DUP3 DUP1 LOG2 DUP1 RETURN JUMPDEST POP CALLVALUE PUSH2 0x107 JUMPI DUP2 PUSH1 0x3 NOT CALLDATASIZE ADD SLT PUSH2 0x107 JUMPI PUSH1 0x20 SWAP1 MLOAD PUSH32 0xCE23C3E399818CFEE81A7AB0880F714E53D7672B08DF0FA62F2843416E1EA09 DUP2 MSTORE RETURN JUMPDEST POP CALLVALUE PUSH2 0x107 JUMPI DUP2 PUSH1 0x3 NOT CALLDATASIZE ADD SLT PUSH2 0x107 JUMPI PUSH1 0x20 SWAP1 MLOAD PUSH32 0x9F2DF0FED2C77648DE5860A4CC508CD0818C85B8B8A1AB4CEEEF8D981C8956A6 DUP2 MSTORE RETURN JUMPDEST POP CALLVALUE PUSH2 0x107 JUMPI DUP2 PUSH1 0x3 NOT CALLDATASIZE ADD SLT PUSH2 0x107 JUMPI PUSH1 0x20 SWAP1 MLOAD PUSH32 0x373FDAC787BE5578B9A3D4A9CA3E3AE1E632AB5EE4750E92F65223238A15B2EF DUP2 MSTORE RETURN JUMPDEST POP CALLVALUE PUSH2 0x107 JUMPI DUP2 PUSH1 0x3 NOT CALLDATASIZE ADD SLT PUSH2 0x107 JUMPI PUSH1 0x20 SWAP1 MLOAD PUSH1 0x0 DUP1 MLOAD PUSH1 0x20 PUSH2 0x58F DUP4 CODECOPY DUP2 MLOAD SWAP2 MSTORE DUP2 MSTORE RETURN JUMPDEST POP CALLVALUE PUSH2 0x107 JUMPI DUP2 PUSH1 0x3 NOT CALLDATASIZE ADD SLT PUSH2 0x107 JUMPI PUSH1 0x20 SWAP1 MLOAD PUSH32 0xE61DECFF6E4A5C6B5A3D3CBD28F882E595173563B49353CE5F31DBA2DE7F05EE DUP2 MSTORE RETURN JUMPDEST POP CALLVALUE PUSH2 0x107 JUMPI DUP2 PUSH1 0x3 NOT CALLDATASIZE ADD SLT PUSH2 0x107 JUMPI PUSH1 0x20 SWAP1 MLOAD PUSH32 0xA49807205CE4D355092EF5A8A18F56E8913CF4A201FBE287825B095693C21775 DUP2 MSTORE RETURN JUMPDEST POP CALLVALUE PUSH2 0x107 JUMPI PUSH1 0x20 CALLDATASIZE PUSH1 0x3 NOT ADD SLT PUSH2 0x107 JUMPI PUSH1 0xFF DUP2 PUSH1 0x20 SWAP4 PUSH2 0x300 PUSH2 0x573 JUMP JUMPDEST PUSH1 0x0 DUP1 MLOAD PUSH1 0x20 PUSH2 0x58F DUP4 CODECOPY DUP2 MLOAD SWAP2 MSTORE DUP3 MSTORE DUP2 DUP7 MSTORE DUP3 DUP3 KECCAK256 PUSH1 0x1 PUSH1 0x1 PUSH1 0xA0 SHL SUB SWAP1 SWAP2 AND DUP3 MSTORE DUP6 MSTORE KECCAK256 SLOAD SWAP2 MLOAD SWAP2 AND ISZERO ISZERO DUP2 MSTORE RETURN JUMPDEST POP CALLVALUE PUSH2 0x107 JUMPI PUSH1 0x20 CALLDATASIZE PUSH1 0x3 NOT ADD SLT PUSH2 0x107 JUMPI PUSH1 0xFF DUP2 PUSH1 0x20 SWAP4 PUSH2 0x352 PUSH2 0x573 JUMP JUMPDEST PUSH32 0x373FDAC787BE5578B9A3D4A9CA3E3AE1E632AB5EE4750E92F65223238A15B2EF DUP3 MSTORE DUP2 DUP7 MSTORE DUP3 DUP3 KECCAK256 PUSH1 0x1 PUSH1 0x1 PUSH1 0xA0 SHL SUB SWAP1 SWAP2 AND DUP3 MSTORE DUP6 MSTORE KECCAK256 SLOAD SWAP2 MLOAD SWAP2 AND ISZERO ISZERO DUP2 MSTORE RETURN JUMPDEST POP CALLVALUE PUSH2 0x107 JUMPI PUSH1 0x20 CALLDATASIZE PUSH1 0x3 NOT ADD SLT PUSH2 0x107 JUMPI PUSH2 0x3B0 PUSH2 0x573 JUMP JUMPDEST PUSH1 0x0 DUP1 MLOAD PUSH1 0x20 PUSH2 0x58F DUP4 CODECOPY DUP2 MLOAD SWAP2 MSTORE DUP4 MSTORE PUSH1 0x20 DUP4 DUP2 MSTORE DUP3 DUP5 KECCAK256 PUSH1 0x1 PUSH1 0x1 PUSH1 0xA0 SHL SUB SWAP1 SWAP3 AND DUP1 DUP6 MSTORE SWAP2 SWAP1 MSTORE SWAP1 DUP3 KECCAK256 DUP1 SLOAD PUSH1 0xFF NOT AND SWAP1 SSTORE PUSH32 0x90512772A910581B18CAA93325B8B64E8C23F2A7E42716F955E29C01B28B3861 DUP3 DUP1 LOG2 DUP1 RETURN JUMPDEST POP CALLVALUE PUSH2 0x107 JUMPI PUSH1 0x20 CALLDATASIZE PUSH1 0x3 NOT ADD SLT PUSH2 0x107 JUMPI PUSH2 0x426 PUSH2 0x573 JUMP JUMPDEST PUSH1 0x0 DUP1 MLOAD PUSH1 0x20 PUSH2 0x58F DUP4 CODECOPY DUP2 MLOAD SWAP2 MSTORE DUP4 MSTORE PUSH1 0x20 DUP4 DUP2 MSTORE DUP3 DUP5 KECCAK256 PUSH1 0x1 PUSH1 0x1 PUSH1 0xA0 SHL SUB SWAP1 SWAP3 AND DUP1 DUP6 MSTORE SWAP2 SWAP1 MSTORE SWAP1 DUP3 KECCAK256 DUP1 SLOAD PUSH1 0xFF NOT AND PUSH1 0x1 OR SWAP1 SSTORE PUSH32 0x549B6D2C2976774037CC6FB3EF0492BD2D452A4E303CB300670DDC8AF71DF520 DUP3 DUP1 LOG2 DUP1 RETURN JUMPDEST POP CALLVALUE PUSH2 0x107 JUMPI PUSH1 0x20 CALLDATASIZE PUSH1 0x3 NOT ADD SLT PUSH2 0x107 JUMPI PUSH2 0x49F PUSH2 0x573 JUMP JUMPDEST PUSH32 0xE61DECFF6E4A5C6B5A3D3CBD28F882E595173563B49353CE5F31DBA2DE7F05EE DUP4 MSTORE PUSH1 0x20 DUP4 DUP2 MSTORE DUP3 DUP5 KECCAK256 PUSH1 0x1 PUSH1 0x1 PUSH1 0xA0 SHL SUB SWAP1 SWAP3 AND DUP1 DUP6 MSTORE SWAP2 SWAP1 MSTORE SWAP1 DUP3 KECCAK256 DUP1 SLOAD PUSH1 0xFF NOT AND PUSH1 0x1 OR SWAP1 SSTORE PUSH32 0xD835404A0F4F56BCE92CA29E1F237922E82E22876C1368CF31A5549C0BA3F783 DUP3 DUP1 LOG2 DUP1 RETURN JUMPDEST SWAP2 SWAP1 POP CALLVALUE PUSH2 0x103 JUMPI PUSH1 0x20 CALLDATASIZE PUSH1 0x3 NOT ADD SLT PUSH2 0x103 JUMPI PUSH1 0xFF SWAP1 PUSH1 0x20 SWAP4 PUSH2 0x532 PUSH2 0x573 JUMP JUMPDEST PUSH32 0xE61DECFF6E4A5C6B5A3D3CBD28F882E595173563B49353CE5F31DBA2DE7F05EE DUP3 MSTORE DUP2 DUP7 MSTORE DUP3 DUP3 KECCAK256 PUSH1 0x1 PUSH1 0x1 PUSH1 0xA0 SHL SUB SWAP1 SWAP2 AND DUP3 MSTORE DUP6 MSTORE KECCAK256 SLOAD AND ISZERO ISZERO DUP2 MSTORE RETURN JUMPDEST PUSH1 0x4 CALLDATALOAD SWAP1 PUSH1 0x1 PUSH1 0x1 PUSH1 0xA0 SHL SUB DUP3 AND DUP3 SUB PUSH2 0x589 JUMPI JUMP JUMPDEST PUSH1 0x0 DUP1 REVERT INVALID EQ 0xCF GASLIMIT XOR 0xC EXTCODEHASH 0xCF 0x24 SWAP11 GAS ADDRESS MCOPY SWAP7 JUMPI 0xEA SDIV 0xC1 0x4F 0xD4 DELEGATECALL 0xE1 DUP1 0xE 0xE0 0x21 PUSH11 0x8213091711D2A264697066 PUSH20 0x5822122010C0C1A01D16992C13040B4ACD2B7E3B 0xB3 0xAC SWAP8 PUSH27 0x3847D8BBBC1A2CF366DD823C64736F6C6343000818003300000000 "},"methodIdentifiers":{"ADMIN_ROLE()":"75b238fc","COLLECTOR_ROLE()":"9ca39ae9","LAB_ROLE()":"bd3070c6","MINTER_ROLE()":"d5391393","PROCESSOR_ROLE()":"8222bdb2","VERIFIER_ROLE()":"e7705db6","grantCollectorRole(address)":"30aaefda","grantLabRole(address)":"e83c97de","grantProcessorRole(address)":"04e542dd","isCollector(address)":"62129804","isLab(address)":"5e390880","isProcessor(address)":"00091988","revokeCollectorRole(address)":"34795c56","roles(bytes32,address)":"f8fc08b9"}}}}}