{
  "_format": "hh-sol-artifact-1",
  "contractName": "SupplyChainEvents",
  "sourceName": "contracts/SupplyChainEvents.sol",
  "abi": [
    {
      "anonymous": false,
      "inputs": [
        {
          "indexed": true,
          "internalType": "bytes32",
          "name": "batchId",
          "type": "bytes32"
        },
        {
          "indexed": true,
          "internalType": "address",
          "name": "farmer",
          "type": "address"
        },
        {
          "indexed": false,
          "internalType": "uint256",
          "name": "timestamp",
          "type": "uint256"
        }
      ],
      "name": "BatchCreated",
      "type": "event"
    },
    {
      "anonymous": false,
      "inputs": [
        {
          "indexed": true,
          "internalType": "bytes32",
          "name": "batchId",
          "type": "bytes32"
        },
        {
          "indexed": true,
          "internalType": "address",
          "name": "processor",
          "type": "address"
        },
        {
          "indexed": false,
          "internalType": "uint256",
          "name": "timestamp",
          "type": "uint256"
        }
      ],
      "name": "BatchProcessed",
      "type": "event"
    },
    {
      "anonymous": false,
      "inputs": [
        {
          "indexed": true,
          "internalType": "bytes32",
          "name": "batchId",
          "type": "bytes32"
        },
        {
          "indexed": true,
          "internalType": "address",
          "name": "from",
          "type": "address"
        },
        {
          "indexed": true,
          "internalType": "address",
          "name": "to",
          "type": "address"
        }
      ],
      "name": "OwnershipTransferred",
      "type": "event"
    },
    {
      "anonymous": false,
      "inputs": [
        {
          "indexed": true,
          "internalType": "bytes32",
          "name": "batchId",
          "type": "bytes32"
        },
        {
          "indexed": true,
          "internalType": "address",
          "name": "retailer",
          "type": "address"
        },
        {
          "indexed": false,
          "internalType": "uint256",
          "name": "timestamp",
          "type": "uint256"
        }
      ],
      "name": "ProductDelivered",
      "type": "event"
    },
    {
      "anonymous": false,
      "inputs": [
        {
          "indexed": true,
          "internalType": "bytes32",
          "name": "batchId",
          "type": "bytes32"
        },
        {
          "indexed": true,
          "internalType": "address",
          "name": "logistics",
          "type": "address"
        },
        {
          "indexed": false,
          "internalType": "uint256",
          "name": "timestamp",
          "type": "uint256"
        }
      ],
      "name": "ProductShipped",
      "type": "event"
    },
    {
      "anonymous": false,
      "inputs": [
        {
          "indexed": true,
          "internalType": "bytes32",
          "name": "batchId",
          "type": "bytes32"
        },
        {
          "indexed": true,
          "internalType": "address",
          "name": "lab",
          "type": "address"
        },
        {
          "indexed": false,
          "internalType": "uint256",
          "name": "timestamp",
          "type": "uint256"
        }
      ],
      "name": "QualityTested",
      "type": "event"
    },
    {
      "inputs": [
        {
          "internalType": "bytes32",
          "name": "batchId",
          "type": "bytes32"
        },
        {
          "internalType": "string",
          "name": "eventType",
          "type": "string"
        },
        {
          "internalType": "address",
          "name": "party",
          "type": "address"
        },
        {
          "internalType": "string",
          "name": "location",
          "type": "string"
        }
      ],
      "name": "addEvent",
      "outputs": [],
      "stateMutability": "nonpayable",
      "type": "function"
    },
    {
      "inputs": [
        {
          "internalType": "bytes32",
          "name": "batchId",
          "type": "bytes32"
        }
      ],
      "name": "getEventCount",
      "outputs": [
        {
          "internalType": "uint256",
          "name": "",
          "type": "uint256"
        }
      ],
      "stateMutability": "view",
      "type": "function"
    },
    {
      "inputs": [
        {
          "internalType": "bytes32",
          "name": "batchId",
          "type": "bytes32"
        }
      ],
      "name": "getEvents",
      "outputs": [
        {
          "components": [
            {
              "internalType": "bytes32",
              "name": "batchId",
              "type": "bytes32"
            },
            {
              "internalType": "string",
              "name": "eventType",
              "type": "string"
            },
            {
              "internalType": "address",
              "name": "party",
              "type": "address"
            },
            {
              "internalType": "uint256",
              "name": "timestamp",
              "type": "uint256"
            },
            {
              "internalType": "string",
              "name": "location",
              "type": "string"
            }
          ],
          "internalType": "struct SupplyChainEvents.SupplyEvent[]",
          "name": "",
          "type": "tuple[]"
        }
      ],
      "stateMutability": "view",
      "type": "function"
    },
    {
      "inputs": [
        {
          "internalType": "bytes32",
          "name": "",
          "type": "bytes32"
        },
        {
          "internalType": "uint256",
          "name": "",
          "type": "uint256"
        }
      ],
      "name": "supplyChain",
      "outputs": [
        {
          "internalType": "bytes32",
          "name": "batchId",
          "type": "bytes32"
        },
        {
          "internalType": "string",
          "name": "eventType",
          "type": "string"
        },
        {
          "internalType": "address",
          "name": "party",
          "type": "address"
        },
        {
          "internalType": "uint256",
          "name": "timestamp",
          "type": "uint256"
        },
        {
          "internalType": "string",
          "name": "location",
          "type": "string"
        }
      ],
      "stateMutability": "view",
      "type": "function"
    }
  ],
  "bytecode": "0x6080806040523461001657610833908161001c8239f35b600080fdfe6080604090808252600436101561001557600080fd5b60003560e01c9081632ed8dcf7146105d15750806336a014aa1461053157806368135a51146103cd5763a2b1ecc91461004d57600080fd5b346103c85760803660031901126103c85760043560243567ffffffffffffffff81116103c857610081903690600401610788565b6044356001600160a01b03811692908390036103c8576064359067ffffffffffffffff82116103c8576100e46100be6100fd933690600401610788565b91909287600052600060205288600020958951986100db8a610665565b895236916107b6565b94602087019586528787015242606087015236916107b6565b60808401528054680100000000000000008110156102d257610124916001820181556105f9565b9190916103b257825182555192835167ffffffffffffffff81116102d25761014f600184015461062b565b601f8111610367575b506020601f82116001146102f35790806004949392608096976000926102e8575b50508160011b916000199060031b1c19161760018301555b600282019060018060a01b0390860151166bffffffffffffffffffffffff60a01b825416179055606084015160038201550191015190815167ffffffffffffffff81116102d2576101e2825461062b565b601f811161028a575b50602092601f8211600114610229579281929360009261021e575b5050600019600383901b1c191660019190911b179055005b015190503880610206565b601f198216938360005260206000209160005b8681106102725750836001959610610259575b505050811b019055005b015160001960f88460031b161c1916905538808061024f565b9192602060018192868501518155019401920161023c565b826000526020600020601f830160051c810191602084106102c8575b601f0160051c01905b8181106102bc57506101eb565b600081556001016102af565b90915081906102a6565b634e487b7160e01b600052604160045260246000fd5b015190503880610179565b601f198216956001850160005260206000209660005b81811061034f575096600192849260049796956080999a10610336575b505050811b016001830155610191565b015160001960f88460031b161c19169055388080610326565b83830151895560019098019760209384019301610309565b600184016000526020600020601f830160051c810191602084106103a8575b601f0160051c01905b81811061039c5750610158565b6000815560010161038f565b9091508190610386565b634e487b7160e01b600052600060045260246000fd5b600080fd5b50346103c8576020806003193601126103c8576004356000526000815281600020805467ffffffffffffffff81116102d25783519290600561041382821b840186610681565b8185528285018094600052836000206000915b8483106104cf575050505050835192818401908285525180915284840191858260051b86010193926000965b83881061045f5786860387f35b909192939483806104be600193603f198b8203018752895161049260a08251845285830151908087860152840190610748565b91868060a01b038883015116888201526060808301519082015260808092015191818403910152610748565b970193019701969093929193610452565b83866001928b9a989a516104e281610665565b855481526104f18587016106a3565b83820152848060a01b036002870154168d8201526003860154606082015261051b600487016106a3565b6080820152815201920192019190969496610426565b50346103c857806003193601126103c8576024356004356000526000602052816000209081548110156103c857610567916105f9565b50906105cd82549161057b600185016106a3565b9360018060a01b036002820154169061059b6004600383015492016106a3565b916105b78451978897885260a0602089015260a0880190610748565b9386015260608501528382036080850152610748565b0390f35b9050346103c85760203660031901126103c85760209160043560005260008352600020548152f35b8054821015610615576000526005602060002091020190600090565b634e487b7160e01b600052603260045260246000fd5b90600182811c9216801561065b575b602083101461064557565b634e487b7160e01b600052602260045260246000fd5b91607f169161063a565b60a0810190811067ffffffffffffffff8211176102d257604052565b90601f8019910116810190811067ffffffffffffffff8211176102d257604052565b906040519182600082546106b68161062b565b9081845260209460019160018116908160001461072657506001146106e7575b5050506106e592500383610681565b565b600090815285812095935091905b81831061070e5750506106e593508201013880806106d6565b855488840185015294850194879450918301916106f5565b925050506106e594925060ff191682840152151560051b8201013880806106d6565b919082519283825260005b848110610774575050826000602080949584010152601f8019910116010190565b602081830181015184830182015201610753565b9181601f840112156103c85782359167ffffffffffffffff83116103c857602083818601950101116103c857565b92919267ffffffffffffffff82116102d257604051916107e0601f8201601f191660200184610681565b8294818452818301116103c857828160209384600096013701015256fea2646970667358221220a7711024d40e8af861328521778586c23259a1958548798f00e26b1534c3cf2d64736f6c63430008180033",
  "linkReferences": {},
  "deployedLinkReferences": {}
}