{
  "_format": "hh-sol-artifact-1",
  "contractName": "AuditContract",
  "sourceName": "contracts/Audit.sol",
  "abi": [
    {
      "anonymous": false,
      "inputs": [
        {
          "indexed": true,
          "internalType": "address",
          "name": "actor",
          "type": "address"
        },
        {
          "indexed": false,
          "internalType": "string",
          "name": "action",
          "type": "string"
        },
        {
          "indexed": false,
          "internalType": "uint256",
          "name": "batchId",
          "type": "uint256"
        }
      ],
      "name": "AuditLog",
      "type": "event"
    },
    {
      "inputs": [
        {
          "internalType": "uint256",
          "name": "",
          "type": "uint256"
        },
        {
          "internalType": "uint256",
          "name": "",
          "type": "uint256"
        }
      ],
      "name": "batchAudits",
      "outputs": [
        {
          "internalType": "address",
          "name": "actor",
          "type": "address"
        },
        {
          "internalType": "string",
          "name": "action",
          "type": "string"
        },
        {
          "internalType": "uint256",
          "name": "batchTokenId",
          "type": "uint256"
        },
        {
          "internalType": "string",
          "name": "details",
          "type": "string"
        },
        {
          "internalType": "uint256",
          "name": "timestamp",
          "type": "uint256"
        }
      ],
      "stateMutability": "view",
      "type": "function"
    },
    {
      "inputs": [
        {
          "internalType": "uint256",
          "name": "_batchId",
          "type": "uint256"
        }
      ],
      "name": "getBatchAuditTrail",
      "outputs": [
        {
          "components": [
            {
              "internalType": "address",
              "name": "actor",
              "type": "address"
            },
            {
              "internalType": "string",
              "name": "action",
              "type": "string"
            },
            {
              "internalType": "uint256",
              "name": "batchTokenId",
              "type": "uint256"
            },
            {
              "internalType": "string",
              "name": "details",
              "type": "string"
            },
            {
              "internalType": "uint256",
              "name": "timestamp",
              "type": "uint256"
            }
          ],
          "internalType": "struct AuditContract.AuditEntry[]",
          "name": "",
          "type": "tuple[]"
        }
      ],
      "stateMutability": "view",
      "type": "function"
    },
    {
      "inputs": [
        {
          "internalType": "uint256",
          "name": "_batchId",
          "type": "uint256"
        },
        {
          "internalType": "string",
          "name": "_action",
          "type": "string"
        },
        {
          "internalType": "string",
          "name": "_details",
          "type": "string"
        }
      ],
      "name": "logAudit",
      "outputs": [],
      "stateMutability": "nonpayable",
      "type": "function"
    },
    {
      "inputs": [
        {
          "internalType": "address",
          "name": "",
          "type": "address"
        },
        {
          "internalType": "uint256",
          "name": "",
          "type": "uint256"
        }
      ],
      "name": "userAudits",
      "outputs": [
        {
          "internalType": "uint256",
          "name": "",
          "type": "uint256"
        }
      ],
      "stateMutability": "view",
      "type": "function"
    }
  ],
  "bytecode": "0x60808060405234610016576108c7908161001c8239f35b600080fdfe608080604052600436101561001357600080fd5b60003560e01c90816373247a031461052d5750806388405ca01461014d5780639d106b06146100f35763baeed10f1461004b57600080fd5b346100ee5760403660031901126100ee57602435600435600052600060205260406000209081548110156100ee5761008291610796565b5080546001600160a01b031661009a600183016107ec565b916100e4600282015460046100b1600385016107ec565b930154926100d1604051968796875260a0602088015260a0870190610693565b9160408601528482036060860152610693565b9060808301520390f35b600080fd5b346100ee5760403660031901126100ee576004356001600160a01b038116908190036100ee57602435906000526001602052604060002080548210156100ee5760209161013f91610768565b90546040519160031b1c8152f35b346100ee5760603660031901126100ee5760243567ffffffffffffffff81116100ee5761017e903690600401610711565b60443567ffffffffffffffff81116100ee5761019e903690600401610711565b906004356000526000602052604060002091604051926101bd846106d3565b3384526020840191838352600435604086015260608501524260808501528054600160401b811015610377576101f891600182018155610796565b91909161051757835182546001600160a01b0319166001600160a01b039190911617825551805190939067ffffffffffffffff81116103775761023e60018401546107b2565b601f81116104d0575b506020601f8211600114610461578192939495600092610456575b50508160011b916000199060031b1c19161760018301555b60408101516002830155606081015180519067ffffffffffffffff8211610377576102a860038501546107b2565b601f811161040b575b50602090601f83116001146103985791806004949260809460009261038d575b50508160011b916000199060031b1c19161760038501555b015191015533600052600160205260406000208054600160401b8110156103775761031991600182018155610768565b81549060031b90600435821b91600019901b19161790557f65e43023644c359b3571c2e814b7b1ee3b033dc6ac36dca578e6e28289f7cc3761036660405192604084526040840190610693565b9160043560208201528033930390a2005b634e487b7160e01b600052604160045260246000fd5b0151905087806102d1565b90601f198316916003860160005260206000209260005b8181106103f3575092600192859260809660049896106103da575b505050811b0160038501556102e9565b015160001960f88460031b161c191690558780806103ca565b929360206001819287860151815501950193016103af565b600385016000526020600020601f840160051c8101916020851061044c575b601f0160051c01905b81811061044057506102b1565b60008155600101610433565b909150819061042a565b015190508580610262565b6001840160005260206000209060005b601f19841681106104b8575060019394959683601f1981161061049f575b505050811b01600183015561027a565b015160001960f88460031b161c1916905585808061048f565b9091602060018192858b015181550193019101610471565b600184016000526020600020601f830160051c810160208410610510575b601f830160051c82018110610504575050610247565b600081556001016104ee565b50806104ee565b634e487b7160e01b600052600060045260246000fd5b346100ee57602090816003193601126100ee57600435600052600082526040600020805467ffffffffffffffff8111610377576005939293610574848360051b01866106ef565b8185528385018093600052846000206000915b84831061062f57604080518881528951818a01819052600092600582901b83018101918a918c9085015b8287106105be5785850386f35b909192938280600192603f198982030185528751906106156105f860a0878060a01b03855116845285850151908087860152840190610693565b604084015160408401526060808501519084830390850152610693565b9160808091015191015296019201960195929190926105b1565b838760019260409a999a51610643816106d3565b848060a01b0386541681526106598587016107ec565b8382015260028601546040820152610673600387016107ec565b606082015260048601546080820152815201920192019190969596610587565b919082519283825260005b8481106106bf575050826000602080949584010152601f8019910116010190565b60208183018101518483018201520161069e565b60a0810190811067ffffffffffffffff82111761037757604052565b90601f8019910116810190811067ffffffffffffffff82111761037757604052565b81601f820112156100ee5780359067ffffffffffffffff82116103775760405192610746601f8401601f1916602001856106ef565b828452602083830101116100ee57816000926020809301838601378301015290565b80548210156107805760005260206000200190600090565b634e487b7160e01b600052603260045260246000fd5b8054821015610780576000526005602060002091020190600090565b90600182811c921680156107e2575b60208310146107cc57565b634e487b7160e01b600052602260045260246000fd5b91607f16916107c1565b906040519182600082546107ff816107b2565b9081845260209460019160018116908160001461086f5750600114610830575b50505061082e925003836106ef565b565b600090815285812095935091905b81831061085757505061082e935082010138808061081f565b8554888401850152948501948794509183019161083e565b9250505061082e94925060ff191682840152151560051b82010138808061081f56fea26469706673582212204a29959a8e576c8067db37e9e58f23f412142ba7d68b1a8740de145910508e2864736f6c63430008180033",
  "linkReferences": {},
  "deployedLinkReferences": {}
}