{
  "_format": "hh-sol-artifact-1",
  "contractName": "MarketplaceContract",
  "sourceName": "contracts/MarketplaceContract.sol",
  "abi": [
    {
      "inputs": [],
      "stateMutability": "nonpayable",
      "type": "constructor"
    },
    {
      "inputs": [
        {
          "internalType": "address",
          "name": "owner",
          "type": "address"
        }
      ],
      "name": "OwnableInvalidOwner",
      "type": "error"
    },
    {
      "inputs": [
        {
          "internalType": "address",
          "name": "account",
          "type": "address"
        }
      ],
      "name": "OwnableUnauthorizedAccount",
      "type": "error"
    },
    {
      "anonymous": false,
      "inputs": [
        {
          "indexed": true,
          "internalType": "uint256",
          "name": "auctionId",
          "type": "uint256"
        },
        {
          "indexed": true,
          "internalType": "uint256",
          "name": "batchTokenId",
          "type": "uint256"
        },
        {
          "indexed": false,
          "internalType": "address",
          "name": "seller",
          "type": "address"
        },
        {
          "indexed": false,
          "internalType": "uint256",
          "name": "startingPrice",
          "type": "uint256"
        },
        {
          "indexed": false,
          "internalType": "uint256",
          "name": "endTime",
          "type": "uint256"
        },
        {
          "indexed": false,
          "internalType": "uint256",
          "name": "timestamp",
          "type": "uint256"
        }
      ],
      "name": "AuctionCreated",
      "type": "event"
    },
    {
      "anonymous": false,
      "inputs": [
        {
          "indexed": true,
          "internalType": "uint256",
          "name": "auctionId",
          "type": "uint256"
        },
        {
          "indexed": false,
          "internalType": "address",
          "name": "winner",
          "type": "address"
        },
        {
          "indexed": false,
          "internalType": "uint256",
          "name": "winningBid",
          "type": "uint256"
        },
        {
          "indexed": false,
          "internalType": "uint256",
          "name": "timestamp",
          "type": "uint256"
        }
      ],
      "name": "AuctionEnded",
      "type": "event"
    },
    {
      "anonymous": false,
      "inputs": [
        {
          "indexed": true,
          "internalType": "uint256",
          "name": "auctionId",
          "type": "uint256"
        },
        {
          "indexed": false,
          "internalType": "address",
          "name": "bidder",
          "type": "address"
        },
        {
          "indexed": false,
          "internalType": "uint256",
          "name": "bidAmount",
          "type": "uint256"
        },
        {
          "indexed": false,
          "internalType": "uint256",
          "name": "timestamp",
          "type": "uint256"
        }
      ],
      "name": "BidPlaced",
      "type": "event"
    },
    {
      "anonymous": false,
      "inputs": [
        {
          "indexed": true,
          "internalType": "uint256",
          "name": "listingId",
          "type": "uint256"
        },
        {
          "indexed": false,
          "internalType": "address",
          "name": "canceller",
          "type": "address"
        },
        {
          "indexed": false,
          "internalType": "uint256",
          "name": "timestamp",
          "type": "uint256"
        }
      ],
      "name": "Cancelled",
      "type": "event"
    },
    {
      "anonymous": false,
      "inputs": [
        {
          "indexed": true,
          "internalType": "uint256",
          "name": "listingId",
          "type": "uint256"
        },
        {
          "indexed": true,
          "internalType": "uint256",
          "name": "batchTokenId",
          "type": "uint256"
        },
        {
          "indexed": false,
          "internalType": "address",
          "name": "seller",
          "type": "address"
        },
        {
          "indexed": false,
          "internalType": "uint256",
          "name": "price",
          "type": "uint256"
        },
        {
          "indexed": false,
          "internalType": "uint256",
          "name": "expiresAt",
          "type": "uint256"
        },
        {
          "indexed": false,
          "internalType": "uint256",
          "name": "timestamp",
          "type": "uint256"
        }
      ],
      "name": "Listed",
      "type": "event"
    },
    {
      "anonymous": false,
      "inputs": [
        {
          "indexed": true,
          "internalType": "uint256",
          "name": "offerId",
          "type": "uint256"
        },
        {
          "indexed": true,
          "internalType": "uint256",
          "name": "listingId",
          "type": "uint256"
        },
        {
          "indexed": false,
          "internalType": "uint256",
          "name": "timestamp",
          "type": "uint256"
        }
      ],
      "name": "OfferAccepted",
      "type": "event"
    },
    {
      "anonymous": false,
      "inputs": [
        {
          "indexed": true,
          "internalType": "uint256",
          "name": "offerId",
          "type": "uint256"
        },
        {
          "indexed": true,
          "internalType": "uint256",
          "name": "listingId",
          "type": "uint256"
        },
        {
          "indexed": false,
          "internalType": "address",
          "name": "offerer",
          "type": "address"
        },
        {
          "indexed": false,
          "internalType": "uint256",
          "name": "price",
          "type": "uint256"
        },
        {
          "indexed": false,
          "internalType": "uint256",
          "name": "timestamp",
          "type": "uint256"
        }
      ],
      "name": "OfferMade",
      "type": "event"
    },
    {
      "anonymous": false,
      "inputs": [
        {
          "indexed": true,
          "internalType": "address",
          "name": "previousOwner",
          "type": "address"
        },
        {
          "indexed": true,
          "internalType": "address",
          "name": "newOwner",
          "type": "address"
        }
      ],
      "name": "OwnershipTransferred",
      "type": "event"
    },
    {
      "anonymous": false,
      "inputs": [
        {
          "indexed": true,
          "internalType": "uint256",
          "name": "listingId",
          "type": "uint256"
        },
        {
          "indexed": true,
          "internalType": "uint256",
          "name": "batchTokenId",
          "type": "uint256"
        },
        {
          "indexed": false,
          "internalType": "address",
          "name": "seller",
          "type": "address"
        },
        {
          "indexed": false,
          "internalType": "address",
          "name": "buyer",
          "type": "address"
        },
        {
          "indexed": false,
          "internalType": "uint256",
          "name": "price",
          "type": "uint256"
        },
        {
          "indexed": false,
          "internalType": "uint256",
          "name": "timestamp",
          "type": "uint256"
        }
      ],
      "name": "Sold",
      "type": "event"
    },
    {
      "inputs": [],
      "name": "FEE_DENOMINATOR",
      "outputs": [
        {
          "internalType": "uint256",
          "name": "",
          "type": "uint256"
        }
      ],
      "stateMutability": "view",
      "type": "function"
    },
    {
      "inputs": [
        {
          "internalType": "uint256",
          "name": "_listingId",
          "type": "uint256"
        },
        {
          "internalType": "uint256",
          "name": "_offerIndex",
          "type": "uint256"
        }
      ],
      "name": "acceptOffer",
      "outputs": [],
      "stateMutability": "payable",
      "type": "function"
    },
    {
      "inputs": [
        {
          "internalType": "uint256",
          "name": "",
          "type": "uint256"
        }
      ],
      "name": "auctions",
      "outputs": [
        {
          "internalType": "uint256",
          "name": "id",
          "type": "uint256"
        },
        {
          "internalType": "uint256",
          "name": "batchTokenId",
          "type": "uint256"
        },
        {
          "internalType": "address",
          "name": "seller",
          "type": "address"
        },
        {
          "internalType": "address",
          "name": "highestBidder",
          "type": "address"
        },
        {
          "internalType": "uint256",
          "name": "highestBid",
          "type": "uint256"
        },
        {
          "internalType": "uint256",
          "name": "startingPrice",
          "type": "uint256"
        },
        {
          "internalType": "uint256",
          "name": "startTime",
          "type": "uint256"
        },
        {
          "internalType": "uint256",
          "name": "endTime",
          "type": "uint256"
        },
        {
          "internalType": "bool",
          "name": "ended",
          "type": "bool"
        },
        {
          "internalType": "address",
          "name": "winner",
          "type": "address"
        }
      ],
      "stateMutability": "view",
      "type": "function"
    },
    {
      "inputs": [
        {
          "internalType": "uint256",
          "name": "_listingId",
          "type": "uint256"
        }
      ],
      "name": "cancelListing",
      "outputs": [],
      "stateMutability": "nonpayable",
      "type": "function"
    },
    {
      "inputs": [
        {
          "internalType": "uint256",
          "name": "_batchTokenId",
          "type": "uint256"
        },
        {
          "internalType": "uint256",
          "name": "_startingPrice",
          "type": "uint256"
        },
        {
          "internalType": "uint256",
          "name": "_durationDays",
          "type": "uint256"
        }
      ],
      "name": "createAuction",
      "outputs": [
        {
          "internalType": "uint256",
          "name": "",
          "type": "uint256"
        }
      ],
      "stateMutability": "nonpayable",
      "type": "function"
    },
    {
      "inputs": [
        {
          "internalType": "uint256",
          "name": "_auctionId",
          "type": "uint256"
        }
      ],
      "name": "endAuction",
      "outputs": [],
      "stateMutability": "nonpayable",
      "type": "function"
    },
    {
      "inputs": [],
      "name": "getActiveListingsCount",
      "outputs": [
        {
          "internalType": "uint256",
          "name": "count",
          "type": "uint256"
        }
      ],
      "stateMutability": "view",
      "type": "function"
    },
    {
      "inputs": [
        {
          "internalType": "uint256",
          "name": "_auctionId",
          "type": "uint256"
        }
      ],
      "name": "getAuction",
      "outputs": [
        {
          "components": [
            {
              "internalType": "uint256",
              "name": "id",
              "type": "uint256"
            },
            {
              "internalType": "uint256",
              "name": "batchTokenId",
              "type": "uint256"
            },
            {
              "internalType": "address",
              "name": "seller",
              "type": "address"
            },
            {
              "internalType": "address",
              "name": "highestBidder",
              "type": "address"
            },
            {
              "internalType": "uint256",
              "name": "highestBid",
              "type": "uint256"
            },
            {
              "internalType": "uint256",
              "name": "startingPrice",
              "type": "uint256"
            },
            {
              "internalType": "uint256",
              "name": "startTime",
              "type": "uint256"
            },
            {
              "internalType": "uint256",
              "name": "endTime",
              "type": "uint256"
            },
            {
              "internalType": "bool",
              "name": "ended",
              "type": "bool"
            },
            {
              "internalType": "address",
              "name": "winner",
              "type": "address"
            }
          ],
          "internalType": "struct MarketplaceContract.Auction",
          "name": "",
          "type": "tuple"
        }
      ],
      "stateMutability": "view",
      "type": "function"
    },
    {
      "inputs": [
        {
          "internalType": "uint256",
          "name": "_listingId",
          "type": "uint256"
        }
      ],
      "name": "getListing",
      "outputs": [
        {
          "components": [
            {
              "internalType": "uint256",
              "name": "id",
              "type": "uint256"
            },
            {
              "internalType": "uint256",
              "name": "batchTokenId",
              "type": "uint256"
            },
            {
              "internalType": "address",
              "name": "seller",
              "type": "address"
            },
            {
              "internalType": "address",
              "name": "buyer",
              "type": "address"
            },
            {
              "internalType": "uint256",
              "name": "price",
              "type": "uint256"
            },
            {
              "internalType": "enum MarketplaceContract.ListingStatus",
              "name": "status",
              "type": "uint8"
            },
            {
              "internalType": "uint256",
              "name": "listedAt",
              "type": "uint256"
            },
            {
              "internalType": "uint256",
              "name": "expiresAt",
              "type": "uint256"
            },
            {
              "internalType": "string",
              "name": "currency",
              "type": "string"
            }
          ],
          "internalType": "struct MarketplaceContract.Listing",
          "name": "",
          "type": "tuple"
        }
      ],
      "stateMutability": "view",
      "type": "function"
    },
    {
      "inputs": [
        {
          "internalType": "uint256",
          "name": "_listingId",
          "type": "uint256"
        }
      ],
      "name": "getListingOffers",
      "outputs": [
        {
          "components": [
            {
              "internalType": "uint256",
              "name": "id",
              "type": "uint256"
            },
            {
              "internalType": "uint256",
              "name": "listingId",
              "type": "uint256"
            },
            {
              "internalType": "address",
              "name": "offerer",
              "type": "address"
            },
            {
              "internalType": "uint256",
              "name": "price",
              "type": "uint256"
            },
            {
              "internalType": "uint256",
              "name": "expiresAt",
              "type": "uint256"
            },
            {
              "internalType": "bool",
              "name": "accepted",
              "type": "bool"
            },
            {
              "internalType": "bool",
              "name": "rejected",
              "type": "bool"
            }
          ],
          "internalType": "struct MarketplaceContract.Offer[]",
          "name": "",
          "type": "tuple[]"
        }
      ],
      "stateMutability": "view",
      "type": "function"
    },
    {
      "inputs": [
        {
          "internalType": "address",
          "name": "_user",
          "type": "address"
        }
      ],
      "name": "getUserAuctions",
      "outputs": [
        {
          "internalType": "uint256[]",
          "name": "",
          "type": "uint256[]"
        }
      ],
      "stateMutability": "view",
      "type": "function"
    },
    {
      "inputs": [
        {
          "internalType": "address",
          "name": "_user",
          "type": "address"
        }
      ],
      "name": "getUserListings",
      "outputs": [
        {
          "internalType": "uint256[]",
          "name": "",
          "type": "uint256[]"
        }
      ],
      "stateMutability": "view",
      "type": "function"
    },
    {
      "inputs": [
        {
          "internalType": "address",
          "name": "_user",
          "type": "address"
        }
      ],
      "name": "getUserPurchases",
      "outputs": [
        {
          "internalType": "uint256[]",
          "name": "",
          "type": "uint256[]"
        }
      ],
      "stateMutability": "view",
      "type": "function"
    },
    {
      "inputs": [
        {
          "internalType": "uint256",
          "name": "_batchTokenId",
          "type": "uint256"
        },
        {
          "internalType": "uint256",
          "name": "_price",
          "type": "uint256"
        },
        {
          "internalType": "uint256",
          "name": "_durationDays",
          "type": "uint256"
        },
        {
          "internalType": "string",
          "name": "_currency",
          "type": "string"
        }
      ],
      "name": "listBatch",
      "outputs": [
        {
          "internalType": "uint256",
          "name": "",
          "type": "uint256"
        }
      ],
      "stateMutability": "nonpayable",
      "type": "function"
    },
    {
      "inputs": [
        {
          "internalType": "uint256",
          "name": "",
          "type": "uint256"
        },
        {
          "internalType": "uint256",
          "name": "",
          "type": "uint256"
        }
      ],
      "name": "listingOffers",
      "outputs": [
        {
          "internalType": "uint256",
          "name": "id",
          "type": "uint256"
        },
        {
          "internalType": "uint256",
          "name": "listingId",
          "type": "uint256"
        },
        {
          "internalType": "address",
          "name": "offerer",
          "type": "address"
        },
        {
          "internalType": "uint256",
          "name": "price",
          "type": "uint256"
        },
        {
          "internalType": "uint256",
          "name": "expiresAt",
          "type": "uint256"
        },
        {
          "internalType": "bool",
          "name": "accepted",
          "type": "bool"
        },
        {
          "internalType": "bool",
          "name": "rejected",
          "type": "bool"
        }
      ],
      "stateMutability": "view",
      "type": "function"
    },
    {
      "inputs": [
        {
          "internalType": "uint256",
          "name": "",
          "type": "uint256"
        }
      ],
      "name": "listings",
      "outputs": [
        {
          "internalType": "uint256",
          "name": "id",
          "type": "uint256"
        },
        {
          "internalType": "uint256",
          "name": "batchTokenId",
          "type": "uint256"
        },
        {
          "internalType": "address",
          "name": "seller",
          "type": "address"
        },
        {
          "internalType": "address",
          "name": "buyer",
          "type": "address"
        },
        {
          "internalType": "uint256",
          "name": "price",
          "type": "uint256"
        },
        {
          "internalType": "enum MarketplaceContract.ListingStatus",
          "name": "status",
          "type": "uint8"
        },
        {
          "internalType": "uint256",
          "name": "listedAt",
          "type": "uint256"
        },
        {
          "internalType": "uint256",
          "name": "expiresAt",
          "type": "uint256"
        },
        {
          "internalType": "string",
          "name": "currency",
          "type": "string"
        }
      ],
      "stateMutability": "view",
      "type": "function"
    },
    {
      "inputs": [
        {
          "internalType": "uint256",
          "name": "_listingId",
          "type": "uint256"
        },
        {
          "internalType": "uint256",
          "name": "_price",
          "type": "uint256"
        },
        {
          "internalType": "uint256",
          "name": "_durationDays",
          "type": "uint256"
        }
      ],
      "name": "makeOffer",
      "outputs": [],
      "stateMutability": "nonpayable",
      "type": "function"
    },
    {
      "inputs": [],
      "name": "nextAuctionId",
      "outputs": [
        {
          "internalType": "uint256",
          "name": "",
          "type": "uint256"
        }
      ],
      "stateMutability": "view",
      "type": "function"
    },
    {
      "inputs": [],
      "name": "nextListingId",
      "outputs": [
        {
          "internalType": "uint256",
          "name": "",
          "type": "uint256"
        }
      ],
      "stateMutability": "view",
      "type": "function"
    },
    {
      "inputs": [],
      "name": "owner",
      "outputs": [
        {
          "internalType": "address",
          "name": "",
          "type": "address"
        }
      ],
      "stateMutability": "view",
      "type": "function"
    },
    {
      "inputs": [
        {
          "internalType": "uint256",
          "name": "_auctionId",
          "type": "uint256"
        }
      ],
      "name": "placeBid",
      "outputs": [],
      "stateMutability": "payable",
      "type": "function"
    },
    {
      "inputs": [],
      "name": "platformFeePercent",
      "outputs": [
        {
          "internalType": "uint256",
          "name": "",
          "type": "uint256"
        }
      ],
      "stateMutability": "view",
      "type": "function"
    },
    {
      "inputs": [
        {
          "internalType": "uint256",
          "name": "_listingId",
          "type": "uint256"
        }
      ],
      "name": "purchaseBatch",
      "outputs": [],
      "stateMutability": "payable",
      "type": "function"
    },
    {
      "inputs": [],
      "name": "renounceOwnership",
      "outputs": [],
      "stateMutability": "nonpayable",
      "type": "function"
    },
    {
      "inputs": [
        {
          "internalType": "uint256",
          "name": "_feePercent",
          "type": "uint256"
        }
      ],
      "name": "setPlatformFee",
      "outputs": [],
      "stateMutability": "nonpayable",
      "type": "function"
    },
    {
      "inputs": [
        {
          "internalType": "address",
          "name": "newOwner",
          "type": "address"
        }
      ],
      "name": "transferOwnership",
      "outputs": [],
      "stateMutability": "nonpayable",
      "type": "function"
    },
    {
      "inputs": [
        {
          "internalType": "address",
          "name": "",
          "type": "address"
        },
        {
          "internalType": "uint256",
          "name": "",
          "type": "uint256"
        }
      ],
      "name": "userAuctions",
      "outputs": [
        {
          "internalType": "uint256",
          "name": "",
          "type": "uint256"
        }
      ],
      "stateMutability": "view",
      "type": "function"
    },
    {
      "inputs": [
        {
          "internalType": "address",
          "name": "",
          "type": "address"
        },
        {
          "internalType": "uint256",
          "name": "",
          "type": "uint256"
        }
      ],
      "name": "userListings",
      "outputs": [
        {
          "internalType": "uint256",
          "name": "",
          "type": "uint256"
        }
      ],
      "stateMutability": "view",
      "type": "function"
    },
    {
      "inputs": [
        {
          "internalType": "address",
          "name": "",
          "type": "address"
        },
        {
          "internalType": "uint256",
          "name": "",
          "type": "uint256"
        }
      ],
      "name": "userPurchases",
      "outputs": [
        {
          "internalType": "uint256",
          "name": "",
          "type": "uint256"
        }
      ],
      "stateMutability": "view",
      "type": "function"
    }
  ],
  "bytecode": "0x608080604052346100895733156100735760008054336001600160a01b03198216811783556040519290916001600160a01b0316907f8be0079c531659141344cd1fd0a4f28419497f9722a3daafe3b4186f6b6457e09080a360fa60015560016008556001600955611fc3908161008f8239f35b631e4fbdf760e01b815260006004820152602490fd5b600080fdfe608080604052600436101561001357600080fd5b60003560e01c908163107a274a14611a6b5750806312e8e2c314611a0d57806320e33db814611981578063305a67a8146118f1578063571a26a014611852578063715018a6146117f957806378bd79351461168457806379676e0c146114985780637b55927c1461142c57806381257bd51461122757806386cfa7d3146111dd5780638c639a85146111bf5780638da5cb5b146111965780639979ef4514610fc0578063aaccf1ec14610fa2578063af990aa614610c23578063b4fbe80a14610bd9578063b9a2de3a14610a4e578063c6e5d8f6146109d3578063cda4beef146107c9578063cf2c033414610771578063d73792a914610754578063de74e57b146106a5578063e210a72d1461047c578063eb18a9d814610401578063f2fde38b14610378578063fbb1e4971461020c578063fc528482146101ee5763ff3ad0b41461015e57600080fd5b346101e9576020806003193601126101e9576001600160a01b03610180611c54565b1660005260066020526040600020906040519081602084549182815201936000526020600020916000905b8282106101d2576101ce856101c281890382611cd8565b60405191829182611cfa565b0390f35b8354865294850194600193840193909101906101ab565b600080fd5b346101e95760003660031901126101e9576020600954604051908152f35b346101e9576020806003193601126101e95760043560005260039060038152604060002091825467ffffffffffffffff81116103625760405191600561025683821b860185611cd8565b82845284840191829660005285600020916000935b8585106102f657604080518981528851818b018190528b928201908b60005b8281106102975784840385f35b85518051855280830151858401526040808201516001600160a01b031690860152606080820151908601526080808201519086015260a08082015115159086015260c0908101511515908501529481019460e09093019260010161028a565b60068860019260405161030881611cbc565b875481528488015483820152848060a01b036002890154166040820152868801546060820152600488015460808201528588015460ff90818116151560a084015260081c16151560c082015281520194019401939261026b565b634e487b7160e01b600052604160045260246000fd5b346101e95760203660031901126101e957610391611c54565b610399611f61565b6001600160a01b039081169081156103e857600054826001600160601b0360a01b821617600055167f8be0079c531659141344cd1fd0a4f28419497f9722a3daafe3b4186f6b6457e0600080a3005b604051631e4fbdf760e01b815260006004820152602490fd5b346101e9576020806003193601126101e9576001600160a01b03610423611c54565b1660005260056020526040600020906040519081602084549182815201936000526020600020916000905b828210610465576101ce856101c281890382611cd8565b83548652948501946001938401939091019061044e565b346101e95761048a36611d36565b82600052600260205260406000209060ff60058301541691600483101561068f576104b760029315611e6c565b909101546001600160a01b039190339083161461064a5783600052600360205260406000209081549260018401918285116106345762015180908181029181830414901517156106345761050b9042611f54565b906040519161051983611cbc565b83835260208301938885526040840133815260608501918983526080860193845260a086019860008a5260c087019860008a52600160401b82101561036257610563928155611c22565b94909461061e576105b596600596518655516001860155600285019151166001600160601b0360a01b8254161790555160038301555160048201550192511515839060ff801983541691151516179055565b51815461ff00191690151560081b61ff00161790556000828152600360209081526040918290205482513381529182019390935242918101919091527f23b0047c5c1f392c454f858542ddfb8143e48945b1a00e247308d5eb97164bc49080606081015b0390a3005b634e487b7160e01b600052600060045260246000fd5b634e487b7160e01b600052601160045260246000fd5b60405162461bcd60e51b815260206004820152601b60248201527f43616e6e6f74206f66666572206f6e206f776e206c697374696e6700000000006044820152606490fd5b634e487b7160e01b600052602160045260246000fd5b346101e95760203660031901126101e957600435600052600260205260406000208054906101ce60018201549160018060a01b0393846002830154169460038301541691600481015461073b60ff600584015416600684015492610710600860078701549601611d8a565b966040519a8b9a610120988c5260208c015260408b015260608a0152608089015260a0880190611bbf565b60c086015260e085015280610100850152830190611bcc565b346101e95760003660031901126101e95760206040516127108152f35b346101e95760403660031901126101e95761078a611c54565b6001600160a01b03166000908152600760205260409020805460243591908210156101e9576020916107bb91611c6a565b90546040519160031b1c8152f35b346101e9576107d736611d36565b91811561098057600954916107eb83611f45565b6009556201518093848102948186041490151715610634577f56102b55f8c4ba831c7d439c06939c7e1fe545abbd4f8a71737c2a9b0f7e8584839161092f61083560209742611f54565b6040519061084282611c9f565b8582528561090d60088b8501948a865260408101943386526060820160008152608083018a815260a08401908b825260c085019242845260e0860194855261010086019a60008c5261012087019960008b526000526020600490526040600020965187555160018701556002860160018060a01b03809b5116906001600160601b0360a01b91828254161790558a60038801925116908254161790555160048501555160058401555160068301555160078201550193511515849060ff801983541691151516179055565b518254610100600160a81b031916911660081b610100600160a81b0316179055565b3360005260068652610945836040600020611f10565b60008381526004875260409081902060070154815133815260208101939093529082015242606082015280608081015b0390a3604051908152f35b60405162461bcd60e51b815260206004820152602560248201527f5374617274696e67207072696365206d75737420626520677265617465722074604482015264068616e20360dc1b6064820152608490fd5b346101e9576020806003193601126101e9576001600160a01b036109f5611c54565b1660005260076020526040600020906040519081602084549182815201936000526020600020916000905b828210610a37576101ce856101c281890382611cd8565b835486529485019460019384019390910190610a20565b346101e95760203660031901126101e95760043580600052600460205260406000206008810160ff815416610ba4576007820154421115610b6b576004820190610aa98254612710610aa260015483611ef0565b0490611f03565b90600080808060018060a01b03958660028a015416828215610b62575bf115610b56578054600160ff198216811783556003959095018054610100600160a81b0390851660081b166001600160a81b03199092169190911790941790557fe9ba83469fc8ee4260dd274fd43b5a54f2df813ad21c4637d53084d1f3866b3792549154604080516001600160a01b03939094169290921683526020830152429082015280606081015b0390a2005b6040513d6000823e3d90fd5b506108fc610ac6565b60405162461bcd60e51b8152602060048201526011602482015270105d58dd1a5bdb881b9bdd08195b991959607a1b6044820152606490fd5b60405162461bcd60e51b815260206004820152600d60248201526c105b1c9958591e48195b991959609a1b6044820152606490fd5b346101e95760403660031901126101e957610bf2611c54565b6001600160a01b03166000908152600660205260409020805460243591908210156101e9576020916107bb91611c6a565b346101e95760803660031901126101e95760243560443560043560643567ffffffffffffffff81116101e957366023820112156101e957806004013567ffffffffffffffff81116103625760405191610c86601f8301601f191660200184611cd8565b81835236602483830101116101e9578160009260246020930183860137830101528315610f5d5760085492610cba84611f45565b600855620151809081810291818304149015171561063457610cdc9042611f54565b9060405191610cea83611c82565b84835283602084015233604084015260006060840152856080840152600060a08401524260c084015260e0830152610100820152826000526002602052604060002093815185556001946020830151868201556002810160018060a01b039081604086015116906001600160601b0360a01b918282541617905560038301916060860151169082541617905560808301516004820155600581019060a084015190600482101561068f576101009260089260ff8019835416911617905560c0850151600682015560e085015160078201550192015191825167ffffffffffffffff811161036257610ddb8254611d50565b601f8111610f16575b50908592916020978895601f8311600114610e8f5782917f3d156dabe6356e9356bf267dcd8d81e2a8ef6bbef1a0ef8a4b73ce8c8776767696978392600094610e84575b50501b916000199060031b1c19161790555b3360005260058652610e50836040600020611f10565b6000838152600287526040908190206007015481513381526020810193909352908201524260608201528060808101610975565b015192508b80610e28565b95601f92919219821690846000528a6000209160005b818110610efe575097837f3d156dabe6356e9356bf267dcd8d81e2a8ef6bbef1a0ef8a4b73ce8c87767676989910610ee5575b505050811b019055610e3a565b015160001960f88460031b161c19169055898080610ed8565b8983015184558b985092850192918c01918c01610ea5565b826000526020600020601f830160051c81019160208410610f53575b601f0160051c01905b818110610f485750610de4565b600081558801610f3b565b9091508190610f32565b60405162461bcd60e51b815260206004820152601c60248201527f5072696365206d7573742062652067726561746572207468616e2030000000006044820152606490fd5b346101e95760003660031901126101e9576020600854604051908152f35b6020806003193601126101e95760043590816000526004815260406000209060ff60088301541661115a5760078201544211611124576004820191825490813411156110f15760028101546001600160a01b039390841633146110ad57506003019182541680611088575b505080546001600160a01b03191633908117909155349182905560408051918252602082019290925242918101919091527f51db8e23b3f4479b162fd48823b8402895442b8f6cfd94f66239391881ec7b6f908060608101610b51565b600080809381938282156110a4575bf115610b5657838061102b565b506108fc611097565b6064906040519062461bcd60e51b82526004820152601960248201527f43616e6e6f7420626964206f6e206f776e2061756374696f6e000000000000006044820152fd5b60405162461bcd60e51b815260048101849052600b60248201526a42696420746f6f206c6f7760a81b6044820152606490fd5b6064906040519062461bcd60e51b82526004820152600f60248201526e105d58dd1a5bdb88195e1c1a5c9959608a1b6044820152fd5b6064906040519062461bcd60e51b825260048201526015602482015274105d58dd1a5bdb88185b1c9958591e48195b991959605a1b6044820152fd5b346101e95760003660031901126101e9576000546040516001600160a01b039091168152602090f35b346101e95760003660031901126101e9576020600154604051908152f35b346101e95760403660031901126101e9576111f6611c54565b6001600160a01b03166000908152600560205260409020805460243591908210156101e9576020916107bb91611c6a565b61123036611c0c565b90806000526002602052604060002091600283019260018060a01b03808554169161125c338414611e2f565b846000526003602052611273846040600020611c22565b509160058301805460ff811615908161141d575b50156113d857600484015442116113a35760008080806003880154986112af8a341015611ead565b6112c86127106112c16001548d611ef0565b048b611f03565b9082821561139a575bf115610b5657600183887f583a942dc460a346032bdb614951de78d8cf4f796ad930fff18aee2e2311365498859484600260056106199a019a60ff199b838d8254161790550199878b541660038701906001600160601b0360a01b8254161790558254161790557fc08309e59ce8041cb2c0534dd94462f0bcc0cf9441d6f8e51b93781143fb746d6020604051428152a3015497549354604080516001600160a01b03939096168316865292161660208401528201929092524260608201529081906080820190565b506108fc6112d1565b60405162461bcd60e51b815260206004820152600d60248201526c13d999995c88195e1c1a5c9959609a1b6044820152606490fd5b60405162461bcd60e51b815260206004820152601760248201527f4f6666657220616c72656164792070726f6365737365640000000000000000006044820152606490fd5b60ff915060081c161589611287565b346101e95760003660031901126101e95760006001906001600854905b81811061145b57602083604051908152f35b80600052600260205260ff6005604060002001541690600482101561068f57849115611488575b01611449565b9261149290611f45565b92611482565b60203660031901126101e957600435806000526002602052604060002090600582019160ff835416600481101561068f576114d39015611e6c565b6007810154421161164d5760028101805490936001600160a01b03918216919033831461160f57600080808060048801549661151188341015611ead565b61152a6127106115236001548b611ef0565b0489611f03565b90828215611606575bf115610b5657600160ff1982541617905560038301336001600160601b0360a01b82541617905533600052600760205261157860016040600020940193845490611f10565b8134116115d3575b9154935460408051919093166001600160a01b03168152336020820152918201524260608201527f583a942dc460a346032bdb614951de78d8cf4f796ad930fff18aee2e23113654908060808101610619565b60008080806115e28634611f03565b8181156115fd575b3390f1611580576040513d6000823e3d90fd5b506108fc6115ea565b506108fc611533565b60405162461bcd60e51b815260206004820152601660248201527543616e6e6f7420627579206f776e206c697374696e6760501b6044820152606490fd5b60405162461bcd60e51b815260206004820152600f60248201526e131a5cdd1a5b99c8195e1c1a5c9959608a1b6044820152606490fd5b346101e95760203660031901126101e95760006101206040516116a681611c9f565b8281528260208201528260408201528260608201528260808201528260a08201528260c08201528260e0820152826101008201520152600435600052600460205261014060406000206040516116fb81611c9f565b60088254928383526001810154602084015260018060a01b03600282015416604084015260018060a01b03600382015416606084015260048101546080840152600581015460a0840152600681015460c0840152600781015460e0840152015460ff8116151561010083015260018060a01b039060081c166101208201526040519182526020810151602083015260018060a01b03604082015116604083015260018060a01b0360608201511660608301526080810151608083015260a081015160a083015260c081015160c083015260e081015160e0830152610100810151151561010083015261012060018060a01b0391015116610120820152f35b346101e95760003660031901126101e957611812611f61565b600080546001600160a01b0319811682556001600160a01b03167f8be0079c531659141344cd1fd0a4f28419497f9722a3daafe3b4186f6b6457e08280a3005b346101e95760203660031901126101e95760043560005260046020526101406040600020805490600181015460018060a01b0391826002820154168360038301541660048301546005840154916006850154936008600787015496015496604051998a5260208a015260408901526060880152608087015260a086015260c085015260e084015260ff8116151561010084015260081c16610120820152f35b346101e95760203660031901126101e9576004358060005260026020526005604060002061192c60018060a01b036002830154163314611e2f565b01805460ff811690600482101561068f5761194960029215611e6c565b60ff19161790557faa17fdf5ffb610a4cc0887f35c13c501975a370005080f68441055871952eb8160408051338152426020820152a2005b346101e95761198f36611c0c565b906000526003602052604060002080548210156101e95760e0916119b291611c22565b5060ff81549160018101549060018060a01b0360028201541660038201549060056004840154930154936040519687526020870152604086015260608501526080840152818116151560a084015260081c16151560c0820152f35b346101e95760203660031901126101e957600435611a29611f61565b6103e88111611a3757600155005b60405162461bcd60e51b815260206004820152600c60248201526b08ccaca40e8dede40d0d2ced60a31b6044820152606490fd5b346101e9576020806003193601126101e957611a8682611c82565b60008252600081830152600060408301526000606083015260006080830152600060a0830152600060c0830152600060e083015260606101008093015260043560005260028152604060002060405192611adf84611c82565b8154845260018201549183850192835260018060a01b038060028301541690604087019182528060038401541690606088019182526004840154906080890191825260ff6005860154169260a08a0193600481101561068f5784528160068701549560c08c0196875260078801549760e08d01988952600801611b6190611d8a565b99898d019a8b528b6040519d8e9d8e5251908d01525160408c0152511660608a0152511660808801525160a08701525160c08601611b9e91611bbf565b5160e08501525190830152516101208083015261014082016101ce91611bcc565b90600482101561068f5752565b919082519283825260005b848110611bf8575050826000602080949584010152601f8019910116010190565b602081830181015184830182015201611bd7565b60409060031901126101e9576004359060243590565b8054821015611c3e576000526006602060002091020190600090565b634e487b7160e01b600052603260045260246000fd5b600435906001600160a01b03821682036101e957565b8054821015611c3e5760005260206000200190600090565b610120810190811067ffffffffffffffff82111761036257604052565b610140810190811067ffffffffffffffff82111761036257604052565b60e0810190811067ffffffffffffffff82111761036257604052565b90601f8019910116810190811067ffffffffffffffff82111761036257604052565b602090602060408183019282815285518094520193019160005b828110611d22575050505090565b835185529381019392810192600101611d14565b60609060031901126101e957600435906024359060443590565b90600182811c92168015611d80575b6020831014611d6a57565b634e487b7160e01b600052602260045260246000fd5b91607f1691611d5f565b90604051918260008254611d9d81611d50565b90818452602094600191600181169081600014611e0d5750600114611dce575b505050611dcc92500383611cd8565b565b600090815285812095935091905b818310611df5575050611dcc9350820101388080611dbd565b85548884018501529485019487945091830191611ddc565b92505050611dcc94925060ff191682840152151560051b820101388080611dbd565b15611e3657565b60405162461bcd60e51b815260206004820152600e60248201526d2737ba103a34329039b2b63632b960911b6044820152606490fd5b15611e7357565b60405162461bcd60e51b81526020600482015260126024820152714c697374696e67206e6f742061637469766560701b6044820152606490fd5b15611eb457565b60405162461bcd60e51b8152602060048201526014602482015273125b9cdd59999a58da595b9d081c185e5b595b9d60621b6044820152606490fd5b8181029291811591840414171561063457565b9190820391821161063457565b8054600160401b81101561036257611f2d91600182018155611c6a565b819291549060031b91821b91600019901b1916179055565b60001981146106345760010190565b9190820180921161063457565b6000546001600160a01b03163303611f7557565b60405163118cdaa760e01b8152336004820152602490fdfea26469706673582212203bc5a332696360cb5a7d2f6b3e4af9c01303b071a2510fdd2fce3fa9a99c0b1564736f6c63430008180033",
  "linkReferences": {},
  "deployedLinkReferences": {}
}