{
  "_format": "hh-sol-artifact-1",
  "contractName": "HerbNFTv2",
  "sourceName": "contracts/HerbNFTv2.sol",
  "abi": [
    {
      "inputs": [],
      "stateMutability": "nonpayable",
      "type": "constructor"
    },
    {
      "inputs": [],
      "name": "AccessControlBadConfirmation",
      "type": "error"
    },
    {
      "inputs": [
        {
          "internalType": "address",
          "name": "account",
          "type": "address"
        },
        {
          "internalType": "bytes32",
          "name": "neededRole",
          "type": "bytes32"
        }
      ],
      "name": "AccessControlUnauthorizedAccount",
      "type": "error"
    },
    {
      "inputs": [
        {
          "internalType": "address",
          "name": "sender",
          "type": "address"
        },
        {
          "internalType": "uint256",
          "name": "tokenId",
          "type": "uint256"
        },
        {
          "internalType": "address",
          "name": "owner",
          "type": "address"
        }
      ],
      "name": "ERC721IncorrectOwner",
      "type": "error"
    },
    {
      "inputs": [
        {
          "internalType": "address",
          "name": "operator",
          "type": "address"
        },
        {
          "internalType": "uint256",
          "name": "tokenId",
          "type": "uint256"
        }
      ],
      "name": "ERC721InsufficientApproval",
      "type": "error"
    },
    {
      "inputs": [
        {
          "internalType": "address",
          "name": "approver",
          "type": "address"
        }
      ],
      "name": "ERC721InvalidApprover",
      "type": "error"
    },
    {
      "inputs": [
        {
          "internalType": "address",
          "name": "operator",
          "type": "address"
        }
      ],
      "name": "ERC721InvalidOperator",
      "type": "error"
    },
    {
      "inputs": [
        {
          "internalType": "address",
          "name": "owner",
          "type": "address"
        }
      ],
      "name": "ERC721InvalidOwner",
      "type": "error"
    },
    {
      "inputs": [
        {
          "internalType": "address",
          "name": "receiver",
          "type": "address"
        }
      ],
      "name": "ERC721InvalidReceiver",
      "type": "error"
    },
    {
      "inputs": [
        {
          "internalType": "address",
          "name": "sender",
          "type": "address"
        }
      ],
      "name": "ERC721InvalidSender",
      "type": "error"
    },
    {
      "inputs": [
        {
          "internalType": "uint256",
          "name": "tokenId",
          "type": "uint256"
        }
      ],
      "name": "ERC721NonexistentToken",
      "type": "error"
    },
    {
      "inputs": [],
      "name": "EnforcedPause",
      "type": "error"
    },
    {
      "inputs": [],
      "name": "ExpectedPause",
      "type": "error"
    },
    {
      "inputs": [],
      "name": "ReentrancyGuardReentrantCall",
      "type": "error"
    },
    {
      "anonymous": false,
      "inputs": [
        {
          "indexed": true,
          "internalType": "address",
          "name": "owner",
          "type": "address"
        },
        {
          "indexed": true,
          "internalType": "address",
          "name": "approved",
          "type": "address"
        },
        {
          "indexed": true,
          "internalType": "uint256",
          "name": "tokenId",
          "type": "uint256"
        }
      ],
      "name": "Approval",
      "type": "event"
    },
    {
      "anonymous": false,
      "inputs": [
        {
          "indexed": true,
          "internalType": "address",
          "name": "owner",
          "type": "address"
        },
        {
          "indexed": true,
          "internalType": "address",
          "name": "operator",
          "type": "address"
        },
        {
          "indexed": false,
          "internalType": "bool",
          "name": "approved",
          "type": "bool"
        }
      ],
      "name": "ApprovalForAll",
      "type": "event"
    },
    {
      "anonymous": false,
      "inputs": [
        {
          "indexed": false,
          "internalType": "uint256",
          "name": "_fromTokenId",
          "type": "uint256"
        },
        {
          "indexed": false,
          "internalType": "uint256",
          "name": "_toTokenId",
          "type": "uint256"
        }
      ],
      "name": "BatchMetadataUpdate",
      "type": "event"
    },
    {
      "anonymous": false,
      "inputs": [
        {
          "indexed": true,
          "internalType": "uint256",
          "name": "tokenId",
          "type": "uint256"
        },
        {
          "indexed": false,
          "internalType": "int256",
          "name": "temperature",
          "type": "int256"
        },
        {
          "indexed": false,
          "internalType": "uint256",
          "name": "humidity",
          "type": "uint256"
        },
        {
          "indexed": false,
          "internalType": "uint256",
          "name": "timestamp",
          "type": "uint256"
        }
      ],
      "name": "EnvironmentalDataUpdated",
      "type": "event"
    },
    {
      "anonymous": false,
      "inputs": [
        {
          "indexed": true,
          "internalType": "uint256",
          "name": "tokenId",
          "type": "uint256"
        },
        {
          "indexed": true,
          "internalType": "address",
          "name": "collector",
          "type": "address"
        },
        {
          "indexed": false,
          "internalType": "string",
          "name": "herbName",
          "type": "string"
        },
        {
          "indexed": false,
          "internalType": "string",
          "name": "batchCode",
          "type": "string"
        },
        {
          "indexed": false,
          "internalType": "uint256",
          "name": "timestamp",
          "type": "uint256"
        }
      ],
      "name": "HerbBatchMinted",
      "type": "event"
    },
    {
      "anonymous": false,
      "inputs": [
        {
          "indexed": true,
          "internalType": "uint256",
          "name": "tokenId",
          "type": "uint256"
        },
        {
          "indexed": true,
          "internalType": "address",
          "name": "verifier",
          "type": "address"
        },
        {
          "indexed": false,
          "internalType": "string",
          "name": "qualityGrade",
          "type": "string"
        }
      ],
      "name": "HerbBatchVerified",
      "type": "event"
    },
    {
      "anonymous": false,
      "inputs": [
        {
          "indexed": false,
          "internalType": "uint256",
          "name": "_tokenId",
          "type": "uint256"
        }
      ],
      "name": "MetadataUpdate",
      "type": "event"
    },
    {
      "anonymous": false,
      "inputs": [
        {
          "indexed": false,
          "internalType": "address",
          "name": "account",
          "type": "address"
        }
      ],
      "name": "Paused",
      "type": "event"
    },
    {
      "anonymous": false,
      "inputs": [
        {
          "indexed": true,
          "internalType": "bytes32",
          "name": "role",
          "type": "bytes32"
        },
        {
          "indexed": true,
          "internalType": "bytes32",
          "name": "previousAdminRole",
          "type": "bytes32"
        },
        {
          "indexed": true,
          "internalType": "bytes32",
          "name": "newAdminRole",
          "type": "bytes32"
        }
      ],
      "name": "RoleAdminChanged",
      "type": "event"
    },
    {
      "anonymous": false,
      "inputs": [
        {
          "indexed": true,
          "internalType": "bytes32",
          "name": "role",
          "type": "bytes32"
        },
        {
          "indexed": true,
          "internalType": "address",
          "name": "account",
          "type": "address"
        },
        {
          "indexed": true,
          "internalType": "address",
          "name": "sender",
          "type": "address"
        }
      ],
      "name": "RoleGranted",
      "type": "event"
    },
    {
      "anonymous": false,
      "inputs": [
        {
          "indexed": true,
          "internalType": "bytes32",
          "name": "role",
          "type": "bytes32"
        },
        {
          "indexed": true,
          "internalType": "address",
          "name": "account",
          "type": "address"
        },
        {
          "indexed": true,
          "internalType": "address",
          "name": "sender",
          "type": "address"
        }
      ],
      "name": "RoleRevoked",
      "type": "event"
    },
    {
      "anonymous": false,
      "inputs": [
        {
          "indexed": true,
          "internalType": "address",
          "name": "from",
          "type": "address"
        },
        {
          "indexed": true,
          "internalType": "address",
          "name": "to",
          "type": "address"
        },
        {
          "indexed": true,
          "internalType": "uint256",
          "name": "tokenId",
          "type": "uint256"
        }
      ],
      "name": "Transfer",
      "type": "event"
    },
    {
      "anonymous": false,
      "inputs": [
        {
          "indexed": false,
          "internalType": "address",
          "name": "account",
          "type": "address"
        }
      ],
      "name": "Unpaused",
      "type": "event"
    },
    {
      "inputs": [],
      "name": "ADMIN_ROLE",
      "outputs": [
        {
          "internalType": "bytes32",
          "name": "",
          "type": "bytes32"
        }
      ],
      "stateMutability": "view",
      "type": "function"
    },
    {
      "inputs": [],
      "name": "COLLECTOR_ROLE",
      "outputs": [
        {
          "internalType": "bytes32",
          "name": "",
          "type": "bytes32"
        }
      ],
      "stateMutability": "view",
      "type": "function"
    },
    {
      "inputs": [],
      "name": "DEFAULT_ADMIN_ROLE",
      "outputs": [
        {
          "internalType": "bytes32",
          "name": "",
          "type": "bytes32"
        }
      ],
      "stateMutability": "view",
      "type": "function"
    },
    {
      "inputs": [],
      "name": "LAB_ROLE",
      "outputs": [
        {
          "internalType": "bytes32",
          "name": "",
          "type": "bytes32"
        }
      ],
      "stateMutability": "view",
      "type": "function"
    },
    {
      "inputs": [],
      "name": "MINTER_ROLE",
      "outputs": [
        {
          "internalType": "bytes32",
          "name": "",
          "type": "bytes32"
        }
      ],
      "stateMutability": "view",
      "type": "function"
    },
    {
      "inputs": [],
      "name": "PROCESSOR_ROLE",
      "outputs": [
        {
          "internalType": "bytes32",
          "name": "",
          "type": "bytes32"
        }
      ],
      "stateMutability": "view",
      "type": "function"
    },
    {
      "inputs": [],
      "name": "VERIFIER_ROLE",
      "outputs": [
        {
          "internalType": "bytes32",
          "name": "",
          "type": "bytes32"
        }
      ],
      "stateMutability": "view",
      "type": "function"
    },
    {
      "inputs": [
        {
          "internalType": "address",
          "name": "to",
          "type": "address"
        },
        {
          "internalType": "uint256",
          "name": "tokenId",
          "type": "uint256"
        }
      ],
      "name": "approve",
      "outputs": [],
      "stateMutability": "nonpayable",
      "type": "function"
    },
    {
      "inputs": [
        {
          "internalType": "address",
          "name": "owner",
          "type": "address"
        }
      ],
      "name": "balanceOf",
      "outputs": [
        {
          "internalType": "uint256",
          "name": "",
          "type": "uint256"
        }
      ],
      "stateMutability": "view",
      "type": "function"
    },
    {
      "inputs": [
        {
          "internalType": "string",
          "name": "",
          "type": "string"
        }
      ],
      "name": "batchCodeToTokenId",
      "outputs": [
        {
          "internalType": "uint256",
          "name": "",
          "type": "uint256"
        }
      ],
      "stateMutability": "view",
      "type": "function"
    },
    {
      "inputs": [
        {
          "internalType": "string[]",
          "name": "_herbNames",
          "type": "string[]"
        },
        {
          "internalType": "string[]",
          "name": "_batchCodes",
          "type": "string[]"
        },
        {
          "internalType": "string[]",
          "name": "_originLocations",
          "type": "string[]"
        },
        {
          "internalType": "string[]",
          "name": "_harvestDates",
          "type": "string[]"
        },
        {
          "internalType": "string[]",
          "name": "_tokenURIs",
          "type": "string[]"
        }
      ],
      "name": "batchMint",
      "outputs": [],
      "stateMutability": "nonpayable",
      "type": "function"
    },
    {
      "inputs": [
        {
          "internalType": "uint256",
          "name": "tokenId",
          "type": "uint256"
        }
      ],
      "name": "getApproved",
      "outputs": [
        {
          "internalType": "address",
          "name": "",
          "type": "address"
        }
      ],
      "stateMutability": "view",
      "type": "function"
    },
    {
      "inputs": [
        {
          "internalType": "string",
          "name": "_batchCode",
          "type": "string"
        }
      ],
      "name": "getBatchByCode",
      "outputs": [
        {
          "components": [
            {
              "internalType": "uint256",
              "name": "tokenId",
              "type": "uint256"
            },
            {
              "internalType": "string",
              "name": "herbName",
              "type": "string"
            },
            {
              "internalType": "string",
              "name": "batchCode",
              "type": "string"
            },
            {
              "internalType": "address",
              "name": "collector",
              "type": "address"
            },
            {
              "internalType": "string",
              "name": "originLocation",
              "type": "string"
            },
            {
              "internalType": "string",
              "name": "harvestDate",
              "type": "string"
            },
            {
              "internalType": "string",
              "name": "qualityGrade",
              "type": "string"
            },
            {
              "internalType": "uint64",
              "name": "collectionTimestamp",
              "type": "uint64"
            },
            {
              "internalType": "bool",
              "name": "isVerified",
              "type": "bool"
            },
            {
              "internalType": "bool",
              "name": "isProcessed",
              "type": "bool"
            },
            {
              "components": [
                {
                  "internalType": "int256",
                  "name": "temperature",
                  "type": "int256"
                },
                {
                  "internalType": "uint256",
                  "name": "humidity",
                  "type": "uint256"
                },
                {
                  "internalType": "uint256",
                  "name": "airQualityIndex",
                  "type": "uint256"
                },
                {
                  "internalType": "uint256",
                  "name": "lastUpdated",
                  "type": "uint256"
                }
              ],
              "internalType": "struct HerbNFTv2.EnvironmentalData",
              "name": "environmentalData",
              "type": "tuple"
            }
          ],
          "internalType": "struct HerbNFTv2.HerbBatch",
          "name": "",
          "type": "tuple"
        }
      ],
      "stateMutability": "view",
      "type": "function"
    },
    {
      "inputs": [
        {
          "internalType": "uint256",
          "name": "_tokenId",
          "type": "uint256"
        }
      ],
      "name": "getHerbBatch",
      "outputs": [
        {
          "components": [
            {
              "internalType": "uint256",
              "name": "tokenId",
              "type": "uint256"
            },
            {
              "internalType": "string",
              "name": "herbName",
              "type": "string"
            },
            {
              "internalType": "string",
              "name": "batchCode",
              "type": "string"
            },
            {
              "internalType": "address",
              "name": "collector",
              "type": "address"
            },
            {
              "internalType": "string",
              "name": "originLocation",
              "type": "string"
            },
            {
              "internalType": "string",
              "name": "harvestDate",
              "type": "string"
            },
            {
              "internalType": "string",
              "name": "qualityGrade",
              "type": "string"
            },
            {
              "internalType": "uint64",
              "name": "collectionTimestamp",
              "type": "uint64"
            },
            {
              "internalType": "bool",
              "name": "isVerified",
              "type": "bool"
            },
            {
              "internalType": "bool",
              "name": "isProcessed",
              "type": "bool"
            },
            {
              "components": [
                {
                  "internalType": "int256",
                  "name": "temperature",
                  "type": "int256"
                },
                {
                  "internalType": "uint256",
                  "name": "humidity",
                  "type": "uint256"
                },
                {
                  "internalType": "uint256",
                  "name": "airQualityIndex",
                  "type": "uint256"
                },
                {
                  "internalType": "uint256",
                  "name": "lastUpdated",
                  "type": "uint256"
                }
              ],
              "internalType": "struct HerbNFTv2.EnvironmentalData",
              "name": "environmentalData",
              "type": "tuple"
            }
          ],
          "internalType": "struct HerbNFTv2.HerbBatch",
          "name": "",
          "type": "tuple"
        }
      ],
      "stateMutability": "view",
      "type": "function"
    },
    {
      "inputs": [
        {
          "internalType": "bytes32",
          "name": "role",
          "type": "bytes32"
        }
      ],
      "name": "getRoleAdmin",
      "outputs": [
        {
          "internalType": "bytes32",
          "name": "",
          "type": "bytes32"
        }
      ],
      "stateMutability": "view",
      "type": "function"
    },
    {
      "inputs": [],
      "name": "getTotalBatches",
      "outputs": [
        {
          "internalType": "uint256",
          "name": "",
          "type": "uint256"
        }
      ],
      "stateMutability": "view",
      "type": "function"
    },
    {
      "inputs": [
        {
          "internalType": "address",
          "name": "_account",
          "type": "address"
        }
      ],
      "name": "grantCollectorRole",
      "outputs": [],
      "stateMutability": "nonpayable",
      "type": "function"
    },
    {
      "inputs": [
        {
          "internalType": "address",
          "name": "_account",
          "type": "address"
        }
      ],
      "name": "grantLabRole",
      "outputs": [],
      "stateMutability": "nonpayable",
      "type": "function"
    },
    {
      "inputs": [
        {
          "internalType": "address",
          "name": "_account",
          "type": "address"
        }
      ],
      "name": "grantMinterRole",
      "outputs": [],
      "stateMutability": "nonpayable",
      "type": "function"
    },
    {
      "inputs": [
        {
          "internalType": "address",
          "name": "_account",
          "type": "address"
        }
      ],
      "name": "grantProcessorRole",
      "outputs": [],
      "stateMutability": "nonpayable",
      "type": "function"
    },
    {
      "inputs": [
        {
          "internalType": "bytes32",
          "name": "role",
          "type": "bytes32"
        },
        {
          "internalType": "address",
          "name": "account",
          "type": "address"
        }
      ],
      "name": "grantRole",
      "outputs": [],
      "stateMutability": "nonpayable",
      "type": "function"
    },
    {
      "inputs": [
        {
          "internalType": "address",
          "name": "_account",
          "type": "address"
        }
      ],
      "name": "grantVerifierRole",
      "outputs": [],
      "stateMutability": "nonpayable",
      "type": "function"
    },
    {
      "inputs": [
        {
          "internalType": "bytes32",
          "name": "role",
          "type": "bytes32"
        },
        {
          "internalType": "address",
          "name": "account",
          "type": "address"
        }
      ],
      "name": "hasRole",
      "outputs": [
        {
          "internalType": "bool",
          "name": "",
          "type": "bool"
        }
      ],
      "stateMutability": "view",
      "type": "function"
    },
    {
      "inputs": [
        {
          "internalType": "bytes32",
          "name": "_role",
          "type": "bytes32"
        },
        {
          "internalType": "address",
          "name": "_account",
          "type": "address"
        }
      ],
      "name": "hasRoleByAddress",
      "outputs": [
        {
          "internalType": "bool",
          "name": "",
          "type": "bool"
        }
      ],
      "stateMutability": "view",
      "type": "function"
    },
    {
      "inputs": [
        {
          "internalType": "uint256",
          "name": "",
          "type": "uint256"
        }
      ],
      "name": "herbBatches",
      "outputs": [
        {
          "internalType": "uint256",
          "name": "tokenId",
          "type": "uint256"
        },
        {
          "internalType": "string",
          "name": "herbName",
          "type": "string"
        },
        {
          "internalType": "string",
          "name": "batchCode",
          "type": "string"
        },
        {
          "internalType": "address",
          "name": "collector",
          "type": "address"
        },
        {
          "internalType": "string",
          "name": "originLocation",
          "type": "string"
        },
        {
          "internalType": "string",
          "name": "harvestDate",
          "type": "string"
        },
        {
          "internalType": "string",
          "name": "qualityGrade",
          "type": "string"
        },
        {
          "internalType": "uint64",
          "name": "collectionTimestamp",
          "type": "uint64"
        },
        {
          "internalType": "bool",
          "name": "isVerified",
          "type": "bool"
        },
        {
          "internalType": "bool",
          "name": "isProcessed",
          "type": "bool"
        },
        {
          "components": [
            {
              "internalType": "int256",
              "name": "temperature",
              "type": "int256"
            },
            {
              "internalType": "uint256",
              "name": "humidity",
              "type": "uint256"
            },
            {
              "internalType": "uint256",
              "name": "airQualityIndex",
              "type": "uint256"
            },
            {
              "internalType": "uint256",
              "name": "lastUpdated",
              "type": "uint256"
            }
          ],
          "internalType": "struct HerbNFTv2.EnvironmentalData",
          "name": "environmentalData",
          "type": "tuple"
        }
      ],
      "stateMutability": "view",
      "type": "function"
    },
    {
      "inputs": [
        {
          "internalType": "address",
          "name": "owner",
          "type": "address"
        },
        {
          "internalType": "address",
          "name": "operator",
          "type": "address"
        }
      ],
      "name": "isApprovedForAll",
      "outputs": [
        {
          "internalType": "bool",
          "name": "",
          "type": "bool"
        }
      ],
      "stateMutability": "view",
      "type": "function"
    },
    {
      "inputs": [
        {
          "internalType": "uint256",
          "name": "_tokenId",
          "type": "uint256"
        }
      ],
      "name": "markAsProcessed",
      "outputs": [],
      "stateMutability": "nonpayable",
      "type": "function"
    },
    {
      "inputs": [
        {
          "internalType": "string",
          "name": "_herbName",
          "type": "string"
        },
        {
          "internalType": "string",
          "name": "_batchCode",
          "type": "string"
        },
        {
          "internalType": "string",
          "name": "_originLocation",
          "type": "string"
        },
        {
          "internalType": "string",
          "name": "_harvestDate",
          "type": "string"
        },
        {
          "internalType": "string",
          "name": "_tokenURI",
          "type": "string"
        }
      ],
      "name": "mintHerbBatch",
      "outputs": [
        {
          "internalType": "uint256",
          "name": "",
          "type": "uint256"
        }
      ],
      "stateMutability": "nonpayable",
      "type": "function"
    },
    {
      "inputs": [],
      "name": "name",
      "outputs": [
        {
          "internalType": "string",
          "name": "",
          "type": "string"
        }
      ],
      "stateMutability": "view",
      "type": "function"
    },
    {
      "inputs": [
        {
          "internalType": "uint256",
          "name": "tokenId",
          "type": "uint256"
        }
      ],
      "name": "ownerOf",
      "outputs": [
        {
          "internalType": "address",
          "name": "",
          "type": "address"
        }
      ],
      "stateMutability": "view",
      "type": "function"
    },
    {
      "inputs": [],
      "name": "pause",
      "outputs": [],
      "stateMutability": "nonpayable",
      "type": "function"
    },
    {
      "inputs": [],
      "name": "paused",
      "outputs": [
        {
          "internalType": "bool",
          "name": "",
          "type": "bool"
        }
      ],
      "stateMutability": "view",
      "type": "function"
    },
    {
      "inputs": [
        {
          "internalType": "bytes32",
          "name": "role",
          "type": "bytes32"
        },
        {
          "internalType": "address",
          "name": "callerConfirmation",
          "type": "address"
        }
      ],
      "name": "renounceRole",
      "outputs": [],
      "stateMutability": "nonpayable",
      "type": "function"
    },
    {
      "inputs": [
        {
          "internalType": "address",
          "name": "_account",
          "type": "address"
        }
      ],
      "name": "revokeMinterRole",
      "outputs": [],
      "stateMutability": "nonpayable",
      "type": "function"
    },
    {
      "inputs": [
        {
          "internalType": "bytes32",
          "name": "role",
          "type": "bytes32"
        },
        {
          "internalType": "address",
          "name": "account",
          "type": "address"
        }
      ],
      "name": "revokeRole",
      "outputs": [],
      "stateMutability": "nonpayable",
      "type": "function"
    },
    {
      "inputs": [
        {
          "internalType": "address",
          "name": "_account",
          "type": "address"
        }
      ],
      "name": "revokeVerifierRole",
      "outputs": [],
      "stateMutability": "nonpayable",
      "type": "function"
    },
    {
      "inputs": [
        {
          "internalType": "address",
          "name": "from",
          "type": "address"
        },
        {
          "internalType": "address",
          "name": "to",
          "type": "address"
        },
        {
          "internalType": "uint256",
          "name": "tokenId",
          "type": "uint256"
        }
      ],
      "name": "safeTransferFrom",
      "outputs": [],
      "stateMutability": "nonpayable",
      "type": "function"
    },
    {
      "inputs": [
        {
          "internalType": "address",
          "name": "from",
          "type": "address"
        },
        {
          "internalType": "address",
          "name": "to",
          "type": "address"
        },
        {
          "internalType": "uint256",
          "name": "tokenId",
          "type": "uint256"
        },
        {
          "internalType": "bytes",
          "name": "data",
          "type": "bytes"
        }
      ],
      "name": "safeTransferFrom",
      "outputs": [],
      "stateMutability": "nonpayable",
      "type": "function"
    },
    {
      "inputs": [
        {
          "internalType": "address",
          "name": "operator",
          "type": "address"
        },
        {
          "internalType": "bool",
          "name": "approved",
          "type": "bool"
        }
      ],
      "name": "setApprovalForAll",
      "outputs": [],
      "stateMutability": "nonpayable",
      "type": "function"
    },
    {
      "inputs": [
        {
          "internalType": "bytes4",
          "name": "interfaceId",
          "type": "bytes4"
        }
      ],
      "name": "supportsInterface",
      "outputs": [
        {
          "internalType": "bool",
          "name": "",
          "type": "bool"
        }
      ],
      "stateMutability": "view",
      "type": "function"
    },
    {
      "inputs": [],
      "name": "symbol",
      "outputs": [
        {
          "internalType": "string",
          "name": "",
          "type": "string"
        }
      ],
      "stateMutability": "view",
      "type": "function"
    },
    {
      "inputs": [
        {
          "internalType": "uint256",
          "name": "tokenId",
          "type": "uint256"
        }
      ],
      "name": "tokenURI",
      "outputs": [
        {
          "internalType": "string",
          "name": "",
          "type": "string"
        }
      ],
      "stateMutability": "view",
      "type": "function"
    },
    {
      "inputs": [
        {
          "internalType": "address",
          "name": "from",
          "type": "address"
        },
        {
          "internalType": "address",
          "name": "to",
          "type": "address"
        },
        {
          "internalType": "uint256",
          "name": "tokenId",
          "type": "uint256"
        }
      ],
      "name": "transferFrom",
      "outputs": [],
      "stateMutability": "nonpayable",
      "type": "function"
    },
    {
      "inputs": [],
      "name": "unpause",
      "outputs": [],
      "stateMutability": "nonpayable",
      "type": "function"
    },
    {
      "inputs": [
        {
          "internalType": "uint256",
          "name": "_tokenId",
          "type": "uint256"
        },
        {
          "internalType": "int256",
          "name": "_temperature",
          "type": "int256"
        },
        {
          "internalType": "uint256",
          "name": "_humidity",
          "type": "uint256"
        },
        {
          "internalType": "uint256",
          "name": "_airQualityIndex",
          "type": "uint256"
        }
      ],
      "name": "updateEnvironmentalData",
      "outputs": [],
      "stateMutability": "nonpayable",
      "type": "function"
    },
    {
      "inputs": [
        {
          "internalType": "uint256",
          "name": "_tokenId",
          "type": "uint256"
        },
        {
          "internalType": "string",
          "name": "_qualityGrade",
          "type": "string"
        }
      ],
      "name": "verifyHerbBatch",
      "outputs": [],
      "stateMutability": "nonpayable",
      "type": "function"
    }
  ],
  "bytecode": "0x60803462000341576001600160401b0390604090808201838111828210176200032b578252600f81526020926e20bcbab92432b9311027232a103b1960891b848301528251838101818110838211176200032b578452600781526620a427232a3b1960c91b858201528251908282116200032b5760008054926001958685811c9516801562000320575b898610146200030c578190601f95868111620002b9575b5089908683116001146200025557849262000249575b5050600019600383901b1c191690861b1781555b8151938411620002355784548581811c911680156200022a575b888210146200021657838111620001ce575b508692841160011462000168578394959650926200015c575b5050600019600383901b1c191690821b1781555b80600855600a55620001353362000346565b506200014133620003c7565b506200014d336200046a565b5051613ce19081620005098239f35b0151905038806200010f565b9190601f1984169685845280842093905b888210620001b657505083859697106200019c575b505050811b01815562000123565b015160001960f88460031b161c191690553880806200018e565b80878596829496860151815501950193019062000179565b8582528782208480870160051c8201928a88106200020c575b0160051c019086905b82811062000200575050620000f6565b838155018690620001f0565b92508192620001e7565b634e487b7160e01b82526022600452602482fd5b90607f1690620000e4565b634e487b7160e01b81526041600452602490fd5b015190503880620000b6565b8480528a85208994509190601f198416865b8d828210620002a2575050841162000288575b505050811b018155620000ca565b015160001960f88460031b161c191690553880806200027a565b8385015186558c9790950194938401930162000267565b9091508380528984208680850160051c8201928c861062000302575b918a91869594930160051c01915b828110620002f3575050620000a0565b8681558594508a9101620002e3565b92508192620002d5565b634e487b7160e01b83526022600452602483fd5b94607f169462000089565b634e487b7160e01b600052604160045260246000fd5b600080fd5b6001600160a01b031660008181527f6d5257204ebe7d88fd91ae87941cb2dd9d8062b64ae5a2bd2d28ec40b9fbf6df602052604081205490919060ff16620003c35781805260076020526040822081835260205260408220600160ff198254161790553391600080516020620041ea8339815191528180a4600190565b5090565b6001600160a01b031660008181527fa70365933f78520ef41d6645ba61e509916296603327302d41466c063e8e260860205260408120549091907fa49807205ce4d355092ef5a8a18f56e8913cf4a201fbe287825b095693c217759060ff16620004655780835260076020526040832082845260205260408320600160ff19825416179055600080516020620041ea833981519152339380a4600190565b505090565b6001600160a01b031660008181527fa4bfd7afe708e2e87e7f0e2ad9b4d545417e0f795f57b5c5ab5d799c565a04f460205260408120549091907f9f2df0fed2c77648de5860a4cc508cd0818c85b8b8a1ab4ceeef8d981c8956a69060ff16620004655780835260076020526040832082845260205260408320600160ff19825416179055600080516020620041ea833981519152339380a460019056fe608080604052600436101561001357600080fd5b60003560e01c90816301ffc9a7146128b0575080630337c06114612845578063033f0651146114c057806304e542dd146127c857806306fdde031461271d578063081812fc146126df578063095ea7b3146125f857806323b872dd146125e1578063247ab51f1461253f578063248a9ca3146125105780632f2ff15d146124d157806330aaefda1461245457806336568abe1461240d5780633dd1eb61146123a25780633f4ba83a1461233857806342842e0e1461230a5780634286bb2e146121985780635071f0011461204a5780635c975abb146120275780636352211e14611ff75780636692771e146117e557806369e2f0fb1461177a57806370a082311461172157806375b238fc146116e65780638222bdb2146116ab5780638456cb591461165157806388fa2aa81461150d57806391d14854146114c057806395d89b41146113dd5780639ca39ae9146113a2578063a217fddf14611386578063a22cb465146112e1578063a3669aef14611276578063a752c69c1461121a578063b88d4fde146111af578063bd3070c614611174578063c87b56dd1461111b578063d381ba4414611017578063d539139314610fee578063d547741f14610faf578063e055315b146106a5578063e561dddc14610664578063e70047c51461031c578063e7705db6146102f3578063e83c97de146102745763e985e9c51461021957600080fd5b3461026f57604036600319011261026f5761023261294f565b61023a612965565b9060018060a01b03809116600052600560205260406000209116600052602052602060ff604060002054166040519015158152f35b600080fd5b3461026f57602036600319011261026f576102f161029061294f565b610298613179565b7f373fdac787be5578b9a3d4a9ca3e3ae1e632ab5ee4750e92f65223238a15b2ef60005260076020527ffc5d98ca782d8179d21919cc8dc8a0b0515f909d18f8c0522e3f9567cc3c6ee0546102ec906131e1565b61349f565b005b3461026f57600036600319011261026f576020604051600080516020613c6c8339815191528152f35b3461026f57604036600319011261026f576004356001600160401b0360243581811161026f576103509036906004016129f8565b336000908152600080516020613c2c8339815191526020908152604090912054909492919060ff168015610636575b61038890612f96565b610390613242565b61039d600a548410612f53565b82600052600b855260ff60076040600020015460401c166105fe5760405193858501604160f81b81526001958681526103d581612b78565b51902060405187810190602160f91b82528781526103f281612b78565b5190209060405188810190604360f81b825288815261041081612b78565b5190209060405189810190868883376104388b82898101600083820152038084520182612b93565b5190209081149283156105f4575b5082156105ea575b5050156105ad5783600052600b865260066040600020600781016801000000000000000060ff60401b19825416179055019082116105975761049a826104948354612ca3565b83613102565b600094601f831160011461051657506104ed82807f38fd55d5eb9ed975c430ee6a0d82e6074d8e89db86b31bf01177f98032342140969760009161050b575b508160011b916000199060031b1c19161790565b90555b6105066040519283928784523397840191613158565b0390a3005b9050850135896104d9565b601f1983169582600052876000209060005b89898210610583575050847f38fd55d5eb9ed975c430ee6a0d82e6074d8e89db86b31bf01177f98032342140979810610569575b505082811b0190556104f0565b850135600019600386901b60f8161c19169055878061055c565b878301358455928401929182019101610528565b634e487b7160e01b600052604160045260246000fd5b60405162461bcd60e51b8152600481018790526015602482015274496e76616c6964207175616c69747920677261646560581b6044820152606490fd5b149050878061044e565b8114925089610446565b60405162461bcd60e51b815260048101869052601060248201526f105b1c9958591e481d995c9a599a595960821b6044820152606490fd5b50600080516020613c6c8339815191526000908152600786526040808220338352875290205460ff1661037f565b3461026f57600036600319011261026f57600a54600019810190811161068f57602090604051908152f35b634e487b7160e01b600052601160045260246000fd5b3461026f5760a036600319011261026f576004356001600160401b03811161026f576106d59036906004016129f8565b6024356001600160401b03811161026f576106f49036906004016129f8565b9190926044356001600160401b03811161026f576107169036906004016129f8565b9490936064356001600160401b03811161026f576107389036906004016129f8565b95906084356001600160401b03811161026f576107599036906004016129f8565b9790610763613242565b61076b61373d565b336000908152600080516020613c8c833981519152602052604090205460ff168015610f89575b61079b90613060565b8715610f44578415610eff578915610eba5760405185878237602081878101600c81520301902054610e7557600a54986107d48a6130ac565b600a556107e18a33613760565b36906107ec92612bcf565b6107f6908961398e565b6040519261080384612b26565b600084526020840160009052604084016000905260608401600090526040519961082c8b612b41565b898b5261083a368a8a612bcf565b60208c015261084a368789612bcf565b60408c01523360608c0152369061086092612bcf565b60808a0152369061087092612bcf565b60a088015261087d6130e5565b60c0880152426001600160401b031660e088015261010087016000905261012087016000905261014087015284600052600b6020526040600020928651845560208701518051906001600160401b038211610597576108ec826108e36001890154612ca3565b60018901613102565b602090601f8311600114610e035761091d929160009183610ca2575b50508160011b916000199060031b1c19161790565b60018501555b60408701518051906001600160401b038211610597576109538261094a6002890154612ca3565b60028901613102565b602090601f8311600114610d9157610983929160009183610ca25750508160011b916000199060031b1c19161790565b60028501555b6003840160018060a01b036060890151166bffffffffffffffffffffffff60a01b82541617905560808701518051906001600160401b038211610597576109e0826109d76004890154612ca3565b60048901613102565b602090601f8311600114610d1f57610a10929160009183610ca25750508160011b916000199060031b1c19161790565b60048501555b60a08701518051906001600160401b03821161059757610a4682610a3d6005890154612ca3565b60058901613102565b602090601f8311600114610cad57610a76929160009183610ca25750508160011b916000199060031b1c19161790565b60058501555b60c0870151938451976001600160401b03891161059757888896610ab260209b610aa96006870154612ca3565b60068701613102565b8a90601f8311600114610bfe576060610140610bcc95610b15867f8fc3c5f6a5d8fa33efd13543f345e7bf783b2a5e6f32421f47f2458d67c93e1b9c9a97610bd99c9a97600b97600092610bf35750508160011b916000199060031b1c19161790565b60068601555b60e081015160078601805461010084015160ff60401b90151560401b166001600160401b0390931668ffffffffffffffffff1990911617919091178155610b83905b610120830151815460ff60481b191690151560481b69ff00000000000000000016179055565b0151805160088501558d81015160098501556040810151600a850155015191015586604051848682378b81868101600c8152030190205560405197606089526060890191613158565b9186830389880152613158565b924260408201528033940390a36001600855604051908152f35b015190503880610908565b90600685016000528b6000209160005b601f1985168110610c885750610140610bcc95600186610bd99b9996600b966060967f8fc3c5f6a5d8fa33efd13543f345e7bf783b2a5e6f32421f47f2458d67c93e1b9f9d9a601f19811610610c6f575b505050811b016006860155610b1b565b015160001960f88460031b161c19169055388080610c5f565b8183015184558c9a50600190930192918d01918d01610c0e565b015190508a80610908565b9190600587016000526020600020906000935b601f1984168510610d04576001945083601f19811610610ceb575b505050811b016005850155610a7c565b015160001960f88460031b161c19169055898080610cdb565b81810151835560209485019460019093019290910190610cc0565b9190600487016000526020600020906000935b601f1984168510610d76576001945083601f19811610610d5d575b505050811b016004850155610a16565b015160001960f88460031b161c19169055898080610d4d565b81810151835560209485019460019093019290910190610d32565b9190600287016000526020600020906000935b601f1984168510610de8576001945083601f19811610610dcf575b505050811b016002850155610989565b015160001960f88460031b161c19169055898080610dbf565b81810151835560209485019460019093019290910190610da4565b9190600187016000526020600020906000935b601f1984168510610e5a576001945083601f19811610610e41575b505050811b016001850155610923565b015160001960f88460031b161c19169055898080610e31565b81810151835560209485019460019093019290910190610e16565b60405162461bcd60e51b815260206004820152601960248201527f426174636820636f646520616c726561647920657869737473000000000000006044820152606490fd5b60405162461bcd60e51b815260206004820152601f60248201527f4f726967696e206c6f636174696f6e2063616e6e6f7420626520656d707479006044820152606490fd5b60405162461bcd60e51b815260206004820152601a60248201527f426174636820636f64652063616e6e6f7420626520656d7074790000000000006044820152606490fd5b60405162461bcd60e51b815260206004820152601960248201527f48657262206e616d652063616e6e6f7420626520656d707479000000000000006044820152606490fd5b50336000908152600080516020613c2c833981519152602052604090205460ff16610792565b3461026f57604036600319011261026f576102f1600435610fce612965565b90806000526007602052610fe96001604060002001546131e1565b6136c6565b3461026f57600036600319011261026f576020604051600080516020613c4c8339815191528152f35b3461026f57602036600319011261026f57600435611033612fec565b50611041600a548210612f53565b600052600b602052611117604060002061110560086040519261106384612b41565b8054845261107360018201612cdd565b602085015261108460028201612cdd565b604085015260038101546001600160a01b031660608501526110a860048201612cdd565b60808501526110b960058201612cdd565b60a08501526110ca60068201612cdd565b60c085015260ff60078201546001600160401b03811660e0870152818160401c16151561010087015260481c16151561012085015201612d82565b61014082015260405191829182612a25565b0390f35b3461026f57602036600319011261026f5760043561113881613207565b5060005260066020526111176111516040600020612cdd565b600060405161115f81612b5d565b5260405191829160208352602083019061299e565b3461026f57600036600319011261026f5760206040517f373fdac787be5578b9a3d4a9ca3e3ae1e632ab5ee4750e92f65223238a15b2ef8152f35b3461026f57608036600319011261026f576111c861294f565b6111d0612965565b90604435606435926001600160401b03841161026f573660238501121561026f576112086102f1943690602481600401359101612bcf565b92611214838383612db4565b33613abd565b3461026f57602036600319011261026f576004356001600160401b03811161026f57611263602061125081933690600401612c06565b816040519382858094519384920161297b565b8101600c81520301902054604051908152f35b3461026f57602036600319011261026f576102f161129261294f565b61129a613179565b600080516020613c6c83398151915260005260076020527f68cfe6f8c4a0a51fa498a36243209c54367e0b93d1a273c9f15bac776a478d02546112dc906131e1565b61362c565b3461026f57604036600319011261026f576112fa61294f565b6024359081151580920361026f576001600160a01b031690811561136d57336000526005602052604060002082600052602052604060002060ff1981541660ff83161790556040519081527f17307eab39ab6107e8899845ad3d59bd9653f200f220920489ca2b5937696c3160203392a3005b604051630b61174360e31b815260048101839052602490fd5b3461026f57600036600319011261026f57602060405160008152f35b3461026f57600036600319011261026f5760206040517f14cf45180c3fcf249a5a305e9657ea05c14fd4f4e1800ee0216a8213091711d28152f35b3461026f57600036600319011261026f5760405160006001826001549261140384612ca3565b92838352602094856001821691826000146114a0575050600114611443575b5061142f92500383612b93565b61111760405192828493845283019061299e565b84915060016000527fb10e2d527612073b26eecdfd717e6a320cf44b4afac2b0732d9fcbe2b7fa0cf6906000915b85831061148857505061142f935082010185611422565b80548389018501528794508693909201918101611471565b60ff19168582015261142f95151560051b85010192508791506114229050565b3461026f57604036600319011261026f576114d9612965565b600435600052600760205260406000209060018060a01b0316600052602052602060ff604060002054166040519015158152f35b3461026f57602036600319011261026f57600435600052600b602052604060002080546001820161153d90612cdd565b9161154a60028201612cdd565b60038201546001600160a01b031661156460048401612cdd565b61157060058501612cdd565b9061157d60068601612cdd565b9260078601549560080161159090612d82565b946040519889986101c0908a528060208b015289016115ae9161299e565b88810360408a01526115bf9161299e565b90606088015286810360808801526115d69161299e565b85810360a08701526115e79161299e565b84810360c08601526115f89161299e565b916001600160401b03811660e08501528060401c60ff16151561010085015260481c60ff161515610120840152610140830161111791606080918051845260208101516020850152604081015160408501520151910152565b3461026f57600036600319011261026f5761166a613179565b611672613242565b600160ff1960095416176009557f62e78cea01bee320cd4e420270b5ea74000d11b0c9f74754ebdbfc544b05a2586020604051338152a1005b3461026f57600036600319011261026f5760206040517fe61decff6e4a5c6b5a3d3cbd28f882e595173563b49353ce5f31dba2de7f05ee8152f35b3461026f57600036600319011261026f5760206040517fa49807205ce4d355092ef5a8a18f56e8913cf4a201fbe287825b095693c217758152f35b3461026f57602036600319011261026f576001600160a01b0361174261294f565b1680156117615760005260036020526020604060002054604051908152f35b6040516322718ad960e21b815260006004820152602490fd5b3461026f57602036600319011261026f576102f161179661294f565b61179e613179565b600080516020613c4c83398151915260005260076020527fa4bfd7afe708e2e87e7f0e2ad9b4d545417e0f795f57b5c5ab5d799c565a04f5546117e0906131e1565b6135a4565b3461026f5760a036600319011261026f576004356001600160401b03811161026f57611815903690600401612c21565b6024356001600160401b03811161026f57611834903690600401612c21565b6044356001600160401b03811161026f57611853903690600401612c21565b906064356001600160401b03811161026f57611873903690600401612c21565b6084356001600160401b03811161026f57611892903690600401612c21565b9061189b613242565b6118a361373d565b336000908152600080516020613c8c833981519152602052604090205460ff168015611fd1575b6118d390613060565b845183518091149081611fc6575b5080611fbb575b80611fb0575b15611f735760005b8551811015611f6c57600a5461190b816130ac565b600a556119188133613760565b61192c61192583866130bb565b518261398e565b61193682886130bb565b5161194183876130bb565b5161194c84896130bb565b5161195785876130bb565b516040519161196583612b26565b600083526000602084015260006040840152600060608401526040519361198b85612b41565b868552602085019586526040850152336060850152608084015260a08301526119b26130e5565b60c08301526001600160401b03421660e08301526000610100830152600061012083015261014082015282600052600b60205260406000209181518355518051906001600160401b03821161059757611a1b82611a126001870154612ca3565b60018701613102565b602090601f8311600114611efa57611a4b929160009183611d995750508160011b916000199060031b1c19161790565b60018301555b60408101518051906001600160401b03821161059757611a8182611a786002870154612ca3565b60028701613102565b602090601f8311600114611e8857611ab1929160009183611d995750508160011b916000199060031b1c19161790565b60028301555b6003820160018060a01b036060830151166bffffffffffffffffffffffff60a01b82541617905560808101518051906001600160401b03821161059757611b0e82611b056004870154612ca3565b60048701613102565b602090601f8311600114611e1657611b3e929160009183611d995750508160011b916000199060031b1c19161790565b60048301555b60a08101518051906001600160401b03821161059757611b7482611b6b6005870154612ca3565b60058701613102565b602090601f8311600114611da457611ba4929160009183611d995750508160011b916000199060031b1c19161790565b60058301555b60c08101518051906001600160401b03821161059757611bd182610aa96006870154612ca3565b602090601f8311600114611d1d57600196959493611c0f84600b9560609561014095600092610bf35750508160011b916000199060031b1c19161790565b60068601555b60e081015160078601805461010084015160ff60401b90151560401b166001600160401b0390931668ffffffffffffffffff1990911617919091178155611c5b90610b5d565b015180516008850155602081015160098501556040810151600a850155015191015580611ca16020611c8d858a6130bb565b51816040519382858094519384920161297b565b8101600c81520301902055611cb682896130bb565b51907f8fc3c5f6a5d8fa33efd13543f345e7bf783b2a5e6f32421f47f2458d67c93e1b611d0a611ce6858a6130bb565b51611cfc6040519560608752606087019061299e565b90858203602087015261299e565b924260408201528033940390a3016118f6565b906006850160005260206000209160005b601f1985168110611d8157509360018460609461014094839b9a9998600b98601f19811610611d68575b505050811b016006860155611c15565b015160001960f88460031b161c191690558f8080611d58565b91926020600181928685015181550194019201611d2e565b015190508c80610908565b9190600585016000526020600020906000935b601f1984168510611dfb576001945083601f19811610611de2575b505050811b016005830155611baa565b015160001960f88460031b161c191690558b8080611dd2565b81810151835560209485019460019093019290910190611db7565b9190600485016000526020600020906000935b601f1984168510611e6d576001945083601f19811610611e54575b505050811b016004830155611b44565b015160001960f88460031b161c191690558b8080611e44565b81810151835560209485019460019093019290910190611e29565b9190600285016000526020600020906000935b601f1984168510611edf576001945083601f19811610611ec6575b505050811b016002830155611ab7565b015160001960f88460031b161c191690558b8080611eb6565b81810151835560209485019460019093019290910190611e9b565b9190600185016000526020600020906000935b601f1984168510611f51576001945083601f19811610611f38575b505050811b016001830155611a51565b015160001960f88460031b161c191690558b8080611f28565b81810151835560209485019460019093019290910190611f0d565b6001600855005b60405162461bcd60e51b8152602060048201526015602482015274082e4e4c2f240d8cadccee8d040dad2e6dac2e8c6d605b1b6044820152606490fd5b5080518251146118ee565b5083518151146118e8565b9050845114866118e1565b50336000908152600080516020613c2c833981519152602052604090205460ff166118ca565b3461026f57602036600319011261026f576020612015600435613207565b6040516001600160a01b039091168152f35b3461026f57600036600319011261026f57602060ff600954166040519015158152f35b3461026f57602036600319011261026f576001600160401b0360043581811161026f5761207d60209136906004016129f8565b9190612087612fec565b508260405193849283378101600c815203019020549081156121615761111791600052600b6020526111056008604060002060ff604051946120c886612b41565b825486526120d860018401612cdd565b60208701526120e960028401612cdd565b604087015260038301546001600160a01b0316606087015261210d60048401612cdd565b608087015261211e60058401612cdd565b60a087015261212f60068401612cdd565b60c0870152600783015490811660e0870152818160401c16151561010087015260481c16151561012085015201612d82565b60405162461bcd60e51b815260206004820152600f60248201526e10985d18da081b9bdd08199bdd5b99608a1b6044820152606490fd5b3461026f57608036600319011261026f576004356024356044357fa49807205ce4d355092ef5a8a18f56e8913cf4a201fbe287825b095693c21775600052602060078152604060002033600052815260ff6040600020541680156122dc575b61220090612f96565b612208613242565b612215600a548510612f53565b6064821161229f57916060917f95524c7d8850e7594d5662482abb0db94193e11a206711bded04ad1d345e750a9360405161224f81612b26565b838152600b828201848152604083016064358152878401914283528a60005283865260406000209451600886015551600985015551600a84015551910155604051928352820152426040820152a2005b6064906040519062461bcd60e51b825260048201526016602482015275048756d6964697479206d75737420626520302d3130360541b6044820152fd5b50600080516020613c6c8339815191526000908152600782526040808220338352835290205460ff166121f7565b3461026f576102f161231b366129c3565b906040519261232984612b5d565b60008452611214838383612db4565b3461026f57600036600319011261026f57612351613179565b60095460ff8116156123905760ff19166009557f5db9ee0a495bf2e6ff9c91a7834c1ba4fdd244a5e8aa4e537bd38aeae4b073aa6020604051338152a1005b604051638dfc202b60e01b8152600490fd5b3461026f57602036600319011261026f576102f16123be61294f565b6123c6613179565b600080516020613c4c83398151915260005260076020527fa4bfd7afe708e2e87e7f0e2ad9b4d545417e0f795f57b5c5ab5d799c565a04f554612408906131e1565b613427565b3461026f57604036600319011261026f57612426612965565b336001600160a01b03821603612442576102f1906004356136c6565b60405163334bd91960e11b8152600490fd5b3461026f57602036600319011261026f576102f161247061294f565b612478613179565b7f14cf45180c3fcf249a5a305e9657ea05c14fd4f4e1800ee0216a8213091711d260005260076020527f9a93d366c96821523b1013ee60686da29aec06e7c28b7ad65ea7ea0d51fd7fcf546124cc906131e1565b61338b565b3461026f57604036600319011261026f576102f16004356124f0612965565b9080600052600760205261250b6001604060002001546131e1565b61353b565b3461026f57602036600319011261026f5760043560005260076020526020600160406000200154604051908152f35b3461026f57602036600319011261026f5760043561255b613242565b612568600a548210612f53565b61257181613207565b336001600160a01b03909116036125ac576000908152600b60205260409020600701805460ff60481b19166901000000000000000000179055005b60405162461bcd60e51b815260206004820152600d60248201526c2737ba103a34329037bbb732b960991b6044820152606490fd5b3461026f576102f16125f2366129c3565b91612db4565b3461026f57604036600319011261026f5761261161294f565b60243561261d81613207565b331515806126cc575b8061269f575b612687576001600160a01b039283169282918491167f8c5be1e5ebec7d5bd14f71427d1e84f3dd0314c0f7b2291e5b200ac8c7c3b925600080a4600090815260046020526040902080546001600160a01b0319169091179055005b60405163a9fbf51f60e01b8152336004820152602490fd5b5060018060a01b038116600052600560205260406000203360005260205260ff604060002054161561262c565b506001600160a01b038116331415612626565b3461026f57602036600319011261026f576004356126fc81613207565b506000526004602052602060018060a01b0360406000205416604051908152f35b3461026f57600036600319011261026f5760405160008054908261274083612ca3565b91828252602093600190856001821691826000146114a057505060011461276e575061142f92500383612b93565b6000808052859250907f290decd9548b62a8d60345a988386fc84ba6bc95484008f6362f93160ef3e5635b8583106127b057505061142f935082010185611422565b80548389018501528794508693909201918101612799565b3461026f57602036600319011261026f576102f16127e461294f565b6127ec613179565b7fe61decff6e4a5c6b5a3d3cbd28f882e595173563b49353ce5f31dba2de7f05ee60005260076020527f50055816adb7d578513aa90fe122cd0cc1caa8167abbe37a1ae9b211f48b92d354612840906131e1565b6132ef565b3461026f57602036600319011261026f576102f161286161294f565b612869613179565b600080516020613c6c83398151915260005260076020527f68cfe6f8c4a0a51fa498a36243209c54367e0b93d1a273c9f15bac776a478d02546128ab906131e1565b613260565b3461026f57602036600319011261026f576004359063ffffffff60e01b821680920361026f57602091637965db0b60e01b81149081156128f2575b5015158152f35b632483248360e11b81149150811561290c575b50836128eb565b6380ac58cd60e01b81149150811561293e575b811561292d575b5083612905565b6301ffc9a760e01b14905083612926565b635b5e139f60e01b8114915061291f565b600435906001600160a01b038216820361026f57565b602435906001600160a01b038216820361026f57565b60005b83811061298e5750506000910152565b818101518382015260200161297e565b906020916129b78151809281855285808601910161297b565b601f01601f1916010190565b606090600319011261026f576001600160a01b0390600435828116810361026f5791602435908116810361026f579060443590565b9181601f8401121561026f578235916001600160401b03831161026f576020838186019501011161026f57565b612b23906020815282516020820152610160612ac9612a5560208601516101c060408601526101e085019061299e565b612ab4612aa0612a77604089015193601f1994858983030160608a015261299e565b60608901516001600160a01b0316608088810191909152890151878203850160a089015261299e565b60a0880151838783030160c088015261299e565b9060c0870151908583030160e086015261299e565b9360e08101516001600160401b036101009116818501528101516101209015158185015281015190610140911515828501520151910190606080918051845260208101516020850152604081015160408501520151910152565b90565b608081019081106001600160401b0382111761059757604052565b61016081019081106001600160401b0382111761059757604052565b602081019081106001600160401b0382111761059757604052565b604081019081106001600160401b0382111761059757604052565b90601f801991011681019081106001600160401b0382111761059757604052565b6001600160401b03811161059757601f01601f191660200190565b929192612bdb82612bb4565b91612be96040519384612b93565b82948184528183011161026f578281602093846000960137010152565b9080601f8301121561026f57816020612b2393359101612bcf565b81601f8201121561026f578035916020916001600160401b03808511610597578460051b9060405195612c5686840188612b93565b865284808701928401019380851161026f57858401925b858410612c7e575050505050505090565b833583811161026f578791612c98848480948a0101612c06565b815201930192612c6d565b90600182811c92168015612cd3575b6020831014612cbd57565b634e487b7160e01b600052602260045260246000fd5b91607f1691612cb2565b90604051918260008254612cf081612ca3565b90818452602094600191600181169081600014612d605750600114612d21575b505050612d1f92500383612b93565b565b600090815285812095935091905b818310612d48575050612d1f9350820101388080612d10565b85548884018501529485019487945091830191612d2f565b92505050612d1f94925060ff191682840152151560051b820101388080612d10565b90604051612d8f81612b26565b6060600382948054845260018101546020850152600281015460408501520154910152565b6001600160a01b039182169290918315612f3a57600092828452826020956002875260409684888820541696879133151580612ea4575b509060027fddf252ad1be2c89b69c2b068fc378daa952ba7f163c4a11628f55a4df523b3ef9284612e71575b858352600381528b8320805460010190558683525289812080546001600160a01b0319168517905580a41692838303612e505750505050565b6064945051926364283d7b60e01b8452600484015260248301526044820152fd5b600087815260046020526040902080546001600160a01b0319169055848352600381528b83208054600019019055612e17565b91939450915080612ef9575b15612ec057859291879138612deb565b878688612edd576024915190637e27328960e01b82526004820152fd5b604491519063177e802f60e01b82523360048301526024820152fd5b503387148015612f1e575b80612eb05750858252600481523385898420541614612eb0565b5086825260058152878220338352815260ff8883205416612f04565b604051633250574960e11b815260006004820152602490fd5b15612f5a57565b60405162461bcd60e51b8152602060048201526014602482015273151bdad95b88191bd95cc81b9bdd08195e1a5cdd60621b6044820152606490fd5b15612f9d57565b60405162461bcd60e51b815260206004820152602160248201527f4e6f7420617574686f72697a65643a2061646d696e206f7220766572696669656044820152603960f91b6064820152608490fd5b60405190612ff982612b41565b8161014060009182815260609283602083015283604083015280848301528360808301528360a08301528360c08301528060e083015280610100830152806101208301526040519361304a85612b26565b8185528160208601528160408601528401520152565b1561306757565b60405162461bcd60e51b815260206004820152601f60248201527f4e6f7420617574686f72697a65643a206d696e746572206f722061646d696e006044820152606490fd5b600019811461068f5760010190565b80518210156130cf5760209160051b010190565b634e487b7160e01b600052603260045260246000fd5b604051906130f282612b78565b60018252602160f91b6020830152565b90601f811161311057505050565b6000916000526020600020906020601f850160051c8301941061314e575b601f0160051c01915b82811061314357505050565b818155600101613137565b909250829061312e565b908060209392818452848401376000828201840152601f01601f1916010190565b336000908152600080516020613c2c83398151915260205260409020547fa49807205ce4d355092ef5a8a18f56e8913cf4a201fbe287825b095693c217759060ff16156131c35750565b6044906040519063e2517d3f60e01b82523360048301526024820152fd5b80600052600760205260406000203360005260205260ff60406000205416156131c35750565b6000818152600260205260409020546001600160a01b031690811561322a575090565b60249060405190637e27328960e01b82526004820152fd5b60ff6009541661324e57565b60405163d93c066560e01b8152600490fd5b6001600160a01b031660008181527f68cfe6f8c4a0a51fa498a36243209c54367e0b93d1a273c9f15bac776a478d016020526040812054909190600080516020613c6c8339815191529060ff166132ea5780835260076020526040832082845260205260408320600160ff19825416179055600080516020613c0c833981519152339380a4600190565b505090565b6001600160a01b031660008181527f50055816adb7d578513aa90fe122cd0cc1caa8167abbe37a1ae9b211f48b92d260205260408120549091907fe61decff6e4a5c6b5a3d3cbd28f882e595173563b49353ce5f31dba2de7f05ee9060ff166132ea5780835260076020526040832082845260205260408320600160ff19825416179055600080516020613c0c833981519152339380a4600190565b6001600160a01b031660008181527f9a93d366c96821523b1013ee60686da29aec06e7c28b7ad65ea7ea0d51fd7fce60205260408120549091907f14cf45180c3fcf249a5a305e9657ea05c14fd4f4e1800ee0216a8213091711d29060ff166132ea5780835260076020526040832082845260205260408320600160ff19825416179055600080516020613c0c833981519152339380a4600190565b6001600160a01b03166000818152600080516020613c8c8339815191526020526040812054909190600080516020613c4c8339815191529060ff166132ea5780835260076020526040832082845260205260408320600160ff19825416179055600080516020613c0c833981519152339380a4600190565b6001600160a01b031660008181527ffc5d98ca782d8179d21919cc8dc8a0b0515f909d18f8c0522e3f9567cc3c6edf60205260408120549091907f373fdac787be5578b9a3d4a9ca3e3ae1e632ab5ee4750e92f65223238a15b2ef9060ff166132ea5780835260076020526040832082845260205260408320600160ff19825416179055600080516020613c0c833981519152339380a4600190565b906000918083526007602052604083209160018060a01b03169182845260205260ff604084205416156000146132ea5780835260076020526040832082845260205260408320600160ff19825416179055600080516020613c0c833981519152339380a4600190565b6001600160a01b03166000818152600080516020613c8c8339815191526020526040812054909190600080516020613c4c8339815191529060ff16156132ea578083526007602052604083208284526020526040832060ff1981541690557ff6391f5c32d9c69d2a47ea670b442974b53935d1edc7fd64eb21e047a839171b339380a4600190565b6001600160a01b031660008181527f68cfe6f8c4a0a51fa498a36243209c54367e0b93d1a273c9f15bac776a478d016020526040812054909190600080516020613c6c8339815191529060ff16156132ea578083526007602052604083208284526020526040832060ff1981541690557ff6391f5c32d9c69d2a47ea670b442974b53935d1edc7fd64eb21e047a839171b339380a4600190565b906000918083526007602052604083209160018060a01b03169182845260205260ff6040842054166000146132ea578083526007602052604083208284526020526040832060ff1981541690557ff6391f5c32d9c69d2a47ea670b442974b53935d1edc7fd64eb21e047a839171b339380a4600190565b60026008541461374e576002600855565b604051633ee5aeb560e01b8152600490fd5b6040805161376d81612b5d565b6000808252936001600160a01b038481169490929085156139765782875260209360028552858820541683878215159283613943575b818b5260038852888b2080546001019055828b5260028852888b2080546001600160a01b031916831790557fddf252ad1be2c89b69c2b068fc378daa952ba7f163c4a11628f55a4df523b3ef8b80a461392b573b613804575b505050505050565b82613842918596979894955180938192630a85bd0160e11b968784523360048501528c6024850152604484015260806064840152608483019061299e565b03818a8a5af18791816138e7575b506138b0575050503d6000146138a7573d61386a81612bb4565b9061387784519283612b93565b81528094823d92013e5b835193846138a1578251633250574960e11b815260048101859052602490fd5b84925001fd5b60609350613881565b919550915063ffffffff60e01b16036138d05750503880808080806137fc565b602492505190633250574960e11b82526004820152fd5b9091508481813d8311613924575b6138ff8183612b93565b8101031261392057516001600160e01b031981168103613920579038613850565b8780fd5b503d6138f5565b84516339e3563760e11b815260048101889052602490fd5b600083815260046020526040902080546001600160a01b0319169055808b5260038852888b2080546000190190556137a3565b8451633250574960e11b815260048101889052602490fd5b9190916000908082526020916006835260408120908551956001600160401b038711613aa9576139c8876139c28554612ca3565b85613102565b8491601f8811600114613a255796613a199281927ff8e1a15aba9398e019f0b49df1a4fde98ee17ae345cb5f6b5e2c27f5033e8ce7989992610bf35750508160011b916000199060031b1c19161790565b90555b604051908152a1565b9190601f198816848452868420935b818110613a9257509160019391897ff8e1a15aba9398e019f0b49df1a4fde98ee17ae345cb5f6b5e2c27f5033e8ce7999a9410613a79575b505050811b019055613a1c565b015160001960f88460031b161c19169055388080613a6c565b929387600181928786015181550195019301613a34565b634e487b7160e01b82526041600452602482fd5b90939192833b613acf575b5050505050565b604051630a85bd0160e11b8082526001600160a01b039384166004830152958316602482015260448101919091526080606482015294921692602092918590613b1c90608483019061299e565b039483816000978189895af1869181613bc7575b50613b91575050503d600014613b88573d613b4a81612bb4565b90613b586040519283612b93565b81528093823d92013e5b82519283613b8357604051633250574960e11b815260048101849052602490fd5b019050fd5b60609250613b62565b919450915063ffffffff60e01b1603613baf57503880808080613ac8565b60249060405190633250574960e11b82526004820152fd5b9091508481813d8311613c04575b613bdf8183612b93565b81010312613c0057516001600160e01b031981168103613c00579038613b30565b8680fd5b503d613bd556fe2f8788117e7eff1d82e926ec794901d17c78024a50270940304540a733656f0da70365933f78520ef41d6645ba61e509916296603327302d41466c063e8e26089f2df0fed2c77648de5860a4cc508cd0818c85b8b8a1ab4ceeef8d981c8956a60ce23c3e399818cfee81a7ab0880f714e53d7672b08df0fa62f2843416e1ea09a4bfd7afe708e2e87e7f0e2ad9b4d545417e0f795f57b5c5ab5d799c565a04f4a26469706673582212206a28be8ac50707798b3e5430e70a7c5053d10abc72374cbb6040ee28eea63fa864736f6c634300081800332f8788117e7eff1d82e926ec794901d17c78024a50270940304540a733656f0d",
  "linkReferences": {},
  "deployedLinkReferences": {}
}