{
  "_format": "hh-sol-artifact-1",
  "contractName": "PaymentManager",
  "sourceName": "contracts/PaymentManager.sol",
  "abi": [
    {
      "anonymous": false,
      "inputs": [
        {
          "indexed": true,
          "internalType": "bytes32",
          "name": "paymentId",
          "type": "bytes32"
        },
        {
          "indexed": true,
          "internalType": "address",
          "name": "from",
          "type": "address"
        },
        {
          "indexed": true,
          "internalType": "address",
          "name": "to",
          "type": "address"
        },
        {
          "indexed": false,
          "internalType": "uint256",
          "name": "amount",
          "type": "uint256"
        }
      ],
      "name": "PaymentProcessed",
      "type": "event"
    },
    {
      "anonymous": false,
      "inputs": [
        {
          "indexed": true,
          "internalType": "bytes32",
          "name": "paymentId",
          "type": "bytes32"
        }
      ],
      "name": "PaymentRefunded",
      "type": "event"
    },
    {
      "inputs": [
        {
          "internalType": "bytes32",
          "name": "paymentId",
          "type": "bytes32"
        }
      ],
      "name": "getPayment",
      "outputs": [
        {
          "components": [
            {
              "internalType": "bytes32",
              "name": "paymentId",
              "type": "bytes32"
            },
            {
              "internalType": "address",
              "name": "payer",
              "type": "address"
            },
            {
              "internalType": "address",
              "name": "payee",
              "type": "address"
            },
            {
              "internalType": "uint256",
              "name": "amount",
              "type": "uint256"
            },
            {
              "internalType": "string",
              "name": "status",
              "type": "string"
            },
            {
              "internalType": "uint256",
              "name": "timestamp",
              "type": "uint256"
            }
          ],
          "internalType": "struct PaymentManager.Payment",
          "name": "",
          "type": "tuple"
        }
      ],
      "stateMutability": "view",
      "type": "function"
    },
    {
      "inputs": [
        {
          "internalType": "bytes32",
          "name": "",
          "type": "bytes32"
        }
      ],
      "name": "payments",
      "outputs": [
        {
          "internalType": "bytes32",
          "name": "paymentId",
          "type": "bytes32"
        },
        {
          "internalType": "address",
          "name": "payer",
          "type": "address"
        },
        {
          "internalType": "address",
          "name": "payee",
          "type": "address"
        },
        {
          "internalType": "uint256",
          "name": "amount",
          "type": "uint256"
        },
        {
          "internalType": "string",
          "name": "status",
          "type": "string"
        },
        {
          "internalType": "uint256",
          "name": "timestamp",
          "type": "uint256"
        }
      ],
      "stateMutability": "view",
      "type": "function"
    },
    {
      "inputs": [
        {
          "internalType": "bytes32",
          "name": "paymentId",
          "type": "bytes32"
        },
        {
          "internalType": "address",
          "name": "payee",
          "type": "address"
        }
      ],
      "name": "processPayment",
      "outputs": [],
      "stateMutability": "payable",
      "type": "function"
    },
    {
      "inputs": [
        {
          "internalType": "bytes32",
          "name": "paymentId",
          "type": "bytes32"
        }
      ],
      "name": "refundPayment",
      "outputs": [],
      "stateMutability": "nonpayable",
      "type": "function"
    }
  ],
  "bytecode": "0x6080806040523461001657610732908161001c8239f35b600080fdfe60406080815260048036101561001457600080fd5b600091823560e01c80630716326d14610504578063657488fa1461025d578063de8f8b3f146101395763e66eefc81461004c57600080fd5b3461013557602092836003193601126101325781816101279260a08351610072816105be565b8281528289820152828582015282606082015260606080820152015284358152808652208251936100a2856105be565b8154855260018060a01b03806001840154169487870195865281600285015416908088019182528260056100e360038801549660608c0197885288016105f0565b9660808b0197885201549760a08a0198895282519a8b9a818c5251908b0152511690880152511660608601525160808501525160c060a085015260e08401906106a5565b905160c08301520390f35b80fd5b8280fd5b5090346101355760209081600319360112610259578035808552848352838520600101549093906001600160a01b0316330361022c5783855284835260058186200154156101f757838552848352842001906101958254610584565b601f81116101d8575b50506010671499599d5b99195960c21b0190557fc433150fd3494b673d21e553e65165da055241530c959584116958418348bd628280a280f35b601f6101f0928487528620910160051c8101906106e5565b388061019e565b91606492519162461bcd60e51b8352820152601160248201527014185e5b595b9d081b9bdd08199bdd5b99607a1b6044820152fd5b91606492519162461bcd60e51b835282015260096024820152682737ba103830bcb2b960b91b6044820152fd5b8380fd5b509081600319360112610135576001600160a01b0360243581811693833592909185900361050057828652602093868552600583882001546104cc578251916102a5836105be565b8483528583019033825284840192888452606085013481528651948786019467ffffffffffffffff95878110878211176104b95790898e808e8e9b9a9998979695845260098b526810dbdb5c1b195d195960ba1b818c015260808d019a8b5260a08d019b428d5282525220985189556001948060018b01925116916bffffffffffffffffffffffff60a01b928382541617905560028a019251169082541617905551600387015580860193519081519384116104a657506103668454610584565b601f811161046d575b508891601f84116001146103df57509180600594927fc9359a92f9a975e66b71067b34500d736c077e6625f2be657708047901af6c2f989796948d926103d4575b50508160011b916000199060031b1c19161790555b5191015551923484523393a480f35b0151905038806103b0565b9190601f198416858d528a8d20938d905b8c838310610456575050509260019285927fc9359a92f9a975e66b71067b34500d736c077e6625f2be657708047901af6c2f9a999896600598961061043d575b505050811b0190556103c5565b015160001960f88460031b161c19169055388080610430565b8186978293949787015181550196019401906103f0565b61049690858d528a8d20601f860160051c8101918c871061049c575b601f0160051c01906106e5565b3861036f565b9091508190610489565b634e487b7160e01b8c526041905260248bfd5b634e487b7160e01b8e526041855260248efd5b825162461bcd60e51b8152908101859052600e60248201526d5061796d656e742065786973747360901b6044820152606490fd5b8580fd5b5082346101325760203660031901126101325781908335815280602052209061057a82549260018060a01b03948560018301541695600283015416600561055160038501549385016105f0565b93015494805197889788526020880152860152606085015260c0608085015260c08401906106a5565b9060a08301520390f35b90600182811c921680156105b4575b602083101461059e57565b634e487b7160e01b600052602260045260246000fd5b91607f1691610593565b60c0810190811067ffffffffffffffff8211176105da57604052565b634e487b7160e01b600052604160045260246000fd5b9060405191600090805461060381610584565b90818652602092600191600181169081600014610687575060011461064b575b50505050829003601f01601f1916820167ffffffffffffffff8111838210176105da57604052565b909293506000528260002091836000935b838510610673575050505083010138808080610623565b80548886018301529301928490820161065c565b60ff191688860152505050151560051b840101905038808080610623565b919082519283825260005b8481106106d1575050826000602080949584010152601f8019910116010190565b6020818301810151848301820152016106b0565b8181106106f0575050565b600081556001016106e556fea2646970667358221220227c28c9dac8b2e7597413b25352b273ad11bf6ddd9fa351a56f094bdefa9d6064736f6c63430008180033",
  "linkReferences": {},
  "deployedLinkReferences": {}
}