{
  "_format": "hh-sol-artifact-1",
  "contractName": "BatchCertification",
  "sourceName": "contracts/BatchCertification.sol",
  "abi": [
    {
      "anonymous": false,
      "inputs": [
        {
          "indexed": true,
          "internalType": "bytes32",
          "name": "batchId",
          "type": "bytes32"
        },
        {
          "indexed": false,
          "internalType": "string",
          "name": "certName",
          "type": "string"
        }
      ],
      "name": "CertificationIssued",
      "type": "event"
    },
    {
      "inputs": [
        {
          "internalType": "bytes32",
          "name": "",
          "type": "bytes32"
        },
        {
          "internalType": "uint256",
          "name": "",
          "type": "uint256"
        }
      ],
      "name": "certifications",
      "outputs": [
        {
          "internalType": "bytes32",
          "name": "batchId",
          "type": "bytes32"
        },
        {
          "internalType": "string",
          "name": "certName",
          "type": "string"
        },
        {
          "internalType": "string",
          "name": "issuer",
          "type": "string"
        },
        {
          "internalType": "uint256",
          "name": "issueDate",
          "type": "uint256"
        },
        {
          "internalType": "bool",
          "name": "valid",
          "type": "bool"
        }
      ],
      "stateMutability": "view",
      "type": "function"
    },
    {
      "inputs": [
        {
          "internalType": "bytes32",
          "name": "batchId",
          "type": "bytes32"
        }
      ],
      "name": "getCertifications",
      "outputs": [
        {
          "components": [
            {
              "internalType": "bytes32",
              "name": "batchId",
              "type": "bytes32"
            },
            {
              "internalType": "string",
              "name": "certName",
              "type": "string"
            },
            {
              "internalType": "string",
              "name": "issuer",
              "type": "string"
            },
            {
              "internalType": "uint256",
              "name": "issueDate",
              "type": "uint256"
            },
            {
              "internalType": "bool",
              "name": "valid",
              "type": "bool"
            }
          ],
          "internalType": "struct BatchCertification.Certification[]",
          "name": "",
          "type": "tuple[]"
        }
      ],
      "stateMutability": "view",
      "type": "function"
    },
    {
      "inputs": [
        {
          "internalType": "bytes32",
          "name": "batchId",
          "type": "bytes32"
        },
        {
          "internalType": "string",
          "name": "certName",
          "type": "string"
        },
        {
          "internalType": "string",
          "name": "issuer",
          "type": "string"
        }
      ],
      "name": "issueCertification",
      "outputs": [],
      "stateMutability": "nonpayable",
      "type": "function"
    }
  ],
  "bytecode": "0x6080806040523461001657610861908161001c8239f35b600080fdfe6080604052600436101561001257600080fd5b60003560e01c806303014a7714610588578063cac36ed5146104265763e36bdd1d1461003d57600080fd5b346104215760603660031901126104215760243567ffffffffffffffff81116104215761006e9036906004016107b6565b60443567ffffffffffffffff81116104215761008e9036906004016107b6565b9290600435600052600060205260406000206100cf604051926100b084610693565b60043584526100c03687876107e4565b966020850197885236916107e4565b6040830152426060830152600160808301528054680100000000000000008110156103255761010391600182018155610627565b94909461040b57815185555180519067ffffffffffffffff82116103255781906101306001880154610659565b601f81116103b8575b50602090601f83116001146103465760009261033b575b50508160011b916000199060031b1c19161760018501555b604081015180519067ffffffffffffffff82116103255761018c6002870154610659565b601f81116102de575b50602090601f83116001146102495795826080936004937fa0b4d4cb108200e1206b9ae5808427a7966a74d6d43d3b35f93ca03bbd2a077e989960009261023e575b50508160011b916000199060031b1c19161760028201555b6060840151600382015501910151151560ff80198354169116179055826040519160208352816020840152604083013760006040848301015260408160043594601f80199101168101030190a2005b0151905038806101d7565b90601f198316916002880160005260206000209260005b8181106102c65750936004937fa0b4d4cb108200e1206b9ae5808427a7966a74d6d43d3b35f93ca03bbd2a077e98999360019383608098106102ad575b505050811b0160028201556101ef565b015160001960f88460031b161c1916905538808061029d565b92936020600181928786015181550195019301610260565b600287016000526020600020601f840160051c81016020851061031e575b601f830160051c82018110610312575050610195565b600081556001016102fc565b50806102fc565b634e487b7160e01b600052604160045260246000fd5b015190503880610150565b9250600187016000526020600020906000935b601f198416851061039d576001945083601f19811610610384575b505050811b016001850155610168565b015160001960f88460031b161c19169055388080610374565b81810151835560209485019460019093019290910190610359565b909150600187016000526020600020601f840160051c810160208510610404575b90849392915b601f830160051c820181106103f5575050610139565b600081558594506001016103df565b50806103d9565b634e487b7160e01b600052600060045260246000fd5b600080fd5b34610421576020806003193601126104215760043560005260008152604060002080549067ffffffffffffffff821161032557829060059260405193610471848360051b01866106af565b8185528385018093600052846000206000915b84831061052657604080518881528951818a01819052600092600582901b83018101918a918c9085015b8287106104bb5785850386f35b909192938280600192603f198982030185528751906105006104ee60a08451845285850151908087860152840190610776565b60408401518382036040850152610776565b9160608082015190830152608080910151151591015296019201960195929190926104ae565b838760019260409a999a5161053a81610693565b855481526105498587016106d1565b83820152610559600287016106d1565b60408201526003860154606082015260ff60048701541615156080820152815201920192019190969596610484565b346104215760403660031901126104215760243560043560005260006020526040600020908154811015610421576105bf91610627565b5080546105ce600183016106d1565b916105db600282016106d1565b61061660ff600460038501549401541691610608604051968796875260a0602088015260a0870190610776565b908582036040870152610776565b916060840152151560808301520390f35b8054821015610643576000526005602060002091020190600090565b634e487b7160e01b600052603260045260246000fd5b90600182811c92168015610689575b602083101461067357565b634e487b7160e01b600052602260045260246000fd5b91607f1691610668565b60a0810190811067ffffffffffffffff82111761032557604052565b90601f8019910116810190811067ffffffffffffffff82111761032557604052565b906040519182600082546106e481610659565b908184526020946001916001811690816000146107545750600114610715575b505050610713925003836106af565b565b600090815285812095935091905b81831061073c5750506107139350820101388080610704565b85548884018501529485019487945091830191610723565b9250505061071394925060ff191682840152151560051b820101388080610704565b919082519283825260005b8481106107a2575050826000602080949584010152601f8019910116010190565b602081830181015184830182015201610781565b9181601f840112156104215782359167ffffffffffffffff8311610421576020838186019501011161042157565b92919267ffffffffffffffff8211610325576040519161080e601f8201601f1916602001846106af565b82948184528183011161042157828160209384600096013701015256fea2646970667358221220323fd39b921b1b0d990e881984a10d1dcd192b0e06e49319374e7a9977c5190d64736f6c63430008180033",
  "linkReferences": {},
  "deployedLinkReferences": {}
}