{
  "_format": "hh-sol-artifact-1",
  "contractName": "TransferManager",
  "sourceName": "contracts/TransferManager.sol",
  "abi": [
    {
      "anonymous": false,
      "inputs": [
        {
          "indexed": true,
          "internalType": "bytes32",
          "name": "batchId",
          "type": "bytes32"
        }
      ],
      "name": "TransferCompleted",
      "type": "event"
    },
    {
      "anonymous": false,
      "inputs": [
        {
          "indexed": true,
          "internalType": "bytes32",
          "name": "batchId",
          "type": "bytes32"
        },
        {
          "indexed": true,
          "internalType": "address",
          "name": "from",
          "type": "address"
        },
        {
          "indexed": true,
          "internalType": "address",
          "name": "to",
          "type": "address"
        }
      ],
      "name": "TransferInitiated",
      "type": "event"
    },
    {
      "inputs": [
        {
          "internalType": "bytes32",
          "name": "batchId",
          "type": "bytes32"
        },
        {
          "internalType": "uint256",
          "name": "index",
          "type": "uint256"
        }
      ],
      "name": "completeTransfer",
      "outputs": [],
      "stateMutability": "nonpayable",
      "type": "function"
    },
    {
      "inputs": [
        {
          "internalType": "bytes32",
          "name": "batchId",
          "type": "bytes32"
        }
      ],
      "name": "getTransfers",
      "outputs": [
        {
          "components": [
            {
              "internalType": "bytes32",
              "name": "batchId",
              "type": "bytes32"
            },
            {
              "internalType": "address",
              "name": "from",
              "type": "address"
            },
            {
              "internalType": "address",
              "name": "to",
              "type": "address"
            },
            {
              "internalType": "uint256",
              "name": "quantity",
              "type": "uint256"
            },
            {
              "internalType": "uint256",
              "name": "timestamp",
              "type": "uint256"
            },
            {
              "internalType": "string",
              "name": "status",
              "type": "string"
            }
          ],
          "internalType": "struct TransferManager.Transfer[]",
          "name": "",
          "type": "tuple[]"
        }
      ],
      "stateMutability": "view",
      "type": "function"
    },
    {
      "inputs": [
        {
          "internalType": "bytes32",
          "name": "batchId",
          "type": "bytes32"
        },
        {
          "internalType": "address",
          "name": "to",
          "type": "address"
        },
        {
          "internalType": "uint256",
          "name": "quantity",
          "type": "uint256"
        }
      ],
      "name": "initiateTransfer",
      "outputs": [],
      "stateMutability": "nonpayable",
      "type": "function"
    },
    {
      "inputs": [
        {
          "internalType": "bytes32",
          "name": "",
          "type": "bytes32"
        },
        {
          "internalType": "uint256",
          "name": "",
          "type": "uint256"
        }
      ],
      "name": "transfers",
      "outputs": [
        {
          "internalType": "bytes32",
          "name": "batchId",
          "type": "bytes32"
        },
        {
          "internalType": "address",
          "name": "from",
          "type": "address"
        },
        {
          "internalType": "address",
          "name": "to",
          "type": "address"
        },
        {
          "internalType": "uint256",
          "name": "quantity",
          "type": "uint256"
        },
        {
          "internalType": "uint256",
          "name": "timestamp",
          "type": "uint256"
        },
        {
          "internalType": "string",
          "name": "status",
          "type": "string"
        }
      ],
      "stateMutability": "view",
      "type": "function"
    }
  ],
  "bytecode": "0x608080604052346100165761078d908161001c8239f35b600080fdfe608060409080825260048036101561001657600080fd5b600091823560e01c9081630b213d26146102fd575080634c5e56f21461026a578063752603d1146101d45763a372847f1461005057600080fd5b346101d057602090816003193601126101cc578035835282825283832091825467ffffffffffffffff81116101b957855191949260059061009583831b880185610639565b82845286840191829686528786209186935b85851061014f575050505050508451938085019181865251809252858501868360051b8701019493965b8388106100de5786860387f35b9091929394838061013e600193603f198b820301875289519060c0908251815284830151878060a01b038091168683015288840151168882015260608084015190820152608080840151908201528160a080940151938201520190610700565b9701930197019690939291936100d1565b60068a6001928d809d9a9b9d519061016682610607565b88548252858060a01b0380878b0154168584015260028a01541690820152600388015460608201528588015460808201526101a287890161065b565b60a0820152815201940194019392989695986100a7565b634e487b7160e01b855260418352602485fd5b8280fd5b5080fd5b50919034610267576101e536610580565b91908152806020528281209081548310156102675750610263916102089161059b565b509182549260018060a01b039485600183015416956002830154166102386005600385015493850154940161065b565b938051978897885260208801528601526060850152608084015260c060a084015260c0830190610700565b0390f35b80fd5b8284346101d057600561028f61027f36610580565b909384865285602052852061059b565b500161029b81546105cd565b601f81116102de575b5060126810dbdb5c1b195d195960ba1b0190557fba4bce30c5ed2285a6e0a9a31a093123e7ab3a64b71d9e641d33c08e91f58b9a8280a280f35b818452602084206102f791601f0160051c810190610740565b836102a4565b905083913461057c57606036600319011261057c576001600160a01b036024358181169483359492939091869003610578578487526020908782528288209361034581610607565b868152828101338152848201898152606083019060443582526080840192428452875199888b0167ffffffffffffffff998c82108b831117610564575260098b5268125b9a5d1a585d195960ba1b888c015260a086019a8b52895468010000000000000000811015610551576103c29060019b8c8201815561059b565b96909661053f57906005969594939291518655808b8701925116916bffffffffffffffffffffffff60a01b92838254161790556002860192511690825416179055516003830155518382015501945190815193841161052c575061042685546105cd565b601f81116104f3575b5081601f841160011461049057509282939183928994610485575b50501b916000199060031b1c19161790555b33907f342d38e01a2764dde5384ce69df459bf7c7cd213cf5c4531154cdffc612d818c8480a480f35b01519250888061044a565b919083601f198116878b52848b20948b905b888383106104d957505050106104c0575b505050811b01905561045c565b015160001960f88460031b161c191690558680806104b3565b8587015188559096019594850194879350908101906104a2565b61051c90868a52838a20601f860160051c810191858710610522575b601f0160051c0190610740565b8861042f565b909150819061050f565b634e487b7160e01b895260419052602488fd5b634e487b7160e01b8f528e885260248ffd5b634e487b7160e01b8f526041885260248ffd5b50634e487b7160e01b8f526041885260248ffd5b8680fd5b8380fd5b6040906003190112610596576004359060243590565b600080fd5b80548210156105b7576000526006602060002091020190600090565b634e487b7160e01b600052603260045260246000fd5b90600182811c921680156105fd575b60208310146105e757565b634e487b7160e01b600052602260045260246000fd5b91607f16916105dc565b60c0810190811067ffffffffffffffff82111761062357604052565b634e487b7160e01b600052604160045260246000fd5b90601f8019910116810190811067ffffffffffffffff82111761062357604052565b9060405191826000825461066e816105cd565b908184526020946001916001811690816000146106de575060011461069f575b50505061069d92500383610639565b565b600090815285812095935091905b8183106106c657505061069d935082010138808061068e565b855488840185015294850194879450918301916106ad565b9250505061069d94925060ff191682840152151560051b82010138808061068e565b919082519283825260005b84811061072c575050826000602080949584010152601f8019910116010190565b60208183018101518483018201520161070b565b81811061074b575050565b6000815560010161074056fea2646970667358221220c880e46a696e95b0dd6b8ecdc8cf55aadc578714b53ee2414760008e5909e96864736f6c63430008180033",
  "linkReferences": {},
  "deployedLinkReferences": {}
}