{
  "_format": "hh-sol-artifact-1",
  "contractName": "HerbalDatabase",
  "sourceName": "contracts/HerbalDatabase.sol",
  "abi": [
    {
      "inputs": [
        {
          "internalType": "string",
          "name": "_name",
          "type": "string"
        },
        {
          "internalType": "string",
          "name": "_scientific",
          "type": "string"
        },
        {
          "internalType": "string",
          "name": "_family",
          "type": "string"
        },
        {
          "internalType": "string",
          "name": "_uses",
          "type": "string"
        },
        {
          "internalType": "uint256",
          "name": "_temp",
          "type": "uint256"
        },
        {
          "internalType": "uint256",
          "name": "_humidity",
          "type": "uint256"
        }
      ],
      "name": "addHerb",
      "outputs": [],
      "stateMutability": "nonpayable",
      "type": "function"
    },
    {
      "inputs": [
        {
          "internalType": "string",
          "name": "_name",
          "type": "string"
        }
      ],
      "name": "getHerbInfo",
      "outputs": [
        {
          "components": [
            {
              "internalType": "string",
              "name": "scientificName",
              "type": "string"
            },
            {
              "internalType": "string",
              "name": "commonName",
              "type": "string"
            },
            {
              "internalType": "string",
              "name": "family",
              "type": "string"
            },
            {
              "internalType": "string",
              "name": "medicinalUses",
              "type": "string"
            },
            {
              "internalType": "uint256",
              "name": "optimalTemperature",
              "type": "uint256"
            },
            {
              "internalType": "uint256",
              "name": "optimalHumidity",
              "type": "uint256"
            }
          ],
          "internalType": "struct HerbalDatabase.HerbInfo",
          "name": "",
          "type": "tuple"
        }
      ],
      "stateMutability": "view",
      "type": "function"
    },
    {
      "inputs": [
        {
          "internalType": "string",
          "name": "",
          "type": "string"
        }
      ],
      "name": "herbs",
      "outputs": [
        {
          "internalType": "string",
          "name": "scientificName",
          "type": "string"
        },
        {
          "internalType": "string",
          "name": "commonName",
          "type": "string"
        },
        {
          "internalType": "string",
          "name": "family",
          "type": "string"
        },
        {
          "internalType": "string",
          "name": "medicinalUses",
          "type": "string"
        },
        {
          "internalType": "uint256",
          "name": "optimalTemperature",
          "type": "uint256"
        },
        {
          "internalType": "uint256",
          "name": "optimalHumidity",
          "type": "uint256"
        }
      ],
      "stateMutability": "view",
      "type": "function"
    }
  ],
  "bytecode": "0x60808060405234610016576109cc908161001c8239f35b600080fdfe604060808152600436101561001357600080fd5b60003560e01c80635f9106a814610680578063db0251f3146101295763e9e374581461003e57600080fd5b34610124576020366003190112610124576004359067ffffffffffffffff82116101245761008a60206100786100ec943690600401610818565b8184519382858094519384920161086f565b8101600081520301902061009d816108f1565b916101156100ad600184016108f1565b916101076100bd600286016108f1565b916100ca600387016108f1565b926100fa600560048901549801549683519a8b9a60c08c5260c08c0190610892565b908a820360208c0152610892565b9188830390890152610892565b908582036060870152610892565b91608084015260a08301520390f35b600080fd5b50346101245760c03660031901126101245767ffffffffffffffff6004358181116101245761015c903690600401610818565b9160243582811161012457610175903690600401610818565b916044358181116101245761018e903690600401610818565b90606435818111610124576101a7903690600401610818565b918351946101b4866107da565b85526101f260208087019780895286880193845260608801958652816080890197608435895260a43560a08b0152519382858094519384920161086f565b810160008152030190209585518051908482116104145781906102158a546108b7565b601f811161062d575b50602090601f83116001146105c7576000926105bc575b50508160011b916000199060031b1c19161787555b5180519083821161041457819061026460018a01546108b7565b601f8111610566575b50602090601f83116001146104f9576000926104ee575b50508160011b916000199060031b1c19161760018701555b51805160028701918382116104145781906102b784546108b7565b601f811161049b575b50602090601f83116001146104355760009261042a575b50508160011b916000199060031b1c19161790555b60038501915180519182116104145761030583546108b7565b601f81116103cc575b50602090601f831160011461035d579180600596949260a09694600092610352575b50508160011b916000199060031b1c19161790555b5160048501550151910155005b015190503880610330565b90601f198316918460005260206000209260005b8181106103b4575092600192859260a0989660059a98961061039b575b505050811b019055610345565b015160001960f88460031b161c1916905538808061038e565b92936020600181928786015181550195019301610371565b836000526020600020601f840160051c8101916020851061040a575b601f0160051c01905b8181106103fe575061030e565b600081556001016103f1565b90915081906103e8565b634e487b7160e01b600052604160045260246000fd5b0151905038806102d7565b6000858152602081209350601f198516905b818110610483575090846001959493921061046a575b505050811b0190556102ec565b015160001960f88460031b161c1916905538808061045d565b92936020600181928786015181550195019301610447565b909150836000526020600020601f840160051c810191602085106104e4575b90601f859493920160051c01905b8181106104d557506102c0565b600081558493506001016104c8565b90915081906104ba565b015190503880610284565b60018a016000908152602081209350601f198516905b81811061054e5750908460019594939210610535575b505050811b01600187015561029c565b015160001960f88460031b161c19169055388080610525565b9293602060018192878601518155019501930161050f565b909150600189016000526020600020601f840160051c810191602085106105b2575b90601f859493920160051c01905b8181106105a3575061026d565b60008155849350600101610596565b9091508190610588565b015190503880610235565b60008b8152602081209350601f198516905b81811061061557509084600195949392106105fc575b505050811b01875561024a565b015160001960f88460031b161c191690553880806105ef565b929360206001819287860151815501950193016105d9565b909150896000526020600020601f840160051c81019160208510610676575b90601f859493920160051c01905b818110610667575061021e565b6000815584935060010161065a565b909150819061064c565b503461012457602080600319360112610124576004359167ffffffffffffffff8311610124576106b660c0933690600401610818565b906107c96106fd848351946106ca866107da565b600060a060609788815288858201528888820152888082015282608082015201528185519382858094519384920161086f565b8101600081520301902092825192610714846107da565b61071d856108f1565b84526107b861072e600187016108f1565b92878601938452610741600288016108f1565b908387019182526107a761075760038a016108f1565b95828901968752610793600560048c01549b60808c019c8d5201549960a081019a8b5287519d8d8f9e928f9384525192015260e08d0190610892565b9051601f1996878d840301908d0152610892565b915190848a840301908a0152610892565b915190868303016080870152610892565b915160a08401525160c08301520390f35b60c0810190811067ffffffffffffffff82111761041457604052565b90601f8019910116810190811067ffffffffffffffff82111761041457604052565b81601f820112156101245780359067ffffffffffffffff8211610414576040519261084d601f8401601f1916602001856107f6565b8284526020838301011161012457816000926020809301838601378301015290565b60005b8381106108825750506000910152565b8181015183820152602001610872565b906020916108ab8151809281855285808601910161086f565b601f01601f1916010190565b90600182811c921680156108e7575b60208310146108d157565b634e487b7160e01b600052602260045260246000fd5b91607f16916108c6565b90604051918260008254610904816108b7565b908184526020946001916001811690816000146109745750600114610935575b505050610933925003836107f6565b565b600090815285812095935091905b81831061095c5750506109339350820101388080610924565b85548884018501529485019487945091830191610943565b9250505061093394925060ff191682840152151560051b82010138808061092456fea2646970667358221220c25053f4b79e2aae7f20bbcf0064f45d424ceeed5e3488a96cbdfba3c948d3b364736f6c63430008180033",
  "linkReferences": {},
  "deployedLinkReferences": {}
}