{
  "_format": "hh-sol-artifact-1",
  "contractName": "EscrowContract",
  "sourceName": "contracts/Escrow.sol",
  "abi": [
    {
      "anonymous": false,
      "inputs": [
        {
          "indexed": true,
          "internalType": "bytes32",
          "name": "id",
          "type": "bytes32"
        }
      ],
      "name": "EscrowCancelled",
      "type": "event"
    },
    {
      "anonymous": false,
      "inputs": [
        {
          "indexed": true,
          "internalType": "bytes32",
          "name": "id",
          "type": "bytes32"
        },
        {
          "indexed": false,
          "internalType": "address",
          "name": "buyer",
          "type": "address"
        },
        {
          "indexed": false,
          "internalType": "address",
          "name": "seller",
          "type": "address"
        },
        {
          "indexed": false,
          "internalType": "uint256",
          "name": "amount",
          "type": "uint256"
        }
      ],
      "name": "EscrowCreated",
      "type": "event"
    },
    {
      "anonymous": false,
      "inputs": [
        {
          "indexed": true,
          "internalType": "bytes32",
          "name": "id",
          "type": "bytes32"
        },
        {
          "indexed": false,
          "internalType": "address",
          "name": "funder",
          "type": "address"
        }
      ],
      "name": "EscrowFunded",
      "type": "event"
    },
    {
      "anonymous": false,
      "inputs": [
        {
          "indexed": true,
          "internalType": "bytes32",
          "name": "id",
          "type": "bytes32"
        },
        {
          "indexed": false,
          "internalType": "address",
          "name": "recipient",
          "type": "address"
        }
      ],
      "name": "EscrowReleased",
      "type": "event"
    },
    {
      "inputs": [
        {
          "internalType": "bytes32",
          "name": "_id",
          "type": "bytes32"
        }
      ],
      "name": "cancelEscrow",
      "outputs": [],
      "stateMutability": "nonpayable",
      "type": "function"
    },
    {
      "inputs": [
        {
          "internalType": "address",
          "name": "_seller",
          "type": "address"
        },
        {
          "internalType": "address",
          "name": "_arbiter",
          "type": "address"
        }
      ],
      "name": "createEscrow",
      "outputs": [
        {
          "internalType": "bytes32",
          "name": "",
          "type": "bytes32"
        }
      ],
      "stateMutability": "payable",
      "type": "function"
    },
    {
      "inputs": [
        {
          "internalType": "bytes32",
          "name": "",
          "type": "bytes32"
        }
      ],
      "name": "escrows",
      "outputs": [
        {
          "internalType": "address",
          "name": "buyer",
          "type": "address"
        },
        {
          "internalType": "address",
          "name": "seller",
          "type": "address"
        },
        {
          "internalType": "address",
          "name": "arbiter",
          "type": "address"
        },
        {
          "internalType": "uint256",
          "name": "amount",
          "type": "uint256"
        },
        {
          "internalType": "enum EscrowContract.State",
          "name": "state",
          "type": "uint8"
        },
        {
          "internalType": "uint256",
          "name": "createdAt",
          "type": "uint256"
        }
      ],
      "stateMutability": "view",
      "type": "function"
    },
    {
      "inputs": [
        {
          "internalType": "bytes32",
          "name": "_id",
          "type": "bytes32"
        }
      ],
      "name": "releaseEscrow",
      "outputs": [],
      "stateMutability": "nonpayable",
      "type": "function"
    }
  ],
  "bytecode": "0x6080806040523461001657610523908161001c8239f35b600080fdfe608060408181526004908136101561001657600080fd5b600092833560e01c9081632d83549c1461042a57508063834cc6fc14610264578063bf89fc611461016d5763ee5e3b811461005057600080fd5b346101695760203660031901126101695781358084526020849052818420805491936001600160a01b0392831692338414908115610159575b5015610125578082019081549060ff821690808210156101125750936003889594869594828796956100be60018998146104b4565b60ff1916179055015490828215610109575bf1156100fe57507f642e58efcd0db9e3e5171b8f71a4655b98647c098a6aa596308df9e8037ecc098280a280f35b51913d9150823e3d90fd5b506108fc6100d0565b634e487b7160e01b895260219052602488fd5b606490602085519162461bcd60e51b8352820152600e60248201526d139bdd08185d5d1a1bdc9a5e995960921b6044820152fd5b6002840154163314905038610089565b8280fd5b50346101695760203660031901126101695781358084526020849052818420600281015491936001600160a01b039283163303610233578082019081549060ff821690808210156101125750906101c86001600293146104b4565b60ff19161790558480808060018501946003878754169101549082821561022a575bf11561022057549151911681527f376b9e73ea20b749b533d8617356ec5071166c91c1ef89d834667c279eba9d9290602090a280f35b82513d86823e3d90fd5b506108fc6101ea565b606490602085519162461bcd60e51b8352820152600b60248201526a2737ba1030b93134ba32b960a91b6044820152fd5b50808391600319360112610426578235916001600160a01b03808416919082850361042657602435918183168093036104235784519060208201963360601b88526bffffffffffffffffffffffff199060601b16603483015242604883015260488252608082019367ffffffffffffffff978386108987111761041057858852835190209761014084019081118682101761041057875233855260a083019086825260c0840190815260e08401913483526101206101008601956001875201954287528a855284602052808a8620985116916bffffffffffffffffffffffff60a01b92838a54161789558160018a01915116838254161790556002880192511690825416179055516003850155878401915190888210156103fd5760208888817f0dd968c277d9dc6b36b6ec2b638324c3d937882c64ca109440bc050ebf26cb0760608b8b60058c8c8c60ff8019835416911617905551910155845190338252878201523485820152a2817f4fc219690ca7a1d596563e2006660adbf68569aab71bf7a8e54ac3e14516c8a0848351338152a251908152f35b634e487b7160e01b815260218952602490fd5b634e487b7160e01b835260418a52602483fd5b80fd5b5080fd5b92939050346104235760203660031901126104235783358152806020528181209060018060a01b038083541693816001850154169160028501541690600385015492600560ff8a8801541696015496885260208801528601526060850152848210156104a1575060c09350608083015260a0820152f35b634e487b7160e01b815260218552602490fd5b156104bb57565b60405162461bcd60e51b815260206004820152600a602482015269139bdd08199d5b99195960b21b6044820152606490fdfea26469706673582212207c41d630e092428ad2023fe0aed028114e3310d76adbb72ca32aec5ab6b1956764736f6c63430008180033",
  "linkReferences": {},
  "deployedLinkReferences": {}
}