{
  "_format": "hh-sol-artifact-1",
  "contractName": "DataRegistry",
  "sourceName": "contracts/DataRegistry.sol",
  "abi": [
    {
      "inputs": [],
      "stateMutability": "nonpayable",
      "type": "constructor"
    },
    {
      "inputs": [],
      "name": "AccessControlBadConfirmation",
      "type": "error"
    },
    {
      "inputs": [
        {
          "internalType": "address",
          "name": "account",
          "type": "address"
        },
        {
          "internalType": "bytes32",
          "name": "neededRole",
          "type": "bytes32"
        }
      ],
      "name": "AccessControlUnauthorizedAccount",
      "type": "error"
    },
    {
      "anonymous": false,
      "inputs": [
        {
          "indexed": true,
          "internalType": "address",
          "name": "oracle",
          "type": "address"
        },
        {
          "indexed": false,
          "internalType": "bool",
          "name": "authorized",
          "type": "bool"
        }
      ],
      "name": "OracleAuthorized",
      "type": "event"
    },
    {
      "anonymous": false,
      "inputs": [
        {
          "indexed": true,
          "internalType": "bytes32",
          "name": "recordId",
          "type": "bytes32"
        },
        {
          "indexed": false,
          "internalType": "bytes32",
          "name": "dataHash",
          "type": "bytes32"
        },
        {
          "indexed": false,
          "internalType": "uint256",
          "name": "timestamp",
          "type": "uint256"
        }
      ],
      "name": "RecordCreated",
      "type": "event"
    },
    {
      "anonymous": false,
      "inputs": [
        {
          "indexed": true,
          "internalType": "bytes32",
          "name": "role",
          "type": "bytes32"
        },
        {
          "indexed": true,
          "internalType": "bytes32",
          "name": "previousAdminRole",
          "type": "bytes32"
        },
        {
          "indexed": true,
          "internalType": "bytes32",
          "name": "newAdminRole",
          "type": "bytes32"
        }
      ],
      "name": "RoleAdminChanged",
      "type": "event"
    },
    {
      "anonymous": false,
      "inputs": [
        {
          "indexed": true,
          "internalType": "bytes32",
          "name": "role",
          "type": "bytes32"
        },
        {
          "indexed": true,
          "internalType": "address",
          "name": "account",
          "type": "address"
        },
        {
          "indexed": true,
          "internalType": "address",
          "name": "sender",
          "type": "address"
        }
      ],
      "name": "RoleGranted",
      "type": "event"
    },
    {
      "anonymous": false,
      "inputs": [
        {
          "indexed": true,
          "internalType": "bytes32",
          "name": "role",
          "type": "bytes32"
        },
        {
          "indexed": true,
          "internalType": "address",
          "name": "account",
          "type": "address"
        },
        {
          "indexed": true,
          "internalType": "address",
          "name": "sender",
          "type": "address"
        }
      ],
      "name": "RoleRevoked",
      "type": "event"
    },
    {
      "inputs": [],
      "name": "DATA_MANAGER_ROLE",
      "outputs": [
        {
          "internalType": "bytes32",
          "name": "",
          "type": "bytes32"
        }
      ],
      "stateMutability": "view",
      "type": "function"
    },
    {
      "inputs": [],
      "name": "DEFAULT_ADMIN_ROLE",
      "outputs": [
        {
          "internalType": "bytes32",
          "name": "",
          "type": "bytes32"
        }
      ],
      "stateMutability": "view",
      "type": "function"
    },
    {
      "inputs": [
        {
          "internalType": "address",
          "name": "",
          "type": "address"
        }
      ],
      "name": "authorizedOracles",
      "outputs": [
        {
          "internalType": "bool",
          "name": "",
          "type": "bool"
        }
      ],
      "stateMutability": "view",
      "type": "function"
    },
    {
      "inputs": [
        {
          "internalType": "bytes32",
          "name": "recordId",
          "type": "bytes32"
        },
        {
          "internalType": "bytes32",
          "name": "dataHash",
          "type": "bytes32"
        },
        {
          "internalType": "string",
          "name": "metadata",
          "type": "string"
        }
      ],
      "name": "createRecord",
      "outputs": [],
      "stateMutability": "nonpayable",
      "type": "function"
    },
    {
      "inputs": [
        {
          "internalType": "bytes32",
          "name": "recordId",
          "type": "bytes32"
        }
      ],
      "name": "getRecord",
      "outputs": [
        {
          "components": [
            {
              "internalType": "bytes32",
              "name": "dataHash",
              "type": "bytes32"
            },
            {
              "internalType": "uint256",
              "name": "timestamp",
              "type": "uint256"
            },
            {
              "internalType": "string",
              "name": "metadata",
              "type": "string"
            }
          ],
          "internalType": "struct DataRegistry.Record",
          "name": "",
          "type": "tuple"
        }
      ],
      "stateMutability": "view",
      "type": "function"
    },
    {
      "inputs": [
        {
          "internalType": "bytes32",
          "name": "role",
          "type": "bytes32"
        }
      ],
      "name": "getRoleAdmin",
      "outputs": [
        {
          "internalType": "bytes32",
          "name": "",
          "type": "bytes32"
        }
      ],
      "stateMutability": "view",
      "type": "function"
    },
    {
      "inputs": [
        {
          "internalType": "bytes32",
          "name": "role",
          "type": "bytes32"
        },
        {
          "internalType": "address",
          "name": "account",
          "type": "address"
        }
      ],
      "name": "grantRole",
      "outputs": [],
      "stateMutability": "nonpayable",
      "type": "function"
    },
    {
      "inputs": [
        {
          "internalType": "bytes32",
          "name": "role",
          "type": "bytes32"
        },
        {
          "internalType": "address",
          "name": "account",
          "type": "address"
        }
      ],
      "name": "hasRole",
      "outputs": [
        {
          "internalType": "bool",
          "name": "",
          "type": "bool"
        }
      ],
      "stateMutability": "view",
      "type": "function"
    },
    {
      "inputs": [
        {
          "internalType": "bytes32",
          "name": "",
          "type": "bytes32"
        }
      ],
      "name": "records",
      "outputs": [
        {
          "internalType": "bytes32",
          "name": "dataHash",
          "type": "bytes32"
        },
        {
          "internalType": "uint256",
          "name": "timestamp",
          "type": "uint256"
        },
        {
          "internalType": "string",
          "name": "metadata",
          "type": "string"
        }
      ],
      "stateMutability": "view",
      "type": "function"
    },
    {
      "inputs": [
        {
          "internalType": "bytes32",
          "name": "role",
          "type": "bytes32"
        },
        {
          "internalType": "address",
          "name": "callerConfirmation",
          "type": "address"
        }
      ],
      "name": "renounceRole",
      "outputs": [],
      "stateMutability": "nonpayable",
      "type": "function"
    },
    {
      "inputs": [
        {
          "internalType": "bytes32",
          "name": "role",
          "type": "bytes32"
        },
        {
          "internalType": "address",
          "name": "account",
          "type": "address"
        }
      ],
      "name": "revokeRole",
      "outputs": [],
      "stateMutability": "nonpayable",
      "type": "function"
    },
    {
      "inputs": [
        {
          "internalType": "address",
          "name": "oracle",
          "type": "address"
        },
        {
          "internalType": "bool",
          "name": "authorized",
          "type": "bool"
        }
      ],
      "name": "setOracleAuthorization",
      "outputs": [],
      "stateMutability": "nonpayable",
      "type": "function"
    },
    {
      "inputs": [
        {
          "internalType": "bytes4",
          "name": "interfaceId",
          "type": "bytes4"
        }
      ],
      "name": "supportsInterface",
      "outputs": [
        {
          "internalType": "bool",
          "name": "",
          "type": "bool"
        }
      ],
      "stateMutability": "view",
      "type": "function"
    },
    {
      "inputs": [
        {
          "internalType": "bytes32",
          "name": "recordId",
          "type": "bytes32"
        },
        {
          "internalType": "bytes32",
          "name": "dataHash",
          "type": "bytes32"
        }
      ],
      "name": "verifyRecord",
      "outputs": [
        {
          "internalType": "bool",
          "name": "",
          "type": "bool"
        }
      ],
      "stateMutability": "view",
      "type": "function"
    }
  ],
  "bytecode": "0x60806040523461002c5761001233610031565b5061001c336100af565b50604051610a1090816101508239f35b600080fd5b6001600160a01b031660008181527fad3228b676f7d3cd4284a5443f17f1962b36e491b30a40b2405849e597ba5fb5602052604081205490919060ff166100ab57818052816020526040822081835260205260408220600160ff198254161790553391600080516020610b608339815191528180a4600190565b5090565b6001600160a01b031660008181527f510543f66b780b4a25f237bbedb3a5e4b9d4388d359da42b5c128a095d4a8c5360205260408120549091907f2cb697566d4fae71a9e65e4dac853bf1e0e88a4957a11bb62814a78d165bb6bb9060ff1661014a57808352826020526040832082845260205260408320600160ff19825416179055600080516020610b60833981519152339380a4600190565b50509056fe6040608081526004908136101561001557600080fd5b600091823560e01c806301e64725146106ad57806301ffc9a714610658578063213681cd146105c5578063248a9ca31461059c5780632f2ff15d1461057357806336568abe1461052c57806361c992a3146104ee5780638b78f4a4146104b357806391d148541461046e578063a217fddf14610453578063c23f8790146101db578063d547741f1461019d578063d5c1a1e1146100e95763f838585f146100bb57600080fd5b346100e557816003193601126100e557916020923581526001835281602435912054149051908152f35b8280fd5b50346100e557816003193601126100e55761010261088d565b60243591821515809303610199578480528460205283852033865260205260ff84862054161561017c57506001600160a01b031680845260026020908152838520805460ff191660ff85161790559251918252917f82a8fb1e779ea45ad427cc612e47087f5386a567e49dce488185e40646fa48d591a280f35b6044908585519163e2517d3f60e01b835233908301526024820152fd5b8480fd5b5090346100e557806003193601126100e5576101d791356101d260016101c1610872565b9383875286602052862001546108a3565b610965565b5080f35b5091903461044f57606036600319011261044f578235906024356044359467ffffffffffffffff9586811161044b573660238201121561044b578082013596808811610447573660248984010111610447577f2cb697566d4fae71a9e65e4dac853bf1e0e88a4957a11bb62814a78d165bb6bb92838852602093888552868920338a52855260ff878a2054161561042a575085519061027982610739565b8582528482019142835289868c601f199d8e98838d519a601f840116016102a0908b61076b565b818a52602401838a013787010152878101948552888a52600192838752888b20915182555183820155600201935190815193841161041757506102e384546106ff565b601f81116103d1575b508499601f841160011461035557508291899a83927f8a90a22acae609c3edcefc4b774a693e3ba593db3d3b719793a875914d33ca239a9b9461034a575b50501b916000199060031b1c19161790555b82519182524290820152a280f35b01519250388061032a565b8392931699848a52858a20918a5b8c81106103bc5750837f8a90a22acae609c3edcefc4b774a693e3ba593db3d3b719793a875914d33ca239a9b9c106103a3575b505050811b01905561033c565b015160001960f88460031b161c19169055388080610396565b81830151845592850192918701918701610363565b848a52858a20601f850160051c81019187861061040d575b601f0160051c019083905b8281106104025750506102ec565b8b81550183906103f4565b90915081906103e9565b634e487b7160e01b8a5260419052602489fd5b6044925086519163e2517d3f60e01b835233908301526024820152fd5b8680fd5b8580fd5b5080fd5b50503461044f578160031936011261044f5751908152602090f35b50346100e557816003193601126100e5578160209360ff9261048e610872565b903582528186528282206001600160a01b039091168252855220549151911615158152f35b50503461044f578160031936011261044f57602090517f2cb697566d4fae71a9e65e4dac853bf1e0e88a4957a11bb62814a78d165bb6bb8152f35b50503461044f57602036600319011261044f5760209160ff9082906001600160a01b0361051961088d565b1681526002855220541690519015158152f35b5091903461044f578060031936011261044f57610547610872565b90336001600160a01b0383160361056457506101d7919235610965565b5163334bd91960e11b81528390fd5b5090346100e557806003193601126100e5576101d7913561059760016101c1610872565b6108e7565b50346100e55760203660031901126100e557816020936001923581528085522001549051908152f35b509134610655576020928360031936011261044f5761065191839160608380516105ee81610739565b84815284898201520152358152600185522082519261060c84610739565b8154845261062760026001840154938787019485520161078d565b91818501928352815195869581875251908601525190840152516060808401526080830190610832565b0390f35b80fd5b50346100e55760203660031901126100e557359063ffffffff60e01b82168092036100e55760209250637965db0b60e01b821491821561069c575b50519015158152f35b6301ffc9a760e01b14915038610693565b50346100e55760203660031901126100e5579181923581526001602052209061065182549160606106e560026001870154960161078d565b918051958695865260208601528401526060830190610832565b90600182811c9216801561072f575b602083101461071957565b634e487b7160e01b600052602260045260246000fd5b91607f169161070e565b6060810190811067ffffffffffffffff82111761075557604052565b634e487b7160e01b600052604160045260246000fd5b90601f8019910116810190811067ffffffffffffffff82111761075557604052565b906040519182600082546107a0816106ff565b9081845260209460019160018116908160001461081057506001146107d1575b5050506107cf9250038361076b565b565b600090815285812095935091905b8183106107f85750506107cf93508201013880806107c0565b855488840185015294850194879450918301916107df565b925050506107cf94925060ff191682840152151560051b8201013880806107c0565b919082519283825260005b84811061085e575050826000602080949584010152601f8019910116010190565b60208183018101518483018201520161083d565b602435906001600160a01b038216820361088857565b600080fd5b600435906001600160a01b038216820361088857565b80600052600060205260406000203360005260205260ff60406000205416156108c95750565b6044906040519063e2517d3f60e01b82523360048301526024820152fd5b9060009180835282602052604083209160018060a01b03169182845260205260ff6040842054161560001461096057808352826020526040832082845260205260408320600160ff198254161790557f2f8788117e7eff1d82e926ec794901d17c78024a50270940304540a733656f0d339380a4600190565b505090565b9060009180835282602052604083209160018060a01b03169182845260205260ff6040842054166000146109605780835282602052604083208284526020526040832060ff1981541690557ff6391f5c32d9c69d2a47ea670b442974b53935d1edc7fd64eb21e047a839171b339380a460019056fea2646970667358221220b778874a84c58237524693feb0f5c90711185151b2065a1996dfcd7b42c1ffc664736f6c634300081800332f8788117e7eff1d82e926ec794901d17c78024a50270940304540a733656f0d",
  "linkReferences": {},
  "deployedLinkReferences": {}
}