{
  "_format": "hh-sol-artifact-1",
  "contractName": "RouteTracker",
  "sourceName": "contracts/RouteTracker.sol",
  "abi": [
    {
      "anonymous": false,
      "inputs": [
        {
          "indexed": true,
          "internalType": "bytes32",
          "name": "batchId",
          "type": "bytes32"
        },
        {
          "indexed": false,
          "internalType": "string",
          "name": "location",
          "type": "string"
        }
      ],
      "name": "WaypointAdded",
      "type": "event"
    },
    {
      "inputs": [
        {
          "internalType": "bytes32",
          "name": "batchId",
          "type": "bytes32"
        },
        {
          "internalType": "string",
          "name": "location",
          "type": "string"
        }
      ],
      "name": "addWaypoint",
      "outputs": [],
      "stateMutability": "nonpayable",
      "type": "function"
    },
    {
      "inputs": [
        {
          "internalType": "bytes32",
          "name": "batchId",
          "type": "bytes32"
        }
      ],
      "name": "getRoute",
      "outputs": [
        {
          "internalType": "string[]",
          "name": "",
          "type": "string[]"
        },
        {
          "internalType": "uint256[]",
          "name": "",
          "type": "uint256[]"
        }
      ],
      "stateMutability": "view",
      "type": "function"
    },
    {
      "inputs": [
        {
          "internalType": "bytes32",
          "name": "",
          "type": "bytes32"
        }
      ],
      "name": "routes",
      "outputs": [
        {
          "internalType": "bytes32",
          "name": "batchId",
          "type": "bytes32"
        }
      ],
      "stateMutability": "view",
      "type": "function"
    }
  ],
  "bytecode": "0x60808060405234610016576105d0908161001c8239f35b600080fdfe608060408181526004908136101561001657600080fd5b600092833560e01c908163066e9481146104d757508063a0c74035146102805763e92076001461004557600080fd5b3461027c57602080600319360112610278578235845283815281842090600194600286840193019383549567ffffffffffffffff8711610265575092869286946005815196610099848260051b0189610562565b8088528388018095875284872087915b8383106101b8575050505050805190818389549182815201908199875284872090875b8181106101a557505050826100e2910383610562565b80519681880191885251809152606087019060608160051b890101949186905b82821061013e5750505050858303868301525180835291810195925b82811061012b5785870386f35b835187529581019592810192840161011e565b909192969495605f9a989a198a82030182528a878951805190818552895b82811061018e57505080840182018990529a9c9a9799601f909801601f19169092018201979682019493019101610102565b8181018401518682018501528f94508b930161015c565b82548452928601929189019189016100cc565b8987879d9b9d9a98999a5192899385546101d181610528565b8083529085811690811561024a575060011461020b575b506101f68185960382610562565b8152019201920191909a989a979695976100a9565b868c52838c208c96505b81871061022c5750509384018201936101f66101e8565b8096949295919396548386880101520192019390928f938c93610215565b60ff191685840152501515891b8101830194506101f66101e8565b634e487b7160e01b835260419052602482fd5b8380fd5b8280fd5b509190346104d357826003193601126104d35780359060249384359167ffffffffffffffff928381116104cf57366023820112156104cf57808201359384116104cf57368785830101116104cf578486526020918683526001908185892001918883546801000000000000000094858210156104bd57906103059184820181556104fa565b9190916104ac57506103178154610528565b601f8111610466575b50878b8b601f83116001146103f4578c926103e7575b505060001960038a901b1c191688831b1790555b8789528885526002868a2001918254938410156103d5575092610398837ffa66d834f96ca791888bfb28bca2a6ece74543c16be27e9d4d0db12fbbe8457c999a9b93899687960181556104fa565b81549060031b9042821b91600019901b1916179055855196858896875286015201848401378181018301879052601f01601f19168101030190a280f35b634e487b7160e01b8a52604190528989fd5b8701013590508b38610336565b90918c92601f198216908585528a8781872096925b848410610444575050505010610428575b50508188811b01905561034a565b86018c013560001960038b901b60f8161c19169055388061041a565b82949550868d98929394979801013581550194019201908b918f878c91610409565b818b52868b20601f8a0160051c810191888b106104a2575b601f0160051c019083905b828110610497575050610320565b8c8155018390610489565b909150819061047e565b634e487b7160e01b81528084528b90fd5b634e487b7160e01b8352604185528c83fd5b8580fd5b5080fd5b929050346102785760203660031901126102785735835260208381529220548152f35b80548210156105125760005260206000200190600090565b634e487b7160e01b600052603260045260246000fd5b90600182811c92168015610558575b602083101461054257565b634e487b7160e01b600052602260045260246000fd5b91607f1691610537565b90601f8019910116810190811067ffffffffffffffff82111761058457604052565b634e487b7160e01b600052604160045260246000fdfea264697066735822122008b230a3d57b59966bcc0af65513de5ed94c1453061fde5fc374e3ad2e2b1a9964736f6c63430008180033",
  "linkReferences": {},
  "deployedLinkReferences": {}
}