{
  "_format": "hh-sol-artifact-1",
  "contractName": "TimelockController",
  "sourceName": "contracts/Timelock.sol",
  "abi": [
    {
      "anonymous": false,
      "inputs": [
        {
          "indexed": true,
          "internalType": "bytes32",
          "name": "txId",
          "type": "bytes32"
        }
      ],
      "name": "TransactionExecuted",
      "type": "event"
    },
    {
      "anonymous": false,
      "inputs": [
        {
          "indexed": true,
          "internalType": "bytes32",
          "name": "txId",
          "type": "bytes32"
        },
        {
          "indexed": false,
          "internalType": "address",
          "name": "to",
          "type": "address"
        },
        {
          "indexed": false,
          "internalType": "uint256",
          "name": "value",
          "type": "uint256"
        },
        {
          "indexed": false,
          "internalType": "uint256",
          "name": "executionTime",
          "type": "uint256"
        }
      ],
      "name": "TransactionQueued",
      "type": "event"
    },
    {
      "inputs": [],
      "name": "DELAY",
      "outputs": [
        {
          "internalType": "uint256",
          "name": "",
          "type": "uint256"
        }
      ],
      "stateMutability": "view",
      "type": "function"
    },
    {
      "inputs": [
        {
          "internalType": "bytes32",
          "name": "_txId",
          "type": "bytes32"
        }
      ],
      "name": "executeTransaction",
      "outputs": [],
      "stateMutability": "nonpayable",
      "type": "function"
    },
    {
      "inputs": [
        {
          "internalType": "address",
          "name": "_to",
          "type": "address"
        },
        {
          "internalType": "uint256",
          "name": "_value",
          "type": "uint256"
        },
        {
          "internalType": "bytes",
          "name": "_data",
          "type": "bytes"
        }
      ],
      "name": "queueTransaction",
      "outputs": [
        {
          "internalType": "bytes32",
          "name": "",
          "type": "bytes32"
        }
      ],
      "stateMutability": "nonpayable",
      "type": "function"
    },
    {
      "inputs": [
        {
          "internalType": "uint256",
          "name": "",
          "type": "uint256"
        }
      ],
      "name": "transactionIds",
      "outputs": [
        {
          "internalType": "bytes32",
          "name": "",
          "type": "bytes32"
        }
      ],
      "stateMutability": "view",
      "type": "function"
    },
    {
      "inputs": [
        {
          "internalType": "bytes32",
          "name": "",
          "type": "bytes32"
        }
      ],
      "name": "transactions",
      "outputs": [
        {
          "internalType": "address",
          "name": "to",
          "type": "address"
        },
        {
          "internalType": "uint256",
          "name": "value",
          "type": "uint256"
        },
        {
          "internalType": "bytes",
          "name": "data",
          "type": "bytes"
        },
        {
          "internalType": "uint256",
          "name": "executionTime",
          "type": "uint256"
        },
        {
          "internalType": "bool",
          "name": "executed",
          "type": "bool"
        }
      ],
      "stateMutability": "view",
      "type": "function"
    }
  ],
  "bytecode": "0x6080806040523461001657610812908161001c8239f35b600080fdfe608080604052600436101561001357600080fd5b60003560e01c908163642f2eaf146105d05750806369b41170146105b257806380b3b09914610275578063c69ed5f2146100925763e36f8dc51461005657600080fd5b3461008d57602036600319011261008d5760043560015481101561008d5761007f60209161078f565b90546040519160031b1c8152f35b600080fd5b3461008d5760208060031936011261008d57600435908160005260008152604060002060038101544210610244576004810180549160ff831661020c57600191600160ff1980951617905560018060a01b038154169260026001830154920190604051936000928054610104816106f4565b93600182169182156101f55750506001146101ba575b505050916000939181859403925af13d156101b5573d61013981610773565b90610147604051928361072e565b81526000833d92013e5b1561017e57507f862d83c6c5af275e697bfd4e27c8323c196b44bdd011dd9aaab6db0ec9943dce600080a2005b6064906040519062461bcd60e51b82526004820152601060248201526f115e1958dd5d1a5bdb8819985a5b195960821b6044820152fd5b610151565b909192506000528560002090866000925b8484106101e35750505090830190508183600061011a565b805487850152920191879082016101cb565b16875250505080151502830190508183600061011a565b60405162461bcd60e51b815260048101859052601060248201526f105b1c9958591e48195e1958dd5d195960821b6044820152606490fd5b60405162461bcd60e51b81526004810183905260096024820152684e6f7420726561647960b81b6044820152606490fd5b3461008d57606036600319011261008d576001600160a01b03600435818116810361008d576044359067ffffffffffffffff80831161008d573660238401121561008d578260040135926102c884610773565b936102d6604051958661072e565b8085526020850191366024838301011161008d578160009260246020930185378601015260405161034c60748260208101946bffffffffffffffffffffffff198860601b1686526024356034830152610336895180926054850190610750565b810142605482015203605481018452018261072e565b519020926202a3004201421161059c576040519160a08301838110828211176104c157604052858416835260208301916024358352604084019081526202a3004201606085015260006080850152856000526000602052604060002092878551166bffffffffffffffffffffffff60a01b8554161784555160018401555180519182116104c1576103e060028401546106f4565b601f8111610555575b50602090601f83116001146104e2579180608094926004946000926104d7575b50508160011b916000199060031b1c19161760028201555b6060840151600382015501910151151560ff8019835416911617905560015492680100000000000000008410156104c157606083927f7519d8853a123928eedd53667daaff4654e17e3156685ee5d16f01e07cad01099261048a8760016020990160015561078f565b81549060031b9087821b91600019901b191617905560405191168152602435868201526202a30042016040820152a2604051908152f35b634e487b7160e01b600052604160045260246000fd5b015190508980610409565b90601f198316916002850160005260206000209260005b81811061053d57509260019285926004966080989610610524575b505050811b016002820155610421565b015160001960f88460031b161c19169055898080610514565b929360206001819287860151815501950193016104f9565b600284016000526020600020601f840160051c810160208510610595575b601f830160051c820181106105895750506103e9565b60008155600101610573565b5080610573565b634e487b7160e01b600052601160045260246000fd5b3461008d57600036600319011261008d5760206040516202a3008152f35b3461008d576020908160031936011261008d5760043560005260008252604060002060018060a01b038154169060019060018101549060028101946000958781549561061b876106f4565b92838552828501976001811690816000146106d6575060011461069b575b505050508061064f6106819260c098038261072e565b60ff600460038501549401541693604051988997885287015260a060408701525180948160a088015287870190610750565b606084015215156080830152601f01601f19168101030190f35b600090815282812092995092915b8284106106c35750505081019095019480878160c0610639565b80548585018b01529289019281016106a9565b60ff1916895250505090151560051b820101955080878160c0610639565b90600182811c92168015610724575b602083101461070e57565b634e487b7160e01b600052602260045260246000fd5b91607f1691610703565b90601f8019910116810190811067ffffffffffffffff8211176104c157604052565b60005b8381106107635750506000910152565b8181015183820152602001610753565b67ffffffffffffffff81116104c157601f01601f191660200190565b6001548110156107c65760016000527fb10e2d527612073b26eecdfd717e6a320cf44b4afac2b0732d9fcbe2b7fa0cf60190600090565b634e487b7160e01b600052603260045260246000fdfea264697066735822122090960728d72e5224000667931d719df8fe485232954073f6328091b39d224d6964736f6c63430008180033",
  "linkReferences": {},
  "deployedLinkReferences": {}
}