{
  "_format": "hh-sol-artifact-1",
  "contractName": "CertificationManager",
  "sourceName": "contracts/CertificationManager.sol",
  "abi": [
    {
      "anonymous": false,
      "inputs": [
        {
          "indexed": true,
          "internalType": "bytes32",
          "name": "batchId",
          "type": "bytes32"
        },
        {
          "indexed": false,
          "internalType": "string",
          "name": "certType",
          "type": "string"
        },
        {
          "indexed": false,
          "internalType": "uint256",
          "name": "issueDate",
          "type": "uint256"
        }
      ],
      "name": "CertificateIssued",
      "type": "event"
    },
    {
      "anonymous": false,
      "inputs": [
        {
          "indexed": true,
          "internalType": "bytes32",
          "name": "batchId",
          "type": "bytes32"
        },
        {
          "indexed": false,
          "internalType": "uint256",
          "name": "index",
          "type": "uint256"
        }
      ],
      "name": "CertificateRevoked",
      "type": "event"
    },
    {
      "inputs": [
        {
          "internalType": "bytes32",
          "name": "",
          "type": "bytes32"
        },
        {
          "internalType": "uint256",
          "name": "",
          "type": "uint256"
        }
      ],
      "name": "certificates",
      "outputs": [
        {
          "internalType": "bytes32",
          "name": "batchId",
          "type": "bytes32"
        },
        {
          "internalType": "string",
          "name": "certType",
          "type": "string"
        },
        {
          "internalType": "string",
          "name": "issuingAuthority",
          "type": "string"
        },
        {
          "internalType": "uint256",
          "name": "issueDate",
          "type": "uint256"
        },
        {
          "internalType": "uint256",
          "name": "expiryDate",
          "type": "uint256"
        },
        {
          "internalType": "bool",
          "name": "valid",
          "type": "bool"
        },
        {
          "internalType": "string",
          "name": "certificateURI",
          "type": "string"
        }
      ],
      "stateMutability": "view",
      "type": "function"
    },
    {
      "inputs": [
        {
          "internalType": "bytes32",
          "name": "batchId",
          "type": "bytes32"
        }
      ],
      "name": "getCertificates",
      "outputs": [
        {
          "components": [
            {
              "internalType": "bytes32",
              "name": "batchId",
              "type": "bytes32"
            },
            {
              "internalType": "string",
              "name": "certType",
              "type": "string"
            },
            {
              "internalType": "string",
              "name": "issuingAuthority",
              "type": "string"
            },
            {
              "internalType": "uint256",
              "name": "issueDate",
              "type": "uint256"
            },
            {
              "internalType": "uint256",
              "name": "expiryDate",
              "type": "uint256"
            },
            {
              "internalType": "bool",
              "name": "valid",
              "type": "bool"
            },
            {
              "internalType": "string",
              "name": "certificateURI",
              "type": "string"
            }
          ],
          "internalType": "struct CertificationManager.Certificate[]",
          "name": "",
          "type": "tuple[]"
        }
      ],
      "stateMutability": "view",
      "type": "function"
    },
    {
      "inputs": [
        {
          "internalType": "bytes32",
          "name": "batchId",
          "type": "bytes32"
        },
        {
          "internalType": "string",
          "name": "certType",
          "type": "string"
        },
        {
          "internalType": "string",
          "name": "issuingAuthority",
          "type": "string"
        },
        {
          "internalType": "uint256",
          "name": "validityPeriod",
          "type": "uint256"
        },
        {
          "internalType": "string",
          "name": "certificateURI",
          "type": "string"
        }
      ],
      "name": "issueCertificate",
      "outputs": [],
      "stateMutability": "nonpayable",
      "type": "function"
    },
    {
      "inputs": [
        {
          "internalType": "bytes32",
          "name": "batchId",
          "type": "bytes32"
        },
        {
          "internalType": "uint256",
          "name": "index",
          "type": "uint256"
        }
      ],
      "name": "revokeCertificate",
      "outputs": [],
      "stateMutability": "nonpayable",
      "type": "function"
    }
  ],
  "bytecode": "0x6080806040523461001657610b05908161001c8239f35b600080fdfe608080604052600436101561001357600080fd5b60e060003560e01c91826348292cbd1461071857505080636064efac146101b9578063a46f853a146101115763aa50f33a1461004e57600080fd5b3461010c5761005c36610923565b906000526000602052604060002090815481101561010c5761007d91610939565b50805461010861008f600184016109e3565b9261009c600282016109e3565b60038201549160048101546100e96100be600660ff60058601541694016109e3565b936100db604051998a998a5260e060208b015260e08a01906108b5565b9088820360408a01526108b5565b9360608701526080860152151560a085015283820360c08501526108b5565b0390f35b600080fd5b3461010c5761011f36610923565b8160005260006020528060406000205411156101845760207fba2ff7aceccd1742d00e386f05d483c89cbb4e8ebf02234c436df1ec854261fd9183600052600082526005610171826040600020610939565b5001805460ff19169055604051908152a2005b60405162461bcd60e51b815260206004820152600d60248201526c092dcecc2d8d2c840d2dcc8caf609b1b6044820152606490fd5b3461010c5760a036600319011261010c5760243567ffffffffffffffff811161010c576101ea9036906004016108f5565b60443567ffffffffffffffff811161010c5761020a9036906004016108f5565b60849391933567ffffffffffffffff811161010c5761022d9036906004016108f5565b60043560005260006020526040600020916064354201918242116107025761029c9261027e6040519961025f8b6109a5565b6004358b5261026f368b8b610a88565b9760208c019889523691610a88565b60408a01524260608a01526080890152600160a08901523691610a88565b60c0860152805468010000000000000000811015610546576102c391600182018155610939565b9190916106ec57845182555180519067ffffffffffffffff82116105465781906102f0600185015461096b565b601f8111610699575b50602090601f831160011461062c57600092610621575b50508160011b916000199060031b1c19161760018201555b604084015180519067ffffffffffffffff82116105465761034c600284015461096b565b601f81116105da575b50602090601f831160011461056757918060c0949260069460009261055c575b50508160011b916000199060031b1c19161760028201555b60608601516003820155608086015160048201556005810160a0870151151560ff801983541691161790550193015192835167ffffffffffffffff8111610546576103d8825461096b565b601f81116104fe575b506020601f82116001146104755781907fecca52b99dc6a7e306a31cb77837cd90068de385824118507a91e6fda90f53f1959660009261046a575b50508160011b916000199060031b1c19161790555b826040519160408352816040840152606083013760006060848301015242602082015260608160043594601f80199101168101030190a2005b01519050868061041c565b601f198216958360005260206000209660005b8181106104e65750917fecca52b99dc6a7e306a31cb77837cd90068de385824118507a91e6fda90f53f19697918460019594106104cd575b505050811b019055610431565b015160001960f88460031b161c191690558680806104c0565b83830151895560019098019760209384019301610488565b826000526020600020601f830160051c8101916020841061053c575b601f0160051c01905b81811061053057506103e1565b60008155600101610523565b909150819061051a565b634e487b7160e01b600052604160045260246000fd5b015190508880610375565b90601f198316916002850160005260206000209260005b8181106105c2575092600192859260069660c09896106105a9575b505050811b01600282015561038d565b015160001960f88460031b161c19169055888080610599565b9293602060018192878601518155019501930161057e565b600284016000526020600020601f840160051c81016020851061061a575b601f830160051c8201811061060e575050610355565b600081556001016105f8565b50806105f8565b015190508680610310565b600185016000908152602081209350601f198516905b8181106106815750908460019594939210610668575b505050811b016001820155610328565b015160001960f88460031b161c19169055868080610658565b92936020600181928786015181550195019301610642565b909150600184016000526020600020601f840160051c8101602085106106e5575b90849392915b601f830160051c820181106106d65750506102f9565b600081558594506001016106c0565b50806106ba565b634e487b7160e01b600052600060045260246000fd5b634e487b7160e01b600052601160045260246000fd5b3461010c576020908160031936011261010c5760043560005260008252604060002090815467ffffffffffffffff8111610546576005939193610760838360051b01866109c1565b81855260009384528284208386019491855b848410610838575050505050604051928184019082855251809152604084019160408260051b86010193926000965b8388106107ae5786860387f35b90919293948380610827600193603f198b82030187528951805182526107f46107e2858301518987860152898501906108b5565b604083015184820360408601526108b5565b91606080830151908201526080808301519082015260a08083015115159082015260c080920151918184039101526108b5565b9701930197019690939291936107a1565b60078660019260409a989a5161084d816109a5565b8654815261085c8588016109e3565b8382015261086c600288016109e3565b6040820152600387015460608201526004870154608082015260ff8688015416151560a082015261089f600688016109e3565b60c0820152815201930193019291969496610772565b919082519283825260005b8481106108e1575050826000602080949584010152601f8019910116010190565b6020818301810151848301820152016108c0565b9181601f8401121561010c5782359167ffffffffffffffff831161010c576020838186019501011161010c57565b604090600319011261010c576004359060243590565b8054821015610955576000526007602060002091020190600090565b634e487b7160e01b600052603260045260246000fd5b90600182811c9216801561099b575b602083101461098557565b634e487b7160e01b600052602260045260246000fd5b91607f169161097a565b60e0810190811067ffffffffffffffff82111761054657604052565b90601f8019910116810190811067ffffffffffffffff82111761054657604052565b906040519182600082546109f68161096b565b90818452602094600191600181169081600014610a665750600114610a27575b505050610a25925003836109c1565b565b600090815285812095935091905b818310610a4e575050610a259350820101388080610a16565b85548884018501529485019487945091830191610a35565b92505050610a2594925060ff191682840152151560051b820101388080610a16565b92919267ffffffffffffffff82116105465760405191610ab2601f8201601f1916602001846109c1565b82948184528183011161010c57828160209384600096013701015256fea264697066735822122073a6429e904e713f2c2e9307314cd55493d6850674dd4c991e2ad94394350caf64736f6c63430008180033",
  "linkReferences": {},
  "deployedLinkReferences": {}
}