{
  "_format": "hh-sol-artifact-1",
  "contractName": "HerbalProductNFT",
  "sourceName": "contracts/HerbalProductNFT.sol",
  "abi": [
    {
      "anonymous": false,
      "inputs": [
        {
          "indexed": true,
          "internalType": "uint256",
          "name": "productId",
          "type": "uint256"
        },
        {
          "indexed": true,
          "internalType": "address",
          "name": "owner",
          "type": "address"
        },
        {
          "indexed": false,
          "internalType": "string",
          "name": "name",
          "type": "string"
        }
      ],
      "name": "ProductMinted",
      "type": "event"
    },
    {
      "anonymous": false,
      "inputs": [
        {
          "indexed": true,
          "internalType": "uint256",
          "name": "productId",
          "type": "uint256"
        },
        {
          "indexed": true,
          "internalType": "address",
          "name": "from",
          "type": "address"
        },
        {
          "indexed": true,
          "internalType": "address",
          "name": "to",
          "type": "address"
        }
      ],
      "name": "ProductTransferred",
      "type": "event"
    },
    {
      "inputs": [
        {
          "internalType": "uint256",
          "name": "productId",
          "type": "uint256"
        }
      ],
      "name": "getProduct",
      "outputs": [
        {
          "components": [
            {
              "internalType": "string",
              "name": "name",
              "type": "string"
            },
            {
              "internalType": "string",
              "name": "description",
              "type": "string"
            },
            {
              "internalType": "string",
              "name": "origin",
              "type": "string"
            },
            {
              "internalType": "uint256",
              "name": "harvestDate",
              "type": "uint256"
            },
            {
              "internalType": "address",
              "name": "owner",
              "type": "address"
            },
            {
              "internalType": "bool",
              "name": "exists",
              "type": "bool"
            }
          ],
          "internalType": "struct HerbalProductNFT.ProductData",
          "name": "",
          "type": "tuple"
        }
      ],
      "stateMutability": "view",
      "type": "function"
    },
    {
      "inputs": [
        {
          "internalType": "string",
          "name": "name",
          "type": "string"
        },
        {
          "internalType": "string",
          "name": "description",
          "type": "string"
        },
        {
          "internalType": "string",
          "name": "origin",
          "type": "string"
        },
        {
          "internalType": "uint256",
          "name": "harvestDate",
          "type": "uint256"
        }
      ],
      "name": "mintProduct",
      "outputs": [
        {
          "internalType": "uint256",
          "name": "",
          "type": "uint256"
        }
      ],
      "stateMutability": "nonpayable",
      "type": "function"
    },
    {
      "inputs": [],
      "name": "nextProductId",
      "outputs": [
        {
          "internalType": "uint256",
          "name": "",
          "type": "uint256"
        }
      ],
      "stateMutability": "view",
      "type": "function"
    },
    {
      "inputs": [
        {
          "internalType": "uint256",
          "name": "",
          "type": "uint256"
        }
      ],
      "name": "products",
      "outputs": [
        {
          "internalType": "string",
          "name": "name",
          "type": "string"
        },
        {
          "internalType": "string",
          "name": "description",
          "type": "string"
        },
        {
          "internalType": "string",
          "name": "origin",
          "type": "string"
        },
        {
          "internalType": "uint256",
          "name": "harvestDate",
          "type": "uint256"
        },
        {
          "internalType": "address",
          "name": "owner",
          "type": "address"
        },
        {
          "internalType": "bool",
          "name": "exists",
          "type": "bool"
        }
      ],
      "stateMutability": "view",
      "type": "function"
    },
    {
      "inputs": [
        {
          "internalType": "uint256",
          "name": "productId",
          "type": "uint256"
        },
        {
          "internalType": "address",
          "name": "to",
          "type": "address"
        }
      ],
      "name": "transferProduct",
      "outputs": [],
      "stateMutability": "nonpayable",
      "type": "function"
    }
  ],
  "bytecode": "0x6080806040523461001657610ab1908161001c8239f35b600080fdfe608080604052600436101561001357600080fd5b60003560e01c9081634de91a631461088e5750806372af3f7d146103525780637acc0b20146102a6578063b9db15b4146101835763e43059e51461005657600080fd5b3461017e57604036600319011261017e576001600160a01b03602435818116916004359183900361017e5781600052600060205260ff60046040600020015460a01c1615610140578160005260006020528060046040600020015416330361010b578160005260006020526004604060002001805490846bffffffffffffffffffffffff60a01b831617905516907fcef86d37ba3dc1d682967cde44d8050488734bf53166725b220b4d2e515e9e93600080a4005b60405162461bcd60e51b815260206004820152600d60248201526c2737ba103a34329037bbb732b960991b6044820152606490fd5b60405162461bcd60e51b8152602060048201526016602482015275141c9bd91d58dd08191bd95cc81b9bdd08195e1a5cdd60521b6044820152606490fd5b600080fd5b3461017e5760208060031936011261017e57604051906101a282610911565b600060a0606093848152848482015284604082015282858201528260808201520152600435600052600081526040600020604051926101e084610911565b6101e98261094f565b84526101f76001830161094f565b8385019081526102096002840161094f565b916040860192835261028c600460038601549583890196875201549360018060a01b03936080890193858716855260ff60a08b019760a01c161515875261027c6102668a60c06040519d8e9d8e5251918d015260e08c01906109f4565b925192601f1993848c83030160408d01526109f4565b92519189840301908901526109f4565b93516080860152511660a084015251151560c08301520390f35b3461017e57602036600319011261017e57600435600052600060205261031360406000206102d38161094f565b9060ff6102e26001830161094f565b61032f6102f16002850161094f565b610321600460038701549601549360405198899860c08a5260c08a01906109f4565b9088820360208a01526109f4565b9086820360408801526109f4565b92606085015260018060a01b038116608085015260a01c16151560a08301520390f35b3461017e57608036600319011261017e5760043567ffffffffffffffff811161017e576103839036906004016108a9565b60243567ffffffffffffffff811161017e576103a39036906004016108a9565b60449291923567ffffffffffffffff811161017e576103c69036906004016108a9565b6001549491906000198614610878576104046104109360018801600155604051956103f087610911565b6103fb36898c610a34565b87523691610a34565b60208501523691610a34565b60408201526064356060820152336080820152600160a0820152826000526000602052604060002090805180519067ffffffffffffffff82116106d657819061045985546108d7565b601f8111610828575b50602090601f83116001146107c2576000926107b7575b50508160011b916000199060031b1c19161782555b602081015180519067ffffffffffffffff82116106d65781906104b460018601546108d7565b601f8111610764575b50602090601f83116001146106f7576000926106ec575b50508160011b916000199060031b1c19161760018301555b60408101519182519267ffffffffffffffff84116106d65761051160028301546108d7565b601f811161068f575b50916020969186938890601f87116001146105f8579580600493927fa77532f709cda752aef1f34d0041c486e2760e3798d55aaafc4f559ef32af54697986000926105ed575b50508160011b916000199060031b1c19161760028201555b60608301516003820155019060018060a01b0360808201511682549160a060ff811b910151151560a01b16916affffffffffffffffffffff60a81b16171790558360405191878352818884015260408301376000604085830101526040813395601f80199101168101030190a3604051908152f35b015190508b80610560565b959060028301600052896000209660005b601f19841681106106755750917fa77532f709cda752aef1f34d0041c486e2760e3798d55aaafc4f559ef32af54696976001926004959483601f1981161061065c575b505050811b016002820155610578565b015160001960f88460031b161c191690558b808061064c565b8282015189556001909801978a9750918b01918b01610609565b600283016000526020600020601f860160051c8101602087106106cf575b601f830160051c820181106106c357505061051a565b600081556001016106ad565b50806106ad565b634e487b7160e01b600052604160045260246000fd5b0151905087806104d4565b600186016000908152602081209350601f198516905b81811061074c5750908460019594939210610733575b505050811b0160018301556104ec565b015160001960f88460031b161c19169055878080610723565b9293602060018192878601518155019501930161070d565b909150600185016000526020600020601f840160051c8101602085106107b0575b90849392915b601f830160051c820181106107a15750506104bd565b6000815585945060010161078b565b5080610785565b015190508780610479565b6000868152602081209350601f198516905b81811061081057509084600195949392106107f7575b505050811b01825561048e565b015160001960f88460031b161c191690558780806107ea565b929360206001819287860151815501950193016107d4565b909150846000526020600020601f840160051c810160208510610871575b90849392915b601f830160051c82018110610862575050610462565b6000815585945060010161084c565b5080610846565b634e487b7160e01b600052601160045260246000fd5b3461017e57600036600319011261017e576020906001548152f35b9181601f8401121561017e5782359167ffffffffffffffff831161017e576020838186019501011161017e57565b90600182811c92168015610907575b60208310146108f157565b634e487b7160e01b600052602260045260246000fd5b91607f16916108e6565b60c0810190811067ffffffffffffffff8211176106d657604052565b90601f8019910116810190811067ffffffffffffffff8211176106d657604052565b90604051918260008254610962816108d7565b908184526020946001916001811690816000146109d25750600114610993575b5050506109919250038361092d565b565b600090815285812095935091905b8183106109ba5750506109919350820101388080610982565b855488840185015294850194879450918301916109a1565b9250505061099194925060ff191682840152151560051b820101388080610982565b919082519283825260005b848110610a20575050826000602080949584010152601f8019910116010190565b6020818301810151848301820152016109ff565b92919267ffffffffffffffff82116106d65760405191610a5e601f8201601f19166020018461092d565b82948184528183011161017e57828160209384600096013701015256fea26469706673582212208b1fdcac4b3960fd0addfd18636f18b45ff539efb7ca2d702eff21feb3b23e3b64736f6c63430008180033",
  "linkReferences": {},
  "deployedLinkReferences": {}
}