{
  "_format": "hh-sol-artifact-1",
  "contractName": "ComplianceContract",
  "sourceName": "contracts/Compliance.sol",
  "abi": [
    {
      "anonymous": false,
      "inputs": [
        {
          "indexed": true,
          "internalType": "uint256",
          "name": "batchId",
          "type": "uint256"
        },
        {
          "indexed": false,
          "internalType": "string",
          "name": "standard",
          "type": "string"
        },
        {
          "indexed": false,
          "internalType": "bool",
          "name": "passed",
          "type": "bool"
        }
      ],
      "name": "ComplianceAdded",
      "type": "event"
    },
    {
      "inputs": [
        {
          "internalType": "uint256",
          "name": "_batchId",
          "type": "uint256"
        },
        {
          "internalType": "string",
          "name": "_standard",
          "type": "string"
        },
        {
          "internalType": "bool",
          "name": "_passed",
          "type": "bool"
        },
        {
          "internalType": "string",
          "name": "_auditor",
          "type": "string"
        }
      ],
      "name": "addComplianceRecord",
      "outputs": [],
      "stateMutability": "nonpayable",
      "type": "function"
    },
    {
      "inputs": [
        {
          "internalType": "uint256",
          "name": "",
          "type": "uint256"
        },
        {
          "internalType": "uint256",
          "name": "",
          "type": "uint256"
        }
      ],
      "name": "complianceRecords",
      "outputs": [
        {
          "internalType": "uint256",
          "name": "batchTokenId",
          "type": "uint256"
        },
        {
          "internalType": "string",
          "name": "standard",
          "type": "string"
        },
        {
          "internalType": "bool",
          "name": "passed",
          "type": "bool"
        },
        {
          "internalType": "string",
          "name": "auditor",
          "type": "string"
        },
        {
          "internalType": "uint256",
          "name": "auditDate",
          "type": "uint256"
        },
        {
          "internalType": "string",
          "name": "certificateHash",
          "type": "string"
        }
      ],
      "stateMutability": "view",
      "type": "function"
    },
    {
      "inputs": [
        {
          "internalType": "uint256",
          "name": "_batchId",
          "type": "uint256"
        }
      ],
      "name": "getComplianceRecords",
      "outputs": [
        {
          "components": [
            {
              "internalType": "uint256",
              "name": "batchTokenId",
              "type": "uint256"
            },
            {
              "internalType": "string",
              "name": "standard",
              "type": "string"
            },
            {
              "internalType": "bool",
              "name": "passed",
              "type": "bool"
            },
            {
              "internalType": "string",
              "name": "auditor",
              "type": "string"
            },
            {
              "internalType": "uint256",
              "name": "auditDate",
              "type": "uint256"
            },
            {
              "internalType": "string",
              "name": "certificateHash",
              "type": "string"
            }
          ],
          "internalType": "struct ComplianceContract.ComplianceRecord[]",
          "name": "",
          "type": "tuple[]"
        }
      ],
      "stateMutability": "view",
      "type": "function"
    }
  ],
  "bytecode": "0x60808060405234610016576109ae908161001c8239f35b600080fdfe6080604052600436101561001257600080fd5b60003560e01c80634615352e146106d6578063b86a65a2146101e05763ed8828511461003d57600080fd5b346101db576020806003193601126101db5760043560005260008152604060002080549067ffffffffffffffff82116101c557829060059260405193610088848360051b018661081a565b81855260009283528383208486019391845b84841061015257604080518881528951818a01819052600092600582901b83018101918a918c9085015b8287106100d15785850386f35b909192938280610142600193603f198a8203018652885161012561010660c083518552868401519080888701528501906108e1565b60408301511515604085015260608084015190858303908601526108e1565b916080808301519082015260a080920151918184039101526108e1565b96019201960195929190926100c4565b60068760019260409a999a51610167816107fe565b8654815261017685880161083c565b8382015260ff600288015416151560408201526101956003880161083c565b6060820152600487015460808201526101af86880161083c565b60a082015281520193019301929196959661009a565b634e487b7160e01b600052604160045260246000fd5b600080fd5b346101db5760803660031901126101db5760243567ffffffffffffffff81116101db57610211903690600401610921565b60443580151581036101db5760643567ffffffffffffffff81116101db5761023d903690600401610921565b9160043560005260006020526040600020926040519361025c856107fe565b60043585526020850191838352841515604087015260608601524260808601526040516020810181811067ffffffffffffffff8211176101c5576040526000815260a08601528054680100000000000000008110156101c5576102c491600182018155610792565b9190916106c057845182555180519067ffffffffffffffff82116101c55781906102f160018501546107c4565b601f811161066d575b50602090601f83116001146105fb576000926105f0575b50508160011b916000199060031b1c19161760018201555b600281016040850151151560ff80198354169116179055606084015180519067ffffffffffffffff82116101c55761036460038401546107c4565b601f81116105a9575b50602090601f831160011461053657918060a0949260059460009261052b575b50508160011b916000199060031b1c19161760038201555b608086015160048201550193015192835167ffffffffffffffff81116101c5576103cf82546107c4565b601f81116104e3575b506020601f821160011461045a5781907f520f503f282709dfe5f0f44377819a0ef9364d49817d1bccc2be8b4bbdb94ba1959660009261044f575b50508160011b916000199060031b1c19161790555b61043d604051916040835260408301906108e1565b921515602082015280600435930390a2005b015190508680610413565b601f198216958360005260206000209660005b8181106104cb5750917f520f503f282709dfe5f0f44377819a0ef9364d49817d1bccc2be8b4bbdb94ba19697918460019594106104b2575b505050811b019055610428565b015160001960f88460031b161c191690558680806104a5565b8383015189556001909801976020938401930161046d565b826000526020600020601f830160051c81019160208410610521575b601f0160051c01905b81811061051557506103d8565b60008155600101610508565b90915081906104ff565b01519050888061038d565b90601f198316916003850160005260206000209260005b818110610591575092600192859260059660a0989610610578575b505050811b0160038201556103a5565b015160001960f88460031b161c19169055888080610568565b9293602060018192878601518155019501930161054d565b600384016000526020600020601f840160051c8101602085106105e9575b601f830160051c820181106105dd57505061036d565b600081556001016105c7565b50806105c7565b015190508680610311565b9250600184016000526020600020906000935b601f1984168510610652576001945083601f19811610610639575b505050811b016001820155610329565b015160001960f88460031b161c19169055868080610629565b8181015183556020948501946001909301929091019061060e565b909150600184016000526020600020601f840160051c8101602085106106b9575b90849392915b601f830160051c820181106106aa5750506102fa565b60008155859450600101610694565b508061068e565b634e487b7160e01b600052600060045260246000fd5b346101db5760403660031901126101db57602435600435600052600060205260406000209081548110156101db5761070d91610792565b50805461078e61071f6001840161083c565b9260ff60028201541661077b6107376003840161083c565b9161074960056004860154950161083c565b92610766604051988998895260c060208a015260c08901906108e1565b911515604088015286820360608801526108e1565b91608085015283820360a08501526108e1565b0390f35b80548210156107ae576000526006602060002091020190600090565b634e487b7160e01b600052603260045260246000fd5b90600182811c921680156107f4575b60208310146107de57565b634e487b7160e01b600052602260045260246000fd5b91607f16916107d3565b60c0810190811067ffffffffffffffff8211176101c557604052565b90601f8019910116810190811067ffffffffffffffff8211176101c557604052565b9060405191826000825461084f816107c4565b908184526020946001916001811690816000146108bf5750600114610880575b50505061087e9250038361081a565b565b600090815285812095935091905b8183106108a757505061087e935082010138808061086f565b8554888401850152948501948794509183019161088e565b9250505061087e94925060ff191682840152151560051b82010138808061086f565b919082519283825260005b84811061090d575050826000602080949584010152601f8019910116010190565b6020818301810151848301820152016108ec565b81601f820112156101db5780359067ffffffffffffffff82116101c55760405192610956601f8401601f19166020018561081a565b828452602083830101116101db5781600092602080930183860137830101529056fea26469706673582212202be4808fade6501174641300617d4e31d0f34c415807af6d78833d681dc343fd64736f6c63430008180033",
  "linkReferences": {},
  "deployedLinkReferences": {}
}