{
  "_format": "hh-sol-artifact-1",
  "contractName": "SoilQuality",
  "sourceName": "contracts/SoilQuality.sol",
  "abi": [
    {
      "anonymous": false,
      "inputs": [
        {
          "indexed": true,
          "internalType": "bytes32",
          "name": "batchId",
          "type": "bytes32"
        },
        {
          "indexed": false,
          "internalType": "uint256",
          "name": "ph",
          "type": "uint256"
        }
      ],
      "name": "SoilTested",
      "type": "event"
    },
    {
      "inputs": [
        {
          "internalType": "bytes32",
          "name": "batchId",
          "type": "bytes32"
        }
      ],
      "name": "getSoilTests",
      "outputs": [
        {
          "components": [
            {
              "internalType": "bytes32",
              "name": "batchId",
              "type": "bytes32"
            },
            {
              "internalType": "uint256",
              "name": "ph",
              "type": "uint256"
            },
            {
              "internalType": "uint256",
              "name": "nitrogen",
              "type": "uint256"
            },
            {
              "internalType": "uint256",
              "name": "phosphorus",
              "type": "uint256"
            },
            {
              "internalType": "uint256",
              "name": "potassium",
              "type": "uint256"
            },
            {
              "internalType": "uint256",
              "name": "timestamp",
              "type": "uint256"
            }
          ],
          "internalType": "struct SoilQuality.SoilTest[]",
          "name": "",
          "type": "tuple[]"
        }
      ],
      "stateMutability": "view",
      "type": "function"
    },
    {
      "inputs": [
        {
          "internalType": "bytes32",
          "name": "batchId",
          "type": "bytes32"
        },
        {
          "internalType": "uint256",
          "name": "ph",
          "type": "uint256"
        },
        {
          "internalType": "uint256",
          "name": "nitrogen",
          "type": "uint256"
        },
        {
          "internalType": "uint256",
          "name": "phosphorus",
          "type": "uint256"
        },
        {
          "internalType": "uint256",
          "name": "potassium",
          "type": "uint256"
        }
      ],
      "name": "recordSoilTest",
      "outputs": [],
      "stateMutability": "nonpayable",
      "type": "function"
    },
    {
      "inputs": [
        {
          "internalType": "bytes32",
          "name": "",
          "type": "bytes32"
        },
        {
          "internalType": "uint256",
          "name": "",
          "type": "uint256"
        }
      ],
      "name": "soilTests",
      "outputs": [
        {
          "internalType": "bytes32",
          "name": "batchId",
          "type": "bytes32"
        },
        {
          "internalType": "uint256",
          "name": "ph",
          "type": "uint256"
        },
        {
          "internalType": "uint256",
          "name": "nitrogen",
          "type": "uint256"
        },
        {
          "internalType": "uint256",
          "name": "phosphorus",
          "type": "uint256"
        },
        {
          "internalType": "uint256",
          "name": "potassium",
          "type": "uint256"
        },
        {
          "internalType": "uint256",
          "name": "timestamp",
          "type": "uint256"
        }
      ],
      "stateMutability": "view",
      "type": "function"
    }
  ],
  "bytecode": "0x60808060405234610016576103ba908161001c8239f35b600080fdfe60806040908082526004918236101561001757600080fd5b600091823560e01c908163b12aa47c146101be57508063c6807d2d146101415763d4695b921461004657600080fd5b3461013d5760a036600319011261013d57823590602435908284528360205280842061007061034e565b90848252602082018481528383016044358152606084019060643582526080850192608435845260a08601944286528054906801000000000000000082101561012a57906100c39160018201815561031c565b96909661011857518655516001860155516002850155516003840155518783015551600590910155519081527fd764cf29da840a272573c6ae83c50511efce314b4b76409e132e8123e64e2b3790602090a280f35b634e487b7160e01b8b528a8c5260248bfd5b634e487b7160e01b8c5260418d5260248cfd5b5080fd5b508290346101ba57806003193601126101ba576024359282358152806020528181209081548510156101b7575060c09361017a9161031c565b50805492600182015492600283015490600560038501549385015494015494815196875260208701528501526060840152608083015260a0820152f35b80fd5b8280fd5b83858492346101ba5760208060031936011261031857823584528381528484209283549067ffffffffffffffff8083116103055760059083821b603f01601f19168601908111868210176102f25788979594979291925282845286840191829686528786209186935b85851061029b57505050505050845193808501918186525180925285850193925b8281106102555785850386f35b83518051865280830151868401528781015188870152606080820151908701526080808201519087015260a0908101519086015260c09094019392810192600101610248565b60068a6001928d6102ae9d9a9b9d61034e565b90885482528589015484830152600289015490820152600388015460608201528588015460808201528688015460a082015281520194019401939298969598610227565b634e487b7160e01b885260418352602488fd5b634e487b7160e01b875260418252602487fd5b8380fd5b8054821015610338576000526006602060002091020190600090565b634e487b7160e01b600052603260045260246000fd5b6040519060c0820182811067ffffffffffffffff82111761036e57604052565b634e487b7160e01b600052604160045260246000fdfea264697066735822122046efb1994c967c8ce6bea35ae88cd4daa72d021d22adb82d7687dd96dc2ab01064736f6c63430008180033",
  "linkReferences": {},
  "deployedLinkReferences": {}
}