{
  "_format": "hh-sol-artifact-1",
  "contractName": "ColdChainManager",
  "sourceName": "contracts/ColdChain.sol",
  "abi": [
    {
      "inputs": [
        {
          "internalType": "uint256",
          "name": "_batchId",
          "type": "uint256"
        }
      ],
      "name": "getTemperatureLogs",
      "outputs": [
        {
          "components": [
            {
              "internalType": "uint256",
              "name": "batchId",
              "type": "uint256"
            },
            {
              "internalType": "int256",
              "name": "temperature",
              "type": "int256"
            },
            {
              "internalType": "uint256",
              "name": "timestamp",
              "type": "uint256"
            }
          ],
          "internalType": "struct ColdChainManager.TemperatureLog[]",
          "name": "",
          "type": "tuple[]"
        }
      ],
      "stateMutability": "view",
      "type": "function"
    },
    {
      "inputs": [
        {
          "internalType": "uint256",
          "name": "_batchId",
          "type": "uint256"
        },
        {
          "internalType": "int256",
          "name": "_temp",
          "type": "int256"
        }
      ],
      "name": "logTemperature",
      "outputs": [],
      "stateMutability": "nonpayable",
      "type": "function"
    },
    {
      "inputs": [
        {
          "internalType": "uint256",
          "name": "",
          "type": "uint256"
        },
        {
          "internalType": "uint256",
          "name": "",
          "type": "uint256"
        }
      ],
      "name": "temperatureLogs",
      "outputs": [
        {
          "internalType": "uint256",
          "name": "batchId",
          "type": "uint256"
        },
        {
          "internalType": "int256",
          "name": "temperature",
          "type": "int256"
        },
        {
          "internalType": "uint256",
          "name": "timestamp",
          "type": "uint256"
        }
      ],
      "stateMutability": "view",
      "type": "function"
    }
  ],
  "bytecode": "0x60808060405234610016576102e8908161001c8239f35b600080fdfe60806040908082526004918236101561001757600080fd5b600091823560e01c9081632dfe88431461013e575080633ffb632e146100e65763b9ff7eed1461004657600080fd5b346100e257806003193601126100e257823590818352826020528083209061006c61027c565b92835260208301906024358252830191428352805490680100000000000000008210156100cf57906100a39160018201815561024a565b9390936100bd575183555160018301555160029091015580f35b634e487b7160e01b8552848652602485fd5b634e487b7160e01b865260418752602486fd5b5080fd5b50903461013b578160031936011261013b57602435923581528060205281812090815484101561013b575060609261011d9161024a565b50805491600260018301549201549181519384526020840152820152f35b80fd5b83858492346102465760208060031936011261024257823584528381528484209283549067ffffffffffffffff9081831161022f57600583901b603f01601f191685019182118583101761022f57508695939295528082528482018094845285842084915b8383106101f65750505050845193808501918186525180925285850193925b8281106101cf5785850386f35b835180518652808301518684015287015187860152606090940193928101926001016101c2565b6003886001926102089a97989a61027c565b85548152848601548382015260028601548d820152815201920192019190969493966101a3565b634e487b7160e01b875260419052602486fd5b8380fd5b8280fd5b8054821015610266576000526003602060002091020190600090565b634e487b7160e01b600052603260045260246000fd5b604051906060820182811067ffffffffffffffff82111761029c57604052565b634e487b7160e01b600052604160045260246000fdfea2646970667358221220e5c1231d094ac5beb7dbc61f6f6df1e75883f2f7334b91f633358ff61315ed7164736f6c63430008180033",
  "linkReferences": {},
  "deployedLinkReferences": {}
}