{
  "_format": "hh-sol-artifact-1",
  "contractName": "LabTestNFT",
  "sourceName": "contracts/LabTestNFT.sol",
  "abi": [
    {
      "anonymous": false,
      "inputs": [
        {
          "indexed": true,
          "internalType": "address",
          "name": "lab",
          "type": "address"
        },
        {
          "indexed": false,
          "internalType": "bool",
          "name": "authorized",
          "type": "bool"
        }
      ],
      "name": "LabAuthorized",
      "type": "event"
    },
    {
      "anonymous": false,
      "inputs": [
        {
          "indexed": true,
          "internalType": "bytes32",
          "name": "batchId",
          "type": "bytes32"
        },
        {
          "indexed": true,
          "internalType": "address",
          "name": "lab",
          "type": "address"
        },
        {
          "indexed": false,
          "internalType": "uint256",
          "name": "qualityScore",
          "type": "uint256"
        }
      ],
      "name": "LabTestRecorded",
      "type": "event"
    },
    {
      "inputs": [
        {
          "internalType": "address",
          "name": "lab",
          "type": "address"
        },
        {
          "internalType": "bool",
          "name": "authorized",
          "type": "bool"
        }
      ],
      "name": "authorizeLab",
      "outputs": [],
      "stateMutability": "nonpayable",
      "type": "function"
    },
    {
      "inputs": [
        {
          "internalType": "address",
          "name": "",
          "type": "address"
        }
      ],
      "name": "authorizedLabs",
      "outputs": [
        {
          "internalType": "bool",
          "name": "",
          "type": "bool"
        }
      ],
      "stateMutability": "view",
      "type": "function"
    },
    {
      "inputs": [
        {
          "internalType": "bytes32",
          "name": "batchId",
          "type": "bytes32"
        }
      ],
      "name": "getLabTests",
      "outputs": [
        {
          "components": [
            {
              "internalType": "bytes32",
              "name": "batchId",
              "type": "bytes32"
            },
            {
              "internalType": "string",
              "name": "testType",
              "type": "string"
            },
            {
              "internalType": "string",
              "name": "result",
              "type": "string"
            },
            {
              "internalType": "uint256",
              "name": "qualityScore",
              "type": "uint256"
            },
            {
              "internalType": "address",
              "name": "labAddress",
              "type": "address"
            },
            {
              "internalType": "uint256",
              "name": "testDate",
              "type": "uint256"
            },
            {
              "internalType": "bool",
              "name": "passed",
              "type": "bool"
            }
          ],
          "internalType": "struct LabTestNFT.LabTest[]",
          "name": "",
          "type": "tuple[]"
        }
      ],
      "stateMutability": "view",
      "type": "function"
    },
    {
      "inputs": [
        {
          "internalType": "bytes32",
          "name": "batchId",
          "type": "bytes32"
        }
      ],
      "name": "getLatestTest",
      "outputs": [
        {
          "components": [
            {
              "internalType": "bytes32",
              "name": "batchId",
              "type": "bytes32"
            },
            {
              "internalType": "string",
              "name": "testType",
              "type": "string"
            },
            {
              "internalType": "string",
              "name": "result",
              "type": "string"
            },
            {
              "internalType": "uint256",
              "name": "qualityScore",
              "type": "uint256"
            },
            {
              "internalType": "address",
              "name": "labAddress",
              "type": "address"
            },
            {
              "internalType": "uint256",
              "name": "testDate",
              "type": "uint256"
            },
            {
              "internalType": "bool",
              "name": "passed",
              "type": "bool"
            }
          ],
          "internalType": "struct LabTestNFT.LabTest",
          "name": "",
          "type": "tuple"
        }
      ],
      "stateMutability": "view",
      "type": "function"
    },
    {
      "inputs": [
        {
          "internalType": "bytes32",
          "name": "",
          "type": "bytes32"
        },
        {
          "internalType": "uint256",
          "name": "",
          "type": "uint256"
        }
      ],
      "name": "labTests",
      "outputs": [
        {
          "internalType": "bytes32",
          "name": "batchId",
          "type": "bytes32"
        },
        {
          "internalType": "string",
          "name": "testType",
          "type": "string"
        },
        {
          "internalType": "string",
          "name": "result",
          "type": "string"
        },
        {
          "internalType": "uint256",
          "name": "qualityScore",
          "type": "uint256"
        },
        {
          "internalType": "address",
          "name": "labAddress",
          "type": "address"
        },
        {
          "internalType": "uint256",
          "name": "testDate",
          "type": "uint256"
        },
        {
          "internalType": "bool",
          "name": "passed",
          "type": "bool"
        }
      ],
      "stateMutability": "view",
      "type": "function"
    },
    {
      "inputs": [
        {
          "internalType": "bytes32",
          "name": "batchId",
          "type": "bytes32"
        },
        {
          "internalType": "string",
          "name": "testType",
          "type": "string"
        },
        {
          "internalType": "string",
          "name": "result",
          "type": "string"
        },
        {
          "internalType": "uint256",
          "name": "qualityScore",
          "type": "uint256"
        },
        {
          "internalType": "bool",
          "name": "passed",
          "type": "bool"
        }
      ],
      "name": "recordTest",
      "outputs": [],
      "stateMutability": "nonpayable",
      "type": "function"
    }
  ],
  "bytecode": "0x6080806040523461001657610bb2908161001c8239f35b600080fdfe608080604052600436101561001357600080fd5b60003560e01c908162c41008146107d7575080632f6ad2d314610798578063b3935c51146105d7578063d1aeaea91461051b578063ddf34f021461049b5763fe57d5371461006057600080fd5b346104965760a03660031901126104965760243567ffffffffffffffff811161049657610091903690600401610b07565b60443567ffffffffffffffff8111610496576100b1903690600401610b07565b9290608435908115158092036104965733600052600160205260ff604060002054161561046057610118906004356000526000602052610109604060002094604051966100fd88610a24565b60043588523691610b35565b95602086019687523691610b35565b604084015260643560608401523360808401524260a084015260c083015280546801000000000000000081101561037457610158916001820181556109ce565b92909261044a57815183555191825167ffffffffffffffff81116103745761018360018301546109ea565b601f8111610403575b506020601f8211600114610395578192939460009261038a575b50508160011b916000199060031b1c19161760018201555b604082015180519067ffffffffffffffff8211610374576101e260028401546109ea565b601f811161032d575b50602090601f83116001146102b757938260069360c093610278976000926102ac575b50508160011b916000199060031b1c19161760028501555b606081015160038501556004840160018060a01b036080830151166bffffffffffffffffffffffff60a01b82541617905560a081015160058501550151151591019060ff801983541691151516179055565b604051606435815233907f982301c2123fb16d72e74a1b147ddfdca36ce4d8f7359dbe4bdd520e5424398c602060043592a3005b01519050388061020e565b90601f198316916002850160005260206000209260005b81811061031557509360c093610278979360019383600698106102fc575b505050811b016002850155610226565b015160001960f88460031b161c191690553880806102ec565b929360206001819287860151815501950193016102ce565b600284016000526020600020601f840160051c81016020851061036d575b601f830160051c820181106103615750506101eb565b6000815560010161034b565b508061034b565b634e487b7160e01b600052604160045260246000fd5b0151905038806101a6565b6001830160005260206000209060005b601f19841681106103eb5750600193949583601f198116106103d2575b505050811b0160018201556101be565b015160001960f88460031b161c191690553880806103c2565b9091602060018192858a0151815501930191016103a5565b600183016000526020600020601f830160051c810160208410610443575b601f830160051c8201811061043757505061018c565b60008155600101610421565b5080610421565b634e487b7160e01b600052600060045260246000fd5b60405162461bcd60e51b815260206004820152600e60248201526d139bdd08185d5d1a1bdc9a5e995960921b6044820152606490fd5b600080fd5b34610496576040366003190112610496576104b46109b8565b6024359081151590818303610496577ff2d7018f1ed3c27b22606ecdcd343995d2e075f042e5d6a86f9131271a5b726d9161051260209260018060a01b031694856000526001845260406000209060ff801983541691151516179055565b604051908152a2005b34610496576040366003190112610496576024356004356000526000602052604060002090815481101561049657610552916109ce565b50805461056160018301610a62565b9161056e60028201610a62565b60038201549160018060a01b036004820154166105bc60ff6006600585015494015416936105ae604051988998895260e060208a015260e0890190610910565b908782036040890152610910565b936060860152608085015260a0840152151560c08301520390f35b346104965760208060031936011261049657604051906105f682610a24565b6000825260609160608282015260606040820152600060608201526080926000608083015260a091600060a0820152600060c08092015260043560005260008452604060002080549267ffffffffffffffff84116103745760405194919260059261066586851b890188610a40565b8587526000948552878520938888015b8787106107235789898051156106ea5780516000198101919082116106d45780518210156106be57829160051b010151906106ba604051928284938452830190610950565b0390f35b634e487b7160e01b600052603260045260246000fd5b634e487b7160e01b600052601160045260246000fd5b60405162461bcd60e51b8152600481018390526011602482015270139bc81d195cdd1cc81c9958dbdc991959607a1b6044820152606490fd5b60078a6001928d6040519061073782610a24565b8a548252610746868c01610a62565b8483015261075660028c01610a62565b604083015260038b01548a830152858060a01b0360048c01541690820152858a01548782015260ff60068b015416151588820152815201960196019594610675565b34610496576020366003190112610496576001600160a01b036107b96109b8565b166000526001602052602060ff604060002054166040519015158152f35b34610496576020908160031936011261049657600435600052600082526040600020805467ffffffffffffffff811161037457600593929361081e848360051b0186610a40565b81855260009283528383208486019391845b84841061089357604080518881528951818a01819052600092600582901b83018101918a918c9085015b8287106108675785850386f35b909192938280610883600193603f198a82030186528851610950565b960192019601959291909261085a565b60078760019260409a999a516108a881610a24565b865481526108b7858801610a62565b838201526108c760028801610a62565b604082015260038701546060820152848060a01b0360048801541660808201528587015460a082015260ff600688015416151560c0820152815201930193019291969596610830565b919082519283825260005b84811061093c575050826000602080949584010152601f8019910116010190565b60208183018101518483018201520161091b565b908151815260c080610986610974602086015160e0602087015260e0860190610910565b60408601518582036040870152610910565b606080860151908501526080808601516001600160a01b03169085015260a08086015190850152930151151591015290565b600435906001600160a01b038216820361049657565b80548210156106be576000526007602060002091020190600090565b90600182811c92168015610a1a575b6020831014610a0457565b634e487b7160e01b600052602260045260246000fd5b91607f16916109f9565b60e0810190811067ffffffffffffffff82111761037457604052565b90601f8019910116810190811067ffffffffffffffff82111761037457604052565b90604051918260008254610a75816109ea565b90818452602094600191600181169081600014610ae55750600114610aa6575b505050610aa492500383610a40565b565b600090815285812095935091905b818310610acd575050610aa49350820101388080610a95565b85548884018501529485019487945091830191610ab4565b92505050610aa494925060ff191682840152151560051b820101388080610a95565b9181601f840112156104965782359167ffffffffffffffff8311610496576020838186019501011161049657565b92919267ffffffffffffffff82116103745760405191610b5f601f8201601f191660200184610a40565b82948184528183011161049657828160209384600096013701015256fea26469706673582212203fffcb5cd39eebdbbff758579c3ac183abd5ec4cc46e6cd282ab211bc18bb76f64736f6c63430008180033",
  "linkReferences": {},
  "deployedLinkReferences": {}
}