{
  "_format": "hh-sol-artifact-1",
  "contractName": "InspectionManager",
  "sourceName": "contracts/InspectionManager.sol",
  "abi": [
    {
      "anonymous": false,
      "inputs": [
        {
          "indexed": true,
          "internalType": "bytes32",
          "name": "batchId",
          "type": "bytes32"
        },
        {
          "indexed": true,
          "internalType": "address",
          "name": "inspector",
          "type": "address"
        },
        {
          "indexed": false,
          "internalType": "bool",
          "name": "passed",
          "type": "bool"
        }
      ],
      "name": "InspectionRecorded",
      "type": "event"
    },
    {
      "inputs": [
        {
          "internalType": "bytes32",
          "name": "batchId",
          "type": "bytes32"
        }
      ],
      "name": "getInspections",
      "outputs": [
        {
          "components": [
            {
              "internalType": "bytes32",
              "name": "batchId",
              "type": "bytes32"
            },
            {
              "internalType": "address",
              "name": "inspector",
              "type": "address"
            },
            {
              "internalType": "string",
              "name": "result",
              "type": "string"
            },
            {
              "internalType": "bool",
              "name": "passed",
              "type": "bool"
            },
            {
              "internalType": "uint256",
              "name": "timestamp",
              "type": "uint256"
            }
          ],
          "internalType": "struct InspectionManager.Inspection[]",
          "name": "",
          "type": "tuple[]"
        }
      ],
      "stateMutability": "view",
      "type": "function"
    },
    {
      "inputs": [
        {
          "internalType": "bytes32",
          "name": "",
          "type": "bytes32"
        },
        {
          "internalType": "uint256",
          "name": "",
          "type": "uint256"
        }
      ],
      "name": "inspections",
      "outputs": [
        {
          "internalType": "bytes32",
          "name": "batchId",
          "type": "bytes32"
        },
        {
          "internalType": "address",
          "name": "inspector",
          "type": "address"
        },
        {
          "internalType": "string",
          "name": "result",
          "type": "string"
        },
        {
          "internalType": "bool",
          "name": "passed",
          "type": "bool"
        },
        {
          "internalType": "uint256",
          "name": "timestamp",
          "type": "uint256"
        }
      ],
      "stateMutability": "view",
      "type": "function"
    },
    {
      "inputs": [
        {
          "internalType": "bytes32",
          "name": "batchId",
          "type": "bytes32"
        },
        {
          "internalType": "string",
          "name": "result",
          "type": "string"
        },
        {
          "internalType": "bool",
          "name": "passed",
          "type": "bool"
        }
      ],
      "name": "recordInspection",
      "outputs": [],
      "stateMutability": "nonpayable",
      "type": "function"
    }
  ],
  "bytecode": "0x60808060405234610016576106d3908161001c8239f35b600080fdfe608080604052600436101561001357600080fd5b60003560e01c90816349eb2bcc1461024e575080636590d705146100da57639ef9e3191461004057600080fd5b346100d55760403660031901126100d557602435600435600052600060205260406000209081548110156100d5576100779161054e565b50805460018201546001600160a01b031691610095600282016105f8565b6100c4600460ff600385015416930154916040519586958652602086015260a0604086015260a085019061050e565b911515606084015260808301520390f35b600080fd5b346100d5576020806003193601126100d55760043560005260008152604060002080549067ffffffffffffffff821161023857829060059260405193610125848360051b01866105d6565b8185528385018093600052846000206000915b8483106101d657604080518881528951818a01819052600092600582901b83018101918a918c9085015b82871061016f5785850386f35b909192938280600192603f198982030185528751906101b060a083518352868060a01b0385850151168584015260408401519080604085015283019061050e565b916060808201511515908301526080809101519101529601920196019592919092610162565b838760019260409a999a516101ea816105ba565b85548152848060a01b03858701541683820152610209600287016105f8565b604082015260ff6003870154161515606082015260048601546080820152815201920192019190969596610138565b634e487b7160e01b600052604160045260246000fd5b346100d55760603660031901126100d557602480359167ffffffffffffffff8084116100d557366023850112156100d5578360040135928184116100d557368185870101116100d5576044359485151586036100d557600435600052600060205260406000206102bd856105ba565b600435855260006020808701973389528086604051966102e685601f19601f86011601896105d6565b828852018387013784010152604085019182528615156060860152426080860152805490680100000000000000008210156104f9579061032b9160018201815561054e565b9590956104e45784518655600186019060018060a01b039051166bffffffffffffffffffffffff60a01b825416179055519081519283116104d057506103746002850154610580565b601f8111610485575b50602090601f831160011461041057918060049492608094600092610405575b50508160011b916000199060031b1c19161760028501555b600384016060820151151560ff801983541691161790550151910155604051901515815233907fc4a849dacd11624329d6c4d2c0d09609f8341cc7a85901168a62d2d2038cf323602060043592a3005b01519050878061039d565b906002850160005260206000209160005b601f198516811061046d5750926004949260019260809583601f19811610610454575b505050811b0160028501556103b5565b015160001960f88460031b161c19169055878080610444565b91926020600181928685015181550194019201610421565b600285016000526020600020601f840160051c810191602085106104c6575b601f0160051c01905b8181106104ba575061037d565b600081556001016104ad565b90915081906104a4565b634e487b7160e01b60009081526041600452fd5b82634e487b7160e01b60005260006004526000fd5b83634e487b7160e01b60005260416004526000fd5b919082519283825260005b84811061053a575050826000602080949584010152601f8019910116010190565b602081830181015184830182015201610519565b805482101561056a576000526005602060002091020190600090565b634e487b7160e01b600052603260045260246000fd5b90600182811c921680156105b0575b602083101461059a57565b634e487b7160e01b600052602260045260246000fd5b91607f169161058f565b60a0810190811067ffffffffffffffff82111761023857604052565b90601f8019910116810190811067ffffffffffffffff82111761023857604052565b9060405191826000825461060b81610580565b9081845260209460019160018116908160001461067b575060011461063c575b50505061063a925003836105d6565b565b600090815285812095935091905b81831061066357505061063a935082010138808061062b565b8554888401850152948501948794509183019161064a565b9250505061063a94925060ff191682840152151560051b82010138808061062b56fea264697066735822122006b3eaf55a47fee29a7d5456fb14e9f1302210ce5388df82adefad1ec9e25b3d64736f6c63430008180033",
  "linkReferences": {},
  "deployedLinkReferences": {}
}