{
  "_format": "hh-sol-artifact-1",
  "contractName": "ImportManager",
  "sourceName": "contracts/ImportManager.sol",
  "abi": [
    {
      "anonymous": false,
      "inputs": [
        {
          "indexed": true,
          "internalType": "bytes32",
          "name": "batchId",
          "type": "bytes32"
        }
      ],
      "name": "CustomsCleared",
      "type": "event"
    },
    {
      "anonymous": false,
      "inputs": [
        {
          "indexed": true,
          "internalType": "bytes32",
          "name": "batchId",
          "type": "bytes32"
        },
        {
          "indexed": false,
          "internalType": "string",
          "name": "origin",
          "type": "string"
        }
      ],
      "name": "ImportRecorded",
      "type": "event"
    },
    {
      "inputs": [
        {
          "internalType": "bytes32",
          "name": "batchId",
          "type": "bytes32"
        }
      ],
      "name": "clearCustoms",
      "outputs": [],
      "stateMutability": "nonpayable",
      "type": "function"
    },
    {
      "inputs": [
        {
          "internalType": "bytes32",
          "name": "batchId",
          "type": "bytes32"
        }
      ],
      "name": "getImport",
      "outputs": [
        {
          "components": [
            {
              "internalType": "bytes32",
              "name": "batchId",
              "type": "bytes32"
            },
            {
              "internalType": "string",
              "name": "originCountry",
              "type": "string"
            },
            {
              "internalType": "string",
              "name": "importLicense",
              "type": "string"
            },
            {
              "internalType": "uint256",
              "name": "importDate",
              "type": "uint256"
            },
            {
              "internalType": "string",
              "name": "customsStatus",
              "type": "string"
            }
          ],
          "internalType": "struct ImportManager.ImportRecord",
          "name": "",
          "type": "tuple"
        }
      ],
      "stateMutability": "view",
      "type": "function"
    },
    {
      "inputs": [
        {
          "internalType": "bytes32",
          "name": "",
          "type": "bytes32"
        }
      ],
      "name": "imports",
      "outputs": [
        {
          "internalType": "bytes32",
          "name": "batchId",
          "type": "bytes32"
        },
        {
          "internalType": "string",
          "name": "originCountry",
          "type": "string"
        },
        {
          "internalType": "string",
          "name": "importLicense",
          "type": "string"
        },
        {
          "internalType": "uint256",
          "name": "importDate",
          "type": "uint256"
        },
        {
          "internalType": "string",
          "name": "customsStatus",
          "type": "string"
        }
      ],
      "stateMutability": "view",
      "type": "function"
    },
    {
      "inputs": [
        {
          "internalType": "bytes32",
          "name": "batchId",
          "type": "bytes32"
        },
        {
          "internalType": "string",
          "name": "origin",
          "type": "string"
        },
        {
          "internalType": "string",
          "name": "license",
          "type": "string"
        }
      ],
      "name": "recordImport",
      "outputs": [],
      "stateMutability": "nonpayable",
      "type": "function"
    }
  ],
  "bytecode": "0x608080604052346100165761090b908161001c8239f35b600080fdfe608080604052600436101561001357600080fd5b60003560e01c9081634d80add3146105b85750806369ec0a29146105235780636e26051d146100e25763d1cd0dff1461004b57600080fd5b346100dd5760203660031901126100dd57600435806000526000602052600460406000200161007a81546106e7565b601f81116100bb575b50600e6610db19585c995960ca1b0190557f584f29f684d31e1e1c6d29f9e4c1aec2d66c7d2fd015d8f5e7abee30eda03001600080a2005b6100d79082600052601f6020600020910160051c810190610879565b38610083565b600080fd5b346100dd5760603660031901126100dd5760243567ffffffffffffffff81116100dd57610113903690600401610804565b60443567ffffffffffffffff81116100dd57610133903690600401610804565b60049391933560005260006020526003604060002001546104ee5761017d6040519461015e86610721565b600435865261016e368686610832565b92602087019384523691610832565b60408501524260608501526040516040810181811067ffffffffffffffff8211176103e257604052600781526650656e64696e6760c81b602082015260808501526004356000526000602052604060002090845182555180519067ffffffffffffffff82116103e2578190610202826101f960018701546106e7565b60018701610890565b602090601f831160011461048157600092610476575b50508160011b916000199060031b1c19161760018201555b604084015180519067ffffffffffffffff82116103e2576102618261025860028601546106e7565b60028601610890565b602090601f8311600114610403579180608094926004946000926103f8575b50508160011b916000199060031b1c19161760028201555b606086015160038201550193015192835167ffffffffffffffff81116103e2576102cc816102c684546106e7565b84610890565b6020601f82116001146103595781907ff0984854b82c7e6418a436ad1f8ba6f2779baf86dd48037a9dc2db0d668c78e7959660009261034e575b50508160011b916000199060031b1c19161790555b826040519160208352816020840152604083013760006040848301015260408160043594601f80199101168101030190a2005b015190508680610306565b601f198216958360005260206000209660005b8181106103ca5750917ff0984854b82c7e6418a436ad1f8ba6f2779baf86dd48037a9dc2db0d668c78e79697918460019594106103b1575b505050811b01905561031b565b015160001960f88460031b161c191690558680806103a4565b8383015189556001909801976020938401930161036c565b634e487b7160e01b600052604160045260246000fd5b015190508880610280565b90601f198316916002850160005260206000209260005b81811061045e57509260019285926004966080989610610445575b505050811b016002820155610298565b015160001960f88460031b161c19169055888080610435565b9293602060018192878601518155019501930161041a565b015190508680610218565b600185016000908152602081209350601f198516905b8181106104d657509084600195949392106104bd575b505050811b016001820155610230565b015160001960f88460031b161c191690558680806104ad565b92936020600181928786015181550195019301610497565b60405162461bcd60e51b815260206004820152600d60248201526c496d706f72742065786973747360981b6044820152606490fd5b346100dd5760203660031901126100dd576004356000526000602052604060002080546105b46105556001840161075f565b926105626002820161075f565b6105a161057660046003850154940161075f565b91610593604051978897885260a0602089015260a08801906106a7565b9086820360408801526106a7565b91606085015283820360808501526106a7565b0390f35b346100dd57602090816003193601126100dd57806105d7608092610721565b60008152606091818385819401528260408201526000838201520152600435600052600082526105b460406000206040519261061284610721565b815484526106226001830161075f565b8585019081526106946106376002850161075f565b604087019081526106806106586004600388015497878b019889520161075f565b9360808901948552604051998a99818b5251908a01525160a060408a015260c08901906106a7565b9051601f19948589840301908901526106a7565b9251608086015251908483030160a08501525b919082519283825260005b8481106106d3575050826000602080949584010152601f8019910116010190565b6020818301810151848301820152016106b2565b90600182811c92168015610717575b602083101461070157565b634e487b7160e01b600052602260045260246000fd5b91607f16916106f6565b60a0810190811067ffffffffffffffff8211176103e257604052565b90601f8019910116810190811067ffffffffffffffff8211176103e257604052565b90604051918260008254610772816106e7565b908184526020946001916001811690816000146107e257506001146107a3575b5050506107a19250038361073d565b565b600090815285812095935091905b8183106107ca5750506107a19350820101388080610792565b855488840185015294850194879450918301916107b1565b925050506107a194925060ff191682840152151560051b820101388080610792565b9181601f840112156100dd5782359167ffffffffffffffff83116100dd57602083818601950101116100dd57565b92919267ffffffffffffffff82116103e2576040519161085c601f8201601f19166020018461073d565b8294818452818301116100dd578281602093846000960137010152565b818110610884575050565b60008155600101610879565b9190601f811161089f57505050565b6107a1926000526020600020906020601f840160051c830193106108cb575b601f0160051c0190610879565b90915081906108be56fea2646970667358221220a7a2933cc2c5144595726a4103a9f144b406608ead4cbca6df2362833ec3e1e564736f6c63430008180033",
  "linkReferences": {},
  "deployedLinkReferences": {}
}