{
  "_format": "hh-sol-artifact-1",
  "contractName": "WholesaleMarketplace",
  "sourceName": "contracts/WholesaleMarketplace.sol",
  "abi": [
    {
      "anonymous": false,
      "inputs": [
        {
          "indexed": true,
          "internalType": "bytes32",
          "name": "listingId",
          "type": "bytes32"
        },
        {
          "indexed": true,
          "internalType": "address",
          "name": "seller",
          "type": "address"
        }
      ],
      "name": "ListingCreated",
      "type": "event"
    },
    {
      "anonymous": false,
      "inputs": [
        {
          "indexed": true,
          "internalType": "bytes32",
          "name": "listingId",
          "type": "bytes32"
        },
        {
          "indexed": true,
          "internalType": "address",
          "name": "buyer",
          "type": "address"
        },
        {
          "indexed": false,
          "internalType": "uint256",
          "name": "quantity",
          "type": "uint256"
        }
      ],
      "name": "ListingSold",
      "type": "event"
    },
    {
      "inputs": [
        {
          "internalType": "bytes32",
          "name": "listingId",
          "type": "bytes32"
        },
        {
          "internalType": "bytes32",
          "name": "batchId",
          "type": "bytes32"
        },
        {
          "internalType": "uint256",
          "name": "pricePerUnit",
          "type": "uint256"
        },
        {
          "internalType": "uint256",
          "name": "quantity",
          "type": "uint256"
        }
      ],
      "name": "createListing",
      "outputs": [],
      "stateMutability": "nonpayable",
      "type": "function"
    },
    {
      "inputs": [
        {
          "internalType": "uint256",
          "name": "",
          "type": "uint256"
        }
      ],
      "name": "listingIds",
      "outputs": [
        {
          "internalType": "bytes32",
          "name": "",
          "type": "bytes32"
        }
      ],
      "stateMutability": "view",
      "type": "function"
    },
    {
      "inputs": [
        {
          "internalType": "bytes32",
          "name": "",
          "type": "bytes32"
        }
      ],
      "name": "listings",
      "outputs": [
        {
          "internalType": "bytes32",
          "name": "listingId",
          "type": "bytes32"
        },
        {
          "internalType": "address",
          "name": "seller",
          "type": "address"
        },
        {
          "internalType": "bytes32",
          "name": "batchId",
          "type": "bytes32"
        },
        {
          "internalType": "uint256",
          "name": "pricePerUnit",
          "type": "uint256"
        },
        {
          "internalType": "uint256",
          "name": "availableQuantity",
          "type": "uint256"
        },
        {
          "internalType": "bool",
          "name": "active",
          "type": "bool"
        }
      ],
      "stateMutability": "view",
      "type": "function"
    },
    {
      "inputs": [
        {
          "internalType": "bytes32",
          "name": "listingId",
          "type": "bytes32"
        },
        {
          "internalType": "uint256",
          "name": "quantity",
          "type": "uint256"
        }
      ],
      "name": "purchaseListing",
      "outputs": [],
      "stateMutability": "payable",
      "type": "function"
    }
  ],
  "bytecode": "0x6080806040523461001657610472908161001c8239f35b600080fdfe60406080815260048036101561001457600080fd5b600091823560e01c806352bea360146103b3578063558ae74014610226578063abbfc62a146100b75763c18b8db41461004c57600080fd5b346100b35760203660031901126100b3578060c09383358152806020522080549260018060a01b036001830154169260028301549060ff600560038601549486015495015416948151968752602087015285015260608401526080830152151560a0820152f35b8280fd5b50806003193601126100b35781359060249283359383865285602052828620600581019283549260ff8416156101f757818301908154938985106101bd5760030154898102908082048b14901517156101ab5734106101725788840392848411610161575050558514610154575b5050519182527f59abcff7ea44ceafd682f133ef6f870b4c2a3bef59558764f2ba22984df4a32360203393a380f35b60ff191690553880610125565b634e487b7160e01b8b526011905289fd5b82601460649260208a519362461bcd60e51b855284015282015273125b9cdd59999a58da595b9d081c185e5b595b9d60621b6044820152fd5b50634e487b7160e01b8a526011835289fd5b875162461bcd60e51b815260208186015260158184015274496e73756666696369656e74207175616e7469747960581b6044820152606490fd5b90600a606492602088519362461bcd60e51b8552840152820152694e6f742061637469766560b01b6044820152fd5b508290346103af5760803660031901126103af578235908183528260205260018060a01b0390600191808383872001541661037b5781519060c0820182811067ffffffffffffffff8211176103685790600592918452858252602082013381528483016024358152606084019160443583526080850193606435855260a08601978989528a8c528b6020528b20955186558886019151166bffffffffffffffffffffffff60a01b8254161790555160028401555160038301555187820155019051151560ff8019835416911617905580549068010000000000000000821015610355578181019055610317906103ef565b81549060031b9083821b91600019901b191617905533907ffa356436abd104a776cf9b83cf01a2b40da02178d93b112bc280c4893e9967588380a380f35b634e487b7160e01b845260418552602484fd5b634e487b7160e01b875260418852602487fd5b815162461bcd60e51b8152602081880152600e60248201526d4c697374696e672065786973747360901b6044820152606490fd5b5080fd5b5090346100b35760203660031901126100b35735916001548310156103ec57506103de6020926103ef565b91905490519160031b1c8152f35b80fd5b6001548110156104265760016000527fb10e2d527612073b26eecdfd717e6a320cf44b4afac2b0732d9fcbe2b7fa0cf60190600090565b634e487b7160e01b600052603260045260246000fdfea26469706673582212201379cdaf3d21bf5cb74a8c65b569a2aeedf72eb164c03751ba77bdd78a78d34064736f6c63430008180033",
  "linkReferences": {},
  "deployedLinkReferences": {}
}