{
  "_format": "hh-sol-artifact-1",
  "contractName": "DataStorage",
  "sourceName": "contracts/Storage.sol",
  "abi": [
    {
      "anonymous": false,
      "inputs": [
        {
          "indexed": true,
          "internalType": "bytes32",
          "name": "hash",
          "type": "bytes32"
        },
        {
          "indexed": true,
          "internalType": "address",
          "name": "creator",
          "type": "address"
        },
        {
          "indexed": false,
          "internalType": "uint256",
          "name": "timestamp",
          "type": "uint256"
        }
      ],
      "name": "DataStored",
      "type": "event"
    },
    {
      "inputs": [
        {
          "internalType": "bytes32",
          "name": "_hash",
          "type": "bytes32"
        }
      ],
      "name": "getData",
      "outputs": [
        {
          "components": [
            {
              "internalType": "bytes32",
              "name": "dataHash",
              "type": "bytes32"
            },
            {
              "internalType": "string",
              "name": "ipfsHash",
              "type": "string"
            },
            {
              "internalType": "address",
              "name": "creator",
              "type": "address"
            },
            {
              "internalType": "uint256",
              "name": "timestamp",
              "type": "uint256"
            },
            {
              "internalType": "bool",
              "name": "isEncrypted",
              "type": "bool"
            }
          ],
          "internalType": "struct DataStorage.DataRecord",
          "name": "",
          "type": "tuple"
        }
      ],
      "stateMutability": "view",
      "type": "function"
    },
    {
      "inputs": [
        {
          "internalType": "address",
          "name": "_user",
          "type": "address"
        }
      ],
      "name": "getUserData",
      "outputs": [
        {
          "internalType": "bytes32[]",
          "name": "",
          "type": "bytes32[]"
        }
      ],
      "stateMutability": "view",
      "type": "function"
    },
    {
      "inputs": [
        {
          "internalType": "bytes32",
          "name": "",
          "type": "bytes32"
        }
      ],
      "name": "records",
      "outputs": [
        {
          "internalType": "bytes32",
          "name": "dataHash",
          "type": "bytes32"
        },
        {
          "internalType": "string",
          "name": "ipfsHash",
          "type": "string"
        },
        {
          "internalType": "address",
          "name": "creator",
          "type": "address"
        },
        {
          "internalType": "uint256",
          "name": "timestamp",
          "type": "uint256"
        },
        {
          "internalType": "bool",
          "name": "isEncrypted",
          "type": "bool"
        }
      ],
      "stateMutability": "view",
      "type": "function"
    },
    {
      "inputs": [
        {
          "internalType": "bytes32",
          "name": "_hash",
          "type": "bytes32"
        },
        {
          "internalType": "string",
          "name": "_ipfsHash",
          "type": "string"
        },
        {
          "internalType": "bool",
          "name": "_encrypted",
          "type": "bool"
        }
      ],
      "name": "storeData",
      "outputs": [],
      "stateMutability": "nonpayable",
      "type": "function"
    },
    {
      "inputs": [
        {
          "internalType": "address",
          "name": "",
          "type": "address"
        },
        {
          "internalType": "uint256",
          "name": "",
          "type": "uint256"
        }
      ],
      "name": "userRecords",
      "outputs": [
        {
          "internalType": "bytes32",
          "name": "",
          "type": "bytes32"
        }
      ],
      "stateMutability": "view",
      "type": "function"
    }
  ],
  "bytecode": "0x6080806040523461001657610796908161001c8239f35b600080fdfe6080604052600436101561001257600080fd5b60003560e01c806301e647251461054157806354f6127f14610464578063cdc2bc6a1461015f578063e85d28b9146101075763ffc9896b1461005357600080fd5b3461010257602080600319360112610102576001600160a01b0361007561071c565b166000526001906001815260406000209160405191828185549182815201908195600052826000209060005b8181106100ef57505050836100b7910384610615565b60405192818401908285525180915260408401949160005b8281106100dc5785870386f35b83518752958101959281019284016100cf565b82548452928401929185019185016100a1565b600080fd5b346101025760403660031901126101025761012061071c565b6001600160a01b03166000908152600160205260409020805460243591908210156101025760209161015191610732565b90546040519160031b1c8152f35b346101025760603660031901126101025767ffffffffffffffff602435818111610102573660238201121561010257806004013582811161034c57604051916101b2601f8301601f191660200184610615565b818352366024838301011161010257816000926024602093018386013783010152604435918215158093036101025760043560005260006020526003604060002001546104295760405192610206846105f9565b600435845260208401928352336040850152426060850152608084015260043560005260006020526040600020918351835551805191821161034c5761024f60018401546105bf565b601f81116103e2575b50602090601f831160011461036d57918060809492600494600092610362575b50508160011b916000199060031b1c19161760018201555b6002810160018060a01b036040860151166bffffffffffffffffffffffff60a01b8254161790556060840151600382015501910151151560ff80198354169116179055336000526001602052604060002080546801000000000000000081101561034c5761030391600182018155610732565b81549060031b90600435821b91600019901b191617905560405142815233907ff4a53c8ab0643c31242d1baa180adf580c6fd8b89c6ac3726aedbf3ca5fb82cb602060043592a3005b634e487b7160e01b600052604160045260246000fd5b015190508680610278565b906001840160005260206000209160005b601f19851681106103ca5750926080949260019260049583601f198116106103b1575b505050811b016001820155610290565b015160001960f88460031b161c191690558680806103a1565b9192602060018192868501518155019401920161037e565b600184016000526020600020601f840160051c810160208510610422575b601f830160051c82018110610416575050610258565b60008155600101610400565b5080610400565b60405162461bcd60e51b81526020600482015260136024820152724461746120616c72656164792065786973747360681b6044820152606490fd5b34610102576020806003193601126101025760006080604051610486816105f9565b8281526060848201528260408201528260608201520152600435600052600081526040600020604051906104b9826105f9565b805482526104c960018201610637565b83830190815260018060a01b039182600282015416926040850193845261052760ff6004600385015494606089019586520154169360808701941515855260405197889781895251908801525160a0604088015260c08701906106dc565b935116606085015251608084015251151560a08301520390f35b346101025760203660031901126101025760043560005260006020526040600020805461057060018301610637565b9160018060a01b036002820154169060ff6004600383015492015416906105a9604051958695865260a0602087015260a08601906106dc565b9260408501526060840152151560808301520390f35b90600182811c921680156105ef575b60208310146105d957565b634e487b7160e01b600052602260045260246000fd5b91607f16916105ce565b60a0810190811067ffffffffffffffff82111761034c57604052565b90601f8019910116810190811067ffffffffffffffff82111761034c57604052565b9060405191826000825461064a816105bf565b908184526020946001916001811690816000146106ba575060011461067b575b50505061067992500383610615565b565b600090815285812095935091905b8183106106a2575050610679935082010138808061066a565b85548884018501529485019487945091830191610689565b9250505061067994925060ff191682840152151560051b82010138808061066a565b919082519283825260005b848110610708575050826000602080949584010152601f8019910116010190565b6020818301810151848301820152016106e7565b600435906001600160a01b038216820361010257565b805482101561074a5760005260206000200190600090565b634e487b7160e01b600052603260045260246000fdfea264697066735822122053852d9aab0d91fe8c303afefd2de15f0636af32cb5ee5381c8c12e0e33af81664736f6c63430008180033",
  "linkReferences": {},
  "deployedLinkReferences": {}
}