{
  "_format": "hh-sol-artifact-1",
  "contractName": "SubscriptionContract",
  "sourceName": "contracts/Subscription.sol",
  "abi": [
    {
      "anonymous": false,
      "inputs": [
        {
          "indexed": false,
          "internalType": "address",
          "name": "subscriber",
          "type": "address"
        }
      ],
      "name": "SubscriptionCancelled",
      "type": "event"
    },
    {
      "anonymous": false,
      "inputs": [
        {
          "indexed": false,
          "internalType": "address",
          "name": "subscriber",
          "type": "address"
        }
      ],
      "name": "SubscriptionRenewed",
      "type": "event"
    },
    {
      "anonymous": false,
      "inputs": [
        {
          "indexed": false,
          "internalType": "address",
          "name": "subscriber",
          "type": "address"
        },
        {
          "indexed": false,
          "internalType": "uint256",
          "name": "endTime",
          "type": "uint256"
        }
      ],
      "name": "SubscriptionStarted",
      "type": "event"
    },
    {
      "inputs": [],
      "name": "cancel",
      "outputs": [],
      "stateMutability": "nonpayable",
      "type": "function"
    },
    {
      "inputs": [
        {
          "internalType": "address",
          "name": "_subscriber",
          "type": "address"
        }
      ],
      "name": "isActive",
      "outputs": [
        {
          "internalType": "bool",
          "name": "",
          "type": "bool"
        }
      ],
      "stateMutability": "view",
      "type": "function"
    },
    {
      "inputs": [
        {
          "internalType": "uint256",
          "name": "_durationDays",
          "type": "uint256"
        }
      ],
      "name": "subscribe",
      "outputs": [],
      "stateMutability": "payable",
      "type": "function"
    },
    {
      "inputs": [
        {
          "internalType": "address",
          "name": "",
          "type": "address"
        }
      ],
      "name": "subscriptions",
      "outputs": [
        {
          "internalType": "address",
          "name": "subscriber",
          "type": "address"
        },
        {
          "internalType": "uint256",
          "name": "startTime",
          "type": "uint256"
        },
        {
          "internalType": "uint256",
          "name": "endTime",
          "type": "uint256"
        },
        {
          "internalType": "bool",
          "name": "active",
          "type": "bool"
        }
      ],
      "stateMutability": "view",
      "type": "function"
    }
  ],
  "bytecode": "0x60808060405234610016576102ff908161001c8239f35b600080fdfe604060808152600436101561001357600080fd5b600090813560e01c80630f574ba7146101875780639f8a13d714610107578063ea8a1af0146100b65763f046395a1461004b57600080fd5b346100b25760203660031901126100b2576001600160a01b0390600435828116908190036100ae57838291608095528060205220918254169160018101549160ff6003600284015493015416928151948552602085015283015215156060820152f35b8380fd5b5080fd5b50346100b257816003193601126100b25760207f71215198e3f86c24dc3af6d0d7f84d0095e5ee736aa56daf9927fae51935e95d9133845283825260038185200160ff19815416905551338152a180f35b50346100b25760203660031901126100b2576001600160a01b03600435818116908190036100ae57835260208381529282902060609291610146610293565b90825416815260018201548582015260ff60036002840154938486850152015416151593849101528261017d575b50519015158152f35b4210915038610174565b5060203660031901126100b2576201518060043581810291811591830414171561025c579061024d826101db7f3569431152110722ac0db636dd27ae1423bce34e35a19c281a7b4fcbb280ceb59442610270565b60036101e5610293565b3381526020810192428452868201908152606082019360018552338a5289602052878a209260018060a01b039051166bffffffffffffffffffffffff60a01b845416178355516001830155516002820155019051151560ff8019835416911617905542610270565b8151903382526020820152a180f35b634e487b7160e01b83526011600452602483fd5b9190820180921161027d57565b634e487b7160e01b600052601160045260246000fd5b604051906080820182811067ffffffffffffffff8211176102b357604052565b634e487b7160e01b600052604160045260246000fdfea2646970667358221220ca96ec5807e6b646fc57b4fe306e719bb3d52860def9fe3e5de68fec8be9d43b64736f6c63430008180033",
  "linkReferences": {},
  "deployedLinkReferences": {}
}