{
  "_format": "hh-sol-artifact-1",
  "contractName": "KYCContract",
  "sourceName": "contracts/KYCContract.sol",
  "abi": [
    {
      "anonymous": false,
      "inputs": [
        {
          "indexed": true,
          "internalType": "address",
          "name": "user",
          "type": "address"
        }
      ],
      "name": "KYCApproved",
      "type": "event"
    },
    {
      "anonymous": false,
      "inputs": [
        {
          "indexed": true,
          "internalType": "address",
          "name": "user",
          "type": "address"
        }
      ],
      "name": "KYCRejected",
      "type": "event"
    },
    {
      "anonymous": false,
      "inputs": [
        {
          "indexed": true,
          "internalType": "address",
          "name": "user",
          "type": "address"
        }
      ],
      "name": "KYCSubmitted",
      "type": "event"
    },
    {
      "inputs": [
        {
          "internalType": "address",
          "name": "_user",
          "type": "address"
        }
      ],
      "name": "approveKYC",
      "outputs": [],
      "stateMutability": "nonpayable",
      "type": "function"
    },
    {
      "inputs": [
        {
          "internalType": "address",
          "name": "_user",
          "type": "address"
        }
      ],
      "name": "isApproved",
      "outputs": [
        {
          "internalType": "bool",
          "name": "",
          "type": "bool"
        }
      ],
      "stateMutability": "view",
      "type": "function"
    },
    {
      "inputs": [
        {
          "internalType": "address",
          "name": "",
          "type": "address"
        }
      ],
      "name": "kycData",
      "outputs": [
        {
          "internalType": "address",
          "name": "user",
          "type": "address"
        },
        {
          "internalType": "string",
          "name": "fullName",
          "type": "string"
        },
        {
          "internalType": "string",
          "name": "country",
          "type": "string"
        },
        {
          "internalType": "uint256",
          "name": "verifiedAt",
          "type": "uint256"
        },
        {
          "internalType": "bool",
          "name": "approved",
          "type": "bool"
        }
      ],
      "stateMutability": "view",
      "type": "function"
    },
    {
      "inputs": [
        {
          "internalType": "string",
          "name": "_name",
          "type": "string"
        },
        {
          "internalType": "string",
          "name": "_country",
          "type": "string"
        }
      ],
      "name": "submitKYC",
      "outputs": [],
      "stateMutability": "nonpayable",
      "type": "function"
    }
  ],
  "bytecode": "0x60808060405234610016576106c4908161001c8239f35b600080fdfe604060808152600436101561001357600080fd5b60003560e01c8063076f3565146104595780630c670595146101035780630e27324d146100935763673448dd1461004957600080fd5b3461008e57602036600319011261008e576004356001600160a01b038116919082900361008e576020916000526000825260ff60048260002001541690519015158152f35b600080fd5b503461008e57602036600319011261008e576004356001600160a01b038116919082900361008e5781600052600060205260002060048101600160ff198254161790556003429101557f333bb19eeef0621b32888db778cc7a481a89fc1d59adb2cecb59b40ef048941e600080a2005b503461008e578060031936011261008e5760043567ffffffffffffffff811161008e57610134903690600401610637565b60243567ffffffffffffffff811161008e57610154903690600401610637565b9180519260a0840184811067ffffffffffffffff82111761037757825233845260208401928352818401908152606084019160008352600060808601523360005260006020526000209260018060a01b038551166bffffffffffffffffffffffff60a01b85541617845551805167ffffffffffffffff811161037757806101de60018701546104f6565b92601f93848111610405575b506020908483116001146103985760009261038d575b50508160011b916000199060031b1c19161760018501555b6002840191519081519167ffffffffffffffff83116103775761023b84546104f6565b828111610332575b5060209183116001146102c35791806080969492600496946000926102b8575b50508160011b916000199060031b1c19161790555b51600382015501910151151560ff80198354169116179055337f50254a0dab3f208f414bf247012e8d8c90928d1a1b1699b1b62df2326bfb09ab600080a2005b015190503880610263565b90601f198316918460005260206000209260005b81811061031a57509260019285926004989660809a989610610301575b505050811b019055610278565b015160001960f88460031b161c191690553880806102f4565b929360206001819287860151815501950193016102d7565b8460005260206000208380860160051c8201926020871061036e575b0160051c01905b8181106103625750610243565b60008155600101610355565b9250819261034e565b634e487b7160e01b600052604160045260246000fd5b015190503880610200565b600188016000908152602081209350601f198516905b8181106103ed57509084600195949392106103d4575b505050811b016001850155610218565b015160001960f88460031b161c191690553880806103c4565b929360206001819287860151815501950193016103ae565b9091506001870160005260206000208480850160051c82019260208610610450575b9085949392910160051c01905b81811061044157506101ea565b60008155849350600101610434565b92508192610427565b503461008e57602036600319011261008e576001600160a01b036004358181169081900361008e57600052600060205281600020908154169061049e60018201610552565b926104e56104ae60028401610552565b9160ff6004600386015495015416926104d88251978897885260a0602089015260a08801906105f7565b91868303908701526105f7565b916060840152151560808301520390f35b90600182811c92168015610526575b602083101461051057565b634e487b7160e01b600052602260045260246000fd5b91607f1691610505565b90601f8019910116810190811067ffffffffffffffff82111761037757604052565b90604051918260008254610565816104f6565b908184526020946001916001811690816000146105d55750600114610596575b50505061059492500383610530565b565b600090815285812095935091905b8183106105bd5750506105949350820101388080610585565b855488840185015294850194879450918301916105a4565b9250505061059494925060ff191682840152151560051b820101388080610585565b919082519283825260005b848110610623575050826000602080949584010152601f8019910116010190565b602081830181015184830182015201610602565b81601f8201121561008e5780359067ffffffffffffffff8211610377576040519261066c601f8401601f191660200185610530565b8284526020838301011161008e5781600092602080930183860137830101529056fea2646970667358221220614c9fb4919143f44083fb0d93ccb42faa7af0647e135fd4fd6a2c9d218e117864736f6c63430008180033",
  "linkReferences": {},
  "deployedLinkReferences": {}
}