{
  "_format": "hh-sol-artifact-1",
  "contractName": "DeliveryProof",
  "sourceName": "contracts/DeliveryProof.sol",
  "abi": [
    {
      "anonymous": false,
      "inputs": [
        {
          "indexed": true,
          "internalType": "bytes32",
          "name": "batchId",
          "type": "bytes32"
        },
        {
          "indexed": true,
          "internalType": "address",
          "name": "recipient",
          "type": "address"
        }
      ],
      "name": "DeliveryConfirmed",
      "type": "event"
    },
    {
      "inputs": [
        {
          "internalType": "bytes32",
          "name": "batchId",
          "type": "bytes32"
        },
        {
          "internalType": "address",
          "name": "recipient",
          "type": "address"
        },
        {
          "internalType": "string",
          "name": "signature",
          "type": "string"
        },
        {
          "internalType": "string",
          "name": "location",
          "type": "string"
        }
      ],
      "name": "confirmDelivery",
      "outputs": [],
      "stateMutability": "nonpayable",
      "type": "function"
    },
    {
      "inputs": [
        {
          "internalType": "bytes32",
          "name": "",
          "type": "bytes32"
        }
      ],
      "name": "deliveries",
      "outputs": [
        {
          "internalType": "bytes32",
          "name": "batchId",
          "type": "bytes32"
        },
        {
          "internalType": "address",
          "name": "recipient",
          "type": "address"
        },
        {
          "internalType": "uint256",
          "name": "deliveryTime",
          "type": "uint256"
        },
        {
          "internalType": "string",
          "name": "signature",
          "type": "string"
        },
        {
          "internalType": "string",
          "name": "location",
          "type": "string"
        }
      ],
      "stateMutability": "view",
      "type": "function"
    },
    {
      "inputs": [
        {
          "internalType": "bytes32",
          "name": "batchId",
          "type": "bytes32"
        }
      ],
      "name": "getDelivery",
      "outputs": [
        {
          "components": [
            {
              "internalType": "bytes32",
              "name": "batchId",
              "type": "bytes32"
            },
            {
              "internalType": "address",
              "name": "recipient",
              "type": "address"
            },
            {
              "internalType": "uint256",
              "name": "deliveryTime",
              "type": "uint256"
            },
            {
              "internalType": "string",
              "name": "signature",
              "type": "string"
            },
            {
              "internalType": "string",
              "name": "location",
              "type": "string"
            }
          ],
          "internalType": "struct DeliveryProof.Delivery",
          "name": "",
          "type": "tuple"
        }
      ],
      "stateMutability": "view",
      "type": "function"
    }
  ],
  "bytecode": "0x608080604052346100165761071e908161001c8239f35b600080fdfe6080604090808252600436101561001557600080fd5b60003560e01c908163bbd0ec43146101b857508063e032a339146101335763edab743e1461004257600080fd5b3461012e576020908160031936011261012e576060608082516100648161057e565b60008152600085820152600084820152828082015201526004356000526000825261012a816000209161011781519361009c8561057e565b8054855260018101546001600160a01b039081168787019081526002830154858801908152909490916100e460046100d6600387016105bc565b9560608b01968752016105bc565b95608089019687528251998a99818b5251908a01525116908701525160608601525160a0608086015260c0850190610661565b9051838203601f190160a0850152610661565b0390f35b600080fd5b503461012e57602036600319011261012e576004356000526000602052806000209061012a8254916101aa60018060a01b036001860154169460028101546101896004610182600385016105bc565b93016105bc565b9380519788978852602088015286015260a0606086015260a0850190610661565b908382036080850152610661565b90503461012e57608036600319011261012e576001600160a01b039060243590828216820361012e5760443567ffffffffffffffff811161012e57610201903690600401610516565b6064959195359167ffffffffffffffff831161012e57610228610262933690600401610516565b93906102338661057e565b600435865261025360208701998989168b528488019542875236916106a1565b946060870195865236916106a1565b60808501526004356000526000602052600020958351875585600188019151166bffffffffffffffffffffffff60a01b8254161790555160028601555193845167ffffffffffffffff811161043a576102be6003830154610544565b95601f968781116104ce575b5060209087831160011461045b57918060809492600494600092610450575b50508160011b916000199060031b1c19161760038201555b0191015180519067ffffffffffffffff821161043a576103218354610544565b8681116103f5575b50602095821160011461038f57948192939495600092610384575b50508160011b916000199060031b1c19161790555b166004357ff46bccfdb06ecc81738bcfc5ee961cc50fe62e4a5060c050d8bf69bcd1d47731600080a3005b015190503880610344565b601f198216958360005260206000209160005b8881106103dd575083600195969798106103c4575b505050811b019055610359565b015160001960f88460031b161c191690553880806103b7565b919260206001819286850151815501940192016103a2565b8360005260206000208780850160051c82019260208610610431575b0160051c01905b8181106104255750610329565b60008155600101610418565b92508192610411565b634e487b7160e01b600052604160045260246000fd5b0151905038806102e9565b90601f198316916003850160005260206000209260005b8181106104b65750926001928592600496608098961061049d575b505050811b016003820155610301565b015160001960f88460031b161c1916905538808061048d565b92936020600181928786015181550195019301610472565b6003840160005260206000208880850160051c8201926020861061050d575b0160051c01905b81811061050157506102ca565b600081556001016104f4565b925081926104ed565b9181601f8401121561012e5782359167ffffffffffffffff831161012e576020838186019501011161012e57565b90600182811c92168015610574575b602083101461055e57565b634e487b7160e01b600052602260045260246000fd5b91607f1691610553565b60a0810190811067ffffffffffffffff82111761043a57604052565b90601f8019910116810190811067ffffffffffffffff82111761043a57604052565b906040519182600082546105cf81610544565b9081845260209460019160018116908160001461063f5750600114610600575b5050506105fe9250038361059a565b565b600090815285812095935091905b8183106106275750506105fe93508201013880806105ef565b8554888401850152948501948794509183019161060e565b925050506105fe94925060ff191682840152151560051b8201013880806105ef565b919082519283825260005b84811061068d575050826000602080949584010152601f8019910116010190565b60208183018101518483018201520161066c565b92919267ffffffffffffffff821161043a57604051916106cb601f8201601f19166020018461059a565b82948184528183011161012e57828160209384600096013701015256fea26469706673582212206181b67de855c42cafbd42e0b2eb09522df9a62dd73048658cf9e14bda5cd6e664736f6c63430008180033",
  "linkReferences": {},
  "deployedLinkReferences": {}
}