{
  "_format": "hh-sol-artifact-1",
  "contractName": "InventoryTracker",
  "sourceName": "contracts/InventoryTracker.sol",
  "abi": [
    {
      "anonymous": false,
      "inputs": [
        {
          "indexed": true,
          "internalType": "bytes32",
          "name": "batchId",
          "type": "bytes32"
        },
        {
          "indexed": true,
          "internalType": "address",
          "name": "from",
          "type": "address"
        },
        {
          "indexed": true,
          "internalType": "address",
          "name": "to",
          "type": "address"
        }
      ],
      "name": "InventoryTransferred",
      "type": "event"
    },
    {
      "anonymous": false,
      "inputs": [
        {
          "indexed": true,
          "internalType": "bytes32",
          "name": "batchId",
          "type": "bytes32"
        },
        {
          "indexed": false,
          "internalType": "uint256",
          "name": "quantity",
          "type": "uint256"
        },
        {
          "indexed": false,
          "internalType": "string",
          "name": "location",
          "type": "string"
        }
      ],
      "name": "InventoryUpdated",
      "type": "event"
    },
    {
      "inputs": [
        {
          "internalType": "bytes32",
          "name": "batchId",
          "type": "bytes32"
        },
        {
          "internalType": "uint256",
          "name": "quantity",
          "type": "uint256"
        },
        {
          "internalType": "string",
          "name": "location",
          "type": "string"
        }
      ],
      "name": "addInventory",
      "outputs": [],
      "stateMutability": "nonpayable",
      "type": "function"
    },
    {
      "inputs": [
        {
          "internalType": "bytes32",
          "name": "batchId",
          "type": "bytes32"
        }
      ],
      "name": "getInventory",
      "outputs": [
        {
          "components": [
            {
              "internalType": "bytes32",
              "name": "batchId",
              "type": "bytes32"
            },
            {
              "internalType": "uint256",
              "name": "quantity",
              "type": "uint256"
            },
            {
              "internalType": "string",
              "name": "location",
              "type": "string"
            },
            {
              "internalType": "uint256",
              "name": "lastUpdated",
              "type": "uint256"
            },
            {
              "internalType": "bool",
              "name": "active",
              "type": "bool"
            }
          ],
          "internalType": "struct InventoryTracker.InventoryItem",
          "name": "",
          "type": "tuple"
        }
      ],
      "stateMutability": "view",
      "type": "function"
    },
    {
      "inputs": [
        {
          "internalType": "bytes32",
          "name": "",
          "type": "bytes32"
        }
      ],
      "name": "inventory",
      "outputs": [
        {
          "internalType": "bytes32",
          "name": "batchId",
          "type": "bytes32"
        },
        {
          "internalType": "uint256",
          "name": "quantity",
          "type": "uint256"
        },
        {
          "internalType": "string",
          "name": "location",
          "type": "string"
        },
        {
          "internalType": "uint256",
          "name": "lastUpdated",
          "type": "uint256"
        },
        {
          "internalType": "bool",
          "name": "active",
          "type": "bool"
        }
      ],
      "stateMutability": "view",
      "type": "function"
    },
    {
      "inputs": [
        {
          "internalType": "uint256",
          "name": "",
          "type": "uint256"
        }
      ],
      "name": "inventoryIds",
      "outputs": [
        {
          "internalType": "bytes32",
          "name": "",
          "type": "bytes32"
        }
      ],
      "stateMutability": "view",
      "type": "function"
    },
    {
      "inputs": [
        {
          "internalType": "bytes32",
          "name": "batchId",
          "type": "bytes32"
        },
        {
          "internalType": "uint256",
          "name": "newQuantity",
          "type": "uint256"
        }
      ],
      "name": "updateQuantity",
      "outputs": [],
      "stateMutability": "nonpayable",
      "type": "function"
    }
  ],
  "bytecode": "0x60808060405234610016576107a7908161001c8239f35b600080fdfe608080604052600436101561001357600080fd5b60003560e01c908163168fb437146104fe575080632322c90a146104c7578063826aeb4e1461019f57806397bc8f6e146100df5763b88fa1c01461005657600080fd5b346100da5760203660031901126100da5760043560005260006020526040600020805460018201549160405161009a81610093816002860161069d565b038261074f565b6100c960ff6004600385015494015416916040519586958652602086015260a0604086015260a08501906105d6565b916060840152151560808301520390f35b600080fd5b346100da5760403660031901126100da576004356024358160005260006020526003604060002001541561016e577f09d606c2bdfaeace75e51b7df7f802011a1def7e2f7093a6d01bbd76a98c11fb90826000526000602052604060002090806001830155426003830155610169604051928392835260406020840152600260408401910161069d565b0390a2005b60405162461bcd60e51b8152602060048201526009602482015268139bdd08199bdd5b9960ba1b6044820152606490fd5b346100da5760603660031901126100da5760443567ffffffffffffffff81116100da57366023820112156100da5767ffffffffffffffff8160040135116100da573660248260040135830101116100da5760043560005260006020526003604060002001546104915760405161021481610733565b6004358152602435602082015260405161023c6020601f19601f86600401350116018261074f565b6004830135808252602484016020830137600060208460040135830101526040820190815242606083015260016080830152600435600052600060205260406000209082518255602083015160018301555180519067ffffffffffffffff82116103b4576102ad6002840154610663565b601f811161044a575b50602090601f83116001146103d5579180608094926004946000926103ca575b50508160011b916000199060031b1c19161760028201555b6060840151600382015501910151151560ff80198354169116179055600154680100000000000000008110156103b45780600161032e9201600155610616565b81549060031b90600435821b91600019901b19161790557f09d606c2bdfaeace75e51b7df7f802011a1def7e2f7093a6d01bbd76a98c11fb6040516024358152604060208201528260040135604082015282600401356024840160608301376000606084600401358301015260608160043594601f8019916004013501168101030190a2005b634e487b7160e01b600052604160045260246000fd5b0151905087806102d6565b906002840160005260206000209160005b601f19851681106104325750926080949260019260049583601f19811610610419575b505050811b0160028201556102ee565b015160001960f88460031b161c19169055878080610409565b919260206001819286850151815501940192016103e6565b600284016000526020600020601f840160051c81016020851061048a575b601f830160051c8201811061047e5750506102b6565b60008155600101610468565b5080610468565b60405162461bcd60e51b815260206004820152600e60248201526d416c72656164792065786973747360901b6044820152606490fd5b346100da5760203660031901126100da576004356001548110156100da576104f0602091610616565b90546040519160031b1c8152f35b346100da57602090816003193601126100da5760808161051f600093610733565b82815282848201526060604082015282606082015201526004356000526000815260406000206040519061055282610733565b8054825260018101548383019081526105c360405161057881610093816002880161069d565b6040850190815260ff6004600386015495606088019687520154169260808601931515845260405196879681885251908701525160408601525160a0606086015260c08501906105d6565b9151608084015251151560a08301520390f35b919082519283825260005b848110610602575050826000602080949584010152601f8019910116010190565b6020818301810151848301820152016105e1565b60015481101561064d5760016000527fb10e2d527612073b26eecdfd717e6a320cf44b4afac2b0732d9fcbe2b7fa0cf60190600090565b634e487b7160e01b600052603260045260246000fd5b90600182811c92168015610693575b602083101461067d57565b634e487b7160e01b600052602260045260246000fd5b91607f1691610672565b8054600093926106ac82610663565b9182825260209360019160018116908160001461071457506001146106d3575b5050505050565b90939495506000929192528360002092846000945b838610610700575050505001019038808080806106cc565b8054858701830152940193859082016106e8565b60ff19168685015250505090151560051b0101915038808080806106cc565b60a0810190811067ffffffffffffffff8211176103b457604052565b90601f8019910116810190811067ffffffffffffffff8211176103b45760405256fea26469706673582212207514ab7ed3beff685e27cf91e10d1e23ccd5e61e67997c00ce6654fad130a3d764736f6c63430008180033",
  "linkReferences": {},
  "deployedLinkReferences": {}
}