{
  "_format": "hh-sol-artifact-1",
  "contractName": "OracleConnector",
  "sourceName": "contracts/OracleConnector.sol",
  "abi": [
    {
      "anonymous": false,
      "inputs": [
        {
          "indexed": true,
          "internalType": "bytes32",
          "name": "requestId",
          "type": "bytes32"
        },
        {
          "indexed": false,
          "internalType": "int256",
          "name": "value",
          "type": "int256"
        }
      ],
      "name": "DataReceived",
      "type": "event"
    },
    {
      "anonymous": false,
      "inputs": [
        {
          "indexed": true,
          "internalType": "bytes32",
          "name": "requestId",
          "type": "bytes32"
        },
        {
          "indexed": false,
          "internalType": "string",
          "name": "dataType",
          "type": "string"
        }
      ],
      "name": "DataRequested",
      "type": "event"
    },
    {
      "inputs": [
        {
          "internalType": "bytes32",
          "name": "requestId",
          "type": "bytes32"
        },
        {
          "internalType": "int256",
          "name": "value",
          "type": "int256"
        }
      ],
      "name": "fulfillData",
      "outputs": [],
      "stateMutability": "nonpayable",
      "type": "function"
    },
    {
      "inputs": [
        {
          "internalType": "bytes32",
          "name": "requestId",
          "type": "bytes32"
        }
      ],
      "name": "getData",
      "outputs": [
        {
          "components": [
            {
              "internalType": "bytes32",
              "name": "requestId",
              "type": "bytes32"
            },
            {
              "internalType": "string",
              "name": "dataType",
              "type": "string"
            },
            {
              "internalType": "int256",
              "name": "value",
              "type": "int256"
            },
            {
              "internalType": "uint256",
              "name": "timestamp",
              "type": "uint256"
            },
            {
              "internalType": "bool",
              "name": "available",
              "type": "bool"
            }
          ],
          "internalType": "struct OracleConnector.OracleData",
          "name": "",
          "type": "tuple"
        }
      ],
      "stateMutability": "view",
      "type": "function"
    },
    {
      "inputs": [
        {
          "internalType": "bytes32",
          "name": "",
          "type": "bytes32"
        }
      ],
      "name": "oracleData",
      "outputs": [
        {
          "internalType": "bytes32",
          "name": "requestId",
          "type": "bytes32"
        },
        {
          "internalType": "string",
          "name": "dataType",
          "type": "string"
        },
        {
          "internalType": "int256",
          "name": "value",
          "type": "int256"
        },
        {
          "internalType": "uint256",
          "name": "timestamp",
          "type": "uint256"
        },
        {
          "internalType": "bool",
          "name": "available",
          "type": "bool"
        }
      ],
      "stateMutability": "view",
      "type": "function"
    },
    {
      "inputs": [
        {
          "internalType": "bytes32",
          "name": "requestId",
          "type": "bytes32"
        },
        {
          "internalType": "string",
          "name": "dataType",
          "type": "string"
        }
      ],
      "name": "requestData",
      "outputs": [],
      "stateMutability": "nonpayable",
      "type": "function"
    }
  ],
  "bytecode": "0x608080604052346100165761067e908161001c8239f35b600080fdfe608080604052600436101561001357600080fd5b60003560e01c90816354f6127f1461041a57508063c25eea35146103a4578063cc8d01d81461010d5763fb1564b81461004b57600080fd5b346101085760403660031901126101085760043560243581600052600060205260ff600460406000200154166100cf5760207f6d16e8684310d28a066e49d28ac86a9d15569b892619fad925e34b37751b1f849183600052600082526004604060002082600282015542600382015501600160ff19825416179055604051908152a2005b60405162461bcd60e51b8152602060048201526011602482015270105b1c9958591e48199d5b199a5b1b1959607a1b6044820152606490fd5b600080fd5b346101085760403660031901126101085760243567ffffffffffffffff811161010857366023820112156101085767ffffffffffffffff816004013511610108573660248260040135830101116101085760405161016a81610565565b600435815260405161018a6020601f19601f866004013501160182610581565b600483013580825260248401602083013760006020846004013583010152602082019081526000604083015260006060830152600060808301526004356000526000602052604060002090825182555180519067ffffffffffffffff821161038e576101f9600184015461052b565b601f8111610347575b50602090601f83116001146102d2579180608094926004946000926102c7575b50508160011b916000199060031b1c19161760018201555b604084015160028201556060840151600382015501910151151560ff801983541691161790557fc6cfefca4188ad9ed8664b77d6cafb7697b0e82ea1ad569c4d2b0f6a593d8043604051602081528260040135602082015282600401356024840160408301376000604084600401358301015260408160043594601f8019916004013501168101030190a2005b015190508780610222565b906001840160005260206000209160005b601f198516811061032f5750926080949260019260049583601f19811610610316575b505050811b01600182015561023a565b015160001960f88460031b161c19169055878080610306565b919260206001819286850151815501940192016102e3565b600184016000526020600020601f840160051c810160208510610387575b601f830160051c8201811061037b575050610202565b60008155600101610365565b5080610365565b634e487b7160e01b600052604160045260246000fd5b34610108576020366003190112610108576004356000526000602052604060002080546103d3600183016105a3565b9160028101549060ff600460038301549201541690610404604051958695865260a0602087015260a08601906104eb565b9260408501526060840152151560808301520390f35b3461010857602090816003193601126101085760808161043b600093610565565b82815260608482015282604082015282606082015201526004356000526000815260406000206040519061046e82610565565b8054825261047e600182016105a3565b838301908152600282015491604084019283526104d260ff6004600384015493606088019485520154169260808601931515845260405196879681885251908701525160a0604087015260c08601906104eb565b9251606085015251608084015251151560a08301520390f35b919082519283825260005b848110610517575050826000602080949584010152601f8019910116010190565b6020818301810151848301820152016104f6565b90600182811c9216801561055b575b602083101461054557565b634e487b7160e01b600052602260045260246000fd5b91607f169161053a565b60a0810190811067ffffffffffffffff82111761038e57604052565b90601f8019910116810190811067ffffffffffffffff82111761038e57604052565b906040519182600082546105b68161052b565b9081845260209460019160018116908160001461062657506001146105e7575b5050506105e592500383610581565b565b600090815285812095935091905b81831061060e5750506105e593508201013880806105d6565b855488840185015294850194879450918301916105f5565b925050506105e594925060ff191682840152151560051b8201013880806105d656fea26469706673582212207c6661cca9ae5d0f2469de85cf75bebb5b69528873b6606065b227874c8ee99064736f6c63430008180033",
  "linkReferences": {},
  "deployedLinkReferences": {}
}