{
  "_format": "hh-sol-artifact-1",
  "contractName": "RegionManager",
  "sourceName": "contracts/RegionManager.sol",
  "abi": [
    {
      "anonymous": false,
      "inputs": [
        {
          "indexed": false,
          "internalType": "uint256",
          "name": "id",
          "type": "uint256"
        },
        {
          "indexed": false,
          "internalType": "string",
          "name": "name",
          "type": "string"
        },
        {
          "indexed": false,
          "internalType": "string",
          "name": "country",
          "type": "string"
        }
      ],
      "name": "RegionCreated",
      "type": "event"
    },
    {
      "inputs": [
        {
          "internalType": "string",
          "name": "_name",
          "type": "string"
        },
        {
          "internalType": "string",
          "name": "_country",
          "type": "string"
        },
        {
          "internalType": "string",
          "name": "_climate",
          "type": "string"
        }
      ],
      "name": "createRegion",
      "outputs": [
        {
          "internalType": "uint256",
          "name": "",
          "type": "uint256"
        }
      ],
      "stateMutability": "nonpayable",
      "type": "function"
    },
    {
      "inputs": [
        {
          "internalType": "uint256",
          "name": "_id",
          "type": "uint256"
        }
      ],
      "name": "getRegion",
      "outputs": [
        {
          "components": [
            {
              "internalType": "string",
              "name": "name",
              "type": "string"
            },
            {
              "internalType": "string",
              "name": "country",
              "type": "string"
            },
            {
              "internalType": "string",
              "name": "climateZone",
              "type": "string"
            },
            {
              "internalType": "uint256",
              "name": "totalFarmers",
              "type": "uint256"
            }
          ],
          "internalType": "struct RegionManager.Region",
          "name": "",
          "type": "tuple"
        }
      ],
      "stateMutability": "view",
      "type": "function"
    },
    {
      "inputs": [],
      "name": "nextRegionId",
      "outputs": [
        {
          "internalType": "uint256",
          "name": "",
          "type": "uint256"
        }
      ],
      "stateMutability": "view",
      "type": "function"
    },
    {
      "inputs": [
        {
          "internalType": "uint256",
          "name": "",
          "type": "uint256"
        }
      ],
      "name": "regions",
      "outputs": [
        {
          "internalType": "string",
          "name": "name",
          "type": "string"
        },
        {
          "internalType": "string",
          "name": "country",
          "type": "string"
        },
        {
          "internalType": "string",
          "name": "climateZone",
          "type": "string"
        },
        {
          "internalType": "uint256",
          "name": "totalFarmers",
          "type": "uint256"
        }
      ],
      "stateMutability": "view",
      "type": "function"
    }
  ],
  "bytecode": "0x6080806040523461001a576001805561089590816100208239f35b600080fdfe6080604052600436101561001257600080fd5b60003560e01c8063132abfb61461061e578063244b25a41461014d57806340ba0e941461006b5763b937e1391461004857600080fd5b34610066576000366003190112610066576020600154604051908152f35b600080fd5b34610066576020806003193601126100665760405160809161008c826106e5565b60006060838180955281848201528160408201520152600435600052600081526101426040600020604051936100c1856106e5565b6100ca82610723565b85526100d860018301610723565b9084860191825261013261011c60036100f360028701610723565b9560408a01968752015496838901978852604051998a99828b5251918a015260a08901906107c8565b925192601f1993848983030160408a01526107c8565b92519186840301908601526107c8565b905160808301520390f35b346100665760603660031901126100665760043567ffffffffffffffff81116100665761017e903690600401610808565b60243567ffffffffffffffff81116100665761019e903690600401610808565b60443567ffffffffffffffff8111610066576101be903690600401610808565b916001549160001983146106085760018301600155604051936101e0856106e5565b8285528160208601526040850152600060608501528260005260006020526040600020845180519067ffffffffffffffff821161046657819061022384546106ab565b601f81116105b8575b50602090601f831160011461055257600092610547575b50508160011b916000199060031b1c19161781555b602085015180519067ffffffffffffffff821161046657819061027e60018501546106ab565b601f81116104f4575b50602090601f83116001146104875760009261047c575b50508160011b916000199060031b1c19161760018201555b6002810194604081015195865167ffffffffffffffff8111610466576102dc82546106ab565b97601f891161041e575b602098508890601f831160011461038957610373946103659794847f6012e14a4c4012f22f6ddbedd717fd342085dd640eaa08aa4b86813d0b6f3b539a989560039560609560009261037e575b50508160011b9160001990871b1c19161790555b015191015560405193849387855260608986015260608501906107c8565b9083820360408501526107c8565b0390a1604051908152f35b015190508e80610333565b90601f19831691846000528a6000209260005b8181106104075750946001856003956060956103739a957f6012e14a4c4012f22f6ddbedd717fd342085dd640eaa08aa4b86813d0b6f3b539e9c996103659e9b106103ef575b505050811b019055610347565b015160001983891b60f8161c191690558e80806103e2565b92938c60018192878601518155019501930161039c565b826000526020600020601f830160051c8101996020841061045c575b601f0160051c01985b89811061045057506102e6565b60008155600101610443565b909950899061043a565b634e487b7160e01b600052604160045260246000fd5b01519050878061029e565b600185016000908152602081209350601f198516905b8181106104dc57509084600195949392106104c3575b505050811b0160018201556102b6565b015160001960f88460031b161c191690558780806104b3565b9293602060018192878601518155019501930161049d565b909150600184016000526020600020601f840160051c810160208510610540575b90849392915b601f830160051c82018110610531575050610287565b6000815585945060010161051b565b5080610515565b015190508780610243565b6000858152602081209350601f198516905b8181106105a05750908460019594939210610587575b505050811b018155610258565b015160001960f88460031b161c1916905587808061057a565b92936020600181928786015181550195019301610564565b909150836000526020600020601f840160051c810160208510610601575b90849392915b601f830160051c820181106105f257505061022c565b600081558594506001016105dc565b50806105d6565b634e487b7160e01b600052601160045260246000fd5b34610066576020366003190112610066576004356000526000602052610685604060002061064b81610723565b906106a161065b60018301610723565b91610693600361066d60028401610723565b920154936040519687966080885260808801906107c8565b9086820360208801526107c8565b9084820360408601526107c8565b9060608301520390f35b90600182811c921680156106db575b60208310146106c557565b634e487b7160e01b600052602260045260246000fd5b91607f16916106ba565b6080810190811067ffffffffffffffff82111761046657604052565b90601f8019910116810190811067ffffffffffffffff82111761046657604052565b90604051918260008254610736816106ab565b908184526020946001916001811690816000146107a65750600114610767575b50505061076592500383610701565b565b600090815285812095935091905b81831061078e5750506107659350820101388080610756565b85548884018501529485019487945091830191610775565b9250505061076594925060ff191682840152151560051b820101388080610756565b919082519283825260005b8481106107f4575050826000602080949584010152601f8019910116010190565b6020818301810151848301820152016107d3565b81601f820112156100665780359067ffffffffffffffff8211610466576040519261083d601f8401601f191660200185610701565b828452602083830101116100665781600092602080930183860137830101529056fea2646970667358221220e12bd7df797a3602bf85189c4c6bc1949fe4bb4ee91526e6e6e074f8d6ea2a6464736f6c63430008180033",
  "linkReferences": {},
  "deployedLinkReferences": {}
}