{
  "_format": "hh-sol-artifact-1",
  "contractName": "FarmerRegistry",
  "sourceName": "contracts/FarmerRegistry.sol",
  "abi": [
    {
      "inputs": [
        {
          "internalType": "uint256",
          "name": "",
          "type": "uint256"
        }
      ],
      "name": "farmerAddresses",
      "outputs": [
        {
          "internalType": "address",
          "name": "",
          "type": "address"
        }
      ],
      "stateMutability": "view",
      "type": "function"
    },
    {
      "inputs": [
        {
          "internalType": "address",
          "name": "",
          "type": "address"
        }
      ],
      "name": "farmers",
      "outputs": [
        {
          "internalType": "string",
          "name": "name",
          "type": "string"
        },
        {
          "internalType": "string",
          "name": "location",
          "type": "string"
        },
        {
          "internalType": "uint256",
          "name": "registeredAt",
          "type": "uint256"
        },
        {
          "internalType": "bool",
          "name": "verified",
          "type": "bool"
        }
      ],
      "stateMutability": "view",
      "type": "function"
    },
    {
      "inputs": [],
      "name": "getFarmerCount",
      "outputs": [
        {
          "internalType": "uint256",
          "name": "",
          "type": "uint256"
        }
      ],
      "stateMutability": "view",
      "type": "function"
    },
    {
      "inputs": [
        {
          "internalType": "string",
          "name": "_name",
          "type": "string"
        },
        {
          "internalType": "string",
          "name": "_location",
          "type": "string"
        }
      ],
      "name": "register",
      "outputs": [],
      "stateMutability": "nonpayable",
      "type": "function"
    },
    {
      "inputs": [
        {
          "internalType": "address",
          "name": "_farmer",
          "type": "address"
        }
      ],
      "name": "verify",
      "outputs": [],
      "stateMutability": "nonpayable",
      "type": "function"
    }
  ],
  "bytecode": "0x60808060405234610016576106f9908161001c8239f35b600080fdfe6040608081526004908136101561001557600080fd5b600091823560e01c9081633ffbd47f14610190578163401b21681461010457816363a9c3d7146100c3578163b9cc16141461007b575063c4a8b5d51461005a57600080fd5b346100775781600319360112610077576020906001549051908152f35b5080fd5b9050346100bf5760203660031901126100bf5735916001548310156100bc57506100a6602092610676565b905491519160018060a01b039160031b1c168152f35b80fd5b8280fd5b9050346100bf5760203660031901126100bf57356001600160a01b03811691908290036100bf57600391835282602052822001600160ff1982541617905580f35b9050346100bf5760203660031901126100bf57356001600160a01b038116908190036100bf57828291610173945280602052209061014182610591565b9161014e60018201610591565b9061018160ff6003600284015493015416928451968796608088526080880190610636565b908682036020880152610636565b92840152151560608301520390f35b83833461007757806003193601126100775767ffffffffffffffff9083358281116104bf576101c290369086016104fb565b6024358381116104bb576101d990369087016104fb565b9082519060808201828110868211176104a857845281526020918282019081528382019042825260608301948786523388528785528720925195865181811161049557806102278654610557565b98601f998a8111610449575b5087908a83116001146103e6578b926103db575b50508160011b916000199060031b1c19161784555b60019687850192519586519283116103c8576102788454610557565b828111610385575b5080918311600114610321575081906003968a92610316575b505060001982871b1c191690871b1790555b516002820155019051151560ff80198354169116179055805490680100000000000000008210156103035781810190556102e490610676565b81546001600160a01b0360039290921b91821b19163390911b17905580f35b634e487b7160e01b835260418452602483fd5b015190508a80610299565b889291601f198316858c52828c20928c905b82821061036c575050978360039910610354575b505050811b0190556102ab565b015160001983891b60f8161c191690558a8080610347565b838b015185558c96909401939283019290810190610333565b848b52818b208380860160051c8201928487106103bf575b0160051c01908a905b8281106103b4575050610280565b8c8155018a906103a6565b9250819261039d565b634e487b7160e01b8a5260418b5260248afd5b015190508b80610247565b878c52888c209250601f1984168c5b8a82821061043357505090846001959493921061041a575b505050811b01845561025c565b015160001960f88460031b161c191690558b808061040d565b60018596829396860151815501950193016103f5565b909150868b52878b208a80850160051c8201928a861061048c575b9085949392910160051c01905b81811061047e5750610233565b8c8155849350600101610471565b92508192610464565b634e487b7160e01b895260418a52602489fd5b634e487b7160e01b875260418852602487fd5b8480fd5b8380fd5b90601f8019910116810190811067ffffffffffffffff8211176104e557604052565b634e487b7160e01b600052604160045260246000fd5b81601f820112156105525780359067ffffffffffffffff82116104e55760405192610530601f8401601f1916602001856104c3565b8284526020838301011161055257816000926020809301838601378301015290565b600080fd5b90600182811c92168015610587575b602083101461057157565b634e487b7160e01b600052602260045260246000fd5b91607f1691610566565b906040519182600082546105a481610557565b9081845260209460019160018116908160001461061457506001146105d5575b5050506105d3925003836104c3565b565b600090815285812095935091905b8183106105fc5750506105d393508201013880806105c4565b855488840185015294850194879450918301916105e3565b925050506105d394925060ff191682840152151560051b8201013880806105c4565b919082519283825260005b848110610662575050826000602080949584010152601f8019910116010190565b602081830181015184830182015201610641565b6001548110156106ad5760016000527fb10e2d527612073b26eecdfd717e6a320cf44b4afac2b0732d9fcbe2b7fa0cf60190600090565b634e487b7160e01b600052603260045260246000fdfea2646970667358221220bb35a9eaf04fca0965a589b0f4463be9fbed19521286d2bfaa322b112ee6e17a64736f6c63430008180033",
  "linkReferences": {},
  "deployedLinkReferences": {}
}