{
  "_format": "hh-sol-artifact-1",
  "contractName": "ProvenanceTracker",
  "sourceName": "contracts/ProvenanceTracker.sol",
  "abi": [
    {
      "anonymous": false,
      "inputs": [
        {
          "indexed": true,
          "internalType": "bytes32",
          "name": "batchId",
          "type": "bytes32"
        },
        {
          "indexed": false,
          "internalType": "string",
          "name": "location",
          "type": "string"
        }
      ],
      "name": "ProvenanceAdded",
      "type": "event"
    },
    {
      "inputs": [
        {
          "internalType": "bytes32",
          "name": "batchId",
          "type": "bytes32"
        },
        {
          "internalType": "string",
          "name": "location",
          "type": "string"
        },
        {
          "internalType": "string",
          "name": "coordinates",
          "type": "string"
        },
        {
          "internalType": "string",
          "name": "handler",
          "type": "string"
        }
      ],
      "name": "addProvenance",
      "outputs": [],
      "stateMutability": "nonpayable",
      "type": "function"
    },
    {
      "inputs": [
        {
          "internalType": "bytes32",
          "name": "batchId",
          "type": "bytes32"
        }
      ],
      "name": "getProvenance",
      "outputs": [
        {
          "components": [
            {
              "internalType": "bytes32",
              "name": "batchId",
              "type": "bytes32"
            },
            {
              "internalType": "string",
              "name": "location",
              "type": "string"
            },
            {
              "internalType": "string",
              "name": "coordinates",
              "type": "string"
            },
            {
              "internalType": "uint256",
              "name": "timestamp",
              "type": "uint256"
            },
            {
              "internalType": "string",
              "name": "handler",
              "type": "string"
            }
          ],
          "internalType": "struct ProvenanceTracker.ProvenanceEntry[]",
          "name": "",
          "type": "tuple[]"
        }
      ],
      "stateMutability": "view",
      "type": "function"
    },
    {
      "inputs": [
        {
          "internalType": "bytes32",
          "name": "",
          "type": "bytes32"
        },
        {
          "internalType": "uint256",
          "name": "",
          "type": "uint256"
        }
      ],
      "name": "provenance",
      "outputs": [
        {
          "internalType": "bytes32",
          "name": "batchId",
          "type": "bytes32"
        },
        {
          "internalType": "string",
          "name": "location",
          "type": "string"
        },
        {
          "internalType": "string",
          "name": "coordinates",
          "type": "string"
        },
        {
          "internalType": "uint256",
          "name": "timestamp",
          "type": "uint256"
        },
        {
          "internalType": "string",
          "name": "handler",
          "type": "string"
        }
      ],
      "stateMutability": "view",
      "type": "function"
    }
  ],
  "bytecode": "0x60808060405234610016576109a2908161001c8239f35b600080fdfe608080604052600436101561001357600080fd5b60003560e01c90816361904f931461027457508063d54b0113146100f15763db9120d21461004057600080fd5b346100ec5760403660031901126100ec57602435600435600052600060205260406000209081548110156100ec57610077916107d6565b5080546100e861008960018401610880565b9261009660028201610880565b6100d56100aa600460038501549401610880565b916100c7604051978897885260a0602089015260a0880190610796565b908682036040880152610796565b9160608501528382036080850152610796565b0390f35b600080fd5b346100ec576020806003193601126100ec5760043560005260008152604060002080549067ffffffffffffffff821161025e5782906005926040519361013c848360051b018661085e565b8185528385018093600052846000206000915b8483106101fa57604080518881528951818a01819052600092600582901b83018101918a918c9085015b8287106101865785850386f35b9091929382806101ea600193603f198a820301865288516101cd6101bb60a08351855286840151908088870152850190610796565b60408301518482036040860152610796565b916060808301519082015260808092015191818403910152610796565b9601920196019592919092610179565b838760019260409a999a5161020e81610842565b8554815261021d858701610880565b8382015261022d60028701610880565b60408201526003860154606082015261024860048701610880565b608082015281520192019201919096959661014f565b634e487b7160e01b600052604160045260246000fd5b346100ec5760803660031901126100ec5760243567ffffffffffffffff81116100ec576102a5903690600401610768565b9060443567ffffffffffffffff81116100ec576102c6903690600401610768565b9060643567ffffffffffffffff81116100ec576102ea610338913690600401610768565b60043560005260006020526103266040600020946103078a610842565b6004358a52610317368a8a610925565b9660208b019788523691610925565b60408901524260608901523691610925565b608086015280546801000000000000000081101561025e5761035f916001820181556107d6565b91909161075257845182555180519067ffffffffffffffff821161025e57819061038c6001850154610808565b601f81116106ff575b50602090601f831160011461068d57600092610682575b50508160011b916000199060031b1c19161760018201555b604084015180519067ffffffffffffffff821161025e576103e86002840154610808565b601f811161063b575b50602090601f83116001146105c6579180608094926004946000926105bb575b50508160011b916000199060031b1c19161760028201555b606086015160038201550193015192835167ffffffffffffffff811161025e576104538254610808565b601f8111610573575b506020601f82116001146104ea5781907f904dbba0b4fd42a159a8dd343156a2c58397c24575c8728fa4c742235f59114c95966000926104df575b50508160011b916000199060031b1c19161790555b826040519160208352816020840152604083013760006040848301015260408160043594601f80199101168101030190a2005b015190508680610497565b601f198216958360005260206000209660005b81811061055b5750917f904dbba0b4fd42a159a8dd343156a2c58397c24575c8728fa4c742235f59114c969791846001959410610542575b505050811b0190556104ac565b015160001960f88460031b161c19169055868080610535565b838301518955600190980197602093840193016104fd565b826000526020600020601f830160051c810191602084106105b1575b601f0160051c01905b8181106105a5575061045c565b60008155600101610598565b909150819061058f565b015190508880610411565b906002840160005260206000209160005b601f19851681106106235750926080949260019260049583601f1981161061060a575b505050811b016002820155610429565b015160001960f88460031b161c191690558880806105fa565b919260206001819286850151815501940192016105d7565b600284016000526020600020601f840160051c81016020851061067b575b601f830160051c8201811061066f5750506103f1565b60008155600101610659565b5080610659565b0151905086806103ac565b9250600184016000526020600020906000935b601f19841685106106e4576001945083601f198116106106cb575b505050811b0160018201556103c4565b015160001960f88460031b161c191690558680806106bb565b818101518355602094850194600190930192909101906106a0565b909150600184016000526020600020601f840160051c81016020851061074b575b90849392915b601f830160051c8201811061073c575050610395565b60008155859450600101610726565b5080610720565b634e487b7160e01b600052600060045260246000fd5b9181601f840112156100ec5782359167ffffffffffffffff83116100ec57602083818601950101116100ec57565b919082519283825260005b8481106107c2575050826000602080949584010152601f8019910116010190565b6020818301810151848301820152016107a1565b80548210156107f2576000526005602060002091020190600090565b634e487b7160e01b600052603260045260246000fd5b90600182811c92168015610838575b602083101461082257565b634e487b7160e01b600052602260045260246000fd5b91607f1691610817565b60a0810190811067ffffffffffffffff82111761025e57604052565b90601f8019910116810190811067ffffffffffffffff82111761025e57604052565b9060405191826000825461089381610808565b9081845260209460019160018116908160001461090357506001146108c4575b5050506108c29250038361085e565b565b600090815285812095935091905b8183106108eb5750506108c293508201013880806108b3565b855488840185015294850194879450918301916108d2565b925050506108c294925060ff191682840152151560051b8201013880806108b3565b92919267ffffffffffffffff821161025e576040519161094f601f8201601f19166020018461085e565b8294818452818301116100ec57828160209384600096013701015256fea2646970667358221220cf2a1682e6787cdbbb996deee7667e41ba16adbe719a9919fdcf5816eea05bb464736f6c63430008180033",
  "linkReferences": {},
  "deployedLinkReferences": {}
}