{
  "_format": "hh-sol-artifact-1",
  "contractName": "WaterQuality",
  "sourceName": "contracts/WaterQuality.sol",
  "abi": [
    {
      "anonymous": false,
      "inputs": [
        {
          "indexed": true,
          "internalType": "bytes32",
          "name": "batchId",
          "type": "bytes32"
        },
        {
          "indexed": false,
          "internalType": "uint256",
          "name": "ph",
          "type": "uint256"
        }
      ],
      "name": "WaterTested",
      "type": "event"
    },
    {
      "inputs": [
        {
          "internalType": "bytes32",
          "name": "batchId",
          "type": "bytes32"
        }
      ],
      "name": "getWaterTests",
      "outputs": [
        {
          "components": [
            {
              "internalType": "bytes32",
              "name": "batchId",
              "type": "bytes32"
            },
            {
              "internalType": "uint256",
              "name": "ph",
              "type": "uint256"
            },
            {
              "internalType": "uint256",
              "name": "dissolvedOxygen",
              "type": "uint256"
            },
            {
              "internalType": "uint256",
              "name": "temperature",
              "type": "uint256"
            },
            {
              "internalType": "uint256",
              "name": "timestamp",
              "type": "uint256"
            }
          ],
          "internalType": "struct WaterQuality.WaterTest[]",
          "name": "",
          "type": "tuple[]"
        }
      ],
      "stateMutability": "view",
      "type": "function"
    },
    {
      "inputs": [
        {
          "internalType": "bytes32",
          "name": "batchId",
          "type": "bytes32"
        },
        {
          "internalType": "uint256",
          "name": "ph",
          "type": "uint256"
        },
        {
          "internalType": "uint256",
          "name": "dissolvedOxygen",
          "type": "uint256"
        },
        {
          "internalType": "uint256",
          "name": "temperature",
          "type": "uint256"
        }
      ],
      "name": "recordWaterTest",
      "outputs": [],
      "stateMutability": "nonpayable",
      "type": "function"
    },
    {
      "inputs": [
        {
          "internalType": "bytes32",
          "name": "",
          "type": "bytes32"
        },
        {
          "internalType": "uint256",
          "name": "",
          "type": "uint256"
        }
      ],
      "name": "waterTests",
      "outputs": [
        {
          "internalType": "bytes32",
          "name": "batchId",
          "type": "bytes32"
        },
        {
          "internalType": "uint256",
          "name": "ph",
          "type": "uint256"
        },
        {
          "internalType": "uint256",
          "name": "dissolvedOxygen",
          "type": "uint256"
        },
        {
          "internalType": "uint256",
          "name": "temperature",
          "type": "uint256"
        },
        {
          "internalType": "uint256",
          "name": "timestamp",
          "type": "uint256"
        }
      ],
      "stateMutability": "view",
      "type": "function"
    }
  ],
  "bytecode": "0x608080604052346100165761037f908161001c8239f35b600080fdfe60406080815260048036101561001457600080fd5b600090813560e01c80627d38f6146102745780638674f6a41461018c57639a80f7581461004057600080fd5b346101885760209081600319360112610184578035835282825283832091825467ffffffffffffffff92838211610171578651936005919083831b603f01601f191686019081118682101761015e5788979594975282845286840190819686528786209086925b85841061011157505050505050845193808501918186525180925285850193925b8281106100d55785850386f35b83518051865280830151868401528781015188870152606080820151908701526080908101519086015260a090940193928101926001016100c8565b848a6001928d6101239d9a9b9d610313565b9087548252858801548483015260028801549082015260038701546060820152858701546080820152815201930193019291989695986100a7565b634e487b7160e01b885260418252602488fd5b634e487b7160e01b865260419052602485fd5b8280fd5b5080fd5b5091346101885760803660031901126101885782359060243590828452836020528084206101b8610313565b90848252602082018481528383016044358152606084019160643583526080850193428552805490680100000000000000008210156102615790610201916001820181556102e1565b95909561024f575185555160018501555160028401555160038301555190860155519081527f2a1c8157732742630bf6991ba5d9862d55c1da091a837e4a908731e5d5db524b90602090a280f35b634e487b7160e01b8a52898b5260248afd5b634e487b7160e01b8b5260418c5260248bfd5b5082346101845780600319360112610184576024359282358152806020528181209081548510156102de575060a0936102ac916102e1565b508054926001820154926002830154916003840154930154938151958652602086015284015260608301526080820152f35b80fd5b80548210156102fd576000526005602060002091020190600090565b634e487b7160e01b600052603260045260246000fd5b6040519060a0820182811067ffffffffffffffff82111761033357604052565b634e487b7160e01b600052604160045260246000fdfea26469706673582212205cf7e3fce0e69e386044b060cb639a341071e19f1178f59cb0f0ad873a4d816464736f6c63430008180033",
  "linkReferences": {},
  "deployedLinkReferences": {}
}