{
  "_format": "hh-sol-artifact-1",
  "contractName": "QualityTestContract",
  "sourceName": "contracts/QualityTestContract.sol",
  "abi": [
    {
      "inputs": [],
      "stateMutability": "nonpayable",
      "type": "constructor"
    },
    {
      "inputs": [
        {
          "internalType": "address",
          "name": "owner",
          "type": "address"
        }
      ],
      "name": "OwnableInvalidOwner",
      "type": "error"
    },
    {
      "inputs": [
        {
          "internalType": "address",
          "name": "account",
          "type": "address"
        }
      ],
      "name": "OwnableUnauthorizedAccount",
      "type": "error"
    },
    {
      "anonymous": false,
      "inputs": [
        {
          "indexed": true,
          "internalType": "uint256",
          "name": "certId",
          "type": "uint256"
        },
        {
          "indexed": true,
          "internalType": "uint256",
          "name": "batchTokenId",
          "type": "uint256"
        },
        {
          "indexed": false,
          "internalType": "enum QualityTestContract.CertificationLevel",
          "name": "level",
          "type": "uint8"
        },
        {
          "indexed": false,
          "internalType": "uint256",
          "name": "expiryDate",
          "type": "uint256"
        },
        {
          "indexed": false,
          "internalType": "uint256",
          "name": "timestamp",
          "type": "uint256"
        }
      ],
      "name": "CertificationIssued",
      "type": "event"
    },
    {
      "anonymous": false,
      "inputs": [
        {
          "indexed": true,
          "internalType": "uint256",
          "name": "certId",
          "type": "uint256"
        },
        {
          "indexed": false,
          "internalType": "address",
          "name": "revoker",
          "type": "address"
        },
        {
          "indexed": false,
          "internalType": "uint256",
          "name": "timestamp",
          "type": "uint256"
        }
      ],
      "name": "CertificationRevoked",
      "type": "event"
    },
    {
      "anonymous": false,
      "inputs": [
        {
          "indexed": true,
          "internalType": "address",
          "name": "previousOwner",
          "type": "address"
        },
        {
          "indexed": true,
          "internalType": "address",
          "name": "newOwner",
          "type": "address"
        }
      ],
      "name": "OwnershipTransferred",
      "type": "event"
    },
    {
      "anonymous": false,
      "inputs": [
        {
          "indexed": true,
          "internalType": "uint256",
          "name": "batchTokenId",
          "type": "uint256"
        },
        {
          "indexed": false,
          "internalType": "enum QualityTestContract.CertificationLevel",
          "name": "level",
          "type": "uint8"
        },
        {
          "indexed": false,
          "internalType": "uint256",
          "name": "overallScore",
          "type": "uint256"
        },
        {
          "indexed": false,
          "internalType": "uint256",
          "name": "timestamp",
          "type": "uint256"
        }
      ],
      "name": "QualityProfileUpdated",
      "type": "event"
    },
    {
      "anonymous": false,
      "inputs": [
        {
          "indexed": true,
          "internalType": "uint256",
          "name": "testId",
          "type": "uint256"
        },
        {
          "indexed": true,
          "internalType": "uint256",
          "name": "batchTokenId",
          "type": "uint256"
        },
        {
          "indexed": false,
          "internalType": "bool",
          "name": "passed",
          "type": "bool"
        },
        {
          "indexed": false,
          "internalType": "uint256",
          "name": "resultValue",
          "type": "uint256"
        },
        {
          "indexed": false,
          "internalType": "uint256",
          "name": "timestamp",
          "type": "uint256"
        }
      ],
      "name": "TestCompleted",
      "type": "event"
    },
    {
      "anonymous": false,
      "inputs": [
        {
          "indexed": true,
          "internalType": "uint256",
          "name": "testId",
          "type": "uint256"
        },
        {
          "indexed": true,
          "internalType": "uint256",
          "name": "batchTokenId",
          "type": "uint256"
        },
        {
          "indexed": false,
          "internalType": "enum QualityTestContract.TestType",
          "name": "testType",
          "type": "uint8"
        },
        {
          "indexed": false,
          "internalType": "address",
          "name": "labAddress",
          "type": "address"
        },
        {
          "indexed": false,
          "internalType": "uint256",
          "name": "timestamp",
          "type": "uint256"
        }
      ],
      "name": "TestRequested",
      "type": "event"
    },
    {
      "inputs": [
        {
          "internalType": "uint256",
          "name": "",
          "type": "uint256"
        },
        {
          "internalType": "uint256",
          "name": "",
          "type": "uint256"
        }
      ],
      "name": "batchCertifications",
      "outputs": [
        {
          "internalType": "uint256",
          "name": "",
          "type": "uint256"
        }
      ],
      "stateMutability": "view",
      "type": "function"
    },
    {
      "inputs": [
        {
          "internalType": "uint256",
          "name": "",
          "type": "uint256"
        },
        {
          "internalType": "uint256",
          "name": "",
          "type": "uint256"
        }
      ],
      "name": "batchTests",
      "outputs": [
        {
          "internalType": "uint256",
          "name": "",
          "type": "uint256"
        }
      ],
      "stateMutability": "view",
      "type": "function"
    },
    {
      "inputs": [
        {
          "internalType": "uint256",
          "name": "",
          "type": "uint256"
        }
      ],
      "name": "certifications",
      "outputs": [
        {
          "internalType": "uint256",
          "name": "id",
          "type": "uint256"
        },
        {
          "internalType": "uint256",
          "name": "batchTokenId",
          "type": "uint256"
        },
        {
          "internalType": "enum QualityTestContract.CertificationLevel",
          "name": "level",
          "type": "uint8"
        },
        {
          "internalType": "address",
          "name": "certifier",
          "type": "address"
        },
        {
          "internalType": "uint256",
          "name": "issueDate",
          "type": "uint256"
        },
        {
          "internalType": "uint256",
          "name": "expiryDate",
          "type": "uint256"
        },
        {
          "internalType": "string",
          "name": "certStandard",
          "type": "string"
        },
        {
          "internalType": "bool",
          "name": "isRevoked",
          "type": "bool"
        },
        {
          "internalType": "string",
          "name": "certURI",
          "type": "string"
        }
      ],
      "stateMutability": "view",
      "type": "function"
    },
    {
      "inputs": [
        {
          "internalType": "uint256",
          "name": "_batchTokenId",
          "type": "uint256"
        }
      ],
      "name": "getBatchCertifications",
      "outputs": [
        {
          "components": [
            {
              "internalType": "uint256",
              "name": "id",
              "type": "uint256"
            },
            {
              "internalType": "uint256",
              "name": "batchTokenId",
              "type": "uint256"
            },
            {
              "internalType": "enum QualityTestContract.CertificationLevel",
              "name": "level",
              "type": "uint8"
            },
            {
              "internalType": "address",
              "name": "certifier",
              "type": "address"
            },
            {
              "internalType": "uint256",
              "name": "issueDate",
              "type": "uint256"
            },
            {
              "internalType": "uint256",
              "name": "expiryDate",
              "type": "uint256"
            },
            {
              "internalType": "string",
              "name": "certStandard",
              "type": "string"
            },
            {
              "internalType": "bool",
              "name": "isRevoked",
              "type": "bool"
            },
            {
              "internalType": "string",
              "name": "certURI",
              "type": "string"
            }
          ],
          "internalType": "struct QualityTestContract.Certification[]",
          "name": "",
          "type": "tuple[]"
        }
      ],
      "stateMutability": "view",
      "type": "function"
    },
    {
      "inputs": [
        {
          "internalType": "uint256",
          "name": "_batchTokenId",
          "type": "uint256"
        }
      ],
      "name": "getBatchTests",
      "outputs": [
        {
          "components": [
            {
              "internalType": "uint256",
              "name": "id",
              "type": "uint256"
            },
            {
              "internalType": "uint256",
              "name": "batchTokenId",
              "type": "uint256"
            },
            {
              "internalType": "enum QualityTestContract.TestType",
              "name": "testType",
              "type": "uint8"
            },
            {
              "internalType": "enum QualityTestContract.TestStatus",
              "name": "status",
              "type": "uint8"
            },
            {
              "internalType": "address",
              "name": "labAddress",
              "type": "address"
            },
            {
              "internalType": "string",
              "name": "testMethod",
              "type": "string"
            },
            {
              "internalType": "uint256",
              "name": "resultValue",
              "type": "uint256"
            },
            {
              "internalType": "uint256",
              "name": "minAcceptable",
              "type": "uint256"
            },
            {
              "internalType": "uint256",
              "name": "maxAcceptable",
              "type": "uint256"
            },
            {
              "internalType": "bool",
              "name": "passed",
              "type": "bool"
            },
            {
              "internalType": "string",
              "name": "unit",
              "type": "string"
            },
            {
              "internalType": "string",
              "name": "notes",
              "type": "string"
            },
            {
              "internalType": "uint256",
              "name": "testDate",
              "type": "uint256"
            },
            {
              "internalType": "uint256",
              "name": "certificationDate",
              "type": "uint256"
            },
            {
              "internalType": "string",
              "name": "labReportURI",
              "type": "string"
            }
          ],
          "internalType": "struct QualityTestContract.TestResult[]",
          "name": "",
          "type": "tuple[]"
        }
      ],
      "stateMutability": "view",
      "type": "function"
    },
    {
      "inputs": [
        {
          "internalType": "uint256",
          "name": "_certId",
          "type": "uint256"
        }
      ],
      "name": "getCertification",
      "outputs": [
        {
          "components": [
            {
              "internalType": "uint256",
              "name": "id",
              "type": "uint256"
            },
            {
              "internalType": "uint256",
              "name": "batchTokenId",
              "type": "uint256"
            },
            {
              "internalType": "enum QualityTestContract.CertificationLevel",
              "name": "level",
              "type": "uint8"
            },
            {
              "internalType": "address",
              "name": "certifier",
              "type": "address"
            },
            {
              "internalType": "uint256",
              "name": "issueDate",
              "type": "uint256"
            },
            {
              "internalType": "uint256",
              "name": "expiryDate",
              "type": "uint256"
            },
            {
              "internalType": "string",
              "name": "certStandard",
              "type": "string"
            },
            {
              "internalType": "bool",
              "name": "isRevoked",
              "type": "bool"
            },
            {
              "internalType": "string",
              "name": "certURI",
              "type": "string"
            }
          ],
          "internalType": "struct QualityTestContract.Certification",
          "name": "",
          "type": "tuple"
        }
      ],
      "stateMutability": "view",
      "type": "function"
    },
    {
      "inputs": [
        {
          "internalType": "address",
          "name": "_lab",
          "type": "address"
        }
      ],
      "name": "getLabTests",
      "outputs": [
        {
          "internalType": "uint256[]",
          "name": "",
          "type": "uint256[]"
        }
      ],
      "stateMutability": "view",
      "type": "function"
    },
    {
      "inputs": [
        {
          "internalType": "uint256",
          "name": "_batchTokenId",
          "type": "uint256"
        }
      ],
      "name": "getQualityProfile",
      "outputs": [
        {
          "components": [
            {
              "internalType": "uint256",
              "name": "batchTokenId",
              "type": "uint256"
            },
            {
              "internalType": "uint256[]",
              "name": "testIds",
              "type": "uint256[]"
            },
            {
              "internalType": "enum QualityTestContract.CertificationLevel",
              "name": "currentCertLevel",
              "type": "uint8"
            },
            {
              "internalType": "bool",
              "name": "hasOrganicCert",
              "type": "bool"
            },
            {
              "internalType": "bool",
              "name": "hasGMPCert",
              "type": "bool"
            },
            {
              "internalType": "uint256",
              "name": "overallScore",
              "type": "uint256"
            },
            {
              "internalType": "uint256",
              "name": "lastTestDate",
              "type": "uint256"
            }
          ],
          "internalType": "struct QualityTestContract.BatchQualityProfile",
          "name": "",
          "type": "tuple"
        }
      ],
      "stateMutability": "view",
      "type": "function"
    },
    {
      "inputs": [
        {
          "internalType": "uint256",
          "name": "_testId",
          "type": "uint256"
        }
      ],
      "name": "getTestResult",
      "outputs": [
        {
          "components": [
            {
              "internalType": "uint256",
              "name": "id",
              "type": "uint256"
            },
            {
              "internalType": "uint256",
              "name": "batchTokenId",
              "type": "uint256"
            },
            {
              "internalType": "enum QualityTestContract.TestType",
              "name": "testType",
              "type": "uint8"
            },
            {
              "internalType": "enum QualityTestContract.TestStatus",
              "name": "status",
              "type": "uint8"
            },
            {
              "internalType": "address",
              "name": "labAddress",
              "type": "address"
            },
            {
              "internalType": "string",
              "name": "testMethod",
              "type": "string"
            },
            {
              "internalType": "uint256",
              "name": "resultValue",
              "type": "uint256"
            },
            {
              "internalType": "uint256",
              "name": "minAcceptable",
              "type": "uint256"
            },
            {
              "internalType": "uint256",
              "name": "maxAcceptable",
              "type": "uint256"
            },
            {
              "internalType": "bool",
              "name": "passed",
              "type": "bool"
            },
            {
              "internalType": "string",
              "name": "unit",
              "type": "string"
            },
            {
              "internalType": "string",
              "name": "notes",
              "type": "string"
            },
            {
              "internalType": "uint256",
              "name": "testDate",
              "type": "uint256"
            },
            {
              "internalType": "uint256",
              "name": "certificationDate",
              "type": "uint256"
            },
            {
              "internalType": "string",
              "name": "labReportURI",
              "type": "string"
            }
          ],
          "internalType": "struct QualityTestContract.TestResult",
          "name": "",
          "type": "tuple"
        }
      ],
      "stateMutability": "view",
      "type": "function"
    },
    {
      "inputs": [],
      "name": "getTotalCertifications",
      "outputs": [
        {
          "internalType": "uint256",
          "name": "",
          "type": "uint256"
        }
      ],
      "stateMutability": "view",
      "type": "function"
    },
    {
      "inputs": [],
      "name": "getTotalTests",
      "outputs": [
        {
          "internalType": "uint256",
          "name": "",
          "type": "uint256"
        }
      ],
      "stateMutability": "view",
      "type": "function"
    },
    {
      "inputs": [
        {
          "internalType": "uint256",
          "name": "_batchTokenId",
          "type": "uint256"
        }
      ],
      "name": "isBatchCertified",
      "outputs": [
        {
          "internalType": "bool",
          "name": "",
          "type": "bool"
        }
      ],
      "stateMutability": "view",
      "type": "function"
    },
    {
      "inputs": [
        {
          "internalType": "uint256",
          "name": "_batchTokenId",
          "type": "uint256"
        },
        {
          "internalType": "enum QualityTestContract.CertificationLevel",
          "name": "_level",
          "type": "uint8"
        },
        {
          "internalType": "uint256",
          "name": "_validityDays",
          "type": "uint256"
        },
        {
          "internalType": "string",
          "name": "_certStandard",
          "type": "string"
        },
        {
          "internalType": "string",
          "name": "_certURI",
          "type": "string"
        }
      ],
      "name": "issueCertification",
      "outputs": [
        {
          "internalType": "uint256",
          "name": "",
          "type": "uint256"
        }
      ],
      "stateMutability": "nonpayable",
      "type": "function"
    },
    {
      "inputs": [
        {
          "internalType": "address",
          "name": "",
          "type": "address"
        },
        {
          "internalType": "uint256",
          "name": "",
          "type": "uint256"
        }
      ],
      "name": "labTests",
      "outputs": [
        {
          "internalType": "uint256",
          "name": "",
          "type": "uint256"
        }
      ],
      "stateMutability": "view",
      "type": "function"
    },
    {
      "inputs": [],
      "name": "nextCertId",
      "outputs": [
        {
          "internalType": "uint256",
          "name": "",
          "type": "uint256"
        }
      ],
      "stateMutability": "view",
      "type": "function"
    },
    {
      "inputs": [],
      "name": "nextTestId",
      "outputs": [
        {
          "internalType": "uint256",
          "name": "",
          "type": "uint256"
        }
      ],
      "stateMutability": "view",
      "type": "function"
    },
    {
      "inputs": [],
      "name": "owner",
      "outputs": [
        {
          "internalType": "address",
          "name": "",
          "type": "address"
        }
      ],
      "stateMutability": "view",
      "type": "function"
    },
    {
      "inputs": [
        {
          "internalType": "uint256",
          "name": "",
          "type": "uint256"
        }
      ],
      "name": "qualityProfiles",
      "outputs": [
        {
          "internalType": "uint256",
          "name": "batchTokenId",
          "type": "uint256"
        },
        {
          "internalType": "enum QualityTestContract.CertificationLevel",
          "name": "currentCertLevel",
          "type": "uint8"
        },
        {
          "internalType": "bool",
          "name": "hasOrganicCert",
          "type": "bool"
        },
        {
          "internalType": "bool",
          "name": "hasGMPCert",
          "type": "bool"
        },
        {
          "internalType": "uint256",
          "name": "overallScore",
          "type": "uint256"
        },
        {
          "internalType": "uint256",
          "name": "lastTestDate",
          "type": "uint256"
        }
      ],
      "stateMutability": "view",
      "type": "function"
    },
    {
      "inputs": [
        {
          "internalType": "uint256",
          "name": "_testId",
          "type": "uint256"
        },
        {
          "internalType": "uint256",
          "name": "_resultValue",
          "type": "uint256"
        },
        {
          "internalType": "string",
          "name": "_notes",
          "type": "string"
        },
        {
          "internalType": "string",
          "name": "_labReportURI",
          "type": "string"
        }
      ],
      "name": "recordTestResult",
      "outputs": [],
      "stateMutability": "nonpayable",
      "type": "function"
    },
    {
      "inputs": [],
      "name": "renounceOwnership",
      "outputs": [],
      "stateMutability": "nonpayable",
      "type": "function"
    },
    {
      "inputs": [
        {
          "internalType": "uint256",
          "name": "_batchTokenId",
          "type": "uint256"
        },
        {
          "internalType": "enum QualityTestContract.TestType",
          "name": "_testType",
          "type": "uint8"
        },
        {
          "internalType": "string",
          "name": "_testMethod",
          "type": "string"
        },
        {
          "internalType": "uint256",
          "name": "_minAcceptable",
          "type": "uint256"
        },
        {
          "internalType": "uint256",
          "name": "_maxAcceptable",
          "type": "uint256"
        },
        {
          "internalType": "string",
          "name": "_unit",
          "type": "string"
        }
      ],
      "name": "requestTest",
      "outputs": [
        {
          "internalType": "uint256",
          "name": "",
          "type": "uint256"
        }
      ],
      "stateMutability": "nonpayable",
      "type": "function"
    },
    {
      "inputs": [
        {
          "internalType": "uint256",
          "name": "_certId",
          "type": "uint256"
        }
      ],
      "name": "revokeCertification",
      "outputs": [],
      "stateMutability": "nonpayable",
      "type": "function"
    },
    {
      "inputs": [
        {
          "internalType": "uint256",
          "name": "",
          "type": "uint256"
        }
      ],
      "name": "testResults",
      "outputs": [
        {
          "internalType": "uint256",
          "name": "id",
          "type": "uint256"
        },
        {
          "internalType": "uint256",
          "name": "batchTokenId",
          "type": "uint256"
        },
        {
          "internalType": "enum QualityTestContract.TestType",
          "name": "testType",
          "type": "uint8"
        },
        {
          "internalType": "enum QualityTestContract.TestStatus",
          "name": "status",
          "type": "uint8"
        },
        {
          "internalType": "address",
          "name": "labAddress",
          "type": "address"
        },
        {
          "internalType": "string",
          "name": "testMethod",
          "type": "string"
        },
        {
          "internalType": "uint256",
          "name": "resultValue",
          "type": "uint256"
        },
        {
          "internalType": "uint256",
          "name": "minAcceptable",
          "type": "uint256"
        },
        {
          "internalType": "uint256",
          "name": "maxAcceptable",
          "type": "uint256"
        },
        {
          "internalType": "bool",
          "name": "passed",
          "type": "bool"
        },
        {
          "internalType": "string",
          "name": "unit",
          "type": "string"
        },
        {
          "internalType": "string",
          "name": "notes",
          "type": "string"
        },
        {
          "internalType": "uint256",
          "name": "testDate",
          "type": "uint256"
        },
        {
          "internalType": "uint256",
          "name": "certificationDate",
          "type": "uint256"
        },
        {
          "internalType": "string",
          "name": "labReportURI",
          "type": "string"
        }
      ],
      "stateMutability": "view",
      "type": "function"
    },
    {
      "inputs": [
        {
          "internalType": "address",
          "name": "newOwner",
          "type": "address"
        }
      ],
      "name": "transferOwnership",
      "outputs": [],
      "stateMutability": "nonpayable",
      "type": "function"
    }
  ],
  "bytecode": "0x6080806040523461008457331561006e5760008054336001600160a01b03198216811783556040519290916001600160a01b0316907f8be0079c531659141344cd1fd0a4f28419497f9722a3daafe3b4186f6b6457e09080a360016007556001600855612615908161008a8239f35b631e4fbdf760e01b815260006004820152602490fd5b600080fdfe6080604052600436101561001257600080fd5b60003560e01c80630bf10a6514611cb057806315c9a63514611c7f5780631ebc237114611c0a57806325dc673e14611bdf5780632664003914611bb45780632a8e6a8e14611b965780632f5fce6c14611aed57806332a86e9514611acf57806339ab71f9146119355780633c0359a41461186f5780633cf91ccd1461172c578063715018a6146116d3578063788e54351461121f5780638398ab6614610e7b5780638da5cb5b14610e5257806390780b0f146105f3578063b77cb54614610599578063bdb914641461054f578063c36d252b14610433578063e0b3271f14610311578063ea57b785146102c3578063ec0ed1d914610284578063ec981eac146101b75763f2fde38b1461012457600080fd5b346101b25760203660031901126101b25761013d612240565b6101456124b9565b6001600160a01b0390811690811561019957600054826bffffffffffffffffffffffff60a01b821617600055167f8be0079c531659141344cd1fd0a4f28419497f9722a3daafe3b4186f6b6457e0600080a3005b604051631e4fbdf760e01b815260006004820152602490fd5b600080fd5b346101b25760203660031901126101b2576101d061232f565b50600435600052600260205261028060406000206102666007604051926101f6846120d2565b8054845260018101546020850152600281015460ff811661021681611e7b565b604086015260081c6001600160a01b0316606085015260038101546080850152600481015460a085015261024c60058201612145565b60c085015260ff600682015416151560e085015201612145565b610100820152604051918291602083526020830190611ff6565b0390f35b346101b25761029236611fb2565b906000526005602052604060002080548210156101b2576020916102b591611fc8565b90546040519160031b1c8152f35b346101b25760203660031901126101b2576001600160a01b036102e4612240565b1660005260046020526102806102fd6040600020612468565b604051918291602083526020830190612256565b346101b25760203660031901126101b25761032a6122a1565b5060043560005260016020526102806040600020610419600c60405192610350846120b6565b8054845260018101546020850152600281015461037360ff821660408701612323565b60ff8160081c1661038381611e7b565b606086015260101c6001600160a01b031660808501526103a560038201612145565b60a0850152600481015460c0850152600581015460e0850152600681015461010085015260ff60078201541615156101208501526103e560088201612145565b6101408501526103f760098201612145565b610160850152600a810154610180850152600b8101546101a085015201612145565b6101c0820152604051918291602083526020830190611ec5565b346101b2576020806003193601126101b257600060c0604051610455816120ee565b8281526060848201528260408201528260608201528260808201528260a0820152015260043560005260038152604060002060405190610494826120ee565b805482526104a460018201612468565b828401908152600282015460408401929060ff81166104c281611e7b565b84526060850160ff8260081c161515815260ff608087019260101c161515825261051f600460038501549460a0890195865201549460c08801958652604051988998818a5251908901525160e06040890152610100880190612256565b945161052a81611e7b565b6060870152511515608086015251151560a08501525160c08401525160e08301520390f35b346101b25760403660031901126101b257610568612240565b6001600160a01b03166000908152600460205260409020805460243591908210156101b2576020916102b591611fc8565b346101b25760203660031901126101b257600435600052600360205260206040600020600160ff6002830154166105cf81611e7b565b101590816105e3575b506040519015158152f35b60509150600301541015826105d8565b346101b25760c03660031901126101b257600a60243510156101b2576044356001600160401b0381116101b25761062e9036906004016121ea565b60a4356001600160401b0381116101b25761064d9036906004016121ea565b9061065b6004351515612373565b60075491610668836123b8565b60075560405191610678836120b6565b838352600435602084015261069260243560408501612323565b6000606084015233608084015260a0830152600060c083015260643560e083015260843561010083015260006101208301526101408201526040516106d681612109565b60008152610160820152600061018082015260006101a08201526040516106fc81612109565b600081526101c082015281600052600160205260406000209080518255602081015160018301556040810151600a811015610e3c5760ff8019600285015416911617600283015561075d606082015161075481611e7b565b60028401612449565b608081015160028301805462010000600160b01b03191660109290921b62010000600160b01b031691909117905560a081015180519093906001600160401b038111610b59576107b0600385015461207c565b601f8111610e07575b506020601f8211600114610d98578192939495600092610d8d575b50508160011b916000199060031b1c19161760038401555b60c0820151600484015560e08201516005840155610100820151600684015561082b6101208301511515600785019060ff801983541691151516179055565b6101408201519283516001600160401b038111610b595761084f600883015461207c565b601f8111610d58575b506020601f8211600114610ce9578192939495600092610cde575b50508160011b916000199060031b1c19161760088201555b6101608301519283516001600160401b038111610b59576108af600984015461207c565b601f8111610ca9575b506020601f8211600114610c355781906101c0949596600092610c2a575b50508160011b916000199060031b1c19161760098401555b610180810151600a8401556101a0810151600b84015501518051906001600160401b038211610b5957610924600c84015461207c565b601f8111610bea575b50602090601f8311600114610b7a57600c929160009183610b6f575b50508160011b916000199060031b1c1916179101555b3360005260046020526109768160406000206123f6565b600435600052600560205261098f8160406000206123f6565b600435600052600360205260046040600020015415610a12575b602090600435600052600382526109c78160016040600020016123f6565b6040516109d681602435611e6e565b3383820152426040820152817f4b757cbe560806021f41591fe09b6ec6dd734915d7c49b5cb0153c221e71d053606060043593a3604051908152f35b60405190610a1f82612109565b6000825260405191610a30836120ee565b600435835260208301908152600060408401526000606084015260006080840152600060a08401524260c0840152600435600052600360205260406000209083518255518051906001600160401b038211610b5957600160401b8211610b59576020906001840154836001860155808410610b39575b500160018301600052602060002060005b838110610b255750505050600460c060209460028401610ae46040830151610ade81611e7b565b826123c7565b60608201511515815461ff0062ff00006080860151151560101b169260081b169062ffff0019161717905560a08101516003850155015191015590506109a9565b600190602084519401938184015501610ab7565b610b539060018601600052848460002091820191016123df565b86610aa6565b634e487b7160e01b600052604160045260246000fd5b015190508580610949565b90600c840160005260206000209160005b601f1985168110610bd25750918391600193600c95601f19811610610bb9575b505050811b0191015561095f565b015160001960f88460031b161c19169055858080610bab565b91926020600181928685015181550194019201610b8b565b610c1a90600c85016000526020600020601f850160051c81019160208610610c20575b601f0160051c01906123df565b8461092d565b9091508190610c0d565b0151905086806108d6565b6009840160005260206000209560005b601f1984168110610c9157509582916101c0959697600194601f19811610610c78575b505050811b0160098401556108ee565b015160001960f88460031b161c19169055868080610c68565b82820151885560019097019660209283019201610c45565b610cd890600985016000526020600020601f840160051c81019160208510610c2057601f0160051c01906123df565b856108b8565b015190508580610873565b6008830160005260206000209060005b601f1984168110610d40575060019394959683601f19811610610d27575b505050811b01600882015561088b565b015160001960f88460031b161c19169055858080610d17565b9091602060018192858b015181550193019101610cf9565b610d8790600884016000526020600020601f840160051c81019160208510610c2057601f0160051c01906123df565b85610858565b0151905085806107d4565b6003850160005260206000209060005b601f1984168110610def575060019394959683601f19811610610dd6575b505050811b0160038401556107ec565b015160001960f88460031b161c19169055858080610dc6565b9091602060018192858b015181550193019101610da8565b610e3690600386016000526020600020601f840160051c81019160208510610c2057601f0160051c01906123df565b856107b9565b634e487b7160e01b600052602160045260246000fd5b346101b25760003660031901126101b2576000546040516001600160a01b039091168152602090f35b346101b25760803660031901126101b2576024356004356001600160401b036044358181116101b257610eb29036906004016121ea565b926064358281116101b257610ecb9036906004016121ea565b9183600052600190602093828552604060002091600283019788543360018060a01b038260101c16036111e35760081c60ff16610f0781611e7b565b6111ab57856004850155600984018151838111610b595780610f29835461207c565b93601f948b86821161117c575b50508a908583116001146111195760009261110e575b5050600019600383901b1c191690871b1790555b600c8401928051928311610b5957610f78845461207c565b8281116110d6575b50879183116001146110665791806110429a9896949260ff9a98969460009261105b575b5050600019600383901b1c191690841b1790555b42600a8201556005810154831015958661104c575b91816110237fb819a470b5c4b3919cf8b3e8432c172902f5dafba632de8f6ca8fef5e06fb4a39694611012600760609896019a8b9060ff801983541691151516179055565b89548b161561104457600290612449565b01549687965416916040519215158352820152426040820152a36124e5565b005b600390612449565b60068201548411159650610fcd565b015190508b80610fa4565b90601f1983169184600052886000209260005b8181106110c157509287959392859260ff9c9a98966110429e9c9a95106110a8575b505050811b019055610fb8565b015160001960f88460031b161c191690558b808061109b565b82840151855593880193928a01928a01611079565b6110ff9085600052896000208480870160051c8201928c8810611105575b0160051c01906123df565b8a610f80565b925081926110f4565b015190508c80610f4c565b60008581528c81208b9550929190601f198516908e5b828210611165575050841161114c575b505050811b019055610f60565b015160001960f88460031b161c191690558c808061113f565b8385015186558d979095019493840193018e61112f565b6111a4918660005287826000209181870160051c8301938710611105570160051c01906123df565b8d8b610f36565b60405162461bcd60e51b815260048101889052601060248201526f54657374206e6f742070656e64696e6760801b6044820152606490fd5b60405162461bcd60e51b81526004810189905260146024820152732737ba103a34329030b9b9b4b3b732b2103630b160611b6044820152606490fd5b346101b25760a03660031901126101b257600560243510156101b2576044356064356001600160401b0381116101b25761125d9036906004016121ea565b6084356001600160401b0381116101b25761127c9036906004016121ea565b906112856124b9565b6112926004351515612373565b6008549061129f826123b8565b60085562015180938481029481860414901517156116bd5783420142116116bd57604051936112cd856120d2565b828552600435602086015260408501936112e8602435611e7b565b60243585526060860194338652608087019142835260a08801934201845260c08801948552600060e0890152610100880152846000526002602052604060002095875187556020880151600188015561134f60028801925161134981611e7b565b836123c7565b518154610100600160a81b03191660089190911b610100600160a81b03161790555160038501555160048401555180519093906001600160401b038111610b595761139d600585015461207c565b601f8111611688575b506020601f8211600114611614578190610100949596600092611609575b50508160011b916000199060031b1c19161760058501555b6113fb60e08201511515600686019060ff801983541691151516179055565b01519182516001600160401b038111610b595760209361141e600784015461207c565b601f81116115d6575b508490601f831160011461156857600792916000918361155d575b50508160011b916000199060031b1c1916179101555b600435600052600682526114708160406000206123f6565b60043560005260038252600260406000200160ff81541661149081611e7b565b61149b602435611e7b565b6024351161154c575b6114af602435611e7b565b60036024351461153a575b6114c5602435611e7b565b600460243514611525575b508060005260028252600460406000200154817fca77dae66f73f5407f50b395115f6d8308e04037678a57aec3ba34098fd842e06040518061151a6004359542906024358461242b565b0390a3604051908152f35b805462ff0000191662010000179055826114d0565b805461ff0019166101001781556114ba565b611558602435826123c7565b6114a4565b015190508680611442565b9060078401600052856000209160005b601f19851681106115bf5750918391600193600795601f198116106115a6575b505050811b01910155611458565b015160001960f88460031b161c19169055868080611598565b919287600181928685015181550194019201611578565b611603906007850160005286600020601f850160051c810191888610610c2057601f0160051c01906123df565b85611427565b0151905086806113c4565b6005850160005260206000209560005b601f19841681106116705750958291610100959697600194601f19811610611657575b505050811b0160058501556113dc565b015160001960f88460031b161c19169055868080611647565b82820151885560019097019660209283019201611624565b6116b790600586016000526020600020601f840160051c81019160208510610c2057601f0160051c01906123df565b856113a6565b634e487b7160e01b600052601160045260246000fd5b346101b25760003660031901126101b2576116ec6124b9565b600080546001600160a01b0319811682556001600160a01b03167f8be0079c531659141344cd1fd0a4f28419497f9722a3daafe3b4186f6b6457e08280a3005b346101b25760203660031901126101b2576004356000526001602052604060002080546001820154906002830154908160081c60ff16936003810161177090612145565b60048201546005830154906006840154600785015460ff16906008860161179690612145565b936117a360098801612145565b95600a88015498600b89015498600c016117bc90612145565b9a6040519d8e809e6101e0948252602082015260400160ff8316906117e091611e6e565b8d6117ea82611e7b565b6060015260101c6001600160a01b031660808d015260a08c0181905261181391908c0190611e85565b9360c08b015260e08a0152610100890152151561012088015286810361014088015261183e91611e85565b85810361016087015261185091611e85565b916101808501526101a08401528281036101c084015261028091611e85565b346101b25760203660031901126101b25760043560005260026020526040600020805490610280600182015491600281015461191f60ff82169560038401549060048501546118c060058701612145565b926118d5600760ff60068a0154169801612145565b956040519a8b9a610120958c5260208c01526118f081611e7b565b60408b015260081c6001600160a01b031660608a0152608089015260a088015260c08701819052860190611e85565b91151560e0850152838203610100850152611e85565b346101b2576020806003193601126101b25760043560005260068082526040600020908154906119648261228a565b926119726040519485612124565b82845261197e8361228a565b601f19018560005b828110611ab95750505060005b8381106119f857604080518781528651818901819052600092600582901b8301810191898b01918b9085015b8287106119cc5785850386f35b9091929382806119e8600193603f198a82030186528851611ff6565b96019201960195929190926119bf565b80611a0560019284611fc8565b9054600391821b1c600052611a976007600292838b5260406000209060405194611a2e866120d2565b82548652878301548d8701528201549060ff91828116611a4d81611e7b565b6040880152888060a01b039060081c1660608701528201546080860152600482015460a0860152611a8060058301612145565b60c08601528882015416151560e085015201612145565b610100820152611aa7828861230f565b52611ab2818761230f565b5001611993565b611ac161232f565b828289010152018690611986565b346101b25760003660031901126101b2576020600754604051908152f35b346101b25760203660031901126101b257600435611b096124b9565b8060005260026020526006604060002001805460ff8116611b5f5760019060ff19161790557f014ca789a7e6a2b8bda52f2bc401bfc8c6dc1d7701d68785fc2a17f8ef05f4b660408051338152426020820152a2005b60405162461bcd60e51b815260206004820152600f60248201526e105b1c9958591e481c995d9bdad959608a1b6044820152606490fd5b346101b25760003660031901126101b2576020600854604051908152f35b346101b25760003660031901126101b25760075460001981019081116116bd57602090604051908152f35b346101b25760003660031901126101b25760085460001981019081116116bd57602090604051908152f35b346101b25760203660031901126101b257600435600052600360205260c0604060002080549060028101549060ff808316926004600384015493015493604051958652611c5681611e7b565b6020860152818160081c161515604086015260101c1615156060840152608083015260a0820152f35b346101b257611c8d36611fb2565b906000526006602052604060002080548210156101b2576020916102b591611fc8565b346101b2576020806003193601126101b2576004356000526005808252604060002090815490611cdf8261228a565b92611ced6040519485612124565b828452611cf98361228a565b601f19018560005b828110611e585750505060005b838110611d7357604080518781528651818901819052600092600582901b8301810191898b01918b9085015b828710611d475785850386f35b909192938280611d63600193603f198a82030186528851611ec5565b9601920196019592919092611d3a565b80611d8060019284611fc8565b9054600391821b1c600052611e36600c8492838b526103e560406000209160405195611dab876120b6565b835487528301548d870152600283015490611dfe60ff91611dd183851660408b01612323565b6008938381861c16611de281611e7b565b60608b01528b8060a01b039060101c1660808a01528501612145565b60a0880152600484015460c08801528a84015460e0880152600684015461010088015260078401541615156101208701528201612145565b6101c0820152611e46828861230f565b52611e51818761230f565b5001611d0e565b611e606122a1565b828289010152018690611d01565b90600a821015610e3c5752565b60051115610e3c57565b919082519283825260005b848110611eb1575050826000602080949584010152601f8019910116010190565b602081830181015184830182015201611e90565b90611faf91611f85611f71611f316101e08451865260208501516020870152611ef660408601516040880190611e6e565b6060850151611f0481611e7b565b60608701526080858101516001600160a01b03169087015260a08581015190870182905290860190611e85565b60c084015160c086015260e084015160e0860152610100808501519086015261012080850151151590860152610140808501519086830390870152611e85565b610160808401519085830390860152611e85565b9161018080830151908201526101a080830151908201526101c08092015191818403910152611e85565b90565b60409060031901126101b2576004359060243590565b8054821015611fe05760005260206000200190600090565b634e487b7160e01b600052603260045260246000fd5b90611faf9161205c6101208251845260208301516020850152604083015161201d81611e7b565b604085015260018060a01b0360608401511660608501526080830151608085015260a083015160a085015260c0830151908060c0860152840190611e85565b9160e0820151151560e08201526101008092015191818403910152611e85565b90600182811c921680156120ac575b602083101461209657565b634e487b7160e01b600052602260045260246000fd5b91607f169161208b565b6101e081019081106001600160401b03821117610b5957604052565b61012081019081106001600160401b03821117610b5957604052565b60e081019081106001600160401b03821117610b5957604052565b602081019081106001600160401b03821117610b5957604052565b90601f801991011681019081106001600160401b03821117610b5957604052565b906040519182600082546121588161207c565b908184526020946001916001811690816000146121c85750600114612189575b50505061218792500383612124565b565b600090815285812095935091905b8183106121b05750506121879350820101388080612178565b85548884018501529485019487945091830191612197565b9250505061218794925060ff191682840152151560051b820101388080612178565b81601f820112156101b2578035906001600160401b038211610b59576040519261221e601f8401601f191660200185612124565b828452602083830101116101b257816000926020809301838601378301015290565b600435906001600160a01b03821682036101b257565b90815180825260208080930193019160005b828110612276575050505090565b835185529381019392810192600101612268565b6001600160401b038111610b595760051b60200190565b604051906122ae826120b6565b60606101c083600080825280602083015280604083015280848301528060808301528360a08301528060c08301528060e083015280610100830152806101208301528361014083015283610160830152806101808301526101a08201520152565b8051821015611fe05760209160051b010190565b600a821015610e3c5752565b6040519061233c826120d2565b606061010083600080825280602083015280604083015280848301528060808301528060a08301528360c083015260e08201520152565b1561237a57565b60405162461bcd60e51b8152602060048201526016602482015275125b9d985b1a590818985d18da081d1bdad95b88125160521b6044820152606490fd5b60001981146116bd5760010190565b906123d181611e7b565b60ff80198354169116179055565b8181106123ea575050565b600081556001016123df565b8054600160401b811015610b595761241391600182018155611fc8565b819291549060031b91821b91600019901b1916179055565b6060810194939260409261243e81611e7b565b825260208201520152565b9061245381611e7b565b61ff0082549160081b169061ff001916179055565b90604051918281549182825260209260208301916000526020600020936000905b82821061249f5750505061218792500383612124565b855484526001958601958895509381019390910190612489565b6000546001600160a01b031633036124cd57565b60405163118cdaa760e01b8152336004820152602490fd5b6000818152600360209060036020526040926040812093600190600186019081549586156125d4578495855b88811061259657505050505050606482029180830460641490151715612582575060027f673b8c349db6fa76eef738b154b05c9e88917738c1c0e10b729b2d059cb5154a939260ff9204928360038201554260048201550154169061257d60405192839242918461242b565b0390a2565b634e487b7160e01b81526011600452602490fd5b6125a08186611fc8565b905490831b1c875285835260ff60078589200154166125c1575b8501612511565b966125cc86916123b8565b9790506125ba565b50505050505050505056fea2646970667358221220f0f50331b9a279d54a4c3a97372dfdd2cfc469b7d037ff47a7ad5c9c7936a49e64736f6c63430008180033",
  "linkReferences": {},
  "deployedLinkReferences": {}
}