{
  "_format": "hh-sol-artifact-1",
  "contractName": "RecallManager",
  "sourceName": "contracts/RecallManager.sol",
  "abi": [
    {
      "anonymous": false,
      "inputs": [
        {
          "indexed": true,
          "internalType": "bytes32",
          "name": "recallId",
          "type": "bytes32"
        }
      ],
      "name": "RecallCompleted",
      "type": "event"
    },
    {
      "anonymous": false,
      "inputs": [
        {
          "indexed": true,
          "internalType": "bytes32",
          "name": "recallId",
          "type": "bytes32"
        },
        {
          "indexed": true,
          "internalType": "bytes32",
          "name": "batchId",
          "type": "bytes32"
        },
        {
          "indexed": false,
          "internalType": "string",
          "name": "reason",
          "type": "string"
        }
      ],
      "name": "RecallInitiated",
      "type": "event"
    },
    {
      "inputs": [
        {
          "internalType": "bytes32",
          "name": "recallId",
          "type": "bytes32"
        }
      ],
      "name": "completeRecall",
      "outputs": [],
      "stateMutability": "nonpayable",
      "type": "function"
    },
    {
      "inputs": [
        {
          "internalType": "bytes32",
          "name": "recallId",
          "type": "bytes32"
        }
      ],
      "name": "getRecall",
      "outputs": [
        {
          "components": [
            {
              "internalType": "bytes32",
              "name": "recallId",
              "type": "bytes32"
            },
            {
              "internalType": "bytes32",
              "name": "batchId",
              "type": "bytes32"
            },
            {
              "internalType": "string",
              "name": "reason",
              "type": "string"
            },
            {
              "internalType": "uint256",
              "name": "recallDate",
              "type": "uint256"
            },
            {
              "internalType": "bool",
              "name": "active",
              "type": "bool"
            }
          ],
          "internalType": "struct RecallManager.Recall",
          "name": "",
          "type": "tuple"
        }
      ],
      "stateMutability": "view",
      "type": "function"
    },
    {
      "inputs": [
        {
          "internalType": "bytes32",
          "name": "recallId",
          "type": "bytes32"
        },
        {
          "internalType": "bytes32",
          "name": "batchId",
          "type": "bytes32"
        },
        {
          "internalType": "string",
          "name": "reason",
          "type": "string"
        }
      ],
      "name": "initiateRecall",
      "outputs": [],
      "stateMutability": "nonpayable",
      "type": "function"
    },
    {
      "inputs": [
        {
          "internalType": "uint256",
          "name": "",
          "type": "uint256"
        }
      ],
      "name": "recallIds",
      "outputs": [
        {
          "internalType": "bytes32",
          "name": "",
          "type": "bytes32"
        }
      ],
      "stateMutability": "view",
      "type": "function"
    },
    {
      "inputs": [
        {
          "internalType": "bytes32",
          "name": "",
          "type": "bytes32"
        }
      ],
      "name": "recalls",
      "outputs": [
        {
          "internalType": "bytes32",
          "name": "recallId",
          "type": "bytes32"
        },
        {
          "internalType": "bytes32",
          "name": "batchId",
          "type": "bytes32"
        },
        {
          "internalType": "string",
          "name": "reason",
          "type": "string"
        },
        {
          "internalType": "uint256",
          "name": "recallDate",
          "type": "uint256"
        },
        {
          "internalType": "bool",
          "name": "active",
          "type": "bool"
        }
      ],
      "stateMutability": "view",
      "type": "function"
    }
  ],
  "bytecode": "0x608080604052346100165761077c908161001c8239f35b600080fdfe608080604052600436101561001357600080fd5b60003560e01c90816342bb7e591461027b5750806357279da1146101d85780637d4177ef146101a1578063b28371f3146100d05763c6f59a051461005657600080fd5b346100cb5760203660031901126100cb5760043560005260006020526040600020805460018201549161008b600282016106a1565b6100ba60ff6004600385015494015416916040519586958652602086015260a0604086015260a08501906105e9565b916060840152151560808301520390f35b600080fd5b346100cb576020806003193601126100cb57600060806040516100f281610663565b82815282848201526060604082015282606082015201526004356000526000815260406000206040519061012582610663565b80548252600181015483830190815261018e610143600284016106a1565b6040850190815260ff6004600386015495606088019687520154169260808601931515845260405196879681885251908701525160408601525160a0606086015260c08501906105e9565b9151608084015251151560a08301520390f35b346100cb5760203660031901126100cb576004356001548110156100cb576101ca60209161059c565b90546040519160031b1c8152f35b346100cb5760203660031901126100cb576004358060005260006020526003604060002001541561024357806000526000602052600460406000200160ff1981541690557f30cd9c1c3b9e58a1bc460d16d302431ff5396c68e3c84acf084ca8fe2b786012600080a2005b60405162461bcd60e51b815260206004820152601060248201526f149958d85b1b081b9bdd08199bdd5b9960821b6044820152606490fd5b346100cb5760603660031901126100cb576044359067ffffffffffffffff82116100cb57366023830112156100cb5767ffffffffffffffff8260040135116100cb573660248360040135840101116100cb57600435600052600060205260036040600020015461056a57506040516102f281610663565b6004358152602435602082015260405161031a6020601f19601f86600401350116018261067f565b6004830135808252602484016020830137600060208460040135830101526040820190815242606083015260016080830152600435600052600060205260406000209082518255602083015160018301555180519067ffffffffffffffff821161048f5761038b6002840154610629565b601f8111610523575b50602090601f83116001146104b0579180608094926004946000926104a5575b50508160011b916000199060031b1c19161760028201555b6060840151600382015501910151151560ff801983541691161790556001546801000000000000000081101561048f5780600161040c920160015561059c565b81549060031b90600435821b91600019901b19161790556040519060208252806004013560208301528060040135602482016040840137600060408260040135840101527f6724023dbf3b4c3940031ebdbe8d0adea1da5cc2b3ec05e5746bd666d860f2fd6024359260408160043594601f8019916004013501168101030190a3005b634e487b7160e01b600052604160045260246000fd5b0151905087806103b4565b90601f198316916002850160005260206000209260005b81811061050b575092600192859260049660809896106104f2575b505050811b0160028201556103cc565b015160001960f88460031b161c191690558780806104e2565b929360206001819287860151815501950193016104c7565b600284016000526020600020601f840160051c810160208510610563575b601f830160051c82018110610557575050610394565b60008155600101610541565b5080610541565b62461bcd60e51b815260206004820152600d60248201526c526563616c6c2065786973747360981b6044820152606490fd5b6001548110156105d35760016000527fb10e2d527612073b26eecdfd717e6a320cf44b4afac2b0732d9fcbe2b7fa0cf60190600090565b634e487b7160e01b600052603260045260246000fd5b919082519283825260005b848110610615575050826000602080949584010152601f8019910116010190565b6020818301810151848301820152016105f4565b90600182811c92168015610659575b602083101461064357565b634e487b7160e01b600052602260045260246000fd5b91607f1691610638565b60a0810190811067ffffffffffffffff82111761048f57604052565b90601f8019910116810190811067ffffffffffffffff82111761048f57604052565b906040519182600082546106b481610629565b9081845260209460019160018116908160001461072457506001146106e5575b5050506106e39250038361067f565b565b600090815285812095935091905b81831061070c5750506106e393508201013880806106d4565b855488840185015294850194879450918301916106f3565b925050506106e394925060ff191682840152151560051b8201013880806106d456fea2646970667358221220bf5d555c3928613c94f73fd0195470f1bff7874aaa50e6dfa82d1b123bd8059e64736f6c63430008180033",
  "linkReferences": {},
  "deployedLinkReferences": {}
}