{
  "_format": "hh-sol-artifact-1",
  "contractName": "DisputeResolution",
  "sourceName": "contracts/DisputeResolution.sol",
  "abi": [
    {
      "anonymous": false,
      "inputs": [
        {
          "indexed": true,
          "internalType": "bytes32",
          "name": "disputeId",
          "type": "bytes32"
        },
        {
          "indexed": false,
          "internalType": "address",
          "name": "complainant",
          "type": "address"
        }
      ],
      "name": "DisputeOpened",
      "type": "event"
    },
    {
      "anonymous": false,
      "inputs": [
        {
          "indexed": true,
          "internalType": "bytes32",
          "name": "disputeId",
          "type": "bytes32"
        },
        {
          "indexed": false,
          "internalType": "enum DisputeResolution.DisputeStatus",
          "name": "status",
          "type": "uint8"
        }
      ],
      "name": "DisputeResolved",
      "type": "event"
    },
    {
      "inputs": [
        {
          "internalType": "uint256",
          "name": "",
          "type": "uint256"
        }
      ],
      "name": "disputeIds",
      "outputs": [
        {
          "internalType": "bytes32",
          "name": "",
          "type": "bytes32"
        }
      ],
      "stateMutability": "view",
      "type": "function"
    },
    {
      "inputs": [
        {
          "internalType": "bytes32",
          "name": "",
          "type": "bytes32"
        }
      ],
      "name": "disputes",
      "outputs": [
        {
          "internalType": "uint256",
          "name": "transactionId",
          "type": "uint256"
        },
        {
          "internalType": "address",
          "name": "complainant",
          "type": "address"
        },
        {
          "internalType": "address",
          "name": "respondent",
          "type": "address"
        },
        {
          "internalType": "string",
          "name": "description",
          "type": "string"
        },
        {
          "internalType": "enum DisputeResolution.DisputeStatus",
          "name": "status",
          "type": "uint8"
        },
        {
          "internalType": "uint256",
          "name": "createdAt",
          "type": "uint256"
        },
        {
          "internalType": "uint256",
          "name": "resolvedAt",
          "type": "uint256"
        }
      ],
      "stateMutability": "view",
      "type": "function"
    },
    {
      "inputs": [
        {
          "internalType": "uint256",
          "name": "_txId",
          "type": "uint256"
        },
        {
          "internalType": "address",
          "name": "_respondent",
          "type": "address"
        },
        {
          "internalType": "string",
          "name": "_description",
          "type": "string"
        }
      ],
      "name": "openDispute",
      "outputs": [
        {
          "internalType": "bytes32",
          "name": "",
          "type": "bytes32"
        }
      ],
      "stateMutability": "nonpayable",
      "type": "function"
    },
    {
      "inputs": [
        {
          "internalType": "bytes32",
          "name": "_disputeId",
          "type": "bytes32"
        },
        {
          "internalType": "enum DisputeResolution.DisputeStatus",
          "name": "_status",
          "type": "uint8"
        }
      ],
      "name": "resolveDispute",
      "outputs": [],
      "stateMutability": "nonpayable",
      "type": "function"
    }
  ],
  "bytecode": "0x608080604052346100165761069b908161001c8239f35b600080fdfe608080604052600436101561001357600080fd5b60003560e01c90816311be199714610425575080634a21b81d146100fb578063acc8a85f146100c45763b641237c1461004b57600080fd5b346100bf5760403660031901126100bf5760043560243560048110156100bf5760207f0a168b993fc74606982b54f62facd64a9642fc31797b78c5b503b4116f3c838891836000526000825260406000206100a9826004830161064d565b6006429101556100bc60405180926105f3565ba2005b600080fd5b346100bf5760203660031901126100bf576004356001548110156100bf576100ed602091610600565b90546040519160031b1c8152f35b346100bf5760603660031901126100bf576001600160a01b0360243581811691600435918390036100bf5767ffffffffffffffff926044358481116100bf57366023820112156100bf57806004013585811161033b5760405191610169601f8301601f1916602001846105d1565b81835236602483830101116100bf578160009260246020930183860137830101526040519160208301938585523360601b60408501524260548501526054845260808401948486108887111761033b5785604052845190209561016085018681108982111761033b57604052855260a084019033825260c0850192835260e0850193845260006101008601524261012086015260006101408601528660005260006020526040600020955186558060018701925116916bffffffffffffffffffffffff60a01b928382541617905560028601925116908254161790555193845190811161033b5761025d6003840154610597565b601f81116103de575b50602094601f821160011461037257948192939495600092610367575b50508160011b916000199060031b1c19161760038301555b6101008101516004811015610351576006916102bd610140926004860161064d565b61012081015160058501550151910155600154906801000000000000000082101561033b576102f482600160209401600155610600565b81549060031b9083821b91600019901b1916179055807fe7b614d99462ab012c8191c9348164cd62a4aec6d211f42371fd1f0759e5c22083604051338152a2604051908152f35b634e487b7160e01b600052604160045260246000fd5b634e487b7160e01b600052602160045260246000fd5b015190508580610283565b601f198216956003850160005260206000209160005b8881106103c6575083600195969798106103ad575b505050811b01600383015561029b565b015160001960f88460031b161c1916905585808061039d565b91926020600181928685015181550194019201610388565b600384016000526020600020601f830160051c81016020841061041e575b601f830160051c82018110610412575050610266565b600081556001016103fc565b50806103fc565b346100bf576020806003193601126100bf576004356000526000815260406000209182549260018060a01b039060019382600183015416926002830154169484600384019160009083549361047985610597565b9485855286600182169182600014610575575050600114610536575b50506104ab9250979594979693929603846105d1565b60ff600482015416946006600583015492015492604051978896875282870152604086015260e060608601528351938460e087015260005b85811061051e5750505061050661010095600087868801015260808601906105f3565b60a084015260c0830152601f01601f19168101030190f35b818101830151898201610100015288965082016104e3565b85925060005281600020906000915b85831061055d5750506104ab93508201018980610495565b8054838b018501528994508693909201918101610545565b92509350506104ab94915060ff191682840152151560051b8201018980610495565b90600182811c921680156105c7575b60208310146105b157565b634e487b7160e01b600052602260045260246000fd5b91607f16916105a6565b90601f8019910116810190811067ffffffffffffffff82111761033b57604052565b9060048210156103515752565b6001548110156106375760016000527fb10e2d527612073b26eecdfd717e6a320cf44b4afac2b0732d9fcbe2b7fa0cf60190600090565b634e487b7160e01b600052603260045260246000fd5b9060048110156103515760ff8019835416911617905556fea26469706673582212203527d0bba58587fd8bf57f45ca30bfc6accc85fc2d1d53e960530a18c8877f7664736f6c63430008180033",
  "linkReferences": {},
  "deployedLinkReferences": {}
}