{
  "_format": "hh-sol-artifact-1",
  "contractName": "SupplyChainTracker",
  "sourceName": "contracts/SupplyChainTracker.sol",
  "abi": [
    {
      "inputs": [],
      "stateMutability": "nonpayable",
      "type": "constructor"
    },
    {
      "inputs": [
        {
          "internalType": "address",
          "name": "owner",
          "type": "address"
        }
      ],
      "name": "OwnableInvalidOwner",
      "type": "error"
    },
    {
      "inputs": [
        {
          "internalType": "address",
          "name": "account",
          "type": "address"
        }
      ],
      "name": "OwnableUnauthorizedAccount",
      "type": "error"
    },
    {
      "anonymous": false,
      "inputs": [
        {
          "indexed": true,
          "internalType": "uint256",
          "name": "checkpointId",
          "type": "uint256"
        },
        {
          "indexed": true,
          "internalType": "uint256",
          "name": "batchTokenId",
          "type": "uint256"
        },
        {
          "indexed": false,
          "internalType": "enum SupplyChainTracker.Stage",
          "name": "stage",
          "type": "uint8"
        },
        {
          "indexed": false,
          "internalType": "address",
          "name": "custodian",
          "type": "address"
        },
        {
          "indexed": false,
          "internalType": "uint256",
          "name": "timestamp",
          "type": "uint256"
        }
      ],
      "name": "CheckpointAdded",
      "type": "event"
    },
    {
      "anonymous": false,
      "inputs": [
        {
          "indexed": true,
          "internalType": "uint256",
          "name": "batchTokenId",
          "type": "uint256"
        },
        {
          "indexed": false,
          "internalType": "uint256",
          "name": "totalCheckpoints",
          "type": "uint256"
        },
        {
          "indexed": false,
          "internalType": "uint256",
          "name": "totalDuration",
          "type": "uint256"
        },
        {
          "indexed": false,
          "internalType": "uint256",
          "name": "timestamp",
          "type": "uint256"
        }
      ],
      "name": "JourneyCompleted",
      "type": "event"
    },
    {
      "anonymous": false,
      "inputs": [
        {
          "indexed": true,
          "internalType": "uint256",
          "name": "batchTokenId",
          "type": "uint256"
        },
        {
          "indexed": true,
          "internalType": "address",
          "name": "collector",
          "type": "address"
        },
        {
          "indexed": false,
          "internalType": "string",
          "name": "location",
          "type": "string"
        },
        {
          "indexed": false,
          "internalType": "uint256",
          "name": "timestamp",
          "type": "uint256"
        }
      ],
      "name": "JourneyStarted",
      "type": "event"
    },
    {
      "anonymous": false,
      "inputs": [
        {
          "indexed": true,
          "internalType": "address",
          "name": "previousOwner",
          "type": "address"
        },
        {
          "indexed": true,
          "internalType": "address",
          "name": "newOwner",
          "type": "address"
        }
      ],
      "name": "OwnershipTransferred",
      "type": "event"
    },
    {
      "anonymous": false,
      "inputs": [
        {
          "indexed": true,
          "internalType": "uint256",
          "name": "batchTokenId",
          "type": "uint256"
        },
        {
          "indexed": false,
          "internalType": "enum SupplyChainTracker.Stage",
          "name": "fromStage",
          "type": "uint8"
        },
        {
          "indexed": false,
          "internalType": "enum SupplyChainTracker.Stage",
          "name": "toStage",
          "type": "uint8"
        },
        {
          "indexed": false,
          "internalType": "address",
          "name": "custodian",
          "type": "address"
        },
        {
          "indexed": false,
          "internalType": "uint256",
          "name": "timestamp",
          "type": "uint256"
        }
      ],
      "name": "StageTransition",
      "type": "event"
    },
    {
      "inputs": [
        {
          "internalType": "uint256",
          "name": "_batchTokenId",
          "type": "uint256"
        },
        {
          "internalType": "enum SupplyChainTracker.Stage",
          "name": "_stage",
          "type": "uint8"
        },
        {
          "internalType": "string",
          "name": "_location",
          "type": "string"
        },
        {
          "internalType": "string",
          "name": "_coordinates",
          "type": "string"
        },
        {
          "internalType": "string",
          "name": "_description",
          "type": "string"
        },
        {
          "internalType": "string",
          "name": "_documentURI",
          "type": "string"
        },
        {
          "internalType": "bytes32",
          "name": "",
          "type": "bytes32"
        }
      ],
      "name": "addCheckpoint",
      "outputs": [
        {
          "internalType": "uint256",
          "name": "",
          "type": "uint256"
        }
      ],
      "stateMutability": "nonpayable",
      "type": "function"
    },
    {
      "inputs": [
        {
          "internalType": "uint256",
          "name": "_batchTokenId",
          "type": "uint256"
        }
      ],
      "name": "completeJourney",
      "outputs": [],
      "stateMutability": "nonpayable",
      "type": "function"
    },
    {
      "inputs": [
        {
          "internalType": "address",
          "name": "",
          "type": "address"
        },
        {
          "internalType": "uint256",
          "name": "",
          "type": "uint256"
        }
      ],
      "name": "custodianBatches",
      "outputs": [
        {
          "internalType": "uint256",
          "name": "",
          "type": "uint256"
        }
      ],
      "stateMutability": "view",
      "type": "function"
    },
    {
      "inputs": [
        {
          "internalType": "uint256",
          "name": "_batchTokenId",
          "type": "uint256"
        }
      ],
      "name": "getAllCheckpoints",
      "outputs": [
        {
          "components": [
            {
              "internalType": "uint256",
              "name": "id",
              "type": "uint256"
            },
            {
              "internalType": "uint256",
              "name": "batchTokenId",
              "type": "uint256"
            },
            {
              "internalType": "enum SupplyChainTracker.Stage",
              "name": "stage",
              "type": "uint8"
            },
            {
              "internalType": "address",
              "name": "custodian",
              "type": "address"
            },
            {
              "internalType": "string",
              "name": "location",
              "type": "string"
            },
            {
              "internalType": "string",
              "name": "locationCoordinates",
              "type": "string"
            },
            {
              "internalType": "uint256",
              "name": "timestamp",
              "type": "uint256"
            },
            {
              "internalType": "string",
              "name": "description",
              "type": "string"
            },
            {
              "internalType": "string",
              "name": "documentURI",
              "type": "string"
            },
            {
              "internalType": "bytes32",
              "name": "dataHash",
              "type": "bytes32"
            }
          ],
          "internalType": "struct SupplyChainTracker.Checkpoint[]",
          "name": "",
          "type": "tuple[]"
        }
      ],
      "stateMutability": "view",
      "type": "function"
    },
    {
      "inputs": [
        {
          "internalType": "uint256",
          "name": "_batchTokenId",
          "type": "uint256"
        },
        {
          "internalType": "uint256",
          "name": "_index",
          "type": "uint256"
        }
      ],
      "name": "getCheckpoint",
      "outputs": [
        {
          "components": [
            {
              "internalType": "uint256",
              "name": "id",
              "type": "uint256"
            },
            {
              "internalType": "uint256",
              "name": "batchTokenId",
              "type": "uint256"
            },
            {
              "internalType": "enum SupplyChainTracker.Stage",
              "name": "stage",
              "type": "uint8"
            },
            {
              "internalType": "address",
              "name": "custodian",
              "type": "address"
            },
            {
              "internalType": "string",
              "name": "location",
              "type": "string"
            },
            {
              "internalType": "string",
              "name": "locationCoordinates",
              "type": "string"
            },
            {
              "internalType": "uint256",
              "name": "timestamp",
              "type": "uint256"
            },
            {
              "internalType": "string",
              "name": "description",
              "type": "string"
            },
            {
              "internalType": "string",
              "name": "documentURI",
              "type": "string"
            },
            {
              "internalType": "bytes32",
              "name": "dataHash",
              "type": "bytes32"
            }
          ],
          "internalType": "struct SupplyChainTracker.Checkpoint",
          "name": "",
          "type": "tuple"
        }
      ],
      "stateMutability": "view",
      "type": "function"
    },
    {
      "inputs": [],
      "name": "getCheckpointCount",
      "outputs": [
        {
          "internalType": "uint256",
          "name": "",
          "type": "uint256"
        }
      ],
      "stateMutability": "view",
      "type": "function"
    },
    {
      "inputs": [
        {
          "internalType": "address",
          "name": "_custodian",
          "type": "address"
        }
      ],
      "name": "getCustodianBatches",
      "outputs": [
        {
          "internalType": "uint256[]",
          "name": "",
          "type": "uint256[]"
        }
      ],
      "stateMutability": "view",
      "type": "function"
    },
    {
      "inputs": [
        {
          "internalType": "uint256",
          "name": "_batchTokenId",
          "type": "uint256"
        }
      ],
      "name": "getJourney",
      "outputs": [
        {
          "components": [
            {
              "internalType": "uint256",
              "name": "batchTokenId",
              "type": "uint256"
            },
            {
              "components": [
                {
                  "internalType": "uint256",
                  "name": "id",
                  "type": "uint256"
                },
                {
                  "internalType": "uint256",
                  "name": "batchTokenId",
                  "type": "uint256"
                },
                {
                  "internalType": "enum SupplyChainTracker.Stage",
                  "name": "stage",
                  "type": "uint8"
                },
                {
                  "internalType": "address",
                  "name": "custodian",
                  "type": "address"
                },
                {
                  "internalType": "string",
                  "name": "location",
                  "type": "string"
                },
                {
                  "internalType": "string",
                  "name": "locationCoordinates",
                  "type": "string"
                },
                {
                  "internalType": "uint256",
                  "name": "timestamp",
                  "type": "uint256"
                },
                {
                  "internalType": "string",
                  "name": "description",
                  "type": "string"
                },
                {
                  "internalType": "string",
                  "name": "documentURI",
                  "type": "string"
                },
                {
                  "internalType": "bytes32",
                  "name": "dataHash",
                  "type": "bytes32"
                }
              ],
              "internalType": "struct SupplyChainTracker.Checkpoint[]",
              "name": "checkpoints",
              "type": "tuple[]"
            },
            {
              "internalType": "enum SupplyChainTracker.Stage",
              "name": "currentStage",
              "type": "uint8"
            },
            {
              "internalType": "address",
              "name": "originalCollector",
              "type": "address"
            },
            {
              "internalType": "uint256",
              "name": "startTime",
              "type": "uint256"
            },
            {
              "internalType": "uint256",
              "name": "lastUpdateTime",
              "type": "uint256"
            },
            {
              "internalType": "bool",
              "name": "isComplete",
              "type": "bool"
            }
          ],
          "internalType": "struct SupplyChainTracker.Journey",
          "name": "",
          "type": "tuple"
        }
      ],
      "stateMutability": "view",
      "type": "function"
    },
    {
      "inputs": [
        {
          "internalType": "uint256",
          "name": "_batchTokenId",
          "type": "uint256"
        }
      ],
      "name": "getJourneyTime",
      "outputs": [
        {
          "internalType": "uint256",
          "name": "startTime",
          "type": "uint256"
        },
        {
          "internalType": "uint256",
          "name": "lastUpdate",
          "type": "uint256"
        },
        {
          "internalType": "uint256",
          "name": "duration",
          "type": "uint256"
        }
      ],
      "stateMutability": "view",
      "type": "function"
    },
    {
      "inputs": [
        {
          "internalType": "uint256",
          "name": "_batchTokenId",
          "type": "uint256"
        },
        {
          "internalType": "enum SupplyChainTracker.Stage",
          "name": "_stage",
          "type": "uint8"
        }
      ],
      "name": "getStageDuration",
      "outputs": [
        {
          "internalType": "uint256",
          "name": "",
          "type": "uint256"
        }
      ],
      "stateMutability": "view",
      "type": "function"
    },
    {
      "inputs": [
        {
          "internalType": "uint256",
          "name": "",
          "type": "uint256"
        }
      ],
      "name": "journeys",
      "outputs": [
        {
          "internalType": "uint256",
          "name": "batchTokenId",
          "type": "uint256"
        },
        {
          "internalType": "enum SupplyChainTracker.Stage",
          "name": "currentStage",
          "type": "uint8"
        },
        {
          "internalType": "address",
          "name": "originalCollector",
          "type": "address"
        },
        {
          "internalType": "uint256",
          "name": "startTime",
          "type": "uint256"
        },
        {
          "internalType": "uint256",
          "name": "lastUpdateTime",
          "type": "uint256"
        },
        {
          "internalType": "bool",
          "name": "isComplete",
          "type": "bool"
        }
      ],
      "stateMutability": "view",
      "type": "function"
    },
    {
      "inputs": [],
      "name": "nextCheckpointId",
      "outputs": [
        {
          "internalType": "uint256",
          "name": "",
          "type": "uint256"
        }
      ],
      "stateMutability": "view",
      "type": "function"
    },
    {
      "inputs": [],
      "name": "owner",
      "outputs": [
        {
          "internalType": "address",
          "name": "",
          "type": "address"
        }
      ],
      "stateMutability": "view",
      "type": "function"
    },
    {
      "inputs": [],
      "name": "renounceOwnership",
      "outputs": [],
      "stateMutability": "nonpayable",
      "type": "function"
    },
    {
      "inputs": [
        {
          "internalType": "uint256",
          "name": "",
          "type": "uint256"
        },
        {
          "internalType": "enum SupplyChainTracker.Stage",
          "name": "",
          "type": "uint8"
        }
      ],
      "name": "stageDurations",
      "outputs": [
        {
          "internalType": "uint256",
          "name": "",
          "type": "uint256"
        }
      ],
      "stateMutability": "view",
      "type": "function"
    },
    {
      "inputs": [
        {
          "internalType": "uint256",
          "name": "_batchTokenId",
          "type": "uint256"
        },
        {
          "internalType": "string",
          "name": "_location",
          "type": "string"
        },
        {
          "internalType": "string",
          "name": "_coordinates",
          "type": "string"
        },
        {
          "internalType": "string",
          "name": "_description",
          "type": "string"
        }
      ],
      "name": "startJourney",
      "outputs": [
        {
          "internalType": "uint256",
          "name": "",
          "type": "uint256"
        }
      ],
      "stateMutability": "nonpayable",
      "type": "function"
    },
    {
      "inputs": [
        {
          "internalType": "address",
          "name": "newOwner",
          "type": "address"
        }
      ],
      "name": "transferOwnership",
      "outputs": [],
      "stateMutability": "nonpayable",
      "type": "function"
    },
    {
      "inputs": [
        {
          "internalType": "uint256",
          "name": "_batchTokenId",
          "type": "uint256"
        }
      ],
      "name": "verifyJourney",
      "outputs": [
        {
          "internalType": "bool",
          "name": "isValid",
          "type": "bool"
        },
        {
          "internalType": "uint256",
          "name": "checkpointCount",
          "type": "uint256"
        },
        {
          "internalType": "enum SupplyChainTracker.Stage",
          "name": "currentStage",
          "type": "uint8"
        },
        {
          "internalType": "uint256",
          "name": "totalDuration",
          "type": "uint256"
        }
      ],
      "stateMutability": "view",
      "type": "function"
    }
  ],
  "bytecode": "0x6080806040523461007f5733156100695760008054336001600160a01b03198216811783556040519290916001600160a01b0316907f8be0079c531659141344cd1fd0a4f28419497f9722a3daafe3b4186f6b6457e09080a36001600455611e5190816100858239f35b631e4fbdf760e01b815260006004820152602490fd5b600080fdfe6080604052600436101561001257600080fd5b60003560e01c80630130cf161461189c5780630c369f17146118135780630df1c22d146117bd578063229ec4521461179f57806324b4123f146117745780632a2590331461100f57806335ff096914610fcc578063625f850914610f9e578063644438eb14610f9e57806369abfa5d14610e31578063715018a614610dd85780638da5cb5b14610daf5780638df5a9fa14610d36578063b544303814610c17578063b545a56614610b63578063c097227d14610a7c578063f0995ace146101755763f2fde38b146100e257600080fd5b34610170576020366003190112610170576100fb6118f5565b610103611def565b6001600160a01b0390811690811561015757600054826bffffffffffffffffffffffff60a01b821617600055167f8be0079c531659141344cd1fd0a4f28419497f9722a3daafe3b4186f6b6457e0600080a3005b604051631e4fbdf760e01b815260006004820152602490fd5b600080fd5b346101705760e03660031901126101705760076024351015610170576044356001600160401b038111610170576101b090369060040161199e565b6064356001600160401b038111610170576101cf90369060040161199e565b6084356001600160401b038111610170576101ee90369060040161199e565b9160a4356001600160401b0381116101705761020e90369060040161199e565b91600435600052600160205260406000209261022f60038501541515611d84565b60ff600585015416610a375760ff60028501541660078110156105ec57806024350361097a575b50600454946000198614610602576001860160045560043560005260016020526001604060002001926040519461028c86611961565b87865260043560208701526102a660243560408801611b95565b336060870152608086015260a08501524260c085015260e084015261010083015260006101208301528054600160401b811015610618576102ec91600182018155611dc6565b91909161096457805182556020810151600183015560408101516002830160078210156105ec576103206103479282611b7d565b60608301518154610100600160a81b03191660089190911b610100600160a81b0316179055565b60808101518051906001600160401b03821161061857819061036c6003860154611ba1565b601f8111610911575b50602090601f831160011461089f57600092610894575b50508160011b916000199060031b1c19161760038301555b60a08101518051906001600160401b0382116106185781906103c96004860154611ba1565b601f8111610841575b50602090601f83116001146107cf576000926107c4575b50508160011b916000199060031b1c19161760048301555b60c0810151600583015560e08101518051906001600160401b0382116106185781906104306006860154611ba1565b601f8111610771575b50602090601f83116001146106ff576000926106f4575b50508160011b916000199060031b1c19161760068301555b6101008101518051906001600160401b0382116106185761048c6007850154611ba1565b601f81116106ad575b50602090601f8311600114610639579180600894926101209460009261062e575b50508160011b916000199060031b1c19161760078501555b01519101553360005260036020526040600020908154600160401b81101561061857610504816001948561051e9401815561190b565b6004359082549060031b91821b91600019901b1916179055565b60405161052d81602435611939565b336020820152426040820152837fb116500a92538fa2712f61befbb9f1841d4d51b22f4a1340e3fbc0048f419eb2606060043593a3426004820155018054906002821015610581575b602083604051908152f35b6000198201918211610602576105a09161059a91611dc6565b50611c80565b906105af60c083015142611b70565b600435600052600260205260408060002093015160078110156105ec576105db6105e391602095611b58565b918254611de2565b90559082610576565b634e487b7160e01b600052602160045260246000fd5b634e487b7160e01b600052601160045260246000fd5b634e487b7160e01b600052604160045260246000fd5b0151905088806104b6565b90601f198316916007860160005260206000209260005b818110610695575092600192859261012096600898961061067c575b505050811b0160078501556104ce565b015160001960f88460031b161c1916905588808061066c565b92936020600181928786015181550195019301610650565b600785016000526020600020601f840160051c8101602085106106ed575b601f830160051c820181106106e1575050610495565b600081556001016106cb565b50806106cb565b015190508680610450565b9250600685016000526020600020906000935b601f1984168510610756576001945083601f1981161061073d575b505050811b016006830155610468565b015160001960f88460031b161c1916905586808061072d565b81810151835560209485019460019093019290910190610712565b909150600685016000526020600020601f840160051c8101602085106107bd575b90849392915b601f830160051c820181106107ae575050610439565b60008155859450600101610798565b5080610792565b0151905086806103e9565b9250600485016000526020600020906000935b601f1984168510610826576001945083601f1981161061080d575b505050811b016004830155610401565b015160001960f88460031b161c191690558680806107fd565b818101518355602094850194600190930192909101906107e2565b909150600485016000526020600020601f840160051c81016020851061088d575b90849392915b601f830160051c8201811061087e5750506103d2565b60008155859450600101610868565b5080610862565b01519050868061038c565b9250600385016000526020600020906000935b601f19841685106108f6576001945083601f198116106108dd575b505050811b0160038301556103a4565b015160001960f88460031b161c191690558680806108cd565b818101518355602094850194600190930192909101906108b2565b909150600385016000526020600020601f840160051c81016020851061095d575b90849392915b601f830160051c8201811061094e575050610375565b60008155859450600101610938565b5080610932565b634e487b7160e01b600052600060045260246000fd5b6001810180821161060257602435036109f25761099a6040518092611939565b6109a960208201602435611939565b3360408201524260608201527f3536adf96f3f4ff81a6ca5de44dee7b333bc274a83f6aff7e777bfec326d72a4608060043592a26109ec60243560028601611b7d565b85610256565b60405162461bcd60e51b815260206004820152601960248201527f496e76616c69642073746167652070726f6772657373696f6e000000000000006044820152606490fd5b60405162461bcd60e51b815260206004820152601860248201527f4a6f75726e657920616c726561647920636f6d706c65746500000000000000006044820152606490fd5b3461017057604036600319011261017057604051602435600435610a9f83611961565b600083526000610120602094828682015282604082015282606082015260606080820152606060a08201528260c0820152606060e0820152606061010082015201528060005260018352600160406000200154821015610b2e57610b159161059a91600052600184526001604060002001611dc6565b90610b2a604051928284938452830190611a34565b0390f35b60405162461bcd60e51b815260048101849052600d60248201526c092dcecc2d8d2c840d2dcc8caf609b1b6044820152606490fd5b3461017057602080600319360112610170576001600160a01b03610b856118f5565b1660005260038152604060002060405190818382549182815201908192600052846000209060005b86828210610c03578686610bc38288038361197d565b604051928392818401908285525180915260408401929160005b828110610bec57505050500390f35b835185528695509381019392810192600101610bdd565b835485529093019260019283019201610bad565b346101705760208060031936011261017057600060c0604051610c3981611946565b8281526060848201528260408201528260608201528260808201528260a0820152015260043560005260018152604060002060405190610c7882611946565b80548252610c8860018201611d1d565b8383019081526002820154916040840192610ca660ff821685611b95565b60018060a01b0380606087019260081c16825260038301549160808701928352610d17610d0b60ff600560048801549760a08c019889520154169660c08a0197151588526040519a8b9a818c5251908b01525160e060408b01526101008a0190611adc565b96516060890190611939565b511660808601525160a08501525160c084015251151560e08301520390f35b3461017057602036600319011261017057600435600052600160205260c06040600020805490600281015490600381015460ff600560048401549301541692604051948552610d8b6020860160ff8316611939565b60081c6001600160a01b0316604085015260608401526080830152151560a0820152f35b34610170576000366003190112610170576000546040516001600160a01b039091168152602090f35b3461017057600036600319011261017057610df1611def565b600080546001600160a01b0319811682556001600160a01b03167f8be0079c531659141344cd1fd0a4f28419497f9722a3daafe3b4186f6b6457e08280a3005b346101705760203660031901126101705760043580600052600160205260406000206003810154610e63811515611d84565b6005820180549160ff8316610f6657600192610e96928460ff198093161790556006600286019182541617905542611b70565b910190815480610eed575b507fd24d817327bac0c425a6b5e8a9100af6c3b8716cda675c9d87bf264a202547e4915490610ee86040519283924291846040919493926060820195825260208201520152565b0390a2005b60001981019081116106025761059a610f069184611dc6565b91610f1560c084015142611b70565b84600052600260205260408060002094015160078110156105ec576105db610f5e917fd24d817327bac0c425a6b5e8a9100af6c3b8716cda675c9d87bf264a202547e496611b58565b905591610ea1565b60405162461bcd60e51b815260206004820152601060248201526f416c726561647920636f6d706c65746560801b6044820152606490fd5b34610170576020610fc3610fb136611b39565b90600052600283526040600020611b58565b54604051908152f35b34610170576020366003190112610170576004356000526001602052610b2a610ffb6001604060002001611d1d565b604051918291602083526020830190611adc565b34610170576080366003190112610170576024356001600160401b0381116101705761103f90369060040161199e565b6044356001600160401b0381116101705761105e90369060040161199e565b6064356001600160401b0381116101705761107d90369060040161199e565b9060043560005260016020526003604060002001546117365760043560008181526001602052604090209081556002810180546001600160a81b0319163360081b610100600160a81b031617905542600382015560044291015560405191602083018381106001600160401b038211176106185760405260008352600454926000198414610602576001840160045560043560005260016020526001604060002001916040519361112d85611961565b85855260043560208601526000604086015233606086015286608086015260a08501524260c085015260e084015261010083015260006101208301528054600160401b8110156106185761118691600182018155611dc6565b91909161096457805182556020810151600183015560408101516002830160078210156105ec576103206111ba9282611b7d565b60808101518051906001600160401b0382116106185781906111df6003860154611ba1565b601f81116116e3575b50602090601f831160011461167157600092611666575b50508160011b916000199060031b1c19161760038301555b60a08101518051906001600160401b03821161061857819061123c6004860154611ba1565b601f8111611613575b50602090601f83116001146115a157600092611596575b50508160011b916000199060031b1c19161760048301555b60c0810151600583015560e08101518051906001600160401b0382116106185781906112a36006860154611ba1565b601f8111611543575b50602090601f83116001146114d1576000926114c6575b50508160011b916000199060031b1c19161760068301555b6101008101518051906001600160401b038211610618576112ff6007850154611ba1565b601f811161147f575b50602090601f831160011461140b5791806008949261012094600092611400575b50508160011b916000199060031b1c19161760078501555b01519101553360005260036020526040600020918254600160401b811015610618576105048160209560016113789401815561190b565b604051600081523384820152426040820152827fb116500a92538fa2712f61befbb9f1841d4d51b22f4a1340e3fbc0048f419eb2606060043593a36113c8604051916040835260408301906119f4565b42848301527fb142cf0fddec887a2983e922a2098b028dfd64c47d8533a84e71de5711873083339280600435930390a3604051908152f35b015190508880611329565b90601f198316916007860160005260206000209260005b818110611467575092600192859261012096600898961061144e575b505050811b016007850155611341565b015160001960f88460031b161c1916905588808061143e565b92936020600181928786015181550195019301611422565b600785016000526020600020601f840160051c8101602085106114bf575b601f830160051c820181106114b3575050611308565b6000815560010161149d565b508061149d565b0151905086806112c3565b9250600685016000526020600020906000935b601f1984168510611528576001945083601f1981161061150f575b505050811b0160068301556112db565b015160001960f88460031b161c191690558680806114ff565b818101518355602094850194600190930192909101906114e4565b909150600685016000526020600020601f840160051c81016020851061158f575b90849392915b601f830160051c820181106115805750506112ac565b6000815585945060010161156a565b5080611564565b01519050868061125c565b9250600485016000526020600020906000935b601f19841685106115f8576001945083601f198116106115df575b505050811b016004830155611274565b015160001960f88460031b161c191690558680806115cf565b818101518355602094850194600190930192909101906115b4565b909150600485016000526020600020601f840160051c81016020851061165f575b90849392915b601f830160051c82018110611650575050611245565b6000815585945060010161163a565b5080611634565b0151905086806111ff565b9250600385016000526020600020906000935b601f19841685106116c8576001945083601f198116106116af575b505050811b016003830155611217565b015160001960f88460031b161c1916905586808061169f565b81810151835560209485019460019093019290910190611684565b909150600385016000526020600020601f840160051c81016020851061172f575b90849392915b601f830160051c820181106117205750506111e8565b6000815585945060010161170a565b5080611704565b60405162461bcd60e51b81526020600482015260166024820152754a6f75726e657920616c72656164792065786973747360501b6044820152606490fd5b3461017057600036600319011261017057600454600019810190811161060257602090604051908152f35b34610170576000366003190112610170576020600454604051908152f35b3461017057602036600319011261017057600435600052600160205260406000206004600382015491015490610b2a6117f68284611b70565b604051938493846040919493926060820195825260208201520152565b346101705760203660031901126101705760043560005260016020526080604060002060038101549061188460018201549160ff600282015416908460ff60058301541660001461188b57600461186b920154611b70565b925b604051941515855260208501526040840190611939565b6060820152f35b611896915042611b70565b9261186d565b34610170576040366003190112610170576118b56118f5565b6001600160a01b0316600090815260036020526040902080546024359190821015610170576020916118e69161190b565b90549060031b1c604051908152f35b600435906001600160a01b038216820361017057565b80548210156119235760005260206000200190600090565b634e487b7160e01b600052603260045260246000fd5b9060078210156105ec5752565b60e081019081106001600160401b0382111761061857604052565b61014081019081106001600160401b0382111761061857604052565b90601f801991011681019081106001600160401b0382111761061857604052565b81601f82011215610170578035906001600160401b03821161061857604051926119d2601f8401601f19166020018561197d565b8284526020838301011161017057816000926020809301838601378301015290565b919082519283825260005b848110611a20575050826000602080949584010152601f8019910116010190565b6020818301810151848301820152016119ff565b90611ace611aba611a9e611a8c6101408651865260208701516020870152611a6460408801516040880190611939565b6060878101516001600160a01b031690870152608080880151908701829052908601906119f4565b60a086015185820360a08701526119f4565b60c085015160c085015260e085015184820360e08601526119f4565b6101008085015190848303908501526119f4565b916101208091015191015290565b90808251908181526020809101926020808460051b8301019501936000915b848310611b0b5750505050505090565b9091929394958480611b29600193601f198682030187528a51611a34565b9801930193019194939290611afb565b6040906003190112610170576004359060243560078110156101705790565b9060078110156105ec57600052602052604060002090565b9190820391821161060257565b9060078110156105ec5760ff80198354169116179055565b60078210156105ec5752565b90600182811c92168015611bd1575b6020831014611bbb57565b634e487b7160e01b600052602260045260246000fd5b91607f1691611bb0565b90604051918260008254611bee81611ba1565b90818452602094600191600181169081600014611c5e5750600114611c1f575b505050611c1d9250038361197d565b565b600090815285812095935091905b818310611c46575050611c1d9350820101388080611c0e565b85548884018501529485019487945091830191611c2d565b92505050611c1d94925060ff191682840152151560051b820101388080611c0e565b90604051611c8d81611961565b6101206008829480548452600181015460208501526002810154611cb760ff821660408701611b95565b821c6001600160a01b03166060850152611cd360038201611bdb565b6080850152611ce460048201611bdb565b60a0850152600581015460c0850152611cff60068201611bdb565b60e0850152611d1060078201611bdb565b6101008501520154910152565b9081546001600160401b0381116106185760209260405193611d4560208460051b018661197d565b828552602085019160005260206000206000925b848410611d67575050505050565b600983600192611d7685611c80565b815201920193019290611d59565b15611d8b57565b60405162461bcd60e51b8152602060048201526013602482015272129bdd5c9b995e481b9bdd081cdd185c9d1959606a1b6044820152606490fd5b8054821015611923576000526009602060002091020190600090565b9190820180921161060257565b6000546001600160a01b03163303611e0357565b60405163118cdaa760e01b8152336004820152602490fdfea2646970667358221220a21afeec5c5d65a284b9a42e7d51afcf8f5e4d98711ceff5767943d064cd2e1864736f6c63430008180033",
  "linkReferences": {},
  "deployedLinkReferences": {}
}