{
  "_format": "hh-sol-artifact-1",
  "contractName": "HarvestTracker",
  "sourceName": "contracts/HarvestTracker.sol",
  "abi": [
    {
      "anonymous": false,
      "inputs": [
        {
          "indexed": true,
          "internalType": "bytes32",
          "name": "harvestId",
          "type": "bytes32"
        },
        {
          "indexed": true,
          "internalType": "address",
          "name": "farmer",
          "type": "address"
        }
      ],
      "name": "HarvestRecorded",
      "type": "event"
    },
    {
      "inputs": [
        {
          "internalType": "bytes32",
          "name": "harvestId",
          "type": "bytes32"
        }
      ],
      "name": "getHarvest",
      "outputs": [
        {
          "components": [
            {
              "internalType": "bytes32",
              "name": "harvestId",
              "type": "bytes32"
            },
            {
              "internalType": "address",
              "name": "farmer",
              "type": "address"
            },
            {
              "internalType": "bytes32",
              "name": "herbId",
              "type": "bytes32"
            },
            {
              "internalType": "uint256",
              "name": "quantity",
              "type": "uint256"
            },
            {
              "internalType": "uint256",
              "name": "harvestDate",
              "type": "uint256"
            },
            {
              "internalType": "string",
              "name": "location",
              "type": "string"
            }
          ],
          "internalType": "struct HarvestTracker.Harvest",
          "name": "",
          "type": "tuple"
        }
      ],
      "stateMutability": "view",
      "type": "function"
    },
    {
      "inputs": [
        {
          "internalType": "bytes32",
          "name": "",
          "type": "bytes32"
        }
      ],
      "name": "harvests",
      "outputs": [
        {
          "internalType": "bytes32",
          "name": "harvestId",
          "type": "bytes32"
        },
        {
          "internalType": "address",
          "name": "farmer",
          "type": "address"
        },
        {
          "internalType": "bytes32",
          "name": "herbId",
          "type": "bytes32"
        },
        {
          "internalType": "uint256",
          "name": "quantity",
          "type": "uint256"
        },
        {
          "internalType": "uint256",
          "name": "harvestDate",
          "type": "uint256"
        },
        {
          "internalType": "string",
          "name": "location",
          "type": "string"
        }
      ],
      "stateMutability": "view",
      "type": "function"
    },
    {
      "inputs": [
        {
          "internalType": "bytes32",
          "name": "harvestId",
          "type": "bytes32"
        },
        {
          "internalType": "bytes32",
          "name": "herbId",
          "type": "bytes32"
        },
        {
          "internalType": "uint256",
          "name": "quantity",
          "type": "uint256"
        },
        {
          "internalType": "string",
          "name": "location",
          "type": "string"
        }
      ],
      "name": "recordHarvest",
      "outputs": [],
      "stateMutability": "nonpayable",
      "type": "function"
    }
  ],
  "bytecode": "0x60808060405234610016576105bb908161001c8239f35b600080fdfe6080604052600436101561001257600080fd5b60003560e01c8063012defec146103aa578063ba444273146102ba5763f463af021461003d57600080fd5b346102b55760803660031901126102b55760043567ffffffffffffffff606435116102b5573660236064350112156102b55767ffffffffffffffff60643560040135116102b557366024606435600401356064350101116102b5576040516100a481610462565b81815233602082015260243560408201526044356060820152426080820152604051906100e16020601f19601f606435600401350116018361047e565b606435600481013580845290602401602084013760006020606435600401358401015260a081019182528260005260006020526005604060002082518155608060019384830160018060a01b036020830151166bffffffffffffffffffffffff60a01b82541617905560408101516002840155606081015160038401550151600482015501915180519067ffffffffffffffff821161029f576101848454610428565b601f8111610254575b50602090601f83116001146101f0579282939183926000946101e5575b50501b916000199060031b1c19161790555b33907f0af5a5c13398604140bb08fc5f97fbbc9de861a1e8fb71386844947276cb672d600080a3005b0151925038806101aa565b90601f19831691856000528360206000209360005b8782821061023b57505010610222575b505050811b0190556101bc565b015160001960f88460031b161c19169055388080610215565b8486015187559095019460209485019487935001610205565b846000526020600020601f840160051c81019160208510610295575b601f0160051c019084905b82811061028957505061018d565b6000815501849061027b565b9091508190610270565b634e487b7160e01b600052604160045260246000fd5b600080fd5b346102b5576020806003193601126102b557606060a06040516102dc81610462565b60008152600084820152600060408201526000838201526000608082015201526004356000526000815260406000206103a66040519161031b83610462565b8054835260018060a01b0390816001820154169185850192835260028201546040860190815260038301549160608701928352610366600560048601549560808a01968752016104a0565b9460a08801958652604051988998818a525190890152511660408701525160608601525160808501525160a08401525160c08084015260e0830190610545565b0390f35b346102b55760203660031901126102b5576004356000526000602052604060002080546103a660018060a01b036001840154169260028101549060038101546103fa6005600484015493016104a0565b926040519687968752602087015260408601526060850152608084015260c060a084015260c0830190610545565b90600182811c92168015610458575b602083101461044257565b634e487b7160e01b600052602260045260246000fd5b91607f1691610437565b60c0810190811067ffffffffffffffff82111761029f57604052565b90601f8019910116810190811067ffffffffffffffff82111761029f57604052565b906040519182600082546104b381610428565b9081845260209460019160018116908160001461052357506001146104e4575b5050506104e29250038361047e565b565b600090815285812095935091905b81831061050b5750506104e293508201013880806104d3565b855488840185015294850194879450918301916104f2565b925050506104e294925060ff191682840152151560051b8201013880806104d3565b919082519283825260005b848110610571575050826000602080949584010152601f8019910116010190565b60208183018101518483018201520161055056fea2646970667358221220a1f9fd6db3533d7c951c27fae4df033de717dce57d44884e5ac908f5574e1a2064736f6c63430008180033",
  "linkReferences": {},
  "deployedLinkReferences": {}
}