{
  "_format": "hh-sol-artifact-1",
  "contractName": "WeatherData",
  "sourceName": "contracts/WeatherData.sol",
  "abi": [
    {
      "inputs": [
        {
          "internalType": "int256",
          "name": "_temp",
          "type": "int256"
        },
        {
          "internalType": "uint256",
          "name": "_humidity",
          "type": "uint256"
        },
        {
          "internalType": "uint256",
          "name": "_rainfall",
          "type": "uint256"
        }
      ],
      "name": "recordWeather",
      "outputs": [],
      "stateMutability": "nonpayable",
      "type": "function"
    },
    {
      "inputs": [
        {
          "internalType": "address",
          "name": "",
          "type": "address"
        },
        {
          "internalType": "uint256",
          "name": "",
          "type": "uint256"
        }
      ],
      "name": "weatherData",
      "outputs": [
        {
          "internalType": "int256",
          "name": "temperature",
          "type": "int256"
        },
        {
          "internalType": "uint256",
          "name": "humidity",
          "type": "uint256"
        },
        {
          "internalType": "uint256",
          "name": "rainfall",
          "type": "uint256"
        },
        {
          "internalType": "uint256",
          "name": "timestamp",
          "type": "uint256"
        }
      ],
      "stateMutability": "view",
      "type": "function"
    }
  ],
  "bytecode": "0x60808060405234610016576101f2908161001c8239f35b600080fdfe6040608081526004908136101561001557600080fd5b600090813560e01c8063258bbe471461010f5763dd73ed2f1461003757600080fd5b3461010b57606036600319011261010b57338252816020528082208151916080830183811067ffffffffffffffff8211176100f8578152843583526020830190602435825283019060443582526060840192428452805490680100000000000000008210156100e557906100b09160018201815561018a565b9490946100d3576003949596505185555160018501555160028401555191015580f35b634e487b7160e01b8652858752602486fd5b634e487b7160e01b875260418852602487fd5b634e487b7160e01b855260418652602485fd5b5080fd5b508234610186578160031936011261018657356001600160a01b0381169290839003610183576024359281528060205281812090815484101561018357506080926101599161018a565b50908154916001810154916003600283015492015492815194855260208501528301526060820152f35b80fd5b8280fd5b80548210156101a65760005260206000209060021b0190600090565b634e487b7160e01b600052603260045260246000fdfea2646970667358221220ae14654bedd3a5f287d46c0cd68c84ef57680ffdaf59fc1b0abb7c5555714a8664736f6c63430008180033",
  "linkReferences": {},
  "deployedLinkReferences": {}
}