{
  "_format": "hh-sol-artifact-1",
  "contractName": "SeasonManager",
  "sourceName": "contracts/SeasonManager.sol",
  "abi": [
    {
      "anonymous": false,
      "inputs": [
        {
          "indexed": false,
          "internalType": "uint256",
          "name": "id",
          "type": "uint256"
        },
        {
          "indexed": false,
          "internalType": "string",
          "name": "name",
          "type": "string"
        },
        {
          "indexed": false,
          "internalType": "uint256",
          "name": "start",
          "type": "uint256"
        },
        {
          "indexed": false,
          "internalType": "uint256",
          "name": "end",
          "type": "uint256"
        }
      ],
      "name": "SeasonCreated",
      "type": "event"
    },
    {
      "anonymous": false,
      "inputs": [
        {
          "indexed": false,
          "internalType": "uint256",
          "name": "id",
          "type": "uint256"
        }
      ],
      "name": "SeasonStarted",
      "type": "event"
    },
    {
      "inputs": [
        {
          "internalType": "string",
          "name": "_name",
          "type": "string"
        },
        {
          "internalType": "uint256",
          "name": "_start",
          "type": "uint256"
        },
        {
          "internalType": "uint256",
          "name": "_end",
          "type": "uint256"
        }
      ],
      "name": "createSeason",
      "outputs": [
        {
          "internalType": "uint256",
          "name": "",
          "type": "uint256"
        }
      ],
      "stateMutability": "nonpayable",
      "type": "function"
    },
    {
      "inputs": [],
      "name": "currentSeasonId",
      "outputs": [
        {
          "internalType": "uint256",
          "name": "",
          "type": "uint256"
        }
      ],
      "stateMutability": "view",
      "type": "function"
    },
    {
      "inputs": [],
      "name": "getCurrentSeason",
      "outputs": [
        {
          "components": [
            {
              "internalType": "string",
              "name": "name",
              "type": "string"
            },
            {
              "internalType": "uint256",
              "name": "startTime",
              "type": "uint256"
            },
            {
              "internalType": "uint256",
              "name": "endTime",
              "type": "uint256"
            },
            {
              "internalType": "bool",
              "name": "active",
              "type": "bool"
            }
          ],
          "internalType": "struct SeasonManager.Season",
          "name": "",
          "type": "tuple"
        }
      ],
      "stateMutability": "view",
      "type": "function"
    },
    {
      "inputs": [
        {
          "internalType": "uint256",
          "name": "",
          "type": "uint256"
        }
      ],
      "name": "seasons",
      "outputs": [
        {
          "internalType": "string",
          "name": "name",
          "type": "string"
        },
        {
          "internalType": "uint256",
          "name": "startTime",
          "type": "uint256"
        },
        {
          "internalType": "uint256",
          "name": "endTime",
          "type": "uint256"
        },
        {
          "internalType": "bool",
          "name": "active",
          "type": "bool"
        }
      ],
      "stateMutability": "view",
      "type": "function"
    },
    {
      "inputs": [
        {
          "internalType": "uint256",
          "name": "_id",
          "type": "uint256"
        }
      ],
      "name": "startSeason",
      "outputs": [],
      "stateMutability": "nonpayable",
      "type": "function"
    }
  ],
  "bytecode": "0x60808060405234610016576106bd908161001c8239f35b600080fdfe608060405260048036101561001357600080fd5b60003560e01c8063703dbfe41461046b578063d3b30b75146103b2578063dc29338214610394578063f5d709a1146103225763ff2b76d91461005457600080fd5b346103095760603660031901126103095767ffffffffffffffff813581811161030957366023820112156103095760248382013583811161030e57604051926100a7601f8301601f1916602001856105c0565b8184523683838301011161030957816000928460209301838701378401015260005492604051906100d78261058e565b83825282356020830152604435604083015260006060830152680100000000000000008510156102f5576001850160005561011185610507565b9190916102e25782519687519182116102ce575061012f8254610554565b96601f881161028a575b602097508790601f83116001146101f9576101d49593837fc53cf244672e3e1eed9acdcd22658f6c1cee6d44144f1a17e4a1609b803aa6059896946060946003946000926101ee575b50508160011b9160001990851b1c19161781555b8984015160018201556040840151600282015501910151151560ff8019835416911617905560405192839286845260808885015260808401906104c7565b9035604083015260443560608301520390a1604051908152f35b015190503880610182565b90601f1983169184600052896000209260005b8181106102735750846060946003946101d49a98947fc53cf244672e3e1eed9acdcd22658f6c1cee6d44144f1a17e4a1609b803aa6059c9a986001951061025b575b505050811b018155610196565b015160001983871b60f8161c1916905538808061024e565b92938b60018192878601518155019501930161020c565b826000526020600020601f830160051c8101602084106102c7575b601f8a0160051c820181106102bb575050610139565b600081556001016102a5565b50806102a5565b60418591634e487b7160e01b600052526000fd5b83600088634e487b7160e01b8252526000fd5b82604187634e487b7160e01b600052526000fd5b600080fd5b50634e487b7160e01b600090815260418552fd5b503461030957602036600319011261030957356000548110156103095761034b61037e91610507565b50610355816105e2565b9060018101549060ff6003600283015492015416906040519485946080865260808601906104c7565b9260208501526040840152151560608301520390f35b34610309576000366003190112610309576020600154604051908152f35b3461030957600036600319011261030957600060606040516103d38161058e565b81815282602082015282604082015201526104526103f2600154610507565b50604051906104008261058e565b610409816105e2565b82526001810154906020830191825260ff6003600283015492604086019384520154169060608401911515825260405194859460208652516080602087015260a08601906104c7565b9251604085015251606084015251151560808301520390f35b50346103095760203660031901126103095760207fe2046d333900871694b2fb421975b907ac5d93052201a0e259fa0664d9dbdf1d913560036104ad82610507565b5001600160ff1982541617905580600155604051908152a1005b919082519283825260005b8481106104f3575050826000602080949584010152601f8019910116010190565b6020818301810151848301820152016104d2565b9060009182548110156105405782805260021b7f290decd9548b62a8d60345a988386fc84ba6bc95484008f6362f93160ef3e563019190565b634e487b7160e01b83526032600452602483fd5b90600182811c92168015610584575b602083101461056e57565b634e487b7160e01b600052602260045260246000fd5b91607f1691610563565b6080810190811067ffffffffffffffff8211176105aa57604052565b634e487b7160e01b600052604160045260246000fd5b90601f8019910116810190811067ffffffffffffffff8211176105aa57604052565b906040519182600082546105f581610554565b908184526020946001916001811690816000146106655750600114610626575b505050610624925003836105c0565b565b600090815285812095935091905b81831061064d5750506106249350820101388080610615565b85548884018501529485019487945091830191610634565b9250505061062494925060ff191682840152151560051b82010138808061061556fea26469706673582212207e483bebab87c8c2f1ef3126f838474e5358f83aeb65ef74d54b1c69752d548364736f6c63430008180033",
  "linkReferences": {},
  "deployedLinkReferences": {}
}