{
  "_format": "hh-sol-artifact-1",
  "contractName": "ProcessingContract",
  "sourceName": "contracts/ProcessingContract.sol",
  "abi": [
    {
      "inputs": [],
      "stateMutability": "nonpayable",
      "type": "constructor"
    },
    {
      "inputs": [
        {
          "internalType": "address",
          "name": "owner",
          "type": "address"
        }
      ],
      "name": "OwnableInvalidOwner",
      "type": "error"
    },
    {
      "inputs": [
        {
          "internalType": "address",
          "name": "account",
          "type": "address"
        }
      ],
      "name": "OwnableUnauthorizedAccount",
      "type": "error"
    },
    {
      "anonymous": false,
      "inputs": [
        {
          "indexed": true,
          "internalType": "uint256",
          "name": "batchId",
          "type": "uint256"
        },
        {
          "indexed": true,
          "internalType": "uint256",
          "name": "batchTokenId",
          "type": "uint256"
        },
        {
          "indexed": false,
          "internalType": "uint256",
          "name": "stepCount",
          "type": "uint256"
        },
        {
          "indexed": false,
          "internalType": "uint256",
          "name": "timestamp",
          "type": "uint256"
        }
      ],
      "name": "BatchProcessingCompleted",
      "type": "event"
    },
    {
      "anonymous": false,
      "inputs": [
        {
          "indexed": true,
          "internalType": "address",
          "name": "previousOwner",
          "type": "address"
        },
        {
          "indexed": true,
          "internalType": "address",
          "name": "newOwner",
          "type": "address"
        }
      ],
      "name": "OwnershipTransferred",
      "type": "event"
    },
    {
      "anonymous": false,
      "inputs": [
        {
          "indexed": true,
          "internalType": "uint256",
          "name": "stepId",
          "type": "uint256"
        },
        {
          "indexed": false,
          "internalType": "address",
          "name": "processor",
          "type": "address"
        },
        {
          "indexed": false,
          "internalType": "uint256",
          "name": "timestamp",
          "type": "uint256"
        }
      ],
      "name": "ProcessingStepCompleted",
      "type": "event"
    },
    {
      "anonymous": false,
      "inputs": [
        {
          "indexed": true,
          "internalType": "uint256",
          "name": "stepId",
          "type": "uint256"
        },
        {
          "indexed": true,
          "internalType": "uint256",
          "name": "batchTokenId",
          "type": "uint256"
        },
        {
          "indexed": false,
          "internalType": "enum ProcessingContract.ProcessingType",
          "name": "stepType",
          "type": "uint8"
        },
        {
          "indexed": false,
          "internalType": "address",
          "name": "processor",
          "type": "address"
        },
        {
          "indexed": false,
          "internalType": "uint256",
          "name": "timestamp",
          "type": "uint256"
        }
      ],
      "name": "ProcessingStepCreated",
      "type": "event"
    },
    {
      "anonymous": false,
      "inputs": [
        {
          "indexed": true,
          "internalType": "uint256",
          "name": "stepId",
          "type": "uint256"
        },
        {
          "indexed": false,
          "internalType": "address",
          "name": "verifier",
          "type": "address"
        },
        {
          "indexed": false,
          "internalType": "bool",
          "name": "qualityPassed",
          "type": "bool"
        }
      ],
      "name": "ProcessingStepVerified",
      "type": "event"
    },
    {
      "inputs": [
        {
          "internalType": "uint256",
          "name": "",
          "type": "uint256"
        }
      ],
      "name": "batchProcessing",
      "outputs": [
        {
          "internalType": "uint256",
          "name": "batchTokenId",
          "type": "uint256"
        },
        {
          "internalType": "enum ProcessingContract.ProcessingStatus",
          "name": "overallStatus",
          "type": "uint8"
        },
        {
          "internalType": "uint256",
          "name": "startTime",
          "type": "uint256"
        },
        {
          "internalType": "uint256",
          "name": "completionTime",
          "type": "uint256"
        }
      ],
      "stateMutability": "view",
      "type": "function"
    },
    {
      "inputs": [
        {
          "internalType": "uint256",
          "name": "_batchTokenId",
          "type": "uint256"
        }
      ],
      "name": "completeBatchProcessing",
      "outputs": [],
      "stateMutability": "nonpayable",
      "type": "function"
    },
    {
      "inputs": [
        {
          "internalType": "uint256",
          "name": "_stepId",
          "type": "uint256"
        }
      ],
      "name": "completeProcessing",
      "outputs": [],
      "stateMutability": "nonpayable",
      "type": "function"
    },
    {
      "inputs": [
        {
          "internalType": "uint256",
          "name": "_batchTokenId",
          "type": "uint256"
        },
        {
          "internalType": "enum ProcessingContract.ProcessingType",
          "name": "_stepType",
          "type": "uint8"
        },
        {
          "internalType": "string",
          "name": "_description",
          "type": "string"
        },
        {
          "internalType": "int256",
          "name": "_temperature",
          "type": "int256"
        },
        {
          "internalType": "uint256",
          "name": "_duration",
          "type": "uint256"
        },
        {
          "internalType": "string",
          "name": "_notes",
          "type": "string"
        }
      ],
      "name": "createProcessingStep",
      "outputs": [
        {
          "internalType": "uint256",
          "name": "",
          "type": "uint256"
        }
      ],
      "stateMutability": "nonpayable",
      "type": "function"
    },
    {
      "inputs": [
        {
          "internalType": "uint256",
          "name": "_batchTokenId",
          "type": "uint256"
        }
      ],
      "name": "getBatchProcessing",
      "outputs": [
        {
          "components": [
            {
              "internalType": "uint256",
              "name": "batchTokenId",
              "type": "uint256"
            },
            {
              "internalType": "uint256[]",
              "name": "stepIds",
              "type": "uint256[]"
            },
            {
              "internalType": "enum ProcessingContract.ProcessingStatus",
              "name": "overallStatus",
              "type": "uint8"
            },
            {
              "internalType": "uint256",
              "name": "startTime",
              "type": "uint256"
            },
            {
              "internalType": "uint256",
              "name": "completionTime",
              "type": "uint256"
            }
          ],
          "internalType": "struct ProcessingContract.BatchProcessing",
          "name": "",
          "type": "tuple"
        }
      ],
      "stateMutability": "view",
      "type": "function"
    },
    {
      "inputs": [
        {
          "internalType": "uint256",
          "name": "_batchTokenId",
          "type": "uint256"
        }
      ],
      "name": "getBatchSteps",
      "outputs": [
        {
          "components": [
            {
              "internalType": "uint256",
              "name": "id",
              "type": "uint256"
            },
            {
              "internalType": "uint256",
              "name": "batchTokenId",
              "type": "uint256"
            },
            {
              "internalType": "enum ProcessingContract.ProcessingType",
              "name": "stepType",
              "type": "uint8"
            },
            {
              "internalType": "enum ProcessingContract.ProcessingStatus",
              "name": "status",
              "type": "uint8"
            },
            {
              "internalType": "address",
              "name": "processor",
              "type": "address"
            },
            {
              "internalType": "string",
              "name": "description",
              "type": "string"
            },
            {
              "internalType": "int256",
              "name": "temperature",
              "type": "int256"
            },
            {
              "internalType": "uint256",
              "name": "duration",
              "type": "uint256"
            },
            {
              "internalType": "uint256",
              "name": "startTime",
              "type": "uint256"
            },
            {
              "internalType": "uint256",
              "name": "endTime",
              "type": "uint256"
            },
            {
              "internalType": "string",
              "name": "notes",
              "type": "string"
            },
            {
              "internalType": "bool",
              "name": "qualityVerified",
              "type": "bool"
            }
          ],
          "internalType": "struct ProcessingContract.ProcessingStep[]",
          "name": "",
          "type": "tuple[]"
        }
      ],
      "stateMutability": "view",
      "type": "function"
    },
    {
      "inputs": [
        {
          "internalType": "uint256",
          "name": "_stepId",
          "type": "uint256"
        }
      ],
      "name": "getProcessingStep",
      "outputs": [
        {
          "components": [
            {
              "internalType": "uint256",
              "name": "id",
              "type": "uint256"
            },
            {
              "internalType": "uint256",
              "name": "batchTokenId",
              "type": "uint256"
            },
            {
              "internalType": "enum ProcessingContract.ProcessingType",
              "name": "stepType",
              "type": "uint8"
            },
            {
              "internalType": "enum ProcessingContract.ProcessingStatus",
              "name": "status",
              "type": "uint8"
            },
            {
              "internalType": "address",
              "name": "processor",
              "type": "address"
            },
            {
              "internalType": "string",
              "name": "description",
              "type": "string"
            },
            {
              "internalType": "int256",
              "name": "temperature",
              "type": "int256"
            },
            {
              "internalType": "uint256",
              "name": "duration",
              "type": "uint256"
            },
            {
              "internalType": "uint256",
              "name": "startTime",
              "type": "uint256"
            },
            {
              "internalType": "uint256",
              "name": "endTime",
              "type": "uint256"
            },
            {
              "internalType": "string",
              "name": "notes",
              "type": "string"
            },
            {
              "internalType": "bool",
              "name": "qualityVerified",
              "type": "bool"
            }
          ],
          "internalType": "struct ProcessingContract.ProcessingStep",
          "name": "",
          "type": "tuple"
        }
      ],
      "stateMutability": "view",
      "type": "function"
    },
    {
      "inputs": [
        {
          "internalType": "address",
          "name": "_processor",
          "type": "address"
        }
      ],
      "name": "getProcessorSteps",
      "outputs": [
        {
          "internalType": "uint256[]",
          "name": "",
          "type": "uint256[]"
        }
      ],
      "stateMutability": "view",
      "type": "function"
    },
    {
      "inputs": [],
      "name": "getTotalSteps",
      "outputs": [
        {
          "internalType": "uint256",
          "name": "",
          "type": "uint256"
        }
      ],
      "stateMutability": "view",
      "type": "function"
    },
    {
      "inputs": [],
      "name": "nextBatchId",
      "outputs": [
        {
          "internalType": "uint256",
          "name": "",
          "type": "uint256"
        }
      ],
      "stateMutability": "view",
      "type": "function"
    },
    {
      "inputs": [],
      "name": "nextStepId",
      "outputs": [
        {
          "internalType": "uint256",
          "name": "",
          "type": "uint256"
        }
      ],
      "stateMutability": "view",
      "type": "function"
    },
    {
      "inputs": [],
      "name": "owner",
      "outputs": [
        {
          "internalType": "address",
          "name": "",
          "type": "address"
        }
      ],
      "stateMutability": "view",
      "type": "function"
    },
    {
      "inputs": [
        {
          "internalType": "uint256",
          "name": "",
          "type": "uint256"
        }
      ],
      "name": "processingSteps",
      "outputs": [
        {
          "internalType": "uint256",
          "name": "id",
          "type": "uint256"
        },
        {
          "internalType": "uint256",
          "name": "batchTokenId",
          "type": "uint256"
        },
        {
          "internalType": "enum ProcessingContract.ProcessingType",
          "name": "stepType",
          "type": "uint8"
        },
        {
          "internalType": "enum ProcessingContract.ProcessingStatus",
          "name": "status",
          "type": "uint8"
        },
        {
          "internalType": "address",
          "name": "processor",
          "type": "address"
        },
        {
          "internalType": "string",
          "name": "description",
          "type": "string"
        },
        {
          "internalType": "int256",
          "name": "temperature",
          "type": "int256"
        },
        {
          "internalType": "uint256",
          "name": "duration",
          "type": "uint256"
        },
        {
          "internalType": "uint256",
          "name": "startTime",
          "type": "uint256"
        },
        {
          "internalType": "uint256",
          "name": "endTime",
          "type": "uint256"
        },
        {
          "internalType": "string",
          "name": "notes",
          "type": "string"
        },
        {
          "internalType": "bool",
          "name": "qualityVerified",
          "type": "bool"
        }
      ],
      "stateMutability": "view",
      "type": "function"
    },
    {
      "inputs": [
        {
          "internalType": "address",
          "name": "",
          "type": "address"
        },
        {
          "internalType": "uint256",
          "name": "",
          "type": "uint256"
        }
      ],
      "name": "processorSteps",
      "outputs": [
        {
          "internalType": "uint256",
          "name": "",
          "type": "uint256"
        }
      ],
      "stateMutability": "view",
      "type": "function"
    },
    {
      "inputs": [],
      "name": "renounceOwnership",
      "outputs": [],
      "stateMutability": "nonpayable",
      "type": "function"
    },
    {
      "inputs": [
        {
          "internalType": "uint256",
          "name": "_stepId",
          "type": "uint256"
        }
      ],
      "name": "startProcessing",
      "outputs": [],
      "stateMutability": "nonpayable",
      "type": "function"
    },
    {
      "inputs": [
        {
          "internalType": "address",
          "name": "newOwner",
          "type": "address"
        }
      ],
      "name": "transferOwnership",
      "outputs": [],
      "stateMutability": "nonpayable",
      "type": "function"
    },
    {
      "inputs": [
        {
          "internalType": "uint256",
          "name": "_stepId",
          "type": "uint256"
        },
        {
          "internalType": "string",
          "name": "_notes",
          "type": "string"
        }
      ],
      "name": "updateStepNotes",
      "outputs": [],
      "stateMutability": "nonpayable",
      "type": "function"
    },
    {
      "inputs": [
        {
          "internalType": "uint256",
          "name": "_stepId",
          "type": "uint256"
        },
        {
          "internalType": "bool",
          "name": "_qualityPassed",
          "type": "bool"
        }
      ],
      "name": "verifyProcessingStep",
      "outputs": [],
      "stateMutability": "nonpayable",
      "type": "function"
    }
  ],
  "bytecode": "0x6080806040523461008457331561006e5760008054336001600160a01b03198216811783556040519290916001600160a01b0316907f8be0079c531659141344cd1fd0a4f28419497f9722a3daafe3b4186f6b6457e09080a360016004556001600555611886908161008a8239f35b631e4fbdf760e01b815260006004820152602490fd5b600080fdfe6080604052600436101561001257600080fd5b60e060003560e01c9081620ef4371461120157816317a8791d1461116057816325ff98181461106c5781632aa704691461102b5781633fed564c14610a6857816346fb00cc14610a0f578163644f1ec5146109f1578163715018a6146109985781638462a7f81461097a5781638574d2ee146108a457816387e9188d146107b55781638da5cb5b1461078c578163c7d068cb146106af578163dc1ea1dd146105a5578163df38a9761461054c578163e0d6a3d4146104fa578163e9a34d951461032957508063f0abb84e146101835763f2fde38b146100f057600080fd5b3461017e57602036600319011261017e57610109611629565b610111611824565b6001600160a01b0390811690811561016557600054826bffffffffffffffffffffffff60a01b821617600055167f8be0079c531659141344cd1fd0a4f28419497f9722a3daafe3b4186f6b6457e0600080a3005b604051631e4fbdf760e01b815260006004820152602490fd5b600080fd5b3461017e57604036600319011261017e5767ffffffffffffffff60243581811161017e576101b59036906004016114ec565b90600435600052600190602060018152604060002060018060a01b03600282015460101c1633036102f0576008019284519283116102da576101f78454611358565b601f811161029f575b5081601f841160011461023d575050819293600092610232575b5050600019600383901b1c191660019190911b179055005b01519050838061021a565b60008581528181209392601f19861692905b838310610288575050509483600195961061026f575b505050811b019055005b015160001960f88460031b161c19169055838080610265565b88850151865594850194938101939181019161024f565b6102ca908560005283600020601f860160051c8101918587106102d0575b601f0160051c01906116ff565b85610200565b90915081906102bd565b634e487b7160e01b600052604160045260246000fd5b60405162461bcd60e51b81526004810183905260116024820152702737ba103a343290383937b1b2b9b9b7b960791b6044820152606490fd5b3461017e5760208060031936011261017e57600435600052600280825260019060016040600020019384549161035e83611716565b9561036c60405197886113cb565b83875261037884611716565b601f190160005b8181106104de57505060005b8481106103f45787878760405191808301818452845180915260408401918060408360051b8701019601926000905b8382106103c75786880387f35b909192939483806103e3839a603f198b82030186528951611543565b9997019594939190910191016103ba565b94856104028299978461163f565b9054600391821b1c60005282895260406000209060096040519261042584611392565b80548452858101548c8501526104ae8882015461047960ff9561044d87841660408a016116e7565b6008926104618882861c1660608b016116f3565b60101c6001600160a01b0316608089015284016113ed565b60a0870152600483015460c087015260058301548b8701526006830154610100870152600783015461012087015282016113ed565b61014085015201541615156101608201526104c98289611810565b526104d48188611810565b500196949661038b565b87906104eb999799611763565b82828a0101520197959761037f565b3461017e57602036600319011261017e576001600160a01b0361051b611629565b16600052600360205261054861053460406000206117bf565b6040519182916020835260208301906115f5565b0390f35b3461017e57604036600319011261017e57610565611629565b6001600160a01b031660009081526003602052604090208054602435919082101561017e576020916105969161163f565b90549060031b1c604051908152f35b3461017e57604036600319011261017e576004356024358015159081810361017e576105cf611824565b826000526001602052604060002091600283019260ff845460081c1660058110156106995760020361065f577f8674ba660ec7215a08dc6493f787cf7b8fbc8bea93f66146722eb56a354d95ed938361063c604095600961064995019060ff801983541691151516179055565b15610657576004906116c8565b8151903382526020820152a2005b6003906116c8565b60405162461bcd60e51b815260206004820152601260248201527114dd195c081b9bdd0818dbdb5c1b195d195960721b6044820152606490fd5b634e487b7160e01b600052602160045260246000fd5b3461017e5760208060031936011261017e57600060806040516106d1816113af565b828152606084820152826040820152826060820152015260043560005260028152604060002060405190610704826113af565b80548252610714600182016117bf565b83830190815260ff600283015416916107316040850193846116f3565b61077c6107706004600384015493606088019485520154936080870194855260405197889781895251908801525160a0604088015260c08701906115f5565b9351606086019061149f565b5160808401525160a08301520390f35b3461017e57600036600319011261017e576000546040516001600160a01b039091168152602090f35b3461017e57602036600319011261017e576107ce611763565b506004356000526001602052610548604060002060ff6009604051926107f384611392565b80548452600181015460208501526002810154610815848216604087016116e7565b610827848260081c16606087016116f3565b60101c6001600160a01b03166080850152610844600382016113ed565b60a0850152600481015460c0850152600581015460e08501526006810154610100850152600781015461012085015261087f600882016113ed565b6101408501520154161515610160820152604051918291602083526020830190611543565b3461017e57602036600319011261017e5760043560008181526001602052604090206002810180546108e4601082901c6001600160a01b0316331461167c565b60ff8160081c1660058110156106995760010361093e576102009061ff0019161790556007429101557fdc968a9cb917134db084d0558aa2b59b6bb86af1b0f4208d26863725e048d4ab60408051338152426020820152a2005b60405162461bcd60e51b815260206004820152601460248201527353746570206e6f7420696e2070726f677265737360601b6044820152606490fd5b3461017e57600036600319011261017e576020600554604051908152f35b3461017e57600036600319011261017e576109b1611824565b600080546001600160a01b0319811682556001600160a01b03167f8be0079c531659141344cd1fd0a4f28419497f9722a3daafe3b4186f6b6457e08280a3005b3461017e57600036600319011261017e576020600454604051908152f35b3461017e57602036600319011261017e5760043560005260026020526080604060002080549060ff60028201541690610a5c6004600383015492015492604051948552602085019061149f565b60408301526060820152f35b3461017e5760c036600319011261017e57600a602435101561017e5760443567ffffffffffffffff811161017e57610aa49036906004016114ec565b60a43567ffffffffffffffff811161017e57610ac49036906004016114ec565b60043515610fed57600454610ad88161166d565b60045560405191610ae883611392565b8183526004356020840152610b02602435604085016116e7565b6000606084015233608084015260a0830193845260643560c084015260843560e08401526000610100840152600061012084015261014083015260006101608301528060005260016020526040600020928251845560208301516001850155600284016040840151600a8110156106995760ff801983541691161781556060840151600581101561069957610b9790826116c8565b6080840151815462010000600160b01b03191660109190911b62010000600160b01b031617905551805190939067ffffffffffffffff81116102da57610be06003830154611358565b601f8111610fb8575b506020601f8211600114610f49578192939495600092610f3e575b50508160011b916000199060031b1c19161760038201555b60c0830151600482015560e083015160058201556101008301516006820155610120830151600782015561014083015192835167ffffffffffffffff81116102da57610c6b6008840154611358565b601f8111610f09575b506020601f8211600114610e9057918161016092600994610cc79798600092610e85575b50508160011b916000199060031b1c19161760088501555b0151151591019060ff801983541691151516179055565b600435600052600260205260036040600020015415610d60575b60209060043560005260028252610cff81600160406000200161172e565b3360005260038252610d1581604060002061172e565b604051610d2481602435611492565b3383820152426040820152817f9e934ab2ff4ecfb21b349dd48694ad17dacd697f94f0c756e37606949057da19606060043593a3604051908152f35b604051906020820182811067ffffffffffffffff8211176102da576040526000825260405191610d8f836113af565b60043583526020830190815260006040840152426060840152600060808401526004356000526002602052604060002090835182555180519067ffffffffffffffff82116102da57600160401b82116102da576020906001840154836001860155808410610e65575b500160018301600052602060002060005b838110610e51575050505060028101604084015160058110156106995760209460049260809260ff801983541691161790556060810151600385015501519101559050610ce1565b600190602084519401938184015501610e09565b610e7f9060018601600052848460002091820191016116ff565b86610df8565b015190508880610c98565b6008840160005260206000209560005b601f1984168110610ef1575082610cc796976009959360019361016096601f19811610610ed8575b505050811b016008850155610cb0565b015160001960f88460031b161c19169055888080610ec8565b82820151885560019097019660209283019201610ea0565b610f3890600885016000526020600020601f840160051c810191602085106102d057601f0160051c01906116ff565b85610c74565b015190508580610c04565b6003830160005260206000209060005b601f1984168110610fa0575060019394959683601f19811610610f87575b505050811b016003820155610c1c565b015160001960f88460031b161c19169055858080610f77565b9091602060018192858b015181550193019101610f59565b610fe790600384016000526020600020601f840160051c810191602085106102d057601f0160051c01906116ff565b85610be9565b60405162461bcd60e51b8152602060048201526016602482015275125b9d985b1a590818985d18da081d1bdad95b88125160521b6044820152606490fd5b3461017e57600036600319011261017e57600454600019810190811161105657602090604051908152f35b634e487b7160e01b600052601160045260246000fd5b3461017e57602036600319011261017e576004356000526001602052604060002080546001820154906111536002840154936110aa600382016113ed565b90600481015491600582015460068301549061112e60078501549360ff60096110d5600889016113ed565b97015416986040519b8c9b610180928d5260208d01526110fb60408d0160ff8316611492565b61110e60608d0160ff8360081c1661149f565b60101c6001600160a01b031660808c015260a08b018190528a01906114ac565b9460c089015260e08801526101008701526101208601528482036101408601526114ac565b9015156101608301520390f35b3461017e57602036600319011261017e5760043560009081526001602052604090206002810180546111a0601082901c6001600160a01b0316331461167c565b60ff8160081c166005811015610699576111c95761ff0019166101001790554260069190910155005b60405162461bcd60e51b815260206004820152601060248201526f53746570206e6f742070656e64696e6760801b6044820152606490fd5b3461017e5760208060031936011261017e576004359061121f611824565b81600052600290600281526040600020600180820193845490811561131d5760005b8281106112a35787877f967788395c5b28fd64cc50a91a7fc292da87eb184a7d9e14416ea9803d9ad6d66040898960028101600460ff19825416179055600442910155600554936112918561166d565b600555549082519182524290820152a3005b6112ad818861163f565b90549060031b1c60005283865260ff826040600020015460081c166005811015610699576004036112df578301611241565b60405162461bcd60e51b8152600481018790526016602482015275139bdd08185b1b081cdd195c1cc81d995c9a599a595960521b6044820152606490fd5b60405162461bcd60e51b81526004810186905260136024820152724e6f2070726f63657373696e6720737465707360681b6044820152606490fd5b90600182811c92168015611388575b602083101461137257565b634e487b7160e01b600052602260045260246000fd5b91607f1691611367565b610180810190811067ffffffffffffffff8211176102da57604052565b60a0810190811067ffffffffffffffff8211176102da57604052565b90601f8019910116810190811067ffffffffffffffff8211176102da57604052565b9060405191826000825461140081611358565b908184526020946001916001811690816000146114705750600114611431575b50505061142f925003836113cb565b565b600090815285812095935091905b81831061145857505061142f9350820101388080611420565b8554888401850152948501948794509183019161143f565b9250505061142f94925060ff191682840152151560051b820101388080611420565b90600a8210156106995752565b9060058210156106995752565b919082519283825260005b8481106114d8575050826000602080949584010152601f8019910116010190565b6020818301810151848301820152016114b7565b81601f8201121561017e5780359067ffffffffffffffff82116102da5760405192611521601f8401601f1916602001856113cb565b8284526020838301011161017e57816000926020809301838601378301015290565b906115e56115a7610180845184526020850151602085015261156d60408601516040860190611492565b61157f6060860151606086019061149f565b6080858101516001600160a01b03169085015260a085810151908501829052908401906114ac565b60c084015160c084015260e084015160e0840152610100808501519084015261012080850151908401526101408085015190848303908501526114ac565b9161016080910151151591015290565b90815180825260208080930193019160005b828110611615575050505090565b835185529381019392810192600101611607565b600435906001600160a01b038216820361017e57565b80548210156116575760005260206000200190600090565b634e487b7160e01b600052603260045260246000fd5b60001981146110565760010190565b1561168357565b60405162461bcd60e51b815260206004820152601a60248201527f4e6f74207468652061737369676e65642070726f636573736f720000000000006044820152606490fd5b9060058110156106995761ff0082549160081b169061ff001916179055565b600a8210156106995752565b60058210156106995752565b81811061170a575050565b600081556001016116ff565b67ffffffffffffffff81116102da5760051b60200190565b8054600160401b8110156102da5761174b9160018201815561163f565b819291549060031b91821b91600019901b1916179055565b6040519061177082611392565b81610160600091828152826020820152826040820152826060820152826080820152606060a08201528260c08201528260e0820152826101008201528261012082015260606101408201520152565b90604051918281549182825260209260208301916000526020600020936000905b8282106117f65750505061142f925003836113cb565b8554845260019586019588955093810193909101906117e0565b80518210156116575760209160051b010190565b6000546001600160a01b0316330361183857565b60405163118cdaa760e01b8152336004820152602490fdfea264697066735822122014bb13d1fbd4cfb07fcafd1355d89fd711525e9edfbb838d78c802fafe2da0e964736f6c63430008180033",
  "linkReferences": {},
  "deployedLinkReferences": {}
}