{
  "_format": "hh-sol-artifact-1",
  "contractName": "MultiSigWallet",
  "sourceName": "contracts/MultiSigWallet.sol",
  "abi": [
    {
      "inputs": [
        {
          "internalType": "address[]",
          "name": "_owners",
          "type": "address[]"
        },
        {
          "internalType": "uint256",
          "name": "_required",
          "type": "uint256"
        }
      ],
      "stateMutability": "nonpayable",
      "type": "constructor"
    },
    {
      "anonymous": false,
      "inputs": [
        {
          "indexed": true,
          "internalType": "uint256",
          "name": "txId",
          "type": "uint256"
        },
        {
          "indexed": true,
          "internalType": "address",
          "name": "approver",
          "type": "address"
        }
      ],
      "name": "TransactionApproved",
      "type": "event"
    },
    {
      "anonymous": false,
      "inputs": [
        {
          "indexed": true,
          "internalType": "uint256",
          "name": "txId",
          "type": "uint256"
        }
      ],
      "name": "TransactionExecuted",
      "type": "event"
    },
    {
      "anonymous": false,
      "inputs": [
        {
          "indexed": true,
          "internalType": "uint256",
          "name": "txId",
          "type": "uint256"
        },
        {
          "indexed": true,
          "internalType": "address",
          "name": "owner",
          "type": "address"
        }
      ],
      "name": "TransactionSubmitted",
      "type": "event"
    },
    {
      "inputs": [
        {
          "internalType": "uint256",
          "name": "",
          "type": "uint256"
        },
        {
          "internalType": "address",
          "name": "",
          "type": "address"
        }
      ],
      "name": "approvals",
      "outputs": [
        {
          "internalType": "bool",
          "name": "",
          "type": "bool"
        }
      ],
      "stateMutability": "view",
      "type": "function"
    },
    {
      "inputs": [
        {
          "internalType": "uint256",
          "name": "_txId",
          "type": "uint256"
        }
      ],
      "name": "approveTransaction",
      "outputs": [],
      "stateMutability": "nonpayable",
      "type": "function"
    },
    {
      "inputs": [
        {
          "internalType": "uint256",
          "name": "_txId",
          "type": "uint256"
        }
      ],
      "name": "executeTransaction",
      "outputs": [],
      "stateMutability": "payable",
      "type": "function"
    },
    {
      "inputs": [],
      "name": "getTransactionCount",
      "outputs": [
        {
          "internalType": "uint256",
          "name": "",
          "type": "uint256"
        }
      ],
      "stateMutability": "view",
      "type": "function"
    },
    {
      "inputs": [
        {
          "internalType": "uint256",
          "name": "",
          "type": "uint256"
        }
      ],
      "name": "owners",
      "outputs": [
        {
          "internalType": "address",
          "name": "",
          "type": "address"
        }
      ],
      "stateMutability": "view",
      "type": "function"
    },
    {
      "inputs": [],
      "name": "required",
      "outputs": [
        {
          "internalType": "uint256",
          "name": "",
          "type": "uint256"
        }
      ],
      "stateMutability": "view",
      "type": "function"
    },
    {
      "inputs": [
        {
          "internalType": "address",
          "name": "_to",
          "type": "address"
        },
        {
          "internalType": "uint256",
          "name": "_value",
          "type": "uint256"
        },
        {
          "internalType": "bytes",
          "name": "_data",
          "type": "bytes"
        }
      ],
      "name": "submitTransaction",
      "outputs": [],
      "stateMutability": "nonpayable",
      "type": "function"
    },
    {
      "inputs": [
        {
          "internalType": "uint256",
          "name": "",
          "type": "uint256"
        }
      ],
      "name": "transactions",
      "outputs": [
        {
          "internalType": "address",
          "name": "to",
          "type": "address"
        },
        {
          "internalType": "uint256",
          "name": "value",
          "type": "uint256"
        },
        {
          "internalType": "bytes",
          "name": "data",
          "type": "bytes"
        },
        {
          "internalType": "bool",
          "name": "executed",
          "type": "bool"
        },
        {
          "internalType": "uint256",
          "name": "approvalCount",
          "type": "uint256"
        }
      ],
      "stateMutability": "view",
      "type": "function"
    }
  ],
  "bytecode": "0x60806040523461016557610a9c803803806100198161016a565b92833981016040828203126101655781516001600160401b03919082811161016557830181601f8201121561016557805193602092848611610125578560051b928461006681860161016a565b8098815201908582958201019283116101655790858094939201905b82821061013b57505050015193519283116101255768010000000000000000831161012557600254836002558084106100fa575b50906002600052806000209060005b8481106100df578560035560405161090c90816101908239f35b83516001600160a01b031683820155928101926001016100c5565b60006002600052848460002092830192015b82811061011a5750506100b6565b81815560010161010c565b634e487b7160e01b600052604160045260246000fd5b815193945091929091906001600160a01b0381168103610165578152859392918401908401610082565b600080fd5b6040519190601f01601f191682016001600160401b038111838210176101255760405256fe6080604081815260048036101561001557600080fd5b600092833560e01c908163025e7c271461079e57508063242232d1146106c45780632e7700f0146106a55780639ace38c214610548578063ab2850da146104ff578063c642747414610278578063dc8452cd146102555763ee22610b1461007b57600080fd5b60208060031936011261025157813592610094846107f7565b50838101546003541161021857600381019081549160ff83166101e257908791600190600160ff1980961617905560018060a01b038254169160026001820154910194865192859680546100e781610848565b93600182169182156101cc575050600114610195575b50505081849503925af13d15610190573d610117816108ba565b9061012484519283610882565b815286843d92013e5b1561015c575050507f15ed165a284872ea7017f03df402a0cadfbfab588320ffaf83f160c2f82781c78280a280f35b5162461bcd60e51b815291820152601060248201526f115e1958dd5d1a5bdb8819985a5b195960821b604482015260649150fd5b61012d565b8652888620965085905b898383106101b657505050820194508184386100fd565b885483870152978101978d97509091019061019f565b16865250505080151502820194508184386100fd565b835162461bcd60e51b8152808701869052601060248201526f105b1c9958591e48195e1958dd5d195960821b6044820152606490fd5b505162461bcd60e51b81529182015260146024820152734e6f7420656e6f75676820617070726f76616c7360601b604482015260649150fd5b8380fd5b5050346102745781600319360112610274576020906003549051908152f35b5080fd5b50346104f35760603660031901126104f35780356001600160a01b0381811692918390036104fb5760249360443567ffffffffffffffff8082116104f757366023830112156104f7578185013590886102d0836108ba565b936102dd86519586610882565b838552602093368b82840101116104f357808b869301838801378501015260019182549885519860a08a018a8110858211176104e157875289528189019581358752890194855260608901958b875260808a01978c8952680100000000000000008c10156104e157858c0186556103538c6107f7565b9b909b6104d05751166bffffffffffffffffffffffff60a01b8b5416178a5551848a01556002890194519081519384116104bf57506103928554610848565b601f8111610479575b5081601f841160011461041457509282939183928c94610409575b50501b916000199060031b1c19161790555b600384019051151560ff801983541691161790555191015533907f49dac62158bf9ae2b4399a70c655777cc0924f8708068eea723a1b4af2f07f1b8380a380f35b0151925038806103b6565b858c52808c209291908490601f198216908e905b8883831061045f5750505010610446575b505050811b0190556103c8565b015160001960f88460031b161c19169055388080610439565b858701518855909601959485019487935090810190610428565b858c52828c20601f850160051c8101918486106104b5575b601f0160051c019085905b8281106104aa57505061039b565b8d815501859061049c565b9091508190610491565b634e487b7160e01b8c52604189528bfd5b634e487b7160e01b8e528d8b52838efd5b634e487b7160e01b8d5260418a52828dfd5b8280fd5b8780fd5b8480fd5b50346104f357816003193601126104f3576024356001600160a01b03811691908290036102515760209360ff928492358252818652828220908252855220541690519015158152f35b50829034610274576020806003193601126104f35781359260019360015481101561027457610576906107f7565b509160018060a01b038354169560018401549460028501825197889186918154916105a083610848565b928386528860018216918260001461067f575050600114610640575b50505060a092916105d7919a989a9795979694960389610882565b60ff6003850154169301549380519889978852868801528601528551938460a0870152815b85811061062957505060c08096508486010152151560608401526080830152601f80199101168101030190f35b80880182015189820160c0015288965081016105fc565b8852868820879350889291905b82841061066557505050820101816105d760a06105bc565b849295829585835492010152019101909286928b9461064d565b60ff19168782015293151560051b860190930193508492506105d7915060a090506105bc565b5050346102745781600319360112610274576020906001549051908152f35b50346104f3576020918260031936011261025157813592838552848152818520338652815260ff828620541661076a5783855284815281852033865290528320805460ff1916600117905580610719836107f7565b50018054909160001982146107575750600101905533907f924813d717e221b5f46dcd8a56da1679e4612584ab3237d55e5faabf6f6a30798380a380f35b634e487b7160e01b855260119052602484fd5b905162461bcd60e51b815291820152601060248201526f105b1c9958591e48185c1c1c9bdd995960821b6044820152606490fd5b925050346104f35760203660031901126104f357356002548110156104f35760029092527f405787fa12a823e0f2b7631cc41b3ba8828b3321ca811111fa75cd3aa3bb5ace909101546001600160a01b03168152602090f35b600154811015610832576005906001600052027fb10e2d527612073b26eecdfd717e6a320cf44b4afac2b0732d9fcbe2b7fa0cf60190600090565b634e487b7160e01b600052603260045260246000fd5b90600182811c92168015610878575b602083101461086257565b634e487b7160e01b600052602260045260246000fd5b91607f1691610857565b90601f8019910116810190811067ffffffffffffffff8211176108a457604052565b634e487b7160e01b600052604160045260246000fd5b67ffffffffffffffff81116108a457601f01601f19166020019056fea26469706673582212201d2a541736837508a3def9fb76f1545d568aab6e2119f5f8c3ca0356298aaa0e64736f6c63430008180033",
  "linkReferences": {},
  "deployedLinkReferences": {}
}