{
  "_format": "hh-sol-artifact-1",
  "contractName": "InventoryManager",
  "sourceName": "contracts/Inventory.sol",
  "abi": [
    {
      "anonymous": false,
      "inputs": [
        {
          "indexed": true,
          "internalType": "uint256",
          "name": "batchId",
          "type": "uint256"
        },
        {
          "indexed": false,
          "internalType": "uint256",
          "name": "quantity",
          "type": "uint256"
        },
        {
          "indexed": false,
          "internalType": "address",
          "name": "updater",
          "type": "address"
        }
      ],
      "name": "InventoryUpdated",
      "type": "event"
    },
    {
      "inputs": [
        {
          "internalType": "uint256",
          "name": "_batchId",
          "type": "uint256"
        }
      ],
      "name": "getInventory",
      "outputs": [
        {
          "components": [
            {
              "internalType": "uint256",
              "name": "batchTokenId",
              "type": "uint256"
            },
            {
              "internalType": "uint256",
              "name": "quantity",
              "type": "uint256"
            },
            {
              "internalType": "string",
              "name": "unit",
              "type": "string"
            },
            {
              "internalType": "string",
              "name": "storageLocation",
              "type": "string"
            },
            {
              "internalType": "uint256",
              "name": "lastUpdated",
              "type": "uint256"
            }
          ],
          "internalType": "struct InventoryManager.InventoryItem",
          "name": "",
          "type": "tuple"
        }
      ],
      "stateMutability": "view",
      "type": "function"
    },
    {
      "inputs": [
        {
          "internalType": "uint256",
          "name": "",
          "type": "uint256"
        }
      ],
      "name": "inventory",
      "outputs": [
        {
          "internalType": "uint256",
          "name": "batchTokenId",
          "type": "uint256"
        },
        {
          "internalType": "uint256",
          "name": "quantity",
          "type": "uint256"
        },
        {
          "internalType": "string",
          "name": "unit",
          "type": "string"
        },
        {
          "internalType": "string",
          "name": "storageLocation",
          "type": "string"
        },
        {
          "internalType": "uint256",
          "name": "lastUpdated",
          "type": "uint256"
        }
      ],
      "stateMutability": "view",
      "type": "function"
    },
    {
      "inputs": [
        {
          "internalType": "uint256",
          "name": "_batchId",
          "type": "uint256"
        },
        {
          "internalType": "uint256",
          "name": "_quantity",
          "type": "uint256"
        },
        {
          "internalType": "string",
          "name": "_unit",
          "type": "string"
        },
        {
          "internalType": "string",
          "name": "_location",
          "type": "string"
        }
      ],
      "name": "updateInventory",
      "outputs": [],
      "stateMutability": "nonpayable",
      "type": "function"
    },
    {
      "inputs": [
        {
          "internalType": "address",
          "name": "",
          "type": "address"
        },
        {
          "internalType": "uint256",
          "name": "",
          "type": "uint256"
        }
      ],
      "name": "userInventory",
      "outputs": [
        {
          "internalType": "uint256",
          "name": "",
          "type": "uint256"
        }
      ],
      "stateMutability": "view",
      "type": "function"
    }
  ],
  "bytecode": "0x608080604052346100165761071d908161001c8239f35b600080fdfe6080604052600436101561001257600080fd5b60003560e01c80634272ee18146104af5780635b298d32146103cd5780635c0529a3146103785763a8f0aa081461004857600080fd5b346103735760803660031901126103735767ffffffffffffffff6044358181116103735761007a903690600401610690565b9060643581811161037357610093903690600401610690565b90604051916100a18361056d565b60043583526020830193602435855260408401908152606084019182524260808501526004356000526000602052604060002094845186555160018601555180519083821161028f5781906100f96002880154610533565b601f811161031d575b50602090601f83116001146102b0576000926102a5575b50508160011b916000199060031b1c19161760028501555b51805191821161028f576101486003850154610533565b601f8111610244575b50602090601f83116001146101d1579180600494926080946000926101c6575b50508160011b916000199060031b1c19161760038501555b015191015560405160243581523360208201527f6f2c797ac120a797ccb9fec093c2307f005d4536440f414443f3e217bb40b2ca604060043592a2005b015190503880610171565b90601f198316916003860160005260206000209260005b81811061022c57509260019285926080966004989610610213575b505050811b016003850155610189565b015160001960f88460031b161c19169055388080610203565b929360206001819287860151815501950193016101e8565b600385016000526020600020601f840160051c81019160208510610285575b601f0160051c01905b8181106102795750610151565b6000815560010161026c565b9091508190610263565b634e487b7160e01b600052604160045260246000fd5b015190503880610119565b600288016000908152602081209350601f198516905b81811061030557509084600195949392106102ec575b505050811b016002850155610131565b015160001960f88460031b161c191690553880806102dc565b929360206001819287860151815501950193016102c6565b909150600287016000526020600020601f840160051c81019160208510610369575b90601f859493920160051c01905b81811061035a5750610102565b6000815584935060010161034d565b909150819061033f565b600080fd5b34610373576040366003190112610373576004356001600160a01b0381169081900361037357602435906000526001602052604060002090815481101561037357602091600052816000200154604051908152f35b346103735760208060031936011261037357600060806040516103ef8161056d565b8281528284820152606060408201526060808201520152600435600052600081526040600020604051906104228261056d565b805482526104a4600182015491848401928352610491610444600283016105ab565b604086019081526004610459600385016105ab565b93606088019485520154946080870195865260405197889781895251908801525160408701525160a0606087015260c0860190610650565b9051848203601f19016080860152610650565b905160a08301520390f35b34610373576020366003190112610373576004356000526000602052604060002080546001820154916105296104e7600283016105ab565b9161051b60046104f9600384016105ab565b920154936040519687968752602087015260a0604087015260a0860190610650565b908482036060860152610650565b9060808301520390f35b90600182811c92168015610563575b602083101461054d57565b634e487b7160e01b600052602260045260246000fd5b91607f1691610542565b60a0810190811067ffffffffffffffff82111761028f57604052565b90601f8019910116810190811067ffffffffffffffff82111761028f57604052565b906040519182600082546105be81610533565b9081845260209460019160018116908160001461062e57506001146105ef575b5050506105ed92500383610589565b565b600090815285812095935091905b8183106106165750506105ed93508201013880806105de565b855488840185015294850194879450918301916105fd565b925050506105ed94925060ff191682840152151560051b8201013880806105de565b919082519283825260005b84811061067c575050826000602080949584010152601f8019910116010190565b60208183018101518483018201520161065b565b81601f820112156103735780359067ffffffffffffffff821161028f57604051926106c5601f8401601f191660200185610589565b828452602083830101116103735781600092602080930183860137830101529056fea2646970667358221220258016f08a372a2e571e25d582ce136f164734ee64dc01cdf88613b456ad53e964736f6c63430008180033",
  "linkReferences": {},
  "deployedLinkReferences": {}
}