{
  "_format": "hh-sol-artifact-1",
  "contractName": "ClimateData",
  "sourceName": "contracts/ClimateData.sol",
  "abi": [
    {
      "anonymous": false,
      "inputs": [
        {
          "indexed": true,
          "internalType": "bytes32",
          "name": "batchId",
          "type": "bytes32"
        },
        {
          "indexed": false,
          "internalType": "uint256",
          "name": "temperature",
          "type": "uint256"
        }
      ],
      "name": "ClimateRecorded",
      "type": "event"
    },
    {
      "inputs": [
        {
          "internalType": "bytes32",
          "name": "",
          "type": "bytes32"
        },
        {
          "internalType": "uint256",
          "name": "",
          "type": "uint256"
        }
      ],
      "name": "climateData",
      "outputs": [
        {
          "internalType": "bytes32",
          "name": "batchId",
          "type": "bytes32"
        },
        {
          "internalType": "uint256",
          "name": "temperature",
          "type": "uint256"
        },
        {
          "internalType": "uint256",
          "name": "humidity",
          "type": "uint256"
        },
        {
          "internalType": "uint256",
          "name": "rainfall",
          "type": "uint256"
        },
        {
          "internalType": "uint256",
          "name": "sunlight",
          "type": "uint256"
        },
        {
          "internalType": "uint256",
          "name": "timestamp",
          "type": "uint256"
        }
      ],
      "stateMutability": "view",
      "type": "function"
    },
    {
      "inputs": [
        {
          "internalType": "bytes32",
          "name": "batchId",
          "type": "bytes32"
        }
      ],
      "name": "getClimateData",
      "outputs": [
        {
          "components": [
            {
              "internalType": "bytes32",
              "name": "batchId",
              "type": "bytes32"
            },
            {
              "internalType": "uint256",
              "name": "temperature",
              "type": "uint256"
            },
            {
              "internalType": "uint256",
              "name": "humidity",
              "type": "uint256"
            },
            {
              "internalType": "uint256",
              "name": "rainfall",
              "type": "uint256"
            },
            {
              "internalType": "uint256",
              "name": "sunlight",
              "type": "uint256"
            },
            {
              "internalType": "uint256",
              "name": "timestamp",
              "type": "uint256"
            }
          ],
          "internalType": "struct ClimateData.Climate[]",
          "name": "",
          "type": "tuple[]"
        }
      ],
      "stateMutability": "view",
      "type": "function"
    },
    {
      "inputs": [
        {
          "internalType": "bytes32",
          "name": "batchId",
          "type": "bytes32"
        },
        {
          "internalType": "uint256",
          "name": "temperature",
          "type": "uint256"
        },
        {
          "internalType": "uint256",
          "name": "humidity",
          "type": "uint256"
        },
        {
          "internalType": "uint256",
          "name": "rainfall",
          "type": "uint256"
        },
        {
          "internalType": "uint256",
          "name": "sunlight",
          "type": "uint256"
        }
      ],
      "name": "recordClimate",
      "outputs": [],
      "stateMutability": "nonpayable",
      "type": "function"
    }
  ],
  "bytecode": "0x60808060405234610016576103b2908161001c8239f35b600080fdfe60406080815260048036101561001457600080fd5b600090813560e01c8063594fb0111461021b578063d121d341146101a35763e0630c611461004157600080fd5b3461019f576020908160031936011261019b578035835282825283832091825467ffffffffffffffff928382116101885786519360059083821b603f01601f19168601908111868210176101755788979594979291925282845286840191829686528786209186935b85851061011e57505050505050845193808501918186525180925285850193925b8281106100d85785850386f35b83518051865280830151868401528781015188870152606080820151908701526080808201519087015260a0908101519086015260c090940193928101926001016100cb565b60068a6001928d6101319d9a9b9d610346565b90885482528589015484830152600289015490820152600388015460608201528588015460808201528688015460a0820152815201940194019392989695986100aa565b634e487b7160e01b885260418352602488fd5b634e487b7160e01b865260419052602485fd5b8280fd5b5080fd5b50823461019b578060031936011261019b57602435928235815280602052818120908154851015610218575060c0936101db91610314565b50805492600182015492600283015490600560038501549385015494015494815196875260208701528501526060840152608083015260a0820152f35b80fd5b50913461019f5760a036600319011261019f578235906024359082845283602052808420610247610346565b90848252602082018481528383016044358152606084019060643582526080850192608435845260a086019442865280549068010000000000000000821015610301579061029a91600182018155610314565b9690966102ef57518655516001860155516002850155516003840155518783015551600590910155519081527f662237cdf2a49782606e92128fb6fb646b9605d2b65460304ae23b34467c149f90602090a280f35b634e487b7160e01b8b528a8c5260248bfd5b634e487b7160e01b8c5260418d5260248cfd5b8054821015610330576000526006602060002091020190600090565b634e487b7160e01b600052603260045260246000fd5b6040519060c0820182811067ffffffffffffffff82111761036657604052565b634e487b7160e01b600052604160045260246000fdfea2646970667358221220aa7efbf925d8c7132a0d179b66dbdb2900bd51042cfc797eec92bced054538bc64736f6c63430008180033",
  "linkReferences": {},
  "deployedLinkReferences": {}
}