{
  "_format": "hh-sol-artifact-1",
  "contractName": "ProductTracker",
  "sourceName": "contracts/ProductTracker.sol",
  "abi": [
    {
      "anonymous": false,
      "inputs": [
        {
          "indexed": true,
          "internalType": "bytes32",
          "name": "batchId",
          "type": "bytes32"
        },
        {
          "indexed": false,
          "internalType": "string",
          "name": "newLocation",
          "type": "string"
        }
      ],
      "name": "LocationUpdated",
      "type": "event"
    },
    {
      "anonymous": false,
      "inputs": [
        {
          "indexed": true,
          "internalType": "bytes32",
          "name": "batchId",
          "type": "bytes32"
        },
        {
          "indexed": true,
          "internalType": "address",
          "name": "oldOwner",
          "type": "address"
        },
        {
          "indexed": true,
          "internalType": "address",
          "name": "newOwner",
          "type": "address"
        }
      ],
      "name": "OwnerUpdated",
      "type": "event"
    },
    {
      "anonymous": false,
      "inputs": [
        {
          "indexed": true,
          "internalType": "bytes32",
          "name": "batchId",
          "type": "bytes32"
        },
        {
          "indexed": false,
          "internalType": "string",
          "name": "name",
          "type": "string"
        },
        {
          "indexed": true,
          "internalType": "address",
          "name": "owner",
          "type": "address"
        }
      ],
      "name": "ProductCreated",
      "type": "event"
    },
    {
      "inputs": [
        {
          "internalType": "bytes32",
          "name": "batchId",
          "type": "bytes32"
        },
        {
          "internalType": "string",
          "name": "name",
          "type": "string"
        },
        {
          "internalType": "string",
          "name": "description",
          "type": "string"
        },
        {
          "internalType": "uint256",
          "name": "quantity",
          "type": "uint256"
        },
        {
          "internalType": "string",
          "name": "location",
          "type": "string"
        }
      ],
      "name": "createProduct",
      "outputs": [],
      "stateMutability": "nonpayable",
      "type": "function"
    },
    {
      "inputs": [
        {
          "internalType": "bytes32",
          "name": "batchId",
          "type": "bytes32"
        }
      ],
      "name": "getProduct",
      "outputs": [
        {
          "components": [
            {
              "internalType": "bytes32",
              "name": "batchId",
              "type": "bytes32"
            },
            {
              "internalType": "string",
              "name": "name",
              "type": "string"
            },
            {
              "internalType": "string",
              "name": "description",
              "type": "string"
            },
            {
              "internalType": "uint256",
              "name": "quantity",
              "type": "uint256"
            },
            {
              "internalType": "string",
              "name": "currentLocation",
              "type": "string"
            },
            {
              "internalType": "address",
              "name": "currentOwner",
              "type": "address"
            },
            {
              "internalType": "uint256",
              "name": "lastUpdate",
              "type": "uint256"
            }
          ],
          "internalType": "struct ProductTracker.Product",
          "name": "",
          "type": "tuple"
        }
      ],
      "stateMutability": "view",
      "type": "function"
    },
    {
      "inputs": [
        {
          "internalType": "uint256",
          "name": "",
          "type": "uint256"
        }
      ],
      "name": "productIds",
      "outputs": [
        {
          "internalType": "bytes32",
          "name": "",
          "type": "bytes32"
        }
      ],
      "stateMutability": "view",
      "type": "function"
    },
    {
      "inputs": [
        {
          "internalType": "bytes32",
          "name": "",
          "type": "bytes32"
        }
      ],
      "name": "products",
      "outputs": [
        {
          "internalType": "bytes32",
          "name": "batchId",
          "type": "bytes32"
        },
        {
          "internalType": "string",
          "name": "name",
          "type": "string"
        },
        {
          "internalType": "string",
          "name": "description",
          "type": "string"
        },
        {
          "internalType": "uint256",
          "name": "quantity",
          "type": "uint256"
        },
        {
          "internalType": "string",
          "name": "currentLocation",
          "type": "string"
        },
        {
          "internalType": "address",
          "name": "currentOwner",
          "type": "address"
        },
        {
          "internalType": "uint256",
          "name": "lastUpdate",
          "type": "uint256"
        }
      ],
      "stateMutability": "view",
      "type": "function"
    },
    {
      "inputs": [
        {
          "internalType": "bytes32",
          "name": "batchId",
          "type": "bytes32"
        },
        {
          "internalType": "address",
          "name": "newOwner",
          "type": "address"
        }
      ],
      "name": "transferOwnership",
      "outputs": [],
      "stateMutability": "nonpayable",
      "type": "function"
    },
    {
      "inputs": [
        {
          "internalType": "bytes32",
          "name": "batchId",
          "type": "bytes32"
        },
        {
          "internalType": "string",
          "name": "newLocation",
          "type": "string"
        }
      ],
      "name": "updateLocation",
      "outputs": [],
      "stateMutability": "nonpayable",
      "type": "function"
    }
  ],
  "bytecode": "0x6080806040523461001657610c53908161001c8239f35b600080fdfe608080604052600436101561001357600080fd5b60003560e01c90816314ce3f52146104d7575080633a20e9df1461039d5780635a628cee146101f35780637905439114610141578063cb51bba91461010a5763ef5d6bbb1461006157600080fd5b34610105576040366003190112610105576001600160a01b036024358181169160043591839003610105578160005260006020526100aa81600560406000200154163314610be5565b81600052600060205260406000206005810190815491856bffffffffffffffffffffffff60a01b841617905560064291015516907fffc83b1bf846b5e0ec2ae8a0c7515f1ad986381834a54587549a5932648800c8600080a4005b600080fd5b346101055760203660031901126101055760043560015481101561010557610133602091610ad3565b90546040519160031b1c8152f35b346101055760203660031901126101055760043560005260006020526040600020805461017060018301610a2e565b9161017d60028201610a2e565b6101e4600383015461019160048501610a2e565b6101d1600660018060a01b03600588015416960154946101c3604051998a998a5260e060208b015260e08a0190610976565b9088820360408a0152610976565b9160608701528582036080870152610976565b9160a084015260c08301520390f35b346101055760403660031901126101055767ffffffffffffffff60043560243582811161010557610228903690600401610948565b90826000526020936000855261024f60018060a01b03600560406000200154163314610be5565b836000526000855260046040600020019083116103875761027a8361027483546109b6565b83610b67565b6000601f84116001146102fe57946000916102ce85807fb6b11ca1c4bdef7d68ad47389e58db4b6018f3cc8dc243258b0001eee99304c2989986916102f3575b508160011b916000199060031b1c19161790565b90555b85825252426006604060002001556102ee60405192839283610bbd565b0390a2005b90508601358a6102ba565b601f1984169082600052866000209160005b81811061037057509160009391867fb6b11ca1c4bdef7d68ad47389e58db4b6018f3cc8dc243258b0001eee99304c298999410610357575b5050600185811b0190556102d1565b841960f88860031b161c19908601351690558780610348565b919288600181928689013581550194019201610310565b634e487b7160e01b600052604160045260246000fd5b346101055760208060031936011261010557604051906103bc826109f0565b60008252600060c0606093848482015284604082015282858201528460808201528260a08201520152600435600052600081526040600020604051928391610403836109f0565b805483526104c561041660018301610a2e565b9285850193845261042960028401610a2e565b90604086019182526003840154918187019283526104ae61044c60048701610a2e565b916080890192835261049a600660018060a01b039860a08a6005830154169c019b8c5201549860c08d01998a528b6040519d8e9d8e5251908d01525160e060408d01526101008c0190610976565b9051601f1994858c840301908c0152610976565b9251608089015251908783030160a0880152610976565b92511660c08401525160e08301520390f35b346101055760a03660031901126101055760243567ffffffffffffffff811161010557610508903690600401610948565b9160443567ffffffffffffffff811161010557610529903690600401610948565b9160843567ffffffffffffffff81116101055761054a903690600401610948565b909160043560005260006020526006604060002001546109155750906105ad916105996040519461057a866109f0565b600435865261058a368a8a610b20565b96602087019788523691610b20565b604085015260643560608501523691610b20565b60808201523360a08201524260c08201526004356000526000602052604060002091815183555180519067ffffffffffffffff821161038757610600826105f760018701546109b6565b60018701610b67565b602090601f83116001146108a35761063192916000918361082a575b50508160011b916000199060031b1c19161790565b60018301555b604081015180519067ffffffffffffffff8211610387576106688261065f60028701546109b6565b60028701610b67565b602090601f83116001146108355761069892916000918361082a5750508160011b916000199060031b1c19161790565b60028301555b6060810151600383015560048201608082015180519067ffffffffffffffff8211610387576106d7826106d185546109b6565b85610b67565b602090601f83116001146107bc57826006959360c0959361070e936000926107b15750508160011b916000199060031b1c19161790565b90555b6005840160018060a01b0360a0830151166bffffffffffffffffffffffff60a01b825416179055015191015560015468010000000000000000811015610387578060016107619201600155610ad3565b81549060031b90600435821b91600019901b19161790557f46c4184c6d436f9189e29ec436543a4843c749801c874d1bda5bab72fa723a71604051806107ac33956004359583610bbd565b0390a3005b015190508a8061061c565b90601f198316918460005260206000209260005b81811061081257509260019285926006989660c09896106107f9575b505050811b019055610711565b015160001960f88460031b161c191690558980806107ec565b929360206001819287860151815501950193016107d0565b01519050878061061c565b90601f198316916002860160005260206000209260005b81811061088b5750908460019594939210610872575b505050811b01600283015561069e565b015160001960f88460031b161c19169055868080610862565b9293602060018192878601518155019501930161084c565b9190600185016000526020600020906000935b601f19841685106108fa576001945083601f198116106108e1575b505050811b016001830155610637565b015160001960f88460031b161c191690558680806108d1565b818101518355602094850194600190930192909101906108b6565b62461bcd60e51b815260206004820152600e60248201526d50726f647563742065786973747360901b6044820152606490fd5b9181601f840112156101055782359167ffffffffffffffff8311610105576020838186019501011161010557565b919082519283825260005b8481106109a2575050826000602080949584010152601f8019910116010190565b602081830181015184830182015201610981565b90600182811c921680156109e6575b60208310146109d057565b634e487b7160e01b600052602260045260246000fd5b91607f16916109c5565b60e0810190811067ffffffffffffffff82111761038757604052565b90601f8019910116810190811067ffffffffffffffff82111761038757604052565b90604051918260008254610a41816109b6565b90818452602094600191600181169081600014610ab15750600114610a72575b505050610a7092500383610a0c565b565b600090815285812095935091905b818310610a99575050610a709350820101388080610a61565b85548884018501529485019487945091830191610a80565b92505050610a7094925060ff191682840152151560051b820101388080610a61565b600154811015610b0a5760016000527fb10e2d527612073b26eecdfd717e6a320cf44b4afac2b0732d9fcbe2b7fa0cf60190600090565b634e487b7160e01b600052603260045260246000fd5b92919267ffffffffffffffff82116103875760405191610b4a601f8201601f191660200184610a0c565b829481845281830111610105578281602093846000960137010152565b90601f8111610b7557505050565b6000916000526020600020906020601f850160051c83019410610bb3575b601f0160051c01915b828110610ba857505050565b818155600101610b9c565b9092508290610b93565b90918060409360208452816020850152848401376000828201840152601f01601f1916010190565b15610bec57565b60405162461bcd60e51b81526020600482015260096024820152682737ba1037bbb732b960b91b6044820152606490fdfea26469706673582212201725cc7216ec8a9e2b796ee69011a868cae2cb58b9291238b5537adc80b6459264736f6c63430008180033",
  "linkReferences": {},
  "deployedLinkReferences": {}
}