{
  "_format": "hh-sol-artifact-1",
  "contractName": "OrderManagement",
  "sourceName": "contracts/OrderManagement.sol",
  "abi": [
    {
      "anonymous": false,
      "inputs": [
        {
          "indexed": true,
          "internalType": "bytes32",
          "name": "orderId",
          "type": "bytes32"
        },
        {
          "indexed": true,
          "internalType": "address",
          "name": "customer",
          "type": "address"
        },
        {
          "indexed": false,
          "internalType": "uint256",
          "name": "amount",
          "type": "uint256"
        }
      ],
      "name": "OrderCreated",
      "type": "event"
    },
    {
      "anonymous": false,
      "inputs": [
        {
          "indexed": true,
          "internalType": "bytes32",
          "name": "orderId",
          "type": "bytes32"
        },
        {
          "indexed": false,
          "internalType": "string",
          "name": "status",
          "type": "string"
        }
      ],
      "name": "OrderStatusChanged",
      "type": "event"
    },
    {
      "inputs": [
        {
          "internalType": "bytes32",
          "name": "orderId",
          "type": "bytes32"
        },
        {
          "internalType": "bytes32[]",
          "name": "batchIds",
          "type": "bytes32[]"
        },
        {
          "internalType": "uint256",
          "name": "totalAmount",
          "type": "uint256"
        }
      ],
      "name": "createOrder",
      "outputs": [],
      "stateMutability": "nonpayable",
      "type": "function"
    },
    {
      "inputs": [
        {
          "internalType": "address",
          "name": "",
          "type": "address"
        },
        {
          "internalType": "uint256",
          "name": "",
          "type": "uint256"
        }
      ],
      "name": "customerOrders",
      "outputs": [
        {
          "internalType": "bytes32",
          "name": "",
          "type": "bytes32"
        }
      ],
      "stateMutability": "view",
      "type": "function"
    },
    {
      "inputs": [
        {
          "internalType": "bytes32",
          "name": "orderId",
          "type": "bytes32"
        }
      ],
      "name": "getOrder",
      "outputs": [
        {
          "components": [
            {
              "internalType": "bytes32",
              "name": "orderId",
              "type": "bytes32"
            },
            {
              "internalType": "address",
              "name": "customer",
              "type": "address"
            },
            {
              "internalType": "bytes32[]",
              "name": "batchIds",
              "type": "bytes32[]"
            },
            {
              "internalType": "uint256",
              "name": "totalAmount",
              "type": "uint256"
            },
            {
              "internalType": "string",
              "name": "status",
              "type": "string"
            },
            {
              "internalType": "uint256",
              "name": "createdAt",
              "type": "uint256"
            },
            {
              "internalType": "uint256",
              "name": "deliveredAt",
              "type": "uint256"
            }
          ],
          "internalType": "struct OrderManagement.Order",
          "name": "",
          "type": "tuple"
        }
      ],
      "stateMutability": "view",
      "type": "function"
    },
    {
      "inputs": [
        {
          "internalType": "bytes32",
          "name": "",
          "type": "bytes32"
        }
      ],
      "name": "orders",
      "outputs": [
        {
          "internalType": "bytes32",
          "name": "orderId",
          "type": "bytes32"
        },
        {
          "internalType": "address",
          "name": "customer",
          "type": "address"
        },
        {
          "internalType": "uint256",
          "name": "totalAmount",
          "type": "uint256"
        },
        {
          "internalType": "string",
          "name": "status",
          "type": "string"
        },
        {
          "internalType": "uint256",
          "name": "createdAt",
          "type": "uint256"
        },
        {
          "internalType": "uint256",
          "name": "deliveredAt",
          "type": "uint256"
        }
      ],
      "stateMutability": "view",
      "type": "function"
    },
    {
      "inputs": [
        {
          "internalType": "bytes32",
          "name": "orderId",
          "type": "bytes32"
        },
        {
          "internalType": "string",
          "name": "status",
          "type": "string"
        }
      ],
      "name": "updateOrderStatus",
      "outputs": [],
      "stateMutability": "nonpayable",
      "type": "function"
    }
  ],
  "bytecode": "0x6080806040523461001657610acd908161001c8239f35b600080fdfe608080604052600436101561001357600080fd5b60003560e01c90816315914b3f14610654575080631600c6cd146105fa5780635778472a1461046d5780636e1c01c6146100dd57639c3f1e901461005657600080fd5b346100d85760203660031901126100d85760043560005260006020526040600020805460018060a01b036001830154169160038101546100c961009b6004840161099c565b600660058501549401549260405196879687526020870152604086015260c0606086015260c08501906108e4565b91608084015260a08301520390f35b600080fd5b346100d85760603660031901126100d85760243567ffffffffffffffff81116100d857366023820112156100d857806004013567ffffffffffffffff81116100d8578060051b6024818401013681116100d857600435600052600060205260056040600020015461043957604051936101558561095e565b60043585526020850193338552610172602060405195018561097a565b8352602401602083015b828210610429575050506040830190815260443560608401526040516040810181811067ffffffffffffffff82111761035957604052600781526610dc99585d195960ca1b602082015260808401524260a0840152600060c0840152600435600052600060205260406000209183518355600183019060018060a01b039051166bffffffffffffffffffffffff60a01b8254161790555180519067ffffffffffffffff821161035957600160401b82116103595760028301548260028501558083106103fc575b5060200160028301600052602060002060005b8381106103e8578585606082015160038201556004810191608081015192835167ffffffffffffffff811161035957610299816102938454610924565b84610a41565b6020601f821160011461037a578160c09493926102d1926006979860009261036f575b50508160011b916000199060031b1c19161790565b90555b60a08101516005850155015191015533600052600160205260406000208054600160401b8110156103595761030e916001820181556108b6565b81549060031b90600435821b91600019901b1916179055604051604435815233907f1b6a9f3a723df89cb28e5a02f21fa4a46862c77ce5f7e8453b7fa854820e3c8c602060043592a3005b634e487b7160e01b600052604160045260246000fd5b0151905088806102bc565b601f198216958360005260206000209660005b8181106103d0575096600192849260c09796956006999a106103b7575b505050811b0190556102d4565b015160001960f88460031b161c191690558780806103aa565b8383015189556001909801976020938401930161038d565b600190602084519401938184015501610256565b600284016000526020600020908382015b818301811061041d575050610243565b6000815560010161040d565b813581526020918201910161017c565b60405162461bcd60e51b815260206004820152600c60248201526b4f726465722065786973747360a01b6044820152606490fd5b346100d8576020806003193601126100d857600060c060405161048f8161095e565b828152828482015260606040820152826060820152606060808201528260a08201520152600435600052600081526040600020604051906104cf8261095e565b8054825260018060a01b036001928160018401541693858201948552600284019560405180978891838254918281520191600052836000209060005b8181106105e4575050509061052191038861097a565b60408301968752600385015491606084019283526105416004870161099c565b9760808501988952600660058801549760a0870198895201549560c0860196875260405198848a526101008a019651858b015251166040890152519360e06060890152845180915282610120890195019260005b8281106105d15750505050509084956105c09251608087015251601f198683030160a08701526108e4565b915160c08401525160e08301520390f35b8451875295810195938101938301610595565b825484528b94509285019291860191860161050b565b346100d85760403660031901126100d8576004356001600160a01b038116908190036100d857602435906000526001602052604060002080548210156100d857602091610646916108b6565b90546040519160031b1c8152f35b346100d85760403660031901126100d85760043590602480359167ffffffffffffffff928381116100d857366023820112156100d8578060040135918483116100d85783820191368585830101116100d857866000526020916000835260019060018060a01b03600160406000200154163303610886575084869189600052600085526004604060002001936106f4836106ee8754610924565b87610a41565b600091601f8411600114610812575092829161072894600093610805575b5050508160011b916000199060031b1c19161790565b90555b604051818101908484833761074f838287810160008382015203808452018261097a565b51902060405194828601906811195b1a5d995c995960ba1b8252600987526040870197878910908911176107f15750928492604095928897957ff1382ff7031f5e5be33d7b6baeb803fe229c849245e4e02d4523084751fe387999885286519020146107db575b86528160608501526080840137600082820160800152601f01601f19168101030190a2005b88600052600081524260068760002001556107b6565b634e487b7160e01b60009081526041600452fd5b0101359050878b80610712565b93919092601f1981168660005287600020956000905b89838310610866575050501061084a575b50505050600184811b01905561072b565b60001960f88960031b161c199201013516905587808681610839565b929497819450839296898901013581550196019301918a93928a92610828565b62461bcd60e51b815260048101849052600c878201526b2737ba1031bab9ba37b6b2b960a11b6044820152606490fd5b80548210156108ce5760005260206000200190600090565b634e487b7160e01b600052603260045260246000fd5b919082519283825260005b848110610910575050826000602080949584010152601f8019910116010190565b6020818301810151848301820152016108ef565b90600182811c92168015610954575b602083101461093e57565b634e487b7160e01b600052602260045260246000fd5b91607f1691610933565b60e0810190811067ffffffffffffffff82111761035957604052565b90601f8019910116810190811067ffffffffffffffff82111761035957604052565b906040519182600082546109af81610924565b90818452602094600191600181169081600014610a1f57506001146109e0575b5050506109de9250038361097a565b565b600090815285812095935091905b818310610a075750506109de93508201013880806109cf565b855488840185015294850194879450918301916109ee565b925050506109de94925060ff191682840152151560051b8201013880806109cf565b90601f8111610a4f57505050565b6000916000526020600020906020601f850160051c83019410610a8d575b601f0160051c01915b828110610a8257505050565b818155600101610a76565b9092508290610a6d56fea264697066735822122088d796207e0ef45b78e7c3c36fb533e090f4e61f50f4433369054e25d1a9434b64736f6c63430008180033",
  "linkReferences": {},
  "deployedLinkReferences": {}
}