{
  "_format": "hh-sol-artifact-1",
  "contractName": "ExportManager",
  "sourceName": "contracts/ExportManager.sol",
  "abi": [
    {
      "anonymous": false,
      "inputs": [
        {
          "indexed": true,
          "internalType": "bytes32",
          "name": "batchId",
          "type": "bytes32"
        }
      ],
      "name": "ExportCleared",
      "type": "event"
    },
    {
      "anonymous": false,
      "inputs": [
        {
          "indexed": true,
          "internalType": "bytes32",
          "name": "batchId",
          "type": "bytes32"
        },
        {
          "indexed": false,
          "internalType": "string",
          "name": "destination",
          "type": "string"
        }
      ],
      "name": "ExportRecorded",
      "type": "event"
    },
    {
      "inputs": [
        {
          "internalType": "bytes32",
          "name": "batchId",
          "type": "bytes32"
        }
      ],
      "name": "clearExport",
      "outputs": [],
      "stateMutability": "nonpayable",
      "type": "function"
    },
    {
      "inputs": [
        {
          "internalType": "bytes32",
          "name": "",
          "type": "bytes32"
        }
      ],
      "name": "exports",
      "outputs": [
        {
          "internalType": "bytes32",
          "name": "batchId",
          "type": "bytes32"
        },
        {
          "internalType": "string",
          "name": "destinationCountry",
          "type": "string"
        },
        {
          "internalType": "string",
          "name": "exportLicense",
          "type": "string"
        },
        {
          "internalType": "uint256",
          "name": "exportDate",
          "type": "uint256"
        },
        {
          "internalType": "string",
          "name": "status",
          "type": "string"
        }
      ],
      "stateMutability": "view",
      "type": "function"
    },
    {
      "inputs": [
        {
          "internalType": "bytes32",
          "name": "batchId",
          "type": "bytes32"
        }
      ],
      "name": "getExport",
      "outputs": [
        {
          "components": [
            {
              "internalType": "bytes32",
              "name": "batchId",
              "type": "bytes32"
            },
            {
              "internalType": "string",
              "name": "destinationCountry",
              "type": "string"
            },
            {
              "internalType": "string",
              "name": "exportLicense",
              "type": "string"
            },
            {
              "internalType": "uint256",
              "name": "exportDate",
              "type": "uint256"
            },
            {
              "internalType": "string",
              "name": "status",
              "type": "string"
            }
          ],
          "internalType": "struct ExportManager.ExportRecord",
          "name": "",
          "type": "tuple"
        }
      ],
      "stateMutability": "view",
      "type": "function"
    },
    {
      "inputs": [
        {
          "internalType": "bytes32",
          "name": "batchId",
          "type": "bytes32"
        },
        {
          "internalType": "string",
          "name": "destination",
          "type": "string"
        },
        {
          "internalType": "string",
          "name": "license",
          "type": "string"
        }
      ],
      "name": "recordExport",
      "outputs": [],
      "stateMutability": "nonpayable",
      "type": "function"
    }
  ],
  "bytecode": "0x608080604052346100165761090e908161001c8239f35b600080fdfe608080604052600436101561001357600080fd5b60003560e01c90816338c4e86b1461026b57508063bffc2f0e14610177578063ca3ac33e146100e25763e6d858f51461004b57600080fd5b346100dd5760203660031901126100dd57600435806000526000602052600460406000200161007a8154610718565b601f81116100bb575b50600e6610db19585c995960ca1b0190557f66e15581c3d3a3f6ce7da76d3c1db7ac58ef0a6f8c6664a15ad8af7150ac8c82600080a2005b6100d79082600052601f6020600020910160051c81019061087c565b38610083565b600080fd5b346100dd5760203660031901126100dd5760043560005260006020526040600020805461017361011460018401610790565b9261012160028201610790565b610160610135600460038501549401610790565b91610152604051978897885260a0602089015260a08801906106d8565b9086820360408801526106d8565b91606085015283820360808501526106d8565b0390f35b346100dd576020806003193601126100dd57608060405161019781610752565b60008152606091818385819401528260408201526000838201520152600435600052600082526101736040600020604051926101d284610752565b815484526101e260018301610790565b8585019081526102546101f760028501610790565b604087019081526102406102186004600388015497878b0198895201610790565b9360808901948552604051998a99818b5251908a01525160a060408a015260c08901906106d8565b9051601f19948589840301908901526106d8565b9251608086015251908483030160a08501526106d8565b346100dd5760603660031901126100dd5760243567ffffffffffffffff81116100dd5761029c9036906004016106aa565b9060443567ffffffffffffffff81116100dd576102bd9036906004016106aa565b909360043560005260006020526003604060002001546106785750610307604051946102e886610752565b60043586526102f8368686610835565b92602087019384523691610835565b60408501524260608501526040516040810181811067ffffffffffffffff82111761056c57604052600781526650656e64696e6760c81b602082015260808501526004356000526000602052604060002090845182555180519067ffffffffffffffff821161056c57819061038c826103836001870154610718565b60018701610893565b602090601f831160011461060b57600092610600575b50508160011b916000199060031b1c19161760018201555b604084015180519067ffffffffffffffff821161056c576103eb826103e26002860154610718565b60028601610893565b602090601f831160011461058d57918060809492600494600092610582575b50508160011b916000199060031b1c19161760028201555b606086015160038201550193015192835167ffffffffffffffff811161056c57610456816104508454610718565b84610893565b6020601f82116001146104e35781907f1c5c0b9c6e0b9de6fe2377f0d6fb2230a5e5f20451874a8a257774ac65dc85fc95966000926104d8575b50508160011b916000199060031b1c19161790555b826040519160208352816020840152604083013760006040848301015260408160043594601f80199101168101030190a2005b015190508680610490565b601f198216958360005260206000209660005b8181106105545750917f1c5c0b9c6e0b9de6fe2377f0d6fb2230a5e5f20451874a8a257774ac65dc85fc96979184600195941061053b575b505050811b0190556104a5565b015160001960f88460031b161c1916905586808061052e565b838301518955600190980197602093840193016104f6565b634e487b7160e01b600052604160045260246000fd5b01519050888061040a565b90601f198316916002850160005260206000209260005b8181106105e8575092600192859260049660809896106105cf575b505050811b016002820155610422565b015160001960f88460031b161c191690558880806105bf565b929360206001819287860151815501950193016105a4565b0151905086806103a2565b600185016000908152602081209350601f198516905b8181106106605750908460019594939210610647575b505050811b0160018201556103ba565b015160001960f88460031b161c19169055868080610637565b92936020600181928786015181550195019301610621565b62461bcd60e51b815260206004820152600d60248201526c4578706f72742065786973747360981b6044820152606490fd5b9181601f840112156100dd5782359167ffffffffffffffff83116100dd57602083818601950101116100dd57565b919082519283825260005b848110610704575050826000602080949584010152601f8019910116010190565b6020818301810151848301820152016106e3565b90600182811c92168015610748575b602083101461073257565b634e487b7160e01b600052602260045260246000fd5b91607f1691610727565b60a0810190811067ffffffffffffffff82111761056c57604052565b90601f8019910116810190811067ffffffffffffffff82111761056c57604052565b906040519182600082546107a381610718565b9081845260209460019160018116908160001461081357506001146107d4575b5050506107d29250038361076e565b565b600090815285812095935091905b8183106107fb5750506107d293508201013880806107c3565b855488840185015294850194879450918301916107e2565b925050506107d294925060ff191682840152151560051b8201013880806107c3565b92919267ffffffffffffffff821161056c576040519161085f601f8201601f19166020018461076e565b8294818452818301116100dd578281602093846000960137010152565b818110610887575050565b6000815560010161087c565b9190601f81116108a257505050565b6107d2926000526020600020906020601f840160051c830193106108ce575b601f0160051c019061087c565b90915081906108c156fea2646970667358221220994321e08a2867bd91f394eb8747bb25804a99d93f6200768532c41c287a8a6164736f6c63430008180033",
  "linkReferences": {},
  "deployedLinkReferences": {}
}