{
  "_format": "hh-sol-artifact-1",
  "contractName": "PestManagement",
  "sourceName": "contracts/PestManagement.sol",
  "abi": [
    {
      "anonymous": false,
      "inputs": [
        {
          "indexed": true,
          "internalType": "bytes32",
          "name": "batchId",
          "type": "bytes32"
        },
        {
          "indexed": false,
          "internalType": "string",
          "name": "pestType",
          "type": "string"
        }
      ],
      "name": "TreatmentApplied",
      "type": "event"
    },
    {
      "inputs": [
        {
          "internalType": "bytes32",
          "name": "batchId",
          "type": "bytes32"
        },
        {
          "internalType": "string",
          "name": "pestType",
          "type": "string"
        },
        {
          "internalType": "string",
          "name": "method",
          "type": "string"
        },
        {
          "internalType": "string",
          "name": "chemical",
          "type": "string"
        }
      ],
      "name": "applyTreatment",
      "outputs": [],
      "stateMutability": "nonpayable",
      "type": "function"
    },
    {
      "inputs": [
        {
          "internalType": "bytes32",
          "name": "batchId",
          "type": "bytes32"
        }
      ],
      "name": "getTreatments",
      "outputs": [
        {
          "components": [
            {
              "internalType": "bytes32",
              "name": "batchId",
              "type": "bytes32"
            },
            {
              "internalType": "string",
              "name": "pestType",
              "type": "string"
            },
            {
              "internalType": "string",
              "name": "treatmentMethod",
              "type": "string"
            },
            {
              "internalType": "uint256",
              "name": "treatmentDate",
              "type": "uint256"
            },
            {
              "internalType": "string",
              "name": "chemicalUsed",
              "type": "string"
            }
          ],
          "internalType": "struct PestManagement.Treatment[]",
          "name": "",
          "type": "tuple[]"
        }
      ],
      "stateMutability": "view",
      "type": "function"
    },
    {
      "inputs": [
        {
          "internalType": "bytes32",
          "name": "",
          "type": "bytes32"
        },
        {
          "internalType": "uint256",
          "name": "",
          "type": "uint256"
        }
      ],
      "name": "treatments",
      "outputs": [
        {
          "internalType": "bytes32",
          "name": "batchId",
          "type": "bytes32"
        },
        {
          "internalType": "string",
          "name": "pestType",
          "type": "string"
        },
        {
          "internalType": "string",
          "name": "treatmentMethod",
          "type": "string"
        },
        {
          "internalType": "uint256",
          "name": "treatmentDate",
          "type": "uint256"
        },
        {
          "internalType": "string",
          "name": "chemicalUsed",
          "type": "string"
        }
      ],
      "stateMutability": "view",
      "type": "function"
    }
  ],
  "bytecode": "0x60808060405234610016576109a2908161001c8239f35b600080fdfe608080604052600436101561001357600080fd5b60003560e01c9081632458bfef1461027457508063553ae732146101c85763978ea8a81461004057600080fd5b346101c3576020806003193601126101c35760043560005260008152604060002080549067ffffffffffffffff82116101ad5782906005926040519361008b848360051b018661081e565b8185528385018093600052846000206000915b84831061014957604080518881528951818a01819052600092600582901b83018101918a918c9085015b8287106100d55785850386f35b909192938280610139600193603f198a8203018652885161011c61010a60a083518552868401519080888701528501906108e5565b604083015184820360408601526108e5565b9160608083015190820152608080920151918184039101526108e5565b96019201960195929190926100c8565b838760019260409a999a5161015d81610802565b8554815261016c858701610840565b8382015261017c60028701610840565b60408201526003860154606082015261019760048701610840565b608082015281520192019201919096959661009e565b634e487b7160e01b600052604160045260246000fd5b600080fd5b346101c35760403660031901126101c357602435600435600052600060205260406000209081548110156101c3576101ff91610796565b50805461027061021160018401610840565b9261021e60028201610840565b61025d610232600460038501549401610840565b9161024f604051978897885260a0602089015260a08801906108e5565b9086820360408801526108e5565b91606085015283820360808501526108e5565b0390f35b346101c35760803660031901126101c35760243567ffffffffffffffff81116101c3576102a5903690600401610768565b9060443567ffffffffffffffff81116101c3576102c6903690600401610768565b9060643567ffffffffffffffff81116101c3576102ea610338913690600401610768565b60043560005260006020526103266040600020946103078a610802565b6004358a52610317368a8a610925565b9660208b019788523691610925565b60408901524260608901523691610925565b60808601528054680100000000000000008110156101ad5761035f91600182018155610796565b91909161075257845182555180519067ffffffffffffffff82116101ad57819061038c60018501546107c8565b601f81116106ff575b50602090601f831160011461068d57600092610682575b50508160011b916000199060031b1c19161760018201555b604084015180519067ffffffffffffffff82116101ad576103e860028401546107c8565b601f811161063b575b50602090601f83116001146105c6579180608094926004946000926105bb575b50508160011b916000199060031b1c19161760028201555b606086015160038201550193015192835167ffffffffffffffff81116101ad5761045382546107c8565b601f8111610573575b506020601f82116001146104ea5781907ffbf109169cb6163f01a7fe35a0ad1ca7c21940e7d653c3fddcaf1fcfbc17593295966000926104df575b50508160011b916000199060031b1c19161790555b826040519160208352816020840152604083013760006040848301015260408160043594601f80199101168101030190a2005b015190508680610497565b601f198216958360005260206000209660005b81811061055b5750917ffbf109169cb6163f01a7fe35a0ad1ca7c21940e7d653c3fddcaf1fcfbc175932969791846001959410610542575b505050811b0190556104ac565b015160001960f88460031b161c19169055868080610535565b838301518955600190980197602093840193016104fd565b826000526020600020601f830160051c810191602084106105b1575b601f0160051c01905b8181106105a5575061045c565b60008155600101610598565b909150819061058f565b015190508880610411565b906002840160005260206000209160005b601f19851681106106235750926080949260019260049583601f1981161061060a575b505050811b016002820155610429565b015160001960f88460031b161c191690558880806105fa565b919260206001819286850151815501940192016105d7565b600284016000526020600020601f840160051c81016020851061067b575b601f830160051c8201811061066f5750506103f1565b60008155600101610659565b5080610659565b0151905086806103ac565b9250600184016000526020600020906000935b601f19841685106106e4576001945083601f198116106106cb575b505050811b0160018201556103c4565b015160001960f88460031b161c191690558680806106bb565b818101518355602094850194600190930192909101906106a0565b909150600184016000526020600020601f840160051c81016020851061074b575b90849392915b601f830160051c8201811061073c575050610395565b60008155859450600101610726565b5080610720565b634e487b7160e01b600052600060045260246000fd5b9181601f840112156101c35782359167ffffffffffffffff83116101c357602083818601950101116101c357565b80548210156107b2576000526005602060002091020190600090565b634e487b7160e01b600052603260045260246000fd5b90600182811c921680156107f8575b60208310146107e257565b634e487b7160e01b600052602260045260246000fd5b91607f16916107d7565b60a0810190811067ffffffffffffffff8211176101ad57604052565b90601f8019910116810190811067ffffffffffffffff8211176101ad57604052565b90604051918260008254610853816107c8565b908184526020946001916001811690816000146108c35750600114610884575b5050506108829250038361081e565b565b600090815285812095935091905b8183106108ab5750506108829350820101388080610873565b85548884018501529485019487945091830191610892565b9250505061088294925060ff191682840152151560051b820101388080610873565b919082519283825260005b848110610911575050826000602080949584010152601f8019910116010190565b6020818301810151848301820152016108f0565b92919267ffffffffffffffff82116101ad576040519161094f601f8201601f19166020018461081e565b8294818452818301116101c357828160209384600096013701015256fea2646970667358221220e5c4f2d3844a864007949c8938f4122460bef29ff6a215cb99c41a6656e04c1e64736f6c63430008180033",
  "linkReferences": {},
  "deployedLinkReferences": {}
}