{
  "_format": "hh-sol-artifact-1",
  "contractName": "BatchProcessor",
  "sourceName": "contracts/BatchProcessor.sol",
  "abi": [
    {
      "anonymous": false,
      "inputs": [
        {
          "indexed": true,
          "internalType": "bytes32",
          "name": "opId",
          "type": "bytes32"
        },
        {
          "indexed": false,
          "internalType": "address",
          "name": "operator",
          "type": "address"
        },
        {
          "indexed": false,
          "internalType": "uint256",
          "name": "count",
          "type": "uint256"
        }
      ],
      "name": "BatchOperationCreated",
      "type": "event"
    },
    {
      "inputs": [
        {
          "internalType": "uint256[]",
          "name": "_batchIds",
          "type": "uint256[]"
        },
        {
          "internalType": "string",
          "name": "_opType",
          "type": "string"
        }
      ],
      "name": "createBatchOperation",
      "outputs": [
        {
          "internalType": "bytes32",
          "name": "",
          "type": "bytes32"
        }
      ],
      "stateMutability": "nonpayable",
      "type": "function"
    },
    {
      "inputs": [
        {
          "internalType": "bytes32",
          "name": "_opId",
          "type": "bytes32"
        }
      ],
      "name": "getOperation",
      "outputs": [
        {
          "components": [
            {
              "internalType": "uint256[]",
              "name": "batchTokenIds",
              "type": "uint256[]"
            },
            {
              "internalType": "address",
              "name": "operator",
              "type": "address"
            },
            {
              "internalType": "string",
              "name": "operationType",
              "type": "string"
            },
            {
              "internalType": "uint256",
              "name": "timestamp",
              "type": "uint256"
            }
          ],
          "internalType": "struct BatchProcessor.BatchOperation",
          "name": "",
          "type": "tuple"
        }
      ],
      "stateMutability": "view",
      "type": "function"
    },
    {
      "inputs": [
        {
          "internalType": "bytes32",
          "name": "",
          "type": "bytes32"
        }
      ],
      "name": "operations",
      "outputs": [
        {
          "internalType": "address",
          "name": "operator",
          "type": "address"
        },
        {
          "internalType": "string",
          "name": "operationType",
          "type": "string"
        },
        {
          "internalType": "uint256",
          "name": "timestamp",
          "type": "uint256"
        }
      ],
      "stateMutability": "view",
      "type": "function"
    }
  ],
  "bytecode": "0x6080806040523461001657610752908161001c8239f35b600080fdfe6080604081815260048036101561001557600080fd5b600092833560e01c908163279412c514610468575080636a1f3bbe146100a75763c74f349b1461004457600080fd5b346100a35760203660031901126100a35791819235815280602052209060018060a01b0360018301541690600361007d60028501610660565b93015461009b82519485948552606060208601526060850190610592565b918301520390f35b8280fd5b5091903461046457806003193601126104645782359267ffffffffffffffff90818511610460573660238601121561046057848101359060249280831161044e578260051b906020978651946100ff8a850187610604565b8552888501868194830101913683116104255790878b9201905b83821061043f575050505084359181831161043b573660238401121561043b57828401358281116104295787519361015a601f8301601f19168c0186610604565b8185523688838301011161042557818a92898d9301838801378501015284511561041357519286519089820194855242888301528782526060820194828610848711176104015785895282519020986101b2866105d2565b86865260c0608084019333855260a0810196875201974289528a8252818c5289822096518051908682116103ef576801000000000000000082116103ef578d908954838b558084106103d5575b50018884528d80852090855b8481106103c2575050505050600193600188019060018060a01b039051166bffffffffffffffffffffffff60a01b8254161790556002870195519283519586116103b1575050918895939185936102648c999754610626565b8d601f8211610378575b50508c92601f85116001146102e45750926003949281927fe8b3eeeeaf94ca4c4b7a12437bdfd802183f168230ce2a9ce7272f9de5f425c49a9b95926102d9575b50508160011b9160001990861b1c19161790555b519101555181519033825287820152a251908152f35b0151905038806102af565b8582528d82209a9594939291601f198516918f5b83831061035b5750505099600192849260039796957fe8b3eeeeaf94ca4c4b7a12437bdfd802183f168230ce2a9ce7272f9de5f425c49c9d10610343575b505050811b0190556102c3565b015160001983881b60f8161c19169055388080610336565b848601518e559c81019c8f9c508e9b5094850194918201916102f8565b8683528083206103a092601f880160051c82019288106103a7575b601f0160051c0190610705565b388d61026e565b9091508190610393565b634e487b7160e01b83526041905281fd5b8351838201559201918f9060010161020b565b8a86528286206103e9918101908501610705565b386101ff565b634e487b7160e01b8452604185528284fd5b634e487b7160e01b8a5260418252878afd5b634e487b7160e01b8852603284528588fd5b8980fd5b634e487b7160e01b8952604185528689fd5b8780fd5b81358152908201908201610119565b634e487b7160e01b8652604182528386fd5b8380fd5b5080fd5b9291905034610460578360209384600319360112610464579060608261048f8395946105d2565b8181528287820152818682015201523581528083528181208251926104b3846105d2565b8051825480825283855286852087830191865b81811061057e57505050816104dc910382610604565b845260018060a01b036001938160018501541690878701918252600361050460028701610660565b958589019687520154956060880196875284519789895260a089019051996080818b01528a518092528060c08b019b01935b82811061056b578a808b6105608f8d8d8d8d51169086015251601f19858303016060860152610592565b905160808301520390f35b84518c529a81019a938101938301610536565b8254845292890192600192830192016104c6565b919082519283825260005b8481106105be575050826000602080949584010152601f8019910116010190565b60208183018101518483018201520161059d565b6080810190811067ffffffffffffffff8211176105ee57604052565b634e487b7160e01b600052604160045260246000fd5b90601f8019910116810190811067ffffffffffffffff8211176105ee57604052565b90600182811c92168015610656575b602083101461064057565b634e487b7160e01b600052602260045260246000fd5b91607f1691610635565b9060405191826000825461067381610626565b908184526020946001916001811690816000146106e357506001146106a4575b5050506106a292500383610604565b565b600090815285812095935091905b8183106106cb5750506106a29350820101388080610693565b855488840185015294850194879450918301916106b2565b925050506106a294925060ff191682840152151560051b820101388080610693565b818110610710575050565b6000815560010161070556fea26469706673582212208f53162977b3acafff6b1a5ae33c2ff2bf3f05ca18af2f37d79d2e9e4f9b00fa64736f6c63430008180033",
  "linkReferences": {},
  "deployedLinkReferences": {}
}