{
  "_format": "hh-sol-artifact-1",
  "contractName": "LogisticsContract",
  "sourceName": "contracts/Logistics.sol",
  "abi": [
    {
      "anonymous": false,
      "inputs": [
        {
          "indexed": true,
          "internalType": "bytes32",
          "name": "id",
          "type": "bytes32"
        },
        {
          "indexed": false,
          "internalType": "uint256",
          "name": "batchId",
          "type": "uint256"
        },
        {
          "indexed": false,
          "internalType": "address",
          "name": "sender",
          "type": "address"
        }
      ],
      "name": "ShipmentCreated",
      "type": "event"
    },
    {
      "anonymous": false,
      "inputs": [
        {
          "indexed": true,
          "internalType": "bytes32",
          "name": "id",
          "type": "bytes32"
        },
        {
          "indexed": false,
          "internalType": "enum LogisticsContract.ShippingStatus",
          "name": "status",
          "type": "uint8"
        }
      ],
      "name": "ShipmentStatusChanged",
      "type": "event"
    },
    {
      "inputs": [
        {
          "internalType": "uint256",
          "name": "_batchId",
          "type": "uint256"
        },
        {
          "internalType": "address",
          "name": "_receiver",
          "type": "address"
        },
        {
          "internalType": "string",
          "name": "_carrier",
          "type": "string"
        }
      ],
      "name": "createShipment",
      "outputs": [
        {
          "internalType": "bytes32",
          "name": "",
          "type": "bytes32"
        }
      ],
      "stateMutability": "nonpayable",
      "type": "function"
    },
    {
      "inputs": [
        {
          "internalType": "bytes32",
          "name": "",
          "type": "bytes32"
        }
      ],
      "name": "shipments",
      "outputs": [
        {
          "internalType": "uint256",
          "name": "batchTokenId",
          "type": "uint256"
        },
        {
          "internalType": "address",
          "name": "sender",
          "type": "address"
        },
        {
          "internalType": "address",
          "name": "receiver",
          "type": "address"
        },
        {
          "internalType": "string",
          "name": "carrier",
          "type": "string"
        },
        {
          "internalType": "string",
          "name": "trackingNumber",
          "type": "string"
        },
        {
          "internalType": "enum LogisticsContract.ShippingStatus",
          "name": "status",
          "type": "uint8"
        },
        {
          "internalType": "uint256",
          "name": "estimatedDelivery",
          "type": "uint256"
        },
        {
          "internalType": "uint256",
          "name": "actualDelivery",
          "type": "uint256"
        }
      ],
      "stateMutability": "view",
      "type": "function"
    },
    {
      "inputs": [
        {
          "internalType": "bytes32",
          "name": "_id",
          "type": "bytes32"
        },
        {
          "internalType": "enum LogisticsContract.ShippingStatus",
          "name": "_status",
          "type": "uint8"
        }
      ],
      "name": "updateStatus",
      "outputs": [],
      "stateMutability": "nonpayable",
      "type": "function"
    }
  ],
  "bytecode": "0x60808060405234610016576107c5908161001c8239f35b600080fdfe6080604052600436101561001257600080fd5b60003560e01c8063054372ed146105a5578063ce90ceff146101005763d87b40411461003d57600080fd5b346100fb5760203660031901126100fb5760043560009081526020819052604090208054600182015460028301546001600160a01b039081169391169161008660038301610685565b916100ed6100e261009960048401610685565b6100d460ff6005860154169660076006870154960154966040519a8b9a610100928c5260208c015260408b01528060608b015289019061072a565b90878203608089015261072a565b9360a086019061076a565b60c084015260e08301520390f35b600080fd5b346100fb5760603660031901126100fb576024356001600160a01b03811681036100fb5760443567ffffffffffffffff81116100fb57366023820112156100fb57806004013567ffffffffffffffff81116104bb576040519161016d601f8301601f191660200184610629565b81835236602483830101116100fb57816000926024602093018386013783010152604051906020820160043581524260408401526040835282606081011067ffffffffffffffff6060850111176104bb5760608301604052825190209262093a804201421161058f57610160830160608401811067ffffffffffffffff8211176104bb57604052600435606084015233608084015260018060a01b031660a083015260c082015260405180602081011067ffffffffffffffff6020830111176104bb57602081016040526000815260e0820152600061010082015262093a8042016101208201526000610140820152816000526000602052604060002090606081015182556001820160018060a01b03608083015116906bffffffffffffffffffffffff60a01b9182825416179055600283019060018060a01b0360a0840151169082541617905560c081015192835167ffffffffffffffff81116104bb576102d9600385015461064b565b601f8111610548575b50602094601f82116001146104dc579481929394956000926104d1575b50508160011b916000199060031b1c19161760038401555b60e082015192835167ffffffffffffffff81116104bb5761033b600483015461064b565b601f8111610474575b50602094601f8211600114610408579481929394956000926103fd575b50508160011b916000199060031b1c19161760048201555b6101008301519260058410156103e75761014060079161039e60209660058601610777565b61012081015160068501550151910155807f800f27b507ba0f04b931d7a0b06fd310dcf1696e3cc6c506ed31d69daa16a29e6040805160043581523386820152a2604051908152f35b634e487b7160e01b600052602160045260246000fd5b015190508580610361565b601f198216956004840160005260206000209160005b88811061045c57508360019596979810610443575b505050811b016004820155610379565b015160001960f88460031b161c19169055858080610433565b9192602060018192868501518155019401920161041e565b600483016000526020600020601f830160051c8101602084106104b4575b601f830160051c820181106104a8575050610344565b60008155600101610492565b5080610492565b634e487b7160e01b600052604160045260246000fd5b0151905085806102ff565b601f198216956003860160005260206000209160005b88811061053057508360019596979810610517575b505050811b016003840155610317565b015160001960f88460031b161c19169055858080610507565b919260206001819286850151815501940192016104f2565b600385016000526020600020601f830160051c810160208410610588575b601f830160051c8201811061057c5750506102e2565b60008155600101610566565b5080610566565b634e487b7160e01b600052601160045260246000fd5b346100fb5760403660031901126100fb5760043560243560058110156100fb5760207ffb3478113a887b3ea044d1b4b8ef6e12d5fdcd7a27ec7dd3299748e7fb38447691836000526000825260406000206106038260058301610777565b6002821461061d575b5061061a604051809261076a565ba2005b6007429101558461060c565b90601f8019910116810190811067ffffffffffffffff8211176104bb57604052565b90600182811c9216801561067b575b602083101461066557565b634e487b7160e01b600052602260045260246000fd5b91607f169161065a565b906040519182600082546106988161064b565b9081845260209460019160018116908160001461070857506001146106c9575b5050506106c792500383610629565b565b600090815285812095935091905b8183106106f05750506106c793508201013880806106b8565b855488840185015294850194879450918301916106d7565b925050506106c794925060ff191682840152151560051b8201013880806106b8565b919082519283825260005b848110610756575050826000602080949584010152601f8019910116010190565b602081830181015184830182015201610735565b9060058210156103e75752565b9060058110156103e75760ff8019835416911617905556fea2646970667358221220d8677905155686d05b02905462b4fec79b5e697402f54b118a0a9df63354ac2f64736f6c63430008180033",
  "linkReferences": {},
  "deployedLinkReferences": {}
}