{
  "_format": "hh-sol-artifact-1",
  "contractName": "PaymentSplitterContract",
  "sourceName": "contracts/PaymentSplitter.sol",
  "abi": [
    {
      "anonymous": false,
      "inputs": [
        {
          "indexed": false,
          "internalType": "address[]",
          "name": "recipients",
          "type": "address[]"
        },
        {
          "indexed": false,
          "internalType": "uint256[]",
          "name": "amounts",
          "type": "uint256[]"
        }
      ],
      "name": "FundsDistributed",
      "type": "event"
    },
    {
      "anonymous": false,
      "inputs": [
        {
          "indexed": false,
          "internalType": "address",
          "name": "from",
          "type": "address"
        },
        {
          "indexed": false,
          "internalType": "uint256",
          "name": "amount",
          "type": "uint256"
        }
      ],
      "name": "PaymentReceived",
      "type": "event"
    },
    {
      "inputs": [
        {
          "internalType": "address[]",
          "name": "_recipients",
          "type": "address[]"
        },
        {
          "internalType": "uint256[]",
          "name": "_amounts",
          "type": "uint256[]"
        }
      ],
      "name": "distribute",
      "outputs": [],
      "stateMutability": "payable",
      "type": "function"
    },
    {
      "stateMutability": "payable",
      "type": "receive"
    }
  ],
  "bytecode": "0x6080806040523461001657610347908161001c8239f35b600080fdfe604060808152600436101561004a575b361561001a57600080fd5b807f6ef95f06320e7a25a04a175ca677b7052bdd97131872c2192525a629f51be7709151338152346020820152a1005b6000803560e01c632929abe614610061575061000f565b908060031936011261028f576004359067ffffffffffffffff80831161028b573660238401121561028b5782600401359260246100a56100a0866102cf565b610293565b948592818752602080970183819360051b83010191368311610287578401905b8282106102685750505081359384116102645736602385011215610264578360040135916100f56100a0846102cf565b9487868581520182819560051b8301019136831161026057838a9101915b8383106102505750505050835185510361021c57509086939291845b835181101561018557858080806001600160a01b0361014e868a6102e7565b511661015a868b6102e7565b519082821561017c575bf1156101725760010161012f565b86513d87823e3d90fd5b506108fc610164565b5085518681529251838701819052859488926060860192875b8181106101ff5750505084820385840152518082529082019291855b8281106101eb57867fa9c05f435364985a2f5d31ba04a2d619c7cff780a5e92d315a88a3ed6502542187870388a180f35b8351855293810193928101926001016101ba565b82516001600160a01b03168552938501939185019160010161019e565b86600f60649288519262461bcd60e51b845260048401528201526e098cadccee8d040dad2e6dac2e8c6d608b1b6044820152fd5b82358152918101918a9101610113565b8a80fd5b8680fd5b81356001600160a01b03811681036102605781529088019088016100c5565b8980fd5b8380fd5b5080fd5b6040519190601f01601f1916820167ffffffffffffffff8111838210176102b957604052565b634e487b7160e01b600052604160045260246000fd5b67ffffffffffffffff81116102b95760051b60200190565b80518210156102fb5760209160051b010190565b634e487b7160e01b600052603260045260246000fdfea26469706673582212200e2ef67ea05f10289a70e34832317c2f07b5595ffc20ed0d1090b34e711cbb0164736f6c63430008180033",
  "linkReferences": {},
  "deployedLinkReferences": {}
}