{
  "_format": "hh-sol-artifact-1",
  "contractName": "AuditTrail",
  "sourceName": "contracts/AuditTrail.sol",
  "abi": [
    {
      "anonymous": false,
      "inputs": [
        {
          "indexed": true,
          "internalType": "bytes32",
          "name": "batchId",
          "type": "bytes32"
        },
        {
          "indexed": false,
          "internalType": "string",
          "name": "action",
          "type": "string"
        },
        {
          "indexed": true,
          "internalType": "address",
          "name": "actor",
          "type": "address"
        }
      ],
      "name": "AuditEntryAdded",
      "type": "event"
    },
    {
      "inputs": [
        {
          "internalType": "bytes32",
          "name": "batchId",
          "type": "bytes32"
        },
        {
          "internalType": "string",
          "name": "action",
          "type": "string"
        },
        {
          "internalType": "string",
          "name": "details",
          "type": "string"
        }
      ],
      "name": "addAuditEntry",
      "outputs": [],
      "stateMutability": "nonpayable",
      "type": "function"
    },
    {
      "inputs": [
        {
          "internalType": "bytes32",
          "name": "",
          "type": "bytes32"
        },
        {
          "internalType": "uint256",
          "name": "",
          "type": "uint256"
        }
      ],
      "name": "auditLogs",
      "outputs": [
        {
          "internalType": "bytes32",
          "name": "batchId",
          "type": "bytes32"
        },
        {
          "internalType": "string",
          "name": "action",
          "type": "string"
        },
        {
          "internalType": "address",
          "name": "actor",
          "type": "address"
        },
        {
          "internalType": "uint256",
          "name": "timestamp",
          "type": "uint256"
        },
        {
          "internalType": "string",
          "name": "details",
          "type": "string"
        }
      ],
      "stateMutability": "view",
      "type": "function"
    },
    {
      "inputs": [
        {
          "internalType": "bytes32",
          "name": "batchId",
          "type": "bytes32"
        }
      ],
      "name": "getAuditCount",
      "outputs": [
        {
          "internalType": "uint256",
          "name": "",
          "type": "uint256"
        }
      ],
      "stateMutability": "view",
      "type": "function"
    },
    {
      "inputs": [
        {
          "internalType": "bytes32",
          "name": "batchId",
          "type": "bytes32"
        }
      ],
      "name": "getAuditTrail",
      "outputs": [
        {
          "components": [
            {
              "internalType": "bytes32",
              "name": "batchId",
              "type": "bytes32"
            },
            {
              "internalType": "string",
              "name": "action",
              "type": "string"
            },
            {
              "internalType": "address",
              "name": "actor",
              "type": "address"
            },
            {
              "internalType": "uint256",
              "name": "timestamp",
              "type": "uint256"
            },
            {
              "internalType": "string",
              "name": "details",
              "type": "string"
            }
          ],
          "internalType": "struct AuditTrail.AuditEntry[]",
          "name": "",
          "type": "tuple[]"
        }
      ],
      "stateMutability": "view",
      "type": "function"
    }
  ],
  "bytecode": "0x608080604052346100165761087f908161001c8239f35b600080fdfe6080604052600436101561001257600080fd5b60003560e01c806309fa1a1a146105a357806351ee4f56146101f857806373a8ce8b146100795763a465637f1461004857600080fd5b346100745760203660031901126100745760043560005260006020526020604060002054604051908152f35b600080fd5b34610074576020806003193601126100745760043560005260008152604060002080549067ffffffffffffffff82116101e2578290600592604051936100c4848360051b01866106cd565b8185528385018093600052846000206000915b84831061017e57604080518881528951818a01819052600092600582901b83018101918a918c9085015b82871061010e5785850386f35b90919293828061016e600193603f198a8203018652885161014060a08251845285830151908087860152840190610794565b91868060a01b0360408301511660408201526060808301519082015260808092015191818403910152610794565b9601920196019592919092610101565b838760019260409a999a51610192816106b1565b855481526101a18587016106ef565b83820152848060a01b036002870154166040820152600386015460608201526101cc600487016106ef565b60808201528152019201920191909695966100d7565b634e487b7160e01b600052604160045260246000fd5b346100745760603660031901126100745760243567ffffffffffffffff8111610074576102299036906004016107d4565b9060443567ffffffffffffffff81116100745761024a9036906004016107d4565b600493919335600052600060205260406000206102986040519561026d876106b1565b600435875261027d368688610802565b93602088019485523360408901524260608901523691610802565b60808601528054680100000000000000008110156101e2576102bf91600182018155610645565b91909161058d57845182555180519067ffffffffffffffff82116101e2576102ea6001840154610677565b601f8111610546575b50602090601f83116001146104d1579180608094926004946000926104c6575b50508160011b916000199060031b1c19161760018201555b6002810160018060a01b036040880151166bffffffffffffffffffffffff60a01b825416179055606086015160038201550193015192835167ffffffffffffffff81116101e25761037c8254610677565b601f811161047e575b50602094601f82116001146104185794819293949560009261040d575b50508160011b916000199060031b1c19161790555b80604051926020845281602085015260408401376000604082840101527fbcb568eef382e851b276f9048bcb01f9a18a47679fa289f5c76ce7375900ba4b339260408160043594601f80199101168101030190a3005b0151905085806103a2565b601f198216958360005260206000209160005b8881106104665750836001959697981061044d575b505050811b0190556103b7565b015160001960f88460031b161c19169055858080610440565b9192602060018192868501518155019401920161042b565b826000526020600020601f830160051c810191602084106104bc575b601f0160051c01905b8181106104b05750610385565b600081556001016104a3565b909150819061049a565b015190508880610313565b906001840160005260206000209160005b601f198516811061052e5750926080949260019260049583601f19811610610515575b505050811b01600182015561032b565b015160001960f88460031b161c19169055888080610505565b919260206001819286850151815501940192016104e2565b600184016000526020600020601f840160051c810160208510610586575b601f830160051c8201811061057a5750506102f3565b60008155600101610564565b5080610564565b634e487b7160e01b600052600060045260246000fd5b346100745760403660031901126100745760243560043560005260006020526040600020908154811015610074576105da91610645565b5080546106416105ec600184016106ef565b9260018060a01b036002820154169061060c6004600383015492016106ef565b90610629604051968796875260a0602088015260a0870190610794565b92604086015260608501528382036080850152610794565b0390f35b8054821015610661576000526005602060002091020190600090565b634e487b7160e01b600052603260045260246000fd5b90600182811c921680156106a7575b602083101461069157565b634e487b7160e01b600052602260045260246000fd5b91607f1691610686565b60a0810190811067ffffffffffffffff8211176101e257604052565b90601f8019910116810190811067ffffffffffffffff8211176101e257604052565b9060405191826000825461070281610677565b908184526020946001916001811690816000146107725750600114610733575b505050610731925003836106cd565b565b600090815285812095935091905b81831061075a5750506107319350820101388080610722565b85548884018501529485019487945091830191610741565b9250505061073194925060ff191682840152151560051b820101388080610722565b919082519283825260005b8481106107c0575050826000602080949584010152601f8019910116010190565b60208183018101518483018201520161079f565b9181601f840112156100745782359167ffffffffffffffff8311610074576020838186019501011161007457565b92919267ffffffffffffffff82116101e2576040519161082c601f8201601f1916602001846106cd565b82948184528183011161007457828160209384600096013701015256fea2646970667358221220990a9861342bafa5341fe31c66621b5ab362f87c4f16e85e2be3911bbc70e73c64736f6c63430008180033",
  "linkReferences": {},
  "deployedLinkReferences": {}
}