{
  "_format": "hh-sol-artifact-1",
  "contractName": "QualityStandard",
  "sourceName": "contracts/QualityStandard.sol",
  "abi": [
    {
      "anonymous": false,
      "inputs": [
        {
          "indexed": true,
          "internalType": "bytes32",
          "name": "standardId",
          "type": "bytes32"
        },
        {
          "indexed": false,
          "internalType": "string",
          "name": "name",
          "type": "string"
        }
      ],
      "name": "StandardCreated",
      "type": "event"
    },
    {
      "anonymous": false,
      "inputs": [
        {
          "indexed": true,
          "internalType": "bytes32",
          "name": "standardId",
          "type": "bytes32"
        },
        {
          "indexed": false,
          "internalType": "bool",
          "name": "active",
          "type": "bool"
        }
      ],
      "name": "StandardUpdated",
      "type": "event"
    },
    {
      "inputs": [
        {
          "internalType": "bytes32",
          "name": "standardId",
          "type": "bytes32"
        },
        {
          "internalType": "string",
          "name": "name",
          "type": "string"
        },
        {
          "internalType": "string",
          "name": "description",
          "type": "string"
        },
        {
          "internalType": "uint256",
          "name": "minScore",
          "type": "uint256"
        }
      ],
      "name": "createStandard",
      "outputs": [],
      "stateMutability": "nonpayable",
      "type": "function"
    },
    {
      "inputs": [
        {
          "internalType": "bytes32",
          "name": "standardId",
          "type": "bytes32"
        }
      ],
      "name": "getStandard",
      "outputs": [
        {
          "components": [
            {
              "internalType": "bytes32",
              "name": "standardId",
              "type": "bytes32"
            },
            {
              "internalType": "string",
              "name": "name",
              "type": "string"
            },
            {
              "internalType": "string",
              "name": "description",
              "type": "string"
            },
            {
              "internalType": "uint256",
              "name": "minQualityScore",
              "type": "uint256"
            },
            {
              "internalType": "bool",
              "name": "active",
              "type": "bool"
            }
          ],
          "internalType": "struct QualityStandard.Standard",
          "name": "",
          "type": "tuple"
        }
      ],
      "stateMutability": "view",
      "type": "function"
    },
    {
      "inputs": [
        {
          "internalType": "bytes32",
          "name": "",
          "type": "bytes32"
        }
      ],
      "name": "standards",
      "outputs": [
        {
          "internalType": "bytes32",
          "name": "standardId",
          "type": "bytes32"
        },
        {
          "internalType": "string",
          "name": "name",
          "type": "string"
        },
        {
          "internalType": "string",
          "name": "description",
          "type": "string"
        },
        {
          "internalType": "uint256",
          "name": "minQualityScore",
          "type": "uint256"
        },
        {
          "internalType": "bool",
          "name": "active",
          "type": "bool"
        }
      ],
      "stateMutability": "view",
      "type": "function"
    },
    {
      "inputs": [
        {
          "internalType": "bytes32",
          "name": "standardId",
          "type": "bytes32"
        },
        {
          "internalType": "bool",
          "name": "active",
          "type": "bool"
        }
      ],
      "name": "updateStandard",
      "outputs": [],
      "stateMutability": "nonpayable",
      "type": "function"
    }
  ],
  "bytecode": "0x6080806040523461001657610840908161001c8239f35b600080fdfe6080604052600436101561001257600080fd5b60003560e01c806301c95347146105b057806398990ff5146101aa578063a1dd1349146101365763b355a03c1461004857600080fd5b3461013157602080600319360112610131576000608060405161006a81610672565b8281526060848201526060604082015282606082015201526004356000526000815260406000206040519061009e82610672565b805482526100ae600182016106b0565b83830190815261011e6100c3600284016106b0565b6040850190815261010b60ff6004600387015496606089019788520154169360808701941515855260405197889781895251908801525160a0604088015260c0870190610755565b9051858203601f19016060870152610755565b9151608084015251151560a08301520390f35b600080fd5b346101315760403660031901126101315760043560243580151590818103610131577f46c26be15d42fca8af3126e0c148a8502f430747e73c0779af7f5a8b6161a5ad916101a1602092856000526000845260046040600020019060ff801983541691151516179055565b604051908152a2005b346101315760803660031901126101315760243567ffffffffffffffff8111610131576101db903690600401610795565b9060443567ffffffffffffffff8111610131576101fc903690600401610795565b906004356000526000602052600360406000200154610579576102446040519161022583610672565b60043583526102353687876107c3565b936020840194855236916107c3565b60408201526064356060820152600160808201526004356000526000602052604060002091815183555180519067ffffffffffffffff821161049357819061028f6001860154610638565b601f8111610526575b50602090601f83116001146104b4576000926104a9575b50508160011b916000199060031b1c19161760018301555b604081015180519067ffffffffffffffff8211610493576102eb6002850154610638565b601f811161044c575b50602090601f83116001146103b15761037393837f81c7c19089774127b41490812362147c4a590a557065816c981dced7e3d785db9796946004946080946000926103a6575b50508160011b916000199060031b1c19161760028501555b606081015160038501550151151591019060ff801983541691151516179055565b826040519160208352816020840152604083013760006040848301015260408160043594601f80199101168101030190a2005b015190508a8061033a565b906002850160005260206000209160005b601f1985168110610434575093600184600494608094610373987f81c7c19089774127b41490812362147c4a590a557065816c981dced7e3d785db9b9a98601f1981161061041b575b505050811b016002850155610352565b015160001960f88460031b161c191690558a808061040b565b919260206001819286850151815501940192016103c2565b600285016000526020600020601f840160051c81016020851061048c575b601f830160051c820181106104805750506102f4565b6000815560010161046a565b508061046a565b634e487b7160e01b600052604160045260246000fd5b0151905086806102af565b9250600185016000526020600020906000935b601f198416851061050b576001945083601f198116106104f2575b505050811b0160018301556102c7565b015160001960f88460031b161c191690558680806104e2565b818101518355602094850194600190930192909101906104c7565b909150600185016000526020600020601f840160051c810160208510610572575b90849392915b601f830160051c82018110610563575050610298565b6000815585945060010161054d565b5080610547565b60405162461bcd60e51b815260206004820152600f60248201526e5374616e646172642065786973747360881b6044820152606490fd5b34610131576020366003190112610131576004356000526000602052604060002080546105df600183016106b0565b916105ec600282016106b0565b61062760ff600460038501549401541691610619604051968796875260a0602088015260a0870190610755565b908582036040870152610755565b916060840152151560808301520390f35b90600182811c92168015610668575b602083101461065257565b634e487b7160e01b600052602260045260246000fd5b91607f1691610647565b60a0810190811067ffffffffffffffff82111761049357604052565b90601f8019910116810190811067ffffffffffffffff82111761049357604052565b906040519182600082546106c381610638565b9081845260209460019160018116908160001461073357506001146106f4575b5050506106f29250038361068e565b565b600090815285812095935091905b81831061071b5750506106f293508201013880806106e3565b85548884018501529485019487945091830191610702565b925050506106f294925060ff191682840152151560051b8201013880806106e3565b919082519283825260005b848110610781575050826000602080949584010152601f8019910116010190565b602081830181015184830182015201610760565b9181601f840112156101315782359167ffffffffffffffff8311610131576020838186019501011161013157565b92919267ffffffffffffffff821161049357604051916107ed601f8201601f19166020018461068e565b82948184528183011161013157828160209384600096013701015256fea26469706673582212204a4edffa7e97344db1de4bbc6ccf560987b1c10bd3f760ad5fbc647fb334d2c364736f6c63430008180033",
  "linkReferences": {},
  "deployedLinkReferences": {}
}